{
	"Advance/enum.sol": {
		"Enum": {
			"abi": [
				{
					"inputs": [],
					"name": "activate",
					"outputs": [],
					"stateMutability": "nonpayable",
					"type": "function"
				},
				{
					"inputs": [],
					"name": "currentState",
					"outputs": [
						{
							"internalType": "enum Enum.State",
							"name": "",
							"type": "uint8"
						}
					],
					"stateMutability": "view",
					"type": "function"
				},
				{
					"inputs": [],
					"name": "u1",
					"outputs": [
						{
							"internalType": "enum Enum.user",
							"name": "",
							"type": "uint8"
						}
					],
					"stateMutability": "view",
					"type": "function"
				}
			],
			"devdoc": {
				"kind": "dev",
				"methods": {},
				"version": 1
			},
			"evm": {
				"assembly": "    /* \"Advance/enum.sol\":72:349  contract Enum{... */\n  mstore(0x40, 0x80)\n    /* \"Advance/enum.sol\":153:162  user.wait */\n  0x02\n    /* \"Advance/enum.sol\":136:162  user public u1 = user.wait */\n  0x00\n  dup1\n  0x0100\n  exp\n  dup2\n  sload\n  dup2\n  0xff\n  mul\n  not\n  and\n  swap1\n  dup4\n  0x02\n  dup2\n  gt\n  iszero\n  tag_1\n  jumpi\n  tag_2\n  tag_3\n  jump\t// in\ntag_2:\ntag_1:\n  mul\n  or\n  swap1\n  sstore\n  pop\n    /* \"Advance/enum.sol\":242:256  State.Inactive */\n  0x00\n    /* \"Advance/enum.sol\":214:256  State public currentState = State.Inactive */\n  dup1\n  exp(0x0100, 0x01)\n  dup2\n  sload\n  dup2\n  0xff\n  mul\n  not\n  and\n  swap1\n  dup4\n  0x01\n  dup2\n  gt\n  iszero\n  tag_4\n  jumpi\n  tag_5\n  tag_3\n  jump\t// in\ntag_5:\ntag_4:\n  mul\n  or\n  swap1\n  sstore\n  pop\n    /* \"Advance/enum.sol\":72:349  contract Enum{... */\n  callvalue\n  dup1\n  iszero\n  tag_6\n  jumpi\n  0x00\n  dup1\n  revert\ntag_6:\n  pop\n  jump(tag_7)\n    /* \"#utility.yul\":7:187   */\ntag_3:\n    /* \"#utility.yul\":55:132   */\n  0x4e487b7100000000000000000000000000000000000000000000000000000000\n    /* \"#utility.yul\":52:53   */\n  0x00\n    /* \"#utility.yul\":45:133   */\n  mstore\n    /* \"#utility.yul\":152:156   */\n  0x21\n    /* \"#utility.yul\":149:150   */\n  0x04\n    /* \"#utility.yul\":142:157   */\n  mstore\n    /* \"#utility.yul\":176:180   */\n  0x24\n    /* \"#utility.yul\":173:174   */\n  0x00\n    /* \"#utility.yul\":166:181   */\n  revert\n    /* \"Advance/enum.sol\":72:349  contract Enum{... */\ntag_7:\n  dataSize(sub_0)\n  dup1\n  dataOffset(sub_0)\n  0x00\n  codecopy\n  0x00\n  return\nstop\n\nsub_0: assembly {\n        /* \"Advance/enum.sol\":72:349  contract Enum{... */\n      mstore(0x40, 0x80)\n      callvalue\n      dup1\n      iszero\n      tag_1\n      jumpi\n      0x00\n      dup1\n      revert\n    tag_1:\n      pop\n      jumpi(tag_2, lt(calldatasize, 0x04))\n      shr(0xe0, calldataload(0x00))\n      dup1\n      0x0c3f6acf\n      eq\n      tag_3\n      jumpi\n      dup1\n      0x0f15f4c0\n      eq\n      tag_4\n      jumpi\n      dup1\n      0x1aa35610\n      eq\n      tag_5\n      jumpi\n    tag_2:\n      0x00\n      dup1\n      revert\n        /* \"Advance/enum.sol\":214:256  State public currentState = State.Inactive */\n    tag_3:\n      tag_6\n      tag_7\n      jump\t// in\n    tag_6:\n      mload(0x40)\n      tag_8\n      swap2\n      swap1\n      tag_9\n      jump\t// in\n    tag_8:\n      mload(0x40)\n      dup1\n      swap2\n      sub\n      swap1\n      return\n        /* \"Advance/enum.sol\":269:342  function activate() public {... */\n    tag_4:\n      tag_10\n      tag_11\n      jump\t// in\n    tag_10:\n      stop\n        /* \"Advance/enum.sol\":136:162  user public u1 = user.wait */\n    tag_5:\n      tag_12\n      tag_13\n      jump\t// in\n    tag_12:\n      mload(0x40)\n      tag_14\n      swap2\n      swap1\n      tag_15\n      jump\t// in\n    tag_14:\n      mload(0x40)\n      dup1\n      swap2\n      sub\n      swap1\n      return\n        /* \"Advance/enum.sol\":214:256  State public currentState = State.Inactive */\n    tag_7:\n      0x00\n      0x01\n      swap1\n      sload\n      swap1\n      0x0100\n      exp\n      swap1\n      div\n      0xff\n      and\n      dup2\n      jump\t// out\n        /* \"Advance/enum.sol\":269:342  function activate() public {... */\n    tag_11:\n        /* \"Advance/enum.sol\":322:334  State.Active */\n      0x01\n        /* \"Advance/enum.sol\":307:319  currentState */\n      0x00\n      0x01\n        /* \"Advance/enum.sol\":307:334  currentState = State.Active */\n      0x0100\n      exp\n      dup2\n      sload\n      dup2\n      0xff\n      mul\n      not\n      and\n      swap1\n      dup4\n      0x01\n      dup2\n      gt\n      iszero\n      tag_17\n      jumpi\n      tag_18\n      tag_19\n      jump\t// in\n    tag_18:\n    tag_17:\n      mul\n      or\n      swap1\n      sstore\n      pop\n        /* \"Advance/enum.sol\":269:342  function activate() public {... */\n      jump\t// out\n        /* \"Advance/enum.sol\":136:162  user public u1 = user.wait */\n    tag_13:\n      0x00\n      dup1\n      sload\n      swap1\n      0x0100\n      exp\n      swap1\n      div\n      0xff\n      and\n      dup2\n      jump\t// out\n        /* \"#utility.yul\":7:187   */\n    tag_19:\n        /* \"#utility.yul\":55:132   */\n      0x4e487b7100000000000000000000000000000000000000000000000000000000\n        /* \"#utility.yul\":52:53   */\n      0x00\n        /* \"#utility.yul\":45:133   */\n      mstore\n        /* \"#utility.yul\":152:156   */\n      0x21\n        /* \"#utility.yul\":149:150   */\n      0x04\n        /* \"#utility.yul\":142:157   */\n      mstore\n        /* \"#utility.yul\":176:180   */\n      0x24\n        /* \"#utility.yul\":173:174   */\n      0x00\n        /* \"#utility.yul\":166:181   */\n      revert\n        /* \"#utility.yul\":193:306   */\n    tag_20:\n        /* \"#utility.yul\":274:275   */\n      0x02\n        /* \"#utility.yul\":267:272   */\n      dup2\n        /* \"#utility.yul\":264:276   */\n      lt\n        /* \"#utility.yul\":254:300   */\n      tag_31\n      jumpi\n        /* \"#utility.yul\":280:298   */\n      tag_32\n      tag_19\n      jump\t// in\n    tag_32:\n        /* \"#utility.yul\":254:300   */\n    tag_31:\n        /* \"#utility.yul\":193:306   */\n      pop\n      jump\t// out\n        /* \"#utility.yul\":312:439   */\n    tag_21:\n        /* \"#utility.yul\":357:364   */\n      0x00\n        /* \"#utility.yul\":386:391   */\n      dup2\n        /* \"#utility.yul\":375:391   */\n      swap1\n      pop\n        /* \"#utility.yul\":392:433   */\n      tag_34\n        /* \"#utility.yul\":427:432   */\n      dup3\n        /* \"#utility.yul\":392:433   */\n      tag_20\n      jump\t// in\n    tag_34:\n        /* \"#utility.yul\":312:439   */\n      swap2\n      swap1\n      pop\n      jump\t// out\n        /* \"#utility.yul\":445:572   */\n    tag_22:\n        /* \"#utility.yul\":501:510   */\n      0x00\n        /* \"#utility.yul\":534:566   */\n      tag_36\n        /* \"#utility.yul\":560:565   */\n      dup3\n        /* \"#utility.yul\":534:566   */\n      tag_21\n      jump\t// in\n    tag_36:\n        /* \"#utility.yul\":521:566   */\n      swap1\n      pop\n        /* \"#utility.yul\":445:572   */\n      swap2\n      swap1\n      pop\n      jump\t// out\n        /* \"#utility.yul\":578:721   */\n    tag_23:\n        /* \"#utility.yul\":671:714   */\n      tag_38\n        /* \"#utility.yul\":708:713   */\n      dup2\n        /* \"#utility.yul\":671:714   */\n      tag_22\n      jump\t// in\n    tag_38:\n        /* \"#utility.yul\":666:669   */\n      dup3\n        /* \"#utility.yul\":659:715   */\n      mstore\n        /* \"#utility.yul\":578:721   */\n      pop\n      pop\n      jump\t// out\n        /* \"#utility.yul\":727:961   */\n    tag_9:\n        /* \"#utility.yul\":826:830   */\n      0x00\n        /* \"#utility.yul\":864:866   */\n      0x20\n        /* \"#utility.yul\":853:862   */\n      dup3\n        /* \"#utility.yul\":849:867   */\n      add\n        /* \"#utility.yul\":841:867   */\n      swap1\n      pop\n        /* \"#utility.yul\":877:954   */\n      tag_40\n        /* \"#utility.yul\":951:952   */\n      0x00\n        /* \"#utility.yul\":940:949   */\n      dup4\n        /* \"#utility.yul\":936:953   */\n      add\n        /* \"#utility.yul\":927:933   */\n      dup5\n        /* \"#utility.yul\":877:954   */\n      tag_23\n      jump\t// in\n    tag_40:\n        /* \"#utility.yul\":727:961   */\n      swap3\n      swap2\n      pop\n      pop\n      jump\t// out\n        /* \"#utility.yul\":967:1078   */\n    tag_24:\n        /* \"#utility.yul\":1046:1047   */\n      0x03\n        /* \"#utility.yul\":1039:1044   */\n      dup2\n        /* \"#utility.yul\":1036:1048   */\n      lt\n        /* \"#utility.yul\":1026:1072   */\n      tag_42\n      jumpi\n        /* \"#utility.yul\":1052:1070   */\n      tag_43\n      tag_19\n      jump\t// in\n    tag_43:\n        /* \"#utility.yul\":1026:1072   */\n    tag_42:\n        /* \"#utility.yul\":967:1078   */\n      pop\n      jump\t// out\n        /* \"#utility.yul\":1084:1207   */\n    tag_25:\n        /* \"#utility.yul\":1127:1134   */\n      0x00\n        /* \"#utility.yul\":1156:1161   */\n      dup2\n        /* \"#utility.yul\":1145:1161   */\n      swap1\n      pop\n        /* \"#utility.yul\":1162:1201   */\n      tag_45\n        /* \"#utility.yul\":1195:1200   */\n      dup3\n        /* \"#utility.yul\":1162:1201   */\n      tag_24\n      jump\t// in\n    tag_45:\n        /* \"#utility.yul\":1084:1207   */\n      swap2\n      swap1\n      pop\n      jump\t// out\n        /* \"#utility.yul\":1213:1336   */\n    tag_26:\n        /* \"#utility.yul\":1267:1276   */\n      0x00\n        /* \"#utility.yul\":1300:1330   */\n      tag_47\n        /* \"#utility.yul\":1324:1329   */\n      dup3\n        /* \"#utility.yul\":1300:1330   */\n      tag_25\n      jump\t// in\n    tag_47:\n        /* \"#utility.yul\":1287:1330   */\n      swap1\n      pop\n        /* \"#utility.yul\":1213:1336   */\n      swap2\n      swap1\n      pop\n      jump\t// out\n        /* \"#utility.yul\":1342:1481   */\n    tag_27:\n        /* \"#utility.yul\":1433:1474   */\n      tag_49\n        /* \"#utility.yul\":1468:1473   */\n      dup2\n        /* \"#utility.yul\":1433:1474   */\n      tag_26\n      jump\t// in\n    tag_49:\n        /* \"#utility.yul\":1428:1431   */\n      dup3\n        /* \"#utility.yul\":1421:1475   */\n      mstore\n        /* \"#utility.yul\":1342:1481   */\n      pop\n      pop\n      jump\t// out\n        /* \"#utility.yul\":1487:1717   */\n    tag_15:\n        /* \"#utility.yul\":1584:1588   */\n      0x00\n        /* \"#utility.yul\":1622:1624   */\n      0x20\n        /* \"#utility.yul\":1611:1620   */\n      dup3\n        /* \"#utility.yul\":1607:1625   */\n      add\n        /* \"#utility.yul\":1599:1625   */\n      swap1\n      pop\n        /* \"#utility.yul\":1635:1710   */\n      tag_51\n        /* \"#utility.yul\":1707:1708   */\n      0x00\n        /* \"#utility.yul\":1696:1705   */\n      dup4\n        /* \"#utility.yul\":1692:1709   */\n      add\n        /* \"#utility.yul\":1683:1689   */\n      dup5\n        /* \"#utility.yul\":1635:1710   */\n      tag_27\n      jump\t// in\n    tag_51:\n        /* \"#utility.yul\":1487:1717   */\n      swap3\n      swap2\n      pop\n      pop\n      jump\t// out\n\n    auxdata: 0xa2646970667358221220ada5d9b423e0bf0d8a85c3e08c16e38a7944839467610132a354137881f7d09664736f6c63430008120033\n}\n",
				"bytecode": {
					"linkReferences": {},
					"object": "608060405260026000806101000a81548160ff021916908360028111156100295761002861006a565b5b021790555060008060016101000a81548160ff021916908360018111156100535761005261006a565b5b021790555034801561006457600080fd5b50610099565b7f4e487b7100000000000000000000000000000000000000000000000000000000600052602160045260246000fd5b610208806100a86000396000f3fe608060405234801561001057600080fd5b50600436106100415760003560e01c80630c3f6acf146100465780630f15f4c0146100645780631aa356101461006e575b600080fd5b61004e61008c565b60405161005b9190610154565b60405180910390f35b61006c61009f565b005b6100766100cc565b60405161008391906101b7565b60405180910390f35b600060019054906101000a900460ff1681565b6001600060016101000a81548160ff021916908360018111156100c5576100c46100dd565b5b0217905550565b60008054906101000a900460ff1681565b7f4e487b7100000000000000000000000000000000000000000000000000000000600052602160045260246000fd5b6002811061011d5761011c6100dd565b5b50565b600081905061012e8261010c565b919050565b600061013e82610120565b9050919050565b61014e81610133565b82525050565b60006020820190506101696000830184610145565b92915050565b600381106101805761017f6100dd565b5b50565b60008190506101918261016f565b919050565b60006101a182610183565b9050919050565b6101b181610196565b82525050565b60006020820190506101cc60008301846101a8565b9291505056fea2646970667358221220ada5d9b423e0bf0d8a85c3e08c16e38a7944839467610132a354137881f7d09664736f6c63430008120033",
					"opcodes": "PUSH1 0x80 PUSH1 0x40 MSTORE PUSH1 0x2 PUSH1 0x0 DUP1 PUSH2 0x100 EXP DUP2 SLOAD DUP2 PUSH1 0xFF MUL NOT AND SWAP1 DUP4 PUSH1 0x2 DUP2 GT ISZERO PUSH2 0x29 JUMPI PUSH2 0x28 PUSH2 0x6A JUMP JUMPDEST JUMPDEST MUL OR SWAP1 SSTORE POP PUSH1 0x0 DUP1 PUSH1 0x1 PUSH2 0x100 EXP DUP2 SLOAD DUP2 PUSH1 0xFF MUL NOT AND SWAP1 DUP4 PUSH1 0x1 DUP2 GT ISZERO PUSH2 0x53 JUMPI PUSH2 0x52 PUSH2 0x6A JUMP JUMPDEST JUMPDEST MUL OR SWAP1 SSTORE POP CALLVALUE DUP1 ISZERO PUSH2 0x64 JUMPI PUSH1 0x0 DUP1 REVERT JUMPDEST POP PUSH2 0x99 JUMP JUMPDEST PUSH32 0x4E487B7100000000000000000000000000000000000000000000000000000000 PUSH1 0x0 MSTORE PUSH1 0x21 PUSH1 0x4 MSTORE PUSH1 0x24 PUSH1 0x0 REVERT JUMPDEST PUSH2 0x208 DUP1 PUSH2 0xA8 PUSH1 0x0 CODECOPY PUSH1 0x0 RETURN INVALID PUSH1 0x80 PUSH1 0x40 MSTORE CALLVALUE DUP1 ISZERO PUSH2 0x10 JUMPI PUSH1 0x0 DUP1 REVERT JUMPDEST POP PUSH1 0x4 CALLDATASIZE LT PUSH2 0x41 JUMPI PUSH1 0x0 CALLDATALOAD PUSH1 0xE0 SHR DUP1 PUSH4 0xC3F6ACF EQ PUSH2 0x46 JUMPI DUP1 PUSH4 0xF15F4C0 EQ PUSH2 0x64 JUMPI DUP1 PUSH4 0x1AA35610 EQ PUSH2 0x6E JUMPI JUMPDEST PUSH1 0x0 DUP1 REVERT JUMPDEST PUSH2 0x4E PUSH2 0x8C JUMP JUMPDEST PUSH1 0x40 MLOAD PUSH2 0x5B SWAP2 SWAP1 PUSH2 0x154 JUMP JUMPDEST PUSH1 0x40 MLOAD DUP1 SWAP2 SUB SWAP1 RETURN JUMPDEST PUSH2 0x6C PUSH2 0x9F JUMP JUMPDEST STOP JUMPDEST PUSH2 0x76 PUSH2 0xCC JUMP JUMPDEST PUSH1 0x40 MLOAD PUSH2 0x83 SWAP2 SWAP1 PUSH2 0x1B7 JUMP JUMPDEST PUSH1 0x40 MLOAD DUP1 SWAP2 SUB SWAP1 RETURN JUMPDEST PUSH1 0x0 PUSH1 0x1 SWAP1 SLOAD SWAP1 PUSH2 0x100 EXP SWAP1 DIV PUSH1 0xFF AND DUP2 JUMP JUMPDEST PUSH1 0x1 PUSH1 0x0 PUSH1 0x1 PUSH2 0x100 EXP DUP2 SLOAD DUP2 PUSH1 0xFF MUL NOT AND SWAP1 DUP4 PUSH1 0x1 DUP2 GT ISZERO PUSH2 0xC5 JUMPI PUSH2 0xC4 PUSH2 0xDD JUMP JUMPDEST JUMPDEST MUL OR SWAP1 SSTORE POP JUMP JUMPDEST PUSH1 0x0 DUP1 SLOAD SWAP1 PUSH2 0x100 EXP SWAP1 DIV PUSH1 0xFF AND DUP2 JUMP JUMPDEST PUSH32 0x4E487B7100000000000000000000000000000000000000000000000000000000 PUSH1 0x0 MSTORE PUSH1 0x21 PUSH1 0x4 MSTORE PUSH1 0x24 PUSH1 0x0 REVERT JUMPDEST PUSH1 0x2 DUP2 LT PUSH2 0x11D JUMPI PUSH2 0x11C PUSH2 0xDD JUMP JUMPDEST JUMPDEST POP JUMP JUMPDEST PUSH1 0x0 DUP2 SWAP1 POP PUSH2 0x12E DUP3 PUSH2 0x10C JUMP JUMPDEST SWAP2 SWAP1 POP JUMP JUMPDEST PUSH1 0x0 PUSH2 0x13E DUP3 PUSH2 0x120 JUMP JUMPDEST SWAP1 POP SWAP2 SWAP1 POP JUMP JUMPDEST PUSH2 0x14E DUP2 PUSH2 0x133 JUMP JUMPDEST DUP3 MSTORE POP POP JUMP JUMPDEST PUSH1 0x0 PUSH1 0x20 DUP3 ADD SWAP1 POP PUSH2 0x169 PUSH1 0x0 DUP4 ADD DUP5 PUSH2 0x145 JUMP JUMPDEST SWAP3 SWAP2 POP POP JUMP JUMPDEST PUSH1 0x3 DUP2 LT PUSH2 0x180 JUMPI PUSH2 0x17F PUSH2 0xDD JUMP JUMPDEST JUMPDEST POP JUMP JUMPDEST PUSH1 0x0 DUP2 SWAP1 POP PUSH2 0x191 DUP3 PUSH2 0x16F JUMP JUMPDEST SWAP2 SWAP1 POP JUMP JUMPDEST PUSH1 0x0 PUSH2 0x1A1 DUP3 PUSH2 0x183 JUMP JUMPDEST SWAP1 POP SWAP2 SWAP1 POP JUMP JUMPDEST PUSH2 0x1B1 DUP2 PUSH2 0x196 JUMP JUMPDEST DUP3 MSTORE POP POP JUMP JUMPDEST PUSH1 0x0 PUSH1 0x20 DUP3 ADD SWAP1 POP PUSH2 0x1CC PUSH1 0x0 DUP4 ADD DUP5 PUSH2 0x1A8 JUMP JUMPDEST SWAP3 SWAP2 POP POP JUMP INVALID LOG2 PUSH5 0x6970667358 0x22 SLT KECCAK256 0xAD 0xA5 0xD9 0xB4 0x23 0xE0 0xBF 0xD DUP11 DUP6 0xC3 0xE0 DUP13 AND 0xE3 DUP11 PUSH26 0x44839467610132A354137881F7D09664736F6C63430008120033 "
				},
				"gasEstimates": {
					"creation": {
						"codeDepositCost": "104000",
						"executionCost": "48789",
						"totalCost": "152789"
					},
					"external": {
						"activate()": "24481",
						"currentState()": "2588",
						"u1()": "2579"
					}
				},
				"methodIdentifiers": {
					"activate()": "0f15f4c0",
					"currentState()": "0c3f6acf",
					"u1()": "1aa35610"
				}
			},
			"storageLayout": {
				"storage": [
					{
						"astId": 10,
						"contract": "Advance/enum.sol:Enum",
						"label": "u1",
						"offset": 0,
						"slot": "0",
						"type": "t_enum(user)5"
					},
					{
						"astId": 18,
						"contract": "Advance/enum.sol:Enum",
						"label": "currentState",
						"offset": 1,
						"slot": "0",
						"type": "t_enum(State)13"
					}
				],
				"types": {
					"t_enum(State)13": {
						"encoding": "inplace",
						"label": "enum Enum.State",
						"numberOfBytes": "1"
					},
					"t_enum(user)5": {
						"encoding": "inplace",
						"label": "enum Enum.user",
						"numberOfBytes": "1"
					}
				}
			},
			"userdoc": {
				"kind": "user",
				"methods": {},
				"version": 1
			}
		}
	}
}