{
	"data": {
		"bytecode": {
			"linkReferences": {},
			"object": "608060405234801561001057600080fd5b50610884806100206000396000f3fe608060405234801561001057600080fd5b506004361061004c5760003560e01c806317d7de7c14610051578063a87ace411461006f578063c47f00271461009f578063c9107875146100bb575b600080fd5b6100596100eb565b6040516100669190610258565b60405180910390f35b610089600480360381019061008491906102c4565b61017d565b6040516100969190610313565b60405180910390f35b6100b960048036038101906100b49190610463565b610193565b005b6100d560048036038101906100d091906104ac565b6101a6565b6040516100e29190610313565b60405180910390f35b6060600080546100fa9061052e565b80601f01602080910402602001604051908101604052809291908181526020018280546101269061052e565b80156101735780601f1061014857610100808354040283529160200191610173565b820191906000526020600020905b81548152906001019060200180831161015657829003601f168201915b5050505050905090565b6000818361018b919061058e565b905092915050565b80600090816101a2919061077c565b5050565b60008183856101b5919061058e565b6101bf919061058e565b90509392505050565b600081519050919050565b600082825260208201905092915050565b60005b838110156102025780820151818401526020810190506101e7565b60008484015250505050565b6000601f19601f8301169050919050565b600061022a826101c8565b61023481856101d3565b93506102448185602086016101e4565b61024d8161020e565b840191505092915050565b60006020820190508181036000830152610272818461021f565b905092915050565b6000604051905090565b600080fd5b600080fd5b6000819050919050565b6102a18161028e565b81146102ac57600080fd5b50565b6000813590506102be81610298565b92915050565b600080604083850312156102db576102da610284565b5b60006102e9858286016102af565b92505060206102fa858286016102af565b9150509250929050565b61030d8161028e565b82525050565b60006020820190506103286000830184610304565b92915050565b600080fd5b600080fd5b7f4e487b7100000000000000000000000000000000000000000000000000000000600052604160045260246000fd5b6103708261020e565b810181811067ffffffffffffffff8211171561038f5761038e610338565b5b80604052505050565b60006103a261027a565b90506103ae8282610367565b919050565b600067ffffffffffffffff8211156103ce576103cd610338565b5b6103d78261020e565b9050602081019050919050565b82818337600083830152505050565b6000610406610401846103b3565b610398565b90508281526020810184848401111561042257610421610333565b5b61042d8482856103e4565b509392505050565b600082601f83011261044a5761044961032e565b5b813561045a8482602086016103f3565b91505092915050565b60006020828403121561047957610478610284565b5b600082013567ffffffffffffffff81111561049757610496610289565b5b6104a384828501610435565b91505092915050565b6000806000606084860312156104c5576104c4610284565b5b60006104d3868287016102af565b93505060206104e4868287016102af565b92505060406104f5868287016102af565b9150509250925092565b7f4e487b7100000000000000000000000000000000000000000000000000000000600052602260045260246000fd5b6000600282049050600182168061054657607f821691505b602082108103610559576105586104ff565b5b50919050565b7f4e487b7100000000000000000000000000000000000000000000000000000000600052601160045260246000fd5b60006105998261028e565b91506105a48361028e565b92508282026105b28161028e565b915082820484148315176105c9576105c861055f565b5b5092915050565b60008190508160005260206000209050919050565b60006020601f8301049050919050565b600082821b905092915050565b6000600883026106327fffffffffffffffffffffffffffffffffffffffffffffffffffffffffffffffff826105f5565b61063c86836105f5565b95508019841693508086168417925050509392505050565b6000819050919050565b600061067961067461066f8461028e565b610654565b61028e565b9050919050565b6000819050919050565b6106938361065e565b6106a761069f82610680565b848454610602565b825550505050565b600090565b6106bc6106af565b6106c781848461068a565b505050565b5b818110156106eb576106e06000826106b4565b6001810190506106cd565b5050565b601f82111561073057610701816105d0565b61070a846105e5565b81016020851015610719578190505b61072d610725856105e5565b8301826106cc565b50505b505050565b600082821c905092915050565b600061075360001984600802610735565b1980831691505092915050565b600061076c8383610742565b9150826002028217905092915050565b610785826101c8565b67ffffffffffffffff81111561079e5761079d610338565b5b6107a8825461052e565b6107b38282856106ef565b600060209050601f8311600181146107e657600084156107d4578287015190505b6107de8582610760565b865550610846565b601f1984166107f4866105d0565b60005b8281101561081c578489015182556001820191506020850194506020810190506107f7565b868310156108395784890151610835601f891682610742565b8355505b6001600288020188555050505b50505050505056fea26469706673582212200ab27381360d12dec7aa9b7f648de843a326ce0944d9bb031c010fd896511f8d64736f6c63430008120033",
			"opcodes": "PUSH1 0x80 PUSH1 0x40 MSTORE CALLVALUE DUP1 ISZERO PUSH2 0x10 JUMPI PUSH1 0x0 DUP1 REVERT JUMPDEST POP PUSH2 0x884 DUP1 PUSH2 0x20 PUSH1 0x0 CODECOPY PUSH1 0x0 RETURN INVALID PUSH1 0x80 PUSH1 0x40 MSTORE CALLVALUE DUP1 ISZERO PUSH2 0x10 JUMPI PUSH1 0x0 DUP1 REVERT JUMPDEST POP PUSH1 0x4 CALLDATASIZE LT PUSH2 0x4C JUMPI PUSH1 0x0 CALLDATALOAD PUSH1 0xE0 SHR DUP1 PUSH4 0x17D7DE7C EQ PUSH2 0x51 JUMPI DUP1 PUSH4 0xA87ACE41 EQ PUSH2 0x6F JUMPI DUP1 PUSH4 0xC47F0027 EQ PUSH2 0x9F JUMPI DUP1 PUSH4 0xC9107875 EQ PUSH2 0xBB JUMPI JUMPDEST PUSH1 0x0 DUP1 REVERT JUMPDEST PUSH2 0x59 PUSH2 0xEB JUMP JUMPDEST PUSH1 0x40 MLOAD PUSH2 0x66 SWAP2 SWAP1 PUSH2 0x258 JUMP JUMPDEST PUSH1 0x40 MLOAD DUP1 SWAP2 SUB SWAP1 RETURN JUMPDEST PUSH2 0x89 PUSH1 0x4 DUP1 CALLDATASIZE SUB DUP2 ADD SWAP1 PUSH2 0x84 SWAP2 SWAP1 PUSH2 0x2C4 JUMP JUMPDEST PUSH2 0x17D JUMP JUMPDEST PUSH1 0x40 MLOAD PUSH2 0x96 SWAP2 SWAP1 PUSH2 0x313 JUMP JUMPDEST PUSH1 0x40 MLOAD DUP1 SWAP2 SUB SWAP1 RETURN JUMPDEST PUSH2 0xB9 PUSH1 0x4 DUP1 CALLDATASIZE SUB DUP2 ADD SWAP1 PUSH2 0xB4 SWAP2 SWAP1 PUSH2 0x463 JUMP JUMPDEST PUSH2 0x193 JUMP JUMPDEST STOP JUMPDEST PUSH2 0xD5 PUSH1 0x4 DUP1 CALLDATASIZE SUB DUP2 ADD SWAP1 PUSH2 0xD0 SWAP2 SWAP1 PUSH2 0x4AC JUMP JUMPDEST PUSH2 0x1A6 JUMP JUMPDEST PUSH1 0x40 MLOAD PUSH2 0xE2 SWAP2 SWAP1 PUSH2 0x313 JUMP JUMPDEST PUSH1 0x40 MLOAD DUP1 SWAP2 SUB SWAP1 RETURN JUMPDEST PUSH1 0x60 PUSH1 0x0 DUP1 SLOAD PUSH2 0xFA SWAP1 PUSH2 0x52E JUMP JUMPDEST DUP1 PUSH1 0x1F ADD PUSH1 0x20 DUP1 SWAP2 DIV MUL PUSH1 0x20 ADD PUSH1 0x40 MLOAD SWAP1 DUP2 ADD PUSH1 0x40 MSTORE DUP1 SWAP3 SWAP2 SWAP1 DUP2 DUP2 MSTORE PUSH1 0x20 ADD DUP3 DUP1 SLOAD PUSH2 0x126 SWAP1 PUSH2 0x52E JUMP JUMPDEST DUP1 ISZERO PUSH2 0x173 JUMPI DUP1 PUSH1 0x1F LT PUSH2 0x148 JUMPI PUSH2 0x100 DUP1 DUP4 SLOAD DIV MUL DUP4 MSTORE SWAP2 PUSH1 0x20 ADD SWAP2 PUSH2 0x173 JUMP JUMPDEST DUP3 ADD SWAP2 SWAP1 PUSH1 0x0 MSTORE PUSH1 0x20 PUSH1 0x0 KECCAK256 SWAP1 JUMPDEST DUP2 SLOAD DUP2 MSTORE SWAP1 PUSH1 0x1 ADD SWAP1 PUSH1 0x20 ADD DUP1 DUP4 GT PUSH2 0x156 JUMPI DUP3 SWAP1 SUB PUSH1 0x1F AND DUP3 ADD SWAP2 JUMPDEST POP POP POP POP POP SWAP1 POP SWAP1 JUMP JUMPDEST PUSH1 0x0 DUP2 DUP4 PUSH2 0x18B SWAP2 SWAP1 PUSH2 0x58E JUMP JUMPDEST SWAP1 POP SWAP3 SWAP2 POP POP JUMP JUMPDEST DUP1 PUSH1 0x0 SWAP1 DUP2 PUSH2 0x1A2 SWAP2 SWAP1 PUSH2 0x77C JUMP JUMPDEST POP POP JUMP JUMPDEST PUSH1 0x0 DUP2 DUP4 DUP6 PUSH2 0x1B5 SWAP2 SWAP1 PUSH2 0x58E JUMP JUMPDEST PUSH2 0x1BF SWAP2 SWAP1 PUSH2 0x58E JUMP JUMPDEST SWAP1 POP SWAP4 SWAP3 POP POP POP JUMP JUMPDEST PUSH1 0x0 DUP2 MLOAD SWAP1 POP SWAP2 SWAP1 POP JUMP JUMPDEST PUSH1 0x0 DUP3 DUP3 MSTORE PUSH1 0x20 DUP3 ADD SWAP1 POP SWAP3 SWAP2 POP POP JUMP JUMPDEST PUSH1 0x0 JUMPDEST DUP4 DUP2 LT ISZERO PUSH2 0x202 JUMPI DUP1 DUP3 ADD MLOAD DUP2 DUP5 ADD MSTORE PUSH1 0x20 DUP2 ADD SWAP1 POP PUSH2 0x1E7 JUMP JUMPDEST PUSH1 0x0 DUP5 DUP5 ADD MSTORE POP POP POP POP JUMP JUMPDEST PUSH1 0x0 PUSH1 0x1F NOT PUSH1 0x1F DUP4 ADD AND SWAP1 POP SWAP2 SWAP1 POP JUMP JUMPDEST PUSH1 0x0 PUSH2 0x22A DUP3 PUSH2 0x1C8 JUMP JUMPDEST PUSH2 0x234 DUP2 DUP6 PUSH2 0x1D3 JUMP JUMPDEST SWAP4 POP PUSH2 0x244 DUP2 DUP6 PUSH1 0x20 DUP7 ADD PUSH2 0x1E4 JUMP JUMPDEST PUSH2 0x24D DUP2 PUSH2 0x20E JUMP JUMPDEST DUP5 ADD SWAP2 POP POP SWAP3 SWAP2 POP POP JUMP JUMPDEST PUSH1 0x0 PUSH1 0x20 DUP3 ADD SWAP1 POP DUP2 DUP2 SUB PUSH1 0x0 DUP4 ADD MSTORE PUSH2 0x272 DUP2 DUP5 PUSH2 0x21F JUMP JUMPDEST SWAP1 POP SWAP3 SWAP2 POP POP JUMP JUMPDEST PUSH1 0x0 PUSH1 0x40 MLOAD SWAP1 POP SWAP1 JUMP JUMPDEST PUSH1 0x0 DUP1 REVERT JUMPDEST PUSH1 0x0 DUP1 REVERT JUMPDEST PUSH1 0x0 DUP2 SWAP1 POP SWAP2 SWAP1 POP JUMP JUMPDEST PUSH2 0x2A1 DUP2 PUSH2 0x28E JUMP JUMPDEST DUP2 EQ PUSH2 0x2AC JUMPI PUSH1 0x0 DUP1 REVERT JUMPDEST POP JUMP JUMPDEST PUSH1 0x0 DUP2 CALLDATALOAD SWAP1 POP PUSH2 0x2BE DUP2 PUSH2 0x298 JUMP JUMPDEST SWAP3 SWAP2 POP POP JUMP JUMPDEST PUSH1 0x0 DUP1 PUSH1 0x40 DUP4 DUP6 SUB SLT ISZERO PUSH2 0x2DB JUMPI PUSH2 0x2DA PUSH2 0x284 JUMP JUMPDEST JUMPDEST PUSH1 0x0 PUSH2 0x2E9 DUP6 DUP3 DUP7 ADD PUSH2 0x2AF JUMP JUMPDEST SWAP3 POP POP PUSH1 0x20 PUSH2 0x2FA DUP6 DUP3 DUP7 ADD PUSH2 0x2AF JUMP JUMPDEST SWAP2 POP POP SWAP3 POP SWAP3 SWAP1 POP JUMP JUMPDEST PUSH2 0x30D DUP2 PUSH2 0x28E JUMP JUMPDEST DUP3 MSTORE POP POP JUMP JUMPDEST PUSH1 0x0 PUSH1 0x20 DUP3 ADD SWAP1 POP PUSH2 0x328 PUSH1 0x0 DUP4 ADD DUP5 PUSH2 0x304 JUMP JUMPDEST SWAP3 SWAP2 POP POP JUMP JUMPDEST PUSH1 0x0 DUP1 REVERT JUMPDEST PUSH1 0x0 DUP1 REVERT JUMPDEST PUSH32 0x4E487B7100000000000000000000000000000000000000000000000000000000 PUSH1 0x0 MSTORE PUSH1 0x41 PUSH1 0x4 MSTORE PUSH1 0x24 PUSH1 0x0 REVERT JUMPDEST PUSH2 0x370 DUP3 PUSH2 0x20E JUMP JUMPDEST DUP2 ADD DUP2 DUP2 LT PUSH8 0xFFFFFFFFFFFFFFFF DUP3 GT OR ISZERO PUSH2 0x38F JUMPI PUSH2 0x38E PUSH2 0x338 JUMP JUMPDEST JUMPDEST DUP1 PUSH1 0x40 MSTORE POP POP POP JUMP JUMPDEST PUSH1 0x0 PUSH2 0x3A2 PUSH2 0x27A JUMP JUMPDEST SWAP1 POP PUSH2 0x3AE DUP3 DUP3 PUSH2 0x367 JUMP JUMPDEST SWAP2 SWAP1 POP JUMP JUMPDEST PUSH1 0x0 PUSH8 0xFFFFFFFFFFFFFFFF DUP3 GT ISZERO PUSH2 0x3CE JUMPI PUSH2 0x3CD PUSH2 0x338 JUMP JUMPDEST JUMPDEST PUSH2 0x3D7 DUP3 PUSH2 0x20E JUMP JUMPDEST SWAP1 POP PUSH1 0x20 DUP2 ADD SWAP1 POP SWAP2 SWAP1 POP JUMP JUMPDEST DUP3 DUP2 DUP4 CALLDATACOPY PUSH1 0x0 DUP4 DUP4 ADD MSTORE POP POP POP JUMP JUMPDEST PUSH1 0x0 PUSH2 0x406 PUSH2 0x401 DUP5 PUSH2 0x3B3 JUMP JUMPDEST PUSH2 0x398 JUMP JUMPDEST SWAP1 POP DUP3 DUP2 MSTORE PUSH1 0x20 DUP2 ADD DUP5 DUP5 DUP5 ADD GT ISZERO PUSH2 0x422 JUMPI PUSH2 0x421 PUSH2 0x333 JUMP JUMPDEST JUMPDEST PUSH2 0x42D DUP5 DUP3 DUP6 PUSH2 0x3E4 JUMP JUMPDEST POP SWAP4 SWAP3 POP POP POP JUMP JUMPDEST PUSH1 0x0 DUP3 PUSH1 0x1F DUP4 ADD SLT PUSH2 0x44A JUMPI PUSH2 0x449 PUSH2 0x32E JUMP JUMPDEST JUMPDEST DUP2 CALLDATALOAD PUSH2 0x45A DUP5 DUP3 PUSH1 0x20 DUP7 ADD PUSH2 0x3F3 JUMP JUMPDEST SWAP2 POP POP SWAP3 SWAP2 POP POP JUMP JUMPDEST PUSH1 0x0 PUSH1 0x20 DUP3 DUP5 SUB SLT ISZERO PUSH2 0x479 JUMPI PUSH2 0x478 PUSH2 0x284 JUMP JUMPDEST JUMPDEST PUSH1 0x0 DUP3 ADD CALLDATALOAD PUSH8 0xFFFFFFFFFFFFFFFF DUP2 GT ISZERO PUSH2 0x497 JUMPI PUSH2 0x496 PUSH2 0x289 JUMP JUMPDEST JUMPDEST PUSH2 0x4A3 DUP5 DUP3 DUP6 ADD PUSH2 0x435 JUMP JUMPDEST SWAP2 POP POP SWAP3 SWAP2 POP POP JUMP JUMPDEST PUSH1 0x0 DUP1 PUSH1 0x0 PUSH1 0x60 DUP5 DUP7 SUB SLT ISZERO PUSH2 0x4C5 JUMPI PUSH2 0x4C4 PUSH2 0x284 JUMP JUMPDEST JUMPDEST PUSH1 0x0 PUSH2 0x4D3 DUP7 DUP3 DUP8 ADD PUSH2 0x2AF JUMP JUMPDEST SWAP4 POP POP PUSH1 0x20 PUSH2 0x4E4 DUP7 DUP3 DUP8 ADD PUSH2 0x2AF JUMP JUMPDEST SWAP3 POP POP PUSH1 0x40 PUSH2 0x4F5 DUP7 DUP3 DUP8 ADD PUSH2 0x2AF JUMP JUMPDEST SWAP2 POP POP SWAP3 POP SWAP3 POP SWAP3 JUMP JUMPDEST PUSH32 0x4E487B7100000000000000000000000000000000000000000000000000000000 PUSH1 0x0 MSTORE PUSH1 0x22 PUSH1 0x4 MSTORE PUSH1 0x24 PUSH1 0x0 REVERT JUMPDEST PUSH1 0x0 PUSH1 0x2 DUP3 DIV SWAP1 POP PUSH1 0x1 DUP3 AND DUP1 PUSH2 0x546 JUMPI PUSH1 0x7F DUP3 AND SWAP2 POP JUMPDEST PUSH1 0x20 DUP3 LT DUP2 SUB PUSH2 0x559 JUMPI PUSH2 0x558 PUSH2 0x4FF JUMP JUMPDEST JUMPDEST POP SWAP2 SWAP1 POP JUMP JUMPDEST PUSH32 0x4E487B7100000000000000000000000000000000000000000000000000000000 PUSH1 0x0 MSTORE PUSH1 0x11 PUSH1 0x4 MSTORE PUSH1 0x24 PUSH1 0x0 REVERT JUMPDEST PUSH1 0x0 PUSH2 0x599 DUP3 PUSH2 0x28E JUMP JUMPDEST SWAP2 POP PUSH2 0x5A4 DUP4 PUSH2 0x28E JUMP JUMPDEST SWAP3 POP DUP3 DUP3 MUL PUSH2 0x5B2 DUP2 PUSH2 0x28E JUMP JUMPDEST SWAP2 POP DUP3 DUP3 DIV DUP5 EQ DUP4 ISZERO OR PUSH2 0x5C9 JUMPI PUSH2 0x5C8 PUSH2 0x55F JUMP JUMPDEST JUMPDEST POP SWAP3 SWAP2 POP POP JUMP JUMPDEST PUSH1 0x0 DUP2 SWAP1 POP DUP2 PUSH1 0x0 MSTORE PUSH1 0x20 PUSH1 0x0 KECCAK256 SWAP1 POP SWAP2 SWAP1 POP JUMP JUMPDEST PUSH1 0x0 PUSH1 0x20 PUSH1 0x1F DUP4 ADD DIV SWAP1 POP SWAP2 SWAP1 POP JUMP JUMPDEST PUSH1 0x0 DUP3 DUP3 SHL SWAP1 POP SWAP3 SWAP2 POP POP JUMP JUMPDEST PUSH1 0x0 PUSH1 0x8 DUP4 MUL PUSH2 0x632 PUSH32 0xFFFFFFFFFFFFFFFFFFFFFFFFFFFFFFFFFFFFFFFFFFFFFFFFFFFFFFFFFFFFFFFF DUP3 PUSH2 0x5F5 JUMP JUMPDEST PUSH2 0x63C DUP7 DUP4 PUSH2 0x5F5 JUMP JUMPDEST SWAP6 POP DUP1 NOT DUP5 AND SWAP4 POP DUP1 DUP7 AND DUP5 OR SWAP3 POP POP POP SWAP4 SWAP3 POP POP POP JUMP JUMPDEST PUSH1 0x0 DUP2 SWAP1 POP SWAP2 SWAP1 POP JUMP JUMPDEST PUSH1 0x0 PUSH2 0x679 PUSH2 0x674 PUSH2 0x66F DUP5 PUSH2 0x28E JUMP JUMPDEST PUSH2 0x654 JUMP JUMPDEST PUSH2 0x28E JUMP JUMPDEST SWAP1 POP SWAP2 SWAP1 POP JUMP JUMPDEST PUSH1 0x0 DUP2 SWAP1 POP SWAP2 SWAP1 POP JUMP JUMPDEST PUSH2 0x693 DUP4 PUSH2 0x65E JUMP JUMPDEST PUSH2 0x6A7 PUSH2 0x69F DUP3 PUSH2 0x680 JUMP JUMPDEST DUP5 DUP5 SLOAD PUSH2 0x602 JUMP JUMPDEST DUP3 SSTORE POP POP POP POP JUMP JUMPDEST PUSH1 0x0 SWAP1 JUMP JUMPDEST PUSH2 0x6BC PUSH2 0x6AF JUMP JUMPDEST PUSH2 0x6C7 DUP2 DUP5 DUP5 PUSH2 0x68A JUMP JUMPDEST POP POP POP JUMP JUMPDEST JUMPDEST DUP2 DUP2 LT ISZERO PUSH2 0x6EB JUMPI PUSH2 0x6E0 PUSH1 0x0 DUP3 PUSH2 0x6B4 JUMP JUMPDEST PUSH1 0x1 DUP2 ADD SWAP1 POP PUSH2 0x6CD JUMP JUMPDEST POP POP JUMP JUMPDEST PUSH1 0x1F DUP3 GT ISZERO PUSH2 0x730 JUMPI PUSH2 0x701 DUP2 PUSH2 0x5D0 JUMP JUMPDEST PUSH2 0x70A DUP5 PUSH2 0x5E5 JUMP JUMPDEST DUP2 ADD PUSH1 0x20 DUP6 LT ISZERO PUSH2 0x719 JUMPI DUP2 SWAP1 POP JUMPDEST PUSH2 0x72D PUSH2 0x725 DUP6 PUSH2 0x5E5 JUMP JUMPDEST DUP4 ADD DUP3 PUSH2 0x6CC JUMP JUMPDEST POP POP JUMPDEST POP POP POP JUMP JUMPDEST PUSH1 0x0 DUP3 DUP3 SHR SWAP1 POP SWAP3 SWAP2 POP POP JUMP JUMPDEST PUSH1 0x0 PUSH2 0x753 PUSH1 0x0 NOT DUP5 PUSH1 0x8 MUL PUSH2 0x735 JUMP JUMPDEST NOT DUP1 DUP4 AND SWAP2 POP POP SWAP3 SWAP2 POP POP JUMP JUMPDEST PUSH1 0x0 PUSH2 0x76C DUP4 DUP4 PUSH2 0x742 JUMP JUMPDEST SWAP2 POP DUP3 PUSH1 0x2 MUL DUP3 OR SWAP1 POP SWAP3 SWAP2 POP POP JUMP JUMPDEST PUSH2 0x785 DUP3 PUSH2 0x1C8 JUMP JUMPDEST PUSH8 0xFFFFFFFFFFFFFFFF DUP2 GT ISZERO PUSH2 0x79E JUMPI PUSH2 0x79D PUSH2 0x338 JUMP JUMPDEST JUMPDEST PUSH2 0x7A8 DUP3 SLOAD PUSH2 0x52E JUMP JUMPDEST PUSH2 0x7B3 DUP3 DUP3 DUP6 PUSH2 0x6EF JUMP JUMPDEST PUSH1 0x0 PUSH1 0x20 SWAP1 POP PUSH1 0x1F DUP4 GT PUSH1 0x1 DUP2 EQ PUSH2 0x7E6 JUMPI PUSH1 0x0 DUP5 ISZERO PUSH2 0x7D4 JUMPI DUP3 DUP8 ADD MLOAD SWAP1 POP JUMPDEST PUSH2 0x7DE DUP6 DUP3 PUSH2 0x760 JUMP JUMPDEST DUP7 SSTORE POP PUSH2 0x846 JUMP JUMPDEST PUSH1 0x1F NOT DUP5 AND PUSH2 0x7F4 DUP7 PUSH2 0x5D0 JUMP JUMPDEST PUSH1 0x0 JUMPDEST DUP3 DUP2 LT ISZERO PUSH2 0x81C JUMPI DUP5 DUP10 ADD MLOAD DUP3 SSTORE PUSH1 0x1 DUP3 ADD SWAP2 POP PUSH1 0x20 DUP6 ADD SWAP5 POP PUSH1 0x20 DUP2 ADD SWAP1 POP PUSH2 0x7F7 JUMP JUMPDEST DUP7 DUP4 LT ISZERO PUSH2 0x839 JUMPI DUP5 DUP10 ADD MLOAD PUSH2 0x835 PUSH1 0x1F DUP10 AND DUP3 PUSH2 0x742 JUMP JUMPDEST DUP4 SSTORE POP JUMPDEST PUSH1 0x1 PUSH1 0x2 DUP9 MUL ADD DUP9 SSTORE POP POP POP JUMPDEST POP POP POP POP POP POP JUMP INVALID LOG2 PUSH5 0x6970667358 0x22 SLT KECCAK256 EXP 0xB2 PUSH20 0x81360D12DEC7AA9B7F648DE843A326CE0944D9BB SUB SHR ADD 0xF 0xD8 SWAP7 MLOAD 0x1F DUP14 PUSH5 0x736F6C6343 STOP ADDMOD SLT STOP CALLER "
		},
		"gasEstimates": {
			"creation": {
				"codeDepositCost": "436000",
				"executionCost": "474",
				"totalCost": "436474"
			},
			"external": {
				"getMulti(uint256,uint256)": "infinite",
				"getMulti(uint256,uint256,uint256)": "infinite",
				"getName()": "infinite",
				"setName(string)": "infinite"
			}
		},
		"methodIdentifiers": {
			"getMulti(uint256,uint256)": "a87ace41",
			"getMulti(uint256,uint256,uint256)": "c9107875",
			"getName()": "17d7de7c",
			"setName(string)": "c47f0027"
		}
	},
	"abi": [
		{
			"inputs": [
				{
					"internalType": "uint256",
					"name": "a",
					"type": "uint256"
				},
				{
					"internalType": "uint256",
					"name": "b",
					"type": "uint256"
				}
			],
			"name": "getMulti",
			"outputs": [
				{
					"internalType": "uint256",
					"name": "",
					"type": "uint256"
				}
			],
			"stateMutability": "pure",
			"type": "function"
		},
		{
			"inputs": [
				{
					"internalType": "uint256",
					"name": "c",
					"type": "uint256"
				},
				{
					"internalType": "uint256",
					"name": "d",
					"type": "uint256"
				},
				{
					"internalType": "uint256",
					"name": "e",
					"type": "uint256"
				}
			],
			"name": "getMulti",
			"outputs": [
				{
					"internalType": "uint256",
					"name": "",
					"type": "uint256"
				}
			],
			"stateMutability": "pure",
			"type": "function"
		},
		{
			"inputs": [],
			"name": "getName",
			"outputs": [
				{
					"internalType": "string",
					"name": "",
					"type": "string"
				}
			],
			"stateMutability": "view",
			"type": "function"
		},
		{
			"inputs": [
				{
					"internalType": "string",
					"name": "n",
					"type": "string"
				}
			],
			"name": "setName",
			"outputs": [],
			"stateMutability": "nonpayable",
			"type": "function"
		}
	]
}