{
	"data": {
		"bytecode": {
			"linkReferences": {},
			"object": "608060405234801561001057600080fd5b50612d42806100206000396000f3fe6080604052600436106100c25760003560e01c8063ad81fced1161007f578063b9ccbfae11610059578063b9ccbfae14610234578063d0e30db01461023e578063edda501214610248578063fb7a3bdf14610276576100c2565b8063ad81fced146101ad578063af105ba7146101d8578063b620740214610206576100c2565b80630696d74a146100c75780632e1a7d4d146100e357806338a2ca401461010c5780634b674096146101375780635415cf03146101535780638dd09d0b1461016f575b600080fd5b6100e160048036038101906100dc9190611aa1565b610292565b005b3480156100ef57600080fd5b5061010a60048036038101906101059190611ae1565b61055d565b005b34801561011857600080fd5b506101216107e0565b60405161012e9190611b1d565b60405180910390f35b610151600480360381019061014c9190611aa1565b6107e8565b005b61016d60048036038101906101689190611aa1565b610ab3565b005b34801561017b57600080fd5b5061019660048036038101906101919190611b96565b610d7e565b6040516101a4929190611bc3565b60405180910390f35b3480156101b957600080fd5b506101c2610da2565b6040516101cf9190611b1d565b60405180910390f35b3480156101e457600080fd5b506101ed610da8565b6040516101fd9493929190611c7c565b60405180910390f35b34801561021257600080fd5b5061021b610e01565b60405161022b9493929190611c7c565b60405180910390f35b61023c610e5a565b005b610246610eb7565b005b34801561025457600080fd5b5061025d610fd5565b60405161026d9493929190611c7c565b60405180910390f35b610290600480360381019061028b9190611dfd565b61102e565b005b61029d338383611668565b5060006014905060006102b182858561179b565b90506040518060400160405280600881526020017f506572736f6e616c00000000000000000000000000000000000000000000000081525060026040516102f790611e9d565b908152602001604051809103902060003373ffffffffffffffffffffffffffffffffffffffff1673ffffffffffffffffffffffffffffffffffffffff168152602001908152602001600020600001908161035191906120be565b5080600260405161036190611e9d565b908152602001604051809103902060003373ffffffffffffffffffffffffffffffffffffffff1673ffffffffffffffffffffffffffffffffffffffff16815260200190815260200160002060030160008282546103be91906121bf565b925050819055508260026040516103d490611e9d565b908152602001604051809103902060003373ffffffffffffffffffffffffffffffffffffffff1673ffffffffffffffffffffffffffffffffffffffff168152602001908152602001600020600201600082825461043191906121bf565b9250508190555083600260405161044790611e9d565b908152602001604051809103902060003373ffffffffffffffffffffffffffffffffffffffff1673ffffffffffffffffffffffffffffffffffffffff16815260200190815260200160002060010160008282546104a491906121bf565b9250508190555083600160003373ffffffffffffffffffffffffffffffffffffffff1673ffffffffffffffffffffffffffffffffffffffff16815260200190815260200160002060000160008282546104fd91906121bf565b925050819055508360008082825461051591906121f3565b925050819055507fd8eee839117c5738e7e307646d6a4503ba5a27738370b5a27a0ee2b200c7765033858560405161054f93929190612282565b60405180910390a150505050565b600081116105a0576040517f08c379a000000000000000000000000000000000000000000000000000000000815260040161059790612318565b60405180910390fd5b6000600160003373ffffffffffffffffffffffffffffffffffffffff1673ffffffffffffffffffffffffffffffffffffffff1681526020019081526020016000206000015403610625576040517f08c379a000000000000000000000000000000000000000000000000000000000815260040161061c90612384565b60405180910390fd5b603c600160003373ffffffffffffffffffffffffffffffffffffffff1673ffffffffffffffffffffffffffffffffffffffff168152602001908152602001600020600101544261067591906121f3565b116106b5576040517f08c379a00000000000000000000000000000000000000000000000000000000081526004016106ac90612416565b60405180910390fd5b600160003373ffffffffffffffffffffffffffffffffffffffff1673ffffffffffffffffffffffffffffffffffffffff1681526020019081526020016000206000015481111561070457600080fd5b80600160003373ffffffffffffffffffffffffffffffffffffffff1673ffffffffffffffffffffffffffffffffffffffff168152602001908152602001600020600001600082825461075691906121f3565b925050819055503373ffffffffffffffffffffffffffffffffffffffff166108fc829081150290604051600060405180830381858888f193505050501580156107a3573d6000803e3d6000fd5b507f22efff027d211a482d0ead24fca8715139a94fb5c85b4604dcb3f3df332facb333826040516107d5929190612482565b60405180910390a150565b600047905090565b6107f3338383611668565b506000600c9050600061080782858561179b565b90506040518060400160405280600381526020017f4361720000000000000000000000000000000000000000000000000000000000815250600260405161084d9061250a565b908152602001604051809103902060003373ffffffffffffffffffffffffffffffffffffffff1673ffffffffffffffffffffffffffffffffffffffff16815260200190815260200160002060000190816108a791906120be565b508060026040516108b79061250a565b908152602001604051809103902060003373ffffffffffffffffffffffffffffffffffffffff1673ffffffffffffffffffffffffffffffffffffffff168152602001908152602001600020600301600082825461091491906121bf565b9250508190555082600260405161092a9061250a565b908152602001604051809103902060003373ffffffffffffffffffffffffffffffffffffffff1673ffffffffffffffffffffffffffffffffffffffff168152602001908152602001600020600201600082825461098791906121bf565b9250508190555083600260405161099d9061250a565b908152602001604051809103902060003373ffffffffffffffffffffffffffffffffffffffff1673ffffffffffffffffffffffffffffffffffffffff16815260200190815260200160002060010160008282546109fa91906121bf565b9250508190555083600160003373ffffffffffffffffffffffffffffffffffffffff1673ffffffffffffffffffffffffffffffffffffffff1681526020019081526020016000206000016000828254610a5391906121bf565b9250508190555083600080828254610a6b91906121f3565b925050819055507f11edf0146ca6e5e8c3e8be9354dbf4fc478507648f8a692c6b08f7d50c96f89e338585604051610aa59392919061256b565b60405180910390a150505050565b610abe338383611668565b506000601090506000610ad282858561179b565b90506040518060400160405280600481526020017f486f6d65000000000000000000000000000000000000000000000000000000008152506002604051610b1890612601565b908152602001604051809103902060003373ffffffffffffffffffffffffffffffffffffffff1673ffffffffffffffffffffffffffffffffffffffff1681526020019081526020016000206000019081610b7291906120be565b50806002604051610b8290612601565b908152602001604051809103902060003373ffffffffffffffffffffffffffffffffffffffff1673ffffffffffffffffffffffffffffffffffffffff1681526020019081526020016000206003016000828254610bdf91906121bf565b92505081905550826002604051610bf590612601565b908152602001604051809103902060003373ffffffffffffffffffffffffffffffffffffffff1673ffffffffffffffffffffffffffffffffffffffff1681526020019081526020016000206002016000828254610c5291906121bf565b92505081905550836002604051610c6890612601565b908152602001604051809103902060003373ffffffffffffffffffffffffffffffffffffffff1673ffffffffffffffffffffffffffffffffffffffff1681526020019081526020016000206001016000828254610cc591906121bf565b9250508190555083600160003373ffffffffffffffffffffffffffffffffffffffff1673ffffffffffffffffffffffffffffffffffffffff1681526020019081526020016000206000016000828254610d1e91906121bf565b9250508190555083600080828254610d3691906121f3565b925050819055507f2cfdeffc4a4d732916a5a326810c043d0be4a1b4e21e7f8af7282ff45c5ed66f338585604051610d7093929190612662565b60405180910390a150505050565b60016020528060005260406000206000915090508060000154908060010154905082565b60005481565b60606000806000806040518060400160405280600381526020017f43617200000000000000000000000000000000000000000000000000000000008152509050610df28133611838565b94509450945094505090919293565b60606000806000806040518060400160405280600481526020017f486f6d65000000000000000000000000000000000000000000000000000000008152509050610e4b8133611838565b94509450945094505090919293565b60003411610e9d576040517f08c379a0000000000000000000000000000000000000000000000000000000008152600401610e94906126f8565b60405180910390fd5b34600080828254610eae91906121bf565b92505081905550565b60003411610efa576040517f08c379a0000000000000000000000000000000000000000000000000000000008152600401610ef1906126f8565b60405180910390fd5b34600160003373ffffffffffffffffffffffffffffffffffffffff1673ffffffffffffffffffffffffffffffffffffffff1681526020019081526020016000206000016000828254610f4c91906121bf565b9250508190555042600160003373ffffffffffffffffffffffffffffffffffffffff1673ffffffffffffffffffffffffffffffffffffffff168152602001908152602001600020600101819055507f5752e81d3f840ed15d83846a26d47f1e7a1bf6fae1fa33acba2dec16780e68713334604051610fcb929190612764565b60405180910390a1565b60606000806000806040518060400160405280600881526020017f506572736f6e616c000000000000000000000000000000000000000000000000815250905061101f8133611838565b94509450945094505090919293565b60405160200161103d906127c3565b604051602081830303815290604052805190602001208160405160200161106491906127e3565b6040516020818303038152906040528051906020012014806110cf575060405160200161109090612828565b60405160208183030381529060405280519060200120816040516020016110b791906127e3565b60405160208183030381529060405280519060200120145b8061112357506040516020016110e49061286b565b604051602081830303815290604052805190602001208160405160200161110b91906127e3565b60405160208183030381529060405280519060200120145b611162576040517f08c379a0000000000000000000000000000000000000000000000000000000008152600401611159906128fd565b60405180910390fd5b6000600282604051611174919061294e565b908152602001604051809103902060003373ffffffffffffffffffffffffffffffffffffffff1673ffffffffffffffffffffffffffffffffffffffff1681526020019081526020016000206002015403611203576040517f08c379a00000000000000000000000000000000000000000000000000000000081526004016111fa906129b1565b60405180910390fd5b600281604051611213919061294e565b908152602001604051809103902060003373ffffffffffffffffffffffffffffffffffffffff1673ffffffffffffffffffffffffffffffffffffffff1681526020019081526020016000206003015434146112a3576040517f08c379a000000000000000000000000000000000000000000000000000000000815260040161129a90612a1d565b60405180910390fd5b62278d006002826040516112b7919061294e565b908152602001604051809103902060003373ffffffffffffffffffffffffffffffffffffffff1673ffffffffffffffffffffffffffffffffffffffff168152602001908152602001600020600401544261131191906121f3565b11611351576040517f08c379a000000000000000000000000000000000000000000000000000000000815260040161134890612aaf565b60405180910390fd5b600281604051611361919061294e565b908152602001604051809103902060003373ffffffffffffffffffffffffffffffffffffffff1673ffffffffffffffffffffffffffffffffffffffff16815260200190815260200160002060030154600160003373ffffffffffffffffffffffffffffffffffffffff1673ffffffffffffffffffffffffffffffffffffffff168152602001908152602001600020600001600082825461140191906121f3565b92505081905550600160028260405161141a919061294e565b908152602001604051809103902060003373ffffffffffffffffffffffffffffffffffffffff1673ffffffffffffffffffffffffffffffffffffffff168152602001908152602001600020600201600082825461147791906121f3565b9250508190555060028160405161148e919061294e565b908152602001604051809103902060003373ffffffffffffffffffffffffffffffffffffffff1673ffffffffffffffffffffffffffffffffffffffff168152602001908152602001600020600301546002826040516114ed919061294e565b908152602001604051809103902060003373ffffffffffffffffffffffffffffffffffffffff1673ffffffffffffffffffffffffffffffffffffffff168152602001908152602001600020600101600082825461154a91906121f3565b9250508190555042600282604051611562919061294e565b908152602001604051809103902060003373ffffffffffffffffffffffffffffffffffffffff1673ffffffffffffffffffffffffffffffffffffffff168152602001908152602001600020600401819055506002816040516115c4919061294e565b908152602001604051809103902060003373ffffffffffffffffffffffffffffffffffffffff1673ffffffffffffffffffffffffffffffffffffffff1681526020019081526020016000206003015460008082825461162391906121bf565b925050819055507f8db1b7194c3e18eac06d46922e4732b787a3924d723613887c081ac8def42a3533823460405161165d93929190612b1b565b60405180910390a150565b600080600160008673ffffffffffffffffffffffffffffffffffffffff1673ffffffffffffffffffffffffffffffffffffffff16815260200190815260200160002060000154036116ee576040517f08c379a00000000000000000000000000000000000000000000000000000000081526004016116e590612384565b60405180910390fd5b600054831115801561170257506103e88310155b611741576040517f08c379a000000000000000000000000000000000000000000000000000000000815260040161173890612bde565b60405180910390fd5b6001821180156117515750607882105b611790576040517f08c379a000000000000000000000000000000000000000000000000000000000815260040161178790612c4a565b60405180910390fd5b600190509392505050565b6000806104b0905060006001848388856117b591906121bf565b6117bf9190612c99565b186117ca91906121f3565b848388856117d891906121bf565b6117e29190612c99565b188388886117f09190612cca565b6117fa9190612c99565b6118049190612cca565b61180e9190612c99565b9050600084868361181f91906121bf565b6118299190612c99565b90508093505050509392505050565b6060600080600060028660405161184f919061294e565b908152602001604051809103902060008673ffffffffffffffffffffffffffffffffffffffff1673ffffffffffffffffffffffffffffffffffffffff1681526020019081526020016000206000016002876040516118ad919061294e565b908152602001604051809103902060008773ffffffffffffffffffffffffffffffffffffffff1673ffffffffffffffffffffffffffffffffffffffff1681526020019081526020016000206001015460028860405161190c919061294e565b908152602001604051809103902060008873ffffffffffffffffffffffffffffffffffffffff1673ffffffffffffffffffffffffffffffffffffffff1681526020019081526020016000206002015460028960405161196b919061294e565b908152602001604051809103902060008973ffffffffffffffffffffffffffffffffffffffff1673ffffffffffffffffffffffffffffffffffffffff168152602001908152602001600020600301548380546119c690611ee1565b80601f01602080910402602001604051908101604052809291908181526020018280546119f290611ee1565b8015611a3f5780601f10611a1457610100808354040283529160200191611a3f565b820191906000526020600020905b815481529060010190602001808311611a2257829003601f168201915b50505050509350935093509350935092959194509250565b6000604051905090565b600080fd5b600080fd5b6000819050919050565b611a7e81611a6b565b8114611a8957600080fd5b50565b600081359050611a9b81611a75565b92915050565b60008060408385031215611ab857611ab7611a61565b5b6000611ac685828601611a8c565b9250506020611ad785828601611a8c565b9150509250929050565b600060208284031215611af757611af6611a61565b5b6000611b0584828501611a8c565b91505092915050565b611b1781611a6b565b82525050565b6000602082019050611b326000830184611b0e565b92915050565b600073ffffffffffffffffffffffffffffffffffffffff82169050919050565b6000611b6382611b38565b9050919050565b611b7381611b58565b8114611b7e57600080fd5b50565b600081359050611b9081611b6a565b92915050565b600060208284031215611bac57611bab611a61565b5b6000611bba84828501611b81565b91505092915050565b6000604082019050611bd86000830185611b0e565b611be56020830184611b0e565b9392505050565b600081519050919050565b600082825260208201905092915050565b60005b83811015611c26578082015181840152602081019050611c0b565b60008484015250505050565b6000601f19601f8301169050919050565b6000611c4e82611bec565b611c588185611bf7565b9350611c68818560208601611c08565b611c7181611c32565b840191505092915050565b60006080820190508181036000830152611c968187611c43565b9050611ca56020830186611b0e565b611cb26040830185611b0e565b611cbf6060830184611b0e565b95945050505050565b600080fd5b600080fd5b7f4e487b7100000000000000000000000000000000000000000000000000000000600052604160045260246000fd5b611d0a82611c32565b810181811067ffffffffffffffff82111715611d2957611d28611cd2565b5b80604052505050565b6000611d3c611a57565b9050611d488282611d01565b919050565b600067ffffffffffffffff821115611d6857611d67611cd2565b5b611d7182611c32565b9050602081019050919050565b82818337600083830152505050565b6000611da0611d9b84611d4d565b611d32565b905082815260208101848484011115611dbc57611dbb611ccd565b5b611dc7848285611d7e565b509392505050565b600082601f830112611de457611de3611cc8565b5b8135611df4848260208601611d8d565b91505092915050565b600060208284031215611e1357611e12611a61565b5b600082013567ffffffffffffffff811115611e3157611e30611a66565b5b611e3d84828501611dcf565b91505092915050565b600081905092915050565b7f506572736f6e616c000000000000000000000000000000000000000000000000600082015250565b6000611e87600883611e46565b9150611e9282611e51565b600882019050919050565b6000611ea882611e7a565b9150819050919050565b7f4e487b7100000000000000000000000000000000000000000000000000000000600052602260045260246000fd5b60006002820490506001821680611ef957607f821691505b602082108103611f0c57611f0b611eb2565b5b50919050565b60008190508160005260206000209050919050565b60006020601f8301049050919050565b600082821b905092915050565b600060088302611f747fffffffffffffffffffffffffffffffffffffffffffffffffffffffffffffffff82611f37565b611f7e8683611f37565b95508019841693508086168417925050509392505050565b6000819050919050565b6000611fbb611fb6611fb184611a6b565b611f96565b611a6b565b9050919050565b6000819050919050565b611fd583611fa0565b611fe9611fe182611fc2565b848454611f44565b825550505050565b600090565b611ffe611ff1565b612009818484611fcc565b505050565b5b8181101561202d57612022600082611ff6565b60018101905061200f565b5050565b601f8211156120725761204381611f12565b61204c84611f27565b8101602085101561205b578190505b61206f61206785611f27565b83018261200e565b50505b505050565b600082821c905092915050565b600061209560001984600802612077565b1980831691505092915050565b60006120ae8383612084565b9150826002028217905092915050565b6120c782611bec565b67ffffffffffffffff8111156120e0576120df611cd2565b5b6120ea8254611ee1565b6120f5828285612031565b600060209050601f8311600181146121285760008415612116578287015190505b61212085826120a2565b865550612188565b601f19841661213686611f12565b60005b8281101561215e57848901518255600182019150602085019450602081019050612139565b8683101561217b5784890151612177601f891682612084565b8355505b6001600288020188555050505b505050505050565b7f4e487b7100000000000000000000000000000000000000000000000000000000600052601160045260246000fd5b60006121ca82611a6b565b91506121d583611a6b565b92508282019050808211156121ed576121ec612190565b5b92915050565b60006121fe82611a6b565b915061220983611a6b565b925082820390508181111561222157612220612190565b5b92915050565b61223081611b58565b82525050565b7f68617320676f7420706572736f6e616c206c6f616e206f660000000000000000600082015250565b600061226c601883611bf7565b915061227782612236565b602082019050919050565b60006080820190506122976000830186612227565b81810360208301526122a88161225f565b90506122b76040830185611b0e565b6122c46060830184611b0e565b949350505050565b7f506c7a7a20776974686472617720736f6d6520616d6f756e7400000000000000600082015250565b6000612302601983611bf7565b915061230d826122cc565b602082019050919050565b60006020820190508181036000830152612331816122f5565b9050919050565b7f4e6f206461746120657869737400000000000000000000000000000000000000600082015250565b600061236e600d83611bf7565b915061237982612338565b602082019050919050565b6000602082019050818103600083015261239d81612361565b9050919050565b7f4e65656420746f20776169742031206d696e75746573206265666f726520776960008201527f7468647261770000000000000000000000000000000000000000000000000000602082015250565b6000612400602683611bf7565b915061240b826123a4565b604082019050919050565b6000602082019050818103600083015261242f816123f3565b9050919050565b7f6861732077697468647261776e00000000000000000000000000000000000000600082015250565b600061246c600d83611bf7565b915061247782612436565b602082019050919050565b60006060820190506124976000830185612227565b81810360208301526124a88161245f565b90506124b76040830184611b0e565b9392505050565b7f4361720000000000000000000000000000000000000000000000000000000000600082015250565b60006124f4600383611e46565b91506124ff826124be565b600382019050919050565b6000612515826124e7565b9150819050919050565b7f68617320676f7420636172206c6f616e206f6600000000000000000000000000600082015250565b6000612555601383611bf7565b91506125608261251f565b602082019050919050565b60006080820190506125806000830186612227565b818103602083015261259181612548565b90506125a06040830185611b0e565b6125ad6060830184611b0e565b949350505050565b7f486f6d6500000000000000000000000000000000000000000000000000000000600082015250565b60006125eb600483611e46565b91506125f6826125b5565b600482019050919050565b600061260c826125de565b9150819050919050565b7f68617320676f7420686f6d65206c6f616e206f66000000000000000000000000600082015250565b600061264c601483611bf7565b915061265782612616565b602082019050919050565b60006080820190506126776000830186612227565b81810360208301526126888161263f565b90506126976040830185611b0e565b6126a46060830184611b0e565b949350505050565b7f506c7a7a206465706f7369746520736f6d6520616d6f756e7400000000000000600082015250565b60006126e2601983611bf7565b91506126ed826126ac565b602082019050919050565b60006020820190508181036000830152612711816126d5565b9050919050565b7f686173206465706f736974656400000000000000000000000000000000000000600082015250565b600061274e600d83611bf7565b915061275982612718565b602082019050919050565b60006060820190506127796000830185612227565b818103602083015261278a81612741565b90506127996040830184611b0e565b9392505050565b60006127ad600383611bf7565b91506127b8826124be565b602082019050919050565b600060208201905081810360008301526127dc816127a0565b9050919050565b600060208201905081810360008301526127fd8184611c43565b905092915050565b6000612812600483611bf7565b915061281d826125b5565b602082019050919050565b6000602082019050818103600083015261284181612805565b9050919050565b6000612855600883611bf7565b915061286082611e51565b602082019050919050565b6000602082019050818103600083015261288481612848565b9050919050565b7f706c6561736520656e7465722076616c6964206c6f616e207479706520692e6560008201527f20436172206f7220506572736f6e616c206f7220486f6d650000000000000000602082015250565b60006128e7603883611bf7565b91506128f28261288b565b604082019050919050565b60006020820190508181036000830152612916816128da565b9050919050565b600061292882611bec565b6129328185611e46565b9350612942818560208601611c08565b80840191505092915050565b600061295a828461291d565b915081905092915050565b7f4e6f20454d492070656e64696e67000000000000000000000000000000000000600082015250565b600061299b600e83611bf7565b91506129a682612965565b602082019050919050565b600060208201905081810360008301526129ca8161298e565b9050919050565b7f506c656173652073656e642076616c696420616d6f756e74206f6620456d6900600082015250565b6000612a07601f83611bf7565b9150612a12826129d1565b602082019050919050565b60006020820190508181036000830152612a36816129fa565b9050919050565b7f4e65656420746f20776169742031206d6f6e746820616674657220706179696e60008201527f67206c61737420454d4900000000000000000000000000000000000000000000602082015250565b6000612a99602a83611bf7565b9150612aa482612a3d565b604082019050919050565b60006020820190508181036000830152612ac881612a8c565b9050919050565b7f68617320706169642068697320656d69206f6600000000000000000000000000600082015250565b6000612b05601383611bf7565b9150612b1082612acf565b602082019050919050565b6000608082019050612b306000830186612227565b8181036020830152612b4181612af8565b90508181036040830152612b558185611c43565b9050612b646060830184611b0e565b949350505050565b7f416d6f756e742073686f756c642062652067726561746572207468616e20313060008201527f303020616e64206c657373207468656e206c6f616e204c696d69740000000000602082015250565b6000612bc8603b83611bf7565b9150612bd382612b6c565b604082019050919050565b60006020820190508181036000830152612bf781612bbb565b9050919050565b7f74696d652073686f756c6420626520696e2072616e6765203120746f20313230600082015250565b6000612c34602083611bf7565b9150612c3f82612bfe565b602082019050919050565b60006020820190508181036000830152612c6381612c27565b9050919050565b7f4e487b7100000000000000000000000000000000000000000000000000000000600052601260045260246000fd5b6000612ca482611a6b565b9150612caf83611a6b565b925082612cbf57612cbe612c6a565b5b828204905092915050565b6000612cd582611a6b565b9150612ce083611a6b565b9250828202612cee81611a6b565b91508282048414831517612d0557612d04612190565b5b509291505056fea26469706673582212207ecb004932f69f7947e060fa2ec91766620fb0b62038d3eb20c8e54e2a543d6964736f6c63430008120033",
			"opcodes": "PUSH1 0x80 PUSH1 0x40 MSTORE CALLVALUE DUP1 ISZERO PUSH2 0x10 JUMPI PUSH1 0x0 DUP1 REVERT JUMPDEST POP PUSH2 0x2D42 DUP1 PUSH2 0x20 PUSH1 0x0 CODECOPY PUSH1 0x0 RETURN INVALID PUSH1 0x80 PUSH1 0x40 MSTORE PUSH1 0x4 CALLDATASIZE LT PUSH2 0xC2 JUMPI PUSH1 0x0 CALLDATALOAD PUSH1 0xE0 SHR DUP1 PUSH4 0xAD81FCED GT PUSH2 0x7F JUMPI DUP1 PUSH4 0xB9CCBFAE GT PUSH2 0x59 JUMPI DUP1 PUSH4 0xB9CCBFAE EQ PUSH2 0x234 JUMPI DUP1 PUSH4 0xD0E30DB0 EQ PUSH2 0x23E JUMPI DUP1 PUSH4 0xEDDA5012 EQ PUSH2 0x248 JUMPI DUP1 PUSH4 0xFB7A3BDF EQ PUSH2 0x276 JUMPI PUSH2 0xC2 JUMP JUMPDEST DUP1 PUSH4 0xAD81FCED EQ PUSH2 0x1AD JUMPI DUP1 PUSH4 0xAF105BA7 EQ PUSH2 0x1D8 JUMPI DUP1 PUSH4 0xB6207402 EQ PUSH2 0x206 JUMPI PUSH2 0xC2 JUMP JUMPDEST DUP1 PUSH4 0x696D74A EQ PUSH2 0xC7 JUMPI DUP1 PUSH4 0x2E1A7D4D EQ PUSH2 0xE3 JUMPI DUP1 PUSH4 0x38A2CA40 EQ PUSH2 0x10C JUMPI DUP1 PUSH4 0x4B674096 EQ PUSH2 0x137 JUMPI DUP1 PUSH4 0x5415CF03 EQ PUSH2 0x153 JUMPI DUP1 PUSH4 0x8DD09D0B EQ PUSH2 0x16F JUMPI JUMPDEST PUSH1 0x0 DUP1 REVERT JUMPDEST PUSH2 0xE1 PUSH1 0x4 DUP1 CALLDATASIZE SUB DUP2 ADD SWAP1 PUSH2 0xDC SWAP2 SWAP1 PUSH2 0x1AA1 JUMP JUMPDEST PUSH2 0x292 JUMP JUMPDEST STOP JUMPDEST CALLVALUE DUP1 ISZERO PUSH2 0xEF JUMPI PUSH1 0x0 DUP1 REVERT JUMPDEST POP PUSH2 0x10A PUSH1 0x4 DUP1 CALLDATASIZE SUB DUP2 ADD SWAP1 PUSH2 0x105 SWAP2 SWAP1 PUSH2 0x1AE1 JUMP JUMPDEST PUSH2 0x55D JUMP JUMPDEST STOP JUMPDEST CALLVALUE DUP1 ISZERO PUSH2 0x118 JUMPI PUSH1 0x0 DUP1 REVERT JUMPDEST POP PUSH2 0x121 PUSH2 0x7E0 JUMP JUMPDEST PUSH1 0x40 MLOAD PUSH2 0x12E SWAP2 SWAP1 PUSH2 0x1B1D JUMP JUMPDEST PUSH1 0x40 MLOAD DUP1 SWAP2 SUB SWAP1 RETURN JUMPDEST PUSH2 0x151 PUSH1 0x4 DUP1 CALLDATASIZE SUB DUP2 ADD SWAP1 PUSH2 0x14C SWAP2 SWAP1 PUSH2 0x1AA1 JUMP JUMPDEST PUSH2 0x7E8 JUMP JUMPDEST STOP JUMPDEST PUSH2 0x16D PUSH1 0x4 DUP1 CALLDATASIZE SUB DUP2 ADD SWAP1 PUSH2 0x168 SWAP2 SWAP1 PUSH2 0x1AA1 JUMP JUMPDEST PUSH2 0xAB3 JUMP JUMPDEST STOP JUMPDEST CALLVALUE DUP1 ISZERO PUSH2 0x17B JUMPI PUSH1 0x0 DUP1 REVERT JUMPDEST POP PUSH2 0x196 PUSH1 0x4 DUP1 CALLDATASIZE SUB DUP2 ADD SWAP1 PUSH2 0x191 SWAP2 SWAP1 PUSH2 0x1B96 JUMP JUMPDEST PUSH2 0xD7E JUMP JUMPDEST PUSH1 0x40 MLOAD PUSH2 0x1A4 SWAP3 SWAP2 SWAP1 PUSH2 0x1BC3 JUMP JUMPDEST PUSH1 0x40 MLOAD DUP1 SWAP2 SUB SWAP1 RETURN JUMPDEST CALLVALUE DUP1 ISZERO PUSH2 0x1B9 JUMPI PUSH1 0x0 DUP1 REVERT JUMPDEST POP PUSH2 0x1C2 PUSH2 0xDA2 JUMP JUMPDEST PUSH1 0x40 MLOAD PUSH2 0x1CF SWAP2 SWAP1 PUSH2 0x1B1D JUMP JUMPDEST PUSH1 0x40 MLOAD DUP1 SWAP2 SUB SWAP1 RETURN JUMPDEST CALLVALUE DUP1 ISZERO PUSH2 0x1E4 JUMPI PUSH1 0x0 DUP1 REVERT JUMPDEST POP PUSH2 0x1ED PUSH2 0xDA8 JUMP JUMPDEST PUSH1 0x40 MLOAD PUSH2 0x1FD SWAP5 SWAP4 SWAP3 SWAP2 SWAP1 PUSH2 0x1C7C JUMP JUMPDEST PUSH1 0x40 MLOAD DUP1 SWAP2 SUB SWAP1 RETURN JUMPDEST CALLVALUE DUP1 ISZERO PUSH2 0x212 JUMPI PUSH1 0x0 DUP1 REVERT JUMPDEST POP PUSH2 0x21B PUSH2 0xE01 JUMP JUMPDEST PUSH1 0x40 MLOAD PUSH2 0x22B SWAP5 SWAP4 SWAP3 SWAP2 SWAP1 PUSH2 0x1C7C JUMP JUMPDEST PUSH1 0x40 MLOAD DUP1 SWAP2 SUB SWAP1 RETURN JUMPDEST PUSH2 0x23C PUSH2 0xE5A JUMP JUMPDEST STOP JUMPDEST PUSH2 0x246 PUSH2 0xEB7 JUMP JUMPDEST STOP JUMPDEST CALLVALUE DUP1 ISZERO PUSH2 0x254 JUMPI PUSH1 0x0 DUP1 REVERT JUMPDEST POP PUSH2 0x25D PUSH2 0xFD5 JUMP JUMPDEST PUSH1 0x40 MLOAD PUSH2 0x26D SWAP5 SWAP4 SWAP3 SWAP2 SWAP1 PUSH2 0x1C7C JUMP JUMPDEST PUSH1 0x40 MLOAD DUP1 SWAP2 SUB SWAP1 RETURN JUMPDEST PUSH2 0x290 PUSH1 0x4 DUP1 CALLDATASIZE SUB DUP2 ADD SWAP1 PUSH2 0x28B SWAP2 SWAP1 PUSH2 0x1DFD JUMP JUMPDEST PUSH2 0x102E JUMP JUMPDEST STOP JUMPDEST PUSH2 0x29D CALLER DUP4 DUP4 PUSH2 0x1668 JUMP JUMPDEST POP PUSH1 0x0 PUSH1 0x14 SWAP1 POP PUSH1 0x0 PUSH2 0x2B1 DUP3 DUP6 DUP6 PUSH2 0x179B JUMP JUMPDEST SWAP1 POP PUSH1 0x40 MLOAD DUP1 PUSH1 0x40 ADD PUSH1 0x40 MSTORE DUP1 PUSH1 0x8 DUP2 MSTORE PUSH1 0x20 ADD PUSH32 0x506572736F6E616C000000000000000000000000000000000000000000000000 DUP2 MSTORE POP PUSH1 0x2 PUSH1 0x40 MLOAD PUSH2 0x2F7 SWAP1 PUSH2 0x1E9D JUMP JUMPDEST SWAP1 DUP2 MSTORE PUSH1 0x20 ADD PUSH1 0x40 MLOAD DUP1 SWAP2 SUB SWAP1 KECCAK256 PUSH1 0x0 CALLER PUSH20 0xFFFFFFFFFFFFFFFFFFFFFFFFFFFFFFFFFFFFFFFF AND PUSH20 0xFFFFFFFFFFFFFFFFFFFFFFFFFFFFFFFFFFFFFFFF AND DUP2 MSTORE PUSH1 0x20 ADD SWAP1 DUP2 MSTORE PUSH1 0x20 ADD PUSH1 0x0 KECCAK256 PUSH1 0x0 ADD SWAP1 DUP2 PUSH2 0x351 SWAP2 SWAP1 PUSH2 0x20BE JUMP JUMPDEST POP DUP1 PUSH1 0x2 PUSH1 0x40 MLOAD PUSH2 0x361 SWAP1 PUSH2 0x1E9D JUMP JUMPDEST SWAP1 DUP2 MSTORE PUSH1 0x20 ADD PUSH1 0x40 MLOAD DUP1 SWAP2 SUB SWAP1 KECCAK256 PUSH1 0x0 CALLER PUSH20 0xFFFFFFFFFFFFFFFFFFFFFFFFFFFFFFFFFFFFFFFF AND PUSH20 0xFFFFFFFFFFFFFFFFFFFFFFFFFFFFFFFFFFFFFFFF AND DUP2 MSTORE PUSH1 0x20 ADD SWAP1 DUP2 MSTORE PUSH1 0x20 ADD PUSH1 0x0 KECCAK256 PUSH1 0x3 ADD PUSH1 0x0 DUP3 DUP3 SLOAD PUSH2 0x3BE SWAP2 SWAP1 PUSH2 0x21BF JUMP JUMPDEST SWAP3 POP POP DUP2 SWAP1 SSTORE POP DUP3 PUSH1 0x2 PUSH1 0x40 MLOAD PUSH2 0x3D4 SWAP1 PUSH2 0x1E9D JUMP JUMPDEST SWAP1 DUP2 MSTORE PUSH1 0x20 ADD PUSH1 0x40 MLOAD DUP1 SWAP2 SUB SWAP1 KECCAK256 PUSH1 0x0 CALLER PUSH20 0xFFFFFFFFFFFFFFFFFFFFFFFFFFFFFFFFFFFFFFFF AND PUSH20 0xFFFFFFFFFFFFFFFFFFFFFFFFFFFFFFFFFFFFFFFF AND DUP2 MSTORE PUSH1 0x20 ADD SWAP1 DUP2 MSTORE PUSH1 0x20 ADD PUSH1 0x0 KECCAK256 PUSH1 0x2 ADD PUSH1 0x0 DUP3 DUP3 SLOAD PUSH2 0x431 SWAP2 SWAP1 PUSH2 0x21BF JUMP JUMPDEST SWAP3 POP POP DUP2 SWAP1 SSTORE POP DUP4 PUSH1 0x2 PUSH1 0x40 MLOAD PUSH2 0x447 SWAP1 PUSH2 0x1E9D JUMP JUMPDEST SWAP1 DUP2 MSTORE PUSH1 0x20 ADD PUSH1 0x40 MLOAD DUP1 SWAP2 SUB SWAP1 KECCAK256 PUSH1 0x0 CALLER PUSH20 0xFFFFFFFFFFFFFFFFFFFFFFFFFFFFFFFFFFFFFFFF AND PUSH20 0xFFFFFFFFFFFFFFFFFFFFFFFFFFFFFFFFFFFFFFFF AND DUP2 MSTORE PUSH1 0x20 ADD SWAP1 DUP2 MSTORE PUSH1 0x20 ADD PUSH1 0x0 KECCAK256 PUSH1 0x1 ADD PUSH1 0x0 DUP3 DUP3 SLOAD PUSH2 0x4A4 SWAP2 SWAP1 PUSH2 0x21BF JUMP JUMPDEST SWAP3 POP POP DUP2 SWAP1 SSTORE POP DUP4 PUSH1 0x1 PUSH1 0x0 CALLER PUSH20 0xFFFFFFFFFFFFFFFFFFFFFFFFFFFFFFFFFFFFFFFF AND PUSH20 0xFFFFFFFFFFFFFFFFFFFFFFFFFFFFFFFFFFFFFFFF AND DUP2 MSTORE PUSH1 0x20 ADD SWAP1 DUP2 MSTORE PUSH1 0x20 ADD PUSH1 0x0 KECCAK256 PUSH1 0x0 ADD PUSH1 0x0 DUP3 DUP3 SLOAD PUSH2 0x4FD SWAP2 SWAP1 PUSH2 0x21BF JUMP JUMPDEST SWAP3 POP POP DUP2 SWAP1 SSTORE POP DUP4 PUSH1 0x0 DUP1 DUP3 DUP3 SLOAD PUSH2 0x515 SWAP2 SWAP1 PUSH2 0x21F3 JUMP JUMPDEST SWAP3 POP POP DUP2 SWAP1 SSTORE POP PUSH32 0xD8EEE839117C5738E7E307646D6A4503BA5A27738370B5A27A0EE2B200C77650 CALLER DUP6 DUP6 PUSH1 0x40 MLOAD PUSH2 0x54F SWAP4 SWAP3 SWAP2 SWAP1 PUSH2 0x2282 JUMP JUMPDEST PUSH1 0x40 MLOAD DUP1 SWAP2 SUB SWAP1 LOG1 POP POP POP POP JUMP JUMPDEST PUSH1 0x0 DUP2 GT PUSH2 0x5A0 JUMPI PUSH1 0x40 MLOAD PUSH32 0x8C379A000000000000000000000000000000000000000000000000000000000 DUP2 MSTORE PUSH1 0x4 ADD PUSH2 0x597 SWAP1 PUSH2 0x2318 JUMP JUMPDEST PUSH1 0x40 MLOAD DUP1 SWAP2 SUB SWAP1 REVERT JUMPDEST PUSH1 0x0 PUSH1 0x1 PUSH1 0x0 CALLER PUSH20 0xFFFFFFFFFFFFFFFFFFFFFFFFFFFFFFFFFFFFFFFF AND PUSH20 0xFFFFFFFFFFFFFFFFFFFFFFFFFFFFFFFFFFFFFFFF AND DUP2 MSTORE PUSH1 0x20 ADD SWAP1 DUP2 MSTORE PUSH1 0x20 ADD PUSH1 0x0 KECCAK256 PUSH1 0x0 ADD SLOAD SUB PUSH2 0x625 JUMPI PUSH1 0x40 MLOAD PUSH32 0x8C379A000000000000000000000000000000000000000000000000000000000 DUP2 MSTORE PUSH1 0x4 ADD PUSH2 0x61C SWAP1 PUSH2 0x2384 JUMP JUMPDEST PUSH1 0x40 MLOAD DUP1 SWAP2 SUB SWAP1 REVERT JUMPDEST PUSH1 0x3C PUSH1 0x1 PUSH1 0x0 CALLER PUSH20 0xFFFFFFFFFFFFFFFFFFFFFFFFFFFFFFFFFFFFFFFF AND PUSH20 0xFFFFFFFFFFFFFFFFFFFFFFFFFFFFFFFFFFFFFFFF AND DUP2 MSTORE PUSH1 0x20 ADD SWAP1 DUP2 MSTORE PUSH1 0x20 ADD PUSH1 0x0 KECCAK256 PUSH1 0x1 ADD SLOAD TIMESTAMP PUSH2 0x675 SWAP2 SWAP1 PUSH2 0x21F3 JUMP JUMPDEST GT PUSH2 0x6B5 JUMPI PUSH1 0x40 MLOAD PUSH32 0x8C379A000000000000000000000000000000000000000000000000000000000 DUP2 MSTORE PUSH1 0x4 ADD PUSH2 0x6AC SWAP1 PUSH2 0x2416 JUMP JUMPDEST PUSH1 0x40 MLOAD DUP1 SWAP2 SUB SWAP1 REVERT JUMPDEST PUSH1 0x1 PUSH1 0x0 CALLER PUSH20 0xFFFFFFFFFFFFFFFFFFFFFFFFFFFFFFFFFFFFFFFF AND PUSH20 0xFFFFFFFFFFFFFFFFFFFFFFFFFFFFFFFFFFFFFFFF AND DUP2 MSTORE PUSH1 0x20 ADD SWAP1 DUP2 MSTORE PUSH1 0x20 ADD PUSH1 0x0 KECCAK256 PUSH1 0x0 ADD SLOAD DUP2 GT ISZERO PUSH2 0x704 JUMPI PUSH1 0x0 DUP1 REVERT JUMPDEST DUP1 PUSH1 0x1 PUSH1 0x0 CALLER PUSH20 0xFFFFFFFFFFFFFFFFFFFFFFFFFFFFFFFFFFFFFFFF AND PUSH20 0xFFFFFFFFFFFFFFFFFFFFFFFFFFFFFFFFFFFFFFFF AND DUP2 MSTORE PUSH1 0x20 ADD SWAP1 DUP2 MSTORE PUSH1 0x20 ADD PUSH1 0x0 KECCAK256 PUSH1 0x0 ADD PUSH1 0x0 DUP3 DUP3 SLOAD PUSH2 0x756 SWAP2 SWAP1 PUSH2 0x21F3 JUMP JUMPDEST SWAP3 POP POP DUP2 SWAP1 SSTORE POP CALLER PUSH20 0xFFFFFFFFFFFFFFFFFFFFFFFFFFFFFFFFFFFFFFFF AND PUSH2 0x8FC DUP3 SWAP1 DUP2 ISZERO MUL SWAP1 PUSH1 0x40 MLOAD PUSH1 0x0 PUSH1 0x40 MLOAD DUP1 DUP4 SUB DUP2 DUP6 DUP9 DUP9 CALL SWAP4 POP POP POP POP ISZERO DUP1 ISZERO PUSH2 0x7A3 JUMPI RETURNDATASIZE PUSH1 0x0 DUP1 RETURNDATACOPY RETURNDATASIZE PUSH1 0x0 REVERT JUMPDEST POP PUSH32 0x22EFFF027D211A482D0EAD24FCA8715139A94FB5C85B4604DCB3F3DF332FACB3 CALLER DUP3 PUSH1 0x40 MLOAD PUSH2 0x7D5 SWAP3 SWAP2 SWAP1 PUSH2 0x2482 JUMP JUMPDEST PUSH1 0x40 MLOAD DUP1 SWAP2 SUB SWAP1 LOG1 POP JUMP JUMPDEST PUSH1 0x0 SELFBALANCE SWAP1 POP SWAP1 JUMP JUMPDEST PUSH2 0x7F3 CALLER DUP4 DUP4 PUSH2 0x1668 JUMP JUMPDEST POP PUSH1 0x0 PUSH1 0xC SWAP1 POP PUSH1 0x0 PUSH2 0x807 DUP3 DUP6 DUP6 PUSH2 0x179B JUMP JUMPDEST SWAP1 POP PUSH1 0x40 MLOAD DUP1 PUSH1 0x40 ADD PUSH1 0x40 MSTORE DUP1 PUSH1 0x3 DUP2 MSTORE PUSH1 0x20 ADD PUSH32 0x4361720000000000000000000000000000000000000000000000000000000000 DUP2 MSTORE POP PUSH1 0x2 PUSH1 0x40 MLOAD PUSH2 0x84D SWAP1 PUSH2 0x250A JUMP JUMPDEST SWAP1 DUP2 MSTORE PUSH1 0x20 ADD PUSH1 0x40 MLOAD DUP1 SWAP2 SUB SWAP1 KECCAK256 PUSH1 0x0 CALLER PUSH20 0xFFFFFFFFFFFFFFFFFFFFFFFFFFFFFFFFFFFFFFFF AND PUSH20 0xFFFFFFFFFFFFFFFFFFFFFFFFFFFFFFFFFFFFFFFF AND DUP2 MSTORE PUSH1 0x20 ADD SWAP1 DUP2 MSTORE PUSH1 0x20 ADD PUSH1 0x0 KECCAK256 PUSH1 0x0 ADD SWAP1 DUP2 PUSH2 0x8A7 SWAP2 SWAP1 PUSH2 0x20BE JUMP JUMPDEST POP DUP1 PUSH1 0x2 PUSH1 0x40 MLOAD PUSH2 0x8B7 SWAP1 PUSH2 0x250A JUMP JUMPDEST SWAP1 DUP2 MSTORE PUSH1 0x20 ADD PUSH1 0x40 MLOAD DUP1 SWAP2 SUB SWAP1 KECCAK256 PUSH1 0x0 CALLER PUSH20 0xFFFFFFFFFFFFFFFFFFFFFFFFFFFFFFFFFFFFFFFF AND PUSH20 0xFFFFFFFFFFFFFFFFFFFFFFFFFFFFFFFFFFFFFFFF AND DUP2 MSTORE PUSH1 0x20 ADD SWAP1 DUP2 MSTORE PUSH1 0x20 ADD PUSH1 0x0 KECCAK256 PUSH1 0x3 ADD PUSH1 0x0 DUP3 DUP3 SLOAD PUSH2 0x914 SWAP2 SWAP1 PUSH2 0x21BF JUMP JUMPDEST SWAP3 POP POP DUP2 SWAP1 SSTORE POP DUP3 PUSH1 0x2 PUSH1 0x40 MLOAD PUSH2 0x92A SWAP1 PUSH2 0x250A JUMP JUMPDEST SWAP1 DUP2 MSTORE PUSH1 0x20 ADD PUSH1 0x40 MLOAD DUP1 SWAP2 SUB SWAP1 KECCAK256 PUSH1 0x0 CALLER PUSH20 0xFFFFFFFFFFFFFFFFFFFFFFFFFFFFFFFFFFFFFFFF AND PUSH20 0xFFFFFFFFFFFFFFFFFFFFFFFFFFFFFFFFFFFFFFFF AND DUP2 MSTORE PUSH1 0x20 ADD SWAP1 DUP2 MSTORE PUSH1 0x20 ADD PUSH1 0x0 KECCAK256 PUSH1 0x2 ADD PUSH1 0x0 DUP3 DUP3 SLOAD PUSH2 0x987 SWAP2 SWAP1 PUSH2 0x21BF JUMP JUMPDEST SWAP3 POP POP DUP2 SWAP1 SSTORE POP DUP4 PUSH1 0x2 PUSH1 0x40 MLOAD PUSH2 0x99D SWAP1 PUSH2 0x250A JUMP JUMPDEST SWAP1 DUP2 MSTORE PUSH1 0x20 ADD PUSH1 0x40 MLOAD DUP1 SWAP2 SUB SWAP1 KECCAK256 PUSH1 0x0 CALLER PUSH20 0xFFFFFFFFFFFFFFFFFFFFFFFFFFFFFFFFFFFFFFFF AND PUSH20 0xFFFFFFFFFFFFFFFFFFFFFFFFFFFFFFFFFFFFFFFF AND DUP2 MSTORE PUSH1 0x20 ADD SWAP1 DUP2 MSTORE PUSH1 0x20 ADD PUSH1 0x0 KECCAK256 PUSH1 0x1 ADD PUSH1 0x0 DUP3 DUP3 SLOAD PUSH2 0x9FA SWAP2 SWAP1 PUSH2 0x21BF JUMP JUMPDEST SWAP3 POP POP DUP2 SWAP1 SSTORE POP DUP4 PUSH1 0x1 PUSH1 0x0 CALLER PUSH20 0xFFFFFFFFFFFFFFFFFFFFFFFFFFFFFFFFFFFFFFFF AND PUSH20 0xFFFFFFFFFFFFFFFFFFFFFFFFFFFFFFFFFFFFFFFF AND DUP2 MSTORE PUSH1 0x20 ADD SWAP1 DUP2 MSTORE PUSH1 0x20 ADD PUSH1 0x0 KECCAK256 PUSH1 0x0 ADD PUSH1 0x0 DUP3 DUP3 SLOAD PUSH2 0xA53 SWAP2 SWAP1 PUSH2 0x21BF JUMP JUMPDEST SWAP3 POP POP DUP2 SWAP1 SSTORE POP DUP4 PUSH1 0x0 DUP1 DUP3 DUP3 SLOAD PUSH2 0xA6B SWAP2 SWAP1 PUSH2 0x21F3 JUMP JUMPDEST SWAP3 POP POP DUP2 SWAP1 SSTORE POP PUSH32 0x11EDF0146CA6E5E8C3E8BE9354DBF4FC478507648F8A692C6B08F7D50C96F89E CALLER DUP6 DUP6 PUSH1 0x40 MLOAD PUSH2 0xAA5 SWAP4 SWAP3 SWAP2 SWAP1 PUSH2 0x256B JUMP JUMPDEST PUSH1 0x40 MLOAD DUP1 SWAP2 SUB SWAP1 LOG1 POP POP POP POP JUMP JUMPDEST PUSH2 0xABE CALLER DUP4 DUP4 PUSH2 0x1668 JUMP JUMPDEST POP PUSH1 0x0 PUSH1 0x10 SWAP1 POP PUSH1 0x0 PUSH2 0xAD2 DUP3 DUP6 DUP6 PUSH2 0x179B JUMP JUMPDEST SWAP1 POP PUSH1 0x40 MLOAD DUP1 PUSH1 0x40 ADD PUSH1 0x40 MSTORE DUP1 PUSH1 0x4 DUP2 MSTORE PUSH1 0x20 ADD PUSH32 0x486F6D6500000000000000000000000000000000000000000000000000000000 DUP2 MSTORE POP PUSH1 0x2 PUSH1 0x40 MLOAD PUSH2 0xB18 SWAP1 PUSH2 0x2601 JUMP JUMPDEST SWAP1 DUP2 MSTORE PUSH1 0x20 ADD PUSH1 0x40 MLOAD DUP1 SWAP2 SUB SWAP1 KECCAK256 PUSH1 0x0 CALLER PUSH20 0xFFFFFFFFFFFFFFFFFFFFFFFFFFFFFFFFFFFFFFFF AND PUSH20 0xFFFFFFFFFFFFFFFFFFFFFFFFFFFFFFFFFFFFFFFF AND DUP2 MSTORE PUSH1 0x20 ADD SWAP1 DUP2 MSTORE PUSH1 0x20 ADD PUSH1 0x0 KECCAK256 PUSH1 0x0 ADD SWAP1 DUP2 PUSH2 0xB72 SWAP2 SWAP1 PUSH2 0x20BE JUMP JUMPDEST POP DUP1 PUSH1 0x2 PUSH1 0x40 MLOAD PUSH2 0xB82 SWAP1 PUSH2 0x2601 JUMP JUMPDEST SWAP1 DUP2 MSTORE PUSH1 0x20 ADD PUSH1 0x40 MLOAD DUP1 SWAP2 SUB SWAP1 KECCAK256 PUSH1 0x0 CALLER PUSH20 0xFFFFFFFFFFFFFFFFFFFFFFFFFFFFFFFFFFFFFFFF AND PUSH20 0xFFFFFFFFFFFFFFFFFFFFFFFFFFFFFFFFFFFFFFFF AND DUP2 MSTORE PUSH1 0x20 ADD SWAP1 DUP2 MSTORE PUSH1 0x20 ADD PUSH1 0x0 KECCAK256 PUSH1 0x3 ADD PUSH1 0x0 DUP3 DUP3 SLOAD PUSH2 0xBDF SWAP2 SWAP1 PUSH2 0x21BF JUMP JUMPDEST SWAP3 POP POP DUP2 SWAP1 SSTORE POP DUP3 PUSH1 0x2 PUSH1 0x40 MLOAD PUSH2 0xBF5 SWAP1 PUSH2 0x2601 JUMP JUMPDEST SWAP1 DUP2 MSTORE PUSH1 0x20 ADD PUSH1 0x40 MLOAD DUP1 SWAP2 SUB SWAP1 KECCAK256 PUSH1 0x0 CALLER PUSH20 0xFFFFFFFFFFFFFFFFFFFFFFFFFFFFFFFFFFFFFFFF AND PUSH20 0xFFFFFFFFFFFFFFFFFFFFFFFFFFFFFFFFFFFFFFFF AND DUP2 MSTORE PUSH1 0x20 ADD SWAP1 DUP2 MSTORE PUSH1 0x20 ADD PUSH1 0x0 KECCAK256 PUSH1 0x2 ADD PUSH1 0x0 DUP3 DUP3 SLOAD PUSH2 0xC52 SWAP2 SWAP1 PUSH2 0x21BF JUMP JUMPDEST SWAP3 POP POP DUP2 SWAP1 SSTORE POP DUP4 PUSH1 0x2 PUSH1 0x40 MLOAD PUSH2 0xC68 SWAP1 PUSH2 0x2601 JUMP JUMPDEST SWAP1 DUP2 MSTORE PUSH1 0x20 ADD PUSH1 0x40 MLOAD DUP1 SWAP2 SUB SWAP1 KECCAK256 PUSH1 0x0 CALLER PUSH20 0xFFFFFFFFFFFFFFFFFFFFFFFFFFFFFFFFFFFFFFFF AND PUSH20 0xFFFFFFFFFFFFFFFFFFFFFFFFFFFFFFFFFFFFFFFF AND DUP2 MSTORE PUSH1 0x20 ADD SWAP1 DUP2 MSTORE PUSH1 0x20 ADD PUSH1 0x0 KECCAK256 PUSH1 0x1 ADD PUSH1 0x0 DUP3 DUP3 SLOAD PUSH2 0xCC5 SWAP2 SWAP1 PUSH2 0x21BF JUMP JUMPDEST SWAP3 POP POP DUP2 SWAP1 SSTORE POP DUP4 PUSH1 0x1 PUSH1 0x0 CALLER PUSH20 0xFFFFFFFFFFFFFFFFFFFFFFFFFFFFFFFFFFFFFFFF AND PUSH20 0xFFFFFFFFFFFFFFFFFFFFFFFFFFFFFFFFFFFFFFFF AND DUP2 MSTORE PUSH1 0x20 ADD SWAP1 DUP2 MSTORE PUSH1 0x20 ADD PUSH1 0x0 KECCAK256 PUSH1 0x0 ADD PUSH1 0x0 DUP3 DUP3 SLOAD PUSH2 0xD1E SWAP2 SWAP1 PUSH2 0x21BF JUMP JUMPDEST SWAP3 POP POP DUP2 SWAP1 SSTORE POP DUP4 PUSH1 0x0 DUP1 DUP3 DUP3 SLOAD PUSH2 0xD36 SWAP2 SWAP1 PUSH2 0x21F3 JUMP JUMPDEST SWAP3 POP POP DUP2 SWAP1 SSTORE POP PUSH32 0x2CFDEFFC4A4D732916A5A326810C043D0BE4A1B4E21E7F8AF7282FF45C5ED66F CALLER DUP6 DUP6 PUSH1 0x40 MLOAD PUSH2 0xD70 SWAP4 SWAP3 SWAP2 SWAP1 PUSH2 0x2662 JUMP JUMPDEST PUSH1 0x40 MLOAD DUP1 SWAP2 SUB SWAP1 LOG1 POP POP POP POP JUMP JUMPDEST PUSH1 0x1 PUSH1 0x20 MSTORE DUP1 PUSH1 0x0 MSTORE PUSH1 0x40 PUSH1 0x0 KECCAK256 PUSH1 0x0 SWAP2 POP SWAP1 POP DUP1 PUSH1 0x0 ADD SLOAD SWAP1 DUP1 PUSH1 0x1 ADD SLOAD SWAP1 POP DUP3 JUMP JUMPDEST PUSH1 0x0 SLOAD DUP2 JUMP JUMPDEST PUSH1 0x60 PUSH1 0x0 DUP1 PUSH1 0x0 DUP1 PUSH1 0x40 MLOAD DUP1 PUSH1 0x40 ADD PUSH1 0x40 MSTORE DUP1 PUSH1 0x3 DUP2 MSTORE PUSH1 0x20 ADD PUSH32 0x4361720000000000000000000000000000000000000000000000000000000000 DUP2 MSTORE POP SWAP1 POP PUSH2 0xDF2 DUP2 CALLER PUSH2 0x1838 JUMP JUMPDEST SWAP5 POP SWAP5 POP SWAP5 POP SWAP5 POP POP SWAP1 SWAP2 SWAP3 SWAP4 JUMP JUMPDEST PUSH1 0x60 PUSH1 0x0 DUP1 PUSH1 0x0 DUP1 PUSH1 0x40 MLOAD DUP1 PUSH1 0x40 ADD PUSH1 0x40 MSTORE DUP1 PUSH1 0x4 DUP2 MSTORE PUSH1 0x20 ADD PUSH32 0x486F6D6500000000000000000000000000000000000000000000000000000000 DUP2 MSTORE POP SWAP1 POP PUSH2 0xE4B DUP2 CALLER PUSH2 0x1838 JUMP JUMPDEST SWAP5 POP SWAP5 POP SWAP5 POP SWAP5 POP POP SWAP1 SWAP2 SWAP3 SWAP4 JUMP JUMPDEST PUSH1 0x0 CALLVALUE GT PUSH2 0xE9D JUMPI PUSH1 0x40 MLOAD PUSH32 0x8C379A000000000000000000000000000000000000000000000000000000000 DUP2 MSTORE PUSH1 0x4 ADD PUSH2 0xE94 SWAP1 PUSH2 0x26F8 JUMP JUMPDEST PUSH1 0x40 MLOAD DUP1 SWAP2 SUB SWAP1 REVERT JUMPDEST CALLVALUE PUSH1 0x0 DUP1 DUP3 DUP3 SLOAD PUSH2 0xEAE SWAP2 SWAP1 PUSH2 0x21BF JUMP JUMPDEST SWAP3 POP POP DUP2 SWAP1 SSTORE POP JUMP JUMPDEST PUSH1 0x0 CALLVALUE GT PUSH2 0xEFA JUMPI PUSH1 0x40 MLOAD PUSH32 0x8C379A000000000000000000000000000000000000000000000000000000000 DUP2 MSTORE PUSH1 0x4 ADD PUSH2 0xEF1 SWAP1 PUSH2 0x26F8 JUMP JUMPDEST PUSH1 0x40 MLOAD DUP1 SWAP2 SUB SWAP1 REVERT JUMPDEST CALLVALUE PUSH1 0x1 PUSH1 0x0 CALLER PUSH20 0xFFFFFFFFFFFFFFFFFFFFFFFFFFFFFFFFFFFFFFFF AND PUSH20 0xFFFFFFFFFFFFFFFFFFFFFFFFFFFFFFFFFFFFFFFF AND DUP2 MSTORE PUSH1 0x20 ADD SWAP1 DUP2 MSTORE PUSH1 0x20 ADD PUSH1 0x0 KECCAK256 PUSH1 0x0 ADD PUSH1 0x0 DUP3 DUP3 SLOAD PUSH2 0xF4C SWAP2 SWAP1 PUSH2 0x21BF JUMP JUMPDEST SWAP3 POP POP DUP2 SWAP1 SSTORE POP TIMESTAMP PUSH1 0x1 PUSH1 0x0 CALLER PUSH20 0xFFFFFFFFFFFFFFFFFFFFFFFFFFFFFFFFFFFFFFFF AND PUSH20 0xFFFFFFFFFFFFFFFFFFFFFFFFFFFFFFFFFFFFFFFF AND DUP2 MSTORE PUSH1 0x20 ADD SWAP1 DUP2 MSTORE PUSH1 0x20 ADD PUSH1 0x0 KECCAK256 PUSH1 0x1 ADD DUP2 SWAP1 SSTORE POP PUSH32 0x5752E81D3F840ED15D83846A26D47F1E7A1BF6FAE1FA33ACBA2DEC16780E6871 CALLER CALLVALUE PUSH1 0x40 MLOAD PUSH2 0xFCB SWAP3 SWAP2 SWAP1 PUSH2 0x2764 JUMP JUMPDEST PUSH1 0x40 MLOAD DUP1 SWAP2 SUB SWAP1 LOG1 JUMP JUMPDEST PUSH1 0x60 PUSH1 0x0 DUP1 PUSH1 0x0 DUP1 PUSH1 0x40 MLOAD DUP1 PUSH1 0x40 ADD PUSH1 0x40 MSTORE DUP1 PUSH1 0x8 DUP2 MSTORE PUSH1 0x20 ADD PUSH32 0x506572736F6E616C000000000000000000000000000000000000000000000000 DUP2 MSTORE POP SWAP1 POP PUSH2 0x101F DUP2 CALLER PUSH2 0x1838 JUMP JUMPDEST SWAP5 POP SWAP5 POP SWAP5 POP SWAP5 POP POP SWAP1 SWAP2 SWAP3 SWAP4 JUMP JUMPDEST PUSH1 0x40 MLOAD PUSH1 0x20 ADD PUSH2 0x103D SWAP1 PUSH2 0x27C3 JUMP JUMPDEST PUSH1 0x40 MLOAD PUSH1 0x20 DUP2 DUP4 SUB SUB DUP2 MSTORE SWAP1 PUSH1 0x40 MSTORE DUP1 MLOAD SWAP1 PUSH1 0x20 ADD KECCAK256 DUP2 PUSH1 0x40 MLOAD PUSH1 0x20 ADD PUSH2 0x1064 SWAP2 SWAP1 PUSH2 0x27E3 JUMP JUMPDEST PUSH1 0x40 MLOAD PUSH1 0x20 DUP2 DUP4 SUB SUB DUP2 MSTORE SWAP1 PUSH1 0x40 MSTORE DUP1 MLOAD SWAP1 PUSH1 0x20 ADD KECCAK256 EQ DUP1 PUSH2 0x10CF JUMPI POP PUSH1 0x40 MLOAD PUSH1 0x20 ADD PUSH2 0x1090 SWAP1 PUSH2 0x2828 JUMP JUMPDEST PUSH1 0x40 MLOAD PUSH1 0x20 DUP2 DUP4 SUB SUB DUP2 MSTORE SWAP1 PUSH1 0x40 MSTORE DUP1 MLOAD SWAP1 PUSH1 0x20 ADD KECCAK256 DUP2 PUSH1 0x40 MLOAD PUSH1 0x20 ADD PUSH2 0x10B7 SWAP2 SWAP1 PUSH2 0x27E3 JUMP JUMPDEST PUSH1 0x40 MLOAD PUSH1 0x20 DUP2 DUP4 SUB SUB DUP2 MSTORE SWAP1 PUSH1 0x40 MSTORE DUP1 MLOAD SWAP1 PUSH1 0x20 ADD KECCAK256 EQ JUMPDEST DUP1 PUSH2 0x1123 JUMPI POP PUSH1 0x40 MLOAD PUSH1 0x20 ADD PUSH2 0x10E4 SWAP1 PUSH2 0x286B JUMP JUMPDEST PUSH1 0x40 MLOAD PUSH1 0x20 DUP2 DUP4 SUB SUB DUP2 MSTORE SWAP1 PUSH1 0x40 MSTORE DUP1 MLOAD SWAP1 PUSH1 0x20 ADD KECCAK256 DUP2 PUSH1 0x40 MLOAD PUSH1 0x20 ADD PUSH2 0x110B SWAP2 SWAP1 PUSH2 0x27E3 JUMP JUMPDEST PUSH1 0x40 MLOAD PUSH1 0x20 DUP2 DUP4 SUB SUB DUP2 MSTORE SWAP1 PUSH1 0x40 MSTORE DUP1 MLOAD SWAP1 PUSH1 0x20 ADD KECCAK256 EQ JUMPDEST PUSH2 0x1162 JUMPI PUSH1 0x40 MLOAD PUSH32 0x8C379A000000000000000000000000000000000000000000000000000000000 DUP2 MSTORE PUSH1 0x4 ADD PUSH2 0x1159 SWAP1 PUSH2 0x28FD JUMP JUMPDEST PUSH1 0x40 MLOAD DUP1 SWAP2 SUB SWAP1 REVERT JUMPDEST PUSH1 0x0 PUSH1 0x2 DUP3 PUSH1 0x40 MLOAD PUSH2 0x1174 SWAP2 SWAP1 PUSH2 0x294E JUMP JUMPDEST SWAP1 DUP2 MSTORE PUSH1 0x20 ADD PUSH1 0x40 MLOAD DUP1 SWAP2 SUB SWAP1 KECCAK256 PUSH1 0x0 CALLER PUSH20 0xFFFFFFFFFFFFFFFFFFFFFFFFFFFFFFFFFFFFFFFF AND PUSH20 0xFFFFFFFFFFFFFFFFFFFFFFFFFFFFFFFFFFFFFFFF AND DUP2 MSTORE PUSH1 0x20 ADD SWAP1 DUP2 MSTORE PUSH1 0x20 ADD PUSH1 0x0 KECCAK256 PUSH1 0x2 ADD SLOAD SUB PUSH2 0x1203 JUMPI PUSH1 0x40 MLOAD PUSH32 0x8C379A000000000000000000000000000000000000000000000000000000000 DUP2 MSTORE PUSH1 0x4 ADD PUSH2 0x11FA SWAP1 PUSH2 0x29B1 JUMP JUMPDEST PUSH1 0x40 MLOAD DUP1 SWAP2 SUB SWAP1 REVERT JUMPDEST PUSH1 0x2 DUP2 PUSH1 0x40 MLOAD PUSH2 0x1213 SWAP2 SWAP1 PUSH2 0x294E JUMP JUMPDEST SWAP1 DUP2 MSTORE PUSH1 0x20 ADD PUSH1 0x40 MLOAD DUP1 SWAP2 SUB SWAP1 KECCAK256 PUSH1 0x0 CALLER PUSH20 0xFFFFFFFFFFFFFFFFFFFFFFFFFFFFFFFFFFFFFFFF AND PUSH20 0xFFFFFFFFFFFFFFFFFFFFFFFFFFFFFFFFFFFFFFFF AND DUP2 MSTORE PUSH1 0x20 ADD SWAP1 DUP2 MSTORE PUSH1 0x20 ADD PUSH1 0x0 KECCAK256 PUSH1 0x3 ADD SLOAD CALLVALUE EQ PUSH2 0x12A3 JUMPI PUSH1 0x40 MLOAD PUSH32 0x8C379A000000000000000000000000000000000000000000000000000000000 DUP2 MSTORE PUSH1 0x4 ADD PUSH2 0x129A SWAP1 PUSH2 0x2A1D JUMP JUMPDEST PUSH1 0x40 MLOAD DUP1 SWAP2 SUB SWAP1 REVERT JUMPDEST PUSH3 0x278D00 PUSH1 0x2 DUP3 PUSH1 0x40 MLOAD PUSH2 0x12B7 SWAP2 SWAP1 PUSH2 0x294E JUMP JUMPDEST SWAP1 DUP2 MSTORE PUSH1 0x20 ADD PUSH1 0x40 MLOAD DUP1 SWAP2 SUB SWAP1 KECCAK256 PUSH1 0x0 CALLER PUSH20 0xFFFFFFFFFFFFFFFFFFFFFFFFFFFFFFFFFFFFFFFF AND PUSH20 0xFFFFFFFFFFFFFFFFFFFFFFFFFFFFFFFFFFFFFFFF AND DUP2 MSTORE PUSH1 0x20 ADD SWAP1 DUP2 MSTORE PUSH1 0x20 ADD PUSH1 0x0 KECCAK256 PUSH1 0x4 ADD SLOAD TIMESTAMP PUSH2 0x1311 SWAP2 SWAP1 PUSH2 0x21F3 JUMP JUMPDEST GT PUSH2 0x1351 JUMPI PUSH1 0x40 MLOAD PUSH32 0x8C379A000000000000000000000000000000000000000000000000000000000 DUP2 MSTORE PUSH1 0x4 ADD PUSH2 0x1348 SWAP1 PUSH2 0x2AAF JUMP JUMPDEST PUSH1 0x40 MLOAD DUP1 SWAP2 SUB SWAP1 REVERT JUMPDEST PUSH1 0x2 DUP2 PUSH1 0x40 MLOAD PUSH2 0x1361 SWAP2 SWAP1 PUSH2 0x294E JUMP JUMPDEST SWAP1 DUP2 MSTORE PUSH1 0x20 ADD PUSH1 0x40 MLOAD DUP1 SWAP2 SUB SWAP1 KECCAK256 PUSH1 0x0 CALLER PUSH20 0xFFFFFFFFFFFFFFFFFFFFFFFFFFFFFFFFFFFFFFFF AND PUSH20 0xFFFFFFFFFFFFFFFFFFFFFFFFFFFFFFFFFFFFFFFF AND DUP2 MSTORE PUSH1 0x20 ADD SWAP1 DUP2 MSTORE PUSH1 0x20 ADD PUSH1 0x0 KECCAK256 PUSH1 0x3 ADD SLOAD PUSH1 0x1 PUSH1 0x0 CALLER PUSH20 0xFFFFFFFFFFFFFFFFFFFFFFFFFFFFFFFFFFFFFFFF AND PUSH20 0xFFFFFFFFFFFFFFFFFFFFFFFFFFFFFFFFFFFFFFFF AND DUP2 MSTORE PUSH1 0x20 ADD SWAP1 DUP2 MSTORE PUSH1 0x20 ADD PUSH1 0x0 KECCAK256 PUSH1 0x0 ADD PUSH1 0x0 DUP3 DUP3 SLOAD PUSH2 0x1401 SWAP2 SWAP1 PUSH2 0x21F3 JUMP JUMPDEST SWAP3 POP POP DUP2 SWAP1 SSTORE POP PUSH1 0x1 PUSH1 0x2 DUP3 PUSH1 0x40 MLOAD PUSH2 0x141A SWAP2 SWAP1 PUSH2 0x294E JUMP JUMPDEST SWAP1 DUP2 MSTORE PUSH1 0x20 ADD PUSH1 0x40 MLOAD DUP1 SWAP2 SUB SWAP1 KECCAK256 PUSH1 0x0 CALLER PUSH20 0xFFFFFFFFFFFFFFFFFFFFFFFFFFFFFFFFFFFFFFFF AND PUSH20 0xFFFFFFFFFFFFFFFFFFFFFFFFFFFFFFFFFFFFFFFF AND DUP2 MSTORE PUSH1 0x20 ADD SWAP1 DUP2 MSTORE PUSH1 0x20 ADD PUSH1 0x0 KECCAK256 PUSH1 0x2 ADD PUSH1 0x0 DUP3 DUP3 SLOAD PUSH2 0x1477 SWAP2 SWAP1 PUSH2 0x21F3 JUMP JUMPDEST SWAP3 POP POP DUP2 SWAP1 SSTORE POP PUSH1 0x2 DUP2 PUSH1 0x40 MLOAD PUSH2 0x148E SWAP2 SWAP1 PUSH2 0x294E JUMP JUMPDEST SWAP1 DUP2 MSTORE PUSH1 0x20 ADD PUSH1 0x40 MLOAD DUP1 SWAP2 SUB SWAP1 KECCAK256 PUSH1 0x0 CALLER PUSH20 0xFFFFFFFFFFFFFFFFFFFFFFFFFFFFFFFFFFFFFFFF AND PUSH20 0xFFFFFFFFFFFFFFFFFFFFFFFFFFFFFFFFFFFFFFFF AND DUP2 MSTORE PUSH1 0x20 ADD SWAP1 DUP2 MSTORE PUSH1 0x20 ADD PUSH1 0x0 KECCAK256 PUSH1 0x3 ADD SLOAD PUSH1 0x2 DUP3 PUSH1 0x40 MLOAD PUSH2 0x14ED SWAP2 SWAP1 PUSH2 0x294E JUMP JUMPDEST SWAP1 DUP2 MSTORE PUSH1 0x20 ADD PUSH1 0x40 MLOAD DUP1 SWAP2 SUB SWAP1 KECCAK256 PUSH1 0x0 CALLER PUSH20 0xFFFFFFFFFFFFFFFFFFFFFFFFFFFFFFFFFFFFFFFF AND PUSH20 0xFFFFFFFFFFFFFFFFFFFFFFFFFFFFFFFFFFFFFFFF AND DUP2 MSTORE PUSH1 0x20 ADD SWAP1 DUP2 MSTORE PUSH1 0x20 ADD PUSH1 0x0 KECCAK256 PUSH1 0x1 ADD PUSH1 0x0 DUP3 DUP3 SLOAD PUSH2 0x154A SWAP2 SWAP1 PUSH2 0x21F3 JUMP JUMPDEST SWAP3 POP POP DUP2 SWAP1 SSTORE POP TIMESTAMP PUSH1 0x2 DUP3 PUSH1 0x40 MLOAD PUSH2 0x1562 SWAP2 SWAP1 PUSH2 0x294E JUMP JUMPDEST SWAP1 DUP2 MSTORE PUSH1 0x20 ADD PUSH1 0x40 MLOAD DUP1 SWAP2 SUB SWAP1 KECCAK256 PUSH1 0x0 CALLER PUSH20 0xFFFFFFFFFFFFFFFFFFFFFFFFFFFFFFFFFFFFFFFF AND PUSH20 0xFFFFFFFFFFFFFFFFFFFFFFFFFFFFFFFFFFFFFFFF AND DUP2 MSTORE PUSH1 0x20 ADD SWAP1 DUP2 MSTORE PUSH1 0x20 ADD PUSH1 0x0 KECCAK256 PUSH1 0x4 ADD DUP2 SWAP1 SSTORE POP PUSH1 0x2 DUP2 PUSH1 0x40 MLOAD PUSH2 0x15C4 SWAP2 SWAP1 PUSH2 0x294E JUMP JUMPDEST SWAP1 DUP2 MSTORE PUSH1 0x20 ADD PUSH1 0x40 MLOAD DUP1 SWAP2 SUB SWAP1 KECCAK256 PUSH1 0x0 CALLER PUSH20 0xFFFFFFFFFFFFFFFFFFFFFFFFFFFFFFFFFFFFFFFF AND PUSH20 0xFFFFFFFFFFFFFFFFFFFFFFFFFFFFFFFFFFFFFFFF AND DUP2 MSTORE PUSH1 0x20 ADD SWAP1 DUP2 MSTORE PUSH1 0x20 ADD PUSH1 0x0 KECCAK256 PUSH1 0x3 ADD SLOAD PUSH1 0x0 DUP1 DUP3 DUP3 SLOAD PUSH2 0x1623 SWAP2 SWAP1 PUSH2 0x21BF JUMP JUMPDEST SWAP3 POP POP DUP2 SWAP1 SSTORE POP PUSH32 0x8DB1B7194C3E18EAC06D46922E4732B787A3924D723613887C081AC8DEF42A35 CALLER DUP3 CALLVALUE PUSH1 0x40 MLOAD PUSH2 0x165D SWAP4 SWAP3 SWAP2 SWAP1 PUSH2 0x2B1B JUMP JUMPDEST PUSH1 0x40 MLOAD DUP1 SWAP2 SUB SWAP1 LOG1 POP JUMP JUMPDEST PUSH1 0x0 DUP1 PUSH1 0x1 PUSH1 0x0 DUP7 PUSH20 0xFFFFFFFFFFFFFFFFFFFFFFFFFFFFFFFFFFFFFFFF AND PUSH20 0xFFFFFFFFFFFFFFFFFFFFFFFFFFFFFFFFFFFFFFFF AND DUP2 MSTORE PUSH1 0x20 ADD SWAP1 DUP2 MSTORE PUSH1 0x20 ADD PUSH1 0x0 KECCAK256 PUSH1 0x0 ADD SLOAD SUB PUSH2 0x16EE JUMPI PUSH1 0x40 MLOAD PUSH32 0x8C379A000000000000000000000000000000000000000000000000000000000 DUP2 MSTORE PUSH1 0x4 ADD PUSH2 0x16E5 SWAP1 PUSH2 0x2384 JUMP JUMPDEST PUSH1 0x40 MLOAD DUP1 SWAP2 SUB SWAP1 REVERT JUMPDEST PUSH1 0x0 SLOAD DUP4 GT ISZERO DUP1 ISZERO PUSH2 0x1702 JUMPI POP PUSH2 0x3E8 DUP4 LT ISZERO JUMPDEST PUSH2 0x1741 JUMPI PUSH1 0x40 MLOAD PUSH32 0x8C379A000000000000000000000000000000000000000000000000000000000 DUP2 MSTORE PUSH1 0x4 ADD PUSH2 0x1738 SWAP1 PUSH2 0x2BDE JUMP JUMPDEST PUSH1 0x40 MLOAD DUP1 SWAP2 SUB SWAP1 REVERT JUMPDEST PUSH1 0x1 DUP3 GT DUP1 ISZERO PUSH2 0x1751 JUMPI POP PUSH1 0x78 DUP3 LT JUMPDEST PUSH2 0x1790 JUMPI PUSH1 0x40 MLOAD PUSH32 0x8C379A000000000000000000000000000000000000000000000000000000000 DUP2 MSTORE PUSH1 0x4 ADD PUSH2 0x1787 SWAP1 PUSH2 0x2C4A JUMP JUMPDEST PUSH1 0x40 MLOAD DUP1 SWAP2 SUB SWAP1 REVERT JUMPDEST PUSH1 0x1 SWAP1 POP SWAP4 SWAP3 POP POP POP JUMP JUMPDEST PUSH1 0x0 DUP1 PUSH2 0x4B0 SWAP1 POP PUSH1 0x0 PUSH1 0x1 DUP5 DUP4 DUP9 DUP6 PUSH2 0x17B5 SWAP2 SWAP1 PUSH2 0x21BF JUMP JUMPDEST PUSH2 0x17BF SWAP2 SWAP1 PUSH2 0x2C99 JUMP JUMPDEST XOR PUSH2 0x17CA SWAP2 SWAP1 PUSH2 0x21F3 JUMP JUMPDEST DUP5 DUP4 DUP9 DUP6 PUSH2 0x17D8 SWAP2 SWAP1 PUSH2 0x21BF JUMP JUMPDEST PUSH2 0x17E2 SWAP2 SWAP1 PUSH2 0x2C99 JUMP JUMPDEST XOR DUP4 DUP9 DUP9 PUSH2 0x17F0 SWAP2 SWAP1 PUSH2 0x2CCA JUMP JUMPDEST PUSH2 0x17FA SWAP2 SWAP1 PUSH2 0x2C99 JUMP JUMPDEST PUSH2 0x1804 SWAP2 SWAP1 PUSH2 0x2CCA JUMP JUMPDEST PUSH2 0x180E SWAP2 SWAP1 PUSH2 0x2C99 JUMP JUMPDEST SWAP1 POP PUSH1 0x0 DUP5 DUP7 DUP4 PUSH2 0x181F SWAP2 SWAP1 PUSH2 0x21BF JUMP JUMPDEST PUSH2 0x1829 SWAP2 SWAP1 PUSH2 0x2C99 JUMP JUMPDEST SWAP1 POP DUP1 SWAP4 POP POP POP POP SWAP4 SWAP3 POP POP POP JUMP JUMPDEST PUSH1 0x60 PUSH1 0x0 DUP1 PUSH1 0x0 PUSH1 0x2 DUP7 PUSH1 0x40 MLOAD PUSH2 0x184F SWAP2 SWAP1 PUSH2 0x294E JUMP JUMPDEST SWAP1 DUP2 MSTORE PUSH1 0x20 ADD PUSH1 0x40 MLOAD DUP1 SWAP2 SUB SWAP1 KECCAK256 PUSH1 0x0 DUP7 PUSH20 0xFFFFFFFFFFFFFFFFFFFFFFFFFFFFFFFFFFFFFFFF AND PUSH20 0xFFFFFFFFFFFFFFFFFFFFFFFFFFFFFFFFFFFFFFFF AND DUP2 MSTORE PUSH1 0x20 ADD SWAP1 DUP2 MSTORE PUSH1 0x20 ADD PUSH1 0x0 KECCAK256 PUSH1 0x0 ADD PUSH1 0x2 DUP8 PUSH1 0x40 MLOAD PUSH2 0x18AD SWAP2 SWAP1 PUSH2 0x294E JUMP JUMPDEST SWAP1 DUP2 MSTORE PUSH1 0x20 ADD PUSH1 0x40 MLOAD DUP1 SWAP2 SUB SWAP1 KECCAK256 PUSH1 0x0 DUP8 PUSH20 0xFFFFFFFFFFFFFFFFFFFFFFFFFFFFFFFFFFFFFFFF AND PUSH20 0xFFFFFFFFFFFFFFFFFFFFFFFFFFFFFFFFFFFFFFFF AND DUP2 MSTORE PUSH1 0x20 ADD SWAP1 DUP2 MSTORE PUSH1 0x20 ADD PUSH1 0x0 KECCAK256 PUSH1 0x1 ADD SLOAD PUSH1 0x2 DUP9 PUSH1 0x40 MLOAD PUSH2 0x190C SWAP2 SWAP1 PUSH2 0x294E JUMP JUMPDEST SWAP1 DUP2 MSTORE PUSH1 0x20 ADD PUSH1 0x40 MLOAD DUP1 SWAP2 SUB SWAP1 KECCAK256 PUSH1 0x0 DUP9 PUSH20 0xFFFFFFFFFFFFFFFFFFFFFFFFFFFFFFFFFFFFFFFF AND PUSH20 0xFFFFFFFFFFFFFFFFFFFFFFFFFFFFFFFFFFFFFFFF AND DUP2 MSTORE PUSH1 0x20 ADD SWAP1 DUP2 MSTORE PUSH1 0x20 ADD PUSH1 0x0 KECCAK256 PUSH1 0x2 ADD SLOAD PUSH1 0x2 DUP10 PUSH1 0x40 MLOAD PUSH2 0x196B SWAP2 SWAP1 PUSH2 0x294E JUMP JUMPDEST SWAP1 DUP2 MSTORE PUSH1 0x20 ADD PUSH1 0x40 MLOAD DUP1 SWAP2 SUB SWAP1 KECCAK256 PUSH1 0x0 DUP10 PUSH20 0xFFFFFFFFFFFFFFFFFFFFFFFFFFFFFFFFFFFFFFFF AND PUSH20 0xFFFFFFFFFFFFFFFFFFFFFFFFFFFFFFFFFFFFFFFF AND DUP2 MSTORE PUSH1 0x20 ADD SWAP1 DUP2 MSTORE PUSH1 0x20 ADD PUSH1 0x0 KECCAK256 PUSH1 0x3 ADD SLOAD DUP4 DUP1 SLOAD PUSH2 0x19C6 SWAP1 PUSH2 0x1EE1 JUMP JUMPDEST DUP1 PUSH1 0x1F ADD PUSH1 0x20 DUP1 SWAP2 DIV MUL PUSH1 0x20 ADD PUSH1 0x40 MLOAD SWAP1 DUP2 ADD PUSH1 0x40 MSTORE DUP1 SWAP3 SWAP2 SWAP1 DUP2 DUP2 MSTORE PUSH1 0x20 ADD DUP3 DUP1 SLOAD PUSH2 0x19F2 SWAP1 PUSH2 0x1EE1 JUMP JUMPDEST DUP1 ISZERO PUSH2 0x1A3F JUMPI DUP1 PUSH1 0x1F LT PUSH2 0x1A14 JUMPI PUSH2 0x100 DUP1 DUP4 SLOAD DIV MUL DUP4 MSTORE SWAP2 PUSH1 0x20 ADD SWAP2 PUSH2 0x1A3F JUMP JUMPDEST DUP3 ADD SWAP2 SWAP1 PUSH1 0x0 MSTORE PUSH1 0x20 PUSH1 0x0 KECCAK256 SWAP1 JUMPDEST DUP2 SLOAD DUP2 MSTORE SWAP1 PUSH1 0x1 ADD SWAP1 PUSH1 0x20 ADD DUP1 DUP4 GT PUSH2 0x1A22 JUMPI DUP3 SWAP1 SUB PUSH1 0x1F AND DUP3 ADD SWAP2 JUMPDEST POP POP POP POP POP SWAP4 POP SWAP4 POP SWAP4 POP SWAP4 POP SWAP4 POP SWAP3 SWAP6 SWAP2 SWAP5 POP SWAP3 POP JUMP JUMPDEST PUSH1 0x0 PUSH1 0x40 MLOAD SWAP1 POP SWAP1 JUMP JUMPDEST PUSH1 0x0 DUP1 REVERT JUMPDEST PUSH1 0x0 DUP1 REVERT JUMPDEST PUSH1 0x0 DUP2 SWAP1 POP SWAP2 SWAP1 POP JUMP JUMPDEST PUSH2 0x1A7E DUP2 PUSH2 0x1A6B JUMP JUMPDEST DUP2 EQ PUSH2 0x1A89 JUMPI PUSH1 0x0 DUP1 REVERT JUMPDEST POP JUMP JUMPDEST PUSH1 0x0 DUP2 CALLDATALOAD SWAP1 POP PUSH2 0x1A9B DUP2 PUSH2 0x1A75 JUMP JUMPDEST SWAP3 SWAP2 POP POP JUMP JUMPDEST PUSH1 0x0 DUP1 PUSH1 0x40 DUP4 DUP6 SUB SLT ISZERO PUSH2 0x1AB8 JUMPI PUSH2 0x1AB7 PUSH2 0x1A61 JUMP JUMPDEST JUMPDEST PUSH1 0x0 PUSH2 0x1AC6 DUP6 DUP3 DUP7 ADD PUSH2 0x1A8C JUMP JUMPDEST SWAP3 POP POP PUSH1 0x20 PUSH2 0x1AD7 DUP6 DUP3 DUP7 ADD PUSH2 0x1A8C JUMP JUMPDEST SWAP2 POP POP SWAP3 POP SWAP3 SWAP1 POP JUMP JUMPDEST PUSH1 0x0 PUSH1 0x20 DUP3 DUP5 SUB SLT ISZERO PUSH2 0x1AF7 JUMPI PUSH2 0x1AF6 PUSH2 0x1A61 JUMP JUMPDEST JUMPDEST PUSH1 0x0 PUSH2 0x1B05 DUP5 DUP3 DUP6 ADD PUSH2 0x1A8C JUMP JUMPDEST SWAP2 POP POP SWAP3 SWAP2 POP POP JUMP JUMPDEST PUSH2 0x1B17 DUP2 PUSH2 0x1A6B JUMP JUMPDEST DUP3 MSTORE POP POP JUMP JUMPDEST PUSH1 0x0 PUSH1 0x20 DUP3 ADD SWAP1 POP PUSH2 0x1B32 PUSH1 0x0 DUP4 ADD DUP5 PUSH2 0x1B0E JUMP JUMPDEST SWAP3 SWAP2 POP POP JUMP JUMPDEST PUSH1 0x0 PUSH20 0xFFFFFFFFFFFFFFFFFFFFFFFFFFFFFFFFFFFFFFFF DUP3 AND SWAP1 POP SWAP2 SWAP1 POP JUMP JUMPDEST PUSH1 0x0 PUSH2 0x1B63 DUP3 PUSH2 0x1B38 JUMP JUMPDEST SWAP1 POP SWAP2 SWAP1 POP JUMP JUMPDEST PUSH2 0x1B73 DUP2 PUSH2 0x1B58 JUMP JUMPDEST DUP2 EQ PUSH2 0x1B7E JUMPI PUSH1 0x0 DUP1 REVERT JUMPDEST POP JUMP JUMPDEST PUSH1 0x0 DUP2 CALLDATALOAD SWAP1 POP PUSH2 0x1B90 DUP2 PUSH2 0x1B6A JUMP JUMPDEST SWAP3 SWAP2 POP POP JUMP JUMPDEST PUSH1 0x0 PUSH1 0x20 DUP3 DUP5 SUB SLT ISZERO PUSH2 0x1BAC JUMPI PUSH2 0x1BAB PUSH2 0x1A61 JUMP JUMPDEST JUMPDEST PUSH1 0x0 PUSH2 0x1BBA DUP5 DUP3 DUP6 ADD PUSH2 0x1B81 JUMP JUMPDEST SWAP2 POP POP SWAP3 SWAP2 POP POP JUMP JUMPDEST PUSH1 0x0 PUSH1 0x40 DUP3 ADD SWAP1 POP PUSH2 0x1BD8 PUSH1 0x0 DUP4 ADD DUP6 PUSH2 0x1B0E JUMP JUMPDEST PUSH2 0x1BE5 PUSH1 0x20 DUP4 ADD DUP5 PUSH2 0x1B0E JUMP JUMPDEST SWAP4 SWAP3 POP POP POP JUMP JUMPDEST PUSH1 0x0 DUP2 MLOAD SWAP1 POP SWAP2 SWAP1 POP JUMP JUMPDEST PUSH1 0x0 DUP3 DUP3 MSTORE PUSH1 0x20 DUP3 ADD SWAP1 POP SWAP3 SWAP2 POP POP JUMP JUMPDEST PUSH1 0x0 JUMPDEST DUP4 DUP2 LT ISZERO PUSH2 0x1C26 JUMPI DUP1 DUP3 ADD MLOAD DUP2 DUP5 ADD MSTORE PUSH1 0x20 DUP2 ADD SWAP1 POP PUSH2 0x1C0B JUMP JUMPDEST PUSH1 0x0 DUP5 DUP5 ADD MSTORE POP POP POP POP JUMP JUMPDEST PUSH1 0x0 PUSH1 0x1F NOT PUSH1 0x1F DUP4 ADD AND SWAP1 POP SWAP2 SWAP1 POP JUMP JUMPDEST PUSH1 0x0 PUSH2 0x1C4E DUP3 PUSH2 0x1BEC JUMP JUMPDEST PUSH2 0x1C58 DUP2 DUP6 PUSH2 0x1BF7 JUMP JUMPDEST SWAP4 POP PUSH2 0x1C68 DUP2 DUP6 PUSH1 0x20 DUP7 ADD PUSH2 0x1C08 JUMP JUMPDEST PUSH2 0x1C71 DUP2 PUSH2 0x1C32 JUMP JUMPDEST DUP5 ADD SWAP2 POP POP SWAP3 SWAP2 POP POP JUMP JUMPDEST PUSH1 0x0 PUSH1 0x80 DUP3 ADD SWAP1 POP DUP2 DUP2 SUB PUSH1 0x0 DUP4 ADD MSTORE PUSH2 0x1C96 DUP2 DUP8 PUSH2 0x1C43 JUMP JUMPDEST SWAP1 POP PUSH2 0x1CA5 PUSH1 0x20 DUP4 ADD DUP7 PUSH2 0x1B0E JUMP JUMPDEST PUSH2 0x1CB2 PUSH1 0x40 DUP4 ADD DUP6 PUSH2 0x1B0E JUMP JUMPDEST PUSH2 0x1CBF PUSH1 0x60 DUP4 ADD DUP5 PUSH2 0x1B0E JUMP JUMPDEST SWAP6 SWAP5 POP POP POP POP POP JUMP JUMPDEST PUSH1 0x0 DUP1 REVERT JUMPDEST PUSH1 0x0 DUP1 REVERT JUMPDEST PUSH32 0x4E487B7100000000000000000000000000000000000000000000000000000000 PUSH1 0x0 MSTORE PUSH1 0x41 PUSH1 0x4 MSTORE PUSH1 0x24 PUSH1 0x0 REVERT JUMPDEST PUSH2 0x1D0A DUP3 PUSH2 0x1C32 JUMP JUMPDEST DUP2 ADD DUP2 DUP2 LT PUSH8 0xFFFFFFFFFFFFFFFF DUP3 GT OR ISZERO PUSH2 0x1D29 JUMPI PUSH2 0x1D28 PUSH2 0x1CD2 JUMP JUMPDEST JUMPDEST DUP1 PUSH1 0x40 MSTORE POP POP POP JUMP JUMPDEST PUSH1 0x0 PUSH2 0x1D3C PUSH2 0x1A57 JUMP JUMPDEST SWAP1 POP PUSH2 0x1D48 DUP3 DUP3 PUSH2 0x1D01 JUMP JUMPDEST SWAP2 SWAP1 POP JUMP JUMPDEST PUSH1 0x0 PUSH8 0xFFFFFFFFFFFFFFFF DUP3 GT ISZERO PUSH2 0x1D68 JUMPI PUSH2 0x1D67 PUSH2 0x1CD2 JUMP JUMPDEST JUMPDEST PUSH2 0x1D71 DUP3 PUSH2 0x1C32 JUMP JUMPDEST SWAP1 POP PUSH1 0x20 DUP2 ADD SWAP1 POP SWAP2 SWAP1 POP JUMP JUMPDEST DUP3 DUP2 DUP4 CALLDATACOPY PUSH1 0x0 DUP4 DUP4 ADD MSTORE POP POP POP JUMP JUMPDEST PUSH1 0x0 PUSH2 0x1DA0 PUSH2 0x1D9B DUP5 PUSH2 0x1D4D JUMP JUMPDEST PUSH2 0x1D32 JUMP JUMPDEST SWAP1 POP DUP3 DUP2 MSTORE PUSH1 0x20 DUP2 ADD DUP5 DUP5 DUP5 ADD GT ISZERO PUSH2 0x1DBC JUMPI PUSH2 0x1DBB PUSH2 0x1CCD JUMP JUMPDEST JUMPDEST PUSH2 0x1DC7 DUP5 DUP3 DUP6 PUSH2 0x1D7E JUMP JUMPDEST POP SWAP4 SWAP3 POP POP POP JUMP JUMPDEST PUSH1 0x0 DUP3 PUSH1 0x1F DUP4 ADD SLT PUSH2 0x1DE4 JUMPI PUSH2 0x1DE3 PUSH2 0x1CC8 JUMP JUMPDEST JUMPDEST DUP2 CALLDATALOAD PUSH2 0x1DF4 DUP5 DUP3 PUSH1 0x20 DUP7 ADD PUSH2 0x1D8D JUMP JUMPDEST SWAP2 POP POP SWAP3 SWAP2 POP POP JUMP JUMPDEST PUSH1 0x0 PUSH1 0x20 DUP3 DUP5 SUB SLT ISZERO PUSH2 0x1E13 JUMPI PUSH2 0x1E12 PUSH2 0x1A61 JUMP JUMPDEST JUMPDEST PUSH1 0x0 DUP3 ADD CALLDATALOAD PUSH8 0xFFFFFFFFFFFFFFFF DUP2 GT ISZERO PUSH2 0x1E31 JUMPI PUSH2 0x1E30 PUSH2 0x1A66 JUMP JUMPDEST JUMPDEST PUSH2 0x1E3D DUP5 DUP3 DUP6 ADD PUSH2 0x1DCF JUMP JUMPDEST SWAP2 POP POP SWAP3 SWAP2 POP POP JUMP JUMPDEST PUSH1 0x0 DUP2 SWAP1 POP SWAP3 SWAP2 POP POP JUMP JUMPDEST PUSH32 0x506572736F6E616C000000000000000000000000000000000000000000000000 PUSH1 0x0 DUP3 ADD MSTORE POP JUMP JUMPDEST PUSH1 0x0 PUSH2 0x1E87 PUSH1 0x8 DUP4 PUSH2 0x1E46 JUMP JUMPDEST SWAP2 POP PUSH2 0x1E92 DUP3 PUSH2 0x1E51 JUMP JUMPDEST PUSH1 0x8 DUP3 ADD SWAP1 POP SWAP2 SWAP1 POP JUMP JUMPDEST PUSH1 0x0 PUSH2 0x1EA8 DUP3 PUSH2 0x1E7A JUMP JUMPDEST SWAP2 POP DUP2 SWAP1 POP SWAP2 SWAP1 POP JUMP JUMPDEST PUSH32 0x4E487B7100000000000000000000000000000000000000000000000000000000 PUSH1 0x0 MSTORE PUSH1 0x22 PUSH1 0x4 MSTORE PUSH1 0x24 PUSH1 0x0 REVERT JUMPDEST PUSH1 0x0 PUSH1 0x2 DUP3 DIV SWAP1 POP PUSH1 0x1 DUP3 AND DUP1 PUSH2 0x1EF9 JUMPI PUSH1 0x7F DUP3 AND SWAP2 POP JUMPDEST PUSH1 0x20 DUP3 LT DUP2 SUB PUSH2 0x1F0C JUMPI PUSH2 0x1F0B PUSH2 0x1EB2 JUMP JUMPDEST JUMPDEST POP SWAP2 SWAP1 POP JUMP JUMPDEST PUSH1 0x0 DUP2 SWAP1 POP DUP2 PUSH1 0x0 MSTORE PUSH1 0x20 PUSH1 0x0 KECCAK256 SWAP1 POP SWAP2 SWAP1 POP JUMP JUMPDEST PUSH1 0x0 PUSH1 0x20 PUSH1 0x1F DUP4 ADD DIV SWAP1 POP SWAP2 SWAP1 POP JUMP JUMPDEST PUSH1 0x0 DUP3 DUP3 SHL SWAP1 POP SWAP3 SWAP2 POP POP JUMP JUMPDEST PUSH1 0x0 PUSH1 0x8 DUP4 MUL PUSH2 0x1F74 PUSH32 0xFFFFFFFFFFFFFFFFFFFFFFFFFFFFFFFFFFFFFFFFFFFFFFFFFFFFFFFFFFFFFFFF DUP3 PUSH2 0x1F37 JUMP JUMPDEST PUSH2 0x1F7E DUP7 DUP4 PUSH2 0x1F37 JUMP JUMPDEST SWAP6 POP DUP1 NOT DUP5 AND SWAP4 POP DUP1 DUP7 AND DUP5 OR SWAP3 POP POP POP SWAP4 SWAP3 POP POP POP JUMP JUMPDEST PUSH1 0x0 DUP2 SWAP1 POP SWAP2 SWAP1 POP JUMP JUMPDEST PUSH1 0x0 PUSH2 0x1FBB PUSH2 0x1FB6 PUSH2 0x1FB1 DUP5 PUSH2 0x1A6B JUMP JUMPDEST PUSH2 0x1F96 JUMP JUMPDEST PUSH2 0x1A6B JUMP JUMPDEST SWAP1 POP SWAP2 SWAP1 POP JUMP JUMPDEST PUSH1 0x0 DUP2 SWAP1 POP SWAP2 SWAP1 POP JUMP JUMPDEST PUSH2 0x1FD5 DUP4 PUSH2 0x1FA0 JUMP JUMPDEST PUSH2 0x1FE9 PUSH2 0x1FE1 DUP3 PUSH2 0x1FC2 JUMP JUMPDEST DUP5 DUP5 SLOAD PUSH2 0x1F44 JUMP JUMPDEST DUP3 SSTORE POP POP POP POP JUMP JUMPDEST PUSH1 0x0 SWAP1 JUMP JUMPDEST PUSH2 0x1FFE PUSH2 0x1FF1 JUMP JUMPDEST PUSH2 0x2009 DUP2 DUP5 DUP5 PUSH2 0x1FCC JUMP JUMPDEST POP POP POP JUMP JUMPDEST JUMPDEST DUP2 DUP2 LT ISZERO PUSH2 0x202D JUMPI PUSH2 0x2022 PUSH1 0x0 DUP3 PUSH2 0x1FF6 JUMP JUMPDEST PUSH1 0x1 DUP2 ADD SWAP1 POP PUSH2 0x200F JUMP JUMPDEST POP POP JUMP JUMPDEST PUSH1 0x1F DUP3 GT ISZERO PUSH2 0x2072 JUMPI PUSH2 0x2043 DUP2 PUSH2 0x1F12 JUMP JUMPDEST PUSH2 0x204C DUP5 PUSH2 0x1F27 JUMP JUMPDEST DUP2 ADD PUSH1 0x20 DUP6 LT ISZERO PUSH2 0x205B JUMPI DUP2 SWAP1 POP JUMPDEST PUSH2 0x206F PUSH2 0x2067 DUP6 PUSH2 0x1F27 JUMP JUMPDEST DUP4 ADD DUP3 PUSH2 0x200E JUMP JUMPDEST POP POP JUMPDEST POP POP POP JUMP JUMPDEST PUSH1 0x0 DUP3 DUP3 SHR SWAP1 POP SWAP3 SWAP2 POP POP JUMP JUMPDEST PUSH1 0x0 PUSH2 0x2095 PUSH1 0x0 NOT DUP5 PUSH1 0x8 MUL PUSH2 0x2077 JUMP JUMPDEST NOT DUP1 DUP4 AND SWAP2 POP POP SWAP3 SWAP2 POP POP JUMP JUMPDEST PUSH1 0x0 PUSH2 0x20AE DUP4 DUP4 PUSH2 0x2084 JUMP JUMPDEST SWAP2 POP DUP3 PUSH1 0x2 MUL DUP3 OR SWAP1 POP SWAP3 SWAP2 POP POP JUMP JUMPDEST PUSH2 0x20C7 DUP3 PUSH2 0x1BEC JUMP JUMPDEST PUSH8 0xFFFFFFFFFFFFFFFF DUP2 GT ISZERO PUSH2 0x20E0 JUMPI PUSH2 0x20DF PUSH2 0x1CD2 JUMP JUMPDEST JUMPDEST PUSH2 0x20EA DUP3 SLOAD PUSH2 0x1EE1 JUMP JUMPDEST PUSH2 0x20F5 DUP3 DUP3 DUP6 PUSH2 0x2031 JUMP JUMPDEST PUSH1 0x0 PUSH1 0x20 SWAP1 POP PUSH1 0x1F DUP4 GT PUSH1 0x1 DUP2 EQ PUSH2 0x2128 JUMPI PUSH1 0x0 DUP5 ISZERO PUSH2 0x2116 JUMPI DUP3 DUP8 ADD MLOAD SWAP1 POP JUMPDEST PUSH2 0x2120 DUP6 DUP3 PUSH2 0x20A2 JUMP JUMPDEST DUP7 SSTORE POP PUSH2 0x2188 JUMP JUMPDEST PUSH1 0x1F NOT DUP5 AND PUSH2 0x2136 DUP7 PUSH2 0x1F12 JUMP JUMPDEST PUSH1 0x0 JUMPDEST DUP3 DUP2 LT ISZERO PUSH2 0x215E JUMPI DUP5 DUP10 ADD MLOAD DUP3 SSTORE PUSH1 0x1 DUP3 ADD SWAP2 POP PUSH1 0x20 DUP6 ADD SWAP5 POP PUSH1 0x20 DUP2 ADD SWAP1 POP PUSH2 0x2139 JUMP JUMPDEST DUP7 DUP4 LT ISZERO PUSH2 0x217B JUMPI DUP5 DUP10 ADD MLOAD PUSH2 0x2177 PUSH1 0x1F DUP10 AND DUP3 PUSH2 0x2084 JUMP JUMPDEST DUP4 SSTORE POP JUMPDEST PUSH1 0x1 PUSH1 0x2 DUP9 MUL ADD DUP9 SSTORE POP POP POP JUMPDEST POP POP POP POP POP POP JUMP JUMPDEST PUSH32 0x4E487B7100000000000000000000000000000000000000000000000000000000 PUSH1 0x0 MSTORE PUSH1 0x11 PUSH1 0x4 MSTORE PUSH1 0x24 PUSH1 0x0 REVERT JUMPDEST PUSH1 0x0 PUSH2 0x21CA DUP3 PUSH2 0x1A6B JUMP JUMPDEST SWAP2 POP PUSH2 0x21D5 DUP4 PUSH2 0x1A6B JUMP JUMPDEST SWAP3 POP DUP3 DUP3 ADD SWAP1 POP DUP1 DUP3 GT ISZERO PUSH2 0x21ED JUMPI PUSH2 0x21EC PUSH2 0x2190 JUMP JUMPDEST JUMPDEST SWAP3 SWAP2 POP POP JUMP JUMPDEST PUSH1 0x0 PUSH2 0x21FE DUP3 PUSH2 0x1A6B JUMP JUMPDEST SWAP2 POP PUSH2 0x2209 DUP4 PUSH2 0x1A6B JUMP JUMPDEST SWAP3 POP DUP3 DUP3 SUB SWAP1 POP DUP2 DUP2 GT ISZERO PUSH2 0x2221 JUMPI PUSH2 0x2220 PUSH2 0x2190 JUMP JUMPDEST JUMPDEST SWAP3 SWAP2 POP POP JUMP JUMPDEST PUSH2 0x2230 DUP2 PUSH2 0x1B58 JUMP JUMPDEST DUP3 MSTORE POP POP JUMP JUMPDEST PUSH32 0x68617320676F7420706572736F6E616C206C6F616E206F660000000000000000 PUSH1 0x0 DUP3 ADD MSTORE POP JUMP JUMPDEST PUSH1 0x0 PUSH2 0x226C PUSH1 0x18 DUP4 PUSH2 0x1BF7 JUMP JUMPDEST SWAP2 POP PUSH2 0x2277 DUP3 PUSH2 0x2236 JUMP JUMPDEST PUSH1 0x20 DUP3 ADD SWAP1 POP SWAP2 SWAP1 POP JUMP JUMPDEST PUSH1 0x0 PUSH1 0x80 DUP3 ADD SWAP1 POP PUSH2 0x2297 PUSH1 0x0 DUP4 ADD DUP7 PUSH2 0x2227 JUMP JUMPDEST DUP2 DUP2 SUB PUSH1 0x20 DUP4 ADD MSTORE PUSH2 0x22A8 DUP2 PUSH2 0x225F JUMP JUMPDEST SWAP1 POP PUSH2 0x22B7 PUSH1 0x40 DUP4 ADD DUP6 PUSH2 0x1B0E JUMP JUMPDEST PUSH2 0x22C4 PUSH1 0x60 DUP4 ADD DUP5 PUSH2 0x1B0E JUMP JUMPDEST SWAP5 SWAP4 POP POP POP POP JUMP JUMPDEST PUSH32 0x506C7A7A20776974686472617720736F6D6520616D6F756E7400000000000000 PUSH1 0x0 DUP3 ADD MSTORE POP JUMP JUMPDEST PUSH1 0x0 PUSH2 0x2302 PUSH1 0x19 DUP4 PUSH2 0x1BF7 JUMP JUMPDEST SWAP2 POP PUSH2 0x230D DUP3 PUSH2 0x22CC JUMP JUMPDEST PUSH1 0x20 DUP3 ADD SWAP1 POP SWAP2 SWAP1 POP JUMP JUMPDEST PUSH1 0x0 PUSH1 0x20 DUP3 ADD SWAP1 POP DUP2 DUP2 SUB PUSH1 0x0 DUP4 ADD MSTORE PUSH2 0x2331 DUP2 PUSH2 0x22F5 JUMP JUMPDEST SWAP1 POP SWAP2 SWAP1 POP JUMP JUMPDEST PUSH32 0x4E6F206461746120657869737400000000000000000000000000000000000000 PUSH1 0x0 DUP3 ADD MSTORE POP JUMP JUMPDEST PUSH1 0x0 PUSH2 0x236E PUSH1 0xD DUP4 PUSH2 0x1BF7 JUMP JUMPDEST SWAP2 POP PUSH2 0x2379 DUP3 PUSH2 0x2338 JUMP JUMPDEST PUSH1 0x20 DUP3 ADD SWAP1 POP SWAP2 SWAP1 POP JUMP JUMPDEST PUSH1 0x0 PUSH1 0x20 DUP3 ADD SWAP1 POP DUP2 DUP2 SUB PUSH1 0x0 DUP4 ADD MSTORE PUSH2 0x239D DUP2 PUSH2 0x2361 JUMP JUMPDEST SWAP1 POP SWAP2 SWAP1 POP JUMP JUMPDEST PUSH32 0x4E65656420746F20776169742031206D696E75746573206265666F7265207769 PUSH1 0x0 DUP3 ADD MSTORE PUSH32 0x7468647261770000000000000000000000000000000000000000000000000000 PUSH1 0x20 DUP3 ADD MSTORE POP JUMP JUMPDEST PUSH1 0x0 PUSH2 0x2400 PUSH1 0x26 DUP4 PUSH2 0x1BF7 JUMP JUMPDEST SWAP2 POP PUSH2 0x240B DUP3 PUSH2 0x23A4 JUMP JUMPDEST PUSH1 0x40 DUP3 ADD SWAP1 POP SWAP2 SWAP1 POP JUMP JUMPDEST PUSH1 0x0 PUSH1 0x20 DUP3 ADD SWAP1 POP DUP2 DUP2 SUB PUSH1 0x0 DUP4 ADD MSTORE PUSH2 0x242F DUP2 PUSH2 0x23F3 JUMP JUMPDEST SWAP1 POP SWAP2 SWAP1 POP JUMP JUMPDEST PUSH32 0x6861732077697468647261776E00000000000000000000000000000000000000 PUSH1 0x0 DUP3 ADD MSTORE POP JUMP JUMPDEST PUSH1 0x0 PUSH2 0x246C PUSH1 0xD DUP4 PUSH2 0x1BF7 JUMP JUMPDEST SWAP2 POP PUSH2 0x2477 DUP3 PUSH2 0x2436 JUMP JUMPDEST PUSH1 0x20 DUP3 ADD SWAP1 POP SWAP2 SWAP1 POP JUMP JUMPDEST PUSH1 0x0 PUSH1 0x60 DUP3 ADD SWAP1 POP PUSH2 0x2497 PUSH1 0x0 DUP4 ADD DUP6 PUSH2 0x2227 JUMP JUMPDEST DUP2 DUP2 SUB PUSH1 0x20 DUP4 ADD MSTORE PUSH2 0x24A8 DUP2 PUSH2 0x245F JUMP JUMPDEST SWAP1 POP PUSH2 0x24B7 PUSH1 0x40 DUP4 ADD DUP5 PUSH2 0x1B0E JUMP JUMPDEST SWAP4 SWAP3 POP POP POP JUMP JUMPDEST PUSH32 0x4361720000000000000000000000000000000000000000000000000000000000 PUSH1 0x0 DUP3 ADD MSTORE POP JUMP JUMPDEST PUSH1 0x0 PUSH2 0x24F4 PUSH1 0x3 DUP4 PUSH2 0x1E46 JUMP JUMPDEST SWAP2 POP PUSH2 0x24FF DUP3 PUSH2 0x24BE JUMP JUMPDEST PUSH1 0x3 DUP3 ADD SWAP1 POP SWAP2 SWAP1 POP JUMP JUMPDEST PUSH1 0x0 PUSH2 0x2515 DUP3 PUSH2 0x24E7 JUMP JUMPDEST SWAP2 POP DUP2 SWAP1 POP SWAP2 SWAP1 POP JUMP JUMPDEST PUSH32 0x68617320676F7420636172206C6F616E206F6600000000000000000000000000 PUSH1 0x0 DUP3 ADD MSTORE POP JUMP JUMPDEST PUSH1 0x0 PUSH2 0x2555 PUSH1 0x13 DUP4 PUSH2 0x1BF7 JUMP JUMPDEST SWAP2 POP PUSH2 0x2560 DUP3 PUSH2 0x251F JUMP JUMPDEST PUSH1 0x20 DUP3 ADD SWAP1 POP SWAP2 SWAP1 POP JUMP JUMPDEST PUSH1 0x0 PUSH1 0x80 DUP3 ADD SWAP1 POP PUSH2 0x2580 PUSH1 0x0 DUP4 ADD DUP7 PUSH2 0x2227 JUMP JUMPDEST DUP2 DUP2 SUB PUSH1 0x20 DUP4 ADD MSTORE PUSH2 0x2591 DUP2 PUSH2 0x2548 JUMP JUMPDEST SWAP1 POP PUSH2 0x25A0 PUSH1 0x40 DUP4 ADD DUP6 PUSH2 0x1B0E JUMP JUMPDEST PUSH2 0x25AD PUSH1 0x60 DUP4 ADD DUP5 PUSH2 0x1B0E JUMP JUMPDEST SWAP5 SWAP4 POP POP POP POP JUMP JUMPDEST PUSH32 0x486F6D6500000000000000000000000000000000000000000000000000000000 PUSH1 0x0 DUP3 ADD MSTORE POP JUMP JUMPDEST PUSH1 0x0 PUSH2 0x25EB PUSH1 0x4 DUP4 PUSH2 0x1E46 JUMP JUMPDEST SWAP2 POP PUSH2 0x25F6 DUP3 PUSH2 0x25B5 JUMP JUMPDEST PUSH1 0x4 DUP3 ADD SWAP1 POP SWAP2 SWAP1 POP JUMP JUMPDEST PUSH1 0x0 PUSH2 0x260C DUP3 PUSH2 0x25DE JUMP JUMPDEST SWAP2 POP DUP2 SWAP1 POP SWAP2 SWAP1 POP JUMP JUMPDEST PUSH32 0x68617320676F7420686F6D65206C6F616E206F66000000000000000000000000 PUSH1 0x0 DUP3 ADD MSTORE POP JUMP JUMPDEST PUSH1 0x0 PUSH2 0x264C PUSH1 0x14 DUP4 PUSH2 0x1BF7 JUMP JUMPDEST SWAP2 POP PUSH2 0x2657 DUP3 PUSH2 0x2616 JUMP JUMPDEST PUSH1 0x20 DUP3 ADD SWAP1 POP SWAP2 SWAP1 POP JUMP JUMPDEST PUSH1 0x0 PUSH1 0x80 DUP3 ADD SWAP1 POP PUSH2 0x2677 PUSH1 0x0 DUP4 ADD DUP7 PUSH2 0x2227 JUMP JUMPDEST DUP2 DUP2 SUB PUSH1 0x20 DUP4 ADD MSTORE PUSH2 0x2688 DUP2 PUSH2 0x263F JUMP JUMPDEST SWAP1 POP PUSH2 0x2697 PUSH1 0x40 DUP4 ADD DUP6 PUSH2 0x1B0E JUMP JUMPDEST PUSH2 0x26A4 PUSH1 0x60 DUP4 ADD DUP5 PUSH2 0x1B0E JUMP JUMPDEST SWAP5 SWAP4 POP POP POP POP JUMP JUMPDEST PUSH32 0x506C7A7A206465706F7369746520736F6D6520616D6F756E7400000000000000 PUSH1 0x0 DUP3 ADD MSTORE POP JUMP JUMPDEST PUSH1 0x0 PUSH2 0x26E2 PUSH1 0x19 DUP4 PUSH2 0x1BF7 JUMP JUMPDEST SWAP2 POP PUSH2 0x26ED DUP3 PUSH2 0x26AC JUMP JUMPDEST PUSH1 0x20 DUP3 ADD SWAP1 POP SWAP2 SWAP1 POP JUMP JUMPDEST PUSH1 0x0 PUSH1 0x20 DUP3 ADD SWAP1 POP DUP2 DUP2 SUB PUSH1 0x0 DUP4 ADD MSTORE PUSH2 0x2711 DUP2 PUSH2 0x26D5 JUMP JUMPDEST SWAP1 POP SWAP2 SWAP1 POP JUMP JUMPDEST PUSH32 0x686173206465706F736974656400000000000000000000000000000000000000 PUSH1 0x0 DUP3 ADD MSTORE POP JUMP JUMPDEST PUSH1 0x0 PUSH2 0x274E PUSH1 0xD DUP4 PUSH2 0x1BF7 JUMP JUMPDEST SWAP2 POP PUSH2 0x2759 DUP3 PUSH2 0x2718 JUMP JUMPDEST PUSH1 0x20 DUP3 ADD SWAP1 POP SWAP2 SWAP1 POP JUMP JUMPDEST PUSH1 0x0 PUSH1 0x60 DUP3 ADD SWAP1 POP PUSH2 0x2779 PUSH1 0x0 DUP4 ADD DUP6 PUSH2 0x2227 JUMP JUMPDEST DUP2 DUP2 SUB PUSH1 0x20 DUP4 ADD MSTORE PUSH2 0x278A DUP2 PUSH2 0x2741 JUMP JUMPDEST SWAP1 POP PUSH2 0x2799 PUSH1 0x40 DUP4 ADD DUP5 PUSH2 0x1B0E JUMP JUMPDEST SWAP4 SWAP3 POP POP POP JUMP JUMPDEST PUSH1 0x0 PUSH2 0x27AD PUSH1 0x3 DUP4 PUSH2 0x1BF7 JUMP JUMPDEST SWAP2 POP PUSH2 0x27B8 DUP3 PUSH2 0x24BE JUMP JUMPDEST PUSH1 0x20 DUP3 ADD SWAP1 POP SWAP2 SWAP1 POP JUMP JUMPDEST PUSH1 0x0 PUSH1 0x20 DUP3 ADD SWAP1 POP DUP2 DUP2 SUB PUSH1 0x0 DUP4 ADD MSTORE PUSH2 0x27DC DUP2 PUSH2 0x27A0 JUMP JUMPDEST SWAP1 POP SWAP2 SWAP1 POP JUMP JUMPDEST PUSH1 0x0 PUSH1 0x20 DUP3 ADD SWAP1 POP DUP2 DUP2 SUB PUSH1 0x0 DUP4 ADD MSTORE PUSH2 0x27FD DUP2 DUP5 PUSH2 0x1C43 JUMP JUMPDEST SWAP1 POP SWAP3 SWAP2 POP POP JUMP JUMPDEST PUSH1 0x0 PUSH2 0x2812 PUSH1 0x4 DUP4 PUSH2 0x1BF7 JUMP JUMPDEST SWAP2 POP PUSH2 0x281D DUP3 PUSH2 0x25B5 JUMP JUMPDEST PUSH1 0x20 DUP3 ADD SWAP1 POP SWAP2 SWAP1 POP JUMP JUMPDEST PUSH1 0x0 PUSH1 0x20 DUP3 ADD SWAP1 POP DUP2 DUP2 SUB PUSH1 0x0 DUP4 ADD MSTORE PUSH2 0x2841 DUP2 PUSH2 0x2805 JUMP JUMPDEST SWAP1 POP SWAP2 SWAP1 POP JUMP JUMPDEST PUSH1 0x0 PUSH2 0x2855 PUSH1 0x8 DUP4 PUSH2 0x1BF7 JUMP JUMPDEST SWAP2 POP PUSH2 0x2860 DUP3 PUSH2 0x1E51 JUMP JUMPDEST PUSH1 0x20 DUP3 ADD SWAP1 POP SWAP2 SWAP1 POP JUMP JUMPDEST PUSH1 0x0 PUSH1 0x20 DUP3 ADD SWAP1 POP DUP2 DUP2 SUB PUSH1 0x0 DUP4 ADD MSTORE PUSH2 0x2884 DUP2 PUSH2 0x2848 JUMP JUMPDEST SWAP1 POP SWAP2 SWAP1 POP JUMP JUMPDEST PUSH32 0x706C6561736520656E7465722076616C6964206C6F616E207479706520692E65 PUSH1 0x0 DUP3 ADD MSTORE PUSH32 0x20436172206F7220506572736F6E616C206F7220486F6D650000000000000000 PUSH1 0x20 DUP3 ADD MSTORE POP JUMP JUMPDEST PUSH1 0x0 PUSH2 0x28E7 PUSH1 0x38 DUP4 PUSH2 0x1BF7 JUMP JUMPDEST SWAP2 POP PUSH2 0x28F2 DUP3 PUSH2 0x288B JUMP JUMPDEST PUSH1 0x40 DUP3 ADD SWAP1 POP SWAP2 SWAP1 POP JUMP JUMPDEST PUSH1 0x0 PUSH1 0x20 DUP3 ADD SWAP1 POP DUP2 DUP2 SUB PUSH1 0x0 DUP4 ADD MSTORE PUSH2 0x2916 DUP2 PUSH2 0x28DA JUMP JUMPDEST SWAP1 POP SWAP2 SWAP1 POP JUMP JUMPDEST PUSH1 0x0 PUSH2 0x2928 DUP3 PUSH2 0x1BEC JUMP JUMPDEST PUSH2 0x2932 DUP2 DUP6 PUSH2 0x1E46 JUMP JUMPDEST SWAP4 POP PUSH2 0x2942 DUP2 DUP6 PUSH1 0x20 DUP7 ADD PUSH2 0x1C08 JUMP JUMPDEST DUP1 DUP5 ADD SWAP2 POP POP SWAP3 SWAP2 POP POP JUMP JUMPDEST PUSH1 0x0 PUSH2 0x295A DUP3 DUP5 PUSH2 0x291D JUMP JUMPDEST SWAP2 POP DUP2 SWAP1 POP SWAP3 SWAP2 POP POP JUMP JUMPDEST PUSH32 0x4E6F20454D492070656E64696E67000000000000000000000000000000000000 PUSH1 0x0 DUP3 ADD MSTORE POP JUMP JUMPDEST PUSH1 0x0 PUSH2 0x299B PUSH1 0xE DUP4 PUSH2 0x1BF7 JUMP JUMPDEST SWAP2 POP PUSH2 0x29A6 DUP3 PUSH2 0x2965 JUMP JUMPDEST PUSH1 0x20 DUP3 ADD SWAP1 POP SWAP2 SWAP1 POP JUMP JUMPDEST PUSH1 0x0 PUSH1 0x20 DUP3 ADD SWAP1 POP DUP2 DUP2 SUB PUSH1 0x0 DUP4 ADD MSTORE PUSH2 0x29CA DUP2 PUSH2 0x298E JUMP JUMPDEST SWAP1 POP SWAP2 SWAP1 POP JUMP JUMPDEST PUSH32 0x506C656173652073656E642076616C696420616D6F756E74206F6620456D6900 PUSH1 0x0 DUP3 ADD MSTORE POP JUMP JUMPDEST PUSH1 0x0 PUSH2 0x2A07 PUSH1 0x1F DUP4 PUSH2 0x1BF7 JUMP JUMPDEST SWAP2 POP PUSH2 0x2A12 DUP3 PUSH2 0x29D1 JUMP JUMPDEST PUSH1 0x20 DUP3 ADD SWAP1 POP SWAP2 SWAP1 POP JUMP JUMPDEST PUSH1 0x0 PUSH1 0x20 DUP3 ADD SWAP1 POP DUP2 DUP2 SUB PUSH1 0x0 DUP4 ADD MSTORE PUSH2 0x2A36 DUP2 PUSH2 0x29FA JUMP JUMPDEST SWAP1 POP SWAP2 SWAP1 POP JUMP JUMPDEST PUSH32 0x4E65656420746F20776169742031206D6F6E746820616674657220706179696E PUSH1 0x0 DUP3 ADD MSTORE PUSH32 0x67206C61737420454D4900000000000000000000000000000000000000000000 PUSH1 0x20 DUP3 ADD MSTORE POP JUMP JUMPDEST PUSH1 0x0 PUSH2 0x2A99 PUSH1 0x2A DUP4 PUSH2 0x1BF7 JUMP JUMPDEST SWAP2 POP PUSH2 0x2AA4 DUP3 PUSH2 0x2A3D JUMP JUMPDEST PUSH1 0x40 DUP3 ADD SWAP1 POP SWAP2 SWAP1 POP JUMP JUMPDEST PUSH1 0x0 PUSH1 0x20 DUP3 ADD SWAP1 POP DUP2 DUP2 SUB PUSH1 0x0 DUP4 ADD MSTORE PUSH2 0x2AC8 DUP2 PUSH2 0x2A8C JUMP JUMPDEST SWAP1 POP SWAP2 SWAP1 POP JUMP JUMPDEST PUSH32 0x68617320706169642068697320656D69206F6600000000000000000000000000 PUSH1 0x0 DUP3 ADD MSTORE POP JUMP JUMPDEST PUSH1 0x0 PUSH2 0x2B05 PUSH1 0x13 DUP4 PUSH2 0x1BF7 JUMP JUMPDEST SWAP2 POP PUSH2 0x2B10 DUP3 PUSH2 0x2ACF JUMP JUMPDEST PUSH1 0x20 DUP3 ADD SWAP1 POP SWAP2 SWAP1 POP JUMP JUMPDEST PUSH1 0x0 PUSH1 0x80 DUP3 ADD SWAP1 POP PUSH2 0x2B30 PUSH1 0x0 DUP4 ADD DUP7 PUSH2 0x2227 JUMP JUMPDEST DUP2 DUP2 SUB PUSH1 0x20 DUP4 ADD MSTORE PUSH2 0x2B41 DUP2 PUSH2 0x2AF8 JUMP JUMPDEST SWAP1 POP DUP2 DUP2 SUB PUSH1 0x40 DUP4 ADD MSTORE PUSH2 0x2B55 DUP2 DUP6 PUSH2 0x1C43 JUMP JUMPDEST SWAP1 POP PUSH2 0x2B64 PUSH1 0x60 DUP4 ADD DUP5 PUSH2 0x1B0E JUMP JUMPDEST SWAP5 SWAP4 POP POP POP POP JUMP JUMPDEST PUSH32 0x416D6F756E742073686F756C642062652067726561746572207468616E203130 PUSH1 0x0 DUP3 ADD MSTORE PUSH32 0x303020616E64206C657373207468656E206C6F616E204C696D69740000000000 PUSH1 0x20 DUP3 ADD MSTORE POP JUMP JUMPDEST PUSH1 0x0 PUSH2 0x2BC8 PUSH1 0x3B DUP4 PUSH2 0x1BF7 JUMP JUMPDEST SWAP2 POP PUSH2 0x2BD3 DUP3 PUSH2 0x2B6C JUMP JUMPDEST PUSH1 0x40 DUP3 ADD SWAP1 POP SWAP2 SWAP1 POP JUMP JUMPDEST PUSH1 0x0 PUSH1 0x20 DUP3 ADD SWAP1 POP DUP2 DUP2 SUB PUSH1 0x0 DUP4 ADD MSTORE PUSH2 0x2BF7 DUP2 PUSH2 0x2BBB JUMP JUMPDEST SWAP1 POP SWAP2 SWAP1 POP JUMP JUMPDEST PUSH32 0x74696D652073686F756C6420626520696E2072616E6765203120746F20313230 PUSH1 0x0 DUP3 ADD MSTORE POP JUMP JUMPDEST PUSH1 0x0 PUSH2 0x2C34 PUSH1 0x20 DUP4 PUSH2 0x1BF7 JUMP JUMPDEST SWAP2 POP PUSH2 0x2C3F DUP3 PUSH2 0x2BFE JUMP JUMPDEST PUSH1 0x20 DUP3 ADD SWAP1 POP SWAP2 SWAP1 POP JUMP JUMPDEST PUSH1 0x0 PUSH1 0x20 DUP3 ADD SWAP1 POP DUP2 DUP2 SUB PUSH1 0x0 DUP4 ADD MSTORE PUSH2 0x2C63 DUP2 PUSH2 0x2C27 JUMP JUMPDEST SWAP1 POP SWAP2 SWAP1 POP JUMP JUMPDEST PUSH32 0x4E487B7100000000000000000000000000000000000000000000000000000000 PUSH1 0x0 MSTORE PUSH1 0x12 PUSH1 0x4 MSTORE PUSH1 0x24 PUSH1 0x0 REVERT JUMPDEST PUSH1 0x0 PUSH2 0x2CA4 DUP3 PUSH2 0x1A6B JUMP JUMPDEST SWAP2 POP PUSH2 0x2CAF DUP4 PUSH2 0x1A6B JUMP JUMPDEST SWAP3 POP DUP3 PUSH2 0x2CBF JUMPI PUSH2 0x2CBE PUSH2 0x2C6A JUMP JUMPDEST JUMPDEST DUP3 DUP3 DIV SWAP1 POP SWAP3 SWAP2 POP POP JUMP JUMPDEST PUSH1 0x0 PUSH2 0x2CD5 DUP3 PUSH2 0x1A6B JUMP JUMPDEST SWAP2 POP PUSH2 0x2CE0 DUP4 PUSH2 0x1A6B JUMP JUMPDEST SWAP3 POP DUP3 DUP3 MUL PUSH2 0x2CEE DUP2 PUSH2 0x1A6B JUMP JUMPDEST SWAP2 POP DUP3 DUP3 DIV DUP5 EQ DUP4 ISZERO OR PUSH2 0x2D05 JUMPI PUSH2 0x2D04 PUSH2 0x2190 JUMP JUMPDEST JUMPDEST POP SWAP3 SWAP2 POP POP JUMP INVALID LOG2 PUSH5 0x6970667358 0x22 SLT KECCAK256 PUSH31 0xCB004932F69F7947E060FA2EC91766620FB0B62038D3EB20C8E54E2A543D69 PUSH5 0x736F6C6343 STOP ADDMOD SLT STOP CALLER "
		},
		"gasEstimates": {
			"creation": {
				"codeDepositCost": "2317200",
				"executionCost": "2486",
				"totalCost": "2319686"
			},
			"external": {
				"AddLoanLimit()": "infinite",
				"UserAddress(address)": "infinite",
				"deposit()": "infinite",
				"getCarLoan(uint256,uint256)": "infinite",
				"getCarLoanDetails()": "infinite",
				"getHomeLoan(uint256,uint256)": "infinite",
				"getHomeLoanDetails()": "infinite",
				"getPersonalLoan(uint256,uint256)": "infinite",
				"getPersonalLoanDetails()": "infinite",
				"getTotalBankBalance()": "384",
				"loanLimit()": "2452",
				"payEMI(string)": "infinite",
				"withdraw(uint256)": "infinite"
			},
			"internal": {
				"calculateEmi(uint256,uint256,uint256)": "infinite",
				"loanDetails(string memory,address)": "infinite",
				"loanValidator(address,uint256,uint256)": "infinite"
			}
		},
		"methodIdentifiers": {
			"AddLoanLimit()": "b9ccbfae",
			"UserAddress(address)": "8dd09d0b",
			"deposit()": "d0e30db0",
			"getCarLoan(uint256,uint256)": "4b674096",
			"getCarLoanDetails()": "af105ba7",
			"getHomeLoan(uint256,uint256)": "5415cf03",
			"getHomeLoanDetails()": "b6207402",
			"getPersonalLoan(uint256,uint256)": "0696d74a",
			"getPersonalLoanDetails()": "edda5012",
			"getTotalBankBalance()": "38a2ca40",
			"loanLimit()": "ad81fced",
			"payEMI(string)": "fb7a3bdf",
			"withdraw(uint256)": "2e1a7d4d"
		}
	},
	"abi": [
		{
			"anonymous": false,
			"inputs": [
				{
					"indexed": false,
					"internalType": "address",
					"name": "account",
					"type": "address"
				},
				{
					"indexed": false,
					"internalType": "string",
					"name": "message",
					"type": "string"
				},
				{
					"indexed": false,
					"internalType": "string",
					"name": "Type",
					"type": "string"
				},
				{
					"indexed": false,
					"internalType": "uint256",
					"name": "value",
					"type": "uint256"
				}
			],
			"name": "EMIPaid",
			"type": "event"
		},
		{
			"anonymous": false,
			"inputs": [
				{
					"indexed": false,
					"internalType": "address",
					"name": "sender",
					"type": "address"
				},
				{
					"indexed": false,
					"internalType": "string",
					"name": "message",
					"type": "string"
				},
				{
					"indexed": false,
					"internalType": "uint256",
					"name": "value",
					"type": "uint256"
				}
			],
			"name": "amountDeposited",
			"type": "event"
		},
		{
			"anonymous": false,
			"inputs": [
				{
					"indexed": false,
					"internalType": "address",
					"name": "sender",
					"type": "address"
				},
				{
					"indexed": false,
					"internalType": "string",
					"name": "message",
					"type": "string"
				},
				{
					"indexed": false,
					"internalType": "uint256",
					"name": "value",
					"type": "uint256"
				}
			],
			"name": "amountWithdrawn",
			"type": "event"
		},
		{
			"anonymous": false,
			"inputs": [
				{
					"indexed": false,
					"internalType": "address",
					"name": "account",
					"type": "address"
				},
				{
					"indexed": false,
					"internalType": "string",
					"name": "message",
					"type": "string"
				},
				{
					"indexed": false,
					"internalType": "uint256",
					"name": "value",
					"type": "uint256"
				},
				{
					"indexed": false,
					"internalType": "uint256",
					"name": "forTime",
					"type": "uint256"
				}
			],
			"name": "carLoanProcessed",
			"type": "event"
		},
		{
			"anonymous": false,
			"inputs": [
				{
					"indexed": false,
					"internalType": "address",
					"name": "account",
					"type": "address"
				},
				{
					"indexed": false,
					"internalType": "string",
					"name": "message",
					"type": "string"
				},
				{
					"indexed": false,
					"internalType": "uint256",
					"name": "value",
					"type": "uint256"
				},
				{
					"indexed": false,
					"internalType": "uint256",
					"name": "forTime",
					"type": "uint256"
				}
			],
			"name": "homeLoanProcessed",
			"type": "event"
		},
		{
			"anonymous": false,
			"inputs": [
				{
					"indexed": false,
					"internalType": "address",
					"name": "account",
					"type": "address"
				},
				{
					"indexed": false,
					"internalType": "string",
					"name": "message",
					"type": "string"
				},
				{
					"indexed": false,
					"internalType": "uint256",
					"name": "value",
					"type": "uint256"
				},
				{
					"indexed": false,
					"internalType": "uint256",
					"name": "forTime",
					"type": "uint256"
				}
			],
			"name": "personalLoanProcessed",
			"type": "event"
		},
		{
			"inputs": [],
			"name": "AddLoanLimit",
			"outputs": [],
			"stateMutability": "payable",
			"type": "function"
		},
		{
			"inputs": [
				{
					"internalType": "address",
					"name": "",
					"type": "address"
				}
			],
			"name": "UserAddress",
			"outputs": [
				{
					"internalType": "uint256",
					"name": "amountDeposited",
					"type": "uint256"
				},
				{
					"internalType": "uint256",
					"name": "timeStamp",
					"type": "uint256"
				}
			],
			"stateMutability": "view",
			"type": "function"
		},
		{
			"inputs": [],
			"name": "deposit",
			"outputs": [],
			"stateMutability": "payable",
			"type": "function"
		},
		{
			"inputs": [
				{
					"internalType": "uint256",
					"name": "loanAmount",
					"type": "uint256"
				},
				{
					"internalType": "uint256",
					"name": "timeInMonths",
					"type": "uint256"
				}
			],
			"name": "getCarLoan",
			"outputs": [],
			"stateMutability": "payable",
			"type": "function"
		},
		{
			"inputs": [],
			"name": "getCarLoanDetails",
			"outputs": [
				{
					"internalType": "string",
					"name": "Type",
					"type": "string"
				},
				{
					"internalType": "uint256",
					"name": "loanAmount",
					"type": "uint256"
				},
				{
					"internalType": "uint256",
					"name": "noOfEmiPending",
					"type": "uint256"
				},
				{
					"internalType": "uint256",
					"name": "EmiAmount",
					"type": "uint256"
				}
			],
			"stateMutability": "view",
			"type": "function"
		},
		{
			"inputs": [
				{
					"internalType": "uint256",
					"name": "loanAmount",
					"type": "uint256"
				},
				{
					"internalType": "uint256",
					"name": "timeInMonths",
					"type": "uint256"
				}
			],
			"name": "getHomeLoan",
			"outputs": [],
			"stateMutability": "payable",
			"type": "function"
		},
		{
			"inputs": [],
			"name": "getHomeLoanDetails",
			"outputs": [
				{
					"internalType": "string",
					"name": "Type",
					"type": "string"
				},
				{
					"internalType": "uint256",
					"name": "loanAmount",
					"type": "uint256"
				},
				{
					"internalType": "uint256",
					"name": "noOfEmiPending",
					"type": "uint256"
				},
				{
					"internalType": "uint256",
					"name": "EmiAmount",
					"type": "uint256"
				}
			],
			"stateMutability": "view",
			"type": "function"
		},
		{
			"inputs": [
				{
					"internalType": "uint256",
					"name": "loanAmount",
					"type": "uint256"
				},
				{
					"internalType": "uint256",
					"name": "timeInMonths",
					"type": "uint256"
				}
			],
			"name": "getPersonalLoan",
			"outputs": [],
			"stateMutability": "payable",
			"type": "function"
		},
		{
			"inputs": [],
			"name": "getPersonalLoanDetails",
			"outputs": [
				{
					"internalType": "string",
					"name": "Type",
					"type": "string"
				},
				{
					"internalType": "uint256",
					"name": "loanAmount",
					"type": "uint256"
				},
				{
					"internalType": "uint256",
					"name": "noOfEmiPending",
					"type": "uint256"
				},
				{
					"internalType": "uint256",
					"name": "EmiAmount",
					"type": "uint256"
				}
			],
			"stateMutability": "view",
			"type": "function"
		},
		{
			"inputs": [],
			"name": "getTotalBankBalance",
			"outputs": [
				{
					"internalType": "uint256",
					"name": "",
					"type": "uint256"
				}
			],
			"stateMutability": "view",
			"type": "function"
		},
		{
			"inputs": [],
			"name": "loanLimit",
			"outputs": [
				{
					"internalType": "uint256",
					"name": "",
					"type": "uint256"
				}
			],
			"stateMutability": "view",
			"type": "function"
		},
		{
			"inputs": [
				{
					"internalType": "string",
					"name": "Type",
					"type": "string"
				}
			],
			"name": "payEMI",
			"outputs": [],
			"stateMutability": "payable",
			"type": "function"
		},
		{
			"inputs": [
				{
					"internalType": "uint256",
					"name": "amount",
					"type": "uint256"
				}
			],
			"name": "withdraw",
			"outputs": [],
			"stateMutability": "nonpayable",
			"type": "function"
		}
	]
}