{
	"data": {
		"bytecode": {
			"linkReferences": {},
			"object": "608060405234801561001057600080fd5b50336000806101000a81548173ffffffffffffffffffffffffffffffffffffffff021916908373ffffffffffffffffffffffffffffffffffffffff16021790555061030f806100606000396000f3fe6080604052600436106100385760003560e01c80631aa35610146100415780633ccfd60b146100705780636f9fb98a1461007a5761003f565b3661003f57005b005b34801561004d57600080fd5b506100566100a5565b604051610067959493929190610204565b60405180910390f35b610078610151565b005b34801561008657600080fd5b5061008f610153565b60405161009c919061025e565b60405180910390f35b60018060000180546100b6906102a8565b80601f01602080910402602001604051908101604052809291908181526020018280546100e2906102a8565b801561012f5780601f106101045761010080835404028352916020019161012f565b820191906000526020600020905b81548152906001019060200180831161011257829003601f168201915b5050505050908060010154908060020154908060030154908060040154905085565b565b600047905090565b600081519050919050565b600082825260208201905092915050565b60005b8381101561019557808201518184015260208101905061017a565b60008484015250505050565b6000601f19601f8301169050919050565b60006101bd8261015b565b6101c78185610166565b93506101d7818560208601610177565b6101e0816101a1565b840191505092915050565b6000819050919050565b6101fe816101eb565b82525050565b600060a082019050818103600083015261021e81886101b2565b905061022d60208301876101f5565b61023a60408301866101f5565b61024760608301856101f5565b61025460808301846101f5565b9695505050505050565b600060208201905061027360008301846101f5565b92915050565b7f4e487b7100000000000000000000000000000000000000000000000000000000600052602260045260246000fd5b600060028204905060018216806102c057607f821691505b6020821081036102d3576102d2610279565b5b5091905056fea2646970667358221220cebba1f9ce8eae22539f4da9a7f10aaeada3eee0c94649efb86d6f8ae45b46d064736f6c63430008120033",
			"opcodes": "PUSH1 0x80 PUSH1 0x40 MSTORE CALLVALUE DUP1 ISZERO PUSH2 0x10 JUMPI PUSH1 0x0 DUP1 REVERT JUMPDEST POP CALLER PUSH1 0x0 DUP1 PUSH2 0x100 EXP DUP2 SLOAD DUP2 PUSH20 0xFFFFFFFFFFFFFFFFFFFFFFFFFFFFFFFFFFFFFFFF MUL NOT AND SWAP1 DUP4 PUSH20 0xFFFFFFFFFFFFFFFFFFFFFFFFFFFFFFFFFFFFFFFF AND MUL OR SWAP1 SSTORE POP PUSH2 0x30F DUP1 PUSH2 0x60 PUSH1 0x0 CODECOPY PUSH1 0x0 RETURN INVALID PUSH1 0x80 PUSH1 0x40 MSTORE PUSH1 0x4 CALLDATASIZE LT PUSH2 0x38 JUMPI PUSH1 0x0 CALLDATALOAD PUSH1 0xE0 SHR DUP1 PUSH4 0x1AA35610 EQ PUSH2 0x41 JUMPI DUP1 PUSH4 0x3CCFD60B EQ PUSH2 0x70 JUMPI DUP1 PUSH4 0x6F9FB98A EQ PUSH2 0x7A JUMPI PUSH2 0x3F JUMP JUMPDEST CALLDATASIZE PUSH2 0x3F JUMPI STOP JUMPDEST STOP JUMPDEST CALLVALUE DUP1 ISZERO PUSH2 0x4D JUMPI PUSH1 0x0 DUP1 REVERT JUMPDEST POP PUSH2 0x56 PUSH2 0xA5 JUMP JUMPDEST PUSH1 0x40 MLOAD PUSH2 0x67 SWAP6 SWAP5 SWAP4 SWAP3 SWAP2 SWAP1 PUSH2 0x204 JUMP JUMPDEST PUSH1 0x40 MLOAD DUP1 SWAP2 SUB SWAP1 RETURN JUMPDEST PUSH2 0x78 PUSH2 0x151 JUMP JUMPDEST STOP JUMPDEST CALLVALUE DUP1 ISZERO PUSH2 0x86 JUMPI PUSH1 0x0 DUP1 REVERT JUMPDEST POP PUSH2 0x8F PUSH2 0x153 JUMP JUMPDEST PUSH1 0x40 MLOAD PUSH2 0x9C SWAP2 SWAP1 PUSH2 0x25E JUMP JUMPDEST PUSH1 0x40 MLOAD DUP1 SWAP2 SUB SWAP1 RETURN JUMPDEST PUSH1 0x1 DUP1 PUSH1 0x0 ADD DUP1 SLOAD PUSH2 0xB6 SWAP1 PUSH2 0x2A8 JUMP JUMPDEST DUP1 PUSH1 0x1F ADD PUSH1 0x20 DUP1 SWAP2 DIV MUL PUSH1 0x20 ADD PUSH1 0x40 MLOAD SWAP1 DUP2 ADD PUSH1 0x40 MSTORE DUP1 SWAP3 SWAP2 SWAP1 DUP2 DUP2 MSTORE PUSH1 0x20 ADD DUP3 DUP1 SLOAD PUSH2 0xE2 SWAP1 PUSH2 0x2A8 JUMP JUMPDEST DUP1 ISZERO PUSH2 0x12F JUMPI DUP1 PUSH1 0x1F LT PUSH2 0x104 JUMPI PUSH2 0x100 DUP1 DUP4 SLOAD DIV MUL DUP4 MSTORE SWAP2 PUSH1 0x20 ADD SWAP2 PUSH2 0x12F JUMP JUMPDEST DUP3 ADD SWAP2 SWAP1 PUSH1 0x0 MSTORE PUSH1 0x20 PUSH1 0x0 KECCAK256 SWAP1 JUMPDEST DUP2 SLOAD DUP2 MSTORE SWAP1 PUSH1 0x1 ADD SWAP1 PUSH1 0x20 ADD DUP1 DUP4 GT PUSH2 0x112 JUMPI DUP3 SWAP1 SUB PUSH1 0x1F AND DUP3 ADD SWAP2 JUMPDEST POP POP POP POP POP SWAP1 DUP1 PUSH1 0x1 ADD SLOAD SWAP1 DUP1 PUSH1 0x2 ADD SLOAD SWAP1 DUP1 PUSH1 0x3 ADD SLOAD SWAP1 DUP1 PUSH1 0x4 ADD SLOAD SWAP1 POP DUP6 JUMP JUMPDEST JUMP JUMPDEST PUSH1 0x0 SELFBALANCE SWAP1 POP SWAP1 JUMP JUMPDEST PUSH1 0x0 DUP2 MLOAD SWAP1 POP SWAP2 SWAP1 POP JUMP JUMPDEST PUSH1 0x0 DUP3 DUP3 MSTORE PUSH1 0x20 DUP3 ADD SWAP1 POP SWAP3 SWAP2 POP POP JUMP JUMPDEST PUSH1 0x0 JUMPDEST DUP4 DUP2 LT ISZERO PUSH2 0x195 JUMPI DUP1 DUP3 ADD MLOAD DUP2 DUP5 ADD MSTORE PUSH1 0x20 DUP2 ADD SWAP1 POP PUSH2 0x17A JUMP JUMPDEST PUSH1 0x0 DUP5 DUP5 ADD MSTORE POP POP POP POP JUMP JUMPDEST PUSH1 0x0 PUSH1 0x1F NOT PUSH1 0x1F DUP4 ADD AND SWAP1 POP SWAP2 SWAP1 POP JUMP JUMPDEST PUSH1 0x0 PUSH2 0x1BD DUP3 PUSH2 0x15B JUMP JUMPDEST PUSH2 0x1C7 DUP2 DUP6 PUSH2 0x166 JUMP JUMPDEST SWAP4 POP PUSH2 0x1D7 DUP2 DUP6 PUSH1 0x20 DUP7 ADD PUSH2 0x177 JUMP JUMPDEST PUSH2 0x1E0 DUP2 PUSH2 0x1A1 JUMP JUMPDEST DUP5 ADD SWAP2 POP POP SWAP3 SWAP2 POP POP JUMP JUMPDEST PUSH1 0x0 DUP2 SWAP1 POP SWAP2 SWAP1 POP JUMP JUMPDEST PUSH2 0x1FE DUP2 PUSH2 0x1EB JUMP JUMPDEST DUP3 MSTORE POP POP JUMP JUMPDEST PUSH1 0x0 PUSH1 0xA0 DUP3 ADD SWAP1 POP DUP2 DUP2 SUB PUSH1 0x0 DUP4 ADD MSTORE PUSH2 0x21E DUP2 DUP9 PUSH2 0x1B2 JUMP JUMPDEST SWAP1 POP PUSH2 0x22D PUSH1 0x20 DUP4 ADD DUP8 PUSH2 0x1F5 JUMP JUMPDEST PUSH2 0x23A PUSH1 0x40 DUP4 ADD DUP7 PUSH2 0x1F5 JUMP JUMPDEST PUSH2 0x247 PUSH1 0x60 DUP4 ADD DUP6 PUSH2 0x1F5 JUMP JUMPDEST PUSH2 0x254 PUSH1 0x80 DUP4 ADD DUP5 PUSH2 0x1F5 JUMP JUMPDEST SWAP7 SWAP6 POP POP POP POP POP POP JUMP JUMPDEST PUSH1 0x0 PUSH1 0x20 DUP3 ADD SWAP1 POP PUSH2 0x273 PUSH1 0x0 DUP4 ADD DUP5 PUSH2 0x1F5 JUMP JUMPDEST SWAP3 SWAP2 POP POP JUMP JUMPDEST PUSH32 0x4E487B7100000000000000000000000000000000000000000000000000000000 PUSH1 0x0 MSTORE PUSH1 0x22 PUSH1 0x4 MSTORE PUSH1 0x24 PUSH1 0x0 REVERT JUMPDEST PUSH1 0x0 PUSH1 0x2 DUP3 DIV SWAP1 POP PUSH1 0x1 DUP3 AND DUP1 PUSH2 0x2C0 JUMPI PUSH1 0x7F DUP3 AND SWAP2 POP JUMPDEST PUSH1 0x20 DUP3 LT DUP2 SUB PUSH2 0x2D3 JUMPI PUSH2 0x2D2 PUSH2 0x279 JUMP JUMPDEST JUMPDEST POP SWAP2 SWAP1 POP JUMP INVALID LOG2 PUSH5 0x6970667358 0x22 SLT KECCAK256 0xCE 0xBB LOG1 0xF9 0xCE DUP15 0xAE 0x22 MSTORE8 SWAP16 0x4D 0xA9 0xA7 CALL EXP 0xAE 0xAD LOG3 0xEE 0xE0 0xC9 CHAINID 0x49 0xEF 0xB8 PUSH14 0x6F8AE45B46D064736F6C63430008 SLT STOP CALLER "
		},
		"gasEstimates": {
			"creation": {
				"codeDepositCost": "156600",
				"executionCost": "24468",
				"totalCost": "181068"
			},
			"external": {
				"": "129",
				"getContractBalance()": "361",
				"u1()": "infinite",
				"withdraw()": "120"
			}
		},
		"methodIdentifiers": {
			"getContractBalance()": "6f9fb98a",
			"u1()": "1aa35610",
			"withdraw()": "3ccfd60b"
		}
	},
	"abi": [
		{
			"inputs": [],
			"stateMutability": "nonpayable",
			"type": "constructor"
		},
		{
			"stateMutability": "payable",
			"type": "fallback"
		},
		{
			"inputs": [],
			"name": "getContractBalance",
			"outputs": [
				{
					"internalType": "uint256",
					"name": "",
					"type": "uint256"
				}
			],
			"stateMutability": "view",
			"type": "function"
		},
		{
			"inputs": [],
			"name": "u1",
			"outputs": [
				{
					"internalType": "string",
					"name": "name",
					"type": "string"
				},
				{
					"internalType": "uint256",
					"name": "balance",
					"type": "uint256"
				},
				{
					"internalType": "uint256",
					"name": "loan",
					"type": "uint256"
				},
				{
					"internalType": "uint256",
					"name": "emi",
					"type": "uint256"
				},
				{
					"internalType": "uint256",
					"name": "timeperiod",
					"type": "uint256"
				}
			],
			"stateMutability": "view",
			"type": "function"
		},
		{
			"inputs": [],
			"name": "withdraw",
			"outputs": [],
			"stateMutability": "payable",
			"type": "function"
		},
		{
			"stateMutability": "payable",
			"type": "receive"
		}
	]
}