{
	"Oops/nested_mapping.sol": {
		"test": {
			"abi": [
				{
					"inputs": [
						{
							"internalType": "string",
							"name": "course",
							"type": "string"
						},
						{
							"internalType": "string",
							"name": "student",
							"type": "string"
						}
					],
					"name": "getGrade",
					"outputs": [
						{
							"internalType": "uint256",
							"name": "",
							"type": "uint256"
						}
					],
					"stateMutability": "view",
					"type": "function"
				},
				{
					"inputs": [
						{
							"internalType": "string",
							"name": "course",
							"type": "string"
						},
						{
							"internalType": "string",
							"name": "student",
							"type": "string"
						},
						{
							"internalType": "uint256",
							"name": "grade",
							"type": "uint256"
						}
					],
					"name": "setGrade",
					"outputs": [],
					"stateMutability": "nonpayable",
					"type": "function"
				}
			],
			"devdoc": {
				"kind": "dev",
				"methods": {},
				"version": 1
			},
			"evm": {
				"assembly": "    /* \"Oops/nested_mapping.sol\":72:404  contract test{... */\n  mstore(0x40, 0x80)\n  callvalue\n  dup1\n  iszero\n  tag_1\n  jumpi\n  0x00\n  dup1\n  revert\ntag_1:\n  pop\n  dataSize(sub_0)\n  dup1\n  dataOffset(sub_0)\n  0x00\n  codecopy\n  0x00\n  return\nstop\n\nsub_0: assembly {\n        /* \"Oops/nested_mapping.sol\":72:404  contract test{... */\n      mstore(0x40, 0x80)\n      callvalue\n      dup1\n      iszero\n      tag_1\n      jumpi\n      0x00\n      dup1\n      revert\n    tag_1:\n      pop\n      jumpi(tag_2, lt(calldatasize, 0x04))\n      shr(0xe0, calldataload(0x00))\n      dup1\n      0x4cae0eb4\n      eq\n      tag_3\n      jumpi\n      dup1\n      0xf9653576\n      eq\n      tag_4\n      jumpi\n    tag_2:\n      0x00\n      dup1\n      revert\n        /* \"Oops/nested_mapping.sol\":270:401  function getGrade(string memory course, string memory student) public view returns (uint) {... */\n    tag_3:\n      tag_5\n      0x04\n      dup1\n      calldatasize\n      sub\n      dup2\n      add\n      swap1\n      tag_6\n      swap2\n      swap1\n      tag_7\n      jump\t// in\n    tag_6:\n      tag_8\n      jump\t// in\n    tag_5:\n      mload(0x40)\n      tag_9\n      swap2\n      swap1\n      tag_10\n      jump\t// in\n    tag_9:\n      mload(0x40)\n      dup1\n      swap2\n      sub\n      swap1\n      return\n        /* \"Oops/nested_mapping.sol\":142:266  function setGrade(string memory course, string memory student, uint grade) public {... */\n    tag_4:\n      tag_11\n      0x04\n      dup1\n      calldatasize\n      sub\n      dup2\n      add\n      swap1\n      tag_12\n      swap2\n      swap1\n      tag_13\n      jump\t// in\n    tag_12:\n      tag_14\n      jump\t// in\n    tag_11:\n      stop\n        /* \"Oops/nested_mapping.sol\":270:401  function getGrade(string memory course, string memory student) public view returns (uint) {... */\n    tag_8:\n        /* \"Oops/nested_mapping.sol\":354:358  uint */\n      0x00\n        /* \"Oops/nested_mapping.sol\":374:380  grades */\n      dup1\n        /* \"Oops/nested_mapping.sol\":381:387  course */\n      dup4\n        /* \"Oops/nested_mapping.sol\":374:388  grades[course] */\n      mload(0x40)\n      tag_16\n      swap2\n      swap1\n      tag_17\n      jump\t// in\n    tag_16:\n      swap1\n      dup2\n      mstore\n      0x20\n      add\n      mload(0x40)\n      dup1\n      swap2\n      sub\n      swap1\n      keccak256\n        /* \"Oops/nested_mapping.sol\":389:396  student */\n      dup3\n        /* \"Oops/nested_mapping.sol\":374:397  grades[course][student] */\n      mload(0x40)\n      tag_18\n      swap2\n      swap1\n      tag_17\n      jump\t// in\n    tag_18:\n      swap1\n      dup2\n      mstore\n      0x20\n      add\n      mload(0x40)\n      dup1\n      swap2\n      sub\n      swap1\n      keccak256\n      sload\n        /* \"Oops/nested_mapping.sol\":367:397  return grades[course][student] */\n      swap1\n      pop\n        /* \"Oops/nested_mapping.sol\":270:401  function getGrade(string memory course, string memory student) public view returns (uint) {... */\n      swap3\n      swap2\n      pop\n      pop\n      jump\t// out\n        /* \"Oops/nested_mapping.sol\":142:266  function setGrade(string memory course, string memory student, uint grade) public {... */\n    tag_14:\n        /* \"Oops/nested_mapping.sol\":257:262  grade */\n      dup1\n        /* \"Oops/nested_mapping.sol\":231:237  grades */\n      0x00\n        /* \"Oops/nested_mapping.sol\":238:244  course */\n      dup5\n        /* \"Oops/nested_mapping.sol\":231:245  grades[course] */\n      mload(0x40)\n      tag_20\n      swap2\n      swap1\n      tag_17\n      jump\t// in\n    tag_20:\n      swap1\n      dup2\n      mstore\n      0x20\n      add\n      mload(0x40)\n      dup1\n      swap2\n      sub\n      swap1\n      keccak256\n        /* \"Oops/nested_mapping.sol\":246:253  student */\n      dup4\n        /* \"Oops/nested_mapping.sol\":231:254  grades[course][student] */\n      mload(0x40)\n      tag_21\n      swap2\n      swap1\n      tag_17\n      jump\t// in\n    tag_21:\n      swap1\n      dup2\n      mstore\n      0x20\n      add\n      mload(0x40)\n      dup1\n      swap2\n      sub\n      swap1\n      keccak256\n        /* \"Oops/nested_mapping.sol\":231:262  grades[course][student] = grade */\n      dup2\n      swap1\n      sstore\n      pop\n        /* \"Oops/nested_mapping.sol\":142:266  function setGrade(string memory course, string memory student, uint grade) public {... */\n      pop\n      pop\n      pop\n      jump\t// out\n        /* \"#utility.yul\":7:82   */\n    tag_22:\n        /* \"#utility.yul\":40:46   */\n      0x00\n        /* \"#utility.yul\":73:75   */\n      0x40\n        /* \"#utility.yul\":67:76   */\n      mload\n        /* \"#utility.yul\":57:76   */\n      swap1\n      pop\n        /* \"#utility.yul\":7:82   */\n      swap1\n      jump\t// out\n        /* \"#utility.yul\":88:205   */\n    tag_23:\n        /* \"#utility.yul\":197:198   */\n      0x00\n        /* \"#utility.yul\":194:195   */\n      dup1\n        /* \"#utility.yul\":187:199   */\n      revert\n        /* \"#utility.yul\":211:328   */\n    tag_24:\n        /* \"#utility.yul\":320:321   */\n      0x00\n        /* \"#utility.yul\":317:318   */\n      dup1\n        /* \"#utility.yul\":310:322   */\n      revert\n        /* \"#utility.yul\":334:451   */\n    tag_25:\n        /* \"#utility.yul\":443:444   */\n      0x00\n        /* \"#utility.yul\":440:441   */\n      dup1\n        /* \"#utility.yul\":433:445   */\n      revert\n        /* \"#utility.yul\":457:574   */\n    tag_26:\n        /* \"#utility.yul\":566:567   */\n      0x00\n        /* \"#utility.yul\":563:564   */\n      dup1\n        /* \"#utility.yul\":556:568   */\n      revert\n        /* \"#utility.yul\":580:682   */\n    tag_27:\n        /* \"#utility.yul\":621:627   */\n      0x00\n        /* \"#utility.yul\":672:674   */\n      0x1f\n        /* \"#utility.yul\":668:675   */\n      not\n        /* \"#utility.yul\":663:665   */\n      0x1f\n        /* \"#utility.yul\":656:661   */\n      dup4\n        /* \"#utility.yul\":652:666   */\n      add\n        /* \"#utility.yul\":648:676   */\n      and\n        /* \"#utility.yul\":638:676   */\n      swap1\n      pop\n        /* \"#utility.yul\":580:682   */\n      swap2\n      swap1\n      pop\n      jump\t// out\n        /* \"#utility.yul\":688:868   */\n    tag_28:\n        /* \"#utility.yul\":736:813   */\n      0x4e487b7100000000000000000000000000000000000000000000000000000000\n        /* \"#utility.yul\":733:734   */\n      0x00\n        /* \"#utility.yul\":726:814   */\n      mstore\n        /* \"#utility.yul\":833:837   */\n      0x41\n        /* \"#utility.yul\":830:831   */\n      0x04\n        /* \"#utility.yul\":823:838   */\n      mstore\n        /* \"#utility.yul\":857:861   */\n      0x24\n        /* \"#utility.yul\":854:855   */\n      0x00\n        /* \"#utility.yul\":847:862   */\n      revert\n        /* \"#utility.yul\":874:1155   */\n    tag_29:\n        /* \"#utility.yul\":957:984   */\n      tag_52\n        /* \"#utility.yul\":979:983   */\n      dup3\n        /* \"#utility.yul\":957:984   */\n      tag_27\n      jump\t// in\n    tag_52:\n        /* \"#utility.yul\":949:955   */\n      dup2\n        /* \"#utility.yul\":945:985   */\n      add\n        /* \"#utility.yul\":1087:1093   */\n      dup2\n        /* \"#utility.yul\":1075:1085   */\n      dup2\n        /* \"#utility.yul\":1072:1094   */\n      lt\n        /* \"#utility.yul\":1051:1069   */\n      0xffffffffffffffff\n        /* \"#utility.yul\":1039:1049   */\n      dup3\n        /* \"#utility.yul\":1036:1070   */\n      gt\n        /* \"#utility.yul\":1033:1095   */\n      or\n        /* \"#utility.yul\":1030:1118   */\n      iszero\n      tag_53\n      jumpi\n        /* \"#utility.yul\":1098:1116   */\n      tag_54\n      tag_28\n      jump\t// in\n    tag_54:\n        /* \"#utility.yul\":1030:1118   */\n    tag_53:\n        /* \"#utility.yul\":1138:1148   */\n      dup1\n        /* \"#utility.yul\":1134:1136   */\n      0x40\n        /* \"#utility.yul\":1127:1149   */\n      mstore\n        /* \"#utility.yul\":917:1155   */\n      pop\n        /* \"#utility.yul\":874:1155   */\n      pop\n      pop\n      jump\t// out\n        /* \"#utility.yul\":1161:1290   */\n    tag_30:\n        /* \"#utility.yul\":1195:1201   */\n      0x00\n        /* \"#utility.yul\":1222:1242   */\n      tag_56\n      tag_22\n      jump\t// in\n    tag_56:\n        /* \"#utility.yul\":1212:1242   */\n      swap1\n      pop\n        /* \"#utility.yul\":1251:1284   */\n      tag_57\n        /* \"#utility.yul\":1279:1283   */\n      dup3\n        /* \"#utility.yul\":1271:1277   */\n      dup3\n        /* \"#utility.yul\":1251:1284   */\n      tag_29\n      jump\t// in\n    tag_57:\n        /* \"#utility.yul\":1161:1290   */\n      swap2\n      swap1\n      pop\n      jump\t// out\n        /* \"#utility.yul\":1296:1604   */\n    tag_31:\n        /* \"#utility.yul\":1358:1362   */\n      0x00\n        /* \"#utility.yul\":1448:1466   */\n      0xffffffffffffffff\n        /* \"#utility.yul\":1440:1446   */\n      dup3\n        /* \"#utility.yul\":1437:1467   */\n      gt\n        /* \"#utility.yul\":1434:1490   */\n      iszero\n      tag_59\n      jumpi\n        /* \"#utility.yul\":1470:1488   */\n      tag_60\n      tag_28\n      jump\t// in\n    tag_60:\n        /* \"#utility.yul\":1434:1490   */\n    tag_59:\n        /* \"#utility.yul\":1508:1537   */\n      tag_61\n        /* \"#utility.yul\":1530:1536   */\n      dup3\n        /* \"#utility.yul\":1508:1537   */\n      tag_27\n      jump\t// in\n    tag_61:\n        /* \"#utility.yul\":1500:1537   */\n      swap1\n      pop\n        /* \"#utility.yul\":1592:1596   */\n      0x20\n        /* \"#utility.yul\":1586:1590   */\n      dup2\n        /* \"#utility.yul\":1582:1597   */\n      add\n        /* \"#utility.yul\":1574:1597   */\n      swap1\n      pop\n        /* \"#utility.yul\":1296:1604   */\n      swap2\n      swap1\n      pop\n      jump\t// out\n        /* \"#utility.yul\":1610:1756   */\n    tag_32:\n        /* \"#utility.yul\":1707:1713   */\n      dup3\n        /* \"#utility.yul\":1702:1705   */\n      dup2\n        /* \"#utility.yul\":1697:1700   */\n      dup4\n        /* \"#utility.yul\":1684:1714   */\n      calldatacopy\n        /* \"#utility.yul\":1748:1749   */\n      0x00\n        /* \"#utility.yul\":1739:1745   */\n      dup4\n        /* \"#utility.yul\":1734:1737   */\n      dup4\n        /* \"#utility.yul\":1730:1746   */\n      add\n        /* \"#utility.yul\":1723:1750   */\n      mstore\n        /* \"#utility.yul\":1610:1756   */\n      pop\n      pop\n      pop\n      jump\t// out\n        /* \"#utility.yul\":1762:2187   */\n    tag_33:\n        /* \"#utility.yul\":1840:1845   */\n      0x00\n        /* \"#utility.yul\":1865:1931   */\n      tag_64\n        /* \"#utility.yul\":1881:1930   */\n      tag_65\n        /* \"#utility.yul\":1923:1929   */\n      dup5\n        /* \"#utility.yul\":1881:1930   */\n      tag_31\n      jump\t// in\n    tag_65:\n        /* \"#utility.yul\":1865:1931   */\n      tag_30\n      jump\t// in\n    tag_64:\n        /* \"#utility.yul\":1856:1931   */\n      swap1\n      pop\n        /* \"#utility.yul\":1954:1960   */\n      dup3\n        /* \"#utility.yul\":1947:1952   */\n      dup2\n        /* \"#utility.yul\":1940:1961   */\n      mstore\n        /* \"#utility.yul\":1992:1996   */\n      0x20\n        /* \"#utility.yul\":1985:1990   */\n      dup2\n        /* \"#utility.yul\":1981:1997   */\n      add\n        /* \"#utility.yul\":2030:2033   */\n      dup5\n        /* \"#utility.yul\":2021:2027   */\n      dup5\n        /* \"#utility.yul\":2016:2019   */\n      dup5\n        /* \"#utility.yul\":2012:2028   */\n      add\n        /* \"#utility.yul\":2009:2034   */\n      gt\n        /* \"#utility.yul\":2006:2118   */\n      iszero\n      tag_66\n      jumpi\n        /* \"#utility.yul\":2037:2116   */\n      tag_67\n      tag_26\n      jump\t// in\n    tag_67:\n        /* \"#utility.yul\":2006:2118   */\n    tag_66:\n        /* \"#utility.yul\":2127:2181   */\n      tag_68\n        /* \"#utility.yul\":2174:2180   */\n      dup5\n        /* \"#utility.yul\":2169:2172   */\n      dup3\n        /* \"#utility.yul\":2164:2167   */\n      dup6\n        /* \"#utility.yul\":2127:2181   */\n      tag_32\n      jump\t// in\n    tag_68:\n        /* \"#utility.yul\":1846:2187   */\n      pop\n        /* \"#utility.yul\":1762:2187   */\n      swap4\n      swap3\n      pop\n      pop\n      pop\n      jump\t// out\n        /* \"#utility.yul\":2207:2547   */\n    tag_34:\n        /* \"#utility.yul\":2263:2268   */\n      0x00\n        /* \"#utility.yul\":2312:2315   */\n      dup3\n        /* \"#utility.yul\":2305:2309   */\n      0x1f\n        /* \"#utility.yul\":2297:2303   */\n      dup4\n        /* \"#utility.yul\":2293:2310   */\n      add\n        /* \"#utility.yul\":2289:2316   */\n      slt\n        /* \"#utility.yul\":2279:2401   */\n      tag_70\n      jumpi\n        /* \"#utility.yul\":2320:2399   */\n      tag_71\n      tag_25\n      jump\t// in\n    tag_71:\n        /* \"#utility.yul\":2279:2401   */\n    tag_70:\n        /* \"#utility.yul\":2437:2443   */\n      dup2\n        /* \"#utility.yul\":2424:2444   */\n      calldataload\n        /* \"#utility.yul\":2462:2541   */\n      tag_72\n        /* \"#utility.yul\":2537:2540   */\n      dup5\n        /* \"#utility.yul\":2529:2535   */\n      dup3\n        /* \"#utility.yul\":2522:2526   */\n      0x20\n        /* \"#utility.yul\":2514:2520   */\n      dup7\n        /* \"#utility.yul\":2510:2527   */\n      add\n        /* \"#utility.yul\":2462:2541   */\n      tag_33\n      jump\t// in\n    tag_72:\n        /* \"#utility.yul\":2453:2541   */\n      swap2\n      pop\n        /* \"#utility.yul\":2269:2547   */\n      pop\n        /* \"#utility.yul\":2207:2547   */\n      swap3\n      swap2\n      pop\n      pop\n      jump\t// out\n        /* \"#utility.yul\":2553:3387   */\n    tag_7:\n        /* \"#utility.yul\":2641:2647   */\n      0x00\n        /* \"#utility.yul\":2649:2655   */\n      dup1\n        /* \"#utility.yul\":2698:2700   */\n      0x40\n        /* \"#utility.yul\":2686:2695   */\n      dup4\n        /* \"#utility.yul\":2677:2684   */\n      dup6\n        /* \"#utility.yul\":2673:2696   */\n      sub\n        /* \"#utility.yul\":2669:2701   */\n      slt\n        /* \"#utility.yul\":2666:2785   */\n      iszero\n      tag_74\n      jumpi\n        /* \"#utility.yul\":2704:2783   */\n      tag_75\n      tag_23\n      jump\t// in\n    tag_75:\n        /* \"#utility.yul\":2666:2785   */\n    tag_74:\n        /* \"#utility.yul\":2852:2853   */\n      0x00\n        /* \"#utility.yul\":2841:2850   */\n      dup4\n        /* \"#utility.yul\":2837:2854   */\n      add\n        /* \"#utility.yul\":2824:2855   */\n      calldataload\n        /* \"#utility.yul\":2882:2900   */\n      0xffffffffffffffff\n        /* \"#utility.yul\":2874:2880   */\n      dup2\n        /* \"#utility.yul\":2871:2901   */\n      gt\n        /* \"#utility.yul\":2868:2985   */\n      iszero\n      tag_76\n      jumpi\n        /* \"#utility.yul\":2904:2983   */\n      tag_77\n      tag_24\n      jump\t// in\n    tag_77:\n        /* \"#utility.yul\":2868:2985   */\n    tag_76:\n        /* \"#utility.yul\":3009:3072   */\n      tag_78\n        /* \"#utility.yul\":3064:3071   */\n      dup6\n        /* \"#utility.yul\":3055:3061   */\n      dup3\n        /* \"#utility.yul\":3044:3053   */\n      dup7\n        /* \"#utility.yul\":3040:3062   */\n      add\n        /* \"#utility.yul\":3009:3072   */\n      tag_34\n      jump\t// in\n    tag_78:\n        /* \"#utility.yul\":2999:3072   */\n      swap3\n      pop\n        /* \"#utility.yul\":2795:3082   */\n      pop\n        /* \"#utility.yul\":3149:3151   */\n      0x20\n        /* \"#utility.yul\":3138:3147   */\n      dup4\n        /* \"#utility.yul\":3134:3152   */\n      add\n        /* \"#utility.yul\":3121:3153   */\n      calldataload\n        /* \"#utility.yul\":3180:3198   */\n      0xffffffffffffffff\n        /* \"#utility.yul\":3172:3178   */\n      dup2\n        /* \"#utility.yul\":3169:3199   */\n      gt\n        /* \"#utility.yul\":3166:3283   */\n      iszero\n      tag_79\n      jumpi\n        /* \"#utility.yul\":3202:3281   */\n      tag_80\n      tag_24\n      jump\t// in\n    tag_80:\n        /* \"#utility.yul\":3166:3283   */\n    tag_79:\n        /* \"#utility.yul\":3307:3370   */\n      tag_81\n        /* \"#utility.yul\":3362:3369   */\n      dup6\n        /* \"#utility.yul\":3353:3359   */\n      dup3\n        /* \"#utility.yul\":3342:3351   */\n      dup7\n        /* \"#utility.yul\":3338:3360   */\n      add\n        /* \"#utility.yul\":3307:3370   */\n      tag_34\n      jump\t// in\n    tag_81:\n        /* \"#utility.yul\":3297:3370   */\n      swap2\n      pop\n        /* \"#utility.yul\":3092:3380   */\n      pop\n        /* \"#utility.yul\":2553:3387   */\n      swap3\n      pop\n      swap3\n      swap1\n      pop\n      jump\t// out\n        /* \"#utility.yul\":3393:3470   */\n    tag_35:\n        /* \"#utility.yul\":3430:3437   */\n      0x00\n        /* \"#utility.yul\":3459:3464   */\n      dup2\n        /* \"#utility.yul\":3448:3464   */\n      swap1\n      pop\n        /* \"#utility.yul\":3393:3470   */\n      swap2\n      swap1\n      pop\n      jump\t// out\n        /* \"#utility.yul\":3476:3594   */\n    tag_36:\n        /* \"#utility.yul\":3563:3587   */\n      tag_84\n        /* \"#utility.yul\":3581:3586   */\n      dup2\n        /* \"#utility.yul\":3563:3587   */\n      tag_35\n      jump\t// in\n    tag_84:\n        /* \"#utility.yul\":3558:3561   */\n      dup3\n        /* \"#utility.yul\":3551:3588   */\n      mstore\n        /* \"#utility.yul\":3476:3594   */\n      pop\n      pop\n      jump\t// out\n        /* \"#utility.yul\":3600:3822   */\n    tag_10:\n        /* \"#utility.yul\":3693:3697   */\n      0x00\n        /* \"#utility.yul\":3731:3733   */\n      0x20\n        /* \"#utility.yul\":3720:3729   */\n      dup3\n        /* \"#utility.yul\":3716:3734   */\n      add\n        /* \"#utility.yul\":3708:3734   */\n      swap1\n      pop\n        /* \"#utility.yul\":3744:3815   */\n      tag_86\n        /* \"#utility.yul\":3812:3813   */\n      0x00\n        /* \"#utility.yul\":3801:3810   */\n      dup4\n        /* \"#utility.yul\":3797:3814   */\n      add\n        /* \"#utility.yul\":3788:3794   */\n      dup5\n        /* \"#utility.yul\":3744:3815   */\n      tag_36\n      jump\t// in\n    tag_86:\n        /* \"#utility.yul\":3600:3822   */\n      swap3\n      swap2\n      pop\n      pop\n      jump\t// out\n        /* \"#utility.yul\":3828:3950   */\n    tag_37:\n        /* \"#utility.yul\":3901:3925   */\n      tag_88\n        /* \"#utility.yul\":3919:3924   */\n      dup2\n        /* \"#utility.yul\":3901:3925   */\n      tag_35\n      jump\t// in\n    tag_88:\n        /* \"#utility.yul\":3894:3899   */\n      dup2\n        /* \"#utility.yul\":3891:3926   */\n      eq\n        /* \"#utility.yul\":3881:3944   */\n      tag_89\n      jumpi\n        /* \"#utility.yul\":3940:3941   */\n      0x00\n        /* \"#utility.yul\":3937:3938   */\n      dup1\n        /* \"#utility.yul\":3930:3942   */\n      revert\n        /* \"#utility.yul\":3881:3944   */\n    tag_89:\n        /* \"#utility.yul\":3828:3950   */\n      pop\n      jump\t// out\n        /* \"#utility.yul\":3956:4095   */\n    tag_38:\n        /* \"#utility.yul\":4002:4007   */\n      0x00\n        /* \"#utility.yul\":4040:4046   */\n      dup2\n        /* \"#utility.yul\":4027:4047   */\n      calldataload\n        /* \"#utility.yul\":4018:4047   */\n      swap1\n      pop\n        /* \"#utility.yul\":4056:4089   */\n      tag_91\n        /* \"#utility.yul\":4083:4088   */\n      dup2\n        /* \"#utility.yul\":4056:4089   */\n      tag_37\n      jump\t// in\n    tag_91:\n        /* \"#utility.yul\":3956:4095   */\n      swap3\n      swap2\n      pop\n      pop\n      jump\t// out\n        /* \"#utility.yul\":4101:5080   */\n    tag_13:\n        /* \"#utility.yul\":4198:4204   */\n      0x00\n        /* \"#utility.yul\":4206:4212   */\n      dup1\n        /* \"#utility.yul\":4214:4220   */\n      0x00\n        /* \"#utility.yul\":4263:4265   */\n      0x60\n        /* \"#utility.yul\":4251:4260   */\n      dup5\n        /* \"#utility.yul\":4242:4249   */\n      dup7\n        /* \"#utility.yul\":4238:4261   */\n      sub\n        /* \"#utility.yul\":4234:4266   */\n      slt\n        /* \"#utility.yul\":4231:4350   */\n      iszero\n      tag_93\n      jumpi\n        /* \"#utility.yul\":4269:4348   */\n      tag_94\n      tag_23\n      jump\t// in\n    tag_94:\n        /* \"#utility.yul\":4231:4350   */\n    tag_93:\n        /* \"#utility.yul\":4417:4418   */\n      0x00\n        /* \"#utility.yul\":4406:4415   */\n      dup5\n        /* \"#utility.yul\":4402:4419   */\n      add\n        /* \"#utility.yul\":4389:4420   */\n      calldataload\n        /* \"#utility.yul\":4447:4465   */\n      0xffffffffffffffff\n        /* \"#utility.yul\":4439:4445   */\n      dup2\n        /* \"#utility.yul\":4436:4466   */\n      gt\n        /* \"#utility.yul\":4433:4550   */\n      iszero\n      tag_95\n      jumpi\n        /* \"#utility.yul\":4469:4548   */\n      tag_96\n      tag_24\n      jump\t// in\n    tag_96:\n        /* \"#utility.yul\":4433:4550   */\n    tag_95:\n        /* \"#utility.yul\":4574:4637   */\n      tag_97\n        /* \"#utility.yul\":4629:4636   */\n      dup7\n        /* \"#utility.yul\":4620:4626   */\n      dup3\n        /* \"#utility.yul\":4609:4618   */\n      dup8\n        /* \"#utility.yul\":4605:4627   */\n      add\n        /* \"#utility.yul\":4574:4637   */\n      tag_34\n      jump\t// in\n    tag_97:\n        /* \"#utility.yul\":4564:4637   */\n      swap4\n      pop\n        /* \"#utility.yul\":4360:4647   */\n      pop\n        /* \"#utility.yul\":4714:4716   */\n      0x20\n        /* \"#utility.yul\":4703:4712   */\n      dup5\n        /* \"#utility.yul\":4699:4717   */\n      add\n        /* \"#utility.yul\":4686:4718   */\n      calldataload\n        /* \"#utility.yul\":4745:4763   */\n      0xffffffffffffffff\n        /* \"#utility.yul\":4737:4743   */\n      dup2\n        /* \"#utility.yul\":4734:4764   */\n      gt\n        /* \"#utility.yul\":4731:4848   */\n      iszero\n      tag_98\n      jumpi\n        /* \"#utility.yul\":4767:4846   */\n      tag_99\n      tag_24\n      jump\t// in\n    tag_99:\n        /* \"#utility.yul\":4731:4848   */\n    tag_98:\n        /* \"#utility.yul\":4872:4935   */\n      tag_100\n        /* \"#utility.yul\":4927:4934   */\n      dup7\n        /* \"#utility.yul\":4918:4924   */\n      dup3\n        /* \"#utility.yul\":4907:4916   */\n      dup8\n        /* \"#utility.yul\":4903:4925   */\n      add\n        /* \"#utility.yul\":4872:4935   */\n      tag_34\n      jump\t// in\n    tag_100:\n        /* \"#utility.yul\":4862:4935   */\n      swap3\n      pop\n        /* \"#utility.yul\":4657:4945   */\n      pop\n        /* \"#utility.yul\":4984:4986   */\n      0x40\n        /* \"#utility.yul\":5010:5063   */\n      tag_101\n        /* \"#utility.yul\":5055:5062   */\n      dup7\n        /* \"#utility.yul\":5046:5052   */\n      dup3\n        /* \"#utility.yul\":5035:5044   */\n      dup8\n        /* \"#utility.yul\":5031:5053   */\n      add\n        /* \"#utility.yul\":5010:5063   */\n      tag_38\n      jump\t// in\n    tag_101:\n        /* \"#utility.yul\":5000:5063   */\n      swap2\n      pop\n        /* \"#utility.yul\":4955:5073   */\n      pop\n        /* \"#utility.yul\":4101:5080   */\n      swap3\n      pop\n      swap3\n      pop\n      swap3\n      jump\t// out\n        /* \"#utility.yul\":5086:5185   */\n    tag_39:\n        /* \"#utility.yul\":5138:5144   */\n      0x00\n        /* \"#utility.yul\":5172:5177   */\n      dup2\n        /* \"#utility.yul\":5166:5178   */\n      mload\n        /* \"#utility.yul\":5156:5178   */\n      swap1\n      pop\n        /* \"#utility.yul\":5086:5185   */\n      swap2\n      swap1\n      pop\n      jump\t// out\n        /* \"#utility.yul\":5191:5339   */\n    tag_40:\n        /* \"#utility.yul\":5293:5304   */\n      0x00\n        /* \"#utility.yul\":5330:5333   */\n      dup2\n        /* \"#utility.yul\":5315:5333   */\n      swap1\n      pop\n        /* \"#utility.yul\":5191:5339   */\n      swap3\n      swap2\n      pop\n      pop\n      jump\t// out\n        /* \"#utility.yul\":5345:5591   */\n    tag_41:\n        /* \"#utility.yul\":5426:5427   */\n      0x00\n        /* \"#utility.yul\":5436:5549   */\n    tag_105:\n        /* \"#utility.yul\":5450:5456   */\n      dup4\n        /* \"#utility.yul\":5447:5448   */\n      dup2\n        /* \"#utility.yul\":5444:5457   */\n      lt\n        /* \"#utility.yul\":5436:5549   */\n      iszero\n      tag_107\n      jumpi\n        /* \"#utility.yul\":5535:5536   */\n      dup1\n        /* \"#utility.yul\":5530:5533   */\n      dup3\n        /* \"#utility.yul\":5526:5537   */\n      add\n        /* \"#utility.yul\":5520:5538   */\n      mload\n        /* \"#utility.yul\":5516:5517   */\n      dup2\n        /* \"#utility.yul\":5511:5514   */\n      dup5\n        /* \"#utility.yul\":5507:5518   */\n      add\n        /* \"#utility.yul\":5500:5539   */\n      mstore\n        /* \"#utility.yul\":5472:5474   */\n      0x20\n        /* \"#utility.yul\":5469:5470   */\n      dup2\n        /* \"#utility.yul\":5465:5475   */\n      add\n        /* \"#utility.yul\":5460:5475   */\n      swap1\n      pop\n        /* \"#utility.yul\":5436:5549   */\n      jump(tag_105)\n    tag_107:\n        /* \"#utility.yul\":5583:5584   */\n      0x00\n        /* \"#utility.yul\":5574:5580   */\n      dup5\n        /* \"#utility.yul\":5569:5572   */\n      dup5\n        /* \"#utility.yul\":5565:5581   */\n      add\n        /* \"#utility.yul\":5558:5585   */\n      mstore\n        /* \"#utility.yul\":5407:5591   */\n      pop\n        /* \"#utility.yul\":5345:5591   */\n      pop\n      pop\n      pop\n      jump\t// out\n        /* \"#utility.yul\":5597:5987   */\n    tag_42:\n        /* \"#utility.yul\":5703:5706   */\n      0x00\n        /* \"#utility.yul\":5731:5770   */\n      tag_109\n        /* \"#utility.yul\":5764:5769   */\n      dup3\n        /* \"#utility.yul\":5731:5770   */\n      tag_39\n      jump\t// in\n    tag_109:\n        /* \"#utility.yul\":5786:5875   */\n      tag_110\n        /* \"#utility.yul\":5868:5874   */\n      dup2\n        /* \"#utility.yul\":5863:5866   */\n      dup6\n        /* \"#utility.yul\":5786:5875   */\n      tag_40\n      jump\t// in\n    tag_110:\n        /* \"#utility.yul\":5779:5875   */\n      swap4\n      pop\n        /* \"#utility.yul\":5884:5949   */\n      tag_111\n        /* \"#utility.yul\":5942:5948   */\n      dup2\n        /* \"#utility.yul\":5937:5940   */\n      dup6\n        /* \"#utility.yul\":5930:5934   */\n      0x20\n        /* \"#utility.yul\":5923:5928   */\n      dup7\n        /* \"#utility.yul\":5919:5935   */\n      add\n        /* \"#utility.yul\":5884:5949   */\n      tag_41\n      jump\t// in\n    tag_111:\n        /* \"#utility.yul\":5974:5980   */\n      dup1\n        /* \"#utility.yul\":5969:5972   */\n      dup5\n        /* \"#utility.yul\":5965:5981   */\n      add\n        /* \"#utility.yul\":5958:5981   */\n      swap2\n      pop\n        /* \"#utility.yul\":5707:5987   */\n      pop\n        /* \"#utility.yul\":5597:5987   */\n      swap3\n      swap2\n      pop\n      pop\n      jump\t// out\n        /* \"#utility.yul\":5993:6268   */\n    tag_17:\n        /* \"#utility.yul\":6125:6128   */\n      0x00\n        /* \"#utility.yul\":6147:6242   */\n      tag_113\n        /* \"#utility.yul\":6238:6241   */\n      dup3\n        /* \"#utility.yul\":6229:6235   */\n      dup5\n        /* \"#utility.yul\":6147:6242   */\n      tag_42\n      jump\t// in\n    tag_113:\n        /* \"#utility.yul\":6140:6242   */\n      swap2\n      pop\n        /* \"#utility.yul\":6259:6262   */\n      dup2\n        /* \"#utility.yul\":6252:6262   */\n      swap1\n      pop\n        /* \"#utility.yul\":5993:6268   */\n      swap3\n      swap2\n      pop\n      pop\n      jump\t// out\n\n    auxdata: 0xa2646970667358221220c0f1c4e0f82b7ebd4dc206160d2697a1d8f049b61211e7259e710595cb4a1b8664736f6c63430008120033\n}\n",
				"bytecode": {
					"linkReferences": {},
					"object": "608060405234801561001057600080fd5b5061048a806100206000396000f3fe608060405234801561001057600080fd5b50600436106100365760003560e01c80634cae0eb41461003b578063f96535761461006b575b600080fd5b61005560048036038101906100509190610269565b610087565b60405161006291906102fa565b60405180910390f35b61008560048036038101906100809190610341565b6100cb565b005b60008083604051610098919061043d565b9081526020016040518091039020826040516100b4919061043d565b908152602001604051809103902054905092915050565b806000846040516100dc919061043d565b9081526020016040518091039020836040516100f8919061043d565b908152602001604051809103902081905550505050565b6000604051905090565b600080fd5b600080fd5b600080fd5b600080fd5b6000601f19601f8301169050919050565b7f4e487b7100000000000000000000000000000000000000000000000000000000600052604160045260246000fd5b6101768261012d565b810181811067ffffffffffffffff821117156101955761019461013e565b5b80604052505050565b60006101a861010f565b90506101b4828261016d565b919050565b600067ffffffffffffffff8211156101d4576101d361013e565b5b6101dd8261012d565b9050602081019050919050565b82818337600083830152505050565b600061020c610207846101b9565b61019e565b90508281526020810184848401111561022857610227610128565b5b6102338482856101ea565b509392505050565b600082601f8301126102505761024f610123565b5b81356102608482602086016101f9565b91505092915050565b600080604083850312156102805761027f610119565b5b600083013567ffffffffffffffff81111561029e5761029d61011e565b5b6102aa8582860161023b565b925050602083013567ffffffffffffffff8111156102cb576102ca61011e565b5b6102d78582860161023b565b9150509250929050565b6000819050919050565b6102f4816102e1565b82525050565b600060208201905061030f60008301846102eb565b92915050565b61031e816102e1565b811461032957600080fd5b50565b60008135905061033b81610315565b92915050565b60008060006060848603121561035a57610359610119565b5b600084013567ffffffffffffffff8111156103785761037761011e565b5b6103848682870161023b565b935050602084013567ffffffffffffffff8111156103a5576103a461011e565b5b6103b18682870161023b565b92505060406103c28682870161032c565b9150509250925092565b600081519050919050565b600081905092915050565b60005b838110156104005780820151818401526020810190506103e5565b60008484015250505050565b6000610417826103cc565b61042181856103d7565b93506104318185602086016103e2565b80840191505092915050565b6000610449828461040c565b91508190509291505056fea2646970667358221220c0f1c4e0f82b7ebd4dc206160d2697a1d8f049b61211e7259e710595cb4a1b8664736f6c63430008120033",
					"opcodes": "PUSH1 0x80 PUSH1 0x40 MSTORE CALLVALUE DUP1 ISZERO PUSH2 0x10 JUMPI PUSH1 0x0 DUP1 REVERT JUMPDEST POP PUSH2 0x48A DUP1 PUSH2 0x20 PUSH1 0x0 CODECOPY PUSH1 0x0 RETURN INVALID PUSH1 0x80 PUSH1 0x40 MSTORE CALLVALUE DUP1 ISZERO PUSH2 0x10 JUMPI PUSH1 0x0 DUP1 REVERT JUMPDEST POP PUSH1 0x4 CALLDATASIZE LT PUSH2 0x36 JUMPI PUSH1 0x0 CALLDATALOAD PUSH1 0xE0 SHR DUP1 PUSH4 0x4CAE0EB4 EQ PUSH2 0x3B JUMPI DUP1 PUSH4 0xF9653576 EQ PUSH2 0x6B JUMPI JUMPDEST PUSH1 0x0 DUP1 REVERT JUMPDEST PUSH2 0x55 PUSH1 0x4 DUP1 CALLDATASIZE SUB DUP2 ADD SWAP1 PUSH2 0x50 SWAP2 SWAP1 PUSH2 0x269 JUMP JUMPDEST PUSH2 0x87 JUMP JUMPDEST PUSH1 0x40 MLOAD PUSH2 0x62 SWAP2 SWAP1 PUSH2 0x2FA JUMP JUMPDEST PUSH1 0x40 MLOAD DUP1 SWAP2 SUB SWAP1 RETURN JUMPDEST PUSH2 0x85 PUSH1 0x4 DUP1 CALLDATASIZE SUB DUP2 ADD SWAP1 PUSH2 0x80 SWAP2 SWAP1 PUSH2 0x341 JUMP JUMPDEST PUSH2 0xCB JUMP JUMPDEST STOP JUMPDEST PUSH1 0x0 DUP1 DUP4 PUSH1 0x40 MLOAD PUSH2 0x98 SWAP2 SWAP1 PUSH2 0x43D JUMP JUMPDEST SWAP1 DUP2 MSTORE PUSH1 0x20 ADD PUSH1 0x40 MLOAD DUP1 SWAP2 SUB SWAP1 KECCAK256 DUP3 PUSH1 0x40 MLOAD PUSH2 0xB4 SWAP2 SWAP1 PUSH2 0x43D JUMP JUMPDEST SWAP1 DUP2 MSTORE PUSH1 0x20 ADD PUSH1 0x40 MLOAD DUP1 SWAP2 SUB SWAP1 KECCAK256 SLOAD SWAP1 POP SWAP3 SWAP2 POP POP JUMP JUMPDEST DUP1 PUSH1 0x0 DUP5 PUSH1 0x40 MLOAD PUSH2 0xDC SWAP2 SWAP1 PUSH2 0x43D JUMP JUMPDEST SWAP1 DUP2 MSTORE PUSH1 0x20 ADD PUSH1 0x40 MLOAD DUP1 SWAP2 SUB SWAP1 KECCAK256 DUP4 PUSH1 0x40 MLOAD PUSH2 0xF8 SWAP2 SWAP1 PUSH2 0x43D JUMP JUMPDEST SWAP1 DUP2 MSTORE PUSH1 0x20 ADD PUSH1 0x40 MLOAD DUP1 SWAP2 SUB SWAP1 KECCAK256 DUP2 SWAP1 SSTORE POP POP POP POP JUMP JUMPDEST PUSH1 0x0 PUSH1 0x40 MLOAD SWAP1 POP SWAP1 JUMP JUMPDEST PUSH1 0x0 DUP1 REVERT JUMPDEST PUSH1 0x0 DUP1 REVERT JUMPDEST PUSH1 0x0 DUP1 REVERT JUMPDEST PUSH1 0x0 DUP1 REVERT JUMPDEST PUSH1 0x0 PUSH1 0x1F NOT PUSH1 0x1F DUP4 ADD AND SWAP1 POP SWAP2 SWAP1 POP JUMP JUMPDEST PUSH32 0x4E487B7100000000000000000000000000000000000000000000000000000000 PUSH1 0x0 MSTORE PUSH1 0x41 PUSH1 0x4 MSTORE PUSH1 0x24 PUSH1 0x0 REVERT JUMPDEST PUSH2 0x176 DUP3 PUSH2 0x12D JUMP JUMPDEST DUP2 ADD DUP2 DUP2 LT PUSH8 0xFFFFFFFFFFFFFFFF DUP3 GT OR ISZERO PUSH2 0x195 JUMPI PUSH2 0x194 PUSH2 0x13E JUMP JUMPDEST JUMPDEST DUP1 PUSH1 0x40 MSTORE POP POP POP JUMP JUMPDEST PUSH1 0x0 PUSH2 0x1A8 PUSH2 0x10F JUMP JUMPDEST SWAP1 POP PUSH2 0x1B4 DUP3 DUP3 PUSH2 0x16D JUMP JUMPDEST SWAP2 SWAP1 POP JUMP JUMPDEST PUSH1 0x0 PUSH8 0xFFFFFFFFFFFFFFFF DUP3 GT ISZERO PUSH2 0x1D4 JUMPI PUSH2 0x1D3 PUSH2 0x13E JUMP JUMPDEST JUMPDEST PUSH2 0x1DD DUP3 PUSH2 0x12D JUMP JUMPDEST SWAP1 POP PUSH1 0x20 DUP2 ADD SWAP1 POP SWAP2 SWAP1 POP JUMP JUMPDEST DUP3 DUP2 DUP4 CALLDATACOPY PUSH1 0x0 DUP4 DUP4 ADD MSTORE POP POP POP JUMP JUMPDEST PUSH1 0x0 PUSH2 0x20C PUSH2 0x207 DUP5 PUSH2 0x1B9 JUMP JUMPDEST PUSH2 0x19E JUMP JUMPDEST SWAP1 POP DUP3 DUP2 MSTORE PUSH1 0x20 DUP2 ADD DUP5 DUP5 DUP5 ADD GT ISZERO PUSH2 0x228 JUMPI PUSH2 0x227 PUSH2 0x128 JUMP JUMPDEST JUMPDEST PUSH2 0x233 DUP5 DUP3 DUP6 PUSH2 0x1EA JUMP JUMPDEST POP SWAP4 SWAP3 POP POP POP JUMP JUMPDEST PUSH1 0x0 DUP3 PUSH1 0x1F DUP4 ADD SLT PUSH2 0x250 JUMPI PUSH2 0x24F PUSH2 0x123 JUMP JUMPDEST JUMPDEST DUP2 CALLDATALOAD PUSH2 0x260 DUP5 DUP3 PUSH1 0x20 DUP7 ADD PUSH2 0x1F9 JUMP JUMPDEST SWAP2 POP POP SWAP3 SWAP2 POP POP JUMP JUMPDEST PUSH1 0x0 DUP1 PUSH1 0x40 DUP4 DUP6 SUB SLT ISZERO PUSH2 0x280 JUMPI PUSH2 0x27F PUSH2 0x119 JUMP JUMPDEST JUMPDEST PUSH1 0x0 DUP4 ADD CALLDATALOAD PUSH8 0xFFFFFFFFFFFFFFFF DUP2 GT ISZERO PUSH2 0x29E JUMPI PUSH2 0x29D PUSH2 0x11E JUMP JUMPDEST JUMPDEST PUSH2 0x2AA DUP6 DUP3 DUP7 ADD PUSH2 0x23B JUMP JUMPDEST SWAP3 POP POP PUSH1 0x20 DUP4 ADD CALLDATALOAD PUSH8 0xFFFFFFFFFFFFFFFF DUP2 GT ISZERO PUSH2 0x2CB JUMPI PUSH2 0x2CA PUSH2 0x11E JUMP JUMPDEST JUMPDEST PUSH2 0x2D7 DUP6 DUP3 DUP7 ADD PUSH2 0x23B JUMP JUMPDEST SWAP2 POP POP SWAP3 POP SWAP3 SWAP1 POP JUMP JUMPDEST PUSH1 0x0 DUP2 SWAP1 POP SWAP2 SWAP1 POP JUMP JUMPDEST PUSH2 0x2F4 DUP2 PUSH2 0x2E1 JUMP JUMPDEST DUP3 MSTORE POP POP JUMP JUMPDEST PUSH1 0x0 PUSH1 0x20 DUP3 ADD SWAP1 POP PUSH2 0x30F PUSH1 0x0 DUP4 ADD DUP5 PUSH2 0x2EB JUMP JUMPDEST SWAP3 SWAP2 POP POP JUMP JUMPDEST PUSH2 0x31E DUP2 PUSH2 0x2E1 JUMP JUMPDEST DUP2 EQ PUSH2 0x329 JUMPI PUSH1 0x0 DUP1 REVERT JUMPDEST POP JUMP JUMPDEST PUSH1 0x0 DUP2 CALLDATALOAD SWAP1 POP PUSH2 0x33B DUP2 PUSH2 0x315 JUMP JUMPDEST SWAP3 SWAP2 POP POP JUMP JUMPDEST PUSH1 0x0 DUP1 PUSH1 0x0 PUSH1 0x60 DUP5 DUP7 SUB SLT ISZERO PUSH2 0x35A JUMPI PUSH2 0x359 PUSH2 0x119 JUMP JUMPDEST JUMPDEST PUSH1 0x0 DUP5 ADD CALLDATALOAD PUSH8 0xFFFFFFFFFFFFFFFF DUP2 GT ISZERO PUSH2 0x378 JUMPI PUSH2 0x377 PUSH2 0x11E JUMP JUMPDEST JUMPDEST PUSH2 0x384 DUP7 DUP3 DUP8 ADD PUSH2 0x23B JUMP JUMPDEST SWAP4 POP POP PUSH1 0x20 DUP5 ADD CALLDATALOAD PUSH8 0xFFFFFFFFFFFFFFFF DUP2 GT ISZERO PUSH2 0x3A5 JUMPI PUSH2 0x3A4 PUSH2 0x11E JUMP JUMPDEST JUMPDEST PUSH2 0x3B1 DUP7 DUP3 DUP8 ADD PUSH2 0x23B JUMP JUMPDEST SWAP3 POP POP PUSH1 0x40 PUSH2 0x3C2 DUP7 DUP3 DUP8 ADD PUSH2 0x32C JUMP JUMPDEST SWAP2 POP POP SWAP3 POP SWAP3 POP SWAP3 JUMP JUMPDEST PUSH1 0x0 DUP2 MLOAD SWAP1 POP SWAP2 SWAP1 POP JUMP JUMPDEST PUSH1 0x0 DUP2 SWAP1 POP SWAP3 SWAP2 POP POP JUMP JUMPDEST PUSH1 0x0 JUMPDEST DUP4 DUP2 LT ISZERO PUSH2 0x400 JUMPI DUP1 DUP3 ADD MLOAD DUP2 DUP5 ADD MSTORE PUSH1 0x20 DUP2 ADD SWAP1 POP PUSH2 0x3E5 JUMP JUMPDEST PUSH1 0x0 DUP5 DUP5 ADD MSTORE POP POP POP POP JUMP JUMPDEST PUSH1 0x0 PUSH2 0x417 DUP3 PUSH2 0x3CC JUMP JUMPDEST PUSH2 0x421 DUP2 DUP6 PUSH2 0x3D7 JUMP JUMPDEST SWAP4 POP PUSH2 0x431 DUP2 DUP6 PUSH1 0x20 DUP7 ADD PUSH2 0x3E2 JUMP JUMPDEST DUP1 DUP5 ADD SWAP2 POP POP SWAP3 SWAP2 POP POP JUMP JUMPDEST PUSH1 0x0 PUSH2 0x449 DUP3 DUP5 PUSH2 0x40C JUMP JUMPDEST SWAP2 POP DUP2 SWAP1 POP SWAP3 SWAP2 POP POP JUMP INVALID LOG2 PUSH5 0x6970667358 0x22 SLT KECCAK256 0xC0 CALL 0xC4 0xE0 0xF8 0x2B PUSH31 0xBD4DC206160D2697A1D8F049B61211E7259E710595CB4A1B8664736F6C6343 STOP ADDMOD SLT STOP CALLER "
				},
				"gasEstimates": {
					"creation": {
						"codeDepositCost": "232400",
						"executionCost": "275",
						"totalCost": "232675"
					},
					"external": {
						"getGrade(string,string)": "infinite",
						"setGrade(string,string,uint256)": "infinite"
					}
				},
				"methodIdentifiers": {
					"getGrade(string,string)": "4cae0eb4",
					"setGrade(string,string,uint256)": "f9653576"
				}
			},
			"storageLayout": {
				"storage": [
					{
						"astId": 7,
						"contract": "Oops/nested_mapping.sol:test",
						"label": "grades",
						"offset": 0,
						"slot": "0",
						"type": "t_mapping(t_string_memory_ptr,t_mapping(t_string_memory_ptr,t_uint256))"
					}
				],
				"types": {
					"t_mapping(t_string_memory_ptr,t_mapping(t_string_memory_ptr,t_uint256))": {
						"encoding": "mapping",
						"key": "t_string_memory_ptr",
						"label": "mapping(string => mapping(string => uint256))",
						"numberOfBytes": "32",
						"value": "t_mapping(t_string_memory_ptr,t_uint256)"
					},
					"t_mapping(t_string_memory_ptr,t_uint256)": {
						"encoding": "mapping",
						"key": "t_string_memory_ptr",
						"label": "mapping(string => uint256)",
						"numberOfBytes": "32",
						"value": "t_uint256"
					},
					"t_string_memory_ptr": {
						"encoding": "bytes",
						"label": "string",
						"numberOfBytes": "32"
					},
					"t_uint256": {
						"encoding": "inplace",
						"label": "uint256",
						"numberOfBytes": "32"
					}
				}
			},
			"userdoc": {
				"kind": "user",
				"methods": {},
				"version": 1
			}
		}
	}
}