{
	"Project/banking.sol": {
		"MyContract": {
			"abi": [
				{
					"inputs": [],
					"stateMutability": "nonpayable",
					"type": "constructor"
				},
				{
					"stateMutability": "payable",
					"type": "fallback"
				},
				{
					"inputs": [
						{
							"internalType": "address payable",
							"name": "account",
							"type": "address"
						},
						{
							"internalType": "uint256",
							"name": "amount",
							"type": "uint256"
						},
						{
							"internalType": "uint256",
							"name": "month",
							"type": "uint256"
						},
						{
							"internalType": "string",
							"name": "_input",
							"type": "string"
						}
					],
					"name": "Loan",
					"outputs": [],
					"stateMutability": "payable",
					"type": "function"
				},
				{
					"inputs": [],
					"name": "addFund",
					"outputs": [],
					"stateMutability": "payable",
					"type": "function"
				},
				{
					"inputs": [
						{
							"internalType": "address",
							"name": "account",
							"type": "address"
						}
					],
					"name": "carLoanDetails",
					"outputs": [
						{
							"internalType": "uint256",
							"name": "",
							"type": "uint256"
						},
						{
							"internalType": "uint256",
							"name": "",
							"type": "uint256"
						},
						{
							"internalType": "uint256",
							"name": "",
							"type": "uint256"
						}
					],
					"stateMutability": "view",
					"type": "function"
				},
				{
					"inputs": [
						{
							"internalType": "address payable",
							"name": "account",
							"type": "address"
						},
						{
							"internalType": "uint256",
							"name": "amount",
							"type": "uint256"
						}
					],
					"name": "deposit",
					"outputs": [],
					"stateMutability": "payable",
					"type": "function"
				},
				{
					"inputs": [],
					"name": "getContractBalance",
					"outputs": [
						{
							"internalType": "uint256",
							"name": "",
							"type": "uint256"
						}
					],
					"stateMutability": "view",
					"type": "function"
				},
				{
					"inputs": [
						{
							"internalType": "address",
							"name": "account",
							"type": "address"
						}
					],
					"name": "homeLoanDetails",
					"outputs": [
						{
							"internalType": "uint256",
							"name": "",
							"type": "uint256"
						},
						{
							"internalType": "uint256",
							"name": "",
							"type": "uint256"
						},
						{
							"internalType": "uint256",
							"name": "",
							"type": "uint256"
						}
					],
					"stateMutability": "view",
					"type": "function"
				},
				{
					"inputs": [
						{
							"internalType": "address payable",
							"name": "account",
							"type": "address"
						},
						{
							"internalType": "string",
							"name": "_input",
							"type": "string"
						}
					],
					"name": "payEmi",
					"outputs": [],
					"stateMutability": "nonpayable",
					"type": "function"
				},
				{
					"inputs": [
						{
							"internalType": "address",
							"name": "account",
							"type": "address"
						}
					],
					"name": "personalLoanDetails",
					"outputs": [
						{
							"internalType": "uint256",
							"name": "",
							"type": "uint256"
						},
						{
							"internalType": "uint256",
							"name": "",
							"type": "uint256"
						},
						{
							"internalType": "uint256",
							"name": "",
							"type": "uint256"
						}
					],
					"stateMutability": "view",
					"type": "function"
				},
				{
					"inputs": [
						{
							"internalType": "address",
							"name": "",
							"type": "address"
						}
					],
					"name": "users",
					"outputs": [
						{
							"internalType": "address",
							"name": "user_id",
							"type": "address"
						},
						{
							"internalType": "uint256",
							"name": "balance",
							"type": "uint256"
						},
						{
							"internalType": "uint256",
							"name": "timeperiod",
							"type": "uint256"
						},
						{
							"internalType": "uint256",
							"name": "carLoan",
							"type": "uint256"
						},
						{
							"internalType": "uint256",
							"name": "homeLoan",
							"type": "uint256"
						},
						{
							"internalType": "uint256",
							"name": "personalLoan",
							"type": "uint256"
						},
						{
							"internalType": "uint256",
							"name": "carEmi",
							"type": "uint256"
						},
						{
							"internalType": "uint256",
							"name": "homeEmi",
							"type": "uint256"
						},
						{
							"internalType": "uint256",
							"name": "personalLoanEmi",
							"type": "uint256"
						},
						{
							"internalType": "uint256",
							"name": "carLoanTimeperiod",
							"type": "uint256"
						},
						{
							"internalType": "uint256",
							"name": "homeLoanTimeperiod",
							"type": "uint256"
						},
						{
							"internalType": "uint256",
							"name": "personalLoanTimeperiod",
							"type": "uint256"
						}
					],
					"stateMutability": "view",
					"type": "function"
				},
				{
					"inputs": [
						{
							"internalType": "address payable",
							"name": "account",
							"type": "address"
						},
						{
							"internalType": "uint256",
							"name": "amount",
							"type": "uint256"
						}
					],
					"name": "withdraw",
					"outputs": [],
					"stateMutability": "nonpayable",
					"type": "function"
				},
				{
					"stateMutability": "payable",
					"type": "receive"
				}
			],
			"devdoc": {
				"kind": "dev",
				"methods": {},
				"version": 1
			},
			"evm": {
				"assembly": "    /* \"Project/banking.sol\":69:9882  contract MyContract {... */\n  mstore(0x40, 0x80)\n    /* \"Project/banking.sol\":611:660  constructor() {... */\n  callvalue\n  dup1\n  iszero\n  tag_1\n  jumpi\n  0x00\n  dup1\n  revert\ntag_1:\n  pop\n    /* \"Project/banking.sol\":643:653  msg.sender */\n  caller\n    /* \"Project/banking.sol\":635:640  admin */\n  0x00\n  dup1\n    /* \"Project/banking.sol\":635:653  admin = msg.sender */\n  0x0100\n  exp\n  dup2\n  sload\n  dup2\n  0xffffffffffffffffffffffffffffffffffffffff\n  mul\n  not\n  and\n  swap1\n  dup4\n  0xffffffffffffffffffffffffffffffffffffffff\n  and\n  mul\n  or\n  swap1\n  sstore\n  pop\n    /* \"Project/banking.sol\":69:9882  contract MyContract {... */\n  dataSize(sub_0)\n  dup1\n  dataOffset(sub_0)\n  0x00\n  codecopy\n  0x00\n  return\nstop\n\nsub_0: assembly {\n        /* \"Project/banking.sol\":69:9882  contract MyContract {... */\n      mstore(0x40, 0x80)\n      jumpi(tag_1, lt(calldatasize, 0x04))\n      shr(0xe0, calldataload(0x00))\n      dup1\n      0x9283ea63\n      gt\n      tag_13\n      jumpi\n      dup1\n      0x9283ea63\n      eq\n      tag_8\n      jumpi\n      dup1\n      0xa2f09dfa\n      eq\n      tag_9\n      jumpi\n      dup1\n      0xa87430ba\n      eq\n      tag_10\n      jumpi\n      dup1\n      0xd77799a5\n      eq\n      tag_11\n      jumpi\n      dup1\n      0xf3fef3a3\n      eq\n      tag_12\n      jumpi\n      jump(tag_2)\n    tag_13:\n      dup1\n      0x47e7ef24\n      eq\n      tag_3\n      jumpi\n      dup1\n      0x65d6d088\n      eq\n      tag_4\n      jumpi\n      dup1\n      0x6f9fb98a\n      eq\n      tag_5\n      jumpi\n      dup1\n      0x8172aa0a\n      eq\n      tag_6\n      jumpi\n      dup1\n      0x91341de3\n      eq\n      tag_7\n      jumpi\n      jump(tag_2)\n    tag_1:\n      jumpi(tag_2, calldatasize)\n      stop\n    tag_2:\n      stop\n        /* \"Project/banking.sol\":998:1773  function deposit(address payable account, uint256 amount) public payable {... */\n    tag_3:\n      tag_18\n      0x04\n      dup1\n      calldatasize\n      sub\n      dup2\n      add\n      swap1\n      tag_19\n      swap2\n      swap1\n      tag_20\n      jump\t// in\n    tag_19:\n      tag_21\n      jump\t// in\n    tag_18:\n      stop\n        /* \"Project/banking.sol\":8685:9070  function carLoanDetails(address account)... */\n    tag_4:\n      callvalue\n      dup1\n      iszero\n      tag_22\n      jumpi\n      0x00\n      dup1\n      revert\n    tag_22:\n      pop\n      tag_23\n      0x04\n      dup1\n      calldatasize\n      sub\n      dup2\n      add\n      swap1\n      tag_24\n      swap2\n      swap1\n      tag_25\n      jump\t// in\n    tag_24:\n      tag_26\n      jump\t// in\n    tag_23:\n      mload(0x40)\n      tag_27\n      swap4\n      swap3\n      swap2\n      swap1\n      tag_28\n      jump\t// in\n    tag_27:\n      mload(0x40)\n      dup1\n      swap2\n      sub\n      swap1\n      return\n        /* \"Project/banking.sol\":8574:8679  function getContractBalance() public view returns (uint256) {... */\n    tag_5:\n      callvalue\n      dup1\n      iszero\n      tag_29\n      jumpi\n      0x00\n      dup1\n      revert\n    tag_29:\n      pop\n      tag_30\n      tag_31\n      jump\t// in\n    tag_30:\n      mload(0x40)\n      tag_32\n      swap2\n      swap1\n      tag_33\n      jump\t// in\n    tag_32:\n      mload(0x40)\n      dup1\n      swap2\n      sub\n      swap1\n      return\n        /* \"Project/banking.sol\":9471:9880  function personalLoanDetails(address account)... */\n    tag_6:\n      callvalue\n      dup1\n      iszero\n      tag_34\n      jumpi\n      0x00\n      dup1\n      revert\n    tag_34:\n      pop\n      tag_35\n      0x04\n      dup1\n      calldatasize\n      sub\n      dup2\n      add\n      swap1\n      tag_36\n      swap2\n      swap1\n      tag_25\n      jump\t// in\n    tag_36:\n      tag_37\n      jump\t// in\n    tag_35:\n      mload(0x40)\n      tag_38\n      swap4\n      swap3\n      swap2\n      swap1\n      tag_28\n      jump\t// in\n    tag_38:\n      mload(0x40)\n      dup1\n      swap2\n      sub\n      swap1\n      return\n        /* \"Project/banking.sol\":6047:8568  function payEmi(address payable account, string memory _input) public {... */\n    tag_7:\n      callvalue\n      dup1\n      iszero\n      tag_39\n      jumpi\n      0x00\n      dup1\n      revert\n    tag_39:\n      pop\n      tag_40\n      0x04\n      dup1\n      calldatasize\n      sub\n      dup2\n      add\n      swap1\n      tag_41\n      swap2\n      swap1\n      tag_42\n      jump\t// in\n    tag_41:\n      tag_43\n      jump\t// in\n    tag_40:\n      stop\n        /* \"Project/banking.sol\":1779:5151  function Loan(... */\n    tag_8:\n      tag_44\n      0x04\n      dup1\n      calldatasize\n      sub\n      dup2\n      add\n      swap1\n      tag_45\n      swap2\n      swap1\n      tag_46\n      jump\t// in\n    tag_45:\n      tag_47\n      jump\t// in\n    tag_44:\n      stop\n        /* \"Project/banking.sol\":789:948  function addFund() public payable onlyOwner {... */\n    tag_9:\n      tag_48\n      tag_49\n      jump\t// in\n    tag_48:\n      stop\n        /* \"Project/banking.sol\":954:991  mapping(address => user) public users */\n    tag_10:\n      callvalue\n      dup1\n      iszero\n      tag_50\n      jumpi\n      0x00\n      dup1\n      revert\n    tag_50:\n      pop\n      tag_51\n      0x04\n      dup1\n      calldatasize\n      sub\n      dup2\n      add\n      swap1\n      tag_52\n      swap2\n      swap1\n      tag_25\n      jump\t// in\n    tag_52:\n      tag_53\n      jump\t// in\n    tag_51:\n      mload(0x40)\n      tag_54\n      swap13\n      swap12\n      swap11\n      swap10\n      swap9\n      swap8\n      swap7\n      swap6\n      swap5\n      swap4\n      swap3\n      swap2\n      swap1\n      tag_55\n      jump\t// in\n    tag_54:\n      mload(0x40)\n      dup1\n      swap2\n      sub\n      swap1\n      return\n        /* \"Project/banking.sol\":9076:9465  function homeLoanDetails(address account)... */\n    tag_11:\n      callvalue\n      dup1\n      iszero\n      tag_56\n      jumpi\n      0x00\n      dup1\n      revert\n    tag_56:\n      pop\n      tag_57\n      0x04\n      dup1\n      calldatasize\n      sub\n      dup2\n      add\n      swap1\n      tag_58\n      swap2\n      swap1\n      tag_25\n      jump\t// in\n    tag_58:\n      tag_59\n      jump\t// in\n    tag_57:\n      mload(0x40)\n      tag_60\n      swap4\n      swap3\n      swap2\n      swap1\n      tag_28\n      jump\t// in\n    tag_60:\n      mload(0x40)\n      dup1\n      swap2\n      sub\n      swap1\n      return\n        /* \"Project/banking.sol\":5157:6041  function withdraw(address payable account, uint256 amount) public {... */\n    tag_12:\n      callvalue\n      dup1\n      iszero\n      tag_61\n      jumpi\n      0x00\n      dup1\n      revert\n    tag_61:\n      pop\n      tag_62\n      0x04\n      dup1\n      calldatasize\n      sub\n      dup2\n      add\n      swap1\n      tag_63\n      swap2\n      swap1\n      tag_20\n      jump\t// in\n    tag_63:\n      tag_64\n      jump\t// in\n    tag_62:\n      stop\n        /* \"Project/banking.sol\":998:1773  function deposit(address payable account, uint256 amount) public payable {... */\n    tag_21:\n        /* \"Project/banking.sol\":1108:1109  0 */\n      0x00\n        /* \"Project/banking.sol\":1089:1110  account != address(0) */\n      0xffffffffffffffffffffffffffffffffffffffff\n      and\n        /* \"Project/banking.sol\":1089:1096  account */\n      dup3\n        /* \"Project/banking.sol\":1089:1110  account != address(0) */\n      0xffffffffffffffffffffffffffffffffffffffff\n      and\n      sub\n        /* \"Project/banking.sol\":1081:1142  require(account != address(0), \"zero address is not allowed\") */\n      tag_66\n      jumpi\n      mload(0x40)\n      0x08c379a000000000000000000000000000000000000000000000000000000000\n      dup2\n      mstore\n      0x04\n      add\n      tag_67\n      swap1\n      tag_68\n      jump\t// in\n    tag_67:\n      mload(0x40)\n      dup1\n      swap2\n      sub\n      swap1\n      revert\n    tag_66:\n        /* \"Project/banking.sol\":1170:1171  0 */\n      0x00\n        /* \"Project/banking.sol\":1160:1166  amount */\n      dup2\n        /* \"Project/banking.sol\":1160:1171  amount != 0 */\n      sub\n        /* \"Project/banking.sol\":1152:1199  require(amount != 0, \"please send some amount\") */\n      tag_69\n      jumpi\n      mload(0x40)\n      0x08c379a000000000000000000000000000000000000000000000000000000000\n      dup2\n      mstore\n      0x04\n      add\n      tag_70\n      swap1\n      tag_71\n      jump\t// in\n    tag_70:\n      mload(0x40)\n      dup1\n      swap2\n      sub\n      swap1\n      revert\n    tag_69:\n        /* \"Project/banking.sol\":1235:1241  amount */\n      dup1\n        /* \"Project/banking.sol\":1209:1214  users */\n      0x01\n        /* \"Project/banking.sol\":1209:1223  users[account] */\n      0x00\n        /* \"Project/banking.sol\":1215:1222  account */\n      dup5\n        /* \"Project/banking.sol\":1209:1223  users[account] */\n      0xffffffffffffffffffffffffffffffffffffffff\n      and\n      0xffffffffffffffffffffffffffffffffffffffff\n      and\n      dup2\n      mstore\n      0x20\n      add\n      swap1\n      dup2\n      mstore\n      0x20\n      add\n      0x00\n      keccak256\n        /* \"Project/banking.sol\":1209:1231  users[account].balance */\n      0x01\n      add\n      0x00\n        /* \"Project/banking.sol\":1209:1241  users[account].balance += amount */\n      dup3\n      dup3\n      sload\n      tag_72\n      swap2\n      swap1\n      tag_73\n      jump\t// in\n    tag_72:\n      swap3\n      pop\n      pop\n      dup2\n      swap1\n      sstore\n      pop\n        /* \"Project/banking.sol\":1268:1766  user(... */\n      mload(0x40)\n      dup1\n      0x0180\n      add\n      0x40\n      mstore\n      dup1\n        /* \"Project/banking.sol\":1286:1291  users */\n      0x01\n        /* \"Project/banking.sol\":1286:1300  users[account] */\n      0x00\n        /* \"Project/banking.sol\":1292:1299  account */\n      dup6\n        /* \"Project/banking.sol\":1286:1300  users[account] */\n      0xffffffffffffffffffffffffffffffffffffffff\n      and\n      0xffffffffffffffffffffffffffffffffffffffff\n      and\n      dup2\n      mstore\n      0x20\n      add\n      swap1\n      dup2\n      mstore\n      0x20\n      add\n      0x00\n      keccak256\n        /* \"Project/banking.sol\":1286:1308  users[account].user_id */\n      0x00\n      add\n      0x00\n      swap1\n      sload\n      swap1\n      0x0100\n      exp\n      swap1\n      div\n      0xffffffffffffffffffffffffffffffffffffffff\n      and\n        /* \"Project/banking.sol\":1268:1766  user(... */\n      0xffffffffffffffffffffffffffffffffffffffff\n      and\n      dup2\n      mstore\n      0x20\n      add\n        /* \"Project/banking.sol\":1322:1327  users */\n      0x01\n        /* \"Project/banking.sol\":1322:1336  users[account] */\n      0x00\n        /* \"Project/banking.sol\":1328:1335  account */\n      dup6\n        /* \"Project/banking.sol\":1322:1336  users[account] */\n      0xffffffffffffffffffffffffffffffffffffffff\n      and\n      0xffffffffffffffffffffffffffffffffffffffff\n      and\n      dup2\n      mstore\n      0x20\n      add\n      swap1\n      dup2\n      mstore\n      0x20\n      add\n      0x00\n      keccak256\n        /* \"Project/banking.sol\":1322:1344  users[account].balance */\n      0x01\n      add\n      sload\n        /* \"Project/banking.sol\":1268:1766  user(... */\n      dup2\n      mstore\n      0x20\n      add\n        /* \"Project/banking.sol\":1358:1363  users */\n      0x01\n        /* \"Project/banking.sol\":1358:1372  users[account] */\n      0x00\n        /* \"Project/banking.sol\":1364:1371  account */\n      dup6\n        /* \"Project/banking.sol\":1358:1372  users[account] */\n      0xffffffffffffffffffffffffffffffffffffffff\n      and\n      0xffffffffffffffffffffffffffffffffffffffff\n      and\n      dup2\n      mstore\n      0x20\n      add\n      swap1\n      dup2\n      mstore\n      0x20\n      add\n      0x00\n      keccak256\n        /* \"Project/banking.sol\":1358:1383  users[account].timeperiod */\n      0x02\n      add\n      sload\n        /* \"Project/banking.sol\":1268:1766  user(... */\n      dup2\n      mstore\n      0x20\n      add\n        /* \"Project/banking.sol\":1397:1402  users */\n      0x01\n        /* \"Project/banking.sol\":1397:1411  users[account] */\n      0x00\n        /* \"Project/banking.sol\":1403:1410  account */\n      dup6\n        /* \"Project/banking.sol\":1397:1411  users[account] */\n      0xffffffffffffffffffffffffffffffffffffffff\n      and\n      0xffffffffffffffffffffffffffffffffffffffff\n      and\n      dup2\n      mstore\n      0x20\n      add\n      swap1\n      dup2\n      mstore\n      0x20\n      add\n      0x00\n      keccak256\n        /* \"Project/banking.sol\":1397:1419  users[account].carLoan */\n      0x03\n      add\n      sload\n        /* \"Project/banking.sol\":1268:1766  user(... */\n      dup2\n      mstore\n      0x20\n      add\n        /* \"Project/banking.sol\":1433:1438  users */\n      0x01\n        /* \"Project/banking.sol\":1433:1447  users[account] */\n      0x00\n        /* \"Project/banking.sol\":1439:1446  account */\n      dup6\n        /* \"Project/banking.sol\":1433:1447  users[account] */\n      0xffffffffffffffffffffffffffffffffffffffff\n      and\n      0xffffffffffffffffffffffffffffffffffffffff\n      and\n      dup2\n      mstore\n      0x20\n      add\n      swap1\n      dup2\n      mstore\n      0x20\n      add\n      0x00\n      keccak256\n        /* \"Project/banking.sol\":1433:1456  users[account].homeLoan */\n      0x04\n      add\n      sload\n        /* \"Project/banking.sol\":1268:1766  user(... */\n      dup2\n      mstore\n      0x20\n      add\n        /* \"Project/banking.sol\":1470:1475  users */\n      0x01\n        /* \"Project/banking.sol\":1470:1484  users[account] */\n      0x00\n        /* \"Project/banking.sol\":1476:1483  account */\n      dup6\n        /* \"Project/banking.sol\":1470:1484  users[account] */\n      0xffffffffffffffffffffffffffffffffffffffff\n      and\n      0xffffffffffffffffffffffffffffffffffffffff\n      and\n      dup2\n      mstore\n      0x20\n      add\n      swap1\n      dup2\n      mstore\n      0x20\n      add\n      0x00\n      keccak256\n        /* \"Project/banking.sol\":1470:1497  users[account].personalLoan */\n      0x05\n      add\n      sload\n        /* \"Project/banking.sol\":1268:1766  user(... */\n      dup2\n      mstore\n      0x20\n      add\n        /* \"Project/banking.sol\":1511:1516  users */\n      0x01\n        /* \"Project/banking.sol\":1511:1525  users[account] */\n      0x00\n        /* \"Project/banking.sol\":1517:1524  account */\n      dup6\n        /* \"Project/banking.sol\":1511:1525  users[account] */\n      0xffffffffffffffffffffffffffffffffffffffff\n      and\n      0xffffffffffffffffffffffffffffffffffffffff\n      and\n      dup2\n      mstore\n      0x20\n      add\n      swap1\n      dup2\n      mstore\n      0x20\n      add\n      0x00\n      keccak256\n        /* \"Project/banking.sol\":1511:1532  users[account].carEmi */\n      0x06\n      add\n      sload\n        /* \"Project/banking.sol\":1268:1766  user(... */\n      dup2\n      mstore\n      0x20\n      add\n        /* \"Project/banking.sol\":1546:1551  users */\n      0x01\n        /* \"Project/banking.sol\":1546:1560  users[account] */\n      0x00\n        /* \"Project/banking.sol\":1552:1559  account */\n      dup6\n        /* \"Project/banking.sol\":1546:1560  users[account] */\n      0xffffffffffffffffffffffffffffffffffffffff\n      and\n      0xffffffffffffffffffffffffffffffffffffffff\n      and\n      dup2\n      mstore\n      0x20\n      add\n      swap1\n      dup2\n      mstore\n      0x20\n      add\n      0x00\n      keccak256\n        /* \"Project/banking.sol\":1546:1568  users[account].homeEmi */\n      0x07\n      add\n      sload\n        /* \"Project/banking.sol\":1268:1766  user(... */\n      dup2\n      mstore\n      0x20\n      add\n        /* \"Project/banking.sol\":1582:1587  users */\n      0x01\n        /* \"Project/banking.sol\":1582:1596  users[account] */\n      0x00\n        /* \"Project/banking.sol\":1588:1595  account */\n      dup6\n        /* \"Project/banking.sol\":1582:1596  users[account] */\n      0xffffffffffffffffffffffffffffffffffffffff\n      and\n      0xffffffffffffffffffffffffffffffffffffffff\n      and\n      dup2\n      mstore\n      0x20\n      add\n      swap1\n      dup2\n      mstore\n      0x20\n      add\n      0x00\n      keccak256\n        /* \"Project/banking.sol\":1582:1612  users[account].personalLoanEmi */\n      0x08\n      add\n      sload\n        /* \"Project/banking.sol\":1268:1766  user(... */\n      dup2\n      mstore\n      0x20\n      add\n        /* \"Project/banking.sol\":1626:1631  users */\n      0x01\n        /* \"Project/banking.sol\":1626:1640  users[account] */\n      0x00\n        /* \"Project/banking.sol\":1632:1639  account */\n      dup6\n        /* \"Project/banking.sol\":1626:1640  users[account] */\n      0xffffffffffffffffffffffffffffffffffffffff\n      and\n      0xffffffffffffffffffffffffffffffffffffffff\n      and\n      dup2\n      mstore\n      0x20\n      add\n      swap1\n      dup2\n      mstore\n      0x20\n      add\n      0x00\n      keccak256\n        /* \"Project/banking.sol\":1626:1658  users[account].carLoanTimeperiod */\n      0x09\n      add\n      sload\n        /* \"Project/banking.sol\":1268:1766  user(... */\n      dup2\n      mstore\n      0x20\n      add\n        /* \"Project/banking.sol\":1672:1677  users */\n      0x01\n        /* \"Project/banking.sol\":1672:1686  users[account] */\n      0x00\n        /* \"Project/banking.sol\":1678:1685  account */\n      dup6\n        /* \"Project/banking.sol\":1672:1686  users[account] */\n      0xffffffffffffffffffffffffffffffffffffffff\n      and\n      0xffffffffffffffffffffffffffffffffffffffff\n      and\n      dup2\n      mstore\n      0x20\n      add\n      swap1\n      dup2\n      mstore\n      0x20\n      add\n      0x00\n      keccak256\n        /* \"Project/banking.sol\":1672:1705  users[account].homeLoanTimeperiod */\n      0x0a\n      add\n      sload\n        /* \"Project/banking.sol\":1268:1766  user(... */\n      dup2\n      mstore\n      0x20\n      add\n        /* \"Project/banking.sol\":1719:1724  users */\n      0x01\n        /* \"Project/banking.sol\":1719:1733  users[account] */\n      0x00\n        /* \"Project/banking.sol\":1725:1732  account */\n      dup6\n        /* \"Project/banking.sol\":1719:1733  users[account] */\n      0xffffffffffffffffffffffffffffffffffffffff\n      and\n      0xffffffffffffffffffffffffffffffffffffffff\n      and\n      dup2\n      mstore\n      0x20\n      add\n      swap1\n      dup2\n      mstore\n      0x20\n      add\n      0x00\n      keccak256\n        /* \"Project/banking.sol\":1719:1756  users[account].personalLoanTimeperiod */\n      0x0b\n      add\n      sload\n        /* \"Project/banking.sol\":1268:1766  user(... */\n      dup2\n      mstore\n      pop\n        /* \"Project/banking.sol\":1251:1256  users */\n      0x01\n        /* \"Project/banking.sol\":1251:1265  users[account] */\n      0x00\n        /* \"Project/banking.sol\":1257:1264  account */\n      dup5\n        /* \"Project/banking.sol\":1251:1265  users[account] */\n      0xffffffffffffffffffffffffffffffffffffffff\n      and\n      0xffffffffffffffffffffffffffffffffffffffff\n      and\n      dup2\n      mstore\n      0x20\n      add\n      swap1\n      dup2\n      mstore\n      0x20\n      add\n      0x00\n      keccak256\n        /* \"Project/banking.sol\":1251:1766  users[account] = user(... */\n      0x00\n      dup3\n      add\n      mload\n      dup2\n      0x00\n      add\n      exp(0x0100, 0x00)\n      dup2\n      sload\n      dup2\n      0xffffffffffffffffffffffffffffffffffffffff\n      mul\n      not\n      and\n      swap1\n      dup4\n      0xffffffffffffffffffffffffffffffffffffffff\n      and\n      mul\n      or\n      swap1\n      sstore\n      pop\n      0x20\n      dup3\n      add\n      mload\n      dup2\n      0x01\n      add\n      sstore\n      0x40\n      dup3\n      add\n      mload\n      dup2\n      0x02\n      add\n      sstore\n      0x60\n      dup3\n      add\n      mload\n      dup2\n      0x03\n      add\n      sstore\n      0x80\n      dup3\n      add\n      mload\n      dup2\n      0x04\n      add\n      sstore\n      0xa0\n      dup3\n      add\n      mload\n      dup2\n      0x05\n      add\n      sstore\n      0xc0\n      dup3\n      add\n      mload\n      dup2\n      0x06\n      add\n      sstore\n      0xe0\n      dup3\n      add\n      mload\n      dup2\n      0x07\n      add\n      sstore\n      0x0100\n      dup3\n      add\n      mload\n      dup2\n      0x08\n      add\n      sstore\n      0x0120\n      dup3\n      add\n      mload\n      dup2\n      0x09\n      add\n      sstore\n      0x0140\n      dup3\n      add\n      mload\n      dup2\n      0x0a\n      add\n      sstore\n      0x0160\n      dup3\n      add\n      mload\n      dup2\n      0x0b\n      add\n      sstore\n      swap1\n      pop\n      pop\n        /* \"Project/banking.sol\":998:1773  function deposit(address payable account, uint256 amount) public payable {... */\n      pop\n      pop\n      jump\t// out\n        /* \"Project/banking.sol\":8685:9070  function carLoanDetails(address account)... */\n    tag_26:\n        /* \"Project/banking.sol\":8784:8791  uint256 */\n      0x00\n        /* \"Project/banking.sol\":8805:8812  uint256 */\n      dup1\n        /* \"Project/banking.sol\":8826:8833  uint256 */\n      0x00\n        /* \"Project/banking.sol\":8885:8886  0 */\n      dup1\n        /* \"Project/banking.sol\":8866:8887  account != address(0) */\n      0xffffffffffffffffffffffffffffffffffffffff\n      and\n        /* \"Project/banking.sol\":8866:8873  account */\n      dup5\n        /* \"Project/banking.sol\":8866:8887  account != address(0) */\n      0xffffffffffffffffffffffffffffffffffffffff\n      and\n      sub\n        /* \"Project/banking.sol\":8858:8919  require(account != address(0), \"zero address is not allowed\") */\n      tag_75\n      jumpi\n      mload(0x40)\n      0x08c379a000000000000000000000000000000000000000000000000000000000\n      dup2\n      mstore\n      0x04\n      add\n      tag_76\n      swap1\n      tag_68\n      jump\t// in\n    tag_76:\n      mload(0x40)\n      dup1\n      swap2\n      sub\n      swap1\n      revert\n    tag_75:\n        /* \"Project/banking.sol\":8950:8955  users */\n      0x01\n        /* \"Project/banking.sol\":8950:8964  users[account] */\n      0x00\n        /* \"Project/banking.sol\":8956:8963  account */\n      dup6\n        /* \"Project/banking.sol\":8950:8964  users[account] */\n      0xffffffffffffffffffffffffffffffffffffffff\n      and\n      0xffffffffffffffffffffffffffffffffffffffff\n      and\n      dup2\n      mstore\n      0x20\n      add\n      swap1\n      dup2\n      mstore\n      0x20\n      add\n      0x00\n      keccak256\n        /* \"Project/banking.sol\":8950:8972  users[account].carLoan */\n      0x03\n      add\n      sload\n        /* \"Project/banking.sol\":8986:8991  users */\n      0x01\n        /* \"Project/banking.sol\":8986:9000  users[account] */\n      0x00\n        /* \"Project/banking.sol\":8992:8999  account */\n      dup7\n        /* \"Project/banking.sol\":8986:9000  users[account] */\n      0xffffffffffffffffffffffffffffffffffffffff\n      and\n      0xffffffffffffffffffffffffffffffffffffffff\n      and\n      dup2\n      mstore\n      0x20\n      add\n      swap1\n      dup2\n      mstore\n      0x20\n      add\n      0x00\n      keccak256\n        /* \"Project/banking.sol\":8986:9007  users[account].carEmi */\n      0x06\n      add\n      sload\n        /* \"Project/banking.sol\":9021:9026  users */\n      0x01\n        /* \"Project/banking.sol\":9021:9035  users[account] */\n      0x00\n        /* \"Project/banking.sol\":9027:9034  account */\n      dup8\n        /* \"Project/banking.sol\":9021:9035  users[account] */\n      0xffffffffffffffffffffffffffffffffffffffff\n      and\n      0xffffffffffffffffffffffffffffffffffffffff\n      and\n      dup2\n      mstore\n      0x20\n      add\n      swap1\n      dup2\n      mstore\n      0x20\n      add\n      0x00\n      keccak256\n        /* \"Project/banking.sol\":9021:9053  users[account].carLoanTimeperiod */\n      0x09\n      add\n      sload\n        /* \"Project/banking.sol\":8929:9063  return (... */\n      swap3\n      pop\n      swap3\n      pop\n      swap3\n      pop\n        /* \"Project/banking.sol\":8685:9070  function carLoanDetails(address account)... */\n      swap2\n      swap4\n      swap1\n      swap3\n      pop\n      jump\t// out\n        /* \"Project/banking.sol\":8574:8679  function getContractBalance() public view returns (uint256) {... */\n    tag_31:\n        /* \"Project/banking.sol\":8625:8632  uint256 */\n      0x00\n        /* \"Project/banking.sol\":8651:8672  address(this).balance */\n      selfbalance\n        /* \"Project/banking.sol\":8644:8672  return address(this).balance */\n      swap1\n      pop\n        /* \"Project/banking.sol\":8574:8679  function getContractBalance() public view returns (uint256) {... */\n      swap1\n      jump\t// out\n        /* \"Project/banking.sol\":9471:9880  function personalLoanDetails(address account)... */\n    tag_37:\n        /* \"Project/banking.sol\":9575:9582  uint256 */\n      0x00\n        /* \"Project/banking.sol\":9596:9603  uint256 */\n      dup1\n        /* \"Project/banking.sol\":9617:9624  uint256 */\n      0x00\n        /* \"Project/banking.sol\":9676:9677  0 */\n      dup1\n        /* \"Project/banking.sol\":9657:9678  account != address(0) */\n      0xffffffffffffffffffffffffffffffffffffffff\n      and\n        /* \"Project/banking.sol\":9657:9664  account */\n      dup5\n        /* \"Project/banking.sol\":9657:9678  account != address(0) */\n      0xffffffffffffffffffffffffffffffffffffffff\n      and\n      sub\n        /* \"Project/banking.sol\":9649:9710  require(account != address(0), \"zero address is not allowed\") */\n      tag_79\n      jumpi\n      mload(0x40)\n      0x08c379a000000000000000000000000000000000000000000000000000000000\n      dup2\n      mstore\n      0x04\n      add\n      tag_80\n      swap1\n      tag_68\n      jump\t// in\n    tag_80:\n      mload(0x40)\n      dup1\n      swap2\n      sub\n      swap1\n      revert\n    tag_79:\n        /* \"Project/banking.sol\":9741:9746  users */\n      0x01\n        /* \"Project/banking.sol\":9741:9755  users[account] */\n      0x00\n        /* \"Project/banking.sol\":9747:9754  account */\n      dup6\n        /* \"Project/banking.sol\":9741:9755  users[account] */\n      0xffffffffffffffffffffffffffffffffffffffff\n      and\n      0xffffffffffffffffffffffffffffffffffffffff\n      and\n      dup2\n      mstore\n      0x20\n      add\n      swap1\n      dup2\n      mstore\n      0x20\n      add\n      0x00\n      keccak256\n        /* \"Project/banking.sol\":9741:9768  users[account].personalLoan */\n      0x05\n      add\n      sload\n        /* \"Project/banking.sol\":9782:9787  users */\n      0x01\n        /* \"Project/banking.sol\":9782:9796  users[account] */\n      0x00\n        /* \"Project/banking.sol\":9788:9795  account */\n      dup7\n        /* \"Project/banking.sol\":9782:9796  users[account] */\n      0xffffffffffffffffffffffffffffffffffffffff\n      and\n      0xffffffffffffffffffffffffffffffffffffffff\n      and\n      dup2\n      mstore\n      0x20\n      add\n      swap1\n      dup2\n      mstore\n      0x20\n      add\n      0x00\n      keccak256\n        /* \"Project/banking.sol\":9782:9812  users[account].personalLoanEmi */\n      0x08\n      add\n      sload\n        /* \"Project/banking.sol\":9826:9831  users */\n      0x01\n        /* \"Project/banking.sol\":9826:9840  users[account] */\n      0x00\n        /* \"Project/banking.sol\":9832:9839  account */\n      dup8\n        /* \"Project/banking.sol\":9826:9840  users[account] */\n      0xffffffffffffffffffffffffffffffffffffffff\n      and\n      0xffffffffffffffffffffffffffffffffffffffff\n      and\n      dup2\n      mstore\n      0x20\n      add\n      swap1\n      dup2\n      mstore\n      0x20\n      add\n      0x00\n      keccak256\n        /* \"Project/banking.sol\":9826:9863  users[account].personalLoanTimeperiod */\n      0x0b\n      add\n      sload\n        /* \"Project/banking.sol\":9720:9873  return (... */\n      swap3\n      pop\n      swap3\n      pop\n      swap3\n      pop\n        /* \"Project/banking.sol\":9471:9880  function personalLoanDetails(address account)... */\n      swap2\n      swap4\n      swap1\n      swap3\n      pop\n      jump\t// out\n        /* \"Project/banking.sol\":6047:8568  function payEmi(address payable account, string memory _input) public {... */\n    tag_43:\n        /* \"Project/banking.sol\":6213:6236  abi.encodePacked(\"car\") */\n      add(0x20, mload(0x40))\n      tag_82\n      swap1\n      tag_83\n      jump\t// in\n    tag_82:\n      mload(0x40)\n      0x20\n      dup2\n      dup4\n      sub\n      sub\n      dup2\n      mstore\n      swap1\n      0x40\n      mstore\n        /* \"Project/banking.sol\":6203:6237  keccak256(abi.encodePacked(\"car\")) */\n      dup1\n      mload\n      swap1\n      0x20\n      add\n      keccak256\n        /* \"Project/banking.sol\":6175:6181  _input */\n      dup2\n        /* \"Project/banking.sol\":6158:6182  abi.encodePacked(_input) */\n      add(0x20, mload(0x40))\n      tag_84\n      swap2\n      swap1\n      tag_85\n      jump\t// in\n    tag_84:\n      mload(0x40)\n      0x20\n      dup2\n      dup4\n      sub\n      sub\n      dup2\n      mstore\n      swap1\n      0x40\n      mstore\n        /* \"Project/banking.sol\":6148:6183  keccak256(abi.encodePacked(_input)) */\n      dup1\n      mload\n      swap1\n      0x20\n      add\n      keccak256\n        /* \"Project/banking.sol\":6148:6237  keccak256(abi.encodePacked(_input)) ==... */\n      eq\n        /* \"Project/banking.sol\":6148:6347  keccak256(abi.encodePacked(_input)) ==... */\n      dup1\n      tag_86\n      jumpi\n      pop\n        /* \"Project/banking.sol\":6322:6346  abi.encodePacked(\"home\") */\n      add(0x20, mload(0x40))\n      tag_87\n      swap1\n      tag_88\n      jump\t// in\n    tag_87:\n      mload(0x40)\n      0x20\n      dup2\n      dup4\n      sub\n      sub\n      dup2\n      mstore\n      swap1\n      0x40\n      mstore\n        /* \"Project/banking.sol\":6312:6347  keccak256(abi.encodePacked(\"home\")) */\n      dup1\n      mload\n      swap1\n      0x20\n      add\n      keccak256\n        /* \"Project/banking.sol\":6284:6290  _input */\n      dup2\n        /* \"Project/banking.sol\":6267:6291  abi.encodePacked(_input) */\n      add(0x20, mload(0x40))\n      tag_89\n      swap2\n      swap1\n      tag_85\n      jump\t// in\n    tag_89:\n      mload(0x40)\n      0x20\n      dup2\n      dup4\n      sub\n      sub\n      dup2\n      mstore\n      swap1\n      0x40\n      mstore\n        /* \"Project/banking.sol\":6257:6292  keccak256(abi.encodePacked(_input)) */\n      dup1\n      mload\n      swap1\n      0x20\n      add\n      keccak256\n        /* \"Project/banking.sol\":6257:6347  keccak256(abi.encodePacked(_input)) ==... */\n      eq\n        /* \"Project/banking.sol\":6148:6347  keccak256(abi.encodePacked(_input)) ==... */\n    tag_86:\n        /* \"Project/banking.sol\":6148:6461  keccak256(abi.encodePacked(_input)) ==... */\n      dup1\n      tag_90\n      jumpi\n      pop\n        /* \"Project/banking.sol\":6432:6460  abi.encodePacked(\"personal\") */\n      add(0x20, mload(0x40))\n      tag_91\n      swap1\n      tag_92\n      jump\t// in\n    tag_91:\n      mload(0x40)\n      0x20\n      dup2\n      dup4\n      sub\n      sub\n      dup2\n      mstore\n      swap1\n      0x40\n      mstore\n        /* \"Project/banking.sol\":6422:6461  keccak256(abi.encodePacked(\"personal\")) */\n      dup1\n      mload\n      swap1\n      0x20\n      add\n      keccak256\n        /* \"Project/banking.sol\":6394:6400  _input */\n      dup2\n        /* \"Project/banking.sol\":6377:6401  abi.encodePacked(_input) */\n      add(0x20, mload(0x40))\n      tag_93\n      swap2\n      swap1\n      tag_85\n      jump\t// in\n    tag_93:\n      mload(0x40)\n      0x20\n      dup2\n      dup4\n      sub\n      sub\n      dup2\n      mstore\n      swap1\n      0x40\n      mstore\n        /* \"Project/banking.sol\":6367:6402  keccak256(abi.encodePacked(_input)) */\n      dup1\n      mload\n      swap1\n      0x20\n      add\n      keccak256\n        /* \"Project/banking.sol\":6367:6461  keccak256(abi.encodePacked(_input)) ==... */\n      eq\n        /* \"Project/banking.sol\":6148:6461  keccak256(abi.encodePacked(_input)) ==... */\n    tag_90:\n        /* \"Project/banking.sol\":6127:6504  require(... */\n      tag_94\n      jumpi\n      mload(0x40)\n      0x08c379a000000000000000000000000000000000000000000000000000000000\n      dup2\n      mstore\n      0x04\n      add\n      tag_95\n      swap1\n      tag_96\n      jump\t// in\n    tag_95:\n      mload(0x40)\n      dup1\n      swap2\n      sub\n      swap1\n      revert\n    tag_94:\n        /* \"Project/banking.sol\":6541:6542  0 */\n      0x00\n        /* \"Project/banking.sol\":6522:6543  account != address(0) */\n      0xffffffffffffffffffffffffffffffffffffffff\n      and\n        /* \"Project/banking.sol\":6522:6529  account */\n      dup3\n        /* \"Project/banking.sol\":6522:6543  account != address(0) */\n      0xffffffffffffffffffffffffffffffffffffffff\n      and\n      sub\n        /* \"Project/banking.sol\":6514:6575  require(account != address(0), \"zero address is not allowed\") */\n      tag_97\n      jumpi\n      mload(0x40)\n      0x08c379a000000000000000000000000000000000000000000000000000000000\n      dup2\n      mstore\n      0x04\n      add\n      tag_98\n      swap1\n      tag_68\n      jump\t// in\n    tag_98:\n      mload(0x40)\n      dup1\n      swap2\n      sub\n      swap1\n      revert\n    tag_97:\n        /* \"Project/banking.sol\":6663:6686  abi.encodePacked(\"car\") */\n      add(0x20, mload(0x40))\n      tag_99\n      swap1\n      tag_83\n      jump\t// in\n    tag_99:\n      mload(0x40)\n      0x20\n      dup2\n      dup4\n      sub\n      sub\n      dup2\n      mstore\n      swap1\n      0x40\n      mstore\n        /* \"Project/banking.sol\":6653:6687  keccak256(abi.encodePacked(\"car\")) */\n      dup1\n      mload\n      swap1\n      0x20\n      add\n      keccak256\n        /* \"Project/banking.sol\":6629:6635  _input */\n      dup2\n        /* \"Project/banking.sol\":6612:6636  abi.encodePacked(_input) */\n      add(0x20, mload(0x40))\n      tag_100\n      swap2\n      swap1\n      tag_85\n      jump\t// in\n    tag_100:\n      mload(0x40)\n      0x20\n      dup2\n      dup4\n      sub\n      sub\n      dup2\n      mstore\n      swap1\n      0x40\n      mstore\n        /* \"Project/banking.sol\":6602:6637  keccak256(abi.encodePacked(_input)) */\n      dup1\n      mload\n      swap1\n      0x20\n      add\n      keccak256\n        /* \"Project/banking.sol\":6602:6687  keccak256(abi.encodePacked(_input)) ==... */\n      sub\n        /* \"Project/banking.sol\":6585:8036  if (... */\n      tag_101\n      jumpi\n        /* \"Project/banking.sol\":6755:6756  0 */\n      0x00\n        /* \"Project/banking.sol\":6720:6725  users */\n      0x01\n        /* \"Project/banking.sol\":6720:6734  users[account] */\n      0x00\n        /* \"Project/banking.sol\":6726:6733  account */\n      dup5\n        /* \"Project/banking.sol\":6720:6734  users[account] */\n      0xffffffffffffffffffffffffffffffffffffffff\n      and\n      0xffffffffffffffffffffffffffffffffffffffff\n      and\n      dup2\n      mstore\n      0x20\n      add\n      swap1\n      dup2\n      mstore\n      0x20\n      add\n      0x00\n      keccak256\n        /* \"Project/banking.sol\":6720:6752  users[account].carLoanTimeperiod */\n      0x09\n      add\n      sload\n        /* \"Project/banking.sol\":6720:6756  users[account].carLoanTimeperiod > 0 */\n      gt\n        /* \"Project/banking.sol\":6712:6779  require(users[account].carLoanTimeperiod > 0, \"invalid emi amount\") */\n      tag_102\n      jumpi\n      mload(0x40)\n      0x08c379a000000000000000000000000000000000000000000000000000000000\n      dup2\n      mstore\n      0x04\n      add\n      tag_103\n      swap1\n      tag_104\n      jump\t// in\n    tag_103:\n      mload(0x40)\n      dup1\n      swap2\n      sub\n      swap1\n      revert\n    tag_102:\n        /* \"Project/banking.sol\":6875:6880  users */\n      0x01\n        /* \"Project/banking.sol\":6875:6889  users[account] */\n      0x00\n        /* \"Project/banking.sol\":6881:6888  account */\n      dup4\n        /* \"Project/banking.sol\":6875:6889  users[account] */\n      0xffffffffffffffffffffffffffffffffffffffff\n      and\n      0xffffffffffffffffffffffffffffffffffffffff\n      and\n      dup2\n      mstore\n      0x20\n      add\n      swap1\n      dup2\n      mstore\n      0x20\n      add\n      0x00\n      keccak256\n        /* \"Project/banking.sol\":6875:6896  users[account].carEmi */\n      0x06\n      add\n      sload\n        /* \"Project/banking.sol\":6849:6854  users */\n      0x01\n        /* \"Project/banking.sol\":6849:6863  users[account] */\n      0x00\n        /* \"Project/banking.sol\":6855:6862  account */\n      dup5\n        /* \"Project/banking.sol\":6849:6863  users[account] */\n      0xffffffffffffffffffffffffffffffffffffffff\n      and\n      0xffffffffffffffffffffffffffffffffffffffff\n      and\n      dup2\n      mstore\n      0x20\n      add\n      swap1\n      dup2\n      mstore\n      0x20\n      add\n      0x00\n      keccak256\n        /* \"Project/banking.sol\":6849:6871  users[account].balance */\n      0x01\n      add\n      0x00\n        /* \"Project/banking.sol\":6849:6896  users[account].balance -= users[account].carEmi */\n      dup3\n      dup3\n      sload\n      tag_105\n      swap2\n      swap1\n      tag_106\n      jump\t// in\n    tag_105:\n      swap3\n      pop\n      pop\n      dup2\n      swap1\n      sstore\n      pop\n        /* \"Project/banking.sol\":6936:6941  users */\n      0x01\n        /* \"Project/banking.sol\":6936:6950  users[account] */\n      0x00\n        /* \"Project/banking.sol\":6942:6949  account */\n      dup4\n        /* \"Project/banking.sol\":6936:6950  users[account] */\n      0xffffffffffffffffffffffffffffffffffffffff\n      and\n      0xffffffffffffffffffffffffffffffffffffffff\n      and\n      dup2\n      mstore\n      0x20\n      add\n      swap1\n      dup2\n      mstore\n      0x20\n      add\n      0x00\n      keccak256\n        /* \"Project/banking.sol\":6936:6957  users[account].carEmi */\n      0x06\n      add\n      sload\n        /* \"Project/banking.sol\":6910:6915  users */\n      0x01\n        /* \"Project/banking.sol\":6910:6924  users[account] */\n      0x00\n        /* \"Project/banking.sol\":6916:6923  account */\n      dup5\n        /* \"Project/banking.sol\":6910:6924  users[account] */\n      0xffffffffffffffffffffffffffffffffffffffff\n      and\n      0xffffffffffffffffffffffffffffffffffffffff\n      and\n      dup2\n      mstore\n      0x20\n      add\n      swap1\n      dup2\n      mstore\n      0x20\n      add\n      0x00\n      keccak256\n        /* \"Project/banking.sol\":6910:6932  users[account].carLoan */\n      0x03\n      add\n      0x00\n        /* \"Project/banking.sol\":6910:6957  users[account].carLoan -= users[account].carEmi */\n      dup3\n      dup3\n      sload\n      tag_107\n      swap2\n      swap1\n      tag_106\n      jump\t// in\n    tag_107:\n      swap3\n      pop\n      pop\n      dup2\n      swap1\n      sstore\n      pop\n        /* \"Project/banking.sol\":6971:6976  users */\n      0x01\n        /* \"Project/banking.sol\":6971:6985  users[account] */\n      0x00\n        /* \"Project/banking.sol\":6977:6984  account */\n      dup4\n        /* \"Project/banking.sol\":6971:6985  users[account] */\n      0xffffffffffffffffffffffffffffffffffffffff\n      and\n      0xffffffffffffffffffffffffffffffffffffffff\n      and\n      dup2\n      mstore\n      0x20\n      add\n      swap1\n      dup2\n      mstore\n      0x20\n      add\n      0x00\n      keccak256\n        /* \"Project/banking.sol\":6971:7003  users[account].carLoanTimeperiod */\n      0x09\n      add\n      0x00\n        /* \"Project/banking.sol\":6971:7005  users[account].carLoanTimeperiod-- */\n      dup2\n      sload\n      dup1\n      swap3\n      swap2\n      swap1\n      tag_108\n      swap1\n      tag_109\n      jump\t// in\n    tag_108:\n      swap2\n      swap1\n      pop\n      sstore\n      pop\n        /* \"Project/banking.sol\":6585:8036  if (... */\n      jump(tag_110)\n    tag_101:\n        /* \"Project/banking.sol\":7100:7124  abi.encodePacked(\"home\") */\n      add(0x20, mload(0x40))\n      tag_111\n      swap1\n      tag_88\n      jump\t// in\n    tag_111:\n      mload(0x40)\n      0x20\n      dup2\n      dup4\n      sub\n      sub\n      dup2\n      mstore\n      swap1\n      0x40\n      mstore\n        /* \"Project/banking.sol\":7090:7125  keccak256(abi.encodePacked(\"home\")) */\n      dup1\n      mload\n      swap1\n      0x20\n      add\n      keccak256\n        /* \"Project/banking.sol\":7066:7072  _input */\n      dup2\n        /* \"Project/banking.sol\":7049:7073  abi.encodePacked(_input) */\n      add(0x20, mload(0x40))\n      tag_112\n      swap2\n      swap1\n      tag_85\n      jump\t// in\n    tag_112:\n      mload(0x40)\n      0x20\n      dup2\n      dup4\n      sub\n      sub\n      dup2\n      mstore\n      swap1\n      0x40\n      mstore\n        /* \"Project/banking.sol\":7039:7074  keccak256(abi.encodePacked(_input)) */\n      dup1\n      mload\n      swap1\n      0x20\n      add\n      keccak256\n        /* \"Project/banking.sol\":7039:7125  keccak256(abi.encodePacked(_input)) ==... */\n      sub\n        /* \"Project/banking.sol\":7022:8036  if (... */\n      tag_113\n      jumpi\n        /* \"Project/banking.sol\":7268:7269  0 */\n      0x00\n        /* \"Project/banking.sol\":7232:7237  users */\n      0x01\n        /* \"Project/banking.sol\":7232:7246  users[account] */\n      0x00\n        /* \"Project/banking.sol\":7238:7245  account */\n      dup5\n        /* \"Project/banking.sol\":7232:7246  users[account] */\n      0xffffffffffffffffffffffffffffffffffffffff\n      and\n      0xffffffffffffffffffffffffffffffffffffffff\n      and\n      dup2\n      mstore\n      0x20\n      add\n      swap1\n      dup2\n      mstore\n      0x20\n      add\n      0x00\n      keccak256\n        /* \"Project/banking.sol\":7232:7265  users[account].homeLoanTimeperiod */\n      0x0a\n      add\n      sload\n        /* \"Project/banking.sol\":7232:7269  users[account].homeLoanTimeperiod > 0 */\n      gt\n        /* \"Project/banking.sol\":7207:7321  require(... */\n      tag_114\n      jumpi\n      mload(0x40)\n      0x08c379a000000000000000000000000000000000000000000000000000000000\n      dup2\n      mstore\n      0x04\n      add\n      tag_115\n      swap1\n      tag_104\n      jump\t// in\n    tag_115:\n      mload(0x40)\n      dup1\n      swap2\n      sub\n      swap1\n      revert\n    tag_114:\n        /* \"Project/banking.sol\":7361:7366  users */\n      0x01\n        /* \"Project/banking.sol\":7361:7375  users[account] */\n      0x00\n        /* \"Project/banking.sol\":7367:7374  account */\n      dup4\n        /* \"Project/banking.sol\":7361:7375  users[account] */\n      0xffffffffffffffffffffffffffffffffffffffff\n      and\n      0xffffffffffffffffffffffffffffffffffffffff\n      and\n      dup2\n      mstore\n      0x20\n      add\n      swap1\n      dup2\n      mstore\n      0x20\n      add\n      0x00\n      keccak256\n        /* \"Project/banking.sol\":7361:7383  users[account].homeEmi */\n      0x07\n      add\n      sload\n        /* \"Project/banking.sol\":7335:7340  users */\n      0x01\n        /* \"Project/banking.sol\":7335:7349  users[account] */\n      0x00\n        /* \"Project/banking.sol\":7341:7348  account */\n      dup5\n        /* \"Project/banking.sol\":7335:7349  users[account] */\n      0xffffffffffffffffffffffffffffffffffffffff\n      and\n      0xffffffffffffffffffffffffffffffffffffffff\n      and\n      dup2\n      mstore\n      0x20\n      add\n      swap1\n      dup2\n      mstore\n      0x20\n      add\n      0x00\n      keccak256\n        /* \"Project/banking.sol\":7335:7357  users[account].balance */\n      0x01\n      add\n      0x00\n        /* \"Project/banking.sol\":7335:7383  users[account].balance -= users[account].homeEmi */\n      dup3\n      dup3\n      sload\n      tag_116\n      swap2\n      swap1\n      tag_106\n      jump\t// in\n    tag_116:\n      swap3\n      pop\n      pop\n      dup2\n      swap1\n      sstore\n      pop\n        /* \"Project/banking.sol\":7424:7429  users */\n      0x01\n        /* \"Project/banking.sol\":7424:7438  users[account] */\n      0x00\n        /* \"Project/banking.sol\":7430:7437  account */\n      dup4\n        /* \"Project/banking.sol\":7424:7438  users[account] */\n      0xffffffffffffffffffffffffffffffffffffffff\n      and\n      0xffffffffffffffffffffffffffffffffffffffff\n      and\n      dup2\n      mstore\n      0x20\n      add\n      swap1\n      dup2\n      mstore\n      0x20\n      add\n      0x00\n      keccak256\n        /* \"Project/banking.sol\":7424:7446  users[account].homeEmi */\n      0x07\n      add\n      sload\n        /* \"Project/banking.sol\":7397:7402  users */\n      0x01\n        /* \"Project/banking.sol\":7397:7411  users[account] */\n      0x00\n        /* \"Project/banking.sol\":7403:7410  account */\n      dup5\n        /* \"Project/banking.sol\":7397:7411  users[account] */\n      0xffffffffffffffffffffffffffffffffffffffff\n      and\n      0xffffffffffffffffffffffffffffffffffffffff\n      and\n      dup2\n      mstore\n      0x20\n      add\n      swap1\n      dup2\n      mstore\n      0x20\n      add\n      0x00\n      keccak256\n        /* \"Project/banking.sol\":7397:7420  users[account].homeLoan */\n      0x04\n      add\n      0x00\n        /* \"Project/banking.sol\":7397:7446  users[account].homeLoan -= users[account].homeEmi */\n      dup3\n      dup3\n      sload\n      tag_117\n      swap2\n      swap1\n      tag_106\n      jump\t// in\n    tag_117:\n      swap3\n      pop\n      pop\n      dup2\n      swap1\n      sstore\n      pop\n        /* \"Project/banking.sol\":7460:7465  users */\n      0x01\n        /* \"Project/banking.sol\":7460:7474  users[account] */\n      0x00\n        /* \"Project/banking.sol\":7466:7473  account */\n      dup4\n        /* \"Project/banking.sol\":7460:7474  users[account] */\n      0xffffffffffffffffffffffffffffffffffffffff\n      and\n      0xffffffffffffffffffffffffffffffffffffffff\n      and\n      dup2\n      mstore\n      0x20\n      add\n      swap1\n      dup2\n      mstore\n      0x20\n      add\n      0x00\n      keccak256\n        /* \"Project/banking.sol\":7460:7493  users[account].homeLoanTimeperiod */\n      0x0a\n      add\n      0x00\n        /* \"Project/banking.sol\":7460:7495  users[account].homeLoanTimeperiod-- */\n      dup2\n      sload\n      dup1\n      swap3\n      swap2\n      swap1\n      tag_118\n      swap1\n      tag_109\n      jump\t// in\n    tag_118:\n      swap2\n      swap1\n      pop\n      sstore\n      pop\n        /* \"Project/banking.sol\":7022:8036  if (... */\n      jump(tag_119)\n    tag_113:\n        /* \"Project/banking.sol\":7590:7618  abi.encodePacked(\"personal\") */\n      add(0x20, mload(0x40))\n      tag_120\n      swap1\n      tag_92\n      jump\t// in\n    tag_120:\n      mload(0x40)\n      0x20\n      dup2\n      dup4\n      sub\n      sub\n      dup2\n      mstore\n      swap1\n      0x40\n      mstore\n        /* \"Project/banking.sol\":7580:7619  keccak256(abi.encodePacked(\"personal\")) */\n      dup1\n      mload\n      swap1\n      0x20\n      add\n      keccak256\n        /* \"Project/banking.sol\":7556:7562  _input */\n      dup2\n        /* \"Project/banking.sol\":7539:7563  abi.encodePacked(_input) */\n      add(0x20, mload(0x40))\n      tag_121\n      swap2\n      swap1\n      tag_85\n      jump\t// in\n    tag_121:\n      mload(0x40)\n      0x20\n      dup2\n      dup4\n      sub\n      sub\n      dup2\n      mstore\n      swap1\n      0x40\n      mstore\n        /* \"Project/banking.sol\":7529:7564  keccak256(abi.encodePacked(_input)) */\n      dup1\n      mload\n      swap1\n      0x20\n      add\n      keccak256\n        /* \"Project/banking.sol\":7529:7619  keccak256(abi.encodePacked(_input)) ==... */\n      sub\n        /* \"Project/banking.sol\":7512:8036  if (... */\n      tag_122\n      jumpi\n        /* \"Project/banking.sol\":7774:7775  0 */\n      0x00\n        /* \"Project/banking.sol\":7734:7739  users */\n      0x01\n        /* \"Project/banking.sol\":7734:7748  users[account] */\n      0x00\n        /* \"Project/banking.sol\":7740:7747  account */\n      dup5\n        /* \"Project/banking.sol\":7734:7748  users[account] */\n      0xffffffffffffffffffffffffffffffffffffffff\n      and\n      0xffffffffffffffffffffffffffffffffffffffff\n      and\n      dup2\n      mstore\n      0x20\n      add\n      swap1\n      dup2\n      mstore\n      0x20\n      add\n      0x00\n      keccak256\n        /* \"Project/banking.sol\":7734:7771  users[account].personalLoanTimeperiod */\n      0x0b\n      add\n      sload\n        /* \"Project/banking.sol\":7734:7775  users[account].personalLoanTimeperiod > 0 */\n      gt\n        /* \"Project/banking.sol\":7709:7827  require(... */\n      tag_123\n      jumpi\n      mload(0x40)\n      0x08c379a000000000000000000000000000000000000000000000000000000000\n      dup2\n      mstore\n      0x04\n      add\n      tag_124\n      swap1\n      tag_104\n      jump\t// in\n    tag_124:\n      mload(0x40)\n      dup1\n      swap2\n      sub\n      swap1\n      revert\n    tag_123:\n        /* \"Project/banking.sol\":7867:7872  users */\n      0x01\n        /* \"Project/banking.sol\":7867:7881  users[account] */\n      0x00\n        /* \"Project/banking.sol\":7873:7880  account */\n      dup4\n        /* \"Project/banking.sol\":7867:7881  users[account] */\n      0xffffffffffffffffffffffffffffffffffffffff\n      and\n      0xffffffffffffffffffffffffffffffffffffffff\n      and\n      dup2\n      mstore\n      0x20\n      add\n      swap1\n      dup2\n      mstore\n      0x20\n      add\n      0x00\n      keccak256\n        /* \"Project/banking.sol\":7867:7897  users[account].personalLoanEmi */\n      0x08\n      add\n      sload\n        /* \"Project/banking.sol\":7841:7846  users */\n      0x01\n        /* \"Project/banking.sol\":7841:7855  users[account] */\n      0x00\n        /* \"Project/banking.sol\":7847:7854  account */\n      dup5\n        /* \"Project/banking.sol\":7841:7855  users[account] */\n      0xffffffffffffffffffffffffffffffffffffffff\n      and\n      0xffffffffffffffffffffffffffffffffffffffff\n      and\n      dup2\n      mstore\n      0x20\n      add\n      swap1\n      dup2\n      mstore\n      0x20\n      add\n      0x00\n      keccak256\n        /* \"Project/banking.sol\":7841:7863  users[account].balance */\n      0x01\n      add\n      0x00\n        /* \"Project/banking.sol\":7841:7897  users[account].balance -= users[account].personalLoanEmi */\n      dup3\n      dup3\n      sload\n      tag_125\n      swap2\n      swap1\n      tag_106\n      jump\t// in\n    tag_125:\n      swap3\n      pop\n      pop\n      dup2\n      swap1\n      sstore\n      pop\n        /* \"Project/banking.sol\":7942:7947  users */\n      0x01\n        /* \"Project/banking.sol\":7942:7956  users[account] */\n      0x00\n        /* \"Project/banking.sol\":7948:7955  account */\n      dup4\n        /* \"Project/banking.sol\":7942:7956  users[account] */\n      0xffffffffffffffffffffffffffffffffffffffff\n      and\n      0xffffffffffffffffffffffffffffffffffffffff\n      and\n      dup2\n      mstore\n      0x20\n      add\n      swap1\n      dup2\n      mstore\n      0x20\n      add\n      0x00\n      keccak256\n        /* \"Project/banking.sol\":7942:7972  users[account].personalLoanEmi */\n      0x08\n      add\n      sload\n        /* \"Project/banking.sol\":7911:7916  users */\n      0x01\n        /* \"Project/banking.sol\":7911:7925  users[account] */\n      0x00\n        /* \"Project/banking.sol\":7917:7924  account */\n      dup5\n        /* \"Project/banking.sol\":7911:7925  users[account] */\n      0xffffffffffffffffffffffffffffffffffffffff\n      and\n      0xffffffffffffffffffffffffffffffffffffffff\n      and\n      dup2\n      mstore\n      0x20\n      add\n      swap1\n      dup2\n      mstore\n      0x20\n      add\n      0x00\n      keccak256\n        /* \"Project/banking.sol\":7911:7938  users[account].personalLoan */\n      0x05\n      add\n      0x00\n        /* \"Project/banking.sol\":7911:7972  users[account].personalLoan -= users[account].personalLoanEmi */\n      dup3\n      dup3\n      sload\n      tag_126\n      swap2\n      swap1\n      tag_106\n      jump\t// in\n    tag_126:\n      swap3\n      pop\n      pop\n      dup2\n      swap1\n      sstore\n      pop\n        /* \"Project/banking.sol\":7986:7991  users */\n      0x01\n        /* \"Project/banking.sol\":7986:8000  users[account] */\n      0x00\n        /* \"Project/banking.sol\":7992:7999  account */\n      dup4\n        /* \"Project/banking.sol\":7986:8000  users[account] */\n      0xffffffffffffffffffffffffffffffffffffffff\n      and\n      0xffffffffffffffffffffffffffffffffffffffff\n      and\n      dup2\n      mstore\n      0x20\n      add\n      swap1\n      dup2\n      mstore\n      0x20\n      add\n      0x00\n      keccak256\n        /* \"Project/banking.sol\":7986:8023  users[account].personalLoanTimeperiod */\n      0x0b\n      add\n      0x00\n        /* \"Project/banking.sol\":7986:8025  users[account].personalLoanTimeperiod-- */\n      dup2\n      sload\n      dup1\n      swap3\n      swap2\n      swap1\n      tag_127\n      swap1\n      tag_109\n      jump\t// in\n    tag_127:\n      swap2\n      swap1\n      pop\n      sstore\n      pop\n        /* \"Project/banking.sol\":7512:8036  if (... */\n    tag_122:\n        /* \"Project/banking.sol\":7022:8036  if (... */\n    tag_119:\n        /* \"Project/banking.sol\":6585:8036  if (... */\n    tag_110:\n        /* \"Project/banking.sol\":8063:8561  user(... */\n      mload(0x40)\n      dup1\n      0x0180\n      add\n      0x40\n      mstore\n      dup1\n        /* \"Project/banking.sol\":8081:8086  users */\n      0x01\n        /* \"Project/banking.sol\":8081:8095  users[account] */\n      0x00\n        /* \"Project/banking.sol\":8087:8094  account */\n      dup6\n        /* \"Project/banking.sol\":8081:8095  users[account] */\n      0xffffffffffffffffffffffffffffffffffffffff\n      and\n      0xffffffffffffffffffffffffffffffffffffffff\n      and\n      dup2\n      mstore\n      0x20\n      add\n      swap1\n      dup2\n      mstore\n      0x20\n      add\n      0x00\n      keccak256\n        /* \"Project/banking.sol\":8081:8103  users[account].user_id */\n      0x00\n      add\n      0x00\n      swap1\n      sload\n      swap1\n      0x0100\n      exp\n      swap1\n      div\n      0xffffffffffffffffffffffffffffffffffffffff\n      and\n        /* \"Project/banking.sol\":8063:8561  user(... */\n      0xffffffffffffffffffffffffffffffffffffffff\n      and\n      dup2\n      mstore\n      0x20\n      add\n        /* \"Project/banking.sol\":8117:8122  users */\n      0x01\n        /* \"Project/banking.sol\":8117:8131  users[account] */\n      0x00\n        /* \"Project/banking.sol\":8123:8130  account */\n      dup6\n        /* \"Project/banking.sol\":8117:8131  users[account] */\n      0xffffffffffffffffffffffffffffffffffffffff\n      and\n      0xffffffffffffffffffffffffffffffffffffffff\n      and\n      dup2\n      mstore\n      0x20\n      add\n      swap1\n      dup2\n      mstore\n      0x20\n      add\n      0x00\n      keccak256\n        /* \"Project/banking.sol\":8117:8139  users[account].balance */\n      0x01\n      add\n      sload\n        /* \"Project/banking.sol\":8063:8561  user(... */\n      dup2\n      mstore\n      0x20\n      add\n        /* \"Project/banking.sol\":8153:8158  users */\n      0x01\n        /* \"Project/banking.sol\":8153:8167  users[account] */\n      0x00\n        /* \"Project/banking.sol\":8159:8166  account */\n      dup6\n        /* \"Project/banking.sol\":8153:8167  users[account] */\n      0xffffffffffffffffffffffffffffffffffffffff\n      and\n      0xffffffffffffffffffffffffffffffffffffffff\n      and\n      dup2\n      mstore\n      0x20\n      add\n      swap1\n      dup2\n      mstore\n      0x20\n      add\n      0x00\n      keccak256\n        /* \"Project/banking.sol\":8153:8178  users[account].timeperiod */\n      0x02\n      add\n      sload\n        /* \"Project/banking.sol\":8063:8561  user(... */\n      dup2\n      mstore\n      0x20\n      add\n        /* \"Project/banking.sol\":8192:8197  users */\n      0x01\n        /* \"Project/banking.sol\":8192:8206  users[account] */\n      0x00\n        /* \"Project/banking.sol\":8198:8205  account */\n      dup6\n        /* \"Project/banking.sol\":8192:8206  users[account] */\n      0xffffffffffffffffffffffffffffffffffffffff\n      and\n      0xffffffffffffffffffffffffffffffffffffffff\n      and\n      dup2\n      mstore\n      0x20\n      add\n      swap1\n      dup2\n      mstore\n      0x20\n      add\n      0x00\n      keccak256\n        /* \"Project/banking.sol\":8192:8214  users[account].carLoan */\n      0x03\n      add\n      sload\n        /* \"Project/banking.sol\":8063:8561  user(... */\n      dup2\n      mstore\n      0x20\n      add\n        /* \"Project/banking.sol\":8228:8233  users */\n      0x01\n        /* \"Project/banking.sol\":8228:8242  users[account] */\n      0x00\n        /* \"Project/banking.sol\":8234:8241  account */\n      dup6\n        /* \"Project/banking.sol\":8228:8242  users[account] */\n      0xffffffffffffffffffffffffffffffffffffffff\n      and\n      0xffffffffffffffffffffffffffffffffffffffff\n      and\n      dup2\n      mstore\n      0x20\n      add\n      swap1\n      dup2\n      mstore\n      0x20\n      add\n      0x00\n      keccak256\n        /* \"Project/banking.sol\":8228:8251  users[account].homeLoan */\n      0x04\n      add\n      sload\n        /* \"Project/banking.sol\":8063:8561  user(... */\n      dup2\n      mstore\n      0x20\n      add\n        /* \"Project/banking.sol\":8265:8270  users */\n      0x01\n        /* \"Project/banking.sol\":8265:8279  users[account] */\n      0x00\n        /* \"Project/banking.sol\":8271:8278  account */\n      dup6\n        /* \"Project/banking.sol\":8265:8279  users[account] */\n      0xffffffffffffffffffffffffffffffffffffffff\n      and\n      0xffffffffffffffffffffffffffffffffffffffff\n      and\n      dup2\n      mstore\n      0x20\n      add\n      swap1\n      dup2\n      mstore\n      0x20\n      add\n      0x00\n      keccak256\n        /* \"Project/banking.sol\":8265:8292  users[account].personalLoan */\n      0x05\n      add\n      sload\n        /* \"Project/banking.sol\":8063:8561  user(... */\n      dup2\n      mstore\n      0x20\n      add\n        /* \"Project/banking.sol\":8306:8311  users */\n      0x01\n        /* \"Project/banking.sol\":8306:8320  users[account] */\n      0x00\n        /* \"Project/banking.sol\":8312:8319  account */\n      dup6\n        /* \"Project/banking.sol\":8306:8320  users[account] */\n      0xffffffffffffffffffffffffffffffffffffffff\n      and\n      0xffffffffffffffffffffffffffffffffffffffff\n      and\n      dup2\n      mstore\n      0x20\n      add\n      swap1\n      dup2\n      mstore\n      0x20\n      add\n      0x00\n      keccak256\n        /* \"Project/banking.sol\":8306:8327  users[account].carEmi */\n      0x06\n      add\n      sload\n        /* \"Project/banking.sol\":8063:8561  user(... */\n      dup2\n      mstore\n      0x20\n      add\n        /* \"Project/banking.sol\":8341:8346  users */\n      0x01\n        /* \"Project/banking.sol\":8341:8355  users[account] */\n      0x00\n        /* \"Project/banking.sol\":8347:8354  account */\n      dup6\n        /* \"Project/banking.sol\":8341:8355  users[account] */\n      0xffffffffffffffffffffffffffffffffffffffff\n      and\n      0xffffffffffffffffffffffffffffffffffffffff\n      and\n      dup2\n      mstore\n      0x20\n      add\n      swap1\n      dup2\n      mstore\n      0x20\n      add\n      0x00\n      keccak256\n        /* \"Project/banking.sol\":8341:8363  users[account].homeEmi */\n      0x07\n      add\n      sload\n        /* \"Project/banking.sol\":8063:8561  user(... */\n      dup2\n      mstore\n      0x20\n      add\n        /* \"Project/banking.sol\":8377:8382  users */\n      0x01\n        /* \"Project/banking.sol\":8377:8391  users[account] */\n      0x00\n        /* \"Project/banking.sol\":8383:8390  account */\n      dup6\n        /* \"Project/banking.sol\":8377:8391  users[account] */\n      0xffffffffffffffffffffffffffffffffffffffff\n      and\n      0xffffffffffffffffffffffffffffffffffffffff\n      and\n      dup2\n      mstore\n      0x20\n      add\n      swap1\n      dup2\n      mstore\n      0x20\n      add\n      0x00\n      keccak256\n        /* \"Project/banking.sol\":8377:8407  users[account].personalLoanEmi */\n      0x08\n      add\n      sload\n        /* \"Project/banking.sol\":8063:8561  user(... */\n      dup2\n      mstore\n      0x20\n      add\n        /* \"Project/banking.sol\":8421:8426  users */\n      0x01\n        /* \"Project/banking.sol\":8421:8435  users[account] */\n      0x00\n        /* \"Project/banking.sol\":8427:8434  account */\n      dup6\n        /* \"Project/banking.sol\":8421:8435  users[account] */\n      0xffffffffffffffffffffffffffffffffffffffff\n      and\n      0xffffffffffffffffffffffffffffffffffffffff\n      and\n      dup2\n      mstore\n      0x20\n      add\n      swap1\n      dup2\n      mstore\n      0x20\n      add\n      0x00\n      keccak256\n        /* \"Project/banking.sol\":8421:8453  users[account].carLoanTimeperiod */\n      0x09\n      add\n      sload\n        /* \"Project/banking.sol\":8063:8561  user(... */\n      dup2\n      mstore\n      0x20\n      add\n        /* \"Project/banking.sol\":8467:8472  users */\n      0x01\n        /* \"Project/banking.sol\":8467:8481  users[account] */\n      0x00\n        /* \"Project/banking.sol\":8473:8480  account */\n      dup6\n        /* \"Project/banking.sol\":8467:8481  users[account] */\n      0xffffffffffffffffffffffffffffffffffffffff\n      and\n      0xffffffffffffffffffffffffffffffffffffffff\n      and\n      dup2\n      mstore\n      0x20\n      add\n      swap1\n      dup2\n      mstore\n      0x20\n      add\n      0x00\n      keccak256\n        /* \"Project/banking.sol\":8467:8500  users[account].homeLoanTimeperiod */\n      0x0a\n      add\n      sload\n        /* \"Project/banking.sol\":8063:8561  user(... */\n      dup2\n      mstore\n      0x20\n      add\n        /* \"Project/banking.sol\":8514:8519  users */\n      0x01\n        /* \"Project/banking.sol\":8514:8528  users[account] */\n      0x00\n        /* \"Project/banking.sol\":8520:8527  account */\n      dup6\n        /* \"Project/banking.sol\":8514:8528  users[account] */\n      0xffffffffffffffffffffffffffffffffffffffff\n      and\n      0xffffffffffffffffffffffffffffffffffffffff\n      and\n      dup2\n      mstore\n      0x20\n      add\n      swap1\n      dup2\n      mstore\n      0x20\n      add\n      0x00\n      keccak256\n        /* \"Project/banking.sol\":8514:8551  users[account].personalLoanTimeperiod */\n      0x0b\n      add\n      sload\n        /* \"Project/banking.sol\":8063:8561  user(... */\n      dup2\n      mstore\n      pop\n        /* \"Project/banking.sol\":8046:8051  users */\n      0x01\n        /* \"Project/banking.sol\":8046:8060  users[account] */\n      0x00\n        /* \"Project/banking.sol\":8052:8059  account */\n      dup5\n        /* \"Project/banking.sol\":8046:8060  users[account] */\n      0xffffffffffffffffffffffffffffffffffffffff\n      and\n      0xffffffffffffffffffffffffffffffffffffffff\n      and\n      dup2\n      mstore\n      0x20\n      add\n      swap1\n      dup2\n      mstore\n      0x20\n      add\n      0x00\n      keccak256\n        /* \"Project/banking.sol\":8046:8561  users[account] = user(... */\n      0x00\n      dup3\n      add\n      mload\n      dup2\n      0x00\n      add\n      exp(0x0100, 0x00)\n      dup2\n      sload\n      dup2\n      0xffffffffffffffffffffffffffffffffffffffff\n      mul\n      not\n      and\n      swap1\n      dup4\n      0xffffffffffffffffffffffffffffffffffffffff\n      and\n      mul\n      or\n      swap1\n      sstore\n      pop\n      0x20\n      dup3\n      add\n      mload\n      dup2\n      0x01\n      add\n      sstore\n      0x40\n      dup3\n      add\n      mload\n      dup2\n      0x02\n      add\n      sstore\n      0x60\n      dup3\n      add\n      mload\n      dup2\n      0x03\n      add\n      sstore\n      0x80\n      dup3\n      add\n      mload\n      dup2\n      0x04\n      add\n      sstore\n      0xa0\n      dup3\n      add\n      mload\n      dup2\n      0x05\n      add\n      sstore\n      0xc0\n      dup3\n      add\n      mload\n      dup2\n      0x06\n      add\n      sstore\n      0xe0\n      dup3\n      add\n      mload\n      dup2\n      0x07\n      add\n      sstore\n      0x0100\n      dup3\n      add\n      mload\n      dup2\n      0x08\n      add\n      sstore\n      0x0120\n      dup3\n      add\n      mload\n      dup2\n      0x09\n      add\n      sstore\n      0x0140\n      dup3\n      add\n      mload\n      dup2\n      0x0a\n      add\n      sstore\n      0x0160\n      dup3\n      add\n      mload\n      dup2\n      0x0b\n      add\n      sstore\n      swap1\n      pop\n      pop\n        /* \"Project/banking.sol\":6047:8568  function payEmi(address payable account, string memory _input) public {... */\n      pop\n      pop\n      jump\t// out\n        /* \"Project/banking.sol\":1779:5151  function Loan(... */\n    tag_47:\n        /* \"Project/banking.sol\":1961:1962  0 */\n      0x00\n        /* \"Project/banking.sol\":1942:1963  account != address(0) */\n      0xffffffffffffffffffffffffffffffffffffffff\n      and\n        /* \"Project/banking.sol\":1942:1949  account */\n      dup5\n        /* \"Project/banking.sol\":1942:1963  account != address(0) */\n      0xffffffffffffffffffffffffffffffffffffffff\n      and\n      sub\n        /* \"Project/banking.sol\":1934:1995  require(account != address(0), \"zero address is not allowed\") */\n      tag_129\n      jumpi\n      mload(0x40)\n      0x08c379a000000000000000000000000000000000000000000000000000000000\n      dup2\n      mstore\n      0x04\n      add\n      tag_130\n      swap1\n      tag_68\n      jump\t// in\n    tag_130:\n      mload(0x40)\n      dup1\n      swap2\n      sub\n      swap1\n      revert\n    tag_129:\n        /* \"Project/banking.sol\":2023:2024  0 */\n      0x00\n        /* \"Project/banking.sol\":2013:2019  amount */\n      dup4\n        /* \"Project/banking.sol\":2013:2024  amount != 0 */\n      sub\n        /* \"Project/banking.sol\":2005:2052  require(amount != 0, \"please send some amount\") */\n      tag_131\n      jumpi\n      mload(0x40)\n      0x08c379a000000000000000000000000000000000000000000000000000000000\n      dup2\n      mstore\n      0x04\n      add\n      tag_132\n      swap1\n      tag_71\n      jump\t// in\n    tag_132:\n      mload(0x40)\n      dup1\n      swap2\n      sub\n      swap1\n      revert\n    tag_131:\n        /* \"Project/banking.sol\":2062:2069  account */\n      dup4\n        /* \"Project/banking.sol\":2062:2078  account.transfer */\n      0xffffffffffffffffffffffffffffffffffffffff\n      and\n        /* \"Project/banking.sol\":2062:2086  account.transfer(amount) */\n      0x08fc\n        /* \"Project/banking.sol\":2079:2085  amount */\n      dup5\n        /* \"Project/banking.sol\":2062:2086  account.transfer(amount) */\n      swap1\n      dup2\n      iszero\n      mul\n      swap1\n      mload(0x40)\n      0x00\n      mload(0x40)\n      dup1\n      dup4\n      sub\n      dup2\n      dup6\n      dup9\n      dup9\n      call\n      swap4\n      pop\n      pop\n      pop\n      pop\n      iszero\n      dup1\n      iszero\n      tag_134\n      jumpi\n      returndatasize\n      0x00\n      dup1\n      returndatacopy\n      revert(0x00, returndatasize)\n    tag_134:\n      pop\n        /* \"Project/banking.sol\":2122:2128  amount */\n      dup3\n        /* \"Project/banking.sol\":2096:2101  users */\n      0x01\n        /* \"Project/banking.sol\":2096:2110  users[account] */\n      0x00\n        /* \"Project/banking.sol\":2102:2109  account */\n      dup7\n        /* \"Project/banking.sol\":2096:2110  users[account] */\n      0xffffffffffffffffffffffffffffffffffffffff\n      and\n      0xffffffffffffffffffffffffffffffffffffffff\n      and\n      dup2\n      mstore\n      0x20\n      add\n      swap1\n      dup2\n      mstore\n      0x20\n      add\n      0x00\n      keccak256\n        /* \"Project/banking.sol\":2096:2118  users[account].balance */\n      0x01\n      add\n      0x00\n        /* \"Project/banking.sol\":2096:2128  users[account].balance += amount */\n      dup3\n      dup3\n      sload\n      tag_135\n      swap2\n      swap1\n      tag_73\n      jump\t// in\n    tag_135:\n      swap3\n      pop\n      pop\n      dup2\n      swap1\n      sstore\n      pop\n        /* \"Project/banking.sol\":2409:2432  abi.encodePacked(\"car\") */\n      add(0x20, mload(0x40))\n      tag_136\n      swap1\n      tag_83\n      jump\t// in\n    tag_136:\n      mload(0x40)\n      0x20\n      dup2\n      dup4\n      sub\n      sub\n      dup2\n      mstore\n      swap1\n      0x40\n      mstore\n        /* \"Project/banking.sol\":2399:2433  keccak256(abi.encodePacked(\"car\")) */\n      dup1\n      mload\n      swap1\n      0x20\n      add\n      keccak256\n        /* \"Project/banking.sol\":2371:2377  _input */\n      dup2\n        /* \"Project/banking.sol\":2354:2378  abi.encodePacked(_input) */\n      add(0x20, mload(0x40))\n      tag_137\n      swap2\n      swap1\n      tag_85\n      jump\t// in\n    tag_137:\n      mload(0x40)\n      0x20\n      dup2\n      dup4\n      sub\n      sub\n      dup2\n      mstore\n      swap1\n      0x40\n      mstore\n        /* \"Project/banking.sol\":2344:2379  keccak256(abi.encodePacked(_input)) */\n      dup1\n      mload\n      swap1\n      0x20\n      add\n      keccak256\n        /* \"Project/banking.sol\":2344:2433  keccak256(abi.encodePacked(_input)) ==... */\n      eq\n        /* \"Project/banking.sol\":2344:2543  keccak256(abi.encodePacked(_input)) ==... */\n      dup1\n      tag_138\n      jumpi\n      pop\n        /* \"Project/banking.sol\":2518:2542  abi.encodePacked(\"home\") */\n      add(0x20, mload(0x40))\n      tag_139\n      swap1\n      tag_88\n      jump\t// in\n    tag_139:\n      mload(0x40)\n      0x20\n      dup2\n      dup4\n      sub\n      sub\n      dup2\n      mstore\n      swap1\n      0x40\n      mstore\n        /* \"Project/banking.sol\":2508:2543  keccak256(abi.encodePacked(\"home\")) */\n      dup1\n      mload\n      swap1\n      0x20\n      add\n      keccak256\n        /* \"Project/banking.sol\":2480:2486  _input */\n      dup2\n        /* \"Project/banking.sol\":2463:2487  abi.encodePacked(_input) */\n      add(0x20, mload(0x40))\n      tag_140\n      swap2\n      swap1\n      tag_85\n      jump\t// in\n    tag_140:\n      mload(0x40)\n      0x20\n      dup2\n      dup4\n      sub\n      sub\n      dup2\n      mstore\n      swap1\n      0x40\n      mstore\n        /* \"Project/banking.sol\":2453:2488  keccak256(abi.encodePacked(_input)) */\n      dup1\n      mload\n      swap1\n      0x20\n      add\n      keccak256\n        /* \"Project/banking.sol\":2453:2543  keccak256(abi.encodePacked(_input)) ==... */\n      eq\n        /* \"Project/banking.sol\":2344:2543  keccak256(abi.encodePacked(_input)) ==... */\n    tag_138:\n        /* \"Project/banking.sol\":2344:2657  keccak256(abi.encodePacked(_input)) ==... */\n      dup1\n      tag_141\n      jumpi\n      pop\n        /* \"Project/banking.sol\":2628:2656  abi.encodePacked(\"personal\") */\n      add(0x20, mload(0x40))\n      tag_142\n      swap1\n      tag_92\n      jump\t// in\n    tag_142:\n      mload(0x40)\n      0x20\n      dup2\n      dup4\n      sub\n      sub\n      dup2\n      mstore\n      swap1\n      0x40\n      mstore\n        /* \"Project/banking.sol\":2618:2657  keccak256(abi.encodePacked(\"personal\")) */\n      dup1\n      mload\n      swap1\n      0x20\n      add\n      keccak256\n        /* \"Project/banking.sol\":2590:2596  _input */\n      dup2\n        /* \"Project/banking.sol\":2573:2597  abi.encodePacked(_input) */\n      add(0x20, mload(0x40))\n      tag_143\n      swap2\n      swap1\n      tag_85\n      jump\t// in\n    tag_143:\n      mload(0x40)\n      0x20\n      dup2\n      dup4\n      sub\n      sub\n      dup2\n      mstore\n      swap1\n      0x40\n      mstore\n        /* \"Project/banking.sol\":2563:2598  keccak256(abi.encodePacked(_input)) */\n      dup1\n      mload\n      swap1\n      0x20\n      add\n      keccak256\n        /* \"Project/banking.sol\":2563:2657  keccak256(abi.encodePacked(_input)) ==... */\n      eq\n        /* \"Project/banking.sol\":2344:2657  keccak256(abi.encodePacked(_input)) ==... */\n    tag_141:\n        /* \"Project/banking.sol\":2323:2700  require(... */\n      tag_144\n      jumpi\n      mload(0x40)\n      0x08c379a000000000000000000000000000000000000000000000000000000000\n      dup2\n      mstore\n      0x04\n      add\n      tag_145\n      swap1\n      tag_96\n      jump\t// in\n    tag_145:\n      mload(0x40)\n      dup1\n      swap2\n      sub\n      swap1\n      revert\n    tag_144:\n        /* \"Project/banking.sol\":2788:2811  abi.encodePacked(\"car\") */\n      add(0x20, mload(0x40))\n      tag_146\n      swap1\n      tag_83\n      jump\t// in\n    tag_146:\n      mload(0x40)\n      0x20\n      dup2\n      dup4\n      sub\n      sub\n      dup2\n      mstore\n      swap1\n      0x40\n      mstore\n        /* \"Project/banking.sol\":2778:2812  keccak256(abi.encodePacked(\"car\")) */\n      dup1\n      mload\n      swap1\n      0x20\n      add\n      keccak256\n        /* \"Project/banking.sol\":2754:2760  _input */\n      dup2\n        /* \"Project/banking.sol\":2737:2761  abi.encodePacked(_input) */\n      add(0x20, mload(0x40))\n      tag_147\n      swap2\n      swap1\n      tag_85\n      jump\t// in\n    tag_147:\n      mload(0x40)\n      0x20\n      dup2\n      dup4\n      sub\n      sub\n      dup2\n      mstore\n      swap1\n      0x40\n      mstore\n        /* \"Project/banking.sol\":2727:2762  keccak256(abi.encodePacked(_input)) */\n      dup1\n      mload\n      swap1\n      0x20\n      add\n      keccak256\n        /* \"Project/banking.sol\":2727:2812  keccak256(abi.encodePacked(_input)) ==... */\n      sub\n        /* \"Project/banking.sol\":2710:4619  if (... */\n      tag_148\n      jumpi\n        /* \"Project/banking.sol\":2887:2888  1 */\n      0x01\n        /* \"Project/banking.sol\":2862:2867  users */\n      dup1\n        /* \"Project/banking.sol\":2862:2876  users[account] */\n      0x00\n        /* \"Project/banking.sol\":2868:2875  account */\n      dup7\n        /* \"Project/banking.sol\":2862:2876  users[account] */\n      0xffffffffffffffffffffffffffffffffffffffff\n      and\n      0xffffffffffffffffffffffffffffffffffffffff\n      and\n      dup2\n      mstore\n      0x20\n      add\n      swap1\n      dup2\n      mstore\n      0x20\n      add\n      0x00\n      keccak256\n        /* \"Project/banking.sol\":2862:2884  users[account].carLoan */\n      0x03\n      add\n      sload\n        /* \"Project/banking.sol\":2862:2888  users[account].carLoan < 1 */\n      lt\n        /* \"Project/banking.sol\":2837:2968  require(... */\n      tag_149\n      jumpi\n      mload(0x40)\n      0x08c379a000000000000000000000000000000000000000000000000000000000\n      dup2\n      mstore\n      0x04\n      add\n      tag_150\n      swap1\n      tag_151\n      jump\t// in\n    tag_150:\n      mload(0x40)\n      dup1\n      swap2\n      sub\n      swap1\n      revert\n    tag_149:\n        /* \"Project/banking.sol\":2982:2995  uint256 carSI */\n      0x00\n        /* \"Project/banking.sol\":3021:3025  1200 */\n      0x04b0\n        /* \"Project/banking.sol\":3012:3017  month */\n      dup4\n        /* \"Project/banking.sol\":3008:3009  8 */\n      0x08\n        /* \"Project/banking.sol\":2999:3005  amount */\n      dup7\n        /* \"Project/banking.sol\":2999:3009  amount * 8 */\n      tag_152\n      swap2\n      swap1\n      tag_153\n      jump\t// in\n    tag_152:\n        /* \"Project/banking.sol\":2999:3017  amount * 8 * month */\n      tag_154\n      swap2\n      swap1\n      tag_153\n      jump\t// in\n    tag_154:\n        /* \"Project/banking.sol\":2998:3025  (amount * 8 * month) / 1200 */\n      tag_155\n      swap2\n      swap1\n      tag_156\n      jump\t// in\n    tag_155:\n        /* \"Project/banking.sol\":2982:3025  uint256 carSI = (amount * 8 * month) / 1200 */\n      swap1\n      pop\n        /* \"Project/banking.sol\":3073:3078  carSI */\n      dup1\n        /* \"Project/banking.sol\":3064:3070  amount */\n      dup5\n        /* \"Project/banking.sol\":3064:3078  amount + carSI */\n      tag_157\n      swap2\n      swap1\n      tag_73\n      jump\t// in\n    tag_157:\n        /* \"Project/banking.sol\":3039:3044  users */\n      0x01\n        /* \"Project/banking.sol\":3039:3053  users[account] */\n      0x00\n        /* \"Project/banking.sol\":3045:3052  account */\n      dup8\n        /* \"Project/banking.sol\":3039:3053  users[account] */\n      0xffffffffffffffffffffffffffffffffffffffff\n      and\n      0xffffffffffffffffffffffffffffffffffffffff\n      and\n      dup2\n      mstore\n      0x20\n      add\n      swap1\n      dup2\n      mstore\n      0x20\n      add\n      0x00\n      keccak256\n        /* \"Project/banking.sol\":3039:3061  users[account].carLoan */\n      0x03\n      add\n        /* \"Project/banking.sol\":3039:3078  users[account].carLoan = amount + carSI */\n      dup2\n      swap1\n      sstore\n      pop\n        /* \"Project/banking.sol\":3141:3146  month */\n      dup3\n        /* \"Project/banking.sol\":3116:3121  users */\n      0x01\n        /* \"Project/banking.sol\":3116:3130  users[account] */\n      0x00\n        /* \"Project/banking.sol\":3122:3129  account */\n      dup8\n        /* \"Project/banking.sol\":3116:3130  users[account] */\n      0xffffffffffffffffffffffffffffffffffffffff\n      and\n      0xffffffffffffffffffffffffffffffffffffffff\n      and\n      dup2\n      mstore\n      0x20\n      add\n      swap1\n      dup2\n      mstore\n      0x20\n      add\n      0x00\n      keccak256\n        /* \"Project/banking.sol\":3116:3138  users[account].carLoan */\n      0x03\n      add\n      sload\n        /* \"Project/banking.sol\":3116:3146  users[account].carLoan / month */\n      tag_158\n      swap2\n      swap1\n      tag_156\n      jump\t// in\n    tag_158:\n        /* \"Project/banking.sol\":3092:3097  users */\n      0x01\n        /* \"Project/banking.sol\":3092:3106  users[account] */\n      0x00\n        /* \"Project/banking.sol\":3098:3105  account */\n      dup8\n        /* \"Project/banking.sol\":3092:3106  users[account] */\n      0xffffffffffffffffffffffffffffffffffffffff\n      and\n      0xffffffffffffffffffffffffffffffffffffffff\n      and\n      dup2\n      mstore\n      0x20\n      add\n      swap1\n      dup2\n      mstore\n      0x20\n      add\n      0x00\n      keccak256\n        /* \"Project/banking.sol\":3092:3113  users[account].carEmi */\n      0x06\n      add\n        /* \"Project/banking.sol\":3092:3146  users[account].carEmi = users[account].carLoan / month */\n      dup2\n      swap1\n      sstore\n      pop\n        /* \"Project/banking.sol\":3196:3201  month */\n      dup3\n        /* \"Project/banking.sol\":3160:3165  users */\n      0x01\n        /* \"Project/banking.sol\":3160:3174  users[account] */\n      0x00\n        /* \"Project/banking.sol\":3166:3173  account */\n      dup8\n        /* \"Project/banking.sol\":3160:3174  users[account] */\n      0xffffffffffffffffffffffffffffffffffffffff\n      and\n      0xffffffffffffffffffffffffffffffffffffffff\n      and\n      dup2\n      mstore\n      0x20\n      add\n      swap1\n      dup2\n      mstore\n      0x20\n      add\n      0x00\n      keccak256\n        /* \"Project/banking.sol\":3160:3192  users[account].carLoanTimeperiod */\n      0x09\n      add\n      0x00\n        /* \"Project/banking.sol\":3160:3201  users[account].carLoanTimeperiod += month */\n      dup3\n      dup3\n      sload\n      tag_159\n      swap2\n      swap1\n      tag_73\n      jump\t// in\n    tag_159:\n      swap3\n      pop\n      pop\n      dup2\n      swap1\n      sstore\n      pop\n        /* \"Project/banking.sol\":3250:3255  carSI */\n      dup1\n        /* \"Project/banking.sol\":3241:3247  amount */\n      dup5\n        /* \"Project/banking.sol\":3241:3255  amount + carSI */\n      tag_160\n      swap2\n      swap1\n      tag_73\n      jump\t// in\n    tag_160:\n        /* \"Project/banking.sol\":3215:3220  users */\n      0x01\n        /* \"Project/banking.sol\":3215:3229  users[account] */\n      0x00\n        /* \"Project/banking.sol\":3221:3228  account */\n      dup8\n        /* \"Project/banking.sol\":3215:3229  users[account] */\n      0xffffffffffffffffffffffffffffffffffffffff\n      and\n      0xffffffffffffffffffffffffffffffffffffffff\n      and\n      dup2\n      mstore\n      0x20\n      add\n      swap1\n      dup2\n      mstore\n      0x20\n      add\n      0x00\n      keccak256\n        /* \"Project/banking.sol\":3215:3237  users[account].carLoan */\n      0x03\n      add\n      0x00\n        /* \"Project/banking.sol\":3215:3255  users[account].carLoan += amount + carSI */\n      dup3\n      dup3\n      sload\n      tag_161\n      swap2\n      swap1\n      tag_73\n      jump\t// in\n    tag_161:\n      swap3\n      pop\n      pop\n      dup2\n      swap1\n      sstore\n      pop\n        /* \"Project/banking.sol\":2823:3266  {... */\n      pop\n        /* \"Project/banking.sol\":2710:4619  if (... */\n      jump(tag_162)\n    tag_148:\n        /* \"Project/banking.sol\":3350:3374  abi.encodePacked(\"home\") */\n      add(0x20, mload(0x40))\n      tag_163\n      swap1\n      tag_88\n      jump\t// in\n    tag_163:\n      mload(0x40)\n      0x20\n      dup2\n      dup4\n      sub\n      sub\n      dup2\n      mstore\n      swap1\n      0x40\n      mstore\n        /* \"Project/banking.sol\":3340:3375  keccak256(abi.encodePacked(\"home\")) */\n      dup1\n      mload\n      swap1\n      0x20\n      add\n      keccak256\n        /* \"Project/banking.sol\":3316:3322  _input */\n      dup2\n        /* \"Project/banking.sol\":3299:3323  abi.encodePacked(_input) */\n      add(0x20, mload(0x40))\n      tag_164\n      swap2\n      swap1\n      tag_85\n      jump\t// in\n    tag_164:\n      mload(0x40)\n      0x20\n      dup2\n      dup4\n      sub\n      sub\n      dup2\n      mstore\n      swap1\n      0x40\n      mstore\n        /* \"Project/banking.sol\":3289:3324  keccak256(abi.encodePacked(_input)) */\n      dup1\n      mload\n      swap1\n      0x20\n      add\n      keccak256\n        /* \"Project/banking.sol\":3289:3375  keccak256(abi.encodePacked(_input)) ==... */\n      sub\n        /* \"Project/banking.sol\":3272:4619  if (... */\n      tag_165\n      jumpi\n        /* \"Project/banking.sol\":3451:3452  1 */\n      0x01\n        /* \"Project/banking.sol\":3425:3430  users */\n      dup1\n        /* \"Project/banking.sol\":3425:3439  users[account] */\n      0x00\n        /* \"Project/banking.sol\":3431:3438  account */\n      dup7\n        /* \"Project/banking.sol\":3425:3439  users[account] */\n      0xffffffffffffffffffffffffffffffffffffffff\n      and\n      0xffffffffffffffffffffffffffffffffffffffff\n      and\n      dup2\n      mstore\n      0x20\n      add\n      swap1\n      dup2\n      mstore\n      0x20\n      add\n      0x00\n      keccak256\n        /* \"Project/banking.sol\":3425:3448  users[account].homeLoan */\n      0x04\n      add\n      sload\n        /* \"Project/banking.sol\":3425:3452  users[account].homeLoan < 1 */\n      lt\n        /* \"Project/banking.sol\":3400:3541  require(... */\n      tag_166\n      jumpi\n      mload(0x40)\n      0x08c379a000000000000000000000000000000000000000000000000000000000\n      dup2\n      mstore\n      0x04\n      add\n      tag_167\n      swap1\n      tag_168\n      jump\t// in\n    tag_167:\n      mload(0x40)\n      dup1\n      swap2\n      sub\n      swap1\n      revert\n    tag_166:\n        /* \"Project/banking.sol\":3555:3569  uint256 homeSI */\n      0x00\n        /* \"Project/banking.sol\":3595:3599  1200 */\n      0x04b0\n        /* \"Project/banking.sol\":3586:3591  month */\n      dup4\n        /* \"Project/banking.sol\":3582:3583  6 */\n      0x06\n        /* \"Project/banking.sol\":3573:3579  amount */\n      dup7\n        /* \"Project/banking.sol\":3573:3583  amount * 6 */\n      tag_169\n      swap2\n      swap1\n      tag_153\n      jump\t// in\n    tag_169:\n        /* \"Project/banking.sol\":3573:3591  amount * 6 * month */\n      tag_170\n      swap2\n      swap1\n      tag_153\n      jump\t// in\n    tag_170:\n        /* \"Project/banking.sol\":3572:3599  (amount * 6 * month) / 1200 */\n      tag_171\n      swap2\n      swap1\n      tag_156\n      jump\t// in\n    tag_171:\n        /* \"Project/banking.sol\":3555:3599  uint256 homeSI = (amount * 6 * month) / 1200 */\n      swap1\n      pop\n        /* \"Project/banking.sol\":3613:3636  uint256 finalAmountHome */\n      0x00\n        /* \"Project/banking.sol\":3648:3654  homeSI */\n      dup2\n        /* \"Project/banking.sol\":3639:3645  amount */\n      dup6\n        /* \"Project/banking.sol\":3639:3654  amount + homeSI */\n      tag_172\n      swap2\n      swap1\n      tag_73\n      jump\t// in\n    tag_172:\n        /* \"Project/banking.sol\":3613:3654  uint256 finalAmountHome = amount + homeSI */\n      swap1\n      pop\n        /* \"Project/banking.sol\":3694:3709  finalAmountHome */\n      dup1\n        /* \"Project/banking.sol\":3668:3673  users */\n      0x01\n        /* \"Project/banking.sol\":3668:3682  users[account] */\n      0x00\n        /* \"Project/banking.sol\":3674:3681  account */\n      dup9\n        /* \"Project/banking.sol\":3668:3682  users[account] */\n      0xffffffffffffffffffffffffffffffffffffffff\n      and\n      0xffffffffffffffffffffffffffffffffffffffff\n      and\n      dup2\n      mstore\n      0x20\n      add\n      swap1\n      dup2\n      mstore\n      0x20\n      add\n      0x00\n      keccak256\n        /* \"Project/banking.sol\":3668:3691  users[account].homeLoan */\n      0x04\n      add\n        /* \"Project/banking.sol\":3668:3709  users[account].homeLoan = finalAmountHome */\n      dup2\n      swap1\n      sstore\n      pop\n        /* \"Project/banking.sol\":3774:3779  month */\n      dup4\n        /* \"Project/banking.sol\":3748:3753  users */\n      0x01\n        /* \"Project/banking.sol\":3748:3762  users[account] */\n      0x00\n        /* \"Project/banking.sol\":3754:3761  account */\n      dup9\n        /* \"Project/banking.sol\":3748:3762  users[account] */\n      0xffffffffffffffffffffffffffffffffffffffff\n      and\n      0xffffffffffffffffffffffffffffffffffffffff\n      and\n      dup2\n      mstore\n      0x20\n      add\n      swap1\n      dup2\n      mstore\n      0x20\n      add\n      0x00\n      keccak256\n        /* \"Project/banking.sol\":3748:3771  users[account].homeLoan */\n      0x04\n      add\n      sload\n        /* \"Project/banking.sol\":3748:3779  users[account].homeLoan / month */\n      tag_173\n      swap2\n      swap1\n      tag_156\n      jump\t// in\n    tag_173:\n        /* \"Project/banking.sol\":3723:3728  users */\n      0x01\n        /* \"Project/banking.sol\":3723:3737  users[account] */\n      0x00\n        /* \"Project/banking.sol\":3729:3736  account */\n      dup9\n        /* \"Project/banking.sol\":3723:3737  users[account] */\n      0xffffffffffffffffffffffffffffffffffffffff\n      and\n      0xffffffffffffffffffffffffffffffffffffffff\n      and\n      dup2\n      mstore\n      0x20\n      add\n      swap1\n      dup2\n      mstore\n      0x20\n      add\n      0x00\n      keccak256\n        /* \"Project/banking.sol\":3723:3745  users[account].homeEmi */\n      0x07\n      add\n        /* \"Project/banking.sol\":3723:3779  users[account].homeEmi = users[account].homeLoan / month */\n      dup2\n      swap1\n      sstore\n      pop\n        /* \"Project/banking.sol\":3830:3835  month */\n      dup4\n        /* \"Project/banking.sol\":3793:3798  users */\n      0x01\n        /* \"Project/banking.sol\":3793:3807  users[account] */\n      0x00\n        /* \"Project/banking.sol\":3799:3806  account */\n      dup9\n        /* \"Project/banking.sol\":3793:3807  users[account] */\n      0xffffffffffffffffffffffffffffffffffffffff\n      and\n      0xffffffffffffffffffffffffffffffffffffffff\n      and\n      dup2\n      mstore\n      0x20\n      add\n      swap1\n      dup2\n      mstore\n      0x20\n      add\n      0x00\n      keccak256\n        /* \"Project/banking.sol\":3793:3826  users[account].homeLoanTimeperiod */\n      0x0a\n      add\n      0x00\n        /* \"Project/banking.sol\":3793:3835  users[account].homeLoanTimeperiod += month */\n      dup3\n      dup3\n      sload\n      tag_174\n      swap2\n      swap1\n      tag_73\n      jump\t// in\n    tag_174:\n      swap3\n      pop\n      pop\n      dup2\n      swap1\n      sstore\n      pop\n        /* \"Project/banking.sol\":3885:3891  homeSI */\n      dup2\n        /* \"Project/banking.sol\":3876:3882  amount */\n      dup6\n        /* \"Project/banking.sol\":3876:3891  amount + homeSI */\n      tag_175\n      swap2\n      swap1\n      tag_73\n      jump\t// in\n    tag_175:\n        /* \"Project/banking.sol\":3849:3854  users */\n      0x01\n        /* \"Project/banking.sol\":3849:3863  users[account] */\n      0x00\n        /* \"Project/banking.sol\":3855:3862  account */\n      dup9\n        /* \"Project/banking.sol\":3849:3863  users[account] */\n      0xffffffffffffffffffffffffffffffffffffffff\n      and\n      0xffffffffffffffffffffffffffffffffffffffff\n      and\n      dup2\n      mstore\n      0x20\n      add\n      swap1\n      dup2\n      mstore\n      0x20\n      add\n      0x00\n      keccak256\n        /* \"Project/banking.sol\":3849:3872  users[account].homeLoan */\n      0x04\n      add\n      0x00\n        /* \"Project/banking.sol\":3849:3891  users[account].homeLoan += amount + homeSI */\n      dup3\n      dup3\n      sload\n      tag_176\n      swap2\n      swap1\n      tag_73\n      jump\t// in\n    tag_176:\n      swap3\n      pop\n      pop\n      dup2\n      swap1\n      sstore\n      pop\n        /* \"Project/banking.sol\":3386:3902  {... */\n      pop\n      pop\n        /* \"Project/banking.sol\":3272:4619  if (... */\n      jump(tag_177)\n    tag_165:\n        /* \"Project/banking.sol\":3986:4014  abi.encodePacked(\"personal\") */\n      add(0x20, mload(0x40))\n      tag_178\n      swap1\n      tag_92\n      jump\t// in\n    tag_178:\n      mload(0x40)\n      0x20\n      dup2\n      dup4\n      sub\n      sub\n      dup2\n      mstore\n      swap1\n      0x40\n      mstore\n        /* \"Project/banking.sol\":3976:4015  keccak256(abi.encodePacked(\"personal\")) */\n      dup1\n      mload\n      swap1\n      0x20\n      add\n      keccak256\n        /* \"Project/banking.sol\":3952:3958  _input */\n      dup2\n        /* \"Project/banking.sol\":3935:3959  abi.encodePacked(_input) */\n      add(0x20, mload(0x40))\n      tag_179\n      swap2\n      swap1\n      tag_85\n      jump\t// in\n    tag_179:\n      mload(0x40)\n      0x20\n      dup2\n      dup4\n      sub\n      sub\n      dup2\n      mstore\n      swap1\n      0x40\n      mstore\n        /* \"Project/banking.sol\":3925:3960  keccak256(abi.encodePacked(_input)) */\n      dup1\n      mload\n      swap1\n      0x20\n      add\n      keccak256\n        /* \"Project/banking.sol\":3925:4015  keccak256(abi.encodePacked(_input)) ==... */\n      sub\n        /* \"Project/banking.sol\":3908:4619  if (... */\n      tag_180\n      jumpi\n        /* \"Project/banking.sol\":4095:4096  1 */\n      0x01\n        /* \"Project/banking.sol\":4065:4070  users */\n      dup1\n        /* \"Project/banking.sol\":4065:4079  users[account] */\n      0x00\n        /* \"Project/banking.sol\":4071:4078  account */\n      dup7\n        /* \"Project/banking.sol\":4065:4079  users[account] */\n      0xffffffffffffffffffffffffffffffffffffffff\n      and\n      0xffffffffffffffffffffffffffffffffffffffff\n      and\n      dup2\n      mstore\n      0x20\n      add\n      swap1\n      dup2\n      mstore\n      0x20\n      add\n      0x00\n      keccak256\n        /* \"Project/banking.sol\":4065:4092  users[account].personalLoan */\n      0x05\n      add\n      sload\n        /* \"Project/banking.sol\":4065:4096  users[account].personalLoan < 1 */\n      lt\n        /* \"Project/banking.sol\":4040:4181  require(... */\n      tag_181\n      jumpi\n      mload(0x40)\n      0x08c379a000000000000000000000000000000000000000000000000000000000\n      dup2\n      mstore\n      0x04\n      add\n      tag_182\n      swap1\n      tag_183\n      jump\t// in\n    tag_182:\n      mload(0x40)\n      dup1\n      swap2\n      sub\n      swap1\n      revert\n    tag_181:\n        /* \"Project/banking.sol\":4195:4213  uint256 personalSI */\n      0x00\n        /* \"Project/banking.sol\":4240:4244  1200 */\n      0x04b0\n        /* \"Project/banking.sol\":4231:4236  month */\n      dup4\n        /* \"Project/banking.sol\":4226:4228  10 */\n      0x0a\n        /* \"Project/banking.sol\":4217:4223  amount */\n      dup7\n        /* \"Project/banking.sol\":4217:4228  amount * 10 */\n      tag_184\n      swap2\n      swap1\n      tag_153\n      jump\t// in\n    tag_184:\n        /* \"Project/banking.sol\":4217:4236  amount * 10 * month */\n      tag_185\n      swap2\n      swap1\n      tag_153\n      jump\t// in\n    tag_185:\n        /* \"Project/banking.sol\":4216:4244  (amount * 10 * month) / 1200 */\n      tag_186\n      swap2\n      swap1\n      tag_156\n      jump\t// in\n    tag_186:\n        /* \"Project/banking.sol\":4195:4244  uint256 personalSI = (amount * 10 * month) / 1200 */\n      swap1\n      pop\n        /* \"Project/banking.sol\":4258:4285  uint256 finalAmountPersonal */\n      0x00\n        /* \"Project/banking.sol\":4297:4307  personalSI */\n      dup2\n        /* \"Project/banking.sol\":4288:4294  amount */\n      dup6\n        /* \"Project/banking.sol\":4288:4307  amount + personalSI */\n      tag_187\n      swap2\n      swap1\n      tag_73\n      jump\t// in\n    tag_187:\n        /* \"Project/banking.sol\":4258:4307  uint256 finalAmountPersonal = amount + personalSI */\n      swap1\n      pop\n        /* \"Project/banking.sol\":4351:4370  finalAmountPersonal */\n      dup1\n        /* \"Project/banking.sol\":4321:4326  users */\n      0x01\n        /* \"Project/banking.sol\":4321:4335  users[account] */\n      0x00\n        /* \"Project/banking.sol\":4327:4334  account */\n      dup9\n        /* \"Project/banking.sol\":4321:4335  users[account] */\n      0xffffffffffffffffffffffffffffffffffffffff\n      and\n      0xffffffffffffffffffffffffffffffffffffffff\n      and\n      dup2\n      mstore\n      0x20\n      add\n      swap1\n      dup2\n      mstore\n      0x20\n      add\n      0x00\n      keccak256\n        /* \"Project/banking.sol\":4321:4348  users[account].personalLoan */\n      0x05\n      add\n        /* \"Project/banking.sol\":4321:4370  users[account].personalLoan = finalAmountPersonal */\n      dup2\n      swap1\n      sstore\n      pop\n        /* \"Project/banking.sol\":4479:4484  month */\n      dup4\n        /* \"Project/banking.sol\":4433:4438  users */\n      0x01\n        /* \"Project/banking.sol\":4433:4447  users[account] */\n      0x00\n        /* \"Project/banking.sol\":4439:4446  account */\n      dup9\n        /* \"Project/banking.sol\":4433:4447  users[account] */\n      0xffffffffffffffffffffffffffffffffffffffff\n      and\n      0xffffffffffffffffffffffffffffffffffffffff\n      and\n      dup2\n      mstore\n      0x20\n      add\n      swap1\n      dup2\n      mstore\n      0x20\n      add\n      0x00\n      keccak256\n        /* \"Project/banking.sol\":4433:4460  users[account].personalLoan */\n      0x05\n      add\n      sload\n        /* \"Project/banking.sol\":4433:4484  users[account].personalLoan /... */\n      tag_188\n      swap2\n      swap1\n      tag_156\n      jump\t// in\n    tag_188:\n        /* \"Project/banking.sol\":4384:4389  users */\n      0x01\n        /* \"Project/banking.sol\":4384:4398  users[account] */\n      0x00\n        /* \"Project/banking.sol\":4390:4397  account */\n      dup9\n        /* \"Project/banking.sol\":4384:4398  users[account] */\n      0xffffffffffffffffffffffffffffffffffffffff\n      and\n      0xffffffffffffffffffffffffffffffffffffffff\n      and\n      dup2\n      mstore\n      0x20\n      add\n      swap1\n      dup2\n      mstore\n      0x20\n      add\n      0x00\n      keccak256\n        /* \"Project/banking.sol\":4384:4414  users[account].personalLoanEmi */\n      0x08\n      add\n        /* \"Project/banking.sol\":4384:4484  users[account].personalLoanEmi =... */\n      dup2\n      swap1\n      sstore\n      pop\n        /* \"Project/banking.sol\":4539:4544  month */\n      dup4\n        /* \"Project/banking.sol\":4498:4503  users */\n      0x01\n        /* \"Project/banking.sol\":4498:4512  users[account] */\n      0x00\n        /* \"Project/banking.sol\":4504:4511  account */\n      dup9\n        /* \"Project/banking.sol\":4498:4512  users[account] */\n      0xffffffffffffffffffffffffffffffffffffffff\n      and\n      0xffffffffffffffffffffffffffffffffffffffff\n      and\n      dup2\n      mstore\n      0x20\n      add\n      swap1\n      dup2\n      mstore\n      0x20\n      add\n      0x00\n      keccak256\n        /* \"Project/banking.sol\":4498:4535  users[account].personalLoanTimeperiod */\n      0x0b\n      add\n      0x00\n        /* \"Project/banking.sol\":4498:4544  users[account].personalLoanTimeperiod += month */\n      dup3\n      dup3\n      sload\n      tag_189\n      swap2\n      swap1\n      tag_73\n      jump\t// in\n    tag_189:\n      swap3\n      pop\n      pop\n      dup2\n      swap1\n      sstore\n      pop\n        /* \"Project/banking.sol\":4598:4608  personalSI */\n      dup2\n        /* \"Project/banking.sol\":4589:4595  amount */\n      dup6\n        /* \"Project/banking.sol\":4589:4608  amount + personalSI */\n      tag_190\n      swap2\n      swap1\n      tag_73\n      jump\t// in\n    tag_190:\n        /* \"Project/banking.sol\":4558:4563  users */\n      0x01\n        /* \"Project/banking.sol\":4558:4572  users[account] */\n      0x00\n        /* \"Project/banking.sol\":4564:4571  account */\n      dup9\n        /* \"Project/banking.sol\":4558:4572  users[account] */\n      0xffffffffffffffffffffffffffffffffffffffff\n      and\n      0xffffffffffffffffffffffffffffffffffffffff\n      and\n      dup2\n      mstore\n      0x20\n      add\n      swap1\n      dup2\n      mstore\n      0x20\n      add\n      0x00\n      keccak256\n        /* \"Project/banking.sol\":4558:4585  users[account].personalLoan */\n      0x05\n      add\n      0x00\n        /* \"Project/banking.sol\":4558:4608  users[account].personalLoan += amount + personalSI */\n      dup3\n      dup3\n      sload\n      tag_191\n      swap2\n      swap1\n      tag_73\n      jump\t// in\n    tag_191:\n      swap3\n      pop\n      pop\n      dup2\n      swap1\n      sstore\n      pop\n        /* \"Project/banking.sol\":4026:4619  {... */\n      pop\n      pop\n        /* \"Project/banking.sol\":3908:4619  if (... */\n    tag_180:\n        /* \"Project/banking.sol\":3272:4619  if (... */\n    tag_177:\n        /* \"Project/banking.sol\":2710:4619  if (... */\n    tag_162:\n        /* \"Project/banking.sol\":4646:5144  user(... */\n      mload(0x40)\n      dup1\n      0x0180\n      add\n      0x40\n      mstore\n      dup1\n        /* \"Project/banking.sol\":4664:4669  users */\n      0x01\n        /* \"Project/banking.sol\":4664:4678  users[account] */\n      0x00\n        /* \"Project/banking.sol\":4670:4677  account */\n      dup8\n        /* \"Project/banking.sol\":4664:4678  users[account] */\n      0xffffffffffffffffffffffffffffffffffffffff\n      and\n      0xffffffffffffffffffffffffffffffffffffffff\n      and\n      dup2\n      mstore\n      0x20\n      add\n      swap1\n      dup2\n      mstore\n      0x20\n      add\n      0x00\n      keccak256\n        /* \"Project/banking.sol\":4664:4686  users[account].user_id */\n      0x00\n      add\n      0x00\n      swap1\n      sload\n      swap1\n      0x0100\n      exp\n      swap1\n      div\n      0xffffffffffffffffffffffffffffffffffffffff\n      and\n        /* \"Project/banking.sol\":4646:5144  user(... */\n      0xffffffffffffffffffffffffffffffffffffffff\n      and\n      dup2\n      mstore\n      0x20\n      add\n        /* \"Project/banking.sol\":4700:4705  users */\n      0x01\n        /* \"Project/banking.sol\":4700:4714  users[account] */\n      0x00\n        /* \"Project/banking.sol\":4706:4713  account */\n      dup8\n        /* \"Project/banking.sol\":4700:4714  users[account] */\n      0xffffffffffffffffffffffffffffffffffffffff\n      and\n      0xffffffffffffffffffffffffffffffffffffffff\n      and\n      dup2\n      mstore\n      0x20\n      add\n      swap1\n      dup2\n      mstore\n      0x20\n      add\n      0x00\n      keccak256\n        /* \"Project/banking.sol\":4700:4722  users[account].balance */\n      0x01\n      add\n      sload\n        /* \"Project/banking.sol\":4646:5144  user(... */\n      dup2\n      mstore\n      0x20\n      add\n        /* \"Project/banking.sol\":4736:4741  users */\n      0x01\n        /* \"Project/banking.sol\":4736:4750  users[account] */\n      0x00\n        /* \"Project/banking.sol\":4742:4749  account */\n      dup8\n        /* \"Project/banking.sol\":4736:4750  users[account] */\n      0xffffffffffffffffffffffffffffffffffffffff\n      and\n      0xffffffffffffffffffffffffffffffffffffffff\n      and\n      dup2\n      mstore\n      0x20\n      add\n      swap1\n      dup2\n      mstore\n      0x20\n      add\n      0x00\n      keccak256\n        /* \"Project/banking.sol\":4736:4761  users[account].timeperiod */\n      0x02\n      add\n      sload\n        /* \"Project/banking.sol\":4646:5144  user(... */\n      dup2\n      mstore\n      0x20\n      add\n        /* \"Project/banking.sol\":4775:4780  users */\n      0x01\n        /* \"Project/banking.sol\":4775:4789  users[account] */\n      0x00\n        /* \"Project/banking.sol\":4781:4788  account */\n      dup8\n        /* \"Project/banking.sol\":4775:4789  users[account] */\n      0xffffffffffffffffffffffffffffffffffffffff\n      and\n      0xffffffffffffffffffffffffffffffffffffffff\n      and\n      dup2\n      mstore\n      0x20\n      add\n      swap1\n      dup2\n      mstore\n      0x20\n      add\n      0x00\n      keccak256\n        /* \"Project/banking.sol\":4775:4797  users[account].carLoan */\n      0x03\n      add\n      sload\n        /* \"Project/banking.sol\":4646:5144  user(... */\n      dup2\n      mstore\n      0x20\n      add\n        /* \"Project/banking.sol\":4811:4816  users */\n      0x01\n        /* \"Project/banking.sol\":4811:4825  users[account] */\n      0x00\n        /* \"Project/banking.sol\":4817:4824  account */\n      dup8\n        /* \"Project/banking.sol\":4811:4825  users[account] */\n      0xffffffffffffffffffffffffffffffffffffffff\n      and\n      0xffffffffffffffffffffffffffffffffffffffff\n      and\n      dup2\n      mstore\n      0x20\n      add\n      swap1\n      dup2\n      mstore\n      0x20\n      add\n      0x00\n      keccak256\n        /* \"Project/banking.sol\":4811:4834  users[account].homeLoan */\n      0x04\n      add\n      sload\n        /* \"Project/banking.sol\":4646:5144  user(... */\n      dup2\n      mstore\n      0x20\n      add\n        /* \"Project/banking.sol\":4848:4853  users */\n      0x01\n        /* \"Project/banking.sol\":4848:4862  users[account] */\n      0x00\n        /* \"Project/banking.sol\":4854:4861  account */\n      dup8\n        /* \"Project/banking.sol\":4848:4862  users[account] */\n      0xffffffffffffffffffffffffffffffffffffffff\n      and\n      0xffffffffffffffffffffffffffffffffffffffff\n      and\n      dup2\n      mstore\n      0x20\n      add\n      swap1\n      dup2\n      mstore\n      0x20\n      add\n      0x00\n      keccak256\n        /* \"Project/banking.sol\":4848:4875  users[account].personalLoan */\n      0x05\n      add\n      sload\n        /* \"Project/banking.sol\":4646:5144  user(... */\n      dup2\n      mstore\n      0x20\n      add\n        /* \"Project/banking.sol\":4889:4894  users */\n      0x01\n        /* \"Project/banking.sol\":4889:4903  users[account] */\n      0x00\n        /* \"Project/banking.sol\":4895:4902  account */\n      dup8\n        /* \"Project/banking.sol\":4889:4903  users[account] */\n      0xffffffffffffffffffffffffffffffffffffffff\n      and\n      0xffffffffffffffffffffffffffffffffffffffff\n      and\n      dup2\n      mstore\n      0x20\n      add\n      swap1\n      dup2\n      mstore\n      0x20\n      add\n      0x00\n      keccak256\n        /* \"Project/banking.sol\":4889:4910  users[account].carEmi */\n      0x06\n      add\n      sload\n        /* \"Project/banking.sol\":4646:5144  user(... */\n      dup2\n      mstore\n      0x20\n      add\n        /* \"Project/banking.sol\":4924:4929  users */\n      0x01\n        /* \"Project/banking.sol\":4924:4938  users[account] */\n      0x00\n        /* \"Project/banking.sol\":4930:4937  account */\n      dup8\n        /* \"Project/banking.sol\":4924:4938  users[account] */\n      0xffffffffffffffffffffffffffffffffffffffff\n      and\n      0xffffffffffffffffffffffffffffffffffffffff\n      and\n      dup2\n      mstore\n      0x20\n      add\n      swap1\n      dup2\n      mstore\n      0x20\n      add\n      0x00\n      keccak256\n        /* \"Project/banking.sol\":4924:4946  users[account].homeEmi */\n      0x07\n      add\n      sload\n        /* \"Project/banking.sol\":4646:5144  user(... */\n      dup2\n      mstore\n      0x20\n      add\n        /* \"Project/banking.sol\":4960:4965  users */\n      0x01\n        /* \"Project/banking.sol\":4960:4974  users[account] */\n      0x00\n        /* \"Project/banking.sol\":4966:4973  account */\n      dup8\n        /* \"Project/banking.sol\":4960:4974  users[account] */\n      0xffffffffffffffffffffffffffffffffffffffff\n      and\n      0xffffffffffffffffffffffffffffffffffffffff\n      and\n      dup2\n      mstore\n      0x20\n      add\n      swap1\n      dup2\n      mstore\n      0x20\n      add\n      0x00\n      keccak256\n        /* \"Project/banking.sol\":4960:4990  users[account].personalLoanEmi */\n      0x08\n      add\n      sload\n        /* \"Project/banking.sol\":4646:5144  user(... */\n      dup2\n      mstore\n      0x20\n      add\n        /* \"Project/banking.sol\":5004:5009  users */\n      0x01\n        /* \"Project/banking.sol\":5004:5018  users[account] */\n      0x00\n        /* \"Project/banking.sol\":5010:5017  account */\n      dup8\n        /* \"Project/banking.sol\":5004:5018  users[account] */\n      0xffffffffffffffffffffffffffffffffffffffff\n      and\n      0xffffffffffffffffffffffffffffffffffffffff\n      and\n      dup2\n      mstore\n      0x20\n      add\n      swap1\n      dup2\n      mstore\n      0x20\n      add\n      0x00\n      keccak256\n        /* \"Project/banking.sol\":5004:5036  users[account].carLoanTimeperiod */\n      0x09\n      add\n      sload\n        /* \"Project/banking.sol\":4646:5144  user(... */\n      dup2\n      mstore\n      0x20\n      add\n        /* \"Project/banking.sol\":5050:5055  users */\n      0x01\n        /* \"Project/banking.sol\":5050:5064  users[account] */\n      0x00\n        /* \"Project/banking.sol\":5056:5063  account */\n      dup8\n        /* \"Project/banking.sol\":5050:5064  users[account] */\n      0xffffffffffffffffffffffffffffffffffffffff\n      and\n      0xffffffffffffffffffffffffffffffffffffffff\n      and\n      dup2\n      mstore\n      0x20\n      add\n      swap1\n      dup2\n      mstore\n      0x20\n      add\n      0x00\n      keccak256\n        /* \"Project/banking.sol\":5050:5083  users[account].homeLoanTimeperiod */\n      0x0a\n      add\n      sload\n        /* \"Project/banking.sol\":4646:5144  user(... */\n      dup2\n      mstore\n      0x20\n      add\n        /* \"Project/banking.sol\":5097:5102  users */\n      0x01\n        /* \"Project/banking.sol\":5097:5111  users[account] */\n      0x00\n        /* \"Project/banking.sol\":5103:5110  account */\n      dup8\n        /* \"Project/banking.sol\":5097:5111  users[account] */\n      0xffffffffffffffffffffffffffffffffffffffff\n      and\n      0xffffffffffffffffffffffffffffffffffffffff\n      and\n      dup2\n      mstore\n      0x20\n      add\n      swap1\n      dup2\n      mstore\n      0x20\n      add\n      0x00\n      keccak256\n        /* \"Project/banking.sol\":5097:5134  users[account].personalLoanTimeperiod */\n      0x0b\n      add\n      sload\n        /* \"Project/banking.sol\":4646:5144  user(... */\n      dup2\n      mstore\n      pop\n        /* \"Project/banking.sol\":4629:4634  users */\n      0x01\n        /* \"Project/banking.sol\":4629:4643  users[account] */\n      0x00\n        /* \"Project/banking.sol\":4635:4642  account */\n      dup7\n        /* \"Project/banking.sol\":4629:4643  users[account] */\n      0xffffffffffffffffffffffffffffffffffffffff\n      and\n      0xffffffffffffffffffffffffffffffffffffffff\n      and\n      dup2\n      mstore\n      0x20\n      add\n      swap1\n      dup2\n      mstore\n      0x20\n      add\n      0x00\n      keccak256\n        /* \"Project/banking.sol\":4629:5144  users[account] = user(... */\n      0x00\n      dup3\n      add\n      mload\n      dup2\n      0x00\n      add\n      exp(0x0100, 0x00)\n      dup2\n      sload\n      dup2\n      0xffffffffffffffffffffffffffffffffffffffff\n      mul\n      not\n      and\n      swap1\n      dup4\n      0xffffffffffffffffffffffffffffffffffffffff\n      and\n      mul\n      or\n      swap1\n      sstore\n      pop\n      0x20\n      dup3\n      add\n      mload\n      dup2\n      0x01\n      add\n      sstore\n      0x40\n      dup3\n      add\n      mload\n      dup2\n      0x02\n      add\n      sstore\n      0x60\n      dup3\n      add\n      mload\n      dup2\n      0x03\n      add\n      sstore\n      0x80\n      dup3\n      add\n      mload\n      dup2\n      0x04\n      add\n      sstore\n      0xa0\n      dup3\n      add\n      mload\n      dup2\n      0x05\n      add\n      sstore\n      0xc0\n      dup3\n      add\n      mload\n      dup2\n      0x06\n      add\n      sstore\n      0xe0\n      dup3\n      add\n      mload\n      dup2\n      0x07\n      add\n      sstore\n      0x0100\n      dup3\n      add\n      mload\n      dup2\n      0x08\n      add\n      sstore\n      0x0120\n      dup3\n      add\n      mload\n      dup2\n      0x09\n      add\n      sstore\n      0x0140\n      dup3\n      add\n      mload\n      dup2\n      0x0a\n      add\n      sstore\n      0x0160\n      dup3\n      add\n      mload\n      dup2\n      0x0b\n      add\n      sstore\n      swap1\n      pop\n      pop\n        /* \"Project/banking.sol\":1779:5151  function Loan(... */\n      pop\n      pop\n      pop\n      pop\n      jump\t// out\n        /* \"Project/banking.sol\":789:948  function addFund() public payable onlyOwner {... */\n    tag_49:\n        /* \"Project/banking.sol\":719:724  admin */\n      0x00\n      dup1\n      sload\n      swap1\n      0x0100\n      exp\n      swap1\n      div\n      0xffffffffffffffffffffffffffffffffffffffff\n      and\n        /* \"Project/banking.sol\":705:724  msg.sender == admin */\n      0xffffffffffffffffffffffffffffffffffffffff\n      and\n        /* \"Project/banking.sol\":705:715  msg.sender */\n      caller\n        /* \"Project/banking.sol\":705:724  msg.sender == admin */\n      0xffffffffffffffffffffffffffffffffffffffff\n      and\n      eq\n        /* \"Project/banking.sol\":697:765  require(msg.sender == admin, \"You're not the smart contract admin!\") */\n      tag_193\n      jumpi\n      mload(0x40)\n      0x08c379a000000000000000000000000000000000000000000000000000000000\n      dup2\n      mstore\n      0x04\n      add\n      tag_194\n      swap1\n      tag_195\n      jump\t// in\n    tag_194:\n      mload(0x40)\n      dup1\n      swap2\n      sub\n      swap1\n      revert\n    tag_193:\n        /* \"Project/banking.sol\":915:919  this */\n      address\n        /* \"Project/banking.sol\":899:930  payable(address(this)).transfer */\n      0xffffffffffffffffffffffffffffffffffffffff\n      and\n        /* \"Project/banking.sol\":899:941  payable(address(this)).transfer(msg.value) */\n      0x08fc\n        /* \"Project/banking.sol\":931:940  msg.value */\n      callvalue\n        /* \"Project/banking.sol\":899:941  payable(address(this)).transfer(msg.value) */\n      swap1\n      dup2\n      iszero\n      mul\n      swap1\n      mload(0x40)\n      0x00\n      mload(0x40)\n      dup1\n      dup4\n      sub\n      dup2\n      dup6\n      dup9\n      dup9\n      call\n      swap4\n      pop\n      pop\n      pop\n      pop\n      iszero\n      dup1\n      iszero\n      tag_198\n      jumpi\n      returndatasize\n      0x00\n      dup1\n      returndatacopy\n      revert(0x00, returndatasize)\n    tag_198:\n      pop\n        /* \"Project/banking.sol\":789:948  function addFund() public payable onlyOwner {... */\n      jump\t// out\n        /* \"Project/banking.sol\":954:991  mapping(address => user) public users */\n    tag_53:\n      mstore(0x20, 0x01)\n      dup1\n      0x00\n      mstore\n      keccak256(0x00, 0x40)\n      0x00\n      swap2\n      pop\n      swap1\n      pop\n      dup1\n      0x00\n      add\n      0x00\n      swap1\n      sload\n      swap1\n      0x0100\n      exp\n      swap1\n      div\n      0xffffffffffffffffffffffffffffffffffffffff\n      and\n      swap1\n      dup1\n      0x01\n      add\n      sload\n      swap1\n      dup1\n      0x02\n      add\n      sload\n      swap1\n      dup1\n      0x03\n      add\n      sload\n      swap1\n      dup1\n      0x04\n      add\n      sload\n      swap1\n      dup1\n      0x05\n      add\n      sload\n      swap1\n      dup1\n      0x06\n      add\n      sload\n      swap1\n      dup1\n      0x07\n      add\n      sload\n      swap1\n      dup1\n      0x08\n      add\n      sload\n      swap1\n      dup1\n      0x09\n      add\n      sload\n      swap1\n      dup1\n      0x0a\n      add\n      sload\n      swap1\n      dup1\n      0x0b\n      add\n      sload\n      swap1\n      pop\n      dup13\n      jump\t// out\n        /* \"Project/banking.sol\":9076:9465  function homeLoanDetails(address account)... */\n    tag_59:\n        /* \"Project/banking.sol\":9176:9183  uint256 */\n      0x00\n        /* \"Project/banking.sol\":9197:9204  uint256 */\n      dup1\n        /* \"Project/banking.sol\":9218:9225  uint256 */\n      0x00\n        /* \"Project/banking.sol\":9277:9278  0 */\n      dup1\n        /* \"Project/banking.sol\":9258:9279  account != address(0) */\n      0xffffffffffffffffffffffffffffffffffffffff\n      and\n        /* \"Project/banking.sol\":9258:9265  account */\n      dup5\n        /* \"Project/banking.sol\":9258:9279  account != address(0) */\n      0xffffffffffffffffffffffffffffffffffffffff\n      and\n      sub\n        /* \"Project/banking.sol\":9250:9311  require(account != address(0), \"zero address is not allowed\") */\n      tag_200\n      jumpi\n      mload(0x40)\n      0x08c379a000000000000000000000000000000000000000000000000000000000\n      dup2\n      mstore\n      0x04\n      add\n      tag_201\n      swap1\n      tag_68\n      jump\t// in\n    tag_201:\n      mload(0x40)\n      dup1\n      swap2\n      sub\n      swap1\n      revert\n    tag_200:\n        /* \"Project/banking.sol\":9342:9347  users */\n      0x01\n        /* \"Project/banking.sol\":9342:9356  users[account] */\n      0x00\n        /* \"Project/banking.sol\":9348:9355  account */\n      dup6\n        /* \"Project/banking.sol\":9342:9356  users[account] */\n      0xffffffffffffffffffffffffffffffffffffffff\n      and\n      0xffffffffffffffffffffffffffffffffffffffff\n      and\n      dup2\n      mstore\n      0x20\n      add\n      swap1\n      dup2\n      mstore\n      0x20\n      add\n      0x00\n      keccak256\n        /* \"Project/banking.sol\":9342:9365  users[account].homeLoan */\n      0x04\n      add\n      sload\n        /* \"Project/banking.sol\":9379:9384  users */\n      0x01\n        /* \"Project/banking.sol\":9379:9393  users[account] */\n      0x00\n        /* \"Project/banking.sol\":9385:9392  account */\n      dup7\n        /* \"Project/banking.sol\":9379:9393  users[account] */\n      0xffffffffffffffffffffffffffffffffffffffff\n      and\n      0xffffffffffffffffffffffffffffffffffffffff\n      and\n      dup2\n      mstore\n      0x20\n      add\n      swap1\n      dup2\n      mstore\n      0x20\n      add\n      0x00\n      keccak256\n        /* \"Project/banking.sol\":9379:9401  users[account].homeEmi */\n      0x07\n      add\n      sload\n        /* \"Project/banking.sol\":9415:9420  users */\n      0x01\n        /* \"Project/banking.sol\":9415:9429  users[account] */\n      0x00\n        /* \"Project/banking.sol\":9421:9428  account */\n      dup8\n        /* \"Project/banking.sol\":9415:9429  users[account] */\n      0xffffffffffffffffffffffffffffffffffffffff\n      and\n      0xffffffffffffffffffffffffffffffffffffffff\n      and\n      dup2\n      mstore\n      0x20\n      add\n      swap1\n      dup2\n      mstore\n      0x20\n      add\n      0x00\n      keccak256\n        /* \"Project/banking.sol\":9415:9448  users[account].homeLoanTimeperiod */\n      0x0a\n      add\n      sload\n        /* \"Project/banking.sol\":9321:9458  return (... */\n      swap3\n      pop\n      swap3\n      pop\n      swap3\n      pop\n        /* \"Project/banking.sol\":9076:9465  function homeLoanDetails(address account)... */\n      swap2\n      swap4\n      swap1\n      swap3\n      pop\n      jump\t// out\n        /* \"Project/banking.sol\":5157:6041  function withdraw(address payable account, uint256 amount) public {... */\n    tag_64:\n        /* \"Project/banking.sol\":5263:5264  0 */\n      0x00\n        /* \"Project/banking.sol\":5254:5260  amount */\n      dup2\n        /* \"Project/banking.sol\":5254:5264  amount > 0 */\n      gt\n        /* \"Project/banking.sol\":5254:5299  amount > 0 && amount < users[account].balance */\n      dup1\n      iszero\n      tag_203\n      jumpi\n      pop\n        /* \"Project/banking.sol\":5277:5282  users */\n      0x01\n        /* \"Project/banking.sol\":5277:5291  users[account] */\n      0x00\n        /* \"Project/banking.sol\":5283:5290  account */\n      dup4\n        /* \"Project/banking.sol\":5277:5291  users[account] */\n      0xffffffffffffffffffffffffffffffffffffffff\n      and\n      0xffffffffffffffffffffffffffffffffffffffff\n      and\n      dup2\n      mstore\n      0x20\n      add\n      swap1\n      dup2\n      mstore\n      0x20\n      add\n      0x00\n      keccak256\n        /* \"Project/banking.sol\":5277:5299  users[account].balance */\n      0x01\n      add\n      sload\n        /* \"Project/banking.sol\":5268:5274  amount */\n      dup2\n        /* \"Project/banking.sol\":5268:5299  amount < users[account].balance */\n      lt\n        /* \"Project/banking.sol\":5254:5299  amount > 0 && amount < users[account].balance */\n    tag_203:\n        /* \"Project/banking.sol\":5233:5339  require(... */\n      tag_204\n      jumpi\n      mload(0x40)\n      0x08c379a000000000000000000000000000000000000000000000000000000000\n      dup2\n      mstore\n      0x04\n      add\n      tag_205\n      swap1\n      tag_206\n      jump\t// in\n    tag_205:\n      mload(0x40)\n      dup1\n      swap2\n      sub\n      swap1\n      revert\n    tag_204:\n        /* \"Project/banking.sol\":5376:5377  0 */\n      0x00\n        /* \"Project/banking.sol\":5357:5378  account != address(0) */\n      0xffffffffffffffffffffffffffffffffffffffff\n      and\n        /* \"Project/banking.sol\":5357:5364  account */\n      dup3\n        /* \"Project/banking.sol\":5357:5378  account != address(0) */\n      0xffffffffffffffffffffffffffffffffffffffff\n      and\n      sub\n        /* \"Project/banking.sol\":5349:5410  require(account != address(0), \"zero address is not allowed\") */\n      tag_207\n      jumpi\n      mload(0x40)\n      0x08c379a000000000000000000000000000000000000000000000000000000000\n      dup2\n      mstore\n      0x04\n      add\n      tag_208\n      swap1\n      tag_68\n      jump\t// in\n    tag_208:\n      mload(0x40)\n      dup1\n      swap2\n      sub\n      swap1\n      revert\n    tag_207:\n        /* \"Project/banking.sol\":5438:5439  0 */\n      0x00\n        /* \"Project/banking.sol\":5428:5434  amount */\n      dup2\n        /* \"Project/banking.sol\":5428:5439  amount != 0 */\n      sub\n        /* \"Project/banking.sol\":5420:5467  require(amount != 0, \"please send some amount\") */\n      tag_209\n      jumpi\n      mload(0x40)\n      0x08c379a000000000000000000000000000000000000000000000000000000000\n      dup2\n      mstore\n      0x04\n      add\n      tag_210\n      swap1\n      tag_71\n      jump\t// in\n    tag_210:\n      mload(0x40)\n      dup1\n      swap2\n      sub\n      swap1\n      revert\n    tag_209:\n        /* \"Project/banking.sol\":5503:5509  amount */\n      dup1\n        /* \"Project/banking.sol\":5477:5482  users */\n      0x01\n        /* \"Project/banking.sol\":5477:5491  users[account] */\n      0x00\n        /* \"Project/banking.sol\":5483:5490  account */\n      dup5\n        /* \"Project/banking.sol\":5477:5491  users[account] */\n      0xffffffffffffffffffffffffffffffffffffffff\n      and\n      0xffffffffffffffffffffffffffffffffffffffff\n      and\n      dup2\n      mstore\n      0x20\n      add\n      swap1\n      dup2\n      mstore\n      0x20\n      add\n      0x00\n      keccak256\n        /* \"Project/banking.sol\":5477:5499  users[account].balance */\n      0x01\n      add\n      0x00\n        /* \"Project/banking.sol\":5477:5509  users[account].balance -= amount */\n      dup3\n      dup3\n      sload\n      tag_211\n      swap2\n      swap1\n      tag_106\n      jump\t// in\n    tag_211:\n      swap3\n      pop\n      pop\n      dup2\n      swap1\n      sstore\n      pop\n        /* \"Project/banking.sol\":5536:6034  user(... */\n      mload(0x40)\n      dup1\n      0x0180\n      add\n      0x40\n      mstore\n      dup1\n        /* \"Project/banking.sol\":5554:5559  users */\n      0x01\n        /* \"Project/banking.sol\":5554:5568  users[account] */\n      0x00\n        /* \"Project/banking.sol\":5560:5567  account */\n      dup6\n        /* \"Project/banking.sol\":5554:5568  users[account] */\n      0xffffffffffffffffffffffffffffffffffffffff\n      and\n      0xffffffffffffffffffffffffffffffffffffffff\n      and\n      dup2\n      mstore\n      0x20\n      add\n      swap1\n      dup2\n      mstore\n      0x20\n      add\n      0x00\n      keccak256\n        /* \"Project/banking.sol\":5554:5576  users[account].user_id */\n      0x00\n      add\n      0x00\n      swap1\n      sload\n      swap1\n      0x0100\n      exp\n      swap1\n      div\n      0xffffffffffffffffffffffffffffffffffffffff\n      and\n        /* \"Project/banking.sol\":5536:6034  user(... */\n      0xffffffffffffffffffffffffffffffffffffffff\n      and\n      dup2\n      mstore\n      0x20\n      add\n        /* \"Project/banking.sol\":5590:5595  users */\n      0x01\n        /* \"Project/banking.sol\":5590:5604  users[account] */\n      0x00\n        /* \"Project/banking.sol\":5596:5603  account */\n      dup6\n        /* \"Project/banking.sol\":5590:5604  users[account] */\n      0xffffffffffffffffffffffffffffffffffffffff\n      and\n      0xffffffffffffffffffffffffffffffffffffffff\n      and\n      dup2\n      mstore\n      0x20\n      add\n      swap1\n      dup2\n      mstore\n      0x20\n      add\n      0x00\n      keccak256\n        /* \"Project/banking.sol\":5590:5612  users[account].balance */\n      0x01\n      add\n      sload\n        /* \"Project/banking.sol\":5536:6034  user(... */\n      dup2\n      mstore\n      0x20\n      add\n        /* \"Project/banking.sol\":5626:5631  users */\n      0x01\n        /* \"Project/banking.sol\":5626:5640  users[account] */\n      0x00\n        /* \"Project/banking.sol\":5632:5639  account */\n      dup6\n        /* \"Project/banking.sol\":5626:5640  users[account] */\n      0xffffffffffffffffffffffffffffffffffffffff\n      and\n      0xffffffffffffffffffffffffffffffffffffffff\n      and\n      dup2\n      mstore\n      0x20\n      add\n      swap1\n      dup2\n      mstore\n      0x20\n      add\n      0x00\n      keccak256\n        /* \"Project/banking.sol\":5626:5651  users[account].timeperiod */\n      0x02\n      add\n      sload\n        /* \"Project/banking.sol\":5536:6034  user(... */\n      dup2\n      mstore\n      0x20\n      add\n        /* \"Project/banking.sol\":5665:5670  users */\n      0x01\n        /* \"Project/banking.sol\":5665:5679  users[account] */\n      0x00\n        /* \"Project/banking.sol\":5671:5678  account */\n      dup6\n        /* \"Project/banking.sol\":5665:5679  users[account] */\n      0xffffffffffffffffffffffffffffffffffffffff\n      and\n      0xffffffffffffffffffffffffffffffffffffffff\n      and\n      dup2\n      mstore\n      0x20\n      add\n      swap1\n      dup2\n      mstore\n      0x20\n      add\n      0x00\n      keccak256\n        /* \"Project/banking.sol\":5665:5687  users[account].carLoan */\n      0x03\n      add\n      sload\n        /* \"Project/banking.sol\":5536:6034  user(... */\n      dup2\n      mstore\n      0x20\n      add\n        /* \"Project/banking.sol\":5701:5706  users */\n      0x01\n        /* \"Project/banking.sol\":5701:5715  users[account] */\n      0x00\n        /* \"Project/banking.sol\":5707:5714  account */\n      dup6\n        /* \"Project/banking.sol\":5701:5715  users[account] */\n      0xffffffffffffffffffffffffffffffffffffffff\n      and\n      0xffffffffffffffffffffffffffffffffffffffff\n      and\n      dup2\n      mstore\n      0x20\n      add\n      swap1\n      dup2\n      mstore\n      0x20\n      add\n      0x00\n      keccak256\n        /* \"Project/banking.sol\":5701:5724  users[account].homeLoan */\n      0x04\n      add\n      sload\n        /* \"Project/banking.sol\":5536:6034  user(... */\n      dup2\n      mstore\n      0x20\n      add\n        /* \"Project/banking.sol\":5738:5743  users */\n      0x01\n        /* \"Project/banking.sol\":5738:5752  users[account] */\n      0x00\n        /* \"Project/banking.sol\":5744:5751  account */\n      dup6\n        /* \"Project/banking.sol\":5738:5752  users[account] */\n      0xffffffffffffffffffffffffffffffffffffffff\n      and\n      0xffffffffffffffffffffffffffffffffffffffff\n      and\n      dup2\n      mstore\n      0x20\n      add\n      swap1\n      dup2\n      mstore\n      0x20\n      add\n      0x00\n      keccak256\n        /* \"Project/banking.sol\":5738:5765  users[account].personalLoan */\n      0x05\n      add\n      sload\n        /* \"Project/banking.sol\":5536:6034  user(... */\n      dup2\n      mstore\n      0x20\n      add\n        /* \"Project/banking.sol\":5779:5784  users */\n      0x01\n        /* \"Project/banking.sol\":5779:5793  users[account] */\n      0x00\n        /* \"Project/banking.sol\":5785:5792  account */\n      dup6\n        /* \"Project/banking.sol\":5779:5793  users[account] */\n      0xffffffffffffffffffffffffffffffffffffffff\n      and\n      0xffffffffffffffffffffffffffffffffffffffff\n      and\n      dup2\n      mstore\n      0x20\n      add\n      swap1\n      dup2\n      mstore\n      0x20\n      add\n      0x00\n      keccak256\n        /* \"Project/banking.sol\":5779:5800  users[account].carEmi */\n      0x06\n      add\n      sload\n        /* \"Project/banking.sol\":5536:6034  user(... */\n      dup2\n      mstore\n      0x20\n      add\n        /* \"Project/banking.sol\":5814:5819  users */\n      0x01\n        /* \"Project/banking.sol\":5814:5828  users[account] */\n      0x00\n        /* \"Project/banking.sol\":5820:5827  account */\n      dup6\n        /* \"Project/banking.sol\":5814:5828  users[account] */\n      0xffffffffffffffffffffffffffffffffffffffff\n      and\n      0xffffffffffffffffffffffffffffffffffffffff\n      and\n      dup2\n      mstore\n      0x20\n      add\n      swap1\n      dup2\n      mstore\n      0x20\n      add\n      0x00\n      keccak256\n        /* \"Project/banking.sol\":5814:5836  users[account].homeEmi */\n      0x07\n      add\n      sload\n        /* \"Project/banking.sol\":5536:6034  user(... */\n      dup2\n      mstore\n      0x20\n      add\n        /* \"Project/banking.sol\":5850:5855  users */\n      0x01\n        /* \"Project/banking.sol\":5850:5864  users[account] */\n      0x00\n        /* \"Project/banking.sol\":5856:5863  account */\n      dup6\n        /* \"Project/banking.sol\":5850:5864  users[account] */\n      0xffffffffffffffffffffffffffffffffffffffff\n      and\n      0xffffffffffffffffffffffffffffffffffffffff\n      and\n      dup2\n      mstore\n      0x20\n      add\n      swap1\n      dup2\n      mstore\n      0x20\n      add\n      0x00\n      keccak256\n        /* \"Project/banking.sol\":5850:5880  users[account].personalLoanEmi */\n      0x08\n      add\n      sload\n        /* \"Project/banking.sol\":5536:6034  user(... */\n      dup2\n      mstore\n      0x20\n      add\n        /* \"Project/banking.sol\":5894:5899  users */\n      0x01\n        /* \"Project/banking.sol\":5894:5908  users[account] */\n      0x00\n        /* \"Project/banking.sol\":5900:5907  account */\n      dup6\n        /* \"Project/banking.sol\":5894:5908  users[account] */\n      0xffffffffffffffffffffffffffffffffffffffff\n      and\n      0xffffffffffffffffffffffffffffffffffffffff\n      and\n      dup2\n      mstore\n      0x20\n      add\n      swap1\n      dup2\n      mstore\n      0x20\n      add\n      0x00\n      keccak256\n        /* \"Project/banking.sol\":5894:5926  users[account].carLoanTimeperiod */\n      0x09\n      add\n      sload\n        /* \"Project/banking.sol\":5536:6034  user(... */\n      dup2\n      mstore\n      0x20\n      add\n        /* \"Project/banking.sol\":5940:5945  users */\n      0x01\n        /* \"Project/banking.sol\":5940:5954  users[account] */\n      0x00\n        /* \"Project/banking.sol\":5946:5953  account */\n      dup6\n        /* \"Project/banking.sol\":5940:5954  users[account] */\n      0xffffffffffffffffffffffffffffffffffffffff\n      and\n      0xffffffffffffffffffffffffffffffffffffffff\n      and\n      dup2\n      mstore\n      0x20\n      add\n      swap1\n      dup2\n      mstore\n      0x20\n      add\n      0x00\n      keccak256\n        /* \"Project/banking.sol\":5940:5973  users[account].homeLoanTimeperiod */\n      0x0a\n      add\n      sload\n        /* \"Project/banking.sol\":5536:6034  user(... */\n      dup2\n      mstore\n      0x20\n      add\n        /* \"Project/banking.sol\":5987:5992  users */\n      0x01\n        /* \"Project/banking.sol\":5987:6001  users[account] */\n      0x00\n        /* \"Project/banking.sol\":5993:6000  account */\n      dup6\n        /* \"Project/banking.sol\":5987:6001  users[account] */\n      0xffffffffffffffffffffffffffffffffffffffff\n      and\n      0xffffffffffffffffffffffffffffffffffffffff\n      and\n      dup2\n      mstore\n      0x20\n      add\n      swap1\n      dup2\n      mstore\n      0x20\n      add\n      0x00\n      keccak256\n        /* \"Project/banking.sol\":5987:6024  users[account].personalLoanTimeperiod */\n      0x0b\n      add\n      sload\n        /* \"Project/banking.sol\":5536:6034  user(... */\n      dup2\n      mstore\n      pop\n        /* \"Project/banking.sol\":5519:5524  users */\n      0x01\n        /* \"Project/banking.sol\":5519:5533  users[account] */\n      0x00\n        /* \"Project/banking.sol\":5525:5532  account */\n      dup5\n        /* \"Project/banking.sol\":5519:5533  users[account] */\n      0xffffffffffffffffffffffffffffffffffffffff\n      and\n      0xffffffffffffffffffffffffffffffffffffffff\n      and\n      dup2\n      mstore\n      0x20\n      add\n      swap1\n      dup2\n      mstore\n      0x20\n      add\n      0x00\n      keccak256\n        /* \"Project/banking.sol\":5519:6034  users[account] = user(... */\n      0x00\n      dup3\n      add\n      mload\n      dup2\n      0x00\n      add\n      exp(0x0100, 0x00)\n      dup2\n      sload\n      dup2\n      0xffffffffffffffffffffffffffffffffffffffff\n      mul\n      not\n      and\n      swap1\n      dup4\n      0xffffffffffffffffffffffffffffffffffffffff\n      and\n      mul\n      or\n      swap1\n      sstore\n      pop\n      0x20\n      dup3\n      add\n      mload\n      dup2\n      0x01\n      add\n      sstore\n      0x40\n      dup3\n      add\n      mload\n      dup2\n      0x02\n      add\n      sstore\n      0x60\n      dup3\n      add\n      mload\n      dup2\n      0x03\n      add\n      sstore\n      0x80\n      dup3\n      add\n      mload\n      dup2\n      0x04\n      add\n      sstore\n      0xa0\n      dup3\n      add\n      mload\n      dup2\n      0x05\n      add\n      sstore\n      0xc0\n      dup3\n      add\n      mload\n      dup2\n      0x06\n      add\n      sstore\n      0xe0\n      dup3\n      add\n      mload\n      dup2\n      0x07\n      add\n      sstore\n      0x0100\n      dup3\n      add\n      mload\n      dup2\n      0x08\n      add\n      sstore\n      0x0120\n      dup3\n      add\n      mload\n      dup2\n      0x09\n      add\n      sstore\n      0x0140\n      dup3\n      add\n      mload\n      dup2\n      0x0a\n      add\n      sstore\n      0x0160\n      dup3\n      add\n      mload\n      dup2\n      0x0b\n      add\n      sstore\n      swap1\n      pop\n      pop\n        /* \"Project/banking.sol\":5157:6041  function withdraw(address payable account, uint256 amount) public {... */\n      pop\n      pop\n      jump\t// out\n        /* \"#utility.yul\":7:82   */\n    tag_212:\n        /* \"#utility.yul\":40:46   */\n      0x00\n        /* \"#utility.yul\":73:75   */\n      0x40\n        /* \"#utility.yul\":67:76   */\n      mload\n        /* \"#utility.yul\":57:76   */\n      swap1\n      pop\n        /* \"#utility.yul\":7:82   */\n      swap1\n      jump\t// out\n        /* \"#utility.yul\":88:205   */\n    tag_213:\n        /* \"#utility.yul\":197:198   */\n      0x00\n        /* \"#utility.yul\":194:195   */\n      dup1\n        /* \"#utility.yul\":187:199   */\n      revert\n        /* \"#utility.yul\":211:328   */\n    tag_214:\n        /* \"#utility.yul\":320:321   */\n      0x00\n        /* \"#utility.yul\":317:318   */\n      dup1\n        /* \"#utility.yul\":310:322   */\n      revert\n        /* \"#utility.yul\":334:460   */\n    tag_215:\n        /* \"#utility.yul\":371:378   */\n      0x00\n        /* \"#utility.yul\":411:453   */\n      0xffffffffffffffffffffffffffffffffffffffff\n        /* \"#utility.yul\":404:409   */\n      dup3\n        /* \"#utility.yul\":400:454   */\n      and\n        /* \"#utility.yul\":389:454   */\n      swap1\n      pop\n        /* \"#utility.yul\":334:460   */\n      swap2\n      swap1\n      pop\n      jump\t// out\n        /* \"#utility.yul\":466:570   */\n    tag_216:\n        /* \"#utility.yul\":511:518   */\n      0x00\n        /* \"#utility.yul\":540:564   */\n      tag_274\n        /* \"#utility.yul\":558:563   */\n      dup3\n        /* \"#utility.yul\":540:564   */\n      tag_215\n      jump\t// in\n    tag_274:\n        /* \"#utility.yul\":529:564   */\n      swap1\n      pop\n        /* \"#utility.yul\":466:570   */\n      swap2\n      swap1\n      pop\n      jump\t// out\n        /* \"#utility.yul\":576:714   */\n    tag_217:\n        /* \"#utility.yul\":657:689   */\n      tag_276\n        /* \"#utility.yul\":683:688   */\n      dup2\n        /* \"#utility.yul\":657:689   */\n      tag_216\n      jump\t// in\n    tag_276:\n        /* \"#utility.yul\":650:655   */\n      dup2\n        /* \"#utility.yul\":647:690   */\n      eq\n        /* \"#utility.yul\":637:708   */\n      tag_277\n      jumpi\n        /* \"#utility.yul\":704:705   */\n      0x00\n        /* \"#utility.yul\":701:702   */\n      dup1\n        /* \"#utility.yul\":694:706   */\n      revert\n        /* \"#utility.yul\":637:708   */\n    tag_277:\n        /* \"#utility.yul\":576:714   */\n      pop\n      jump\t// out\n        /* \"#utility.yul\":720:875   */\n    tag_218:\n        /* \"#utility.yul\":774:779   */\n      0x00\n        /* \"#utility.yul\":812:818   */\n      dup2\n        /* \"#utility.yul\":799:819   */\n      calldataload\n        /* \"#utility.yul\":790:819   */\n      swap1\n      pop\n        /* \"#utility.yul\":828:869   */\n      tag_279\n        /* \"#utility.yul\":863:868   */\n      dup2\n        /* \"#utility.yul\":828:869   */\n      tag_217\n      jump\t// in\n    tag_279:\n        /* \"#utility.yul\":720:875   */\n      swap3\n      swap2\n      pop\n      pop\n      jump\t// out\n        /* \"#utility.yul\":881:958   */\n    tag_219:\n        /* \"#utility.yul\":918:925   */\n      0x00\n        /* \"#utility.yul\":947:952   */\n      dup2\n        /* \"#utility.yul\":936:952   */\n      swap1\n      pop\n        /* \"#utility.yul\":881:958   */\n      swap2\n      swap1\n      pop\n      jump\t// out\n        /* \"#utility.yul\":964:1086   */\n    tag_220:\n        /* \"#utility.yul\":1037:1061   */\n      tag_282\n        /* \"#utility.yul\":1055:1060   */\n      dup2\n        /* \"#utility.yul\":1037:1061   */\n      tag_219\n      jump\t// in\n    tag_282:\n        /* \"#utility.yul\":1030:1035   */\n      dup2\n        /* \"#utility.yul\":1027:1062   */\n      eq\n        /* \"#utility.yul\":1017:1080   */\n      tag_283\n      jumpi\n        /* \"#utility.yul\":1076:1077   */\n      0x00\n        /* \"#utility.yul\":1073:1074   */\n      dup1\n        /* \"#utility.yul\":1066:1078   */\n      revert\n        /* \"#utility.yul\":1017:1080   */\n    tag_283:\n        /* \"#utility.yul\":964:1086   */\n      pop\n      jump\t// out\n        /* \"#utility.yul\":1092:1231   */\n    tag_221:\n        /* \"#utility.yul\":1138:1143   */\n      0x00\n        /* \"#utility.yul\":1176:1182   */\n      dup2\n        /* \"#utility.yul\":1163:1183   */\n      calldataload\n        /* \"#utility.yul\":1154:1183   */\n      swap1\n      pop\n        /* \"#utility.yul\":1192:1225   */\n      tag_285\n        /* \"#utility.yul\":1219:1224   */\n      dup2\n        /* \"#utility.yul\":1192:1225   */\n      tag_220\n      jump\t// in\n    tag_285:\n        /* \"#utility.yul\":1092:1231   */\n      swap3\n      swap2\n      pop\n      pop\n      jump\t// out\n        /* \"#utility.yul\":1237:1727   */\n    tag_20:\n        /* \"#utility.yul\":1313:1319   */\n      0x00\n        /* \"#utility.yul\":1321:1327   */\n      dup1\n        /* \"#utility.yul\":1370:1372   */\n      0x40\n        /* \"#utility.yul\":1358:1367   */\n      dup4\n        /* \"#utility.yul\":1349:1356   */\n      dup6\n        /* \"#utility.yul\":1345:1368   */\n      sub\n        /* \"#utility.yul\":1341:1373   */\n      slt\n        /* \"#utility.yul\":1338:1457   */\n      iszero\n      tag_287\n      jumpi\n        /* \"#utility.yul\":1376:1455   */\n      tag_288\n      tag_213\n      jump\t// in\n    tag_288:\n        /* \"#utility.yul\":1338:1457   */\n    tag_287:\n        /* \"#utility.yul\":1496:1497   */\n      0x00\n        /* \"#utility.yul\":1521:1582   */\n      tag_289\n        /* \"#utility.yul\":1574:1581   */\n      dup6\n        /* \"#utility.yul\":1565:1571   */\n      dup3\n        /* \"#utility.yul\":1554:1563   */\n      dup7\n        /* \"#utility.yul\":1550:1572   */\n      add\n        /* \"#utility.yul\":1521:1582   */\n      tag_218\n      jump\t// in\n    tag_289:\n        /* \"#utility.yul\":1511:1582   */\n      swap3\n      pop\n        /* \"#utility.yul\":1467:1592   */\n      pop\n        /* \"#utility.yul\":1631:1633   */\n      0x20\n        /* \"#utility.yul\":1657:1710   */\n      tag_290\n        /* \"#utility.yul\":1702:1709   */\n      dup6\n        /* \"#utility.yul\":1693:1699   */\n      dup3\n        /* \"#utility.yul\":1682:1691   */\n      dup7\n        /* \"#utility.yul\":1678:1700   */\n      add\n        /* \"#utility.yul\":1657:1710   */\n      tag_221\n      jump\t// in\n    tag_290:\n        /* \"#utility.yul\":1647:1710   */\n      swap2\n      pop\n        /* \"#utility.yul\":1602:1720   */\n      pop\n        /* \"#utility.yul\":1237:1727   */\n      swap3\n      pop\n      swap3\n      swap1\n      pop\n      jump\t// out\n        /* \"#utility.yul\":1733:1829   */\n    tag_222:\n        /* \"#utility.yul\":1770:1777   */\n      0x00\n        /* \"#utility.yul\":1799:1823   */\n      tag_292\n        /* \"#utility.yul\":1817:1822   */\n      dup3\n        /* \"#utility.yul\":1799:1823   */\n      tag_215\n      jump\t// in\n    tag_292:\n        /* \"#utility.yul\":1788:1823   */\n      swap1\n      pop\n        /* \"#utility.yul\":1733:1829   */\n      swap2\n      swap1\n      pop\n      jump\t// out\n        /* \"#utility.yul\":1835:1957   */\n    tag_223:\n        /* \"#utility.yul\":1908:1932   */\n      tag_294\n        /* \"#utility.yul\":1926:1931   */\n      dup2\n        /* \"#utility.yul\":1908:1932   */\n      tag_222\n      jump\t// in\n    tag_294:\n        /* \"#utility.yul\":1901:1906   */\n      dup2\n        /* \"#utility.yul\":1898:1933   */\n      eq\n        /* \"#utility.yul\":1888:1951   */\n      tag_295\n      jumpi\n        /* \"#utility.yul\":1947:1948   */\n      0x00\n        /* \"#utility.yul\":1944:1945   */\n      dup1\n        /* \"#utility.yul\":1937:1949   */\n      revert\n        /* \"#utility.yul\":1888:1951   */\n    tag_295:\n        /* \"#utility.yul\":1835:1957   */\n      pop\n      jump\t// out\n        /* \"#utility.yul\":1963:2102   */\n    tag_224:\n        /* \"#utility.yul\":2009:2014   */\n      0x00\n        /* \"#utility.yul\":2047:2053   */\n      dup2\n        /* \"#utility.yul\":2034:2054   */\n      calldataload\n        /* \"#utility.yul\":2025:2054   */\n      swap1\n      pop\n        /* \"#utility.yul\":2063:2096   */\n      tag_297\n        /* \"#utility.yul\":2090:2095   */\n      dup2\n        /* \"#utility.yul\":2063:2096   */\n      tag_223\n      jump\t// in\n    tag_297:\n        /* \"#utility.yul\":1963:2102   */\n      swap3\n      swap2\n      pop\n      pop\n      jump\t// out\n        /* \"#utility.yul\":2108:2437   */\n    tag_25:\n        /* \"#utility.yul\":2167:2173   */\n      0x00\n        /* \"#utility.yul\":2216:2218   */\n      0x20\n        /* \"#utility.yul\":2204:2213   */\n      dup3\n        /* \"#utility.yul\":2195:2202   */\n      dup5\n        /* \"#utility.yul\":2191:2214   */\n      sub\n        /* \"#utility.yul\":2187:2219   */\n      slt\n        /* \"#utility.yul\":2184:2303   */\n      iszero\n      tag_299\n      jumpi\n        /* \"#utility.yul\":2222:2301   */\n      tag_300\n      tag_213\n      jump\t// in\n    tag_300:\n        /* \"#utility.yul\":2184:2303   */\n    tag_299:\n        /* \"#utility.yul\":2342:2343   */\n      0x00\n        /* \"#utility.yul\":2367:2420   */\n      tag_301\n        /* \"#utility.yul\":2412:2419   */\n      dup5\n        /* \"#utility.yul\":2403:2409   */\n      dup3\n        /* \"#utility.yul\":2392:2401   */\n      dup6\n        /* \"#utility.yul\":2388:2410   */\n      add\n        /* \"#utility.yul\":2367:2420   */\n      tag_224\n      jump\t// in\n    tag_301:\n        /* \"#utility.yul\":2357:2420   */\n      swap2\n      pop\n        /* \"#utility.yul\":2313:2430   */\n      pop\n        /* \"#utility.yul\":2108:2437   */\n      swap3\n      swap2\n      pop\n      pop\n      jump\t// out\n        /* \"#utility.yul\":2443:2561   */\n    tag_225:\n        /* \"#utility.yul\":2530:2554   */\n      tag_303\n        /* \"#utility.yul\":2548:2553   */\n      dup2\n        /* \"#utility.yul\":2530:2554   */\n      tag_219\n      jump\t// in\n    tag_303:\n        /* \"#utility.yul\":2525:2528   */\n      dup3\n        /* \"#utility.yul\":2518:2555   */\n      mstore\n        /* \"#utility.yul\":2443:2561   */\n      pop\n      pop\n      jump\t// out\n        /* \"#utility.yul\":2567:3009   */\n    tag_28:\n        /* \"#utility.yul\":2716:2720   */\n      0x00\n        /* \"#utility.yul\":2754:2756   */\n      0x60\n        /* \"#utility.yul\":2743:2752   */\n      dup3\n        /* \"#utility.yul\":2739:2757   */\n      add\n        /* \"#utility.yul\":2731:2757   */\n      swap1\n      pop\n        /* \"#utility.yul\":2767:2838   */\n      tag_305\n        /* \"#utility.yul\":2835:2836   */\n      0x00\n        /* \"#utility.yul\":2824:2833   */\n      dup4\n        /* \"#utility.yul\":2820:2837   */\n      add\n        /* \"#utility.yul\":2811:2817   */\n      dup7\n        /* \"#utility.yul\":2767:2838   */\n      tag_225\n      jump\t// in\n    tag_305:\n        /* \"#utility.yul\":2848:2920   */\n      tag_306\n        /* \"#utility.yul\":2916:2918   */\n      0x20\n        /* \"#utility.yul\":2905:2914   */\n      dup4\n        /* \"#utility.yul\":2901:2919   */\n      add\n        /* \"#utility.yul\":2892:2898   */\n      dup6\n        /* \"#utility.yul\":2848:2920   */\n      tag_225\n      jump\t// in\n    tag_306:\n        /* \"#utility.yul\":2930:3002   */\n      tag_307\n        /* \"#utility.yul\":2998:3000   */\n      0x40\n        /* \"#utility.yul\":2987:2996   */\n      dup4\n        /* \"#utility.yul\":2983:3001   */\n      add\n        /* \"#utility.yul\":2974:2980   */\n      dup5\n        /* \"#utility.yul\":2930:3002   */\n      tag_225\n      jump\t// in\n    tag_307:\n        /* \"#utility.yul\":2567:3009   */\n      swap5\n      swap4\n      pop\n      pop\n      pop\n      pop\n      jump\t// out\n        /* \"#utility.yul\":3015:3237   */\n    tag_33:\n        /* \"#utility.yul\":3108:3112   */\n      0x00\n        /* \"#utility.yul\":3146:3148   */\n      0x20\n        /* \"#utility.yul\":3135:3144   */\n      dup3\n        /* \"#utility.yul\":3131:3149   */\n      add\n        /* \"#utility.yul\":3123:3149   */\n      swap1\n      pop\n        /* \"#utility.yul\":3159:3230   */\n      tag_309\n        /* \"#utility.yul\":3227:3228   */\n      0x00\n        /* \"#utility.yul\":3216:3225   */\n      dup4\n        /* \"#utility.yul\":3212:3229   */\n      add\n        /* \"#utility.yul\":3203:3209   */\n      dup5\n        /* \"#utility.yul\":3159:3230   */\n      tag_225\n      jump\t// in\n    tag_309:\n        /* \"#utility.yul\":3015:3237   */\n      swap3\n      swap2\n      pop\n      pop\n      jump\t// out\n        /* \"#utility.yul\":3243:3360   */\n    tag_226:\n        /* \"#utility.yul\":3352:3353   */\n      0x00\n        /* \"#utility.yul\":3349:3350   */\n      dup1\n        /* \"#utility.yul\":3342:3354   */\n      revert\n        /* \"#utility.yul\":3366:3483   */\n    tag_227:\n        /* \"#utility.yul\":3475:3476   */\n      0x00\n        /* \"#utility.yul\":3472:3473   */\n      dup1\n        /* \"#utility.yul\":3465:3477   */\n      revert\n        /* \"#utility.yul\":3489:3591   */\n    tag_228:\n        /* \"#utility.yul\":3530:3536   */\n      0x00\n        /* \"#utility.yul\":3581:3583   */\n      0x1f\n        /* \"#utility.yul\":3577:3584   */\n      not\n        /* \"#utility.yul\":3572:3574   */\n      0x1f\n        /* \"#utility.yul\":3565:3570   */\n      dup4\n        /* \"#utility.yul\":3561:3575   */\n      add\n        /* \"#utility.yul\":3557:3585   */\n      and\n        /* \"#utility.yul\":3547:3585   */\n      swap1\n      pop\n        /* \"#utility.yul\":3489:3591   */\n      swap2\n      swap1\n      pop\n      jump\t// out\n        /* \"#utility.yul\":3597:3777   */\n    tag_229:\n        /* \"#utility.yul\":3645:3722   */\n      0x4e487b7100000000000000000000000000000000000000000000000000000000\n        /* \"#utility.yul\":3642:3643   */\n      0x00\n        /* \"#utility.yul\":3635:3723   */\n      mstore\n        /* \"#utility.yul\":3742:3746   */\n      0x41\n        /* \"#utility.yul\":3739:3740   */\n      0x04\n        /* \"#utility.yul\":3732:3747   */\n      mstore\n        /* \"#utility.yul\":3766:3770   */\n      0x24\n        /* \"#utility.yul\":3763:3764   */\n      0x00\n        /* \"#utility.yul\":3756:3771   */\n      revert\n        /* \"#utility.yul\":3783:4064   */\n    tag_230:\n        /* \"#utility.yul\":3866:3893   */\n      tag_315\n        /* \"#utility.yul\":3888:3892   */\n      dup3\n        /* \"#utility.yul\":3866:3893   */\n      tag_228\n      jump\t// in\n    tag_315:\n        /* \"#utility.yul\":3858:3864   */\n      dup2\n        /* \"#utility.yul\":3854:3894   */\n      add\n        /* \"#utility.yul\":3996:4002   */\n      dup2\n        /* \"#utility.yul\":3984:3994   */\n      dup2\n        /* \"#utility.yul\":3981:4003   */\n      lt\n        /* \"#utility.yul\":3960:3978   */\n      0xffffffffffffffff\n        /* \"#utility.yul\":3948:3958   */\n      dup3\n        /* \"#utility.yul\":3945:3979   */\n      gt\n        /* \"#utility.yul\":3942:4004   */\n      or\n        /* \"#utility.yul\":3939:4027   */\n      iszero\n      tag_316\n      jumpi\n        /* \"#utility.yul\":4007:4025   */\n      tag_317\n      tag_229\n      jump\t// in\n    tag_317:\n        /* \"#utility.yul\":3939:4027   */\n    tag_316:\n        /* \"#utility.yul\":4047:4057   */\n      dup1\n        /* \"#utility.yul\":4043:4045   */\n      0x40\n        /* \"#utility.yul\":4036:4058   */\n      mstore\n        /* \"#utility.yul\":3826:4064   */\n      pop\n        /* \"#utility.yul\":3783:4064   */\n      pop\n      pop\n      jump\t// out\n        /* \"#utility.yul\":4070:4199   */\n    tag_231:\n        /* \"#utility.yul\":4104:4110   */\n      0x00\n        /* \"#utility.yul\":4131:4151   */\n      tag_319\n      tag_212\n      jump\t// in\n    tag_319:\n        /* \"#utility.yul\":4121:4151   */\n      swap1\n      pop\n        /* \"#utility.yul\":4160:4193   */\n      tag_320\n        /* \"#utility.yul\":4188:4192   */\n      dup3\n        /* \"#utility.yul\":4180:4186   */\n      dup3\n        /* \"#utility.yul\":4160:4193   */\n      tag_230\n      jump\t// in\n    tag_320:\n        /* \"#utility.yul\":4070:4199   */\n      swap2\n      swap1\n      pop\n      jump\t// out\n        /* \"#utility.yul\":4205:4513   */\n    tag_232:\n        /* \"#utility.yul\":4267:4271   */\n      0x00\n        /* \"#utility.yul\":4357:4375   */\n      0xffffffffffffffff\n        /* \"#utility.yul\":4349:4355   */\n      dup3\n        /* \"#utility.yul\":4346:4376   */\n      gt\n        /* \"#utility.yul\":4343:4399   */\n      iszero\n      tag_322\n      jumpi\n        /* \"#utility.yul\":4379:4397   */\n      tag_323\n      tag_229\n      jump\t// in\n    tag_323:\n        /* \"#utility.yul\":4343:4399   */\n    tag_322:\n        /* \"#utility.yul\":4417:4446   */\n      tag_324\n        /* \"#utility.yul\":4439:4445   */\n      dup3\n        /* \"#utility.yul\":4417:4446   */\n      tag_228\n      jump\t// in\n    tag_324:\n        /* \"#utility.yul\":4409:4446   */\n      swap1\n      pop\n        /* \"#utility.yul\":4501:4505   */\n      0x20\n        /* \"#utility.yul\":4495:4499   */\n      dup2\n        /* \"#utility.yul\":4491:4506   */\n      add\n        /* \"#utility.yul\":4483:4506   */\n      swap1\n      pop\n        /* \"#utility.yul\":4205:4513   */\n      swap2\n      swap1\n      pop\n      jump\t// out\n        /* \"#utility.yul\":4519:4665   */\n    tag_233:\n        /* \"#utility.yul\":4616:4622   */\n      dup3\n        /* \"#utility.yul\":4611:4614   */\n      dup2\n        /* \"#utility.yul\":4606:4609   */\n      dup4\n        /* \"#utility.yul\":4593:4623   */\n      calldatacopy\n        /* \"#utility.yul\":4657:4658   */\n      0x00\n        /* \"#utility.yul\":4648:4654   */\n      dup4\n        /* \"#utility.yul\":4643:4646   */\n      dup4\n        /* \"#utility.yul\":4639:4655   */\n      add\n        /* \"#utility.yul\":4632:4659   */\n      mstore\n        /* \"#utility.yul\":4519:4665   */\n      pop\n      pop\n      pop\n      jump\t// out\n        /* \"#utility.yul\":4671:5096   */\n    tag_234:\n        /* \"#utility.yul\":4749:4754   */\n      0x00\n        /* \"#utility.yul\":4774:4840   */\n      tag_327\n        /* \"#utility.yul\":4790:4839   */\n      tag_328\n        /* \"#utility.yul\":4832:4838   */\n      dup5\n        /* \"#utility.yul\":4790:4839   */\n      tag_232\n      jump\t// in\n    tag_328:\n        /* \"#utility.yul\":4774:4840   */\n      tag_231\n      jump\t// in\n    tag_327:\n        /* \"#utility.yul\":4765:4840   */\n      swap1\n      pop\n        /* \"#utility.yul\":4863:4869   */\n      dup3\n        /* \"#utility.yul\":4856:4861   */\n      dup2\n        /* \"#utility.yul\":4849:4870   */\n      mstore\n        /* \"#utility.yul\":4901:4905   */\n      0x20\n        /* \"#utility.yul\":4894:4899   */\n      dup2\n        /* \"#utility.yul\":4890:4906   */\n      add\n        /* \"#utility.yul\":4939:4942   */\n      dup5\n        /* \"#utility.yul\":4930:4936   */\n      dup5\n        /* \"#utility.yul\":4925:4928   */\n      dup5\n        /* \"#utility.yul\":4921:4937   */\n      add\n        /* \"#utility.yul\":4918:4943   */\n      gt\n        /* \"#utility.yul\":4915:5027   */\n      iszero\n      tag_329\n      jumpi\n        /* \"#utility.yul\":4946:5025   */\n      tag_330\n      tag_227\n      jump\t// in\n    tag_330:\n        /* \"#utility.yul\":4915:5027   */\n    tag_329:\n        /* \"#utility.yul\":5036:5090   */\n      tag_331\n        /* \"#utility.yul\":5083:5089   */\n      dup5\n        /* \"#utility.yul\":5078:5081   */\n      dup3\n        /* \"#utility.yul\":5073:5076   */\n      dup6\n        /* \"#utility.yul\":5036:5090   */\n      tag_233\n      jump\t// in\n    tag_331:\n        /* \"#utility.yul\":4755:5096   */\n      pop\n        /* \"#utility.yul\":4671:5096   */\n      swap4\n      swap3\n      pop\n      pop\n      pop\n      jump\t// out\n        /* \"#utility.yul\":5116:5456   */\n    tag_235:\n        /* \"#utility.yul\":5172:5177   */\n      0x00\n        /* \"#utility.yul\":5221:5224   */\n      dup3\n        /* \"#utility.yul\":5214:5218   */\n      0x1f\n        /* \"#utility.yul\":5206:5212   */\n      dup4\n        /* \"#utility.yul\":5202:5219   */\n      add\n        /* \"#utility.yul\":5198:5225   */\n      slt\n        /* \"#utility.yul\":5188:5310   */\n      tag_333\n      jumpi\n        /* \"#utility.yul\":5229:5308   */\n      tag_334\n      tag_226\n      jump\t// in\n    tag_334:\n        /* \"#utility.yul\":5188:5310   */\n    tag_333:\n        /* \"#utility.yul\":5346:5352   */\n      dup2\n        /* \"#utility.yul\":5333:5353   */\n      calldataload\n        /* \"#utility.yul\":5371:5450   */\n      tag_335\n        /* \"#utility.yul\":5446:5449   */\n      dup5\n        /* \"#utility.yul\":5438:5444   */\n      dup3\n        /* \"#utility.yul\":5431:5435   */\n      0x20\n        /* \"#utility.yul\":5423:5429   */\n      dup7\n        /* \"#utility.yul\":5419:5436   */\n      add\n        /* \"#utility.yul\":5371:5450   */\n      tag_234\n      jump\t// in\n    tag_335:\n        /* \"#utility.yul\":5362:5450   */\n      swap2\n      pop\n        /* \"#utility.yul\":5178:5456   */\n      pop\n        /* \"#utility.yul\":5116:5456   */\n      swap3\n      swap2\n      pop\n      pop\n      jump\t// out\n        /* \"#utility.yul\":5462:6132   */\n    tag_42:\n        /* \"#utility.yul\":5548:5554   */\n      0x00\n        /* \"#utility.yul\":5556:5562   */\n      dup1\n        /* \"#utility.yul\":5605:5607   */\n      0x40\n        /* \"#utility.yul\":5593:5602   */\n      dup4\n        /* \"#utility.yul\":5584:5591   */\n      dup6\n        /* \"#utility.yul\":5580:5603   */\n      sub\n        /* \"#utility.yul\":5576:5608   */\n      slt\n        /* \"#utility.yul\":5573:5692   */\n      iszero\n      tag_337\n      jumpi\n        /* \"#utility.yul\":5611:5690   */\n      tag_338\n      tag_213\n      jump\t// in\n    tag_338:\n        /* \"#utility.yul\":5573:5692   */\n    tag_337:\n        /* \"#utility.yul\":5731:5732   */\n      0x00\n        /* \"#utility.yul\":5756:5817   */\n      tag_339\n        /* \"#utility.yul\":5809:5816   */\n      dup6\n        /* \"#utility.yul\":5800:5806   */\n      dup3\n        /* \"#utility.yul\":5789:5798   */\n      dup7\n        /* \"#utility.yul\":5785:5807   */\n      add\n        /* \"#utility.yul\":5756:5817   */\n      tag_218\n      jump\t// in\n    tag_339:\n        /* \"#utility.yul\":5746:5817   */\n      swap3\n      pop\n        /* \"#utility.yul\":5702:5827   */\n      pop\n        /* \"#utility.yul\":5894:5896   */\n      0x20\n        /* \"#utility.yul\":5883:5892   */\n      dup4\n        /* \"#utility.yul\":5879:5897   */\n      add\n        /* \"#utility.yul\":5866:5898   */\n      calldataload\n        /* \"#utility.yul\":5925:5943   */\n      0xffffffffffffffff\n        /* \"#utility.yul\":5917:5923   */\n      dup2\n        /* \"#utility.yul\":5914:5944   */\n      gt\n        /* \"#utility.yul\":5911:6028   */\n      iszero\n      tag_340\n      jumpi\n        /* \"#utility.yul\":5947:6026   */\n      tag_341\n      tag_214\n      jump\t// in\n    tag_341:\n        /* \"#utility.yul\":5911:6028   */\n    tag_340:\n        /* \"#utility.yul\":6052:6115   */\n      tag_342\n        /* \"#utility.yul\":6107:6114   */\n      dup6\n        /* \"#utility.yul\":6098:6104   */\n      dup3\n        /* \"#utility.yul\":6087:6096   */\n      dup7\n        /* \"#utility.yul\":6083:6105   */\n      add\n        /* \"#utility.yul\":6052:6115   */\n      tag_235\n      jump\t// in\n    tag_342:\n        /* \"#utility.yul\":6042:6115   */\n      swap2\n      pop\n        /* \"#utility.yul\":5837:6125   */\n      pop\n        /* \"#utility.yul\":5462:6132   */\n      swap3\n      pop\n      swap3\n      swap1\n      pop\n      jump\t// out\n        /* \"#utility.yul\":6138:7099   */\n    tag_46:\n        /* \"#utility.yul\":6242:6248   */\n      0x00\n        /* \"#utility.yul\":6250:6256   */\n      dup1\n        /* \"#utility.yul\":6258:6264   */\n      0x00\n        /* \"#utility.yul\":6266:6272   */\n      dup1\n        /* \"#utility.yul\":6315:6318   */\n      0x80\n        /* \"#utility.yul\":6303:6312   */\n      dup6\n        /* \"#utility.yul\":6294:6301   */\n      dup8\n        /* \"#utility.yul\":6290:6313   */\n      sub\n        /* \"#utility.yul\":6286:6319   */\n      slt\n        /* \"#utility.yul\":6283:6403   */\n      iszero\n      tag_344\n      jumpi\n        /* \"#utility.yul\":6322:6401   */\n      tag_345\n      tag_213\n      jump\t// in\n    tag_345:\n        /* \"#utility.yul\":6283:6403   */\n    tag_344:\n        /* \"#utility.yul\":6442:6443   */\n      0x00\n        /* \"#utility.yul\":6467:6528   */\n      tag_346\n        /* \"#utility.yul\":6520:6527   */\n      dup8\n        /* \"#utility.yul\":6511:6517   */\n      dup3\n        /* \"#utility.yul\":6500:6509   */\n      dup9\n        /* \"#utility.yul\":6496:6518   */\n      add\n        /* \"#utility.yul\":6467:6528   */\n      tag_218\n      jump\t// in\n    tag_346:\n        /* \"#utility.yul\":6457:6528   */\n      swap5\n      pop\n        /* \"#utility.yul\":6413:6538   */\n      pop\n        /* \"#utility.yul\":6577:6579   */\n      0x20\n        /* \"#utility.yul\":6603:6656   */\n      tag_347\n        /* \"#utility.yul\":6648:6655   */\n      dup8\n        /* \"#utility.yul\":6639:6645   */\n      dup3\n        /* \"#utility.yul\":6628:6637   */\n      dup9\n        /* \"#utility.yul\":6624:6646   */\n      add\n        /* \"#utility.yul\":6603:6656   */\n      tag_221\n      jump\t// in\n    tag_347:\n        /* \"#utility.yul\":6593:6656   */\n      swap4\n      pop\n        /* \"#utility.yul\":6548:6666   */\n      pop\n        /* \"#utility.yul\":6705:6707   */\n      0x40\n        /* \"#utility.yul\":6731:6784   */\n      tag_348\n        /* \"#utility.yul\":6776:6783   */\n      dup8\n        /* \"#utility.yul\":6767:6773   */\n      dup3\n        /* \"#utility.yul\":6756:6765   */\n      dup9\n        /* \"#utility.yul\":6752:6774   */\n      add\n        /* \"#utility.yul\":6731:6784   */\n      tag_221\n      jump\t// in\n    tag_348:\n        /* \"#utility.yul\":6721:6784   */\n      swap3\n      pop\n        /* \"#utility.yul\":6676:6794   */\n      pop\n        /* \"#utility.yul\":6861:6863   */\n      0x60\n        /* \"#utility.yul\":6850:6859   */\n      dup6\n        /* \"#utility.yul\":6846:6864   */\n      add\n        /* \"#utility.yul\":6833:6865   */\n      calldataload\n        /* \"#utility.yul\":6892:6910   */\n      0xffffffffffffffff\n        /* \"#utility.yul\":6884:6890   */\n      dup2\n        /* \"#utility.yul\":6881:6911   */\n      gt\n        /* \"#utility.yul\":6878:6995   */\n      iszero\n      tag_349\n      jumpi\n        /* \"#utility.yul\":6914:6993   */\n      tag_350\n      tag_214\n      jump\t// in\n    tag_350:\n        /* \"#utility.yul\":6878:6995   */\n    tag_349:\n        /* \"#utility.yul\":7019:7082   */\n      tag_351\n        /* \"#utility.yul\":7074:7081   */\n      dup8\n        /* \"#utility.yul\":7065:7071   */\n      dup3\n        /* \"#utility.yul\":7054:7063   */\n      dup9\n        /* \"#utility.yul\":7050:7072   */\n      add\n        /* \"#utility.yul\":7019:7082   */\n      tag_235\n      jump\t// in\n    tag_351:\n        /* \"#utility.yul\":7009:7082   */\n      swap2\n      pop\n        /* \"#utility.yul\":6804:7092   */\n      pop\n        /* \"#utility.yul\":6138:7099   */\n      swap3\n      swap6\n      swap2\n      swap5\n      pop\n      swap3\n      pop\n      jump\t// out\n        /* \"#utility.yul\":7105:7223   */\n    tag_236:\n        /* \"#utility.yul\":7192:7216   */\n      tag_353\n        /* \"#utility.yul\":7210:7215   */\n      dup2\n        /* \"#utility.yul\":7192:7216   */\n      tag_222\n      jump\t// in\n    tag_353:\n        /* \"#utility.yul\":7187:7190   */\n      dup3\n        /* \"#utility.yul\":7180:7217   */\n      mstore\n        /* \"#utility.yul\":7105:7223   */\n      pop\n      pop\n      jump\t// out\n        /* \"#utility.yul\":7229:8674   */\n    tag_55:\n        /* \"#utility.yul\":7632:7636   */\n      0x00\n        /* \"#utility.yul\":7670:7673   */\n      0x0180\n        /* \"#utility.yul\":7659:7668   */\n      dup3\n        /* \"#utility.yul\":7655:7674   */\n      add\n        /* \"#utility.yul\":7647:7674   */\n      swap1\n      pop\n        /* \"#utility.yul\":7684:7755   */\n      tag_355\n        /* \"#utility.yul\":7752:7753   */\n      0x00\n        /* \"#utility.yul\":7741:7750   */\n      dup4\n        /* \"#utility.yul\":7737:7754   */\n      add\n        /* \"#utility.yul\":7728:7734   */\n      dup16\n        /* \"#utility.yul\":7684:7755   */\n      tag_236\n      jump\t// in\n    tag_355:\n        /* \"#utility.yul\":7765:7837   */\n      tag_356\n        /* \"#utility.yul\":7833:7835   */\n      0x20\n        /* \"#utility.yul\":7822:7831   */\n      dup4\n        /* \"#utility.yul\":7818:7836   */\n      add\n        /* \"#utility.yul\":7809:7815   */\n      dup15\n        /* \"#utility.yul\":7765:7837   */\n      tag_225\n      jump\t// in\n    tag_356:\n        /* \"#utility.yul\":7847:7919   */\n      tag_357\n        /* \"#utility.yul\":7915:7917   */\n      0x40\n        /* \"#utility.yul\":7904:7913   */\n      dup4\n        /* \"#utility.yul\":7900:7918   */\n      add\n        /* \"#utility.yul\":7891:7897   */\n      dup14\n        /* \"#utility.yul\":7847:7919   */\n      tag_225\n      jump\t// in\n    tag_357:\n        /* \"#utility.yul\":7929:8001   */\n      tag_358\n        /* \"#utility.yul\":7997:7999   */\n      0x60\n        /* \"#utility.yul\":7986:7995   */\n      dup4\n        /* \"#utility.yul\":7982:8000   */\n      add\n        /* \"#utility.yul\":7973:7979   */\n      dup13\n        /* \"#utility.yul\":7929:8001   */\n      tag_225\n      jump\t// in\n    tag_358:\n        /* \"#utility.yul\":8011:8084   */\n      tag_359\n        /* \"#utility.yul\":8079:8082   */\n      0x80\n        /* \"#utility.yul\":8068:8077   */\n      dup4\n        /* \"#utility.yul\":8064:8083   */\n      add\n        /* \"#utility.yul\":8055:8061   */\n      dup12\n        /* \"#utility.yul\":8011:8084   */\n      tag_225\n      jump\t// in\n    tag_359:\n        /* \"#utility.yul\":8094:8167   */\n      tag_360\n        /* \"#utility.yul\":8162:8165   */\n      0xa0\n        /* \"#utility.yul\":8151:8160   */\n      dup4\n        /* \"#utility.yul\":8147:8166   */\n      add\n        /* \"#utility.yul\":8138:8144   */\n      dup11\n        /* \"#utility.yul\":8094:8167   */\n      tag_225\n      jump\t// in\n    tag_360:\n        /* \"#utility.yul\":8177:8250   */\n      tag_361\n        /* \"#utility.yul\":8245:8248   */\n      0xc0\n        /* \"#utility.yul\":8234:8243   */\n      dup4\n        /* \"#utility.yul\":8230:8249   */\n      add\n        /* \"#utility.yul\":8221:8227   */\n      dup10\n        /* \"#utility.yul\":8177:8250   */\n      tag_225\n      jump\t// in\n    tag_361:\n        /* \"#utility.yul\":8260:8333   */\n      tag_362\n        /* \"#utility.yul\":8328:8331   */\n      0xe0\n        /* \"#utility.yul\":8317:8326   */\n      dup4\n        /* \"#utility.yul\":8313:8332   */\n      add\n        /* \"#utility.yul\":8304:8310   */\n      dup9\n        /* \"#utility.yul\":8260:8333   */\n      tag_225\n      jump\t// in\n    tag_362:\n        /* \"#utility.yul\":8343:8416   */\n      tag_363\n        /* \"#utility.yul\":8411:8414   */\n      0x0100\n        /* \"#utility.yul\":8400:8409   */\n      dup4\n        /* \"#utility.yul\":8396:8415   */\n      add\n        /* \"#utility.yul\":8387:8393   */\n      dup8\n        /* \"#utility.yul\":8343:8416   */\n      tag_225\n      jump\t// in\n    tag_363:\n        /* \"#utility.yul\":8426:8499   */\n      tag_364\n        /* \"#utility.yul\":8494:8497   */\n      0x0120\n        /* \"#utility.yul\":8483:8492   */\n      dup4\n        /* \"#utility.yul\":8479:8498   */\n      add\n        /* \"#utility.yul\":8470:8476   */\n      dup7\n        /* \"#utility.yul\":8426:8499   */\n      tag_225\n      jump\t// in\n    tag_364:\n        /* \"#utility.yul\":8509:8583   */\n      tag_365\n        /* \"#utility.yul\":8578:8581   */\n      0x0140\n        /* \"#utility.yul\":8567:8576   */\n      dup4\n        /* \"#utility.yul\":8563:8582   */\n      add\n        /* \"#utility.yul\":8553:8560   */\n      dup6\n        /* \"#utility.yul\":8509:8583   */\n      tag_225\n      jump\t// in\n    tag_365:\n        /* \"#utility.yul\":8593:8667   */\n      tag_366\n        /* \"#utility.yul\":8662:8665   */\n      0x0160\n        /* \"#utility.yul\":8651:8660   */\n      dup4\n        /* \"#utility.yul\":8647:8666   */\n      add\n        /* \"#utility.yul\":8637:8644   */\n      dup5\n        /* \"#utility.yul\":8593:8667   */\n      tag_225\n      jump\t// in\n    tag_366:\n        /* \"#utility.yul\":7229:8674   */\n      swap14\n      swap13\n      pop\n      pop\n      pop\n      pop\n      pop\n      pop\n      pop\n      pop\n      pop\n      pop\n      pop\n      pop\n      pop\n      jump\t// out\n        /* \"#utility.yul\":8680:8849   */\n    tag_237:\n        /* \"#utility.yul\":8764:8775   */\n      0x00\n        /* \"#utility.yul\":8798:8804   */\n      dup3\n        /* \"#utility.yul\":8793:8796   */\n      dup3\n        /* \"#utility.yul\":8786:8805   */\n      mstore\n        /* \"#utility.yul\":8838:8842   */\n      0x20\n        /* \"#utility.yul\":8833:8836   */\n      dup3\n        /* \"#utility.yul\":8829:8843   */\n      add\n        /* \"#utility.yul\":8814:8843   */\n      swap1\n      pop\n        /* \"#utility.yul\":8680:8849   */\n      swap3\n      swap2\n      pop\n      pop\n      jump\t// out\n        /* \"#utility.yul\":8855:9032   */\n    tag_238:\n        /* \"#utility.yul\":8995:9024   */\n      0x7a65726f2061646472657373206973206e6f7420616c6c6f7765640000000000\n        /* \"#utility.yul\":8991:8992   */\n      0x00\n        /* \"#utility.yul\":8983:8989   */\n      dup3\n        /* \"#utility.yul\":8979:8993   */\n      add\n        /* \"#utility.yul\":8972:9025   */\n      mstore\n        /* \"#utility.yul\":8855:9032   */\n      pop\n      jump\t// out\n        /* \"#utility.yul\":9038:9404   */\n    tag_239:\n        /* \"#utility.yul\":9180:9183   */\n      0x00\n        /* \"#utility.yul\":9201:9268   */\n      tag_370\n        /* \"#utility.yul\":9265:9267   */\n      0x1b\n        /* \"#utility.yul\":9260:9263   */\n      dup4\n        /* \"#utility.yul\":9201:9268   */\n      tag_237\n      jump\t// in\n    tag_370:\n        /* \"#utility.yul\":9194:9268   */\n      swap2\n      pop\n        /* \"#utility.yul\":9277:9370   */\n      tag_371\n        /* \"#utility.yul\":9366:9369   */\n      dup3\n        /* \"#utility.yul\":9277:9370   */\n      tag_238\n      jump\t// in\n    tag_371:\n        /* \"#utility.yul\":9395:9397   */\n      0x20\n        /* \"#utility.yul\":9390:9393   */\n      dup3\n        /* \"#utility.yul\":9386:9398   */\n      add\n        /* \"#utility.yul\":9379:9398   */\n      swap1\n      pop\n        /* \"#utility.yul\":9038:9404   */\n      swap2\n      swap1\n      pop\n      jump\t// out\n        /* \"#utility.yul\":9410:9829   */\n    tag_68:\n        /* \"#utility.yul\":9576:9580   */\n      0x00\n        /* \"#utility.yul\":9614:9616   */\n      0x20\n        /* \"#utility.yul\":9603:9612   */\n      dup3\n        /* \"#utility.yul\":9599:9617   */\n      add\n        /* \"#utility.yul\":9591:9617   */\n      swap1\n      pop\n        /* \"#utility.yul\":9663:9672   */\n      dup2\n        /* \"#utility.yul\":9657:9661   */\n      dup2\n        /* \"#utility.yul\":9653:9673   */\n      sub\n        /* \"#utility.yul\":9649:9650   */\n      0x00\n        /* \"#utility.yul\":9638:9647   */\n      dup4\n        /* \"#utility.yul\":9634:9651   */\n      add\n        /* \"#utility.yul\":9627:9674   */\n      mstore\n        /* \"#utility.yul\":9691:9822   */\n      tag_373\n        /* \"#utility.yul\":9817:9821   */\n      dup2\n        /* \"#utility.yul\":9691:9822   */\n      tag_239\n      jump\t// in\n    tag_373:\n        /* \"#utility.yul\":9683:9822   */\n      swap1\n      pop\n        /* \"#utility.yul\":9410:9829   */\n      swap2\n      swap1\n      pop\n      jump\t// out\n        /* \"#utility.yul\":9835:10008   */\n    tag_240:\n        /* \"#utility.yul\":9975:10000   */\n      0x706c656173652073656e6420736f6d6520616d6f756e74000000000000000000\n        /* \"#utility.yul\":9971:9972   */\n      0x00\n        /* \"#utility.yul\":9963:9969   */\n      dup3\n        /* \"#utility.yul\":9959:9973   */\n      add\n        /* \"#utility.yul\":9952:10001   */\n      mstore\n        /* \"#utility.yul\":9835:10008   */\n      pop\n      jump\t// out\n        /* \"#utility.yul\":10014:10380   */\n    tag_241:\n        /* \"#utility.yul\":10156:10159   */\n      0x00\n        /* \"#utility.yul\":10177:10244   */\n      tag_376\n        /* \"#utility.yul\":10241:10243   */\n      0x17\n        /* \"#utility.yul\":10236:10239   */\n      dup4\n        /* \"#utility.yul\":10177:10244   */\n      tag_237\n      jump\t// in\n    tag_376:\n        /* \"#utility.yul\":10170:10244   */\n      swap2\n      pop\n        /* \"#utility.yul\":10253:10346   */\n      tag_377\n        /* \"#utility.yul\":10342:10345   */\n      dup3\n        /* \"#utility.yul\":10253:10346   */\n      tag_240\n      jump\t// in\n    tag_377:\n        /* \"#utility.yul\":10371:10373   */\n      0x20\n        /* \"#utility.yul\":10366:10369   */\n      dup3\n        /* \"#utility.yul\":10362:10374   */\n      add\n        /* \"#utility.yul\":10355:10374   */\n      swap1\n      pop\n        /* \"#utility.yul\":10014:10380   */\n      swap2\n      swap1\n      pop\n      jump\t// out\n        /* \"#utility.yul\":10386:10805   */\n    tag_71:\n        /* \"#utility.yul\":10552:10556   */\n      0x00\n        /* \"#utility.yul\":10590:10592   */\n      0x20\n        /* \"#utility.yul\":10579:10588   */\n      dup3\n        /* \"#utility.yul\":10575:10593   */\n      add\n        /* \"#utility.yul\":10567:10593   */\n      swap1\n      pop\n        /* \"#utility.yul\":10639:10648   */\n      dup2\n        /* \"#utility.yul\":10633:10637   */\n      dup2\n        /* \"#utility.yul\":10629:10649   */\n      sub\n        /* \"#utility.yul\":10625:10626   */\n      0x00\n        /* \"#utility.yul\":10614:10623   */\n      dup4\n        /* \"#utility.yul\":10610:10627   */\n      add\n        /* \"#utility.yul\":10603:10650   */\n      mstore\n        /* \"#utility.yul\":10667:10798   */\n      tag_379\n        /* \"#utility.yul\":10793:10797   */\n      dup2\n        /* \"#utility.yul\":10667:10798   */\n      tag_241\n      jump\t// in\n    tag_379:\n        /* \"#utility.yul\":10659:10798   */\n      swap1\n      pop\n        /* \"#utility.yul\":10386:10805   */\n      swap2\n      swap1\n      pop\n      jump\t// out\n        /* \"#utility.yul\":10811:10991   */\n    tag_242:\n        /* \"#utility.yul\":10859:10936   */\n      0x4e487b7100000000000000000000000000000000000000000000000000000000\n        /* \"#utility.yul\":10856:10857   */\n      0x00\n        /* \"#utility.yul\":10849:10937   */\n      mstore\n        /* \"#utility.yul\":10956:10960   */\n      0x11\n        /* \"#utility.yul\":10953:10954   */\n      0x04\n        /* \"#utility.yul\":10946:10961   */\n      mstore\n        /* \"#utility.yul\":10980:10984   */\n      0x24\n        /* \"#utility.yul\":10977:10978   */\n      0x00\n        /* \"#utility.yul\":10970:10985   */\n      revert\n        /* \"#utility.yul\":10997:11188   */\n    tag_73:\n        /* \"#utility.yul\":11037:11040   */\n      0x00\n        /* \"#utility.yul\":11056:11076   */\n      tag_382\n        /* \"#utility.yul\":11074:11075   */\n      dup3\n        /* \"#utility.yul\":11056:11076   */\n      tag_219\n      jump\t// in\n    tag_382:\n        /* \"#utility.yul\":11051:11076   */\n      swap2\n      pop\n        /* \"#utility.yul\":11090:11110   */\n      tag_383\n        /* \"#utility.yul\":11108:11109   */\n      dup4\n        /* \"#utility.yul\":11090:11110   */\n      tag_219\n      jump\t// in\n    tag_383:\n        /* \"#utility.yul\":11085:11110   */\n      swap3\n      pop\n        /* \"#utility.yul\":11133:11134   */\n      dup3\n        /* \"#utility.yul\":11130:11131   */\n      dup3\n        /* \"#utility.yul\":11126:11135   */\n      add\n        /* \"#utility.yul\":11119:11135   */\n      swap1\n      pop\n        /* \"#utility.yul\":11154:11157   */\n      dup1\n        /* \"#utility.yul\":11151:11152   */\n      dup3\n        /* \"#utility.yul\":11148:11158   */\n      gt\n        /* \"#utility.yul\":11145:11181   */\n      iszero\n      tag_384\n      jumpi\n        /* \"#utility.yul\":11161:11179   */\n      tag_385\n      tag_242\n      jump\t// in\n    tag_385:\n        /* \"#utility.yul\":11145:11181   */\n    tag_384:\n        /* \"#utility.yul\":10997:11188   */\n      swap3\n      swap2\n      pop\n      pop\n      jump\t// out\n        /* \"#utility.yul\":11194:11342   */\n    tag_243:\n        /* \"#utility.yul\":11296:11307   */\n      0x00\n        /* \"#utility.yul\":11333:11336   */\n      dup2\n        /* \"#utility.yul\":11318:11336   */\n      swap1\n      pop\n        /* \"#utility.yul\":11194:11342   */\n      swap3\n      swap2\n      pop\n      pop\n      jump\t// out\n        /* \"#utility.yul\":11348:11501   */\n    tag_244:\n        /* \"#utility.yul\":11488:11493   */\n      0x6361720000000000000000000000000000000000000000000000000000000000\n        /* \"#utility.yul\":11484:11485   */\n      0x00\n        /* \"#utility.yul\":11476:11482   */\n      dup3\n        /* \"#utility.yul\":11472:11486   */\n      add\n        /* \"#utility.yul\":11465:11494   */\n      mstore\n        /* \"#utility.yul\":11348:11501   */\n      pop\n      jump\t// out\n        /* \"#utility.yul\":11507:11907   */\n    tag_245:\n        /* \"#utility.yul\":11667:11670   */\n      0x00\n        /* \"#utility.yul\":11688:11772   */\n      tag_389\n        /* \"#utility.yul\":11770:11771   */\n      0x03\n        /* \"#utility.yul\":11765:11768   */\n      dup4\n        /* \"#utility.yul\":11688:11772   */\n      tag_243\n      jump\t// in\n    tag_389:\n        /* \"#utility.yul\":11681:11772   */\n      swap2\n      pop\n        /* \"#utility.yul\":11781:11874   */\n      tag_390\n        /* \"#utility.yul\":11870:11873   */\n      dup3\n        /* \"#utility.yul\":11781:11874   */\n      tag_244\n      jump\t// in\n    tag_390:\n        /* \"#utility.yul\":11899:11900   */\n      0x03\n        /* \"#utility.yul\":11894:11897   */\n      dup3\n        /* \"#utility.yul\":11890:11901   */\n      add\n        /* \"#utility.yul\":11883:11901   */\n      swap1\n      pop\n        /* \"#utility.yul\":11507:11907   */\n      swap2\n      swap1\n      pop\n      jump\t// out\n        /* \"#utility.yul\":11913:12294   */\n    tag_83:\n        /* \"#utility.yul\":12098:12101   */\n      0x00\n        /* \"#utility.yul\":12120:12268   */\n      tag_392\n        /* \"#utility.yul\":12264:12267   */\n      dup3\n        /* \"#utility.yul\":12120:12268   */\n      tag_245\n      jump\t// in\n    tag_392:\n        /* \"#utility.yul\":12113:12268   */\n      swap2\n      pop\n        /* \"#utility.yul\":12285:12288   */\n      dup2\n        /* \"#utility.yul\":12278:12288   */\n      swap1\n      pop\n        /* \"#utility.yul\":11913:12294   */\n      swap2\n      swap1\n      pop\n      jump\t// out\n        /* \"#utility.yul\":12300:12399   */\n    tag_246:\n        /* \"#utility.yul\":12352:12358   */\n      0x00\n        /* \"#utility.yul\":12386:12391   */\n      dup2\n        /* \"#utility.yul\":12380:12392   */\n      mload\n        /* \"#utility.yul\":12370:12392   */\n      swap1\n      pop\n        /* \"#utility.yul\":12300:12399   */\n      swap2\n      swap1\n      pop\n      jump\t// out\n        /* \"#utility.yul\":12405:12651   */\n    tag_247:\n        /* \"#utility.yul\":12486:12487   */\n      0x00\n        /* \"#utility.yul\":12496:12609   */\n    tag_395:\n        /* \"#utility.yul\":12510:12516   */\n      dup4\n        /* \"#utility.yul\":12507:12508   */\n      dup2\n        /* \"#utility.yul\":12504:12517   */\n      lt\n        /* \"#utility.yul\":12496:12609   */\n      iszero\n      tag_397\n      jumpi\n        /* \"#utility.yul\":12595:12596   */\n      dup1\n        /* \"#utility.yul\":12590:12593   */\n      dup3\n        /* \"#utility.yul\":12586:12597   */\n      add\n        /* \"#utility.yul\":12580:12598   */\n      mload\n        /* \"#utility.yul\":12576:12577   */\n      dup2\n        /* \"#utility.yul\":12571:12574   */\n      dup5\n        /* \"#utility.yul\":12567:12578   */\n      add\n        /* \"#utility.yul\":12560:12599   */\n      mstore\n        /* \"#utility.yul\":12532:12534   */\n      0x20\n        /* \"#utility.yul\":12529:12530   */\n      dup2\n        /* \"#utility.yul\":12525:12535   */\n      add\n        /* \"#utility.yul\":12520:12535   */\n      swap1\n      pop\n        /* \"#utility.yul\":12496:12609   */\n      jump(tag_395)\n    tag_397:\n        /* \"#utility.yul\":12643:12644   */\n      0x00\n        /* \"#utility.yul\":12634:12640   */\n      dup5\n        /* \"#utility.yul\":12629:12632   */\n      dup5\n        /* \"#utility.yul\":12625:12641   */\n      add\n        /* \"#utility.yul\":12618:12645   */\n      mstore\n        /* \"#utility.yul\":12467:12651   */\n      pop\n        /* \"#utility.yul\":12405:12651   */\n      pop\n      pop\n      pop\n      jump\t// out\n        /* \"#utility.yul\":12657:13047   */\n    tag_248:\n        /* \"#utility.yul\":12763:12766   */\n      0x00\n        /* \"#utility.yul\":12791:12830   */\n      tag_399\n        /* \"#utility.yul\":12824:12829   */\n      dup3\n        /* \"#utility.yul\":12791:12830   */\n      tag_246\n      jump\t// in\n    tag_399:\n        /* \"#utility.yul\":12846:12935   */\n      tag_400\n        /* \"#utility.yul\":12928:12934   */\n      dup2\n        /* \"#utility.yul\":12923:12926   */\n      dup6\n        /* \"#utility.yul\":12846:12935   */\n      tag_243\n      jump\t// in\n    tag_400:\n        /* \"#utility.yul\":12839:12935   */\n      swap4\n      pop\n        /* \"#utility.yul\":12944:13009   */\n      tag_401\n        /* \"#utility.yul\":13002:13008   */\n      dup2\n        /* \"#utility.yul\":12997:13000   */\n      dup6\n        /* \"#utility.yul\":12990:12994   */\n      0x20\n        /* \"#utility.yul\":12983:12988   */\n      dup7\n        /* \"#utility.yul\":12979:12995   */\n      add\n        /* \"#utility.yul\":12944:13009   */\n      tag_247\n      jump\t// in\n    tag_401:\n        /* \"#utility.yul\":13034:13040   */\n      dup1\n        /* \"#utility.yul\":13029:13032   */\n      dup5\n        /* \"#utility.yul\":13025:13041   */\n      add\n        /* \"#utility.yul\":13018:13041   */\n      swap2\n      pop\n        /* \"#utility.yul\":12767:13047   */\n      pop\n        /* \"#utility.yul\":12657:13047   */\n      swap3\n      swap2\n      pop\n      pop\n      jump\t// out\n        /* \"#utility.yul\":13053:13328   */\n    tag_85:\n        /* \"#utility.yul\":13185:13188   */\n      0x00\n        /* \"#utility.yul\":13207:13302   */\n      tag_403\n        /* \"#utility.yul\":13298:13301   */\n      dup3\n        /* \"#utility.yul\":13289:13295   */\n      dup5\n        /* \"#utility.yul\":13207:13302   */\n      tag_248\n      jump\t// in\n    tag_403:\n        /* \"#utility.yul\":13200:13302   */\n      swap2\n      pop\n        /* \"#utility.yul\":13319:13322   */\n      dup2\n        /* \"#utility.yul\":13312:13322   */\n      swap1\n      pop\n        /* \"#utility.yul\":13053:13328   */\n      swap3\n      swap2\n      pop\n      pop\n      jump\t// out\n        /* \"#utility.yul\":13334:13488   */\n    tag_249:\n        /* \"#utility.yul\":13474:13480   */\n      0x686f6d6500000000000000000000000000000000000000000000000000000000\n        /* \"#utility.yul\":13470:13471   */\n      0x00\n        /* \"#utility.yul\":13462:13468   */\n      dup3\n        /* \"#utility.yul\":13458:13472   */\n      add\n        /* \"#utility.yul\":13451:13481   */\n      mstore\n        /* \"#utility.yul\":13334:13488   */\n      pop\n      jump\t// out\n        /* \"#utility.yul\":13494:13894   */\n    tag_250:\n        /* \"#utility.yul\":13654:13657   */\n      0x00\n        /* \"#utility.yul\":13675:13759   */\n      tag_406\n        /* \"#utility.yul\":13757:13758   */\n      0x04\n        /* \"#utility.yul\":13752:13755   */\n      dup4\n        /* \"#utility.yul\":13675:13759   */\n      tag_243\n      jump\t// in\n    tag_406:\n        /* \"#utility.yul\":13668:13759   */\n      swap2\n      pop\n        /* \"#utility.yul\":13768:13861   */\n      tag_407\n        /* \"#utility.yul\":13857:13860   */\n      dup3\n        /* \"#utility.yul\":13768:13861   */\n      tag_249\n      jump\t// in\n    tag_407:\n        /* \"#utility.yul\":13886:13887   */\n      0x04\n        /* \"#utility.yul\":13881:13884   */\n      dup3\n        /* \"#utility.yul\":13877:13888   */\n      add\n        /* \"#utility.yul\":13870:13888   */\n      swap1\n      pop\n        /* \"#utility.yul\":13494:13894   */\n      swap2\n      swap1\n      pop\n      jump\t// out\n        /* \"#utility.yul\":13900:14281   */\n    tag_88:\n        /* \"#utility.yul\":14085:14088   */\n      0x00\n        /* \"#utility.yul\":14107:14255   */\n      tag_409\n        /* \"#utility.yul\":14251:14254   */\n      dup3\n        /* \"#utility.yul\":14107:14255   */\n      tag_250\n      jump\t// in\n    tag_409:\n        /* \"#utility.yul\":14100:14255   */\n      swap2\n      pop\n        /* \"#utility.yul\":14272:14275   */\n      dup2\n        /* \"#utility.yul\":14265:14275   */\n      swap1\n      pop\n        /* \"#utility.yul\":13900:14281   */\n      swap2\n      swap1\n      pop\n      jump\t// out\n        /* \"#utility.yul\":14287:14445   */\n    tag_251:\n        /* \"#utility.yul\":14427:14437   */\n      0x706572736f6e616c000000000000000000000000000000000000000000000000\n        /* \"#utility.yul\":14423:14424   */\n      0x00\n        /* \"#utility.yul\":14415:14421   */\n      dup3\n        /* \"#utility.yul\":14411:14425   */\n      add\n        /* \"#utility.yul\":14404:14438   */\n      mstore\n        /* \"#utility.yul\":14287:14445   */\n      pop\n      jump\t// out\n        /* \"#utility.yul\":14451:14851   */\n    tag_252:\n        /* \"#utility.yul\":14611:14614   */\n      0x00\n        /* \"#utility.yul\":14632:14716   */\n      tag_412\n        /* \"#utility.yul\":14714:14715   */\n      0x08\n        /* \"#utility.yul\":14709:14712   */\n      dup4\n        /* \"#utility.yul\":14632:14716   */\n      tag_243\n      jump\t// in\n    tag_412:\n        /* \"#utility.yul\":14625:14716   */\n      swap2\n      pop\n        /* \"#utility.yul\":14725:14818   */\n      tag_413\n        /* \"#utility.yul\":14814:14817   */\n      dup3\n        /* \"#utility.yul\":14725:14818   */\n      tag_251\n      jump\t// in\n    tag_413:\n        /* \"#utility.yul\":14843:14844   */\n      0x08\n        /* \"#utility.yul\":14838:14841   */\n      dup3\n        /* \"#utility.yul\":14834:14845   */\n      add\n        /* \"#utility.yul\":14827:14845   */\n      swap1\n      pop\n        /* \"#utility.yul\":14451:14851   */\n      swap2\n      swap1\n      pop\n      jump\t// out\n        /* \"#utility.yul\":14857:15238   */\n    tag_92:\n        /* \"#utility.yul\":15042:15045   */\n      0x00\n        /* \"#utility.yul\":15064:15212   */\n      tag_415\n        /* \"#utility.yul\":15208:15211   */\n      dup3\n        /* \"#utility.yul\":15064:15212   */\n      tag_252\n      jump\t// in\n    tag_415:\n        /* \"#utility.yul\":15057:15212   */\n      swap2\n      pop\n        /* \"#utility.yul\":15229:15232   */\n      dup2\n        /* \"#utility.yul\":15222:15232   */\n      swap1\n      pop\n        /* \"#utility.yul\":14857:15238   */\n      swap2\n      swap1\n      pop\n      jump\t// out\n        /* \"#utility.yul\":15244:15411   */\n    tag_253:\n        /* \"#utility.yul\":15384:15403   */\n      0x696e76616c6964206c6f616e2074797065000000000000000000000000000000\n        /* \"#utility.yul\":15380:15381   */\n      0x00\n        /* \"#utility.yul\":15372:15378   */\n      dup3\n        /* \"#utility.yul\":15368:15382   */\n      add\n        /* \"#utility.yul\":15361:15404   */\n      mstore\n        /* \"#utility.yul\":15244:15411   */\n      pop\n      jump\t// out\n        /* \"#utility.yul\":15417:15783   */\n    tag_254:\n        /* \"#utility.yul\":15559:15562   */\n      0x00\n        /* \"#utility.yul\":15580:15647   */\n      tag_418\n        /* \"#utility.yul\":15644:15646   */\n      0x11\n        /* \"#utility.yul\":15639:15642   */\n      dup4\n        /* \"#utility.yul\":15580:15647   */\n      tag_237\n      jump\t// in\n    tag_418:\n        /* \"#utility.yul\":15573:15647   */\n      swap2\n      pop\n        /* \"#utility.yul\":15656:15749   */\n      tag_419\n        /* \"#utility.yul\":15745:15748   */\n      dup3\n        /* \"#utility.yul\":15656:15749   */\n      tag_253\n      jump\t// in\n    tag_419:\n        /* \"#utility.yul\":15774:15776   */\n      0x20\n        /* \"#utility.yul\":15769:15772   */\n      dup3\n        /* \"#utility.yul\":15765:15777   */\n      add\n        /* \"#utility.yul\":15758:15777   */\n      swap1\n      pop\n        /* \"#utility.yul\":15417:15783   */\n      swap2\n      swap1\n      pop\n      jump\t// out\n        /* \"#utility.yul\":15789:16208   */\n    tag_96:\n        /* \"#utility.yul\":15955:15959   */\n      0x00\n        /* \"#utility.yul\":15993:15995   */\n      0x20\n        /* \"#utility.yul\":15982:15991   */\n      dup3\n        /* \"#utility.yul\":15978:15996   */\n      add\n        /* \"#utility.yul\":15970:15996   */\n      swap1\n      pop\n        /* \"#utility.yul\":16042:16051   */\n      dup2\n        /* \"#utility.yul\":16036:16040   */\n      dup2\n        /* \"#utility.yul\":16032:16052   */\n      sub\n        /* \"#utility.yul\":16028:16029   */\n      0x00\n        /* \"#utility.yul\":16017:16026   */\n      dup4\n        /* \"#utility.yul\":16013:16030   */\n      add\n        /* \"#utility.yul\":16006:16053   */\n      mstore\n        /* \"#utility.yul\":16070:16201   */\n      tag_421\n        /* \"#utility.yul\":16196:16200   */\n      dup2\n        /* \"#utility.yul\":16070:16201   */\n      tag_254\n      jump\t// in\n    tag_421:\n        /* \"#utility.yul\":16062:16201   */\n      swap1\n      pop\n        /* \"#utility.yul\":15789:16208   */\n      swap2\n      swap1\n      pop\n      jump\t// out\n        /* \"#utility.yul\":16214:16382   */\n    tag_255:\n        /* \"#utility.yul\":16354:16374   */\n      0x696e76616c696420656d6920616d6f756e740000000000000000000000000000\n        /* \"#utility.yul\":16350:16351   */\n      0x00\n        /* \"#utility.yul\":16342:16348   */\n      dup3\n        /* \"#utility.yul\":16338:16352   */\n      add\n        /* \"#utility.yul\":16331:16375   */\n      mstore\n        /* \"#utility.yul\":16214:16382   */\n      pop\n      jump\t// out\n        /* \"#utility.yul\":16388:16754   */\n    tag_256:\n        /* \"#utility.yul\":16530:16533   */\n      0x00\n        /* \"#utility.yul\":16551:16618   */\n      tag_424\n        /* \"#utility.yul\":16615:16617   */\n      0x12\n        /* \"#utility.yul\":16610:16613   */\n      dup4\n        /* \"#utility.yul\":16551:16618   */\n      tag_237\n      jump\t// in\n    tag_424:\n        /* \"#utility.yul\":16544:16618   */\n      swap2\n      pop\n        /* \"#utility.yul\":16627:16720   */\n      tag_425\n        /* \"#utility.yul\":16716:16719   */\n      dup3\n        /* \"#utility.yul\":16627:16720   */\n      tag_255\n      jump\t// in\n    tag_425:\n        /* \"#utility.yul\":16745:16747   */\n      0x20\n        /* \"#utility.yul\":16740:16743   */\n      dup3\n        /* \"#utility.yul\":16736:16748   */\n      add\n        /* \"#utility.yul\":16729:16748   */\n      swap1\n      pop\n        /* \"#utility.yul\":16388:16754   */\n      swap2\n      swap1\n      pop\n      jump\t// out\n        /* \"#utility.yul\":16760:17179   */\n    tag_104:\n        /* \"#utility.yul\":16926:16930   */\n      0x00\n        /* \"#utility.yul\":16964:16966   */\n      0x20\n        /* \"#utility.yul\":16953:16962   */\n      dup3\n        /* \"#utility.yul\":16949:16967   */\n      add\n        /* \"#utility.yul\":16941:16967   */\n      swap1\n      pop\n        /* \"#utility.yul\":17013:17022   */\n      dup2\n        /* \"#utility.yul\":17007:17011   */\n      dup2\n        /* \"#utility.yul\":17003:17023   */\n      sub\n        /* \"#utility.yul\":16999:17000   */\n      0x00\n        /* \"#utility.yul\":16988:16997   */\n      dup4\n        /* \"#utility.yul\":16984:17001   */\n      add\n        /* \"#utility.yul\":16977:17024   */\n      mstore\n        /* \"#utility.yul\":17041:17172   */\n      tag_427\n        /* \"#utility.yul\":17167:17171   */\n      dup2\n        /* \"#utility.yul\":17041:17172   */\n      tag_256\n      jump\t// in\n    tag_427:\n        /* \"#utility.yul\":17033:17172   */\n      swap1\n      pop\n        /* \"#utility.yul\":16760:17179   */\n      swap2\n      swap1\n      pop\n      jump\t// out\n        /* \"#utility.yul\":17185:17379   */\n    tag_106:\n        /* \"#utility.yul\":17225:17229   */\n      0x00\n        /* \"#utility.yul\":17245:17265   */\n      tag_429\n        /* \"#utility.yul\":17263:17264   */\n      dup3\n        /* \"#utility.yul\":17245:17265   */\n      tag_219\n      jump\t// in\n    tag_429:\n        /* \"#utility.yul\":17240:17265   */\n      swap2\n      pop\n        /* \"#utility.yul\":17279:17299   */\n      tag_430\n        /* \"#utility.yul\":17297:17298   */\n      dup4\n        /* \"#utility.yul\":17279:17299   */\n      tag_219\n      jump\t// in\n    tag_430:\n        /* \"#utility.yul\":17274:17299   */\n      swap3\n      pop\n        /* \"#utility.yul\":17323:17324   */\n      dup3\n        /* \"#utility.yul\":17320:17321   */\n      dup3\n        /* \"#utility.yul\":17316:17325   */\n      sub\n        /* \"#utility.yul\":17308:17325   */\n      swap1\n      pop\n        /* \"#utility.yul\":17347:17348   */\n      dup2\n        /* \"#utility.yul\":17341:17345   */\n      dup2\n        /* \"#utility.yul\":17338:17349   */\n      gt\n        /* \"#utility.yul\":17335:17372   */\n      iszero\n      tag_431\n      jumpi\n        /* \"#utility.yul\":17352:17370   */\n      tag_432\n      tag_242\n      jump\t// in\n    tag_432:\n        /* \"#utility.yul\":17335:17372   */\n    tag_431:\n        /* \"#utility.yul\":17185:17379   */\n      swap3\n      swap2\n      pop\n      pop\n      jump\t// out\n        /* \"#utility.yul\":17385:17556   */\n    tag_109:\n        /* \"#utility.yul\":17424:17427   */\n      0x00\n        /* \"#utility.yul\":17447:17471   */\n      tag_434\n        /* \"#utility.yul\":17465:17470   */\n      dup3\n        /* \"#utility.yul\":17447:17471   */\n      tag_219\n      jump\t// in\n    tag_434:\n        /* \"#utility.yul\":17438:17471   */\n      swap2\n      pop\n        /* \"#utility.yul\":17493:17497   */\n      0x00\n        /* \"#utility.yul\":17486:17491   */\n      dup3\n        /* \"#utility.yul\":17483:17498   */\n      sub\n        /* \"#utility.yul\":17480:17521   */\n      tag_435\n      jumpi\n        /* \"#utility.yul\":17501:17519   */\n      tag_436\n      tag_242\n      jump\t// in\n    tag_436:\n        /* \"#utility.yul\":17480:17521   */\n    tag_435:\n        /* \"#utility.yul\":17548:17549   */\n      0x01\n        /* \"#utility.yul\":17541:17546   */\n      dup3\n        /* \"#utility.yul\":17537:17550   */\n      sub\n        /* \"#utility.yul\":17530:17550   */\n      swap1\n      pop\n        /* \"#utility.yul\":17385:17556   */\n      swap2\n      swap1\n      pop\n      jump\t// out\n        /* \"#utility.yul\":17562:17795   */\n    tag_257:\n        /* \"#utility.yul\":17702:17736   */\n      0x796f752068617665206f6e6520636172206c6f616e2120796f752063616e2774\n        /* \"#utility.yul\":17698:17699   */\n      0x00\n        /* \"#utility.yul\":17690:17696   */\n      dup3\n        /* \"#utility.yul\":17686:17700   */\n      add\n        /* \"#utility.yul\":17679:17737   */\n      mstore\n        /* \"#utility.yul\":17771:17787   */\n      0x2074616b6520616e6f7468657221000000000000000000000000000000000000\n        /* \"#utility.yul\":17766:17768   */\n      0x20\n        /* \"#utility.yul\":17758:17764   */\n      dup3\n        /* \"#utility.yul\":17754:17769   */\n      add\n        /* \"#utility.yul\":17747:17788   */\n      mstore\n        /* \"#utility.yul\":17562:17795   */\n      pop\n      jump\t// out\n        /* \"#utility.yul\":17801:18167   */\n    tag_258:\n        /* \"#utility.yul\":17943:17946   */\n      0x00\n        /* \"#utility.yul\":17964:18031   */\n      tag_439\n        /* \"#utility.yul\":18028:18030   */\n      0x2e\n        /* \"#utility.yul\":18023:18026   */\n      dup4\n        /* \"#utility.yul\":17964:18031   */\n      tag_237\n      jump\t// in\n    tag_439:\n        /* \"#utility.yul\":17957:18031   */\n      swap2\n      pop\n        /* \"#utility.yul\":18040:18133   */\n      tag_440\n        /* \"#utility.yul\":18129:18132   */\n      dup3\n        /* \"#utility.yul\":18040:18133   */\n      tag_257\n      jump\t// in\n    tag_440:\n        /* \"#utility.yul\":18158:18160   */\n      0x40\n        /* \"#utility.yul\":18153:18156   */\n      dup3\n        /* \"#utility.yul\":18149:18161   */\n      add\n        /* \"#utility.yul\":18142:18161   */\n      swap1\n      pop\n        /* \"#utility.yul\":17801:18167   */\n      swap2\n      swap1\n      pop\n      jump\t// out\n        /* \"#utility.yul\":18173:18592   */\n    tag_151:\n        /* \"#utility.yul\":18339:18343   */\n      0x00\n        /* \"#utility.yul\":18377:18379   */\n      0x20\n        /* \"#utility.yul\":18366:18375   */\n      dup3\n        /* \"#utility.yul\":18362:18380   */\n      add\n        /* \"#utility.yul\":18354:18380   */\n      swap1\n      pop\n        /* \"#utility.yul\":18426:18435   */\n      dup2\n        /* \"#utility.yul\":18420:18424   */\n      dup2\n        /* \"#utility.yul\":18416:18436   */\n      sub\n        /* \"#utility.yul\":18412:18413   */\n      0x00\n        /* \"#utility.yul\":18401:18410   */\n      dup4\n        /* \"#utility.yul\":18397:18414   */\n      add\n        /* \"#utility.yul\":18390:18437   */\n      mstore\n        /* \"#utility.yul\":18454:18585   */\n      tag_442\n        /* \"#utility.yul\":18580:18584   */\n      dup2\n        /* \"#utility.yul\":18454:18585   */\n      tag_258\n      jump\t// in\n    tag_442:\n        /* \"#utility.yul\":18446:18585   */\n      swap1\n      pop\n        /* \"#utility.yul\":18173:18592   */\n      swap2\n      swap1\n      pop\n      jump\t// out\n        /* \"#utility.yul\":18598:19008   */\n    tag_153:\n        /* \"#utility.yul\":18638:18645   */\n      0x00\n        /* \"#utility.yul\":18661:18681   */\n      tag_444\n        /* \"#utility.yul\":18679:18680   */\n      dup3\n        /* \"#utility.yul\":18661:18681   */\n      tag_219\n      jump\t// in\n    tag_444:\n        /* \"#utility.yul\":18656:18681   */\n      swap2\n      pop\n        /* \"#utility.yul\":18695:18715   */\n      tag_445\n        /* \"#utility.yul\":18713:18714   */\n      dup4\n        /* \"#utility.yul\":18695:18715   */\n      tag_219\n      jump\t// in\n    tag_445:\n        /* \"#utility.yul\":18690:18715   */\n      swap3\n      pop\n        /* \"#utility.yul\":18750:18751   */\n      dup3\n        /* \"#utility.yul\":18747:18748   */\n      dup3\n        /* \"#utility.yul\":18743:18752   */\n      mul\n        /* \"#utility.yul\":18772:18802   */\n      tag_446\n        /* \"#utility.yul\":18790:18801   */\n      dup2\n        /* \"#utility.yul\":18772:18802   */\n      tag_219\n      jump\t// in\n    tag_446:\n        /* \"#utility.yul\":18761:18802   */\n      swap2\n      pop\n        /* \"#utility.yul\":18951:18952   */\n      dup3\n        /* \"#utility.yul\":18942:18949   */\n      dup3\n        /* \"#utility.yul\":18938:18953   */\n      div\n        /* \"#utility.yul\":18935:18936   */\n      dup5\n        /* \"#utility.yul\":18932:18954   */\n      eq\n        /* \"#utility.yul\":18912:18913   */\n      dup4\n        /* \"#utility.yul\":18905:18914   */\n      iszero\n        /* \"#utility.yul\":18885:18968   */\n      or\n        /* \"#utility.yul\":18862:19001   */\n      tag_447\n      jumpi\n        /* \"#utility.yul\":18981:18999   */\n      tag_448\n      tag_242\n      jump\t// in\n    tag_448:\n        /* \"#utility.yul\":18862:19001   */\n    tag_447:\n        /* \"#utility.yul\":18646:19008   */\n      pop\n        /* \"#utility.yul\":18598:19008   */\n      swap3\n      swap2\n      pop\n      pop\n      jump\t// out\n        /* \"#utility.yul\":19014:19194   */\n    tag_259:\n        /* \"#utility.yul\":19062:19139   */\n      0x4e487b7100000000000000000000000000000000000000000000000000000000\n        /* \"#utility.yul\":19059:19060   */\n      0x00\n        /* \"#utility.yul\":19052:19140   */\n      mstore\n        /* \"#utility.yul\":19159:19163   */\n      0x12\n        /* \"#utility.yul\":19156:19157   */\n      0x04\n        /* \"#utility.yul\":19149:19164   */\n      mstore\n        /* \"#utility.yul\":19183:19187   */\n      0x24\n        /* \"#utility.yul\":19180:19181   */\n      0x00\n        /* \"#utility.yul\":19173:19188   */\n      revert\n        /* \"#utility.yul\":19200:19385   */\n    tag_156:\n        /* \"#utility.yul\":19240:19241   */\n      0x00\n        /* \"#utility.yul\":19257:19277   */\n      tag_451\n        /* \"#utility.yul\":19275:19276   */\n      dup3\n        /* \"#utility.yul\":19257:19277   */\n      tag_219\n      jump\t// in\n    tag_451:\n        /* \"#utility.yul\":19252:19277   */\n      swap2\n      pop\n        /* \"#utility.yul\":19291:19311   */\n      tag_452\n        /* \"#utility.yul\":19309:19310   */\n      dup4\n        /* \"#utility.yul\":19291:19311   */\n      tag_219\n      jump\t// in\n    tag_452:\n        /* \"#utility.yul\":19286:19311   */\n      swap3\n      pop\n        /* \"#utility.yul\":19330:19331   */\n      dup3\n        /* \"#utility.yul\":19320:19355   */\n      tag_453\n      jumpi\n        /* \"#utility.yul\":19335:19353   */\n      tag_454\n      tag_259\n      jump\t// in\n    tag_454:\n        /* \"#utility.yul\":19320:19355   */\n    tag_453:\n        /* \"#utility.yul\":19377:19378   */\n      dup3\n        /* \"#utility.yul\":19374:19375   */\n      dup3\n        /* \"#utility.yul\":19370:19379   */\n      div\n        /* \"#utility.yul\":19365:19379   */\n      swap1\n      pop\n        /* \"#utility.yul\":19200:19385   */\n      swap3\n      swap2\n      pop\n      pop\n      jump\t// out\n        /* \"#utility.yul\":19391:19633   */\n    tag_260:\n        /* \"#utility.yul\":19531:19565   */\n      0x796f75206861766520616c7265616479206f6e6520686f6d65206c6f616e2120\n        /* \"#utility.yul\":19527:19528   */\n      0x00\n        /* \"#utility.yul\":19519:19525   */\n      dup3\n        /* \"#utility.yul\":19515:19529   */\n      add\n        /* \"#utility.yul\":19508:19566   */\n      mstore\n        /* \"#utility.yul\":19600:19625   */\n      0x796f752063616e27742074616b6520616e6f7468657221000000000000000000\n        /* \"#utility.yul\":19595:19597   */\n      0x20\n        /* \"#utility.yul\":19587:19593   */\n      dup3\n        /* \"#utility.yul\":19583:19598   */\n      add\n        /* \"#utility.yul\":19576:19626   */\n      mstore\n        /* \"#utility.yul\":19391:19633   */\n      pop\n      jump\t// out\n        /* \"#utility.yul\":19639:20005   */\n    tag_261:\n        /* \"#utility.yul\":19781:19784   */\n      0x00\n        /* \"#utility.yul\":19802:19869   */\n      tag_457\n        /* \"#utility.yul\":19866:19868   */\n      0x37\n        /* \"#utility.yul\":19861:19864   */\n      dup4\n        /* \"#utility.yul\":19802:19869   */\n      tag_237\n      jump\t// in\n    tag_457:\n        /* \"#utility.yul\":19795:19869   */\n      swap2\n      pop\n        /* \"#utility.yul\":19878:19971   */\n      tag_458\n        /* \"#utility.yul\":19967:19970   */\n      dup3\n        /* \"#utility.yul\":19878:19971   */\n      tag_260\n      jump\t// in\n    tag_458:\n        /* \"#utility.yul\":19996:19998   */\n      0x40\n        /* \"#utility.yul\":19991:19994   */\n      dup3\n        /* \"#utility.yul\":19987:19999   */\n      add\n        /* \"#utility.yul\":19980:19999   */\n      swap1\n      pop\n        /* \"#utility.yul\":19639:20005   */\n      swap2\n      swap1\n      pop\n      jump\t// out\n        /* \"#utility.yul\":20011:20430   */\n    tag_168:\n        /* \"#utility.yul\":20177:20181   */\n      0x00\n        /* \"#utility.yul\":20215:20217   */\n      0x20\n        /* \"#utility.yul\":20204:20213   */\n      dup3\n        /* \"#utility.yul\":20200:20218   */\n      add\n        /* \"#utility.yul\":20192:20218   */\n      swap1\n      pop\n        /* \"#utility.yul\":20264:20273   */\n      dup2\n        /* \"#utility.yul\":20258:20262   */\n      dup2\n        /* \"#utility.yul\":20254:20274   */\n      sub\n        /* \"#utility.yul\":20250:20251   */\n      0x00\n        /* \"#utility.yul\":20239:20248   */\n      dup4\n        /* \"#utility.yul\":20235:20252   */\n      add\n        /* \"#utility.yul\":20228:20275   */\n      mstore\n        /* \"#utility.yul\":20292:20423   */\n      tag_460\n        /* \"#utility.yul\":20418:20422   */\n      dup2\n        /* \"#utility.yul\":20292:20423   */\n      tag_261\n      jump\t// in\n    tag_460:\n        /* \"#utility.yul\":20284:20423   */\n      swap1\n      pop\n        /* \"#utility.yul\":20011:20430   */\n      swap2\n      swap1\n      pop\n      jump\t// out\n        /* \"#utility.yul\":20436:20674   */\n    tag_262:\n        /* \"#utility.yul\":20576:20610   */\n      0x796f752068617665206f6e6520706572736f6e616c206c6f616e2120796f7520\n        /* \"#utility.yul\":20572:20573   */\n      0x00\n        /* \"#utility.yul\":20564:20570   */\n      dup3\n        /* \"#utility.yul\":20560:20574   */\n      add\n        /* \"#utility.yul\":20553:20611   */\n      mstore\n        /* \"#utility.yul\":20645:20666   */\n      0x63616e27742074616b6520616e6f746865722100000000000000000000000000\n        /* \"#utility.yul\":20640:20642   */\n      0x20\n        /* \"#utility.yul\":20632:20638   */\n      dup3\n        /* \"#utility.yul\":20628:20643   */\n      add\n        /* \"#utility.yul\":20621:20667   */\n      mstore\n        /* \"#utility.yul\":20436:20674   */\n      pop\n      jump\t// out\n        /* \"#utility.yul\":20680:21046   */\n    tag_263:\n        /* \"#utility.yul\":20822:20825   */\n      0x00\n        /* \"#utility.yul\":20843:20910   */\n      tag_463\n        /* \"#utility.yul\":20907:20909   */\n      0x33\n        /* \"#utility.yul\":20902:20905   */\n      dup4\n        /* \"#utility.yul\":20843:20910   */\n      tag_237\n      jump\t// in\n    tag_463:\n        /* \"#utility.yul\":20836:20910   */\n      swap2\n      pop\n        /* \"#utility.yul\":20919:21012   */\n      tag_464\n        /* \"#utility.yul\":21008:21011   */\n      dup3\n        /* \"#utility.yul\":20919:21012   */\n      tag_262\n      jump\t// in\n    tag_464:\n        /* \"#utility.yul\":21037:21039   */\n      0x40\n        /* \"#utility.yul\":21032:21035   */\n      dup3\n        /* \"#utility.yul\":21028:21040   */\n      add\n        /* \"#utility.yul\":21021:21040   */\n      swap1\n      pop\n        /* \"#utility.yul\":20680:21046   */\n      swap2\n      swap1\n      pop\n      jump\t// out\n        /* \"#utility.yul\":21052:21471   */\n    tag_183:\n        /* \"#utility.yul\":21218:21222   */\n      0x00\n        /* \"#utility.yul\":21256:21258   */\n      0x20\n        /* \"#utility.yul\":21245:21254   */\n      dup3\n        /* \"#utility.yul\":21241:21259   */\n      add\n        /* \"#utility.yul\":21233:21259   */\n      swap1\n      pop\n        /* \"#utility.yul\":21305:21314   */\n      dup2\n        /* \"#utility.yul\":21299:21303   */\n      dup2\n        /* \"#utility.yul\":21295:21315   */\n      sub\n        /* \"#utility.yul\":21291:21292   */\n      0x00\n        /* \"#utility.yul\":21280:21289   */\n      dup4\n        /* \"#utility.yul\":21276:21293   */\n      add\n        /* \"#utility.yul\":21269:21316   */\n      mstore\n        /* \"#utility.yul\":21333:21464   */\n      tag_466\n        /* \"#utility.yul\":21459:21463   */\n      dup2\n        /* \"#utility.yul\":21333:21464   */\n      tag_263\n      jump\t// in\n    tag_466:\n        /* \"#utility.yul\":21325:21464   */\n      swap1\n      pop\n        /* \"#utility.yul\":21052:21471   */\n      swap2\n      swap1\n      pop\n      jump\t// out\n        /* \"#utility.yul\":21477:21700   */\n    tag_264:\n        /* \"#utility.yul\":21617:21651   */\n      0x596f75277265206e6f742074686520736d61727420636f6e7472616374206164\n        /* \"#utility.yul\":21613:21614   */\n      0x00\n        /* \"#utility.yul\":21605:21611   */\n      dup3\n        /* \"#utility.yul\":21601:21615   */\n      add\n        /* \"#utility.yul\":21594:21652   */\n      mstore\n        /* \"#utility.yul\":21686:21692   */\n      0x6d696e2100000000000000000000000000000000000000000000000000000000\n        /* \"#utility.yul\":21681:21683   */\n      0x20\n        /* \"#utility.yul\":21673:21679   */\n      dup3\n        /* \"#utility.yul\":21669:21684   */\n      add\n        /* \"#utility.yul\":21662:21693   */\n      mstore\n        /* \"#utility.yul\":21477:21700   */\n      pop\n      jump\t// out\n        /* \"#utility.yul\":21706:22072   */\n    tag_265:\n        /* \"#utility.yul\":21848:21851   */\n      0x00\n        /* \"#utility.yul\":21869:21936   */\n      tag_469\n        /* \"#utility.yul\":21933:21935   */\n      0x24\n        /* \"#utility.yul\":21928:21931   */\n      dup4\n        /* \"#utility.yul\":21869:21936   */\n      tag_237\n      jump\t// in\n    tag_469:\n        /* \"#utility.yul\":21862:21936   */\n      swap2\n      pop\n        /* \"#utility.yul\":21945:22038   */\n      tag_470\n        /* \"#utility.yul\":22034:22037   */\n      dup3\n        /* \"#utility.yul\":21945:22038   */\n      tag_264\n      jump\t// in\n    tag_470:\n        /* \"#utility.yul\":22063:22065   */\n      0x40\n        /* \"#utility.yul\":22058:22061   */\n      dup3\n        /* \"#utility.yul\":22054:22066   */\n      add\n        /* \"#utility.yul\":22047:22066   */\n      swap1\n      pop\n        /* \"#utility.yul\":21706:22072   */\n      swap2\n      swap1\n      pop\n      jump\t// out\n        /* \"#utility.yul\":22078:22497   */\n    tag_195:\n        /* \"#utility.yul\":22244:22248   */\n      0x00\n        /* \"#utility.yul\":22282:22284   */\n      0x20\n        /* \"#utility.yul\":22271:22280   */\n      dup3\n        /* \"#utility.yul\":22267:22285   */\n      add\n        /* \"#utility.yul\":22259:22285   */\n      swap1\n      pop\n        /* \"#utility.yul\":22331:22340   */\n      dup2\n        /* \"#utility.yul\":22325:22329   */\n      dup2\n        /* \"#utility.yul\":22321:22341   */\n      sub\n        /* \"#utility.yul\":22317:22318   */\n      0x00\n        /* \"#utility.yul\":22306:22315   */\n      dup4\n        /* \"#utility.yul\":22302:22319   */\n      add\n        /* \"#utility.yul\":22295:22342   */\n      mstore\n        /* \"#utility.yul\":22359:22490   */\n      tag_472\n        /* \"#utility.yul\":22485:22489   */\n      dup2\n        /* \"#utility.yul\":22359:22490   */\n      tag_265\n      jump\t// in\n    tag_472:\n        /* \"#utility.yul\":22351:22490   */\n      swap1\n      pop\n        /* \"#utility.yul\":22078:22497   */\n      swap2\n      swap1\n      pop\n      jump\t// out\n        /* \"#utility.yul\":22503:22667   */\n    tag_266:\n        /* \"#utility.yul\":22643:22659   */\n      0x696e76616c696420616d6f756e74000000000000000000000000000000000000\n        /* \"#utility.yul\":22639:22640   */\n      0x00\n        /* \"#utility.yul\":22631:22637   */\n      dup3\n        /* \"#utility.yul\":22627:22641   */\n      add\n        /* \"#utility.yul\":22620:22660   */\n      mstore\n        /* \"#utility.yul\":22503:22667   */\n      pop\n      jump\t// out\n        /* \"#utility.yul\":22673:23039   */\n    tag_267:\n        /* \"#utility.yul\":22815:22818   */\n      0x00\n        /* \"#utility.yul\":22836:22903   */\n      tag_475\n        /* \"#utility.yul\":22900:22902   */\n      0x0e\n        /* \"#utility.yul\":22895:22898   */\n      dup4\n        /* \"#utility.yul\":22836:22903   */\n      tag_237\n      jump\t// in\n    tag_475:\n        /* \"#utility.yul\":22829:22903   */\n      swap2\n      pop\n        /* \"#utility.yul\":22912:23005   */\n      tag_476\n        /* \"#utility.yul\":23001:23004   */\n      dup3\n        /* \"#utility.yul\":22912:23005   */\n      tag_266\n      jump\t// in\n    tag_476:\n        /* \"#utility.yul\":23030:23032   */\n      0x20\n        /* \"#utility.yul\":23025:23028   */\n      dup3\n        /* \"#utility.yul\":23021:23033   */\n      add\n        /* \"#utility.yul\":23014:23033   */\n      swap1\n      pop\n        /* \"#utility.yul\":22673:23039   */\n      swap2\n      swap1\n      pop\n      jump\t// out\n        /* \"#utility.yul\":23045:23464   */\n    tag_206:\n        /* \"#utility.yul\":23211:23215   */\n      0x00\n        /* \"#utility.yul\":23249:23251   */\n      0x20\n        /* \"#utility.yul\":23238:23247   */\n      dup3\n        /* \"#utility.yul\":23234:23252   */\n      add\n        /* \"#utility.yul\":23226:23252   */\n      swap1\n      pop\n        /* \"#utility.yul\":23298:23307   */\n      dup2\n        /* \"#utility.yul\":23292:23296   */\n      dup2\n        /* \"#utility.yul\":23288:23308   */\n      sub\n        /* \"#utility.yul\":23284:23285   */\n      0x00\n        /* \"#utility.yul\":23273:23282   */\n      dup4\n        /* \"#utility.yul\":23269:23286   */\n      add\n        /* \"#utility.yul\":23262:23309   */\n      mstore\n        /* \"#utility.yul\":23326:23457   */\n      tag_478\n        /* \"#utility.yul\":23452:23456   */\n      dup2\n        /* \"#utility.yul\":23326:23457   */\n      tag_267\n      jump\t// in\n    tag_478:\n        /* \"#utility.yul\":23318:23457   */\n      swap1\n      pop\n        /* \"#utility.yul\":23045:23464   */\n      swap2\n      swap1\n      pop\n      jump\t// out\n\n    auxdata: 0xa26469706673582212202ca17794a145f093edd2283378a48f76ca2dec1e4d7b85d355a6f21e554d4dbb64736f6c63430008120033\n}\n",
				"bytecode": {
					"linkReferences": {},
					"object": "608060405234801561001057600080fd5b50336000806101000a81548173ffffffffffffffffffffffffffffffffffffffff021916908373ffffffffffffffffffffffffffffffffffffffff160217905550613c7b806100606000396000f3fe6080604052600436106100955760003560e01c80639283ea63116100595780639283ea631461018c578063a2f09dfa146101a8578063a87430ba146101b2578063d77799a5146101fa578063f3fef3a3146102395761009c565b806347e7ef241461009e57806365d6d088146100ba5780636f9fb98a146100f95780638172aa0a1461012457806391341de3146101635761009c565b3661009c57005b005b6100b860048036038101906100b391906130c9565b610262565b005b3480156100c657600080fd5b506100e160048036038101906100dc9190613147565b61080c565b6040516100f093929190613183565b60405180910390f35b34801561010557600080fd5b5061010e610955565b60405161011b91906131ba565b60405180910390f35b34801561013057600080fd5b5061014b60048036038101906101469190613147565b61095d565b60405161015a93929190613183565b60405180910390f35b34801561016f57600080fd5b5061018a6004803603810190610185919061331b565b610aa6565b005b6101a660048036038101906101a19190613377565b611821565b005b6101b0612747565b005b3480156101be57600080fd5b506101d960048036038101906101d49190613147565b61281e565b6040516101f19c9b9a99989796959493929190613409565b60405180910390f35b34801561020657600080fd5b50610221600480360381019061021c9190613147565b61289e565b60405161023093929190613183565b60405180910390f35b34801561024557600080fd5b50610260600480360381019061025b91906130c9565b6129e7565b005b600073ffffffffffffffffffffffffffffffffffffffff168273ffffffffffffffffffffffffffffffffffffffff16036102d1576040517f08c379a00000000000000000000000000000000000000000000000000000000081526004016102c890613520565b60405180910390fd5b60008103610314576040517f08c379a000000000000000000000000000000000000000000000000000000000815260040161030b9061358c565b60405180910390fd5b80600160008473ffffffffffffffffffffffffffffffffffffffff1673ffffffffffffffffffffffffffffffffffffffff168152602001908152602001600020600101600082825461036691906135db565b92505081905550604051806101800160405280600160008573ffffffffffffffffffffffffffffffffffffffff1673ffffffffffffffffffffffffffffffffffffffff16815260200190815260200160002060000160009054906101000a900473ffffffffffffffffffffffffffffffffffffffff1673ffffffffffffffffffffffffffffffffffffffff168152602001600160008573ffffffffffffffffffffffffffffffffffffffff1673ffffffffffffffffffffffffffffffffffffffff168152602001908152602001600020600101548152602001600160008573ffffffffffffffffffffffffffffffffffffffff1673ffffffffffffffffffffffffffffffffffffffff168152602001908152602001600020600201548152602001600160008573ffffffffffffffffffffffffffffffffffffffff1673ffffffffffffffffffffffffffffffffffffffff168152602001908152602001600020600301548152602001600160008573ffffffffffffffffffffffffffffffffffffffff1673ffffffffffffffffffffffffffffffffffffffff168152602001908152602001600020600401548152602001600160008573ffffffffffffffffffffffffffffffffffffffff1673ffffffffffffffffffffffffffffffffffffffff168152602001908152602001600020600501548152602001600160008573ffffffffffffffffffffffffffffffffffffffff1673ffffffffffffffffffffffffffffffffffffffff168152602001908152602001600020600601548152602001600160008573ffffffffffffffffffffffffffffffffffffffff1673ffffffffffffffffffffffffffffffffffffffff168152602001908152602001600020600701548152602001600160008573ffffffffffffffffffffffffffffffffffffffff1673ffffffffffffffffffffffffffffffffffffffff168152602001908152602001600020600801548152602001600160008573ffffffffffffffffffffffffffffffffffffffff1673ffffffffffffffffffffffffffffffffffffffff168152602001908152602001600020600901548152602001600160008573ffffffffffffffffffffffffffffffffffffffff1673ffffffffffffffffffffffffffffffffffffffff168152602001908152602001600020600a01548152602001600160008573ffffffffffffffffffffffffffffffffffffffff1673ffffffffffffffffffffffffffffffffffffffff168152602001908152602001600020600b0154815250600160008473ffffffffffffffffffffffffffffffffffffffff1673ffffffffffffffffffffffffffffffffffffffff16815260200190815260200160002060008201518160000160006101000a81548173ffffffffffffffffffffffffffffffffffffffff021916908373ffffffffffffffffffffffffffffffffffffffff1602179055506020820151816001015560408201518160020155606082015181600301556080820151816004015560a0820151816005015560c0820151816006015560e082015181600701556101008201518160080155610120820151816009015561014082015181600a015561016082015181600b01559050505050565b60008060008073ffffffffffffffffffffffffffffffffffffffff168473ffffffffffffffffffffffffffffffffffffffff160361087f576040517f08c379a000000000000000000000000000000000000000000000000000000000815260040161087690613520565b60405180910390fd5b600160008573ffffffffffffffffffffffffffffffffffffffff1673ffffffffffffffffffffffffffffffffffffffff16815260200190815260200160002060030154600160008673ffffffffffffffffffffffffffffffffffffffff1673ffffffffffffffffffffffffffffffffffffffff16815260200190815260200160002060060154600160008773ffffffffffffffffffffffffffffffffffffffff1673ffffffffffffffffffffffffffffffffffffffff168152602001908152602001600020600901549250925092509193909250565b600047905090565b60008060008073ffffffffffffffffffffffffffffffffffffffff168473ffffffffffffffffffffffffffffffffffffffff16036109d0576040517f08c379a00000000000000000000000000000000000000000000000000000000081526004016109c790613520565b60405180910390fd5b600160008573ffffffffffffffffffffffffffffffffffffffff1673ffffffffffffffffffffffffffffffffffffffff16815260200190815260200160002060050154600160008673ffffffffffffffffffffffffffffffffffffffff1673ffffffffffffffffffffffffffffffffffffffff16815260200190815260200160002060080154600160008773ffffffffffffffffffffffffffffffffffffffff1673ffffffffffffffffffffffffffffffffffffffff168152602001908152602001600020600b01549250925092509193909250565b604051602001610ab590613666565b6040516020818303038152906040528051906020012081604051602001610adc91906136e1565b604051602081830303815290604052805190602001201480610b475750604051602001610b0890613744565b6040516020818303038152906040528051906020012081604051602001610b2f91906136e1565b60405160208183030381529060405280519060200120145b80610b9b5750604051602001610b5c906137a5565b6040516020818303038152906040528051906020012081604051602001610b8391906136e1565b60405160208183030381529060405280519060200120145b610bda576040517f08c379a0000000000000000000000000000000000000000000000000000000008152600401610bd190613806565b60405180910390fd5b600073ffffffffffffffffffffffffffffffffffffffff168273ffffffffffffffffffffffffffffffffffffffff1603610c49576040517f08c379a0000000000000000000000000000000000000000000000000000000008152600401610c4090613520565b60405180910390fd5b604051602001610c5890613666565b6040516020818303038152906040528051906020012081604051602001610c7f91906136e1565b6040516020818303038152906040528051906020012003610eb2576000600160008473ffffffffffffffffffffffffffffffffffffffff1673ffffffffffffffffffffffffffffffffffffffff1681526020019081526020016000206009015411610d1f576040517f08c379a0000000000000000000000000000000000000000000000000000000008152600401610d1690613872565b60405180910390fd5b600160008373ffffffffffffffffffffffffffffffffffffffff1673ffffffffffffffffffffffffffffffffffffffff16815260200190815260200160002060060154600160008473ffffffffffffffffffffffffffffffffffffffff1673ffffffffffffffffffffffffffffffffffffffff1681526020019081526020016000206001016000828254610db39190613892565b92505081905550600160008373ffffffffffffffffffffffffffffffffffffffff1673ffffffffffffffffffffffffffffffffffffffff16815260200190815260200160002060060154600160008473ffffffffffffffffffffffffffffffffffffffff1673ffffffffffffffffffffffffffffffffffffffff1681526020019081526020016000206003016000828254610e4e9190613892565b92505081905550600160008373ffffffffffffffffffffffffffffffffffffffff1673ffffffffffffffffffffffffffffffffffffffff1681526020019081526020016000206009016000815480929190610ea8906138c6565b9190505550611382565b604051602001610ec190613744565b6040516020818303038152906040528051906020012081604051602001610ee891906136e1565b604051602081830303815290604052805190602001200361111b576000600160008473ffffffffffffffffffffffffffffffffffffffff1673ffffffffffffffffffffffffffffffffffffffff168152602001908152602001600020600a015411610f88576040517f08c379a0000000000000000000000000000000000000000000000000000000008152600401610f7f90613872565b60405180910390fd5b600160008373ffffffffffffffffffffffffffffffffffffffff1673ffffffffffffffffffffffffffffffffffffffff16815260200190815260200160002060070154600160008473ffffffffffffffffffffffffffffffffffffffff1673ffffffffffffffffffffffffffffffffffffffff168152602001908152602001600020600101600082825461101c9190613892565b92505081905550600160008373ffffffffffffffffffffffffffffffffffffffff1673ffffffffffffffffffffffffffffffffffffffff16815260200190815260200160002060070154600160008473ffffffffffffffffffffffffffffffffffffffff1673ffffffffffffffffffffffffffffffffffffffff16815260200190815260200160002060040160008282546110b79190613892565b92505081905550600160008373ffffffffffffffffffffffffffffffffffffffff1673ffffffffffffffffffffffffffffffffffffffff168152602001908152602001600020600a016000815480929190611111906138c6565b9190505550611381565b60405160200161112a906137a5565b604051602081830303815290604052805190602001208160405160200161115191906136e1565b6040516020818303038152906040528051906020012003611380576000600160008473ffffffffffffffffffffffffffffffffffffffff1673ffffffffffffffffffffffffffffffffffffffff168152602001908152602001600020600b0154116111f1576040517f08c379a00000000000000000000000000000000000000000000000000000000081526004016111e890613872565b60405180910390fd5b600160008373ffffffffffffffffffffffffffffffffffffffff1673ffffffffffffffffffffffffffffffffffffffff16815260200190815260200160002060080154600160008473ffffffffffffffffffffffffffffffffffffffff1673ffffffffffffffffffffffffffffffffffffffff16815260200190815260200160002060010160008282546112859190613892565b92505081905550600160008373ffffffffffffffffffffffffffffffffffffffff1673ffffffffffffffffffffffffffffffffffffffff16815260200190815260200160002060080154600160008473ffffffffffffffffffffffffffffffffffffffff1673ffffffffffffffffffffffffffffffffffffffff16815260200190815260200160002060050160008282546113209190613892565b92505081905550600160008373ffffffffffffffffffffffffffffffffffffffff1673ffffffffffffffffffffffffffffffffffffffff168152602001908152602001600020600b01600081548092919061137a906138c6565b91905055505b5b5b604051806101800160405280600160008573ffffffffffffffffffffffffffffffffffffffff1673ffffffffffffffffffffffffffffffffffffffff16815260200190815260200160002060000160009054906101000a900473ffffffffffffffffffffffffffffffffffffffff1673ffffffffffffffffffffffffffffffffffffffff168152602001600160008573ffffffffffffffffffffffffffffffffffffffff1673ffffffffffffffffffffffffffffffffffffffff168152602001908152602001600020600101548152602001600160008573ffffffffffffffffffffffffffffffffffffffff1673ffffffffffffffffffffffffffffffffffffffff168152602001908152602001600020600201548152602001600160008573ffffffffffffffffffffffffffffffffffffffff1673ffffffffffffffffffffffffffffffffffffffff168152602001908152602001600020600301548152602001600160008573ffffffffffffffffffffffffffffffffffffffff1673ffffffffffffffffffffffffffffffffffffffff168152602001908152602001600020600401548152602001600160008573ffffffffffffffffffffffffffffffffffffffff1673ffffffffffffffffffffffffffffffffffffffff168152602001908152602001600020600501548152602001600160008573ffffffffffffffffffffffffffffffffffffffff1673ffffffffffffffffffffffffffffffffffffffff168152602001908152602001600020600601548152602001600160008573ffffffffffffffffffffffffffffffffffffffff1673ffffffffffffffffffffffffffffffffffffffff168152602001908152602001600020600701548152602001600160008573ffffffffffffffffffffffffffffffffffffffff1673ffffffffffffffffffffffffffffffffffffffff168152602001908152602001600020600801548152602001600160008573ffffffffffffffffffffffffffffffffffffffff1673ffffffffffffffffffffffffffffffffffffffff168152602001908152602001600020600901548152602001600160008573ffffffffffffffffffffffffffffffffffffffff1673ffffffffffffffffffffffffffffffffffffffff168152602001908152602001600020600a01548152602001600160008573ffffffffffffffffffffffffffffffffffffffff1673ffffffffffffffffffffffffffffffffffffffff168152602001908152602001600020600b0154815250600160008473ffffffffffffffffffffffffffffffffffffffff1673ffffffffffffffffffffffffffffffffffffffff16815260200190815260200160002060008201518160000160006101000a81548173ffffffffffffffffffffffffffffffffffffffff021916908373ffffffffffffffffffffffffffffffffffffffff1602179055506020820151816001015560408201518160020155606082015181600301556080820151816004015560a0820151816005015560c0820151816006015560e082015181600701556101008201518160080155610120820151816009015561014082015181600a015561016082015181600b01559050505050565b600073ffffffffffffffffffffffffffffffffffffffff168473ffffffffffffffffffffffffffffffffffffffff1603611890576040517f08c379a000000000000000000000000000000000000000000000000000000000815260040161188790613520565b60405180910390fd5b600083036118d3576040517f08c379a00000000000000000000000000000000000000000000000000000000081526004016118ca9061358c565b60405180910390fd5b8373ffffffffffffffffffffffffffffffffffffffff166108fc849081150290604051600060405180830381858888f19350505050158015611919573d6000803e3d6000fd5b5082600160008673ffffffffffffffffffffffffffffffffffffffff1673ffffffffffffffffffffffffffffffffffffffff168152602001908152602001600020600101600082825461196c91906135db565b9250508190555060405160200161198290613666565b60405160208183030381529060405280519060200120816040516020016119a991906136e1565b604051602081830303815290604052805190602001201480611a1457506040516020016119d590613744565b60405160208183030381529060405280519060200120816040516020016119fc91906136e1565b60405160208183030381529060405280519060200120145b80611a685750604051602001611a29906137a5565b6040516020818303038152906040528051906020012081604051602001611a5091906136e1565b60405160208183030381529060405280519060200120145b611aa7576040517f08c379a0000000000000000000000000000000000000000000000000000000008152600401611a9e90613806565b60405180910390fd5b604051602001611ab690613666565b6040516020818303038152906040528051906020012081604051602001611add91906136e1565b6040516020818303038152906040528051906020012003611d4e5760018060008673ffffffffffffffffffffffffffffffffffffffff1673ffffffffffffffffffffffffffffffffffffffff1681526020019081526020016000206003015410611b7c576040517f08c379a0000000000000000000000000000000000000000000000000000000008152600401611b7390613961565b60405180910390fd5b60006104b083600886611b8f9190613981565b611b999190613981565b611ba391906139f2565b90508084611bb191906135db565b600160008773ffffffffffffffffffffffffffffffffffffffff1673ffffffffffffffffffffffffffffffffffffffff1681526020019081526020016000206003018190555082600160008773ffffffffffffffffffffffffffffffffffffffff1673ffffffffffffffffffffffffffffffffffffffff16815260200190815260200160002060030154611c4591906139f2565b600160008773ffffffffffffffffffffffffffffffffffffffff1673ffffffffffffffffffffffffffffffffffffffff1681526020019081526020016000206006018190555082600160008773ffffffffffffffffffffffffffffffffffffffff1673ffffffffffffffffffffffffffffffffffffffff1681526020019081526020016000206009016000828254611cdd91906135db565b925050819055508084611cf091906135db565b600160008773ffffffffffffffffffffffffffffffffffffffff1673ffffffffffffffffffffffffffffffffffffffff1681526020019081526020016000206003016000828254611d4191906135db565b92505081905550506122a6565b604051602001611d5d90613744565b6040516020818303038152906040528051906020012081604051602001611d8491906136e1565b6040516020818303038152906040528051906020012003611ffb5760018060008673ffffffffffffffffffffffffffffffffffffffff1673ffffffffffffffffffffffffffffffffffffffff1681526020019081526020016000206004015410611e23576040517f08c379a0000000000000000000000000000000000000000000000000000000008152600401611e1a90613a95565b60405180910390fd5b60006104b083600686611e369190613981565b611e409190613981565b611e4a91906139f2565b905060008185611e5a91906135db565b905080600160008873ffffffffffffffffffffffffffffffffffffffff1673ffffffffffffffffffffffffffffffffffffffff1681526020019081526020016000206004018190555083600160008873ffffffffffffffffffffffffffffffffffffffff1673ffffffffffffffffffffffffffffffffffffffff16815260200190815260200160002060040154611ef191906139f2565b600160008873ffffffffffffffffffffffffffffffffffffffff1673ffffffffffffffffffffffffffffffffffffffff1681526020019081526020016000206007018190555083600160008873ffffffffffffffffffffffffffffffffffffffff1673ffffffffffffffffffffffffffffffffffffffff168152602001908152602001600020600a016000828254611f8991906135db565b925050819055508185611f9c91906135db565b600160008873ffffffffffffffffffffffffffffffffffffffff1673ffffffffffffffffffffffffffffffffffffffff1681526020019081526020016000206004016000828254611fed91906135db565b9250508190555050506122a5565b60405160200161200a906137a5565b604051602081830303815290604052805190602001208160405160200161203191906136e1565b60405160208183030381529060405280519060200120036122a45760018060008673ffffffffffffffffffffffffffffffffffffffff1673ffffffffffffffffffffffffffffffffffffffff16815260200190815260200160002060050154106120d0576040517f08c379a00000000000000000000000000000000000000000000000000000000081526004016120c790613b27565b60405180910390fd5b60006104b083600a866120e39190613981565b6120ed9190613981565b6120f791906139f2565b90506000818561210791906135db565b905080600160008873ffffffffffffffffffffffffffffffffffffffff1673ffffffffffffffffffffffffffffffffffffffff1681526020019081526020016000206005018190555083600160008873ffffffffffffffffffffffffffffffffffffffff1673ffffffffffffffffffffffffffffffffffffffff1681526020019081526020016000206005015461219e91906139f2565b600160008873ffffffffffffffffffffffffffffffffffffffff1673ffffffffffffffffffffffffffffffffffffffff1681526020019081526020016000206008018190555083600160008873ffffffffffffffffffffffffffffffffffffffff1673ffffffffffffffffffffffffffffffffffffffff168152602001908152602001600020600b01600082825461223691906135db565b92505081905550818561224991906135db565b600160008873ffffffffffffffffffffffffffffffffffffffff1673ffffffffffffffffffffffffffffffffffffffff168152602001908152602001600020600501600082825461229a91906135db565b9250508190555050505b5b5b604051806101800160405280600160008773ffffffffffffffffffffffffffffffffffffffff1673ffffffffffffffffffffffffffffffffffffffff16815260200190815260200160002060000160009054906101000a900473ffffffffffffffffffffffffffffffffffffffff1673ffffffffffffffffffffffffffffffffffffffff168152602001600160008773ffffffffffffffffffffffffffffffffffffffff1673ffffffffffffffffffffffffffffffffffffffff168152602001908152602001600020600101548152602001600160008773ffffffffffffffffffffffffffffffffffffffff1673ffffffffffffffffffffffffffffffffffffffff168152602001908152602001600020600201548152602001600160008773ffffffffffffffffffffffffffffffffffffffff1673ffffffffffffffffffffffffffffffffffffffff168152602001908152602001600020600301548152602001600160008773ffffffffffffffffffffffffffffffffffffffff1673ffffffffffffffffffffffffffffffffffffffff168152602001908152602001600020600401548152602001600160008773ffffffffffffffffffffffffffffffffffffffff1673ffffffffffffffffffffffffffffffffffffffff168152602001908152602001600020600501548152602001600160008773ffffffffffffffffffffffffffffffffffffffff1673ffffffffffffffffffffffffffffffffffffffff168152602001908152602001600020600601548152602001600160008773ffffffffffffffffffffffffffffffffffffffff1673ffffffffffffffffffffffffffffffffffffffff168152602001908152602001600020600701548152602001600160008773ffffffffffffffffffffffffffffffffffffffff1673ffffffffffffffffffffffffffffffffffffffff168152602001908152602001600020600801548152602001600160008773ffffffffffffffffffffffffffffffffffffffff1673ffffffffffffffffffffffffffffffffffffffff168152602001908152602001600020600901548152602001600160008773ffffffffffffffffffffffffffffffffffffffff1673ffffffffffffffffffffffffffffffffffffffff168152602001908152602001600020600a01548152602001600160008773ffffffffffffffffffffffffffffffffffffffff1673ffffffffffffffffffffffffffffffffffffffff168152602001908152602001600020600b0154815250600160008673ffffffffffffffffffffffffffffffffffffffff1673ffffffffffffffffffffffffffffffffffffffff16815260200190815260200160002060008201518160000160006101000a81548173ffffffffffffffffffffffffffffffffffffffff021916908373ffffffffffffffffffffffffffffffffffffffff1602179055506020820151816001015560408201518160020155606082015181600301556080820151816004015560a0820151816005015560c0820151816006015560e082015181600701556101008201518160080155610120820151816009015561014082015181600a015561016082015181600b015590505050505050565b60008054906101000a900473ffffffffffffffffffffffffffffffffffffffff1673ffffffffffffffffffffffffffffffffffffffff163373ffffffffffffffffffffffffffffffffffffffff16146127d5576040517f08c379a00000000000000000000000000000000000000000000000000000000081526004016127cc90613bb9565b60405180910390fd5b3073ffffffffffffffffffffffffffffffffffffffff166108fc349081150290604051600060405180830381858888f1935050505015801561281b573d6000803e3d6000fd5b50565b60016020528060005260406000206000915090508060000160009054906101000a900473ffffffffffffffffffffffffffffffffffffffff169080600101549080600201549080600301549080600401549080600501549080600601549080600701549080600801549080600901549080600a01549080600b015490508c565b60008060008073ffffffffffffffffffffffffffffffffffffffff168473ffffffffffffffffffffffffffffffffffffffff1603612911576040517f08c379a000000000000000000000000000000000000000000000000000000000815260040161290890613520565b60405180910390fd5b600160008573ffffffffffffffffffffffffffffffffffffffff1673ffffffffffffffffffffffffffffffffffffffff16815260200190815260200160002060040154600160008673ffffffffffffffffffffffffffffffffffffffff1673ffffffffffffffffffffffffffffffffffffffff16815260200190815260200160002060070154600160008773ffffffffffffffffffffffffffffffffffffffff1673ffffffffffffffffffffffffffffffffffffffff168152602001908152602001600020600a01549250925092509193909250565b600081118015612a385750600160008373ffffffffffffffffffffffffffffffffffffffff1673ffffffffffffffffffffffffffffffffffffffff1681526020019081526020016000206001015481105b612a77576040517f08c379a0000000000000000000000000000000000000000000000000000000008152600401612a6e90613c25565b60405180910390fd5b600073ffffffffffffffffffffffffffffffffffffffff168273ffffffffffffffffffffffffffffffffffffffff1603612ae6576040517f08c379a0000000000000000000000000000000000000000000000000000000008152600401612add90613520565b60405180910390fd5b60008103612b29576040517f08c379a0000000000000000000000000000000000000000000000000000000008152600401612b209061358c565b60405180910390fd5b80600160008473ffffffffffffffffffffffffffffffffffffffff1673ffffffffffffffffffffffffffffffffffffffff1681526020019081526020016000206001016000828254612b7b9190613892565b92505081905550604051806101800160405280600160008573ffffffffffffffffffffffffffffffffffffffff1673ffffffffffffffffffffffffffffffffffffffff16815260200190815260200160002060000160009054906101000a900473ffffffffffffffffffffffffffffffffffffffff1673ffffffffffffffffffffffffffffffffffffffff168152602001600160008573ffffffffffffffffffffffffffffffffffffffff1673ffffffffffffffffffffffffffffffffffffffff168152602001908152602001600020600101548152602001600160008573ffffffffffffffffffffffffffffffffffffffff1673ffffffffffffffffffffffffffffffffffffffff168152602001908152602001600020600201548152602001600160008573ffffffffffffffffffffffffffffffffffffffff1673ffffffffffffffffffffffffffffffffffffffff168152602001908152602001600020600301548152602001600160008573ffffffffffffffffffffffffffffffffffffffff1673ffffffffffffffffffffffffffffffffffffffff168152602001908152602001600020600401548152602001600160008573ffffffffffffffffffffffffffffffffffffffff1673ffffffffffffffffffffffffffffffffffffffff168152602001908152602001600020600501548152602001600160008573ffffffffffffffffffffffffffffffffffffffff1673ffffffffffffffffffffffffffffffffffffffff168152602001908152602001600020600601548152602001600160008573ffffffffffffffffffffffffffffffffffffffff1673ffffffffffffffffffffffffffffffffffffffff168152602001908152602001600020600701548152602001600160008573ffffffffffffffffffffffffffffffffffffffff1673ffffffffffffffffffffffffffffffffffffffff168152602001908152602001600020600801548152602001600160008573ffffffffffffffffffffffffffffffffffffffff1673ffffffffffffffffffffffffffffffffffffffff168152602001908152602001600020600901548152602001600160008573ffffffffffffffffffffffffffffffffffffffff1673ffffffffffffffffffffffffffffffffffffffff168152602001908152602001600020600a01548152602001600160008573ffffffffffffffffffffffffffffffffffffffff1673ffffffffffffffffffffffffffffffffffffffff168152602001908152602001600020600b0154815250600160008473ffffffffffffffffffffffffffffffffffffffff1673ffffffffffffffffffffffffffffffffffffffff16815260200190815260200160002060008201518160000160006101000a81548173ffffffffffffffffffffffffffffffffffffffff021916908373ffffffffffffffffffffffffffffffffffffffff1602179055506020820151816001015560408201518160020155606082015181600301556080820151816004015560a0820151816005015560c0820151816006015560e082015181600701556101008201518160080155610120820151816009015561014082015181600a015561016082015181600b01559050505050565b6000604051905090565b600080fd5b600080fd5b600073ffffffffffffffffffffffffffffffffffffffff82169050919050565b600061306082613035565b9050919050565b61307081613055565b811461307b57600080fd5b50565b60008135905061308d81613067565b92915050565b6000819050919050565b6130a681613093565b81146130b157600080fd5b50565b6000813590506130c38161309d565b92915050565b600080604083850312156130e0576130df61302b565b5b60006130ee8582860161307e565b92505060206130ff858286016130b4565b9150509250929050565b600061311482613035565b9050919050565b61312481613109565b811461312f57600080fd5b50565b6000813590506131418161311b565b92915050565b60006020828403121561315d5761315c61302b565b5b600061316b84828501613132565b91505092915050565b61317d81613093565b82525050565b60006060820190506131986000830186613174565b6131a56020830185613174565b6131b26040830184613174565b949350505050565b60006020820190506131cf6000830184613174565b92915050565b600080fd5b600080fd5b6000601f19601f8301169050919050565b7f4e487b7100000000000000000000000000000000000000000000000000000000600052604160045260246000fd5b613228826131df565b810181811067ffffffffffffffff82111715613247576132466131f0565b5b80604052505050565b600061325a613021565b9050613266828261321f565b919050565b600067ffffffffffffffff821115613286576132856131f0565b5b61328f826131df565b9050602081019050919050565b82818337600083830152505050565b60006132be6132b98461326b565b613250565b9050828152602081018484840111156132da576132d96131da565b5b6132e584828561329c565b509392505050565b600082601f830112613302576133016131d5565b5b81356133128482602086016132ab565b91505092915050565b600080604083850312156133325761333161302b565b5b60006133408582860161307e565b925050602083013567ffffffffffffffff81111561336157613360613030565b5b61336d858286016132ed565b9150509250929050565b600080600080608085870312156133915761339061302b565b5b600061339f8782880161307e565b94505060206133b0878288016130b4565b93505060406133c1878288016130b4565b925050606085013567ffffffffffffffff8111156133e2576133e1613030565b5b6133ee878288016132ed565b91505092959194509250565b61340381613109565b82525050565b60006101808201905061341f600083018f6133fa565b61342c602083018e613174565b613439604083018d613174565b613446606083018c613174565b613453608083018b613174565b61346060a083018a613174565b61346d60c0830189613174565b61347a60e0830188613174565b613488610100830187613174565b613496610120830186613174565b6134a4610140830185613174565b6134b2610160830184613174565b9d9c50505050505050505050505050565b600082825260208201905092915050565b7f7a65726f2061646472657373206973206e6f7420616c6c6f7765640000000000600082015250565b600061350a601b836134c3565b9150613515826134d4565b602082019050919050565b60006020820190508181036000830152613539816134fd565b9050919050565b7f706c656173652073656e6420736f6d6520616d6f756e74000000000000000000600082015250565b60006135766017836134c3565b915061358182613540565b602082019050919050565b600060208201905081810360008301526135a581613569565b9050919050565b7f4e487b7100000000000000000000000000000000000000000000000000000000600052601160045260246000fd5b60006135e682613093565b91506135f183613093565b9250828201905080821115613609576136086135ac565b5b92915050565b600081905092915050565b7f6361720000000000000000000000000000000000000000000000000000000000600082015250565b600061365060038361360f565b915061365b8261361a565b600382019050919050565b600061367182613643565b9150819050919050565b600081519050919050565b60005b838110156136a4578082015181840152602081019050613689565b60008484015250505050565b60006136bb8261367b565b6136c5818561360f565b93506136d5818560208601613686565b80840191505092915050565b60006136ed82846136b0565b915081905092915050565b7f686f6d6500000000000000000000000000000000000000000000000000000000600082015250565b600061372e60048361360f565b9150613739826136f8565b600482019050919050565b600061374f82613721565b9150819050919050565b7f706572736f6e616c000000000000000000000000000000000000000000000000600082015250565b600061378f60088361360f565b915061379a82613759565b600882019050919050565b60006137b082613782565b9150819050919050565b7f696e76616c6964206c6f616e2074797065000000000000000000000000000000600082015250565b60006137f06011836134c3565b91506137fb826137ba565b602082019050919050565b6000602082019050818103600083015261381f816137e3565b9050919050565b7f696e76616c696420656d6920616d6f756e740000000000000000000000000000600082015250565b600061385c6012836134c3565b915061386782613826565b602082019050919050565b6000602082019050818103600083015261388b8161384f565b9050919050565b600061389d82613093565b91506138a883613093565b92508282039050818111156138c0576138bf6135ac565b5b92915050565b60006138d182613093565b9150600082036138e4576138e36135ac565b5b600182039050919050565b7f796f752068617665206f6e6520636172206c6f616e2120796f752063616e277460008201527f2074616b6520616e6f7468657221000000000000000000000000000000000000602082015250565b600061394b602e836134c3565b9150613956826138ef565b604082019050919050565b6000602082019050818103600083015261397a8161393e565b9050919050565b600061398c82613093565b915061399783613093565b92508282026139a581613093565b915082820484148315176139bc576139bb6135ac565b5b5092915050565b7f4e487b7100000000000000000000000000000000000000000000000000000000600052601260045260246000fd5b60006139fd82613093565b9150613a0883613093565b925082613a1857613a176139c3565b5b828204905092915050565b7f796f75206861766520616c7265616479206f6e6520686f6d65206c6f616e212060008201527f796f752063616e27742074616b6520616e6f7468657221000000000000000000602082015250565b6000613a7f6037836134c3565b9150613a8a82613a23565b604082019050919050565b60006020820190508181036000830152613aae81613a72565b9050919050565b7f796f752068617665206f6e6520706572736f6e616c206c6f616e2120796f752060008201527f63616e27742074616b6520616e6f746865722100000000000000000000000000602082015250565b6000613b116033836134c3565b9150613b1c82613ab5565b604082019050919050565b60006020820190508181036000830152613b4081613b04565b9050919050565b7f596f75277265206e6f742074686520736d61727420636f6e747261637420616460008201527f6d696e2100000000000000000000000000000000000000000000000000000000602082015250565b6000613ba36024836134c3565b9150613bae82613b47565b604082019050919050565b60006020820190508181036000830152613bd281613b96565b9050919050565b7f696e76616c696420616d6f756e74000000000000000000000000000000000000600082015250565b6000613c0f600e836134c3565b9150613c1a82613bd9565b602082019050919050565b60006020820190508181036000830152613c3e81613c02565b905091905056fea26469706673582212202ca17794a145f093edd2283378a48f76ca2dec1e4d7b85d355a6f21e554d4dbb64736f6c63430008120033",
					"opcodes": "PUSH1 0x80 PUSH1 0x40 MSTORE CALLVALUE DUP1 ISZERO PUSH2 0x10 JUMPI PUSH1 0x0 DUP1 REVERT JUMPDEST POP CALLER PUSH1 0x0 DUP1 PUSH2 0x100 EXP DUP2 SLOAD DUP2 PUSH20 0xFFFFFFFFFFFFFFFFFFFFFFFFFFFFFFFFFFFFFFFF MUL NOT AND SWAP1 DUP4 PUSH20 0xFFFFFFFFFFFFFFFFFFFFFFFFFFFFFFFFFFFFFFFF AND MUL OR SWAP1 SSTORE POP PUSH2 0x3C7B DUP1 PUSH2 0x60 PUSH1 0x0 CODECOPY PUSH1 0x0 RETURN INVALID PUSH1 0x80 PUSH1 0x40 MSTORE PUSH1 0x4 CALLDATASIZE LT PUSH2 0x95 JUMPI PUSH1 0x0 CALLDATALOAD PUSH1 0xE0 SHR DUP1 PUSH4 0x9283EA63 GT PUSH2 0x59 JUMPI DUP1 PUSH4 0x9283EA63 EQ PUSH2 0x18C JUMPI DUP1 PUSH4 0xA2F09DFA EQ PUSH2 0x1A8 JUMPI DUP1 PUSH4 0xA87430BA EQ PUSH2 0x1B2 JUMPI DUP1 PUSH4 0xD77799A5 EQ PUSH2 0x1FA JUMPI DUP1 PUSH4 0xF3FEF3A3 EQ PUSH2 0x239 JUMPI PUSH2 0x9C JUMP JUMPDEST DUP1 PUSH4 0x47E7EF24 EQ PUSH2 0x9E JUMPI DUP1 PUSH4 0x65D6D088 EQ PUSH2 0xBA JUMPI DUP1 PUSH4 0x6F9FB98A EQ PUSH2 0xF9 JUMPI DUP1 PUSH4 0x8172AA0A EQ PUSH2 0x124 JUMPI DUP1 PUSH4 0x91341DE3 EQ PUSH2 0x163 JUMPI PUSH2 0x9C JUMP JUMPDEST CALLDATASIZE PUSH2 0x9C JUMPI STOP JUMPDEST STOP JUMPDEST PUSH2 0xB8 PUSH1 0x4 DUP1 CALLDATASIZE SUB DUP2 ADD SWAP1 PUSH2 0xB3 SWAP2 SWAP1 PUSH2 0x30C9 JUMP JUMPDEST PUSH2 0x262 JUMP JUMPDEST STOP JUMPDEST CALLVALUE DUP1 ISZERO PUSH2 0xC6 JUMPI PUSH1 0x0 DUP1 REVERT JUMPDEST POP PUSH2 0xE1 PUSH1 0x4 DUP1 CALLDATASIZE SUB DUP2 ADD SWAP1 PUSH2 0xDC SWAP2 SWAP1 PUSH2 0x3147 JUMP JUMPDEST PUSH2 0x80C JUMP JUMPDEST PUSH1 0x40 MLOAD PUSH2 0xF0 SWAP4 SWAP3 SWAP2 SWAP1 PUSH2 0x3183 JUMP JUMPDEST PUSH1 0x40 MLOAD DUP1 SWAP2 SUB SWAP1 RETURN JUMPDEST CALLVALUE DUP1 ISZERO PUSH2 0x105 JUMPI PUSH1 0x0 DUP1 REVERT JUMPDEST POP PUSH2 0x10E PUSH2 0x955 JUMP JUMPDEST PUSH1 0x40 MLOAD PUSH2 0x11B SWAP2 SWAP1 PUSH2 0x31BA JUMP JUMPDEST PUSH1 0x40 MLOAD DUP1 SWAP2 SUB SWAP1 RETURN JUMPDEST CALLVALUE DUP1 ISZERO PUSH2 0x130 JUMPI PUSH1 0x0 DUP1 REVERT JUMPDEST POP PUSH2 0x14B PUSH1 0x4 DUP1 CALLDATASIZE SUB DUP2 ADD SWAP1 PUSH2 0x146 SWAP2 SWAP1 PUSH2 0x3147 JUMP JUMPDEST PUSH2 0x95D JUMP JUMPDEST PUSH1 0x40 MLOAD PUSH2 0x15A SWAP4 SWAP3 SWAP2 SWAP1 PUSH2 0x3183 JUMP JUMPDEST PUSH1 0x40 MLOAD DUP1 SWAP2 SUB SWAP1 RETURN JUMPDEST CALLVALUE DUP1 ISZERO PUSH2 0x16F JUMPI PUSH1 0x0 DUP1 REVERT JUMPDEST POP PUSH2 0x18A PUSH1 0x4 DUP1 CALLDATASIZE SUB DUP2 ADD SWAP1 PUSH2 0x185 SWAP2 SWAP1 PUSH2 0x331B JUMP JUMPDEST PUSH2 0xAA6 JUMP JUMPDEST STOP JUMPDEST PUSH2 0x1A6 PUSH1 0x4 DUP1 CALLDATASIZE SUB DUP2 ADD SWAP1 PUSH2 0x1A1 SWAP2 SWAP1 PUSH2 0x3377 JUMP JUMPDEST PUSH2 0x1821 JUMP JUMPDEST STOP JUMPDEST PUSH2 0x1B0 PUSH2 0x2747 JUMP JUMPDEST STOP JUMPDEST CALLVALUE DUP1 ISZERO PUSH2 0x1BE JUMPI PUSH1 0x0 DUP1 REVERT JUMPDEST POP PUSH2 0x1D9 PUSH1 0x4 DUP1 CALLDATASIZE SUB DUP2 ADD SWAP1 PUSH2 0x1D4 SWAP2 SWAP1 PUSH2 0x3147 JUMP JUMPDEST PUSH2 0x281E JUMP JUMPDEST PUSH1 0x40 MLOAD PUSH2 0x1F1 SWAP13 SWAP12 SWAP11 SWAP10 SWAP9 SWAP8 SWAP7 SWAP6 SWAP5 SWAP4 SWAP3 SWAP2 SWAP1 PUSH2 0x3409 JUMP JUMPDEST PUSH1 0x40 MLOAD DUP1 SWAP2 SUB SWAP1 RETURN JUMPDEST CALLVALUE DUP1 ISZERO PUSH2 0x206 JUMPI PUSH1 0x0 DUP1 REVERT JUMPDEST POP PUSH2 0x221 PUSH1 0x4 DUP1 CALLDATASIZE SUB DUP2 ADD SWAP1 PUSH2 0x21C SWAP2 SWAP1 PUSH2 0x3147 JUMP JUMPDEST PUSH2 0x289E JUMP JUMPDEST PUSH1 0x40 MLOAD PUSH2 0x230 SWAP4 SWAP3 SWAP2 SWAP1 PUSH2 0x3183 JUMP JUMPDEST PUSH1 0x40 MLOAD DUP1 SWAP2 SUB SWAP1 RETURN JUMPDEST CALLVALUE DUP1 ISZERO PUSH2 0x245 JUMPI PUSH1 0x0 DUP1 REVERT JUMPDEST POP PUSH2 0x260 PUSH1 0x4 DUP1 CALLDATASIZE SUB DUP2 ADD SWAP1 PUSH2 0x25B SWAP2 SWAP1 PUSH2 0x30C9 JUMP JUMPDEST PUSH2 0x29E7 JUMP JUMPDEST STOP JUMPDEST PUSH1 0x0 PUSH20 0xFFFFFFFFFFFFFFFFFFFFFFFFFFFFFFFFFFFFFFFF AND DUP3 PUSH20 0xFFFFFFFFFFFFFFFFFFFFFFFFFFFFFFFFFFFFFFFF AND SUB PUSH2 0x2D1 JUMPI PUSH1 0x40 MLOAD PUSH32 0x8C379A000000000000000000000000000000000000000000000000000000000 DUP2 MSTORE PUSH1 0x4 ADD PUSH2 0x2C8 SWAP1 PUSH2 0x3520 JUMP JUMPDEST PUSH1 0x40 MLOAD DUP1 SWAP2 SUB SWAP1 REVERT JUMPDEST PUSH1 0x0 DUP2 SUB PUSH2 0x314 JUMPI PUSH1 0x40 MLOAD PUSH32 0x8C379A000000000000000000000000000000000000000000000000000000000 DUP2 MSTORE PUSH1 0x4 ADD PUSH2 0x30B SWAP1 PUSH2 0x358C JUMP JUMPDEST PUSH1 0x40 MLOAD DUP1 SWAP2 SUB SWAP1 REVERT JUMPDEST DUP1 PUSH1 0x1 PUSH1 0x0 DUP5 PUSH20 0xFFFFFFFFFFFFFFFFFFFFFFFFFFFFFFFFFFFFFFFF AND PUSH20 0xFFFFFFFFFFFFFFFFFFFFFFFFFFFFFFFFFFFFFFFF AND DUP2 MSTORE PUSH1 0x20 ADD SWAP1 DUP2 MSTORE PUSH1 0x20 ADD PUSH1 0x0 KECCAK256 PUSH1 0x1 ADD PUSH1 0x0 DUP3 DUP3 SLOAD PUSH2 0x366 SWAP2 SWAP1 PUSH2 0x35DB JUMP JUMPDEST SWAP3 POP POP DUP2 SWAP1 SSTORE POP PUSH1 0x40 MLOAD DUP1 PUSH2 0x180 ADD PUSH1 0x40 MSTORE DUP1 PUSH1 0x1 PUSH1 0x0 DUP6 PUSH20 0xFFFFFFFFFFFFFFFFFFFFFFFFFFFFFFFFFFFFFFFF AND PUSH20 0xFFFFFFFFFFFFFFFFFFFFFFFFFFFFFFFFFFFFFFFF AND DUP2 MSTORE PUSH1 0x20 ADD SWAP1 DUP2 MSTORE PUSH1 0x20 ADD PUSH1 0x0 KECCAK256 PUSH1 0x0 ADD PUSH1 0x0 SWAP1 SLOAD SWAP1 PUSH2 0x100 EXP SWAP1 DIV PUSH20 0xFFFFFFFFFFFFFFFFFFFFFFFFFFFFFFFFFFFFFFFF AND PUSH20 0xFFFFFFFFFFFFFFFFFFFFFFFFFFFFFFFFFFFFFFFF AND DUP2 MSTORE PUSH1 0x20 ADD PUSH1 0x1 PUSH1 0x0 DUP6 PUSH20 0xFFFFFFFFFFFFFFFFFFFFFFFFFFFFFFFFFFFFFFFF AND PUSH20 0xFFFFFFFFFFFFFFFFFFFFFFFFFFFFFFFFFFFFFFFF AND DUP2 MSTORE PUSH1 0x20 ADD SWAP1 DUP2 MSTORE PUSH1 0x20 ADD PUSH1 0x0 KECCAK256 PUSH1 0x1 ADD SLOAD DUP2 MSTORE PUSH1 0x20 ADD PUSH1 0x1 PUSH1 0x0 DUP6 PUSH20 0xFFFFFFFFFFFFFFFFFFFFFFFFFFFFFFFFFFFFFFFF AND PUSH20 0xFFFFFFFFFFFFFFFFFFFFFFFFFFFFFFFFFFFFFFFF AND DUP2 MSTORE PUSH1 0x20 ADD SWAP1 DUP2 MSTORE PUSH1 0x20 ADD PUSH1 0x0 KECCAK256 PUSH1 0x2 ADD SLOAD DUP2 MSTORE PUSH1 0x20 ADD PUSH1 0x1 PUSH1 0x0 DUP6 PUSH20 0xFFFFFFFFFFFFFFFFFFFFFFFFFFFFFFFFFFFFFFFF AND PUSH20 0xFFFFFFFFFFFFFFFFFFFFFFFFFFFFFFFFFFFFFFFF AND DUP2 MSTORE PUSH1 0x20 ADD SWAP1 DUP2 MSTORE PUSH1 0x20 ADD PUSH1 0x0 KECCAK256 PUSH1 0x3 ADD SLOAD DUP2 MSTORE PUSH1 0x20 ADD PUSH1 0x1 PUSH1 0x0 DUP6 PUSH20 0xFFFFFFFFFFFFFFFFFFFFFFFFFFFFFFFFFFFFFFFF AND PUSH20 0xFFFFFFFFFFFFFFFFFFFFFFFFFFFFFFFFFFFFFFFF AND DUP2 MSTORE PUSH1 0x20 ADD SWAP1 DUP2 MSTORE PUSH1 0x20 ADD PUSH1 0x0 KECCAK256 PUSH1 0x4 ADD SLOAD DUP2 MSTORE PUSH1 0x20 ADD PUSH1 0x1 PUSH1 0x0 DUP6 PUSH20 0xFFFFFFFFFFFFFFFFFFFFFFFFFFFFFFFFFFFFFFFF AND PUSH20 0xFFFFFFFFFFFFFFFFFFFFFFFFFFFFFFFFFFFFFFFF AND DUP2 MSTORE PUSH1 0x20 ADD SWAP1 DUP2 MSTORE PUSH1 0x20 ADD PUSH1 0x0 KECCAK256 PUSH1 0x5 ADD SLOAD DUP2 MSTORE PUSH1 0x20 ADD PUSH1 0x1 PUSH1 0x0 DUP6 PUSH20 0xFFFFFFFFFFFFFFFFFFFFFFFFFFFFFFFFFFFFFFFF AND PUSH20 0xFFFFFFFFFFFFFFFFFFFFFFFFFFFFFFFFFFFFFFFF AND DUP2 MSTORE PUSH1 0x20 ADD SWAP1 DUP2 MSTORE PUSH1 0x20 ADD PUSH1 0x0 KECCAK256 PUSH1 0x6 ADD SLOAD DUP2 MSTORE PUSH1 0x20 ADD PUSH1 0x1 PUSH1 0x0 DUP6 PUSH20 0xFFFFFFFFFFFFFFFFFFFFFFFFFFFFFFFFFFFFFFFF AND PUSH20 0xFFFFFFFFFFFFFFFFFFFFFFFFFFFFFFFFFFFFFFFF AND DUP2 MSTORE PUSH1 0x20 ADD SWAP1 DUP2 MSTORE PUSH1 0x20 ADD PUSH1 0x0 KECCAK256 PUSH1 0x7 ADD SLOAD DUP2 MSTORE PUSH1 0x20 ADD PUSH1 0x1 PUSH1 0x0 DUP6 PUSH20 0xFFFFFFFFFFFFFFFFFFFFFFFFFFFFFFFFFFFFFFFF AND PUSH20 0xFFFFFFFFFFFFFFFFFFFFFFFFFFFFFFFFFFFFFFFF AND DUP2 MSTORE PUSH1 0x20 ADD SWAP1 DUP2 MSTORE PUSH1 0x20 ADD PUSH1 0x0 KECCAK256 PUSH1 0x8 ADD SLOAD DUP2 MSTORE PUSH1 0x20 ADD PUSH1 0x1 PUSH1 0x0 DUP6 PUSH20 0xFFFFFFFFFFFFFFFFFFFFFFFFFFFFFFFFFFFFFFFF AND PUSH20 0xFFFFFFFFFFFFFFFFFFFFFFFFFFFFFFFFFFFFFFFF AND DUP2 MSTORE PUSH1 0x20 ADD SWAP1 DUP2 MSTORE PUSH1 0x20 ADD PUSH1 0x0 KECCAK256 PUSH1 0x9 ADD SLOAD DUP2 MSTORE PUSH1 0x20 ADD PUSH1 0x1 PUSH1 0x0 DUP6 PUSH20 0xFFFFFFFFFFFFFFFFFFFFFFFFFFFFFFFFFFFFFFFF AND PUSH20 0xFFFFFFFFFFFFFFFFFFFFFFFFFFFFFFFFFFFFFFFF AND DUP2 MSTORE PUSH1 0x20 ADD SWAP1 DUP2 MSTORE PUSH1 0x20 ADD PUSH1 0x0 KECCAK256 PUSH1 0xA ADD SLOAD DUP2 MSTORE PUSH1 0x20 ADD PUSH1 0x1 PUSH1 0x0 DUP6 PUSH20 0xFFFFFFFFFFFFFFFFFFFFFFFFFFFFFFFFFFFFFFFF AND PUSH20 0xFFFFFFFFFFFFFFFFFFFFFFFFFFFFFFFFFFFFFFFF AND DUP2 MSTORE PUSH1 0x20 ADD SWAP1 DUP2 MSTORE PUSH1 0x20 ADD PUSH1 0x0 KECCAK256 PUSH1 0xB ADD SLOAD DUP2 MSTORE POP PUSH1 0x1 PUSH1 0x0 DUP5 PUSH20 0xFFFFFFFFFFFFFFFFFFFFFFFFFFFFFFFFFFFFFFFF AND PUSH20 0xFFFFFFFFFFFFFFFFFFFFFFFFFFFFFFFFFFFFFFFF AND DUP2 MSTORE PUSH1 0x20 ADD SWAP1 DUP2 MSTORE PUSH1 0x20 ADD PUSH1 0x0 KECCAK256 PUSH1 0x0 DUP3 ADD MLOAD DUP2 PUSH1 0x0 ADD PUSH1 0x0 PUSH2 0x100 EXP DUP2 SLOAD DUP2 PUSH20 0xFFFFFFFFFFFFFFFFFFFFFFFFFFFFFFFFFFFFFFFF MUL NOT AND SWAP1 DUP4 PUSH20 0xFFFFFFFFFFFFFFFFFFFFFFFFFFFFFFFFFFFFFFFF AND MUL OR SWAP1 SSTORE POP PUSH1 0x20 DUP3 ADD MLOAD DUP2 PUSH1 0x1 ADD SSTORE PUSH1 0x40 DUP3 ADD MLOAD DUP2 PUSH1 0x2 ADD SSTORE PUSH1 0x60 DUP3 ADD MLOAD DUP2 PUSH1 0x3 ADD SSTORE PUSH1 0x80 DUP3 ADD MLOAD DUP2 PUSH1 0x4 ADD SSTORE PUSH1 0xA0 DUP3 ADD MLOAD DUP2 PUSH1 0x5 ADD SSTORE PUSH1 0xC0 DUP3 ADD MLOAD DUP2 PUSH1 0x6 ADD SSTORE PUSH1 0xE0 DUP3 ADD MLOAD DUP2 PUSH1 0x7 ADD SSTORE PUSH2 0x100 DUP3 ADD MLOAD DUP2 PUSH1 0x8 ADD SSTORE PUSH2 0x120 DUP3 ADD MLOAD DUP2 PUSH1 0x9 ADD SSTORE PUSH2 0x140 DUP3 ADD MLOAD DUP2 PUSH1 0xA ADD SSTORE PUSH2 0x160 DUP3 ADD MLOAD DUP2 PUSH1 0xB ADD SSTORE SWAP1 POP POP POP POP JUMP JUMPDEST PUSH1 0x0 DUP1 PUSH1 0x0 DUP1 PUSH20 0xFFFFFFFFFFFFFFFFFFFFFFFFFFFFFFFFFFFFFFFF AND DUP5 PUSH20 0xFFFFFFFFFFFFFFFFFFFFFFFFFFFFFFFFFFFFFFFF AND SUB PUSH2 0x87F JUMPI PUSH1 0x40 MLOAD PUSH32 0x8C379A000000000000000000000000000000000000000000000000000000000 DUP2 MSTORE PUSH1 0x4 ADD PUSH2 0x876 SWAP1 PUSH2 0x3520 JUMP JUMPDEST PUSH1 0x40 MLOAD DUP1 SWAP2 SUB SWAP1 REVERT JUMPDEST PUSH1 0x1 PUSH1 0x0 DUP6 PUSH20 0xFFFFFFFFFFFFFFFFFFFFFFFFFFFFFFFFFFFFFFFF AND PUSH20 0xFFFFFFFFFFFFFFFFFFFFFFFFFFFFFFFFFFFFFFFF AND DUP2 MSTORE PUSH1 0x20 ADD SWAP1 DUP2 MSTORE PUSH1 0x20 ADD PUSH1 0x0 KECCAK256 PUSH1 0x3 ADD SLOAD PUSH1 0x1 PUSH1 0x0 DUP7 PUSH20 0xFFFFFFFFFFFFFFFFFFFFFFFFFFFFFFFFFFFFFFFF AND PUSH20 0xFFFFFFFFFFFFFFFFFFFFFFFFFFFFFFFFFFFFFFFF AND DUP2 MSTORE PUSH1 0x20 ADD SWAP1 DUP2 MSTORE PUSH1 0x20 ADD PUSH1 0x0 KECCAK256 PUSH1 0x6 ADD SLOAD PUSH1 0x1 PUSH1 0x0 DUP8 PUSH20 0xFFFFFFFFFFFFFFFFFFFFFFFFFFFFFFFFFFFFFFFF AND PUSH20 0xFFFFFFFFFFFFFFFFFFFFFFFFFFFFFFFFFFFFFFFF AND DUP2 MSTORE PUSH1 0x20 ADD SWAP1 DUP2 MSTORE PUSH1 0x20 ADD PUSH1 0x0 KECCAK256 PUSH1 0x9 ADD SLOAD SWAP3 POP SWAP3 POP SWAP3 POP SWAP2 SWAP4 SWAP1 SWAP3 POP JUMP JUMPDEST PUSH1 0x0 SELFBALANCE SWAP1 POP SWAP1 JUMP JUMPDEST PUSH1 0x0 DUP1 PUSH1 0x0 DUP1 PUSH20 0xFFFFFFFFFFFFFFFFFFFFFFFFFFFFFFFFFFFFFFFF AND DUP5 PUSH20 0xFFFFFFFFFFFFFFFFFFFFFFFFFFFFFFFFFFFFFFFF AND SUB PUSH2 0x9D0 JUMPI PUSH1 0x40 MLOAD PUSH32 0x8C379A000000000000000000000000000000000000000000000000000000000 DUP2 MSTORE PUSH1 0x4 ADD PUSH2 0x9C7 SWAP1 PUSH2 0x3520 JUMP JUMPDEST PUSH1 0x40 MLOAD DUP1 SWAP2 SUB SWAP1 REVERT JUMPDEST PUSH1 0x1 PUSH1 0x0 DUP6 PUSH20 0xFFFFFFFFFFFFFFFFFFFFFFFFFFFFFFFFFFFFFFFF AND PUSH20 0xFFFFFFFFFFFFFFFFFFFFFFFFFFFFFFFFFFFFFFFF AND DUP2 MSTORE PUSH1 0x20 ADD SWAP1 DUP2 MSTORE PUSH1 0x20 ADD PUSH1 0x0 KECCAK256 PUSH1 0x5 ADD SLOAD PUSH1 0x1 PUSH1 0x0 DUP7 PUSH20 0xFFFFFFFFFFFFFFFFFFFFFFFFFFFFFFFFFFFFFFFF AND PUSH20 0xFFFFFFFFFFFFFFFFFFFFFFFFFFFFFFFFFFFFFFFF AND DUP2 MSTORE PUSH1 0x20 ADD SWAP1 DUP2 MSTORE PUSH1 0x20 ADD PUSH1 0x0 KECCAK256 PUSH1 0x8 ADD SLOAD PUSH1 0x1 PUSH1 0x0 DUP8 PUSH20 0xFFFFFFFFFFFFFFFFFFFFFFFFFFFFFFFFFFFFFFFF AND PUSH20 0xFFFFFFFFFFFFFFFFFFFFFFFFFFFFFFFFFFFFFFFF AND DUP2 MSTORE PUSH1 0x20 ADD SWAP1 DUP2 MSTORE PUSH1 0x20 ADD PUSH1 0x0 KECCAK256 PUSH1 0xB ADD SLOAD SWAP3 POP SWAP3 POP SWAP3 POP SWAP2 SWAP4 SWAP1 SWAP3 POP JUMP JUMPDEST PUSH1 0x40 MLOAD PUSH1 0x20 ADD PUSH2 0xAB5 SWAP1 PUSH2 0x3666 JUMP JUMPDEST PUSH1 0x40 MLOAD PUSH1 0x20 DUP2 DUP4 SUB SUB DUP2 MSTORE SWAP1 PUSH1 0x40 MSTORE DUP1 MLOAD SWAP1 PUSH1 0x20 ADD KECCAK256 DUP2 PUSH1 0x40 MLOAD PUSH1 0x20 ADD PUSH2 0xADC SWAP2 SWAP1 PUSH2 0x36E1 JUMP JUMPDEST PUSH1 0x40 MLOAD PUSH1 0x20 DUP2 DUP4 SUB SUB DUP2 MSTORE SWAP1 PUSH1 0x40 MSTORE DUP1 MLOAD SWAP1 PUSH1 0x20 ADD KECCAK256 EQ DUP1 PUSH2 0xB47 JUMPI POP PUSH1 0x40 MLOAD PUSH1 0x20 ADD PUSH2 0xB08 SWAP1 PUSH2 0x3744 JUMP JUMPDEST PUSH1 0x40 MLOAD PUSH1 0x20 DUP2 DUP4 SUB SUB DUP2 MSTORE SWAP1 PUSH1 0x40 MSTORE DUP1 MLOAD SWAP1 PUSH1 0x20 ADD KECCAK256 DUP2 PUSH1 0x40 MLOAD PUSH1 0x20 ADD PUSH2 0xB2F SWAP2 SWAP1 PUSH2 0x36E1 JUMP JUMPDEST PUSH1 0x40 MLOAD PUSH1 0x20 DUP2 DUP4 SUB SUB DUP2 MSTORE SWAP1 PUSH1 0x40 MSTORE DUP1 MLOAD SWAP1 PUSH1 0x20 ADD KECCAK256 EQ JUMPDEST DUP1 PUSH2 0xB9B JUMPI POP PUSH1 0x40 MLOAD PUSH1 0x20 ADD PUSH2 0xB5C SWAP1 PUSH2 0x37A5 JUMP JUMPDEST PUSH1 0x40 MLOAD PUSH1 0x20 DUP2 DUP4 SUB SUB DUP2 MSTORE SWAP1 PUSH1 0x40 MSTORE DUP1 MLOAD SWAP1 PUSH1 0x20 ADD KECCAK256 DUP2 PUSH1 0x40 MLOAD PUSH1 0x20 ADD PUSH2 0xB83 SWAP2 SWAP1 PUSH2 0x36E1 JUMP JUMPDEST PUSH1 0x40 MLOAD PUSH1 0x20 DUP2 DUP4 SUB SUB DUP2 MSTORE SWAP1 PUSH1 0x40 MSTORE DUP1 MLOAD SWAP1 PUSH1 0x20 ADD KECCAK256 EQ JUMPDEST PUSH2 0xBDA JUMPI PUSH1 0x40 MLOAD PUSH32 0x8C379A000000000000000000000000000000000000000000000000000000000 DUP2 MSTORE PUSH1 0x4 ADD PUSH2 0xBD1 SWAP1 PUSH2 0x3806 JUMP JUMPDEST PUSH1 0x40 MLOAD DUP1 SWAP2 SUB SWAP1 REVERT JUMPDEST PUSH1 0x0 PUSH20 0xFFFFFFFFFFFFFFFFFFFFFFFFFFFFFFFFFFFFFFFF AND DUP3 PUSH20 0xFFFFFFFFFFFFFFFFFFFFFFFFFFFFFFFFFFFFFFFF AND SUB PUSH2 0xC49 JUMPI PUSH1 0x40 MLOAD PUSH32 0x8C379A000000000000000000000000000000000000000000000000000000000 DUP2 MSTORE PUSH1 0x4 ADD PUSH2 0xC40 SWAP1 PUSH2 0x3520 JUMP JUMPDEST PUSH1 0x40 MLOAD DUP1 SWAP2 SUB SWAP1 REVERT JUMPDEST PUSH1 0x40 MLOAD PUSH1 0x20 ADD PUSH2 0xC58 SWAP1 PUSH2 0x3666 JUMP JUMPDEST PUSH1 0x40 MLOAD PUSH1 0x20 DUP2 DUP4 SUB SUB DUP2 MSTORE SWAP1 PUSH1 0x40 MSTORE DUP1 MLOAD SWAP1 PUSH1 0x20 ADD KECCAK256 DUP2 PUSH1 0x40 MLOAD PUSH1 0x20 ADD PUSH2 0xC7F SWAP2 SWAP1 PUSH2 0x36E1 JUMP JUMPDEST PUSH1 0x40 MLOAD PUSH1 0x20 DUP2 DUP4 SUB SUB DUP2 MSTORE SWAP1 PUSH1 0x40 MSTORE DUP1 MLOAD SWAP1 PUSH1 0x20 ADD KECCAK256 SUB PUSH2 0xEB2 JUMPI PUSH1 0x0 PUSH1 0x1 PUSH1 0x0 DUP5 PUSH20 0xFFFFFFFFFFFFFFFFFFFFFFFFFFFFFFFFFFFFFFFF AND PUSH20 0xFFFFFFFFFFFFFFFFFFFFFFFFFFFFFFFFFFFFFFFF AND DUP2 MSTORE PUSH1 0x20 ADD SWAP1 DUP2 MSTORE PUSH1 0x20 ADD PUSH1 0x0 KECCAK256 PUSH1 0x9 ADD SLOAD GT PUSH2 0xD1F JUMPI PUSH1 0x40 MLOAD PUSH32 0x8C379A000000000000000000000000000000000000000000000000000000000 DUP2 MSTORE PUSH1 0x4 ADD PUSH2 0xD16 SWAP1 PUSH2 0x3872 JUMP JUMPDEST PUSH1 0x40 MLOAD DUP1 SWAP2 SUB SWAP1 REVERT JUMPDEST PUSH1 0x1 PUSH1 0x0 DUP4 PUSH20 0xFFFFFFFFFFFFFFFFFFFFFFFFFFFFFFFFFFFFFFFF AND PUSH20 0xFFFFFFFFFFFFFFFFFFFFFFFFFFFFFFFFFFFFFFFF AND DUP2 MSTORE PUSH1 0x20 ADD SWAP1 DUP2 MSTORE PUSH1 0x20 ADD PUSH1 0x0 KECCAK256 PUSH1 0x6 ADD SLOAD PUSH1 0x1 PUSH1 0x0 DUP5 PUSH20 0xFFFFFFFFFFFFFFFFFFFFFFFFFFFFFFFFFFFFFFFF AND PUSH20 0xFFFFFFFFFFFFFFFFFFFFFFFFFFFFFFFFFFFFFFFF AND DUP2 MSTORE PUSH1 0x20 ADD SWAP1 DUP2 MSTORE PUSH1 0x20 ADD PUSH1 0x0 KECCAK256 PUSH1 0x1 ADD PUSH1 0x0 DUP3 DUP3 SLOAD PUSH2 0xDB3 SWAP2 SWAP1 PUSH2 0x3892 JUMP JUMPDEST SWAP3 POP POP DUP2 SWAP1 SSTORE POP PUSH1 0x1 PUSH1 0x0 DUP4 PUSH20 0xFFFFFFFFFFFFFFFFFFFFFFFFFFFFFFFFFFFFFFFF AND PUSH20 0xFFFFFFFFFFFFFFFFFFFFFFFFFFFFFFFFFFFFFFFF AND DUP2 MSTORE PUSH1 0x20 ADD SWAP1 DUP2 MSTORE PUSH1 0x20 ADD PUSH1 0x0 KECCAK256 PUSH1 0x6 ADD SLOAD PUSH1 0x1 PUSH1 0x0 DUP5 PUSH20 0xFFFFFFFFFFFFFFFFFFFFFFFFFFFFFFFFFFFFFFFF AND PUSH20 0xFFFFFFFFFFFFFFFFFFFFFFFFFFFFFFFFFFFFFFFF AND DUP2 MSTORE PUSH1 0x20 ADD SWAP1 DUP2 MSTORE PUSH1 0x20 ADD PUSH1 0x0 KECCAK256 PUSH1 0x3 ADD PUSH1 0x0 DUP3 DUP3 SLOAD PUSH2 0xE4E SWAP2 SWAP1 PUSH2 0x3892 JUMP JUMPDEST SWAP3 POP POP DUP2 SWAP1 SSTORE POP PUSH1 0x1 PUSH1 0x0 DUP4 PUSH20 0xFFFFFFFFFFFFFFFFFFFFFFFFFFFFFFFFFFFFFFFF AND PUSH20 0xFFFFFFFFFFFFFFFFFFFFFFFFFFFFFFFFFFFFFFFF AND DUP2 MSTORE PUSH1 0x20 ADD SWAP1 DUP2 MSTORE PUSH1 0x20 ADD PUSH1 0x0 KECCAK256 PUSH1 0x9 ADD PUSH1 0x0 DUP2 SLOAD DUP1 SWAP3 SWAP2 SWAP1 PUSH2 0xEA8 SWAP1 PUSH2 0x38C6 JUMP JUMPDEST SWAP2 SWAP1 POP SSTORE POP PUSH2 0x1382 JUMP JUMPDEST PUSH1 0x40 MLOAD PUSH1 0x20 ADD PUSH2 0xEC1 SWAP1 PUSH2 0x3744 JUMP JUMPDEST PUSH1 0x40 MLOAD PUSH1 0x20 DUP2 DUP4 SUB SUB DUP2 MSTORE SWAP1 PUSH1 0x40 MSTORE DUP1 MLOAD SWAP1 PUSH1 0x20 ADD KECCAK256 DUP2 PUSH1 0x40 MLOAD PUSH1 0x20 ADD PUSH2 0xEE8 SWAP2 SWAP1 PUSH2 0x36E1 JUMP JUMPDEST PUSH1 0x40 MLOAD PUSH1 0x20 DUP2 DUP4 SUB SUB DUP2 MSTORE SWAP1 PUSH1 0x40 MSTORE DUP1 MLOAD SWAP1 PUSH1 0x20 ADD KECCAK256 SUB PUSH2 0x111B JUMPI PUSH1 0x0 PUSH1 0x1 PUSH1 0x0 DUP5 PUSH20 0xFFFFFFFFFFFFFFFFFFFFFFFFFFFFFFFFFFFFFFFF AND PUSH20 0xFFFFFFFFFFFFFFFFFFFFFFFFFFFFFFFFFFFFFFFF AND DUP2 MSTORE PUSH1 0x20 ADD SWAP1 DUP2 MSTORE PUSH1 0x20 ADD PUSH1 0x0 KECCAK256 PUSH1 0xA ADD SLOAD GT PUSH2 0xF88 JUMPI PUSH1 0x40 MLOAD PUSH32 0x8C379A000000000000000000000000000000000000000000000000000000000 DUP2 MSTORE PUSH1 0x4 ADD PUSH2 0xF7F SWAP1 PUSH2 0x3872 JUMP JUMPDEST PUSH1 0x40 MLOAD DUP1 SWAP2 SUB SWAP1 REVERT JUMPDEST PUSH1 0x1 PUSH1 0x0 DUP4 PUSH20 0xFFFFFFFFFFFFFFFFFFFFFFFFFFFFFFFFFFFFFFFF AND PUSH20 0xFFFFFFFFFFFFFFFFFFFFFFFFFFFFFFFFFFFFFFFF AND DUP2 MSTORE PUSH1 0x20 ADD SWAP1 DUP2 MSTORE PUSH1 0x20 ADD PUSH1 0x0 KECCAK256 PUSH1 0x7 ADD SLOAD PUSH1 0x1 PUSH1 0x0 DUP5 PUSH20 0xFFFFFFFFFFFFFFFFFFFFFFFFFFFFFFFFFFFFFFFF AND PUSH20 0xFFFFFFFFFFFFFFFFFFFFFFFFFFFFFFFFFFFFFFFF AND DUP2 MSTORE PUSH1 0x20 ADD SWAP1 DUP2 MSTORE PUSH1 0x20 ADD PUSH1 0x0 KECCAK256 PUSH1 0x1 ADD PUSH1 0x0 DUP3 DUP3 SLOAD PUSH2 0x101C SWAP2 SWAP1 PUSH2 0x3892 JUMP JUMPDEST SWAP3 POP POP DUP2 SWAP1 SSTORE POP PUSH1 0x1 PUSH1 0x0 DUP4 PUSH20 0xFFFFFFFFFFFFFFFFFFFFFFFFFFFFFFFFFFFFFFFF AND PUSH20 0xFFFFFFFFFFFFFFFFFFFFFFFFFFFFFFFFFFFFFFFF AND DUP2 MSTORE PUSH1 0x20 ADD SWAP1 DUP2 MSTORE PUSH1 0x20 ADD PUSH1 0x0 KECCAK256 PUSH1 0x7 ADD SLOAD PUSH1 0x1 PUSH1 0x0 DUP5 PUSH20 0xFFFFFFFFFFFFFFFFFFFFFFFFFFFFFFFFFFFFFFFF AND PUSH20 0xFFFFFFFFFFFFFFFFFFFFFFFFFFFFFFFFFFFFFFFF AND DUP2 MSTORE PUSH1 0x20 ADD SWAP1 DUP2 MSTORE PUSH1 0x20 ADD PUSH1 0x0 KECCAK256 PUSH1 0x4 ADD PUSH1 0x0 DUP3 DUP3 SLOAD PUSH2 0x10B7 SWAP2 SWAP1 PUSH2 0x3892 JUMP JUMPDEST SWAP3 POP POP DUP2 SWAP1 SSTORE POP PUSH1 0x1 PUSH1 0x0 DUP4 PUSH20 0xFFFFFFFFFFFFFFFFFFFFFFFFFFFFFFFFFFFFFFFF AND PUSH20 0xFFFFFFFFFFFFFFFFFFFFFFFFFFFFFFFFFFFFFFFF AND DUP2 MSTORE PUSH1 0x20 ADD SWAP1 DUP2 MSTORE PUSH1 0x20 ADD PUSH1 0x0 KECCAK256 PUSH1 0xA ADD PUSH1 0x0 DUP2 SLOAD DUP1 SWAP3 SWAP2 SWAP1 PUSH2 0x1111 SWAP1 PUSH2 0x38C6 JUMP JUMPDEST SWAP2 SWAP1 POP SSTORE POP PUSH2 0x1381 JUMP JUMPDEST PUSH1 0x40 MLOAD PUSH1 0x20 ADD PUSH2 0x112A SWAP1 PUSH2 0x37A5 JUMP JUMPDEST PUSH1 0x40 MLOAD PUSH1 0x20 DUP2 DUP4 SUB SUB DUP2 MSTORE SWAP1 PUSH1 0x40 MSTORE DUP1 MLOAD SWAP1 PUSH1 0x20 ADD KECCAK256 DUP2 PUSH1 0x40 MLOAD PUSH1 0x20 ADD PUSH2 0x1151 SWAP2 SWAP1 PUSH2 0x36E1 JUMP JUMPDEST PUSH1 0x40 MLOAD PUSH1 0x20 DUP2 DUP4 SUB SUB DUP2 MSTORE SWAP1 PUSH1 0x40 MSTORE DUP1 MLOAD SWAP1 PUSH1 0x20 ADD KECCAK256 SUB PUSH2 0x1380 JUMPI PUSH1 0x0 PUSH1 0x1 PUSH1 0x0 DUP5 PUSH20 0xFFFFFFFFFFFFFFFFFFFFFFFFFFFFFFFFFFFFFFFF AND PUSH20 0xFFFFFFFFFFFFFFFFFFFFFFFFFFFFFFFFFFFFFFFF AND DUP2 MSTORE PUSH1 0x20 ADD SWAP1 DUP2 MSTORE PUSH1 0x20 ADD PUSH1 0x0 KECCAK256 PUSH1 0xB ADD SLOAD GT PUSH2 0x11F1 JUMPI PUSH1 0x40 MLOAD PUSH32 0x8C379A000000000000000000000000000000000000000000000000000000000 DUP2 MSTORE PUSH1 0x4 ADD PUSH2 0x11E8 SWAP1 PUSH2 0x3872 JUMP JUMPDEST PUSH1 0x40 MLOAD DUP1 SWAP2 SUB SWAP1 REVERT JUMPDEST PUSH1 0x1 PUSH1 0x0 DUP4 PUSH20 0xFFFFFFFFFFFFFFFFFFFFFFFFFFFFFFFFFFFFFFFF AND PUSH20 0xFFFFFFFFFFFFFFFFFFFFFFFFFFFFFFFFFFFFFFFF AND DUP2 MSTORE PUSH1 0x20 ADD SWAP1 DUP2 MSTORE PUSH1 0x20 ADD PUSH1 0x0 KECCAK256 PUSH1 0x8 ADD SLOAD PUSH1 0x1 PUSH1 0x0 DUP5 PUSH20 0xFFFFFFFFFFFFFFFFFFFFFFFFFFFFFFFFFFFFFFFF AND PUSH20 0xFFFFFFFFFFFFFFFFFFFFFFFFFFFFFFFFFFFFFFFF AND DUP2 MSTORE PUSH1 0x20 ADD SWAP1 DUP2 MSTORE PUSH1 0x20 ADD PUSH1 0x0 KECCAK256 PUSH1 0x1 ADD PUSH1 0x0 DUP3 DUP3 SLOAD PUSH2 0x1285 SWAP2 SWAP1 PUSH2 0x3892 JUMP JUMPDEST SWAP3 POP POP DUP2 SWAP1 SSTORE POP PUSH1 0x1 PUSH1 0x0 DUP4 PUSH20 0xFFFFFFFFFFFFFFFFFFFFFFFFFFFFFFFFFFFFFFFF AND PUSH20 0xFFFFFFFFFFFFFFFFFFFFFFFFFFFFFFFFFFFFFFFF AND DUP2 MSTORE PUSH1 0x20 ADD SWAP1 DUP2 MSTORE PUSH1 0x20 ADD PUSH1 0x0 KECCAK256 PUSH1 0x8 ADD SLOAD PUSH1 0x1 PUSH1 0x0 DUP5 PUSH20 0xFFFFFFFFFFFFFFFFFFFFFFFFFFFFFFFFFFFFFFFF AND PUSH20 0xFFFFFFFFFFFFFFFFFFFFFFFFFFFFFFFFFFFFFFFF AND DUP2 MSTORE PUSH1 0x20 ADD SWAP1 DUP2 MSTORE PUSH1 0x20 ADD PUSH1 0x0 KECCAK256 PUSH1 0x5 ADD PUSH1 0x0 DUP3 DUP3 SLOAD PUSH2 0x1320 SWAP2 SWAP1 PUSH2 0x3892 JUMP JUMPDEST SWAP3 POP POP DUP2 SWAP1 SSTORE POP PUSH1 0x1 PUSH1 0x0 DUP4 PUSH20 0xFFFFFFFFFFFFFFFFFFFFFFFFFFFFFFFFFFFFFFFF AND PUSH20 0xFFFFFFFFFFFFFFFFFFFFFFFFFFFFFFFFFFFFFFFF AND DUP2 MSTORE PUSH1 0x20 ADD SWAP1 DUP2 MSTORE PUSH1 0x20 ADD PUSH1 0x0 KECCAK256 PUSH1 0xB ADD PUSH1 0x0 DUP2 SLOAD DUP1 SWAP3 SWAP2 SWAP1 PUSH2 0x137A SWAP1 PUSH2 0x38C6 JUMP JUMPDEST SWAP2 SWAP1 POP SSTORE POP JUMPDEST JUMPDEST JUMPDEST PUSH1 0x40 MLOAD DUP1 PUSH2 0x180 ADD PUSH1 0x40 MSTORE DUP1 PUSH1 0x1 PUSH1 0x0 DUP6 PUSH20 0xFFFFFFFFFFFFFFFFFFFFFFFFFFFFFFFFFFFFFFFF AND PUSH20 0xFFFFFFFFFFFFFFFFFFFFFFFFFFFFFFFFFFFFFFFF AND DUP2 MSTORE PUSH1 0x20 ADD SWAP1 DUP2 MSTORE PUSH1 0x20 ADD PUSH1 0x0 KECCAK256 PUSH1 0x0 ADD PUSH1 0x0 SWAP1 SLOAD SWAP1 PUSH2 0x100 EXP SWAP1 DIV PUSH20 0xFFFFFFFFFFFFFFFFFFFFFFFFFFFFFFFFFFFFFFFF AND PUSH20 0xFFFFFFFFFFFFFFFFFFFFFFFFFFFFFFFFFFFFFFFF AND DUP2 MSTORE PUSH1 0x20 ADD PUSH1 0x1 PUSH1 0x0 DUP6 PUSH20 0xFFFFFFFFFFFFFFFFFFFFFFFFFFFFFFFFFFFFFFFF AND PUSH20 0xFFFFFFFFFFFFFFFFFFFFFFFFFFFFFFFFFFFFFFFF AND DUP2 MSTORE PUSH1 0x20 ADD SWAP1 DUP2 MSTORE PUSH1 0x20 ADD PUSH1 0x0 KECCAK256 PUSH1 0x1 ADD SLOAD DUP2 MSTORE PUSH1 0x20 ADD PUSH1 0x1 PUSH1 0x0 DUP6 PUSH20 0xFFFFFFFFFFFFFFFFFFFFFFFFFFFFFFFFFFFFFFFF AND PUSH20 0xFFFFFFFFFFFFFFFFFFFFFFFFFFFFFFFFFFFFFFFF AND DUP2 MSTORE PUSH1 0x20 ADD SWAP1 DUP2 MSTORE PUSH1 0x20 ADD PUSH1 0x0 KECCAK256 PUSH1 0x2 ADD SLOAD DUP2 MSTORE PUSH1 0x20 ADD PUSH1 0x1 PUSH1 0x0 DUP6 PUSH20 0xFFFFFFFFFFFFFFFFFFFFFFFFFFFFFFFFFFFFFFFF AND PUSH20 0xFFFFFFFFFFFFFFFFFFFFFFFFFFFFFFFFFFFFFFFF AND DUP2 MSTORE PUSH1 0x20 ADD SWAP1 DUP2 MSTORE PUSH1 0x20 ADD PUSH1 0x0 KECCAK256 PUSH1 0x3 ADD SLOAD DUP2 MSTORE PUSH1 0x20 ADD PUSH1 0x1 PUSH1 0x0 DUP6 PUSH20 0xFFFFFFFFFFFFFFFFFFFFFFFFFFFFFFFFFFFFFFFF AND PUSH20 0xFFFFFFFFFFFFFFFFFFFFFFFFFFFFFFFFFFFFFFFF AND DUP2 MSTORE PUSH1 0x20 ADD SWAP1 DUP2 MSTORE PUSH1 0x20 ADD PUSH1 0x0 KECCAK256 PUSH1 0x4 ADD SLOAD DUP2 MSTORE PUSH1 0x20 ADD PUSH1 0x1 PUSH1 0x0 DUP6 PUSH20 0xFFFFFFFFFFFFFFFFFFFFFFFFFFFFFFFFFFFFFFFF AND PUSH20 0xFFFFFFFFFFFFFFFFFFFFFFFFFFFFFFFFFFFFFFFF AND DUP2 MSTORE PUSH1 0x20 ADD SWAP1 DUP2 MSTORE PUSH1 0x20 ADD PUSH1 0x0 KECCAK256 PUSH1 0x5 ADD SLOAD DUP2 MSTORE PUSH1 0x20 ADD PUSH1 0x1 PUSH1 0x0 DUP6 PUSH20 0xFFFFFFFFFFFFFFFFFFFFFFFFFFFFFFFFFFFFFFFF AND PUSH20 0xFFFFFFFFFFFFFFFFFFFFFFFFFFFFFFFFFFFFFFFF AND DUP2 MSTORE PUSH1 0x20 ADD SWAP1 DUP2 MSTORE PUSH1 0x20 ADD PUSH1 0x0 KECCAK256 PUSH1 0x6 ADD SLOAD DUP2 MSTORE PUSH1 0x20 ADD PUSH1 0x1 PUSH1 0x0 DUP6 PUSH20 0xFFFFFFFFFFFFFFFFFFFFFFFFFFFFFFFFFFFFFFFF AND PUSH20 0xFFFFFFFFFFFFFFFFFFFFFFFFFFFFFFFFFFFFFFFF AND DUP2 MSTORE PUSH1 0x20 ADD SWAP1 DUP2 MSTORE PUSH1 0x20 ADD PUSH1 0x0 KECCAK256 PUSH1 0x7 ADD SLOAD DUP2 MSTORE PUSH1 0x20 ADD PUSH1 0x1 PUSH1 0x0 DUP6 PUSH20 0xFFFFFFFFFFFFFFFFFFFFFFFFFFFFFFFFFFFFFFFF AND PUSH20 0xFFFFFFFFFFFFFFFFFFFFFFFFFFFFFFFFFFFFFFFF AND DUP2 MSTORE PUSH1 0x20 ADD SWAP1 DUP2 MSTORE PUSH1 0x20 ADD PUSH1 0x0 KECCAK256 PUSH1 0x8 ADD SLOAD DUP2 MSTORE PUSH1 0x20 ADD PUSH1 0x1 PUSH1 0x0 DUP6 PUSH20 0xFFFFFFFFFFFFFFFFFFFFFFFFFFFFFFFFFFFFFFFF AND PUSH20 0xFFFFFFFFFFFFFFFFFFFFFFFFFFFFFFFFFFFFFFFF AND DUP2 MSTORE PUSH1 0x20 ADD SWAP1 DUP2 MSTORE PUSH1 0x20 ADD PUSH1 0x0 KECCAK256 PUSH1 0x9 ADD SLOAD DUP2 MSTORE PUSH1 0x20 ADD PUSH1 0x1 PUSH1 0x0 DUP6 PUSH20 0xFFFFFFFFFFFFFFFFFFFFFFFFFFFFFFFFFFFFFFFF AND PUSH20 0xFFFFFFFFFFFFFFFFFFFFFFFFFFFFFFFFFFFFFFFF AND DUP2 MSTORE PUSH1 0x20 ADD SWAP1 DUP2 MSTORE PUSH1 0x20 ADD PUSH1 0x0 KECCAK256 PUSH1 0xA ADD SLOAD DUP2 MSTORE PUSH1 0x20 ADD PUSH1 0x1 PUSH1 0x0 DUP6 PUSH20 0xFFFFFFFFFFFFFFFFFFFFFFFFFFFFFFFFFFFFFFFF AND PUSH20 0xFFFFFFFFFFFFFFFFFFFFFFFFFFFFFFFFFFFFFFFF AND DUP2 MSTORE PUSH1 0x20 ADD SWAP1 DUP2 MSTORE PUSH1 0x20 ADD PUSH1 0x0 KECCAK256 PUSH1 0xB ADD SLOAD DUP2 MSTORE POP PUSH1 0x1 PUSH1 0x0 DUP5 PUSH20 0xFFFFFFFFFFFFFFFFFFFFFFFFFFFFFFFFFFFFFFFF AND PUSH20 0xFFFFFFFFFFFFFFFFFFFFFFFFFFFFFFFFFFFFFFFF AND DUP2 MSTORE PUSH1 0x20 ADD SWAP1 DUP2 MSTORE PUSH1 0x20 ADD PUSH1 0x0 KECCAK256 PUSH1 0x0 DUP3 ADD MLOAD DUP2 PUSH1 0x0 ADD PUSH1 0x0 PUSH2 0x100 EXP DUP2 SLOAD DUP2 PUSH20 0xFFFFFFFFFFFFFFFFFFFFFFFFFFFFFFFFFFFFFFFF MUL NOT AND SWAP1 DUP4 PUSH20 0xFFFFFFFFFFFFFFFFFFFFFFFFFFFFFFFFFFFFFFFF AND MUL OR SWAP1 SSTORE POP PUSH1 0x20 DUP3 ADD MLOAD DUP2 PUSH1 0x1 ADD SSTORE PUSH1 0x40 DUP3 ADD MLOAD DUP2 PUSH1 0x2 ADD SSTORE PUSH1 0x60 DUP3 ADD MLOAD DUP2 PUSH1 0x3 ADD SSTORE PUSH1 0x80 DUP3 ADD MLOAD DUP2 PUSH1 0x4 ADD SSTORE PUSH1 0xA0 DUP3 ADD MLOAD DUP2 PUSH1 0x5 ADD SSTORE PUSH1 0xC0 DUP3 ADD MLOAD DUP2 PUSH1 0x6 ADD SSTORE PUSH1 0xE0 DUP3 ADD MLOAD DUP2 PUSH1 0x7 ADD SSTORE PUSH2 0x100 DUP3 ADD MLOAD DUP2 PUSH1 0x8 ADD SSTORE PUSH2 0x120 DUP3 ADD MLOAD DUP2 PUSH1 0x9 ADD SSTORE PUSH2 0x140 DUP3 ADD MLOAD DUP2 PUSH1 0xA ADD SSTORE PUSH2 0x160 DUP3 ADD MLOAD DUP2 PUSH1 0xB ADD SSTORE SWAP1 POP POP POP POP JUMP JUMPDEST PUSH1 0x0 PUSH20 0xFFFFFFFFFFFFFFFFFFFFFFFFFFFFFFFFFFFFFFFF AND DUP5 PUSH20 0xFFFFFFFFFFFFFFFFFFFFFFFFFFFFFFFFFFFFFFFF AND SUB PUSH2 0x1890 JUMPI PUSH1 0x40 MLOAD PUSH32 0x8C379A000000000000000000000000000000000000000000000000000000000 DUP2 MSTORE PUSH1 0x4 ADD PUSH2 0x1887 SWAP1 PUSH2 0x3520 JUMP JUMPDEST PUSH1 0x40 MLOAD DUP1 SWAP2 SUB SWAP1 REVERT JUMPDEST PUSH1 0x0 DUP4 SUB PUSH2 0x18D3 JUMPI PUSH1 0x40 MLOAD PUSH32 0x8C379A000000000000000000000000000000000000000000000000000000000 DUP2 MSTORE PUSH1 0x4 ADD PUSH2 0x18CA SWAP1 PUSH2 0x358C JUMP JUMPDEST PUSH1 0x40 MLOAD DUP1 SWAP2 SUB SWAP1 REVERT JUMPDEST DUP4 PUSH20 0xFFFFFFFFFFFFFFFFFFFFFFFFFFFFFFFFFFFFFFFF AND PUSH2 0x8FC DUP5 SWAP1 DUP2 ISZERO MUL SWAP1 PUSH1 0x40 MLOAD PUSH1 0x0 PUSH1 0x40 MLOAD DUP1 DUP4 SUB DUP2 DUP6 DUP9 DUP9 CALL SWAP4 POP POP POP POP ISZERO DUP1 ISZERO PUSH2 0x1919 JUMPI RETURNDATASIZE PUSH1 0x0 DUP1 RETURNDATACOPY RETURNDATASIZE PUSH1 0x0 REVERT JUMPDEST POP DUP3 PUSH1 0x1 PUSH1 0x0 DUP7 PUSH20 0xFFFFFFFFFFFFFFFFFFFFFFFFFFFFFFFFFFFFFFFF AND PUSH20 0xFFFFFFFFFFFFFFFFFFFFFFFFFFFFFFFFFFFFFFFF AND DUP2 MSTORE PUSH1 0x20 ADD SWAP1 DUP2 MSTORE PUSH1 0x20 ADD PUSH1 0x0 KECCAK256 PUSH1 0x1 ADD PUSH1 0x0 DUP3 DUP3 SLOAD PUSH2 0x196C SWAP2 SWAP1 PUSH2 0x35DB JUMP JUMPDEST SWAP3 POP POP DUP2 SWAP1 SSTORE POP PUSH1 0x40 MLOAD PUSH1 0x20 ADD PUSH2 0x1982 SWAP1 PUSH2 0x3666 JUMP JUMPDEST PUSH1 0x40 MLOAD PUSH1 0x20 DUP2 DUP4 SUB SUB DUP2 MSTORE SWAP1 PUSH1 0x40 MSTORE DUP1 MLOAD SWAP1 PUSH1 0x20 ADD KECCAK256 DUP2 PUSH1 0x40 MLOAD PUSH1 0x20 ADD PUSH2 0x19A9 SWAP2 SWAP1 PUSH2 0x36E1 JUMP JUMPDEST PUSH1 0x40 MLOAD PUSH1 0x20 DUP2 DUP4 SUB SUB DUP2 MSTORE SWAP1 PUSH1 0x40 MSTORE DUP1 MLOAD SWAP1 PUSH1 0x20 ADD KECCAK256 EQ DUP1 PUSH2 0x1A14 JUMPI POP PUSH1 0x40 MLOAD PUSH1 0x20 ADD PUSH2 0x19D5 SWAP1 PUSH2 0x3744 JUMP JUMPDEST PUSH1 0x40 MLOAD PUSH1 0x20 DUP2 DUP4 SUB SUB DUP2 MSTORE SWAP1 PUSH1 0x40 MSTORE DUP1 MLOAD SWAP1 PUSH1 0x20 ADD KECCAK256 DUP2 PUSH1 0x40 MLOAD PUSH1 0x20 ADD PUSH2 0x19FC SWAP2 SWAP1 PUSH2 0x36E1 JUMP JUMPDEST PUSH1 0x40 MLOAD PUSH1 0x20 DUP2 DUP4 SUB SUB DUP2 MSTORE SWAP1 PUSH1 0x40 MSTORE DUP1 MLOAD SWAP1 PUSH1 0x20 ADD KECCAK256 EQ JUMPDEST DUP1 PUSH2 0x1A68 JUMPI POP PUSH1 0x40 MLOAD PUSH1 0x20 ADD PUSH2 0x1A29 SWAP1 PUSH2 0x37A5 JUMP JUMPDEST PUSH1 0x40 MLOAD PUSH1 0x20 DUP2 DUP4 SUB SUB DUP2 MSTORE SWAP1 PUSH1 0x40 MSTORE DUP1 MLOAD SWAP1 PUSH1 0x20 ADD KECCAK256 DUP2 PUSH1 0x40 MLOAD PUSH1 0x20 ADD PUSH2 0x1A50 SWAP2 SWAP1 PUSH2 0x36E1 JUMP JUMPDEST PUSH1 0x40 MLOAD PUSH1 0x20 DUP2 DUP4 SUB SUB DUP2 MSTORE SWAP1 PUSH1 0x40 MSTORE DUP1 MLOAD SWAP1 PUSH1 0x20 ADD KECCAK256 EQ JUMPDEST PUSH2 0x1AA7 JUMPI PUSH1 0x40 MLOAD PUSH32 0x8C379A000000000000000000000000000000000000000000000000000000000 DUP2 MSTORE PUSH1 0x4 ADD PUSH2 0x1A9E SWAP1 PUSH2 0x3806 JUMP JUMPDEST PUSH1 0x40 MLOAD DUP1 SWAP2 SUB SWAP1 REVERT JUMPDEST PUSH1 0x40 MLOAD PUSH1 0x20 ADD PUSH2 0x1AB6 SWAP1 PUSH2 0x3666 JUMP JUMPDEST PUSH1 0x40 MLOAD PUSH1 0x20 DUP2 DUP4 SUB SUB DUP2 MSTORE SWAP1 PUSH1 0x40 MSTORE DUP1 MLOAD SWAP1 PUSH1 0x20 ADD KECCAK256 DUP2 PUSH1 0x40 MLOAD PUSH1 0x20 ADD PUSH2 0x1ADD SWAP2 SWAP1 PUSH2 0x36E1 JUMP JUMPDEST PUSH1 0x40 MLOAD PUSH1 0x20 DUP2 DUP4 SUB SUB DUP2 MSTORE SWAP1 PUSH1 0x40 MSTORE DUP1 MLOAD SWAP1 PUSH1 0x20 ADD KECCAK256 SUB PUSH2 0x1D4E JUMPI PUSH1 0x1 DUP1 PUSH1 0x0 DUP7 PUSH20 0xFFFFFFFFFFFFFFFFFFFFFFFFFFFFFFFFFFFFFFFF AND PUSH20 0xFFFFFFFFFFFFFFFFFFFFFFFFFFFFFFFFFFFFFFFF AND DUP2 MSTORE PUSH1 0x20 ADD SWAP1 DUP2 MSTORE PUSH1 0x20 ADD PUSH1 0x0 KECCAK256 PUSH1 0x3 ADD SLOAD LT PUSH2 0x1B7C JUMPI PUSH1 0x40 MLOAD PUSH32 0x8C379A000000000000000000000000000000000000000000000000000000000 DUP2 MSTORE PUSH1 0x4 ADD PUSH2 0x1B73 SWAP1 PUSH2 0x3961 JUMP JUMPDEST PUSH1 0x40 MLOAD DUP1 SWAP2 SUB SWAP1 REVERT JUMPDEST PUSH1 0x0 PUSH2 0x4B0 DUP4 PUSH1 0x8 DUP7 PUSH2 0x1B8F SWAP2 SWAP1 PUSH2 0x3981 JUMP JUMPDEST PUSH2 0x1B99 SWAP2 SWAP1 PUSH2 0x3981 JUMP JUMPDEST PUSH2 0x1BA3 SWAP2 SWAP1 PUSH2 0x39F2 JUMP JUMPDEST SWAP1 POP DUP1 DUP5 PUSH2 0x1BB1 SWAP2 SWAP1 PUSH2 0x35DB JUMP JUMPDEST PUSH1 0x1 PUSH1 0x0 DUP8 PUSH20 0xFFFFFFFFFFFFFFFFFFFFFFFFFFFFFFFFFFFFFFFF AND PUSH20 0xFFFFFFFFFFFFFFFFFFFFFFFFFFFFFFFFFFFFFFFF AND DUP2 MSTORE PUSH1 0x20 ADD SWAP1 DUP2 MSTORE PUSH1 0x20 ADD PUSH1 0x0 KECCAK256 PUSH1 0x3 ADD DUP2 SWAP1 SSTORE POP DUP3 PUSH1 0x1 PUSH1 0x0 DUP8 PUSH20 0xFFFFFFFFFFFFFFFFFFFFFFFFFFFFFFFFFFFFFFFF AND PUSH20 0xFFFFFFFFFFFFFFFFFFFFFFFFFFFFFFFFFFFFFFFF AND DUP2 MSTORE PUSH1 0x20 ADD SWAP1 DUP2 MSTORE PUSH1 0x20 ADD PUSH1 0x0 KECCAK256 PUSH1 0x3 ADD SLOAD PUSH2 0x1C45 SWAP2 SWAP1 PUSH2 0x39F2 JUMP JUMPDEST PUSH1 0x1 PUSH1 0x0 DUP8 PUSH20 0xFFFFFFFFFFFFFFFFFFFFFFFFFFFFFFFFFFFFFFFF AND PUSH20 0xFFFFFFFFFFFFFFFFFFFFFFFFFFFFFFFFFFFFFFFF AND DUP2 MSTORE PUSH1 0x20 ADD SWAP1 DUP2 MSTORE PUSH1 0x20 ADD PUSH1 0x0 KECCAK256 PUSH1 0x6 ADD DUP2 SWAP1 SSTORE POP DUP3 PUSH1 0x1 PUSH1 0x0 DUP8 PUSH20 0xFFFFFFFFFFFFFFFFFFFFFFFFFFFFFFFFFFFFFFFF AND PUSH20 0xFFFFFFFFFFFFFFFFFFFFFFFFFFFFFFFFFFFFFFFF AND DUP2 MSTORE PUSH1 0x20 ADD SWAP1 DUP2 MSTORE PUSH1 0x20 ADD PUSH1 0x0 KECCAK256 PUSH1 0x9 ADD PUSH1 0x0 DUP3 DUP3 SLOAD PUSH2 0x1CDD SWAP2 SWAP1 PUSH2 0x35DB JUMP JUMPDEST SWAP3 POP POP DUP2 SWAP1 SSTORE POP DUP1 DUP5 PUSH2 0x1CF0 SWAP2 SWAP1 PUSH2 0x35DB JUMP JUMPDEST PUSH1 0x1 PUSH1 0x0 DUP8 PUSH20 0xFFFFFFFFFFFFFFFFFFFFFFFFFFFFFFFFFFFFFFFF AND PUSH20 0xFFFFFFFFFFFFFFFFFFFFFFFFFFFFFFFFFFFFFFFF AND DUP2 MSTORE PUSH1 0x20 ADD SWAP1 DUP2 MSTORE PUSH1 0x20 ADD PUSH1 0x0 KECCAK256 PUSH1 0x3 ADD PUSH1 0x0 DUP3 DUP3 SLOAD PUSH2 0x1D41 SWAP2 SWAP1 PUSH2 0x35DB JUMP JUMPDEST SWAP3 POP POP DUP2 SWAP1 SSTORE POP POP PUSH2 0x22A6 JUMP JUMPDEST PUSH1 0x40 MLOAD PUSH1 0x20 ADD PUSH2 0x1D5D SWAP1 PUSH2 0x3744 JUMP JUMPDEST PUSH1 0x40 MLOAD PUSH1 0x20 DUP2 DUP4 SUB SUB DUP2 MSTORE SWAP1 PUSH1 0x40 MSTORE DUP1 MLOAD SWAP1 PUSH1 0x20 ADD KECCAK256 DUP2 PUSH1 0x40 MLOAD PUSH1 0x20 ADD PUSH2 0x1D84 SWAP2 SWAP1 PUSH2 0x36E1 JUMP JUMPDEST PUSH1 0x40 MLOAD PUSH1 0x20 DUP2 DUP4 SUB SUB DUP2 MSTORE SWAP1 PUSH1 0x40 MSTORE DUP1 MLOAD SWAP1 PUSH1 0x20 ADD KECCAK256 SUB PUSH2 0x1FFB JUMPI PUSH1 0x1 DUP1 PUSH1 0x0 DUP7 PUSH20 0xFFFFFFFFFFFFFFFFFFFFFFFFFFFFFFFFFFFFFFFF AND PUSH20 0xFFFFFFFFFFFFFFFFFFFFFFFFFFFFFFFFFFFFFFFF AND DUP2 MSTORE PUSH1 0x20 ADD SWAP1 DUP2 MSTORE PUSH1 0x20 ADD PUSH1 0x0 KECCAK256 PUSH1 0x4 ADD SLOAD LT PUSH2 0x1E23 JUMPI PUSH1 0x40 MLOAD PUSH32 0x8C379A000000000000000000000000000000000000000000000000000000000 DUP2 MSTORE PUSH1 0x4 ADD PUSH2 0x1E1A SWAP1 PUSH2 0x3A95 JUMP JUMPDEST PUSH1 0x40 MLOAD DUP1 SWAP2 SUB SWAP1 REVERT JUMPDEST PUSH1 0x0 PUSH2 0x4B0 DUP4 PUSH1 0x6 DUP7 PUSH2 0x1E36 SWAP2 SWAP1 PUSH2 0x3981 JUMP JUMPDEST PUSH2 0x1E40 SWAP2 SWAP1 PUSH2 0x3981 JUMP JUMPDEST PUSH2 0x1E4A SWAP2 SWAP1 PUSH2 0x39F2 JUMP JUMPDEST SWAP1 POP PUSH1 0x0 DUP2 DUP6 PUSH2 0x1E5A SWAP2 SWAP1 PUSH2 0x35DB JUMP JUMPDEST SWAP1 POP DUP1 PUSH1 0x1 PUSH1 0x0 DUP9 PUSH20 0xFFFFFFFFFFFFFFFFFFFFFFFFFFFFFFFFFFFFFFFF AND PUSH20 0xFFFFFFFFFFFFFFFFFFFFFFFFFFFFFFFFFFFFFFFF AND DUP2 MSTORE PUSH1 0x20 ADD SWAP1 DUP2 MSTORE PUSH1 0x20 ADD PUSH1 0x0 KECCAK256 PUSH1 0x4 ADD DUP2 SWAP1 SSTORE POP DUP4 PUSH1 0x1 PUSH1 0x0 DUP9 PUSH20 0xFFFFFFFFFFFFFFFFFFFFFFFFFFFFFFFFFFFFFFFF AND PUSH20 0xFFFFFFFFFFFFFFFFFFFFFFFFFFFFFFFFFFFFFFFF AND DUP2 MSTORE PUSH1 0x20 ADD SWAP1 DUP2 MSTORE PUSH1 0x20 ADD PUSH1 0x0 KECCAK256 PUSH1 0x4 ADD SLOAD PUSH2 0x1EF1 SWAP2 SWAP1 PUSH2 0x39F2 JUMP JUMPDEST PUSH1 0x1 PUSH1 0x0 DUP9 PUSH20 0xFFFFFFFFFFFFFFFFFFFFFFFFFFFFFFFFFFFFFFFF AND PUSH20 0xFFFFFFFFFFFFFFFFFFFFFFFFFFFFFFFFFFFFFFFF AND DUP2 MSTORE PUSH1 0x20 ADD SWAP1 DUP2 MSTORE PUSH1 0x20 ADD PUSH1 0x0 KECCAK256 PUSH1 0x7 ADD DUP2 SWAP1 SSTORE POP DUP4 PUSH1 0x1 PUSH1 0x0 DUP9 PUSH20 0xFFFFFFFFFFFFFFFFFFFFFFFFFFFFFFFFFFFFFFFF AND PUSH20 0xFFFFFFFFFFFFFFFFFFFFFFFFFFFFFFFFFFFFFFFF AND DUP2 MSTORE PUSH1 0x20 ADD SWAP1 DUP2 MSTORE PUSH1 0x20 ADD PUSH1 0x0 KECCAK256 PUSH1 0xA ADD PUSH1 0x0 DUP3 DUP3 SLOAD PUSH2 0x1F89 SWAP2 SWAP1 PUSH2 0x35DB JUMP JUMPDEST SWAP3 POP POP DUP2 SWAP1 SSTORE POP DUP2 DUP6 PUSH2 0x1F9C SWAP2 SWAP1 PUSH2 0x35DB JUMP JUMPDEST PUSH1 0x1 PUSH1 0x0 DUP9 PUSH20 0xFFFFFFFFFFFFFFFFFFFFFFFFFFFFFFFFFFFFFFFF AND PUSH20 0xFFFFFFFFFFFFFFFFFFFFFFFFFFFFFFFFFFFFFFFF AND DUP2 MSTORE PUSH1 0x20 ADD SWAP1 DUP2 MSTORE PUSH1 0x20 ADD PUSH1 0x0 KECCAK256 PUSH1 0x4 ADD PUSH1 0x0 DUP3 DUP3 SLOAD PUSH2 0x1FED SWAP2 SWAP1 PUSH2 0x35DB JUMP JUMPDEST SWAP3 POP POP DUP2 SWAP1 SSTORE POP POP POP PUSH2 0x22A5 JUMP JUMPDEST PUSH1 0x40 MLOAD PUSH1 0x20 ADD PUSH2 0x200A SWAP1 PUSH2 0x37A5 JUMP JUMPDEST PUSH1 0x40 MLOAD PUSH1 0x20 DUP2 DUP4 SUB SUB DUP2 MSTORE SWAP1 PUSH1 0x40 MSTORE DUP1 MLOAD SWAP1 PUSH1 0x20 ADD KECCAK256 DUP2 PUSH1 0x40 MLOAD PUSH1 0x20 ADD PUSH2 0x2031 SWAP2 SWAP1 PUSH2 0x36E1 JUMP JUMPDEST PUSH1 0x40 MLOAD PUSH1 0x20 DUP2 DUP4 SUB SUB DUP2 MSTORE SWAP1 PUSH1 0x40 MSTORE DUP1 MLOAD SWAP1 PUSH1 0x20 ADD KECCAK256 SUB PUSH2 0x22A4 JUMPI PUSH1 0x1 DUP1 PUSH1 0x0 DUP7 PUSH20 0xFFFFFFFFFFFFFFFFFFFFFFFFFFFFFFFFFFFFFFFF AND PUSH20 0xFFFFFFFFFFFFFFFFFFFFFFFFFFFFFFFFFFFFFFFF AND DUP2 MSTORE PUSH1 0x20 ADD SWAP1 DUP2 MSTORE PUSH1 0x20 ADD PUSH1 0x0 KECCAK256 PUSH1 0x5 ADD SLOAD LT PUSH2 0x20D0 JUMPI PUSH1 0x40 MLOAD PUSH32 0x8C379A000000000000000000000000000000000000000000000000000000000 DUP2 MSTORE PUSH1 0x4 ADD PUSH2 0x20C7 SWAP1 PUSH2 0x3B27 JUMP JUMPDEST PUSH1 0x40 MLOAD DUP1 SWAP2 SUB SWAP1 REVERT JUMPDEST PUSH1 0x0 PUSH2 0x4B0 DUP4 PUSH1 0xA DUP7 PUSH2 0x20E3 SWAP2 SWAP1 PUSH2 0x3981 JUMP JUMPDEST PUSH2 0x20ED SWAP2 SWAP1 PUSH2 0x3981 JUMP JUMPDEST PUSH2 0x20F7 SWAP2 SWAP1 PUSH2 0x39F2 JUMP JUMPDEST SWAP1 POP PUSH1 0x0 DUP2 DUP6 PUSH2 0x2107 SWAP2 SWAP1 PUSH2 0x35DB JUMP JUMPDEST SWAP1 POP DUP1 PUSH1 0x1 PUSH1 0x0 DUP9 PUSH20 0xFFFFFFFFFFFFFFFFFFFFFFFFFFFFFFFFFFFFFFFF AND PUSH20 0xFFFFFFFFFFFFFFFFFFFFFFFFFFFFFFFFFFFFFFFF AND DUP2 MSTORE PUSH1 0x20 ADD SWAP1 DUP2 MSTORE PUSH1 0x20 ADD PUSH1 0x0 KECCAK256 PUSH1 0x5 ADD DUP2 SWAP1 SSTORE POP DUP4 PUSH1 0x1 PUSH1 0x0 DUP9 PUSH20 0xFFFFFFFFFFFFFFFFFFFFFFFFFFFFFFFFFFFFFFFF AND PUSH20 0xFFFFFFFFFFFFFFFFFFFFFFFFFFFFFFFFFFFFFFFF AND DUP2 MSTORE PUSH1 0x20 ADD SWAP1 DUP2 MSTORE PUSH1 0x20 ADD PUSH1 0x0 KECCAK256 PUSH1 0x5 ADD SLOAD PUSH2 0x219E SWAP2 SWAP1 PUSH2 0x39F2 JUMP JUMPDEST PUSH1 0x1 PUSH1 0x0 DUP9 PUSH20 0xFFFFFFFFFFFFFFFFFFFFFFFFFFFFFFFFFFFFFFFF AND PUSH20 0xFFFFFFFFFFFFFFFFFFFFFFFFFFFFFFFFFFFFFFFF AND DUP2 MSTORE PUSH1 0x20 ADD SWAP1 DUP2 MSTORE PUSH1 0x20 ADD PUSH1 0x0 KECCAK256 PUSH1 0x8 ADD DUP2 SWAP1 SSTORE POP DUP4 PUSH1 0x1 PUSH1 0x0 DUP9 PUSH20 0xFFFFFFFFFFFFFFFFFFFFFFFFFFFFFFFFFFFFFFFF AND PUSH20 0xFFFFFFFFFFFFFFFFFFFFFFFFFFFFFFFFFFFFFFFF AND DUP2 MSTORE PUSH1 0x20 ADD SWAP1 DUP2 MSTORE PUSH1 0x20 ADD PUSH1 0x0 KECCAK256 PUSH1 0xB ADD PUSH1 0x0 DUP3 DUP3 SLOAD PUSH2 0x2236 SWAP2 SWAP1 PUSH2 0x35DB JUMP JUMPDEST SWAP3 POP POP DUP2 SWAP1 SSTORE POP DUP2 DUP6 PUSH2 0x2249 SWAP2 SWAP1 PUSH2 0x35DB JUMP JUMPDEST PUSH1 0x1 PUSH1 0x0 DUP9 PUSH20 0xFFFFFFFFFFFFFFFFFFFFFFFFFFFFFFFFFFFFFFFF AND PUSH20 0xFFFFFFFFFFFFFFFFFFFFFFFFFFFFFFFFFFFFFFFF AND DUP2 MSTORE PUSH1 0x20 ADD SWAP1 DUP2 MSTORE PUSH1 0x20 ADD PUSH1 0x0 KECCAK256 PUSH1 0x5 ADD PUSH1 0x0 DUP3 DUP3 SLOAD PUSH2 0x229A SWAP2 SWAP1 PUSH2 0x35DB JUMP JUMPDEST SWAP3 POP POP DUP2 SWAP1 SSTORE POP POP POP JUMPDEST JUMPDEST JUMPDEST PUSH1 0x40 MLOAD DUP1 PUSH2 0x180 ADD PUSH1 0x40 MSTORE DUP1 PUSH1 0x1 PUSH1 0x0 DUP8 PUSH20 0xFFFFFFFFFFFFFFFFFFFFFFFFFFFFFFFFFFFFFFFF AND PUSH20 0xFFFFFFFFFFFFFFFFFFFFFFFFFFFFFFFFFFFFFFFF AND DUP2 MSTORE PUSH1 0x20 ADD SWAP1 DUP2 MSTORE PUSH1 0x20 ADD PUSH1 0x0 KECCAK256 PUSH1 0x0 ADD PUSH1 0x0 SWAP1 SLOAD SWAP1 PUSH2 0x100 EXP SWAP1 DIV PUSH20 0xFFFFFFFFFFFFFFFFFFFFFFFFFFFFFFFFFFFFFFFF AND PUSH20 0xFFFFFFFFFFFFFFFFFFFFFFFFFFFFFFFFFFFFFFFF AND DUP2 MSTORE PUSH1 0x20 ADD PUSH1 0x1 PUSH1 0x0 DUP8 PUSH20 0xFFFFFFFFFFFFFFFFFFFFFFFFFFFFFFFFFFFFFFFF AND PUSH20 0xFFFFFFFFFFFFFFFFFFFFFFFFFFFFFFFFFFFFFFFF AND DUP2 MSTORE PUSH1 0x20 ADD SWAP1 DUP2 MSTORE PUSH1 0x20 ADD PUSH1 0x0 KECCAK256 PUSH1 0x1 ADD SLOAD DUP2 MSTORE PUSH1 0x20 ADD PUSH1 0x1 PUSH1 0x0 DUP8 PUSH20 0xFFFFFFFFFFFFFFFFFFFFFFFFFFFFFFFFFFFFFFFF AND PUSH20 0xFFFFFFFFFFFFFFFFFFFFFFFFFFFFFFFFFFFFFFFF AND DUP2 MSTORE PUSH1 0x20 ADD SWAP1 DUP2 MSTORE PUSH1 0x20 ADD PUSH1 0x0 KECCAK256 PUSH1 0x2 ADD SLOAD DUP2 MSTORE PUSH1 0x20 ADD PUSH1 0x1 PUSH1 0x0 DUP8 PUSH20 0xFFFFFFFFFFFFFFFFFFFFFFFFFFFFFFFFFFFFFFFF AND PUSH20 0xFFFFFFFFFFFFFFFFFFFFFFFFFFFFFFFFFFFFFFFF AND DUP2 MSTORE PUSH1 0x20 ADD SWAP1 DUP2 MSTORE PUSH1 0x20 ADD PUSH1 0x0 KECCAK256 PUSH1 0x3 ADD SLOAD DUP2 MSTORE PUSH1 0x20 ADD PUSH1 0x1 PUSH1 0x0 DUP8 PUSH20 0xFFFFFFFFFFFFFFFFFFFFFFFFFFFFFFFFFFFFFFFF AND PUSH20 0xFFFFFFFFFFFFFFFFFFFFFFFFFFFFFFFFFFFFFFFF AND DUP2 MSTORE PUSH1 0x20 ADD SWAP1 DUP2 MSTORE PUSH1 0x20 ADD PUSH1 0x0 KECCAK256 PUSH1 0x4 ADD SLOAD DUP2 MSTORE PUSH1 0x20 ADD PUSH1 0x1 PUSH1 0x0 DUP8 PUSH20 0xFFFFFFFFFFFFFFFFFFFFFFFFFFFFFFFFFFFFFFFF AND PUSH20 0xFFFFFFFFFFFFFFFFFFFFFFFFFFFFFFFFFFFFFFFF AND DUP2 MSTORE PUSH1 0x20 ADD SWAP1 DUP2 MSTORE PUSH1 0x20 ADD PUSH1 0x0 KECCAK256 PUSH1 0x5 ADD SLOAD DUP2 MSTORE PUSH1 0x20 ADD PUSH1 0x1 PUSH1 0x0 DUP8 PUSH20 0xFFFFFFFFFFFFFFFFFFFFFFFFFFFFFFFFFFFFFFFF AND PUSH20 0xFFFFFFFFFFFFFFFFFFFFFFFFFFFFFFFFFFFFFFFF AND DUP2 MSTORE PUSH1 0x20 ADD SWAP1 DUP2 MSTORE PUSH1 0x20 ADD PUSH1 0x0 KECCAK256 PUSH1 0x6 ADD SLOAD DUP2 MSTORE PUSH1 0x20 ADD PUSH1 0x1 PUSH1 0x0 DUP8 PUSH20 0xFFFFFFFFFFFFFFFFFFFFFFFFFFFFFFFFFFFFFFFF AND PUSH20 0xFFFFFFFFFFFFFFFFFFFFFFFFFFFFFFFFFFFFFFFF AND DUP2 MSTORE PUSH1 0x20 ADD SWAP1 DUP2 MSTORE PUSH1 0x20 ADD PUSH1 0x0 KECCAK256 PUSH1 0x7 ADD SLOAD DUP2 MSTORE PUSH1 0x20 ADD PUSH1 0x1 PUSH1 0x0 DUP8 PUSH20 0xFFFFFFFFFFFFFFFFFFFFFFFFFFFFFFFFFFFFFFFF AND PUSH20 0xFFFFFFFFFFFFFFFFFFFFFFFFFFFFFFFFFFFFFFFF AND DUP2 MSTORE PUSH1 0x20 ADD SWAP1 DUP2 MSTORE PUSH1 0x20 ADD PUSH1 0x0 KECCAK256 PUSH1 0x8 ADD SLOAD DUP2 MSTORE PUSH1 0x20 ADD PUSH1 0x1 PUSH1 0x0 DUP8 PUSH20 0xFFFFFFFFFFFFFFFFFFFFFFFFFFFFFFFFFFFFFFFF AND PUSH20 0xFFFFFFFFFFFFFFFFFFFFFFFFFFFFFFFFFFFFFFFF AND DUP2 MSTORE PUSH1 0x20 ADD SWAP1 DUP2 MSTORE PUSH1 0x20 ADD PUSH1 0x0 KECCAK256 PUSH1 0x9 ADD SLOAD DUP2 MSTORE PUSH1 0x20 ADD PUSH1 0x1 PUSH1 0x0 DUP8 PUSH20 0xFFFFFFFFFFFFFFFFFFFFFFFFFFFFFFFFFFFFFFFF AND PUSH20 0xFFFFFFFFFFFFFFFFFFFFFFFFFFFFFFFFFFFFFFFF AND DUP2 MSTORE PUSH1 0x20 ADD SWAP1 DUP2 MSTORE PUSH1 0x20 ADD PUSH1 0x0 KECCAK256 PUSH1 0xA ADD SLOAD DUP2 MSTORE PUSH1 0x20 ADD PUSH1 0x1 PUSH1 0x0 DUP8 PUSH20 0xFFFFFFFFFFFFFFFFFFFFFFFFFFFFFFFFFFFFFFFF AND PUSH20 0xFFFFFFFFFFFFFFFFFFFFFFFFFFFFFFFFFFFFFFFF AND DUP2 MSTORE PUSH1 0x20 ADD SWAP1 DUP2 MSTORE PUSH1 0x20 ADD PUSH1 0x0 KECCAK256 PUSH1 0xB ADD SLOAD DUP2 MSTORE POP PUSH1 0x1 PUSH1 0x0 DUP7 PUSH20 0xFFFFFFFFFFFFFFFFFFFFFFFFFFFFFFFFFFFFFFFF AND PUSH20 0xFFFFFFFFFFFFFFFFFFFFFFFFFFFFFFFFFFFFFFFF AND DUP2 MSTORE PUSH1 0x20 ADD SWAP1 DUP2 MSTORE PUSH1 0x20 ADD PUSH1 0x0 KECCAK256 PUSH1 0x0 DUP3 ADD MLOAD DUP2 PUSH1 0x0 ADD PUSH1 0x0 PUSH2 0x100 EXP DUP2 SLOAD DUP2 PUSH20 0xFFFFFFFFFFFFFFFFFFFFFFFFFFFFFFFFFFFFFFFF MUL NOT AND SWAP1 DUP4 PUSH20 0xFFFFFFFFFFFFFFFFFFFFFFFFFFFFFFFFFFFFFFFF AND MUL OR SWAP1 SSTORE POP PUSH1 0x20 DUP3 ADD MLOAD DUP2 PUSH1 0x1 ADD SSTORE PUSH1 0x40 DUP3 ADD MLOAD DUP2 PUSH1 0x2 ADD SSTORE PUSH1 0x60 DUP3 ADD MLOAD DUP2 PUSH1 0x3 ADD SSTORE PUSH1 0x80 DUP3 ADD MLOAD DUP2 PUSH1 0x4 ADD SSTORE PUSH1 0xA0 DUP3 ADD MLOAD DUP2 PUSH1 0x5 ADD SSTORE PUSH1 0xC0 DUP3 ADD MLOAD DUP2 PUSH1 0x6 ADD SSTORE PUSH1 0xE0 DUP3 ADD MLOAD DUP2 PUSH1 0x7 ADD SSTORE PUSH2 0x100 DUP3 ADD MLOAD DUP2 PUSH1 0x8 ADD SSTORE PUSH2 0x120 DUP3 ADD MLOAD DUP2 PUSH1 0x9 ADD SSTORE PUSH2 0x140 DUP3 ADD MLOAD DUP2 PUSH1 0xA ADD SSTORE PUSH2 0x160 DUP3 ADD MLOAD DUP2 PUSH1 0xB ADD SSTORE SWAP1 POP POP POP POP POP POP JUMP JUMPDEST PUSH1 0x0 DUP1 SLOAD SWAP1 PUSH2 0x100 EXP SWAP1 DIV PUSH20 0xFFFFFFFFFFFFFFFFFFFFFFFFFFFFFFFFFFFFFFFF AND PUSH20 0xFFFFFFFFFFFFFFFFFFFFFFFFFFFFFFFFFFFFFFFF AND CALLER PUSH20 0xFFFFFFFFFFFFFFFFFFFFFFFFFFFFFFFFFFFFFFFF AND EQ PUSH2 0x27D5 JUMPI PUSH1 0x40 MLOAD PUSH32 0x8C379A000000000000000000000000000000000000000000000000000000000 DUP2 MSTORE PUSH1 0x4 ADD PUSH2 0x27CC SWAP1 PUSH2 0x3BB9 JUMP JUMPDEST PUSH1 0x40 MLOAD DUP1 SWAP2 SUB SWAP1 REVERT JUMPDEST ADDRESS PUSH20 0xFFFFFFFFFFFFFFFFFFFFFFFFFFFFFFFFFFFFFFFF AND PUSH2 0x8FC CALLVALUE SWAP1 DUP2 ISZERO MUL SWAP1 PUSH1 0x40 MLOAD PUSH1 0x0 PUSH1 0x40 MLOAD DUP1 DUP4 SUB DUP2 DUP6 DUP9 DUP9 CALL SWAP4 POP POP POP POP ISZERO DUP1 ISZERO PUSH2 0x281B JUMPI RETURNDATASIZE PUSH1 0x0 DUP1 RETURNDATACOPY RETURNDATASIZE PUSH1 0x0 REVERT JUMPDEST POP JUMP JUMPDEST PUSH1 0x1 PUSH1 0x20 MSTORE DUP1 PUSH1 0x0 MSTORE PUSH1 0x40 PUSH1 0x0 KECCAK256 PUSH1 0x0 SWAP2 POP SWAP1 POP DUP1 PUSH1 0x0 ADD PUSH1 0x0 SWAP1 SLOAD SWAP1 PUSH2 0x100 EXP SWAP1 DIV PUSH20 0xFFFFFFFFFFFFFFFFFFFFFFFFFFFFFFFFFFFFFFFF AND SWAP1 DUP1 PUSH1 0x1 ADD SLOAD SWAP1 DUP1 PUSH1 0x2 ADD SLOAD SWAP1 DUP1 PUSH1 0x3 ADD SLOAD SWAP1 DUP1 PUSH1 0x4 ADD SLOAD SWAP1 DUP1 PUSH1 0x5 ADD SLOAD SWAP1 DUP1 PUSH1 0x6 ADD SLOAD SWAP1 DUP1 PUSH1 0x7 ADD SLOAD SWAP1 DUP1 PUSH1 0x8 ADD SLOAD SWAP1 DUP1 PUSH1 0x9 ADD SLOAD SWAP1 DUP1 PUSH1 0xA ADD SLOAD SWAP1 DUP1 PUSH1 0xB ADD SLOAD SWAP1 POP DUP13 JUMP JUMPDEST PUSH1 0x0 DUP1 PUSH1 0x0 DUP1 PUSH20 0xFFFFFFFFFFFFFFFFFFFFFFFFFFFFFFFFFFFFFFFF AND DUP5 PUSH20 0xFFFFFFFFFFFFFFFFFFFFFFFFFFFFFFFFFFFFFFFF AND SUB PUSH2 0x2911 JUMPI PUSH1 0x40 MLOAD PUSH32 0x8C379A000000000000000000000000000000000000000000000000000000000 DUP2 MSTORE PUSH1 0x4 ADD PUSH2 0x2908 SWAP1 PUSH2 0x3520 JUMP JUMPDEST PUSH1 0x40 MLOAD DUP1 SWAP2 SUB SWAP1 REVERT JUMPDEST PUSH1 0x1 PUSH1 0x0 DUP6 PUSH20 0xFFFFFFFFFFFFFFFFFFFFFFFFFFFFFFFFFFFFFFFF AND PUSH20 0xFFFFFFFFFFFFFFFFFFFFFFFFFFFFFFFFFFFFFFFF AND DUP2 MSTORE PUSH1 0x20 ADD SWAP1 DUP2 MSTORE PUSH1 0x20 ADD PUSH1 0x0 KECCAK256 PUSH1 0x4 ADD SLOAD PUSH1 0x1 PUSH1 0x0 DUP7 PUSH20 0xFFFFFFFFFFFFFFFFFFFFFFFFFFFFFFFFFFFFFFFF AND PUSH20 0xFFFFFFFFFFFFFFFFFFFFFFFFFFFFFFFFFFFFFFFF AND DUP2 MSTORE PUSH1 0x20 ADD SWAP1 DUP2 MSTORE PUSH1 0x20 ADD PUSH1 0x0 KECCAK256 PUSH1 0x7 ADD SLOAD PUSH1 0x1 PUSH1 0x0 DUP8 PUSH20 0xFFFFFFFFFFFFFFFFFFFFFFFFFFFFFFFFFFFFFFFF AND PUSH20 0xFFFFFFFFFFFFFFFFFFFFFFFFFFFFFFFFFFFFFFFF AND DUP2 MSTORE PUSH1 0x20 ADD SWAP1 DUP2 MSTORE PUSH1 0x20 ADD PUSH1 0x0 KECCAK256 PUSH1 0xA ADD SLOAD SWAP3 POP SWAP3 POP SWAP3 POP SWAP2 SWAP4 SWAP1 SWAP3 POP JUMP JUMPDEST PUSH1 0x0 DUP2 GT DUP1 ISZERO PUSH2 0x2A38 JUMPI POP PUSH1 0x1 PUSH1 0x0 DUP4 PUSH20 0xFFFFFFFFFFFFFFFFFFFFFFFFFFFFFFFFFFFFFFFF AND PUSH20 0xFFFFFFFFFFFFFFFFFFFFFFFFFFFFFFFFFFFFFFFF AND DUP2 MSTORE PUSH1 0x20 ADD SWAP1 DUP2 MSTORE PUSH1 0x20 ADD PUSH1 0x0 KECCAK256 PUSH1 0x1 ADD SLOAD DUP2 LT JUMPDEST PUSH2 0x2A77 JUMPI PUSH1 0x40 MLOAD PUSH32 0x8C379A000000000000000000000000000000000000000000000000000000000 DUP2 MSTORE PUSH1 0x4 ADD PUSH2 0x2A6E SWAP1 PUSH2 0x3C25 JUMP JUMPDEST PUSH1 0x40 MLOAD DUP1 SWAP2 SUB SWAP1 REVERT JUMPDEST PUSH1 0x0 PUSH20 0xFFFFFFFFFFFFFFFFFFFFFFFFFFFFFFFFFFFFFFFF AND DUP3 PUSH20 0xFFFFFFFFFFFFFFFFFFFFFFFFFFFFFFFFFFFFFFFF AND SUB PUSH2 0x2AE6 JUMPI PUSH1 0x40 MLOAD PUSH32 0x8C379A000000000000000000000000000000000000000000000000000000000 DUP2 MSTORE PUSH1 0x4 ADD PUSH2 0x2ADD SWAP1 PUSH2 0x3520 JUMP JUMPDEST PUSH1 0x40 MLOAD DUP1 SWAP2 SUB SWAP1 REVERT JUMPDEST PUSH1 0x0 DUP2 SUB PUSH2 0x2B29 JUMPI PUSH1 0x40 MLOAD PUSH32 0x8C379A000000000000000000000000000000000000000000000000000000000 DUP2 MSTORE PUSH1 0x4 ADD PUSH2 0x2B20 SWAP1 PUSH2 0x358C JUMP JUMPDEST PUSH1 0x40 MLOAD DUP1 SWAP2 SUB SWAP1 REVERT JUMPDEST DUP1 PUSH1 0x1 PUSH1 0x0 DUP5 PUSH20 0xFFFFFFFFFFFFFFFFFFFFFFFFFFFFFFFFFFFFFFFF AND PUSH20 0xFFFFFFFFFFFFFFFFFFFFFFFFFFFFFFFFFFFFFFFF AND DUP2 MSTORE PUSH1 0x20 ADD SWAP1 DUP2 MSTORE PUSH1 0x20 ADD PUSH1 0x0 KECCAK256 PUSH1 0x1 ADD PUSH1 0x0 DUP3 DUP3 SLOAD PUSH2 0x2B7B SWAP2 SWAP1 PUSH2 0x3892 JUMP JUMPDEST SWAP3 POP POP DUP2 SWAP1 SSTORE POP PUSH1 0x40 MLOAD DUP1 PUSH2 0x180 ADD PUSH1 0x40 MSTORE DUP1 PUSH1 0x1 PUSH1 0x0 DUP6 PUSH20 0xFFFFFFFFFFFFFFFFFFFFFFFFFFFFFFFFFFFFFFFF AND PUSH20 0xFFFFFFFFFFFFFFFFFFFFFFFFFFFFFFFFFFFFFFFF AND DUP2 MSTORE PUSH1 0x20 ADD SWAP1 DUP2 MSTORE PUSH1 0x20 ADD PUSH1 0x0 KECCAK256 PUSH1 0x0 ADD PUSH1 0x0 SWAP1 SLOAD SWAP1 PUSH2 0x100 EXP SWAP1 DIV PUSH20 0xFFFFFFFFFFFFFFFFFFFFFFFFFFFFFFFFFFFFFFFF AND PUSH20 0xFFFFFFFFFFFFFFFFFFFFFFFFFFFFFFFFFFFFFFFF AND DUP2 MSTORE PUSH1 0x20 ADD PUSH1 0x1 PUSH1 0x0 DUP6 PUSH20 0xFFFFFFFFFFFFFFFFFFFFFFFFFFFFFFFFFFFFFFFF AND PUSH20 0xFFFFFFFFFFFFFFFFFFFFFFFFFFFFFFFFFFFFFFFF AND DUP2 MSTORE PUSH1 0x20 ADD SWAP1 DUP2 MSTORE PUSH1 0x20 ADD PUSH1 0x0 KECCAK256 PUSH1 0x1 ADD SLOAD DUP2 MSTORE PUSH1 0x20 ADD PUSH1 0x1 PUSH1 0x0 DUP6 PUSH20 0xFFFFFFFFFFFFFFFFFFFFFFFFFFFFFFFFFFFFFFFF AND PUSH20 0xFFFFFFFFFFFFFFFFFFFFFFFFFFFFFFFFFFFFFFFF AND DUP2 MSTORE PUSH1 0x20 ADD SWAP1 DUP2 MSTORE PUSH1 0x20 ADD PUSH1 0x0 KECCAK256 PUSH1 0x2 ADD SLOAD DUP2 MSTORE PUSH1 0x20 ADD PUSH1 0x1 PUSH1 0x0 DUP6 PUSH20 0xFFFFFFFFFFFFFFFFFFFFFFFFFFFFFFFFFFFFFFFF AND PUSH20 0xFFFFFFFFFFFFFFFFFFFFFFFFFFFFFFFFFFFFFFFF AND DUP2 MSTORE PUSH1 0x20 ADD SWAP1 DUP2 MSTORE PUSH1 0x20 ADD PUSH1 0x0 KECCAK256 PUSH1 0x3 ADD SLOAD DUP2 MSTORE PUSH1 0x20 ADD PUSH1 0x1 PUSH1 0x0 DUP6 PUSH20 0xFFFFFFFFFFFFFFFFFFFFFFFFFFFFFFFFFFFFFFFF AND PUSH20 0xFFFFFFFFFFFFFFFFFFFFFFFFFFFFFFFFFFFFFFFF AND DUP2 MSTORE PUSH1 0x20 ADD SWAP1 DUP2 MSTORE PUSH1 0x20 ADD PUSH1 0x0 KECCAK256 PUSH1 0x4 ADD SLOAD DUP2 MSTORE PUSH1 0x20 ADD PUSH1 0x1 PUSH1 0x0 DUP6 PUSH20 0xFFFFFFFFFFFFFFFFFFFFFFFFFFFFFFFFFFFFFFFF AND PUSH20 0xFFFFFFFFFFFFFFFFFFFFFFFFFFFFFFFFFFFFFFFF AND DUP2 MSTORE PUSH1 0x20 ADD SWAP1 DUP2 MSTORE PUSH1 0x20 ADD PUSH1 0x0 KECCAK256 PUSH1 0x5 ADD SLOAD DUP2 MSTORE PUSH1 0x20 ADD PUSH1 0x1 PUSH1 0x0 DUP6 PUSH20 0xFFFFFFFFFFFFFFFFFFFFFFFFFFFFFFFFFFFFFFFF AND PUSH20 0xFFFFFFFFFFFFFFFFFFFFFFFFFFFFFFFFFFFFFFFF AND DUP2 MSTORE PUSH1 0x20 ADD SWAP1 DUP2 MSTORE PUSH1 0x20 ADD PUSH1 0x0 KECCAK256 PUSH1 0x6 ADD SLOAD DUP2 MSTORE PUSH1 0x20 ADD PUSH1 0x1 PUSH1 0x0 DUP6 PUSH20 0xFFFFFFFFFFFFFFFFFFFFFFFFFFFFFFFFFFFFFFFF AND PUSH20 0xFFFFFFFFFFFFFFFFFFFFFFFFFFFFFFFFFFFFFFFF AND DUP2 MSTORE PUSH1 0x20 ADD SWAP1 DUP2 MSTORE PUSH1 0x20 ADD PUSH1 0x0 KECCAK256 PUSH1 0x7 ADD SLOAD DUP2 MSTORE PUSH1 0x20 ADD PUSH1 0x1 PUSH1 0x0 DUP6 PUSH20 0xFFFFFFFFFFFFFFFFFFFFFFFFFFFFFFFFFFFFFFFF AND PUSH20 0xFFFFFFFFFFFFFFFFFFFFFFFFFFFFFFFFFFFFFFFF AND DUP2 MSTORE PUSH1 0x20 ADD SWAP1 DUP2 MSTORE PUSH1 0x20 ADD PUSH1 0x0 KECCAK256 PUSH1 0x8 ADD SLOAD DUP2 MSTORE PUSH1 0x20 ADD PUSH1 0x1 PUSH1 0x0 DUP6 PUSH20 0xFFFFFFFFFFFFFFFFFFFFFFFFFFFFFFFFFFFFFFFF AND PUSH20 0xFFFFFFFFFFFFFFFFFFFFFFFFFFFFFFFFFFFFFFFF AND DUP2 MSTORE PUSH1 0x20 ADD SWAP1 DUP2 MSTORE PUSH1 0x20 ADD PUSH1 0x0 KECCAK256 PUSH1 0x9 ADD SLOAD DUP2 MSTORE PUSH1 0x20 ADD PUSH1 0x1 PUSH1 0x0 DUP6 PUSH20 0xFFFFFFFFFFFFFFFFFFFFFFFFFFFFFFFFFFFFFFFF AND PUSH20 0xFFFFFFFFFFFFFFFFFFFFFFFFFFFFFFFFFFFFFFFF AND DUP2 MSTORE PUSH1 0x20 ADD SWAP1 DUP2 MSTORE PUSH1 0x20 ADD PUSH1 0x0 KECCAK256 PUSH1 0xA ADD SLOAD DUP2 MSTORE PUSH1 0x20 ADD PUSH1 0x1 PUSH1 0x0 DUP6 PUSH20 0xFFFFFFFFFFFFFFFFFFFFFFFFFFFFFFFFFFFFFFFF AND PUSH20 0xFFFFFFFFFFFFFFFFFFFFFFFFFFFFFFFFFFFFFFFF AND DUP2 MSTORE PUSH1 0x20 ADD SWAP1 DUP2 MSTORE PUSH1 0x20 ADD PUSH1 0x0 KECCAK256 PUSH1 0xB ADD SLOAD DUP2 MSTORE POP PUSH1 0x1 PUSH1 0x0 DUP5 PUSH20 0xFFFFFFFFFFFFFFFFFFFFFFFFFFFFFFFFFFFFFFFF AND PUSH20 0xFFFFFFFFFFFFFFFFFFFFFFFFFFFFFFFFFFFFFFFF AND DUP2 MSTORE PUSH1 0x20 ADD SWAP1 DUP2 MSTORE PUSH1 0x20 ADD PUSH1 0x0 KECCAK256 PUSH1 0x0 DUP3 ADD MLOAD DUP2 PUSH1 0x0 ADD PUSH1 0x0 PUSH2 0x100 EXP DUP2 SLOAD DUP2 PUSH20 0xFFFFFFFFFFFFFFFFFFFFFFFFFFFFFFFFFFFFFFFF MUL NOT AND SWAP1 DUP4 PUSH20 0xFFFFFFFFFFFFFFFFFFFFFFFFFFFFFFFFFFFFFFFF AND MUL OR SWAP1 SSTORE POP PUSH1 0x20 DUP3 ADD MLOAD DUP2 PUSH1 0x1 ADD SSTORE PUSH1 0x40 DUP3 ADD MLOAD DUP2 PUSH1 0x2 ADD SSTORE PUSH1 0x60 DUP3 ADD MLOAD DUP2 PUSH1 0x3 ADD SSTORE PUSH1 0x80 DUP3 ADD MLOAD DUP2 PUSH1 0x4 ADD SSTORE PUSH1 0xA0 DUP3 ADD MLOAD DUP2 PUSH1 0x5 ADD SSTORE PUSH1 0xC0 DUP3 ADD MLOAD DUP2 PUSH1 0x6 ADD SSTORE PUSH1 0xE0 DUP3 ADD MLOAD DUP2 PUSH1 0x7 ADD SSTORE PUSH2 0x100 DUP3 ADD MLOAD DUP2 PUSH1 0x8 ADD SSTORE PUSH2 0x120 DUP3 ADD MLOAD DUP2 PUSH1 0x9 ADD SSTORE PUSH2 0x140 DUP3 ADD MLOAD DUP2 PUSH1 0xA ADD SSTORE PUSH2 0x160 DUP3 ADD MLOAD DUP2 PUSH1 0xB ADD SSTORE SWAP1 POP POP POP POP JUMP JUMPDEST PUSH1 0x0 PUSH1 0x40 MLOAD SWAP1 POP SWAP1 JUMP JUMPDEST PUSH1 0x0 DUP1 REVERT JUMPDEST PUSH1 0x0 DUP1 REVERT JUMPDEST PUSH1 0x0 PUSH20 0xFFFFFFFFFFFFFFFFFFFFFFFFFFFFFFFFFFFFFFFF DUP3 AND SWAP1 POP SWAP2 SWAP1 POP JUMP JUMPDEST PUSH1 0x0 PUSH2 0x3060 DUP3 PUSH2 0x3035 JUMP JUMPDEST SWAP1 POP SWAP2 SWAP1 POP JUMP JUMPDEST PUSH2 0x3070 DUP2 PUSH2 0x3055 JUMP JUMPDEST DUP2 EQ PUSH2 0x307B JUMPI PUSH1 0x0 DUP1 REVERT JUMPDEST POP JUMP JUMPDEST PUSH1 0x0 DUP2 CALLDATALOAD SWAP1 POP PUSH2 0x308D DUP2 PUSH2 0x3067 JUMP JUMPDEST SWAP3 SWAP2 POP POP JUMP JUMPDEST PUSH1 0x0 DUP2 SWAP1 POP SWAP2 SWAP1 POP JUMP JUMPDEST PUSH2 0x30A6 DUP2 PUSH2 0x3093 JUMP JUMPDEST DUP2 EQ PUSH2 0x30B1 JUMPI PUSH1 0x0 DUP1 REVERT JUMPDEST POP JUMP JUMPDEST PUSH1 0x0 DUP2 CALLDATALOAD SWAP1 POP PUSH2 0x30C3 DUP2 PUSH2 0x309D JUMP JUMPDEST SWAP3 SWAP2 POP POP JUMP JUMPDEST PUSH1 0x0 DUP1 PUSH1 0x40 DUP4 DUP6 SUB SLT ISZERO PUSH2 0x30E0 JUMPI PUSH2 0x30DF PUSH2 0x302B JUMP JUMPDEST JUMPDEST PUSH1 0x0 PUSH2 0x30EE DUP6 DUP3 DUP7 ADD PUSH2 0x307E JUMP JUMPDEST SWAP3 POP POP PUSH1 0x20 PUSH2 0x30FF DUP6 DUP3 DUP7 ADD PUSH2 0x30B4 JUMP JUMPDEST SWAP2 POP POP SWAP3 POP SWAP3 SWAP1 POP JUMP JUMPDEST PUSH1 0x0 PUSH2 0x3114 DUP3 PUSH2 0x3035 JUMP JUMPDEST SWAP1 POP SWAP2 SWAP1 POP JUMP JUMPDEST PUSH2 0x3124 DUP2 PUSH2 0x3109 JUMP JUMPDEST DUP2 EQ PUSH2 0x312F JUMPI PUSH1 0x0 DUP1 REVERT JUMPDEST POP JUMP JUMPDEST PUSH1 0x0 DUP2 CALLDATALOAD SWAP1 POP PUSH2 0x3141 DUP2 PUSH2 0x311B JUMP JUMPDEST SWAP3 SWAP2 POP POP JUMP JUMPDEST PUSH1 0x0 PUSH1 0x20 DUP3 DUP5 SUB SLT ISZERO PUSH2 0x315D JUMPI PUSH2 0x315C PUSH2 0x302B JUMP JUMPDEST JUMPDEST PUSH1 0x0 PUSH2 0x316B DUP5 DUP3 DUP6 ADD PUSH2 0x3132 JUMP JUMPDEST SWAP2 POP POP SWAP3 SWAP2 POP POP JUMP JUMPDEST PUSH2 0x317D DUP2 PUSH2 0x3093 JUMP JUMPDEST DUP3 MSTORE POP POP JUMP JUMPDEST PUSH1 0x0 PUSH1 0x60 DUP3 ADD SWAP1 POP PUSH2 0x3198 PUSH1 0x0 DUP4 ADD DUP7 PUSH2 0x3174 JUMP JUMPDEST PUSH2 0x31A5 PUSH1 0x20 DUP4 ADD DUP6 PUSH2 0x3174 JUMP JUMPDEST PUSH2 0x31B2 PUSH1 0x40 DUP4 ADD DUP5 PUSH2 0x3174 JUMP JUMPDEST SWAP5 SWAP4 POP POP POP POP JUMP JUMPDEST PUSH1 0x0 PUSH1 0x20 DUP3 ADD SWAP1 POP PUSH2 0x31CF PUSH1 0x0 DUP4 ADD DUP5 PUSH2 0x3174 JUMP JUMPDEST SWAP3 SWAP2 POP POP JUMP JUMPDEST PUSH1 0x0 DUP1 REVERT JUMPDEST PUSH1 0x0 DUP1 REVERT JUMPDEST PUSH1 0x0 PUSH1 0x1F NOT PUSH1 0x1F DUP4 ADD AND SWAP1 POP SWAP2 SWAP1 POP JUMP JUMPDEST PUSH32 0x4E487B7100000000000000000000000000000000000000000000000000000000 PUSH1 0x0 MSTORE PUSH1 0x41 PUSH1 0x4 MSTORE PUSH1 0x24 PUSH1 0x0 REVERT JUMPDEST PUSH2 0x3228 DUP3 PUSH2 0x31DF JUMP JUMPDEST DUP2 ADD DUP2 DUP2 LT PUSH8 0xFFFFFFFFFFFFFFFF DUP3 GT OR ISZERO PUSH2 0x3247 JUMPI PUSH2 0x3246 PUSH2 0x31F0 JUMP JUMPDEST JUMPDEST DUP1 PUSH1 0x40 MSTORE POP POP POP JUMP JUMPDEST PUSH1 0x0 PUSH2 0x325A PUSH2 0x3021 JUMP JUMPDEST SWAP1 POP PUSH2 0x3266 DUP3 DUP3 PUSH2 0x321F JUMP JUMPDEST SWAP2 SWAP1 POP JUMP JUMPDEST PUSH1 0x0 PUSH8 0xFFFFFFFFFFFFFFFF DUP3 GT ISZERO PUSH2 0x3286 JUMPI PUSH2 0x3285 PUSH2 0x31F0 JUMP JUMPDEST JUMPDEST PUSH2 0x328F DUP3 PUSH2 0x31DF JUMP JUMPDEST SWAP1 POP PUSH1 0x20 DUP2 ADD SWAP1 POP SWAP2 SWAP1 POP JUMP JUMPDEST DUP3 DUP2 DUP4 CALLDATACOPY PUSH1 0x0 DUP4 DUP4 ADD MSTORE POP POP POP JUMP JUMPDEST PUSH1 0x0 PUSH2 0x32BE PUSH2 0x32B9 DUP5 PUSH2 0x326B JUMP JUMPDEST PUSH2 0x3250 JUMP JUMPDEST SWAP1 POP DUP3 DUP2 MSTORE PUSH1 0x20 DUP2 ADD DUP5 DUP5 DUP5 ADD GT ISZERO PUSH2 0x32DA JUMPI PUSH2 0x32D9 PUSH2 0x31DA JUMP JUMPDEST JUMPDEST PUSH2 0x32E5 DUP5 DUP3 DUP6 PUSH2 0x329C JUMP JUMPDEST POP SWAP4 SWAP3 POP POP POP JUMP JUMPDEST PUSH1 0x0 DUP3 PUSH1 0x1F DUP4 ADD SLT PUSH2 0x3302 JUMPI PUSH2 0x3301 PUSH2 0x31D5 JUMP JUMPDEST JUMPDEST DUP2 CALLDATALOAD PUSH2 0x3312 DUP5 DUP3 PUSH1 0x20 DUP7 ADD PUSH2 0x32AB JUMP JUMPDEST SWAP2 POP POP SWAP3 SWAP2 POP POP JUMP JUMPDEST PUSH1 0x0 DUP1 PUSH1 0x40 DUP4 DUP6 SUB SLT ISZERO PUSH2 0x3332 JUMPI PUSH2 0x3331 PUSH2 0x302B JUMP JUMPDEST JUMPDEST PUSH1 0x0 PUSH2 0x3340 DUP6 DUP3 DUP7 ADD PUSH2 0x307E JUMP JUMPDEST SWAP3 POP POP PUSH1 0x20 DUP4 ADD CALLDATALOAD PUSH8 0xFFFFFFFFFFFFFFFF DUP2 GT ISZERO PUSH2 0x3361 JUMPI PUSH2 0x3360 PUSH2 0x3030 JUMP JUMPDEST JUMPDEST PUSH2 0x336D DUP6 DUP3 DUP7 ADD PUSH2 0x32ED JUMP JUMPDEST SWAP2 POP POP SWAP3 POP SWAP3 SWAP1 POP JUMP JUMPDEST PUSH1 0x0 DUP1 PUSH1 0x0 DUP1 PUSH1 0x80 DUP6 DUP8 SUB SLT ISZERO PUSH2 0x3391 JUMPI PUSH2 0x3390 PUSH2 0x302B JUMP JUMPDEST JUMPDEST PUSH1 0x0 PUSH2 0x339F DUP8 DUP3 DUP9 ADD PUSH2 0x307E JUMP JUMPDEST SWAP5 POP POP PUSH1 0x20 PUSH2 0x33B0 DUP8 DUP3 DUP9 ADD PUSH2 0x30B4 JUMP JUMPDEST SWAP4 POP POP PUSH1 0x40 PUSH2 0x33C1 DUP8 DUP3 DUP9 ADD PUSH2 0x30B4 JUMP JUMPDEST SWAP3 POP POP PUSH1 0x60 DUP6 ADD CALLDATALOAD PUSH8 0xFFFFFFFFFFFFFFFF DUP2 GT ISZERO PUSH2 0x33E2 JUMPI PUSH2 0x33E1 PUSH2 0x3030 JUMP JUMPDEST JUMPDEST PUSH2 0x33EE DUP8 DUP3 DUP9 ADD PUSH2 0x32ED JUMP JUMPDEST SWAP2 POP POP SWAP3 SWAP6 SWAP2 SWAP5 POP SWAP3 POP JUMP JUMPDEST PUSH2 0x3403 DUP2 PUSH2 0x3109 JUMP JUMPDEST DUP3 MSTORE POP POP JUMP JUMPDEST PUSH1 0x0 PUSH2 0x180 DUP3 ADD SWAP1 POP PUSH2 0x341F PUSH1 0x0 DUP4 ADD DUP16 PUSH2 0x33FA JUMP JUMPDEST PUSH2 0x342C PUSH1 0x20 DUP4 ADD DUP15 PUSH2 0x3174 JUMP JUMPDEST PUSH2 0x3439 PUSH1 0x40 DUP4 ADD DUP14 PUSH2 0x3174 JUMP JUMPDEST PUSH2 0x3446 PUSH1 0x60 DUP4 ADD DUP13 PUSH2 0x3174 JUMP JUMPDEST PUSH2 0x3453 PUSH1 0x80 DUP4 ADD DUP12 PUSH2 0x3174 JUMP JUMPDEST PUSH2 0x3460 PUSH1 0xA0 DUP4 ADD DUP11 PUSH2 0x3174 JUMP JUMPDEST PUSH2 0x346D PUSH1 0xC0 DUP4 ADD DUP10 PUSH2 0x3174 JUMP JUMPDEST PUSH2 0x347A PUSH1 0xE0 DUP4 ADD DUP9 PUSH2 0x3174 JUMP JUMPDEST PUSH2 0x3488 PUSH2 0x100 DUP4 ADD DUP8 PUSH2 0x3174 JUMP JUMPDEST PUSH2 0x3496 PUSH2 0x120 DUP4 ADD DUP7 PUSH2 0x3174 JUMP JUMPDEST PUSH2 0x34A4 PUSH2 0x140 DUP4 ADD DUP6 PUSH2 0x3174 JUMP JUMPDEST PUSH2 0x34B2 PUSH2 0x160 DUP4 ADD DUP5 PUSH2 0x3174 JUMP JUMPDEST SWAP14 SWAP13 POP POP POP POP POP POP POP POP POP POP POP POP POP JUMP JUMPDEST PUSH1 0x0 DUP3 DUP3 MSTORE PUSH1 0x20 DUP3 ADD SWAP1 POP SWAP3 SWAP2 POP POP JUMP JUMPDEST PUSH32 0x7A65726F2061646472657373206973206E6F7420616C6C6F7765640000000000 PUSH1 0x0 DUP3 ADD MSTORE POP JUMP JUMPDEST PUSH1 0x0 PUSH2 0x350A PUSH1 0x1B DUP4 PUSH2 0x34C3 JUMP JUMPDEST SWAP2 POP PUSH2 0x3515 DUP3 PUSH2 0x34D4 JUMP JUMPDEST PUSH1 0x20 DUP3 ADD SWAP1 POP SWAP2 SWAP1 POP JUMP JUMPDEST PUSH1 0x0 PUSH1 0x20 DUP3 ADD SWAP1 POP DUP2 DUP2 SUB PUSH1 0x0 DUP4 ADD MSTORE PUSH2 0x3539 DUP2 PUSH2 0x34FD JUMP JUMPDEST SWAP1 POP SWAP2 SWAP1 POP JUMP JUMPDEST PUSH32 0x706C656173652073656E6420736F6D6520616D6F756E74000000000000000000 PUSH1 0x0 DUP3 ADD MSTORE POP JUMP JUMPDEST PUSH1 0x0 PUSH2 0x3576 PUSH1 0x17 DUP4 PUSH2 0x34C3 JUMP JUMPDEST SWAP2 POP PUSH2 0x3581 DUP3 PUSH2 0x3540 JUMP JUMPDEST PUSH1 0x20 DUP3 ADD SWAP1 POP SWAP2 SWAP1 POP JUMP JUMPDEST PUSH1 0x0 PUSH1 0x20 DUP3 ADD SWAP1 POP DUP2 DUP2 SUB PUSH1 0x0 DUP4 ADD MSTORE PUSH2 0x35A5 DUP2 PUSH2 0x3569 JUMP JUMPDEST SWAP1 POP SWAP2 SWAP1 POP JUMP JUMPDEST PUSH32 0x4E487B7100000000000000000000000000000000000000000000000000000000 PUSH1 0x0 MSTORE PUSH1 0x11 PUSH1 0x4 MSTORE PUSH1 0x24 PUSH1 0x0 REVERT JUMPDEST PUSH1 0x0 PUSH2 0x35E6 DUP3 PUSH2 0x3093 JUMP JUMPDEST SWAP2 POP PUSH2 0x35F1 DUP4 PUSH2 0x3093 JUMP JUMPDEST SWAP3 POP DUP3 DUP3 ADD SWAP1 POP DUP1 DUP3 GT ISZERO PUSH2 0x3609 JUMPI PUSH2 0x3608 PUSH2 0x35AC JUMP JUMPDEST JUMPDEST SWAP3 SWAP2 POP POP JUMP JUMPDEST PUSH1 0x0 DUP2 SWAP1 POP SWAP3 SWAP2 POP POP JUMP JUMPDEST PUSH32 0x6361720000000000000000000000000000000000000000000000000000000000 PUSH1 0x0 DUP3 ADD MSTORE POP JUMP JUMPDEST PUSH1 0x0 PUSH2 0x3650 PUSH1 0x3 DUP4 PUSH2 0x360F JUMP JUMPDEST SWAP2 POP PUSH2 0x365B DUP3 PUSH2 0x361A JUMP JUMPDEST PUSH1 0x3 DUP3 ADD SWAP1 POP SWAP2 SWAP1 POP JUMP JUMPDEST PUSH1 0x0 PUSH2 0x3671 DUP3 PUSH2 0x3643 JUMP JUMPDEST SWAP2 POP DUP2 SWAP1 POP SWAP2 SWAP1 POP JUMP JUMPDEST PUSH1 0x0 DUP2 MLOAD SWAP1 POP SWAP2 SWAP1 POP JUMP JUMPDEST PUSH1 0x0 JUMPDEST DUP4 DUP2 LT ISZERO PUSH2 0x36A4 JUMPI DUP1 DUP3 ADD MLOAD DUP2 DUP5 ADD MSTORE PUSH1 0x20 DUP2 ADD SWAP1 POP PUSH2 0x3689 JUMP JUMPDEST PUSH1 0x0 DUP5 DUP5 ADD MSTORE POP POP POP POP JUMP JUMPDEST PUSH1 0x0 PUSH2 0x36BB DUP3 PUSH2 0x367B JUMP JUMPDEST PUSH2 0x36C5 DUP2 DUP6 PUSH2 0x360F JUMP JUMPDEST SWAP4 POP PUSH2 0x36D5 DUP2 DUP6 PUSH1 0x20 DUP7 ADD PUSH2 0x3686 JUMP JUMPDEST DUP1 DUP5 ADD SWAP2 POP POP SWAP3 SWAP2 POP POP JUMP JUMPDEST PUSH1 0x0 PUSH2 0x36ED DUP3 DUP5 PUSH2 0x36B0 JUMP JUMPDEST SWAP2 POP DUP2 SWAP1 POP SWAP3 SWAP2 POP POP JUMP JUMPDEST PUSH32 0x686F6D6500000000000000000000000000000000000000000000000000000000 PUSH1 0x0 DUP3 ADD MSTORE POP JUMP JUMPDEST PUSH1 0x0 PUSH2 0x372E PUSH1 0x4 DUP4 PUSH2 0x360F JUMP JUMPDEST SWAP2 POP PUSH2 0x3739 DUP3 PUSH2 0x36F8 JUMP JUMPDEST PUSH1 0x4 DUP3 ADD SWAP1 POP SWAP2 SWAP1 POP JUMP JUMPDEST PUSH1 0x0 PUSH2 0x374F DUP3 PUSH2 0x3721 JUMP JUMPDEST SWAP2 POP DUP2 SWAP1 POP SWAP2 SWAP1 POP JUMP JUMPDEST PUSH32 0x706572736F6E616C000000000000000000000000000000000000000000000000 PUSH1 0x0 DUP3 ADD MSTORE POP JUMP JUMPDEST PUSH1 0x0 PUSH2 0x378F PUSH1 0x8 DUP4 PUSH2 0x360F JUMP JUMPDEST SWAP2 POP PUSH2 0x379A DUP3 PUSH2 0x3759 JUMP JUMPDEST PUSH1 0x8 DUP3 ADD SWAP1 POP SWAP2 SWAP1 POP JUMP JUMPDEST PUSH1 0x0 PUSH2 0x37B0 DUP3 PUSH2 0x3782 JUMP JUMPDEST SWAP2 POP DUP2 SWAP1 POP SWAP2 SWAP1 POP JUMP JUMPDEST PUSH32 0x696E76616C6964206C6F616E2074797065000000000000000000000000000000 PUSH1 0x0 DUP3 ADD MSTORE POP JUMP JUMPDEST PUSH1 0x0 PUSH2 0x37F0 PUSH1 0x11 DUP4 PUSH2 0x34C3 JUMP JUMPDEST SWAP2 POP PUSH2 0x37FB DUP3 PUSH2 0x37BA JUMP JUMPDEST PUSH1 0x20 DUP3 ADD SWAP1 POP SWAP2 SWAP1 POP JUMP JUMPDEST PUSH1 0x0 PUSH1 0x20 DUP3 ADD SWAP1 POP DUP2 DUP2 SUB PUSH1 0x0 DUP4 ADD MSTORE PUSH2 0x381F DUP2 PUSH2 0x37E3 JUMP JUMPDEST SWAP1 POP SWAP2 SWAP1 POP JUMP JUMPDEST PUSH32 0x696E76616C696420656D6920616D6F756E740000000000000000000000000000 PUSH1 0x0 DUP3 ADD MSTORE POP JUMP JUMPDEST PUSH1 0x0 PUSH2 0x385C PUSH1 0x12 DUP4 PUSH2 0x34C3 JUMP JUMPDEST SWAP2 POP PUSH2 0x3867 DUP3 PUSH2 0x3826 JUMP JUMPDEST PUSH1 0x20 DUP3 ADD SWAP1 POP SWAP2 SWAP1 POP JUMP JUMPDEST PUSH1 0x0 PUSH1 0x20 DUP3 ADD SWAP1 POP DUP2 DUP2 SUB PUSH1 0x0 DUP4 ADD MSTORE PUSH2 0x388B DUP2 PUSH2 0x384F JUMP JUMPDEST SWAP1 POP SWAP2 SWAP1 POP JUMP JUMPDEST PUSH1 0x0 PUSH2 0x389D DUP3 PUSH2 0x3093 JUMP JUMPDEST SWAP2 POP PUSH2 0x38A8 DUP4 PUSH2 0x3093 JUMP JUMPDEST SWAP3 POP DUP3 DUP3 SUB SWAP1 POP DUP2 DUP2 GT ISZERO PUSH2 0x38C0 JUMPI PUSH2 0x38BF PUSH2 0x35AC JUMP JUMPDEST JUMPDEST SWAP3 SWAP2 POP POP JUMP JUMPDEST PUSH1 0x0 PUSH2 0x38D1 DUP3 PUSH2 0x3093 JUMP JUMPDEST SWAP2 POP PUSH1 0x0 DUP3 SUB PUSH2 0x38E4 JUMPI PUSH2 0x38E3 PUSH2 0x35AC JUMP JUMPDEST JUMPDEST PUSH1 0x1 DUP3 SUB SWAP1 POP SWAP2 SWAP1 POP JUMP JUMPDEST PUSH32 0x796F752068617665206F6E6520636172206C6F616E2120796F752063616E2774 PUSH1 0x0 DUP3 ADD MSTORE PUSH32 0x2074616B6520616E6F7468657221000000000000000000000000000000000000 PUSH1 0x20 DUP3 ADD MSTORE POP JUMP JUMPDEST PUSH1 0x0 PUSH2 0x394B PUSH1 0x2E DUP4 PUSH2 0x34C3 JUMP JUMPDEST SWAP2 POP PUSH2 0x3956 DUP3 PUSH2 0x38EF JUMP JUMPDEST PUSH1 0x40 DUP3 ADD SWAP1 POP SWAP2 SWAP1 POP JUMP JUMPDEST PUSH1 0x0 PUSH1 0x20 DUP3 ADD SWAP1 POP DUP2 DUP2 SUB PUSH1 0x0 DUP4 ADD MSTORE PUSH2 0x397A DUP2 PUSH2 0x393E JUMP JUMPDEST SWAP1 POP SWAP2 SWAP1 POP JUMP JUMPDEST PUSH1 0x0 PUSH2 0x398C DUP3 PUSH2 0x3093 JUMP JUMPDEST SWAP2 POP PUSH2 0x3997 DUP4 PUSH2 0x3093 JUMP JUMPDEST SWAP3 POP DUP3 DUP3 MUL PUSH2 0x39A5 DUP2 PUSH2 0x3093 JUMP JUMPDEST SWAP2 POP DUP3 DUP3 DIV DUP5 EQ DUP4 ISZERO OR PUSH2 0x39BC JUMPI PUSH2 0x39BB PUSH2 0x35AC JUMP JUMPDEST JUMPDEST POP SWAP3 SWAP2 POP POP JUMP JUMPDEST PUSH32 0x4E487B7100000000000000000000000000000000000000000000000000000000 PUSH1 0x0 MSTORE PUSH1 0x12 PUSH1 0x4 MSTORE PUSH1 0x24 PUSH1 0x0 REVERT JUMPDEST PUSH1 0x0 PUSH2 0x39FD DUP3 PUSH2 0x3093 JUMP JUMPDEST SWAP2 POP PUSH2 0x3A08 DUP4 PUSH2 0x3093 JUMP JUMPDEST SWAP3 POP DUP3 PUSH2 0x3A18 JUMPI PUSH2 0x3A17 PUSH2 0x39C3 JUMP JUMPDEST JUMPDEST DUP3 DUP3 DIV SWAP1 POP SWAP3 SWAP2 POP POP JUMP JUMPDEST PUSH32 0x796F75206861766520616C7265616479206F6E6520686F6D65206C6F616E2120 PUSH1 0x0 DUP3 ADD MSTORE PUSH32 0x796F752063616E27742074616B6520616E6F7468657221000000000000000000 PUSH1 0x20 DUP3 ADD MSTORE POP JUMP JUMPDEST PUSH1 0x0 PUSH2 0x3A7F PUSH1 0x37 DUP4 PUSH2 0x34C3 JUMP JUMPDEST SWAP2 POP PUSH2 0x3A8A DUP3 PUSH2 0x3A23 JUMP JUMPDEST PUSH1 0x40 DUP3 ADD SWAP1 POP SWAP2 SWAP1 POP JUMP JUMPDEST PUSH1 0x0 PUSH1 0x20 DUP3 ADD SWAP1 POP DUP2 DUP2 SUB PUSH1 0x0 DUP4 ADD MSTORE PUSH2 0x3AAE DUP2 PUSH2 0x3A72 JUMP JUMPDEST SWAP1 POP SWAP2 SWAP1 POP JUMP JUMPDEST PUSH32 0x796F752068617665206F6E6520706572736F6E616C206C6F616E2120796F7520 PUSH1 0x0 DUP3 ADD MSTORE PUSH32 0x63616E27742074616B6520616E6F746865722100000000000000000000000000 PUSH1 0x20 DUP3 ADD MSTORE POP JUMP JUMPDEST PUSH1 0x0 PUSH2 0x3B11 PUSH1 0x33 DUP4 PUSH2 0x34C3 JUMP JUMPDEST SWAP2 POP PUSH2 0x3B1C DUP3 PUSH2 0x3AB5 JUMP JUMPDEST PUSH1 0x40 DUP3 ADD SWAP1 POP SWAP2 SWAP1 POP JUMP JUMPDEST PUSH1 0x0 PUSH1 0x20 DUP3 ADD SWAP1 POP DUP2 DUP2 SUB PUSH1 0x0 DUP4 ADD MSTORE PUSH2 0x3B40 DUP2 PUSH2 0x3B04 JUMP JUMPDEST SWAP1 POP SWAP2 SWAP1 POP JUMP JUMPDEST PUSH32 0x596F75277265206E6F742074686520736D61727420636F6E7472616374206164 PUSH1 0x0 DUP3 ADD MSTORE PUSH32 0x6D696E2100000000000000000000000000000000000000000000000000000000 PUSH1 0x20 DUP3 ADD MSTORE POP JUMP JUMPDEST PUSH1 0x0 PUSH2 0x3BA3 PUSH1 0x24 DUP4 PUSH2 0x34C3 JUMP JUMPDEST SWAP2 POP PUSH2 0x3BAE DUP3 PUSH2 0x3B47 JUMP JUMPDEST PUSH1 0x40 DUP3 ADD SWAP1 POP SWAP2 SWAP1 POP JUMP JUMPDEST PUSH1 0x0 PUSH1 0x20 DUP3 ADD SWAP1 POP DUP2 DUP2 SUB PUSH1 0x0 DUP4 ADD MSTORE PUSH2 0x3BD2 DUP2 PUSH2 0x3B96 JUMP JUMPDEST SWAP1 POP SWAP2 SWAP1 POP JUMP JUMPDEST PUSH32 0x696E76616C696420616D6F756E74000000000000000000000000000000000000 PUSH1 0x0 DUP3 ADD MSTORE POP JUMP JUMPDEST PUSH1 0x0 PUSH2 0x3C0F PUSH1 0xE DUP4 PUSH2 0x34C3 JUMP JUMPDEST SWAP2 POP PUSH2 0x3C1A DUP3 PUSH2 0x3BD9 JUMP JUMPDEST PUSH1 0x20 DUP3 ADD SWAP1 POP SWAP2 SWAP1 POP JUMP JUMPDEST PUSH1 0x0 PUSH1 0x20 DUP3 ADD SWAP1 POP DUP2 DUP2 SUB PUSH1 0x0 DUP4 ADD MSTORE PUSH2 0x3C3E DUP2 PUSH2 0x3C02 JUMP JUMPDEST SWAP1 POP SWAP2 SWAP1 POP JUMP INVALID LOG2 PUSH5 0x6970667358 0x22 SLT KECCAK256 0x2C LOG1 PUSH24 0x94A145F093EDD2283378A48F76CA2DEC1E4D7B85D355A6F2 0x1E SSTORE 0x4D 0x4D 0xBB PUSH5 0x736F6C6343 STOP ADDMOD SLT STOP CALLER "
				},
				"gasEstimates": {
					"creation": {
						"codeDepositCost": "3096600",
						"executionCost": "27678",
						"totalCost": "3124278"
					},
					"external": {
						"": "196",
						"Loan(address,uint256,uint256,string)": "infinite",
						"addFund()": "infinite",
						"carLoanDetails(address)": "infinite",
						"deposit(address,uint256)": "infinite",
						"getContractBalance()": "384",
						"homeLoanDetails(address)": "infinite",
						"payEmi(address,string)": "infinite",
						"personalLoanDetails(address)": "infinite",
						"users(address)": "infinite",
						"withdraw(address,uint256)": "infinite"
					}
				},
				"methodIdentifiers": {
					"Loan(address,uint256,uint256,string)": "9283ea63",
					"addFund()": "a2f09dfa",
					"carLoanDetails(address)": "65d6d088",
					"deposit(address,uint256)": "47e7ef24",
					"getContractBalance()": "6f9fb98a",
					"homeLoanDetails(address)": "d77799a5",
					"payEmi(address,string)": "91341de3",
					"personalLoanDetails(address)": "8172aa0a",
					"users(address)": "a87430ba",
					"withdraw(address,uint256)": "f3fef3a3"
				}
			},
			"storageLayout": {
				"storage": [
					{
						"astId": 28,
						"contract": "Project/banking.sol:MyContract",
						"label": "admin",
						"offset": 0,
						"slot": "0",
						"type": "t_address"
					},
					{
						"astId": 80,
						"contract": "Project/banking.sol:MyContract",
						"label": "users",
						"offset": 0,
						"slot": "1",
						"type": "t_mapping(t_address,t_struct(user)26_storage)"
					}
				],
				"types": {
					"t_address": {
						"encoding": "inplace",
						"label": "address",
						"numberOfBytes": "20"
					},
					"t_mapping(t_address,t_struct(user)26_storage)": {
						"encoding": "mapping",
						"key": "t_address",
						"label": "mapping(address => struct MyContract.user)",
						"numberOfBytes": "32",
						"value": "t_struct(user)26_storage"
					},
					"t_struct(user)26_storage": {
						"encoding": "inplace",
						"label": "struct MyContract.user",
						"members": [
							{
								"astId": 3,
								"contract": "Project/banking.sol:MyContract",
								"label": "user_id",
								"offset": 0,
								"slot": "0",
								"type": "t_address"
							},
							{
								"astId": 5,
								"contract": "Project/banking.sol:MyContract",
								"label": "balance",
								"offset": 0,
								"slot": "1",
								"type": "t_uint256"
							},
							{
								"astId": 7,
								"contract": "Project/banking.sol:MyContract",
								"label": "timeperiod",
								"offset": 0,
								"slot": "2",
								"type": "t_uint256"
							},
							{
								"astId": 9,
								"contract": "Project/banking.sol:MyContract",
								"label": "carLoan",
								"offset": 0,
								"slot": "3",
								"type": "t_uint256"
							},
							{
								"astId": 11,
								"contract": "Project/banking.sol:MyContract",
								"label": "homeLoan",
								"offset": 0,
								"slot": "4",
								"type": "t_uint256"
							},
							{
								"astId": 13,
								"contract": "Project/banking.sol:MyContract",
								"label": "personalLoan",
								"offset": 0,
								"slot": "5",
								"type": "t_uint256"
							},
							{
								"astId": 15,
								"contract": "Project/banking.sol:MyContract",
								"label": "carEmi",
								"offset": 0,
								"slot": "6",
								"type": "t_uint256"
							},
							{
								"astId": 17,
								"contract": "Project/banking.sol:MyContract",
								"label": "homeEmi",
								"offset": 0,
								"slot": "7",
								"type": "t_uint256"
							},
							{
								"astId": 19,
								"contract": "Project/banking.sol:MyContract",
								"label": "personalLoanEmi",
								"offset": 0,
								"slot": "8",
								"type": "t_uint256"
							},
							{
								"astId": 21,
								"contract": "Project/banking.sol:MyContract",
								"label": "carLoanTimeperiod",
								"offset": 0,
								"slot": "9",
								"type": "t_uint256"
							},
							{
								"astId": 23,
								"contract": "Project/banking.sol:MyContract",
								"label": "homeLoanTimeperiod",
								"offset": 0,
								"slot": "10",
								"type": "t_uint256"
							},
							{
								"astId": 25,
								"contract": "Project/banking.sol:MyContract",
								"label": "personalLoanTimeperiod",
								"offset": 0,
								"slot": "11",
								"type": "t_uint256"
							}
						],
						"numberOfBytes": "384"
					},
					"t_uint256": {
						"encoding": "inplace",
						"label": "uint256",
						"numberOfBytes": "32"
					}
				}
			},
			"userdoc": {
				"kind": "user",
				"methods": {},
				"version": 1
			}
		}
	}
}