{
	"Project/dynamicBanl.sol": {
		"Bank": {
			"abi": [
				{
					"anonymous": false,
					"inputs": [
						{
							"indexed": false,
							"internalType": "address",
							"name": "account",
							"type": "address"
						},
						{
							"indexed": false,
							"internalType": "string",
							"name": "message",
							"type": "string"
						},
						{
							"indexed": false,
							"internalType": "string",
							"name": "Type",
							"type": "string"
						},
						{
							"indexed": false,
							"internalType": "uint256",
							"name": "value",
							"type": "uint256"
						}
					],
					"name": "EMIPaid",
					"type": "event"
				},
				{
					"anonymous": false,
					"inputs": [
						{
							"indexed": false,
							"internalType": "address",
							"name": "sender",
							"type": "address"
						},
						{
							"indexed": false,
							"internalType": "string",
							"name": "message",
							"type": "string"
						},
						{
							"indexed": false,
							"internalType": "uint256",
							"name": "value",
							"type": "uint256"
						}
					],
					"name": "amountDeposited",
					"type": "event"
				},
				{
					"anonymous": false,
					"inputs": [
						{
							"indexed": false,
							"internalType": "address",
							"name": "sender",
							"type": "address"
						},
						{
							"indexed": false,
							"internalType": "string",
							"name": "message",
							"type": "string"
						},
						{
							"indexed": false,
							"internalType": "uint256",
							"name": "value",
							"type": "uint256"
						}
					],
					"name": "amountWithdrawn",
					"type": "event"
				},
				{
					"anonymous": false,
					"inputs": [
						{
							"indexed": false,
							"internalType": "address",
							"name": "account",
							"type": "address"
						},
						{
							"indexed": false,
							"internalType": "string",
							"name": "message",
							"type": "string"
						},
						{
							"indexed": false,
							"internalType": "uint256",
							"name": "value",
							"type": "uint256"
						},
						{
							"indexed": false,
							"internalType": "uint256",
							"name": "forTime",
							"type": "uint256"
						}
					],
					"name": "carLoanProcessed",
					"type": "event"
				},
				{
					"anonymous": false,
					"inputs": [
						{
							"indexed": false,
							"internalType": "address",
							"name": "account",
							"type": "address"
						},
						{
							"indexed": false,
							"internalType": "string",
							"name": "message",
							"type": "string"
						},
						{
							"indexed": false,
							"internalType": "uint256",
							"name": "value",
							"type": "uint256"
						},
						{
							"indexed": false,
							"internalType": "uint256",
							"name": "forTime",
							"type": "uint256"
						}
					],
					"name": "homeLoanProcessed",
					"type": "event"
				},
				{
					"anonymous": false,
					"inputs": [
						{
							"indexed": false,
							"internalType": "address",
							"name": "account",
							"type": "address"
						},
						{
							"indexed": false,
							"internalType": "string",
							"name": "message",
							"type": "string"
						},
						{
							"indexed": false,
							"internalType": "uint256",
							"name": "value",
							"type": "uint256"
						},
						{
							"indexed": false,
							"internalType": "uint256",
							"name": "forTime",
							"type": "uint256"
						}
					],
					"name": "personalLoanProcessed",
					"type": "event"
				},
				{
					"inputs": [],
					"name": "AddLoanLimit",
					"outputs": [],
					"stateMutability": "payable",
					"type": "function"
				},
				{
					"inputs": [
						{
							"internalType": "address",
							"name": "",
							"type": "address"
						}
					],
					"name": "UserAddress",
					"outputs": [
						{
							"internalType": "uint256",
							"name": "amountDeposited",
							"type": "uint256"
						},
						{
							"internalType": "uint256",
							"name": "timeStamp",
							"type": "uint256"
						}
					],
					"stateMutability": "view",
					"type": "function"
				},
				{
					"inputs": [],
					"name": "deposit",
					"outputs": [],
					"stateMutability": "payable",
					"type": "function"
				},
				{
					"inputs": [
						{
							"internalType": "uint256",
							"name": "loanAmount",
							"type": "uint256"
						},
						{
							"internalType": "uint256",
							"name": "timeInMonths",
							"type": "uint256"
						}
					],
					"name": "getCarLoan",
					"outputs": [],
					"stateMutability": "payable",
					"type": "function"
				},
				{
					"inputs": [],
					"name": "getCarLoanDetails",
					"outputs": [
						{
							"internalType": "string",
							"name": "Type",
							"type": "string"
						},
						{
							"internalType": "uint256",
							"name": "loanAmount",
							"type": "uint256"
						},
						{
							"internalType": "uint256",
							"name": "noOfEmiPending",
							"type": "uint256"
						},
						{
							"internalType": "uint256",
							"name": "EmiAmount",
							"type": "uint256"
						}
					],
					"stateMutability": "view",
					"type": "function"
				},
				{
					"inputs": [
						{
							"internalType": "uint256",
							"name": "loanAmount",
							"type": "uint256"
						},
						{
							"internalType": "uint256",
							"name": "timeInMonths",
							"type": "uint256"
						}
					],
					"name": "getHomeLoan",
					"outputs": [],
					"stateMutability": "payable",
					"type": "function"
				},
				{
					"inputs": [],
					"name": "getHomeLoanDetails",
					"outputs": [
						{
							"internalType": "string",
							"name": "Type",
							"type": "string"
						},
						{
							"internalType": "uint256",
							"name": "loanAmount",
							"type": "uint256"
						},
						{
							"internalType": "uint256",
							"name": "noOfEmiPending",
							"type": "uint256"
						},
						{
							"internalType": "uint256",
							"name": "EmiAmount",
							"type": "uint256"
						}
					],
					"stateMutability": "view",
					"type": "function"
				},
				{
					"inputs": [
						{
							"internalType": "uint256",
							"name": "loanAmount",
							"type": "uint256"
						},
						{
							"internalType": "uint256",
							"name": "timeInMonths",
							"type": "uint256"
						}
					],
					"name": "getPersonalLoan",
					"outputs": [],
					"stateMutability": "payable",
					"type": "function"
				},
				{
					"inputs": [],
					"name": "getPersonalLoanDetails",
					"outputs": [
						{
							"internalType": "string",
							"name": "Type",
							"type": "string"
						},
						{
							"internalType": "uint256",
							"name": "loanAmount",
							"type": "uint256"
						},
						{
							"internalType": "uint256",
							"name": "noOfEmiPending",
							"type": "uint256"
						},
						{
							"internalType": "uint256",
							"name": "EmiAmount",
							"type": "uint256"
						}
					],
					"stateMutability": "view",
					"type": "function"
				},
				{
					"inputs": [],
					"name": "getTotalBankBalance",
					"outputs": [
						{
							"internalType": "uint256",
							"name": "",
							"type": "uint256"
						}
					],
					"stateMutability": "view",
					"type": "function"
				},
				{
					"inputs": [],
					"name": "loanLimit",
					"outputs": [
						{
							"internalType": "uint256",
							"name": "",
							"type": "uint256"
						}
					],
					"stateMutability": "view",
					"type": "function"
				},
				{
					"inputs": [
						{
							"internalType": "string",
							"name": "Type",
							"type": "string"
						}
					],
					"name": "payEMI",
					"outputs": [],
					"stateMutability": "payable",
					"type": "function"
				},
				{
					"inputs": [
						{
							"internalType": "uint256",
							"name": "amount",
							"type": "uint256"
						}
					],
					"name": "withdraw",
					"outputs": [],
					"stateMutability": "nonpayable",
					"type": "function"
				}
			],
			"devdoc": {
				"kind": "dev",
				"methods": {},
				"version": 1
			},
			"evm": {
				"assembly": "    /* \"Project/dynamicBanl.sol\":66:8512  contract Bank {... */\n  mstore(0x40, 0x80)\n  callvalue\n  dup1\n  iszero\n  tag_1\n  jumpi\n  0x00\n  dup1\n  revert\ntag_1:\n  pop\n  dataSize(sub_0)\n  dup1\n  dataOffset(sub_0)\n  0x00\n  codecopy\n  0x00\n  return\nstop\n\nsub_0: assembly {\n        /* \"Project/dynamicBanl.sol\":66:8512  contract Bank {... */\n      mstore(0x40, 0x80)\n      jumpi(tag_1, lt(calldatasize, 0x04))\n      shr(0xe0, calldataload(0x00))\n      dup1\n      0xad81fced\n      gt\n      tag_15\n      jumpi\n      dup1\n      0xb9ccbfae\n      gt\n      tag_16\n      jumpi\n      dup1\n      0xb9ccbfae\n      eq\n      tag_11\n      jumpi\n      dup1\n      0xd0e30db0\n      eq\n      tag_12\n      jumpi\n      dup1\n      0xedda5012\n      eq\n      tag_13\n      jumpi\n      dup1\n      0xfb7a3bdf\n      eq\n      tag_14\n      jumpi\n      jump(tag_1)\n    tag_16:\n      dup1\n      0xad81fced\n      eq\n      tag_8\n      jumpi\n      dup1\n      0xaf105ba7\n      eq\n      tag_9\n      jumpi\n      dup1\n      0xb6207402\n      eq\n      tag_10\n      jumpi\n      jump(tag_1)\n    tag_15:\n      dup1\n      0x0696d74a\n      eq\n      tag_2\n      jumpi\n      dup1\n      0x2e1a7d4d\n      eq\n      tag_3\n      jumpi\n      dup1\n      0x38a2ca40\n      eq\n      tag_4\n      jumpi\n      dup1\n      0x4b674096\n      eq\n      tag_5\n      jumpi\n      dup1\n      0x5415cf03\n      eq\n      tag_6\n      jumpi\n      dup1\n      0x8dd09d0b\n      eq\n      tag_7\n      jumpi\n    tag_1:\n      0x00\n      dup1\n      revert\n        /* \"Project/dynamicBanl.sol\":3913:4728  function getPersonalLoan(uint256 loanAmount, uint256 timeInMonths)... */\n    tag_2:\n      tag_17\n      0x04\n      dup1\n      calldatasize\n      sub\n      dup2\n      add\n      swap1\n      tag_18\n      swap2\n      swap1\n      tag_19\n      jump\t// in\n    tag_18:\n      tag_20\n      jump\t// in\n    tag_17:\n      stop\n        /* \"Project/dynamicBanl.sol\":1730:2331  function withdraw(uint256 amount) public {... */\n    tag_3:\n      callvalue\n      dup1\n      iszero\n      tag_21\n      jumpi\n      0x00\n      dup1\n      revert\n    tag_21:\n      pop\n      tag_22\n      0x04\n      dup1\n      calldatasize\n      sub\n      dup2\n      add\n      swap1\n      tag_23\n      swap2\n      swap1\n      tag_24\n      jump\t// in\n    tag_23:\n      tag_25\n      jump\t// in\n    tag_22:\n      stop\n        /* \"Project/dynamicBanl.sol\":1150:1258  function getTotalBankBalance() public view returns (uint256) {... */\n    tag_4:\n      callvalue\n      dup1\n      iszero\n      tag_26\n      jumpi\n      0x00\n      dup1\n      revert\n    tag_26:\n      pop\n      tag_27\n      tag_28\n      jump\t// in\n    tag_27:\n      mload(0x40)\n      tag_29\n      swap2\n      swap1\n      tag_30\n      jump\t// in\n    tag_29:\n      mload(0x40)\n      dup1\n      swap2\n      sub\n      swap1\n      return\n        /* \"Project/dynamicBanl.sol\":2339:3114  function getCarLoan(uint256 loanAmount, uint256 timeInMonths)... */\n    tag_5:\n      tag_31\n      0x04\n      dup1\n      calldatasize\n      sub\n      dup2\n      add\n      swap1\n      tag_32\n      swap2\n      swap1\n      tag_19\n      jump\t// in\n    tag_32:\n      tag_33\n      jump\t// in\n    tag_31:\n      stop\n        /* \"Project/dynamicBanl.sol\":3122:3905  function getHomeLoan(uint256 loanAmount, uint256 timeInMonths)... */\n    tag_6:\n      tag_34\n      0x04\n      dup1\n      calldatasize\n      sub\n      dup2\n      add\n      swap1\n      tag_35\n      swap2\n      swap1\n      tag_19\n      jump\t// in\n    tag_35:\n      tag_36\n      jump\t// in\n    tag_34:\n      stop\n        /* \"Project/dynamicBanl.sol\":381:424  mapping(address => User) public UserAddress */\n    tag_7:\n      callvalue\n      dup1\n      iszero\n      tag_37\n      jumpi\n      0x00\n      dup1\n      revert\n    tag_37:\n      pop\n      tag_38\n      0x04\n      dup1\n      calldatasize\n      sub\n      dup2\n      add\n      swap1\n      tag_39\n      swap2\n      swap1\n      tag_40\n      jump\t// in\n    tag_39:\n      tag_41\n      jump\t// in\n    tag_38:\n      mload(0x40)\n      tag_42\n      swap3\n      swap2\n      swap1\n      tag_43\n      jump\t// in\n    tag_42:\n      mload(0x40)\n      dup1\n      swap2\n      sub\n      swap1\n      return\n        /* \"Project/dynamicBanl.sol\":87:111  uint256 public loanLimit */\n    tag_8:\n      callvalue\n      dup1\n      iszero\n      tag_44\n      jumpi\n      0x00\n      dup1\n      revert\n    tag_44:\n      pop\n      tag_45\n      tag_46\n      jump\t// in\n    tag_45:\n      mload(0x40)\n      tag_47\n      swap2\n      swap1\n      tag_30\n      jump\t// in\n    tag_47:\n      mload(0x40)\n      dup1\n      swap2\n      sub\n      swap1\n      return\n        /* \"Project/dynamicBanl.sol\":5698:6020  function getCarLoanDetails()... */\n    tag_9:\n      callvalue\n      dup1\n      iszero\n      tag_48\n      jumpi\n      0x00\n      dup1\n      revert\n    tag_48:\n      pop\n      tag_49\n      tag_50\n      jump\t// in\n    tag_49:\n      mload(0x40)\n      tag_51\n      swap5\n      swap4\n      swap3\n      swap2\n      swap1\n      tag_52\n      jump\t// in\n    tag_51:\n      mload(0x40)\n      dup1\n      swap2\n      sub\n      swap1\n      return\n        /* \"Project/dynamicBanl.sol\":6028:6352  function getHomeLoanDetails()... */\n    tag_10:\n      callvalue\n      dup1\n      iszero\n      tag_53\n      jumpi\n      0x00\n      dup1\n      revert\n    tag_53:\n      pop\n      tag_54\n      tag_55\n      jump\t// in\n    tag_54:\n      mload(0x40)\n      tag_56\n      swap5\n      swap4\n      swap3\n      swap2\n      swap1\n      tag_52\n      jump\t// in\n    tag_56:\n      mload(0x40)\n      dup1\n      swap2\n      sub\n      swap1\n      return\n        /* \"Project/dynamicBanl.sol\":1266:1408  function AddLoanLimit() public payable {... */\n    tag_11:\n      tag_57\n      tag_58\n      jump\t// in\n    tag_57:\n      stop\n        /* \"Project/dynamicBanl.sol\":1416:1722  function deposit() public payable {... */\n    tag_12:\n      tag_59\n      tag_60\n      jump\t// in\n    tag_59:\n      stop\n        /* \"Project/dynamicBanl.sol\":6360:6692  function getPersonalLoanDetails()... */\n    tag_13:\n      callvalue\n      dup1\n      iszero\n      tag_61\n      jumpi\n      0x00\n      dup1\n      revert\n    tag_61:\n      pop\n      tag_62\n      tag_63\n      jump\t// in\n    tag_62:\n      mload(0x40)\n      tag_64\n      swap5\n      swap4\n      swap3\n      swap2\n      swap1\n      tag_52\n      jump\t// in\n    tag_64:\n      mload(0x40)\n      dup1\n      swap2\n      sub\n      swap1\n      return\n        /* \"Project/dynamicBanl.sol\":7181:8509  function payEMI(string memory Type) public payable {... */\n    tag_14:\n      tag_65\n      0x04\n      dup1\n      calldatasize\n      sub\n      dup2\n      add\n      swap1\n      tag_66\n      swap2\n      swap1\n      tag_67\n      jump\t// in\n    tag_66:\n      tag_68\n      jump\t// in\n    tag_65:\n      stop\n        /* \"Project/dynamicBanl.sol\":3913:4728  function getPersonalLoan(uint256 loanAmount, uint256 timeInMonths)... */\n    tag_20:\n        /* \"Project/dynamicBanl.sol\":4029:4080  loanValidator(msg.sender, loanAmount, timeInMonths) */\n      tag_70\n        /* \"Project/dynamicBanl.sol\":4043:4053  msg.sender */\n      caller\n        /* \"Project/dynamicBanl.sol\":4055:4065  loanAmount */\n      dup4\n        /* \"Project/dynamicBanl.sol\":4067:4079  timeInMonths */\n      dup4\n        /* \"Project/dynamicBanl.sol\":4029:4042  loanValidator */\n      tag_71\n        /* \"Project/dynamicBanl.sol\":4029:4080  loanValidator(msg.sender, loanAmount, timeInMonths) */\n      jump\t// in\n    tag_70:\n      pop\n        /* \"Project/dynamicBanl.sol\":4093:4105  uint256 rate */\n      0x00\n        /* \"Project/dynamicBanl.sol\":4108:4110  20 */\n      0x14\n        /* \"Project/dynamicBanl.sol\":4093:4110  uint256 rate = 20 */\n      swap1\n      pop\n        /* \"Project/dynamicBanl.sol\":4123:4134  uint256 EMI */\n      0x00\n        /* \"Project/dynamicBanl.sol\":4137:4181  calculateEmi(rate, loanAmount, timeInMonths) */\n      tag_72\n        /* \"Project/dynamicBanl.sol\":4150:4154  rate */\n      dup3\n        /* \"Project/dynamicBanl.sol\":4156:4166  loanAmount */\n      dup6\n        /* \"Project/dynamicBanl.sol\":4168:4180  timeInMonths */\n      dup6\n        /* \"Project/dynamicBanl.sol\":4137:4149  calculateEmi */\n      tag_73\n        /* \"Project/dynamicBanl.sol\":4137:4181  calculateEmi(rate, loanAmount, timeInMonths) */\n      jump\t// in\n    tag_72:\n        /* \"Project/dynamicBanl.sol\":4123:4181  uint256 EMI = calculateEmi(rate, loanAmount, timeInMonths) */\n      swap1\n      pop\n        /* \"Project/dynamicBanl.sol\":4194:4244  LoanType[\"Personal\"][msg.sender].Type = \"Personal\" */\n      mload(0x40)\n      dup1\n      0x40\n      add\n      0x40\n      mstore\n      dup1\n      0x08\n      dup2\n      mstore\n      0x20\n      add\n      0x506572736f6e616c000000000000000000000000000000000000000000000000\n      dup2\n      mstore\n      pop\n        /* \"Project/dynamicBanl.sol\":4194:4202  LoanType */\n      0x02\n        /* \"Project/dynamicBanl.sol\":4194:4214  LoanType[\"Personal\"] */\n      mload(0x40)\n      tag_74\n      swap1\n      tag_75\n      jump\t// in\n    tag_74:\n      swap1\n      dup2\n      mstore\n      0x20\n      add\n      mload(0x40)\n      dup1\n      swap2\n      sub\n      swap1\n      keccak256\n        /* \"Project/dynamicBanl.sol\":4194:4226  LoanType[\"Personal\"][msg.sender] */\n      0x00\n        /* \"Project/dynamicBanl.sol\":4215:4225  msg.sender */\n      caller\n        /* \"Project/dynamicBanl.sol\":4194:4226  LoanType[\"Personal\"][msg.sender] */\n      0xffffffffffffffffffffffffffffffffffffffff\n      and\n      0xffffffffffffffffffffffffffffffffffffffff\n      and\n      dup2\n      mstore\n      0x20\n      add\n      swap1\n      dup2\n      mstore\n      0x20\n      add\n      0x00\n      keccak256\n        /* \"Project/dynamicBanl.sol\":4194:4231  LoanType[\"Personal\"][msg.sender].Type */\n      0x00\n      add\n        /* \"Project/dynamicBanl.sol\":4194:4244  LoanType[\"Personal\"][msg.sender].Type = \"Personal\" */\n      swap1\n      dup2\n      tag_76\n      swap2\n      swap1\n      tag_77\n      jump\t// in\n    tag_76:\n      pop\n        /* \"Project/dynamicBanl.sol\":4303:4306  EMI */\n      dup1\n        /* \"Project/dynamicBanl.sol\":4257:4265  LoanType */\n      0x02\n        /* \"Project/dynamicBanl.sol\":4257:4277  LoanType[\"Personal\"] */\n      mload(0x40)\n      tag_78\n      swap1\n      tag_75\n      jump\t// in\n    tag_78:\n      swap1\n      dup2\n      mstore\n      0x20\n      add\n      mload(0x40)\n      dup1\n      swap2\n      sub\n      swap1\n      keccak256\n        /* \"Project/dynamicBanl.sol\":4257:4289  LoanType[\"Personal\"][msg.sender] */\n      0x00\n        /* \"Project/dynamicBanl.sol\":4278:4288  msg.sender */\n      caller\n        /* \"Project/dynamicBanl.sol\":4257:4289  LoanType[\"Personal\"][msg.sender] */\n      0xffffffffffffffffffffffffffffffffffffffff\n      and\n      0xffffffffffffffffffffffffffffffffffffffff\n      and\n      dup2\n      mstore\n      0x20\n      add\n      swap1\n      dup2\n      mstore\n      0x20\n      add\n      0x00\n      keccak256\n        /* \"Project/dynamicBanl.sol\":4257:4299  LoanType[\"Personal\"][msg.sender].EmiAmount */\n      0x03\n      add\n      0x00\n        /* \"Project/dynamicBanl.sol\":4257:4306  LoanType[\"Personal\"][msg.sender].EmiAmount += EMI */\n      dup3\n      dup3\n      sload\n      tag_79\n      swap2\n      swap1\n      tag_80\n      jump\t// in\n    tag_79:\n      swap3\n      pop\n      pop\n      dup2\n      swap1\n      sstore\n      pop\n        /* \"Project/dynamicBanl.sol\":4370:4382  timeInMonths */\n      dup3\n        /* \"Project/dynamicBanl.sol\":4319:4327  LoanType */\n      0x02\n        /* \"Project/dynamicBanl.sol\":4319:4339  LoanType[\"Personal\"] */\n      mload(0x40)\n      tag_81\n      swap1\n      tag_75\n      jump\t// in\n    tag_81:\n      swap1\n      dup2\n      mstore\n      0x20\n      add\n      mload(0x40)\n      dup1\n      swap2\n      sub\n      swap1\n      keccak256\n        /* \"Project/dynamicBanl.sol\":4319:4351  LoanType[\"Personal\"][msg.sender] */\n      0x00\n        /* \"Project/dynamicBanl.sol\":4340:4350  msg.sender */\n      caller\n        /* \"Project/dynamicBanl.sol\":4319:4351  LoanType[\"Personal\"][msg.sender] */\n      0xffffffffffffffffffffffffffffffffffffffff\n      and\n      0xffffffffffffffffffffffffffffffffffffffff\n      and\n      dup2\n      mstore\n      0x20\n      add\n      swap1\n      dup2\n      mstore\n      0x20\n      add\n      0x00\n      keccak256\n        /* \"Project/dynamicBanl.sol\":4319:4366  LoanType[\"Personal\"][msg.sender].noOfEmiPending */\n      0x02\n      add\n      0x00\n        /* \"Project/dynamicBanl.sol\":4319:4382  LoanType[\"Personal\"][msg.sender].noOfEmiPending += timeInMonths */\n      dup3\n      dup3\n      sload\n      tag_82\n      swap2\n      swap1\n      tag_80\n      jump\t// in\n    tag_82:\n      swap3\n      pop\n      pop\n      dup2\n      swap1\n      sstore\n      pop\n        /* \"Project/dynamicBanl.sol\":4442:4452  loanAmount */\n      dup4\n        /* \"Project/dynamicBanl.sol\":4395:4403  LoanType */\n      0x02\n        /* \"Project/dynamicBanl.sol\":4395:4415  LoanType[\"Personal\"] */\n      mload(0x40)\n      tag_83\n      swap1\n      tag_75\n      jump\t// in\n    tag_83:\n      swap1\n      dup2\n      mstore\n      0x20\n      add\n      mload(0x40)\n      dup1\n      swap2\n      sub\n      swap1\n      keccak256\n        /* \"Project/dynamicBanl.sol\":4395:4427  LoanType[\"Personal\"][msg.sender] */\n      0x00\n        /* \"Project/dynamicBanl.sol\":4416:4426  msg.sender */\n      caller\n        /* \"Project/dynamicBanl.sol\":4395:4427  LoanType[\"Personal\"][msg.sender] */\n      0xffffffffffffffffffffffffffffffffffffffff\n      and\n      0xffffffffffffffffffffffffffffffffffffffff\n      and\n      dup2\n      mstore\n      0x20\n      add\n      swap1\n      dup2\n      mstore\n      0x20\n      add\n      0x00\n      keccak256\n        /* \"Project/dynamicBanl.sol\":4395:4438  LoanType[\"Personal\"][msg.sender].loanAmount */\n      0x01\n      add\n      0x00\n        /* \"Project/dynamicBanl.sol\":4395:4452  LoanType[\"Personal\"][msg.sender].loanAmount += loanAmount */\n      dup3\n      dup3\n      sload\n      tag_84\n      swap2\n      swap1\n      tag_80\n      jump\t// in\n    tag_84:\n      swap3\n      pop\n      pop\n      dup2\n      swap1\n      sstore\n      pop\n        /* \"Project/dynamicBanl.sol\":4508:4518  loanAmount */\n      dup4\n        /* \"Project/dynamicBanl.sol\":4465:4476  UserAddress */\n      0x01\n        /* \"Project/dynamicBanl.sol\":4465:4488  UserAddress[msg.sender] */\n      0x00\n        /* \"Project/dynamicBanl.sol\":4477:4487  msg.sender */\n      caller\n        /* \"Project/dynamicBanl.sol\":4465:4488  UserAddress[msg.sender] */\n      0xffffffffffffffffffffffffffffffffffffffff\n      and\n      0xffffffffffffffffffffffffffffffffffffffff\n      and\n      dup2\n      mstore\n      0x20\n      add\n      swap1\n      dup2\n      mstore\n      0x20\n      add\n      0x00\n      keccak256\n        /* \"Project/dynamicBanl.sol\":4465:4504  UserAddress[msg.sender].amountDeposited */\n      0x00\n      add\n      0x00\n        /* \"Project/dynamicBanl.sol\":4465:4518  UserAddress[msg.sender].amountDeposited += loanAmount */\n      dup3\n      dup3\n      sload\n      tag_85\n      swap2\n      swap1\n      tag_80\n      jump\t// in\n    tag_85:\n      swap3\n      pop\n      pop\n      dup2\n      swap1\n      sstore\n      pop\n        /* \"Project/dynamicBanl.sol\":4544:4554  loanAmount */\n      dup4\n        /* \"Project/dynamicBanl.sol\":4531:4540  loanLimit */\n      0x00\n      dup1\n        /* \"Project/dynamicBanl.sol\":4531:4554  loanLimit -= loanAmount */\n      dup3\n      dup3\n      sload\n      tag_86\n      swap2\n      swap1\n      tag_87\n      jump\t// in\n    tag_86:\n      swap3\n      pop\n      pop\n      dup2\n      swap1\n      sstore\n      pop\n        /* \"Project/dynamicBanl.sol\":4570:4720  personalLoanProcessed(... */\n      0xd8eee839117c5738e7e307646d6a4503ba5a27738370b5a27a0ee2b200c77650\n        /* \"Project/dynamicBanl.sol\":4606:4616  msg.sender */\n      caller\n        /* \"Project/dynamicBanl.sol\":4672:4682  loanAmount */\n      dup6\n        /* \"Project/dynamicBanl.sol\":4697:4709  timeInMonths */\n      dup6\n        /* \"Project/dynamicBanl.sol\":4570:4720  personalLoanProcessed(... */\n      mload(0x40)\n      tag_88\n      swap4\n      swap3\n      swap2\n      swap1\n      tag_89\n      jump\t// in\n    tag_88:\n      mload(0x40)\n      dup1\n      swap2\n      sub\n      swap1\n      log1\n        /* \"Project/dynamicBanl.sol\":4018:4728  {... */\n      pop\n      pop\n        /* \"Project/dynamicBanl.sol\":3913:4728  function getPersonalLoan(uint256 loanAmount, uint256 timeInMonths)... */\n      pop\n      pop\n      jump\t// out\n        /* \"Project/dynamicBanl.sol\":1730:2331  function withdraw(uint256 amount) public {... */\n    tag_25:\n        /* \"Project/dynamicBanl.sol\":1799:1800  0 */\n      0x00\n        /* \"Project/dynamicBanl.sol\":1790:1796  amount */\n      dup2\n        /* \"Project/dynamicBanl.sol\":1790:1800  amount > 0 */\n      gt\n        /* \"Project/dynamicBanl.sol\":1782:1830  require(amount > 0, \"Plzz withdraw some amount\") */\n      tag_91\n      jumpi\n      mload(0x40)\n      0x08c379a000000000000000000000000000000000000000000000000000000000\n      dup2\n      mstore\n      0x04\n      add\n      tag_92\n      swap1\n      tag_93\n      jump\t// in\n    tag_92:\n      mload(0x40)\n      dup1\n      swap2\n      sub\n      swap1\n      revert\n    tag_91:\n        /* \"Project/dynamicBanl.sol\":1892:1893  0 */\n      0x00\n        /* \"Project/dynamicBanl.sol\":1849:1860  UserAddress */\n      0x01\n        /* \"Project/dynamicBanl.sol\":1849:1872  UserAddress[msg.sender] */\n      0x00\n        /* \"Project/dynamicBanl.sol\":1861:1871  msg.sender */\n      caller\n        /* \"Project/dynamicBanl.sol\":1849:1872  UserAddress[msg.sender] */\n      0xffffffffffffffffffffffffffffffffffffffff\n      and\n      0xffffffffffffffffffffffffffffffffffffffff\n      and\n      dup2\n      mstore\n      0x20\n      add\n      swap1\n      dup2\n      mstore\n      0x20\n      add\n      0x00\n      keccak256\n        /* \"Project/dynamicBanl.sol\":1849:1888  UserAddress[msg.sender].amountDeposited */\n      0x00\n      add\n      sload\n        /* \"Project/dynamicBanl.sol\":1849:1893  UserAddress[msg.sender].amountDeposited != 0 */\n      sub\n        /* \"Project/dynamicBanl.sol\":1841:1911  require(UserAddress[msg.sender].amountDeposited != 0, \"No data exist\") */\n      tag_94\n      jumpi\n      mload(0x40)\n      0x08c379a000000000000000000000000000000000000000000000000000000000\n      dup2\n      mstore\n      0x04\n      add\n      tag_95\n      swap1\n      tag_96\n      jump\t// in\n    tag_95:\n      mload(0x40)\n      dup1\n      swap2\n      sub\n      swap1\n      revert\n    tag_94:\n        /* \"Project/dynamicBanl.sol\":1998:2007  1 minutes */\n      0x3c\n        /* \"Project/dynamicBanl.sol\":1962:1973  UserAddress */\n      0x01\n        /* \"Project/dynamicBanl.sol\":1962:1985  UserAddress[msg.sender] */\n      0x00\n        /* \"Project/dynamicBanl.sol\":1974:1984  msg.sender */\n      caller\n        /* \"Project/dynamicBanl.sol\":1962:1985  UserAddress[msg.sender] */\n      0xffffffffffffffffffffffffffffffffffffffff\n      and\n      0xffffffffffffffffffffffffffffffffffffffff\n      and\n      dup2\n      mstore\n      0x20\n      add\n      swap1\n      dup2\n      mstore\n      0x20\n      add\n      0x00\n      keccak256\n        /* \"Project/dynamicBanl.sol\":1962:1995  UserAddress[msg.sender].timeStamp */\n      0x01\n      add\n      sload\n        /* \"Project/dynamicBanl.sol\":1944:1959  block.timestamp */\n      timestamp\n        /* \"Project/dynamicBanl.sol\":1944:1995  block.timestamp - UserAddress[msg.sender].timeStamp */\n      tag_97\n      swap2\n      swap1\n      tag_87\n      jump\t// in\n    tag_97:\n        /* \"Project/dynamicBanl.sol\":1944:2007  block.timestamp - UserAddress[msg.sender].timeStamp > 1 minutes */\n      gt\n        /* \"Project/dynamicBanl.sol\":1922:2073  require(... */\n      tag_98\n      jumpi\n      mload(0x40)\n      0x08c379a000000000000000000000000000000000000000000000000000000000\n      dup2\n      mstore\n      0x04\n      add\n      tag_99\n      swap1\n      tag_100\n      jump\t// in\n    tag_99:\n      mload(0x40)\n      dup1\n      swap2\n      sub\n      swap1\n      revert\n    tag_98:\n        /* \"Project/dynamicBanl.sol\":2102:2113  UserAddress */\n      0x01\n        /* \"Project/dynamicBanl.sol\":2102:2125  UserAddress[msg.sender] */\n      0x00\n        /* \"Project/dynamicBanl.sol\":2114:2124  msg.sender */\n      caller\n        /* \"Project/dynamicBanl.sol\":2102:2125  UserAddress[msg.sender] */\n      0xffffffffffffffffffffffffffffffffffffffff\n      and\n      0xffffffffffffffffffffffffffffffffffffffff\n      and\n      dup2\n      mstore\n      0x20\n      add\n      swap1\n      dup2\n      mstore\n      0x20\n      add\n      0x00\n      keccak256\n        /* \"Project/dynamicBanl.sol\":2102:2141  UserAddress[msg.sender].amountDeposited */\n      0x00\n      add\n      sload\n        /* \"Project/dynamicBanl.sol\":2092:2098  amount */\n      dup2\n        /* \"Project/dynamicBanl.sol\":2092:2141  amount <= UserAddress[msg.sender].amountDeposited */\n      gt\n      iszero\n        /* \"Project/dynamicBanl.sol\":2084:2142  require(amount <= UserAddress[msg.sender].amountDeposited) */\n      tag_101\n      jumpi\n      0x00\n      dup1\n      revert\n    tag_101:\n        /* \"Project/dynamicBanl.sol\":2198:2204  amount */\n      dup1\n        /* \"Project/dynamicBanl.sol\":2155:2166  UserAddress */\n      0x01\n        /* \"Project/dynamicBanl.sol\":2155:2178  UserAddress[msg.sender] */\n      0x00\n        /* \"Project/dynamicBanl.sol\":2167:2177  msg.sender */\n      caller\n        /* \"Project/dynamicBanl.sol\":2155:2178  UserAddress[msg.sender] */\n      0xffffffffffffffffffffffffffffffffffffffff\n      and\n      0xffffffffffffffffffffffffffffffffffffffff\n      and\n      dup2\n      mstore\n      0x20\n      add\n      swap1\n      dup2\n      mstore\n      0x20\n      add\n      0x00\n      keccak256\n        /* \"Project/dynamicBanl.sol\":2155:2194  UserAddress[msg.sender].amountDeposited */\n      0x00\n      add\n      0x00\n        /* \"Project/dynamicBanl.sol\":2155:2204  UserAddress[msg.sender].amountDeposited -= amount */\n      dup3\n      dup3\n      sload\n      tag_102\n      swap2\n      swap1\n      tag_87\n      jump\t// in\n    tag_102:\n      swap3\n      pop\n      pop\n      dup2\n      swap1\n      sstore\n      pop\n        /* \"Project/dynamicBanl.sol\":2225:2235  msg.sender */\n      caller\n        /* \"Project/dynamicBanl.sol\":2217:2245  payable(msg.sender).transfer */\n      0xffffffffffffffffffffffffffffffffffffffff\n      and\n        /* \"Project/dynamicBanl.sol\":2217:2253  payable(msg.sender).transfer(amount) */\n      0x08fc\n        /* \"Project/dynamicBanl.sol\":2246:2252  amount */\n      dup3\n        /* \"Project/dynamicBanl.sol\":2217:2253  payable(msg.sender).transfer(amount) */\n      swap1\n      dup2\n      iszero\n      mul\n      swap1\n      mload(0x40)\n      0x00\n      mload(0x40)\n      dup1\n      dup4\n      sub\n      dup2\n      dup6\n      dup9\n      dup9\n      call\n      swap4\n      pop\n      pop\n      pop\n      pop\n      iszero\n      dup1\n      iszero\n      tag_104\n      jumpi\n      returndatasize\n      0x00\n      dup1\n      returndatacopy\n      revert(0x00, returndatasize)\n    tag_104:\n      pop\n        /* \"Project/dynamicBanl.sol\":2271:2323  amountWithdrawn(msg.sender, \"has withdrawn\", amount) */\n      0x22efff027d211a482d0ead24fca8715139a94fb5c85b4604dcb3f3df332facb3\n        /* \"Project/dynamicBanl.sol\":2287:2297  msg.sender */\n      caller\n        /* \"Project/dynamicBanl.sol\":2316:2322  amount */\n      dup3\n        /* \"Project/dynamicBanl.sol\":2271:2323  amountWithdrawn(msg.sender, \"has withdrawn\", amount) */\n      mload(0x40)\n      tag_105\n      swap3\n      swap2\n      swap1\n      tag_106\n      jump\t// in\n    tag_105:\n      mload(0x40)\n      dup1\n      swap2\n      sub\n      swap1\n      log1\n        /* \"Project/dynamicBanl.sol\":1730:2331  function withdraw(uint256 amount) public {... */\n      pop\n      jump\t// out\n        /* \"Project/dynamicBanl.sol\":1150:1258  function getTotalBankBalance() public view returns (uint256) {... */\n    tag_28:\n        /* \"Project/dynamicBanl.sol\":1202:1209  uint256 */\n      0x00\n        /* \"Project/dynamicBanl.sol\":1229:1250  address(this).balance */\n      selfbalance\n        /* \"Project/dynamicBanl.sol\":1222:1250  return address(this).balance */\n      swap1\n      pop\n        /* \"Project/dynamicBanl.sol\":1150:1258  function getTotalBankBalance() public view returns (uint256) {... */\n      swap1\n      jump\t// out\n        /* \"Project/dynamicBanl.sol\":2339:3114  function getCarLoan(uint256 loanAmount, uint256 timeInMonths)... */\n    tag_33:\n        /* \"Project/dynamicBanl.sol\":2450:2501  loanValidator(msg.sender, loanAmount, timeInMonths) */\n      tag_109\n        /* \"Project/dynamicBanl.sol\":2464:2474  msg.sender */\n      caller\n        /* \"Project/dynamicBanl.sol\":2476:2486  loanAmount */\n      dup4\n        /* \"Project/dynamicBanl.sol\":2488:2500  timeInMonths */\n      dup4\n        /* \"Project/dynamicBanl.sol\":2450:2463  loanValidator */\n      tag_71\n        /* \"Project/dynamicBanl.sol\":2450:2501  loanValidator(msg.sender, loanAmount, timeInMonths) */\n      jump\t// in\n    tag_109:\n      pop\n        /* \"Project/dynamicBanl.sol\":2514:2526  uint256 rate */\n      0x00\n        /* \"Project/dynamicBanl.sol\":2529:2531  12 */\n      0x0c\n        /* \"Project/dynamicBanl.sol\":2514:2531  uint256 rate = 12 */\n      swap1\n      pop\n        /* \"Project/dynamicBanl.sol\":2544:2555  uint256 EMI */\n      0x00\n        /* \"Project/dynamicBanl.sol\":2558:2602  calculateEmi(rate, loanAmount, timeInMonths) */\n      tag_110\n        /* \"Project/dynamicBanl.sol\":2571:2575  rate */\n      dup3\n        /* \"Project/dynamicBanl.sol\":2577:2587  loanAmount */\n      dup6\n        /* \"Project/dynamicBanl.sol\":2589:2601  timeInMonths */\n      dup6\n        /* \"Project/dynamicBanl.sol\":2558:2570  calculateEmi */\n      tag_73\n        /* \"Project/dynamicBanl.sol\":2558:2602  calculateEmi(rate, loanAmount, timeInMonths) */\n      jump\t// in\n    tag_110:\n        /* \"Project/dynamicBanl.sol\":2544:2602  uint256 EMI = calculateEmi(rate, loanAmount, timeInMonths) */\n      swap1\n      pop\n        /* \"Project/dynamicBanl.sol\":2615:2655  LoanType[\"Car\"][msg.sender].Type = \"Car\" */\n      mload(0x40)\n      dup1\n      0x40\n      add\n      0x40\n      mstore\n      dup1\n      0x03\n      dup2\n      mstore\n      0x20\n      add\n      0x4361720000000000000000000000000000000000000000000000000000000000\n      dup2\n      mstore\n      pop\n        /* \"Project/dynamicBanl.sol\":2615:2623  LoanType */\n      0x02\n        /* \"Project/dynamicBanl.sol\":2615:2630  LoanType[\"Car\"] */\n      mload(0x40)\n      tag_111\n      swap1\n      tag_112\n      jump\t// in\n    tag_111:\n      swap1\n      dup2\n      mstore\n      0x20\n      add\n      mload(0x40)\n      dup1\n      swap2\n      sub\n      swap1\n      keccak256\n        /* \"Project/dynamicBanl.sol\":2615:2642  LoanType[\"Car\"][msg.sender] */\n      0x00\n        /* \"Project/dynamicBanl.sol\":2631:2641  msg.sender */\n      caller\n        /* \"Project/dynamicBanl.sol\":2615:2642  LoanType[\"Car\"][msg.sender] */\n      0xffffffffffffffffffffffffffffffffffffffff\n      and\n      0xffffffffffffffffffffffffffffffffffffffff\n      and\n      dup2\n      mstore\n      0x20\n      add\n      swap1\n      dup2\n      mstore\n      0x20\n      add\n      0x00\n      keccak256\n        /* \"Project/dynamicBanl.sol\":2615:2647  LoanType[\"Car\"][msg.sender].Type */\n      0x00\n      add\n        /* \"Project/dynamicBanl.sol\":2615:2655  LoanType[\"Car\"][msg.sender].Type = \"Car\" */\n      swap1\n      dup2\n      tag_113\n      swap2\n      swap1\n      tag_77\n      jump\t// in\n    tag_113:\n      pop\n        /* \"Project/dynamicBanl.sol\":2709:2712  EMI */\n      dup1\n        /* \"Project/dynamicBanl.sol\":2668:2676  LoanType */\n      0x02\n        /* \"Project/dynamicBanl.sol\":2668:2683  LoanType[\"Car\"] */\n      mload(0x40)\n      tag_114\n      swap1\n      tag_112\n      jump\t// in\n    tag_114:\n      swap1\n      dup2\n      mstore\n      0x20\n      add\n      mload(0x40)\n      dup1\n      swap2\n      sub\n      swap1\n      keccak256\n        /* \"Project/dynamicBanl.sol\":2668:2695  LoanType[\"Car\"][msg.sender] */\n      0x00\n        /* \"Project/dynamicBanl.sol\":2684:2694  msg.sender */\n      caller\n        /* \"Project/dynamicBanl.sol\":2668:2695  LoanType[\"Car\"][msg.sender] */\n      0xffffffffffffffffffffffffffffffffffffffff\n      and\n      0xffffffffffffffffffffffffffffffffffffffff\n      and\n      dup2\n      mstore\n      0x20\n      add\n      swap1\n      dup2\n      mstore\n      0x20\n      add\n      0x00\n      keccak256\n        /* \"Project/dynamicBanl.sol\":2668:2705  LoanType[\"Car\"][msg.sender].EmiAmount */\n      0x03\n      add\n      0x00\n        /* \"Project/dynamicBanl.sol\":2668:2712  LoanType[\"Car\"][msg.sender].EmiAmount += EMI */\n      dup3\n      dup3\n      sload\n      tag_115\n      swap2\n      swap1\n      tag_80\n      jump\t// in\n    tag_115:\n      swap3\n      pop\n      pop\n      dup2\n      swap1\n      sstore\n      pop\n        /* \"Project/dynamicBanl.sol\":2771:2783  timeInMonths */\n      dup3\n        /* \"Project/dynamicBanl.sol\":2725:2733  LoanType */\n      0x02\n        /* \"Project/dynamicBanl.sol\":2725:2740  LoanType[\"Car\"] */\n      mload(0x40)\n      tag_116\n      swap1\n      tag_112\n      jump\t// in\n    tag_116:\n      swap1\n      dup2\n      mstore\n      0x20\n      add\n      mload(0x40)\n      dup1\n      swap2\n      sub\n      swap1\n      keccak256\n        /* \"Project/dynamicBanl.sol\":2725:2752  LoanType[\"Car\"][msg.sender] */\n      0x00\n        /* \"Project/dynamicBanl.sol\":2741:2751  msg.sender */\n      caller\n        /* \"Project/dynamicBanl.sol\":2725:2752  LoanType[\"Car\"][msg.sender] */\n      0xffffffffffffffffffffffffffffffffffffffff\n      and\n      0xffffffffffffffffffffffffffffffffffffffff\n      and\n      dup2\n      mstore\n      0x20\n      add\n      swap1\n      dup2\n      mstore\n      0x20\n      add\n      0x00\n      keccak256\n        /* \"Project/dynamicBanl.sol\":2725:2767  LoanType[\"Car\"][msg.sender].noOfEmiPending */\n      0x02\n      add\n      0x00\n        /* \"Project/dynamicBanl.sol\":2725:2783  LoanType[\"Car\"][msg.sender].noOfEmiPending += timeInMonths */\n      dup3\n      dup3\n      sload\n      tag_117\n      swap2\n      swap1\n      tag_80\n      jump\t// in\n    tag_117:\n      swap3\n      pop\n      pop\n      dup2\n      swap1\n      sstore\n      pop\n        /* \"Project/dynamicBanl.sol\":2838:2848  loanAmount */\n      dup4\n        /* \"Project/dynamicBanl.sol\":2796:2804  LoanType */\n      0x02\n        /* \"Project/dynamicBanl.sol\":2796:2811  LoanType[\"Car\"] */\n      mload(0x40)\n      tag_118\n      swap1\n      tag_112\n      jump\t// in\n    tag_118:\n      swap1\n      dup2\n      mstore\n      0x20\n      add\n      mload(0x40)\n      dup1\n      swap2\n      sub\n      swap1\n      keccak256\n        /* \"Project/dynamicBanl.sol\":2796:2823  LoanType[\"Car\"][msg.sender] */\n      0x00\n        /* \"Project/dynamicBanl.sol\":2812:2822  msg.sender */\n      caller\n        /* \"Project/dynamicBanl.sol\":2796:2823  LoanType[\"Car\"][msg.sender] */\n      0xffffffffffffffffffffffffffffffffffffffff\n      and\n      0xffffffffffffffffffffffffffffffffffffffff\n      and\n      dup2\n      mstore\n      0x20\n      add\n      swap1\n      dup2\n      mstore\n      0x20\n      add\n      0x00\n      keccak256\n        /* \"Project/dynamicBanl.sol\":2796:2834  LoanType[\"Car\"][msg.sender].loanAmount */\n      0x01\n      add\n      0x00\n        /* \"Project/dynamicBanl.sol\":2796:2848  LoanType[\"Car\"][msg.sender].loanAmount += loanAmount */\n      dup3\n      dup3\n      sload\n      tag_119\n      swap2\n      swap1\n      tag_80\n      jump\t// in\n    tag_119:\n      swap3\n      pop\n      pop\n      dup2\n      swap1\n      sstore\n      pop\n        /* \"Project/dynamicBanl.sol\":2904:2914  loanAmount */\n      dup4\n        /* \"Project/dynamicBanl.sol\":2861:2872  UserAddress */\n      0x01\n        /* \"Project/dynamicBanl.sol\":2861:2884  UserAddress[msg.sender] */\n      0x00\n        /* \"Project/dynamicBanl.sol\":2873:2883  msg.sender */\n      caller\n        /* \"Project/dynamicBanl.sol\":2861:2884  UserAddress[msg.sender] */\n      0xffffffffffffffffffffffffffffffffffffffff\n      and\n      0xffffffffffffffffffffffffffffffffffffffff\n      and\n      dup2\n      mstore\n      0x20\n      add\n      swap1\n      dup2\n      mstore\n      0x20\n      add\n      0x00\n      keccak256\n        /* \"Project/dynamicBanl.sol\":2861:2900  UserAddress[msg.sender].amountDeposited */\n      0x00\n      add\n      0x00\n        /* \"Project/dynamicBanl.sol\":2861:2914  UserAddress[msg.sender].amountDeposited += loanAmount */\n      dup3\n      dup3\n      sload\n      tag_120\n      swap2\n      swap1\n      tag_80\n      jump\t// in\n    tag_120:\n      swap3\n      pop\n      pop\n      dup2\n      swap1\n      sstore\n      pop\n        /* \"Project/dynamicBanl.sol\":2940:2950  loanAmount */\n      dup4\n        /* \"Project/dynamicBanl.sol\":2927:2936  loanLimit */\n      0x00\n      dup1\n        /* \"Project/dynamicBanl.sol\":2927:2950  loanLimit -= loanAmount */\n      dup3\n      dup3\n      sload\n      tag_121\n      swap2\n      swap1\n      tag_87\n      jump\t// in\n    tag_121:\n      swap3\n      pop\n      pop\n      dup2\n      swap1\n      sstore\n      pop\n        /* \"Project/dynamicBanl.sol\":2966:3106  carLoanProcessed(... */\n      0x11edf0146ca6e5e8c3e8be9354dbf4fc478507648f8a692c6b08f7d50c96f89e\n        /* \"Project/dynamicBanl.sol\":2997:3007  msg.sender */\n      caller\n        /* \"Project/dynamicBanl.sol\":3058:3068  loanAmount */\n      dup6\n        /* \"Project/dynamicBanl.sol\":3083:3095  timeInMonths */\n      dup6\n        /* \"Project/dynamicBanl.sol\":2966:3106  carLoanProcessed(... */\n      mload(0x40)\n      tag_122\n      swap4\n      swap3\n      swap2\n      swap1\n      tag_123\n      jump\t// in\n    tag_122:\n      mload(0x40)\n      dup1\n      swap2\n      sub\n      swap1\n      log1\n        /* \"Project/dynamicBanl.sol\":2439:3114  {... */\n      pop\n      pop\n        /* \"Project/dynamicBanl.sol\":2339:3114  function getCarLoan(uint256 loanAmount, uint256 timeInMonths)... */\n      pop\n      pop\n      jump\t// out\n        /* \"Project/dynamicBanl.sol\":3122:3905  function getHomeLoan(uint256 loanAmount, uint256 timeInMonths)... */\n    tag_36:\n        /* \"Project/dynamicBanl.sol\":3234:3285  loanValidator(msg.sender, loanAmount, timeInMonths) */\n      tag_125\n        /* \"Project/dynamicBanl.sol\":3248:3258  msg.sender */\n      caller\n        /* \"Project/dynamicBanl.sol\":3260:3270  loanAmount */\n      dup4\n        /* \"Project/dynamicBanl.sol\":3272:3284  timeInMonths */\n      dup4\n        /* \"Project/dynamicBanl.sol\":3234:3247  loanValidator */\n      tag_71\n        /* \"Project/dynamicBanl.sol\":3234:3285  loanValidator(msg.sender, loanAmount, timeInMonths) */\n      jump\t// in\n    tag_125:\n      pop\n        /* \"Project/dynamicBanl.sol\":3298:3310  uint256 rate */\n      0x00\n        /* \"Project/dynamicBanl.sol\":3313:3315  16 */\n      0x10\n        /* \"Project/dynamicBanl.sol\":3298:3315  uint256 rate = 16 */\n      swap1\n      pop\n        /* \"Project/dynamicBanl.sol\":3328:3339  uint256 EMI */\n      0x00\n        /* \"Project/dynamicBanl.sol\":3342:3386  calculateEmi(rate, loanAmount, timeInMonths) */\n      tag_126\n        /* \"Project/dynamicBanl.sol\":3355:3359  rate */\n      dup3\n        /* \"Project/dynamicBanl.sol\":3361:3371  loanAmount */\n      dup6\n        /* \"Project/dynamicBanl.sol\":3373:3385  timeInMonths */\n      dup6\n        /* \"Project/dynamicBanl.sol\":3342:3354  calculateEmi */\n      tag_73\n        /* \"Project/dynamicBanl.sol\":3342:3386  calculateEmi(rate, loanAmount, timeInMonths) */\n      jump\t// in\n    tag_126:\n        /* \"Project/dynamicBanl.sol\":3328:3386  uint256 EMI = calculateEmi(rate, loanAmount, timeInMonths) */\n      swap1\n      pop\n        /* \"Project/dynamicBanl.sol\":3399:3441  LoanType[\"Home\"][msg.sender].Type = \"Home\" */\n      mload(0x40)\n      dup1\n      0x40\n      add\n      0x40\n      mstore\n      dup1\n      0x04\n      dup2\n      mstore\n      0x20\n      add\n      0x486f6d6500000000000000000000000000000000000000000000000000000000\n      dup2\n      mstore\n      pop\n        /* \"Project/dynamicBanl.sol\":3399:3407  LoanType */\n      0x02\n        /* \"Project/dynamicBanl.sol\":3399:3415  LoanType[\"Home\"] */\n      mload(0x40)\n      tag_127\n      swap1\n      tag_128\n      jump\t// in\n    tag_127:\n      swap1\n      dup2\n      mstore\n      0x20\n      add\n      mload(0x40)\n      dup1\n      swap2\n      sub\n      swap1\n      keccak256\n        /* \"Project/dynamicBanl.sol\":3399:3427  LoanType[\"Home\"][msg.sender] */\n      0x00\n        /* \"Project/dynamicBanl.sol\":3416:3426  msg.sender */\n      caller\n        /* \"Project/dynamicBanl.sol\":3399:3427  LoanType[\"Home\"][msg.sender] */\n      0xffffffffffffffffffffffffffffffffffffffff\n      and\n      0xffffffffffffffffffffffffffffffffffffffff\n      and\n      dup2\n      mstore\n      0x20\n      add\n      swap1\n      dup2\n      mstore\n      0x20\n      add\n      0x00\n      keccak256\n        /* \"Project/dynamicBanl.sol\":3399:3432  LoanType[\"Home\"][msg.sender].Type */\n      0x00\n      add\n        /* \"Project/dynamicBanl.sol\":3399:3441  LoanType[\"Home\"][msg.sender].Type = \"Home\" */\n      swap1\n      dup2\n      tag_129\n      swap2\n      swap1\n      tag_77\n      jump\t// in\n    tag_129:\n      pop\n        /* \"Project/dynamicBanl.sol\":3496:3499  EMI */\n      dup1\n        /* \"Project/dynamicBanl.sol\":3454:3462  LoanType */\n      0x02\n        /* \"Project/dynamicBanl.sol\":3454:3470  LoanType[\"Home\"] */\n      mload(0x40)\n      tag_130\n      swap1\n      tag_128\n      jump\t// in\n    tag_130:\n      swap1\n      dup2\n      mstore\n      0x20\n      add\n      mload(0x40)\n      dup1\n      swap2\n      sub\n      swap1\n      keccak256\n        /* \"Project/dynamicBanl.sol\":3454:3482  LoanType[\"Home\"][msg.sender] */\n      0x00\n        /* \"Project/dynamicBanl.sol\":3471:3481  msg.sender */\n      caller\n        /* \"Project/dynamicBanl.sol\":3454:3482  LoanType[\"Home\"][msg.sender] */\n      0xffffffffffffffffffffffffffffffffffffffff\n      and\n      0xffffffffffffffffffffffffffffffffffffffff\n      and\n      dup2\n      mstore\n      0x20\n      add\n      swap1\n      dup2\n      mstore\n      0x20\n      add\n      0x00\n      keccak256\n        /* \"Project/dynamicBanl.sol\":3454:3492  LoanType[\"Home\"][msg.sender].EmiAmount */\n      0x03\n      add\n      0x00\n        /* \"Project/dynamicBanl.sol\":3454:3499  LoanType[\"Home\"][msg.sender].EmiAmount += EMI */\n      dup3\n      dup3\n      sload\n      tag_131\n      swap2\n      swap1\n      tag_80\n      jump\t// in\n    tag_131:\n      swap3\n      pop\n      pop\n      dup2\n      swap1\n      sstore\n      pop\n        /* \"Project/dynamicBanl.sol\":3559:3571  timeInMonths */\n      dup3\n        /* \"Project/dynamicBanl.sol\":3512:3520  LoanType */\n      0x02\n        /* \"Project/dynamicBanl.sol\":3512:3528  LoanType[\"Home\"] */\n      mload(0x40)\n      tag_132\n      swap1\n      tag_128\n      jump\t// in\n    tag_132:\n      swap1\n      dup2\n      mstore\n      0x20\n      add\n      mload(0x40)\n      dup1\n      swap2\n      sub\n      swap1\n      keccak256\n        /* \"Project/dynamicBanl.sol\":3512:3540  LoanType[\"Home\"][msg.sender] */\n      0x00\n        /* \"Project/dynamicBanl.sol\":3529:3539  msg.sender */\n      caller\n        /* \"Project/dynamicBanl.sol\":3512:3540  LoanType[\"Home\"][msg.sender] */\n      0xffffffffffffffffffffffffffffffffffffffff\n      and\n      0xffffffffffffffffffffffffffffffffffffffff\n      and\n      dup2\n      mstore\n      0x20\n      add\n      swap1\n      dup2\n      mstore\n      0x20\n      add\n      0x00\n      keccak256\n        /* \"Project/dynamicBanl.sol\":3512:3555  LoanType[\"Home\"][msg.sender].noOfEmiPending */\n      0x02\n      add\n      0x00\n        /* \"Project/dynamicBanl.sol\":3512:3571  LoanType[\"Home\"][msg.sender].noOfEmiPending += timeInMonths */\n      dup3\n      dup3\n      sload\n      tag_133\n      swap2\n      swap1\n      tag_80\n      jump\t// in\n    tag_133:\n      swap3\n      pop\n      pop\n      dup2\n      swap1\n      sstore\n      pop\n        /* \"Project/dynamicBanl.sol\":3627:3637  loanAmount */\n      dup4\n        /* \"Project/dynamicBanl.sol\":3584:3592  LoanType */\n      0x02\n        /* \"Project/dynamicBanl.sol\":3584:3600  LoanType[\"Home\"] */\n      mload(0x40)\n      tag_134\n      swap1\n      tag_128\n      jump\t// in\n    tag_134:\n      swap1\n      dup2\n      mstore\n      0x20\n      add\n      mload(0x40)\n      dup1\n      swap2\n      sub\n      swap1\n      keccak256\n        /* \"Project/dynamicBanl.sol\":3584:3612  LoanType[\"Home\"][msg.sender] */\n      0x00\n        /* \"Project/dynamicBanl.sol\":3601:3611  msg.sender */\n      caller\n        /* \"Project/dynamicBanl.sol\":3584:3612  LoanType[\"Home\"][msg.sender] */\n      0xffffffffffffffffffffffffffffffffffffffff\n      and\n      0xffffffffffffffffffffffffffffffffffffffff\n      and\n      dup2\n      mstore\n      0x20\n      add\n      swap1\n      dup2\n      mstore\n      0x20\n      add\n      0x00\n      keccak256\n        /* \"Project/dynamicBanl.sol\":3584:3623  LoanType[\"Home\"][msg.sender].loanAmount */\n      0x01\n      add\n      0x00\n        /* \"Project/dynamicBanl.sol\":3584:3637  LoanType[\"Home\"][msg.sender].loanAmount += loanAmount */\n      dup3\n      dup3\n      sload\n      tag_135\n      swap2\n      swap1\n      tag_80\n      jump\t// in\n    tag_135:\n      swap3\n      pop\n      pop\n      dup2\n      swap1\n      sstore\n      pop\n        /* \"Project/dynamicBanl.sol\":3693:3703  loanAmount */\n      dup4\n        /* \"Project/dynamicBanl.sol\":3650:3661  UserAddress */\n      0x01\n        /* \"Project/dynamicBanl.sol\":3650:3673  UserAddress[msg.sender] */\n      0x00\n        /* \"Project/dynamicBanl.sol\":3662:3672  msg.sender */\n      caller\n        /* \"Project/dynamicBanl.sol\":3650:3673  UserAddress[msg.sender] */\n      0xffffffffffffffffffffffffffffffffffffffff\n      and\n      0xffffffffffffffffffffffffffffffffffffffff\n      and\n      dup2\n      mstore\n      0x20\n      add\n      swap1\n      dup2\n      mstore\n      0x20\n      add\n      0x00\n      keccak256\n        /* \"Project/dynamicBanl.sol\":3650:3689  UserAddress[msg.sender].amountDeposited */\n      0x00\n      add\n      0x00\n        /* \"Project/dynamicBanl.sol\":3650:3703  UserAddress[msg.sender].amountDeposited += loanAmount */\n      dup3\n      dup3\n      sload\n      tag_136\n      swap2\n      swap1\n      tag_80\n      jump\t// in\n    tag_136:\n      swap3\n      pop\n      pop\n      dup2\n      swap1\n      sstore\n      pop\n        /* \"Project/dynamicBanl.sol\":3729:3739  loanAmount */\n      dup4\n        /* \"Project/dynamicBanl.sol\":3716:3725  loanLimit */\n      0x00\n      dup1\n        /* \"Project/dynamicBanl.sol\":3716:3739  loanLimit -= loanAmount */\n      dup3\n      dup3\n      sload\n      tag_137\n      swap2\n      swap1\n      tag_87\n      jump\t// in\n    tag_137:\n      swap3\n      pop\n      pop\n      dup2\n      swap1\n      sstore\n      pop\n        /* \"Project/dynamicBanl.sol\":3755:3897  homeLoanProcessed(... */\n      0x2cfdeffc4a4d732916a5a326810c043d0be4a1b4e21e7f8af7282ff45c5ed66f\n        /* \"Project/dynamicBanl.sol\":3787:3797  msg.sender */\n      caller\n        /* \"Project/dynamicBanl.sol\":3849:3859  loanAmount */\n      dup6\n        /* \"Project/dynamicBanl.sol\":3874:3886  timeInMonths */\n      dup6\n        /* \"Project/dynamicBanl.sol\":3755:3897  homeLoanProcessed(... */\n      mload(0x40)\n      tag_138\n      swap4\n      swap3\n      swap2\n      swap1\n      tag_139\n      jump\t// in\n    tag_138:\n      mload(0x40)\n      dup1\n      swap2\n      sub\n      swap1\n      log1\n        /* \"Project/dynamicBanl.sol\":3223:3905  {... */\n      pop\n      pop\n        /* \"Project/dynamicBanl.sol\":3122:3905  function getHomeLoan(uint256 loanAmount, uint256 timeInMonths)... */\n      pop\n      pop\n      jump\t// out\n        /* \"Project/dynamicBanl.sol\":381:424  mapping(address => User) public UserAddress */\n    tag_41:\n      mstore(0x20, 0x01)\n      dup1\n      0x00\n      mstore\n      keccak256(0x00, 0x40)\n      0x00\n      swap2\n      pop\n      swap1\n      pop\n      dup1\n      0x00\n      add\n      sload\n      swap1\n      dup1\n      0x01\n      add\n      sload\n      swap1\n      pop\n      dup3\n      jump\t// out\n        /* \"Project/dynamicBanl.sol\":87:111  uint256 public loanLimit */\n    tag_46:\n      sload(0x00)\n      dup2\n      jump\t// out\n        /* \"Project/dynamicBanl.sol\":5698:6020  function getCarLoanDetails()... */\n    tag_50:\n        /* \"Project/dynamicBanl.sol\":5789:5807  string memory Type */\n      0x60\n        /* \"Project/dynamicBanl.sol\":5822:5840  uint256 loanAmount */\n      0x00\n        /* \"Project/dynamicBanl.sol\":5855:5877  uint256 noOfEmiPending */\n      dup1\n        /* \"Project/dynamicBanl.sol\":5892:5909  uint256 EmiAmount */\n      0x00\n        /* \"Project/dynamicBanl.sol\":5937:5956  string memory _type */\n      dup1\n        /* \"Project/dynamicBanl.sol\":5937:5964  string memory _type = \"Car\" */\n      mload(0x40)\n      dup1\n      0x40\n      add\n      0x40\n      mstore\n      dup1\n      0x03\n      dup2\n      mstore\n      0x20\n      add\n      0x4361720000000000000000000000000000000000000000000000000000000000\n      dup2\n      mstore\n      pop\n      swap1\n      pop\n        /* \"Project/dynamicBanl.sol\":5982:6012  loanDetails(_type, msg.sender) */\n      tag_141\n        /* \"Project/dynamicBanl.sol\":5994:5999  _type */\n      dup2\n        /* \"Project/dynamicBanl.sol\":6001:6011  msg.sender */\n      caller\n        /* \"Project/dynamicBanl.sol\":5982:5993  loanDetails */\n      tag_142\n        /* \"Project/dynamicBanl.sol\":5982:6012  loanDetails(_type, msg.sender) */\n      jump\t// in\n    tag_141:\n        /* \"Project/dynamicBanl.sol\":5975:6012  return loanDetails(_type, msg.sender) */\n      swap5\n      pop\n      swap5\n      pop\n      swap5\n      pop\n      swap5\n      pop\n      pop\n        /* \"Project/dynamicBanl.sol\":5698:6020  function getCarLoanDetails()... */\n      swap1\n      swap2\n      swap3\n      swap4\n      jump\t// out\n        /* \"Project/dynamicBanl.sol\":6028:6352  function getHomeLoanDetails()... */\n    tag_55:\n        /* \"Project/dynamicBanl.sol\":6120:6138  string memory Type */\n      0x60\n        /* \"Project/dynamicBanl.sol\":6153:6171  uint256 loanAmount */\n      0x00\n        /* \"Project/dynamicBanl.sol\":6186:6208  uint256 noOfEmiPending */\n      dup1\n        /* \"Project/dynamicBanl.sol\":6223:6240  uint256 EmiAmount */\n      0x00\n        /* \"Project/dynamicBanl.sol\":6268:6287  string memory _type */\n      dup1\n        /* \"Project/dynamicBanl.sol\":6268:6296  string memory _type = \"Home\" */\n      mload(0x40)\n      dup1\n      0x40\n      add\n      0x40\n      mstore\n      dup1\n      0x04\n      dup2\n      mstore\n      0x20\n      add\n      0x486f6d6500000000000000000000000000000000000000000000000000000000\n      dup2\n      mstore\n      pop\n      swap1\n      pop\n        /* \"Project/dynamicBanl.sol\":6314:6344  loanDetails(_type, msg.sender) */\n      tag_144\n        /* \"Project/dynamicBanl.sol\":6326:6331  _type */\n      dup2\n        /* \"Project/dynamicBanl.sol\":6333:6343  msg.sender */\n      caller\n        /* \"Project/dynamicBanl.sol\":6314:6325  loanDetails */\n      tag_142\n        /* \"Project/dynamicBanl.sol\":6314:6344  loanDetails(_type, msg.sender) */\n      jump\t// in\n    tag_144:\n        /* \"Project/dynamicBanl.sol\":6307:6344  return loanDetails(_type, msg.sender) */\n      swap5\n      pop\n      swap5\n      pop\n      swap5\n      pop\n      swap5\n      pop\n      pop\n        /* \"Project/dynamicBanl.sol\":6028:6352  function getHomeLoanDetails()... */\n      swap1\n      swap2\n      swap3\n      swap4\n      jump\t// out\n        /* \"Project/dynamicBanl.sol\":1266:1408  function AddLoanLimit() public payable {... */\n    tag_58:\n        /* \"Project/dynamicBanl.sol\":1336:1337  0 */\n      0x00\n        /* \"Project/dynamicBanl.sol\":1324:1333  msg.value */\n      callvalue\n        /* \"Project/dynamicBanl.sol\":1324:1337  msg.value > 0 */\n      gt\n        /* \"Project/dynamicBanl.sol\":1316:1367  require(msg.value > 0, \"Plzz deposite some amount\") */\n      tag_146\n      jumpi\n      mload(0x40)\n      0x08c379a000000000000000000000000000000000000000000000000000000000\n      dup2\n      mstore\n      0x04\n      add\n      tag_147\n      swap1\n      tag_148\n      jump\t// in\n    tag_147:\n      mload(0x40)\n      dup1\n      swap2\n      sub\n      swap1\n      revert\n    tag_146:\n        /* \"Project/dynamicBanl.sol\":1391:1400  msg.value */\n      callvalue\n        /* \"Project/dynamicBanl.sol\":1378:1387  loanLimit */\n      0x00\n      dup1\n        /* \"Project/dynamicBanl.sol\":1378:1400  loanLimit += msg.value */\n      dup3\n      dup3\n      sload\n      tag_149\n      swap2\n      swap1\n      tag_80\n      jump\t// in\n    tag_149:\n      swap3\n      pop\n      pop\n      dup2\n      swap1\n      sstore\n      pop\n        /* \"Project/dynamicBanl.sol\":1266:1408  function AddLoanLimit() public payable {... */\n      jump\t// out\n        /* \"Project/dynamicBanl.sol\":1416:1722  function deposit() public payable {... */\n    tag_60:\n        /* \"Project/dynamicBanl.sol\":1481:1482  0 */\n      0x00\n        /* \"Project/dynamicBanl.sol\":1469:1478  msg.value */\n      callvalue\n        /* \"Project/dynamicBanl.sol\":1469:1482  msg.value > 0 */\n      gt\n        /* \"Project/dynamicBanl.sol\":1461:1512  require(msg.value > 0, \"Plzz deposite some amount\") */\n      tag_151\n      jumpi\n      mload(0x40)\n      0x08c379a000000000000000000000000000000000000000000000000000000000\n      dup2\n      mstore\n      0x04\n      add\n      tag_152\n      swap1\n      tag_148\n      jump\t// in\n    tag_152:\n      mload(0x40)\n      dup1\n      swap2\n      sub\n      swap1\n      revert\n    tag_151:\n        /* \"Project/dynamicBanl.sol\":1568:1577  msg.value */\n      callvalue\n        /* \"Project/dynamicBanl.sol\":1525:1536  UserAddress */\n      0x01\n        /* \"Project/dynamicBanl.sol\":1525:1548  UserAddress[msg.sender] */\n      0x00\n        /* \"Project/dynamicBanl.sol\":1537:1547  msg.sender */\n      caller\n        /* \"Project/dynamicBanl.sol\":1525:1548  UserAddress[msg.sender] */\n      0xffffffffffffffffffffffffffffffffffffffff\n      and\n      0xffffffffffffffffffffffffffffffffffffffff\n      and\n      dup2\n      mstore\n      0x20\n      add\n      swap1\n      dup2\n      mstore\n      0x20\n      add\n      0x00\n      keccak256\n        /* \"Project/dynamicBanl.sol\":1525:1564  UserAddress[msg.sender].amountDeposited */\n      0x00\n      add\n      0x00\n        /* \"Project/dynamicBanl.sol\":1525:1577  UserAddress[msg.sender].amountDeposited += msg.value */\n      dup3\n      dup3\n      sload\n      tag_153\n      swap2\n      swap1\n      tag_80\n      jump\t// in\n    tag_153:\n      swap3\n      pop\n      pop\n      dup2\n      swap1\n      sstore\n      pop\n        /* \"Project/dynamicBanl.sol\":1626:1641  block.timestamp */\n      timestamp\n        /* \"Project/dynamicBanl.sol\":1590:1601  UserAddress */\n      0x01\n        /* \"Project/dynamicBanl.sol\":1590:1613  UserAddress[msg.sender] */\n      0x00\n        /* \"Project/dynamicBanl.sol\":1602:1612  msg.sender */\n      caller\n        /* \"Project/dynamicBanl.sol\":1590:1613  UserAddress[msg.sender] */\n      0xffffffffffffffffffffffffffffffffffffffff\n      and\n      0xffffffffffffffffffffffffffffffffffffffff\n      and\n      dup2\n      mstore\n      0x20\n      add\n      swap1\n      dup2\n      mstore\n      0x20\n      add\n      0x00\n      keccak256\n        /* \"Project/dynamicBanl.sol\":1590:1623  UserAddress[msg.sender].timeStamp */\n      0x01\n      add\n        /* \"Project/dynamicBanl.sol\":1590:1641  UserAddress[msg.sender].timeStamp = block.timestamp */\n      dup2\n      swap1\n      sstore\n      pop\n        /* \"Project/dynamicBanl.sol\":1659:1714  amountDeposited(msg.sender, \"has deposited\", msg.value) */\n      0x5752e81d3f840ed15d83846a26d47f1e7a1bf6fae1fa33acba2dec16780e6871\n        /* \"Project/dynamicBanl.sol\":1675:1685  msg.sender */\n      caller\n        /* \"Project/dynamicBanl.sol\":1704:1713  msg.value */\n      callvalue\n        /* \"Project/dynamicBanl.sol\":1659:1714  amountDeposited(msg.sender, \"has deposited\", msg.value) */\n      mload(0x40)\n      tag_154\n      swap3\n      swap2\n      swap1\n      tag_155\n      jump\t// in\n    tag_154:\n      mload(0x40)\n      dup1\n      swap2\n      sub\n      swap1\n      log1\n        /* \"Project/dynamicBanl.sol\":1416:1722  function deposit() public payable {... */\n      jump\t// out\n        /* \"Project/dynamicBanl.sol\":6360:6692  function getPersonalLoanDetails()... */\n    tag_63:\n        /* \"Project/dynamicBanl.sol\":6456:6474  string memory Type */\n      0x60\n        /* \"Project/dynamicBanl.sol\":6489:6507  uint256 loanAmount */\n      0x00\n        /* \"Project/dynamicBanl.sol\":6522:6544  uint256 noOfEmiPending */\n      dup1\n        /* \"Project/dynamicBanl.sol\":6559:6576  uint256 EmiAmount */\n      0x00\n        /* \"Project/dynamicBanl.sol\":6604:6623  string memory _type */\n      dup1\n        /* \"Project/dynamicBanl.sol\":6604:6636  string memory _type = \"Personal\" */\n      mload(0x40)\n      dup1\n      0x40\n      add\n      0x40\n      mstore\n      dup1\n      0x08\n      dup2\n      mstore\n      0x20\n      add\n      0x506572736f6e616c000000000000000000000000000000000000000000000000\n      dup2\n      mstore\n      pop\n      swap1\n      pop\n        /* \"Project/dynamicBanl.sol\":6654:6684  loanDetails(_type, msg.sender) */\n      tag_157\n        /* \"Project/dynamicBanl.sol\":6666:6671  _type */\n      dup2\n        /* \"Project/dynamicBanl.sol\":6673:6683  msg.sender */\n      caller\n        /* \"Project/dynamicBanl.sol\":6654:6665  loanDetails */\n      tag_142\n        /* \"Project/dynamicBanl.sol\":6654:6684  loanDetails(_type, msg.sender) */\n      jump\t// in\n    tag_157:\n        /* \"Project/dynamicBanl.sol\":6647:6684  return loanDetails(_type, msg.sender) */\n      swap5\n      pop\n      swap5\n      pop\n      swap5\n      pop\n      swap5\n      pop\n      pop\n        /* \"Project/dynamicBanl.sol\":6360:6692  function getPersonalLoanDetails()... */\n      swap1\n      swap2\n      swap3\n      swap4\n      jump\t// out\n        /* \"Project/dynamicBanl.sol\":7181:8509  function payEMI(string memory Type) public payable {... */\n    tag_68:\n        /* \"Project/dynamicBanl.sol\":7306:7323  abi.encode(\"Car\") */\n      add(0x20, mload(0x40))\n      tag_159\n      swap1\n      tag_160\n      jump\t// in\n    tag_159:\n      mload(0x40)\n      0x20\n      dup2\n      dup4\n      sub\n      sub\n      dup2\n      mstore\n      swap1\n      0x40\n      mstore\n        /* \"Project/dynamicBanl.sol\":7296:7324  keccak256(abi.encode(\"Car\")) */\n      dup1\n      mload\n      swap1\n      0x20\n      add\n      keccak256\n        /* \"Project/dynamicBanl.sol\":7286:7290  Type */\n      dup2\n        /* \"Project/dynamicBanl.sol\":7275:7291  abi.encode(Type) */\n      add(0x20, mload(0x40))\n      tag_161\n      swap2\n      swap1\n      tag_162\n      jump\t// in\n    tag_161:\n      mload(0x40)\n      0x20\n      dup2\n      dup4\n      sub\n      sub\n      dup2\n      mstore\n      swap1\n      0x40\n      mstore\n        /* \"Project/dynamicBanl.sol\":7265:7292  keccak256(abi.encode(Type)) */\n      dup1\n      mload\n      swap1\n      0x20\n      add\n      keccak256\n        /* \"Project/dynamicBanl.sol\":7265:7324  keccak256(abi.encode(Type)) == keccak256(abi.encode(\"Car\")) */\n      eq\n        /* \"Project/dynamicBanl.sol\":7265:7405  keccak256(abi.encode(Type)) == keccak256(abi.encode(\"Car\")) ||... */\n      dup1\n      tag_163\n      jumpi\n      pop\n        /* \"Project/dynamicBanl.sol\":7386:7404  abi.encode(\"Home\") */\n      add(0x20, mload(0x40))\n      tag_164\n      swap1\n      tag_165\n      jump\t// in\n    tag_164:\n      mload(0x40)\n      0x20\n      dup2\n      dup4\n      sub\n      sub\n      dup2\n      mstore\n      swap1\n      0x40\n      mstore\n        /* \"Project/dynamicBanl.sol\":7376:7405  keccak256(abi.encode(\"Home\")) */\n      dup1\n      mload\n      swap1\n      0x20\n      add\n      keccak256\n        /* \"Project/dynamicBanl.sol\":7366:7370  Type */\n      dup2\n        /* \"Project/dynamicBanl.sol\":7355:7371  abi.encode(Type) */\n      add(0x20, mload(0x40))\n      tag_166\n      swap2\n      swap1\n      tag_162\n      jump\t// in\n    tag_166:\n      mload(0x40)\n      0x20\n      dup2\n      dup4\n      sub\n      sub\n      dup2\n      mstore\n      swap1\n      0x40\n      mstore\n        /* \"Project/dynamicBanl.sol\":7345:7372  keccak256(abi.encode(Type)) */\n      dup1\n      mload\n      swap1\n      0x20\n      add\n      keccak256\n        /* \"Project/dynamicBanl.sol\":7345:7405  keccak256(abi.encode(Type)) == keccak256(abi.encode(\"Home\")) */\n      eq\n        /* \"Project/dynamicBanl.sol\":7265:7405  keccak256(abi.encode(Type)) == keccak256(abi.encode(\"Car\")) ||... */\n    tag_163:\n        /* \"Project/dynamicBanl.sol\":7265:7507  keccak256(abi.encode(Type)) == keccak256(abi.encode(\"Car\")) ||... */\n      dup1\n      tag_167\n      jumpi\n      pop\n        /* \"Project/dynamicBanl.sol\":7484:7506  abi.encode(\"Personal\") */\n      add(0x20, mload(0x40))\n      tag_168\n      swap1\n      tag_169\n      jump\t// in\n    tag_168:\n      mload(0x40)\n      0x20\n      dup2\n      dup4\n      sub\n      sub\n      dup2\n      mstore\n      swap1\n      0x40\n      mstore\n        /* \"Project/dynamicBanl.sol\":7474:7507  keccak256(abi.encode(\"Personal\")) */\n      dup1\n      mload\n      swap1\n      0x20\n      add\n      keccak256\n        /* \"Project/dynamicBanl.sol\":7447:7451  Type */\n      dup2\n        /* \"Project/dynamicBanl.sol\":7436:7452  abi.encode(Type) */\n      add(0x20, mload(0x40))\n      tag_170\n      swap2\n      swap1\n      tag_162\n      jump\t// in\n    tag_170:\n      mload(0x40)\n      0x20\n      dup2\n      dup4\n      sub\n      sub\n      dup2\n      mstore\n      swap1\n      0x40\n      mstore\n        /* \"Project/dynamicBanl.sol\":7426:7453  keccak256(abi.encode(Type)) */\n      dup1\n      mload\n      swap1\n      0x20\n      add\n      keccak256\n        /* \"Project/dynamicBanl.sol\":7426:7507  keccak256(abi.encode(Type)) ==... */\n      eq\n        /* \"Project/dynamicBanl.sol\":7265:7507  keccak256(abi.encode(Type)) == keccak256(abi.encode(\"Car\")) ||... */\n    tag_167:\n        /* \"Project/dynamicBanl.sol\":7243:7591  require(... */\n      tag_171\n      jumpi\n      mload(0x40)\n      0x08c379a000000000000000000000000000000000000000000000000000000000\n      dup2\n      mstore\n      0x04\n      add\n      tag_172\n      swap1\n      tag_173\n      jump\t// in\n    tag_172:\n      mload(0x40)\n      dup1\n      swap2\n      sub\n      swap1\n      revert\n    tag_171:\n        /* \"Project/dynamicBanl.sol\":7669:7670  0 */\n      0x00\n        /* \"Project/dynamicBanl.sol\":7624:7632  LoanType */\n      0x02\n        /* \"Project/dynamicBanl.sol\":7633:7637  Type */\n      dup3\n        /* \"Project/dynamicBanl.sol\":7624:7638  LoanType[Type] */\n      mload(0x40)\n      tag_174\n      swap2\n      swap1\n      tag_175\n      jump\t// in\n    tag_174:\n      swap1\n      dup2\n      mstore\n      0x20\n      add\n      mload(0x40)\n      dup1\n      swap2\n      sub\n      swap1\n      keccak256\n        /* \"Project/dynamicBanl.sol\":7624:7650  LoanType[Type][msg.sender] */\n      0x00\n        /* \"Project/dynamicBanl.sol\":7639:7649  msg.sender */\n      caller\n        /* \"Project/dynamicBanl.sol\":7624:7650  LoanType[Type][msg.sender] */\n      0xffffffffffffffffffffffffffffffffffffffff\n      and\n      0xffffffffffffffffffffffffffffffffffffffff\n      and\n      dup2\n      mstore\n      0x20\n      add\n      swap1\n      dup2\n      mstore\n      0x20\n      add\n      0x00\n      keccak256\n        /* \"Project/dynamicBanl.sol\":7624:7665  LoanType[Type][msg.sender].noOfEmiPending */\n      0x02\n      add\n      sload\n        /* \"Project/dynamicBanl.sol\":7624:7670  LoanType[Type][msg.sender].noOfEmiPending != 0 */\n      sub\n        /* \"Project/dynamicBanl.sol\":7602:7712  require(... */\n      tag_176\n      jumpi\n      mload(0x40)\n      0x08c379a000000000000000000000000000000000000000000000000000000000\n      dup2\n      mstore\n      0x04\n      add\n      tag_177\n      swap1\n      tag_178\n      jump\t// in\n    tag_177:\n      mload(0x40)\n      dup1\n      swap2\n      sub\n      swap1\n      revert\n    tag_176:\n        /* \"Project/dynamicBanl.sol\":7758:7766  LoanType */\n      0x02\n        /* \"Project/dynamicBanl.sol\":7767:7771  Type */\n      dup2\n        /* \"Project/dynamicBanl.sol\":7758:7772  LoanType[Type] */\n      mload(0x40)\n      tag_179\n      swap2\n      swap1\n      tag_175\n      jump\t// in\n    tag_179:\n      swap1\n      dup2\n      mstore\n      0x20\n      add\n      mload(0x40)\n      dup1\n      swap2\n      sub\n      swap1\n      keccak256\n        /* \"Project/dynamicBanl.sol\":7758:7784  LoanType[Type][msg.sender] */\n      0x00\n        /* \"Project/dynamicBanl.sol\":7773:7783  msg.sender */\n      caller\n        /* \"Project/dynamicBanl.sol\":7758:7784  LoanType[Type][msg.sender] */\n      0xffffffffffffffffffffffffffffffffffffffff\n      and\n      0xffffffffffffffffffffffffffffffffffffffff\n      and\n      dup2\n      mstore\n      0x20\n      add\n      swap1\n      dup2\n      mstore\n      0x20\n      add\n      0x00\n      keccak256\n        /* \"Project/dynamicBanl.sol\":7758:7794  LoanType[Type][msg.sender].EmiAmount */\n      0x03\n      add\n      sload\n        /* \"Project/dynamicBanl.sol\":7745:7754  msg.value */\n      callvalue\n        /* \"Project/dynamicBanl.sol\":7745:7794  msg.value == LoanType[Type][msg.sender].EmiAmount */\n      eq\n        /* \"Project/dynamicBanl.sol\":7723:7853  require(... */\n      tag_180\n      jumpi\n      mload(0x40)\n      0x08c379a000000000000000000000000000000000000000000000000000000000\n      dup2\n      mstore\n      0x04\n      add\n      tag_181\n      swap1\n      tag_182\n      jump\t// in\n    tag_181:\n      mload(0x40)\n      dup1\n      swap2\n      sub\n      swap1\n      revert\n    tag_180:\n        /* \"Project/dynamicBanl.sol\":7946:7953  30 days */\n      0x278d00\n        /* \"Project/dynamicBanl.sol\":7904:7912  LoanType */\n      0x02\n        /* \"Project/dynamicBanl.sol\":7913:7917  Type */\n      dup3\n        /* \"Project/dynamicBanl.sol\":7904:7918  LoanType[Type] */\n      mload(0x40)\n      tag_183\n      swap2\n      swap1\n      tag_175\n      jump\t// in\n    tag_183:\n      swap1\n      dup2\n      mstore\n      0x20\n      add\n      mload(0x40)\n      dup1\n      swap2\n      sub\n      swap1\n      keccak256\n        /* \"Project/dynamicBanl.sol\":7904:7930  LoanType[Type][msg.sender] */\n      0x00\n        /* \"Project/dynamicBanl.sol\":7919:7929  msg.sender */\n      caller\n        /* \"Project/dynamicBanl.sol\":7904:7930  LoanType[Type][msg.sender] */\n      0xffffffffffffffffffffffffffffffffffffffff\n      and\n      0xffffffffffffffffffffffffffffffffffffffff\n      and\n      dup2\n      mstore\n      0x20\n      add\n      swap1\n      dup2\n      mstore\n      0x20\n      add\n      0x00\n      keccak256\n        /* \"Project/dynamicBanl.sol\":7904:7943  LoanType[Type][msg.sender].EMItimestamp */\n      0x04\n      add\n      sload\n        /* \"Project/dynamicBanl.sol\":7886:7901  block.timestamp */\n      timestamp\n        /* \"Project/dynamicBanl.sol\":7886:7943  block.timestamp - LoanType[Type][msg.sender].EMItimestamp */\n      tag_184\n      swap2\n      swap1\n      tag_87\n      jump\t// in\n    tag_184:\n        /* \"Project/dynamicBanl.sol\":7886:7953  block.timestamp - LoanType[Type][msg.sender].EMItimestamp > 30 days */\n      gt\n        /* \"Project/dynamicBanl.sol\":7864:8023  require(... */\n      tag_185\n      jumpi\n      mload(0x40)\n      0x08c379a000000000000000000000000000000000000000000000000000000000\n      dup2\n      mstore\n      0x04\n      add\n      tag_186\n      swap1\n      tag_187\n      jump\t// in\n    tag_186:\n      mload(0x40)\n      dup1\n      swap2\n      sub\n      swap1\n      revert\n    tag_185:\n        /* \"Project/dynamicBanl.sol\":8079:8087  LoanType */\n      0x02\n        /* \"Project/dynamicBanl.sol\":8088:8092  Type */\n      dup2\n        /* \"Project/dynamicBanl.sol\":8079:8093  LoanType[Type] */\n      mload(0x40)\n      tag_188\n      swap2\n      swap1\n      tag_175\n      jump\t// in\n    tag_188:\n      swap1\n      dup2\n      mstore\n      0x20\n      add\n      mload(0x40)\n      dup1\n      swap2\n      sub\n      swap1\n      keccak256\n        /* \"Project/dynamicBanl.sol\":8079:8105  LoanType[Type][msg.sender] */\n      0x00\n        /* \"Project/dynamicBanl.sol\":8094:8104  msg.sender */\n      caller\n        /* \"Project/dynamicBanl.sol\":8079:8105  LoanType[Type][msg.sender] */\n      0xffffffffffffffffffffffffffffffffffffffff\n      and\n      0xffffffffffffffffffffffffffffffffffffffff\n      and\n      dup2\n      mstore\n      0x20\n      add\n      swap1\n      dup2\n      mstore\n      0x20\n      add\n      0x00\n      keccak256\n        /* \"Project/dynamicBanl.sol\":8079:8129  LoanType[Type][msg.sender]... */\n      0x03\n      add\n      sload\n        /* \"Project/dynamicBanl.sol\":8036:8047  UserAddress */\n      0x01\n        /* \"Project/dynamicBanl.sol\":8036:8059  UserAddress[msg.sender] */\n      0x00\n        /* \"Project/dynamicBanl.sol\":8048:8058  msg.sender */\n      caller\n        /* \"Project/dynamicBanl.sol\":8036:8059  UserAddress[msg.sender] */\n      0xffffffffffffffffffffffffffffffffffffffff\n      and\n      0xffffffffffffffffffffffffffffffffffffffff\n      and\n      dup2\n      mstore\n      0x20\n      add\n      swap1\n      dup2\n      mstore\n      0x20\n      add\n      0x00\n      keccak256\n        /* \"Project/dynamicBanl.sol\":8036:8075  UserAddress[msg.sender].amountDeposited */\n      0x00\n      add\n      0x00\n        /* \"Project/dynamicBanl.sol\":8036:8129  UserAddress[msg.sender].amountDeposited -= LoanType[Type][msg.sender]... */\n      dup3\n      dup3\n      sload\n      tag_189\n      swap2\n      swap1\n      tag_87\n      jump\t// in\n    tag_189:\n      swap3\n      pop\n      pop\n      dup2\n      swap1\n      sstore\n      pop\n        /* \"Project/dynamicBanl.sol\":8187:8188  1 */\n      0x01\n        /* \"Project/dynamicBanl.sol\":8142:8150  LoanType */\n      0x02\n        /* \"Project/dynamicBanl.sol\":8151:8155  Type */\n      dup3\n        /* \"Project/dynamicBanl.sol\":8142:8156  LoanType[Type] */\n      mload(0x40)\n      tag_190\n      swap2\n      swap1\n      tag_175\n      jump\t// in\n    tag_190:\n      swap1\n      dup2\n      mstore\n      0x20\n      add\n      mload(0x40)\n      dup1\n      swap2\n      sub\n      swap1\n      keccak256\n        /* \"Project/dynamicBanl.sol\":8142:8168  LoanType[Type][msg.sender] */\n      0x00\n        /* \"Project/dynamicBanl.sol\":8157:8167  msg.sender */\n      caller\n        /* \"Project/dynamicBanl.sol\":8142:8168  LoanType[Type][msg.sender] */\n      0xffffffffffffffffffffffffffffffffffffffff\n      and\n      0xffffffffffffffffffffffffffffffffffffffff\n      and\n      dup2\n      mstore\n      0x20\n      add\n      swap1\n      dup2\n      mstore\n      0x20\n      add\n      0x00\n      keccak256\n        /* \"Project/dynamicBanl.sol\":8142:8183  LoanType[Type][msg.sender].noOfEmiPending */\n      0x02\n      add\n      0x00\n        /* \"Project/dynamicBanl.sol\":8142:8188  LoanType[Type][msg.sender].noOfEmiPending -= 1 */\n      dup3\n      dup3\n      sload\n      tag_191\n      swap2\n      swap1\n      tag_87\n      jump\t// in\n    tag_191:\n      swap3\n      pop\n      pop\n      dup2\n      swap1\n      sstore\n      pop\n        /* \"Project/dynamicBanl.sol\":8242:8250  LoanType */\n      0x02\n        /* \"Project/dynamicBanl.sol\":8251:8255  Type */\n      dup2\n        /* \"Project/dynamicBanl.sol\":8242:8256  LoanType[Type] */\n      mload(0x40)\n      tag_192\n      swap2\n      swap1\n      tag_175\n      jump\t// in\n    tag_192:\n      swap1\n      dup2\n      mstore\n      0x20\n      add\n      mload(0x40)\n      dup1\n      swap2\n      sub\n      swap1\n      keccak256\n        /* \"Project/dynamicBanl.sol\":8242:8268  LoanType[Type][msg.sender] */\n      0x00\n        /* \"Project/dynamicBanl.sol\":8257:8267  msg.sender */\n      caller\n        /* \"Project/dynamicBanl.sol\":8242:8268  LoanType[Type][msg.sender] */\n      0xffffffffffffffffffffffffffffffffffffffff\n      and\n      0xffffffffffffffffffffffffffffffffffffffff\n      and\n      dup2\n      mstore\n      0x20\n      add\n      swap1\n      dup2\n      mstore\n      0x20\n      add\n      0x00\n      keccak256\n        /* \"Project/dynamicBanl.sol\":8242:8292  LoanType[Type][msg.sender]... */\n      0x03\n      add\n      sload\n        /* \"Project/dynamicBanl.sol\":8201:8209  LoanType */\n      0x02\n        /* \"Project/dynamicBanl.sol\":8210:8214  Type */\n      dup3\n        /* \"Project/dynamicBanl.sol\":8201:8215  LoanType[Type] */\n      mload(0x40)\n      tag_193\n      swap2\n      swap1\n      tag_175\n      jump\t// in\n    tag_193:\n      swap1\n      dup2\n      mstore\n      0x20\n      add\n      mload(0x40)\n      dup1\n      swap2\n      sub\n      swap1\n      keccak256\n        /* \"Project/dynamicBanl.sol\":8201:8227  LoanType[Type][msg.sender] */\n      0x00\n        /* \"Project/dynamicBanl.sol\":8216:8226  msg.sender */\n      caller\n        /* \"Project/dynamicBanl.sol\":8201:8227  LoanType[Type][msg.sender] */\n      0xffffffffffffffffffffffffffffffffffffffff\n      and\n      0xffffffffffffffffffffffffffffffffffffffff\n      and\n      dup2\n      mstore\n      0x20\n      add\n      swap1\n      dup2\n      mstore\n      0x20\n      add\n      0x00\n      keccak256\n        /* \"Project/dynamicBanl.sol\":8201:8238  LoanType[Type][msg.sender].loanAmount */\n      0x01\n      add\n      0x00\n        /* \"Project/dynamicBanl.sol\":8201:8292  LoanType[Type][msg.sender].loanAmount -= LoanType[Type][msg.sender]... */\n      dup3\n      dup3\n      sload\n      tag_194\n      swap2\n      swap1\n      tag_87\n      jump\t// in\n    tag_194:\n      swap3\n      pop\n      pop\n      dup2\n      swap1\n      sstore\n      pop\n        /* \"Project/dynamicBanl.sol\":8347:8362  block.timestamp */\n      timestamp\n        /* \"Project/dynamicBanl.sol\":8305:8313  LoanType */\n      0x02\n        /* \"Project/dynamicBanl.sol\":8314:8318  Type */\n      dup3\n        /* \"Project/dynamicBanl.sol\":8305:8319  LoanType[Type] */\n      mload(0x40)\n      tag_195\n      swap2\n      swap1\n      tag_175\n      jump\t// in\n    tag_195:\n      swap1\n      dup2\n      mstore\n      0x20\n      add\n      mload(0x40)\n      dup1\n      swap2\n      sub\n      swap1\n      keccak256\n        /* \"Project/dynamicBanl.sol\":8305:8331  LoanType[Type][msg.sender] */\n      0x00\n        /* \"Project/dynamicBanl.sol\":8320:8330  msg.sender */\n      caller\n        /* \"Project/dynamicBanl.sol\":8305:8331  LoanType[Type][msg.sender] */\n      0xffffffffffffffffffffffffffffffffffffffff\n      and\n      0xffffffffffffffffffffffffffffffffffffffff\n      and\n      dup2\n      mstore\n      0x20\n      add\n      swap1\n      dup2\n      mstore\n      0x20\n      add\n      0x00\n      keccak256\n        /* \"Project/dynamicBanl.sol\":8305:8344  LoanType[Type][msg.sender].EMItimestamp */\n      0x04\n      add\n        /* \"Project/dynamicBanl.sol\":8305:8362  LoanType[Type][msg.sender].EMItimestamp = block.timestamp */\n      dup2\n      swap1\n      sstore\n      pop\n        /* \"Project/dynamicBanl.sol\":8388:8396  LoanType */\n      0x02\n        /* \"Project/dynamicBanl.sol\":8397:8401  Type */\n      dup2\n        /* \"Project/dynamicBanl.sol\":8388:8402  LoanType[Type] */\n      mload(0x40)\n      tag_196\n      swap2\n      swap1\n      tag_175\n      jump\t// in\n    tag_196:\n      swap1\n      dup2\n      mstore\n      0x20\n      add\n      mload(0x40)\n      dup1\n      swap2\n      sub\n      swap1\n      keccak256\n        /* \"Project/dynamicBanl.sol\":8388:8414  LoanType[Type][msg.sender] */\n      0x00\n        /* \"Project/dynamicBanl.sol\":8403:8413  msg.sender */\n      caller\n        /* \"Project/dynamicBanl.sol\":8388:8414  LoanType[Type][msg.sender] */\n      0xffffffffffffffffffffffffffffffffffffffff\n      and\n      0xffffffffffffffffffffffffffffffffffffffff\n      and\n      dup2\n      mstore\n      0x20\n      add\n      swap1\n      dup2\n      mstore\n      0x20\n      add\n      0x00\n      keccak256\n        /* \"Project/dynamicBanl.sol\":8388:8424  LoanType[Type][msg.sender].EmiAmount */\n      0x03\n      add\n      sload\n        /* \"Project/dynamicBanl.sol\":8375:8384  loanLimit */\n      0x00\n      dup1\n        /* \"Project/dynamicBanl.sol\":8375:8424  loanLimit += LoanType[Type][msg.sender].EmiAmount */\n      dup3\n      dup3\n      sload\n      tag_197\n      swap2\n      swap1\n      tag_80\n      jump\t// in\n    tag_197:\n      swap3\n      pop\n      pop\n      dup2\n      swap1\n      sstore\n      pop\n        /* \"Project/dynamicBanl.sol\":8442:8501  EMIPaid(msg.sender, \"has paid his emi of\", Type, msg.value) */\n      0x8db1b7194c3e18eac06d46922e4732b787a3924d723613887c081ac8def42a35\n        /* \"Project/dynamicBanl.sol\":8450:8460  msg.sender */\n      caller\n        /* \"Project/dynamicBanl.sol\":8485:8489  Type */\n      dup3\n        /* \"Project/dynamicBanl.sol\":8491:8500  msg.value */\n      callvalue\n        /* \"Project/dynamicBanl.sol\":8442:8501  EMIPaid(msg.sender, \"has paid his emi of\", Type, msg.value) */\n      mload(0x40)\n      tag_198\n      swap4\n      swap3\n      swap2\n      swap1\n      tag_199\n      jump\t// in\n    tag_198:\n      mload(0x40)\n      dup1\n      swap2\n      sub\n      swap1\n      log1\n        /* \"Project/dynamicBanl.sol\":7181:8509  function payEMI(string memory Type) public payable {... */\n      pop\n      jump\t// out\n        /* \"Project/dynamicBanl.sol\":4736:5215  function loanValidator(... */\n    tag_71:\n        /* \"Project/dynamicBanl.sol\":4861:4865  bool */\n      0x00\n        /* \"Project/dynamicBanl.sol\":4925:4926  0 */\n      dup1\n        /* \"Project/dynamicBanl.sol\":4886:4897  UserAddress */\n      0x01\n        /* \"Project/dynamicBanl.sol\":4886:4905  UserAddress[sender] */\n      0x00\n        /* \"Project/dynamicBanl.sol\":4898:4904  sender */\n      dup7\n        /* \"Project/dynamicBanl.sol\":4886:4905  UserAddress[sender] */\n      0xffffffffffffffffffffffffffffffffffffffff\n      and\n      0xffffffffffffffffffffffffffffffffffffffff\n      and\n      dup2\n      mstore\n      0x20\n      add\n      swap1\n      dup2\n      mstore\n      0x20\n      add\n      0x00\n      keccak256\n        /* \"Project/dynamicBanl.sol\":4886:4921  UserAddress[sender].amountDeposited */\n      0x00\n      add\n      sload\n        /* \"Project/dynamicBanl.sol\":4886:4926  UserAddress[sender].amountDeposited != 0 */\n      sub\n        /* \"Project/dynamicBanl.sol\":4878:4944  require(UserAddress[sender].amountDeposited != 0, \"No data exist\") */\n      tag_201\n      jumpi\n      mload(0x40)\n      0x08c379a000000000000000000000000000000000000000000000000000000000\n      dup2\n      mstore\n      0x04\n      add\n      tag_202\n      swap1\n      tag_96\n      jump\t// in\n    tag_202:\n      mload(0x40)\n      dup1\n      swap2\n      sub\n      swap1\n      revert\n    tag_201:\n        /* \"Project/dynamicBanl.sol\":4989:4998  loanLimit */\n      sload(0x00)\n        /* \"Project/dynamicBanl.sol\":4979:4985  Amount */\n      dup4\n        /* \"Project/dynamicBanl.sol\":4979:4998  Amount <= loanLimit */\n      gt\n      iszero\n        /* \"Project/dynamicBanl.sol\":4979:5016  Amount <= loanLimit && Amount >= 1000 */\n      dup1\n      iszero\n      tag_203\n      jumpi\n      pop\n        /* \"Project/dynamicBanl.sol\":5012:5016  1000 */\n      0x03e8\n        /* \"Project/dynamicBanl.sol\":5002:5008  Amount */\n      dup4\n        /* \"Project/dynamicBanl.sol\":5002:5016  Amount >= 1000 */\n      lt\n      iszero\n        /* \"Project/dynamicBanl.sol\":4979:5016  Amount <= loanLimit && Amount >= 1000 */\n    tag_203:\n        /* \"Project/dynamicBanl.sol\":4957:5103  require(... */\n      tag_204\n      jumpi\n      mload(0x40)\n      0x08c379a000000000000000000000000000000000000000000000000000000000\n      dup2\n      mstore\n      0x04\n      add\n      tag_205\n      swap1\n      tag_206\n      jump\t// in\n    tag_205:\n      mload(0x40)\n      dup1\n      swap2\n      sub\n      swap1\n      revert\n    tag_204:\n        /* \"Project/dynamicBanl.sol\":5131:5132  1 */\n      0x01\n        /* \"Project/dynamicBanl.sol\":5124:5128  time */\n      dup3\n        /* \"Project/dynamicBanl.sol\":5124:5132  time > 1 */\n      gt\n        /* \"Project/dynamicBanl.sol\":5124:5146  time > 1 && time < 120 */\n      dup1\n      iszero\n      tag_207\n      jumpi\n      pop\n        /* \"Project/dynamicBanl.sol\":5143:5146  120 */\n      0x78\n        /* \"Project/dynamicBanl.sol\":5136:5140  time */\n      dup3\n        /* \"Project/dynamicBanl.sol\":5136:5146  time < 120 */\n      lt\n        /* \"Project/dynamicBanl.sol\":5124:5146  time > 1 && time < 120 */\n    tag_207:\n        /* \"Project/dynamicBanl.sol\":5116:5183  require(time > 1 && time < 120, \"time should be in range 1 to 120\") */\n      tag_208\n      jumpi\n      mload(0x40)\n      0x08c379a000000000000000000000000000000000000000000000000000000000\n      dup2\n      mstore\n      0x04\n      add\n      tag_209\n      swap1\n      tag_210\n      jump\t// in\n    tag_209:\n      mload(0x40)\n      dup1\n      swap2\n      sub\n      swap1\n      revert\n    tag_208:\n        /* \"Project/dynamicBanl.sol\":5203:5207  true */\n      0x01\n        /* \"Project/dynamicBanl.sol\":5196:5207  return true */\n      swap1\n      pop\n        /* \"Project/dynamicBanl.sol\":4736:5215  function loanValidator(... */\n      swap4\n      swap3\n      pop\n      pop\n      pop\n      jump\t// out\n        /* \"Project/dynamicBanl.sol\":5223:5690  function calculateEmi(... */\n    tag_73:\n        /* \"Project/dynamicBanl.sol\":5357:5364  uint256 */\n      0x00\n        /* \"Project/dynamicBanl.sol\":5377:5393  uint256 perMonth */\n      dup1\n        /* \"Project/dynamicBanl.sol\":5396:5400  1200 */\n      0x04b0\n        /* \"Project/dynamicBanl.sol\":5377:5400  uint256 perMonth = 1200 */\n      swap1\n      pop\n        /* \"Project/dynamicBanl.sol\":5411:5427  uint256 interest */\n      0x00\n        /* \"Project/dynamicBanl.sol\":5594:5595  1 */\n      0x01\n        /* \"Project/dynamicBanl.sol\":5578:5590  timeInMonths */\n      dup5\n        /* \"Project/dynamicBanl.sol\":5566:5574  perMonth */\n      dup4\n        /* \"Project/dynamicBanl.sol\":5558:5562  rate */\n      dup9\n        /* \"Project/dynamicBanl.sol\":5547:5555  perMonth */\n      dup6\n        /* \"Project/dynamicBanl.sol\":5547:5562  perMonth + rate */\n      tag_212\n      swap2\n      swap1\n      tag_80\n      jump\t// in\n    tag_212:\n        /* \"Project/dynamicBanl.sol\":5546:5574  (perMonth + rate) / perMonth */\n      tag_213\n      swap2\n      swap1\n      tag_214\n      jump\t// in\n    tag_213:\n        /* \"Project/dynamicBanl.sol\":5545:5590  ((perMonth + rate) / perMonth) ^ timeInMonths */\n      xor\n        /* \"Project/dynamicBanl.sol\":5544:5595  (((perMonth + rate) / perMonth) ^ timeInMonths) - 1 */\n      tag_215\n      swap2\n      swap1\n      tag_87\n      jump\t// in\n    tag_215:\n        /* \"Project/dynamicBanl.sol\":5513:5525  timeInMonths */\n      dup5\n        /* \"Project/dynamicBanl.sol\":5501:5509  perMonth */\n      dup4\n        /* \"Project/dynamicBanl.sol\":5493:5497  rate */\n      dup9\n        /* \"Project/dynamicBanl.sol\":5482:5490  perMonth */\n      dup6\n        /* \"Project/dynamicBanl.sol\":5482:5497  perMonth + rate */\n      tag_216\n      swap2\n      swap1\n      tag_80\n      jump\t// in\n    tag_216:\n        /* \"Project/dynamicBanl.sol\":5481:5509  (perMonth + rate) / perMonth */\n      tag_217\n      swap2\n      swap1\n      tag_214\n      jump\t// in\n    tag_217:\n        /* \"Project/dynamicBanl.sol\":5480:5525  ((perMonth + rate) / perMonth) ^ timeInMonths */\n      xor\n        /* \"Project/dynamicBanl.sol\":5454:5462  perMonth */\n      dup4\n        /* \"Project/dynamicBanl.sol\":5446:5450  rate */\n      dup9\n        /* \"Project/dynamicBanl.sol\":5433:5443  loanAmount */\n      dup9\n        /* \"Project/dynamicBanl.sol\":5433:5450  loanAmount * rate */\n      tag_218\n      swap2\n      swap1\n      tag_219\n      jump\t// in\n    tag_218:\n        /* \"Project/dynamicBanl.sol\":5432:5462  (loanAmount * rate) / perMonth */\n      tag_220\n      swap2\n      swap1\n      tag_214\n      jump\t// in\n    tag_220:\n        /* \"Project/dynamicBanl.sol\":5431:5526  ((loanAmount * rate) / perMonth) *... */\n      tag_221\n      swap2\n      swap1\n      tag_219\n      jump\t// in\n    tag_221:\n        /* \"Project/dynamicBanl.sol\":5430:5596  (((loanAmount * rate) / perMonth) *... */\n      tag_222\n      swap2\n      swap1\n      tag_214\n      jump\t// in\n    tag_222:\n        /* \"Project/dynamicBanl.sol\":5411:5596  uint256 interest = (((loanAmount * rate) / perMonth) *... */\n      swap1\n      pop\n        /* \"Project/dynamicBanl.sol\":5609:5620  uint256 EMI */\n      0x00\n        /* \"Project/dynamicBanl.sol\":5649:5661  timeInMonths */\n      dup5\n        /* \"Project/dynamicBanl.sol\":5635:5645  loanAmount */\n      dup7\n        /* \"Project/dynamicBanl.sol\":5624:5632  interest */\n      dup4\n        /* \"Project/dynamicBanl.sol\":5624:5645  interest + loanAmount */\n      tag_223\n      swap2\n      swap1\n      tag_80\n      jump\t// in\n    tag_223:\n        /* \"Project/dynamicBanl.sol\":5623:5661  (interest + loanAmount) / timeInMonths */\n      tag_224\n      swap2\n      swap1\n      tag_214\n      jump\t// in\n    tag_224:\n        /* \"Project/dynamicBanl.sol\":5609:5661  uint256 EMI = (interest + loanAmount) / timeInMonths */\n      swap1\n      pop\n        /* \"Project/dynamicBanl.sol\":5679:5682  EMI */\n      dup1\n        /* \"Project/dynamicBanl.sol\":5672:5682  return EMI */\n      swap4\n      pop\n      pop\n      pop\n      pop\n        /* \"Project/dynamicBanl.sol\":5223:5690  function calculateEmi(... */\n      swap4\n      swap3\n      pop\n      pop\n      pop\n      jump\t// out\n        /* \"Project/dynamicBanl.sol\":6700:7173  function loanDetails(string memory _type, address add)... */\n    tag_142:\n        /* \"Project/dynamicBanl.sol\":6818:6836  string memory Type */\n      0x60\n        /* \"Project/dynamicBanl.sol\":6851:6869  uint256 loanAmount */\n      0x00\n        /* \"Project/dynamicBanl.sol\":6884:6906  uint256 noOfEmiPending */\n      dup1\n        /* \"Project/dynamicBanl.sol\":6921:6938  uint256 EmiAmount */\n      0x00\n        /* \"Project/dynamicBanl.sol\":6988:6996  LoanType */\n      0x02\n        /* \"Project/dynamicBanl.sol\":6997:7002  _type */\n      dup7\n        /* \"Project/dynamicBanl.sol\":6988:7003  LoanType[_type] */\n      mload(0x40)\n      tag_226\n      swap2\n      swap1\n      tag_175\n      jump\t// in\n    tag_226:\n      swap1\n      dup2\n      mstore\n      0x20\n      add\n      mload(0x40)\n      dup1\n      swap2\n      sub\n      swap1\n      keccak256\n        /* \"Project/dynamicBanl.sol\":6988:7008  LoanType[_type][add] */\n      0x00\n        /* \"Project/dynamicBanl.sol\":7004:7007  add */\n      dup7\n        /* \"Project/dynamicBanl.sol\":6988:7008  LoanType[_type][add] */\n      0xffffffffffffffffffffffffffffffffffffffff\n      and\n      0xffffffffffffffffffffffffffffffffffffffff\n      and\n      dup2\n      mstore\n      0x20\n      add\n      swap1\n      dup2\n      mstore\n      0x20\n      add\n      0x00\n      keccak256\n        /* \"Project/dynamicBanl.sol\":6988:7013  LoanType[_type][add].Type */\n      0x00\n      add\n        /* \"Project/dynamicBanl.sol\":7028:7036  LoanType */\n      0x02\n        /* \"Project/dynamicBanl.sol\":7037:7042  _type */\n      dup8\n        /* \"Project/dynamicBanl.sol\":7028:7043  LoanType[_type] */\n      mload(0x40)\n      tag_227\n      swap2\n      swap1\n      tag_175\n      jump\t// in\n    tag_227:\n      swap1\n      dup2\n      mstore\n      0x20\n      add\n      mload(0x40)\n      dup1\n      swap2\n      sub\n      swap1\n      keccak256\n        /* \"Project/dynamicBanl.sol\":7028:7048  LoanType[_type][add] */\n      0x00\n        /* \"Project/dynamicBanl.sol\":7044:7047  add */\n      dup8\n        /* \"Project/dynamicBanl.sol\":7028:7048  LoanType[_type][add] */\n      0xffffffffffffffffffffffffffffffffffffffff\n      and\n      0xffffffffffffffffffffffffffffffffffffffff\n      and\n      dup2\n      mstore\n      0x20\n      add\n      swap1\n      dup2\n      mstore\n      0x20\n      add\n      0x00\n      keccak256\n        /* \"Project/dynamicBanl.sol\":7028:7059  LoanType[_type][add].loanAmount */\n      0x01\n      add\n      sload\n        /* \"Project/dynamicBanl.sol\":7074:7082  LoanType */\n      0x02\n        /* \"Project/dynamicBanl.sol\":7083:7088  _type */\n      dup9\n        /* \"Project/dynamicBanl.sol\":7074:7089  LoanType[_type] */\n      mload(0x40)\n      tag_228\n      swap2\n      swap1\n      tag_175\n      jump\t// in\n    tag_228:\n      swap1\n      dup2\n      mstore\n      0x20\n      add\n      mload(0x40)\n      dup1\n      swap2\n      sub\n      swap1\n      keccak256\n        /* \"Project/dynamicBanl.sol\":7074:7094  LoanType[_type][add] */\n      0x00\n        /* \"Project/dynamicBanl.sol\":7090:7093  add */\n      dup9\n        /* \"Project/dynamicBanl.sol\":7074:7094  LoanType[_type][add] */\n      0xffffffffffffffffffffffffffffffffffffffff\n      and\n      0xffffffffffffffffffffffffffffffffffffffff\n      and\n      dup2\n      mstore\n      0x20\n      add\n      swap1\n      dup2\n      mstore\n      0x20\n      add\n      0x00\n      keccak256\n        /* \"Project/dynamicBanl.sol\":7074:7109  LoanType[_type][add].noOfEmiPending */\n      0x02\n      add\n      sload\n        /* \"Project/dynamicBanl.sol\":7124:7132  LoanType */\n      0x02\n        /* \"Project/dynamicBanl.sol\":7133:7138  _type */\n      dup10\n        /* \"Project/dynamicBanl.sol\":7124:7139  LoanType[_type] */\n      mload(0x40)\n      tag_229\n      swap2\n      swap1\n      tag_175\n      jump\t// in\n    tag_229:\n      swap1\n      dup2\n      mstore\n      0x20\n      add\n      mload(0x40)\n      dup1\n      swap2\n      sub\n      swap1\n      keccak256\n        /* \"Project/dynamicBanl.sol\":7124:7144  LoanType[_type][add] */\n      0x00\n        /* \"Project/dynamicBanl.sol\":7140:7143  add */\n      dup10\n        /* \"Project/dynamicBanl.sol\":7124:7144  LoanType[_type][add] */\n      0xffffffffffffffffffffffffffffffffffffffff\n      and\n      0xffffffffffffffffffffffffffffffffffffffff\n      and\n      dup2\n      mstore\n      0x20\n      add\n      swap1\n      dup2\n      mstore\n      0x20\n      add\n      0x00\n      keccak256\n        /* \"Project/dynamicBanl.sol\":7124:7154  LoanType[_type][add].EmiAmount */\n      0x03\n      add\n      sload\n        /* \"Project/dynamicBanl.sol\":6966:7165  return (... */\n      dup4\n      dup1\n      sload\n      tag_230\n      swap1\n      tag_231\n      jump\t// in\n    tag_230:\n      dup1\n      0x1f\n      add\n      0x20\n      dup1\n      swap2\n      div\n      mul\n      0x20\n      add\n      mload(0x40)\n      swap1\n      dup2\n      add\n      0x40\n      mstore\n      dup1\n      swap3\n      swap2\n      swap1\n      dup2\n      dup2\n      mstore\n      0x20\n      add\n      dup3\n      dup1\n      sload\n      tag_232\n      swap1\n      tag_231\n      jump\t// in\n    tag_232:\n      dup1\n      iszero\n      tag_233\n      jumpi\n      dup1\n      0x1f\n      lt\n      tag_234\n      jumpi\n      0x0100\n      dup1\n      dup4\n      sload\n      div\n      mul\n      dup4\n      mstore\n      swap2\n      0x20\n      add\n      swap2\n      jump(tag_233)\n    tag_234:\n      dup3\n      add\n      swap2\n      swap1\n      0x00\n      mstore\n      keccak256(0x00, 0x20)\n      swap1\n    tag_235:\n      dup2\n      sload\n      dup2\n      mstore\n      swap1\n      0x01\n      add\n      swap1\n      0x20\n      add\n      dup1\n      dup4\n      gt\n      tag_235\n      jumpi\n      dup3\n      swap1\n      sub\n      0x1f\n      and\n      dup3\n      add\n      swap2\n    tag_233:\n      pop\n      pop\n      pop\n      pop\n      pop\n      swap4\n      pop\n      swap4\n      pop\n      swap4\n      pop\n      swap4\n      pop\n      swap4\n      pop\n        /* \"Project/dynamicBanl.sol\":6700:7173  function loanDetails(string memory _type, address add)... */\n      swap3\n      swap6\n      swap2\n      swap5\n      pop\n      swap3\n      pop\n      jump\t// out\n        /* \"#utility.yul\":7:82   */\n    tag_236:\n        /* \"#utility.yul\":40:46   */\n      0x00\n        /* \"#utility.yul\":73:75   */\n      0x40\n        /* \"#utility.yul\":67:76   */\n      mload\n        /* \"#utility.yul\":57:76   */\n      swap1\n      pop\n        /* \"#utility.yul\":7:82   */\n      swap1\n      jump\t// out\n        /* \"#utility.yul\":88:205   */\n    tag_237:\n        /* \"#utility.yul\":197:198   */\n      0x00\n        /* \"#utility.yul\":194:195   */\n      dup1\n        /* \"#utility.yul\":187:199   */\n      revert\n        /* \"#utility.yul\":211:328   */\n    tag_238:\n        /* \"#utility.yul\":320:321   */\n      0x00\n        /* \"#utility.yul\":317:318   */\n      dup1\n        /* \"#utility.yul\":310:322   */\n      revert\n        /* \"#utility.yul\":334:411   */\n    tag_239:\n        /* \"#utility.yul\":371:378   */\n      0x00\n        /* \"#utility.yul\":400:405   */\n      dup2\n        /* \"#utility.yul\":389:405   */\n      swap1\n      pop\n        /* \"#utility.yul\":334:411   */\n      swap2\n      swap1\n      pop\n      jump\t// out\n        /* \"#utility.yul\":417:539   */\n    tag_240:\n        /* \"#utility.yul\":490:514   */\n      tag_329\n        /* \"#utility.yul\":508:513   */\n      dup2\n        /* \"#utility.yul\":490:514   */\n      tag_239\n      jump\t// in\n    tag_329:\n        /* \"#utility.yul\":483:488   */\n      dup2\n        /* \"#utility.yul\":480:515   */\n      eq\n        /* \"#utility.yul\":470:533   */\n      tag_330\n      jumpi\n        /* \"#utility.yul\":529:530   */\n      0x00\n        /* \"#utility.yul\":526:527   */\n      dup1\n        /* \"#utility.yul\":519:531   */\n      revert\n        /* \"#utility.yul\":470:533   */\n    tag_330:\n        /* \"#utility.yul\":417:539   */\n      pop\n      jump\t// out\n        /* \"#utility.yul\":545:684   */\n    tag_241:\n        /* \"#utility.yul\":591:596   */\n      0x00\n        /* \"#utility.yul\":629:635   */\n      dup2\n        /* \"#utility.yul\":616:636   */\n      calldataload\n        /* \"#utility.yul\":607:636   */\n      swap1\n      pop\n        /* \"#utility.yul\":645:678   */\n      tag_332\n        /* \"#utility.yul\":672:677   */\n      dup2\n        /* \"#utility.yul\":645:678   */\n      tag_240\n      jump\t// in\n    tag_332:\n        /* \"#utility.yul\":545:684   */\n      swap3\n      swap2\n      pop\n      pop\n      jump\t// out\n        /* \"#utility.yul\":690:1164   */\n    tag_19:\n        /* \"#utility.yul\":758:764   */\n      0x00\n        /* \"#utility.yul\":766:772   */\n      dup1\n        /* \"#utility.yul\":815:817   */\n      0x40\n        /* \"#utility.yul\":803:812   */\n      dup4\n        /* \"#utility.yul\":794:801   */\n      dup6\n        /* \"#utility.yul\":790:813   */\n      sub\n        /* \"#utility.yul\":786:818   */\n      slt\n        /* \"#utility.yul\":783:902   */\n      iszero\n      tag_334\n      jumpi\n        /* \"#utility.yul\":821:900   */\n      tag_335\n      tag_237\n      jump\t// in\n    tag_335:\n        /* \"#utility.yul\":783:902   */\n    tag_334:\n        /* \"#utility.yul\":941:942   */\n      0x00\n        /* \"#utility.yul\":966:1019   */\n      tag_336\n        /* \"#utility.yul\":1011:1018   */\n      dup6\n        /* \"#utility.yul\":1002:1008   */\n      dup3\n        /* \"#utility.yul\":991:1000   */\n      dup7\n        /* \"#utility.yul\":987:1009   */\n      add\n        /* \"#utility.yul\":966:1019   */\n      tag_241\n      jump\t// in\n    tag_336:\n        /* \"#utility.yul\":956:1019   */\n      swap3\n      pop\n        /* \"#utility.yul\":912:1029   */\n      pop\n        /* \"#utility.yul\":1068:1070   */\n      0x20\n        /* \"#utility.yul\":1094:1147   */\n      tag_337\n        /* \"#utility.yul\":1139:1146   */\n      dup6\n        /* \"#utility.yul\":1130:1136   */\n      dup3\n        /* \"#utility.yul\":1119:1128   */\n      dup7\n        /* \"#utility.yul\":1115:1137   */\n      add\n        /* \"#utility.yul\":1094:1147   */\n      tag_241\n      jump\t// in\n    tag_337:\n        /* \"#utility.yul\":1084:1147   */\n      swap2\n      pop\n        /* \"#utility.yul\":1039:1157   */\n      pop\n        /* \"#utility.yul\":690:1164   */\n      swap3\n      pop\n      swap3\n      swap1\n      pop\n      jump\t// out\n        /* \"#utility.yul\":1170:1499   */\n    tag_24:\n        /* \"#utility.yul\":1229:1235   */\n      0x00\n        /* \"#utility.yul\":1278:1280   */\n      0x20\n        /* \"#utility.yul\":1266:1275   */\n      dup3\n        /* \"#utility.yul\":1257:1264   */\n      dup5\n        /* \"#utility.yul\":1253:1276   */\n      sub\n        /* \"#utility.yul\":1249:1281   */\n      slt\n        /* \"#utility.yul\":1246:1365   */\n      iszero\n      tag_339\n      jumpi\n        /* \"#utility.yul\":1284:1363   */\n      tag_340\n      tag_237\n      jump\t// in\n    tag_340:\n        /* \"#utility.yul\":1246:1365   */\n    tag_339:\n        /* \"#utility.yul\":1404:1405   */\n      0x00\n        /* \"#utility.yul\":1429:1482   */\n      tag_341\n        /* \"#utility.yul\":1474:1481   */\n      dup5\n        /* \"#utility.yul\":1465:1471   */\n      dup3\n        /* \"#utility.yul\":1454:1463   */\n      dup6\n        /* \"#utility.yul\":1450:1472   */\n      add\n        /* \"#utility.yul\":1429:1482   */\n      tag_241\n      jump\t// in\n    tag_341:\n        /* \"#utility.yul\":1419:1482   */\n      swap2\n      pop\n        /* \"#utility.yul\":1375:1492   */\n      pop\n        /* \"#utility.yul\":1170:1499   */\n      swap3\n      swap2\n      pop\n      pop\n      jump\t// out\n        /* \"#utility.yul\":1505:1623   */\n    tag_242:\n        /* \"#utility.yul\":1592:1616   */\n      tag_343\n        /* \"#utility.yul\":1610:1615   */\n      dup2\n        /* \"#utility.yul\":1592:1616   */\n      tag_239\n      jump\t// in\n    tag_343:\n        /* \"#utility.yul\":1587:1590   */\n      dup3\n        /* \"#utility.yul\":1580:1617   */\n      mstore\n        /* \"#utility.yul\":1505:1623   */\n      pop\n      pop\n      jump\t// out\n        /* \"#utility.yul\":1629:1851   */\n    tag_30:\n        /* \"#utility.yul\":1722:1726   */\n      0x00\n        /* \"#utility.yul\":1760:1762   */\n      0x20\n        /* \"#utility.yul\":1749:1758   */\n      dup3\n        /* \"#utility.yul\":1745:1763   */\n      add\n        /* \"#utility.yul\":1737:1763   */\n      swap1\n      pop\n        /* \"#utility.yul\":1773:1844   */\n      tag_345\n        /* \"#utility.yul\":1841:1842   */\n      0x00\n        /* \"#utility.yul\":1830:1839   */\n      dup4\n        /* \"#utility.yul\":1826:1843   */\n      add\n        /* \"#utility.yul\":1817:1823   */\n      dup5\n        /* \"#utility.yul\":1773:1844   */\n      tag_242\n      jump\t// in\n    tag_345:\n        /* \"#utility.yul\":1629:1851   */\n      swap3\n      swap2\n      pop\n      pop\n      jump\t// out\n        /* \"#utility.yul\":1857:1983   */\n    tag_243:\n        /* \"#utility.yul\":1894:1901   */\n      0x00\n        /* \"#utility.yul\":1934:1976   */\n      0xffffffffffffffffffffffffffffffffffffffff\n        /* \"#utility.yul\":1927:1932   */\n      dup3\n        /* \"#utility.yul\":1923:1977   */\n      and\n        /* \"#utility.yul\":1912:1977   */\n      swap1\n      pop\n        /* \"#utility.yul\":1857:1983   */\n      swap2\n      swap1\n      pop\n      jump\t// out\n        /* \"#utility.yul\":1989:2085   */\n    tag_244:\n        /* \"#utility.yul\":2026:2033   */\n      0x00\n        /* \"#utility.yul\":2055:2079   */\n      tag_348\n        /* \"#utility.yul\":2073:2078   */\n      dup3\n        /* \"#utility.yul\":2055:2079   */\n      tag_243\n      jump\t// in\n    tag_348:\n        /* \"#utility.yul\":2044:2079   */\n      swap1\n      pop\n        /* \"#utility.yul\":1989:2085   */\n      swap2\n      swap1\n      pop\n      jump\t// out\n        /* \"#utility.yul\":2091:2213   */\n    tag_245:\n        /* \"#utility.yul\":2164:2188   */\n      tag_350\n        /* \"#utility.yul\":2182:2187   */\n      dup2\n        /* \"#utility.yul\":2164:2188   */\n      tag_244\n      jump\t// in\n    tag_350:\n        /* \"#utility.yul\":2157:2162   */\n      dup2\n        /* \"#utility.yul\":2154:2189   */\n      eq\n        /* \"#utility.yul\":2144:2207   */\n      tag_351\n      jumpi\n        /* \"#utility.yul\":2203:2204   */\n      0x00\n        /* \"#utility.yul\":2200:2201   */\n      dup1\n        /* \"#utility.yul\":2193:2205   */\n      revert\n        /* \"#utility.yul\":2144:2207   */\n    tag_351:\n        /* \"#utility.yul\":2091:2213   */\n      pop\n      jump\t// out\n        /* \"#utility.yul\":2219:2358   */\n    tag_246:\n        /* \"#utility.yul\":2265:2270   */\n      0x00\n        /* \"#utility.yul\":2303:2309   */\n      dup2\n        /* \"#utility.yul\":2290:2310   */\n      calldataload\n        /* \"#utility.yul\":2281:2310   */\n      swap1\n      pop\n        /* \"#utility.yul\":2319:2352   */\n      tag_353\n        /* \"#utility.yul\":2346:2351   */\n      dup2\n        /* \"#utility.yul\":2319:2352   */\n      tag_245\n      jump\t// in\n    tag_353:\n        /* \"#utility.yul\":2219:2358   */\n      swap3\n      swap2\n      pop\n      pop\n      jump\t// out\n        /* \"#utility.yul\":2364:2693   */\n    tag_40:\n        /* \"#utility.yul\":2423:2429   */\n      0x00\n        /* \"#utility.yul\":2472:2474   */\n      0x20\n        /* \"#utility.yul\":2460:2469   */\n      dup3\n        /* \"#utility.yul\":2451:2458   */\n      dup5\n        /* \"#utility.yul\":2447:2470   */\n      sub\n        /* \"#utility.yul\":2443:2475   */\n      slt\n        /* \"#utility.yul\":2440:2559   */\n      iszero\n      tag_355\n      jumpi\n        /* \"#utility.yul\":2478:2557   */\n      tag_356\n      tag_237\n      jump\t// in\n    tag_356:\n        /* \"#utility.yul\":2440:2559   */\n    tag_355:\n        /* \"#utility.yul\":2598:2599   */\n      0x00\n        /* \"#utility.yul\":2623:2676   */\n      tag_357\n        /* \"#utility.yul\":2668:2675   */\n      dup5\n        /* \"#utility.yul\":2659:2665   */\n      dup3\n        /* \"#utility.yul\":2648:2657   */\n      dup6\n        /* \"#utility.yul\":2644:2666   */\n      add\n        /* \"#utility.yul\":2623:2676   */\n      tag_246\n      jump\t// in\n    tag_357:\n        /* \"#utility.yul\":2613:2676   */\n      swap2\n      pop\n        /* \"#utility.yul\":2569:2686   */\n      pop\n        /* \"#utility.yul\":2364:2693   */\n      swap3\n      swap2\n      pop\n      pop\n      jump\t// out\n        /* \"#utility.yul\":2699:3031   */\n    tag_43:\n        /* \"#utility.yul\":2820:2824   */\n      0x00\n        /* \"#utility.yul\":2858:2860   */\n      0x40\n        /* \"#utility.yul\":2847:2856   */\n      dup3\n        /* \"#utility.yul\":2843:2861   */\n      add\n        /* \"#utility.yul\":2835:2861   */\n      swap1\n      pop\n        /* \"#utility.yul\":2871:2942   */\n      tag_359\n        /* \"#utility.yul\":2939:2940   */\n      0x00\n        /* \"#utility.yul\":2928:2937   */\n      dup4\n        /* \"#utility.yul\":2924:2941   */\n      add\n        /* \"#utility.yul\":2915:2921   */\n      dup6\n        /* \"#utility.yul\":2871:2942   */\n      tag_242\n      jump\t// in\n    tag_359:\n        /* \"#utility.yul\":2952:3024   */\n      tag_360\n        /* \"#utility.yul\":3020:3022   */\n      0x20\n        /* \"#utility.yul\":3009:3018   */\n      dup4\n        /* \"#utility.yul\":3005:3023   */\n      add\n        /* \"#utility.yul\":2996:3002   */\n      dup5\n        /* \"#utility.yul\":2952:3024   */\n      tag_242\n      jump\t// in\n    tag_360:\n        /* \"#utility.yul\":2699:3031   */\n      swap4\n      swap3\n      pop\n      pop\n      pop\n      jump\t// out\n        /* \"#utility.yul\":3037:3136   */\n    tag_247:\n        /* \"#utility.yul\":3089:3095   */\n      0x00\n        /* \"#utility.yul\":3123:3128   */\n      dup2\n        /* \"#utility.yul\":3117:3129   */\n      mload\n        /* \"#utility.yul\":3107:3129   */\n      swap1\n      pop\n        /* \"#utility.yul\":3037:3136   */\n      swap2\n      swap1\n      pop\n      jump\t// out\n        /* \"#utility.yul\":3142:3311   */\n    tag_248:\n        /* \"#utility.yul\":3226:3237   */\n      0x00\n        /* \"#utility.yul\":3260:3266   */\n      dup3\n        /* \"#utility.yul\":3255:3258   */\n      dup3\n        /* \"#utility.yul\":3248:3267   */\n      mstore\n        /* \"#utility.yul\":3300:3304   */\n      0x20\n        /* \"#utility.yul\":3295:3298   */\n      dup3\n        /* \"#utility.yul\":3291:3305   */\n      add\n        /* \"#utility.yul\":3276:3305   */\n      swap1\n      pop\n        /* \"#utility.yul\":3142:3311   */\n      swap3\n      swap2\n      pop\n      pop\n      jump\t// out\n        /* \"#utility.yul\":3317:3563   */\n    tag_249:\n        /* \"#utility.yul\":3398:3399   */\n      0x00\n        /* \"#utility.yul\":3408:3521   */\n    tag_364:\n        /* \"#utility.yul\":3422:3428   */\n      dup4\n        /* \"#utility.yul\":3419:3420   */\n      dup2\n        /* \"#utility.yul\":3416:3429   */\n      lt\n        /* \"#utility.yul\":3408:3521   */\n      iszero\n      tag_366\n      jumpi\n        /* \"#utility.yul\":3507:3508   */\n      dup1\n        /* \"#utility.yul\":3502:3505   */\n      dup3\n        /* \"#utility.yul\":3498:3509   */\n      add\n        /* \"#utility.yul\":3492:3510   */\n      mload\n        /* \"#utility.yul\":3488:3489   */\n      dup2\n        /* \"#utility.yul\":3483:3486   */\n      dup5\n        /* \"#utility.yul\":3479:3490   */\n      add\n        /* \"#utility.yul\":3472:3511   */\n      mstore\n        /* \"#utility.yul\":3444:3446   */\n      0x20\n        /* \"#utility.yul\":3441:3442   */\n      dup2\n        /* \"#utility.yul\":3437:3447   */\n      add\n        /* \"#utility.yul\":3432:3447   */\n      swap1\n      pop\n        /* \"#utility.yul\":3408:3521   */\n      jump(tag_364)\n    tag_366:\n        /* \"#utility.yul\":3555:3556   */\n      0x00\n        /* \"#utility.yul\":3546:3552   */\n      dup5\n        /* \"#utility.yul\":3541:3544   */\n      dup5\n        /* \"#utility.yul\":3537:3553   */\n      add\n        /* \"#utility.yul\":3530:3557   */\n      mstore\n        /* \"#utility.yul\":3379:3563   */\n      pop\n        /* \"#utility.yul\":3317:3563   */\n      pop\n      pop\n      pop\n      jump\t// out\n        /* \"#utility.yul\":3569:3671   */\n    tag_250:\n        /* \"#utility.yul\":3610:3616   */\n      0x00\n        /* \"#utility.yul\":3661:3663   */\n      0x1f\n        /* \"#utility.yul\":3657:3664   */\n      not\n        /* \"#utility.yul\":3652:3654   */\n      0x1f\n        /* \"#utility.yul\":3645:3650   */\n      dup4\n        /* \"#utility.yul\":3641:3655   */\n      add\n        /* \"#utility.yul\":3637:3665   */\n      and\n        /* \"#utility.yul\":3627:3665   */\n      swap1\n      pop\n        /* \"#utility.yul\":3569:3671   */\n      swap2\n      swap1\n      pop\n      jump\t// out\n        /* \"#utility.yul\":3677:4054   */\n    tag_251:\n        /* \"#utility.yul\":3765:3768   */\n      0x00\n        /* \"#utility.yul\":3793:3832   */\n      tag_369\n        /* \"#utility.yul\":3826:3831   */\n      dup3\n        /* \"#utility.yul\":3793:3832   */\n      tag_247\n      jump\t// in\n    tag_369:\n        /* \"#utility.yul\":3848:3919   */\n      tag_370\n        /* \"#utility.yul\":3912:3918   */\n      dup2\n        /* \"#utility.yul\":3907:3910   */\n      dup6\n        /* \"#utility.yul\":3848:3919   */\n      tag_248\n      jump\t// in\n    tag_370:\n        /* \"#utility.yul\":3841:3919   */\n      swap4\n      pop\n        /* \"#utility.yul\":3928:3993   */\n      tag_371\n        /* \"#utility.yul\":3986:3992   */\n      dup2\n        /* \"#utility.yul\":3981:3984   */\n      dup6\n        /* \"#utility.yul\":3974:3978   */\n      0x20\n        /* \"#utility.yul\":3967:3972   */\n      dup7\n        /* \"#utility.yul\":3963:3979   */\n      add\n        /* \"#utility.yul\":3928:3993   */\n      tag_249\n      jump\t// in\n    tag_371:\n        /* \"#utility.yul\":4018:4047   */\n      tag_372\n        /* \"#utility.yul\":4040:4046   */\n      dup2\n        /* \"#utility.yul\":4018:4047   */\n      tag_250\n      jump\t// in\n    tag_372:\n        /* \"#utility.yul\":4013:4016   */\n      dup5\n        /* \"#utility.yul\":4009:4048   */\n      add\n        /* \"#utility.yul\":4002:4048   */\n      swap2\n      pop\n        /* \"#utility.yul\":3769:4054   */\n      pop\n        /* \"#utility.yul\":3677:4054   */\n      swap3\n      swap2\n      pop\n      pop\n      jump\t// out\n        /* \"#utility.yul\":4060:4704   */\n    tag_52:\n        /* \"#utility.yul\":4257:4261   */\n      0x00\n        /* \"#utility.yul\":4295:4298   */\n      0x80\n        /* \"#utility.yul\":4284:4293   */\n      dup3\n        /* \"#utility.yul\":4280:4299   */\n      add\n        /* \"#utility.yul\":4272:4299   */\n      swap1\n      pop\n        /* \"#utility.yul\":4345:4354   */\n      dup2\n        /* \"#utility.yul\":4339:4343   */\n      dup2\n        /* \"#utility.yul\":4335:4355   */\n      sub\n        /* \"#utility.yul\":4331:4332   */\n      0x00\n        /* \"#utility.yul\":4320:4329   */\n      dup4\n        /* \"#utility.yul\":4316:4333   */\n      add\n        /* \"#utility.yul\":4309:4356   */\n      mstore\n        /* \"#utility.yul\":4373:4451   */\n      tag_374\n        /* \"#utility.yul\":4446:4450   */\n      dup2\n        /* \"#utility.yul\":4437:4443   */\n      dup8\n        /* \"#utility.yul\":4373:4451   */\n      tag_251\n      jump\t// in\n    tag_374:\n        /* \"#utility.yul\":4365:4451   */\n      swap1\n      pop\n        /* \"#utility.yul\":4461:4533   */\n      tag_375\n        /* \"#utility.yul\":4529:4531   */\n      0x20\n        /* \"#utility.yul\":4518:4527   */\n      dup4\n        /* \"#utility.yul\":4514:4532   */\n      add\n        /* \"#utility.yul\":4505:4511   */\n      dup7\n        /* \"#utility.yul\":4461:4533   */\n      tag_242\n      jump\t// in\n    tag_375:\n        /* \"#utility.yul\":4543:4615   */\n      tag_376\n        /* \"#utility.yul\":4611:4613   */\n      0x40\n        /* \"#utility.yul\":4600:4609   */\n      dup4\n        /* \"#utility.yul\":4596:4614   */\n      add\n        /* \"#utility.yul\":4587:4593   */\n      dup6\n        /* \"#utility.yul\":4543:4615   */\n      tag_242\n      jump\t// in\n    tag_376:\n        /* \"#utility.yul\":4625:4697   */\n      tag_377\n        /* \"#utility.yul\":4693:4695   */\n      0x60\n        /* \"#utility.yul\":4682:4691   */\n      dup4\n        /* \"#utility.yul\":4678:4696   */\n      add\n        /* \"#utility.yul\":4669:4675   */\n      dup5\n        /* \"#utility.yul\":4625:4697   */\n      tag_242\n      jump\t// in\n    tag_377:\n        /* \"#utility.yul\":4060:4704   */\n      swap6\n      swap5\n      pop\n      pop\n      pop\n      pop\n      pop\n      jump\t// out\n        /* \"#utility.yul\":4710:4827   */\n    tag_252:\n        /* \"#utility.yul\":4819:4820   */\n      0x00\n        /* \"#utility.yul\":4816:4817   */\n      dup1\n        /* \"#utility.yul\":4809:4821   */\n      revert\n        /* \"#utility.yul\":4833:4950   */\n    tag_253:\n        /* \"#utility.yul\":4942:4943   */\n      0x00\n        /* \"#utility.yul\":4939:4940   */\n      dup1\n        /* \"#utility.yul\":4932:4944   */\n      revert\n        /* \"#utility.yul\":4956:5136   */\n    tag_254:\n        /* \"#utility.yul\":5004:5081   */\n      0x4e487b7100000000000000000000000000000000000000000000000000000000\n        /* \"#utility.yul\":5001:5002   */\n      0x00\n        /* \"#utility.yul\":4994:5082   */\n      mstore\n        /* \"#utility.yul\":5101:5105   */\n      0x41\n        /* \"#utility.yul\":5098:5099   */\n      0x04\n        /* \"#utility.yul\":5091:5106   */\n      mstore\n        /* \"#utility.yul\":5125:5129   */\n      0x24\n        /* \"#utility.yul\":5122:5123   */\n      0x00\n        /* \"#utility.yul\":5115:5130   */\n      revert\n        /* \"#utility.yul\":5142:5423   */\n    tag_255:\n        /* \"#utility.yul\":5225:5252   */\n      tag_382\n        /* \"#utility.yul\":5247:5251   */\n      dup3\n        /* \"#utility.yul\":5225:5252   */\n      tag_250\n      jump\t// in\n    tag_382:\n        /* \"#utility.yul\":5217:5223   */\n      dup2\n        /* \"#utility.yul\":5213:5253   */\n      add\n        /* \"#utility.yul\":5355:5361   */\n      dup2\n        /* \"#utility.yul\":5343:5353   */\n      dup2\n        /* \"#utility.yul\":5340:5362   */\n      lt\n        /* \"#utility.yul\":5319:5337   */\n      0xffffffffffffffff\n        /* \"#utility.yul\":5307:5317   */\n      dup3\n        /* \"#utility.yul\":5304:5338   */\n      gt\n        /* \"#utility.yul\":5301:5363   */\n      or\n        /* \"#utility.yul\":5298:5386   */\n      iszero\n      tag_383\n      jumpi\n        /* \"#utility.yul\":5366:5384   */\n      tag_384\n      tag_254\n      jump\t// in\n    tag_384:\n        /* \"#utility.yul\":5298:5386   */\n    tag_383:\n        /* \"#utility.yul\":5406:5416   */\n      dup1\n        /* \"#utility.yul\":5402:5404   */\n      0x40\n        /* \"#utility.yul\":5395:5417   */\n      mstore\n        /* \"#utility.yul\":5185:5423   */\n      pop\n        /* \"#utility.yul\":5142:5423   */\n      pop\n      pop\n      jump\t// out\n        /* \"#utility.yul\":5429:5558   */\n    tag_256:\n        /* \"#utility.yul\":5463:5469   */\n      0x00\n        /* \"#utility.yul\":5490:5510   */\n      tag_386\n      tag_236\n      jump\t// in\n    tag_386:\n        /* \"#utility.yul\":5480:5510   */\n      swap1\n      pop\n        /* \"#utility.yul\":5519:5552   */\n      tag_387\n        /* \"#utility.yul\":5547:5551   */\n      dup3\n        /* \"#utility.yul\":5539:5545   */\n      dup3\n        /* \"#utility.yul\":5519:5552   */\n      tag_255\n      jump\t// in\n    tag_387:\n        /* \"#utility.yul\":5429:5558   */\n      swap2\n      swap1\n      pop\n      jump\t// out\n        /* \"#utility.yul\":5564:5872   */\n    tag_257:\n        /* \"#utility.yul\":5626:5630   */\n      0x00\n        /* \"#utility.yul\":5716:5734   */\n      0xffffffffffffffff\n        /* \"#utility.yul\":5708:5714   */\n      dup3\n        /* \"#utility.yul\":5705:5735   */\n      gt\n        /* \"#utility.yul\":5702:5758   */\n      iszero\n      tag_389\n      jumpi\n        /* \"#utility.yul\":5738:5756   */\n      tag_390\n      tag_254\n      jump\t// in\n    tag_390:\n        /* \"#utility.yul\":5702:5758   */\n    tag_389:\n        /* \"#utility.yul\":5776:5805   */\n      tag_391\n        /* \"#utility.yul\":5798:5804   */\n      dup3\n        /* \"#utility.yul\":5776:5805   */\n      tag_250\n      jump\t// in\n    tag_391:\n        /* \"#utility.yul\":5768:5805   */\n      swap1\n      pop\n        /* \"#utility.yul\":5860:5864   */\n      0x20\n        /* \"#utility.yul\":5854:5858   */\n      dup2\n        /* \"#utility.yul\":5850:5865   */\n      add\n        /* \"#utility.yul\":5842:5865   */\n      swap1\n      pop\n        /* \"#utility.yul\":5564:5872   */\n      swap2\n      swap1\n      pop\n      jump\t// out\n        /* \"#utility.yul\":5878:6024   */\n    tag_258:\n        /* \"#utility.yul\":5975:5981   */\n      dup3\n        /* \"#utility.yul\":5970:5973   */\n      dup2\n        /* \"#utility.yul\":5965:5968   */\n      dup4\n        /* \"#utility.yul\":5952:5982   */\n      calldatacopy\n        /* \"#utility.yul\":6016:6017   */\n      0x00\n        /* \"#utility.yul\":6007:6013   */\n      dup4\n        /* \"#utility.yul\":6002:6005   */\n      dup4\n        /* \"#utility.yul\":5998:6014   */\n      add\n        /* \"#utility.yul\":5991:6018   */\n      mstore\n        /* \"#utility.yul\":5878:6024   */\n      pop\n      pop\n      pop\n      jump\t// out\n        /* \"#utility.yul\":6030:6455   */\n    tag_259:\n        /* \"#utility.yul\":6108:6113   */\n      0x00\n        /* \"#utility.yul\":6133:6199   */\n      tag_394\n        /* \"#utility.yul\":6149:6198   */\n      tag_395\n        /* \"#utility.yul\":6191:6197   */\n      dup5\n        /* \"#utility.yul\":6149:6198   */\n      tag_257\n      jump\t// in\n    tag_395:\n        /* \"#utility.yul\":6133:6199   */\n      tag_256\n      jump\t// in\n    tag_394:\n        /* \"#utility.yul\":6124:6199   */\n      swap1\n      pop\n        /* \"#utility.yul\":6222:6228   */\n      dup3\n        /* \"#utility.yul\":6215:6220   */\n      dup2\n        /* \"#utility.yul\":6208:6229   */\n      mstore\n        /* \"#utility.yul\":6260:6264   */\n      0x20\n        /* \"#utility.yul\":6253:6258   */\n      dup2\n        /* \"#utility.yul\":6249:6265   */\n      add\n        /* \"#utility.yul\":6298:6301   */\n      dup5\n        /* \"#utility.yul\":6289:6295   */\n      dup5\n        /* \"#utility.yul\":6284:6287   */\n      dup5\n        /* \"#utility.yul\":6280:6296   */\n      add\n        /* \"#utility.yul\":6277:6302   */\n      gt\n        /* \"#utility.yul\":6274:6386   */\n      iszero\n      tag_396\n      jumpi\n        /* \"#utility.yul\":6305:6384   */\n      tag_397\n      tag_253\n      jump\t// in\n    tag_397:\n        /* \"#utility.yul\":6274:6386   */\n    tag_396:\n        /* \"#utility.yul\":6395:6449   */\n      tag_398\n        /* \"#utility.yul\":6442:6448   */\n      dup5\n        /* \"#utility.yul\":6437:6440   */\n      dup3\n        /* \"#utility.yul\":6432:6435   */\n      dup6\n        /* \"#utility.yul\":6395:6449   */\n      tag_258\n      jump\t// in\n    tag_398:\n        /* \"#utility.yul\":6114:6455   */\n      pop\n        /* \"#utility.yul\":6030:6455   */\n      swap4\n      swap3\n      pop\n      pop\n      pop\n      jump\t// out\n        /* \"#utility.yul\":6475:6815   */\n    tag_260:\n        /* \"#utility.yul\":6531:6536   */\n      0x00\n        /* \"#utility.yul\":6580:6583   */\n      dup3\n        /* \"#utility.yul\":6573:6577   */\n      0x1f\n        /* \"#utility.yul\":6565:6571   */\n      dup4\n        /* \"#utility.yul\":6561:6578   */\n      add\n        /* \"#utility.yul\":6557:6584   */\n      slt\n        /* \"#utility.yul\":6547:6669   */\n      tag_400\n      jumpi\n        /* \"#utility.yul\":6588:6667   */\n      tag_401\n      tag_252\n      jump\t// in\n    tag_401:\n        /* \"#utility.yul\":6547:6669   */\n    tag_400:\n        /* \"#utility.yul\":6705:6711   */\n      dup2\n        /* \"#utility.yul\":6692:6712   */\n      calldataload\n        /* \"#utility.yul\":6730:6809   */\n      tag_402\n        /* \"#utility.yul\":6805:6808   */\n      dup5\n        /* \"#utility.yul\":6797:6803   */\n      dup3\n        /* \"#utility.yul\":6790:6794   */\n      0x20\n        /* \"#utility.yul\":6782:6788   */\n      dup7\n        /* \"#utility.yul\":6778:6795   */\n      add\n        /* \"#utility.yul\":6730:6809   */\n      tag_259\n      jump\t// in\n    tag_402:\n        /* \"#utility.yul\":6721:6809   */\n      swap2\n      pop\n        /* \"#utility.yul\":6537:6815   */\n      pop\n        /* \"#utility.yul\":6475:6815   */\n      swap3\n      swap2\n      pop\n      pop\n      jump\t// out\n        /* \"#utility.yul\":6821:7330   */\n    tag_67:\n        /* \"#utility.yul\":6890:6896   */\n      0x00\n        /* \"#utility.yul\":6939:6941   */\n      0x20\n        /* \"#utility.yul\":6927:6936   */\n      dup3\n        /* \"#utility.yul\":6918:6925   */\n      dup5\n        /* \"#utility.yul\":6914:6937   */\n      sub\n        /* \"#utility.yul\":6910:6942   */\n      slt\n        /* \"#utility.yul\":6907:7026   */\n      iszero\n      tag_404\n      jumpi\n        /* \"#utility.yul\":6945:7024   */\n      tag_405\n      tag_237\n      jump\t// in\n    tag_405:\n        /* \"#utility.yul\":6907:7026   */\n    tag_404:\n        /* \"#utility.yul\":7093:7094   */\n      0x00\n        /* \"#utility.yul\":7082:7091   */\n      dup3\n        /* \"#utility.yul\":7078:7095   */\n      add\n        /* \"#utility.yul\":7065:7096   */\n      calldataload\n        /* \"#utility.yul\":7123:7141   */\n      0xffffffffffffffff\n        /* \"#utility.yul\":7115:7121   */\n      dup2\n        /* \"#utility.yul\":7112:7142   */\n      gt\n        /* \"#utility.yul\":7109:7226   */\n      iszero\n      tag_406\n      jumpi\n        /* \"#utility.yul\":7145:7224   */\n      tag_407\n      tag_238\n      jump\t// in\n    tag_407:\n        /* \"#utility.yul\":7109:7226   */\n    tag_406:\n        /* \"#utility.yul\":7250:7313   */\n      tag_408\n        /* \"#utility.yul\":7305:7312   */\n      dup5\n        /* \"#utility.yul\":7296:7302   */\n      dup3\n        /* \"#utility.yul\":7285:7294   */\n      dup6\n        /* \"#utility.yul\":7281:7303   */\n      add\n        /* \"#utility.yul\":7250:7313   */\n      tag_260\n      jump\t// in\n    tag_408:\n        /* \"#utility.yul\":7240:7313   */\n      swap2\n      pop\n        /* \"#utility.yul\":7036:7323   */\n      pop\n        /* \"#utility.yul\":6821:7330   */\n      swap3\n      swap2\n      pop\n      pop\n      jump\t// out\n        /* \"#utility.yul\":7336:7484   */\n    tag_261:\n        /* \"#utility.yul\":7438:7449   */\n      0x00\n        /* \"#utility.yul\":7475:7478   */\n      dup2\n        /* \"#utility.yul\":7460:7478   */\n      swap1\n      pop\n        /* \"#utility.yul\":7336:7484   */\n      swap3\n      swap2\n      pop\n      pop\n      jump\t// out\n        /* \"#utility.yul\":7490:7648   */\n    tag_262:\n        /* \"#utility.yul\":7630:7640   */\n      0x506572736f6e616c000000000000000000000000000000000000000000000000\n        /* \"#utility.yul\":7626:7627   */\n      0x00\n        /* \"#utility.yul\":7618:7624   */\n      dup3\n        /* \"#utility.yul\":7614:7628   */\n      add\n        /* \"#utility.yul\":7607:7641   */\n      mstore\n        /* \"#utility.yul\":7490:7648   */\n      pop\n      jump\t// out\n        /* \"#utility.yul\":7654:8054   */\n    tag_263:\n        /* \"#utility.yul\":7814:7817   */\n      0x00\n        /* \"#utility.yul\":7835:7919   */\n      tag_412\n        /* \"#utility.yul\":7917:7918   */\n      0x08\n        /* \"#utility.yul\":7912:7915   */\n      dup4\n        /* \"#utility.yul\":7835:7919   */\n      tag_261\n      jump\t// in\n    tag_412:\n        /* \"#utility.yul\":7828:7919   */\n      swap2\n      pop\n        /* \"#utility.yul\":7928:8021   */\n      tag_413\n        /* \"#utility.yul\":8017:8020   */\n      dup3\n        /* \"#utility.yul\":7928:8021   */\n      tag_262\n      jump\t// in\n    tag_413:\n        /* \"#utility.yul\":8046:8047   */\n      0x08\n        /* \"#utility.yul\":8041:8044   */\n      dup3\n        /* \"#utility.yul\":8037:8048   */\n      add\n        /* \"#utility.yul\":8030:8048   */\n      swap1\n      pop\n        /* \"#utility.yul\":7654:8054   */\n      swap2\n      swap1\n      pop\n      jump\t// out\n        /* \"#utility.yul\":8060:8441   */\n    tag_75:\n        /* \"#utility.yul\":8245:8248   */\n      0x00\n        /* \"#utility.yul\":8267:8415   */\n      tag_415\n        /* \"#utility.yul\":8411:8414   */\n      dup3\n        /* \"#utility.yul\":8267:8415   */\n      tag_263\n      jump\t// in\n    tag_415:\n        /* \"#utility.yul\":8260:8415   */\n      swap2\n      pop\n        /* \"#utility.yul\":8432:8435   */\n      dup2\n        /* \"#utility.yul\":8425:8435   */\n      swap1\n      pop\n        /* \"#utility.yul\":8060:8441   */\n      swap2\n      swap1\n      pop\n      jump\t// out\n        /* \"#utility.yul\":8447:8627   */\n    tag_264:\n        /* \"#utility.yul\":8495:8572   */\n      0x4e487b7100000000000000000000000000000000000000000000000000000000\n        /* \"#utility.yul\":8492:8493   */\n      0x00\n        /* \"#utility.yul\":8485:8573   */\n      mstore\n        /* \"#utility.yul\":8592:8596   */\n      0x22\n        /* \"#utility.yul\":8589:8590   */\n      0x04\n        /* \"#utility.yul\":8582:8597   */\n      mstore\n        /* \"#utility.yul\":8616:8620   */\n      0x24\n        /* \"#utility.yul\":8613:8614   */\n      0x00\n        /* \"#utility.yul\":8606:8621   */\n      revert\n        /* \"#utility.yul\":8633:8953   */\n    tag_231:\n        /* \"#utility.yul\":8677:8683   */\n      0x00\n        /* \"#utility.yul\":8714:8715   */\n      0x02\n        /* \"#utility.yul\":8708:8712   */\n      dup3\n        /* \"#utility.yul\":8704:8716   */\n      div\n        /* \"#utility.yul\":8694:8716   */\n      swap1\n      pop\n        /* \"#utility.yul\":8761:8762   */\n      0x01\n        /* \"#utility.yul\":8755:8759   */\n      dup3\n        /* \"#utility.yul\":8751:8763   */\n      and\n        /* \"#utility.yul\":8782:8800   */\n      dup1\n        /* \"#utility.yul\":8772:8853   */\n      tag_418\n      jumpi\n        /* \"#utility.yul\":8838:8842   */\n      0x7f\n        /* \"#utility.yul\":8830:8836   */\n      dup3\n        /* \"#utility.yul\":8826:8843   */\n      and\n        /* \"#utility.yul\":8816:8843   */\n      swap2\n      pop\n        /* \"#utility.yul\":8772:8853   */\n    tag_418:\n        /* \"#utility.yul\":8900:8902   */\n      0x20\n        /* \"#utility.yul\":8892:8898   */\n      dup3\n        /* \"#utility.yul\":8889:8903   */\n      lt\n        /* \"#utility.yul\":8869:8887   */\n      dup2\n        /* \"#utility.yul\":8866:8904   */\n      sub\n        /* \"#utility.yul\":8863:8947   */\n      tag_419\n      jumpi\n        /* \"#utility.yul\":8919:8937   */\n      tag_420\n      tag_264\n      jump\t// in\n    tag_420:\n        /* \"#utility.yul\":8863:8947   */\n    tag_419:\n        /* \"#utility.yul\":8684:8953   */\n      pop\n        /* \"#utility.yul\":8633:8953   */\n      swap2\n      swap1\n      pop\n      jump\t// out\n        /* \"#utility.yul\":8959:9100   */\n    tag_265:\n        /* \"#utility.yul\":9008:9012   */\n      0x00\n        /* \"#utility.yul\":9031:9034   */\n      dup2\n        /* \"#utility.yul\":9023:9034   */\n      swap1\n      pop\n        /* \"#utility.yul\":9054:9057   */\n      dup2\n        /* \"#utility.yul\":9051:9052   */\n      0x00\n        /* \"#utility.yul\":9044:9058   */\n      mstore\n        /* \"#utility.yul\":9088:9092   */\n      0x20\n        /* \"#utility.yul\":9085:9086   */\n      0x00\n        /* \"#utility.yul\":9075:9093   */\n      keccak256\n        /* \"#utility.yul\":9067:9093   */\n      swap1\n      pop\n        /* \"#utility.yul\":8959:9100   */\n      swap2\n      swap1\n      pop\n      jump\t// out\n        /* \"#utility.yul\":9106:9199   */\n    tag_266:\n        /* \"#utility.yul\":9143:9149   */\n      0x00\n        /* \"#utility.yul\":9190:9192   */\n      0x20\n        /* \"#utility.yul\":9185:9187   */\n      0x1f\n        /* \"#utility.yul\":9178:9183   */\n      dup4\n        /* \"#utility.yul\":9174:9188   */\n      add\n        /* \"#utility.yul\":9170:9193   */\n      div\n        /* \"#utility.yul\":9160:9193   */\n      swap1\n      pop\n        /* \"#utility.yul\":9106:9199   */\n      swap2\n      swap1\n      pop\n      jump\t// out\n        /* \"#utility.yul\":9205:9312   */\n    tag_267:\n        /* \"#utility.yul\":9249:9257   */\n      0x00\n        /* \"#utility.yul\":9299:9304   */\n      dup3\n        /* \"#utility.yul\":9293:9297   */\n      dup3\n        /* \"#utility.yul\":9289:9305   */\n      shl\n        /* \"#utility.yul\":9268:9305   */\n      swap1\n      pop\n        /* \"#utility.yul\":9205:9312   */\n      swap3\n      swap2\n      pop\n      pop\n      jump\t// out\n        /* \"#utility.yul\":9318:9711   */\n    tag_268:\n        /* \"#utility.yul\":9387:9393   */\n      0x00\n        /* \"#utility.yul\":9437:9438   */\n      0x08\n        /* \"#utility.yul\":9425:9435   */\n      dup4\n        /* \"#utility.yul\":9421:9439   */\n      mul\n        /* \"#utility.yul\":9460:9557   */\n      tag_425\n        /* \"#utility.yul\":9490:9556   */\n      0xffffffffffffffffffffffffffffffffffffffffffffffffffffffffffffffff\n        /* \"#utility.yul\":9479:9488   */\n      dup3\n        /* \"#utility.yul\":9460:9557   */\n      tag_267\n      jump\t// in\n    tag_425:\n        /* \"#utility.yul\":9578:9617   */\n      tag_426\n        /* \"#utility.yul\":9608:9616   */\n      dup7\n        /* \"#utility.yul\":9597:9606   */\n      dup4\n        /* \"#utility.yul\":9578:9617   */\n      tag_267\n      jump\t// in\n    tag_426:\n        /* \"#utility.yul\":9566:9617   */\n      swap6\n      pop\n        /* \"#utility.yul\":9650:9654   */\n      dup1\n        /* \"#utility.yul\":9646:9655   */\n      not\n        /* \"#utility.yul\":9639:9644   */\n      dup5\n        /* \"#utility.yul\":9635:9656   */\n      and\n        /* \"#utility.yul\":9626:9656   */\n      swap4\n      pop\n        /* \"#utility.yul\":9699:9703   */\n      dup1\n        /* \"#utility.yul\":9689:9697   */\n      dup7\n        /* \"#utility.yul\":9685:9704   */\n      and\n        /* \"#utility.yul\":9678:9683   */\n      dup5\n        /* \"#utility.yul\":9675:9705   */\n      or\n        /* \"#utility.yul\":9665:9705   */\n      swap3\n      pop\n        /* \"#utility.yul\":9394:9711   */\n      pop\n      pop\n        /* \"#utility.yul\":9318:9711   */\n      swap4\n      swap3\n      pop\n      pop\n      pop\n      jump\t// out\n        /* \"#utility.yul\":9717:9777   */\n    tag_269:\n        /* \"#utility.yul\":9745:9748   */\n      0x00\n        /* \"#utility.yul\":9766:9771   */\n      dup2\n        /* \"#utility.yul\":9759:9771   */\n      swap1\n      pop\n        /* \"#utility.yul\":9717:9777   */\n      swap2\n      swap1\n      pop\n      jump\t// out\n        /* \"#utility.yul\":9783:9925   */\n    tag_270:\n        /* \"#utility.yul\":9833:9842   */\n      0x00\n        /* \"#utility.yul\":9866:9919   */\n      tag_429\n        /* \"#utility.yul\":9884:9918   */\n      tag_430\n        /* \"#utility.yul\":9893:9917   */\n      tag_431\n        /* \"#utility.yul\":9911:9916   */\n      dup5\n        /* \"#utility.yul\":9893:9917   */\n      tag_239\n      jump\t// in\n    tag_431:\n        /* \"#utility.yul\":9884:9918   */\n      tag_269\n      jump\t// in\n    tag_430:\n        /* \"#utility.yul\":9866:9919   */\n      tag_239\n      jump\t// in\n    tag_429:\n        /* \"#utility.yul\":9853:9919   */\n      swap1\n      pop\n        /* \"#utility.yul\":9783:9925   */\n      swap2\n      swap1\n      pop\n      jump\t// out\n        /* \"#utility.yul\":9931:10006   */\n    tag_271:\n        /* \"#utility.yul\":9974:9977   */\n      0x00\n        /* \"#utility.yul\":9995:10000   */\n      dup2\n        /* \"#utility.yul\":9988:10000   */\n      swap1\n      pop\n        /* \"#utility.yul\":9931:10006   */\n      swap2\n      swap1\n      pop\n      jump\t// out\n        /* \"#utility.yul\":10012:10281   */\n    tag_272:\n        /* \"#utility.yul\":10122:10161   */\n      tag_434\n        /* \"#utility.yul\":10153:10160   */\n      dup4\n        /* \"#utility.yul\":10122:10161   */\n      tag_270\n      jump\t// in\n    tag_434:\n        /* \"#utility.yul\":10183:10274   */\n      tag_435\n        /* \"#utility.yul\":10232:10273   */\n      tag_436\n        /* \"#utility.yul\":10256:10272   */\n      dup3\n        /* \"#utility.yul\":10232:10273   */\n      tag_271\n      jump\t// in\n    tag_436:\n        /* \"#utility.yul\":10224:10230   */\n      dup5\n        /* \"#utility.yul\":10217:10221   */\n      dup5\n        /* \"#utility.yul\":10211:10222   */\n      sload\n        /* \"#utility.yul\":10183:10274   */\n      tag_268\n      jump\t// in\n    tag_435:\n        /* \"#utility.yul\":10177:10181   */\n      dup3\n        /* \"#utility.yul\":10170:10275   */\n      sstore\n        /* \"#utility.yul\":10088:10281   */\n      pop\n        /* \"#utility.yul\":10012:10281   */\n      pop\n      pop\n      pop\n      jump\t// out\n        /* \"#utility.yul\":10287:10360   */\n    tag_273:\n        /* \"#utility.yul\":10332:10335   */\n      0x00\n        /* \"#utility.yul\":10287:10360   */\n      swap1\n      jump\t// out\n        /* \"#utility.yul\":10366:10555   */\n    tag_274:\n        /* \"#utility.yul\":10443:10475   */\n      tag_439\n      tag_273\n      jump\t// in\n    tag_439:\n        /* \"#utility.yul\":10484:10549   */\n      tag_440\n        /* \"#utility.yul\":10542:10548   */\n      dup2\n        /* \"#utility.yul\":10534:10540   */\n      dup5\n        /* \"#utility.yul\":10528:10532   */\n      dup5\n        /* \"#utility.yul\":10484:10549   */\n      tag_272\n      jump\t// in\n    tag_440:\n        /* \"#utility.yul\":10419:10555   */\n      pop\n        /* \"#utility.yul\":10366:10555   */\n      pop\n      pop\n      jump\t// out\n        /* \"#utility.yul\":10561:10747   */\n    tag_275:\n        /* \"#utility.yul\":10621:10741   */\n    tag_442:\n        /* \"#utility.yul\":10638:10641   */\n      dup2\n        /* \"#utility.yul\":10631:10636   */\n      dup2\n        /* \"#utility.yul\":10628:10642   */\n      lt\n        /* \"#utility.yul\":10621:10741   */\n      iszero\n      tag_444\n      jumpi\n        /* \"#utility.yul\":10692:10731   */\n      tag_445\n        /* \"#utility.yul\":10729:10730   */\n      0x00\n        /* \"#utility.yul\":10722:10727   */\n      dup3\n        /* \"#utility.yul\":10692:10731   */\n      tag_274\n      jump\t// in\n    tag_445:\n        /* \"#utility.yul\":10665:10666   */\n      0x01\n        /* \"#utility.yul\":10658:10663   */\n      dup2\n        /* \"#utility.yul\":10654:10667   */\n      add\n        /* \"#utility.yul\":10645:10667   */\n      swap1\n      pop\n        /* \"#utility.yul\":10621:10741   */\n      jump(tag_442)\n    tag_444:\n        /* \"#utility.yul\":10561:10747   */\n      pop\n      pop\n      jump\t// out\n        /* \"#utility.yul\":10753:11296   */\n    tag_276:\n        /* \"#utility.yul\":10854:10856   */\n      0x1f\n        /* \"#utility.yul\":10849:10852   */\n      dup3\n        /* \"#utility.yul\":10846:10857   */\n      gt\n        /* \"#utility.yul\":10843:11289   */\n      iszero\n      tag_447\n      jumpi\n        /* \"#utility.yul\":10888:10926   */\n      tag_448\n        /* \"#utility.yul\":10920:10925   */\n      dup2\n        /* \"#utility.yul\":10888:10926   */\n      tag_265\n      jump\t// in\n    tag_448:\n        /* \"#utility.yul\":10972:11001   */\n      tag_449\n        /* \"#utility.yul\":10990:11000   */\n      dup5\n        /* \"#utility.yul\":10972:11001   */\n      tag_266\n      jump\t// in\n    tag_449:\n        /* \"#utility.yul\":10962:10970   */\n      dup2\n        /* \"#utility.yul\":10958:11002   */\n      add\n        /* \"#utility.yul\":11155:11157   */\n      0x20\n        /* \"#utility.yul\":11143:11153   */\n      dup6\n        /* \"#utility.yul\":11140:11158   */\n      lt\n        /* \"#utility.yul\":11137:11186   */\n      iszero\n      tag_450\n      jumpi\n        /* \"#utility.yul\":11176:11184   */\n      dup2\n        /* \"#utility.yul\":11161:11184   */\n      swap1\n      pop\n        /* \"#utility.yul\":11137:11186   */\n    tag_450:\n        /* \"#utility.yul\":11199:11279   */\n      tag_451\n        /* \"#utility.yul\":11255:11277   */\n      tag_452\n        /* \"#utility.yul\":11273:11276   */\n      dup6\n        /* \"#utility.yul\":11255:11277   */\n      tag_266\n      jump\t// in\n    tag_452:\n        /* \"#utility.yul\":11245:11253   */\n      dup4\n        /* \"#utility.yul\":11241:11278   */\n      add\n        /* \"#utility.yul\":11228:11239   */\n      dup3\n        /* \"#utility.yul\":11199:11279   */\n      tag_275\n      jump\t// in\n    tag_451:\n        /* \"#utility.yul\":10858:11289   */\n      pop\n      pop\n        /* \"#utility.yul\":10843:11289   */\n    tag_447:\n        /* \"#utility.yul\":10753:11296   */\n      pop\n      pop\n      pop\n      jump\t// out\n        /* \"#utility.yul\":11302:11419   */\n    tag_277:\n        /* \"#utility.yul\":11356:11364   */\n      0x00\n        /* \"#utility.yul\":11406:11411   */\n      dup3\n        /* \"#utility.yul\":11400:11404   */\n      dup3\n        /* \"#utility.yul\":11396:11412   */\n      shr\n        /* \"#utility.yul\":11375:11412   */\n      swap1\n      pop\n        /* \"#utility.yul\":11302:11419   */\n      swap3\n      swap2\n      pop\n      pop\n      jump\t// out\n        /* \"#utility.yul\":11425:11594   */\n    tag_278:\n        /* \"#utility.yul\":11469:11475   */\n      0x00\n        /* \"#utility.yul\":11502:11553   */\n      tag_455\n        /* \"#utility.yul\":11550:11551   */\n      0x00\n        /* \"#utility.yul\":11546:11552   */\n      not\n        /* \"#utility.yul\":11538:11543   */\n      dup5\n        /* \"#utility.yul\":11535:11536   */\n      0x08\n        /* \"#utility.yul\":11531:11544   */\n      mul\n        /* \"#utility.yul\":11502:11553   */\n      tag_277\n      jump\t// in\n    tag_455:\n        /* \"#utility.yul\":11498:11554   */\n      not\n        /* \"#utility.yul\":11583:11587   */\n      dup1\n        /* \"#utility.yul\":11577:11581   */\n      dup4\n        /* \"#utility.yul\":11573:11588   */\n      and\n        /* \"#utility.yul\":11563:11588   */\n      swap2\n      pop\n        /* \"#utility.yul\":11476:11594   */\n      pop\n        /* \"#utility.yul\":11425:11594   */\n      swap3\n      swap2\n      pop\n      pop\n      jump\t// out\n        /* \"#utility.yul\":11599:11894   */\n    tag_279:\n        /* \"#utility.yul\":11675:11679   */\n      0x00\n        /* \"#utility.yul\":11821:11850   */\n      tag_457\n        /* \"#utility.yul\":11846:11849   */\n      dup4\n        /* \"#utility.yul\":11840:11844   */\n      dup4\n        /* \"#utility.yul\":11821:11850   */\n      tag_278\n      jump\t// in\n    tag_457:\n        /* \"#utility.yul\":11813:11850   */\n      swap2\n      pop\n        /* \"#utility.yul\":11883:11886   */\n      dup3\n        /* \"#utility.yul\":11880:11881   */\n      0x02\n        /* \"#utility.yul\":11876:11887   */\n      mul\n        /* \"#utility.yul\":11870:11874   */\n      dup3\n        /* \"#utility.yul\":11867:11888   */\n      or\n        /* \"#utility.yul\":11859:11888   */\n      swap1\n      pop\n        /* \"#utility.yul\":11599:11894   */\n      swap3\n      swap2\n      pop\n      pop\n      jump\t// out\n        /* \"#utility.yul\":11899:13294   */\n    tag_77:\n        /* \"#utility.yul\":12016:12053   */\n      tag_459\n        /* \"#utility.yul\":12049:12052   */\n      dup3\n        /* \"#utility.yul\":12016:12053   */\n      tag_247\n      jump\t// in\n    tag_459:\n        /* \"#utility.yul\":12118:12136   */\n      0xffffffffffffffff\n        /* \"#utility.yul\":12110:12116   */\n      dup2\n        /* \"#utility.yul\":12107:12137   */\n      gt\n        /* \"#utility.yul\":12104:12160   */\n      iszero\n      tag_460\n      jumpi\n        /* \"#utility.yul\":12140:12158   */\n      tag_461\n      tag_254\n      jump\t// in\n    tag_461:\n        /* \"#utility.yul\":12104:12160   */\n    tag_460:\n        /* \"#utility.yul\":12184:12222   */\n      tag_462\n        /* \"#utility.yul\":12216:12220   */\n      dup3\n        /* \"#utility.yul\":12210:12221   */\n      sload\n        /* \"#utility.yul\":12184:12222   */\n      tag_231\n      jump\t// in\n    tag_462:\n        /* \"#utility.yul\":12269:12336   */\n      tag_463\n        /* \"#utility.yul\":12329:12335   */\n      dup3\n        /* \"#utility.yul\":12321:12327   */\n      dup3\n        /* \"#utility.yul\":12315:12319   */\n      dup6\n        /* \"#utility.yul\":12269:12336   */\n      tag_276\n      jump\t// in\n    tag_463:\n        /* \"#utility.yul\":12363:12364   */\n      0x00\n        /* \"#utility.yul\":12387:12391   */\n      0x20\n        /* \"#utility.yul\":12374:12391   */\n      swap1\n      pop\n        /* \"#utility.yul\":12419:12421   */\n      0x1f\n        /* \"#utility.yul\":12411:12417   */\n      dup4\n        /* \"#utility.yul\":12408:12422   */\n      gt\n        /* \"#utility.yul\":12436:12437   */\n      0x01\n        /* \"#utility.yul\":12431:13049   */\n      dup2\n      eq\n      tag_465\n      jumpi\n        /* \"#utility.yul\":13093:13094   */\n      0x00\n        /* \"#utility.yul\":13110:13116   */\n      dup5\n        /* \"#utility.yul\":13107:13184   */\n      iszero\n      tag_466\n      jumpi\n        /* \"#utility.yul\":13159:13168   */\n      dup3\n        /* \"#utility.yul\":13154:13157   */\n      dup8\n        /* \"#utility.yul\":13150:13169   */\n      add\n        /* \"#utility.yul\":13144:13170   */\n      mload\n        /* \"#utility.yul\":13135:13170   */\n      swap1\n      pop\n        /* \"#utility.yul\":13107:13184   */\n    tag_466:\n        /* \"#utility.yul\":13210:13277   */\n      tag_467\n        /* \"#utility.yul\":13270:13276   */\n      dup6\n        /* \"#utility.yul\":13263:13268   */\n      dup3\n        /* \"#utility.yul\":13210:13277   */\n      tag_279\n      jump\t// in\n    tag_467:\n        /* \"#utility.yul\":13204:13208   */\n      dup7\n        /* \"#utility.yul\":13197:13278   */\n      sstore\n        /* \"#utility.yul\":13066:13288   */\n      pop\n        /* \"#utility.yul\":12401:13288   */\n      jump(tag_464)\n        /* \"#utility.yul\":12431:13049   */\n    tag_465:\n        /* \"#utility.yul\":12483:12487   */\n      0x1f\n        /* \"#utility.yul\":12479:12488   */\n      not\n        /* \"#utility.yul\":12471:12477   */\n      dup5\n        /* \"#utility.yul\":12467:12489   */\n      and\n        /* \"#utility.yul\":12517:12554   */\n      tag_468\n        /* \"#utility.yul\":12549:12553   */\n      dup7\n        /* \"#utility.yul\":12517:12554   */\n      tag_265\n      jump\t// in\n    tag_468:\n        /* \"#utility.yul\":12576:12577   */\n      0x00\n        /* \"#utility.yul\":12590:12798   */\n    tag_469:\n        /* \"#utility.yul\":12604:12611   */\n      dup3\n        /* \"#utility.yul\":12601:12602   */\n      dup2\n        /* \"#utility.yul\":12598:12612   */\n      lt\n        /* \"#utility.yul\":12590:12798   */\n      iszero\n      tag_471\n      jumpi\n        /* \"#utility.yul\":12683:12692   */\n      dup5\n        /* \"#utility.yul\":12678:12681   */\n      dup10\n        /* \"#utility.yul\":12674:12693   */\n      add\n        /* \"#utility.yul\":12668:12694   */\n      mload\n        /* \"#utility.yul\":12660:12666   */\n      dup3\n        /* \"#utility.yul\":12653:12695   */\n      sstore\n        /* \"#utility.yul\":12734:12735   */\n      0x01\n        /* \"#utility.yul\":12726:12732   */\n      dup3\n        /* \"#utility.yul\":12722:12736   */\n      add\n        /* \"#utility.yul\":12712:12736   */\n      swap2\n      pop\n        /* \"#utility.yul\":12781:12783   */\n      0x20\n        /* \"#utility.yul\":12770:12779   */\n      dup6\n        /* \"#utility.yul\":12766:12784   */\n      add\n        /* \"#utility.yul\":12753:12784   */\n      swap5\n      pop\n        /* \"#utility.yul\":12627:12631   */\n      0x20\n        /* \"#utility.yul\":12624:12625   */\n      dup2\n        /* \"#utility.yul\":12620:12632   */\n      add\n        /* \"#utility.yul\":12615:12632   */\n      swap1\n      pop\n        /* \"#utility.yul\":12590:12798   */\n      jump(tag_469)\n    tag_471:\n        /* \"#utility.yul\":12826:12832   */\n      dup7\n        /* \"#utility.yul\":12817:12824   */\n      dup4\n        /* \"#utility.yul\":12814:12833   */\n      lt\n        /* \"#utility.yul\":12811:12990   */\n      iszero\n      tag_472\n      jumpi\n        /* \"#utility.yul\":12884:12893   */\n      dup5\n        /* \"#utility.yul\":12879:12882   */\n      dup10\n        /* \"#utility.yul\":12875:12894   */\n      add\n        /* \"#utility.yul\":12869:12895   */\n      mload\n        /* \"#utility.yul\":12927:12975   */\n      tag_473\n        /* \"#utility.yul\":12969:12973   */\n      0x1f\n        /* \"#utility.yul\":12961:12967   */\n      dup10\n        /* \"#utility.yul\":12957:12974   */\n      and\n        /* \"#utility.yul\":12946:12955   */\n      dup3\n        /* \"#utility.yul\":12927:12975   */\n      tag_278\n      jump\t// in\n    tag_473:\n        /* \"#utility.yul\":12919:12925   */\n      dup4\n        /* \"#utility.yul\":12912:12976   */\n      sstore\n        /* \"#utility.yul\":12834:12990   */\n      pop\n        /* \"#utility.yul\":12811:12990   */\n    tag_472:\n        /* \"#utility.yul\":13036:13037   */\n      0x01\n        /* \"#utility.yul\":13032:13033   */\n      0x02\n        /* \"#utility.yul\":13024:13030   */\n      dup9\n        /* \"#utility.yul\":13020:13034   */\n      mul\n        /* \"#utility.yul\":13016:13038   */\n      add\n        /* \"#utility.yul\":13010:13014   */\n      dup9\n        /* \"#utility.yul\":13003:13039   */\n      sstore\n        /* \"#utility.yul\":12438:13049   */\n      pop\n      pop\n      pop\n        /* \"#utility.yul\":12401:13288   */\n    tag_464:\n      pop\n        /* \"#utility.yul\":11991:13294   */\n      pop\n      pop\n      pop\n        /* \"#utility.yul\":11899:13294   */\n      pop\n      pop\n      jump\t// out\n        /* \"#utility.yul\":13300:13480   */\n    tag_280:\n        /* \"#utility.yul\":13348:13425   */\n      0x4e487b7100000000000000000000000000000000000000000000000000000000\n        /* \"#utility.yul\":13345:13346   */\n      0x00\n        /* \"#utility.yul\":13338:13426   */\n      mstore\n        /* \"#utility.yul\":13445:13449   */\n      0x11\n        /* \"#utility.yul\":13442:13443   */\n      0x04\n        /* \"#utility.yul\":13435:13450   */\n      mstore\n        /* \"#utility.yul\":13469:13473   */\n      0x24\n        /* \"#utility.yul\":13466:13467   */\n      0x00\n        /* \"#utility.yul\":13459:13474   */\n      revert\n        /* \"#utility.yul\":13486:13677   */\n    tag_80:\n        /* \"#utility.yul\":13526:13529   */\n      0x00\n        /* \"#utility.yul\":13545:13565   */\n      tag_476\n        /* \"#utility.yul\":13563:13564   */\n      dup3\n        /* \"#utility.yul\":13545:13565   */\n      tag_239\n      jump\t// in\n    tag_476:\n        /* \"#utility.yul\":13540:13565   */\n      swap2\n      pop\n        /* \"#utility.yul\":13579:13599   */\n      tag_477\n        /* \"#utility.yul\":13597:13598   */\n      dup4\n        /* \"#utility.yul\":13579:13599   */\n      tag_239\n      jump\t// in\n    tag_477:\n        /* \"#utility.yul\":13574:13599   */\n      swap3\n      pop\n        /* \"#utility.yul\":13622:13623   */\n      dup3\n        /* \"#utility.yul\":13619:13620   */\n      dup3\n        /* \"#utility.yul\":13615:13624   */\n      add\n        /* \"#utility.yul\":13608:13624   */\n      swap1\n      pop\n        /* \"#utility.yul\":13643:13646   */\n      dup1\n        /* \"#utility.yul\":13640:13641   */\n      dup3\n        /* \"#utility.yul\":13637:13647   */\n      gt\n        /* \"#utility.yul\":13634:13670   */\n      iszero\n      tag_478\n      jumpi\n        /* \"#utility.yul\":13650:13668   */\n      tag_479\n      tag_280\n      jump\t// in\n    tag_479:\n        /* \"#utility.yul\":13634:13670   */\n    tag_478:\n        /* \"#utility.yul\":13486:13677   */\n      swap3\n      swap2\n      pop\n      pop\n      jump\t// out\n        /* \"#utility.yul\":13683:13877   */\n    tag_87:\n        /* \"#utility.yul\":13723:13727   */\n      0x00\n        /* \"#utility.yul\":13743:13763   */\n      tag_481\n        /* \"#utility.yul\":13761:13762   */\n      dup3\n        /* \"#utility.yul\":13743:13763   */\n      tag_239\n      jump\t// in\n    tag_481:\n        /* \"#utility.yul\":13738:13763   */\n      swap2\n      pop\n        /* \"#utility.yul\":13777:13797   */\n      tag_482\n        /* \"#utility.yul\":13795:13796   */\n      dup4\n        /* \"#utility.yul\":13777:13797   */\n      tag_239\n      jump\t// in\n    tag_482:\n        /* \"#utility.yul\":13772:13797   */\n      swap3\n      pop\n        /* \"#utility.yul\":13821:13822   */\n      dup3\n        /* \"#utility.yul\":13818:13819   */\n      dup3\n        /* \"#utility.yul\":13814:13823   */\n      sub\n        /* \"#utility.yul\":13806:13823   */\n      swap1\n      pop\n        /* \"#utility.yul\":13845:13846   */\n      dup2\n        /* \"#utility.yul\":13839:13843   */\n      dup2\n        /* \"#utility.yul\":13836:13847   */\n      gt\n        /* \"#utility.yul\":13833:13870   */\n      iszero\n      tag_483\n      jumpi\n        /* \"#utility.yul\":13850:13868   */\n      tag_484\n      tag_280\n      jump\t// in\n    tag_484:\n        /* \"#utility.yul\":13833:13870   */\n    tag_483:\n        /* \"#utility.yul\":13683:13877   */\n      swap3\n      swap2\n      pop\n      pop\n      jump\t// out\n        /* \"#utility.yul\":13883:14001   */\n    tag_281:\n        /* \"#utility.yul\":13970:13994   */\n      tag_486\n        /* \"#utility.yul\":13988:13993   */\n      dup2\n        /* \"#utility.yul\":13970:13994   */\n      tag_244\n      jump\t// in\n    tag_486:\n        /* \"#utility.yul\":13965:13968   */\n      dup3\n        /* \"#utility.yul\":13958:13995   */\n      mstore\n        /* \"#utility.yul\":13883:14001   */\n      pop\n      pop\n      jump\t// out\n        /* \"#utility.yul\":14007:14181   */\n    tag_282:\n        /* \"#utility.yul\":14147:14173   */\n      0x68617320676f7420706572736f6e616c206c6f616e206f660000000000000000\n        /* \"#utility.yul\":14143:14144   */\n      0x00\n        /* \"#utility.yul\":14135:14141   */\n      dup3\n        /* \"#utility.yul\":14131:14145   */\n      add\n        /* \"#utility.yul\":14124:14174   */\n      mstore\n        /* \"#utility.yul\":14007:14181   */\n      pop\n      jump\t// out\n        /* \"#utility.yul\":14187:14553   */\n    tag_283:\n        /* \"#utility.yul\":14329:14332   */\n      0x00\n        /* \"#utility.yul\":14350:14417   */\n      tag_489\n        /* \"#utility.yul\":14414:14416   */\n      0x18\n        /* \"#utility.yul\":14409:14412   */\n      dup4\n        /* \"#utility.yul\":14350:14417   */\n      tag_248\n      jump\t// in\n    tag_489:\n        /* \"#utility.yul\":14343:14417   */\n      swap2\n      pop\n        /* \"#utility.yul\":14426:14519   */\n      tag_490\n        /* \"#utility.yul\":14515:14518   */\n      dup3\n        /* \"#utility.yul\":14426:14519   */\n      tag_282\n      jump\t// in\n    tag_490:\n        /* \"#utility.yul\":14544:14546   */\n      0x20\n        /* \"#utility.yul\":14539:14542   */\n      dup3\n        /* \"#utility.yul\":14535:14547   */\n      add\n        /* \"#utility.yul\":14528:14547   */\n      swap1\n      pop\n        /* \"#utility.yul\":14187:14553   */\n      swap2\n      swap1\n      pop\n      jump\t// out\n        /* \"#utility.yul\":14559:15309   */\n    tag_89:\n        /* \"#utility.yul\":14809:14813   */\n      0x00\n        /* \"#utility.yul\":14847:14850   */\n      0x80\n        /* \"#utility.yul\":14836:14845   */\n      dup3\n        /* \"#utility.yul\":14832:14851   */\n      add\n        /* \"#utility.yul\":14824:14851   */\n      swap1\n      pop\n        /* \"#utility.yul\":14861:14932   */\n      tag_492\n        /* \"#utility.yul\":14929:14930   */\n      0x00\n        /* \"#utility.yul\":14918:14927   */\n      dup4\n        /* \"#utility.yul\":14914:14931   */\n      add\n        /* \"#utility.yul\":14905:14911   */\n      dup7\n        /* \"#utility.yul\":14861:14932   */\n      tag_281\n      jump\t// in\n    tag_492:\n        /* \"#utility.yul\":14979:14988   */\n      dup2\n        /* \"#utility.yul\":14973:14977   */\n      dup2\n        /* \"#utility.yul\":14969:14989   */\n      sub\n        /* \"#utility.yul\":14964:14966   */\n      0x20\n        /* \"#utility.yul\":14953:14962   */\n      dup4\n        /* \"#utility.yul\":14949:14967   */\n      add\n        /* \"#utility.yul\":14942:14990   */\n      mstore\n        /* \"#utility.yul\":15007:15138   */\n      tag_493\n        /* \"#utility.yul\":15133:15137   */\n      dup2\n        /* \"#utility.yul\":15007:15138   */\n      tag_283\n      jump\t// in\n    tag_493:\n        /* \"#utility.yul\":14999:15138   */\n      swap1\n      pop\n        /* \"#utility.yul\":15148:15220   */\n      tag_494\n        /* \"#utility.yul\":15216:15218   */\n      0x40\n        /* \"#utility.yul\":15205:15214   */\n      dup4\n        /* \"#utility.yul\":15201:15219   */\n      add\n        /* \"#utility.yul\":15192:15198   */\n      dup6\n        /* \"#utility.yul\":15148:15220   */\n      tag_242\n      jump\t// in\n    tag_494:\n        /* \"#utility.yul\":15230:15302   */\n      tag_495\n        /* \"#utility.yul\":15298:15300   */\n      0x60\n        /* \"#utility.yul\":15287:15296   */\n      dup4\n        /* \"#utility.yul\":15283:15301   */\n      add\n        /* \"#utility.yul\":15274:15280   */\n      dup5\n        /* \"#utility.yul\":15230:15302   */\n      tag_242\n      jump\t// in\n    tag_495:\n        /* \"#utility.yul\":14559:15309   */\n      swap5\n      swap4\n      pop\n      pop\n      pop\n      pop\n      jump\t// out\n        /* \"#utility.yul\":15315:15490   */\n    tag_284:\n        /* \"#utility.yul\":15455:15482   */\n      0x506c7a7a20776974686472617720736f6d6520616d6f756e7400000000000000\n        /* \"#utility.yul\":15451:15452   */\n      0x00\n        /* \"#utility.yul\":15443:15449   */\n      dup3\n        /* \"#utility.yul\":15439:15453   */\n      add\n        /* \"#utility.yul\":15432:15483   */\n      mstore\n        /* \"#utility.yul\":15315:15490   */\n      pop\n      jump\t// out\n        /* \"#utility.yul\":15496:15862   */\n    tag_285:\n        /* \"#utility.yul\":15638:15641   */\n      0x00\n        /* \"#utility.yul\":15659:15726   */\n      tag_498\n        /* \"#utility.yul\":15723:15725   */\n      0x19\n        /* \"#utility.yul\":15718:15721   */\n      dup4\n        /* \"#utility.yul\":15659:15726   */\n      tag_248\n      jump\t// in\n    tag_498:\n        /* \"#utility.yul\":15652:15726   */\n      swap2\n      pop\n        /* \"#utility.yul\":15735:15828   */\n      tag_499\n        /* \"#utility.yul\":15824:15827   */\n      dup3\n        /* \"#utility.yul\":15735:15828   */\n      tag_284\n      jump\t// in\n    tag_499:\n        /* \"#utility.yul\":15853:15855   */\n      0x20\n        /* \"#utility.yul\":15848:15851   */\n      dup3\n        /* \"#utility.yul\":15844:15856   */\n      add\n        /* \"#utility.yul\":15837:15856   */\n      swap1\n      pop\n        /* \"#utility.yul\":15496:15862   */\n      swap2\n      swap1\n      pop\n      jump\t// out\n        /* \"#utility.yul\":15868:16287   */\n    tag_93:\n        /* \"#utility.yul\":16034:16038   */\n      0x00\n        /* \"#utility.yul\":16072:16074   */\n      0x20\n        /* \"#utility.yul\":16061:16070   */\n      dup3\n        /* \"#utility.yul\":16057:16075   */\n      add\n        /* \"#utility.yul\":16049:16075   */\n      swap1\n      pop\n        /* \"#utility.yul\":16121:16130   */\n      dup2\n        /* \"#utility.yul\":16115:16119   */\n      dup2\n        /* \"#utility.yul\":16111:16131   */\n      sub\n        /* \"#utility.yul\":16107:16108   */\n      0x00\n        /* \"#utility.yul\":16096:16105   */\n      dup4\n        /* \"#utility.yul\":16092:16109   */\n      add\n        /* \"#utility.yul\":16085:16132   */\n      mstore\n        /* \"#utility.yul\":16149:16280   */\n      tag_501\n        /* \"#utility.yul\":16275:16279   */\n      dup2\n        /* \"#utility.yul\":16149:16280   */\n      tag_285\n      jump\t// in\n    tag_501:\n        /* \"#utility.yul\":16141:16280   */\n      swap1\n      pop\n        /* \"#utility.yul\":15868:16287   */\n      swap2\n      swap1\n      pop\n      jump\t// out\n        /* \"#utility.yul\":16293:16456   */\n    tag_286:\n        /* \"#utility.yul\":16433:16448   */\n      0x4e6f206461746120657869737400000000000000000000000000000000000000\n        /* \"#utility.yul\":16429:16430   */\n      0x00\n        /* \"#utility.yul\":16421:16427   */\n      dup3\n        /* \"#utility.yul\":16417:16431   */\n      add\n        /* \"#utility.yul\":16410:16449   */\n      mstore\n        /* \"#utility.yul\":16293:16456   */\n      pop\n      jump\t// out\n        /* \"#utility.yul\":16462:16828   */\n    tag_287:\n        /* \"#utility.yul\":16604:16607   */\n      0x00\n        /* \"#utility.yul\":16625:16692   */\n      tag_504\n        /* \"#utility.yul\":16689:16691   */\n      0x0d\n        /* \"#utility.yul\":16684:16687   */\n      dup4\n        /* \"#utility.yul\":16625:16692   */\n      tag_248\n      jump\t// in\n    tag_504:\n        /* \"#utility.yul\":16618:16692   */\n      swap2\n      pop\n        /* \"#utility.yul\":16701:16794   */\n      tag_505\n        /* \"#utility.yul\":16790:16793   */\n      dup3\n        /* \"#utility.yul\":16701:16794   */\n      tag_286\n      jump\t// in\n    tag_505:\n        /* \"#utility.yul\":16819:16821   */\n      0x20\n        /* \"#utility.yul\":16814:16817   */\n      dup3\n        /* \"#utility.yul\":16810:16822   */\n      add\n        /* \"#utility.yul\":16803:16822   */\n      swap1\n      pop\n        /* \"#utility.yul\":16462:16828   */\n      swap2\n      swap1\n      pop\n      jump\t// out\n        /* \"#utility.yul\":16834:17253   */\n    tag_96:\n        /* \"#utility.yul\":17000:17004   */\n      0x00\n        /* \"#utility.yul\":17038:17040   */\n      0x20\n        /* \"#utility.yul\":17027:17036   */\n      dup3\n        /* \"#utility.yul\":17023:17041   */\n      add\n        /* \"#utility.yul\":17015:17041   */\n      swap1\n      pop\n        /* \"#utility.yul\":17087:17096   */\n      dup2\n        /* \"#utility.yul\":17081:17085   */\n      dup2\n        /* \"#utility.yul\":17077:17097   */\n      sub\n        /* \"#utility.yul\":17073:17074   */\n      0x00\n        /* \"#utility.yul\":17062:17071   */\n      dup4\n        /* \"#utility.yul\":17058:17075   */\n      add\n        /* \"#utility.yul\":17051:17098   */\n      mstore\n        /* \"#utility.yul\":17115:17246   */\n      tag_507\n        /* \"#utility.yul\":17241:17245   */\n      dup2\n        /* \"#utility.yul\":17115:17246   */\n      tag_287\n      jump\t// in\n    tag_507:\n        /* \"#utility.yul\":17107:17246   */\n      swap1\n      pop\n        /* \"#utility.yul\":16834:17253   */\n      swap2\n      swap1\n      pop\n      jump\t// out\n        /* \"#utility.yul\":17259:17484   */\n    tag_288:\n        /* \"#utility.yul\":17399:17433   */\n      0x4e65656420746f20776169742031206d696e75746573206265666f7265207769\n        /* \"#utility.yul\":17395:17396   */\n      0x00\n        /* \"#utility.yul\":17387:17393   */\n      dup3\n        /* \"#utility.yul\":17383:17397   */\n      add\n        /* \"#utility.yul\":17376:17434   */\n      mstore\n        /* \"#utility.yul\":17468:17476   */\n      0x7468647261770000000000000000000000000000000000000000000000000000\n        /* \"#utility.yul\":17463:17465   */\n      0x20\n        /* \"#utility.yul\":17455:17461   */\n      dup3\n        /* \"#utility.yul\":17451:17466   */\n      add\n        /* \"#utility.yul\":17444:17477   */\n      mstore\n        /* \"#utility.yul\":17259:17484   */\n      pop\n      jump\t// out\n        /* \"#utility.yul\":17490:17856   */\n    tag_289:\n        /* \"#utility.yul\":17632:17635   */\n      0x00\n        /* \"#utility.yul\":17653:17720   */\n      tag_510\n        /* \"#utility.yul\":17717:17719   */\n      0x26\n        /* \"#utility.yul\":17712:17715   */\n      dup4\n        /* \"#utility.yul\":17653:17720   */\n      tag_248\n      jump\t// in\n    tag_510:\n        /* \"#utility.yul\":17646:17720   */\n      swap2\n      pop\n        /* \"#utility.yul\":17729:17822   */\n      tag_511\n        /* \"#utility.yul\":17818:17821   */\n      dup3\n        /* \"#utility.yul\":17729:17822   */\n      tag_288\n      jump\t// in\n    tag_511:\n        /* \"#utility.yul\":17847:17849   */\n      0x40\n        /* \"#utility.yul\":17842:17845   */\n      dup3\n        /* \"#utility.yul\":17838:17850   */\n      add\n        /* \"#utility.yul\":17831:17850   */\n      swap1\n      pop\n        /* \"#utility.yul\":17490:17856   */\n      swap2\n      swap1\n      pop\n      jump\t// out\n        /* \"#utility.yul\":17862:18281   */\n    tag_100:\n        /* \"#utility.yul\":18028:18032   */\n      0x00\n        /* \"#utility.yul\":18066:18068   */\n      0x20\n        /* \"#utility.yul\":18055:18064   */\n      dup3\n        /* \"#utility.yul\":18051:18069   */\n      add\n        /* \"#utility.yul\":18043:18069   */\n      swap1\n      pop\n        /* \"#utility.yul\":18115:18124   */\n      dup2\n        /* \"#utility.yul\":18109:18113   */\n      dup2\n        /* \"#utility.yul\":18105:18125   */\n      sub\n        /* \"#utility.yul\":18101:18102   */\n      0x00\n        /* \"#utility.yul\":18090:18099   */\n      dup4\n        /* \"#utility.yul\":18086:18103   */\n      add\n        /* \"#utility.yul\":18079:18126   */\n      mstore\n        /* \"#utility.yul\":18143:18274   */\n      tag_513\n        /* \"#utility.yul\":18269:18273   */\n      dup2\n        /* \"#utility.yul\":18143:18274   */\n      tag_289\n      jump\t// in\n    tag_513:\n        /* \"#utility.yul\":18135:18274   */\n      swap1\n      pop\n        /* \"#utility.yul\":17862:18281   */\n      swap2\n      swap1\n      pop\n      jump\t// out\n        /* \"#utility.yul\":18287:18450   */\n    tag_290:\n        /* \"#utility.yul\":18427:18442   */\n      0x6861732077697468647261776e00000000000000000000000000000000000000\n        /* \"#utility.yul\":18423:18424   */\n      0x00\n        /* \"#utility.yul\":18415:18421   */\n      dup3\n        /* \"#utility.yul\":18411:18425   */\n      add\n        /* \"#utility.yul\":18404:18443   */\n      mstore\n        /* \"#utility.yul\":18287:18450   */\n      pop\n      jump\t// out\n        /* \"#utility.yul\":18456:18822   */\n    tag_291:\n        /* \"#utility.yul\":18598:18601   */\n      0x00\n        /* \"#utility.yul\":18619:18686   */\n      tag_516\n        /* \"#utility.yul\":18683:18685   */\n      0x0d\n        /* \"#utility.yul\":18678:18681   */\n      dup4\n        /* \"#utility.yul\":18619:18686   */\n      tag_248\n      jump\t// in\n    tag_516:\n        /* \"#utility.yul\":18612:18686   */\n      swap2\n      pop\n        /* \"#utility.yul\":18695:18788   */\n      tag_517\n        /* \"#utility.yul\":18784:18787   */\n      dup3\n        /* \"#utility.yul\":18695:18788   */\n      tag_290\n      jump\t// in\n    tag_517:\n        /* \"#utility.yul\":18813:18815   */\n      0x20\n        /* \"#utility.yul\":18808:18811   */\n      dup3\n        /* \"#utility.yul\":18804:18816   */\n      add\n        /* \"#utility.yul\":18797:18816   */\n      swap1\n      pop\n        /* \"#utility.yul\":18456:18822   */\n      swap2\n      swap1\n      pop\n      jump\t// out\n        /* \"#utility.yul\":18828:19467   */\n    tag_106:\n        /* \"#utility.yul\":19050:19054   */\n      0x00\n        /* \"#utility.yul\":19088:19090   */\n      0x60\n        /* \"#utility.yul\":19077:19086   */\n      dup3\n        /* \"#utility.yul\":19073:19091   */\n      add\n        /* \"#utility.yul\":19065:19091   */\n      swap1\n      pop\n        /* \"#utility.yul\":19101:19172   */\n      tag_519\n        /* \"#utility.yul\":19169:19170   */\n      0x00\n        /* \"#utility.yul\":19158:19167   */\n      dup4\n        /* \"#utility.yul\":19154:19171   */\n      add\n        /* \"#utility.yul\":19145:19151   */\n      dup6\n        /* \"#utility.yul\":19101:19172   */\n      tag_281\n      jump\t// in\n    tag_519:\n        /* \"#utility.yul\":19219:19228   */\n      dup2\n        /* \"#utility.yul\":19213:19217   */\n      dup2\n        /* \"#utility.yul\":19209:19229   */\n      sub\n        /* \"#utility.yul\":19204:19206   */\n      0x20\n        /* \"#utility.yul\":19193:19202   */\n      dup4\n        /* \"#utility.yul\":19189:19207   */\n      add\n        /* \"#utility.yul\":19182:19230   */\n      mstore\n        /* \"#utility.yul\":19247:19378   */\n      tag_520\n        /* \"#utility.yul\":19373:19377   */\n      dup2\n        /* \"#utility.yul\":19247:19378   */\n      tag_291\n      jump\t// in\n    tag_520:\n        /* \"#utility.yul\":19239:19378   */\n      swap1\n      pop\n        /* \"#utility.yul\":19388:19460   */\n      tag_521\n        /* \"#utility.yul\":19456:19458   */\n      0x40\n        /* \"#utility.yul\":19445:19454   */\n      dup4\n        /* \"#utility.yul\":19441:19459   */\n      add\n        /* \"#utility.yul\":19432:19438   */\n      dup5\n        /* \"#utility.yul\":19388:19460   */\n      tag_242\n      jump\t// in\n    tag_521:\n        /* \"#utility.yul\":18828:19467   */\n      swap4\n      swap3\n      pop\n      pop\n      pop\n      jump\t// out\n        /* \"#utility.yul\":19473:19626   */\n    tag_292:\n        /* \"#utility.yul\":19613:19618   */\n      0x4361720000000000000000000000000000000000000000000000000000000000\n        /* \"#utility.yul\":19609:19610   */\n      0x00\n        /* \"#utility.yul\":19601:19607   */\n      dup3\n        /* \"#utility.yul\":19597:19611   */\n      add\n        /* \"#utility.yul\":19590:19619   */\n      mstore\n        /* \"#utility.yul\":19473:19626   */\n      pop\n      jump\t// out\n        /* \"#utility.yul\":19632:20032   */\n    tag_293:\n        /* \"#utility.yul\":19792:19795   */\n      0x00\n        /* \"#utility.yul\":19813:19897   */\n      tag_524\n        /* \"#utility.yul\":19895:19896   */\n      0x03\n        /* \"#utility.yul\":19890:19893   */\n      dup4\n        /* \"#utility.yul\":19813:19897   */\n      tag_261\n      jump\t// in\n    tag_524:\n        /* \"#utility.yul\":19806:19897   */\n      swap2\n      pop\n        /* \"#utility.yul\":19906:19999   */\n      tag_525\n        /* \"#utility.yul\":19995:19998   */\n      dup3\n        /* \"#utility.yul\":19906:19999   */\n      tag_292\n      jump\t// in\n    tag_525:\n        /* \"#utility.yul\":20024:20025   */\n      0x03\n        /* \"#utility.yul\":20019:20022   */\n      dup3\n        /* \"#utility.yul\":20015:20026   */\n      add\n        /* \"#utility.yul\":20008:20026   */\n      swap1\n      pop\n        /* \"#utility.yul\":19632:20032   */\n      swap2\n      swap1\n      pop\n      jump\t// out\n        /* \"#utility.yul\":20038:20419   */\n    tag_112:\n        /* \"#utility.yul\":20223:20226   */\n      0x00\n        /* \"#utility.yul\":20245:20393   */\n      tag_527\n        /* \"#utility.yul\":20389:20392   */\n      dup3\n        /* \"#utility.yul\":20245:20393   */\n      tag_293\n      jump\t// in\n    tag_527:\n        /* \"#utility.yul\":20238:20393   */\n      swap2\n      pop\n        /* \"#utility.yul\":20410:20413   */\n      dup2\n        /* \"#utility.yul\":20403:20413   */\n      swap1\n      pop\n        /* \"#utility.yul\":20038:20419   */\n      swap2\n      swap1\n      pop\n      jump\t// out\n        /* \"#utility.yul\":20425:20594   */\n    tag_294:\n        /* \"#utility.yul\":20565:20586   */\n      0x68617320676f7420636172206c6f616e206f6600000000000000000000000000\n        /* \"#utility.yul\":20561:20562   */\n      0x00\n        /* \"#utility.yul\":20553:20559   */\n      dup3\n        /* \"#utility.yul\":20549:20563   */\n      add\n        /* \"#utility.yul\":20542:20587   */\n      mstore\n        /* \"#utility.yul\":20425:20594   */\n      pop\n      jump\t// out\n        /* \"#utility.yul\":20600:20966   */\n    tag_295:\n        /* \"#utility.yul\":20742:20745   */\n      0x00\n        /* \"#utility.yul\":20763:20830   */\n      tag_530\n        /* \"#utility.yul\":20827:20829   */\n      0x13\n        /* \"#utility.yul\":20822:20825   */\n      dup4\n        /* \"#utility.yul\":20763:20830   */\n      tag_248\n      jump\t// in\n    tag_530:\n        /* \"#utility.yul\":20756:20830   */\n      swap2\n      pop\n        /* \"#utility.yul\":20839:20932   */\n      tag_531\n        /* \"#utility.yul\":20928:20931   */\n      dup3\n        /* \"#utility.yul\":20839:20932   */\n      tag_294\n      jump\t// in\n    tag_531:\n        /* \"#utility.yul\":20957:20959   */\n      0x20\n        /* \"#utility.yul\":20952:20955   */\n      dup3\n        /* \"#utility.yul\":20948:20960   */\n      add\n        /* \"#utility.yul\":20941:20960   */\n      swap1\n      pop\n        /* \"#utility.yul\":20600:20966   */\n      swap2\n      swap1\n      pop\n      jump\t// out\n        /* \"#utility.yul\":20972:21722   */\n    tag_123:\n        /* \"#utility.yul\":21222:21226   */\n      0x00\n        /* \"#utility.yul\":21260:21263   */\n      0x80\n        /* \"#utility.yul\":21249:21258   */\n      dup3\n        /* \"#utility.yul\":21245:21264   */\n      add\n        /* \"#utility.yul\":21237:21264   */\n      swap1\n      pop\n        /* \"#utility.yul\":21274:21345   */\n      tag_533\n        /* \"#utility.yul\":21342:21343   */\n      0x00\n        /* \"#utility.yul\":21331:21340   */\n      dup4\n        /* \"#utility.yul\":21327:21344   */\n      add\n        /* \"#utility.yul\":21318:21324   */\n      dup7\n        /* \"#utility.yul\":21274:21345   */\n      tag_281\n      jump\t// in\n    tag_533:\n        /* \"#utility.yul\":21392:21401   */\n      dup2\n        /* \"#utility.yul\":21386:21390   */\n      dup2\n        /* \"#utility.yul\":21382:21402   */\n      sub\n        /* \"#utility.yul\":21377:21379   */\n      0x20\n        /* \"#utility.yul\":21366:21375   */\n      dup4\n        /* \"#utility.yul\":21362:21380   */\n      add\n        /* \"#utility.yul\":21355:21403   */\n      mstore\n        /* \"#utility.yul\":21420:21551   */\n      tag_534\n        /* \"#utility.yul\":21546:21550   */\n      dup2\n        /* \"#utility.yul\":21420:21551   */\n      tag_295\n      jump\t// in\n    tag_534:\n        /* \"#utility.yul\":21412:21551   */\n      swap1\n      pop\n        /* \"#utility.yul\":21561:21633   */\n      tag_535\n        /* \"#utility.yul\":21629:21631   */\n      0x40\n        /* \"#utility.yul\":21618:21627   */\n      dup4\n        /* \"#utility.yul\":21614:21632   */\n      add\n        /* \"#utility.yul\":21605:21611   */\n      dup6\n        /* \"#utility.yul\":21561:21633   */\n      tag_242\n      jump\t// in\n    tag_535:\n        /* \"#utility.yul\":21643:21715   */\n      tag_536\n        /* \"#utility.yul\":21711:21713   */\n      0x60\n        /* \"#utility.yul\":21700:21709   */\n      dup4\n        /* \"#utility.yul\":21696:21714   */\n      add\n        /* \"#utility.yul\":21687:21693   */\n      dup5\n        /* \"#utility.yul\":21643:21715   */\n      tag_242\n      jump\t// in\n    tag_536:\n        /* \"#utility.yul\":20972:21722   */\n      swap5\n      swap4\n      pop\n      pop\n      pop\n      pop\n      jump\t// out\n        /* \"#utility.yul\":21728:21882   */\n    tag_296:\n        /* \"#utility.yul\":21868:21874   */\n      0x486f6d6500000000000000000000000000000000000000000000000000000000\n        /* \"#utility.yul\":21864:21865   */\n      0x00\n        /* \"#utility.yul\":21856:21862   */\n      dup3\n        /* \"#utility.yul\":21852:21866   */\n      add\n        /* \"#utility.yul\":21845:21875   */\n      mstore\n        /* \"#utility.yul\":21728:21882   */\n      pop\n      jump\t// out\n        /* \"#utility.yul\":21888:22288   */\n    tag_297:\n        /* \"#utility.yul\":22048:22051   */\n      0x00\n        /* \"#utility.yul\":22069:22153   */\n      tag_539\n        /* \"#utility.yul\":22151:22152   */\n      0x04\n        /* \"#utility.yul\":22146:22149   */\n      dup4\n        /* \"#utility.yul\":22069:22153   */\n      tag_261\n      jump\t// in\n    tag_539:\n        /* \"#utility.yul\":22062:22153   */\n      swap2\n      pop\n        /* \"#utility.yul\":22162:22255   */\n      tag_540\n        /* \"#utility.yul\":22251:22254   */\n      dup3\n        /* \"#utility.yul\":22162:22255   */\n      tag_296\n      jump\t// in\n    tag_540:\n        /* \"#utility.yul\":22280:22281   */\n      0x04\n        /* \"#utility.yul\":22275:22278   */\n      dup3\n        /* \"#utility.yul\":22271:22282   */\n      add\n        /* \"#utility.yul\":22264:22282   */\n      swap1\n      pop\n        /* \"#utility.yul\":21888:22288   */\n      swap2\n      swap1\n      pop\n      jump\t// out\n        /* \"#utility.yul\":22294:22675   */\n    tag_128:\n        /* \"#utility.yul\":22479:22482   */\n      0x00\n        /* \"#utility.yul\":22501:22649   */\n      tag_542\n        /* \"#utility.yul\":22645:22648   */\n      dup3\n        /* \"#utility.yul\":22501:22649   */\n      tag_297\n      jump\t// in\n    tag_542:\n        /* \"#utility.yul\":22494:22649   */\n      swap2\n      pop\n        /* \"#utility.yul\":22666:22669   */\n      dup2\n        /* \"#utility.yul\":22659:22669   */\n      swap1\n      pop\n        /* \"#utility.yul\":22294:22675   */\n      swap2\n      swap1\n      pop\n      jump\t// out\n        /* \"#utility.yul\":22681:22851   */\n    tag_298:\n        /* \"#utility.yul\":22821:22843   */\n      0x68617320676f7420686f6d65206c6f616e206f66000000000000000000000000\n        /* \"#utility.yul\":22817:22818   */\n      0x00\n        /* \"#utility.yul\":22809:22815   */\n      dup3\n        /* \"#utility.yul\":22805:22819   */\n      add\n        /* \"#utility.yul\":22798:22844   */\n      mstore\n        /* \"#utility.yul\":22681:22851   */\n      pop\n      jump\t// out\n        /* \"#utility.yul\":22857:23223   */\n    tag_299:\n        /* \"#utility.yul\":22999:23002   */\n      0x00\n        /* \"#utility.yul\":23020:23087   */\n      tag_545\n        /* \"#utility.yul\":23084:23086   */\n      0x14\n        /* \"#utility.yul\":23079:23082   */\n      dup4\n        /* \"#utility.yul\":23020:23087   */\n      tag_248\n      jump\t// in\n    tag_545:\n        /* \"#utility.yul\":23013:23087   */\n      swap2\n      pop\n        /* \"#utility.yul\":23096:23189   */\n      tag_546\n        /* \"#utility.yul\":23185:23188   */\n      dup3\n        /* \"#utility.yul\":23096:23189   */\n      tag_298\n      jump\t// in\n    tag_546:\n        /* \"#utility.yul\":23214:23216   */\n      0x20\n        /* \"#utility.yul\":23209:23212   */\n      dup3\n        /* \"#utility.yul\":23205:23217   */\n      add\n        /* \"#utility.yul\":23198:23217   */\n      swap1\n      pop\n        /* \"#utility.yul\":22857:23223   */\n      swap2\n      swap1\n      pop\n      jump\t// out\n        /* \"#utility.yul\":23229:23979   */\n    tag_139:\n        /* \"#utility.yul\":23479:23483   */\n      0x00\n        /* \"#utility.yul\":23517:23520   */\n      0x80\n        /* \"#utility.yul\":23506:23515   */\n      dup3\n        /* \"#utility.yul\":23502:23521   */\n      add\n        /* \"#utility.yul\":23494:23521   */\n      swap1\n      pop\n        /* \"#utility.yul\":23531:23602   */\n      tag_548\n        /* \"#utility.yul\":23599:23600   */\n      0x00\n        /* \"#utility.yul\":23588:23597   */\n      dup4\n        /* \"#utility.yul\":23584:23601   */\n      add\n        /* \"#utility.yul\":23575:23581   */\n      dup7\n        /* \"#utility.yul\":23531:23602   */\n      tag_281\n      jump\t// in\n    tag_548:\n        /* \"#utility.yul\":23649:23658   */\n      dup2\n        /* \"#utility.yul\":23643:23647   */\n      dup2\n        /* \"#utility.yul\":23639:23659   */\n      sub\n        /* \"#utility.yul\":23634:23636   */\n      0x20\n        /* \"#utility.yul\":23623:23632   */\n      dup4\n        /* \"#utility.yul\":23619:23637   */\n      add\n        /* \"#utility.yul\":23612:23660   */\n      mstore\n        /* \"#utility.yul\":23677:23808   */\n      tag_549\n        /* \"#utility.yul\":23803:23807   */\n      dup2\n        /* \"#utility.yul\":23677:23808   */\n      tag_299\n      jump\t// in\n    tag_549:\n        /* \"#utility.yul\":23669:23808   */\n      swap1\n      pop\n        /* \"#utility.yul\":23818:23890   */\n      tag_550\n        /* \"#utility.yul\":23886:23888   */\n      0x40\n        /* \"#utility.yul\":23875:23884   */\n      dup4\n        /* \"#utility.yul\":23871:23889   */\n      add\n        /* \"#utility.yul\":23862:23868   */\n      dup6\n        /* \"#utility.yul\":23818:23890   */\n      tag_242\n      jump\t// in\n    tag_550:\n        /* \"#utility.yul\":23900:23972   */\n      tag_551\n        /* \"#utility.yul\":23968:23970   */\n      0x60\n        /* \"#utility.yul\":23957:23966   */\n      dup4\n        /* \"#utility.yul\":23953:23971   */\n      add\n        /* \"#utility.yul\":23944:23950   */\n      dup5\n        /* \"#utility.yul\":23900:23972   */\n      tag_242\n      jump\t// in\n    tag_551:\n        /* \"#utility.yul\":23229:23979   */\n      swap5\n      swap4\n      pop\n      pop\n      pop\n      pop\n      jump\t// out\n        /* \"#utility.yul\":23985:24160   */\n    tag_300:\n        /* \"#utility.yul\":24125:24152   */\n      0x506c7a7a206465706f7369746520736f6d6520616d6f756e7400000000000000\n        /* \"#utility.yul\":24121:24122   */\n      0x00\n        /* \"#utility.yul\":24113:24119   */\n      dup3\n        /* \"#utility.yul\":24109:24123   */\n      add\n        /* \"#utility.yul\":24102:24153   */\n      mstore\n        /* \"#utility.yul\":23985:24160   */\n      pop\n      jump\t// out\n        /* \"#utility.yul\":24166:24532   */\n    tag_301:\n        /* \"#utility.yul\":24308:24311   */\n      0x00\n        /* \"#utility.yul\":24329:24396   */\n      tag_554\n        /* \"#utility.yul\":24393:24395   */\n      0x19\n        /* \"#utility.yul\":24388:24391   */\n      dup4\n        /* \"#utility.yul\":24329:24396   */\n      tag_248\n      jump\t// in\n    tag_554:\n        /* \"#utility.yul\":24322:24396   */\n      swap2\n      pop\n        /* \"#utility.yul\":24405:24498   */\n      tag_555\n        /* \"#utility.yul\":24494:24497   */\n      dup3\n        /* \"#utility.yul\":24405:24498   */\n      tag_300\n      jump\t// in\n    tag_555:\n        /* \"#utility.yul\":24523:24525   */\n      0x20\n        /* \"#utility.yul\":24518:24521   */\n      dup3\n        /* \"#utility.yul\":24514:24526   */\n      add\n        /* \"#utility.yul\":24507:24526   */\n      swap1\n      pop\n        /* \"#utility.yul\":24166:24532   */\n      swap2\n      swap1\n      pop\n      jump\t// out\n        /* \"#utility.yul\":24538:24957   */\n    tag_148:\n        /* \"#utility.yul\":24704:24708   */\n      0x00\n        /* \"#utility.yul\":24742:24744   */\n      0x20\n        /* \"#utility.yul\":24731:24740   */\n      dup3\n        /* \"#utility.yul\":24727:24745   */\n      add\n        /* \"#utility.yul\":24719:24745   */\n      swap1\n      pop\n        /* \"#utility.yul\":24791:24800   */\n      dup2\n        /* \"#utility.yul\":24785:24789   */\n      dup2\n        /* \"#utility.yul\":24781:24801   */\n      sub\n        /* \"#utility.yul\":24777:24778   */\n      0x00\n        /* \"#utility.yul\":24766:24775   */\n      dup4\n        /* \"#utility.yul\":24762:24779   */\n      add\n        /* \"#utility.yul\":24755:24802   */\n      mstore\n        /* \"#utility.yul\":24819:24950   */\n      tag_557\n        /* \"#utility.yul\":24945:24949   */\n      dup2\n        /* \"#utility.yul\":24819:24950   */\n      tag_301\n      jump\t// in\n    tag_557:\n        /* \"#utility.yul\":24811:24950   */\n      swap1\n      pop\n        /* \"#utility.yul\":24538:24957   */\n      swap2\n      swap1\n      pop\n      jump\t// out\n        /* \"#utility.yul\":24963:25126   */\n    tag_302:\n        /* \"#utility.yul\":25103:25118   */\n      0x686173206465706f736974656400000000000000000000000000000000000000\n        /* \"#utility.yul\":25099:25100   */\n      0x00\n        /* \"#utility.yul\":25091:25097   */\n      dup3\n        /* \"#utility.yul\":25087:25101   */\n      add\n        /* \"#utility.yul\":25080:25119   */\n      mstore\n        /* \"#utility.yul\":24963:25126   */\n      pop\n      jump\t// out\n        /* \"#utility.yul\":25132:25498   */\n    tag_303:\n        /* \"#utility.yul\":25274:25277   */\n      0x00\n        /* \"#utility.yul\":25295:25362   */\n      tag_560\n        /* \"#utility.yul\":25359:25361   */\n      0x0d\n        /* \"#utility.yul\":25354:25357   */\n      dup4\n        /* \"#utility.yul\":25295:25362   */\n      tag_248\n      jump\t// in\n    tag_560:\n        /* \"#utility.yul\":25288:25362   */\n      swap2\n      pop\n        /* \"#utility.yul\":25371:25464   */\n      tag_561\n        /* \"#utility.yul\":25460:25463   */\n      dup3\n        /* \"#utility.yul\":25371:25464   */\n      tag_302\n      jump\t// in\n    tag_561:\n        /* \"#utility.yul\":25489:25491   */\n      0x20\n        /* \"#utility.yul\":25484:25487   */\n      dup3\n        /* \"#utility.yul\":25480:25492   */\n      add\n        /* \"#utility.yul\":25473:25492   */\n      swap1\n      pop\n        /* \"#utility.yul\":25132:25498   */\n      swap2\n      swap1\n      pop\n      jump\t// out\n        /* \"#utility.yul\":25504:26143   */\n    tag_155:\n        /* \"#utility.yul\":25726:25730   */\n      0x00\n        /* \"#utility.yul\":25764:25766   */\n      0x60\n        /* \"#utility.yul\":25753:25762   */\n      dup3\n        /* \"#utility.yul\":25749:25767   */\n      add\n        /* \"#utility.yul\":25741:25767   */\n      swap1\n      pop\n        /* \"#utility.yul\":25777:25848   */\n      tag_563\n        /* \"#utility.yul\":25845:25846   */\n      0x00\n        /* \"#utility.yul\":25834:25843   */\n      dup4\n        /* \"#utility.yul\":25830:25847   */\n      add\n        /* \"#utility.yul\":25821:25827   */\n      dup6\n        /* \"#utility.yul\":25777:25848   */\n      tag_281\n      jump\t// in\n    tag_563:\n        /* \"#utility.yul\":25895:25904   */\n      dup2\n        /* \"#utility.yul\":25889:25893   */\n      dup2\n        /* \"#utility.yul\":25885:25905   */\n      sub\n        /* \"#utility.yul\":25880:25882   */\n      0x20\n        /* \"#utility.yul\":25869:25878   */\n      dup4\n        /* \"#utility.yul\":25865:25883   */\n      add\n        /* \"#utility.yul\":25858:25906   */\n      mstore\n        /* \"#utility.yul\":25923:26054   */\n      tag_564\n        /* \"#utility.yul\":26049:26053   */\n      dup2\n        /* \"#utility.yul\":25923:26054   */\n      tag_303\n      jump\t// in\n    tag_564:\n        /* \"#utility.yul\":25915:26054   */\n      swap1\n      pop\n        /* \"#utility.yul\":26064:26136   */\n      tag_565\n        /* \"#utility.yul\":26132:26134   */\n      0x40\n        /* \"#utility.yul\":26121:26130   */\n      dup4\n        /* \"#utility.yul\":26117:26135   */\n      add\n        /* \"#utility.yul\":26108:26114   */\n      dup5\n        /* \"#utility.yul\":26064:26136   */\n      tag_242\n      jump\t// in\n    tag_565:\n        /* \"#utility.yul\":25504:26143   */\n      swap4\n      swap3\n      pop\n      pop\n      pop\n      jump\t// out\n        /* \"#utility.yul\":26149:26514   */\n    tag_304:\n        /* \"#utility.yul\":26291:26294   */\n      0x00\n        /* \"#utility.yul\":26312:26378   */\n      tag_567\n        /* \"#utility.yul\":26376:26377   */\n      0x03\n        /* \"#utility.yul\":26371:26374   */\n      dup4\n        /* \"#utility.yul\":26312:26378   */\n      tag_248\n      jump\t// in\n    tag_567:\n        /* \"#utility.yul\":26305:26378   */\n      swap2\n      pop\n        /* \"#utility.yul\":26387:26480   */\n      tag_568\n        /* \"#utility.yul\":26476:26479   */\n      dup3\n        /* \"#utility.yul\":26387:26480   */\n      tag_292\n      jump\t// in\n    tag_568:\n        /* \"#utility.yul\":26505:26507   */\n      0x20\n        /* \"#utility.yul\":26500:26503   */\n      dup3\n        /* \"#utility.yul\":26496:26508   */\n      add\n        /* \"#utility.yul\":26489:26508   */\n      swap1\n      pop\n        /* \"#utility.yul\":26149:26514   */\n      swap2\n      swap1\n      pop\n      jump\t// out\n        /* \"#utility.yul\":26520:26939   */\n    tag_160:\n        /* \"#utility.yul\":26686:26690   */\n      0x00\n        /* \"#utility.yul\":26724:26726   */\n      0x20\n        /* \"#utility.yul\":26713:26722   */\n      dup3\n        /* \"#utility.yul\":26709:26727   */\n      add\n        /* \"#utility.yul\":26701:26727   */\n      swap1\n      pop\n        /* \"#utility.yul\":26773:26782   */\n      dup2\n        /* \"#utility.yul\":26767:26771   */\n      dup2\n        /* \"#utility.yul\":26763:26783   */\n      sub\n        /* \"#utility.yul\":26759:26760   */\n      0x00\n        /* \"#utility.yul\":26748:26757   */\n      dup4\n        /* \"#utility.yul\":26744:26761   */\n      add\n        /* \"#utility.yul\":26737:26784   */\n      mstore\n        /* \"#utility.yul\":26801:26932   */\n      tag_570\n        /* \"#utility.yul\":26927:26931   */\n      dup2\n        /* \"#utility.yul\":26801:26932   */\n      tag_304\n      jump\t// in\n    tag_570:\n        /* \"#utility.yul\":26793:26932   */\n      swap1\n      pop\n        /* \"#utility.yul\":26520:26939   */\n      swap2\n      swap1\n      pop\n      jump\t// out\n        /* \"#utility.yul\":26945:27258   */\n    tag_162:\n        /* \"#utility.yul\":27058:27062   */\n      0x00\n        /* \"#utility.yul\":27096:27098   */\n      0x20\n        /* \"#utility.yul\":27085:27094   */\n      dup3\n        /* \"#utility.yul\":27081:27099   */\n      add\n        /* \"#utility.yul\":27073:27099   */\n      swap1\n      pop\n        /* \"#utility.yul\":27145:27154   */\n      dup2\n        /* \"#utility.yul\":27139:27143   */\n      dup2\n        /* \"#utility.yul\":27135:27155   */\n      sub\n        /* \"#utility.yul\":27131:27132   */\n      0x00\n        /* \"#utility.yul\":27120:27129   */\n      dup4\n        /* \"#utility.yul\":27116:27133   */\n      add\n        /* \"#utility.yul\":27109:27156   */\n      mstore\n        /* \"#utility.yul\":27173:27251   */\n      tag_572\n        /* \"#utility.yul\":27246:27250   */\n      dup2\n        /* \"#utility.yul\":27237:27243   */\n      dup5\n        /* \"#utility.yul\":27173:27251   */\n      tag_251\n      jump\t// in\n    tag_572:\n        /* \"#utility.yul\":27165:27251   */\n      swap1\n      pop\n        /* \"#utility.yul\":26945:27258   */\n      swap3\n      swap2\n      pop\n      pop\n      jump\t// out\n        /* \"#utility.yul\":27264:27629   */\n    tag_305:\n        /* \"#utility.yul\":27406:27409   */\n      0x00\n        /* \"#utility.yul\":27427:27493   */\n      tag_574\n        /* \"#utility.yul\":27491:27492   */\n      0x04\n        /* \"#utility.yul\":27486:27489   */\n      dup4\n        /* \"#utility.yul\":27427:27493   */\n      tag_248\n      jump\t// in\n    tag_574:\n        /* \"#utility.yul\":27420:27493   */\n      swap2\n      pop\n        /* \"#utility.yul\":27502:27595   */\n      tag_575\n        /* \"#utility.yul\":27591:27594   */\n      dup3\n        /* \"#utility.yul\":27502:27595   */\n      tag_296\n      jump\t// in\n    tag_575:\n        /* \"#utility.yul\":27620:27622   */\n      0x20\n        /* \"#utility.yul\":27615:27618   */\n      dup3\n        /* \"#utility.yul\":27611:27623   */\n      add\n        /* \"#utility.yul\":27604:27623   */\n      swap1\n      pop\n        /* \"#utility.yul\":27264:27629   */\n      swap2\n      swap1\n      pop\n      jump\t// out\n        /* \"#utility.yul\":27635:28054   */\n    tag_165:\n        /* \"#utility.yul\":27801:27805   */\n      0x00\n        /* \"#utility.yul\":27839:27841   */\n      0x20\n        /* \"#utility.yul\":27828:27837   */\n      dup3\n        /* \"#utility.yul\":27824:27842   */\n      add\n        /* \"#utility.yul\":27816:27842   */\n      swap1\n      pop\n        /* \"#utility.yul\":27888:27897   */\n      dup2\n        /* \"#utility.yul\":27882:27886   */\n      dup2\n        /* \"#utility.yul\":27878:27898   */\n      sub\n        /* \"#utility.yul\":27874:27875   */\n      0x00\n        /* \"#utility.yul\":27863:27872   */\n      dup4\n        /* \"#utility.yul\":27859:27876   */\n      add\n        /* \"#utility.yul\":27852:27899   */\n      mstore\n        /* \"#utility.yul\":27916:28047   */\n      tag_577\n        /* \"#utility.yul\":28042:28046   */\n      dup2\n        /* \"#utility.yul\":27916:28047   */\n      tag_305\n      jump\t// in\n    tag_577:\n        /* \"#utility.yul\":27908:28047   */\n      swap1\n      pop\n        /* \"#utility.yul\":27635:28054   */\n      swap2\n      swap1\n      pop\n      jump\t// out\n        /* \"#utility.yul\":28060:28425   */\n    tag_306:\n        /* \"#utility.yul\":28202:28205   */\n      0x00\n        /* \"#utility.yul\":28223:28289   */\n      tag_579\n        /* \"#utility.yul\":28287:28288   */\n      0x08\n        /* \"#utility.yul\":28282:28285   */\n      dup4\n        /* \"#utility.yul\":28223:28289   */\n      tag_248\n      jump\t// in\n    tag_579:\n        /* \"#utility.yul\":28216:28289   */\n      swap2\n      pop\n        /* \"#utility.yul\":28298:28391   */\n      tag_580\n        /* \"#utility.yul\":28387:28390   */\n      dup3\n        /* \"#utility.yul\":28298:28391   */\n      tag_262\n      jump\t// in\n    tag_580:\n        /* \"#utility.yul\":28416:28418   */\n      0x20\n        /* \"#utility.yul\":28411:28414   */\n      dup3\n        /* \"#utility.yul\":28407:28419   */\n      add\n        /* \"#utility.yul\":28400:28419   */\n      swap1\n      pop\n        /* \"#utility.yul\":28060:28425   */\n      swap2\n      swap1\n      pop\n      jump\t// out\n        /* \"#utility.yul\":28431:28850   */\n    tag_169:\n        /* \"#utility.yul\":28597:28601   */\n      0x00\n        /* \"#utility.yul\":28635:28637   */\n      0x20\n        /* \"#utility.yul\":28624:28633   */\n      dup3\n        /* \"#utility.yul\":28620:28638   */\n      add\n        /* \"#utility.yul\":28612:28638   */\n      swap1\n      pop\n        /* \"#utility.yul\":28684:28693   */\n      dup2\n        /* \"#utility.yul\":28678:28682   */\n      dup2\n        /* \"#utility.yul\":28674:28694   */\n      sub\n        /* \"#utility.yul\":28670:28671   */\n      0x00\n        /* \"#utility.yul\":28659:28668   */\n      dup4\n        /* \"#utility.yul\":28655:28672   */\n      add\n        /* \"#utility.yul\":28648:28695   */\n      mstore\n        /* \"#utility.yul\":28712:28843   */\n      tag_582\n        /* \"#utility.yul\":28838:28842   */\n      dup2\n        /* \"#utility.yul\":28712:28843   */\n      tag_306\n      jump\t// in\n    tag_582:\n        /* \"#utility.yul\":28704:28843   */\n      swap1\n      pop\n        /* \"#utility.yul\":28431:28850   */\n      swap2\n      swap1\n      pop\n      jump\t// out\n        /* \"#utility.yul\":28856:29099   */\n    tag_307:\n        /* \"#utility.yul\":28996:29030   */\n      0x706c6561736520656e7465722076616c6964206c6f616e207479706520692e65\n        /* \"#utility.yul\":28992:28993   */\n      0x00\n        /* \"#utility.yul\":28984:28990   */\n      dup3\n        /* \"#utility.yul\":28980:28994   */\n      add\n        /* \"#utility.yul\":28973:29031   */\n      mstore\n        /* \"#utility.yul\":29065:29091   */\n      0x20436172206f7220506572736f6e616c206f7220486f6d650000000000000000\n        /* \"#utility.yul\":29060:29062   */\n      0x20\n        /* \"#utility.yul\":29052:29058   */\n      dup3\n        /* \"#utility.yul\":29048:29063   */\n      add\n        /* \"#utility.yul\":29041:29092   */\n      mstore\n        /* \"#utility.yul\":28856:29099   */\n      pop\n      jump\t// out\n        /* \"#utility.yul\":29105:29471   */\n    tag_308:\n        /* \"#utility.yul\":29247:29250   */\n      0x00\n        /* \"#utility.yul\":29268:29335   */\n      tag_585\n        /* \"#utility.yul\":29332:29334   */\n      0x38\n        /* \"#utility.yul\":29327:29330   */\n      dup4\n        /* \"#utility.yul\":29268:29335   */\n      tag_248\n      jump\t// in\n    tag_585:\n        /* \"#utility.yul\":29261:29335   */\n      swap2\n      pop\n        /* \"#utility.yul\":29344:29437   */\n      tag_586\n        /* \"#utility.yul\":29433:29436   */\n      dup3\n        /* \"#utility.yul\":29344:29437   */\n      tag_307\n      jump\t// in\n    tag_586:\n        /* \"#utility.yul\":29462:29464   */\n      0x40\n        /* \"#utility.yul\":29457:29460   */\n      dup3\n        /* \"#utility.yul\":29453:29465   */\n      add\n        /* \"#utility.yul\":29446:29465   */\n      swap1\n      pop\n        /* \"#utility.yul\":29105:29471   */\n      swap2\n      swap1\n      pop\n      jump\t// out\n        /* \"#utility.yul\":29477:29896   */\n    tag_173:\n        /* \"#utility.yul\":29643:29647   */\n      0x00\n        /* \"#utility.yul\":29681:29683   */\n      0x20\n        /* \"#utility.yul\":29670:29679   */\n      dup3\n        /* \"#utility.yul\":29666:29684   */\n      add\n        /* \"#utility.yul\":29658:29684   */\n      swap1\n      pop\n        /* \"#utility.yul\":29730:29739   */\n      dup2\n        /* \"#utility.yul\":29724:29728   */\n      dup2\n        /* \"#utility.yul\":29720:29740   */\n      sub\n        /* \"#utility.yul\":29716:29717   */\n      0x00\n        /* \"#utility.yul\":29705:29714   */\n      dup4\n        /* \"#utility.yul\":29701:29718   */\n      add\n        /* \"#utility.yul\":29694:29741   */\n      mstore\n        /* \"#utility.yul\":29758:29889   */\n      tag_588\n        /* \"#utility.yul\":29884:29888   */\n      dup2\n        /* \"#utility.yul\":29758:29889   */\n      tag_308\n      jump\t// in\n    tag_588:\n        /* \"#utility.yul\":29750:29889   */\n      swap1\n      pop\n        /* \"#utility.yul\":29477:29896   */\n      swap2\n      swap1\n      pop\n      jump\t// out\n        /* \"#utility.yul\":29902:30292   */\n    tag_309:\n        /* \"#utility.yul\":30008:30011   */\n      0x00\n        /* \"#utility.yul\":30036:30075   */\n      tag_590\n        /* \"#utility.yul\":30069:30074   */\n      dup3\n        /* \"#utility.yul\":30036:30075   */\n      tag_247\n      jump\t// in\n    tag_590:\n        /* \"#utility.yul\":30091:30180   */\n      tag_591\n        /* \"#utility.yul\":30173:30179   */\n      dup2\n        /* \"#utility.yul\":30168:30171   */\n      dup6\n        /* \"#utility.yul\":30091:30180   */\n      tag_261\n      jump\t// in\n    tag_591:\n        /* \"#utility.yul\":30084:30180   */\n      swap4\n      pop\n        /* \"#utility.yul\":30189:30254   */\n      tag_592\n        /* \"#utility.yul\":30247:30253   */\n      dup2\n        /* \"#utility.yul\":30242:30245   */\n      dup6\n        /* \"#utility.yul\":30235:30239   */\n      0x20\n        /* \"#utility.yul\":30228:30233   */\n      dup7\n        /* \"#utility.yul\":30224:30240   */\n      add\n        /* \"#utility.yul\":30189:30254   */\n      tag_249\n      jump\t// in\n    tag_592:\n        /* \"#utility.yul\":30279:30285   */\n      dup1\n        /* \"#utility.yul\":30274:30277   */\n      dup5\n        /* \"#utility.yul\":30270:30286   */\n      add\n        /* \"#utility.yul\":30263:30286   */\n      swap2\n      pop\n        /* \"#utility.yul\":30012:30292   */\n      pop\n        /* \"#utility.yul\":29902:30292   */\n      swap3\n      swap2\n      pop\n      pop\n      jump\t// out\n        /* \"#utility.yul\":30298:30573   */\n    tag_175:\n        /* \"#utility.yul\":30430:30433   */\n      0x00\n        /* \"#utility.yul\":30452:30547   */\n      tag_594\n        /* \"#utility.yul\":30543:30546   */\n      dup3\n        /* \"#utility.yul\":30534:30540   */\n      dup5\n        /* \"#utility.yul\":30452:30547   */\n      tag_309\n      jump\t// in\n    tag_594:\n        /* \"#utility.yul\":30445:30547   */\n      swap2\n      pop\n        /* \"#utility.yul\":30564:30567   */\n      dup2\n        /* \"#utility.yul\":30557:30567   */\n      swap1\n      pop\n        /* \"#utility.yul\":30298:30573   */\n      swap3\n      swap2\n      pop\n      pop\n      jump\t// out\n        /* \"#utility.yul\":30579:30743   */\n    tag_310:\n        /* \"#utility.yul\":30719:30735   */\n      0x4e6f20454d492070656e64696e67000000000000000000000000000000000000\n        /* \"#utility.yul\":30715:30716   */\n      0x00\n        /* \"#utility.yul\":30707:30713   */\n      dup3\n        /* \"#utility.yul\":30703:30717   */\n      add\n        /* \"#utility.yul\":30696:30736   */\n      mstore\n        /* \"#utility.yul\":30579:30743   */\n      pop\n      jump\t// out\n        /* \"#utility.yul\":30749:31115   */\n    tag_311:\n        /* \"#utility.yul\":30891:30894   */\n      0x00\n        /* \"#utility.yul\":30912:30979   */\n      tag_597\n        /* \"#utility.yul\":30976:30978   */\n      0x0e\n        /* \"#utility.yul\":30971:30974   */\n      dup4\n        /* \"#utility.yul\":30912:30979   */\n      tag_248\n      jump\t// in\n    tag_597:\n        /* \"#utility.yul\":30905:30979   */\n      swap2\n      pop\n        /* \"#utility.yul\":30988:31081   */\n      tag_598\n        /* \"#utility.yul\":31077:31080   */\n      dup3\n        /* \"#utility.yul\":30988:31081   */\n      tag_310\n      jump\t// in\n    tag_598:\n        /* \"#utility.yul\":31106:31108   */\n      0x20\n        /* \"#utility.yul\":31101:31104   */\n      dup3\n        /* \"#utility.yul\":31097:31109   */\n      add\n        /* \"#utility.yul\":31090:31109   */\n      swap1\n      pop\n        /* \"#utility.yul\":30749:31115   */\n      swap2\n      swap1\n      pop\n      jump\t// out\n        /* \"#utility.yul\":31121:31540   */\n    tag_178:\n        /* \"#utility.yul\":31287:31291   */\n      0x00\n        /* \"#utility.yul\":31325:31327   */\n      0x20\n        /* \"#utility.yul\":31314:31323   */\n      dup3\n        /* \"#utility.yul\":31310:31328   */\n      add\n        /* \"#utility.yul\":31302:31328   */\n      swap1\n      pop\n        /* \"#utility.yul\":31374:31383   */\n      dup2\n        /* \"#utility.yul\":31368:31372   */\n      dup2\n        /* \"#utility.yul\":31364:31384   */\n      sub\n        /* \"#utility.yul\":31360:31361   */\n      0x00\n        /* \"#utility.yul\":31349:31358   */\n      dup4\n        /* \"#utility.yul\":31345:31362   */\n      add\n        /* \"#utility.yul\":31338:31385   */\n      mstore\n        /* \"#utility.yul\":31402:31533   */\n      tag_600\n        /* \"#utility.yul\":31528:31532   */\n      dup2\n        /* \"#utility.yul\":31402:31533   */\n      tag_311\n      jump\t// in\n    tag_600:\n        /* \"#utility.yul\":31394:31533   */\n      swap1\n      pop\n        /* \"#utility.yul\":31121:31540   */\n      swap2\n      swap1\n      pop\n      jump\t// out\n        /* \"#utility.yul\":31546:31727   */\n    tag_312:\n        /* \"#utility.yul\":31686:31719   */\n      0x506c656173652073656e642076616c696420616d6f756e74206f6620456d6900\n        /* \"#utility.yul\":31682:31683   */\n      0x00\n        /* \"#utility.yul\":31674:31680   */\n      dup3\n        /* \"#utility.yul\":31670:31684   */\n      add\n        /* \"#utility.yul\":31663:31720   */\n      mstore\n        /* \"#utility.yul\":31546:31727   */\n      pop\n      jump\t// out\n        /* \"#utility.yul\":31733:32099   */\n    tag_313:\n        /* \"#utility.yul\":31875:31878   */\n      0x00\n        /* \"#utility.yul\":31896:31963   */\n      tag_603\n        /* \"#utility.yul\":31960:31962   */\n      0x1f\n        /* \"#utility.yul\":31955:31958   */\n      dup4\n        /* \"#utility.yul\":31896:31963   */\n      tag_248\n      jump\t// in\n    tag_603:\n        /* \"#utility.yul\":31889:31963   */\n      swap2\n      pop\n        /* \"#utility.yul\":31972:32065   */\n      tag_604\n        /* \"#utility.yul\":32061:32064   */\n      dup3\n        /* \"#utility.yul\":31972:32065   */\n      tag_312\n      jump\t// in\n    tag_604:\n        /* \"#utility.yul\":32090:32092   */\n      0x20\n        /* \"#utility.yul\":32085:32088   */\n      dup3\n        /* \"#utility.yul\":32081:32093   */\n      add\n        /* \"#utility.yul\":32074:32093   */\n      swap1\n      pop\n        /* \"#utility.yul\":31733:32099   */\n      swap2\n      swap1\n      pop\n      jump\t// out\n        /* \"#utility.yul\":32105:32524   */\n    tag_182:\n        /* \"#utility.yul\":32271:32275   */\n      0x00\n        /* \"#utility.yul\":32309:32311   */\n      0x20\n        /* \"#utility.yul\":32298:32307   */\n      dup3\n        /* \"#utility.yul\":32294:32312   */\n      add\n        /* \"#utility.yul\":32286:32312   */\n      swap1\n      pop\n        /* \"#utility.yul\":32358:32367   */\n      dup2\n        /* \"#utility.yul\":32352:32356   */\n      dup2\n        /* \"#utility.yul\":32348:32368   */\n      sub\n        /* \"#utility.yul\":32344:32345   */\n      0x00\n        /* \"#utility.yul\":32333:32342   */\n      dup4\n        /* \"#utility.yul\":32329:32346   */\n      add\n        /* \"#utility.yul\":32322:32369   */\n      mstore\n        /* \"#utility.yul\":32386:32517   */\n      tag_606\n        /* \"#utility.yul\":32512:32516   */\n      dup2\n        /* \"#utility.yul\":32386:32517   */\n      tag_313\n      jump\t// in\n    tag_606:\n        /* \"#utility.yul\":32378:32517   */\n      swap1\n      pop\n        /* \"#utility.yul\":32105:32524   */\n      swap2\n      swap1\n      pop\n      jump\t// out\n        /* \"#utility.yul\":32530:32759   */\n    tag_314:\n        /* \"#utility.yul\":32670:32704   */\n      0x4e65656420746f20776169742031206d6f6e746820616674657220706179696e\n        /* \"#utility.yul\":32666:32667   */\n      0x00\n        /* \"#utility.yul\":32658:32664   */\n      dup3\n        /* \"#utility.yul\":32654:32668   */\n      add\n        /* \"#utility.yul\":32647:32705   */\n      mstore\n        /* \"#utility.yul\":32739:32751   */\n      0x67206c61737420454d4900000000000000000000000000000000000000000000\n        /* \"#utility.yul\":32734:32736   */\n      0x20\n        /* \"#utility.yul\":32726:32732   */\n      dup3\n        /* \"#utility.yul\":32722:32737   */\n      add\n        /* \"#utility.yul\":32715:32752   */\n      mstore\n        /* \"#utility.yul\":32530:32759   */\n      pop\n      jump\t// out\n        /* \"#utility.yul\":32765:33131   */\n    tag_315:\n        /* \"#utility.yul\":32907:32910   */\n      0x00\n        /* \"#utility.yul\":32928:32995   */\n      tag_609\n        /* \"#utility.yul\":32992:32994   */\n      0x2a\n        /* \"#utility.yul\":32987:32990   */\n      dup4\n        /* \"#utility.yul\":32928:32995   */\n      tag_248\n      jump\t// in\n    tag_609:\n        /* \"#utility.yul\":32921:32995   */\n      swap2\n      pop\n        /* \"#utility.yul\":33004:33097   */\n      tag_610\n        /* \"#utility.yul\":33093:33096   */\n      dup3\n        /* \"#utility.yul\":33004:33097   */\n      tag_314\n      jump\t// in\n    tag_610:\n        /* \"#utility.yul\":33122:33124   */\n      0x40\n        /* \"#utility.yul\":33117:33120   */\n      dup3\n        /* \"#utility.yul\":33113:33125   */\n      add\n        /* \"#utility.yul\":33106:33125   */\n      swap1\n      pop\n        /* \"#utility.yul\":32765:33131   */\n      swap2\n      swap1\n      pop\n      jump\t// out\n        /* \"#utility.yul\":33137:33556   */\n    tag_187:\n        /* \"#utility.yul\":33303:33307   */\n      0x00\n        /* \"#utility.yul\":33341:33343   */\n      0x20\n        /* \"#utility.yul\":33330:33339   */\n      dup3\n        /* \"#utility.yul\":33326:33344   */\n      add\n        /* \"#utility.yul\":33318:33344   */\n      swap1\n      pop\n        /* \"#utility.yul\":33390:33399   */\n      dup2\n        /* \"#utility.yul\":33384:33388   */\n      dup2\n        /* \"#utility.yul\":33380:33400   */\n      sub\n        /* \"#utility.yul\":33376:33377   */\n      0x00\n        /* \"#utility.yul\":33365:33374   */\n      dup4\n        /* \"#utility.yul\":33361:33378   */\n      add\n        /* \"#utility.yul\":33354:33401   */\n      mstore\n        /* \"#utility.yul\":33418:33549   */\n      tag_612\n        /* \"#utility.yul\":33544:33548   */\n      dup2\n        /* \"#utility.yul\":33418:33549   */\n      tag_315\n      jump\t// in\n    tag_612:\n        /* \"#utility.yul\":33410:33549   */\n      swap1\n      pop\n        /* \"#utility.yul\":33137:33556   */\n      swap2\n      swap1\n      pop\n      jump\t// out\n        /* \"#utility.yul\":33562:33731   */\n    tag_316:\n        /* \"#utility.yul\":33702:33723   */\n      0x68617320706169642068697320656d69206f6600000000000000000000000000\n        /* \"#utility.yul\":33698:33699   */\n      0x00\n        /* \"#utility.yul\":33690:33696   */\n      dup3\n        /* \"#utility.yul\":33686:33700   */\n      add\n        /* \"#utility.yul\":33679:33724   */\n      mstore\n        /* \"#utility.yul\":33562:33731   */\n      pop\n      jump\t// out\n        /* \"#utility.yul\":33737:34103   */\n    tag_317:\n        /* \"#utility.yul\":33879:33882   */\n      0x00\n        /* \"#utility.yul\":33900:33967   */\n      tag_615\n        /* \"#utility.yul\":33964:33966   */\n      0x13\n        /* \"#utility.yul\":33959:33962   */\n      dup4\n        /* \"#utility.yul\":33900:33967   */\n      tag_248\n      jump\t// in\n    tag_615:\n        /* \"#utility.yul\":33893:33967   */\n      swap2\n      pop\n        /* \"#utility.yul\":33976:34069   */\n      tag_616\n        /* \"#utility.yul\":34065:34068   */\n      dup3\n        /* \"#utility.yul\":33976:34069   */\n      tag_316\n      jump\t// in\n    tag_616:\n        /* \"#utility.yul\":34094:34096   */\n      0x20\n        /* \"#utility.yul\":34089:34092   */\n      dup3\n        /* \"#utility.yul\":34085:34097   */\n      add\n        /* \"#utility.yul\":34078:34097   */\n      swap1\n      pop\n        /* \"#utility.yul\":33737:34103   */\n      swap2\n      swap1\n      pop\n      jump\t// out\n        /* \"#utility.yul\":34109:34950   */\n    tag_199:\n        /* \"#utility.yul\":34379:34383   */\n      0x00\n        /* \"#utility.yul\":34417:34420   */\n      0x80\n        /* \"#utility.yul\":34406:34415   */\n      dup3\n        /* \"#utility.yul\":34402:34421   */\n      add\n        /* \"#utility.yul\":34394:34421   */\n      swap1\n      pop\n        /* \"#utility.yul\":34431:34502   */\n      tag_618\n        /* \"#utility.yul\":34499:34500   */\n      0x00\n        /* \"#utility.yul\":34488:34497   */\n      dup4\n        /* \"#utility.yul\":34484:34501   */\n      add\n        /* \"#utility.yul\":34475:34481   */\n      dup7\n        /* \"#utility.yul\":34431:34502   */\n      tag_281\n      jump\t// in\n    tag_618:\n        /* \"#utility.yul\":34549:34558   */\n      dup2\n        /* \"#utility.yul\":34543:34547   */\n      dup2\n        /* \"#utility.yul\":34539:34559   */\n      sub\n        /* \"#utility.yul\":34534:34536   */\n      0x20\n        /* \"#utility.yul\":34523:34532   */\n      dup4\n        /* \"#utility.yul\":34519:34537   */\n      add\n        /* \"#utility.yul\":34512:34560   */\n      mstore\n        /* \"#utility.yul\":34577:34708   */\n      tag_619\n        /* \"#utility.yul\":34703:34707   */\n      dup2\n        /* \"#utility.yul\":34577:34708   */\n      tag_317\n      jump\t// in\n    tag_619:\n        /* \"#utility.yul\":34569:34708   */\n      swap1\n      pop\n        /* \"#utility.yul\":34755:34764   */\n      dup2\n        /* \"#utility.yul\":34749:34753   */\n      dup2\n        /* \"#utility.yul\":34745:34765   */\n      sub\n        /* \"#utility.yul\":34740:34742   */\n      0x40\n        /* \"#utility.yul\":34729:34738   */\n      dup4\n        /* \"#utility.yul\":34725:34743   */\n      add\n        /* \"#utility.yul\":34718:34766   */\n      mstore\n        /* \"#utility.yul\":34783:34861   */\n      tag_620\n        /* \"#utility.yul\":34856:34860   */\n      dup2\n        /* \"#utility.yul\":34847:34853   */\n      dup6\n        /* \"#utility.yul\":34783:34861   */\n      tag_251\n      jump\t// in\n    tag_620:\n        /* \"#utility.yul\":34775:34861   */\n      swap1\n      pop\n        /* \"#utility.yul\":34871:34943   */\n      tag_621\n        /* \"#utility.yul\":34939:34941   */\n      0x60\n        /* \"#utility.yul\":34928:34937   */\n      dup4\n        /* \"#utility.yul\":34924:34942   */\n      add\n        /* \"#utility.yul\":34915:34921   */\n      dup5\n        /* \"#utility.yul\":34871:34943   */\n      tag_242\n      jump\t// in\n    tag_621:\n        /* \"#utility.yul\":34109:34950   */\n      swap5\n      swap4\n      pop\n      pop\n      pop\n      pop\n      jump\t// out\n        /* \"#utility.yul\":34956:35202   */\n    tag_318:\n        /* \"#utility.yul\":35096:35130   */\n      0x416d6f756e742073686f756c642062652067726561746572207468616e203130\n        /* \"#utility.yul\":35092:35093   */\n      0x00\n        /* \"#utility.yul\":35084:35090   */\n      dup3\n        /* \"#utility.yul\":35080:35094   */\n      add\n        /* \"#utility.yul\":35073:35131   */\n      mstore\n        /* \"#utility.yul\":35165:35194   */\n      0x303020616e64206c657373207468656e206c6f616e204c696d69740000000000\n        /* \"#utility.yul\":35160:35162   */\n      0x20\n        /* \"#utility.yul\":35152:35158   */\n      dup3\n        /* \"#utility.yul\":35148:35163   */\n      add\n        /* \"#utility.yul\":35141:35195   */\n      mstore\n        /* \"#utility.yul\":34956:35202   */\n      pop\n      jump\t// out\n        /* \"#utility.yul\":35208:35574   */\n    tag_319:\n        /* \"#utility.yul\":35350:35353   */\n      0x00\n        /* \"#utility.yul\":35371:35438   */\n      tag_624\n        /* \"#utility.yul\":35435:35437   */\n      0x3b\n        /* \"#utility.yul\":35430:35433   */\n      dup4\n        /* \"#utility.yul\":35371:35438   */\n      tag_248\n      jump\t// in\n    tag_624:\n        /* \"#utility.yul\":35364:35438   */\n      swap2\n      pop\n        /* \"#utility.yul\":35447:35540   */\n      tag_625\n        /* \"#utility.yul\":35536:35539   */\n      dup3\n        /* \"#utility.yul\":35447:35540   */\n      tag_318\n      jump\t// in\n    tag_625:\n        /* \"#utility.yul\":35565:35567   */\n      0x40\n        /* \"#utility.yul\":35560:35563   */\n      dup3\n        /* \"#utility.yul\":35556:35568   */\n      add\n        /* \"#utility.yul\":35549:35568   */\n      swap1\n      pop\n        /* \"#utility.yul\":35208:35574   */\n      swap2\n      swap1\n      pop\n      jump\t// out\n        /* \"#utility.yul\":35580:35999   */\n    tag_206:\n        /* \"#utility.yul\":35746:35750   */\n      0x00\n        /* \"#utility.yul\":35784:35786   */\n      0x20\n        /* \"#utility.yul\":35773:35782   */\n      dup3\n        /* \"#utility.yul\":35769:35787   */\n      add\n        /* \"#utility.yul\":35761:35787   */\n      swap1\n      pop\n        /* \"#utility.yul\":35833:35842   */\n      dup2\n        /* \"#utility.yul\":35827:35831   */\n      dup2\n        /* \"#utility.yul\":35823:35843   */\n      sub\n        /* \"#utility.yul\":35819:35820   */\n      0x00\n        /* \"#utility.yul\":35808:35817   */\n      dup4\n        /* \"#utility.yul\":35804:35821   */\n      add\n        /* \"#utility.yul\":35797:35844   */\n      mstore\n        /* \"#utility.yul\":35861:35992   */\n      tag_627\n        /* \"#utility.yul\":35987:35991   */\n      dup2\n        /* \"#utility.yul\":35861:35992   */\n      tag_319\n      jump\t// in\n    tag_627:\n        /* \"#utility.yul\":35853:35992   */\n      swap1\n      pop\n        /* \"#utility.yul\":35580:35999   */\n      swap2\n      swap1\n      pop\n      jump\t// out\n        /* \"#utility.yul\":36005:36187   */\n    tag_320:\n        /* \"#utility.yul\":36145:36179   */\n      0x74696d652073686f756c6420626520696e2072616e6765203120746f20313230\n        /* \"#utility.yul\":36141:36142   */\n      0x00\n        /* \"#utility.yul\":36133:36139   */\n      dup3\n        /* \"#utility.yul\":36129:36143   */\n      add\n        /* \"#utility.yul\":36122:36180   */\n      mstore\n        /* \"#utility.yul\":36005:36187   */\n      pop\n      jump\t// out\n        /* \"#utility.yul\":36193:36559   */\n    tag_321:\n        /* \"#utility.yul\":36335:36338   */\n      0x00\n        /* \"#utility.yul\":36356:36423   */\n      tag_630\n        /* \"#utility.yul\":36420:36422   */\n      0x20\n        /* \"#utility.yul\":36415:36418   */\n      dup4\n        /* \"#utility.yul\":36356:36423   */\n      tag_248\n      jump\t// in\n    tag_630:\n        /* \"#utility.yul\":36349:36423   */\n      swap2\n      pop\n        /* \"#utility.yul\":36432:36525   */\n      tag_631\n        /* \"#utility.yul\":36521:36524   */\n      dup3\n        /* \"#utility.yul\":36432:36525   */\n      tag_320\n      jump\t// in\n    tag_631:\n        /* \"#utility.yul\":36550:36552   */\n      0x20\n        /* \"#utility.yul\":36545:36548   */\n      dup3\n        /* \"#utility.yul\":36541:36553   */\n      add\n        /* \"#utility.yul\":36534:36553   */\n      swap1\n      pop\n        /* \"#utility.yul\":36193:36559   */\n      swap2\n      swap1\n      pop\n      jump\t// out\n        /* \"#utility.yul\":36565:36984   */\n    tag_210:\n        /* \"#utility.yul\":36731:36735   */\n      0x00\n        /* \"#utility.yul\":36769:36771   */\n      0x20\n        /* \"#utility.yul\":36758:36767   */\n      dup3\n        /* \"#utility.yul\":36754:36772   */\n      add\n        /* \"#utility.yul\":36746:36772   */\n      swap1\n      pop\n        /* \"#utility.yul\":36818:36827   */\n      dup2\n        /* \"#utility.yul\":36812:36816   */\n      dup2\n        /* \"#utility.yul\":36808:36828   */\n      sub\n        /* \"#utility.yul\":36804:36805   */\n      0x00\n        /* \"#utility.yul\":36793:36802   */\n      dup4\n        /* \"#utility.yul\":36789:36806   */\n      add\n        /* \"#utility.yul\":36782:36829   */\n      mstore\n        /* \"#utility.yul\":36846:36977   */\n      tag_633\n        /* \"#utility.yul\":36972:36976   */\n      dup2\n        /* \"#utility.yul\":36846:36977   */\n      tag_321\n      jump\t// in\n    tag_633:\n        /* \"#utility.yul\":36838:36977   */\n      swap1\n      pop\n        /* \"#utility.yul\":36565:36984   */\n      swap2\n      swap1\n      pop\n      jump\t// out\n        /* \"#utility.yul\":36990:37170   */\n    tag_322:\n        /* \"#utility.yul\":37038:37115   */\n      0x4e487b7100000000000000000000000000000000000000000000000000000000\n        /* \"#utility.yul\":37035:37036   */\n      0x00\n        /* \"#utility.yul\":37028:37116   */\n      mstore\n        /* \"#utility.yul\":37135:37139   */\n      0x12\n        /* \"#utility.yul\":37132:37133   */\n      0x04\n        /* \"#utility.yul\":37125:37140   */\n      mstore\n        /* \"#utility.yul\":37159:37163   */\n      0x24\n        /* \"#utility.yul\":37156:37157   */\n      0x00\n        /* \"#utility.yul\":37149:37164   */\n      revert\n        /* \"#utility.yul\":37176:37361   */\n    tag_214:\n        /* \"#utility.yul\":37216:37217   */\n      0x00\n        /* \"#utility.yul\":37233:37253   */\n      tag_636\n        /* \"#utility.yul\":37251:37252   */\n      dup3\n        /* \"#utility.yul\":37233:37253   */\n      tag_239\n      jump\t// in\n    tag_636:\n        /* \"#utility.yul\":37228:37253   */\n      swap2\n      pop\n        /* \"#utility.yul\":37267:37287   */\n      tag_637\n        /* \"#utility.yul\":37285:37286   */\n      dup4\n        /* \"#utility.yul\":37267:37287   */\n      tag_239\n      jump\t// in\n    tag_637:\n        /* \"#utility.yul\":37262:37287   */\n      swap3\n      pop\n        /* \"#utility.yul\":37306:37307   */\n      dup3\n        /* \"#utility.yul\":37296:37331   */\n      tag_638\n      jumpi\n        /* \"#utility.yul\":37311:37329   */\n      tag_639\n      tag_322\n      jump\t// in\n    tag_639:\n        /* \"#utility.yul\":37296:37331   */\n    tag_638:\n        /* \"#utility.yul\":37353:37354   */\n      dup3\n        /* \"#utility.yul\":37350:37351   */\n      dup3\n        /* \"#utility.yul\":37346:37355   */\n      div\n        /* \"#utility.yul\":37341:37355   */\n      swap1\n      pop\n        /* \"#utility.yul\":37176:37361   */\n      swap3\n      swap2\n      pop\n      pop\n      jump\t// out\n        /* \"#utility.yul\":37367:37777   */\n    tag_219:\n        /* \"#utility.yul\":37407:37414   */\n      0x00\n        /* \"#utility.yul\":37430:37450   */\n      tag_641\n        /* \"#utility.yul\":37448:37449   */\n      dup3\n        /* \"#utility.yul\":37430:37450   */\n      tag_239\n      jump\t// in\n    tag_641:\n        /* \"#utility.yul\":37425:37450   */\n      swap2\n      pop\n        /* \"#utility.yul\":37464:37484   */\n      tag_642\n        /* \"#utility.yul\":37482:37483   */\n      dup4\n        /* \"#utility.yul\":37464:37484   */\n      tag_239\n      jump\t// in\n    tag_642:\n        /* \"#utility.yul\":37459:37484   */\n      swap3\n      pop\n        /* \"#utility.yul\":37519:37520   */\n      dup3\n        /* \"#utility.yul\":37516:37517   */\n      dup3\n        /* \"#utility.yul\":37512:37521   */\n      mul\n        /* \"#utility.yul\":37541:37571   */\n      tag_643\n        /* \"#utility.yul\":37559:37570   */\n      dup2\n        /* \"#utility.yul\":37541:37571   */\n      tag_239\n      jump\t// in\n    tag_643:\n        /* \"#utility.yul\":37530:37571   */\n      swap2\n      pop\n        /* \"#utility.yul\":37720:37721   */\n      dup3\n        /* \"#utility.yul\":37711:37718   */\n      dup3\n        /* \"#utility.yul\":37707:37722   */\n      div\n        /* \"#utility.yul\":37704:37705   */\n      dup5\n        /* \"#utility.yul\":37701:37723   */\n      eq\n        /* \"#utility.yul\":37681:37682   */\n      dup4\n        /* \"#utility.yul\":37674:37683   */\n      iszero\n        /* \"#utility.yul\":37654:37737   */\n      or\n        /* \"#utility.yul\":37631:37770   */\n      tag_644\n      jumpi\n        /* \"#utility.yul\":37750:37768   */\n      tag_645\n      tag_280\n      jump\t// in\n    tag_645:\n        /* \"#utility.yul\":37631:37770   */\n    tag_644:\n        /* \"#utility.yul\":37415:37777   */\n      pop\n        /* \"#utility.yul\":37367:37777   */\n      swap3\n      swap2\n      pop\n      pop\n      jump\t// out\n\n    auxdata: 0xa26469706673582212207ecb004932f69f7947e060fa2ec91766620fb0b62038d3eb20c8e54e2a543d6964736f6c63430008120033\n}\n",
				"bytecode": {
					"linkReferences": {},
					"object": "608060405234801561001057600080fd5b50612d42806100206000396000f3fe6080604052600436106100c25760003560e01c8063ad81fced1161007f578063b9ccbfae11610059578063b9ccbfae14610234578063d0e30db01461023e578063edda501214610248578063fb7a3bdf14610276576100c2565b8063ad81fced146101ad578063af105ba7146101d8578063b620740214610206576100c2565b80630696d74a146100c75780632e1a7d4d146100e357806338a2ca401461010c5780634b674096146101375780635415cf03146101535780638dd09d0b1461016f575b600080fd5b6100e160048036038101906100dc9190611aa1565b610292565b005b3480156100ef57600080fd5b5061010a60048036038101906101059190611ae1565b61055d565b005b34801561011857600080fd5b506101216107e0565b60405161012e9190611b1d565b60405180910390f35b610151600480360381019061014c9190611aa1565b6107e8565b005b61016d60048036038101906101689190611aa1565b610ab3565b005b34801561017b57600080fd5b5061019660048036038101906101919190611b96565b610d7e565b6040516101a4929190611bc3565b60405180910390f35b3480156101b957600080fd5b506101c2610da2565b6040516101cf9190611b1d565b60405180910390f35b3480156101e457600080fd5b506101ed610da8565b6040516101fd9493929190611c7c565b60405180910390f35b34801561021257600080fd5b5061021b610e01565b60405161022b9493929190611c7c565b60405180910390f35b61023c610e5a565b005b610246610eb7565b005b34801561025457600080fd5b5061025d610fd5565b60405161026d9493929190611c7c565b60405180910390f35b610290600480360381019061028b9190611dfd565b61102e565b005b61029d338383611668565b5060006014905060006102b182858561179b565b90506040518060400160405280600881526020017f506572736f6e616c00000000000000000000000000000000000000000000000081525060026040516102f790611e9d565b908152602001604051809103902060003373ffffffffffffffffffffffffffffffffffffffff1673ffffffffffffffffffffffffffffffffffffffff168152602001908152602001600020600001908161035191906120be565b5080600260405161036190611e9d565b908152602001604051809103902060003373ffffffffffffffffffffffffffffffffffffffff1673ffffffffffffffffffffffffffffffffffffffff16815260200190815260200160002060030160008282546103be91906121bf565b925050819055508260026040516103d490611e9d565b908152602001604051809103902060003373ffffffffffffffffffffffffffffffffffffffff1673ffffffffffffffffffffffffffffffffffffffff168152602001908152602001600020600201600082825461043191906121bf565b9250508190555083600260405161044790611e9d565b908152602001604051809103902060003373ffffffffffffffffffffffffffffffffffffffff1673ffffffffffffffffffffffffffffffffffffffff16815260200190815260200160002060010160008282546104a491906121bf565b9250508190555083600160003373ffffffffffffffffffffffffffffffffffffffff1673ffffffffffffffffffffffffffffffffffffffff16815260200190815260200160002060000160008282546104fd91906121bf565b925050819055508360008082825461051591906121f3565b925050819055507fd8eee839117c5738e7e307646d6a4503ba5a27738370b5a27a0ee2b200c7765033858560405161054f93929190612282565b60405180910390a150505050565b600081116105a0576040517f08c379a000000000000000000000000000000000000000000000000000000000815260040161059790612318565b60405180910390fd5b6000600160003373ffffffffffffffffffffffffffffffffffffffff1673ffffffffffffffffffffffffffffffffffffffff1681526020019081526020016000206000015403610625576040517f08c379a000000000000000000000000000000000000000000000000000000000815260040161061c90612384565b60405180910390fd5b603c600160003373ffffffffffffffffffffffffffffffffffffffff1673ffffffffffffffffffffffffffffffffffffffff168152602001908152602001600020600101544261067591906121f3565b116106b5576040517f08c379a00000000000000000000000000000000000000000000000000000000081526004016106ac90612416565b60405180910390fd5b600160003373ffffffffffffffffffffffffffffffffffffffff1673ffffffffffffffffffffffffffffffffffffffff1681526020019081526020016000206000015481111561070457600080fd5b80600160003373ffffffffffffffffffffffffffffffffffffffff1673ffffffffffffffffffffffffffffffffffffffff168152602001908152602001600020600001600082825461075691906121f3565b925050819055503373ffffffffffffffffffffffffffffffffffffffff166108fc829081150290604051600060405180830381858888f193505050501580156107a3573d6000803e3d6000fd5b507f22efff027d211a482d0ead24fca8715139a94fb5c85b4604dcb3f3df332facb333826040516107d5929190612482565b60405180910390a150565b600047905090565b6107f3338383611668565b506000600c9050600061080782858561179b565b90506040518060400160405280600381526020017f4361720000000000000000000000000000000000000000000000000000000000815250600260405161084d9061250a565b908152602001604051809103902060003373ffffffffffffffffffffffffffffffffffffffff1673ffffffffffffffffffffffffffffffffffffffff16815260200190815260200160002060000190816108a791906120be565b508060026040516108b79061250a565b908152602001604051809103902060003373ffffffffffffffffffffffffffffffffffffffff1673ffffffffffffffffffffffffffffffffffffffff168152602001908152602001600020600301600082825461091491906121bf565b9250508190555082600260405161092a9061250a565b908152602001604051809103902060003373ffffffffffffffffffffffffffffffffffffffff1673ffffffffffffffffffffffffffffffffffffffff168152602001908152602001600020600201600082825461098791906121bf565b9250508190555083600260405161099d9061250a565b908152602001604051809103902060003373ffffffffffffffffffffffffffffffffffffffff1673ffffffffffffffffffffffffffffffffffffffff16815260200190815260200160002060010160008282546109fa91906121bf565b9250508190555083600160003373ffffffffffffffffffffffffffffffffffffffff1673ffffffffffffffffffffffffffffffffffffffff1681526020019081526020016000206000016000828254610a5391906121bf565b9250508190555083600080828254610a6b91906121f3565b925050819055507f11edf0146ca6e5e8c3e8be9354dbf4fc478507648f8a692c6b08f7d50c96f89e338585604051610aa59392919061256b565b60405180910390a150505050565b610abe338383611668565b506000601090506000610ad282858561179b565b90506040518060400160405280600481526020017f486f6d65000000000000000000000000000000000000000000000000000000008152506002604051610b1890612601565b908152602001604051809103902060003373ffffffffffffffffffffffffffffffffffffffff1673ffffffffffffffffffffffffffffffffffffffff1681526020019081526020016000206000019081610b7291906120be565b50806002604051610b8290612601565b908152602001604051809103902060003373ffffffffffffffffffffffffffffffffffffffff1673ffffffffffffffffffffffffffffffffffffffff1681526020019081526020016000206003016000828254610bdf91906121bf565b92505081905550826002604051610bf590612601565b908152602001604051809103902060003373ffffffffffffffffffffffffffffffffffffffff1673ffffffffffffffffffffffffffffffffffffffff1681526020019081526020016000206002016000828254610c5291906121bf565b92505081905550836002604051610c6890612601565b908152602001604051809103902060003373ffffffffffffffffffffffffffffffffffffffff1673ffffffffffffffffffffffffffffffffffffffff1681526020019081526020016000206001016000828254610cc591906121bf565b9250508190555083600160003373ffffffffffffffffffffffffffffffffffffffff1673ffffffffffffffffffffffffffffffffffffffff1681526020019081526020016000206000016000828254610d1e91906121bf565b9250508190555083600080828254610d3691906121f3565b925050819055507f2cfdeffc4a4d732916a5a326810c043d0be4a1b4e21e7f8af7282ff45c5ed66f338585604051610d7093929190612662565b60405180910390a150505050565b60016020528060005260406000206000915090508060000154908060010154905082565b60005481565b60606000806000806040518060400160405280600381526020017f43617200000000000000000000000000000000000000000000000000000000008152509050610df28133611838565b94509450945094505090919293565b60606000806000806040518060400160405280600481526020017f486f6d65000000000000000000000000000000000000000000000000000000008152509050610e4b8133611838565b94509450945094505090919293565b60003411610e9d576040517f08c379a0000000000000000000000000000000000000000000000000000000008152600401610e94906126f8565b60405180910390fd5b34600080828254610eae91906121bf565b92505081905550565b60003411610efa576040517f08c379a0000000000000000000000000000000000000000000000000000000008152600401610ef1906126f8565b60405180910390fd5b34600160003373ffffffffffffffffffffffffffffffffffffffff1673ffffffffffffffffffffffffffffffffffffffff1681526020019081526020016000206000016000828254610f4c91906121bf565b9250508190555042600160003373ffffffffffffffffffffffffffffffffffffffff1673ffffffffffffffffffffffffffffffffffffffff168152602001908152602001600020600101819055507f5752e81d3f840ed15d83846a26d47f1e7a1bf6fae1fa33acba2dec16780e68713334604051610fcb929190612764565b60405180910390a1565b60606000806000806040518060400160405280600881526020017f506572736f6e616c000000000000000000000000000000000000000000000000815250905061101f8133611838565b94509450945094505090919293565b60405160200161103d906127c3565b604051602081830303815290604052805190602001208160405160200161106491906127e3565b6040516020818303038152906040528051906020012014806110cf575060405160200161109090612828565b60405160208183030381529060405280519060200120816040516020016110b791906127e3565b60405160208183030381529060405280519060200120145b8061112357506040516020016110e49061286b565b604051602081830303815290604052805190602001208160405160200161110b91906127e3565b60405160208183030381529060405280519060200120145b611162576040517f08c379a0000000000000000000000000000000000000000000000000000000008152600401611159906128fd565b60405180910390fd5b6000600282604051611174919061294e565b908152602001604051809103902060003373ffffffffffffffffffffffffffffffffffffffff1673ffffffffffffffffffffffffffffffffffffffff1681526020019081526020016000206002015403611203576040517f08c379a00000000000000000000000000000000000000000000000000000000081526004016111fa906129b1565b60405180910390fd5b600281604051611213919061294e565b908152602001604051809103902060003373ffffffffffffffffffffffffffffffffffffffff1673ffffffffffffffffffffffffffffffffffffffff1681526020019081526020016000206003015434146112a3576040517f08c379a000000000000000000000000000000000000000000000000000000000815260040161129a90612a1d565b60405180910390fd5b62278d006002826040516112b7919061294e565b908152602001604051809103902060003373ffffffffffffffffffffffffffffffffffffffff1673ffffffffffffffffffffffffffffffffffffffff168152602001908152602001600020600401544261131191906121f3565b11611351576040517f08c379a000000000000000000000000000000000000000000000000000000000815260040161134890612aaf565b60405180910390fd5b600281604051611361919061294e565b908152602001604051809103902060003373ffffffffffffffffffffffffffffffffffffffff1673ffffffffffffffffffffffffffffffffffffffff16815260200190815260200160002060030154600160003373ffffffffffffffffffffffffffffffffffffffff1673ffffffffffffffffffffffffffffffffffffffff168152602001908152602001600020600001600082825461140191906121f3565b92505081905550600160028260405161141a919061294e565b908152602001604051809103902060003373ffffffffffffffffffffffffffffffffffffffff1673ffffffffffffffffffffffffffffffffffffffff168152602001908152602001600020600201600082825461147791906121f3565b9250508190555060028160405161148e919061294e565b908152602001604051809103902060003373ffffffffffffffffffffffffffffffffffffffff1673ffffffffffffffffffffffffffffffffffffffff168152602001908152602001600020600301546002826040516114ed919061294e565b908152602001604051809103902060003373ffffffffffffffffffffffffffffffffffffffff1673ffffffffffffffffffffffffffffffffffffffff168152602001908152602001600020600101600082825461154a91906121f3565b9250508190555042600282604051611562919061294e565b908152602001604051809103902060003373ffffffffffffffffffffffffffffffffffffffff1673ffffffffffffffffffffffffffffffffffffffff168152602001908152602001600020600401819055506002816040516115c4919061294e565b908152602001604051809103902060003373ffffffffffffffffffffffffffffffffffffffff1673ffffffffffffffffffffffffffffffffffffffff1681526020019081526020016000206003015460008082825461162391906121bf565b925050819055507f8db1b7194c3e18eac06d46922e4732b787a3924d723613887c081ac8def42a3533823460405161165d93929190612b1b565b60405180910390a150565b600080600160008673ffffffffffffffffffffffffffffffffffffffff1673ffffffffffffffffffffffffffffffffffffffff16815260200190815260200160002060000154036116ee576040517f08c379a00000000000000000000000000000000000000000000000000000000081526004016116e590612384565b60405180910390fd5b600054831115801561170257506103e88310155b611741576040517f08c379a000000000000000000000000000000000000000000000000000000000815260040161173890612bde565b60405180910390fd5b6001821180156117515750607882105b611790576040517f08c379a000000000000000000000000000000000000000000000000000000000815260040161178790612c4a565b60405180910390fd5b600190509392505050565b6000806104b0905060006001848388856117b591906121bf565b6117bf9190612c99565b186117ca91906121f3565b848388856117d891906121bf565b6117e29190612c99565b188388886117f09190612cca565b6117fa9190612c99565b6118049190612cca565b61180e9190612c99565b9050600084868361181f91906121bf565b6118299190612c99565b90508093505050509392505050565b6060600080600060028660405161184f919061294e565b908152602001604051809103902060008673ffffffffffffffffffffffffffffffffffffffff1673ffffffffffffffffffffffffffffffffffffffff1681526020019081526020016000206000016002876040516118ad919061294e565b908152602001604051809103902060008773ffffffffffffffffffffffffffffffffffffffff1673ffffffffffffffffffffffffffffffffffffffff1681526020019081526020016000206001015460028860405161190c919061294e565b908152602001604051809103902060008873ffffffffffffffffffffffffffffffffffffffff1673ffffffffffffffffffffffffffffffffffffffff1681526020019081526020016000206002015460028960405161196b919061294e565b908152602001604051809103902060008973ffffffffffffffffffffffffffffffffffffffff1673ffffffffffffffffffffffffffffffffffffffff168152602001908152602001600020600301548380546119c690611ee1565b80601f01602080910402602001604051908101604052809291908181526020018280546119f290611ee1565b8015611a3f5780601f10611a1457610100808354040283529160200191611a3f565b820191906000526020600020905b815481529060010190602001808311611a2257829003601f168201915b50505050509350935093509350935092959194509250565b6000604051905090565b600080fd5b600080fd5b6000819050919050565b611a7e81611a6b565b8114611a8957600080fd5b50565b600081359050611a9b81611a75565b92915050565b60008060408385031215611ab857611ab7611a61565b5b6000611ac685828601611a8c565b9250506020611ad785828601611a8c565b9150509250929050565b600060208284031215611af757611af6611a61565b5b6000611b0584828501611a8c565b91505092915050565b611b1781611a6b565b82525050565b6000602082019050611b326000830184611b0e565b92915050565b600073ffffffffffffffffffffffffffffffffffffffff82169050919050565b6000611b6382611b38565b9050919050565b611b7381611b58565b8114611b7e57600080fd5b50565b600081359050611b9081611b6a565b92915050565b600060208284031215611bac57611bab611a61565b5b6000611bba84828501611b81565b91505092915050565b6000604082019050611bd86000830185611b0e565b611be56020830184611b0e565b9392505050565b600081519050919050565b600082825260208201905092915050565b60005b83811015611c26578082015181840152602081019050611c0b565b60008484015250505050565b6000601f19601f8301169050919050565b6000611c4e82611bec565b611c588185611bf7565b9350611c68818560208601611c08565b611c7181611c32565b840191505092915050565b60006080820190508181036000830152611c968187611c43565b9050611ca56020830186611b0e565b611cb26040830185611b0e565b611cbf6060830184611b0e565b95945050505050565b600080fd5b600080fd5b7f4e487b7100000000000000000000000000000000000000000000000000000000600052604160045260246000fd5b611d0a82611c32565b810181811067ffffffffffffffff82111715611d2957611d28611cd2565b5b80604052505050565b6000611d3c611a57565b9050611d488282611d01565b919050565b600067ffffffffffffffff821115611d6857611d67611cd2565b5b611d7182611c32565b9050602081019050919050565b82818337600083830152505050565b6000611da0611d9b84611d4d565b611d32565b905082815260208101848484011115611dbc57611dbb611ccd565b5b611dc7848285611d7e565b509392505050565b600082601f830112611de457611de3611cc8565b5b8135611df4848260208601611d8d565b91505092915050565b600060208284031215611e1357611e12611a61565b5b600082013567ffffffffffffffff811115611e3157611e30611a66565b5b611e3d84828501611dcf565b91505092915050565b600081905092915050565b7f506572736f6e616c000000000000000000000000000000000000000000000000600082015250565b6000611e87600883611e46565b9150611e9282611e51565b600882019050919050565b6000611ea882611e7a565b9150819050919050565b7f4e487b7100000000000000000000000000000000000000000000000000000000600052602260045260246000fd5b60006002820490506001821680611ef957607f821691505b602082108103611f0c57611f0b611eb2565b5b50919050565b60008190508160005260206000209050919050565b60006020601f8301049050919050565b600082821b905092915050565b600060088302611f747fffffffffffffffffffffffffffffffffffffffffffffffffffffffffffffffff82611f37565b611f7e8683611f37565b95508019841693508086168417925050509392505050565b6000819050919050565b6000611fbb611fb6611fb184611a6b565b611f96565b611a6b565b9050919050565b6000819050919050565b611fd583611fa0565b611fe9611fe182611fc2565b848454611f44565b825550505050565b600090565b611ffe611ff1565b612009818484611fcc565b505050565b5b8181101561202d57612022600082611ff6565b60018101905061200f565b5050565b601f8211156120725761204381611f12565b61204c84611f27565b8101602085101561205b578190505b61206f61206785611f27565b83018261200e565b50505b505050565b600082821c905092915050565b600061209560001984600802612077565b1980831691505092915050565b60006120ae8383612084565b9150826002028217905092915050565b6120c782611bec565b67ffffffffffffffff8111156120e0576120df611cd2565b5b6120ea8254611ee1565b6120f5828285612031565b600060209050601f8311600181146121285760008415612116578287015190505b61212085826120a2565b865550612188565b601f19841661213686611f12565b60005b8281101561215e57848901518255600182019150602085019450602081019050612139565b8683101561217b5784890151612177601f891682612084565b8355505b6001600288020188555050505b505050505050565b7f4e487b7100000000000000000000000000000000000000000000000000000000600052601160045260246000fd5b60006121ca82611a6b565b91506121d583611a6b565b92508282019050808211156121ed576121ec612190565b5b92915050565b60006121fe82611a6b565b915061220983611a6b565b925082820390508181111561222157612220612190565b5b92915050565b61223081611b58565b82525050565b7f68617320676f7420706572736f6e616c206c6f616e206f660000000000000000600082015250565b600061226c601883611bf7565b915061227782612236565b602082019050919050565b60006080820190506122976000830186612227565b81810360208301526122a88161225f565b90506122b76040830185611b0e565b6122c46060830184611b0e565b949350505050565b7f506c7a7a20776974686472617720736f6d6520616d6f756e7400000000000000600082015250565b6000612302601983611bf7565b915061230d826122cc565b602082019050919050565b60006020820190508181036000830152612331816122f5565b9050919050565b7f4e6f206461746120657869737400000000000000000000000000000000000000600082015250565b600061236e600d83611bf7565b915061237982612338565b602082019050919050565b6000602082019050818103600083015261239d81612361565b9050919050565b7f4e65656420746f20776169742031206d696e75746573206265666f726520776960008201527f7468647261770000000000000000000000000000000000000000000000000000602082015250565b6000612400602683611bf7565b915061240b826123a4565b604082019050919050565b6000602082019050818103600083015261242f816123f3565b9050919050565b7f6861732077697468647261776e00000000000000000000000000000000000000600082015250565b600061246c600d83611bf7565b915061247782612436565b602082019050919050565b60006060820190506124976000830185612227565b81810360208301526124a88161245f565b90506124b76040830184611b0e565b9392505050565b7f4361720000000000000000000000000000000000000000000000000000000000600082015250565b60006124f4600383611e46565b91506124ff826124be565b600382019050919050565b6000612515826124e7565b9150819050919050565b7f68617320676f7420636172206c6f616e206f6600000000000000000000000000600082015250565b6000612555601383611bf7565b91506125608261251f565b602082019050919050565b60006080820190506125806000830186612227565b818103602083015261259181612548565b90506125a06040830185611b0e565b6125ad6060830184611b0e565b949350505050565b7f486f6d6500000000000000000000000000000000000000000000000000000000600082015250565b60006125eb600483611e46565b91506125f6826125b5565b600482019050919050565b600061260c826125de565b9150819050919050565b7f68617320676f7420686f6d65206c6f616e206f66000000000000000000000000600082015250565b600061264c601483611bf7565b915061265782612616565b602082019050919050565b60006080820190506126776000830186612227565b81810360208301526126888161263f565b90506126976040830185611b0e565b6126a46060830184611b0e565b949350505050565b7f506c7a7a206465706f7369746520736f6d6520616d6f756e7400000000000000600082015250565b60006126e2601983611bf7565b91506126ed826126ac565b602082019050919050565b60006020820190508181036000830152612711816126d5565b9050919050565b7f686173206465706f736974656400000000000000000000000000000000000000600082015250565b600061274e600d83611bf7565b915061275982612718565b602082019050919050565b60006060820190506127796000830185612227565b818103602083015261278a81612741565b90506127996040830184611b0e565b9392505050565b60006127ad600383611bf7565b91506127b8826124be565b602082019050919050565b600060208201905081810360008301526127dc816127a0565b9050919050565b600060208201905081810360008301526127fd8184611c43565b905092915050565b6000612812600483611bf7565b915061281d826125b5565b602082019050919050565b6000602082019050818103600083015261284181612805565b9050919050565b6000612855600883611bf7565b915061286082611e51565b602082019050919050565b6000602082019050818103600083015261288481612848565b9050919050565b7f706c6561736520656e7465722076616c6964206c6f616e207479706520692e6560008201527f20436172206f7220506572736f6e616c206f7220486f6d650000000000000000602082015250565b60006128e7603883611bf7565b91506128f28261288b565b604082019050919050565b60006020820190508181036000830152612916816128da565b9050919050565b600061292882611bec565b6129328185611e46565b9350612942818560208601611c08565b80840191505092915050565b600061295a828461291d565b915081905092915050565b7f4e6f20454d492070656e64696e67000000000000000000000000000000000000600082015250565b600061299b600e83611bf7565b91506129a682612965565b602082019050919050565b600060208201905081810360008301526129ca8161298e565b9050919050565b7f506c656173652073656e642076616c696420616d6f756e74206f6620456d6900600082015250565b6000612a07601f83611bf7565b9150612a12826129d1565b602082019050919050565b60006020820190508181036000830152612a36816129fa565b9050919050565b7f4e65656420746f20776169742031206d6f6e746820616674657220706179696e60008201527f67206c61737420454d4900000000000000000000000000000000000000000000602082015250565b6000612a99602a83611bf7565b9150612aa482612a3d565b604082019050919050565b60006020820190508181036000830152612ac881612a8c565b9050919050565b7f68617320706169642068697320656d69206f6600000000000000000000000000600082015250565b6000612b05601383611bf7565b9150612b1082612acf565b602082019050919050565b6000608082019050612b306000830186612227565b8181036020830152612b4181612af8565b90508181036040830152612b558185611c43565b9050612b646060830184611b0e565b949350505050565b7f416d6f756e742073686f756c642062652067726561746572207468616e20313060008201527f303020616e64206c657373207468656e206c6f616e204c696d69740000000000602082015250565b6000612bc8603b83611bf7565b9150612bd382612b6c565b604082019050919050565b60006020820190508181036000830152612bf781612bbb565b9050919050565b7f74696d652073686f756c6420626520696e2072616e6765203120746f20313230600082015250565b6000612c34602083611bf7565b9150612c3f82612bfe565b602082019050919050565b60006020820190508181036000830152612c6381612c27565b9050919050565b7f4e487b7100000000000000000000000000000000000000000000000000000000600052601260045260246000fd5b6000612ca482611a6b565b9150612caf83611a6b565b925082612cbf57612cbe612c6a565b5b828204905092915050565b6000612cd582611a6b565b9150612ce083611a6b565b9250828202612cee81611a6b565b91508282048414831517612d0557612d04612190565b5b509291505056fea26469706673582212207ecb004932f69f7947e060fa2ec91766620fb0b62038d3eb20c8e54e2a543d6964736f6c63430008120033",
					"opcodes": "PUSH1 0x80 PUSH1 0x40 MSTORE CALLVALUE DUP1 ISZERO PUSH2 0x10 JUMPI PUSH1 0x0 DUP1 REVERT JUMPDEST POP PUSH2 0x2D42 DUP1 PUSH2 0x20 PUSH1 0x0 CODECOPY PUSH1 0x0 RETURN INVALID PUSH1 0x80 PUSH1 0x40 MSTORE PUSH1 0x4 CALLDATASIZE LT PUSH2 0xC2 JUMPI PUSH1 0x0 CALLDATALOAD PUSH1 0xE0 SHR DUP1 PUSH4 0xAD81FCED GT PUSH2 0x7F JUMPI DUP1 PUSH4 0xB9CCBFAE GT PUSH2 0x59 JUMPI DUP1 PUSH4 0xB9CCBFAE EQ PUSH2 0x234 JUMPI DUP1 PUSH4 0xD0E30DB0 EQ PUSH2 0x23E JUMPI DUP1 PUSH4 0xEDDA5012 EQ PUSH2 0x248 JUMPI DUP1 PUSH4 0xFB7A3BDF EQ PUSH2 0x276 JUMPI PUSH2 0xC2 JUMP JUMPDEST DUP1 PUSH4 0xAD81FCED EQ PUSH2 0x1AD JUMPI DUP1 PUSH4 0xAF105BA7 EQ PUSH2 0x1D8 JUMPI DUP1 PUSH4 0xB6207402 EQ PUSH2 0x206 JUMPI PUSH2 0xC2 JUMP JUMPDEST DUP1 PUSH4 0x696D74A EQ PUSH2 0xC7 JUMPI DUP1 PUSH4 0x2E1A7D4D EQ PUSH2 0xE3 JUMPI DUP1 PUSH4 0x38A2CA40 EQ PUSH2 0x10C JUMPI DUP1 PUSH4 0x4B674096 EQ PUSH2 0x137 JUMPI DUP1 PUSH4 0x5415CF03 EQ PUSH2 0x153 JUMPI DUP1 PUSH4 0x8DD09D0B EQ PUSH2 0x16F JUMPI JUMPDEST PUSH1 0x0 DUP1 REVERT JUMPDEST PUSH2 0xE1 PUSH1 0x4 DUP1 CALLDATASIZE SUB DUP2 ADD SWAP1 PUSH2 0xDC SWAP2 SWAP1 PUSH2 0x1AA1 JUMP JUMPDEST PUSH2 0x292 JUMP JUMPDEST STOP JUMPDEST CALLVALUE DUP1 ISZERO PUSH2 0xEF JUMPI PUSH1 0x0 DUP1 REVERT JUMPDEST POP PUSH2 0x10A PUSH1 0x4 DUP1 CALLDATASIZE SUB DUP2 ADD SWAP1 PUSH2 0x105 SWAP2 SWAP1 PUSH2 0x1AE1 JUMP JUMPDEST PUSH2 0x55D JUMP JUMPDEST STOP JUMPDEST CALLVALUE DUP1 ISZERO PUSH2 0x118 JUMPI PUSH1 0x0 DUP1 REVERT JUMPDEST POP PUSH2 0x121 PUSH2 0x7E0 JUMP JUMPDEST PUSH1 0x40 MLOAD PUSH2 0x12E SWAP2 SWAP1 PUSH2 0x1B1D JUMP JUMPDEST PUSH1 0x40 MLOAD DUP1 SWAP2 SUB SWAP1 RETURN JUMPDEST PUSH2 0x151 PUSH1 0x4 DUP1 CALLDATASIZE SUB DUP2 ADD SWAP1 PUSH2 0x14C SWAP2 SWAP1 PUSH2 0x1AA1 JUMP JUMPDEST PUSH2 0x7E8 JUMP JUMPDEST STOP JUMPDEST PUSH2 0x16D PUSH1 0x4 DUP1 CALLDATASIZE SUB DUP2 ADD SWAP1 PUSH2 0x168 SWAP2 SWAP1 PUSH2 0x1AA1 JUMP JUMPDEST PUSH2 0xAB3 JUMP JUMPDEST STOP JUMPDEST CALLVALUE DUP1 ISZERO PUSH2 0x17B JUMPI PUSH1 0x0 DUP1 REVERT JUMPDEST POP PUSH2 0x196 PUSH1 0x4 DUP1 CALLDATASIZE SUB DUP2 ADD SWAP1 PUSH2 0x191 SWAP2 SWAP1 PUSH2 0x1B96 JUMP JUMPDEST PUSH2 0xD7E JUMP JUMPDEST PUSH1 0x40 MLOAD PUSH2 0x1A4 SWAP3 SWAP2 SWAP1 PUSH2 0x1BC3 JUMP JUMPDEST PUSH1 0x40 MLOAD DUP1 SWAP2 SUB SWAP1 RETURN JUMPDEST CALLVALUE DUP1 ISZERO PUSH2 0x1B9 JUMPI PUSH1 0x0 DUP1 REVERT JUMPDEST POP PUSH2 0x1C2 PUSH2 0xDA2 JUMP JUMPDEST PUSH1 0x40 MLOAD PUSH2 0x1CF SWAP2 SWAP1 PUSH2 0x1B1D JUMP JUMPDEST PUSH1 0x40 MLOAD DUP1 SWAP2 SUB SWAP1 RETURN JUMPDEST CALLVALUE DUP1 ISZERO PUSH2 0x1E4 JUMPI PUSH1 0x0 DUP1 REVERT JUMPDEST POP PUSH2 0x1ED PUSH2 0xDA8 JUMP JUMPDEST PUSH1 0x40 MLOAD PUSH2 0x1FD SWAP5 SWAP4 SWAP3 SWAP2 SWAP1 PUSH2 0x1C7C JUMP JUMPDEST PUSH1 0x40 MLOAD DUP1 SWAP2 SUB SWAP1 RETURN JUMPDEST CALLVALUE DUP1 ISZERO PUSH2 0x212 JUMPI PUSH1 0x0 DUP1 REVERT JUMPDEST POP PUSH2 0x21B PUSH2 0xE01 JUMP JUMPDEST PUSH1 0x40 MLOAD PUSH2 0x22B SWAP5 SWAP4 SWAP3 SWAP2 SWAP1 PUSH2 0x1C7C JUMP JUMPDEST PUSH1 0x40 MLOAD DUP1 SWAP2 SUB SWAP1 RETURN JUMPDEST PUSH2 0x23C PUSH2 0xE5A JUMP JUMPDEST STOP JUMPDEST PUSH2 0x246 PUSH2 0xEB7 JUMP JUMPDEST STOP JUMPDEST CALLVALUE DUP1 ISZERO PUSH2 0x254 JUMPI PUSH1 0x0 DUP1 REVERT JUMPDEST POP PUSH2 0x25D PUSH2 0xFD5 JUMP JUMPDEST PUSH1 0x40 MLOAD PUSH2 0x26D SWAP5 SWAP4 SWAP3 SWAP2 SWAP1 PUSH2 0x1C7C JUMP JUMPDEST PUSH1 0x40 MLOAD DUP1 SWAP2 SUB SWAP1 RETURN JUMPDEST PUSH2 0x290 PUSH1 0x4 DUP1 CALLDATASIZE SUB DUP2 ADD SWAP1 PUSH2 0x28B SWAP2 SWAP1 PUSH2 0x1DFD JUMP JUMPDEST PUSH2 0x102E JUMP JUMPDEST STOP JUMPDEST PUSH2 0x29D CALLER DUP4 DUP4 PUSH2 0x1668 JUMP JUMPDEST POP PUSH1 0x0 PUSH1 0x14 SWAP1 POP PUSH1 0x0 PUSH2 0x2B1 DUP3 DUP6 DUP6 PUSH2 0x179B JUMP JUMPDEST SWAP1 POP PUSH1 0x40 MLOAD DUP1 PUSH1 0x40 ADD PUSH1 0x40 MSTORE DUP1 PUSH1 0x8 DUP2 MSTORE PUSH1 0x20 ADD PUSH32 0x506572736F6E616C000000000000000000000000000000000000000000000000 DUP2 MSTORE POP PUSH1 0x2 PUSH1 0x40 MLOAD PUSH2 0x2F7 SWAP1 PUSH2 0x1E9D JUMP JUMPDEST SWAP1 DUP2 MSTORE PUSH1 0x20 ADD PUSH1 0x40 MLOAD DUP1 SWAP2 SUB SWAP1 KECCAK256 PUSH1 0x0 CALLER PUSH20 0xFFFFFFFFFFFFFFFFFFFFFFFFFFFFFFFFFFFFFFFF AND PUSH20 0xFFFFFFFFFFFFFFFFFFFFFFFFFFFFFFFFFFFFFFFF AND DUP2 MSTORE PUSH1 0x20 ADD SWAP1 DUP2 MSTORE PUSH1 0x20 ADD PUSH1 0x0 KECCAK256 PUSH1 0x0 ADD SWAP1 DUP2 PUSH2 0x351 SWAP2 SWAP1 PUSH2 0x20BE JUMP JUMPDEST POP DUP1 PUSH1 0x2 PUSH1 0x40 MLOAD PUSH2 0x361 SWAP1 PUSH2 0x1E9D JUMP JUMPDEST SWAP1 DUP2 MSTORE PUSH1 0x20 ADD PUSH1 0x40 MLOAD DUP1 SWAP2 SUB SWAP1 KECCAK256 PUSH1 0x0 CALLER PUSH20 0xFFFFFFFFFFFFFFFFFFFFFFFFFFFFFFFFFFFFFFFF AND PUSH20 0xFFFFFFFFFFFFFFFFFFFFFFFFFFFFFFFFFFFFFFFF AND DUP2 MSTORE PUSH1 0x20 ADD SWAP1 DUP2 MSTORE PUSH1 0x20 ADD PUSH1 0x0 KECCAK256 PUSH1 0x3 ADD PUSH1 0x0 DUP3 DUP3 SLOAD PUSH2 0x3BE SWAP2 SWAP1 PUSH2 0x21BF JUMP JUMPDEST SWAP3 POP POP DUP2 SWAP1 SSTORE POP DUP3 PUSH1 0x2 PUSH1 0x40 MLOAD PUSH2 0x3D4 SWAP1 PUSH2 0x1E9D JUMP JUMPDEST SWAP1 DUP2 MSTORE PUSH1 0x20 ADD PUSH1 0x40 MLOAD DUP1 SWAP2 SUB SWAP1 KECCAK256 PUSH1 0x0 CALLER PUSH20 0xFFFFFFFFFFFFFFFFFFFFFFFFFFFFFFFFFFFFFFFF AND PUSH20 0xFFFFFFFFFFFFFFFFFFFFFFFFFFFFFFFFFFFFFFFF AND DUP2 MSTORE PUSH1 0x20 ADD SWAP1 DUP2 MSTORE PUSH1 0x20 ADD PUSH1 0x0 KECCAK256 PUSH1 0x2 ADD PUSH1 0x0 DUP3 DUP3 SLOAD PUSH2 0x431 SWAP2 SWAP1 PUSH2 0x21BF JUMP JUMPDEST SWAP3 POP POP DUP2 SWAP1 SSTORE POP DUP4 PUSH1 0x2 PUSH1 0x40 MLOAD PUSH2 0x447 SWAP1 PUSH2 0x1E9D JUMP JUMPDEST SWAP1 DUP2 MSTORE PUSH1 0x20 ADD PUSH1 0x40 MLOAD DUP1 SWAP2 SUB SWAP1 KECCAK256 PUSH1 0x0 CALLER PUSH20 0xFFFFFFFFFFFFFFFFFFFFFFFFFFFFFFFFFFFFFFFF AND PUSH20 0xFFFFFFFFFFFFFFFFFFFFFFFFFFFFFFFFFFFFFFFF AND DUP2 MSTORE PUSH1 0x20 ADD SWAP1 DUP2 MSTORE PUSH1 0x20 ADD PUSH1 0x0 KECCAK256 PUSH1 0x1 ADD PUSH1 0x0 DUP3 DUP3 SLOAD PUSH2 0x4A4 SWAP2 SWAP1 PUSH2 0x21BF JUMP JUMPDEST SWAP3 POP POP DUP2 SWAP1 SSTORE POP DUP4 PUSH1 0x1 PUSH1 0x0 CALLER PUSH20 0xFFFFFFFFFFFFFFFFFFFFFFFFFFFFFFFFFFFFFFFF AND PUSH20 0xFFFFFFFFFFFFFFFFFFFFFFFFFFFFFFFFFFFFFFFF AND DUP2 MSTORE PUSH1 0x20 ADD SWAP1 DUP2 MSTORE PUSH1 0x20 ADD PUSH1 0x0 KECCAK256 PUSH1 0x0 ADD PUSH1 0x0 DUP3 DUP3 SLOAD PUSH2 0x4FD SWAP2 SWAP1 PUSH2 0x21BF JUMP JUMPDEST SWAP3 POP POP DUP2 SWAP1 SSTORE POP DUP4 PUSH1 0x0 DUP1 DUP3 DUP3 SLOAD PUSH2 0x515 SWAP2 SWAP1 PUSH2 0x21F3 JUMP JUMPDEST SWAP3 POP POP DUP2 SWAP1 SSTORE POP PUSH32 0xD8EEE839117C5738E7E307646D6A4503BA5A27738370B5A27A0EE2B200C77650 CALLER DUP6 DUP6 PUSH1 0x40 MLOAD PUSH2 0x54F SWAP4 SWAP3 SWAP2 SWAP1 PUSH2 0x2282 JUMP JUMPDEST PUSH1 0x40 MLOAD DUP1 SWAP2 SUB SWAP1 LOG1 POP POP POP POP JUMP JUMPDEST PUSH1 0x0 DUP2 GT PUSH2 0x5A0 JUMPI PUSH1 0x40 MLOAD PUSH32 0x8C379A000000000000000000000000000000000000000000000000000000000 DUP2 MSTORE PUSH1 0x4 ADD PUSH2 0x597 SWAP1 PUSH2 0x2318 JUMP JUMPDEST PUSH1 0x40 MLOAD DUP1 SWAP2 SUB SWAP1 REVERT JUMPDEST PUSH1 0x0 PUSH1 0x1 PUSH1 0x0 CALLER PUSH20 0xFFFFFFFFFFFFFFFFFFFFFFFFFFFFFFFFFFFFFFFF AND PUSH20 0xFFFFFFFFFFFFFFFFFFFFFFFFFFFFFFFFFFFFFFFF AND DUP2 MSTORE PUSH1 0x20 ADD SWAP1 DUP2 MSTORE PUSH1 0x20 ADD PUSH1 0x0 KECCAK256 PUSH1 0x0 ADD SLOAD SUB PUSH2 0x625 JUMPI PUSH1 0x40 MLOAD PUSH32 0x8C379A000000000000000000000000000000000000000000000000000000000 DUP2 MSTORE PUSH1 0x4 ADD PUSH2 0x61C SWAP1 PUSH2 0x2384 JUMP JUMPDEST PUSH1 0x40 MLOAD DUP1 SWAP2 SUB SWAP1 REVERT JUMPDEST PUSH1 0x3C PUSH1 0x1 PUSH1 0x0 CALLER PUSH20 0xFFFFFFFFFFFFFFFFFFFFFFFFFFFFFFFFFFFFFFFF AND PUSH20 0xFFFFFFFFFFFFFFFFFFFFFFFFFFFFFFFFFFFFFFFF AND DUP2 MSTORE PUSH1 0x20 ADD SWAP1 DUP2 MSTORE PUSH1 0x20 ADD PUSH1 0x0 KECCAK256 PUSH1 0x1 ADD SLOAD TIMESTAMP PUSH2 0x675 SWAP2 SWAP1 PUSH2 0x21F3 JUMP JUMPDEST GT PUSH2 0x6B5 JUMPI PUSH1 0x40 MLOAD PUSH32 0x8C379A000000000000000000000000000000000000000000000000000000000 DUP2 MSTORE PUSH1 0x4 ADD PUSH2 0x6AC SWAP1 PUSH2 0x2416 JUMP JUMPDEST PUSH1 0x40 MLOAD DUP1 SWAP2 SUB SWAP1 REVERT JUMPDEST PUSH1 0x1 PUSH1 0x0 CALLER PUSH20 0xFFFFFFFFFFFFFFFFFFFFFFFFFFFFFFFFFFFFFFFF AND PUSH20 0xFFFFFFFFFFFFFFFFFFFFFFFFFFFFFFFFFFFFFFFF AND DUP2 MSTORE PUSH1 0x20 ADD SWAP1 DUP2 MSTORE PUSH1 0x20 ADD PUSH1 0x0 KECCAK256 PUSH1 0x0 ADD SLOAD DUP2 GT ISZERO PUSH2 0x704 JUMPI PUSH1 0x0 DUP1 REVERT JUMPDEST DUP1 PUSH1 0x1 PUSH1 0x0 CALLER PUSH20 0xFFFFFFFFFFFFFFFFFFFFFFFFFFFFFFFFFFFFFFFF AND PUSH20 0xFFFFFFFFFFFFFFFFFFFFFFFFFFFFFFFFFFFFFFFF AND DUP2 MSTORE PUSH1 0x20 ADD SWAP1 DUP2 MSTORE PUSH1 0x20 ADD PUSH1 0x0 KECCAK256 PUSH1 0x0 ADD PUSH1 0x0 DUP3 DUP3 SLOAD PUSH2 0x756 SWAP2 SWAP1 PUSH2 0x21F3 JUMP JUMPDEST SWAP3 POP POP DUP2 SWAP1 SSTORE POP CALLER PUSH20 0xFFFFFFFFFFFFFFFFFFFFFFFFFFFFFFFFFFFFFFFF AND PUSH2 0x8FC DUP3 SWAP1 DUP2 ISZERO MUL SWAP1 PUSH1 0x40 MLOAD PUSH1 0x0 PUSH1 0x40 MLOAD DUP1 DUP4 SUB DUP2 DUP6 DUP9 DUP9 CALL SWAP4 POP POP POP POP ISZERO DUP1 ISZERO PUSH2 0x7A3 JUMPI RETURNDATASIZE PUSH1 0x0 DUP1 RETURNDATACOPY RETURNDATASIZE PUSH1 0x0 REVERT JUMPDEST POP PUSH32 0x22EFFF027D211A482D0EAD24FCA8715139A94FB5C85B4604DCB3F3DF332FACB3 CALLER DUP3 PUSH1 0x40 MLOAD PUSH2 0x7D5 SWAP3 SWAP2 SWAP1 PUSH2 0x2482 JUMP JUMPDEST PUSH1 0x40 MLOAD DUP1 SWAP2 SUB SWAP1 LOG1 POP JUMP JUMPDEST PUSH1 0x0 SELFBALANCE SWAP1 POP SWAP1 JUMP JUMPDEST PUSH2 0x7F3 CALLER DUP4 DUP4 PUSH2 0x1668 JUMP JUMPDEST POP PUSH1 0x0 PUSH1 0xC SWAP1 POP PUSH1 0x0 PUSH2 0x807 DUP3 DUP6 DUP6 PUSH2 0x179B JUMP JUMPDEST SWAP1 POP PUSH1 0x40 MLOAD DUP1 PUSH1 0x40 ADD PUSH1 0x40 MSTORE DUP1 PUSH1 0x3 DUP2 MSTORE PUSH1 0x20 ADD PUSH32 0x4361720000000000000000000000000000000000000000000000000000000000 DUP2 MSTORE POP PUSH1 0x2 PUSH1 0x40 MLOAD PUSH2 0x84D SWAP1 PUSH2 0x250A JUMP JUMPDEST SWAP1 DUP2 MSTORE PUSH1 0x20 ADD PUSH1 0x40 MLOAD DUP1 SWAP2 SUB SWAP1 KECCAK256 PUSH1 0x0 CALLER PUSH20 0xFFFFFFFFFFFFFFFFFFFFFFFFFFFFFFFFFFFFFFFF AND PUSH20 0xFFFFFFFFFFFFFFFFFFFFFFFFFFFFFFFFFFFFFFFF AND DUP2 MSTORE PUSH1 0x20 ADD SWAP1 DUP2 MSTORE PUSH1 0x20 ADD PUSH1 0x0 KECCAK256 PUSH1 0x0 ADD SWAP1 DUP2 PUSH2 0x8A7 SWAP2 SWAP1 PUSH2 0x20BE JUMP JUMPDEST POP DUP1 PUSH1 0x2 PUSH1 0x40 MLOAD PUSH2 0x8B7 SWAP1 PUSH2 0x250A JUMP JUMPDEST SWAP1 DUP2 MSTORE PUSH1 0x20 ADD PUSH1 0x40 MLOAD DUP1 SWAP2 SUB SWAP1 KECCAK256 PUSH1 0x0 CALLER PUSH20 0xFFFFFFFFFFFFFFFFFFFFFFFFFFFFFFFFFFFFFFFF AND PUSH20 0xFFFFFFFFFFFFFFFFFFFFFFFFFFFFFFFFFFFFFFFF AND DUP2 MSTORE PUSH1 0x20 ADD SWAP1 DUP2 MSTORE PUSH1 0x20 ADD PUSH1 0x0 KECCAK256 PUSH1 0x3 ADD PUSH1 0x0 DUP3 DUP3 SLOAD PUSH2 0x914 SWAP2 SWAP1 PUSH2 0x21BF JUMP JUMPDEST SWAP3 POP POP DUP2 SWAP1 SSTORE POP DUP3 PUSH1 0x2 PUSH1 0x40 MLOAD PUSH2 0x92A SWAP1 PUSH2 0x250A JUMP JUMPDEST SWAP1 DUP2 MSTORE PUSH1 0x20 ADD PUSH1 0x40 MLOAD DUP1 SWAP2 SUB SWAP1 KECCAK256 PUSH1 0x0 CALLER PUSH20 0xFFFFFFFFFFFFFFFFFFFFFFFFFFFFFFFFFFFFFFFF AND PUSH20 0xFFFFFFFFFFFFFFFFFFFFFFFFFFFFFFFFFFFFFFFF AND DUP2 MSTORE PUSH1 0x20 ADD SWAP1 DUP2 MSTORE PUSH1 0x20 ADD PUSH1 0x0 KECCAK256 PUSH1 0x2 ADD PUSH1 0x0 DUP3 DUP3 SLOAD PUSH2 0x987 SWAP2 SWAP1 PUSH2 0x21BF JUMP JUMPDEST SWAP3 POP POP DUP2 SWAP1 SSTORE POP DUP4 PUSH1 0x2 PUSH1 0x40 MLOAD PUSH2 0x99D SWAP1 PUSH2 0x250A JUMP JUMPDEST SWAP1 DUP2 MSTORE PUSH1 0x20 ADD PUSH1 0x40 MLOAD DUP1 SWAP2 SUB SWAP1 KECCAK256 PUSH1 0x0 CALLER PUSH20 0xFFFFFFFFFFFFFFFFFFFFFFFFFFFFFFFFFFFFFFFF AND PUSH20 0xFFFFFFFFFFFFFFFFFFFFFFFFFFFFFFFFFFFFFFFF AND DUP2 MSTORE PUSH1 0x20 ADD SWAP1 DUP2 MSTORE PUSH1 0x20 ADD PUSH1 0x0 KECCAK256 PUSH1 0x1 ADD PUSH1 0x0 DUP3 DUP3 SLOAD PUSH2 0x9FA SWAP2 SWAP1 PUSH2 0x21BF JUMP JUMPDEST SWAP3 POP POP DUP2 SWAP1 SSTORE POP DUP4 PUSH1 0x1 PUSH1 0x0 CALLER PUSH20 0xFFFFFFFFFFFFFFFFFFFFFFFFFFFFFFFFFFFFFFFF AND PUSH20 0xFFFFFFFFFFFFFFFFFFFFFFFFFFFFFFFFFFFFFFFF AND DUP2 MSTORE PUSH1 0x20 ADD SWAP1 DUP2 MSTORE PUSH1 0x20 ADD PUSH1 0x0 KECCAK256 PUSH1 0x0 ADD PUSH1 0x0 DUP3 DUP3 SLOAD PUSH2 0xA53 SWAP2 SWAP1 PUSH2 0x21BF JUMP JUMPDEST SWAP3 POP POP DUP2 SWAP1 SSTORE POP DUP4 PUSH1 0x0 DUP1 DUP3 DUP3 SLOAD PUSH2 0xA6B SWAP2 SWAP1 PUSH2 0x21F3 JUMP JUMPDEST SWAP3 POP POP DUP2 SWAP1 SSTORE POP PUSH32 0x11EDF0146CA6E5E8C3E8BE9354DBF4FC478507648F8A692C6B08F7D50C96F89E CALLER DUP6 DUP6 PUSH1 0x40 MLOAD PUSH2 0xAA5 SWAP4 SWAP3 SWAP2 SWAP1 PUSH2 0x256B JUMP JUMPDEST PUSH1 0x40 MLOAD DUP1 SWAP2 SUB SWAP1 LOG1 POP POP POP POP JUMP JUMPDEST PUSH2 0xABE CALLER DUP4 DUP4 PUSH2 0x1668 JUMP JUMPDEST POP PUSH1 0x0 PUSH1 0x10 SWAP1 POP PUSH1 0x0 PUSH2 0xAD2 DUP3 DUP6 DUP6 PUSH2 0x179B JUMP JUMPDEST SWAP1 POP PUSH1 0x40 MLOAD DUP1 PUSH1 0x40 ADD PUSH1 0x40 MSTORE DUP1 PUSH1 0x4 DUP2 MSTORE PUSH1 0x20 ADD PUSH32 0x486F6D6500000000000000000000000000000000000000000000000000000000 DUP2 MSTORE POP PUSH1 0x2 PUSH1 0x40 MLOAD PUSH2 0xB18 SWAP1 PUSH2 0x2601 JUMP JUMPDEST SWAP1 DUP2 MSTORE PUSH1 0x20 ADD PUSH1 0x40 MLOAD DUP1 SWAP2 SUB SWAP1 KECCAK256 PUSH1 0x0 CALLER PUSH20 0xFFFFFFFFFFFFFFFFFFFFFFFFFFFFFFFFFFFFFFFF AND PUSH20 0xFFFFFFFFFFFFFFFFFFFFFFFFFFFFFFFFFFFFFFFF AND DUP2 MSTORE PUSH1 0x20 ADD SWAP1 DUP2 MSTORE PUSH1 0x20 ADD PUSH1 0x0 KECCAK256 PUSH1 0x0 ADD SWAP1 DUP2 PUSH2 0xB72 SWAP2 SWAP1 PUSH2 0x20BE JUMP JUMPDEST POP DUP1 PUSH1 0x2 PUSH1 0x40 MLOAD PUSH2 0xB82 SWAP1 PUSH2 0x2601 JUMP JUMPDEST SWAP1 DUP2 MSTORE PUSH1 0x20 ADD PUSH1 0x40 MLOAD DUP1 SWAP2 SUB SWAP1 KECCAK256 PUSH1 0x0 CALLER PUSH20 0xFFFFFFFFFFFFFFFFFFFFFFFFFFFFFFFFFFFFFFFF AND PUSH20 0xFFFFFFFFFFFFFFFFFFFFFFFFFFFFFFFFFFFFFFFF AND DUP2 MSTORE PUSH1 0x20 ADD SWAP1 DUP2 MSTORE PUSH1 0x20 ADD PUSH1 0x0 KECCAK256 PUSH1 0x3 ADD PUSH1 0x0 DUP3 DUP3 SLOAD PUSH2 0xBDF SWAP2 SWAP1 PUSH2 0x21BF JUMP JUMPDEST SWAP3 POP POP DUP2 SWAP1 SSTORE POP DUP3 PUSH1 0x2 PUSH1 0x40 MLOAD PUSH2 0xBF5 SWAP1 PUSH2 0x2601 JUMP JUMPDEST SWAP1 DUP2 MSTORE PUSH1 0x20 ADD PUSH1 0x40 MLOAD DUP1 SWAP2 SUB SWAP1 KECCAK256 PUSH1 0x0 CALLER PUSH20 0xFFFFFFFFFFFFFFFFFFFFFFFFFFFFFFFFFFFFFFFF AND PUSH20 0xFFFFFFFFFFFFFFFFFFFFFFFFFFFFFFFFFFFFFFFF AND DUP2 MSTORE PUSH1 0x20 ADD SWAP1 DUP2 MSTORE PUSH1 0x20 ADD PUSH1 0x0 KECCAK256 PUSH1 0x2 ADD PUSH1 0x0 DUP3 DUP3 SLOAD PUSH2 0xC52 SWAP2 SWAP1 PUSH2 0x21BF JUMP JUMPDEST SWAP3 POP POP DUP2 SWAP1 SSTORE POP DUP4 PUSH1 0x2 PUSH1 0x40 MLOAD PUSH2 0xC68 SWAP1 PUSH2 0x2601 JUMP JUMPDEST SWAP1 DUP2 MSTORE PUSH1 0x20 ADD PUSH1 0x40 MLOAD DUP1 SWAP2 SUB SWAP1 KECCAK256 PUSH1 0x0 CALLER PUSH20 0xFFFFFFFFFFFFFFFFFFFFFFFFFFFFFFFFFFFFFFFF AND PUSH20 0xFFFFFFFFFFFFFFFFFFFFFFFFFFFFFFFFFFFFFFFF AND DUP2 MSTORE PUSH1 0x20 ADD SWAP1 DUP2 MSTORE PUSH1 0x20 ADD PUSH1 0x0 KECCAK256 PUSH1 0x1 ADD PUSH1 0x0 DUP3 DUP3 SLOAD PUSH2 0xCC5 SWAP2 SWAP1 PUSH2 0x21BF JUMP JUMPDEST SWAP3 POP POP DUP2 SWAP1 SSTORE POP DUP4 PUSH1 0x1 PUSH1 0x0 CALLER PUSH20 0xFFFFFFFFFFFFFFFFFFFFFFFFFFFFFFFFFFFFFFFF AND PUSH20 0xFFFFFFFFFFFFFFFFFFFFFFFFFFFFFFFFFFFFFFFF AND DUP2 MSTORE PUSH1 0x20 ADD SWAP1 DUP2 MSTORE PUSH1 0x20 ADD PUSH1 0x0 KECCAK256 PUSH1 0x0 ADD PUSH1 0x0 DUP3 DUP3 SLOAD PUSH2 0xD1E SWAP2 SWAP1 PUSH2 0x21BF JUMP JUMPDEST SWAP3 POP POP DUP2 SWAP1 SSTORE POP DUP4 PUSH1 0x0 DUP1 DUP3 DUP3 SLOAD PUSH2 0xD36 SWAP2 SWAP1 PUSH2 0x21F3 JUMP JUMPDEST SWAP3 POP POP DUP2 SWAP1 SSTORE POP PUSH32 0x2CFDEFFC4A4D732916A5A326810C043D0BE4A1B4E21E7F8AF7282FF45C5ED66F CALLER DUP6 DUP6 PUSH1 0x40 MLOAD PUSH2 0xD70 SWAP4 SWAP3 SWAP2 SWAP1 PUSH2 0x2662 JUMP JUMPDEST PUSH1 0x40 MLOAD DUP1 SWAP2 SUB SWAP1 LOG1 POP POP POP POP JUMP JUMPDEST PUSH1 0x1 PUSH1 0x20 MSTORE DUP1 PUSH1 0x0 MSTORE PUSH1 0x40 PUSH1 0x0 KECCAK256 PUSH1 0x0 SWAP2 POP SWAP1 POP DUP1 PUSH1 0x0 ADD SLOAD SWAP1 DUP1 PUSH1 0x1 ADD SLOAD SWAP1 POP DUP3 JUMP JUMPDEST PUSH1 0x0 SLOAD DUP2 JUMP JUMPDEST PUSH1 0x60 PUSH1 0x0 DUP1 PUSH1 0x0 DUP1 PUSH1 0x40 MLOAD DUP1 PUSH1 0x40 ADD PUSH1 0x40 MSTORE DUP1 PUSH1 0x3 DUP2 MSTORE PUSH1 0x20 ADD PUSH32 0x4361720000000000000000000000000000000000000000000000000000000000 DUP2 MSTORE POP SWAP1 POP PUSH2 0xDF2 DUP2 CALLER PUSH2 0x1838 JUMP JUMPDEST SWAP5 POP SWAP5 POP SWAP5 POP SWAP5 POP POP SWAP1 SWAP2 SWAP3 SWAP4 JUMP JUMPDEST PUSH1 0x60 PUSH1 0x0 DUP1 PUSH1 0x0 DUP1 PUSH1 0x40 MLOAD DUP1 PUSH1 0x40 ADD PUSH1 0x40 MSTORE DUP1 PUSH1 0x4 DUP2 MSTORE PUSH1 0x20 ADD PUSH32 0x486F6D6500000000000000000000000000000000000000000000000000000000 DUP2 MSTORE POP SWAP1 POP PUSH2 0xE4B DUP2 CALLER PUSH2 0x1838 JUMP JUMPDEST SWAP5 POP SWAP5 POP SWAP5 POP SWAP5 POP POP SWAP1 SWAP2 SWAP3 SWAP4 JUMP JUMPDEST PUSH1 0x0 CALLVALUE GT PUSH2 0xE9D JUMPI PUSH1 0x40 MLOAD PUSH32 0x8C379A000000000000000000000000000000000000000000000000000000000 DUP2 MSTORE PUSH1 0x4 ADD PUSH2 0xE94 SWAP1 PUSH2 0x26F8 JUMP JUMPDEST PUSH1 0x40 MLOAD DUP1 SWAP2 SUB SWAP1 REVERT JUMPDEST CALLVALUE PUSH1 0x0 DUP1 DUP3 DUP3 SLOAD PUSH2 0xEAE SWAP2 SWAP1 PUSH2 0x21BF JUMP JUMPDEST SWAP3 POP POP DUP2 SWAP1 SSTORE POP JUMP JUMPDEST PUSH1 0x0 CALLVALUE GT PUSH2 0xEFA JUMPI PUSH1 0x40 MLOAD PUSH32 0x8C379A000000000000000000000000000000000000000000000000000000000 DUP2 MSTORE PUSH1 0x4 ADD PUSH2 0xEF1 SWAP1 PUSH2 0x26F8 JUMP JUMPDEST PUSH1 0x40 MLOAD DUP1 SWAP2 SUB SWAP1 REVERT JUMPDEST CALLVALUE PUSH1 0x1 PUSH1 0x0 CALLER PUSH20 0xFFFFFFFFFFFFFFFFFFFFFFFFFFFFFFFFFFFFFFFF AND PUSH20 0xFFFFFFFFFFFFFFFFFFFFFFFFFFFFFFFFFFFFFFFF AND DUP2 MSTORE PUSH1 0x20 ADD SWAP1 DUP2 MSTORE PUSH1 0x20 ADD PUSH1 0x0 KECCAK256 PUSH1 0x0 ADD PUSH1 0x0 DUP3 DUP3 SLOAD PUSH2 0xF4C SWAP2 SWAP1 PUSH2 0x21BF JUMP JUMPDEST SWAP3 POP POP DUP2 SWAP1 SSTORE POP TIMESTAMP PUSH1 0x1 PUSH1 0x0 CALLER PUSH20 0xFFFFFFFFFFFFFFFFFFFFFFFFFFFFFFFFFFFFFFFF AND PUSH20 0xFFFFFFFFFFFFFFFFFFFFFFFFFFFFFFFFFFFFFFFF AND DUP2 MSTORE PUSH1 0x20 ADD SWAP1 DUP2 MSTORE PUSH1 0x20 ADD PUSH1 0x0 KECCAK256 PUSH1 0x1 ADD DUP2 SWAP1 SSTORE POP PUSH32 0x5752E81D3F840ED15D83846A26D47F1E7A1BF6FAE1FA33ACBA2DEC16780E6871 CALLER CALLVALUE PUSH1 0x40 MLOAD PUSH2 0xFCB SWAP3 SWAP2 SWAP1 PUSH2 0x2764 JUMP JUMPDEST PUSH1 0x40 MLOAD DUP1 SWAP2 SUB SWAP1 LOG1 JUMP JUMPDEST PUSH1 0x60 PUSH1 0x0 DUP1 PUSH1 0x0 DUP1 PUSH1 0x40 MLOAD DUP1 PUSH1 0x40 ADD PUSH1 0x40 MSTORE DUP1 PUSH1 0x8 DUP2 MSTORE PUSH1 0x20 ADD PUSH32 0x506572736F6E616C000000000000000000000000000000000000000000000000 DUP2 MSTORE POP SWAP1 POP PUSH2 0x101F DUP2 CALLER PUSH2 0x1838 JUMP JUMPDEST SWAP5 POP SWAP5 POP SWAP5 POP SWAP5 POP POP SWAP1 SWAP2 SWAP3 SWAP4 JUMP JUMPDEST PUSH1 0x40 MLOAD PUSH1 0x20 ADD PUSH2 0x103D SWAP1 PUSH2 0x27C3 JUMP JUMPDEST PUSH1 0x40 MLOAD PUSH1 0x20 DUP2 DUP4 SUB SUB DUP2 MSTORE SWAP1 PUSH1 0x40 MSTORE DUP1 MLOAD SWAP1 PUSH1 0x20 ADD KECCAK256 DUP2 PUSH1 0x40 MLOAD PUSH1 0x20 ADD PUSH2 0x1064 SWAP2 SWAP1 PUSH2 0x27E3 JUMP JUMPDEST PUSH1 0x40 MLOAD PUSH1 0x20 DUP2 DUP4 SUB SUB DUP2 MSTORE SWAP1 PUSH1 0x40 MSTORE DUP1 MLOAD SWAP1 PUSH1 0x20 ADD KECCAK256 EQ DUP1 PUSH2 0x10CF JUMPI POP PUSH1 0x40 MLOAD PUSH1 0x20 ADD PUSH2 0x1090 SWAP1 PUSH2 0x2828 JUMP JUMPDEST PUSH1 0x40 MLOAD PUSH1 0x20 DUP2 DUP4 SUB SUB DUP2 MSTORE SWAP1 PUSH1 0x40 MSTORE DUP1 MLOAD SWAP1 PUSH1 0x20 ADD KECCAK256 DUP2 PUSH1 0x40 MLOAD PUSH1 0x20 ADD PUSH2 0x10B7 SWAP2 SWAP1 PUSH2 0x27E3 JUMP JUMPDEST PUSH1 0x40 MLOAD PUSH1 0x20 DUP2 DUP4 SUB SUB DUP2 MSTORE SWAP1 PUSH1 0x40 MSTORE DUP1 MLOAD SWAP1 PUSH1 0x20 ADD KECCAK256 EQ JUMPDEST DUP1 PUSH2 0x1123 JUMPI POP PUSH1 0x40 MLOAD PUSH1 0x20 ADD PUSH2 0x10E4 SWAP1 PUSH2 0x286B JUMP JUMPDEST PUSH1 0x40 MLOAD PUSH1 0x20 DUP2 DUP4 SUB SUB DUP2 MSTORE SWAP1 PUSH1 0x40 MSTORE DUP1 MLOAD SWAP1 PUSH1 0x20 ADD KECCAK256 DUP2 PUSH1 0x40 MLOAD PUSH1 0x20 ADD PUSH2 0x110B SWAP2 SWAP1 PUSH2 0x27E3 JUMP JUMPDEST PUSH1 0x40 MLOAD PUSH1 0x20 DUP2 DUP4 SUB SUB DUP2 MSTORE SWAP1 PUSH1 0x40 MSTORE DUP1 MLOAD SWAP1 PUSH1 0x20 ADD KECCAK256 EQ JUMPDEST PUSH2 0x1162 JUMPI PUSH1 0x40 MLOAD PUSH32 0x8C379A000000000000000000000000000000000000000000000000000000000 DUP2 MSTORE PUSH1 0x4 ADD PUSH2 0x1159 SWAP1 PUSH2 0x28FD JUMP JUMPDEST PUSH1 0x40 MLOAD DUP1 SWAP2 SUB SWAP1 REVERT JUMPDEST PUSH1 0x0 PUSH1 0x2 DUP3 PUSH1 0x40 MLOAD PUSH2 0x1174 SWAP2 SWAP1 PUSH2 0x294E JUMP JUMPDEST SWAP1 DUP2 MSTORE PUSH1 0x20 ADD PUSH1 0x40 MLOAD DUP1 SWAP2 SUB SWAP1 KECCAK256 PUSH1 0x0 CALLER PUSH20 0xFFFFFFFFFFFFFFFFFFFFFFFFFFFFFFFFFFFFFFFF AND PUSH20 0xFFFFFFFFFFFFFFFFFFFFFFFFFFFFFFFFFFFFFFFF AND DUP2 MSTORE PUSH1 0x20 ADD SWAP1 DUP2 MSTORE PUSH1 0x20 ADD PUSH1 0x0 KECCAK256 PUSH1 0x2 ADD SLOAD SUB PUSH2 0x1203 JUMPI PUSH1 0x40 MLOAD PUSH32 0x8C379A000000000000000000000000000000000000000000000000000000000 DUP2 MSTORE PUSH1 0x4 ADD PUSH2 0x11FA SWAP1 PUSH2 0x29B1 JUMP JUMPDEST PUSH1 0x40 MLOAD DUP1 SWAP2 SUB SWAP1 REVERT JUMPDEST PUSH1 0x2 DUP2 PUSH1 0x40 MLOAD PUSH2 0x1213 SWAP2 SWAP1 PUSH2 0x294E JUMP JUMPDEST SWAP1 DUP2 MSTORE PUSH1 0x20 ADD PUSH1 0x40 MLOAD DUP1 SWAP2 SUB SWAP1 KECCAK256 PUSH1 0x0 CALLER PUSH20 0xFFFFFFFFFFFFFFFFFFFFFFFFFFFFFFFFFFFFFFFF AND PUSH20 0xFFFFFFFFFFFFFFFFFFFFFFFFFFFFFFFFFFFFFFFF AND DUP2 MSTORE PUSH1 0x20 ADD SWAP1 DUP2 MSTORE PUSH1 0x20 ADD PUSH1 0x0 KECCAK256 PUSH1 0x3 ADD SLOAD CALLVALUE EQ PUSH2 0x12A3 JUMPI PUSH1 0x40 MLOAD PUSH32 0x8C379A000000000000000000000000000000000000000000000000000000000 DUP2 MSTORE PUSH1 0x4 ADD PUSH2 0x129A SWAP1 PUSH2 0x2A1D JUMP JUMPDEST PUSH1 0x40 MLOAD DUP1 SWAP2 SUB SWAP1 REVERT JUMPDEST PUSH3 0x278D00 PUSH1 0x2 DUP3 PUSH1 0x40 MLOAD PUSH2 0x12B7 SWAP2 SWAP1 PUSH2 0x294E JUMP JUMPDEST SWAP1 DUP2 MSTORE PUSH1 0x20 ADD PUSH1 0x40 MLOAD DUP1 SWAP2 SUB SWAP1 KECCAK256 PUSH1 0x0 CALLER PUSH20 0xFFFFFFFFFFFFFFFFFFFFFFFFFFFFFFFFFFFFFFFF AND PUSH20 0xFFFFFFFFFFFFFFFFFFFFFFFFFFFFFFFFFFFFFFFF AND DUP2 MSTORE PUSH1 0x20 ADD SWAP1 DUP2 MSTORE PUSH1 0x20 ADD PUSH1 0x0 KECCAK256 PUSH1 0x4 ADD SLOAD TIMESTAMP PUSH2 0x1311 SWAP2 SWAP1 PUSH2 0x21F3 JUMP JUMPDEST GT PUSH2 0x1351 JUMPI PUSH1 0x40 MLOAD PUSH32 0x8C379A000000000000000000000000000000000000000000000000000000000 DUP2 MSTORE PUSH1 0x4 ADD PUSH2 0x1348 SWAP1 PUSH2 0x2AAF JUMP JUMPDEST PUSH1 0x40 MLOAD DUP1 SWAP2 SUB SWAP1 REVERT JUMPDEST PUSH1 0x2 DUP2 PUSH1 0x40 MLOAD PUSH2 0x1361 SWAP2 SWAP1 PUSH2 0x294E JUMP JUMPDEST SWAP1 DUP2 MSTORE PUSH1 0x20 ADD PUSH1 0x40 MLOAD DUP1 SWAP2 SUB SWAP1 KECCAK256 PUSH1 0x0 CALLER PUSH20 0xFFFFFFFFFFFFFFFFFFFFFFFFFFFFFFFFFFFFFFFF AND PUSH20 0xFFFFFFFFFFFFFFFFFFFFFFFFFFFFFFFFFFFFFFFF AND DUP2 MSTORE PUSH1 0x20 ADD SWAP1 DUP2 MSTORE PUSH1 0x20 ADD PUSH1 0x0 KECCAK256 PUSH1 0x3 ADD SLOAD PUSH1 0x1 PUSH1 0x0 CALLER PUSH20 0xFFFFFFFFFFFFFFFFFFFFFFFFFFFFFFFFFFFFFFFF AND PUSH20 0xFFFFFFFFFFFFFFFFFFFFFFFFFFFFFFFFFFFFFFFF AND DUP2 MSTORE PUSH1 0x20 ADD SWAP1 DUP2 MSTORE PUSH1 0x20 ADD PUSH1 0x0 KECCAK256 PUSH1 0x0 ADD PUSH1 0x0 DUP3 DUP3 SLOAD PUSH2 0x1401 SWAP2 SWAP1 PUSH2 0x21F3 JUMP JUMPDEST SWAP3 POP POP DUP2 SWAP1 SSTORE POP PUSH1 0x1 PUSH1 0x2 DUP3 PUSH1 0x40 MLOAD PUSH2 0x141A SWAP2 SWAP1 PUSH2 0x294E JUMP JUMPDEST SWAP1 DUP2 MSTORE PUSH1 0x20 ADD PUSH1 0x40 MLOAD DUP1 SWAP2 SUB SWAP1 KECCAK256 PUSH1 0x0 CALLER PUSH20 0xFFFFFFFFFFFFFFFFFFFFFFFFFFFFFFFFFFFFFFFF AND PUSH20 0xFFFFFFFFFFFFFFFFFFFFFFFFFFFFFFFFFFFFFFFF AND DUP2 MSTORE PUSH1 0x20 ADD SWAP1 DUP2 MSTORE PUSH1 0x20 ADD PUSH1 0x0 KECCAK256 PUSH1 0x2 ADD PUSH1 0x0 DUP3 DUP3 SLOAD PUSH2 0x1477 SWAP2 SWAP1 PUSH2 0x21F3 JUMP JUMPDEST SWAP3 POP POP DUP2 SWAP1 SSTORE POP PUSH1 0x2 DUP2 PUSH1 0x40 MLOAD PUSH2 0x148E SWAP2 SWAP1 PUSH2 0x294E JUMP JUMPDEST SWAP1 DUP2 MSTORE PUSH1 0x20 ADD PUSH1 0x40 MLOAD DUP1 SWAP2 SUB SWAP1 KECCAK256 PUSH1 0x0 CALLER PUSH20 0xFFFFFFFFFFFFFFFFFFFFFFFFFFFFFFFFFFFFFFFF AND PUSH20 0xFFFFFFFFFFFFFFFFFFFFFFFFFFFFFFFFFFFFFFFF AND DUP2 MSTORE PUSH1 0x20 ADD SWAP1 DUP2 MSTORE PUSH1 0x20 ADD PUSH1 0x0 KECCAK256 PUSH1 0x3 ADD SLOAD PUSH1 0x2 DUP3 PUSH1 0x40 MLOAD PUSH2 0x14ED SWAP2 SWAP1 PUSH2 0x294E JUMP JUMPDEST SWAP1 DUP2 MSTORE PUSH1 0x20 ADD PUSH1 0x40 MLOAD DUP1 SWAP2 SUB SWAP1 KECCAK256 PUSH1 0x0 CALLER PUSH20 0xFFFFFFFFFFFFFFFFFFFFFFFFFFFFFFFFFFFFFFFF AND PUSH20 0xFFFFFFFFFFFFFFFFFFFFFFFFFFFFFFFFFFFFFFFF AND DUP2 MSTORE PUSH1 0x20 ADD SWAP1 DUP2 MSTORE PUSH1 0x20 ADD PUSH1 0x0 KECCAK256 PUSH1 0x1 ADD PUSH1 0x0 DUP3 DUP3 SLOAD PUSH2 0x154A SWAP2 SWAP1 PUSH2 0x21F3 JUMP JUMPDEST SWAP3 POP POP DUP2 SWAP1 SSTORE POP TIMESTAMP PUSH1 0x2 DUP3 PUSH1 0x40 MLOAD PUSH2 0x1562 SWAP2 SWAP1 PUSH2 0x294E JUMP JUMPDEST SWAP1 DUP2 MSTORE PUSH1 0x20 ADD PUSH1 0x40 MLOAD DUP1 SWAP2 SUB SWAP1 KECCAK256 PUSH1 0x0 CALLER PUSH20 0xFFFFFFFFFFFFFFFFFFFFFFFFFFFFFFFFFFFFFFFF AND PUSH20 0xFFFFFFFFFFFFFFFFFFFFFFFFFFFFFFFFFFFFFFFF AND DUP2 MSTORE PUSH1 0x20 ADD SWAP1 DUP2 MSTORE PUSH1 0x20 ADD PUSH1 0x0 KECCAK256 PUSH1 0x4 ADD DUP2 SWAP1 SSTORE POP PUSH1 0x2 DUP2 PUSH1 0x40 MLOAD PUSH2 0x15C4 SWAP2 SWAP1 PUSH2 0x294E JUMP JUMPDEST SWAP1 DUP2 MSTORE PUSH1 0x20 ADD PUSH1 0x40 MLOAD DUP1 SWAP2 SUB SWAP1 KECCAK256 PUSH1 0x0 CALLER PUSH20 0xFFFFFFFFFFFFFFFFFFFFFFFFFFFFFFFFFFFFFFFF AND PUSH20 0xFFFFFFFFFFFFFFFFFFFFFFFFFFFFFFFFFFFFFFFF AND DUP2 MSTORE PUSH1 0x20 ADD SWAP1 DUP2 MSTORE PUSH1 0x20 ADD PUSH1 0x0 KECCAK256 PUSH1 0x3 ADD SLOAD PUSH1 0x0 DUP1 DUP3 DUP3 SLOAD PUSH2 0x1623 SWAP2 SWAP1 PUSH2 0x21BF JUMP JUMPDEST SWAP3 POP POP DUP2 SWAP1 SSTORE POP PUSH32 0x8DB1B7194C3E18EAC06D46922E4732B787A3924D723613887C081AC8DEF42A35 CALLER DUP3 CALLVALUE PUSH1 0x40 MLOAD PUSH2 0x165D SWAP4 SWAP3 SWAP2 SWAP1 PUSH2 0x2B1B JUMP JUMPDEST PUSH1 0x40 MLOAD DUP1 SWAP2 SUB SWAP1 LOG1 POP JUMP JUMPDEST PUSH1 0x0 DUP1 PUSH1 0x1 PUSH1 0x0 DUP7 PUSH20 0xFFFFFFFFFFFFFFFFFFFFFFFFFFFFFFFFFFFFFFFF AND PUSH20 0xFFFFFFFFFFFFFFFFFFFFFFFFFFFFFFFFFFFFFFFF AND DUP2 MSTORE PUSH1 0x20 ADD SWAP1 DUP2 MSTORE PUSH1 0x20 ADD PUSH1 0x0 KECCAK256 PUSH1 0x0 ADD SLOAD SUB PUSH2 0x16EE JUMPI PUSH1 0x40 MLOAD PUSH32 0x8C379A000000000000000000000000000000000000000000000000000000000 DUP2 MSTORE PUSH1 0x4 ADD PUSH2 0x16E5 SWAP1 PUSH2 0x2384 JUMP JUMPDEST PUSH1 0x40 MLOAD DUP1 SWAP2 SUB SWAP1 REVERT JUMPDEST PUSH1 0x0 SLOAD DUP4 GT ISZERO DUP1 ISZERO PUSH2 0x1702 JUMPI POP PUSH2 0x3E8 DUP4 LT ISZERO JUMPDEST PUSH2 0x1741 JUMPI PUSH1 0x40 MLOAD PUSH32 0x8C379A000000000000000000000000000000000000000000000000000000000 DUP2 MSTORE PUSH1 0x4 ADD PUSH2 0x1738 SWAP1 PUSH2 0x2BDE JUMP JUMPDEST PUSH1 0x40 MLOAD DUP1 SWAP2 SUB SWAP1 REVERT JUMPDEST PUSH1 0x1 DUP3 GT DUP1 ISZERO PUSH2 0x1751 JUMPI POP PUSH1 0x78 DUP3 LT JUMPDEST PUSH2 0x1790 JUMPI PUSH1 0x40 MLOAD PUSH32 0x8C379A000000000000000000000000000000000000000000000000000000000 DUP2 MSTORE PUSH1 0x4 ADD PUSH2 0x1787 SWAP1 PUSH2 0x2C4A JUMP JUMPDEST PUSH1 0x40 MLOAD DUP1 SWAP2 SUB SWAP1 REVERT JUMPDEST PUSH1 0x1 SWAP1 POP SWAP4 SWAP3 POP POP POP JUMP JUMPDEST PUSH1 0x0 DUP1 PUSH2 0x4B0 SWAP1 POP PUSH1 0x0 PUSH1 0x1 DUP5 DUP4 DUP9 DUP6 PUSH2 0x17B5 SWAP2 SWAP1 PUSH2 0x21BF JUMP JUMPDEST PUSH2 0x17BF SWAP2 SWAP1 PUSH2 0x2C99 JUMP JUMPDEST XOR PUSH2 0x17CA SWAP2 SWAP1 PUSH2 0x21F3 JUMP JUMPDEST DUP5 DUP4 DUP9 DUP6 PUSH2 0x17D8 SWAP2 SWAP1 PUSH2 0x21BF JUMP JUMPDEST PUSH2 0x17E2 SWAP2 SWAP1 PUSH2 0x2C99 JUMP JUMPDEST XOR DUP4 DUP9 DUP9 PUSH2 0x17F0 SWAP2 SWAP1 PUSH2 0x2CCA JUMP JUMPDEST PUSH2 0x17FA SWAP2 SWAP1 PUSH2 0x2C99 JUMP JUMPDEST PUSH2 0x1804 SWAP2 SWAP1 PUSH2 0x2CCA JUMP JUMPDEST PUSH2 0x180E SWAP2 SWAP1 PUSH2 0x2C99 JUMP JUMPDEST SWAP1 POP PUSH1 0x0 DUP5 DUP7 DUP4 PUSH2 0x181F SWAP2 SWAP1 PUSH2 0x21BF JUMP JUMPDEST PUSH2 0x1829 SWAP2 SWAP1 PUSH2 0x2C99 JUMP JUMPDEST SWAP1 POP DUP1 SWAP4 POP POP POP POP SWAP4 SWAP3 POP POP POP JUMP JUMPDEST PUSH1 0x60 PUSH1 0x0 DUP1 PUSH1 0x0 PUSH1 0x2 DUP7 PUSH1 0x40 MLOAD PUSH2 0x184F SWAP2 SWAP1 PUSH2 0x294E JUMP JUMPDEST SWAP1 DUP2 MSTORE PUSH1 0x20 ADD PUSH1 0x40 MLOAD DUP1 SWAP2 SUB SWAP1 KECCAK256 PUSH1 0x0 DUP7 PUSH20 0xFFFFFFFFFFFFFFFFFFFFFFFFFFFFFFFFFFFFFFFF AND PUSH20 0xFFFFFFFFFFFFFFFFFFFFFFFFFFFFFFFFFFFFFFFF AND DUP2 MSTORE PUSH1 0x20 ADD SWAP1 DUP2 MSTORE PUSH1 0x20 ADD PUSH1 0x0 KECCAK256 PUSH1 0x0 ADD PUSH1 0x2 DUP8 PUSH1 0x40 MLOAD PUSH2 0x18AD SWAP2 SWAP1 PUSH2 0x294E JUMP JUMPDEST SWAP1 DUP2 MSTORE PUSH1 0x20 ADD PUSH1 0x40 MLOAD DUP1 SWAP2 SUB SWAP1 KECCAK256 PUSH1 0x0 DUP8 PUSH20 0xFFFFFFFFFFFFFFFFFFFFFFFFFFFFFFFFFFFFFFFF AND PUSH20 0xFFFFFFFFFFFFFFFFFFFFFFFFFFFFFFFFFFFFFFFF AND DUP2 MSTORE PUSH1 0x20 ADD SWAP1 DUP2 MSTORE PUSH1 0x20 ADD PUSH1 0x0 KECCAK256 PUSH1 0x1 ADD SLOAD PUSH1 0x2 DUP9 PUSH1 0x40 MLOAD PUSH2 0x190C SWAP2 SWAP1 PUSH2 0x294E JUMP JUMPDEST SWAP1 DUP2 MSTORE PUSH1 0x20 ADD PUSH1 0x40 MLOAD DUP1 SWAP2 SUB SWAP1 KECCAK256 PUSH1 0x0 DUP9 PUSH20 0xFFFFFFFFFFFFFFFFFFFFFFFFFFFFFFFFFFFFFFFF AND PUSH20 0xFFFFFFFFFFFFFFFFFFFFFFFFFFFFFFFFFFFFFFFF AND DUP2 MSTORE PUSH1 0x20 ADD SWAP1 DUP2 MSTORE PUSH1 0x20 ADD PUSH1 0x0 KECCAK256 PUSH1 0x2 ADD SLOAD PUSH1 0x2 DUP10 PUSH1 0x40 MLOAD PUSH2 0x196B SWAP2 SWAP1 PUSH2 0x294E JUMP JUMPDEST SWAP1 DUP2 MSTORE PUSH1 0x20 ADD PUSH1 0x40 MLOAD DUP1 SWAP2 SUB SWAP1 KECCAK256 PUSH1 0x0 DUP10 PUSH20 0xFFFFFFFFFFFFFFFFFFFFFFFFFFFFFFFFFFFFFFFF AND PUSH20 0xFFFFFFFFFFFFFFFFFFFFFFFFFFFFFFFFFFFFFFFF AND DUP2 MSTORE PUSH1 0x20 ADD SWAP1 DUP2 MSTORE PUSH1 0x20 ADD PUSH1 0x0 KECCAK256 PUSH1 0x3 ADD SLOAD DUP4 DUP1 SLOAD PUSH2 0x19C6 SWAP1 PUSH2 0x1EE1 JUMP JUMPDEST DUP1 PUSH1 0x1F ADD PUSH1 0x20 DUP1 SWAP2 DIV MUL PUSH1 0x20 ADD PUSH1 0x40 MLOAD SWAP1 DUP2 ADD PUSH1 0x40 MSTORE DUP1 SWAP3 SWAP2 SWAP1 DUP2 DUP2 MSTORE PUSH1 0x20 ADD DUP3 DUP1 SLOAD PUSH2 0x19F2 SWAP1 PUSH2 0x1EE1 JUMP JUMPDEST DUP1 ISZERO PUSH2 0x1A3F JUMPI DUP1 PUSH1 0x1F LT PUSH2 0x1A14 JUMPI PUSH2 0x100 DUP1 DUP4 SLOAD DIV MUL DUP4 MSTORE SWAP2 PUSH1 0x20 ADD SWAP2 PUSH2 0x1A3F JUMP JUMPDEST DUP3 ADD SWAP2 SWAP1 PUSH1 0x0 MSTORE PUSH1 0x20 PUSH1 0x0 KECCAK256 SWAP1 JUMPDEST DUP2 SLOAD DUP2 MSTORE SWAP1 PUSH1 0x1 ADD SWAP1 PUSH1 0x20 ADD DUP1 DUP4 GT PUSH2 0x1A22 JUMPI DUP3 SWAP1 SUB PUSH1 0x1F AND DUP3 ADD SWAP2 JUMPDEST POP POP POP POP POP SWAP4 POP SWAP4 POP SWAP4 POP SWAP4 POP SWAP4 POP SWAP3 SWAP6 SWAP2 SWAP5 POP SWAP3 POP JUMP JUMPDEST PUSH1 0x0 PUSH1 0x40 MLOAD SWAP1 POP SWAP1 JUMP JUMPDEST PUSH1 0x0 DUP1 REVERT JUMPDEST PUSH1 0x0 DUP1 REVERT JUMPDEST PUSH1 0x0 DUP2 SWAP1 POP SWAP2 SWAP1 POP JUMP JUMPDEST PUSH2 0x1A7E DUP2 PUSH2 0x1A6B JUMP JUMPDEST DUP2 EQ PUSH2 0x1A89 JUMPI PUSH1 0x0 DUP1 REVERT JUMPDEST POP JUMP JUMPDEST PUSH1 0x0 DUP2 CALLDATALOAD SWAP1 POP PUSH2 0x1A9B DUP2 PUSH2 0x1A75 JUMP JUMPDEST SWAP3 SWAP2 POP POP JUMP JUMPDEST PUSH1 0x0 DUP1 PUSH1 0x40 DUP4 DUP6 SUB SLT ISZERO PUSH2 0x1AB8 JUMPI PUSH2 0x1AB7 PUSH2 0x1A61 JUMP JUMPDEST JUMPDEST PUSH1 0x0 PUSH2 0x1AC6 DUP6 DUP3 DUP7 ADD PUSH2 0x1A8C JUMP JUMPDEST SWAP3 POP POP PUSH1 0x20 PUSH2 0x1AD7 DUP6 DUP3 DUP7 ADD PUSH2 0x1A8C JUMP JUMPDEST SWAP2 POP POP SWAP3 POP SWAP3 SWAP1 POP JUMP JUMPDEST PUSH1 0x0 PUSH1 0x20 DUP3 DUP5 SUB SLT ISZERO PUSH2 0x1AF7 JUMPI PUSH2 0x1AF6 PUSH2 0x1A61 JUMP JUMPDEST JUMPDEST PUSH1 0x0 PUSH2 0x1B05 DUP5 DUP3 DUP6 ADD PUSH2 0x1A8C JUMP JUMPDEST SWAP2 POP POP SWAP3 SWAP2 POP POP JUMP JUMPDEST PUSH2 0x1B17 DUP2 PUSH2 0x1A6B JUMP JUMPDEST DUP3 MSTORE POP POP JUMP JUMPDEST PUSH1 0x0 PUSH1 0x20 DUP3 ADD SWAP1 POP PUSH2 0x1B32 PUSH1 0x0 DUP4 ADD DUP5 PUSH2 0x1B0E JUMP JUMPDEST SWAP3 SWAP2 POP POP JUMP JUMPDEST PUSH1 0x0 PUSH20 0xFFFFFFFFFFFFFFFFFFFFFFFFFFFFFFFFFFFFFFFF DUP3 AND SWAP1 POP SWAP2 SWAP1 POP JUMP JUMPDEST PUSH1 0x0 PUSH2 0x1B63 DUP3 PUSH2 0x1B38 JUMP JUMPDEST SWAP1 POP SWAP2 SWAP1 POP JUMP JUMPDEST PUSH2 0x1B73 DUP2 PUSH2 0x1B58 JUMP JUMPDEST DUP2 EQ PUSH2 0x1B7E JUMPI PUSH1 0x0 DUP1 REVERT JUMPDEST POP JUMP JUMPDEST PUSH1 0x0 DUP2 CALLDATALOAD SWAP1 POP PUSH2 0x1B90 DUP2 PUSH2 0x1B6A JUMP JUMPDEST SWAP3 SWAP2 POP POP JUMP JUMPDEST PUSH1 0x0 PUSH1 0x20 DUP3 DUP5 SUB SLT ISZERO PUSH2 0x1BAC JUMPI PUSH2 0x1BAB PUSH2 0x1A61 JUMP JUMPDEST JUMPDEST PUSH1 0x0 PUSH2 0x1BBA DUP5 DUP3 DUP6 ADD PUSH2 0x1B81 JUMP JUMPDEST SWAP2 POP POP SWAP3 SWAP2 POP POP JUMP JUMPDEST PUSH1 0x0 PUSH1 0x40 DUP3 ADD SWAP1 POP PUSH2 0x1BD8 PUSH1 0x0 DUP4 ADD DUP6 PUSH2 0x1B0E JUMP JUMPDEST PUSH2 0x1BE5 PUSH1 0x20 DUP4 ADD DUP5 PUSH2 0x1B0E JUMP JUMPDEST SWAP4 SWAP3 POP POP POP JUMP JUMPDEST PUSH1 0x0 DUP2 MLOAD SWAP1 POP SWAP2 SWAP1 POP JUMP JUMPDEST PUSH1 0x0 DUP3 DUP3 MSTORE PUSH1 0x20 DUP3 ADD SWAP1 POP SWAP3 SWAP2 POP POP JUMP JUMPDEST PUSH1 0x0 JUMPDEST DUP4 DUP2 LT ISZERO PUSH2 0x1C26 JUMPI DUP1 DUP3 ADD MLOAD DUP2 DUP5 ADD MSTORE PUSH1 0x20 DUP2 ADD SWAP1 POP PUSH2 0x1C0B JUMP JUMPDEST PUSH1 0x0 DUP5 DUP5 ADD MSTORE POP POP POP POP JUMP JUMPDEST PUSH1 0x0 PUSH1 0x1F NOT PUSH1 0x1F DUP4 ADD AND SWAP1 POP SWAP2 SWAP1 POP JUMP JUMPDEST PUSH1 0x0 PUSH2 0x1C4E DUP3 PUSH2 0x1BEC JUMP JUMPDEST PUSH2 0x1C58 DUP2 DUP6 PUSH2 0x1BF7 JUMP JUMPDEST SWAP4 POP PUSH2 0x1C68 DUP2 DUP6 PUSH1 0x20 DUP7 ADD PUSH2 0x1C08 JUMP JUMPDEST PUSH2 0x1C71 DUP2 PUSH2 0x1C32 JUMP JUMPDEST DUP5 ADD SWAP2 POP POP SWAP3 SWAP2 POP POP JUMP JUMPDEST PUSH1 0x0 PUSH1 0x80 DUP3 ADD SWAP1 POP DUP2 DUP2 SUB PUSH1 0x0 DUP4 ADD MSTORE PUSH2 0x1C96 DUP2 DUP8 PUSH2 0x1C43 JUMP JUMPDEST SWAP1 POP PUSH2 0x1CA5 PUSH1 0x20 DUP4 ADD DUP7 PUSH2 0x1B0E JUMP JUMPDEST PUSH2 0x1CB2 PUSH1 0x40 DUP4 ADD DUP6 PUSH2 0x1B0E JUMP JUMPDEST PUSH2 0x1CBF PUSH1 0x60 DUP4 ADD DUP5 PUSH2 0x1B0E JUMP JUMPDEST SWAP6 SWAP5 POP POP POP POP POP JUMP JUMPDEST PUSH1 0x0 DUP1 REVERT JUMPDEST PUSH1 0x0 DUP1 REVERT JUMPDEST PUSH32 0x4E487B7100000000000000000000000000000000000000000000000000000000 PUSH1 0x0 MSTORE PUSH1 0x41 PUSH1 0x4 MSTORE PUSH1 0x24 PUSH1 0x0 REVERT JUMPDEST PUSH2 0x1D0A DUP3 PUSH2 0x1C32 JUMP JUMPDEST DUP2 ADD DUP2 DUP2 LT PUSH8 0xFFFFFFFFFFFFFFFF DUP3 GT OR ISZERO PUSH2 0x1D29 JUMPI PUSH2 0x1D28 PUSH2 0x1CD2 JUMP JUMPDEST JUMPDEST DUP1 PUSH1 0x40 MSTORE POP POP POP JUMP JUMPDEST PUSH1 0x0 PUSH2 0x1D3C PUSH2 0x1A57 JUMP JUMPDEST SWAP1 POP PUSH2 0x1D48 DUP3 DUP3 PUSH2 0x1D01 JUMP JUMPDEST SWAP2 SWAP1 POP JUMP JUMPDEST PUSH1 0x0 PUSH8 0xFFFFFFFFFFFFFFFF DUP3 GT ISZERO PUSH2 0x1D68 JUMPI PUSH2 0x1D67 PUSH2 0x1CD2 JUMP JUMPDEST JUMPDEST PUSH2 0x1D71 DUP3 PUSH2 0x1C32 JUMP JUMPDEST SWAP1 POP PUSH1 0x20 DUP2 ADD SWAP1 POP SWAP2 SWAP1 POP JUMP JUMPDEST DUP3 DUP2 DUP4 CALLDATACOPY PUSH1 0x0 DUP4 DUP4 ADD MSTORE POP POP POP JUMP JUMPDEST PUSH1 0x0 PUSH2 0x1DA0 PUSH2 0x1D9B DUP5 PUSH2 0x1D4D JUMP JUMPDEST PUSH2 0x1D32 JUMP JUMPDEST SWAP1 POP DUP3 DUP2 MSTORE PUSH1 0x20 DUP2 ADD DUP5 DUP5 DUP5 ADD GT ISZERO PUSH2 0x1DBC JUMPI PUSH2 0x1DBB PUSH2 0x1CCD JUMP JUMPDEST JUMPDEST PUSH2 0x1DC7 DUP5 DUP3 DUP6 PUSH2 0x1D7E JUMP JUMPDEST POP SWAP4 SWAP3 POP POP POP JUMP JUMPDEST PUSH1 0x0 DUP3 PUSH1 0x1F DUP4 ADD SLT PUSH2 0x1DE4 JUMPI PUSH2 0x1DE3 PUSH2 0x1CC8 JUMP JUMPDEST JUMPDEST DUP2 CALLDATALOAD PUSH2 0x1DF4 DUP5 DUP3 PUSH1 0x20 DUP7 ADD PUSH2 0x1D8D JUMP JUMPDEST SWAP2 POP POP SWAP3 SWAP2 POP POP JUMP JUMPDEST PUSH1 0x0 PUSH1 0x20 DUP3 DUP5 SUB SLT ISZERO PUSH2 0x1E13 JUMPI PUSH2 0x1E12 PUSH2 0x1A61 JUMP JUMPDEST JUMPDEST PUSH1 0x0 DUP3 ADD CALLDATALOAD PUSH8 0xFFFFFFFFFFFFFFFF DUP2 GT ISZERO PUSH2 0x1E31 JUMPI PUSH2 0x1E30 PUSH2 0x1A66 JUMP JUMPDEST JUMPDEST PUSH2 0x1E3D DUP5 DUP3 DUP6 ADD PUSH2 0x1DCF JUMP JUMPDEST SWAP2 POP POP SWAP3 SWAP2 POP POP JUMP JUMPDEST PUSH1 0x0 DUP2 SWAP1 POP SWAP3 SWAP2 POP POP JUMP JUMPDEST PUSH32 0x506572736F6E616C000000000000000000000000000000000000000000000000 PUSH1 0x0 DUP3 ADD MSTORE POP JUMP JUMPDEST PUSH1 0x0 PUSH2 0x1E87 PUSH1 0x8 DUP4 PUSH2 0x1E46 JUMP JUMPDEST SWAP2 POP PUSH2 0x1E92 DUP3 PUSH2 0x1E51 JUMP JUMPDEST PUSH1 0x8 DUP3 ADD SWAP1 POP SWAP2 SWAP1 POP JUMP JUMPDEST PUSH1 0x0 PUSH2 0x1EA8 DUP3 PUSH2 0x1E7A JUMP JUMPDEST SWAP2 POP DUP2 SWAP1 POP SWAP2 SWAP1 POP JUMP JUMPDEST PUSH32 0x4E487B7100000000000000000000000000000000000000000000000000000000 PUSH1 0x0 MSTORE PUSH1 0x22 PUSH1 0x4 MSTORE PUSH1 0x24 PUSH1 0x0 REVERT JUMPDEST PUSH1 0x0 PUSH1 0x2 DUP3 DIV SWAP1 POP PUSH1 0x1 DUP3 AND DUP1 PUSH2 0x1EF9 JUMPI PUSH1 0x7F DUP3 AND SWAP2 POP JUMPDEST PUSH1 0x20 DUP3 LT DUP2 SUB PUSH2 0x1F0C JUMPI PUSH2 0x1F0B PUSH2 0x1EB2 JUMP JUMPDEST JUMPDEST POP SWAP2 SWAP1 POP JUMP JUMPDEST PUSH1 0x0 DUP2 SWAP1 POP DUP2 PUSH1 0x0 MSTORE PUSH1 0x20 PUSH1 0x0 KECCAK256 SWAP1 POP SWAP2 SWAP1 POP JUMP JUMPDEST PUSH1 0x0 PUSH1 0x20 PUSH1 0x1F DUP4 ADD DIV SWAP1 POP SWAP2 SWAP1 POP JUMP JUMPDEST PUSH1 0x0 DUP3 DUP3 SHL SWAP1 POP SWAP3 SWAP2 POP POP JUMP JUMPDEST PUSH1 0x0 PUSH1 0x8 DUP4 MUL PUSH2 0x1F74 PUSH32 0xFFFFFFFFFFFFFFFFFFFFFFFFFFFFFFFFFFFFFFFFFFFFFFFFFFFFFFFFFFFFFFFF DUP3 PUSH2 0x1F37 JUMP JUMPDEST PUSH2 0x1F7E DUP7 DUP4 PUSH2 0x1F37 JUMP JUMPDEST SWAP6 POP DUP1 NOT DUP5 AND SWAP4 POP DUP1 DUP7 AND DUP5 OR SWAP3 POP POP POP SWAP4 SWAP3 POP POP POP JUMP JUMPDEST PUSH1 0x0 DUP2 SWAP1 POP SWAP2 SWAP1 POP JUMP JUMPDEST PUSH1 0x0 PUSH2 0x1FBB PUSH2 0x1FB6 PUSH2 0x1FB1 DUP5 PUSH2 0x1A6B JUMP JUMPDEST PUSH2 0x1F96 JUMP JUMPDEST PUSH2 0x1A6B JUMP JUMPDEST SWAP1 POP SWAP2 SWAP1 POP JUMP JUMPDEST PUSH1 0x0 DUP2 SWAP1 POP SWAP2 SWAP1 POP JUMP JUMPDEST PUSH2 0x1FD5 DUP4 PUSH2 0x1FA0 JUMP JUMPDEST PUSH2 0x1FE9 PUSH2 0x1FE1 DUP3 PUSH2 0x1FC2 JUMP JUMPDEST DUP5 DUP5 SLOAD PUSH2 0x1F44 JUMP JUMPDEST DUP3 SSTORE POP POP POP POP JUMP JUMPDEST PUSH1 0x0 SWAP1 JUMP JUMPDEST PUSH2 0x1FFE PUSH2 0x1FF1 JUMP JUMPDEST PUSH2 0x2009 DUP2 DUP5 DUP5 PUSH2 0x1FCC JUMP JUMPDEST POP POP POP JUMP JUMPDEST JUMPDEST DUP2 DUP2 LT ISZERO PUSH2 0x202D JUMPI PUSH2 0x2022 PUSH1 0x0 DUP3 PUSH2 0x1FF6 JUMP JUMPDEST PUSH1 0x1 DUP2 ADD SWAP1 POP PUSH2 0x200F JUMP JUMPDEST POP POP JUMP JUMPDEST PUSH1 0x1F DUP3 GT ISZERO PUSH2 0x2072 JUMPI PUSH2 0x2043 DUP2 PUSH2 0x1F12 JUMP JUMPDEST PUSH2 0x204C DUP5 PUSH2 0x1F27 JUMP JUMPDEST DUP2 ADD PUSH1 0x20 DUP6 LT ISZERO PUSH2 0x205B JUMPI DUP2 SWAP1 POP JUMPDEST PUSH2 0x206F PUSH2 0x2067 DUP6 PUSH2 0x1F27 JUMP JUMPDEST DUP4 ADD DUP3 PUSH2 0x200E JUMP JUMPDEST POP POP JUMPDEST POP POP POP JUMP JUMPDEST PUSH1 0x0 DUP3 DUP3 SHR SWAP1 POP SWAP3 SWAP2 POP POP JUMP JUMPDEST PUSH1 0x0 PUSH2 0x2095 PUSH1 0x0 NOT DUP5 PUSH1 0x8 MUL PUSH2 0x2077 JUMP JUMPDEST NOT DUP1 DUP4 AND SWAP2 POP POP SWAP3 SWAP2 POP POP JUMP JUMPDEST PUSH1 0x0 PUSH2 0x20AE DUP4 DUP4 PUSH2 0x2084 JUMP JUMPDEST SWAP2 POP DUP3 PUSH1 0x2 MUL DUP3 OR SWAP1 POP SWAP3 SWAP2 POP POP JUMP JUMPDEST PUSH2 0x20C7 DUP3 PUSH2 0x1BEC JUMP JUMPDEST PUSH8 0xFFFFFFFFFFFFFFFF DUP2 GT ISZERO PUSH2 0x20E0 JUMPI PUSH2 0x20DF PUSH2 0x1CD2 JUMP JUMPDEST JUMPDEST PUSH2 0x20EA DUP3 SLOAD PUSH2 0x1EE1 JUMP JUMPDEST PUSH2 0x20F5 DUP3 DUP3 DUP6 PUSH2 0x2031 JUMP JUMPDEST PUSH1 0x0 PUSH1 0x20 SWAP1 POP PUSH1 0x1F DUP4 GT PUSH1 0x1 DUP2 EQ PUSH2 0x2128 JUMPI PUSH1 0x0 DUP5 ISZERO PUSH2 0x2116 JUMPI DUP3 DUP8 ADD MLOAD SWAP1 POP JUMPDEST PUSH2 0x2120 DUP6 DUP3 PUSH2 0x20A2 JUMP JUMPDEST DUP7 SSTORE POP PUSH2 0x2188 JUMP JUMPDEST PUSH1 0x1F NOT DUP5 AND PUSH2 0x2136 DUP7 PUSH2 0x1F12 JUMP JUMPDEST PUSH1 0x0 JUMPDEST DUP3 DUP2 LT ISZERO PUSH2 0x215E JUMPI DUP5 DUP10 ADD MLOAD DUP3 SSTORE PUSH1 0x1 DUP3 ADD SWAP2 POP PUSH1 0x20 DUP6 ADD SWAP5 POP PUSH1 0x20 DUP2 ADD SWAP1 POP PUSH2 0x2139 JUMP JUMPDEST DUP7 DUP4 LT ISZERO PUSH2 0x217B JUMPI DUP5 DUP10 ADD MLOAD PUSH2 0x2177 PUSH1 0x1F DUP10 AND DUP3 PUSH2 0x2084 JUMP JUMPDEST DUP4 SSTORE POP JUMPDEST PUSH1 0x1 PUSH1 0x2 DUP9 MUL ADD DUP9 SSTORE POP POP POP JUMPDEST POP POP POP POP POP POP JUMP JUMPDEST PUSH32 0x4E487B7100000000000000000000000000000000000000000000000000000000 PUSH1 0x0 MSTORE PUSH1 0x11 PUSH1 0x4 MSTORE PUSH1 0x24 PUSH1 0x0 REVERT JUMPDEST PUSH1 0x0 PUSH2 0x21CA DUP3 PUSH2 0x1A6B JUMP JUMPDEST SWAP2 POP PUSH2 0x21D5 DUP4 PUSH2 0x1A6B JUMP JUMPDEST SWAP3 POP DUP3 DUP3 ADD SWAP1 POP DUP1 DUP3 GT ISZERO PUSH2 0x21ED JUMPI PUSH2 0x21EC PUSH2 0x2190 JUMP JUMPDEST JUMPDEST SWAP3 SWAP2 POP POP JUMP JUMPDEST PUSH1 0x0 PUSH2 0x21FE DUP3 PUSH2 0x1A6B JUMP JUMPDEST SWAP2 POP PUSH2 0x2209 DUP4 PUSH2 0x1A6B JUMP JUMPDEST SWAP3 POP DUP3 DUP3 SUB SWAP1 POP DUP2 DUP2 GT ISZERO PUSH2 0x2221 JUMPI PUSH2 0x2220 PUSH2 0x2190 JUMP JUMPDEST JUMPDEST SWAP3 SWAP2 POP POP JUMP JUMPDEST PUSH2 0x2230 DUP2 PUSH2 0x1B58 JUMP JUMPDEST DUP3 MSTORE POP POP JUMP JUMPDEST PUSH32 0x68617320676F7420706572736F6E616C206C6F616E206F660000000000000000 PUSH1 0x0 DUP3 ADD MSTORE POP JUMP JUMPDEST PUSH1 0x0 PUSH2 0x226C PUSH1 0x18 DUP4 PUSH2 0x1BF7 JUMP JUMPDEST SWAP2 POP PUSH2 0x2277 DUP3 PUSH2 0x2236 JUMP JUMPDEST PUSH1 0x20 DUP3 ADD SWAP1 POP SWAP2 SWAP1 POP JUMP JUMPDEST PUSH1 0x0 PUSH1 0x80 DUP3 ADD SWAP1 POP PUSH2 0x2297 PUSH1 0x0 DUP4 ADD DUP7 PUSH2 0x2227 JUMP JUMPDEST DUP2 DUP2 SUB PUSH1 0x20 DUP4 ADD MSTORE PUSH2 0x22A8 DUP2 PUSH2 0x225F JUMP JUMPDEST SWAP1 POP PUSH2 0x22B7 PUSH1 0x40 DUP4 ADD DUP6 PUSH2 0x1B0E JUMP JUMPDEST PUSH2 0x22C4 PUSH1 0x60 DUP4 ADD DUP5 PUSH2 0x1B0E JUMP JUMPDEST SWAP5 SWAP4 POP POP POP POP JUMP JUMPDEST PUSH32 0x506C7A7A20776974686472617720736F6D6520616D6F756E7400000000000000 PUSH1 0x0 DUP3 ADD MSTORE POP JUMP JUMPDEST PUSH1 0x0 PUSH2 0x2302 PUSH1 0x19 DUP4 PUSH2 0x1BF7 JUMP JUMPDEST SWAP2 POP PUSH2 0x230D DUP3 PUSH2 0x22CC JUMP JUMPDEST PUSH1 0x20 DUP3 ADD SWAP1 POP SWAP2 SWAP1 POP JUMP JUMPDEST PUSH1 0x0 PUSH1 0x20 DUP3 ADD SWAP1 POP DUP2 DUP2 SUB PUSH1 0x0 DUP4 ADD MSTORE PUSH2 0x2331 DUP2 PUSH2 0x22F5 JUMP JUMPDEST SWAP1 POP SWAP2 SWAP1 POP JUMP JUMPDEST PUSH32 0x4E6F206461746120657869737400000000000000000000000000000000000000 PUSH1 0x0 DUP3 ADD MSTORE POP JUMP JUMPDEST PUSH1 0x0 PUSH2 0x236E PUSH1 0xD DUP4 PUSH2 0x1BF7 JUMP JUMPDEST SWAP2 POP PUSH2 0x2379 DUP3 PUSH2 0x2338 JUMP JUMPDEST PUSH1 0x20 DUP3 ADD SWAP1 POP SWAP2 SWAP1 POP JUMP JUMPDEST PUSH1 0x0 PUSH1 0x20 DUP3 ADD SWAP1 POP DUP2 DUP2 SUB PUSH1 0x0 DUP4 ADD MSTORE PUSH2 0x239D DUP2 PUSH2 0x2361 JUMP JUMPDEST SWAP1 POP SWAP2 SWAP1 POP JUMP JUMPDEST PUSH32 0x4E65656420746F20776169742031206D696E75746573206265666F7265207769 PUSH1 0x0 DUP3 ADD MSTORE PUSH32 0x7468647261770000000000000000000000000000000000000000000000000000 PUSH1 0x20 DUP3 ADD MSTORE POP JUMP JUMPDEST PUSH1 0x0 PUSH2 0x2400 PUSH1 0x26 DUP4 PUSH2 0x1BF7 JUMP JUMPDEST SWAP2 POP PUSH2 0x240B DUP3 PUSH2 0x23A4 JUMP JUMPDEST PUSH1 0x40 DUP3 ADD SWAP1 POP SWAP2 SWAP1 POP JUMP JUMPDEST PUSH1 0x0 PUSH1 0x20 DUP3 ADD SWAP1 POP DUP2 DUP2 SUB PUSH1 0x0 DUP4 ADD MSTORE PUSH2 0x242F DUP2 PUSH2 0x23F3 JUMP JUMPDEST SWAP1 POP SWAP2 SWAP1 POP JUMP JUMPDEST PUSH32 0x6861732077697468647261776E00000000000000000000000000000000000000 PUSH1 0x0 DUP3 ADD MSTORE POP JUMP JUMPDEST PUSH1 0x0 PUSH2 0x246C PUSH1 0xD DUP4 PUSH2 0x1BF7 JUMP JUMPDEST SWAP2 POP PUSH2 0x2477 DUP3 PUSH2 0x2436 JUMP JUMPDEST PUSH1 0x20 DUP3 ADD SWAP1 POP SWAP2 SWAP1 POP JUMP JUMPDEST PUSH1 0x0 PUSH1 0x60 DUP3 ADD SWAP1 POP PUSH2 0x2497 PUSH1 0x0 DUP4 ADD DUP6 PUSH2 0x2227 JUMP JUMPDEST DUP2 DUP2 SUB PUSH1 0x20 DUP4 ADD MSTORE PUSH2 0x24A8 DUP2 PUSH2 0x245F JUMP JUMPDEST SWAP1 POP PUSH2 0x24B7 PUSH1 0x40 DUP4 ADD DUP5 PUSH2 0x1B0E JUMP JUMPDEST SWAP4 SWAP3 POP POP POP JUMP JUMPDEST PUSH32 0x4361720000000000000000000000000000000000000000000000000000000000 PUSH1 0x0 DUP3 ADD MSTORE POP JUMP JUMPDEST PUSH1 0x0 PUSH2 0x24F4 PUSH1 0x3 DUP4 PUSH2 0x1E46 JUMP JUMPDEST SWAP2 POP PUSH2 0x24FF DUP3 PUSH2 0x24BE JUMP JUMPDEST PUSH1 0x3 DUP3 ADD SWAP1 POP SWAP2 SWAP1 POP JUMP JUMPDEST PUSH1 0x0 PUSH2 0x2515 DUP3 PUSH2 0x24E7 JUMP JUMPDEST SWAP2 POP DUP2 SWAP1 POP SWAP2 SWAP1 POP JUMP JUMPDEST PUSH32 0x68617320676F7420636172206C6F616E206F6600000000000000000000000000 PUSH1 0x0 DUP3 ADD MSTORE POP JUMP JUMPDEST PUSH1 0x0 PUSH2 0x2555 PUSH1 0x13 DUP4 PUSH2 0x1BF7 JUMP JUMPDEST SWAP2 POP PUSH2 0x2560 DUP3 PUSH2 0x251F JUMP JUMPDEST PUSH1 0x20 DUP3 ADD SWAP1 POP SWAP2 SWAP1 POP JUMP JUMPDEST PUSH1 0x0 PUSH1 0x80 DUP3 ADD SWAP1 POP PUSH2 0x2580 PUSH1 0x0 DUP4 ADD DUP7 PUSH2 0x2227 JUMP JUMPDEST DUP2 DUP2 SUB PUSH1 0x20 DUP4 ADD MSTORE PUSH2 0x2591 DUP2 PUSH2 0x2548 JUMP JUMPDEST SWAP1 POP PUSH2 0x25A0 PUSH1 0x40 DUP4 ADD DUP6 PUSH2 0x1B0E JUMP JUMPDEST PUSH2 0x25AD PUSH1 0x60 DUP4 ADD DUP5 PUSH2 0x1B0E JUMP JUMPDEST SWAP5 SWAP4 POP POP POP POP JUMP JUMPDEST PUSH32 0x486F6D6500000000000000000000000000000000000000000000000000000000 PUSH1 0x0 DUP3 ADD MSTORE POP JUMP JUMPDEST PUSH1 0x0 PUSH2 0x25EB PUSH1 0x4 DUP4 PUSH2 0x1E46 JUMP JUMPDEST SWAP2 POP PUSH2 0x25F6 DUP3 PUSH2 0x25B5 JUMP JUMPDEST PUSH1 0x4 DUP3 ADD SWAP1 POP SWAP2 SWAP1 POP JUMP JUMPDEST PUSH1 0x0 PUSH2 0x260C DUP3 PUSH2 0x25DE JUMP JUMPDEST SWAP2 POP DUP2 SWAP1 POP SWAP2 SWAP1 POP JUMP JUMPDEST PUSH32 0x68617320676F7420686F6D65206C6F616E206F66000000000000000000000000 PUSH1 0x0 DUP3 ADD MSTORE POP JUMP JUMPDEST PUSH1 0x0 PUSH2 0x264C PUSH1 0x14 DUP4 PUSH2 0x1BF7 JUMP JUMPDEST SWAP2 POP PUSH2 0x2657 DUP3 PUSH2 0x2616 JUMP JUMPDEST PUSH1 0x20 DUP3 ADD SWAP1 POP SWAP2 SWAP1 POP JUMP JUMPDEST PUSH1 0x0 PUSH1 0x80 DUP3 ADD SWAP1 POP PUSH2 0x2677 PUSH1 0x0 DUP4 ADD DUP7 PUSH2 0x2227 JUMP JUMPDEST DUP2 DUP2 SUB PUSH1 0x20 DUP4 ADD MSTORE PUSH2 0x2688 DUP2 PUSH2 0x263F JUMP JUMPDEST SWAP1 POP PUSH2 0x2697 PUSH1 0x40 DUP4 ADD DUP6 PUSH2 0x1B0E JUMP JUMPDEST PUSH2 0x26A4 PUSH1 0x60 DUP4 ADD DUP5 PUSH2 0x1B0E JUMP JUMPDEST SWAP5 SWAP4 POP POP POP POP JUMP JUMPDEST PUSH32 0x506C7A7A206465706F7369746520736F6D6520616D6F756E7400000000000000 PUSH1 0x0 DUP3 ADD MSTORE POP JUMP JUMPDEST PUSH1 0x0 PUSH2 0x26E2 PUSH1 0x19 DUP4 PUSH2 0x1BF7 JUMP JUMPDEST SWAP2 POP PUSH2 0x26ED DUP3 PUSH2 0x26AC JUMP JUMPDEST PUSH1 0x20 DUP3 ADD SWAP1 POP SWAP2 SWAP1 POP JUMP JUMPDEST PUSH1 0x0 PUSH1 0x20 DUP3 ADD SWAP1 POP DUP2 DUP2 SUB PUSH1 0x0 DUP4 ADD MSTORE PUSH2 0x2711 DUP2 PUSH2 0x26D5 JUMP JUMPDEST SWAP1 POP SWAP2 SWAP1 POP JUMP JUMPDEST PUSH32 0x686173206465706F736974656400000000000000000000000000000000000000 PUSH1 0x0 DUP3 ADD MSTORE POP JUMP JUMPDEST PUSH1 0x0 PUSH2 0x274E PUSH1 0xD DUP4 PUSH2 0x1BF7 JUMP JUMPDEST SWAP2 POP PUSH2 0x2759 DUP3 PUSH2 0x2718 JUMP JUMPDEST PUSH1 0x20 DUP3 ADD SWAP1 POP SWAP2 SWAP1 POP JUMP JUMPDEST PUSH1 0x0 PUSH1 0x60 DUP3 ADD SWAP1 POP PUSH2 0x2779 PUSH1 0x0 DUP4 ADD DUP6 PUSH2 0x2227 JUMP JUMPDEST DUP2 DUP2 SUB PUSH1 0x20 DUP4 ADD MSTORE PUSH2 0x278A DUP2 PUSH2 0x2741 JUMP JUMPDEST SWAP1 POP PUSH2 0x2799 PUSH1 0x40 DUP4 ADD DUP5 PUSH2 0x1B0E JUMP JUMPDEST SWAP4 SWAP3 POP POP POP JUMP JUMPDEST PUSH1 0x0 PUSH2 0x27AD PUSH1 0x3 DUP4 PUSH2 0x1BF7 JUMP JUMPDEST SWAP2 POP PUSH2 0x27B8 DUP3 PUSH2 0x24BE JUMP JUMPDEST PUSH1 0x20 DUP3 ADD SWAP1 POP SWAP2 SWAP1 POP JUMP JUMPDEST PUSH1 0x0 PUSH1 0x20 DUP3 ADD SWAP1 POP DUP2 DUP2 SUB PUSH1 0x0 DUP4 ADD MSTORE PUSH2 0x27DC DUP2 PUSH2 0x27A0 JUMP JUMPDEST SWAP1 POP SWAP2 SWAP1 POP JUMP JUMPDEST PUSH1 0x0 PUSH1 0x20 DUP3 ADD SWAP1 POP DUP2 DUP2 SUB PUSH1 0x0 DUP4 ADD MSTORE PUSH2 0x27FD DUP2 DUP5 PUSH2 0x1C43 JUMP JUMPDEST SWAP1 POP SWAP3 SWAP2 POP POP JUMP JUMPDEST PUSH1 0x0 PUSH2 0x2812 PUSH1 0x4 DUP4 PUSH2 0x1BF7 JUMP JUMPDEST SWAP2 POP PUSH2 0x281D DUP3 PUSH2 0x25B5 JUMP JUMPDEST PUSH1 0x20 DUP3 ADD SWAP1 POP SWAP2 SWAP1 POP JUMP JUMPDEST PUSH1 0x0 PUSH1 0x20 DUP3 ADD SWAP1 POP DUP2 DUP2 SUB PUSH1 0x0 DUP4 ADD MSTORE PUSH2 0x2841 DUP2 PUSH2 0x2805 JUMP JUMPDEST SWAP1 POP SWAP2 SWAP1 POP JUMP JUMPDEST PUSH1 0x0 PUSH2 0x2855 PUSH1 0x8 DUP4 PUSH2 0x1BF7 JUMP JUMPDEST SWAP2 POP PUSH2 0x2860 DUP3 PUSH2 0x1E51 JUMP JUMPDEST PUSH1 0x20 DUP3 ADD SWAP1 POP SWAP2 SWAP1 POP JUMP JUMPDEST PUSH1 0x0 PUSH1 0x20 DUP3 ADD SWAP1 POP DUP2 DUP2 SUB PUSH1 0x0 DUP4 ADD MSTORE PUSH2 0x2884 DUP2 PUSH2 0x2848 JUMP JUMPDEST SWAP1 POP SWAP2 SWAP1 POP JUMP JUMPDEST PUSH32 0x706C6561736520656E7465722076616C6964206C6F616E207479706520692E65 PUSH1 0x0 DUP3 ADD MSTORE PUSH32 0x20436172206F7220506572736F6E616C206F7220486F6D650000000000000000 PUSH1 0x20 DUP3 ADD MSTORE POP JUMP JUMPDEST PUSH1 0x0 PUSH2 0x28E7 PUSH1 0x38 DUP4 PUSH2 0x1BF7 JUMP JUMPDEST SWAP2 POP PUSH2 0x28F2 DUP3 PUSH2 0x288B JUMP JUMPDEST PUSH1 0x40 DUP3 ADD SWAP1 POP SWAP2 SWAP1 POP JUMP JUMPDEST PUSH1 0x0 PUSH1 0x20 DUP3 ADD SWAP1 POP DUP2 DUP2 SUB PUSH1 0x0 DUP4 ADD MSTORE PUSH2 0x2916 DUP2 PUSH2 0x28DA JUMP JUMPDEST SWAP1 POP SWAP2 SWAP1 POP JUMP JUMPDEST PUSH1 0x0 PUSH2 0x2928 DUP3 PUSH2 0x1BEC JUMP JUMPDEST PUSH2 0x2932 DUP2 DUP6 PUSH2 0x1E46 JUMP JUMPDEST SWAP4 POP PUSH2 0x2942 DUP2 DUP6 PUSH1 0x20 DUP7 ADD PUSH2 0x1C08 JUMP JUMPDEST DUP1 DUP5 ADD SWAP2 POP POP SWAP3 SWAP2 POP POP JUMP JUMPDEST PUSH1 0x0 PUSH2 0x295A DUP3 DUP5 PUSH2 0x291D JUMP JUMPDEST SWAP2 POP DUP2 SWAP1 POP SWAP3 SWAP2 POP POP JUMP JUMPDEST PUSH32 0x4E6F20454D492070656E64696E67000000000000000000000000000000000000 PUSH1 0x0 DUP3 ADD MSTORE POP JUMP JUMPDEST PUSH1 0x0 PUSH2 0x299B PUSH1 0xE DUP4 PUSH2 0x1BF7 JUMP JUMPDEST SWAP2 POP PUSH2 0x29A6 DUP3 PUSH2 0x2965 JUMP JUMPDEST PUSH1 0x20 DUP3 ADD SWAP1 POP SWAP2 SWAP1 POP JUMP JUMPDEST PUSH1 0x0 PUSH1 0x20 DUP3 ADD SWAP1 POP DUP2 DUP2 SUB PUSH1 0x0 DUP4 ADD MSTORE PUSH2 0x29CA DUP2 PUSH2 0x298E JUMP JUMPDEST SWAP1 POP SWAP2 SWAP1 POP JUMP JUMPDEST PUSH32 0x506C656173652073656E642076616C696420616D6F756E74206F6620456D6900 PUSH1 0x0 DUP3 ADD MSTORE POP JUMP JUMPDEST PUSH1 0x0 PUSH2 0x2A07 PUSH1 0x1F DUP4 PUSH2 0x1BF7 JUMP JUMPDEST SWAP2 POP PUSH2 0x2A12 DUP3 PUSH2 0x29D1 JUMP JUMPDEST PUSH1 0x20 DUP3 ADD SWAP1 POP SWAP2 SWAP1 POP JUMP JUMPDEST PUSH1 0x0 PUSH1 0x20 DUP3 ADD SWAP1 POP DUP2 DUP2 SUB PUSH1 0x0 DUP4 ADD MSTORE PUSH2 0x2A36 DUP2 PUSH2 0x29FA JUMP JUMPDEST SWAP1 POP SWAP2 SWAP1 POP JUMP JUMPDEST PUSH32 0x4E65656420746F20776169742031206D6F6E746820616674657220706179696E PUSH1 0x0 DUP3 ADD MSTORE PUSH32 0x67206C61737420454D4900000000000000000000000000000000000000000000 PUSH1 0x20 DUP3 ADD MSTORE POP JUMP JUMPDEST PUSH1 0x0 PUSH2 0x2A99 PUSH1 0x2A DUP4 PUSH2 0x1BF7 JUMP JUMPDEST SWAP2 POP PUSH2 0x2AA4 DUP3 PUSH2 0x2A3D JUMP JUMPDEST PUSH1 0x40 DUP3 ADD SWAP1 POP SWAP2 SWAP1 POP JUMP JUMPDEST PUSH1 0x0 PUSH1 0x20 DUP3 ADD SWAP1 POP DUP2 DUP2 SUB PUSH1 0x0 DUP4 ADD MSTORE PUSH2 0x2AC8 DUP2 PUSH2 0x2A8C JUMP JUMPDEST SWAP1 POP SWAP2 SWAP1 POP JUMP JUMPDEST PUSH32 0x68617320706169642068697320656D69206F6600000000000000000000000000 PUSH1 0x0 DUP3 ADD MSTORE POP JUMP JUMPDEST PUSH1 0x0 PUSH2 0x2B05 PUSH1 0x13 DUP4 PUSH2 0x1BF7 JUMP JUMPDEST SWAP2 POP PUSH2 0x2B10 DUP3 PUSH2 0x2ACF JUMP JUMPDEST PUSH1 0x20 DUP3 ADD SWAP1 POP SWAP2 SWAP1 POP JUMP JUMPDEST PUSH1 0x0 PUSH1 0x80 DUP3 ADD SWAP1 POP PUSH2 0x2B30 PUSH1 0x0 DUP4 ADD DUP7 PUSH2 0x2227 JUMP JUMPDEST DUP2 DUP2 SUB PUSH1 0x20 DUP4 ADD MSTORE PUSH2 0x2B41 DUP2 PUSH2 0x2AF8 JUMP JUMPDEST SWAP1 POP DUP2 DUP2 SUB PUSH1 0x40 DUP4 ADD MSTORE PUSH2 0x2B55 DUP2 DUP6 PUSH2 0x1C43 JUMP JUMPDEST SWAP1 POP PUSH2 0x2B64 PUSH1 0x60 DUP4 ADD DUP5 PUSH2 0x1B0E JUMP JUMPDEST SWAP5 SWAP4 POP POP POP POP JUMP JUMPDEST PUSH32 0x416D6F756E742073686F756C642062652067726561746572207468616E203130 PUSH1 0x0 DUP3 ADD MSTORE PUSH32 0x303020616E64206C657373207468656E206C6F616E204C696D69740000000000 PUSH1 0x20 DUP3 ADD MSTORE POP JUMP JUMPDEST PUSH1 0x0 PUSH2 0x2BC8 PUSH1 0x3B DUP4 PUSH2 0x1BF7 JUMP JUMPDEST SWAP2 POP PUSH2 0x2BD3 DUP3 PUSH2 0x2B6C JUMP JUMPDEST PUSH1 0x40 DUP3 ADD SWAP1 POP SWAP2 SWAP1 POP JUMP JUMPDEST PUSH1 0x0 PUSH1 0x20 DUP3 ADD SWAP1 POP DUP2 DUP2 SUB PUSH1 0x0 DUP4 ADD MSTORE PUSH2 0x2BF7 DUP2 PUSH2 0x2BBB JUMP JUMPDEST SWAP1 POP SWAP2 SWAP1 POP JUMP JUMPDEST PUSH32 0x74696D652073686F756C6420626520696E2072616E6765203120746F20313230 PUSH1 0x0 DUP3 ADD MSTORE POP JUMP JUMPDEST PUSH1 0x0 PUSH2 0x2C34 PUSH1 0x20 DUP4 PUSH2 0x1BF7 JUMP JUMPDEST SWAP2 POP PUSH2 0x2C3F DUP3 PUSH2 0x2BFE JUMP JUMPDEST PUSH1 0x20 DUP3 ADD SWAP1 POP SWAP2 SWAP1 POP JUMP JUMPDEST PUSH1 0x0 PUSH1 0x20 DUP3 ADD SWAP1 POP DUP2 DUP2 SUB PUSH1 0x0 DUP4 ADD MSTORE PUSH2 0x2C63 DUP2 PUSH2 0x2C27 JUMP JUMPDEST SWAP1 POP SWAP2 SWAP1 POP JUMP JUMPDEST PUSH32 0x4E487B7100000000000000000000000000000000000000000000000000000000 PUSH1 0x0 MSTORE PUSH1 0x12 PUSH1 0x4 MSTORE PUSH1 0x24 PUSH1 0x0 REVERT JUMPDEST PUSH1 0x0 PUSH2 0x2CA4 DUP3 PUSH2 0x1A6B JUMP JUMPDEST SWAP2 POP PUSH2 0x2CAF DUP4 PUSH2 0x1A6B JUMP JUMPDEST SWAP3 POP DUP3 PUSH2 0x2CBF JUMPI PUSH2 0x2CBE PUSH2 0x2C6A JUMP JUMPDEST JUMPDEST DUP3 DUP3 DIV SWAP1 POP SWAP3 SWAP2 POP POP JUMP JUMPDEST PUSH1 0x0 PUSH2 0x2CD5 DUP3 PUSH2 0x1A6B JUMP JUMPDEST SWAP2 POP PUSH2 0x2CE0 DUP4 PUSH2 0x1A6B JUMP JUMPDEST SWAP3 POP DUP3 DUP3 MUL PUSH2 0x2CEE DUP2 PUSH2 0x1A6B JUMP JUMPDEST SWAP2 POP DUP3 DUP3 DIV DUP5 EQ DUP4 ISZERO OR PUSH2 0x2D05 JUMPI PUSH2 0x2D04 PUSH2 0x2190 JUMP JUMPDEST JUMPDEST POP SWAP3 SWAP2 POP POP JUMP INVALID LOG2 PUSH5 0x6970667358 0x22 SLT KECCAK256 PUSH31 0xCB004932F69F7947E060FA2EC91766620FB0B62038D3EB20C8E54E2A543D69 PUSH5 0x736F6C6343 STOP ADDMOD SLT STOP CALLER "
				},
				"gasEstimates": {
					"creation": {
						"codeDepositCost": "2317200",
						"executionCost": "2486",
						"totalCost": "2319686"
					},
					"external": {
						"AddLoanLimit()": "infinite",
						"UserAddress(address)": "infinite",
						"deposit()": "infinite",
						"getCarLoan(uint256,uint256)": "infinite",
						"getCarLoanDetails()": "infinite",
						"getHomeLoan(uint256,uint256)": "infinite",
						"getHomeLoanDetails()": "infinite",
						"getPersonalLoan(uint256,uint256)": "infinite",
						"getPersonalLoanDetails()": "infinite",
						"getTotalBankBalance()": "384",
						"loanLimit()": "2452",
						"payEMI(string)": "infinite",
						"withdraw(uint256)": "infinite"
					},
					"internal": {
						"calculateEmi(uint256,uint256,uint256)": "infinite",
						"loanDetails(string memory,address)": "infinite",
						"loanValidator(address,uint256,uint256)": "infinite"
					}
				},
				"methodIdentifiers": {
					"AddLoanLimit()": "b9ccbfae",
					"UserAddress(address)": "8dd09d0b",
					"deposit()": "d0e30db0",
					"getCarLoan(uint256,uint256)": "4b674096",
					"getCarLoanDetails()": "af105ba7",
					"getHomeLoan(uint256,uint256)": "5415cf03",
					"getHomeLoanDetails()": "b6207402",
					"getPersonalLoan(uint256,uint256)": "0696d74a",
					"getPersonalLoanDetails()": "edda5012",
					"getTotalBankBalance()": "38a2ca40",
					"loanLimit()": "ad81fced",
					"payEMI(string)": "fb7a3bdf",
					"withdraw(uint256)": "2e1a7d4d"
				}
			},
			"storageLayout": {
				"storage": [
					{
						"astId": 3,
						"contract": "Project/dynamicBanl.sol:Bank",
						"label": "loanLimit",
						"offset": 0,
						"slot": "0",
						"type": "t_uint256"
					},
					{
						"astId": 24,
						"contract": "Project/dynamicBanl.sol:Bank",
						"label": "UserAddress",
						"offset": 0,
						"slot": "1",
						"type": "t_mapping(t_address,t_struct(User)8_storage)"
					},
					{
						"astId": 31,
						"contract": "Project/dynamicBanl.sol:Bank",
						"label": "LoanType",
						"offset": 0,
						"slot": "2",
						"type": "t_mapping(t_string_memory_ptr,t_mapping(t_address,t_struct(Loan)19_storage))"
					}
				],
				"types": {
					"t_address": {
						"encoding": "inplace",
						"label": "address",
						"numberOfBytes": "20"
					},
					"t_mapping(t_address,t_struct(Loan)19_storage)": {
						"encoding": "mapping",
						"key": "t_address",
						"label": "mapping(address => struct Bank.Loan)",
						"numberOfBytes": "32",
						"value": "t_struct(Loan)19_storage"
					},
					"t_mapping(t_address,t_struct(User)8_storage)": {
						"encoding": "mapping",
						"key": "t_address",
						"label": "mapping(address => struct Bank.User)",
						"numberOfBytes": "32",
						"value": "t_struct(User)8_storage"
					},
					"t_mapping(t_string_memory_ptr,t_mapping(t_address,t_struct(Loan)19_storage))": {
						"encoding": "mapping",
						"key": "t_string_memory_ptr",
						"label": "mapping(string => mapping(address => struct Bank.Loan))",
						"numberOfBytes": "32",
						"value": "t_mapping(t_address,t_struct(Loan)19_storage)"
					},
					"t_string_memory_ptr": {
						"encoding": "bytes",
						"label": "string",
						"numberOfBytes": "32"
					},
					"t_string_storage": {
						"encoding": "bytes",
						"label": "string",
						"numberOfBytes": "32"
					},
					"t_struct(Loan)19_storage": {
						"encoding": "inplace",
						"label": "struct Bank.Loan",
						"members": [
							{
								"astId": 10,
								"contract": "Project/dynamicBanl.sol:Bank",
								"label": "Type",
								"offset": 0,
								"slot": "0",
								"type": "t_string_storage"
							},
							{
								"astId": 12,
								"contract": "Project/dynamicBanl.sol:Bank",
								"label": "loanAmount",
								"offset": 0,
								"slot": "1",
								"type": "t_uint256"
							},
							{
								"astId": 14,
								"contract": "Project/dynamicBanl.sol:Bank",
								"label": "noOfEmiPending",
								"offset": 0,
								"slot": "2",
								"type": "t_uint256"
							},
							{
								"astId": 16,
								"contract": "Project/dynamicBanl.sol:Bank",
								"label": "EmiAmount",
								"offset": 0,
								"slot": "3",
								"type": "t_uint256"
							},
							{
								"astId": 18,
								"contract": "Project/dynamicBanl.sol:Bank",
								"label": "EMItimestamp",
								"offset": 0,
								"slot": "4",
								"type": "t_uint256"
							}
						],
						"numberOfBytes": "160"
					},
					"t_struct(User)8_storage": {
						"encoding": "inplace",
						"label": "struct Bank.User",
						"members": [
							{
								"astId": 5,
								"contract": "Project/dynamicBanl.sol:Bank",
								"label": "amountDeposited",
								"offset": 0,
								"slot": "0",
								"type": "t_uint256"
							},
							{
								"astId": 7,
								"contract": "Project/dynamicBanl.sol:Bank",
								"label": "timeStamp",
								"offset": 0,
								"slot": "1",
								"type": "t_uint256"
							}
						],
						"numberOfBytes": "64"
					},
					"t_uint256": {
						"encoding": "inplace",
						"label": "uint256",
						"numberOfBytes": "32"
					}
				}
			},
			"userdoc": {
				"kind": "user",
				"methods": {},
				"version": 1
			}
		}
	}
}