{
	"Project/voting_system.sol": {
		"VotingSystem": {
			"abi": [
				{
					"inputs": [
						{
							"internalType": "string",
							"name": "_name",
							"type": "string"
						}
					],
					"name": "addCandidate",
					"outputs": [],
					"stateMutability": "nonpayable",
					"type": "function"
				},
				{
					"inputs": [
						{
							"internalType": "uint256",
							"name": "",
							"type": "uint256"
						}
					],
					"name": "candidates",
					"outputs": [
						{
							"internalType": "string",
							"name": "name",
							"type": "string"
						},
						{
							"internalType": "uint256",
							"name": "voteCount",
							"type": "uint256"
						}
					],
					"stateMutability": "view",
					"type": "function"
				},
				{
					"inputs": [],
					"name": "getWinner",
					"outputs": [
						{
							"internalType": "string",
							"name": "",
							"type": "string"
						}
					],
					"stateMutability": "view",
					"type": "function"
				},
				{
					"inputs": [
						{
							"internalType": "uint256",
							"name": "_candidateIndex",
							"type": "uint256"
						}
					],
					"name": "vote",
					"outputs": [],
					"stateMutability": "nonpayable",
					"type": "function"
				}
			],
			"devdoc": {
				"kind": "dev",
				"methods": {},
				"version": 1
			},
			"evm": {
				"assembly": "    /* \"Project/voting_system.sol\":72:968  contract VotingSystem {... */\n  mstore(0x40, 0x80)\n  callvalue\n  dup1\n  iszero\n  tag_1\n  jumpi\n  0x00\n  dup1\n  revert\ntag_1:\n  pop\n  dataSize(sub_0)\n  dup1\n  dataOffset(sub_0)\n  0x00\n  codecopy\n  0x00\n  return\nstop\n\nsub_0: assembly {\n        /* \"Project/voting_system.sol\":72:968  contract VotingSystem {... */\n      mstore(0x40, 0x80)\n      callvalue\n      dup1\n      iszero\n      tag_1\n      jumpi\n      0x00\n      dup1\n      revert\n    tag_1:\n      pop\n      jumpi(tag_2, lt(calldatasize, 0x04))\n      shr(0xe0, calldataload(0x00))\n      dup1\n      0x0121b93f\n      eq\n      tag_3\n      jumpi\n      dup1\n      0x3477ee2e\n      eq\n      tag_4\n      jumpi\n      dup1\n      0x462e91ec\n      eq\n      tag_5\n      jumpi\n      dup1\n      0x8e7ea5b2\n      eq\n      tag_6\n      jumpi\n    tag_2:\n      0x00\n      dup1\n      revert\n        /* \"Project/voting_system.sol\":335:524  function vote(uint256 _candidateIndex) public {... */\n    tag_3:\n      tag_7\n      0x04\n      dup1\n      calldatasize\n      sub\n      dup2\n      add\n      swap1\n      tag_8\n      swap2\n      swap1\n      tag_9\n      jump\t// in\n    tag_8:\n      tag_10\n      jump\t// in\n    tag_7:\n      stop\n        /* \"Project/voting_system.sol\":184:213  Candidate[] public candidates */\n    tag_4:\n      tag_11\n      0x04\n      dup1\n      calldatasize\n      sub\n      dup2\n      add\n      swap1\n      tag_12\n      swap2\n      swap1\n      tag_9\n      jump\t// in\n    tag_12:\n      tag_13\n      jump\t// in\n    tag_11:\n      mload(0x40)\n      tag_14\n      swap3\n      swap2\n      swap1\n      tag_15\n      jump\t// in\n    tag_14:\n      mload(0x40)\n      dup1\n      swap2\n      sub\n      swap1\n      return\n        /* \"Project/voting_system.sol\":222:327  function addCandidate(string memory _name) public {... */\n    tag_5:\n      tag_16\n      0x04\n      dup1\n      calldatasize\n      sub\n      dup2\n      add\n      swap1\n      tag_17\n      swap2\n      swap1\n      tag_18\n      jump\t// in\n    tag_17:\n      tag_19\n      jump\t// in\n    tag_16:\n      stop\n        /* \"Project/voting_system.sol\":532:965  function getWinner() public view returns (string memory) {... */\n    tag_6:\n      tag_20\n      tag_21\n      jump\t// in\n    tag_20:\n      mload(0x40)\n      tag_22\n      swap2\n      swap1\n      tag_23\n      jump\t// in\n    tag_22:\n      mload(0x40)\n      dup1\n      swap2\n      sub\n      swap1\n      return\n        /* \"Project/voting_system.sol\":335:524  function vote(uint256 _candidateIndex) public {... */\n    tag_10:\n        /* \"Project/voting_system.sol\":418:428  candidates */\n      0x00\n        /* \"Project/voting_system.sol\":418:435  candidates.length */\n      dup1\n      sload\n      swap1\n      pop\n        /* \"Project/voting_system.sol\":400:415  _candidateIndex */\n      dup2\n        /* \"Project/voting_system.sol\":400:435  _candidateIndex < candidates.length */\n      lt\n        /* \"Project/voting_system.sol\":392:463  require(_candidateIndex < candidates.length, \"Invalid candidate index\") */\n      tag_25\n      jumpi\n      mload(0x40)\n      0x08c379a000000000000000000000000000000000000000000000000000000000\n      dup2\n      mstore\n      0x04\n      add\n      tag_26\n      swap1\n      tag_27\n      jump\t// in\n    tag_26:\n      mload(0x40)\n      dup1\n      swap2\n      sub\n      swap1\n      revert\n    tag_25:\n        /* \"Project/voting_system.sol\":515:516  1 */\n      0x01\n        /* \"Project/voting_system.sol\":474:484  candidates */\n      0x00\n        /* \"Project/voting_system.sol\":485:500  _candidateIndex */\n      dup3\n        /* \"Project/voting_system.sol\":474:501  candidates[_candidateIndex] */\n      dup2\n      sload\n      dup2\n      lt\n      tag_28\n      jumpi\n      tag_29\n      tag_30\n      jump\t// in\n    tag_29:\n    tag_28:\n      swap1\n      0x00\n      mstore\n      keccak256(0x00, 0x20)\n      swap1\n      0x02\n      mul\n      add\n        /* \"Project/voting_system.sol\":474:511  candidates[_candidateIndex].voteCount */\n      0x01\n      add\n      0x00\n        /* \"Project/voting_system.sol\":474:516  candidates[_candidateIndex].voteCount += 1 */\n      dup3\n      dup3\n      sload\n      tag_32\n      swap2\n      swap1\n      tag_33\n      jump\t// in\n    tag_32:\n      swap3\n      pop\n      pop\n      dup2\n      swap1\n      sstore\n      pop\n        /* \"Project/voting_system.sol\":335:524  function vote(uint256 _candidateIndex) public {... */\n      pop\n      jump\t// out\n        /* \"Project/voting_system.sol\":184:213  Candidate[] public candidates */\n    tag_13:\n      0x00\n      dup2\n      dup2\n      sload\n      dup2\n      lt\n      tag_34\n      jumpi\n      0x00\n      dup1\n      revert\n    tag_34:\n      swap1\n      0x00\n      mstore\n      keccak256(0x00, 0x20)\n      swap1\n      0x02\n      mul\n      add\n      0x00\n      swap2\n      pop\n      swap1\n      pop\n      dup1\n      0x00\n      add\n      dup1\n      sload\n      tag_36\n      swap1\n      tag_37\n      jump\t// in\n    tag_36:\n      dup1\n      0x1f\n      add\n      0x20\n      dup1\n      swap2\n      div\n      mul\n      0x20\n      add\n      mload(0x40)\n      swap1\n      dup2\n      add\n      0x40\n      mstore\n      dup1\n      swap3\n      swap2\n      swap1\n      dup2\n      dup2\n      mstore\n      0x20\n      add\n      dup3\n      dup1\n      sload\n      tag_38\n      swap1\n      tag_37\n      jump\t// in\n    tag_38:\n      dup1\n      iszero\n      tag_39\n      jumpi\n      dup1\n      0x1f\n      lt\n      tag_40\n      jumpi\n      0x0100\n      dup1\n      dup4\n      sload\n      div\n      mul\n      dup4\n      mstore\n      swap2\n      0x20\n      add\n      swap2\n      jump(tag_39)\n    tag_40:\n      dup3\n      add\n      swap2\n      swap1\n      0x00\n      mstore\n      keccak256(0x00, 0x20)\n      swap1\n    tag_41:\n      dup2\n      sload\n      dup2\n      mstore\n      swap1\n      0x01\n      add\n      swap1\n      0x20\n      add\n      dup1\n      dup4\n      gt\n      tag_41\n      jumpi\n      dup3\n      swap1\n      sub\n      0x1f\n      and\n      dup3\n      add\n      swap2\n    tag_39:\n      pop\n      pop\n      pop\n      pop\n      pop\n      swap1\n      dup1\n      0x01\n      add\n      sload\n      swap1\n      pop\n      dup3\n      jump\t// out\n        /* \"Project/voting_system.sol\":222:327  function addCandidate(string memory _name) public {... */\n    tag_19:\n        /* \"Project/voting_system.sol\":283:293  candidates */\n      0x00\n        /* \"Project/voting_system.sol\":299:318  Candidate(_name, 0) */\n      mload(0x40)\n      dup1\n      0x40\n      add\n      0x40\n      mstore\n      dup1\n        /* \"Project/voting_system.sol\":309:314  _name */\n      dup4\n        /* \"Project/voting_system.sol\":299:318  Candidate(_name, 0) */\n      dup2\n      mstore\n      0x20\n      add\n        /* \"Project/voting_system.sol\":316:317  0 */\n      0x00\n        /* \"Project/voting_system.sol\":299:318  Candidate(_name, 0) */\n      dup2\n      mstore\n      pop\n        /* \"Project/voting_system.sol\":283:319  candidates.push(Candidate(_name, 0)) */\n      swap1\n      dup1\n      0x01\n      dup2\n      sload\n      add\n      dup1\n      dup3\n      sstore\n      dup1\n      swap2\n      pop\n      pop\n      0x01\n      swap1\n      sub\n      swap1\n      0x00\n      mstore\n      keccak256(0x00, 0x20)\n      swap1\n      0x02\n      mul\n      add\n      0x00\n      swap1\n      swap2\n      swap1\n      swap2\n      swap1\n      swap2\n      pop\n      0x00\n      dup3\n      add\n      mload\n      dup2\n      0x00\n      add\n      swap1\n      dup2\n      tag_44\n      swap2\n      swap1\n      tag_45\n      jump\t// in\n    tag_44:\n      pop\n      0x20\n      dup3\n      add\n      mload\n      dup2\n      0x01\n      add\n      sstore\n      pop\n      pop\n        /* \"Project/voting_system.sol\":222:327  function addCandidate(string memory _name) public {... */\n      pop\n      jump\t// out\n        /* \"Project/voting_system.sol\":532:965  function getWinner() public view returns (string memory) {... */\n    tag_21:\n        /* \"Project/voting_system.sol\":574:587  string memory */\n      0x60\n        /* \"Project/voting_system.sol\":600:616  uint256 maxVotes */\n      0x00\n        /* \"Project/voting_system.sol\":631:660  uint256 winningCandidateIndex */\n      dup1\n        /* \"Project/voting_system.sol\":680:689  uint256 i */\n      0x00\n        /* \"Project/voting_system.sol\":675:902  for (uint256 i = 0; i < candidates.length; i++) {... */\n    tag_47:\n        /* \"Project/voting_system.sol\":699:709  candidates */\n      0x00\n        /* \"Project/voting_system.sol\":699:716  candidates.length */\n      dup1\n      sload\n      swap1\n      pop\n        /* \"Project/voting_system.sol\":695:696  i */\n      dup2\n        /* \"Project/voting_system.sol\":695:716  i < candidates.length */\n      lt\n        /* \"Project/voting_system.sol\":675:902  for (uint256 i = 0; i < candidates.length; i++) {... */\n      iszero\n      tag_48\n      jumpi\n        /* \"Project/voting_system.sol\":768:776  maxVotes */\n      dup3\n        /* \"Project/voting_system.sol\":742:752  candidates */\n      0x00\n        /* \"Project/voting_system.sol\":753:754  i */\n      dup3\n        /* \"Project/voting_system.sol\":742:755  candidates[i] */\n      dup2\n      sload\n      dup2\n      lt\n      tag_50\n      jumpi\n      tag_51\n      tag_30\n      jump\t// in\n    tag_51:\n    tag_50:\n      swap1\n      0x00\n      mstore\n      keccak256(0x00, 0x20)\n      swap1\n      0x02\n      mul\n      add\n        /* \"Project/voting_system.sol\":742:765  candidates[i].voteCount */\n      0x01\n      add\n      sload\n        /* \"Project/voting_system.sol\":742:776  candidates[i].voteCount > maxVotes */\n      gt\n        /* \"Project/voting_system.sol\":738:891  if (candidates[i].voteCount > maxVotes) {... */\n      iszero\n      tag_53\n      jumpi\n        /* \"Project/voting_system.sol\":808:818  candidates */\n      0x00\n        /* \"Project/voting_system.sol\":819:820  i */\n      dup2\n        /* \"Project/voting_system.sol\":808:821  candidates[i] */\n      dup2\n      sload\n      dup2\n      lt\n      tag_54\n      jumpi\n      tag_55\n      tag_30\n      jump\t// in\n    tag_55:\n    tag_54:\n      swap1\n      0x00\n      mstore\n      keccak256(0x00, 0x20)\n      swap1\n      0x02\n      mul\n      add\n        /* \"Project/voting_system.sol\":808:831  candidates[i].voteCount */\n      0x01\n      add\n      sload\n        /* \"Project/voting_system.sol\":797:831  maxVotes = candidates[i].voteCount */\n      swap3\n      pop\n        /* \"Project/voting_system.sol\":874:875  i */\n      dup1\n        /* \"Project/voting_system.sol\":850:875  winningCandidateIndex = i */\n      swap2\n      pop\n        /* \"Project/voting_system.sol\":738:891  if (candidates[i].voteCount > maxVotes) {... */\n    tag_53:\n        /* \"Project/voting_system.sol\":718:721  i++ */\n      dup1\n      dup1\n      tag_57\n      swap1\n      tag_58\n      jump\t// in\n    tag_57:\n      swap2\n      pop\n      pop\n        /* \"Project/voting_system.sol\":675:902  for (uint256 i = 0; i < candidates.length; i++) {... */\n      jump(tag_47)\n    tag_48:\n      pop\n        /* \"Project/voting_system.sol\":919:929  candidates */\n      0x00\n        /* \"Project/voting_system.sol\":930:951  winningCandidateIndex */\n      dup2\n        /* \"Project/voting_system.sol\":919:952  candidates[winningCandidateIndex] */\n      dup2\n      sload\n      dup2\n      lt\n      tag_59\n      jumpi\n      tag_60\n      tag_30\n      jump\t// in\n    tag_60:\n    tag_59:\n      swap1\n      0x00\n      mstore\n      keccak256(0x00, 0x20)\n      swap1\n      0x02\n      mul\n      add\n        /* \"Project/voting_system.sol\":919:957  candidates[winningCandidateIndex].name */\n      0x00\n      add\n        /* \"Project/voting_system.sol\":912:957  return candidates[winningCandidateIndex].name */\n      dup1\n      sload\n      tag_62\n      swap1\n      tag_37\n      jump\t// in\n    tag_62:\n      dup1\n      0x1f\n      add\n      0x20\n      dup1\n      swap2\n      div\n      mul\n      0x20\n      add\n      mload(0x40)\n      swap1\n      dup2\n      add\n      0x40\n      mstore\n      dup1\n      swap3\n      swap2\n      swap1\n      dup2\n      dup2\n      mstore\n      0x20\n      add\n      dup3\n      dup1\n      sload\n      tag_63\n      swap1\n      tag_37\n      jump\t// in\n    tag_63:\n      dup1\n      iszero\n      tag_64\n      jumpi\n      dup1\n      0x1f\n      lt\n      tag_65\n      jumpi\n      0x0100\n      dup1\n      dup4\n      sload\n      div\n      mul\n      dup4\n      mstore\n      swap2\n      0x20\n      add\n      swap2\n      jump(tag_64)\n    tag_65:\n      dup3\n      add\n      swap2\n      swap1\n      0x00\n      mstore\n      keccak256(0x00, 0x20)\n      swap1\n    tag_66:\n      dup2\n      sload\n      dup2\n      mstore\n      swap1\n      0x01\n      add\n      swap1\n      0x20\n      add\n      dup1\n      dup4\n      gt\n      tag_66\n      jumpi\n      dup3\n      swap1\n      sub\n      0x1f\n      and\n      dup3\n      add\n      swap2\n    tag_64:\n      pop\n      pop\n      pop\n      pop\n      pop\n      swap3\n      pop\n      pop\n      pop\n        /* \"Project/voting_system.sol\":532:965  function getWinner() public view returns (string memory) {... */\n      swap1\n      jump\t// out\n        /* \"#utility.yul\":7:82   */\n    tag_67:\n        /* \"#utility.yul\":40:46   */\n      0x00\n        /* \"#utility.yul\":73:75   */\n      0x40\n        /* \"#utility.yul\":67:76   */\n      mload\n        /* \"#utility.yul\":57:76   */\n      swap1\n      pop\n        /* \"#utility.yul\":7:82   */\n      swap1\n      jump\t// out\n        /* \"#utility.yul\":88:205   */\n    tag_68:\n        /* \"#utility.yul\":197:198   */\n      0x00\n        /* \"#utility.yul\":194:195   */\n      dup1\n        /* \"#utility.yul\":187:199   */\n      revert\n        /* \"#utility.yul\":211:328   */\n    tag_69:\n        /* \"#utility.yul\":320:321   */\n      0x00\n        /* \"#utility.yul\":317:318   */\n      dup1\n        /* \"#utility.yul\":310:322   */\n      revert\n        /* \"#utility.yul\":334:411   */\n    tag_70:\n        /* \"#utility.yul\":371:378   */\n      0x00\n        /* \"#utility.yul\":400:405   */\n      dup2\n        /* \"#utility.yul\":389:405   */\n      swap1\n      pop\n        /* \"#utility.yul\":334:411   */\n      swap2\n      swap1\n      pop\n      jump\t// out\n        /* \"#utility.yul\":417:539   */\n    tag_71:\n        /* \"#utility.yul\":490:514   */\n      tag_113\n        /* \"#utility.yul\":508:513   */\n      dup2\n        /* \"#utility.yul\":490:514   */\n      tag_70\n      jump\t// in\n    tag_113:\n        /* \"#utility.yul\":483:488   */\n      dup2\n        /* \"#utility.yul\":480:515   */\n      eq\n        /* \"#utility.yul\":470:533   */\n      tag_114\n      jumpi\n        /* \"#utility.yul\":529:530   */\n      0x00\n        /* \"#utility.yul\":526:527   */\n      dup1\n        /* \"#utility.yul\":519:531   */\n      revert\n        /* \"#utility.yul\":470:533   */\n    tag_114:\n        /* \"#utility.yul\":417:539   */\n      pop\n      jump\t// out\n        /* \"#utility.yul\":545:684   */\n    tag_72:\n        /* \"#utility.yul\":591:596   */\n      0x00\n        /* \"#utility.yul\":629:635   */\n      dup2\n        /* \"#utility.yul\":616:636   */\n      calldataload\n        /* \"#utility.yul\":607:636   */\n      swap1\n      pop\n        /* \"#utility.yul\":645:678   */\n      tag_116\n        /* \"#utility.yul\":672:677   */\n      dup2\n        /* \"#utility.yul\":645:678   */\n      tag_71\n      jump\t// in\n    tag_116:\n        /* \"#utility.yul\":545:684   */\n      swap3\n      swap2\n      pop\n      pop\n      jump\t// out\n        /* \"#utility.yul\":690:1019   */\n    tag_9:\n        /* \"#utility.yul\":749:755   */\n      0x00\n        /* \"#utility.yul\":798:800   */\n      0x20\n        /* \"#utility.yul\":786:795   */\n      dup3\n        /* \"#utility.yul\":777:784   */\n      dup5\n        /* \"#utility.yul\":773:796   */\n      sub\n        /* \"#utility.yul\":769:801   */\n      slt\n        /* \"#utility.yul\":766:885   */\n      iszero\n      tag_118\n      jumpi\n        /* \"#utility.yul\":804:883   */\n      tag_119\n      tag_68\n      jump\t// in\n    tag_119:\n        /* \"#utility.yul\":766:885   */\n    tag_118:\n        /* \"#utility.yul\":924:925   */\n      0x00\n        /* \"#utility.yul\":949:1002   */\n      tag_120\n        /* \"#utility.yul\":994:1001   */\n      dup5\n        /* \"#utility.yul\":985:991   */\n      dup3\n        /* \"#utility.yul\":974:983   */\n      dup6\n        /* \"#utility.yul\":970:992   */\n      add\n        /* \"#utility.yul\":949:1002   */\n      tag_72\n      jump\t// in\n    tag_120:\n        /* \"#utility.yul\":939:1002   */\n      swap2\n      pop\n        /* \"#utility.yul\":895:1012   */\n      pop\n        /* \"#utility.yul\":690:1019   */\n      swap3\n      swap2\n      pop\n      pop\n      jump\t// out\n        /* \"#utility.yul\":1025:1124   */\n    tag_73:\n        /* \"#utility.yul\":1077:1083   */\n      0x00\n        /* \"#utility.yul\":1111:1116   */\n      dup2\n        /* \"#utility.yul\":1105:1117   */\n      mload\n        /* \"#utility.yul\":1095:1117   */\n      swap1\n      pop\n        /* \"#utility.yul\":1025:1124   */\n      swap2\n      swap1\n      pop\n      jump\t// out\n        /* \"#utility.yul\":1130:1299   */\n    tag_74:\n        /* \"#utility.yul\":1214:1225   */\n      0x00\n        /* \"#utility.yul\":1248:1254   */\n      dup3\n        /* \"#utility.yul\":1243:1246   */\n      dup3\n        /* \"#utility.yul\":1236:1255   */\n      mstore\n        /* \"#utility.yul\":1288:1292   */\n      0x20\n        /* \"#utility.yul\":1283:1286   */\n      dup3\n        /* \"#utility.yul\":1279:1293   */\n      add\n        /* \"#utility.yul\":1264:1293   */\n      swap1\n      pop\n        /* \"#utility.yul\":1130:1299   */\n      swap3\n      swap2\n      pop\n      pop\n      jump\t// out\n        /* \"#utility.yul\":1305:1551   */\n    tag_75:\n        /* \"#utility.yul\":1386:1387   */\n      0x00\n        /* \"#utility.yul\":1396:1509   */\n    tag_124:\n        /* \"#utility.yul\":1410:1416   */\n      dup4\n        /* \"#utility.yul\":1407:1408   */\n      dup2\n        /* \"#utility.yul\":1404:1417   */\n      lt\n        /* \"#utility.yul\":1396:1509   */\n      iszero\n      tag_126\n      jumpi\n        /* \"#utility.yul\":1495:1496   */\n      dup1\n        /* \"#utility.yul\":1490:1493   */\n      dup3\n        /* \"#utility.yul\":1486:1497   */\n      add\n        /* \"#utility.yul\":1480:1498   */\n      mload\n        /* \"#utility.yul\":1476:1477   */\n      dup2\n        /* \"#utility.yul\":1471:1474   */\n      dup5\n        /* \"#utility.yul\":1467:1478   */\n      add\n        /* \"#utility.yul\":1460:1499   */\n      mstore\n        /* \"#utility.yul\":1432:1434   */\n      0x20\n        /* \"#utility.yul\":1429:1430   */\n      dup2\n        /* \"#utility.yul\":1425:1435   */\n      add\n        /* \"#utility.yul\":1420:1435   */\n      swap1\n      pop\n        /* \"#utility.yul\":1396:1509   */\n      jump(tag_124)\n    tag_126:\n        /* \"#utility.yul\":1543:1544   */\n      0x00\n        /* \"#utility.yul\":1534:1540   */\n      dup5\n        /* \"#utility.yul\":1529:1532   */\n      dup5\n        /* \"#utility.yul\":1525:1541   */\n      add\n        /* \"#utility.yul\":1518:1545   */\n      mstore\n        /* \"#utility.yul\":1367:1551   */\n      pop\n        /* \"#utility.yul\":1305:1551   */\n      pop\n      pop\n      pop\n      jump\t// out\n        /* \"#utility.yul\":1557:1659   */\n    tag_76:\n        /* \"#utility.yul\":1598:1604   */\n      0x00\n        /* \"#utility.yul\":1649:1651   */\n      0x1f\n        /* \"#utility.yul\":1645:1652   */\n      not\n        /* \"#utility.yul\":1640:1642   */\n      0x1f\n        /* \"#utility.yul\":1633:1638   */\n      dup4\n        /* \"#utility.yul\":1629:1643   */\n      add\n        /* \"#utility.yul\":1625:1653   */\n      and\n        /* \"#utility.yul\":1615:1653   */\n      swap1\n      pop\n        /* \"#utility.yul\":1557:1659   */\n      swap2\n      swap1\n      pop\n      jump\t// out\n        /* \"#utility.yul\":1665:2042   */\n    tag_77:\n        /* \"#utility.yul\":1753:1756   */\n      0x00\n        /* \"#utility.yul\":1781:1820   */\n      tag_129\n        /* \"#utility.yul\":1814:1819   */\n      dup3\n        /* \"#utility.yul\":1781:1820   */\n      tag_73\n      jump\t// in\n    tag_129:\n        /* \"#utility.yul\":1836:1907   */\n      tag_130\n        /* \"#utility.yul\":1900:1906   */\n      dup2\n        /* \"#utility.yul\":1895:1898   */\n      dup6\n        /* \"#utility.yul\":1836:1907   */\n      tag_74\n      jump\t// in\n    tag_130:\n        /* \"#utility.yul\":1829:1907   */\n      swap4\n      pop\n        /* \"#utility.yul\":1916:1981   */\n      tag_131\n        /* \"#utility.yul\":1974:1980   */\n      dup2\n        /* \"#utility.yul\":1969:1972   */\n      dup6\n        /* \"#utility.yul\":1962:1966   */\n      0x20\n        /* \"#utility.yul\":1955:1960   */\n      dup7\n        /* \"#utility.yul\":1951:1967   */\n      add\n        /* \"#utility.yul\":1916:1981   */\n      tag_75\n      jump\t// in\n    tag_131:\n        /* \"#utility.yul\":2006:2035   */\n      tag_132\n        /* \"#utility.yul\":2028:2034   */\n      dup2\n        /* \"#utility.yul\":2006:2035   */\n      tag_76\n      jump\t// in\n    tag_132:\n        /* \"#utility.yul\":2001:2004   */\n      dup5\n        /* \"#utility.yul\":1997:2036   */\n      add\n        /* \"#utility.yul\":1990:2036   */\n      swap2\n      pop\n        /* \"#utility.yul\":1757:2042   */\n      pop\n        /* \"#utility.yul\":1665:2042   */\n      swap3\n      swap2\n      pop\n      pop\n      jump\t// out\n        /* \"#utility.yul\":2048:2166   */\n    tag_78:\n        /* \"#utility.yul\":2135:2159   */\n      tag_134\n        /* \"#utility.yul\":2153:2158   */\n      dup2\n        /* \"#utility.yul\":2135:2159   */\n      tag_70\n      jump\t// in\n    tag_134:\n        /* \"#utility.yul\":2130:2133   */\n      dup3\n        /* \"#utility.yul\":2123:2160   */\n      mstore\n        /* \"#utility.yul\":2048:2166   */\n      pop\n      pop\n      jump\t// out\n        /* \"#utility.yul\":2172:2595   */\n    tag_15:\n        /* \"#utility.yul\":2313:2317   */\n      0x00\n        /* \"#utility.yul\":2351:2353   */\n      0x40\n        /* \"#utility.yul\":2340:2349   */\n      dup3\n        /* \"#utility.yul\":2336:2354   */\n      add\n        /* \"#utility.yul\":2328:2354   */\n      swap1\n      pop\n        /* \"#utility.yul\":2400:2409   */\n      dup2\n        /* \"#utility.yul\":2394:2398   */\n      dup2\n        /* \"#utility.yul\":2390:2410   */\n      sub\n        /* \"#utility.yul\":2386:2387   */\n      0x00\n        /* \"#utility.yul\":2375:2384   */\n      dup4\n        /* \"#utility.yul\":2371:2388   */\n      add\n        /* \"#utility.yul\":2364:2411   */\n      mstore\n        /* \"#utility.yul\":2428:2506   */\n      tag_136\n        /* \"#utility.yul\":2501:2505   */\n      dup2\n        /* \"#utility.yul\":2492:2498   */\n      dup6\n        /* \"#utility.yul\":2428:2506   */\n      tag_77\n      jump\t// in\n    tag_136:\n        /* \"#utility.yul\":2420:2506   */\n      swap1\n      pop\n        /* \"#utility.yul\":2516:2588   */\n      tag_137\n        /* \"#utility.yul\":2584:2586   */\n      0x20\n        /* \"#utility.yul\":2573:2582   */\n      dup4\n        /* \"#utility.yul\":2569:2587   */\n      add\n        /* \"#utility.yul\":2560:2566   */\n      dup5\n        /* \"#utility.yul\":2516:2588   */\n      tag_78\n      jump\t// in\n    tag_137:\n        /* \"#utility.yul\":2172:2595   */\n      swap4\n      swap3\n      pop\n      pop\n      pop\n      jump\t// out\n        /* \"#utility.yul\":2601:2718   */\n    tag_79:\n        /* \"#utility.yul\":2710:2711   */\n      0x00\n        /* \"#utility.yul\":2707:2708   */\n      dup1\n        /* \"#utility.yul\":2700:2712   */\n      revert\n        /* \"#utility.yul\":2724:2841   */\n    tag_80:\n        /* \"#utility.yul\":2833:2834   */\n      0x00\n        /* \"#utility.yul\":2830:2831   */\n      dup1\n        /* \"#utility.yul\":2823:2835   */\n      revert\n        /* \"#utility.yul\":2847:3027   */\n    tag_81:\n        /* \"#utility.yul\":2895:2972   */\n      0x4e487b7100000000000000000000000000000000000000000000000000000000\n        /* \"#utility.yul\":2892:2893   */\n      0x00\n        /* \"#utility.yul\":2885:2973   */\n      mstore\n        /* \"#utility.yul\":2992:2996   */\n      0x41\n        /* \"#utility.yul\":2989:2990   */\n      0x04\n        /* \"#utility.yul\":2982:2997   */\n      mstore\n        /* \"#utility.yul\":3016:3020   */\n      0x24\n        /* \"#utility.yul\":3013:3014   */\n      0x00\n        /* \"#utility.yul\":3006:3021   */\n      revert\n        /* \"#utility.yul\":3033:3314   */\n    tag_82:\n        /* \"#utility.yul\":3116:3143   */\n      tag_142\n        /* \"#utility.yul\":3138:3142   */\n      dup3\n        /* \"#utility.yul\":3116:3143   */\n      tag_76\n      jump\t// in\n    tag_142:\n        /* \"#utility.yul\":3108:3114   */\n      dup2\n        /* \"#utility.yul\":3104:3144   */\n      add\n        /* \"#utility.yul\":3246:3252   */\n      dup2\n        /* \"#utility.yul\":3234:3244   */\n      dup2\n        /* \"#utility.yul\":3231:3253   */\n      lt\n        /* \"#utility.yul\":3210:3228   */\n      0xffffffffffffffff\n        /* \"#utility.yul\":3198:3208   */\n      dup3\n        /* \"#utility.yul\":3195:3229   */\n      gt\n        /* \"#utility.yul\":3192:3254   */\n      or\n        /* \"#utility.yul\":3189:3277   */\n      iszero\n      tag_143\n      jumpi\n        /* \"#utility.yul\":3257:3275   */\n      tag_144\n      tag_81\n      jump\t// in\n    tag_144:\n        /* \"#utility.yul\":3189:3277   */\n    tag_143:\n        /* \"#utility.yul\":3297:3307   */\n      dup1\n        /* \"#utility.yul\":3293:3295   */\n      0x40\n        /* \"#utility.yul\":3286:3308   */\n      mstore\n        /* \"#utility.yul\":3076:3314   */\n      pop\n        /* \"#utility.yul\":3033:3314   */\n      pop\n      pop\n      jump\t// out\n        /* \"#utility.yul\":3320:3449   */\n    tag_83:\n        /* \"#utility.yul\":3354:3360   */\n      0x00\n        /* \"#utility.yul\":3381:3401   */\n      tag_146\n      tag_67\n      jump\t// in\n    tag_146:\n        /* \"#utility.yul\":3371:3401   */\n      swap1\n      pop\n        /* \"#utility.yul\":3410:3443   */\n      tag_147\n        /* \"#utility.yul\":3438:3442   */\n      dup3\n        /* \"#utility.yul\":3430:3436   */\n      dup3\n        /* \"#utility.yul\":3410:3443   */\n      tag_82\n      jump\t// in\n    tag_147:\n        /* \"#utility.yul\":3320:3449   */\n      swap2\n      swap1\n      pop\n      jump\t// out\n        /* \"#utility.yul\":3455:3763   */\n    tag_84:\n        /* \"#utility.yul\":3517:3521   */\n      0x00\n        /* \"#utility.yul\":3607:3625   */\n      0xffffffffffffffff\n        /* \"#utility.yul\":3599:3605   */\n      dup3\n        /* \"#utility.yul\":3596:3626   */\n      gt\n        /* \"#utility.yul\":3593:3649   */\n      iszero\n      tag_149\n      jumpi\n        /* \"#utility.yul\":3629:3647   */\n      tag_150\n      tag_81\n      jump\t// in\n    tag_150:\n        /* \"#utility.yul\":3593:3649   */\n    tag_149:\n        /* \"#utility.yul\":3667:3696   */\n      tag_151\n        /* \"#utility.yul\":3689:3695   */\n      dup3\n        /* \"#utility.yul\":3667:3696   */\n      tag_76\n      jump\t// in\n    tag_151:\n        /* \"#utility.yul\":3659:3696   */\n      swap1\n      pop\n        /* \"#utility.yul\":3751:3755   */\n      0x20\n        /* \"#utility.yul\":3745:3749   */\n      dup2\n        /* \"#utility.yul\":3741:3756   */\n      add\n        /* \"#utility.yul\":3733:3756   */\n      swap1\n      pop\n        /* \"#utility.yul\":3455:3763   */\n      swap2\n      swap1\n      pop\n      jump\t// out\n        /* \"#utility.yul\":3769:3915   */\n    tag_85:\n        /* \"#utility.yul\":3866:3872   */\n      dup3\n        /* \"#utility.yul\":3861:3864   */\n      dup2\n        /* \"#utility.yul\":3856:3859   */\n      dup4\n        /* \"#utility.yul\":3843:3873   */\n      calldatacopy\n        /* \"#utility.yul\":3907:3908   */\n      0x00\n        /* \"#utility.yul\":3898:3904   */\n      dup4\n        /* \"#utility.yul\":3893:3896   */\n      dup4\n        /* \"#utility.yul\":3889:3905   */\n      add\n        /* \"#utility.yul\":3882:3909   */\n      mstore\n        /* \"#utility.yul\":3769:3915   */\n      pop\n      pop\n      pop\n      jump\t// out\n        /* \"#utility.yul\":3921:4346   */\n    tag_86:\n        /* \"#utility.yul\":3999:4004   */\n      0x00\n        /* \"#utility.yul\":4024:4090   */\n      tag_154\n        /* \"#utility.yul\":4040:4089   */\n      tag_155\n        /* \"#utility.yul\":4082:4088   */\n      dup5\n        /* \"#utility.yul\":4040:4089   */\n      tag_84\n      jump\t// in\n    tag_155:\n        /* \"#utility.yul\":4024:4090   */\n      tag_83\n      jump\t// in\n    tag_154:\n        /* \"#utility.yul\":4015:4090   */\n      swap1\n      pop\n        /* \"#utility.yul\":4113:4119   */\n      dup3\n        /* \"#utility.yul\":4106:4111   */\n      dup2\n        /* \"#utility.yul\":4099:4120   */\n      mstore\n        /* \"#utility.yul\":4151:4155   */\n      0x20\n        /* \"#utility.yul\":4144:4149   */\n      dup2\n        /* \"#utility.yul\":4140:4156   */\n      add\n        /* \"#utility.yul\":4189:4192   */\n      dup5\n        /* \"#utility.yul\":4180:4186   */\n      dup5\n        /* \"#utility.yul\":4175:4178   */\n      dup5\n        /* \"#utility.yul\":4171:4187   */\n      add\n        /* \"#utility.yul\":4168:4193   */\n      gt\n        /* \"#utility.yul\":4165:4277   */\n      iszero\n      tag_156\n      jumpi\n        /* \"#utility.yul\":4196:4275   */\n      tag_157\n      tag_80\n      jump\t// in\n    tag_157:\n        /* \"#utility.yul\":4165:4277   */\n    tag_156:\n        /* \"#utility.yul\":4286:4340   */\n      tag_158\n        /* \"#utility.yul\":4333:4339   */\n      dup5\n        /* \"#utility.yul\":4328:4331   */\n      dup3\n        /* \"#utility.yul\":4323:4326   */\n      dup6\n        /* \"#utility.yul\":4286:4340   */\n      tag_85\n      jump\t// in\n    tag_158:\n        /* \"#utility.yul\":4005:4346   */\n      pop\n        /* \"#utility.yul\":3921:4346   */\n      swap4\n      swap3\n      pop\n      pop\n      pop\n      jump\t// out\n        /* \"#utility.yul\":4366:4706   */\n    tag_87:\n        /* \"#utility.yul\":4422:4427   */\n      0x00\n        /* \"#utility.yul\":4471:4474   */\n      dup3\n        /* \"#utility.yul\":4464:4468   */\n      0x1f\n        /* \"#utility.yul\":4456:4462   */\n      dup4\n        /* \"#utility.yul\":4452:4469   */\n      add\n        /* \"#utility.yul\":4448:4475   */\n      slt\n        /* \"#utility.yul\":4438:4560   */\n      tag_160\n      jumpi\n        /* \"#utility.yul\":4479:4558   */\n      tag_161\n      tag_79\n      jump\t// in\n    tag_161:\n        /* \"#utility.yul\":4438:4560   */\n    tag_160:\n        /* \"#utility.yul\":4596:4602   */\n      dup2\n        /* \"#utility.yul\":4583:4603   */\n      calldataload\n        /* \"#utility.yul\":4621:4700   */\n      tag_162\n        /* \"#utility.yul\":4696:4699   */\n      dup5\n        /* \"#utility.yul\":4688:4694   */\n      dup3\n        /* \"#utility.yul\":4681:4685   */\n      0x20\n        /* \"#utility.yul\":4673:4679   */\n      dup7\n        /* \"#utility.yul\":4669:4686   */\n      add\n        /* \"#utility.yul\":4621:4700   */\n      tag_86\n      jump\t// in\n    tag_162:\n        /* \"#utility.yul\":4612:4700   */\n      swap2\n      pop\n        /* \"#utility.yul\":4428:4706   */\n      pop\n        /* \"#utility.yul\":4366:4706   */\n      swap3\n      swap2\n      pop\n      pop\n      jump\t// out\n        /* \"#utility.yul\":4712:5221   */\n    tag_18:\n        /* \"#utility.yul\":4781:4787   */\n      0x00\n        /* \"#utility.yul\":4830:4832   */\n      0x20\n        /* \"#utility.yul\":4818:4827   */\n      dup3\n        /* \"#utility.yul\":4809:4816   */\n      dup5\n        /* \"#utility.yul\":4805:4828   */\n      sub\n        /* \"#utility.yul\":4801:4833   */\n      slt\n        /* \"#utility.yul\":4798:4917   */\n      iszero\n      tag_164\n      jumpi\n        /* \"#utility.yul\":4836:4915   */\n      tag_165\n      tag_68\n      jump\t// in\n    tag_165:\n        /* \"#utility.yul\":4798:4917   */\n    tag_164:\n        /* \"#utility.yul\":4984:4985   */\n      0x00\n        /* \"#utility.yul\":4973:4982   */\n      dup3\n        /* \"#utility.yul\":4969:4986   */\n      add\n        /* \"#utility.yul\":4956:4987   */\n      calldataload\n        /* \"#utility.yul\":5014:5032   */\n      0xffffffffffffffff\n        /* \"#utility.yul\":5006:5012   */\n      dup2\n        /* \"#utility.yul\":5003:5033   */\n      gt\n        /* \"#utility.yul\":5000:5117   */\n      iszero\n      tag_166\n      jumpi\n        /* \"#utility.yul\":5036:5115   */\n      tag_167\n      tag_69\n      jump\t// in\n    tag_167:\n        /* \"#utility.yul\":5000:5117   */\n    tag_166:\n        /* \"#utility.yul\":5141:5204   */\n      tag_168\n        /* \"#utility.yul\":5196:5203   */\n      dup5\n        /* \"#utility.yul\":5187:5193   */\n      dup3\n        /* \"#utility.yul\":5176:5185   */\n      dup6\n        /* \"#utility.yul\":5172:5194   */\n      add\n        /* \"#utility.yul\":5141:5204   */\n      tag_87\n      jump\t// in\n    tag_168:\n        /* \"#utility.yul\":5131:5204   */\n      swap2\n      pop\n        /* \"#utility.yul\":4927:5214   */\n      pop\n        /* \"#utility.yul\":4712:5221   */\n      swap3\n      swap2\n      pop\n      pop\n      jump\t// out\n        /* \"#utility.yul\":5227:5540   */\n    tag_23:\n        /* \"#utility.yul\":5340:5344   */\n      0x00\n        /* \"#utility.yul\":5378:5380   */\n      0x20\n        /* \"#utility.yul\":5367:5376   */\n      dup3\n        /* \"#utility.yul\":5363:5381   */\n      add\n        /* \"#utility.yul\":5355:5381   */\n      swap1\n      pop\n        /* \"#utility.yul\":5427:5436   */\n      dup2\n        /* \"#utility.yul\":5421:5425   */\n      dup2\n        /* \"#utility.yul\":5417:5437   */\n      sub\n        /* \"#utility.yul\":5413:5414   */\n      0x00\n        /* \"#utility.yul\":5402:5411   */\n      dup4\n        /* \"#utility.yul\":5398:5415   */\n      add\n        /* \"#utility.yul\":5391:5438   */\n      mstore\n        /* \"#utility.yul\":5455:5533   */\n      tag_170\n        /* \"#utility.yul\":5528:5532   */\n      dup2\n        /* \"#utility.yul\":5519:5525   */\n      dup5\n        /* \"#utility.yul\":5455:5533   */\n      tag_77\n      jump\t// in\n    tag_170:\n        /* \"#utility.yul\":5447:5533   */\n      swap1\n      pop\n        /* \"#utility.yul\":5227:5540   */\n      swap3\n      swap2\n      pop\n      pop\n      jump\t// out\n        /* \"#utility.yul\":5546:5719   */\n    tag_88:\n        /* \"#utility.yul\":5686:5711   */\n      0x496e76616c69642063616e64696461746520696e646578000000000000000000\n        /* \"#utility.yul\":5682:5683   */\n      0x00\n        /* \"#utility.yul\":5674:5680   */\n      dup3\n        /* \"#utility.yul\":5670:5684   */\n      add\n        /* \"#utility.yul\":5663:5712   */\n      mstore\n        /* \"#utility.yul\":5546:5719   */\n      pop\n      jump\t// out\n        /* \"#utility.yul\":5725:6091   */\n    tag_89:\n        /* \"#utility.yul\":5867:5870   */\n      0x00\n        /* \"#utility.yul\":5888:5955   */\n      tag_173\n        /* \"#utility.yul\":5952:5954   */\n      0x17\n        /* \"#utility.yul\":5947:5950   */\n      dup4\n        /* \"#utility.yul\":5888:5955   */\n      tag_74\n      jump\t// in\n    tag_173:\n        /* \"#utility.yul\":5881:5955   */\n      swap2\n      pop\n        /* \"#utility.yul\":5964:6057   */\n      tag_174\n        /* \"#utility.yul\":6053:6056   */\n      dup3\n        /* \"#utility.yul\":5964:6057   */\n      tag_88\n      jump\t// in\n    tag_174:\n        /* \"#utility.yul\":6082:6084   */\n      0x20\n        /* \"#utility.yul\":6077:6080   */\n      dup3\n        /* \"#utility.yul\":6073:6085   */\n      add\n        /* \"#utility.yul\":6066:6085   */\n      swap1\n      pop\n        /* \"#utility.yul\":5725:6091   */\n      swap2\n      swap1\n      pop\n      jump\t// out\n        /* \"#utility.yul\":6097:6516   */\n    tag_27:\n        /* \"#utility.yul\":6263:6267   */\n      0x00\n        /* \"#utility.yul\":6301:6303   */\n      0x20\n        /* \"#utility.yul\":6290:6299   */\n      dup3\n        /* \"#utility.yul\":6286:6304   */\n      add\n        /* \"#utility.yul\":6278:6304   */\n      swap1\n      pop\n        /* \"#utility.yul\":6350:6359   */\n      dup2\n        /* \"#utility.yul\":6344:6348   */\n      dup2\n        /* \"#utility.yul\":6340:6360   */\n      sub\n        /* \"#utility.yul\":6336:6337   */\n      0x00\n        /* \"#utility.yul\":6325:6334   */\n      dup4\n        /* \"#utility.yul\":6321:6338   */\n      add\n        /* \"#utility.yul\":6314:6361   */\n      mstore\n        /* \"#utility.yul\":6378:6509   */\n      tag_176\n        /* \"#utility.yul\":6504:6508   */\n      dup2\n        /* \"#utility.yul\":6378:6509   */\n      tag_89\n      jump\t// in\n    tag_176:\n        /* \"#utility.yul\":6370:6509   */\n      swap1\n      pop\n        /* \"#utility.yul\":6097:6516   */\n      swap2\n      swap1\n      pop\n      jump\t// out\n        /* \"#utility.yul\":6522:6702   */\n    tag_30:\n        /* \"#utility.yul\":6570:6647   */\n      0x4e487b7100000000000000000000000000000000000000000000000000000000\n        /* \"#utility.yul\":6567:6568   */\n      0x00\n        /* \"#utility.yul\":6560:6648   */\n      mstore\n        /* \"#utility.yul\":6667:6671   */\n      0x32\n        /* \"#utility.yul\":6664:6665   */\n      0x04\n        /* \"#utility.yul\":6657:6672   */\n      mstore\n        /* \"#utility.yul\":6691:6695   */\n      0x24\n        /* \"#utility.yul\":6688:6689   */\n      0x00\n        /* \"#utility.yul\":6681:6696   */\n      revert\n        /* \"#utility.yul\":6708:6888   */\n    tag_90:\n        /* \"#utility.yul\":6756:6833   */\n      0x4e487b7100000000000000000000000000000000000000000000000000000000\n        /* \"#utility.yul\":6753:6754   */\n      0x00\n        /* \"#utility.yul\":6746:6834   */\n      mstore\n        /* \"#utility.yul\":6853:6857   */\n      0x11\n        /* \"#utility.yul\":6850:6851   */\n      0x04\n        /* \"#utility.yul\":6843:6858   */\n      mstore\n        /* \"#utility.yul\":6877:6881   */\n      0x24\n        /* \"#utility.yul\":6874:6875   */\n      0x00\n        /* \"#utility.yul\":6867:6882   */\n      revert\n        /* \"#utility.yul\":6894:7085   */\n    tag_33:\n        /* \"#utility.yul\":6934:6937   */\n      0x00\n        /* \"#utility.yul\":6953:6973   */\n      tag_180\n        /* \"#utility.yul\":6971:6972   */\n      dup3\n        /* \"#utility.yul\":6953:6973   */\n      tag_70\n      jump\t// in\n    tag_180:\n        /* \"#utility.yul\":6948:6973   */\n      swap2\n      pop\n        /* \"#utility.yul\":6987:7007   */\n      tag_181\n        /* \"#utility.yul\":7005:7006   */\n      dup4\n        /* \"#utility.yul\":6987:7007   */\n      tag_70\n      jump\t// in\n    tag_181:\n        /* \"#utility.yul\":6982:7007   */\n      swap3\n      pop\n        /* \"#utility.yul\":7030:7031   */\n      dup3\n        /* \"#utility.yul\":7027:7028   */\n      dup3\n        /* \"#utility.yul\":7023:7032   */\n      add\n        /* \"#utility.yul\":7016:7032   */\n      swap1\n      pop\n        /* \"#utility.yul\":7051:7054   */\n      dup1\n        /* \"#utility.yul\":7048:7049   */\n      dup3\n        /* \"#utility.yul\":7045:7055   */\n      gt\n        /* \"#utility.yul\":7042:7078   */\n      iszero\n      tag_182\n      jumpi\n        /* \"#utility.yul\":7058:7076   */\n      tag_183\n      tag_90\n      jump\t// in\n    tag_183:\n        /* \"#utility.yul\":7042:7078   */\n    tag_182:\n        /* \"#utility.yul\":6894:7085   */\n      swap3\n      swap2\n      pop\n      pop\n      jump\t// out\n        /* \"#utility.yul\":7091:7271   */\n    tag_91:\n        /* \"#utility.yul\":7139:7216   */\n      0x4e487b7100000000000000000000000000000000000000000000000000000000\n        /* \"#utility.yul\":7136:7137   */\n      0x00\n        /* \"#utility.yul\":7129:7217   */\n      mstore\n        /* \"#utility.yul\":7236:7240   */\n      0x22\n        /* \"#utility.yul\":7233:7234   */\n      0x04\n        /* \"#utility.yul\":7226:7241   */\n      mstore\n        /* \"#utility.yul\":7260:7264   */\n      0x24\n        /* \"#utility.yul\":7257:7258   */\n      0x00\n        /* \"#utility.yul\":7250:7265   */\n      revert\n        /* \"#utility.yul\":7277:7597   */\n    tag_37:\n        /* \"#utility.yul\":7321:7327   */\n      0x00\n        /* \"#utility.yul\":7358:7359   */\n      0x02\n        /* \"#utility.yul\":7352:7356   */\n      dup3\n        /* \"#utility.yul\":7348:7360   */\n      div\n        /* \"#utility.yul\":7338:7360   */\n      swap1\n      pop\n        /* \"#utility.yul\":7405:7406   */\n      0x01\n        /* \"#utility.yul\":7399:7403   */\n      dup3\n        /* \"#utility.yul\":7395:7407   */\n      and\n        /* \"#utility.yul\":7426:7444   */\n      dup1\n        /* \"#utility.yul\":7416:7497   */\n      tag_186\n      jumpi\n        /* \"#utility.yul\":7482:7486   */\n      0x7f\n        /* \"#utility.yul\":7474:7480   */\n      dup3\n        /* \"#utility.yul\":7470:7487   */\n      and\n        /* \"#utility.yul\":7460:7487   */\n      swap2\n      pop\n        /* \"#utility.yul\":7416:7497   */\n    tag_186:\n        /* \"#utility.yul\":7544:7546   */\n      0x20\n        /* \"#utility.yul\":7536:7542   */\n      dup3\n        /* \"#utility.yul\":7533:7547   */\n      lt\n        /* \"#utility.yul\":7513:7531   */\n      dup2\n        /* \"#utility.yul\":7510:7548   */\n      sub\n        /* \"#utility.yul\":7507:7591   */\n      tag_187\n      jumpi\n        /* \"#utility.yul\":7563:7581   */\n      tag_188\n      tag_91\n      jump\t// in\n    tag_188:\n        /* \"#utility.yul\":7507:7591   */\n    tag_187:\n        /* \"#utility.yul\":7328:7597   */\n      pop\n        /* \"#utility.yul\":7277:7597   */\n      swap2\n      swap1\n      pop\n      jump\t// out\n        /* \"#utility.yul\":7603:7744   */\n    tag_92:\n        /* \"#utility.yul\":7652:7656   */\n      0x00\n        /* \"#utility.yul\":7675:7678   */\n      dup2\n        /* \"#utility.yul\":7667:7678   */\n      swap1\n      pop\n        /* \"#utility.yul\":7698:7701   */\n      dup2\n        /* \"#utility.yul\":7695:7696   */\n      0x00\n        /* \"#utility.yul\":7688:7702   */\n      mstore\n        /* \"#utility.yul\":7732:7736   */\n      0x20\n        /* \"#utility.yul\":7729:7730   */\n      0x00\n        /* \"#utility.yul\":7719:7737   */\n      keccak256\n        /* \"#utility.yul\":7711:7737   */\n      swap1\n      pop\n        /* \"#utility.yul\":7603:7744   */\n      swap2\n      swap1\n      pop\n      jump\t// out\n        /* \"#utility.yul\":7750:7843   */\n    tag_93:\n        /* \"#utility.yul\":7787:7793   */\n      0x00\n        /* \"#utility.yul\":7834:7836   */\n      0x20\n        /* \"#utility.yul\":7829:7831   */\n      0x1f\n        /* \"#utility.yul\":7822:7827   */\n      dup4\n        /* \"#utility.yul\":7818:7832   */\n      add\n        /* \"#utility.yul\":7814:7837   */\n      div\n        /* \"#utility.yul\":7804:7837   */\n      swap1\n      pop\n        /* \"#utility.yul\":7750:7843   */\n      swap2\n      swap1\n      pop\n      jump\t// out\n        /* \"#utility.yul\":7849:7956   */\n    tag_94:\n        /* \"#utility.yul\":7893:7901   */\n      0x00\n        /* \"#utility.yul\":7943:7948   */\n      dup3\n        /* \"#utility.yul\":7937:7941   */\n      dup3\n        /* \"#utility.yul\":7933:7949   */\n      shl\n        /* \"#utility.yul\":7912:7949   */\n      swap1\n      pop\n        /* \"#utility.yul\":7849:7956   */\n      swap3\n      swap2\n      pop\n      pop\n      jump\t// out\n        /* \"#utility.yul\":7962:8355   */\n    tag_95:\n        /* \"#utility.yul\":8031:8037   */\n      0x00\n        /* \"#utility.yul\":8081:8082   */\n      0x08\n        /* \"#utility.yul\":8069:8079   */\n      dup4\n        /* \"#utility.yul\":8065:8083   */\n      mul\n        /* \"#utility.yul\":8104:8201   */\n      tag_193\n        /* \"#utility.yul\":8134:8200   */\n      0xffffffffffffffffffffffffffffffffffffffffffffffffffffffffffffffff\n        /* \"#utility.yul\":8123:8132   */\n      dup3\n        /* \"#utility.yul\":8104:8201   */\n      tag_94\n      jump\t// in\n    tag_193:\n        /* \"#utility.yul\":8222:8261   */\n      tag_194\n        /* \"#utility.yul\":8252:8260   */\n      dup7\n        /* \"#utility.yul\":8241:8250   */\n      dup4\n        /* \"#utility.yul\":8222:8261   */\n      tag_94\n      jump\t// in\n    tag_194:\n        /* \"#utility.yul\":8210:8261   */\n      swap6\n      pop\n        /* \"#utility.yul\":8294:8298   */\n      dup1\n        /* \"#utility.yul\":8290:8299   */\n      not\n        /* \"#utility.yul\":8283:8288   */\n      dup5\n        /* \"#utility.yul\":8279:8300   */\n      and\n        /* \"#utility.yul\":8270:8300   */\n      swap4\n      pop\n        /* \"#utility.yul\":8343:8347   */\n      dup1\n        /* \"#utility.yul\":8333:8341   */\n      dup7\n        /* \"#utility.yul\":8329:8348   */\n      and\n        /* \"#utility.yul\":8322:8327   */\n      dup5\n        /* \"#utility.yul\":8319:8349   */\n      or\n        /* \"#utility.yul\":8309:8349   */\n      swap3\n      pop\n        /* \"#utility.yul\":8038:8355   */\n      pop\n      pop\n        /* \"#utility.yul\":7962:8355   */\n      swap4\n      swap3\n      pop\n      pop\n      pop\n      jump\t// out\n        /* \"#utility.yul\":8361:8421   */\n    tag_96:\n        /* \"#utility.yul\":8389:8392   */\n      0x00\n        /* \"#utility.yul\":8410:8415   */\n      dup2\n        /* \"#utility.yul\":8403:8415   */\n      swap1\n      pop\n        /* \"#utility.yul\":8361:8421   */\n      swap2\n      swap1\n      pop\n      jump\t// out\n        /* \"#utility.yul\":8427:8569   */\n    tag_97:\n        /* \"#utility.yul\":8477:8486   */\n      0x00\n        /* \"#utility.yul\":8510:8563   */\n      tag_197\n        /* \"#utility.yul\":8528:8562   */\n      tag_198\n        /* \"#utility.yul\":8537:8561   */\n      tag_199\n        /* \"#utility.yul\":8555:8560   */\n      dup5\n        /* \"#utility.yul\":8537:8561   */\n      tag_70\n      jump\t// in\n    tag_199:\n        /* \"#utility.yul\":8528:8562   */\n      tag_96\n      jump\t// in\n    tag_198:\n        /* \"#utility.yul\":8510:8563   */\n      tag_70\n      jump\t// in\n    tag_197:\n        /* \"#utility.yul\":8497:8563   */\n      swap1\n      pop\n        /* \"#utility.yul\":8427:8569   */\n      swap2\n      swap1\n      pop\n      jump\t// out\n        /* \"#utility.yul\":8575:8650   */\n    tag_98:\n        /* \"#utility.yul\":8618:8621   */\n      0x00\n        /* \"#utility.yul\":8639:8644   */\n      dup2\n        /* \"#utility.yul\":8632:8644   */\n      swap1\n      pop\n        /* \"#utility.yul\":8575:8650   */\n      swap2\n      swap1\n      pop\n      jump\t// out\n        /* \"#utility.yul\":8656:8925   */\n    tag_99:\n        /* \"#utility.yul\":8766:8805   */\n      tag_202\n        /* \"#utility.yul\":8797:8804   */\n      dup4\n        /* \"#utility.yul\":8766:8805   */\n      tag_97\n      jump\t// in\n    tag_202:\n        /* \"#utility.yul\":8827:8918   */\n      tag_203\n        /* \"#utility.yul\":8876:8917   */\n      tag_204\n        /* \"#utility.yul\":8900:8916   */\n      dup3\n        /* \"#utility.yul\":8876:8917   */\n      tag_98\n      jump\t// in\n    tag_204:\n        /* \"#utility.yul\":8868:8874   */\n      dup5\n        /* \"#utility.yul\":8861:8865   */\n      dup5\n        /* \"#utility.yul\":8855:8866   */\n      sload\n        /* \"#utility.yul\":8827:8918   */\n      tag_95\n      jump\t// in\n    tag_203:\n        /* \"#utility.yul\":8821:8825   */\n      dup3\n        /* \"#utility.yul\":8814:8919   */\n      sstore\n        /* \"#utility.yul\":8732:8925   */\n      pop\n        /* \"#utility.yul\":8656:8925   */\n      pop\n      pop\n      pop\n      jump\t// out\n        /* \"#utility.yul\":8931:9004   */\n    tag_100:\n        /* \"#utility.yul\":8976:8979   */\n      0x00\n        /* \"#utility.yul\":8931:9004   */\n      swap1\n      jump\t// out\n        /* \"#utility.yul\":9010:9199   */\n    tag_101:\n        /* \"#utility.yul\":9087:9119   */\n      tag_207\n      tag_100\n      jump\t// in\n    tag_207:\n        /* \"#utility.yul\":9128:9193   */\n      tag_208\n        /* \"#utility.yul\":9186:9192   */\n      dup2\n        /* \"#utility.yul\":9178:9184   */\n      dup5\n        /* \"#utility.yul\":9172:9176   */\n      dup5\n        /* \"#utility.yul\":9128:9193   */\n      tag_99\n      jump\t// in\n    tag_208:\n        /* \"#utility.yul\":9063:9199   */\n      pop\n        /* \"#utility.yul\":9010:9199   */\n      pop\n      pop\n      jump\t// out\n        /* \"#utility.yul\":9205:9391   */\n    tag_102:\n        /* \"#utility.yul\":9265:9385   */\n    tag_210:\n        /* \"#utility.yul\":9282:9285   */\n      dup2\n        /* \"#utility.yul\":9275:9280   */\n      dup2\n        /* \"#utility.yul\":9272:9286   */\n      lt\n        /* \"#utility.yul\":9265:9385   */\n      iszero\n      tag_212\n      jumpi\n        /* \"#utility.yul\":9336:9375   */\n      tag_213\n        /* \"#utility.yul\":9373:9374   */\n      0x00\n        /* \"#utility.yul\":9366:9371   */\n      dup3\n        /* \"#utility.yul\":9336:9375   */\n      tag_101\n      jump\t// in\n    tag_213:\n        /* \"#utility.yul\":9309:9310   */\n      0x01\n        /* \"#utility.yul\":9302:9307   */\n      dup2\n        /* \"#utility.yul\":9298:9311   */\n      add\n        /* \"#utility.yul\":9289:9311   */\n      swap1\n      pop\n        /* \"#utility.yul\":9265:9385   */\n      jump(tag_210)\n    tag_212:\n        /* \"#utility.yul\":9205:9391   */\n      pop\n      pop\n      jump\t// out\n        /* \"#utility.yul\":9397:9940   */\n    tag_103:\n        /* \"#utility.yul\":9498:9500   */\n      0x1f\n        /* \"#utility.yul\":9493:9496   */\n      dup3\n        /* \"#utility.yul\":9490:9501   */\n      gt\n        /* \"#utility.yul\":9487:9933   */\n      iszero\n      tag_215\n      jumpi\n        /* \"#utility.yul\":9532:9570   */\n      tag_216\n        /* \"#utility.yul\":9564:9569   */\n      dup2\n        /* \"#utility.yul\":9532:9570   */\n      tag_92\n      jump\t// in\n    tag_216:\n        /* \"#utility.yul\":9616:9645   */\n      tag_217\n        /* \"#utility.yul\":9634:9644   */\n      dup5\n        /* \"#utility.yul\":9616:9645   */\n      tag_93\n      jump\t// in\n    tag_217:\n        /* \"#utility.yul\":9606:9614   */\n      dup2\n        /* \"#utility.yul\":9602:9646   */\n      add\n        /* \"#utility.yul\":9799:9801   */\n      0x20\n        /* \"#utility.yul\":9787:9797   */\n      dup6\n        /* \"#utility.yul\":9784:9802   */\n      lt\n        /* \"#utility.yul\":9781:9830   */\n      iszero\n      tag_218\n      jumpi\n        /* \"#utility.yul\":9820:9828   */\n      dup2\n        /* \"#utility.yul\":9805:9828   */\n      swap1\n      pop\n        /* \"#utility.yul\":9781:9830   */\n    tag_218:\n        /* \"#utility.yul\":9843:9923   */\n      tag_219\n        /* \"#utility.yul\":9899:9921   */\n      tag_220\n        /* \"#utility.yul\":9917:9920   */\n      dup6\n        /* \"#utility.yul\":9899:9921   */\n      tag_93\n      jump\t// in\n    tag_220:\n        /* \"#utility.yul\":9889:9897   */\n      dup4\n        /* \"#utility.yul\":9885:9922   */\n      add\n        /* \"#utility.yul\":9872:9883   */\n      dup3\n        /* \"#utility.yul\":9843:9923   */\n      tag_102\n      jump\t// in\n    tag_219:\n        /* \"#utility.yul\":9502:9933   */\n      pop\n      pop\n        /* \"#utility.yul\":9487:9933   */\n    tag_215:\n        /* \"#utility.yul\":9397:9940   */\n      pop\n      pop\n      pop\n      jump\t// out\n        /* \"#utility.yul\":9946:10063   */\n    tag_104:\n        /* \"#utility.yul\":10000:10008   */\n      0x00\n        /* \"#utility.yul\":10050:10055   */\n      dup3\n        /* \"#utility.yul\":10044:10048   */\n      dup3\n        /* \"#utility.yul\":10040:10056   */\n      shr\n        /* \"#utility.yul\":10019:10056   */\n      swap1\n      pop\n        /* \"#utility.yul\":9946:10063   */\n      swap3\n      swap2\n      pop\n      pop\n      jump\t// out\n        /* \"#utility.yul\":10069:10238   */\n    tag_105:\n        /* \"#utility.yul\":10113:10119   */\n      0x00\n        /* \"#utility.yul\":10146:10197   */\n      tag_223\n        /* \"#utility.yul\":10194:10195   */\n      0x00\n        /* \"#utility.yul\":10190:10196   */\n      not\n        /* \"#utility.yul\":10182:10187   */\n      dup5\n        /* \"#utility.yul\":10179:10180   */\n      0x08\n        /* \"#utility.yul\":10175:10188   */\n      mul\n        /* \"#utility.yul\":10146:10197   */\n      tag_104\n      jump\t// in\n    tag_223:\n        /* \"#utility.yul\":10142:10198   */\n      not\n        /* \"#utility.yul\":10227:10231   */\n      dup1\n        /* \"#utility.yul\":10221:10225   */\n      dup4\n        /* \"#utility.yul\":10217:10232   */\n      and\n        /* \"#utility.yul\":10207:10232   */\n      swap2\n      pop\n        /* \"#utility.yul\":10120:10238   */\n      pop\n        /* \"#utility.yul\":10069:10238   */\n      swap3\n      swap2\n      pop\n      pop\n      jump\t// out\n        /* \"#utility.yul\":10243:10538   */\n    tag_106:\n        /* \"#utility.yul\":10319:10323   */\n      0x00\n        /* \"#utility.yul\":10465:10494   */\n      tag_225\n        /* \"#utility.yul\":10490:10493   */\n      dup4\n        /* \"#utility.yul\":10484:10488   */\n      dup4\n        /* \"#utility.yul\":10465:10494   */\n      tag_105\n      jump\t// in\n    tag_225:\n        /* \"#utility.yul\":10457:10494   */\n      swap2\n      pop\n        /* \"#utility.yul\":10527:10530   */\n      dup3\n        /* \"#utility.yul\":10524:10525   */\n      0x02\n        /* \"#utility.yul\":10520:10531   */\n      mul\n        /* \"#utility.yul\":10514:10518   */\n      dup3\n        /* \"#utility.yul\":10511:10532   */\n      or\n        /* \"#utility.yul\":10503:10532   */\n      swap1\n      pop\n        /* \"#utility.yul\":10243:10538   */\n      swap3\n      swap2\n      pop\n      pop\n      jump\t// out\n        /* \"#utility.yul\":10543:11938   */\n    tag_45:\n        /* \"#utility.yul\":10660:10697   */\n      tag_227\n        /* \"#utility.yul\":10693:10696   */\n      dup3\n        /* \"#utility.yul\":10660:10697   */\n      tag_73\n      jump\t// in\n    tag_227:\n        /* \"#utility.yul\":10762:10780   */\n      0xffffffffffffffff\n        /* \"#utility.yul\":10754:10760   */\n      dup2\n        /* \"#utility.yul\":10751:10781   */\n      gt\n        /* \"#utility.yul\":10748:10804   */\n      iszero\n      tag_228\n      jumpi\n        /* \"#utility.yul\":10784:10802   */\n      tag_229\n      tag_81\n      jump\t// in\n    tag_229:\n        /* \"#utility.yul\":10748:10804   */\n    tag_228:\n        /* \"#utility.yul\":10828:10866   */\n      tag_230\n        /* \"#utility.yul\":10860:10864   */\n      dup3\n        /* \"#utility.yul\":10854:10865   */\n      sload\n        /* \"#utility.yul\":10828:10866   */\n      tag_37\n      jump\t// in\n    tag_230:\n        /* \"#utility.yul\":10913:10980   */\n      tag_231\n        /* \"#utility.yul\":10973:10979   */\n      dup3\n        /* \"#utility.yul\":10965:10971   */\n      dup3\n        /* \"#utility.yul\":10959:10963   */\n      dup6\n        /* \"#utility.yul\":10913:10980   */\n      tag_103\n      jump\t// in\n    tag_231:\n        /* \"#utility.yul\":11007:11008   */\n      0x00\n        /* \"#utility.yul\":11031:11035   */\n      0x20\n        /* \"#utility.yul\":11018:11035   */\n      swap1\n      pop\n        /* \"#utility.yul\":11063:11065   */\n      0x1f\n        /* \"#utility.yul\":11055:11061   */\n      dup4\n        /* \"#utility.yul\":11052:11066   */\n      gt\n        /* \"#utility.yul\":11080:11081   */\n      0x01\n        /* \"#utility.yul\":11075:11693   */\n      dup2\n      eq\n      tag_233\n      jumpi\n        /* \"#utility.yul\":11737:11738   */\n      0x00\n        /* \"#utility.yul\":11754:11760   */\n      dup5\n        /* \"#utility.yul\":11751:11828   */\n      iszero\n      tag_234\n      jumpi\n        /* \"#utility.yul\":11803:11812   */\n      dup3\n        /* \"#utility.yul\":11798:11801   */\n      dup8\n        /* \"#utility.yul\":11794:11813   */\n      add\n        /* \"#utility.yul\":11788:11814   */\n      mload\n        /* \"#utility.yul\":11779:11814   */\n      swap1\n      pop\n        /* \"#utility.yul\":11751:11828   */\n    tag_234:\n        /* \"#utility.yul\":11854:11921   */\n      tag_235\n        /* \"#utility.yul\":11914:11920   */\n      dup6\n        /* \"#utility.yul\":11907:11912   */\n      dup3\n        /* \"#utility.yul\":11854:11921   */\n      tag_106\n      jump\t// in\n    tag_235:\n        /* \"#utility.yul\":11848:11852   */\n      dup7\n        /* \"#utility.yul\":11841:11922   */\n      sstore\n        /* \"#utility.yul\":11710:11932   */\n      pop\n        /* \"#utility.yul\":11045:11932   */\n      jump(tag_232)\n        /* \"#utility.yul\":11075:11693   */\n    tag_233:\n        /* \"#utility.yul\":11127:11131   */\n      0x1f\n        /* \"#utility.yul\":11123:11132   */\n      not\n        /* \"#utility.yul\":11115:11121   */\n      dup5\n        /* \"#utility.yul\":11111:11133   */\n      and\n        /* \"#utility.yul\":11161:11198   */\n      tag_236\n        /* \"#utility.yul\":11193:11197   */\n      dup7\n        /* \"#utility.yul\":11161:11198   */\n      tag_92\n      jump\t// in\n    tag_236:\n        /* \"#utility.yul\":11220:11221   */\n      0x00\n        /* \"#utility.yul\":11234:11442   */\n    tag_237:\n        /* \"#utility.yul\":11248:11255   */\n      dup3\n        /* \"#utility.yul\":11245:11246   */\n      dup2\n        /* \"#utility.yul\":11242:11256   */\n      lt\n        /* \"#utility.yul\":11234:11442   */\n      iszero\n      tag_239\n      jumpi\n        /* \"#utility.yul\":11327:11336   */\n      dup5\n        /* \"#utility.yul\":11322:11325   */\n      dup10\n        /* \"#utility.yul\":11318:11337   */\n      add\n        /* \"#utility.yul\":11312:11338   */\n      mload\n        /* \"#utility.yul\":11304:11310   */\n      dup3\n        /* \"#utility.yul\":11297:11339   */\n      sstore\n        /* \"#utility.yul\":11378:11379   */\n      0x01\n        /* \"#utility.yul\":11370:11376   */\n      dup3\n        /* \"#utility.yul\":11366:11380   */\n      add\n        /* \"#utility.yul\":11356:11380   */\n      swap2\n      pop\n        /* \"#utility.yul\":11425:11427   */\n      0x20\n        /* \"#utility.yul\":11414:11423   */\n      dup6\n        /* \"#utility.yul\":11410:11428   */\n      add\n        /* \"#utility.yul\":11397:11428   */\n      swap5\n      pop\n        /* \"#utility.yul\":11271:11275   */\n      0x20\n        /* \"#utility.yul\":11268:11269   */\n      dup2\n        /* \"#utility.yul\":11264:11276   */\n      add\n        /* \"#utility.yul\":11259:11276   */\n      swap1\n      pop\n        /* \"#utility.yul\":11234:11442   */\n      jump(tag_237)\n    tag_239:\n        /* \"#utility.yul\":11470:11476   */\n      dup7\n        /* \"#utility.yul\":11461:11468   */\n      dup4\n        /* \"#utility.yul\":11458:11477   */\n      lt\n        /* \"#utility.yul\":11455:11634   */\n      iszero\n      tag_240\n      jumpi\n        /* \"#utility.yul\":11528:11537   */\n      dup5\n        /* \"#utility.yul\":11523:11526   */\n      dup10\n        /* \"#utility.yul\":11519:11538   */\n      add\n        /* \"#utility.yul\":11513:11539   */\n      mload\n        /* \"#utility.yul\":11571:11619   */\n      tag_241\n        /* \"#utility.yul\":11613:11617   */\n      0x1f\n        /* \"#utility.yul\":11605:11611   */\n      dup10\n        /* \"#utility.yul\":11601:11618   */\n      and\n        /* \"#utility.yul\":11590:11599   */\n      dup3\n        /* \"#utility.yul\":11571:11619   */\n      tag_105\n      jump\t// in\n    tag_241:\n        /* \"#utility.yul\":11563:11569   */\n      dup4\n        /* \"#utility.yul\":11556:11620   */\n      sstore\n        /* \"#utility.yul\":11478:11634   */\n      pop\n        /* \"#utility.yul\":11455:11634   */\n    tag_240:\n        /* \"#utility.yul\":11680:11681   */\n      0x01\n        /* \"#utility.yul\":11676:11677   */\n      0x02\n        /* \"#utility.yul\":11668:11674   */\n      dup9\n        /* \"#utility.yul\":11664:11678   */\n      mul\n        /* \"#utility.yul\":11660:11682   */\n      add\n        /* \"#utility.yul\":11654:11658   */\n      dup9\n        /* \"#utility.yul\":11647:11683   */\n      sstore\n        /* \"#utility.yul\":11082:11693   */\n      pop\n      pop\n      pop\n        /* \"#utility.yul\":11045:11932   */\n    tag_232:\n      pop\n        /* \"#utility.yul\":10635:11938   */\n      pop\n      pop\n      pop\n        /* \"#utility.yul\":10543:11938   */\n      pop\n      pop\n      jump\t// out\n        /* \"#utility.yul\":11944:12177   */\n    tag_58:\n        /* \"#utility.yul\":11983:11986   */\n      0x00\n        /* \"#utility.yul\":12006:12030   */\n      tag_243\n        /* \"#utility.yul\":12024:12029   */\n      dup3\n        /* \"#utility.yul\":12006:12030   */\n      tag_70\n      jump\t// in\n    tag_243:\n        /* \"#utility.yul\":11997:12030   */\n      swap2\n      pop\n        /* \"#utility.yul\":12052:12118   */\n      0xffffffffffffffffffffffffffffffffffffffffffffffffffffffffffffffff\n        /* \"#utility.yul\":12045:12050   */\n      dup3\n        /* \"#utility.yul\":12042:12119   */\n      sub\n        /* \"#utility.yul\":12039:12142   */\n      tag_244\n      jumpi\n        /* \"#utility.yul\":12122:12140   */\n      tag_245\n      tag_90\n      jump\t// in\n    tag_245:\n        /* \"#utility.yul\":12039:12142   */\n    tag_244:\n        /* \"#utility.yul\":12169:12170   */\n      0x01\n        /* \"#utility.yul\":12162:12167   */\n      dup3\n        /* \"#utility.yul\":12158:12171   */\n      add\n        /* \"#utility.yul\":12151:12171   */\n      swap1\n      pop\n        /* \"#utility.yul\":11944:12177   */\n      swap2\n      swap1\n      pop\n      jump\t// out\n\n    auxdata: 0xa26469706673582212200584c1a49158282de684276ebee675348e0afa99f1f989951aa1d14819b3d18364736f6c63430008120033\n}\n",
				"bytecode": {
					"linkReferences": {},
					"object": "608060405234801561001057600080fd5b50610af8806100206000396000f3fe608060405234801561001057600080fd5b506004361061004c5760003560e01c80630121b93f146100515780633477ee2e1461006d578063462e91ec1461009e5780638e7ea5b2146100ba575b600080fd5b61006b60048036038101906100669190610402565b6100d8565b005b61008760048036038101906100829190610402565b61015f565b6040516100959291906104ce565b60405180910390f35b6100b860048036038101906100b39190610633565b61021b565b005b6100c2610281565b6040516100cf919061067c565b60405180910390f35b600080549050811061011f576040517f08c379a0000000000000000000000000000000000000000000000000000000008152600401610116906106ea565b60405180910390fd5b6001600082815481106101355761013461070a565b5b906000526020600020906002020160010160008282546101559190610768565b9250508190555050565b6000818154811061016f57600080fd5b9060005260206000209060020201600091509050806000018054610192906107cb565b80601f01602080910402602001604051908101604052809291908181526020018280546101be906107cb565b801561020b5780601f106101e05761010080835404028352916020019161020b565b820191906000526020600020905b8154815290600101906020018083116101ee57829003601f168201915b5050505050908060010154905082565b6000604051806040016040528083815260200160008152509080600181540180825580915050600190039060005260206000209060020201600090919091909150600082015181600001908161027191906109a8565b5060208201518160010155505050565b606060008060005b6000805490508110156103025782600082815481106102ab576102aa61070a565b5b90600052602060002090600202016001015411156102ef57600081815481106102d7576102d661070a565b5b90600052602060002090600202016001015492508091505b80806102fa90610a7a565b915050610289565b50600081815481106103175761031661070a565b5b90600052602060002090600202016000018054610333906107cb565b80601f016020809104026020016040519081016040528092919081815260200182805461035f906107cb565b80156103ac5780601f10610381576101008083540402835291602001916103ac565b820191906000526020600020905b81548152906001019060200180831161038f57829003601f168201915b50505050509250505090565b6000604051905090565b600080fd5b600080fd5b6000819050919050565b6103df816103cc565b81146103ea57600080fd5b50565b6000813590506103fc816103d6565b92915050565b600060208284031215610418576104176103c2565b5b6000610426848285016103ed565b91505092915050565b600081519050919050565b600082825260208201905092915050565b60005b8381101561046957808201518184015260208101905061044e565b60008484015250505050565b6000601f19601f8301169050919050565b60006104918261042f565b61049b818561043a565b93506104ab81856020860161044b565b6104b481610475565b840191505092915050565b6104c8816103cc565b82525050565b600060408201905081810360008301526104e88185610486565b90506104f760208301846104bf565b9392505050565b600080fd5b600080fd5b7f4e487b7100000000000000000000000000000000000000000000000000000000600052604160045260246000fd5b61054082610475565b810181811067ffffffffffffffff8211171561055f5761055e610508565b5b80604052505050565b60006105726103b8565b905061057e8282610537565b919050565b600067ffffffffffffffff82111561059e5761059d610508565b5b6105a782610475565b9050602081019050919050565b82818337600083830152505050565b60006105d66105d184610583565b610568565b9050828152602081018484840111156105f2576105f1610503565b5b6105fd8482856105b4565b509392505050565b600082601f83011261061a576106196104fe565b5b813561062a8482602086016105c3565b91505092915050565b600060208284031215610649576106486103c2565b5b600082013567ffffffffffffffff811115610667576106666103c7565b5b61067384828501610605565b91505092915050565b600060208201905081810360008301526106968184610486565b905092915050565b7f496e76616c69642063616e64696461746520696e646578000000000000000000600082015250565b60006106d460178361043a565b91506106df8261069e565b602082019050919050565b60006020820190508181036000830152610703816106c7565b9050919050565b7f4e487b7100000000000000000000000000000000000000000000000000000000600052603260045260246000fd5b7f4e487b7100000000000000000000000000000000000000000000000000000000600052601160045260246000fd5b6000610773826103cc565b915061077e836103cc565b925082820190508082111561079657610795610739565b5b92915050565b7f4e487b7100000000000000000000000000000000000000000000000000000000600052602260045260246000fd5b600060028204905060018216806107e357607f821691505b6020821081036107f6576107f561079c565b5b50919050565b60008190508160005260206000209050919050565b60006020601f8301049050919050565b600082821b905092915050565b60006008830261085e7fffffffffffffffffffffffffffffffffffffffffffffffffffffffffffffffff82610821565b6108688683610821565b95508019841693508086168417925050509392505050565b6000819050919050565b60006108a56108a061089b846103cc565b610880565b6103cc565b9050919050565b6000819050919050565b6108bf8361088a565b6108d36108cb826108ac565b84845461082e565b825550505050565b600090565b6108e86108db565b6108f38184846108b6565b505050565b5b818110156109175761090c6000826108e0565b6001810190506108f9565b5050565b601f82111561095c5761092d816107fc565b61093684610811565b81016020851015610945578190505b61095961095185610811565b8301826108f8565b50505b505050565b600082821c905092915050565b600061097f60001984600802610961565b1980831691505092915050565b6000610998838361096e565b9150826002028217905092915050565b6109b18261042f565b67ffffffffffffffff8111156109ca576109c9610508565b5b6109d482546107cb565b6109df82828561091b565b600060209050601f831160018114610a125760008415610a00578287015190505b610a0a858261098c565b865550610a72565b601f198416610a20866107fc565b60005b82811015610a4857848901518255600182019150602085019450602081019050610a23565b86831015610a655784890151610a61601f89168261096e565b8355505b6001600288020188555050505b505050505050565b6000610a85826103cc565b91507fffffffffffffffffffffffffffffffffffffffffffffffffffffffffffffffff8203610ab757610ab6610739565b5b60018201905091905056fea26469706673582212200584c1a49158282de684276ebee675348e0afa99f1f989951aa1d14819b3d18364736f6c63430008120033",
					"opcodes": "PUSH1 0x80 PUSH1 0x40 MSTORE CALLVALUE DUP1 ISZERO PUSH2 0x10 JUMPI PUSH1 0x0 DUP1 REVERT JUMPDEST POP PUSH2 0xAF8 DUP1 PUSH2 0x20 PUSH1 0x0 CODECOPY PUSH1 0x0 RETURN INVALID PUSH1 0x80 PUSH1 0x40 MSTORE CALLVALUE DUP1 ISZERO PUSH2 0x10 JUMPI PUSH1 0x0 DUP1 REVERT JUMPDEST POP PUSH1 0x4 CALLDATASIZE LT PUSH2 0x4C JUMPI PUSH1 0x0 CALLDATALOAD PUSH1 0xE0 SHR DUP1 PUSH4 0x121B93F EQ PUSH2 0x51 JUMPI DUP1 PUSH4 0x3477EE2E EQ PUSH2 0x6D JUMPI DUP1 PUSH4 0x462E91EC EQ PUSH2 0x9E JUMPI DUP1 PUSH4 0x8E7EA5B2 EQ PUSH2 0xBA JUMPI JUMPDEST PUSH1 0x0 DUP1 REVERT JUMPDEST PUSH2 0x6B PUSH1 0x4 DUP1 CALLDATASIZE SUB DUP2 ADD SWAP1 PUSH2 0x66 SWAP2 SWAP1 PUSH2 0x402 JUMP JUMPDEST PUSH2 0xD8 JUMP JUMPDEST STOP JUMPDEST PUSH2 0x87 PUSH1 0x4 DUP1 CALLDATASIZE SUB DUP2 ADD SWAP1 PUSH2 0x82 SWAP2 SWAP1 PUSH2 0x402 JUMP JUMPDEST PUSH2 0x15F JUMP JUMPDEST PUSH1 0x40 MLOAD PUSH2 0x95 SWAP3 SWAP2 SWAP1 PUSH2 0x4CE JUMP JUMPDEST PUSH1 0x40 MLOAD DUP1 SWAP2 SUB SWAP1 RETURN JUMPDEST PUSH2 0xB8 PUSH1 0x4 DUP1 CALLDATASIZE SUB DUP2 ADD SWAP1 PUSH2 0xB3 SWAP2 SWAP1 PUSH2 0x633 JUMP JUMPDEST PUSH2 0x21B JUMP JUMPDEST STOP JUMPDEST PUSH2 0xC2 PUSH2 0x281 JUMP JUMPDEST PUSH1 0x40 MLOAD PUSH2 0xCF SWAP2 SWAP1 PUSH2 0x67C JUMP JUMPDEST PUSH1 0x40 MLOAD DUP1 SWAP2 SUB SWAP1 RETURN JUMPDEST PUSH1 0x0 DUP1 SLOAD SWAP1 POP DUP2 LT PUSH2 0x11F JUMPI PUSH1 0x40 MLOAD PUSH32 0x8C379A000000000000000000000000000000000000000000000000000000000 DUP2 MSTORE PUSH1 0x4 ADD PUSH2 0x116 SWAP1 PUSH2 0x6EA JUMP JUMPDEST PUSH1 0x40 MLOAD DUP1 SWAP2 SUB SWAP1 REVERT JUMPDEST PUSH1 0x1 PUSH1 0x0 DUP3 DUP2 SLOAD DUP2 LT PUSH2 0x135 JUMPI PUSH2 0x134 PUSH2 0x70A JUMP JUMPDEST JUMPDEST SWAP1 PUSH1 0x0 MSTORE PUSH1 0x20 PUSH1 0x0 KECCAK256 SWAP1 PUSH1 0x2 MUL ADD PUSH1 0x1 ADD PUSH1 0x0 DUP3 DUP3 SLOAD PUSH2 0x155 SWAP2 SWAP1 PUSH2 0x768 JUMP JUMPDEST SWAP3 POP POP DUP2 SWAP1 SSTORE POP POP JUMP JUMPDEST PUSH1 0x0 DUP2 DUP2 SLOAD DUP2 LT PUSH2 0x16F JUMPI PUSH1 0x0 DUP1 REVERT JUMPDEST SWAP1 PUSH1 0x0 MSTORE PUSH1 0x20 PUSH1 0x0 KECCAK256 SWAP1 PUSH1 0x2 MUL ADD PUSH1 0x0 SWAP2 POP SWAP1 POP DUP1 PUSH1 0x0 ADD DUP1 SLOAD PUSH2 0x192 SWAP1 PUSH2 0x7CB JUMP JUMPDEST DUP1 PUSH1 0x1F ADD PUSH1 0x20 DUP1 SWAP2 DIV MUL PUSH1 0x20 ADD PUSH1 0x40 MLOAD SWAP1 DUP2 ADD PUSH1 0x40 MSTORE DUP1 SWAP3 SWAP2 SWAP1 DUP2 DUP2 MSTORE PUSH1 0x20 ADD DUP3 DUP1 SLOAD PUSH2 0x1BE SWAP1 PUSH2 0x7CB JUMP JUMPDEST DUP1 ISZERO PUSH2 0x20B JUMPI DUP1 PUSH1 0x1F LT PUSH2 0x1E0 JUMPI PUSH2 0x100 DUP1 DUP4 SLOAD DIV MUL DUP4 MSTORE SWAP2 PUSH1 0x20 ADD SWAP2 PUSH2 0x20B JUMP JUMPDEST DUP3 ADD SWAP2 SWAP1 PUSH1 0x0 MSTORE PUSH1 0x20 PUSH1 0x0 KECCAK256 SWAP1 JUMPDEST DUP2 SLOAD DUP2 MSTORE SWAP1 PUSH1 0x1 ADD SWAP1 PUSH1 0x20 ADD DUP1 DUP4 GT PUSH2 0x1EE JUMPI DUP3 SWAP1 SUB PUSH1 0x1F AND DUP3 ADD SWAP2 JUMPDEST POP POP POP POP POP SWAP1 DUP1 PUSH1 0x1 ADD SLOAD SWAP1 POP DUP3 JUMP JUMPDEST PUSH1 0x0 PUSH1 0x40 MLOAD DUP1 PUSH1 0x40 ADD PUSH1 0x40 MSTORE DUP1 DUP4 DUP2 MSTORE PUSH1 0x20 ADD PUSH1 0x0 DUP2 MSTORE POP SWAP1 DUP1 PUSH1 0x1 DUP2 SLOAD ADD DUP1 DUP3 SSTORE DUP1 SWAP2 POP POP PUSH1 0x1 SWAP1 SUB SWAP1 PUSH1 0x0 MSTORE PUSH1 0x20 PUSH1 0x0 KECCAK256 SWAP1 PUSH1 0x2 MUL ADD PUSH1 0x0 SWAP1 SWAP2 SWAP1 SWAP2 SWAP1 SWAP2 POP PUSH1 0x0 DUP3 ADD MLOAD DUP2 PUSH1 0x0 ADD SWAP1 DUP2 PUSH2 0x271 SWAP2 SWAP1 PUSH2 0x9A8 JUMP JUMPDEST POP PUSH1 0x20 DUP3 ADD MLOAD DUP2 PUSH1 0x1 ADD SSTORE POP POP POP JUMP JUMPDEST PUSH1 0x60 PUSH1 0x0 DUP1 PUSH1 0x0 JUMPDEST PUSH1 0x0 DUP1 SLOAD SWAP1 POP DUP2 LT ISZERO PUSH2 0x302 JUMPI DUP3 PUSH1 0x0 DUP3 DUP2 SLOAD DUP2 LT PUSH2 0x2AB JUMPI PUSH2 0x2AA PUSH2 0x70A JUMP JUMPDEST JUMPDEST SWAP1 PUSH1 0x0 MSTORE PUSH1 0x20 PUSH1 0x0 KECCAK256 SWAP1 PUSH1 0x2 MUL ADD PUSH1 0x1 ADD SLOAD GT ISZERO PUSH2 0x2EF JUMPI PUSH1 0x0 DUP2 DUP2 SLOAD DUP2 LT PUSH2 0x2D7 JUMPI PUSH2 0x2D6 PUSH2 0x70A JUMP JUMPDEST JUMPDEST SWAP1 PUSH1 0x0 MSTORE PUSH1 0x20 PUSH1 0x0 KECCAK256 SWAP1 PUSH1 0x2 MUL ADD PUSH1 0x1 ADD SLOAD SWAP3 POP DUP1 SWAP2 POP JUMPDEST DUP1 DUP1 PUSH2 0x2FA SWAP1 PUSH2 0xA7A JUMP JUMPDEST SWAP2 POP POP PUSH2 0x289 JUMP JUMPDEST POP PUSH1 0x0 DUP2 DUP2 SLOAD DUP2 LT PUSH2 0x317 JUMPI PUSH2 0x316 PUSH2 0x70A JUMP JUMPDEST JUMPDEST SWAP1 PUSH1 0x0 MSTORE PUSH1 0x20 PUSH1 0x0 KECCAK256 SWAP1 PUSH1 0x2 MUL ADD PUSH1 0x0 ADD DUP1 SLOAD PUSH2 0x333 SWAP1 PUSH2 0x7CB JUMP JUMPDEST DUP1 PUSH1 0x1F ADD PUSH1 0x20 DUP1 SWAP2 DIV MUL PUSH1 0x20 ADD PUSH1 0x40 MLOAD SWAP1 DUP2 ADD PUSH1 0x40 MSTORE DUP1 SWAP3 SWAP2 SWAP1 DUP2 DUP2 MSTORE PUSH1 0x20 ADD DUP3 DUP1 SLOAD PUSH2 0x35F SWAP1 PUSH2 0x7CB JUMP JUMPDEST DUP1 ISZERO PUSH2 0x3AC JUMPI DUP1 PUSH1 0x1F LT PUSH2 0x381 JUMPI PUSH2 0x100 DUP1 DUP4 SLOAD DIV MUL DUP4 MSTORE SWAP2 PUSH1 0x20 ADD SWAP2 PUSH2 0x3AC JUMP JUMPDEST DUP3 ADD SWAP2 SWAP1 PUSH1 0x0 MSTORE PUSH1 0x20 PUSH1 0x0 KECCAK256 SWAP1 JUMPDEST DUP2 SLOAD DUP2 MSTORE SWAP1 PUSH1 0x1 ADD SWAP1 PUSH1 0x20 ADD DUP1 DUP4 GT PUSH2 0x38F JUMPI DUP3 SWAP1 SUB PUSH1 0x1F AND DUP3 ADD SWAP2 JUMPDEST POP POP POP POP POP SWAP3 POP POP POP SWAP1 JUMP JUMPDEST PUSH1 0x0 PUSH1 0x40 MLOAD SWAP1 POP SWAP1 JUMP JUMPDEST PUSH1 0x0 DUP1 REVERT JUMPDEST PUSH1 0x0 DUP1 REVERT JUMPDEST PUSH1 0x0 DUP2 SWAP1 POP SWAP2 SWAP1 POP JUMP JUMPDEST PUSH2 0x3DF DUP2 PUSH2 0x3CC JUMP JUMPDEST DUP2 EQ PUSH2 0x3EA JUMPI PUSH1 0x0 DUP1 REVERT JUMPDEST POP JUMP JUMPDEST PUSH1 0x0 DUP2 CALLDATALOAD SWAP1 POP PUSH2 0x3FC DUP2 PUSH2 0x3D6 JUMP JUMPDEST SWAP3 SWAP2 POP POP JUMP JUMPDEST PUSH1 0x0 PUSH1 0x20 DUP3 DUP5 SUB SLT ISZERO PUSH2 0x418 JUMPI PUSH2 0x417 PUSH2 0x3C2 JUMP JUMPDEST JUMPDEST PUSH1 0x0 PUSH2 0x426 DUP5 DUP3 DUP6 ADD PUSH2 0x3ED JUMP JUMPDEST SWAP2 POP POP SWAP3 SWAP2 POP POP JUMP JUMPDEST PUSH1 0x0 DUP2 MLOAD SWAP1 POP SWAP2 SWAP1 POP JUMP JUMPDEST PUSH1 0x0 DUP3 DUP3 MSTORE PUSH1 0x20 DUP3 ADD SWAP1 POP SWAP3 SWAP2 POP POP JUMP JUMPDEST PUSH1 0x0 JUMPDEST DUP4 DUP2 LT ISZERO PUSH2 0x469 JUMPI DUP1 DUP3 ADD MLOAD DUP2 DUP5 ADD MSTORE PUSH1 0x20 DUP2 ADD SWAP1 POP PUSH2 0x44E JUMP JUMPDEST PUSH1 0x0 DUP5 DUP5 ADD MSTORE POP POP POP POP JUMP JUMPDEST PUSH1 0x0 PUSH1 0x1F NOT PUSH1 0x1F DUP4 ADD AND SWAP1 POP SWAP2 SWAP1 POP JUMP JUMPDEST PUSH1 0x0 PUSH2 0x491 DUP3 PUSH2 0x42F JUMP JUMPDEST PUSH2 0x49B DUP2 DUP6 PUSH2 0x43A JUMP JUMPDEST SWAP4 POP PUSH2 0x4AB DUP2 DUP6 PUSH1 0x20 DUP7 ADD PUSH2 0x44B JUMP JUMPDEST PUSH2 0x4B4 DUP2 PUSH2 0x475 JUMP JUMPDEST DUP5 ADD SWAP2 POP POP SWAP3 SWAP2 POP POP JUMP JUMPDEST PUSH2 0x4C8 DUP2 PUSH2 0x3CC JUMP JUMPDEST DUP3 MSTORE POP POP JUMP JUMPDEST PUSH1 0x0 PUSH1 0x40 DUP3 ADD SWAP1 POP DUP2 DUP2 SUB PUSH1 0x0 DUP4 ADD MSTORE PUSH2 0x4E8 DUP2 DUP6 PUSH2 0x486 JUMP JUMPDEST SWAP1 POP PUSH2 0x4F7 PUSH1 0x20 DUP4 ADD DUP5 PUSH2 0x4BF JUMP JUMPDEST SWAP4 SWAP3 POP POP POP JUMP JUMPDEST PUSH1 0x0 DUP1 REVERT JUMPDEST PUSH1 0x0 DUP1 REVERT JUMPDEST PUSH32 0x4E487B7100000000000000000000000000000000000000000000000000000000 PUSH1 0x0 MSTORE PUSH1 0x41 PUSH1 0x4 MSTORE PUSH1 0x24 PUSH1 0x0 REVERT JUMPDEST PUSH2 0x540 DUP3 PUSH2 0x475 JUMP JUMPDEST DUP2 ADD DUP2 DUP2 LT PUSH8 0xFFFFFFFFFFFFFFFF DUP3 GT OR ISZERO PUSH2 0x55F JUMPI PUSH2 0x55E PUSH2 0x508 JUMP JUMPDEST JUMPDEST DUP1 PUSH1 0x40 MSTORE POP POP POP JUMP JUMPDEST PUSH1 0x0 PUSH2 0x572 PUSH2 0x3B8 JUMP JUMPDEST SWAP1 POP PUSH2 0x57E DUP3 DUP3 PUSH2 0x537 JUMP JUMPDEST SWAP2 SWAP1 POP JUMP JUMPDEST PUSH1 0x0 PUSH8 0xFFFFFFFFFFFFFFFF DUP3 GT ISZERO PUSH2 0x59E JUMPI PUSH2 0x59D PUSH2 0x508 JUMP JUMPDEST JUMPDEST PUSH2 0x5A7 DUP3 PUSH2 0x475 JUMP JUMPDEST SWAP1 POP PUSH1 0x20 DUP2 ADD SWAP1 POP SWAP2 SWAP1 POP JUMP JUMPDEST DUP3 DUP2 DUP4 CALLDATACOPY PUSH1 0x0 DUP4 DUP4 ADD MSTORE POP POP POP JUMP JUMPDEST PUSH1 0x0 PUSH2 0x5D6 PUSH2 0x5D1 DUP5 PUSH2 0x583 JUMP JUMPDEST PUSH2 0x568 JUMP JUMPDEST SWAP1 POP DUP3 DUP2 MSTORE PUSH1 0x20 DUP2 ADD DUP5 DUP5 DUP5 ADD GT ISZERO PUSH2 0x5F2 JUMPI PUSH2 0x5F1 PUSH2 0x503 JUMP JUMPDEST JUMPDEST PUSH2 0x5FD DUP5 DUP3 DUP6 PUSH2 0x5B4 JUMP JUMPDEST POP SWAP4 SWAP3 POP POP POP JUMP JUMPDEST PUSH1 0x0 DUP3 PUSH1 0x1F DUP4 ADD SLT PUSH2 0x61A JUMPI PUSH2 0x619 PUSH2 0x4FE JUMP JUMPDEST JUMPDEST DUP2 CALLDATALOAD PUSH2 0x62A DUP5 DUP3 PUSH1 0x20 DUP7 ADD PUSH2 0x5C3 JUMP JUMPDEST SWAP2 POP POP SWAP3 SWAP2 POP POP JUMP JUMPDEST PUSH1 0x0 PUSH1 0x20 DUP3 DUP5 SUB SLT ISZERO PUSH2 0x649 JUMPI PUSH2 0x648 PUSH2 0x3C2 JUMP JUMPDEST JUMPDEST PUSH1 0x0 DUP3 ADD CALLDATALOAD PUSH8 0xFFFFFFFFFFFFFFFF DUP2 GT ISZERO PUSH2 0x667 JUMPI PUSH2 0x666 PUSH2 0x3C7 JUMP JUMPDEST JUMPDEST PUSH2 0x673 DUP5 DUP3 DUP6 ADD PUSH2 0x605 JUMP JUMPDEST SWAP2 POP POP SWAP3 SWAP2 POP POP JUMP JUMPDEST PUSH1 0x0 PUSH1 0x20 DUP3 ADD SWAP1 POP DUP2 DUP2 SUB PUSH1 0x0 DUP4 ADD MSTORE PUSH2 0x696 DUP2 DUP5 PUSH2 0x486 JUMP JUMPDEST SWAP1 POP SWAP3 SWAP2 POP POP JUMP JUMPDEST PUSH32 0x496E76616C69642063616E64696461746520696E646578000000000000000000 PUSH1 0x0 DUP3 ADD MSTORE POP JUMP JUMPDEST PUSH1 0x0 PUSH2 0x6D4 PUSH1 0x17 DUP4 PUSH2 0x43A JUMP JUMPDEST SWAP2 POP PUSH2 0x6DF DUP3 PUSH2 0x69E JUMP JUMPDEST PUSH1 0x20 DUP3 ADD SWAP1 POP SWAP2 SWAP1 POP JUMP JUMPDEST PUSH1 0x0 PUSH1 0x20 DUP3 ADD SWAP1 POP DUP2 DUP2 SUB PUSH1 0x0 DUP4 ADD MSTORE PUSH2 0x703 DUP2 PUSH2 0x6C7 JUMP JUMPDEST SWAP1 POP SWAP2 SWAP1 POP JUMP JUMPDEST PUSH32 0x4E487B7100000000000000000000000000000000000000000000000000000000 PUSH1 0x0 MSTORE PUSH1 0x32 PUSH1 0x4 MSTORE PUSH1 0x24 PUSH1 0x0 REVERT JUMPDEST PUSH32 0x4E487B7100000000000000000000000000000000000000000000000000000000 PUSH1 0x0 MSTORE PUSH1 0x11 PUSH1 0x4 MSTORE PUSH1 0x24 PUSH1 0x0 REVERT JUMPDEST PUSH1 0x0 PUSH2 0x773 DUP3 PUSH2 0x3CC JUMP JUMPDEST SWAP2 POP PUSH2 0x77E DUP4 PUSH2 0x3CC JUMP JUMPDEST SWAP3 POP DUP3 DUP3 ADD SWAP1 POP DUP1 DUP3 GT ISZERO PUSH2 0x796 JUMPI PUSH2 0x795 PUSH2 0x739 JUMP JUMPDEST JUMPDEST SWAP3 SWAP2 POP POP JUMP JUMPDEST PUSH32 0x4E487B7100000000000000000000000000000000000000000000000000000000 PUSH1 0x0 MSTORE PUSH1 0x22 PUSH1 0x4 MSTORE PUSH1 0x24 PUSH1 0x0 REVERT JUMPDEST PUSH1 0x0 PUSH1 0x2 DUP3 DIV SWAP1 POP PUSH1 0x1 DUP3 AND DUP1 PUSH2 0x7E3 JUMPI PUSH1 0x7F DUP3 AND SWAP2 POP JUMPDEST PUSH1 0x20 DUP3 LT DUP2 SUB PUSH2 0x7F6 JUMPI PUSH2 0x7F5 PUSH2 0x79C JUMP JUMPDEST JUMPDEST POP SWAP2 SWAP1 POP JUMP JUMPDEST PUSH1 0x0 DUP2 SWAP1 POP DUP2 PUSH1 0x0 MSTORE PUSH1 0x20 PUSH1 0x0 KECCAK256 SWAP1 POP SWAP2 SWAP1 POP JUMP JUMPDEST PUSH1 0x0 PUSH1 0x20 PUSH1 0x1F DUP4 ADD DIV SWAP1 POP SWAP2 SWAP1 POP JUMP JUMPDEST PUSH1 0x0 DUP3 DUP3 SHL SWAP1 POP SWAP3 SWAP2 POP POP JUMP JUMPDEST PUSH1 0x0 PUSH1 0x8 DUP4 MUL PUSH2 0x85E PUSH32 0xFFFFFFFFFFFFFFFFFFFFFFFFFFFFFFFFFFFFFFFFFFFFFFFFFFFFFFFFFFFFFFFF DUP3 PUSH2 0x821 JUMP JUMPDEST PUSH2 0x868 DUP7 DUP4 PUSH2 0x821 JUMP JUMPDEST SWAP6 POP DUP1 NOT DUP5 AND SWAP4 POP DUP1 DUP7 AND DUP5 OR SWAP3 POP POP POP SWAP4 SWAP3 POP POP POP JUMP JUMPDEST PUSH1 0x0 DUP2 SWAP1 POP SWAP2 SWAP1 POP JUMP JUMPDEST PUSH1 0x0 PUSH2 0x8A5 PUSH2 0x8A0 PUSH2 0x89B DUP5 PUSH2 0x3CC JUMP JUMPDEST PUSH2 0x880 JUMP JUMPDEST PUSH2 0x3CC JUMP JUMPDEST SWAP1 POP SWAP2 SWAP1 POP JUMP JUMPDEST PUSH1 0x0 DUP2 SWAP1 POP SWAP2 SWAP1 POP JUMP JUMPDEST PUSH2 0x8BF DUP4 PUSH2 0x88A JUMP JUMPDEST PUSH2 0x8D3 PUSH2 0x8CB DUP3 PUSH2 0x8AC JUMP JUMPDEST DUP5 DUP5 SLOAD PUSH2 0x82E JUMP JUMPDEST DUP3 SSTORE POP POP POP POP JUMP JUMPDEST PUSH1 0x0 SWAP1 JUMP JUMPDEST PUSH2 0x8E8 PUSH2 0x8DB JUMP JUMPDEST PUSH2 0x8F3 DUP2 DUP5 DUP5 PUSH2 0x8B6 JUMP JUMPDEST POP POP POP JUMP JUMPDEST JUMPDEST DUP2 DUP2 LT ISZERO PUSH2 0x917 JUMPI PUSH2 0x90C PUSH1 0x0 DUP3 PUSH2 0x8E0 JUMP JUMPDEST PUSH1 0x1 DUP2 ADD SWAP1 POP PUSH2 0x8F9 JUMP JUMPDEST POP POP JUMP JUMPDEST PUSH1 0x1F DUP3 GT ISZERO PUSH2 0x95C JUMPI PUSH2 0x92D DUP2 PUSH2 0x7FC JUMP JUMPDEST PUSH2 0x936 DUP5 PUSH2 0x811 JUMP JUMPDEST DUP2 ADD PUSH1 0x20 DUP6 LT ISZERO PUSH2 0x945 JUMPI DUP2 SWAP1 POP JUMPDEST PUSH2 0x959 PUSH2 0x951 DUP6 PUSH2 0x811 JUMP JUMPDEST DUP4 ADD DUP3 PUSH2 0x8F8 JUMP JUMPDEST POP POP JUMPDEST POP POP POP JUMP JUMPDEST PUSH1 0x0 DUP3 DUP3 SHR SWAP1 POP SWAP3 SWAP2 POP POP JUMP JUMPDEST PUSH1 0x0 PUSH2 0x97F PUSH1 0x0 NOT DUP5 PUSH1 0x8 MUL PUSH2 0x961 JUMP JUMPDEST NOT DUP1 DUP4 AND SWAP2 POP POP SWAP3 SWAP2 POP POP JUMP JUMPDEST PUSH1 0x0 PUSH2 0x998 DUP4 DUP4 PUSH2 0x96E JUMP JUMPDEST SWAP2 POP DUP3 PUSH1 0x2 MUL DUP3 OR SWAP1 POP SWAP3 SWAP2 POP POP JUMP JUMPDEST PUSH2 0x9B1 DUP3 PUSH2 0x42F JUMP JUMPDEST PUSH8 0xFFFFFFFFFFFFFFFF DUP2 GT ISZERO PUSH2 0x9CA JUMPI PUSH2 0x9C9 PUSH2 0x508 JUMP JUMPDEST JUMPDEST PUSH2 0x9D4 DUP3 SLOAD PUSH2 0x7CB JUMP JUMPDEST PUSH2 0x9DF DUP3 DUP3 DUP6 PUSH2 0x91B JUMP JUMPDEST PUSH1 0x0 PUSH1 0x20 SWAP1 POP PUSH1 0x1F DUP4 GT PUSH1 0x1 DUP2 EQ PUSH2 0xA12 JUMPI PUSH1 0x0 DUP5 ISZERO PUSH2 0xA00 JUMPI DUP3 DUP8 ADD MLOAD SWAP1 POP JUMPDEST PUSH2 0xA0A DUP6 DUP3 PUSH2 0x98C JUMP JUMPDEST DUP7 SSTORE POP PUSH2 0xA72 JUMP JUMPDEST PUSH1 0x1F NOT DUP5 AND PUSH2 0xA20 DUP7 PUSH2 0x7FC JUMP JUMPDEST PUSH1 0x0 JUMPDEST DUP3 DUP2 LT ISZERO PUSH2 0xA48 JUMPI DUP5 DUP10 ADD MLOAD DUP3 SSTORE PUSH1 0x1 DUP3 ADD SWAP2 POP PUSH1 0x20 DUP6 ADD SWAP5 POP PUSH1 0x20 DUP2 ADD SWAP1 POP PUSH2 0xA23 JUMP JUMPDEST DUP7 DUP4 LT ISZERO PUSH2 0xA65 JUMPI DUP5 DUP10 ADD MLOAD PUSH2 0xA61 PUSH1 0x1F DUP10 AND DUP3 PUSH2 0x96E JUMP JUMPDEST DUP4 SSTORE POP JUMPDEST PUSH1 0x1 PUSH1 0x2 DUP9 MUL ADD DUP9 SSTORE POP POP POP JUMPDEST POP POP POP POP POP POP JUMP JUMPDEST PUSH1 0x0 PUSH2 0xA85 DUP3 PUSH2 0x3CC JUMP JUMPDEST SWAP2 POP PUSH32 0xFFFFFFFFFFFFFFFFFFFFFFFFFFFFFFFFFFFFFFFFFFFFFFFFFFFFFFFFFFFFFFFF DUP3 SUB PUSH2 0xAB7 JUMPI PUSH2 0xAB6 PUSH2 0x739 JUMP JUMPDEST JUMPDEST PUSH1 0x1 DUP3 ADD SWAP1 POP SWAP2 SWAP1 POP JUMP INVALID LOG2 PUSH5 0x6970667358 0x22 SLT KECCAK256 SDIV DUP5 0xC1 LOG4 SWAP2 PC 0x28 0x2D 0xE6 DUP5 0x27 PUSH15 0xBEE675348E0AFA99F1F989951AA1D1 BASEFEE NOT 0xB3 0xD1 DUP4 PUSH5 0x736F6C6343 STOP ADDMOD SLT STOP CALLER "
				},
				"gasEstimates": {
					"creation": {
						"codeDepositCost": "561600",
						"executionCost": "594",
						"totalCost": "562194"
					},
					"external": {
						"addCandidate(string)": "infinite",
						"candidates(uint256)": "infinite",
						"getWinner()": "infinite",
						"vote(uint256)": "infinite"
					}
				},
				"methodIdentifiers": {
					"addCandidate(string)": "462e91ec",
					"candidates(uint256)": "3477ee2e",
					"getWinner()": "8e7ea5b2",
					"vote(uint256)": "0121b93f"
				}
			},
			"storageLayout": {
				"storage": [
					{
						"astId": 10,
						"contract": "Project/voting_system.sol:VotingSystem",
						"label": "candidates",
						"offset": 0,
						"slot": "0",
						"type": "t_array(t_struct(Candidate)6_storage)dyn_storage"
					}
				],
				"types": {
					"t_array(t_struct(Candidate)6_storage)dyn_storage": {
						"base": "t_struct(Candidate)6_storage",
						"encoding": "dynamic_array",
						"label": "struct VotingSystem.Candidate[]",
						"numberOfBytes": "32"
					},
					"t_string_storage": {
						"encoding": "bytes",
						"label": "string",
						"numberOfBytes": "32"
					},
					"t_struct(Candidate)6_storage": {
						"encoding": "inplace",
						"label": "struct VotingSystem.Candidate",
						"members": [
							{
								"astId": 3,
								"contract": "Project/voting_system.sol:VotingSystem",
								"label": "name",
								"offset": 0,
								"slot": "0",
								"type": "t_string_storage"
							},
							{
								"astId": 5,
								"contract": "Project/voting_system.sol:VotingSystem",
								"label": "voteCount",
								"offset": 0,
								"slot": "1",
								"type": "t_uint256"
							}
						],
						"numberOfBytes": "64"
					},
					"t_uint256": {
						"encoding": "inplace",
						"label": "uint256",
						"numberOfBytes": "32"
					}
				}
			},
			"userdoc": {
				"kind": "user",
				"methods": {},
				"version": 1
			}
		}
	}
}