{
	"Project/banking.sol": {
		"MyContract": {
			"abi": [
				{
					"inputs": [],
					"stateMutability": "nonpayable",
					"type": "constructor"
				},
				{
					"stateMutability": "payable",
					"type": "fallback"
				},
				{
					"inputs": [
						{
							"internalType": "address payable",
							"name": "account",
							"type": "address"
						},
						{
							"internalType": "uint256",
							"name": "amount",
							"type": "uint256"
						},
						{
							"internalType": "uint256",
							"name": "month",
							"type": "uint256"
						},
						{
							"internalType": "string",
							"name": "_input",
							"type": "string"
						}
					],
					"name": "Loan",
					"outputs": [],
					"stateMutability": "payable",
					"type": "function"
				},
				{
					"inputs": [],
					"name": "addFund",
					"outputs": [],
					"stateMutability": "payable",
					"type": "function"
				},
				{
					"inputs": [
						{
							"internalType": "address",
							"name": "account",
							"type": "address"
						}
					],
					"name": "carLoanDetails",
					"outputs": [
						{
							"internalType": "uint256",
							"name": "loanAmount",
							"type": "uint256"
						},
						{
							"internalType": "uint256",
							"name": "montlyEmi",
							"type": "uint256"
						},
						{
							"internalType": "uint256",
							"name": "timeperiod",
							"type": "uint256"
						}
					],
					"stateMutability": "view",
					"type": "function"
				},
				{
					"inputs": [
						{
							"internalType": "address payable",
							"name": "account",
							"type": "address"
						},
						{
							"internalType": "uint256",
							"name": "amount",
							"type": "uint256"
						}
					],
					"name": "deposit",
					"outputs": [],
					"stateMutability": "payable",
					"type": "function"
				},
				{
					"inputs": [],
					"name": "getContractBalance",
					"outputs": [
						{
							"internalType": "uint256",
							"name": "",
							"type": "uint256"
						}
					],
					"stateMutability": "view",
					"type": "function"
				},
				{
					"inputs": [
						{
							"internalType": "address",
							"name": "account",
							"type": "address"
						}
					],
					"name": "homeLoanDetails",
					"outputs": [
						{
							"internalType": "uint256",
							"name": "loanAmount",
							"type": "uint256"
						},
						{
							"internalType": "uint256",
							"name": "montlyEmi",
							"type": "uint256"
						},
						{
							"internalType": "uint256",
							"name": "timeperiod",
							"type": "uint256"
						}
					],
					"stateMutability": "view",
					"type": "function"
				},
				{
					"inputs": [
						{
							"internalType": "address payable",
							"name": "account",
							"type": "address"
						},
						{
							"internalType": "string",
							"name": "_input",
							"type": "string"
						}
					],
					"name": "payEmi",
					"outputs": [],
					"stateMutability": "nonpayable",
					"type": "function"
				},
				{
					"inputs": [
						{
							"internalType": "address",
							"name": "account",
							"type": "address"
						}
					],
					"name": "personalLoanDetails",
					"outputs": [
						{
							"internalType": "uint256",
							"name": "loanAmount",
							"type": "uint256"
						},
						{
							"internalType": "uint256",
							"name": "montlyEmi",
							"type": "uint256"
						},
						{
							"internalType": "uint256",
							"name": "timeperiod",
							"type": "uint256"
						}
					],
					"stateMutability": "view",
					"type": "function"
				},
				{
					"inputs": [],
					"name": "u1",
					"outputs": [
						{
							"internalType": "address",
							"name": "user_id",
							"type": "address"
						},
						{
							"internalType": "uint256",
							"name": "balance",
							"type": "uint256"
						},
						{
							"internalType": "uint256",
							"name": "carLoan",
							"type": "uint256"
						},
						{
							"internalType": "uint256",
							"name": "homeLoan",
							"type": "uint256"
						},
						{
							"internalType": "uint256",
							"name": "personalLoan",
							"type": "uint256"
						},
						{
							"internalType": "uint256",
							"name": "carEmi",
							"type": "uint256"
						},
						{
							"internalType": "uint256",
							"name": "homeEmi",
							"type": "uint256"
						},
						{
							"internalType": "uint256",
							"name": "personalLoanEmi",
							"type": "uint256"
						},
						{
							"internalType": "uint256",
							"name": "carLoanTimeperiod",
							"type": "uint256"
						},
						{
							"internalType": "uint256",
							"name": "homeLoanTimeperiod",
							"type": "uint256"
						},
						{
							"internalType": "uint256",
							"name": "personalLoanTimeperiod",
							"type": "uint256"
						},
						{
							"internalType": "uint256",
							"name": "timestamp",
							"type": "uint256"
						}
					],
					"stateMutability": "view",
					"type": "function"
				},
				{
					"inputs": [
						{
							"internalType": "address",
							"name": "",
							"type": "address"
						}
					],
					"name": "users",
					"outputs": [
						{
							"internalType": "address",
							"name": "user_id",
							"type": "address"
						},
						{
							"internalType": "uint256",
							"name": "balance",
							"type": "uint256"
						},
						{
							"internalType": "uint256",
							"name": "carLoan",
							"type": "uint256"
						},
						{
							"internalType": "uint256",
							"name": "homeLoan",
							"type": "uint256"
						},
						{
							"internalType": "uint256",
							"name": "personalLoan",
							"type": "uint256"
						},
						{
							"internalType": "uint256",
							"name": "carEmi",
							"type": "uint256"
						},
						{
							"internalType": "uint256",
							"name": "homeEmi",
							"type": "uint256"
						},
						{
							"internalType": "uint256",
							"name": "personalLoanEmi",
							"type": "uint256"
						},
						{
							"internalType": "uint256",
							"name": "carLoanTimeperiod",
							"type": "uint256"
						},
						{
							"internalType": "uint256",
							"name": "homeLoanTimeperiod",
							"type": "uint256"
						},
						{
							"internalType": "uint256",
							"name": "personalLoanTimeperiod",
							"type": "uint256"
						},
						{
							"internalType": "uint256",
							"name": "timestamp",
							"type": "uint256"
						}
					],
					"stateMutability": "view",
					"type": "function"
				},
				{
					"inputs": [
						{
							"internalType": "address payable",
							"name": "account",
							"type": "address"
						},
						{
							"internalType": "uint256",
							"name": "amount",
							"type": "uint256"
						}
					],
					"name": "withdraw",
					"outputs": [],
					"stateMutability": "nonpayable",
					"type": "function"
				},
				{
					"stateMutability": "payable",
					"type": "receive"
				}
			],
			"devdoc": {
				"kind": "dev",
				"methods": {},
				"version": 1
			},
			"evm": {
				"assembly": "    /* \"Project/banking.sol\":69:10453  contract MyContract {... */\n  mstore(0x40, 0x80)\n    /* \"Project/banking.sol\":663:712  constructor() {... */\n  callvalue\n  dup1\n  iszero\n  tag_1\n  jumpi\n  0x00\n  dup1\n  revert\ntag_1:\n  pop\n    /* \"Project/banking.sol\":695:705  msg.sender */\n  caller\n    /* \"Project/banking.sol\":687:692  admin */\n  0x0c\n  0x00\n    /* \"Project/banking.sol\":687:705  admin = msg.sender */\n  0x0100\n  exp\n  dup2\n  sload\n  dup2\n  0xffffffffffffffffffffffffffffffffffffffff\n  mul\n  not\n  and\n  swap1\n  dup4\n  0xffffffffffffffffffffffffffffffffffffffff\n  and\n  mul\n  or\n  swap1\n  sstore\n  pop\n    /* \"Project/banking.sol\":69:10453  contract MyContract {... */\n  dataSize(sub_0)\n  dup1\n  dataOffset(sub_0)\n  0x00\n  codecopy\n  0x00\n  return\nstop\n\nsub_0: assembly {\n        /* \"Project/banking.sol\":69:10453  contract MyContract {... */\n      mstore(0x40, 0x80)\n      jumpi(tag_1, lt(calldatasize, 0x04))\n      shr(0xe0, calldataload(0x00))\n      dup1\n      0x91341de3\n      gt\n      tag_14\n      jumpi\n      dup1\n      0x91341de3\n      eq\n      tag_8\n      jumpi\n      dup1\n      0x9283ea63\n      eq\n      tag_9\n      jumpi\n      dup1\n      0xa2f09dfa\n      eq\n      tag_10\n      jumpi\n      dup1\n      0xa87430ba\n      eq\n      tag_11\n      jumpi\n      dup1\n      0xd77799a5\n      eq\n      tag_12\n      jumpi\n      dup1\n      0xf3fef3a3\n      eq\n      tag_13\n      jumpi\n      jump(tag_2)\n    tag_14:\n      dup1\n      0x1aa35610\n      eq\n      tag_3\n      jumpi\n      dup1\n      0x47e7ef24\n      eq\n      tag_4\n      jumpi\n      dup1\n      0x65d6d088\n      eq\n      tag_5\n      jumpi\n      dup1\n      0x6f9fb98a\n      eq\n      tag_6\n      jumpi\n      dup1\n      0x8172aa0a\n      eq\n      tag_7\n      jumpi\n      jump(tag_2)\n    tag_1:\n      jumpi(tag_2, calldatasize)\n      stop\n    tag_2:\n      stop\n        /* \"Project/banking.sol\":470:484  user public u1 */\n    tag_3:\n      callvalue\n      dup1\n      iszero\n      tag_19\n      jumpi\n      0x00\n      dup1\n      revert\n    tag_19:\n      pop\n      tag_20\n      tag_21\n      jump\t// in\n    tag_20:\n      mload(0x40)\n      tag_22\n      swap13\n      swap12\n      swap11\n      swap10\n      swap9\n      swap8\n      swap7\n      swap6\n      swap5\n      swap4\n      swap3\n      swap2\n      swap1\n      tag_23\n      jump\t// in\n    tag_22:\n      mload(0x40)\n      dup1\n      swap2\n      sub\n      swap1\n      return\n        /* \"Project/banking.sol\":1050:1824  function deposit(address payable account, uint256 amount) public payable {... */\n    tag_4:\n      tag_24\n      0x04\n      dup1\n      calldatasize\n      sub\n      dup2\n      add\n      swap1\n      tag_25\n      swap2\n      swap1\n      tag_26\n      jump\t// in\n    tag_25:\n      tag_27\n      jump\t// in\n    tag_24:\n      stop\n        /* \"Project/banking.sol\":9233:9650  function carLoanDetails(address account)... */\n    tag_5:\n      callvalue\n      dup1\n      iszero\n      tag_28\n      jumpi\n      0x00\n      dup1\n      revert\n    tag_28:\n      pop\n      tag_29\n      0x04\n      dup1\n      calldatasize\n      sub\n      dup2\n      add\n      swap1\n      tag_30\n      swap2\n      swap1\n      tag_31\n      jump\t// in\n    tag_30:\n      tag_32\n      jump\t// in\n    tag_29:\n      mload(0x40)\n      tag_33\n      swap4\n      swap3\n      swap2\n      swap1\n      tag_34\n      jump\t// in\n    tag_33:\n      mload(0x40)\n      dup1\n      swap2\n      sub\n      swap1\n      return\n        /* \"Project/banking.sol\":9122:9227  function getContractBalance() public view returns (uint256) {... */\n    tag_6:\n      callvalue\n      dup1\n      iszero\n      tag_35\n      jumpi\n      0x00\n      dup1\n      revert\n    tag_35:\n      pop\n      tag_36\n      tag_37\n      jump\t// in\n    tag_36:\n      mload(0x40)\n      tag_38\n      swap2\n      swap1\n      tag_39\n      jump\t// in\n    tag_38:\n      mload(0x40)\n      dup1\n      swap2\n      sub\n      swap1\n      return\n        /* \"Project/banking.sol\":10083:10451  function personalLoanDetails(address account)public view returns (uint256 loanAmount,uint256 montlyEmi,uint256 timeperiod)... */\n    tag_7:\n      callvalue\n      dup1\n      iszero\n      tag_40\n      jumpi\n      0x00\n      dup1\n      revert\n    tag_40:\n      pop\n      tag_41\n      0x04\n      dup1\n      calldatasize\n      sub\n      dup2\n      add\n      swap1\n      tag_42\n      swap2\n      swap1\n      tag_31\n      jump\t// in\n    tag_42:\n      tag_43\n      jump\t// in\n    tag_41:\n      mload(0x40)\n      tag_44\n      swap4\n      swap3\n      swap2\n      swap1\n      tag_34\n      jump\t// in\n    tag_44:\n      mload(0x40)\n      dup1\n      swap2\n      sub\n      swap1\n      return\n        /* \"Project/banking.sol\":6105:9116  function payEmi(address payable account, string memory _input) public {... */\n    tag_8:\n      callvalue\n      dup1\n      iszero\n      tag_45\n      jumpi\n      0x00\n      dup1\n      revert\n    tag_45:\n      pop\n      tag_46\n      0x04\n      dup1\n      calldatasize\n      sub\n      dup2\n      add\n      swap1\n      tag_47\n      swap2\n      swap1\n      tag_48\n      jump\t// in\n    tag_47:\n      tag_49\n      jump\t// in\n    tag_46:\n      stop\n        /* \"Project/banking.sol\":1830:5210  function Loan(... */\n    tag_9:\n      tag_50\n      0x04\n      dup1\n      calldatasize\n      sub\n      dup2\n      add\n      swap1\n      tag_51\n      swap2\n      swap1\n      tag_52\n      jump\t// in\n    tag_51:\n      tag_53\n      jump\t// in\n    tag_50:\n      stop\n        /* \"Project/banking.sol\":841:1000  function addFund() public payable onlyOwner {... */\n    tag_10:\n      tag_54\n      tag_55\n      jump\t// in\n    tag_54:\n      stop\n        /* \"Project/banking.sol\":1006:1043  mapping(address => user) public users */\n    tag_11:\n      callvalue\n      dup1\n      iszero\n      tag_56\n      jumpi\n      0x00\n      dup1\n      revert\n    tag_56:\n      pop\n      tag_57\n      0x04\n      dup1\n      calldatasize\n      sub\n      dup2\n      add\n      swap1\n      tag_58\n      swap2\n      swap1\n      tag_31\n      jump\t// in\n    tag_58:\n      tag_59\n      jump\t// in\n    tag_57:\n      mload(0x40)\n      tag_60\n      swap13\n      swap12\n      swap11\n      swap10\n      swap9\n      swap8\n      swap7\n      swap6\n      swap5\n      swap4\n      swap3\n      swap2\n      swap1\n      tag_23\n      jump\t// in\n    tag_60:\n      mload(0x40)\n      dup1\n      swap2\n      sub\n      swap1\n      return\n        /* \"Project/banking.sol\":9656:10077  function homeLoanDetails(address account)... */\n    tag_12:\n      callvalue\n      dup1\n      iszero\n      tag_61\n      jumpi\n      0x00\n      dup1\n      revert\n    tag_61:\n      pop\n      tag_62\n      0x04\n      dup1\n      calldatasize\n      sub\n      dup2\n      add\n      swap1\n      tag_63\n      swap2\n      swap1\n      tag_31\n      jump\t// in\n    tag_63:\n      tag_64\n      jump\t// in\n    tag_62:\n      mload(0x40)\n      tag_65\n      swap4\n      swap3\n      swap2\n      swap1\n      tag_34\n      jump\t// in\n    tag_65:\n      mload(0x40)\n      dup1\n      swap2\n      sub\n      swap1\n      return\n        /* \"Project/banking.sol\":5216:6099  function withdraw(address payable account, uint256 amount) public {... */\n    tag_13:\n      callvalue\n      dup1\n      iszero\n      tag_66\n      jumpi\n      0x00\n      dup1\n      revert\n    tag_66:\n      pop\n      tag_67\n      0x04\n      dup1\n      calldatasize\n      sub\n      dup2\n      add\n      swap1\n      tag_68\n      swap2\n      swap1\n      tag_26\n      jump\t// in\n    tag_68:\n      tag_69\n      jump\t// in\n    tag_67:\n      stop\n        /* \"Project/banking.sol\":470:484  user public u1 */\n    tag_21:\n      0x00\n      dup1\n      0x00\n      add\n      0x00\n      swap1\n      sload\n      swap1\n      0x0100\n      exp\n      swap1\n      div\n      0xffffffffffffffffffffffffffffffffffffffff\n      and\n      swap1\n      dup1\n      0x01\n      add\n      sload\n      swap1\n      dup1\n      0x02\n      add\n      sload\n      swap1\n      dup1\n      0x03\n      add\n      sload\n      swap1\n      dup1\n      0x04\n      add\n      sload\n      swap1\n      dup1\n      0x05\n      add\n      sload\n      swap1\n      dup1\n      0x06\n      add\n      sload\n      swap1\n      dup1\n      0x07\n      add\n      sload\n      swap1\n      dup1\n      0x08\n      add\n      sload\n      swap1\n      dup1\n      0x09\n      add\n      sload\n      swap1\n      dup1\n      0x0a\n      add\n      sload\n      swap1\n      dup1\n      0x0b\n      add\n      sload\n      swap1\n      pop\n      dup13\n      jump\t// out\n        /* \"Project/banking.sol\":1050:1824  function deposit(address payable account, uint256 amount) public payable {... */\n    tag_27:\n        /* \"Project/banking.sol\":1160:1161  0 */\n      0x00\n        /* \"Project/banking.sol\":1141:1162  account != address(0) */\n      0xffffffffffffffffffffffffffffffffffffffff\n      and\n        /* \"Project/banking.sol\":1141:1148  account */\n      dup3\n        /* \"Project/banking.sol\":1141:1162  account != address(0) */\n      0xffffffffffffffffffffffffffffffffffffffff\n      and\n      sub\n        /* \"Project/banking.sol\":1133:1194  require(account != address(0), \"zero address is not allowed\") */\n      tag_71\n      jumpi\n      mload(0x40)\n      0x08c379a000000000000000000000000000000000000000000000000000000000\n      dup2\n      mstore\n      0x04\n      add\n      tag_72\n      swap1\n      tag_73\n      jump\t// in\n    tag_72:\n      mload(0x40)\n      dup1\n      swap2\n      sub\n      swap1\n      revert\n    tag_71:\n        /* \"Project/banking.sol\":1222:1223  0 */\n      0x00\n        /* \"Project/banking.sol\":1212:1218  amount */\n      dup2\n        /* \"Project/banking.sol\":1212:1223  amount != 0 */\n      sub\n        /* \"Project/banking.sol\":1204:1251  require(amount != 0, \"please send some amount\") */\n      tag_74\n      jumpi\n      mload(0x40)\n      0x08c379a000000000000000000000000000000000000000000000000000000000\n      dup2\n      mstore\n      0x04\n      add\n      tag_75\n      swap1\n      tag_76\n      jump\t// in\n    tag_75:\n      mload(0x40)\n      dup1\n      swap2\n      sub\n      swap1\n      revert\n    tag_74:\n        /* \"Project/banking.sol\":1287:1293  amount */\n      dup1\n        /* \"Project/banking.sol\":1261:1266  users */\n      0x0d\n        /* \"Project/banking.sol\":1261:1275  users[account] */\n      0x00\n        /* \"Project/banking.sol\":1267:1274  account */\n      dup5\n        /* \"Project/banking.sol\":1261:1275  users[account] */\n      0xffffffffffffffffffffffffffffffffffffffff\n      and\n      0xffffffffffffffffffffffffffffffffffffffff\n      and\n      dup2\n      mstore\n      0x20\n      add\n      swap1\n      dup2\n      mstore\n      0x20\n      add\n      0x00\n      keccak256\n        /* \"Project/banking.sol\":1261:1283  users[account].balance */\n      0x01\n      add\n      0x00\n        /* \"Project/banking.sol\":1261:1293  users[account].balance += amount */\n      dup3\n      dup3\n      sload\n      tag_77\n      swap2\n      swap1\n      tag_78\n      jump\t// in\n    tag_77:\n      swap3\n      pop\n      pop\n      dup2\n      swap1\n      sstore\n      pop\n        /* \"Project/banking.sol\":1320:1817  user(... */\n      mload(0x40)\n      dup1\n      0x0180\n      add\n      0x40\n      mstore\n      dup1\n        /* \"Project/banking.sol\":1338:1343  users */\n      0x0d\n        /* \"Project/banking.sol\":1338:1352  users[account] */\n      0x00\n        /* \"Project/banking.sol\":1344:1351  account */\n      dup6\n        /* \"Project/banking.sol\":1338:1352  users[account] */\n      0xffffffffffffffffffffffffffffffffffffffff\n      and\n      0xffffffffffffffffffffffffffffffffffffffff\n      and\n      dup2\n      mstore\n      0x20\n      add\n      swap1\n      dup2\n      mstore\n      0x20\n      add\n      0x00\n      keccak256\n        /* \"Project/banking.sol\":1338:1360  users[account].user_id */\n      0x00\n      add\n      0x00\n      swap1\n      sload\n      swap1\n      0x0100\n      exp\n      swap1\n      div\n      0xffffffffffffffffffffffffffffffffffffffff\n      and\n        /* \"Project/banking.sol\":1320:1817  user(... */\n      0xffffffffffffffffffffffffffffffffffffffff\n      and\n      dup2\n      mstore\n      0x20\n      add\n        /* \"Project/banking.sol\":1374:1379  users */\n      0x0d\n        /* \"Project/banking.sol\":1374:1388  users[account] */\n      0x00\n        /* \"Project/banking.sol\":1380:1387  account */\n      dup6\n        /* \"Project/banking.sol\":1374:1388  users[account] */\n      0xffffffffffffffffffffffffffffffffffffffff\n      and\n      0xffffffffffffffffffffffffffffffffffffffff\n      and\n      dup2\n      mstore\n      0x20\n      add\n      swap1\n      dup2\n      mstore\n      0x20\n      add\n      0x00\n      keccak256\n        /* \"Project/banking.sol\":1374:1396  users[account].balance */\n      0x01\n      add\n      sload\n        /* \"Project/banking.sol\":1320:1817  user(... */\n      dup2\n      mstore\n      0x20\n      add\n        /* \"Project/banking.sol\":1410:1415  users */\n      0x0d\n        /* \"Project/banking.sol\":1410:1424  users[account] */\n      0x00\n        /* \"Project/banking.sol\":1416:1423  account */\n      dup6\n        /* \"Project/banking.sol\":1410:1424  users[account] */\n      0xffffffffffffffffffffffffffffffffffffffff\n      and\n      0xffffffffffffffffffffffffffffffffffffffff\n      and\n      dup2\n      mstore\n      0x20\n      add\n      swap1\n      dup2\n      mstore\n      0x20\n      add\n      0x00\n      keccak256\n        /* \"Project/banking.sol\":1410:1432  users[account].carLoan */\n      0x02\n      add\n      sload\n        /* \"Project/banking.sol\":1320:1817  user(... */\n      dup2\n      mstore\n      0x20\n      add\n        /* \"Project/banking.sol\":1446:1451  users */\n      0x0d\n        /* \"Project/banking.sol\":1446:1460  users[account] */\n      0x00\n        /* \"Project/banking.sol\":1452:1459  account */\n      dup6\n        /* \"Project/banking.sol\":1446:1460  users[account] */\n      0xffffffffffffffffffffffffffffffffffffffff\n      and\n      0xffffffffffffffffffffffffffffffffffffffff\n      and\n      dup2\n      mstore\n      0x20\n      add\n      swap1\n      dup2\n      mstore\n      0x20\n      add\n      0x00\n      keccak256\n        /* \"Project/banking.sol\":1446:1469  users[account].homeLoan */\n      0x03\n      add\n      sload\n        /* \"Project/banking.sol\":1320:1817  user(... */\n      dup2\n      mstore\n      0x20\n      add\n        /* \"Project/banking.sol\":1483:1488  users */\n      0x0d\n        /* \"Project/banking.sol\":1483:1497  users[account] */\n      0x00\n        /* \"Project/banking.sol\":1489:1496  account */\n      dup6\n        /* \"Project/banking.sol\":1483:1497  users[account] */\n      0xffffffffffffffffffffffffffffffffffffffff\n      and\n      0xffffffffffffffffffffffffffffffffffffffff\n      and\n      dup2\n      mstore\n      0x20\n      add\n      swap1\n      dup2\n      mstore\n      0x20\n      add\n      0x00\n      keccak256\n        /* \"Project/banking.sol\":1483:1510  users[account].personalLoan */\n      0x04\n      add\n      sload\n        /* \"Project/banking.sol\":1320:1817  user(... */\n      dup2\n      mstore\n      0x20\n      add\n        /* \"Project/banking.sol\":1524:1529  users */\n      0x0d\n        /* \"Project/banking.sol\":1524:1538  users[account] */\n      0x00\n        /* \"Project/banking.sol\":1530:1537  account */\n      dup6\n        /* \"Project/banking.sol\":1524:1538  users[account] */\n      0xffffffffffffffffffffffffffffffffffffffff\n      and\n      0xffffffffffffffffffffffffffffffffffffffff\n      and\n      dup2\n      mstore\n      0x20\n      add\n      swap1\n      dup2\n      mstore\n      0x20\n      add\n      0x00\n      keccak256\n        /* \"Project/banking.sol\":1524:1545  users[account].carEmi */\n      0x05\n      add\n      sload\n        /* \"Project/banking.sol\":1320:1817  user(... */\n      dup2\n      mstore\n      0x20\n      add\n        /* \"Project/banking.sol\":1559:1564  users */\n      0x0d\n        /* \"Project/banking.sol\":1559:1573  users[account] */\n      0x00\n        /* \"Project/banking.sol\":1565:1572  account */\n      dup6\n        /* \"Project/banking.sol\":1559:1573  users[account] */\n      0xffffffffffffffffffffffffffffffffffffffff\n      and\n      0xffffffffffffffffffffffffffffffffffffffff\n      and\n      dup2\n      mstore\n      0x20\n      add\n      swap1\n      dup2\n      mstore\n      0x20\n      add\n      0x00\n      keccak256\n        /* \"Project/banking.sol\":1559:1581  users[account].homeEmi */\n      0x06\n      add\n      sload\n        /* \"Project/banking.sol\":1320:1817  user(... */\n      dup2\n      mstore\n      0x20\n      add\n        /* \"Project/banking.sol\":1595:1600  users */\n      0x0d\n        /* \"Project/banking.sol\":1595:1609  users[account] */\n      0x00\n        /* \"Project/banking.sol\":1601:1608  account */\n      dup6\n        /* \"Project/banking.sol\":1595:1609  users[account] */\n      0xffffffffffffffffffffffffffffffffffffffff\n      and\n      0xffffffffffffffffffffffffffffffffffffffff\n      and\n      dup2\n      mstore\n      0x20\n      add\n      swap1\n      dup2\n      mstore\n      0x20\n      add\n      0x00\n      keccak256\n        /* \"Project/banking.sol\":1595:1625  users[account].personalLoanEmi */\n      0x07\n      add\n      sload\n        /* \"Project/banking.sol\":1320:1817  user(... */\n      dup2\n      mstore\n      0x20\n      add\n        /* \"Project/banking.sol\":1639:1644  users */\n      0x0d\n        /* \"Project/banking.sol\":1639:1653  users[account] */\n      0x00\n        /* \"Project/banking.sol\":1645:1652  account */\n      dup6\n        /* \"Project/banking.sol\":1639:1653  users[account] */\n      0xffffffffffffffffffffffffffffffffffffffff\n      and\n      0xffffffffffffffffffffffffffffffffffffffff\n      and\n      dup2\n      mstore\n      0x20\n      add\n      swap1\n      dup2\n      mstore\n      0x20\n      add\n      0x00\n      keccak256\n        /* \"Project/banking.sol\":1639:1671  users[account].carLoanTimeperiod */\n      0x08\n      add\n      sload\n        /* \"Project/banking.sol\":1320:1817  user(... */\n      dup2\n      mstore\n      0x20\n      add\n        /* \"Project/banking.sol\":1685:1690  users */\n      0x0d\n        /* \"Project/banking.sol\":1685:1699  users[account] */\n      0x00\n        /* \"Project/banking.sol\":1691:1698  account */\n      dup6\n        /* \"Project/banking.sol\":1685:1699  users[account] */\n      0xffffffffffffffffffffffffffffffffffffffff\n      and\n      0xffffffffffffffffffffffffffffffffffffffff\n      and\n      dup2\n      mstore\n      0x20\n      add\n      swap1\n      dup2\n      mstore\n      0x20\n      add\n      0x00\n      keccak256\n        /* \"Project/banking.sol\":1685:1718  users[account].homeLoanTimeperiod */\n      0x09\n      add\n      sload\n        /* \"Project/banking.sol\":1320:1817  user(... */\n      dup2\n      mstore\n      0x20\n      add\n        /* \"Project/banking.sol\":1732:1737  users */\n      0x0d\n        /* \"Project/banking.sol\":1732:1746  users[account] */\n      0x00\n        /* \"Project/banking.sol\":1738:1745  account */\n      dup6\n        /* \"Project/banking.sol\":1732:1746  users[account] */\n      0xffffffffffffffffffffffffffffffffffffffff\n      and\n      0xffffffffffffffffffffffffffffffffffffffff\n      and\n      dup2\n      mstore\n      0x20\n      add\n      swap1\n      dup2\n      mstore\n      0x20\n      add\n      0x00\n      keccak256\n        /* \"Project/banking.sol\":1732:1769  users[account].personalLoanTimeperiod */\n      0x0a\n      add\n      sload\n        /* \"Project/banking.sol\":1320:1817  user(... */\n      dup2\n      mstore\n      0x20\n      add\n        /* \"Project/banking.sol\":1783:1788  users */\n      0x0d\n        /* \"Project/banking.sol\":1783:1797  users[account] */\n      0x00\n        /* \"Project/banking.sol\":1789:1796  account */\n      dup6\n        /* \"Project/banking.sol\":1783:1797  users[account] */\n      0xffffffffffffffffffffffffffffffffffffffff\n      and\n      0xffffffffffffffffffffffffffffffffffffffff\n      and\n      dup2\n      mstore\n      0x20\n      add\n      swap1\n      dup2\n      mstore\n      0x20\n      add\n      0x00\n      keccak256\n        /* \"Project/banking.sol\":1783:1807  users[account].timestamp */\n      0x0b\n      add\n      sload\n        /* \"Project/banking.sol\":1320:1817  user(... */\n      dup2\n      mstore\n      pop\n        /* \"Project/banking.sol\":1303:1308  users */\n      0x0d\n        /* \"Project/banking.sol\":1303:1317  users[account] */\n      0x00\n        /* \"Project/banking.sol\":1309:1316  account */\n      dup5\n        /* \"Project/banking.sol\":1303:1317  users[account] */\n      0xffffffffffffffffffffffffffffffffffffffff\n      and\n      0xffffffffffffffffffffffffffffffffffffffff\n      and\n      dup2\n      mstore\n      0x20\n      add\n      swap1\n      dup2\n      mstore\n      0x20\n      add\n      0x00\n      keccak256\n        /* \"Project/banking.sol\":1303:1817  users[account] = user(... */\n      0x00\n      dup3\n      add\n      mload\n      dup2\n      0x00\n      add\n      exp(0x0100, 0x00)\n      dup2\n      sload\n      dup2\n      0xffffffffffffffffffffffffffffffffffffffff\n      mul\n      not\n      and\n      swap1\n      dup4\n      0xffffffffffffffffffffffffffffffffffffffff\n      and\n      mul\n      or\n      swap1\n      sstore\n      pop\n      0x20\n      dup3\n      add\n      mload\n      dup2\n      0x01\n      add\n      sstore\n      0x40\n      dup3\n      add\n      mload\n      dup2\n      0x02\n      add\n      sstore\n      0x60\n      dup3\n      add\n      mload\n      dup2\n      0x03\n      add\n      sstore\n      0x80\n      dup3\n      add\n      mload\n      dup2\n      0x04\n      add\n      sstore\n      0xa0\n      dup3\n      add\n      mload\n      dup2\n      0x05\n      add\n      sstore\n      0xc0\n      dup3\n      add\n      mload\n      dup2\n      0x06\n      add\n      sstore\n      0xe0\n      dup3\n      add\n      mload\n      dup2\n      0x07\n      add\n      sstore\n      0x0100\n      dup3\n      add\n      mload\n      dup2\n      0x08\n      add\n      sstore\n      0x0120\n      dup3\n      add\n      mload\n      dup2\n      0x09\n      add\n      sstore\n      0x0140\n      dup3\n      add\n      mload\n      dup2\n      0x0a\n      add\n      sstore\n      0x0160\n      dup3\n      add\n      mload\n      dup2\n      0x0b\n      add\n      sstore\n      swap1\n      pop\n      pop\n        /* \"Project/banking.sol\":1050:1824  function deposit(address payable account, uint256 amount) public payable {... */\n      pop\n      pop\n      jump\t// out\n        /* \"Project/banking.sol\":9233:9650  function carLoanDetails(address account)... */\n    tag_32:\n        /* \"Project/banking.sol\":9332:9350  uint256 loanAmount */\n      0x00\n        /* \"Project/banking.sol\":9364:9381  uint256 montlyEmi */\n      dup1\n        /* \"Project/banking.sol\":9395:9413  uint256 timeperiod */\n      0x00\n        /* \"Project/banking.sol\":9465:9466  0 */\n      dup1\n        /* \"Project/banking.sol\":9446:9467  account != address(0) */\n      0xffffffffffffffffffffffffffffffffffffffff\n      and\n        /* \"Project/banking.sol\":9446:9453  account */\n      dup5\n        /* \"Project/banking.sol\":9446:9467  account != address(0) */\n      0xffffffffffffffffffffffffffffffffffffffff\n      and\n      sub\n        /* \"Project/banking.sol\":9438:9499  require(account != address(0), \"zero address is not allowed\") */\n      tag_80\n      jumpi\n      mload(0x40)\n      0x08c379a000000000000000000000000000000000000000000000000000000000\n      dup2\n      mstore\n      0x04\n      add\n      tag_81\n      swap1\n      tag_73\n      jump\t// in\n    tag_81:\n      mload(0x40)\n      dup1\n      swap2\n      sub\n      swap1\n      revert\n    tag_80:\n        /* \"Project/banking.sol\":9530:9535  users */\n      0x0d\n        /* \"Project/banking.sol\":9530:9544  users[account] */\n      0x00\n        /* \"Project/banking.sol\":9536:9543  account */\n      dup6\n        /* \"Project/banking.sol\":9530:9544  users[account] */\n      0xffffffffffffffffffffffffffffffffffffffff\n      and\n      0xffffffffffffffffffffffffffffffffffffffff\n      and\n      dup2\n      mstore\n      0x20\n      add\n      swap1\n      dup2\n      mstore\n      0x20\n      add\n      0x00\n      keccak256\n        /* \"Project/banking.sol\":9530:9552  users[account].carLoan */\n      0x02\n      add\n      sload\n        /* \"Project/banking.sol\":9566:9571  users */\n      0x0d\n        /* \"Project/banking.sol\":9566:9580  users[account] */\n      0x00\n        /* \"Project/banking.sol\":9572:9579  account */\n      dup7\n        /* \"Project/banking.sol\":9566:9580  users[account] */\n      0xffffffffffffffffffffffffffffffffffffffff\n      and\n      0xffffffffffffffffffffffffffffffffffffffff\n      and\n      dup2\n      mstore\n      0x20\n      add\n      swap1\n      dup2\n      mstore\n      0x20\n      add\n      0x00\n      keccak256\n        /* \"Project/banking.sol\":9566:9587  users[account].carEmi */\n      0x05\n      add\n      sload\n        /* \"Project/banking.sol\":9601:9606  users */\n      0x0d\n        /* \"Project/banking.sol\":9601:9615  users[account] */\n      0x00\n        /* \"Project/banking.sol\":9607:9614  account */\n      dup8\n        /* \"Project/banking.sol\":9601:9615  users[account] */\n      0xffffffffffffffffffffffffffffffffffffffff\n      and\n      0xffffffffffffffffffffffffffffffffffffffff\n      and\n      dup2\n      mstore\n      0x20\n      add\n      swap1\n      dup2\n      mstore\n      0x20\n      add\n      0x00\n      keccak256\n        /* \"Project/banking.sol\":9601:9633  users[account].carLoanTimeperiod */\n      0x08\n      add\n      sload\n        /* \"Project/banking.sol\":9509:9643  return (... */\n      swap3\n      pop\n      swap3\n      pop\n      swap3\n      pop\n        /* \"Project/banking.sol\":9233:9650  function carLoanDetails(address account)... */\n      swap2\n      swap4\n      swap1\n      swap3\n      pop\n      jump\t// out\n        /* \"Project/banking.sol\":9122:9227  function getContractBalance() public view returns (uint256) {... */\n    tag_37:\n        /* \"Project/banking.sol\":9173:9180  uint256 */\n      0x00\n        /* \"Project/banking.sol\":9199:9220  address(this).balance */\n      selfbalance\n        /* \"Project/banking.sol\":9192:9220  return address(this).balance */\n      swap1\n      pop\n        /* \"Project/banking.sol\":9122:9227  function getContractBalance() public view returns (uint256) {... */\n      swap1\n      jump\t// out\n        /* \"Project/banking.sol\":10083:10451  function personalLoanDetails(address account)public view returns (uint256 loanAmount,uint256 montlyEmi,uint256 timeperiod)... */\n    tag_43:\n        /* \"Project/banking.sol\":10149:10167  uint256 loanAmount */\n      0x00\n        /* \"Project/banking.sol\":10168:10185  uint256 montlyEmi */\n      dup1\n        /* \"Project/banking.sol\":10186:10204  uint256 timeperiod */\n      0x00\n        /* \"Project/banking.sol\":10247:10248  0 */\n      dup1\n        /* \"Project/banking.sol\":10228:10249  account != address(0) */\n      0xffffffffffffffffffffffffffffffffffffffff\n      and\n        /* \"Project/banking.sol\":10228:10235  account */\n      dup5\n        /* \"Project/banking.sol\":10228:10249  account != address(0) */\n      0xffffffffffffffffffffffffffffffffffffffff\n      and\n      sub\n        /* \"Project/banking.sol\":10220:10281  require(account != address(0), \"zero address is not allowed\") */\n      tag_84\n      jumpi\n      mload(0x40)\n      0x08c379a000000000000000000000000000000000000000000000000000000000\n      dup2\n      mstore\n      0x04\n      add\n      tag_85\n      swap1\n      tag_73\n      jump\t// in\n    tag_85:\n      mload(0x40)\n      dup1\n      swap2\n      sub\n      swap1\n      revert\n    tag_84:\n        /* \"Project/banking.sol\":10312:10317  users */\n      0x0d\n        /* \"Project/banking.sol\":10312:10326  users[account] */\n      0x00\n        /* \"Project/banking.sol\":10318:10325  account */\n      dup6\n        /* \"Project/banking.sol\":10312:10326  users[account] */\n      0xffffffffffffffffffffffffffffffffffffffff\n      and\n      0xffffffffffffffffffffffffffffffffffffffff\n      and\n      dup2\n      mstore\n      0x20\n      add\n      swap1\n      dup2\n      mstore\n      0x20\n      add\n      0x00\n      keccak256\n        /* \"Project/banking.sol\":10312:10339  users[account].personalLoan */\n      0x04\n      add\n      sload\n        /* \"Project/banking.sol\":10353:10358  users */\n      0x0d\n        /* \"Project/banking.sol\":10353:10367  users[account] */\n      0x00\n        /* \"Project/banking.sol\":10359:10366  account */\n      dup7\n        /* \"Project/banking.sol\":10353:10367  users[account] */\n      0xffffffffffffffffffffffffffffffffffffffff\n      and\n      0xffffffffffffffffffffffffffffffffffffffff\n      and\n      dup2\n      mstore\n      0x20\n      add\n      swap1\n      dup2\n      mstore\n      0x20\n      add\n      0x00\n      keccak256\n        /* \"Project/banking.sol\":10353:10383  users[account].personalLoanEmi */\n      0x07\n      add\n      sload\n        /* \"Project/banking.sol\":10397:10402  users */\n      0x0d\n        /* \"Project/banking.sol\":10397:10411  users[account] */\n      0x00\n        /* \"Project/banking.sol\":10403:10410  account */\n      dup8\n        /* \"Project/banking.sol\":10397:10411  users[account] */\n      0xffffffffffffffffffffffffffffffffffffffff\n      and\n      0xffffffffffffffffffffffffffffffffffffffff\n      and\n      dup2\n      mstore\n      0x20\n      add\n      swap1\n      dup2\n      mstore\n      0x20\n      add\n      0x00\n      keccak256\n        /* \"Project/banking.sol\":10397:10434  users[account].personalLoanTimeperiod */\n      0x0a\n      add\n      sload\n        /* \"Project/banking.sol\":10291:10444  return (... */\n      swap3\n      pop\n      swap3\n      pop\n      swap3\n      pop\n        /* \"Project/banking.sol\":10083:10451  function personalLoanDetails(address account)public view returns (uint256 loanAmount,uint256 montlyEmi,uint256 timeperiod)... */\n      swap2\n      swap4\n      swap1\n      swap3\n      pop\n      jump\t// out\n        /* \"Project/banking.sol\":6105:9116  function payEmi(address payable account, string memory _input) public {... */\n    tag_49:\n        /* \"Project/banking.sol\":6271:6294  abi.encodePacked(\"car\") */\n      add(0x20, mload(0x40))\n      tag_87\n      swap1\n      tag_88\n      jump\t// in\n    tag_87:\n      mload(0x40)\n      0x20\n      dup2\n      dup4\n      sub\n      sub\n      dup2\n      mstore\n      swap1\n      0x40\n      mstore\n        /* \"Project/banking.sol\":6261:6295  keccak256(abi.encodePacked(\"car\")) */\n      dup1\n      mload\n      swap1\n      0x20\n      add\n      keccak256\n        /* \"Project/banking.sol\":6233:6239  _input */\n      dup2\n        /* \"Project/banking.sol\":6216:6240  abi.encodePacked(_input) */\n      add(0x20, mload(0x40))\n      tag_89\n      swap2\n      swap1\n      tag_90\n      jump\t// in\n    tag_89:\n      mload(0x40)\n      0x20\n      dup2\n      dup4\n      sub\n      sub\n      dup2\n      mstore\n      swap1\n      0x40\n      mstore\n        /* \"Project/banking.sol\":6206:6241  keccak256(abi.encodePacked(_input)) */\n      dup1\n      mload\n      swap1\n      0x20\n      add\n      keccak256\n        /* \"Project/banking.sol\":6206:6295  keccak256(abi.encodePacked(_input)) ==... */\n      eq\n        /* \"Project/banking.sol\":6206:6405  keccak256(abi.encodePacked(_input)) ==... */\n      dup1\n      tag_91\n      jumpi\n      pop\n        /* \"Project/banking.sol\":6380:6404  abi.encodePacked(\"home\") */\n      add(0x20, mload(0x40))\n      tag_92\n      swap1\n      tag_93\n      jump\t// in\n    tag_92:\n      mload(0x40)\n      0x20\n      dup2\n      dup4\n      sub\n      sub\n      dup2\n      mstore\n      swap1\n      0x40\n      mstore\n        /* \"Project/banking.sol\":6370:6405  keccak256(abi.encodePacked(\"home\")) */\n      dup1\n      mload\n      swap1\n      0x20\n      add\n      keccak256\n        /* \"Project/banking.sol\":6342:6348  _input */\n      dup2\n        /* \"Project/banking.sol\":6325:6349  abi.encodePacked(_input) */\n      add(0x20, mload(0x40))\n      tag_94\n      swap2\n      swap1\n      tag_90\n      jump\t// in\n    tag_94:\n      mload(0x40)\n      0x20\n      dup2\n      dup4\n      sub\n      sub\n      dup2\n      mstore\n      swap1\n      0x40\n      mstore\n        /* \"Project/banking.sol\":6315:6350  keccak256(abi.encodePacked(_input)) */\n      dup1\n      mload\n      swap1\n      0x20\n      add\n      keccak256\n        /* \"Project/banking.sol\":6315:6405  keccak256(abi.encodePacked(_input)) ==... */\n      eq\n        /* \"Project/banking.sol\":6206:6405  keccak256(abi.encodePacked(_input)) ==... */\n    tag_91:\n        /* \"Project/banking.sol\":6206:6519  keccak256(abi.encodePacked(_input)) ==... */\n      dup1\n      tag_95\n      jumpi\n      pop\n        /* \"Project/banking.sol\":6490:6518  abi.encodePacked(\"personal\") */\n      add(0x20, mload(0x40))\n      tag_96\n      swap1\n      tag_97\n      jump\t// in\n    tag_96:\n      mload(0x40)\n      0x20\n      dup2\n      dup4\n      sub\n      sub\n      dup2\n      mstore\n      swap1\n      0x40\n      mstore\n        /* \"Project/banking.sol\":6480:6519  keccak256(abi.encodePacked(\"personal\")) */\n      dup1\n      mload\n      swap1\n      0x20\n      add\n      keccak256\n        /* \"Project/banking.sol\":6452:6458  _input */\n      dup2\n        /* \"Project/banking.sol\":6435:6459  abi.encodePacked(_input) */\n      add(0x20, mload(0x40))\n      tag_98\n      swap2\n      swap1\n      tag_90\n      jump\t// in\n    tag_98:\n      mload(0x40)\n      0x20\n      dup2\n      dup4\n      sub\n      sub\n      dup2\n      mstore\n      swap1\n      0x40\n      mstore\n        /* \"Project/banking.sol\":6425:6460  keccak256(abi.encodePacked(_input)) */\n      dup1\n      mload\n      swap1\n      0x20\n      add\n      keccak256\n        /* \"Project/banking.sol\":6425:6519  keccak256(abi.encodePacked(_input)) ==... */\n      eq\n        /* \"Project/banking.sol\":6206:6519  keccak256(abi.encodePacked(_input)) ==... */\n    tag_95:\n        /* \"Project/banking.sol\":6185:6562  require(... */\n      tag_99\n      jumpi\n      mload(0x40)\n      0x08c379a000000000000000000000000000000000000000000000000000000000\n      dup2\n      mstore\n      0x04\n      add\n      tag_100\n      swap1\n      tag_101\n      jump\t// in\n    tag_100:\n      mload(0x40)\n      dup1\n      swap2\n      sub\n      swap1\n      revert\n    tag_99:\n        /* \"Project/banking.sol\":6599:6600  0 */\n      0x00\n        /* \"Project/banking.sol\":6580:6601  account != address(0) */\n      0xffffffffffffffffffffffffffffffffffffffff\n      and\n        /* \"Project/banking.sol\":6580:6587  account */\n      dup3\n        /* \"Project/banking.sol\":6580:6601  account != address(0) */\n      0xffffffffffffffffffffffffffffffffffffffff\n      and\n      sub\n        /* \"Project/banking.sol\":6572:6633  require(account != address(0), \"zero address is not allowed\") */\n      tag_102\n      jumpi\n      mload(0x40)\n      0x08c379a000000000000000000000000000000000000000000000000000000000\n      dup2\n      mstore\n      0x04\n      add\n      tag_103\n      swap1\n      tag_73\n      jump\t// in\n    tag_103:\n      mload(0x40)\n      dup1\n      swap2\n      sub\n      swap1\n      revert\n    tag_102:\n        /* \"Project/banking.sol\":6721:6744  abi.encodePacked(\"car\") */\n      add(0x20, mload(0x40))\n      tag_104\n      swap1\n      tag_88\n      jump\t// in\n    tag_104:\n      mload(0x40)\n      0x20\n      dup2\n      dup4\n      sub\n      sub\n      dup2\n      mstore\n      swap1\n      0x40\n      mstore\n        /* \"Project/banking.sol\":6711:6745  keccak256(abi.encodePacked(\"car\")) */\n      dup1\n      mload\n      swap1\n      0x20\n      add\n      keccak256\n        /* \"Project/banking.sol\":6687:6693  _input */\n      dup2\n        /* \"Project/banking.sol\":6670:6694  abi.encodePacked(_input) */\n      add(0x20, mload(0x40))\n      tag_105\n      swap2\n      swap1\n      tag_90\n      jump\t// in\n    tag_105:\n      mload(0x40)\n      0x20\n      dup2\n      dup4\n      sub\n      sub\n      dup2\n      mstore\n      swap1\n      0x40\n      mstore\n        /* \"Project/banking.sol\":6660:6695  keccak256(abi.encodePacked(_input)) */\n      dup1\n      mload\n      swap1\n      0x20\n      add\n      keccak256\n        /* \"Project/banking.sol\":6660:6745  keccak256(abi.encodePacked(_input)) ==... */\n      sub\n        /* \"Project/banking.sol\":6643:8585  if (... */\n      tag_106\n      jumpi\n        /* \"Project/banking.sol\":6840:6847  30 days */\n      0x278d00\n        /* \"Project/banking.sol\":6813:6818  users */\n      0x0d\n        /* \"Project/banking.sol\":6813:6827  users[account] */\n      0x00\n        /* \"Project/banking.sol\":6819:6826  account */\n      dup5\n        /* \"Project/banking.sol\":6813:6827  users[account] */\n      0xffffffffffffffffffffffffffffffffffffffff\n      and\n      0xffffffffffffffffffffffffffffffffffffffff\n      and\n      dup2\n      mstore\n      0x20\n      add\n      swap1\n      dup2\n      mstore\n      0x20\n      add\n      0x00\n      keccak256\n        /* \"Project/banking.sol\":6813:6837  users[account].timestamp */\n      0x0b\n      add\n      sload\n        /* \"Project/banking.sol\":6795:6810  block.timestamp */\n      timestamp\n        /* \"Project/banking.sol\":6795:6837  block.timestamp - users[account].timestamp */\n      tag_107\n      swap2\n      swap1\n      tag_108\n      jump\t// in\n    tag_107:\n        /* \"Project/banking.sol\":6795:6847  block.timestamp - users[account].timestamp > 30 days */\n      gt\n        /* \"Project/banking.sol\":6770:6923  require(... */\n      tag_109\n      jumpi\n      mload(0x40)\n      0x08c379a000000000000000000000000000000000000000000000000000000000\n      dup2\n      mstore\n      0x04\n      add\n      tag_110\n      swap1\n      tag_111\n      jump\t// in\n    tag_110:\n      mload(0x40)\n      dup1\n      swap2\n      sub\n      swap1\n      revert\n    tag_109:\n        /* \"Project/banking.sol\":6964:6979  block.timestamp */\n      timestamp\n        /* \"Project/banking.sol\":6937:6942  users */\n      0x0d\n        /* \"Project/banking.sol\":6937:6951  users[account] */\n      0x00\n        /* \"Project/banking.sol\":6943:6950  account */\n      dup5\n        /* \"Project/banking.sol\":6937:6951  users[account] */\n      0xffffffffffffffffffffffffffffffffffffffff\n      and\n      0xffffffffffffffffffffffffffffffffffffffff\n      and\n      dup2\n      mstore\n      0x20\n      add\n      swap1\n      dup2\n      mstore\n      0x20\n      add\n      0x00\n      keccak256\n        /* \"Project/banking.sol\":6937:6961  users[account].timestamp */\n      0x0b\n      add\n        /* \"Project/banking.sol\":6937:6979  users[account].timestamp = block.timestamp */\n      dup2\n      swap1\n      sstore\n      pop\n        /* \"Project/banking.sol\":7036:7037  0 */\n      0x00\n        /* \"Project/banking.sol\":7001:7006  users */\n      0x0d\n        /* \"Project/banking.sol\":7001:7015  users[account] */\n      0x00\n        /* \"Project/banking.sol\":7007:7014  account */\n      dup5\n        /* \"Project/banking.sol\":7001:7015  users[account] */\n      0xffffffffffffffffffffffffffffffffffffffff\n      and\n      0xffffffffffffffffffffffffffffffffffffffff\n      and\n      dup2\n      mstore\n      0x20\n      add\n      swap1\n      dup2\n      mstore\n      0x20\n      add\n      0x00\n      keccak256\n        /* \"Project/banking.sol\":7001:7033  users[account].carLoanTimeperiod */\n      0x08\n      add\n      sload\n        /* \"Project/banking.sol\":7001:7037  users[account].carLoanTimeperiod > 0 */\n      gt\n        /* \"Project/banking.sol\":6993:7060  require(users[account].carLoanTimeperiod > 0, \"invalid emi amount\") */\n      tag_112\n      jumpi\n      mload(0x40)\n      0x08c379a000000000000000000000000000000000000000000000000000000000\n      dup2\n      mstore\n      0x04\n      add\n      tag_113\n      swap1\n      tag_114\n      jump\t// in\n    tag_113:\n      mload(0x40)\n      dup1\n      swap2\n      sub\n      swap1\n      revert\n    tag_112:\n        /* \"Project/banking.sol\":7100:7105  users */\n      0x0d\n        /* \"Project/banking.sol\":7100:7114  users[account] */\n      0x00\n        /* \"Project/banking.sol\":7106:7113  account */\n      dup4\n        /* \"Project/banking.sol\":7100:7114  users[account] */\n      0xffffffffffffffffffffffffffffffffffffffff\n      and\n      0xffffffffffffffffffffffffffffffffffffffff\n      and\n      dup2\n      mstore\n      0x20\n      add\n      swap1\n      dup2\n      mstore\n      0x20\n      add\n      0x00\n      keccak256\n        /* \"Project/banking.sol\":7100:7121  users[account].carEmi */\n      0x05\n      add\n      sload\n        /* \"Project/banking.sol\":7074:7079  users */\n      0x0d\n        /* \"Project/banking.sol\":7074:7088  users[account] */\n      0x00\n        /* \"Project/banking.sol\":7080:7087  account */\n      dup5\n        /* \"Project/banking.sol\":7074:7088  users[account] */\n      0xffffffffffffffffffffffffffffffffffffffff\n      and\n      0xffffffffffffffffffffffffffffffffffffffff\n      and\n      dup2\n      mstore\n      0x20\n      add\n      swap1\n      dup2\n      mstore\n      0x20\n      add\n      0x00\n      keccak256\n        /* \"Project/banking.sol\":7074:7096  users[account].balance */\n      0x01\n      add\n      0x00\n        /* \"Project/banking.sol\":7074:7121  users[account].balance -= users[account].carEmi */\n      dup3\n      dup3\n      sload\n      tag_115\n      swap2\n      swap1\n      tag_108\n      jump\t// in\n    tag_115:\n      swap3\n      pop\n      pop\n      dup2\n      swap1\n      sstore\n      pop\n        /* \"Project/banking.sol\":7161:7166  users */\n      0x0d\n        /* \"Project/banking.sol\":7161:7175  users[account] */\n      0x00\n        /* \"Project/banking.sol\":7167:7174  account */\n      dup4\n        /* \"Project/banking.sol\":7161:7175  users[account] */\n      0xffffffffffffffffffffffffffffffffffffffff\n      and\n      0xffffffffffffffffffffffffffffffffffffffff\n      and\n      dup2\n      mstore\n      0x20\n      add\n      swap1\n      dup2\n      mstore\n      0x20\n      add\n      0x00\n      keccak256\n        /* \"Project/banking.sol\":7161:7182  users[account].carEmi */\n      0x05\n      add\n      sload\n        /* \"Project/banking.sol\":7135:7140  users */\n      0x0d\n        /* \"Project/banking.sol\":7135:7149  users[account] */\n      0x00\n        /* \"Project/banking.sol\":7141:7148  account */\n      dup5\n        /* \"Project/banking.sol\":7135:7149  users[account] */\n      0xffffffffffffffffffffffffffffffffffffffff\n      and\n      0xffffffffffffffffffffffffffffffffffffffff\n      and\n      dup2\n      mstore\n      0x20\n      add\n      swap1\n      dup2\n      mstore\n      0x20\n      add\n      0x00\n      keccak256\n        /* \"Project/banking.sol\":7135:7157  users[account].carLoan */\n      0x02\n      add\n      0x00\n        /* \"Project/banking.sol\":7135:7182  users[account].carLoan -= users[account].carEmi */\n      dup3\n      dup3\n      sload\n      tag_116\n      swap2\n      swap1\n      tag_108\n      jump\t// in\n    tag_116:\n      swap3\n      pop\n      pop\n      dup2\n      swap1\n      sstore\n      pop\n        /* \"Project/banking.sol\":7196:7201  users */\n      0x0d\n        /* \"Project/banking.sol\":7196:7210  users[account] */\n      0x00\n        /* \"Project/banking.sol\":7202:7209  account */\n      dup4\n        /* \"Project/banking.sol\":7196:7210  users[account] */\n      0xffffffffffffffffffffffffffffffffffffffff\n      and\n      0xffffffffffffffffffffffffffffffffffffffff\n      and\n      dup2\n      mstore\n      0x20\n      add\n      swap1\n      dup2\n      mstore\n      0x20\n      add\n      0x00\n      keccak256\n        /* \"Project/banking.sol\":7196:7228  users[account].carLoanTimeperiod */\n      0x08\n      add\n      0x00\n        /* \"Project/banking.sol\":7196:7230  users[account].carLoanTimeperiod-- */\n      dup2\n      sload\n      dup1\n      swap3\n      swap2\n      swap1\n      tag_117\n      swap1\n      tag_118\n      jump\t// in\n    tag_117:\n      swap2\n      swap1\n      pop\n      sstore\n      pop\n        /* \"Project/banking.sol\":6643:8585  if (... */\n      jump(tag_119)\n    tag_106:\n        /* \"Project/banking.sol\":7325:7349  abi.encodePacked(\"home\") */\n      add(0x20, mload(0x40))\n      tag_120\n      swap1\n      tag_93\n      jump\t// in\n    tag_120:\n      mload(0x40)\n      0x20\n      dup2\n      dup4\n      sub\n      sub\n      dup2\n      mstore\n      swap1\n      0x40\n      mstore\n        /* \"Project/banking.sol\":7315:7350  keccak256(abi.encodePacked(\"home\")) */\n      dup1\n      mload\n      swap1\n      0x20\n      add\n      keccak256\n        /* \"Project/banking.sol\":7291:7297  _input */\n      dup2\n        /* \"Project/banking.sol\":7274:7298  abi.encodePacked(_input) */\n      add(0x20, mload(0x40))\n      tag_121\n      swap2\n      swap1\n      tag_90\n      jump\t// in\n    tag_121:\n      mload(0x40)\n      0x20\n      dup2\n      dup4\n      sub\n      sub\n      dup2\n      mstore\n      swap1\n      0x40\n      mstore\n        /* \"Project/banking.sol\":7264:7299  keccak256(abi.encodePacked(_input)) */\n      dup1\n      mload\n      swap1\n      0x20\n      add\n      keccak256\n        /* \"Project/banking.sol\":7264:7350  keccak256(abi.encodePacked(_input)) ==... */\n      sub\n        /* \"Project/banking.sol\":7247:8585  if (... */\n      tag_122\n      jumpi\n        /* \"Project/banking.sol\":7445:7452  30 days */\n      0x278d00\n        /* \"Project/banking.sol\":7418:7423  users */\n      0x0d\n        /* \"Project/banking.sol\":7418:7432  users[account] */\n      0x00\n        /* \"Project/banking.sol\":7424:7431  account */\n      dup5\n        /* \"Project/banking.sol\":7418:7432  users[account] */\n      0xffffffffffffffffffffffffffffffffffffffff\n      and\n      0xffffffffffffffffffffffffffffffffffffffff\n      and\n      dup2\n      mstore\n      0x20\n      add\n      swap1\n      dup2\n      mstore\n      0x20\n      add\n      0x00\n      keccak256\n        /* \"Project/banking.sol\":7418:7442  users[account].timestamp */\n      0x0b\n      add\n      sload\n        /* \"Project/banking.sol\":7400:7415  block.timestamp */\n      timestamp\n        /* \"Project/banking.sol\":7400:7442  block.timestamp - users[account].timestamp */\n      tag_123\n      swap2\n      swap1\n      tag_108\n      jump\t// in\n    tag_123:\n        /* \"Project/banking.sol\":7400:7452  block.timestamp - users[account].timestamp > 30 days */\n      gt\n        /* \"Project/banking.sol\":7375:7528  require(... */\n      tag_124\n      jumpi\n      mload(0x40)\n      0x08c379a000000000000000000000000000000000000000000000000000000000\n      dup2\n      mstore\n      0x04\n      add\n      tag_125\n      swap1\n      tag_111\n      jump\t// in\n    tag_125:\n      mload(0x40)\n      dup1\n      swap2\n      sub\n      swap1\n      revert\n    tag_124:\n        /* \"Project/banking.sol\":7569:7584  block.timestamp */\n      timestamp\n        /* \"Project/banking.sol\":7542:7547  users */\n      0x0d\n        /* \"Project/banking.sol\":7542:7556  users[account] */\n      0x00\n        /* \"Project/banking.sol\":7548:7555  account */\n      dup5\n        /* \"Project/banking.sol\":7542:7556  users[account] */\n      0xffffffffffffffffffffffffffffffffffffffff\n      and\n      0xffffffffffffffffffffffffffffffffffffffff\n      and\n      dup2\n      mstore\n      0x20\n      add\n      swap1\n      dup2\n      mstore\n      0x20\n      add\n      0x00\n      keccak256\n        /* \"Project/banking.sol\":7542:7566  users[account].timestamp */\n      0x0b\n      add\n        /* \"Project/banking.sol\":7542:7584  users[account].timestamp = block.timestamp */\n      dup2\n      swap1\n      sstore\n      pop\n        /* \"Project/banking.sol\":7659:7660  0 */\n      0x00\n        /* \"Project/banking.sol\":7623:7628  users */\n      0x0d\n        /* \"Project/banking.sol\":7623:7637  users[account] */\n      0x00\n        /* \"Project/banking.sol\":7629:7636  account */\n      dup5\n        /* \"Project/banking.sol\":7623:7637  users[account] */\n      0xffffffffffffffffffffffffffffffffffffffff\n      and\n      0xffffffffffffffffffffffffffffffffffffffff\n      and\n      dup2\n      mstore\n      0x20\n      add\n      swap1\n      dup2\n      mstore\n      0x20\n      add\n      0x00\n      keccak256\n        /* \"Project/banking.sol\":7623:7656  users[account].homeLoanTimeperiod */\n      0x09\n      add\n      sload\n        /* \"Project/banking.sol\":7623:7660  users[account].homeLoanTimeperiod > 0 */\n      gt\n        /* \"Project/banking.sol\":7598:7712  require(... */\n      tag_126\n      jumpi\n      mload(0x40)\n      0x08c379a000000000000000000000000000000000000000000000000000000000\n      dup2\n      mstore\n      0x04\n      add\n      tag_127\n      swap1\n      tag_114\n      jump\t// in\n    tag_127:\n      mload(0x40)\n      dup1\n      swap2\n      sub\n      swap1\n      revert\n    tag_126:\n        /* \"Project/banking.sol\":7752:7757  users */\n      0x0d\n        /* \"Project/banking.sol\":7752:7766  users[account] */\n      0x00\n        /* \"Project/banking.sol\":7758:7765  account */\n      dup4\n        /* \"Project/banking.sol\":7752:7766  users[account] */\n      0xffffffffffffffffffffffffffffffffffffffff\n      and\n      0xffffffffffffffffffffffffffffffffffffffff\n      and\n      dup2\n      mstore\n      0x20\n      add\n      swap1\n      dup2\n      mstore\n      0x20\n      add\n      0x00\n      keccak256\n        /* \"Project/banking.sol\":7752:7774  users[account].homeEmi */\n      0x06\n      add\n      sload\n        /* \"Project/banking.sol\":7726:7731  users */\n      0x0d\n        /* \"Project/banking.sol\":7726:7740  users[account] */\n      0x00\n        /* \"Project/banking.sol\":7732:7739  account */\n      dup5\n        /* \"Project/banking.sol\":7726:7740  users[account] */\n      0xffffffffffffffffffffffffffffffffffffffff\n      and\n      0xffffffffffffffffffffffffffffffffffffffff\n      and\n      dup2\n      mstore\n      0x20\n      add\n      swap1\n      dup2\n      mstore\n      0x20\n      add\n      0x00\n      keccak256\n        /* \"Project/banking.sol\":7726:7748  users[account].balance */\n      0x01\n      add\n      0x00\n        /* \"Project/banking.sol\":7726:7774  users[account].balance -= users[account].homeEmi */\n      dup3\n      dup3\n      sload\n      tag_128\n      swap2\n      swap1\n      tag_108\n      jump\t// in\n    tag_128:\n      swap3\n      pop\n      pop\n      dup2\n      swap1\n      sstore\n      pop\n        /* \"Project/banking.sol\":7815:7820  users */\n      0x0d\n        /* \"Project/banking.sol\":7815:7829  users[account] */\n      0x00\n        /* \"Project/banking.sol\":7821:7828  account */\n      dup4\n        /* \"Project/banking.sol\":7815:7829  users[account] */\n      0xffffffffffffffffffffffffffffffffffffffff\n      and\n      0xffffffffffffffffffffffffffffffffffffffff\n      and\n      dup2\n      mstore\n      0x20\n      add\n      swap1\n      dup2\n      mstore\n      0x20\n      add\n      0x00\n      keccak256\n        /* \"Project/banking.sol\":7815:7837  users[account].homeEmi */\n      0x06\n      add\n      sload\n        /* \"Project/banking.sol\":7788:7793  users */\n      0x0d\n        /* \"Project/banking.sol\":7788:7802  users[account] */\n      0x00\n        /* \"Project/banking.sol\":7794:7801  account */\n      dup5\n        /* \"Project/banking.sol\":7788:7802  users[account] */\n      0xffffffffffffffffffffffffffffffffffffffff\n      and\n      0xffffffffffffffffffffffffffffffffffffffff\n      and\n      dup2\n      mstore\n      0x20\n      add\n      swap1\n      dup2\n      mstore\n      0x20\n      add\n      0x00\n      keccak256\n        /* \"Project/banking.sol\":7788:7811  users[account].homeLoan */\n      0x03\n      add\n      0x00\n        /* \"Project/banking.sol\":7788:7837  users[account].homeLoan -= users[account].homeEmi */\n      dup3\n      dup3\n      sload\n      tag_129\n      swap2\n      swap1\n      tag_108\n      jump\t// in\n    tag_129:\n      swap3\n      pop\n      pop\n      dup2\n      swap1\n      sstore\n      pop\n        /* \"Project/banking.sol\":7851:7856  users */\n      0x0d\n        /* \"Project/banking.sol\":7851:7865  users[account] */\n      0x00\n        /* \"Project/banking.sol\":7857:7864  account */\n      dup4\n        /* \"Project/banking.sol\":7851:7865  users[account] */\n      0xffffffffffffffffffffffffffffffffffffffff\n      and\n      0xffffffffffffffffffffffffffffffffffffffff\n      and\n      dup2\n      mstore\n      0x20\n      add\n      swap1\n      dup2\n      mstore\n      0x20\n      add\n      0x00\n      keccak256\n        /* \"Project/banking.sol\":7851:7884  users[account].homeLoanTimeperiod */\n      0x09\n      add\n      0x00\n        /* \"Project/banking.sol\":7851:7886  users[account].homeLoanTimeperiod-- */\n      dup2\n      sload\n      dup1\n      swap3\n      swap2\n      swap1\n      tag_130\n      swap1\n      tag_118\n      jump\t// in\n    tag_130:\n      swap2\n      swap1\n      pop\n      sstore\n      pop\n        /* \"Project/banking.sol\":7247:8585  if (... */\n      jump(tag_131)\n    tag_122:\n        /* \"Project/banking.sol\":7981:8009  abi.encodePacked(\"personal\") */\n      add(0x20, mload(0x40))\n      tag_132\n      swap1\n      tag_97\n      jump\t// in\n    tag_132:\n      mload(0x40)\n      0x20\n      dup2\n      dup4\n      sub\n      sub\n      dup2\n      mstore\n      swap1\n      0x40\n      mstore\n        /* \"Project/banking.sol\":7971:8010  keccak256(abi.encodePacked(\"personal\")) */\n      dup1\n      mload\n      swap1\n      0x20\n      add\n      keccak256\n        /* \"Project/banking.sol\":7947:7953  _input */\n      dup2\n        /* \"Project/banking.sol\":7930:7954  abi.encodePacked(_input) */\n      add(0x20, mload(0x40))\n      tag_133\n      swap2\n      swap1\n      tag_90\n      jump\t// in\n    tag_133:\n      mload(0x40)\n      0x20\n      dup2\n      dup4\n      sub\n      sub\n      dup2\n      mstore\n      swap1\n      0x40\n      mstore\n        /* \"Project/banking.sol\":7920:7955  keccak256(abi.encodePacked(_input)) */\n      dup1\n      mload\n      swap1\n      0x20\n      add\n      keccak256\n        /* \"Project/banking.sol\":7920:8010  keccak256(abi.encodePacked(_input)) ==... */\n      sub\n        /* \"Project/banking.sol\":7903:8585  if (... */\n      tag_134\n      jumpi\n        /* \"Project/banking.sol\":8105:8112  30 days */\n      0x278d00\n        /* \"Project/banking.sol\":8078:8083  users */\n      0x0d\n        /* \"Project/banking.sol\":8078:8092  users[account] */\n      0x00\n        /* \"Project/banking.sol\":8084:8091  account */\n      dup5\n        /* \"Project/banking.sol\":8078:8092  users[account] */\n      0xffffffffffffffffffffffffffffffffffffffff\n      and\n      0xffffffffffffffffffffffffffffffffffffffff\n      and\n      dup2\n      mstore\n      0x20\n      add\n      swap1\n      dup2\n      mstore\n      0x20\n      add\n      0x00\n      keccak256\n        /* \"Project/banking.sol\":8078:8102  users[account].timestamp */\n      0x0b\n      add\n      sload\n        /* \"Project/banking.sol\":8060:8075  block.timestamp */\n      timestamp\n        /* \"Project/banking.sol\":8060:8102  block.timestamp - users[account].timestamp */\n      tag_135\n      swap2\n      swap1\n      tag_108\n      jump\t// in\n    tag_135:\n        /* \"Project/banking.sol\":8060:8112  block.timestamp - users[account].timestamp > 30 days */\n      gt\n        /* \"Project/banking.sol\":8035:8188  require(... */\n      tag_136\n      jumpi\n      mload(0x40)\n      0x08c379a000000000000000000000000000000000000000000000000000000000\n      dup2\n      mstore\n      0x04\n      add\n      tag_137\n      swap1\n      tag_111\n      jump\t// in\n    tag_137:\n      mload(0x40)\n      dup1\n      swap2\n      sub\n      swap1\n      revert\n    tag_136:\n        /* \"Project/banking.sol\":8229:8244  block.timestamp */\n      timestamp\n        /* \"Project/banking.sol\":8202:8207  users */\n      0x0d\n        /* \"Project/banking.sol\":8202:8216  users[account] */\n      0x00\n        /* \"Project/banking.sol\":8208:8215  account */\n      dup5\n        /* \"Project/banking.sol\":8202:8216  users[account] */\n      0xffffffffffffffffffffffffffffffffffffffff\n      and\n      0xffffffffffffffffffffffffffffffffffffffff\n      and\n      dup2\n      mstore\n      0x20\n      add\n      swap1\n      dup2\n      mstore\n      0x20\n      add\n      0x00\n      keccak256\n        /* \"Project/banking.sol\":8202:8226  users[account].timestamp */\n      0x0b\n      add\n        /* \"Project/banking.sol\":8202:8244  users[account].timestamp = block.timestamp */\n      dup2\n      swap1\n      sstore\n      pop\n        /* \"Project/banking.sol\":8323:8324  0 */\n      0x00\n        /* \"Project/banking.sol\":8283:8288  users */\n      0x0d\n        /* \"Project/banking.sol\":8283:8297  users[account] */\n      0x00\n        /* \"Project/banking.sol\":8289:8296  account */\n      dup5\n        /* \"Project/banking.sol\":8283:8297  users[account] */\n      0xffffffffffffffffffffffffffffffffffffffff\n      and\n      0xffffffffffffffffffffffffffffffffffffffff\n      and\n      dup2\n      mstore\n      0x20\n      add\n      swap1\n      dup2\n      mstore\n      0x20\n      add\n      0x00\n      keccak256\n        /* \"Project/banking.sol\":8283:8320  users[account].personalLoanTimeperiod */\n      0x0a\n      add\n      sload\n        /* \"Project/banking.sol\":8283:8324  users[account].personalLoanTimeperiod > 0 */\n      gt\n        /* \"Project/banking.sol\":8258:8376  require(... */\n      tag_138\n      jumpi\n      mload(0x40)\n      0x08c379a000000000000000000000000000000000000000000000000000000000\n      dup2\n      mstore\n      0x04\n      add\n      tag_139\n      swap1\n      tag_114\n      jump\t// in\n    tag_139:\n      mload(0x40)\n      dup1\n      swap2\n      sub\n      swap1\n      revert\n    tag_138:\n        /* \"Project/banking.sol\":8416:8421  users */\n      0x0d\n        /* \"Project/banking.sol\":8416:8430  users[account] */\n      0x00\n        /* \"Project/banking.sol\":8422:8429  account */\n      dup4\n        /* \"Project/banking.sol\":8416:8430  users[account] */\n      0xffffffffffffffffffffffffffffffffffffffff\n      and\n      0xffffffffffffffffffffffffffffffffffffffff\n      and\n      dup2\n      mstore\n      0x20\n      add\n      swap1\n      dup2\n      mstore\n      0x20\n      add\n      0x00\n      keccak256\n        /* \"Project/banking.sol\":8416:8446  users[account].personalLoanEmi */\n      0x07\n      add\n      sload\n        /* \"Project/banking.sol\":8390:8395  users */\n      0x0d\n        /* \"Project/banking.sol\":8390:8404  users[account] */\n      0x00\n        /* \"Project/banking.sol\":8396:8403  account */\n      dup5\n        /* \"Project/banking.sol\":8390:8404  users[account] */\n      0xffffffffffffffffffffffffffffffffffffffff\n      and\n      0xffffffffffffffffffffffffffffffffffffffff\n      and\n      dup2\n      mstore\n      0x20\n      add\n      swap1\n      dup2\n      mstore\n      0x20\n      add\n      0x00\n      keccak256\n        /* \"Project/banking.sol\":8390:8412  users[account].balance */\n      0x01\n      add\n      0x00\n        /* \"Project/banking.sol\":8390:8446  users[account].balance -= users[account].personalLoanEmi */\n      dup3\n      dup3\n      sload\n      tag_140\n      swap2\n      swap1\n      tag_108\n      jump\t// in\n    tag_140:\n      swap3\n      pop\n      pop\n      dup2\n      swap1\n      sstore\n      pop\n        /* \"Project/banking.sol\":8491:8496  users */\n      0x0d\n        /* \"Project/banking.sol\":8491:8505  users[account] */\n      0x00\n        /* \"Project/banking.sol\":8497:8504  account */\n      dup4\n        /* \"Project/banking.sol\":8491:8505  users[account] */\n      0xffffffffffffffffffffffffffffffffffffffff\n      and\n      0xffffffffffffffffffffffffffffffffffffffff\n      and\n      dup2\n      mstore\n      0x20\n      add\n      swap1\n      dup2\n      mstore\n      0x20\n      add\n      0x00\n      keccak256\n        /* \"Project/banking.sol\":8491:8521  users[account].personalLoanEmi */\n      0x07\n      add\n      sload\n        /* \"Project/banking.sol\":8460:8465  users */\n      0x0d\n        /* \"Project/banking.sol\":8460:8474  users[account] */\n      0x00\n        /* \"Project/banking.sol\":8466:8473  account */\n      dup5\n        /* \"Project/banking.sol\":8460:8474  users[account] */\n      0xffffffffffffffffffffffffffffffffffffffff\n      and\n      0xffffffffffffffffffffffffffffffffffffffff\n      and\n      dup2\n      mstore\n      0x20\n      add\n      swap1\n      dup2\n      mstore\n      0x20\n      add\n      0x00\n      keccak256\n        /* \"Project/banking.sol\":8460:8487  users[account].personalLoan */\n      0x04\n      add\n      0x00\n        /* \"Project/banking.sol\":8460:8521  users[account].personalLoan -= users[account].personalLoanEmi */\n      dup3\n      dup3\n      sload\n      tag_141\n      swap2\n      swap1\n      tag_108\n      jump\t// in\n    tag_141:\n      swap3\n      pop\n      pop\n      dup2\n      swap1\n      sstore\n      pop\n        /* \"Project/banking.sol\":8535:8540  users */\n      0x0d\n        /* \"Project/banking.sol\":8535:8549  users[account] */\n      0x00\n        /* \"Project/banking.sol\":8541:8548  account */\n      dup4\n        /* \"Project/banking.sol\":8535:8549  users[account] */\n      0xffffffffffffffffffffffffffffffffffffffff\n      and\n      0xffffffffffffffffffffffffffffffffffffffff\n      and\n      dup2\n      mstore\n      0x20\n      add\n      swap1\n      dup2\n      mstore\n      0x20\n      add\n      0x00\n      keccak256\n        /* \"Project/banking.sol\":8535:8572  users[account].personalLoanTimeperiod */\n      0x0a\n      add\n      0x00\n        /* \"Project/banking.sol\":8535:8574  users[account].personalLoanTimeperiod-- */\n      dup2\n      sload\n      dup1\n      swap3\n      swap2\n      swap1\n      tag_142\n      swap1\n      tag_118\n      jump\t// in\n    tag_142:\n      swap2\n      swap1\n      pop\n      sstore\n      pop\n        /* \"Project/banking.sol\":7903:8585  if (... */\n    tag_134:\n        /* \"Project/banking.sol\":7247:8585  if (... */\n    tag_131:\n        /* \"Project/banking.sol\":6643:8585  if (... */\n    tag_119:\n        /* \"Project/banking.sol\":8612:9109  user(... */\n      mload(0x40)\n      dup1\n      0x0180\n      add\n      0x40\n      mstore\n      dup1\n        /* \"Project/banking.sol\":8630:8635  users */\n      0x0d\n        /* \"Project/banking.sol\":8630:8644  users[account] */\n      0x00\n        /* \"Project/banking.sol\":8636:8643  account */\n      dup6\n        /* \"Project/banking.sol\":8630:8644  users[account] */\n      0xffffffffffffffffffffffffffffffffffffffff\n      and\n      0xffffffffffffffffffffffffffffffffffffffff\n      and\n      dup2\n      mstore\n      0x20\n      add\n      swap1\n      dup2\n      mstore\n      0x20\n      add\n      0x00\n      keccak256\n        /* \"Project/banking.sol\":8630:8652  users[account].user_id */\n      0x00\n      add\n      0x00\n      swap1\n      sload\n      swap1\n      0x0100\n      exp\n      swap1\n      div\n      0xffffffffffffffffffffffffffffffffffffffff\n      and\n        /* \"Project/banking.sol\":8612:9109  user(... */\n      0xffffffffffffffffffffffffffffffffffffffff\n      and\n      dup2\n      mstore\n      0x20\n      add\n        /* \"Project/banking.sol\":8666:8671  users */\n      0x0d\n        /* \"Project/banking.sol\":8666:8680  users[account] */\n      0x00\n        /* \"Project/banking.sol\":8672:8679  account */\n      dup6\n        /* \"Project/banking.sol\":8666:8680  users[account] */\n      0xffffffffffffffffffffffffffffffffffffffff\n      and\n      0xffffffffffffffffffffffffffffffffffffffff\n      and\n      dup2\n      mstore\n      0x20\n      add\n      swap1\n      dup2\n      mstore\n      0x20\n      add\n      0x00\n      keccak256\n        /* \"Project/banking.sol\":8666:8688  users[account].balance */\n      0x01\n      add\n      sload\n        /* \"Project/banking.sol\":8612:9109  user(... */\n      dup2\n      mstore\n      0x20\n      add\n        /* \"Project/banking.sol\":8702:8707  users */\n      0x0d\n        /* \"Project/banking.sol\":8702:8716  users[account] */\n      0x00\n        /* \"Project/banking.sol\":8708:8715  account */\n      dup6\n        /* \"Project/banking.sol\":8702:8716  users[account] */\n      0xffffffffffffffffffffffffffffffffffffffff\n      and\n      0xffffffffffffffffffffffffffffffffffffffff\n      and\n      dup2\n      mstore\n      0x20\n      add\n      swap1\n      dup2\n      mstore\n      0x20\n      add\n      0x00\n      keccak256\n        /* \"Project/banking.sol\":8702:8724  users[account].carLoan */\n      0x02\n      add\n      sload\n        /* \"Project/banking.sol\":8612:9109  user(... */\n      dup2\n      mstore\n      0x20\n      add\n        /* \"Project/banking.sol\":8738:8743  users */\n      0x0d\n        /* \"Project/banking.sol\":8738:8752  users[account] */\n      0x00\n        /* \"Project/banking.sol\":8744:8751  account */\n      dup6\n        /* \"Project/banking.sol\":8738:8752  users[account] */\n      0xffffffffffffffffffffffffffffffffffffffff\n      and\n      0xffffffffffffffffffffffffffffffffffffffff\n      and\n      dup2\n      mstore\n      0x20\n      add\n      swap1\n      dup2\n      mstore\n      0x20\n      add\n      0x00\n      keccak256\n        /* \"Project/banking.sol\":8738:8761  users[account].homeLoan */\n      0x03\n      add\n      sload\n        /* \"Project/banking.sol\":8612:9109  user(... */\n      dup2\n      mstore\n      0x20\n      add\n        /* \"Project/banking.sol\":8775:8780  users */\n      0x0d\n        /* \"Project/banking.sol\":8775:8789  users[account] */\n      0x00\n        /* \"Project/banking.sol\":8781:8788  account */\n      dup6\n        /* \"Project/banking.sol\":8775:8789  users[account] */\n      0xffffffffffffffffffffffffffffffffffffffff\n      and\n      0xffffffffffffffffffffffffffffffffffffffff\n      and\n      dup2\n      mstore\n      0x20\n      add\n      swap1\n      dup2\n      mstore\n      0x20\n      add\n      0x00\n      keccak256\n        /* \"Project/banking.sol\":8775:8802  users[account].personalLoan */\n      0x04\n      add\n      sload\n        /* \"Project/banking.sol\":8612:9109  user(... */\n      dup2\n      mstore\n      0x20\n      add\n        /* \"Project/banking.sol\":8816:8821  users */\n      0x0d\n        /* \"Project/banking.sol\":8816:8830  users[account] */\n      0x00\n        /* \"Project/banking.sol\":8822:8829  account */\n      dup6\n        /* \"Project/banking.sol\":8816:8830  users[account] */\n      0xffffffffffffffffffffffffffffffffffffffff\n      and\n      0xffffffffffffffffffffffffffffffffffffffff\n      and\n      dup2\n      mstore\n      0x20\n      add\n      swap1\n      dup2\n      mstore\n      0x20\n      add\n      0x00\n      keccak256\n        /* \"Project/banking.sol\":8816:8837  users[account].carEmi */\n      0x05\n      add\n      sload\n        /* \"Project/banking.sol\":8612:9109  user(... */\n      dup2\n      mstore\n      0x20\n      add\n        /* \"Project/banking.sol\":8851:8856  users */\n      0x0d\n        /* \"Project/banking.sol\":8851:8865  users[account] */\n      0x00\n        /* \"Project/banking.sol\":8857:8864  account */\n      dup6\n        /* \"Project/banking.sol\":8851:8865  users[account] */\n      0xffffffffffffffffffffffffffffffffffffffff\n      and\n      0xffffffffffffffffffffffffffffffffffffffff\n      and\n      dup2\n      mstore\n      0x20\n      add\n      swap1\n      dup2\n      mstore\n      0x20\n      add\n      0x00\n      keccak256\n        /* \"Project/banking.sol\":8851:8873  users[account].homeEmi */\n      0x06\n      add\n      sload\n        /* \"Project/banking.sol\":8612:9109  user(... */\n      dup2\n      mstore\n      0x20\n      add\n        /* \"Project/banking.sol\":8887:8892  users */\n      0x0d\n        /* \"Project/banking.sol\":8887:8901  users[account] */\n      0x00\n        /* \"Project/banking.sol\":8893:8900  account */\n      dup6\n        /* \"Project/banking.sol\":8887:8901  users[account] */\n      0xffffffffffffffffffffffffffffffffffffffff\n      and\n      0xffffffffffffffffffffffffffffffffffffffff\n      and\n      dup2\n      mstore\n      0x20\n      add\n      swap1\n      dup2\n      mstore\n      0x20\n      add\n      0x00\n      keccak256\n        /* \"Project/banking.sol\":8887:8917  users[account].personalLoanEmi */\n      0x07\n      add\n      sload\n        /* \"Project/banking.sol\":8612:9109  user(... */\n      dup2\n      mstore\n      0x20\n      add\n        /* \"Project/banking.sol\":8931:8936  users */\n      0x0d\n        /* \"Project/banking.sol\":8931:8945  users[account] */\n      0x00\n        /* \"Project/banking.sol\":8937:8944  account */\n      dup6\n        /* \"Project/banking.sol\":8931:8945  users[account] */\n      0xffffffffffffffffffffffffffffffffffffffff\n      and\n      0xffffffffffffffffffffffffffffffffffffffff\n      and\n      dup2\n      mstore\n      0x20\n      add\n      swap1\n      dup2\n      mstore\n      0x20\n      add\n      0x00\n      keccak256\n        /* \"Project/banking.sol\":8931:8963  users[account].carLoanTimeperiod */\n      0x08\n      add\n      sload\n        /* \"Project/banking.sol\":8612:9109  user(... */\n      dup2\n      mstore\n      0x20\n      add\n        /* \"Project/banking.sol\":8977:8982  users */\n      0x0d\n        /* \"Project/banking.sol\":8977:8991  users[account] */\n      0x00\n        /* \"Project/banking.sol\":8983:8990  account */\n      dup6\n        /* \"Project/banking.sol\":8977:8991  users[account] */\n      0xffffffffffffffffffffffffffffffffffffffff\n      and\n      0xffffffffffffffffffffffffffffffffffffffff\n      and\n      dup2\n      mstore\n      0x20\n      add\n      swap1\n      dup2\n      mstore\n      0x20\n      add\n      0x00\n      keccak256\n        /* \"Project/banking.sol\":8977:9010  users[account].homeLoanTimeperiod */\n      0x09\n      add\n      sload\n        /* \"Project/banking.sol\":8612:9109  user(... */\n      dup2\n      mstore\n      0x20\n      add\n        /* \"Project/banking.sol\":9024:9029  users */\n      0x0d\n        /* \"Project/banking.sol\":9024:9038  users[account] */\n      0x00\n        /* \"Project/banking.sol\":9030:9037  account */\n      dup6\n        /* \"Project/banking.sol\":9024:9038  users[account] */\n      0xffffffffffffffffffffffffffffffffffffffff\n      and\n      0xffffffffffffffffffffffffffffffffffffffff\n      and\n      dup2\n      mstore\n      0x20\n      add\n      swap1\n      dup2\n      mstore\n      0x20\n      add\n      0x00\n      keccak256\n        /* \"Project/banking.sol\":9024:9061  users[account].personalLoanTimeperiod */\n      0x0a\n      add\n      sload\n        /* \"Project/banking.sol\":8612:9109  user(... */\n      dup2\n      mstore\n      0x20\n      add\n        /* \"Project/banking.sol\":9075:9080  users */\n      0x0d\n        /* \"Project/banking.sol\":9075:9089  users[account] */\n      0x00\n        /* \"Project/banking.sol\":9081:9088  account */\n      dup6\n        /* \"Project/banking.sol\":9075:9089  users[account] */\n      0xffffffffffffffffffffffffffffffffffffffff\n      and\n      0xffffffffffffffffffffffffffffffffffffffff\n      and\n      dup2\n      mstore\n      0x20\n      add\n      swap1\n      dup2\n      mstore\n      0x20\n      add\n      0x00\n      keccak256\n        /* \"Project/banking.sol\":9075:9099  users[account].timestamp */\n      0x0b\n      add\n      sload\n        /* \"Project/banking.sol\":8612:9109  user(... */\n      dup2\n      mstore\n      pop\n        /* \"Project/banking.sol\":8595:8600  users */\n      0x0d\n        /* \"Project/banking.sol\":8595:8609  users[account] */\n      0x00\n        /* \"Project/banking.sol\":8601:8608  account */\n      dup5\n        /* \"Project/banking.sol\":8595:8609  users[account] */\n      0xffffffffffffffffffffffffffffffffffffffff\n      and\n      0xffffffffffffffffffffffffffffffffffffffff\n      and\n      dup2\n      mstore\n      0x20\n      add\n      swap1\n      dup2\n      mstore\n      0x20\n      add\n      0x00\n      keccak256\n        /* \"Project/banking.sol\":8595:9109  users[account] = user(... */\n      0x00\n      dup3\n      add\n      mload\n      dup2\n      0x00\n      add\n      exp(0x0100, 0x00)\n      dup2\n      sload\n      dup2\n      0xffffffffffffffffffffffffffffffffffffffff\n      mul\n      not\n      and\n      swap1\n      dup4\n      0xffffffffffffffffffffffffffffffffffffffff\n      and\n      mul\n      or\n      swap1\n      sstore\n      pop\n      0x20\n      dup3\n      add\n      mload\n      dup2\n      0x01\n      add\n      sstore\n      0x40\n      dup3\n      add\n      mload\n      dup2\n      0x02\n      add\n      sstore\n      0x60\n      dup3\n      add\n      mload\n      dup2\n      0x03\n      add\n      sstore\n      0x80\n      dup3\n      add\n      mload\n      dup2\n      0x04\n      add\n      sstore\n      0xa0\n      dup3\n      add\n      mload\n      dup2\n      0x05\n      add\n      sstore\n      0xc0\n      dup3\n      add\n      mload\n      dup2\n      0x06\n      add\n      sstore\n      0xe0\n      dup3\n      add\n      mload\n      dup2\n      0x07\n      add\n      sstore\n      0x0100\n      dup3\n      add\n      mload\n      dup2\n      0x08\n      add\n      sstore\n      0x0120\n      dup3\n      add\n      mload\n      dup2\n      0x09\n      add\n      sstore\n      0x0140\n      dup3\n      add\n      mload\n      dup2\n      0x0a\n      add\n      sstore\n      0x0160\n      dup3\n      add\n      mload\n      dup2\n      0x0b\n      add\n      sstore\n      swap1\n      pop\n      pop\n        /* \"Project/banking.sol\":6105:9116  function payEmi(address payable account, string memory _input) public {... */\n      pop\n      pop\n      jump\t// out\n        /* \"Project/banking.sol\":1830:5210  function Loan(... */\n    tag_53:\n        /* \"Project/banking.sol\":2012:2013  0 */\n      0x00\n        /* \"Project/banking.sol\":1993:2014  account != address(0) */\n      0xffffffffffffffffffffffffffffffffffffffff\n      and\n        /* \"Project/banking.sol\":1993:2000  account */\n      dup5\n        /* \"Project/banking.sol\":1993:2014  account != address(0) */\n      0xffffffffffffffffffffffffffffffffffffffff\n      and\n      sub\n        /* \"Project/banking.sol\":1985:2046  require(account != address(0), \"zero address is not allowed\") */\n      tag_144\n      jumpi\n      mload(0x40)\n      0x08c379a000000000000000000000000000000000000000000000000000000000\n      dup2\n      mstore\n      0x04\n      add\n      tag_145\n      swap1\n      tag_73\n      jump\t// in\n    tag_145:\n      mload(0x40)\n      dup1\n      swap2\n      sub\n      swap1\n      revert\n    tag_144:\n        /* \"Project/banking.sol\":2074:2075  0 */\n      0x00\n        /* \"Project/banking.sol\":2064:2070  amount */\n      dup4\n        /* \"Project/banking.sol\":2064:2075  amount != 0 */\n      sub\n        /* \"Project/banking.sol\":2056:2103  require(amount != 0, \"please send some amount\") */\n      tag_146\n      jumpi\n      mload(0x40)\n      0x08c379a000000000000000000000000000000000000000000000000000000000\n      dup2\n      mstore\n      0x04\n      add\n      tag_147\n      swap1\n      tag_76\n      jump\t// in\n    tag_147:\n      mload(0x40)\n      dup1\n      swap2\n      sub\n      swap1\n      revert\n    tag_146:\n        /* \"Project/banking.sol\":2113:2120  account */\n      dup4\n        /* \"Project/banking.sol\":2113:2129  account.transfer */\n      0xffffffffffffffffffffffffffffffffffffffff\n      and\n        /* \"Project/banking.sol\":2113:2137  account.transfer(amount) */\n      0x08fc\n        /* \"Project/banking.sol\":2130:2136  amount */\n      dup5\n        /* \"Project/banking.sol\":2113:2137  account.transfer(amount) */\n      swap1\n      dup2\n      iszero\n      mul\n      swap1\n      mload(0x40)\n      0x00\n      mload(0x40)\n      dup1\n      dup4\n      sub\n      dup2\n      dup6\n      dup9\n      dup9\n      call\n      swap4\n      pop\n      pop\n      pop\n      pop\n      iszero\n      dup1\n      iszero\n      tag_149\n      jumpi\n      returndatasize\n      0x00\n      dup1\n      returndatacopy\n      revert(0x00, returndatasize)\n    tag_149:\n      pop\n        /* \"Project/banking.sol\":2173:2179  amount */\n      dup3\n        /* \"Project/banking.sol\":2147:2152  users */\n      0x0d\n        /* \"Project/banking.sol\":2147:2161  users[account] */\n      0x00\n        /* \"Project/banking.sol\":2153:2160  account */\n      dup7\n        /* \"Project/banking.sol\":2147:2161  users[account] */\n      0xffffffffffffffffffffffffffffffffffffffff\n      and\n      0xffffffffffffffffffffffffffffffffffffffff\n      and\n      dup2\n      mstore\n      0x20\n      add\n      swap1\n      dup2\n      mstore\n      0x20\n      add\n      0x00\n      keccak256\n        /* \"Project/banking.sol\":2147:2169  users[account].balance */\n      0x01\n      add\n      0x00\n        /* \"Project/banking.sol\":2147:2179  users[account].balance += amount */\n      dup3\n      dup3\n      sload\n      tag_150\n      swap2\n      swap1\n      tag_78\n      jump\t// in\n    tag_150:\n      swap3\n      pop\n      pop\n      dup2\n      swap1\n      sstore\n      pop\n        /* \"Project/banking.sol\":2460:2483  abi.encodePacked(\"car\") */\n      add(0x20, mload(0x40))\n      tag_151\n      swap1\n      tag_88\n      jump\t// in\n    tag_151:\n      mload(0x40)\n      0x20\n      dup2\n      dup4\n      sub\n      sub\n      dup2\n      mstore\n      swap1\n      0x40\n      mstore\n        /* \"Project/banking.sol\":2450:2484  keccak256(abi.encodePacked(\"car\")) */\n      dup1\n      mload\n      swap1\n      0x20\n      add\n      keccak256\n        /* \"Project/banking.sol\":2422:2428  _input */\n      dup2\n        /* \"Project/banking.sol\":2405:2429  abi.encodePacked(_input) */\n      add(0x20, mload(0x40))\n      tag_152\n      swap2\n      swap1\n      tag_90\n      jump\t// in\n    tag_152:\n      mload(0x40)\n      0x20\n      dup2\n      dup4\n      sub\n      sub\n      dup2\n      mstore\n      swap1\n      0x40\n      mstore\n        /* \"Project/banking.sol\":2395:2430  keccak256(abi.encodePacked(_input)) */\n      dup1\n      mload\n      swap1\n      0x20\n      add\n      keccak256\n        /* \"Project/banking.sol\":2395:2484  keccak256(abi.encodePacked(_input)) ==... */\n      eq\n        /* \"Project/banking.sol\":2395:2594  keccak256(abi.encodePacked(_input)) ==... */\n      dup1\n      tag_153\n      jumpi\n      pop\n        /* \"Project/banking.sol\":2569:2593  abi.encodePacked(\"home\") */\n      add(0x20, mload(0x40))\n      tag_154\n      swap1\n      tag_93\n      jump\t// in\n    tag_154:\n      mload(0x40)\n      0x20\n      dup2\n      dup4\n      sub\n      sub\n      dup2\n      mstore\n      swap1\n      0x40\n      mstore\n        /* \"Project/banking.sol\":2559:2594  keccak256(abi.encodePacked(\"home\")) */\n      dup1\n      mload\n      swap1\n      0x20\n      add\n      keccak256\n        /* \"Project/banking.sol\":2531:2537  _input */\n      dup2\n        /* \"Project/banking.sol\":2514:2538  abi.encodePacked(_input) */\n      add(0x20, mload(0x40))\n      tag_155\n      swap2\n      swap1\n      tag_90\n      jump\t// in\n    tag_155:\n      mload(0x40)\n      0x20\n      dup2\n      dup4\n      sub\n      sub\n      dup2\n      mstore\n      swap1\n      0x40\n      mstore\n        /* \"Project/banking.sol\":2504:2539  keccak256(abi.encodePacked(_input)) */\n      dup1\n      mload\n      swap1\n      0x20\n      add\n      keccak256\n        /* \"Project/banking.sol\":2504:2594  keccak256(abi.encodePacked(_input)) ==... */\n      eq\n        /* \"Project/banking.sol\":2395:2594  keccak256(abi.encodePacked(_input)) ==... */\n    tag_153:\n        /* \"Project/banking.sol\":2395:2708  keccak256(abi.encodePacked(_input)) ==... */\n      dup1\n      tag_156\n      jumpi\n      pop\n        /* \"Project/banking.sol\":2679:2707  abi.encodePacked(\"personal\") */\n      add(0x20, mload(0x40))\n      tag_157\n      swap1\n      tag_97\n      jump\t// in\n    tag_157:\n      mload(0x40)\n      0x20\n      dup2\n      dup4\n      sub\n      sub\n      dup2\n      mstore\n      swap1\n      0x40\n      mstore\n        /* \"Project/banking.sol\":2669:2708  keccak256(abi.encodePacked(\"personal\")) */\n      dup1\n      mload\n      swap1\n      0x20\n      add\n      keccak256\n        /* \"Project/banking.sol\":2641:2647  _input */\n      dup2\n        /* \"Project/banking.sol\":2624:2648  abi.encodePacked(_input) */\n      add(0x20, mload(0x40))\n      tag_158\n      swap2\n      swap1\n      tag_90\n      jump\t// in\n    tag_158:\n      mload(0x40)\n      0x20\n      dup2\n      dup4\n      sub\n      sub\n      dup2\n      mstore\n      swap1\n      0x40\n      mstore\n        /* \"Project/banking.sol\":2614:2649  keccak256(abi.encodePacked(_input)) */\n      dup1\n      mload\n      swap1\n      0x20\n      add\n      keccak256\n        /* \"Project/banking.sol\":2614:2708  keccak256(abi.encodePacked(_input)) ==... */\n      eq\n        /* \"Project/banking.sol\":2395:2708  keccak256(abi.encodePacked(_input)) ==... */\n    tag_156:\n        /* \"Project/banking.sol\":2374:2751  require(... */\n      tag_159\n      jumpi\n      mload(0x40)\n      0x08c379a000000000000000000000000000000000000000000000000000000000\n      dup2\n      mstore\n      0x04\n      add\n      tag_160\n      swap1\n      tag_101\n      jump\t// in\n    tag_160:\n      mload(0x40)\n      dup1\n      swap2\n      sub\n      swap1\n      revert\n    tag_159:\n        /* \"Project/banking.sol\":2839:2862  abi.encodePacked(\"car\") */\n      add(0x20, mload(0x40))\n      tag_161\n      swap1\n      tag_88\n      jump\t// in\n    tag_161:\n      mload(0x40)\n      0x20\n      dup2\n      dup4\n      sub\n      sub\n      dup2\n      mstore\n      swap1\n      0x40\n      mstore\n        /* \"Project/banking.sol\":2829:2863  keccak256(abi.encodePacked(\"car\")) */\n      dup1\n      mload\n      swap1\n      0x20\n      add\n      keccak256\n        /* \"Project/banking.sol\":2805:2811  _input */\n      dup2\n        /* \"Project/banking.sol\":2788:2812  abi.encodePacked(_input) */\n      add(0x20, mload(0x40))\n      tag_162\n      swap2\n      swap1\n      tag_90\n      jump\t// in\n    tag_162:\n      mload(0x40)\n      0x20\n      dup2\n      dup4\n      sub\n      sub\n      dup2\n      mstore\n      swap1\n      0x40\n      mstore\n        /* \"Project/banking.sol\":2778:2813  keccak256(abi.encodePacked(_input)) */\n      dup1\n      mload\n      swap1\n      0x20\n      add\n      keccak256\n        /* \"Project/banking.sol\":2778:2863  keccak256(abi.encodePacked(_input)) ==... */\n      sub\n        /* \"Project/banking.sol\":2761:4679  if (... */\n      tag_163\n      jumpi\n        /* \"Project/banking.sol\":2938:2939  1 */\n      0x01\n        /* \"Project/banking.sol\":2913:2918  users */\n      0x0d\n        /* \"Project/banking.sol\":2913:2927  users[account] */\n      0x00\n        /* \"Project/banking.sol\":2919:2926  account */\n      dup7\n        /* \"Project/banking.sol\":2913:2927  users[account] */\n      0xffffffffffffffffffffffffffffffffffffffff\n      and\n      0xffffffffffffffffffffffffffffffffffffffff\n      and\n      dup2\n      mstore\n      0x20\n      add\n      swap1\n      dup2\n      mstore\n      0x20\n      add\n      0x00\n      keccak256\n        /* \"Project/banking.sol\":2913:2935  users[account].carLoan */\n      0x02\n      add\n      sload\n        /* \"Project/banking.sol\":2913:2939  users[account].carLoan < 1 */\n      lt\n        /* \"Project/banking.sol\":2888:3019  require(... */\n      tag_164\n      jumpi\n      mload(0x40)\n      0x08c379a000000000000000000000000000000000000000000000000000000000\n      dup2\n      mstore\n      0x04\n      add\n      tag_165\n      swap1\n      tag_166\n      jump\t// in\n    tag_165:\n      mload(0x40)\n      dup1\n      swap2\n      sub\n      swap1\n      revert\n    tag_164:\n        /* \"Project/banking.sol\":3033:3046  uint256 carSI */\n      0x00\n        /* \"Project/banking.sol\":3072:3076  1200 */\n      0x04b0\n        /* \"Project/banking.sol\":3063:3068  month */\n      dup4\n        /* \"Project/banking.sol\":3059:3060  8 */\n      0x08\n        /* \"Project/banking.sol\":3050:3056  amount */\n      dup7\n        /* \"Project/banking.sol\":3050:3060  amount * 8 */\n      tag_167\n      swap2\n      swap1\n      tag_168\n      jump\t// in\n    tag_167:\n        /* \"Project/banking.sol\":3050:3068  amount * 8 * month */\n      tag_169\n      swap2\n      swap1\n      tag_168\n      jump\t// in\n    tag_169:\n        /* \"Project/banking.sol\":3049:3076  (amount * 8 * month) / 1200 */\n      tag_170\n      swap2\n      swap1\n      tag_171\n      jump\t// in\n    tag_170:\n        /* \"Project/banking.sol\":3033:3076  uint256 carSI = (amount * 8 * month) / 1200 */\n      swap1\n      pop\n        /* \"Project/banking.sol\":3124:3129  carSI */\n      dup1\n        /* \"Project/banking.sol\":3115:3121  amount */\n      dup5\n        /* \"Project/banking.sol\":3115:3129  amount + carSI */\n      tag_172\n      swap2\n      swap1\n      tag_78\n      jump\t// in\n    tag_172:\n        /* \"Project/banking.sol\":3090:3095  users */\n      0x0d\n        /* \"Project/banking.sol\":3090:3104  users[account] */\n      0x00\n        /* \"Project/banking.sol\":3096:3103  account */\n      dup8\n        /* \"Project/banking.sol\":3090:3104  users[account] */\n      0xffffffffffffffffffffffffffffffffffffffff\n      and\n      0xffffffffffffffffffffffffffffffffffffffff\n      and\n      dup2\n      mstore\n      0x20\n      add\n      swap1\n      dup2\n      mstore\n      0x20\n      add\n      0x00\n      keccak256\n        /* \"Project/banking.sol\":3090:3112  users[account].carLoan */\n      0x02\n      add\n        /* \"Project/banking.sol\":3090:3129  users[account].carLoan = amount + carSI */\n      dup2\n      swap1\n      sstore\n      pop\n        /* \"Project/banking.sol\":3192:3197  month */\n      dup3\n        /* \"Project/banking.sol\":3167:3172  users */\n      0x0d\n        /* \"Project/banking.sol\":3167:3181  users[account] */\n      0x00\n        /* \"Project/banking.sol\":3173:3180  account */\n      dup8\n        /* \"Project/banking.sol\":3167:3181  users[account] */\n      0xffffffffffffffffffffffffffffffffffffffff\n      and\n      0xffffffffffffffffffffffffffffffffffffffff\n      and\n      dup2\n      mstore\n      0x20\n      add\n      swap1\n      dup2\n      mstore\n      0x20\n      add\n      0x00\n      keccak256\n        /* \"Project/banking.sol\":3167:3189  users[account].carLoan */\n      0x02\n      add\n      sload\n        /* \"Project/banking.sol\":3167:3197  users[account].carLoan / month */\n      tag_173\n      swap2\n      swap1\n      tag_171\n      jump\t// in\n    tag_173:\n        /* \"Project/banking.sol\":3143:3148  users */\n      0x0d\n        /* \"Project/banking.sol\":3143:3157  users[account] */\n      0x00\n        /* \"Project/banking.sol\":3149:3156  account */\n      dup8\n        /* \"Project/banking.sol\":3143:3157  users[account] */\n      0xffffffffffffffffffffffffffffffffffffffff\n      and\n      0xffffffffffffffffffffffffffffffffffffffff\n      and\n      dup2\n      mstore\n      0x20\n      add\n      swap1\n      dup2\n      mstore\n      0x20\n      add\n      0x00\n      keccak256\n        /* \"Project/banking.sol\":3143:3164  users[account].carEmi */\n      0x05\n      add\n        /* \"Project/banking.sol\":3143:3197  users[account].carEmi = users[account].carLoan / month */\n      dup2\n      swap1\n      sstore\n      pop\n        /* \"Project/banking.sol\":3247:3252  month */\n      dup3\n        /* \"Project/banking.sol\":3211:3216  users */\n      0x0d\n        /* \"Project/banking.sol\":3211:3225  users[account] */\n      0x00\n        /* \"Project/banking.sol\":3217:3224  account */\n      dup8\n        /* \"Project/banking.sol\":3211:3225  users[account] */\n      0xffffffffffffffffffffffffffffffffffffffff\n      and\n      0xffffffffffffffffffffffffffffffffffffffff\n      and\n      dup2\n      mstore\n      0x20\n      add\n      swap1\n      dup2\n      mstore\n      0x20\n      add\n      0x00\n      keccak256\n        /* \"Project/banking.sol\":3211:3243  users[account].carLoanTimeperiod */\n      0x08\n      add\n      0x00\n        /* \"Project/banking.sol\":3211:3252  users[account].carLoanTimeperiod += month */\n      dup3\n      dup3\n      sload\n      tag_174\n      swap2\n      swap1\n      tag_78\n      jump\t// in\n    tag_174:\n      swap3\n      pop\n      pop\n      dup2\n      swap1\n      sstore\n      pop\n        /* \"Project/banking.sol\":2874:3320  {... */\n      pop\n        /* \"Project/banking.sol\":2761:4679  if (... */\n      jump(tag_175)\n    tag_163:\n        /* \"Project/banking.sol\":3404:3428  abi.encodePacked(\"home\") */\n      add(0x20, mload(0x40))\n      tag_176\n      swap1\n      tag_93\n      jump\t// in\n    tag_176:\n      mload(0x40)\n      0x20\n      dup2\n      dup4\n      sub\n      sub\n      dup2\n      mstore\n      swap1\n      0x40\n      mstore\n        /* \"Project/banking.sol\":3394:3429  keccak256(abi.encodePacked(\"home\")) */\n      dup1\n      mload\n      swap1\n      0x20\n      add\n      keccak256\n        /* \"Project/banking.sol\":3370:3376  _input */\n      dup2\n        /* \"Project/banking.sol\":3353:3377  abi.encodePacked(_input) */\n      add(0x20, mload(0x40))\n      tag_177\n      swap2\n      swap1\n      tag_90\n      jump\t// in\n    tag_177:\n      mload(0x40)\n      0x20\n      dup2\n      dup4\n      sub\n      sub\n      dup2\n      mstore\n      swap1\n      0x40\n      mstore\n        /* \"Project/banking.sol\":3343:3378  keccak256(abi.encodePacked(_input)) */\n      dup1\n      mload\n      swap1\n      0x20\n      add\n      keccak256\n        /* \"Project/banking.sol\":3343:3429  keccak256(abi.encodePacked(_input)) ==... */\n      sub\n        /* \"Project/banking.sol\":3326:4679  if (... */\n      tag_178\n      jumpi\n        /* \"Project/banking.sol\":3505:3506  1 */\n      0x01\n        /* \"Project/banking.sol\":3479:3484  users */\n      0x0d\n        /* \"Project/banking.sol\":3479:3493  users[account] */\n      0x00\n        /* \"Project/banking.sol\":3485:3492  account */\n      dup7\n        /* \"Project/banking.sol\":3479:3493  users[account] */\n      0xffffffffffffffffffffffffffffffffffffffff\n      and\n      0xffffffffffffffffffffffffffffffffffffffff\n      and\n      dup2\n      mstore\n      0x20\n      add\n      swap1\n      dup2\n      mstore\n      0x20\n      add\n      0x00\n      keccak256\n        /* \"Project/banking.sol\":3479:3502  users[account].homeLoan */\n      0x03\n      add\n      sload\n        /* \"Project/banking.sol\":3479:3506  users[account].homeLoan < 1 */\n      lt\n        /* \"Project/banking.sol\":3454:3595  require(... */\n      tag_179\n      jumpi\n      mload(0x40)\n      0x08c379a000000000000000000000000000000000000000000000000000000000\n      dup2\n      mstore\n      0x04\n      add\n      tag_180\n      swap1\n      tag_181\n      jump\t// in\n    tag_180:\n      mload(0x40)\n      dup1\n      swap2\n      sub\n      swap1\n      revert\n    tag_179:\n        /* \"Project/banking.sol\":3609:3623  uint256 homeSI */\n      0x00\n        /* \"Project/banking.sol\":3649:3653  1200 */\n      0x04b0\n        /* \"Project/banking.sol\":3640:3645  month */\n      dup4\n        /* \"Project/banking.sol\":3636:3637  6 */\n      0x06\n        /* \"Project/banking.sol\":3627:3633  amount */\n      dup7\n        /* \"Project/banking.sol\":3627:3637  amount * 6 */\n      tag_182\n      swap2\n      swap1\n      tag_168\n      jump\t// in\n    tag_182:\n        /* \"Project/banking.sol\":3627:3645  amount * 6 * month */\n      tag_183\n      swap2\n      swap1\n      tag_168\n      jump\t// in\n    tag_183:\n        /* \"Project/banking.sol\":3626:3653  (amount * 6 * month) / 1200 */\n      tag_184\n      swap2\n      swap1\n      tag_171\n      jump\t// in\n    tag_184:\n        /* \"Project/banking.sol\":3609:3653  uint256 homeSI = (amount * 6 * month) / 1200 */\n      swap1\n      pop\n        /* \"Project/banking.sol\":3667:3690  uint256 finalAmountHome */\n      0x00\n        /* \"Project/banking.sol\":3702:3708  homeSI */\n      dup2\n        /* \"Project/banking.sol\":3693:3699  amount */\n      dup6\n        /* \"Project/banking.sol\":3693:3708  amount + homeSI */\n      tag_185\n      swap2\n      swap1\n      tag_78\n      jump\t// in\n    tag_185:\n        /* \"Project/banking.sol\":3667:3708  uint256 finalAmountHome = amount + homeSI */\n      swap1\n      pop\n        /* \"Project/banking.sol\":3748:3763  finalAmountHome */\n      dup1\n        /* \"Project/banking.sol\":3722:3727  users */\n      0x0d\n        /* \"Project/banking.sol\":3722:3736  users[account] */\n      0x00\n        /* \"Project/banking.sol\":3728:3735  account */\n      dup9\n        /* \"Project/banking.sol\":3722:3736  users[account] */\n      0xffffffffffffffffffffffffffffffffffffffff\n      and\n      0xffffffffffffffffffffffffffffffffffffffff\n      and\n      dup2\n      mstore\n      0x20\n      add\n      swap1\n      dup2\n      mstore\n      0x20\n      add\n      0x00\n      keccak256\n        /* \"Project/banking.sol\":3722:3745  users[account].homeLoan */\n      0x03\n      add\n        /* \"Project/banking.sol\":3722:3763  users[account].homeLoan = finalAmountHome */\n      dup2\n      swap1\n      sstore\n      pop\n        /* \"Project/banking.sol\":3828:3833  month */\n      dup4\n        /* \"Project/banking.sol\":3802:3807  users */\n      0x0d\n        /* \"Project/banking.sol\":3802:3816  users[account] */\n      0x00\n        /* \"Project/banking.sol\":3808:3815  account */\n      dup9\n        /* \"Project/banking.sol\":3802:3816  users[account] */\n      0xffffffffffffffffffffffffffffffffffffffff\n      and\n      0xffffffffffffffffffffffffffffffffffffffff\n      and\n      dup2\n      mstore\n      0x20\n      add\n      swap1\n      dup2\n      mstore\n      0x20\n      add\n      0x00\n      keccak256\n        /* \"Project/banking.sol\":3802:3825  users[account].homeLoan */\n      0x03\n      add\n      sload\n        /* \"Project/banking.sol\":3802:3833  users[account].homeLoan / month */\n      tag_186\n      swap2\n      swap1\n      tag_171\n      jump\t// in\n    tag_186:\n        /* \"Project/banking.sol\":3777:3782  users */\n      0x0d\n        /* \"Project/banking.sol\":3777:3791  users[account] */\n      0x00\n        /* \"Project/banking.sol\":3783:3790  account */\n      dup9\n        /* \"Project/banking.sol\":3777:3791  users[account] */\n      0xffffffffffffffffffffffffffffffffffffffff\n      and\n      0xffffffffffffffffffffffffffffffffffffffff\n      and\n      dup2\n      mstore\n      0x20\n      add\n      swap1\n      dup2\n      mstore\n      0x20\n      add\n      0x00\n      keccak256\n        /* \"Project/banking.sol\":3777:3799  users[account].homeEmi */\n      0x06\n      add\n        /* \"Project/banking.sol\":3777:3833  users[account].homeEmi = users[account].homeLoan / month */\n      dup2\n      swap1\n      sstore\n      pop\n        /* \"Project/banking.sol\":3884:3889  month */\n      dup4\n        /* \"Project/banking.sol\":3847:3852  users */\n      0x0d\n        /* \"Project/banking.sol\":3847:3861  users[account] */\n      0x00\n        /* \"Project/banking.sol\":3853:3860  account */\n      dup9\n        /* \"Project/banking.sol\":3847:3861  users[account] */\n      0xffffffffffffffffffffffffffffffffffffffff\n      and\n      0xffffffffffffffffffffffffffffffffffffffff\n      and\n      dup2\n      mstore\n      0x20\n      add\n      swap1\n      dup2\n      mstore\n      0x20\n      add\n      0x00\n      keccak256\n        /* \"Project/banking.sol\":3847:3880  users[account].homeLoanTimeperiod */\n      0x09\n      add\n      0x00\n        /* \"Project/banking.sol\":3847:3889  users[account].homeLoanTimeperiod += month */\n      dup3\n      dup3\n      sload\n      tag_187\n      swap2\n      swap1\n      tag_78\n      jump\t// in\n    tag_187:\n      swap3\n      pop\n      pop\n      dup2\n      swap1\n      sstore\n      pop\n        /* \"Project/banking.sol\":3440:3959  {... */\n      pop\n      pop\n        /* \"Project/banking.sol\":3326:4679  if (... */\n      jump(tag_188)\n    tag_178:\n        /* \"Project/banking.sol\":4043:4071  abi.encodePacked(\"personal\") */\n      add(0x20, mload(0x40))\n      tag_189\n      swap1\n      tag_97\n      jump\t// in\n    tag_189:\n      mload(0x40)\n      0x20\n      dup2\n      dup4\n      sub\n      sub\n      dup2\n      mstore\n      swap1\n      0x40\n      mstore\n        /* \"Project/banking.sol\":4033:4072  keccak256(abi.encodePacked(\"personal\")) */\n      dup1\n      mload\n      swap1\n      0x20\n      add\n      keccak256\n        /* \"Project/banking.sol\":4009:4015  _input */\n      dup2\n        /* \"Project/banking.sol\":3992:4016  abi.encodePacked(_input) */\n      add(0x20, mload(0x40))\n      tag_190\n      swap2\n      swap1\n      tag_90\n      jump\t// in\n    tag_190:\n      mload(0x40)\n      0x20\n      dup2\n      dup4\n      sub\n      sub\n      dup2\n      mstore\n      swap1\n      0x40\n      mstore\n        /* \"Project/banking.sol\":3982:4017  keccak256(abi.encodePacked(_input)) */\n      dup1\n      mload\n      swap1\n      0x20\n      add\n      keccak256\n        /* \"Project/banking.sol\":3982:4072  keccak256(abi.encodePacked(_input)) ==... */\n      sub\n        /* \"Project/banking.sol\":3965:4679  if (... */\n      tag_191\n      jumpi\n        /* \"Project/banking.sol\":4152:4153  1 */\n      0x01\n        /* \"Project/banking.sol\":4122:4127  users */\n      0x0d\n        /* \"Project/banking.sol\":4122:4136  users[account] */\n      0x00\n        /* \"Project/banking.sol\":4128:4135  account */\n      dup7\n        /* \"Project/banking.sol\":4122:4136  users[account] */\n      0xffffffffffffffffffffffffffffffffffffffff\n      and\n      0xffffffffffffffffffffffffffffffffffffffff\n      and\n      dup2\n      mstore\n      0x20\n      add\n      swap1\n      dup2\n      mstore\n      0x20\n      add\n      0x00\n      keccak256\n        /* \"Project/banking.sol\":4122:4149  users[account].personalLoan */\n      0x04\n      add\n      sload\n        /* \"Project/banking.sol\":4122:4153  users[account].personalLoan < 1 */\n      lt\n        /* \"Project/banking.sol\":4097:4238  require(... */\n      tag_192\n      jumpi\n      mload(0x40)\n      0x08c379a000000000000000000000000000000000000000000000000000000000\n      dup2\n      mstore\n      0x04\n      add\n      tag_193\n      swap1\n      tag_194\n      jump\t// in\n    tag_193:\n      mload(0x40)\n      dup1\n      swap2\n      sub\n      swap1\n      revert\n    tag_192:\n        /* \"Project/banking.sol\":4252:4270  uint256 personalSI */\n      0x00\n        /* \"Project/banking.sol\":4297:4301  1200 */\n      0x04b0\n        /* \"Project/banking.sol\":4288:4293  month */\n      dup4\n        /* \"Project/banking.sol\":4283:4285  10 */\n      0x0a\n        /* \"Project/banking.sol\":4274:4280  amount */\n      dup7\n        /* \"Project/banking.sol\":4274:4285  amount * 10 */\n      tag_195\n      swap2\n      swap1\n      tag_168\n      jump\t// in\n    tag_195:\n        /* \"Project/banking.sol\":4274:4293  amount * 10 * month */\n      tag_196\n      swap2\n      swap1\n      tag_168\n      jump\t// in\n    tag_196:\n        /* \"Project/banking.sol\":4273:4301  (amount * 10 * month) / 1200 */\n      tag_197\n      swap2\n      swap1\n      tag_171\n      jump\t// in\n    tag_197:\n        /* \"Project/banking.sol\":4252:4301  uint256 personalSI = (amount * 10 * month) / 1200 */\n      swap1\n      pop\n        /* \"Project/banking.sol\":4315:4342  uint256 finalAmountPersonal */\n      0x00\n        /* \"Project/banking.sol\":4354:4364  personalSI */\n      dup2\n        /* \"Project/banking.sol\":4345:4351  amount */\n      dup6\n        /* \"Project/banking.sol\":4345:4364  amount + personalSI */\n      tag_198\n      swap2\n      swap1\n      tag_78\n      jump\t// in\n    tag_198:\n        /* \"Project/banking.sol\":4315:4364  uint256 finalAmountPersonal = amount + personalSI */\n      swap1\n      pop\n        /* \"Project/banking.sol\":4408:4427  finalAmountPersonal */\n      dup1\n        /* \"Project/banking.sol\":4378:4383  users */\n      0x0d\n        /* \"Project/banking.sol\":4378:4392  users[account] */\n      0x00\n        /* \"Project/banking.sol\":4384:4391  account */\n      dup9\n        /* \"Project/banking.sol\":4378:4392  users[account] */\n      0xffffffffffffffffffffffffffffffffffffffff\n      and\n      0xffffffffffffffffffffffffffffffffffffffff\n      and\n      dup2\n      mstore\n      0x20\n      add\n      swap1\n      dup2\n      mstore\n      0x20\n      add\n      0x00\n      keccak256\n        /* \"Project/banking.sol\":4378:4405  users[account].personalLoan */\n      0x04\n      add\n        /* \"Project/banking.sol\":4378:4427  users[account].personalLoan = finalAmountPersonal */\n      dup2\n      swap1\n      sstore\n      pop\n        /* \"Project/banking.sol\":4536:4541  month */\n      dup4\n        /* \"Project/banking.sol\":4490:4495  users */\n      0x0d\n        /* \"Project/banking.sol\":4490:4504  users[account] */\n      0x00\n        /* \"Project/banking.sol\":4496:4503  account */\n      dup9\n        /* \"Project/banking.sol\":4490:4504  users[account] */\n      0xffffffffffffffffffffffffffffffffffffffff\n      and\n      0xffffffffffffffffffffffffffffffffffffffff\n      and\n      dup2\n      mstore\n      0x20\n      add\n      swap1\n      dup2\n      mstore\n      0x20\n      add\n      0x00\n      keccak256\n        /* \"Project/banking.sol\":4490:4517  users[account].personalLoan */\n      0x04\n      add\n      sload\n        /* \"Project/banking.sol\":4490:4541  users[account].personalLoan /... */\n      tag_199\n      swap2\n      swap1\n      tag_171\n      jump\t// in\n    tag_199:\n        /* \"Project/banking.sol\":4441:4446  users */\n      0x0d\n        /* \"Project/banking.sol\":4441:4455  users[account] */\n      0x00\n        /* \"Project/banking.sol\":4447:4454  account */\n      dup9\n        /* \"Project/banking.sol\":4441:4455  users[account] */\n      0xffffffffffffffffffffffffffffffffffffffff\n      and\n      0xffffffffffffffffffffffffffffffffffffffff\n      and\n      dup2\n      mstore\n      0x20\n      add\n      swap1\n      dup2\n      mstore\n      0x20\n      add\n      0x00\n      keccak256\n        /* \"Project/banking.sol\":4441:4471  users[account].personalLoanEmi */\n      0x07\n      add\n        /* \"Project/banking.sol\":4441:4541  users[account].personalLoanEmi =... */\n      dup2\n      swap1\n      sstore\n      pop\n        /* \"Project/banking.sol\":4596:4601  month */\n      dup4\n        /* \"Project/banking.sol\":4555:4560  users */\n      0x0d\n        /* \"Project/banking.sol\":4555:4569  users[account] */\n      0x00\n        /* \"Project/banking.sol\":4561:4568  account */\n      dup9\n        /* \"Project/banking.sol\":4555:4569  users[account] */\n      0xffffffffffffffffffffffffffffffffffffffff\n      and\n      0xffffffffffffffffffffffffffffffffffffffff\n      and\n      dup2\n      mstore\n      0x20\n      add\n      swap1\n      dup2\n      mstore\n      0x20\n      add\n      0x00\n      keccak256\n        /* \"Project/banking.sol\":4555:4592  users[account].personalLoanTimeperiod */\n      0x0a\n      add\n      0x00\n        /* \"Project/banking.sol\":4555:4601  users[account].personalLoanTimeperiod += month */\n      dup3\n      dup3\n      sload\n      tag_200\n      swap2\n      swap1\n      tag_78\n      jump\t// in\n    tag_200:\n      swap3\n      pop\n      pop\n      dup2\n      swap1\n      sstore\n      pop\n        /* \"Project/banking.sol\":4083:4679  {... */\n      pop\n      pop\n        /* \"Project/banking.sol\":3965:4679  if (... */\n    tag_191:\n        /* \"Project/banking.sol\":3326:4679  if (... */\n    tag_188:\n        /* \"Project/banking.sol\":2761:4679  if (... */\n    tag_175:\n        /* \"Project/banking.sol\":4706:5203  user(... */\n      mload(0x40)\n      dup1\n      0x0180\n      add\n      0x40\n      mstore\n      dup1\n        /* \"Project/banking.sol\":4724:4729  users */\n      0x0d\n        /* \"Project/banking.sol\":4724:4738  users[account] */\n      0x00\n        /* \"Project/banking.sol\":4730:4737  account */\n      dup8\n        /* \"Project/banking.sol\":4724:4738  users[account] */\n      0xffffffffffffffffffffffffffffffffffffffff\n      and\n      0xffffffffffffffffffffffffffffffffffffffff\n      and\n      dup2\n      mstore\n      0x20\n      add\n      swap1\n      dup2\n      mstore\n      0x20\n      add\n      0x00\n      keccak256\n        /* \"Project/banking.sol\":4724:4746  users[account].user_id */\n      0x00\n      add\n      0x00\n      swap1\n      sload\n      swap1\n      0x0100\n      exp\n      swap1\n      div\n      0xffffffffffffffffffffffffffffffffffffffff\n      and\n        /* \"Project/banking.sol\":4706:5203  user(... */\n      0xffffffffffffffffffffffffffffffffffffffff\n      and\n      dup2\n      mstore\n      0x20\n      add\n        /* \"Project/banking.sol\":4760:4765  users */\n      0x0d\n        /* \"Project/banking.sol\":4760:4774  users[account] */\n      0x00\n        /* \"Project/banking.sol\":4766:4773  account */\n      dup8\n        /* \"Project/banking.sol\":4760:4774  users[account] */\n      0xffffffffffffffffffffffffffffffffffffffff\n      and\n      0xffffffffffffffffffffffffffffffffffffffff\n      and\n      dup2\n      mstore\n      0x20\n      add\n      swap1\n      dup2\n      mstore\n      0x20\n      add\n      0x00\n      keccak256\n        /* \"Project/banking.sol\":4760:4782  users[account].balance */\n      0x01\n      add\n      sload\n        /* \"Project/banking.sol\":4706:5203  user(... */\n      dup2\n      mstore\n      0x20\n      add\n        /* \"Project/banking.sol\":4796:4801  users */\n      0x0d\n        /* \"Project/banking.sol\":4796:4810  users[account] */\n      0x00\n        /* \"Project/banking.sol\":4802:4809  account */\n      dup8\n        /* \"Project/banking.sol\":4796:4810  users[account] */\n      0xffffffffffffffffffffffffffffffffffffffff\n      and\n      0xffffffffffffffffffffffffffffffffffffffff\n      and\n      dup2\n      mstore\n      0x20\n      add\n      swap1\n      dup2\n      mstore\n      0x20\n      add\n      0x00\n      keccak256\n        /* \"Project/banking.sol\":4796:4818  users[account].carLoan */\n      0x02\n      add\n      sload\n        /* \"Project/banking.sol\":4706:5203  user(... */\n      dup2\n      mstore\n      0x20\n      add\n        /* \"Project/banking.sol\":4832:4837  users */\n      0x0d\n        /* \"Project/banking.sol\":4832:4846  users[account] */\n      0x00\n        /* \"Project/banking.sol\":4838:4845  account */\n      dup8\n        /* \"Project/banking.sol\":4832:4846  users[account] */\n      0xffffffffffffffffffffffffffffffffffffffff\n      and\n      0xffffffffffffffffffffffffffffffffffffffff\n      and\n      dup2\n      mstore\n      0x20\n      add\n      swap1\n      dup2\n      mstore\n      0x20\n      add\n      0x00\n      keccak256\n        /* \"Project/banking.sol\":4832:4855  users[account].homeLoan */\n      0x03\n      add\n      sload\n        /* \"Project/banking.sol\":4706:5203  user(... */\n      dup2\n      mstore\n      0x20\n      add\n        /* \"Project/banking.sol\":4869:4874  users */\n      0x0d\n        /* \"Project/banking.sol\":4869:4883  users[account] */\n      0x00\n        /* \"Project/banking.sol\":4875:4882  account */\n      dup8\n        /* \"Project/banking.sol\":4869:4883  users[account] */\n      0xffffffffffffffffffffffffffffffffffffffff\n      and\n      0xffffffffffffffffffffffffffffffffffffffff\n      and\n      dup2\n      mstore\n      0x20\n      add\n      swap1\n      dup2\n      mstore\n      0x20\n      add\n      0x00\n      keccak256\n        /* \"Project/banking.sol\":4869:4896  users[account].personalLoan */\n      0x04\n      add\n      sload\n        /* \"Project/banking.sol\":4706:5203  user(... */\n      dup2\n      mstore\n      0x20\n      add\n        /* \"Project/banking.sol\":4910:4915  users */\n      0x0d\n        /* \"Project/banking.sol\":4910:4924  users[account] */\n      0x00\n        /* \"Project/banking.sol\":4916:4923  account */\n      dup8\n        /* \"Project/banking.sol\":4910:4924  users[account] */\n      0xffffffffffffffffffffffffffffffffffffffff\n      and\n      0xffffffffffffffffffffffffffffffffffffffff\n      and\n      dup2\n      mstore\n      0x20\n      add\n      swap1\n      dup2\n      mstore\n      0x20\n      add\n      0x00\n      keccak256\n        /* \"Project/banking.sol\":4910:4931  users[account].carEmi */\n      0x05\n      add\n      sload\n        /* \"Project/banking.sol\":4706:5203  user(... */\n      dup2\n      mstore\n      0x20\n      add\n        /* \"Project/banking.sol\":4945:4950  users */\n      0x0d\n        /* \"Project/banking.sol\":4945:4959  users[account] */\n      0x00\n        /* \"Project/banking.sol\":4951:4958  account */\n      dup8\n        /* \"Project/banking.sol\":4945:4959  users[account] */\n      0xffffffffffffffffffffffffffffffffffffffff\n      and\n      0xffffffffffffffffffffffffffffffffffffffff\n      and\n      dup2\n      mstore\n      0x20\n      add\n      swap1\n      dup2\n      mstore\n      0x20\n      add\n      0x00\n      keccak256\n        /* \"Project/banking.sol\":4945:4967  users[account].homeEmi */\n      0x06\n      add\n      sload\n        /* \"Project/banking.sol\":4706:5203  user(... */\n      dup2\n      mstore\n      0x20\n      add\n        /* \"Project/banking.sol\":4981:4986  users */\n      0x0d\n        /* \"Project/banking.sol\":4981:4995  users[account] */\n      0x00\n        /* \"Project/banking.sol\":4987:4994  account */\n      dup8\n        /* \"Project/banking.sol\":4981:4995  users[account] */\n      0xffffffffffffffffffffffffffffffffffffffff\n      and\n      0xffffffffffffffffffffffffffffffffffffffff\n      and\n      dup2\n      mstore\n      0x20\n      add\n      swap1\n      dup2\n      mstore\n      0x20\n      add\n      0x00\n      keccak256\n        /* \"Project/banking.sol\":4981:5011  users[account].personalLoanEmi */\n      0x07\n      add\n      sload\n        /* \"Project/banking.sol\":4706:5203  user(... */\n      dup2\n      mstore\n      0x20\n      add\n        /* \"Project/banking.sol\":5025:5030  users */\n      0x0d\n        /* \"Project/banking.sol\":5025:5039  users[account] */\n      0x00\n        /* \"Project/banking.sol\":5031:5038  account */\n      dup8\n        /* \"Project/banking.sol\":5025:5039  users[account] */\n      0xffffffffffffffffffffffffffffffffffffffff\n      and\n      0xffffffffffffffffffffffffffffffffffffffff\n      and\n      dup2\n      mstore\n      0x20\n      add\n      swap1\n      dup2\n      mstore\n      0x20\n      add\n      0x00\n      keccak256\n        /* \"Project/banking.sol\":5025:5057  users[account].carLoanTimeperiod */\n      0x08\n      add\n      sload\n        /* \"Project/banking.sol\":4706:5203  user(... */\n      dup2\n      mstore\n      0x20\n      add\n        /* \"Project/banking.sol\":5071:5076  users */\n      0x0d\n        /* \"Project/banking.sol\":5071:5085  users[account] */\n      0x00\n        /* \"Project/banking.sol\":5077:5084  account */\n      dup8\n        /* \"Project/banking.sol\":5071:5085  users[account] */\n      0xffffffffffffffffffffffffffffffffffffffff\n      and\n      0xffffffffffffffffffffffffffffffffffffffff\n      and\n      dup2\n      mstore\n      0x20\n      add\n      swap1\n      dup2\n      mstore\n      0x20\n      add\n      0x00\n      keccak256\n        /* \"Project/banking.sol\":5071:5104  users[account].homeLoanTimeperiod */\n      0x09\n      add\n      sload\n        /* \"Project/banking.sol\":4706:5203  user(... */\n      dup2\n      mstore\n      0x20\n      add\n        /* \"Project/banking.sol\":5118:5123  users */\n      0x0d\n        /* \"Project/banking.sol\":5118:5132  users[account] */\n      0x00\n        /* \"Project/banking.sol\":5124:5131  account */\n      dup8\n        /* \"Project/banking.sol\":5118:5132  users[account] */\n      0xffffffffffffffffffffffffffffffffffffffff\n      and\n      0xffffffffffffffffffffffffffffffffffffffff\n      and\n      dup2\n      mstore\n      0x20\n      add\n      swap1\n      dup2\n      mstore\n      0x20\n      add\n      0x00\n      keccak256\n        /* \"Project/banking.sol\":5118:5155  users[account].personalLoanTimeperiod */\n      0x0a\n      add\n      sload\n        /* \"Project/banking.sol\":4706:5203  user(... */\n      dup2\n      mstore\n      0x20\n      add\n        /* \"Project/banking.sol\":5169:5174  users */\n      0x0d\n        /* \"Project/banking.sol\":5169:5183  users[account] */\n      0x00\n        /* \"Project/banking.sol\":5175:5182  account */\n      dup8\n        /* \"Project/banking.sol\":5169:5183  users[account] */\n      0xffffffffffffffffffffffffffffffffffffffff\n      and\n      0xffffffffffffffffffffffffffffffffffffffff\n      and\n      dup2\n      mstore\n      0x20\n      add\n      swap1\n      dup2\n      mstore\n      0x20\n      add\n      0x00\n      keccak256\n        /* \"Project/banking.sol\":5169:5193  users[account].timestamp */\n      0x0b\n      add\n      sload\n        /* \"Project/banking.sol\":4706:5203  user(... */\n      dup2\n      mstore\n      pop\n        /* \"Project/banking.sol\":4689:4694  users */\n      0x0d\n        /* \"Project/banking.sol\":4689:4703  users[account] */\n      0x00\n        /* \"Project/banking.sol\":4695:4702  account */\n      dup7\n        /* \"Project/banking.sol\":4689:4703  users[account] */\n      0xffffffffffffffffffffffffffffffffffffffff\n      and\n      0xffffffffffffffffffffffffffffffffffffffff\n      and\n      dup2\n      mstore\n      0x20\n      add\n      swap1\n      dup2\n      mstore\n      0x20\n      add\n      0x00\n      keccak256\n        /* \"Project/banking.sol\":4689:5203  users[account] = user(... */\n      0x00\n      dup3\n      add\n      mload\n      dup2\n      0x00\n      add\n      exp(0x0100, 0x00)\n      dup2\n      sload\n      dup2\n      0xffffffffffffffffffffffffffffffffffffffff\n      mul\n      not\n      and\n      swap1\n      dup4\n      0xffffffffffffffffffffffffffffffffffffffff\n      and\n      mul\n      or\n      swap1\n      sstore\n      pop\n      0x20\n      dup3\n      add\n      mload\n      dup2\n      0x01\n      add\n      sstore\n      0x40\n      dup3\n      add\n      mload\n      dup2\n      0x02\n      add\n      sstore\n      0x60\n      dup3\n      add\n      mload\n      dup2\n      0x03\n      add\n      sstore\n      0x80\n      dup3\n      add\n      mload\n      dup2\n      0x04\n      add\n      sstore\n      0xa0\n      dup3\n      add\n      mload\n      dup2\n      0x05\n      add\n      sstore\n      0xc0\n      dup3\n      add\n      mload\n      dup2\n      0x06\n      add\n      sstore\n      0xe0\n      dup3\n      add\n      mload\n      dup2\n      0x07\n      add\n      sstore\n      0x0100\n      dup3\n      add\n      mload\n      dup2\n      0x08\n      add\n      sstore\n      0x0120\n      dup3\n      add\n      mload\n      dup2\n      0x09\n      add\n      sstore\n      0x0140\n      dup3\n      add\n      mload\n      dup2\n      0x0a\n      add\n      sstore\n      0x0160\n      dup3\n      add\n      mload\n      dup2\n      0x0b\n      add\n      sstore\n      swap1\n      pop\n      pop\n        /* \"Project/banking.sol\":1830:5210  function Loan(... */\n      pop\n      pop\n      pop\n      pop\n      jump\t// out\n        /* \"Project/banking.sol\":841:1000  function addFund() public payable onlyOwner {... */\n    tag_55:\n        /* \"Project/banking.sol\":771:776  admin */\n      0x0c\n      0x00\n      swap1\n      sload\n      swap1\n      0x0100\n      exp\n      swap1\n      div\n      0xffffffffffffffffffffffffffffffffffffffff\n      and\n        /* \"Project/banking.sol\":757:776  msg.sender == admin */\n      0xffffffffffffffffffffffffffffffffffffffff\n      and\n        /* \"Project/banking.sol\":757:767  msg.sender */\n      caller\n        /* \"Project/banking.sol\":757:776  msg.sender == admin */\n      0xffffffffffffffffffffffffffffffffffffffff\n      and\n      eq\n        /* \"Project/banking.sol\":749:817  require(msg.sender == admin, \"You're not the smart contract admin!\") */\n      tag_202\n      jumpi\n      mload(0x40)\n      0x08c379a000000000000000000000000000000000000000000000000000000000\n      dup2\n      mstore\n      0x04\n      add\n      tag_203\n      swap1\n      tag_204\n      jump\t// in\n    tag_203:\n      mload(0x40)\n      dup1\n      swap2\n      sub\n      swap1\n      revert\n    tag_202:\n        /* \"Project/banking.sol\":967:971  this */\n      address\n        /* \"Project/banking.sol\":951:982  payable(address(this)).transfer */\n      0xffffffffffffffffffffffffffffffffffffffff\n      and\n        /* \"Project/banking.sol\":951:993  payable(address(this)).transfer(msg.value) */\n      0x08fc\n        /* \"Project/banking.sol\":983:992  msg.value */\n      callvalue\n        /* \"Project/banking.sol\":951:993  payable(address(this)).transfer(msg.value) */\n      swap1\n      dup2\n      iszero\n      mul\n      swap1\n      mload(0x40)\n      0x00\n      mload(0x40)\n      dup1\n      dup4\n      sub\n      dup2\n      dup6\n      dup9\n      dup9\n      call\n      swap4\n      pop\n      pop\n      pop\n      pop\n      iszero\n      dup1\n      iszero\n      tag_207\n      jumpi\n      returndatasize\n      0x00\n      dup1\n      returndatacopy\n      revert(0x00, returndatasize)\n    tag_207:\n      pop\n        /* \"Project/banking.sol\":841:1000  function addFund() public payable onlyOwner {... */\n      jump\t// out\n        /* \"Project/banking.sol\":1006:1043  mapping(address => user) public users */\n    tag_59:\n      mstore(0x20, 0x0d)\n      dup1\n      0x00\n      mstore\n      keccak256(0x00, 0x40)\n      0x00\n      swap2\n      pop\n      swap1\n      pop\n      dup1\n      0x00\n      add\n      0x00\n      swap1\n      sload\n      swap1\n      0x0100\n      exp\n      swap1\n      div\n      0xffffffffffffffffffffffffffffffffffffffff\n      and\n      swap1\n      dup1\n      0x01\n      add\n      sload\n      swap1\n      dup1\n      0x02\n      add\n      sload\n      swap1\n      dup1\n      0x03\n      add\n      sload\n      swap1\n      dup1\n      0x04\n      add\n      sload\n      swap1\n      dup1\n      0x05\n      add\n      sload\n      swap1\n      dup1\n      0x06\n      add\n      sload\n      swap1\n      dup1\n      0x07\n      add\n      sload\n      swap1\n      dup1\n      0x08\n      add\n      sload\n      swap1\n      dup1\n      0x09\n      add\n      sload\n      swap1\n      dup1\n      0x0a\n      add\n      sload\n      swap1\n      dup1\n      0x0b\n      add\n      sload\n      swap1\n      pop\n      dup13\n      jump\t// out\n        /* \"Project/banking.sol\":9656:10077  function homeLoanDetails(address account)... */\n    tag_64:\n        /* \"Project/banking.sol\":9756:9774  uint256 loanAmount */\n      0x00\n        /* \"Project/banking.sol\":9788:9805  uint256 montlyEmi */\n      dup1\n        /* \"Project/banking.sol\":9819:9837  uint256 timeperiod */\n      0x00\n        /* \"Project/banking.sol\":9889:9890  0 */\n      dup1\n        /* \"Project/banking.sol\":9870:9891  account != address(0) */\n      0xffffffffffffffffffffffffffffffffffffffff\n      and\n        /* \"Project/banking.sol\":9870:9877  account */\n      dup5\n        /* \"Project/banking.sol\":9870:9891  account != address(0) */\n      0xffffffffffffffffffffffffffffffffffffffff\n      and\n      sub\n        /* \"Project/banking.sol\":9862:9923  require(account != address(0), \"zero address is not allowed\") */\n      tag_209\n      jumpi\n      mload(0x40)\n      0x08c379a000000000000000000000000000000000000000000000000000000000\n      dup2\n      mstore\n      0x04\n      add\n      tag_210\n      swap1\n      tag_73\n      jump\t// in\n    tag_210:\n      mload(0x40)\n      dup1\n      swap2\n      sub\n      swap1\n      revert\n    tag_209:\n        /* \"Project/banking.sol\":9954:9959  users */\n      0x0d\n        /* \"Project/banking.sol\":9954:9968  users[account] */\n      0x00\n        /* \"Project/banking.sol\":9960:9967  account */\n      dup6\n        /* \"Project/banking.sol\":9954:9968  users[account] */\n      0xffffffffffffffffffffffffffffffffffffffff\n      and\n      0xffffffffffffffffffffffffffffffffffffffff\n      and\n      dup2\n      mstore\n      0x20\n      add\n      swap1\n      dup2\n      mstore\n      0x20\n      add\n      0x00\n      keccak256\n        /* \"Project/banking.sol\":9954:9977  users[account].homeLoan */\n      0x03\n      add\n      sload\n        /* \"Project/banking.sol\":9991:9996  users */\n      0x0d\n        /* \"Project/banking.sol\":9991:10005  users[account] */\n      0x00\n        /* \"Project/banking.sol\":9997:10004  account */\n      dup7\n        /* \"Project/banking.sol\":9991:10005  users[account] */\n      0xffffffffffffffffffffffffffffffffffffffff\n      and\n      0xffffffffffffffffffffffffffffffffffffffff\n      and\n      dup2\n      mstore\n      0x20\n      add\n      swap1\n      dup2\n      mstore\n      0x20\n      add\n      0x00\n      keccak256\n        /* \"Project/banking.sol\":9991:10013  users[account].homeEmi */\n      0x06\n      add\n      sload\n        /* \"Project/banking.sol\":10027:10032  users */\n      0x0d\n        /* \"Project/banking.sol\":10027:10041  users[account] */\n      0x00\n        /* \"Project/banking.sol\":10033:10040  account */\n      dup8\n        /* \"Project/banking.sol\":10027:10041  users[account] */\n      0xffffffffffffffffffffffffffffffffffffffff\n      and\n      0xffffffffffffffffffffffffffffffffffffffff\n      and\n      dup2\n      mstore\n      0x20\n      add\n      swap1\n      dup2\n      mstore\n      0x20\n      add\n      0x00\n      keccak256\n        /* \"Project/banking.sol\":10027:10060  users[account].homeLoanTimeperiod */\n      0x09\n      add\n      sload\n        /* \"Project/banking.sol\":9933:10070  return (... */\n      swap3\n      pop\n      swap3\n      pop\n      swap3\n      pop\n        /* \"Project/banking.sol\":9656:10077  function homeLoanDetails(address account)... */\n      swap2\n      swap4\n      swap1\n      swap3\n      pop\n      jump\t// out\n        /* \"Project/banking.sol\":5216:6099  function withdraw(address payable account, uint256 amount) public {... */\n    tag_69:\n        /* \"Project/banking.sol\":5322:5323  0 */\n      0x00\n        /* \"Project/banking.sol\":5313:5319  amount */\n      dup2\n        /* \"Project/banking.sol\":5313:5323  amount > 0 */\n      gt\n        /* \"Project/banking.sol\":5313:5358  amount > 0 && amount < users[account].balance */\n      dup1\n      iszero\n      tag_212\n      jumpi\n      pop\n        /* \"Project/banking.sol\":5336:5341  users */\n      0x0d\n        /* \"Project/banking.sol\":5336:5350  users[account] */\n      0x00\n        /* \"Project/banking.sol\":5342:5349  account */\n      dup4\n        /* \"Project/banking.sol\":5336:5350  users[account] */\n      0xffffffffffffffffffffffffffffffffffffffff\n      and\n      0xffffffffffffffffffffffffffffffffffffffff\n      and\n      dup2\n      mstore\n      0x20\n      add\n      swap1\n      dup2\n      mstore\n      0x20\n      add\n      0x00\n      keccak256\n        /* \"Project/banking.sol\":5336:5358  users[account].balance */\n      0x01\n      add\n      sload\n        /* \"Project/banking.sol\":5327:5333  amount */\n      dup2\n        /* \"Project/banking.sol\":5327:5358  amount < users[account].balance */\n      lt\n        /* \"Project/banking.sol\":5313:5358  amount > 0 && amount < users[account].balance */\n    tag_212:\n        /* \"Project/banking.sol\":5292:5398  require(... */\n      tag_213\n      jumpi\n      mload(0x40)\n      0x08c379a000000000000000000000000000000000000000000000000000000000\n      dup2\n      mstore\n      0x04\n      add\n      tag_214\n      swap1\n      tag_215\n      jump\t// in\n    tag_214:\n      mload(0x40)\n      dup1\n      swap2\n      sub\n      swap1\n      revert\n    tag_213:\n        /* \"Project/banking.sol\":5435:5436  0 */\n      0x00\n        /* \"Project/banking.sol\":5416:5437  account != address(0) */\n      0xffffffffffffffffffffffffffffffffffffffff\n      and\n        /* \"Project/banking.sol\":5416:5423  account */\n      dup3\n        /* \"Project/banking.sol\":5416:5437  account != address(0) */\n      0xffffffffffffffffffffffffffffffffffffffff\n      and\n      sub\n        /* \"Project/banking.sol\":5408:5469  require(account != address(0), \"zero address is not allowed\") */\n      tag_216\n      jumpi\n      mload(0x40)\n      0x08c379a000000000000000000000000000000000000000000000000000000000\n      dup2\n      mstore\n      0x04\n      add\n      tag_217\n      swap1\n      tag_73\n      jump\t// in\n    tag_217:\n      mload(0x40)\n      dup1\n      swap2\n      sub\n      swap1\n      revert\n    tag_216:\n        /* \"Project/banking.sol\":5497:5498  0 */\n      0x00\n        /* \"Project/banking.sol\":5487:5493  amount */\n      dup2\n        /* \"Project/banking.sol\":5487:5498  amount != 0 */\n      sub\n        /* \"Project/banking.sol\":5479:5526  require(amount != 0, \"please send some amount\") */\n      tag_218\n      jumpi\n      mload(0x40)\n      0x08c379a000000000000000000000000000000000000000000000000000000000\n      dup2\n      mstore\n      0x04\n      add\n      tag_219\n      swap1\n      tag_76\n      jump\t// in\n    tag_219:\n      mload(0x40)\n      dup1\n      swap2\n      sub\n      swap1\n      revert\n    tag_218:\n        /* \"Project/banking.sol\":5562:5568  amount */\n      dup1\n        /* \"Project/banking.sol\":5536:5541  users */\n      0x0d\n        /* \"Project/banking.sol\":5536:5550  users[account] */\n      0x00\n        /* \"Project/banking.sol\":5542:5549  account */\n      dup5\n        /* \"Project/banking.sol\":5536:5550  users[account] */\n      0xffffffffffffffffffffffffffffffffffffffff\n      and\n      0xffffffffffffffffffffffffffffffffffffffff\n      and\n      dup2\n      mstore\n      0x20\n      add\n      swap1\n      dup2\n      mstore\n      0x20\n      add\n      0x00\n      keccak256\n        /* \"Project/banking.sol\":5536:5558  users[account].balance */\n      0x01\n      add\n      0x00\n        /* \"Project/banking.sol\":5536:5568  users[account].balance -= amount */\n      dup3\n      dup3\n      sload\n      tag_220\n      swap2\n      swap1\n      tag_108\n      jump\t// in\n    tag_220:\n      swap3\n      pop\n      pop\n      dup2\n      swap1\n      sstore\n      pop\n        /* \"Project/banking.sol\":5595:6092  user(... */\n      mload(0x40)\n      dup1\n      0x0180\n      add\n      0x40\n      mstore\n      dup1\n        /* \"Project/banking.sol\":5613:5618  users */\n      0x0d\n        /* \"Project/banking.sol\":5613:5627  users[account] */\n      0x00\n        /* \"Project/banking.sol\":5619:5626  account */\n      dup6\n        /* \"Project/banking.sol\":5613:5627  users[account] */\n      0xffffffffffffffffffffffffffffffffffffffff\n      and\n      0xffffffffffffffffffffffffffffffffffffffff\n      and\n      dup2\n      mstore\n      0x20\n      add\n      swap1\n      dup2\n      mstore\n      0x20\n      add\n      0x00\n      keccak256\n        /* \"Project/banking.sol\":5613:5635  users[account].user_id */\n      0x00\n      add\n      0x00\n      swap1\n      sload\n      swap1\n      0x0100\n      exp\n      swap1\n      div\n      0xffffffffffffffffffffffffffffffffffffffff\n      and\n        /* \"Project/banking.sol\":5595:6092  user(... */\n      0xffffffffffffffffffffffffffffffffffffffff\n      and\n      dup2\n      mstore\n      0x20\n      add\n        /* \"Project/banking.sol\":5649:5654  users */\n      0x0d\n        /* \"Project/banking.sol\":5649:5663  users[account] */\n      0x00\n        /* \"Project/banking.sol\":5655:5662  account */\n      dup6\n        /* \"Project/banking.sol\":5649:5663  users[account] */\n      0xffffffffffffffffffffffffffffffffffffffff\n      and\n      0xffffffffffffffffffffffffffffffffffffffff\n      and\n      dup2\n      mstore\n      0x20\n      add\n      swap1\n      dup2\n      mstore\n      0x20\n      add\n      0x00\n      keccak256\n        /* \"Project/banking.sol\":5649:5671  users[account].balance */\n      0x01\n      add\n      sload\n        /* \"Project/banking.sol\":5595:6092  user(... */\n      dup2\n      mstore\n      0x20\n      add\n        /* \"Project/banking.sol\":5685:5690  users */\n      0x0d\n        /* \"Project/banking.sol\":5685:5699  users[account] */\n      0x00\n        /* \"Project/banking.sol\":5691:5698  account */\n      dup6\n        /* \"Project/banking.sol\":5685:5699  users[account] */\n      0xffffffffffffffffffffffffffffffffffffffff\n      and\n      0xffffffffffffffffffffffffffffffffffffffff\n      and\n      dup2\n      mstore\n      0x20\n      add\n      swap1\n      dup2\n      mstore\n      0x20\n      add\n      0x00\n      keccak256\n        /* \"Project/banking.sol\":5685:5707  users[account].carLoan */\n      0x02\n      add\n      sload\n        /* \"Project/banking.sol\":5595:6092  user(... */\n      dup2\n      mstore\n      0x20\n      add\n        /* \"Project/banking.sol\":5721:5726  users */\n      0x0d\n        /* \"Project/banking.sol\":5721:5735  users[account] */\n      0x00\n        /* \"Project/banking.sol\":5727:5734  account */\n      dup6\n        /* \"Project/banking.sol\":5721:5735  users[account] */\n      0xffffffffffffffffffffffffffffffffffffffff\n      and\n      0xffffffffffffffffffffffffffffffffffffffff\n      and\n      dup2\n      mstore\n      0x20\n      add\n      swap1\n      dup2\n      mstore\n      0x20\n      add\n      0x00\n      keccak256\n        /* \"Project/banking.sol\":5721:5744  users[account].homeLoan */\n      0x03\n      add\n      sload\n        /* \"Project/banking.sol\":5595:6092  user(... */\n      dup2\n      mstore\n      0x20\n      add\n        /* \"Project/banking.sol\":5758:5763  users */\n      0x0d\n        /* \"Project/banking.sol\":5758:5772  users[account] */\n      0x00\n        /* \"Project/banking.sol\":5764:5771  account */\n      dup6\n        /* \"Project/banking.sol\":5758:5772  users[account] */\n      0xffffffffffffffffffffffffffffffffffffffff\n      and\n      0xffffffffffffffffffffffffffffffffffffffff\n      and\n      dup2\n      mstore\n      0x20\n      add\n      swap1\n      dup2\n      mstore\n      0x20\n      add\n      0x00\n      keccak256\n        /* \"Project/banking.sol\":5758:5785  users[account].personalLoan */\n      0x04\n      add\n      sload\n        /* \"Project/banking.sol\":5595:6092  user(... */\n      dup2\n      mstore\n      0x20\n      add\n        /* \"Project/banking.sol\":5799:5804  users */\n      0x0d\n        /* \"Project/banking.sol\":5799:5813  users[account] */\n      0x00\n        /* \"Project/banking.sol\":5805:5812  account */\n      dup6\n        /* \"Project/banking.sol\":5799:5813  users[account] */\n      0xffffffffffffffffffffffffffffffffffffffff\n      and\n      0xffffffffffffffffffffffffffffffffffffffff\n      and\n      dup2\n      mstore\n      0x20\n      add\n      swap1\n      dup2\n      mstore\n      0x20\n      add\n      0x00\n      keccak256\n        /* \"Project/banking.sol\":5799:5820  users[account].carEmi */\n      0x05\n      add\n      sload\n        /* \"Project/banking.sol\":5595:6092  user(... */\n      dup2\n      mstore\n      0x20\n      add\n        /* \"Project/banking.sol\":5834:5839  users */\n      0x0d\n        /* \"Project/banking.sol\":5834:5848  users[account] */\n      0x00\n        /* \"Project/banking.sol\":5840:5847  account */\n      dup6\n        /* \"Project/banking.sol\":5834:5848  users[account] */\n      0xffffffffffffffffffffffffffffffffffffffff\n      and\n      0xffffffffffffffffffffffffffffffffffffffff\n      and\n      dup2\n      mstore\n      0x20\n      add\n      swap1\n      dup2\n      mstore\n      0x20\n      add\n      0x00\n      keccak256\n        /* \"Project/banking.sol\":5834:5856  users[account].homeEmi */\n      0x06\n      add\n      sload\n        /* \"Project/banking.sol\":5595:6092  user(... */\n      dup2\n      mstore\n      0x20\n      add\n        /* \"Project/banking.sol\":5870:5875  users */\n      0x0d\n        /* \"Project/banking.sol\":5870:5884  users[account] */\n      0x00\n        /* \"Project/banking.sol\":5876:5883  account */\n      dup6\n        /* \"Project/banking.sol\":5870:5884  users[account] */\n      0xffffffffffffffffffffffffffffffffffffffff\n      and\n      0xffffffffffffffffffffffffffffffffffffffff\n      and\n      dup2\n      mstore\n      0x20\n      add\n      swap1\n      dup2\n      mstore\n      0x20\n      add\n      0x00\n      keccak256\n        /* \"Project/banking.sol\":5870:5900  users[account].personalLoanEmi */\n      0x07\n      add\n      sload\n        /* \"Project/banking.sol\":5595:6092  user(... */\n      dup2\n      mstore\n      0x20\n      add\n        /* \"Project/banking.sol\":5914:5919  users */\n      0x0d\n        /* \"Project/banking.sol\":5914:5928  users[account] */\n      0x00\n        /* \"Project/banking.sol\":5920:5927  account */\n      dup6\n        /* \"Project/banking.sol\":5914:5928  users[account] */\n      0xffffffffffffffffffffffffffffffffffffffff\n      and\n      0xffffffffffffffffffffffffffffffffffffffff\n      and\n      dup2\n      mstore\n      0x20\n      add\n      swap1\n      dup2\n      mstore\n      0x20\n      add\n      0x00\n      keccak256\n        /* \"Project/banking.sol\":5914:5946  users[account].carLoanTimeperiod */\n      0x08\n      add\n      sload\n        /* \"Project/banking.sol\":5595:6092  user(... */\n      dup2\n      mstore\n      0x20\n      add\n        /* \"Project/banking.sol\":5960:5965  users */\n      0x0d\n        /* \"Project/banking.sol\":5960:5974  users[account] */\n      0x00\n        /* \"Project/banking.sol\":5966:5973  account */\n      dup6\n        /* \"Project/banking.sol\":5960:5974  users[account] */\n      0xffffffffffffffffffffffffffffffffffffffff\n      and\n      0xffffffffffffffffffffffffffffffffffffffff\n      and\n      dup2\n      mstore\n      0x20\n      add\n      swap1\n      dup2\n      mstore\n      0x20\n      add\n      0x00\n      keccak256\n        /* \"Project/banking.sol\":5960:5993  users[account].homeLoanTimeperiod */\n      0x09\n      add\n      sload\n        /* \"Project/banking.sol\":5595:6092  user(... */\n      dup2\n      mstore\n      0x20\n      add\n        /* \"Project/banking.sol\":6007:6012  users */\n      0x0d\n        /* \"Project/banking.sol\":6007:6021  users[account] */\n      0x00\n        /* \"Project/banking.sol\":6013:6020  account */\n      dup6\n        /* \"Project/banking.sol\":6007:6021  users[account] */\n      0xffffffffffffffffffffffffffffffffffffffff\n      and\n      0xffffffffffffffffffffffffffffffffffffffff\n      and\n      dup2\n      mstore\n      0x20\n      add\n      swap1\n      dup2\n      mstore\n      0x20\n      add\n      0x00\n      keccak256\n        /* \"Project/banking.sol\":6007:6044  users[account].personalLoanTimeperiod */\n      0x0a\n      add\n      sload\n        /* \"Project/banking.sol\":5595:6092  user(... */\n      dup2\n      mstore\n      0x20\n      add\n        /* \"Project/banking.sol\":6058:6063  users */\n      0x0d\n        /* \"Project/banking.sol\":6058:6072  users[account] */\n      0x00\n        /* \"Project/banking.sol\":6064:6071  account */\n      dup6\n        /* \"Project/banking.sol\":6058:6072  users[account] */\n      0xffffffffffffffffffffffffffffffffffffffff\n      and\n      0xffffffffffffffffffffffffffffffffffffffff\n      and\n      dup2\n      mstore\n      0x20\n      add\n      swap1\n      dup2\n      mstore\n      0x20\n      add\n      0x00\n      keccak256\n        /* \"Project/banking.sol\":6058:6082  users[account].timestamp */\n      0x0b\n      add\n      sload\n        /* \"Project/banking.sol\":5595:6092  user(... */\n      dup2\n      mstore\n      pop\n        /* \"Project/banking.sol\":5578:5583  users */\n      0x0d\n        /* \"Project/banking.sol\":5578:5592  users[account] */\n      0x00\n        /* \"Project/banking.sol\":5584:5591  account */\n      dup5\n        /* \"Project/banking.sol\":5578:5592  users[account] */\n      0xffffffffffffffffffffffffffffffffffffffff\n      and\n      0xffffffffffffffffffffffffffffffffffffffff\n      and\n      dup2\n      mstore\n      0x20\n      add\n      swap1\n      dup2\n      mstore\n      0x20\n      add\n      0x00\n      keccak256\n        /* \"Project/banking.sol\":5578:6092  users[account] = user(... */\n      0x00\n      dup3\n      add\n      mload\n      dup2\n      0x00\n      add\n      exp(0x0100, 0x00)\n      dup2\n      sload\n      dup2\n      0xffffffffffffffffffffffffffffffffffffffff\n      mul\n      not\n      and\n      swap1\n      dup4\n      0xffffffffffffffffffffffffffffffffffffffff\n      and\n      mul\n      or\n      swap1\n      sstore\n      pop\n      0x20\n      dup3\n      add\n      mload\n      dup2\n      0x01\n      add\n      sstore\n      0x40\n      dup3\n      add\n      mload\n      dup2\n      0x02\n      add\n      sstore\n      0x60\n      dup3\n      add\n      mload\n      dup2\n      0x03\n      add\n      sstore\n      0x80\n      dup3\n      add\n      mload\n      dup2\n      0x04\n      add\n      sstore\n      0xa0\n      dup3\n      add\n      mload\n      dup2\n      0x05\n      add\n      sstore\n      0xc0\n      dup3\n      add\n      mload\n      dup2\n      0x06\n      add\n      sstore\n      0xe0\n      dup3\n      add\n      mload\n      dup2\n      0x07\n      add\n      sstore\n      0x0100\n      dup3\n      add\n      mload\n      dup2\n      0x08\n      add\n      sstore\n      0x0120\n      dup3\n      add\n      mload\n      dup2\n      0x09\n      add\n      sstore\n      0x0140\n      dup3\n      add\n      mload\n      dup2\n      0x0a\n      add\n      sstore\n      0x0160\n      dup3\n      add\n      mload\n      dup2\n      0x0b\n      add\n      sstore\n      swap1\n      pop\n      pop\n        /* \"Project/banking.sol\":5216:6099  function withdraw(address payable account, uint256 amount) public {... */\n      pop\n      pop\n      jump\t// out\n        /* \"#utility.yul\":7:133   */\n    tag_221:\n        /* \"#utility.yul\":44:51   */\n      0x00\n        /* \"#utility.yul\":84:126   */\n      0xffffffffffffffffffffffffffffffffffffffff\n        /* \"#utility.yul\":77:82   */\n      dup3\n        /* \"#utility.yul\":73:127   */\n      and\n        /* \"#utility.yul\":62:127   */\n      swap1\n      pop\n        /* \"#utility.yul\":7:133   */\n      swap2\n      swap1\n      pop\n      jump\t// out\n        /* \"#utility.yul\":139:235   */\n    tag_222:\n        /* \"#utility.yul\":176:183   */\n      0x00\n        /* \"#utility.yul\":205:229   */\n      tag_282\n        /* \"#utility.yul\":223:228   */\n      dup3\n        /* \"#utility.yul\":205:229   */\n      tag_221\n      jump\t// in\n    tag_282:\n        /* \"#utility.yul\":194:229   */\n      swap1\n      pop\n        /* \"#utility.yul\":139:235   */\n      swap2\n      swap1\n      pop\n      jump\t// out\n        /* \"#utility.yul\":241:359   */\n    tag_223:\n        /* \"#utility.yul\":328:352   */\n      tag_284\n        /* \"#utility.yul\":346:351   */\n      dup2\n        /* \"#utility.yul\":328:352   */\n      tag_222\n      jump\t// in\n    tag_284:\n        /* \"#utility.yul\":323:326   */\n      dup3\n        /* \"#utility.yul\":316:353   */\n      mstore\n        /* \"#utility.yul\":241:359   */\n      pop\n      pop\n      jump\t// out\n        /* \"#utility.yul\":365:442   */\n    tag_224:\n        /* \"#utility.yul\":402:409   */\n      0x00\n        /* \"#utility.yul\":431:436   */\n      dup2\n        /* \"#utility.yul\":420:436   */\n      swap1\n      pop\n        /* \"#utility.yul\":365:442   */\n      swap2\n      swap1\n      pop\n      jump\t// out\n        /* \"#utility.yul\":448:566   */\n    tag_225:\n        /* \"#utility.yul\":535:559   */\n      tag_287\n        /* \"#utility.yul\":553:558   */\n      dup2\n        /* \"#utility.yul\":535:559   */\n      tag_224\n      jump\t// in\n    tag_287:\n        /* \"#utility.yul\":530:533   */\n      dup3\n        /* \"#utility.yul\":523:560   */\n      mstore\n        /* \"#utility.yul\":448:566   */\n      pop\n      pop\n      jump\t// out\n        /* \"#utility.yul\":572:2017   */\n    tag_23:\n        /* \"#utility.yul\":975:979   */\n      0x00\n        /* \"#utility.yul\":1013:1016   */\n      0x0180\n        /* \"#utility.yul\":1002:1011   */\n      dup3\n        /* \"#utility.yul\":998:1017   */\n      add\n        /* \"#utility.yul\":990:1017   */\n      swap1\n      pop\n        /* \"#utility.yul\":1027:1098   */\n      tag_289\n        /* \"#utility.yul\":1095:1096   */\n      0x00\n        /* \"#utility.yul\":1084:1093   */\n      dup4\n        /* \"#utility.yul\":1080:1097   */\n      add\n        /* \"#utility.yul\":1071:1077   */\n      dup16\n        /* \"#utility.yul\":1027:1098   */\n      tag_223\n      jump\t// in\n    tag_289:\n        /* \"#utility.yul\":1108:1180   */\n      tag_290\n        /* \"#utility.yul\":1176:1178   */\n      0x20\n        /* \"#utility.yul\":1165:1174   */\n      dup4\n        /* \"#utility.yul\":1161:1179   */\n      add\n        /* \"#utility.yul\":1152:1158   */\n      dup15\n        /* \"#utility.yul\":1108:1180   */\n      tag_225\n      jump\t// in\n    tag_290:\n        /* \"#utility.yul\":1190:1262   */\n      tag_291\n        /* \"#utility.yul\":1258:1260   */\n      0x40\n        /* \"#utility.yul\":1247:1256   */\n      dup4\n        /* \"#utility.yul\":1243:1261   */\n      add\n        /* \"#utility.yul\":1234:1240   */\n      dup14\n        /* \"#utility.yul\":1190:1262   */\n      tag_225\n      jump\t// in\n    tag_291:\n        /* \"#utility.yul\":1272:1344   */\n      tag_292\n        /* \"#utility.yul\":1340:1342   */\n      0x60\n        /* \"#utility.yul\":1329:1338   */\n      dup4\n        /* \"#utility.yul\":1325:1343   */\n      add\n        /* \"#utility.yul\":1316:1322   */\n      dup13\n        /* \"#utility.yul\":1272:1344   */\n      tag_225\n      jump\t// in\n    tag_292:\n        /* \"#utility.yul\":1354:1427   */\n      tag_293\n        /* \"#utility.yul\":1422:1425   */\n      0x80\n        /* \"#utility.yul\":1411:1420   */\n      dup4\n        /* \"#utility.yul\":1407:1426   */\n      add\n        /* \"#utility.yul\":1398:1404   */\n      dup12\n        /* \"#utility.yul\":1354:1427   */\n      tag_225\n      jump\t// in\n    tag_293:\n        /* \"#utility.yul\":1437:1510   */\n      tag_294\n        /* \"#utility.yul\":1505:1508   */\n      0xa0\n        /* \"#utility.yul\":1494:1503   */\n      dup4\n        /* \"#utility.yul\":1490:1509   */\n      add\n        /* \"#utility.yul\":1481:1487   */\n      dup11\n        /* \"#utility.yul\":1437:1510   */\n      tag_225\n      jump\t// in\n    tag_294:\n        /* \"#utility.yul\":1520:1593   */\n      tag_295\n        /* \"#utility.yul\":1588:1591   */\n      0xc0\n        /* \"#utility.yul\":1577:1586   */\n      dup4\n        /* \"#utility.yul\":1573:1592   */\n      add\n        /* \"#utility.yul\":1564:1570   */\n      dup10\n        /* \"#utility.yul\":1520:1593   */\n      tag_225\n      jump\t// in\n    tag_295:\n        /* \"#utility.yul\":1603:1676   */\n      tag_296\n        /* \"#utility.yul\":1671:1674   */\n      0xe0\n        /* \"#utility.yul\":1660:1669   */\n      dup4\n        /* \"#utility.yul\":1656:1675   */\n      add\n        /* \"#utility.yul\":1647:1653   */\n      dup9\n        /* \"#utility.yul\":1603:1676   */\n      tag_225\n      jump\t// in\n    tag_296:\n        /* \"#utility.yul\":1686:1759   */\n      tag_297\n        /* \"#utility.yul\":1754:1757   */\n      0x0100\n        /* \"#utility.yul\":1743:1752   */\n      dup4\n        /* \"#utility.yul\":1739:1758   */\n      add\n        /* \"#utility.yul\":1730:1736   */\n      dup8\n        /* \"#utility.yul\":1686:1759   */\n      tag_225\n      jump\t// in\n    tag_297:\n        /* \"#utility.yul\":1769:1842   */\n      tag_298\n        /* \"#utility.yul\":1837:1840   */\n      0x0120\n        /* \"#utility.yul\":1826:1835   */\n      dup4\n        /* \"#utility.yul\":1822:1841   */\n      add\n        /* \"#utility.yul\":1813:1819   */\n      dup7\n        /* \"#utility.yul\":1769:1842   */\n      tag_225\n      jump\t// in\n    tag_298:\n        /* \"#utility.yul\":1852:1926   */\n      tag_299\n        /* \"#utility.yul\":1921:1924   */\n      0x0140\n        /* \"#utility.yul\":1910:1919   */\n      dup4\n        /* \"#utility.yul\":1906:1925   */\n      add\n        /* \"#utility.yul\":1896:1903   */\n      dup6\n        /* \"#utility.yul\":1852:1926   */\n      tag_225\n      jump\t// in\n    tag_299:\n        /* \"#utility.yul\":1936:2010   */\n      tag_300\n        /* \"#utility.yul\":2005:2008   */\n      0x0160\n        /* \"#utility.yul\":1994:2003   */\n      dup4\n        /* \"#utility.yul\":1990:2009   */\n      add\n        /* \"#utility.yul\":1980:1987   */\n      dup5\n        /* \"#utility.yul\":1936:2010   */\n      tag_225\n      jump\t// in\n    tag_300:\n        /* \"#utility.yul\":572:2017   */\n      swap14\n      swap13\n      pop\n      pop\n      pop\n      pop\n      pop\n      pop\n      pop\n      pop\n      pop\n      pop\n      pop\n      pop\n      pop\n      jump\t// out\n        /* \"#utility.yul\":2023:2098   */\n    tag_226:\n        /* \"#utility.yul\":2056:2062   */\n      0x00\n        /* \"#utility.yul\":2089:2091   */\n      0x40\n        /* \"#utility.yul\":2083:2092   */\n      mload\n        /* \"#utility.yul\":2073:2092   */\n      swap1\n      pop\n        /* \"#utility.yul\":2023:2098   */\n      swap1\n      jump\t// out\n        /* \"#utility.yul\":2104:2221   */\n    tag_227:\n        /* \"#utility.yul\":2213:2214   */\n      0x00\n        /* \"#utility.yul\":2210:2211   */\n      dup1\n        /* \"#utility.yul\":2203:2215   */\n      revert\n        /* \"#utility.yul\":2227:2344   */\n    tag_228:\n        /* \"#utility.yul\":2336:2337   */\n      0x00\n        /* \"#utility.yul\":2333:2334   */\n      dup1\n        /* \"#utility.yul\":2326:2338   */\n      revert\n        /* \"#utility.yul\":2350:2454   */\n    tag_229:\n        /* \"#utility.yul\":2395:2402   */\n      0x00\n        /* \"#utility.yul\":2424:2448   */\n      tag_305\n        /* \"#utility.yul\":2442:2447   */\n      dup3\n        /* \"#utility.yul\":2424:2448   */\n      tag_221\n      jump\t// in\n    tag_305:\n        /* \"#utility.yul\":2413:2448   */\n      swap1\n      pop\n        /* \"#utility.yul\":2350:2454   */\n      swap2\n      swap1\n      pop\n      jump\t// out\n        /* \"#utility.yul\":2460:2598   */\n    tag_230:\n        /* \"#utility.yul\":2541:2573   */\n      tag_307\n        /* \"#utility.yul\":2567:2572   */\n      dup2\n        /* \"#utility.yul\":2541:2573   */\n      tag_229\n      jump\t// in\n    tag_307:\n        /* \"#utility.yul\":2534:2539   */\n      dup2\n        /* \"#utility.yul\":2531:2574   */\n      eq\n        /* \"#utility.yul\":2521:2592   */\n      tag_308\n      jumpi\n        /* \"#utility.yul\":2588:2589   */\n      0x00\n        /* \"#utility.yul\":2585:2586   */\n      dup1\n        /* \"#utility.yul\":2578:2590   */\n      revert\n        /* \"#utility.yul\":2521:2592   */\n    tag_308:\n        /* \"#utility.yul\":2460:2598   */\n      pop\n      jump\t// out\n        /* \"#utility.yul\":2604:2759   */\n    tag_231:\n        /* \"#utility.yul\":2658:2663   */\n      0x00\n        /* \"#utility.yul\":2696:2702   */\n      dup2\n        /* \"#utility.yul\":2683:2703   */\n      calldataload\n        /* \"#utility.yul\":2674:2703   */\n      swap1\n      pop\n        /* \"#utility.yul\":2712:2753   */\n      tag_310\n        /* \"#utility.yul\":2747:2752   */\n      dup2\n        /* \"#utility.yul\":2712:2753   */\n      tag_230\n      jump\t// in\n    tag_310:\n        /* \"#utility.yul\":2604:2759   */\n      swap3\n      swap2\n      pop\n      pop\n      jump\t// out\n        /* \"#utility.yul\":2765:2887   */\n    tag_232:\n        /* \"#utility.yul\":2838:2862   */\n      tag_312\n        /* \"#utility.yul\":2856:2861   */\n      dup2\n        /* \"#utility.yul\":2838:2862   */\n      tag_224\n      jump\t// in\n    tag_312:\n        /* \"#utility.yul\":2831:2836   */\n      dup2\n        /* \"#utility.yul\":2828:2863   */\n      eq\n        /* \"#utility.yul\":2818:2881   */\n      tag_313\n      jumpi\n        /* \"#utility.yul\":2877:2878   */\n      0x00\n        /* \"#utility.yul\":2874:2875   */\n      dup1\n        /* \"#utility.yul\":2867:2879   */\n      revert\n        /* \"#utility.yul\":2818:2881   */\n    tag_313:\n        /* \"#utility.yul\":2765:2887   */\n      pop\n      jump\t// out\n        /* \"#utility.yul\":2893:3032   */\n    tag_233:\n        /* \"#utility.yul\":2939:2944   */\n      0x00\n        /* \"#utility.yul\":2977:2983   */\n      dup2\n        /* \"#utility.yul\":2964:2984   */\n      calldataload\n        /* \"#utility.yul\":2955:2984   */\n      swap1\n      pop\n        /* \"#utility.yul\":2993:3026   */\n      tag_315\n        /* \"#utility.yul\":3020:3025   */\n      dup2\n        /* \"#utility.yul\":2993:3026   */\n      tag_232\n      jump\t// in\n    tag_315:\n        /* \"#utility.yul\":2893:3032   */\n      swap3\n      swap2\n      pop\n      pop\n      jump\t// out\n        /* \"#utility.yul\":3038:3528   */\n    tag_26:\n        /* \"#utility.yul\":3114:3120   */\n      0x00\n        /* \"#utility.yul\":3122:3128   */\n      dup1\n        /* \"#utility.yul\":3171:3173   */\n      0x40\n        /* \"#utility.yul\":3159:3168   */\n      dup4\n        /* \"#utility.yul\":3150:3157   */\n      dup6\n        /* \"#utility.yul\":3146:3169   */\n      sub\n        /* \"#utility.yul\":3142:3174   */\n      slt\n        /* \"#utility.yul\":3139:3258   */\n      iszero\n      tag_317\n      jumpi\n        /* \"#utility.yul\":3177:3256   */\n      tag_318\n      tag_227\n      jump\t// in\n    tag_318:\n        /* \"#utility.yul\":3139:3258   */\n    tag_317:\n        /* \"#utility.yul\":3297:3298   */\n      0x00\n        /* \"#utility.yul\":3322:3383   */\n      tag_319\n        /* \"#utility.yul\":3375:3382   */\n      dup6\n        /* \"#utility.yul\":3366:3372   */\n      dup3\n        /* \"#utility.yul\":3355:3364   */\n      dup7\n        /* \"#utility.yul\":3351:3373   */\n      add\n        /* \"#utility.yul\":3322:3383   */\n      tag_231\n      jump\t// in\n    tag_319:\n        /* \"#utility.yul\":3312:3383   */\n      swap3\n      pop\n        /* \"#utility.yul\":3268:3393   */\n      pop\n        /* \"#utility.yul\":3432:3434   */\n      0x20\n        /* \"#utility.yul\":3458:3511   */\n      tag_320\n        /* \"#utility.yul\":3503:3510   */\n      dup6\n        /* \"#utility.yul\":3494:3500   */\n      dup3\n        /* \"#utility.yul\":3483:3492   */\n      dup7\n        /* \"#utility.yul\":3479:3501   */\n      add\n        /* \"#utility.yul\":3458:3511   */\n      tag_233\n      jump\t// in\n    tag_320:\n        /* \"#utility.yul\":3448:3511   */\n      swap2\n      pop\n        /* \"#utility.yul\":3403:3521   */\n      pop\n        /* \"#utility.yul\":3038:3528   */\n      swap3\n      pop\n      swap3\n      swap1\n      pop\n      jump\t// out\n        /* \"#utility.yul\":3534:3656   */\n    tag_234:\n        /* \"#utility.yul\":3607:3631   */\n      tag_322\n        /* \"#utility.yul\":3625:3630   */\n      dup2\n        /* \"#utility.yul\":3607:3631   */\n      tag_222\n      jump\t// in\n    tag_322:\n        /* \"#utility.yul\":3600:3605   */\n      dup2\n        /* \"#utility.yul\":3597:3632   */\n      eq\n        /* \"#utility.yul\":3587:3650   */\n      tag_323\n      jumpi\n        /* \"#utility.yul\":3646:3647   */\n      0x00\n        /* \"#utility.yul\":3643:3644   */\n      dup1\n        /* \"#utility.yul\":3636:3648   */\n      revert\n        /* \"#utility.yul\":3587:3650   */\n    tag_323:\n        /* \"#utility.yul\":3534:3656   */\n      pop\n      jump\t// out\n        /* \"#utility.yul\":3662:3801   */\n    tag_235:\n        /* \"#utility.yul\":3708:3713   */\n      0x00\n        /* \"#utility.yul\":3746:3752   */\n      dup2\n        /* \"#utility.yul\":3733:3753   */\n      calldataload\n        /* \"#utility.yul\":3724:3753   */\n      swap1\n      pop\n        /* \"#utility.yul\":3762:3795   */\n      tag_325\n        /* \"#utility.yul\":3789:3794   */\n      dup2\n        /* \"#utility.yul\":3762:3795   */\n      tag_234\n      jump\t// in\n    tag_325:\n        /* \"#utility.yul\":3662:3801   */\n      swap3\n      swap2\n      pop\n      pop\n      jump\t// out\n        /* \"#utility.yul\":3807:4136   */\n    tag_31:\n        /* \"#utility.yul\":3866:3872   */\n      0x00\n        /* \"#utility.yul\":3915:3917   */\n      0x20\n        /* \"#utility.yul\":3903:3912   */\n      dup3\n        /* \"#utility.yul\":3894:3901   */\n      dup5\n        /* \"#utility.yul\":3890:3913   */\n      sub\n        /* \"#utility.yul\":3886:3918   */\n      slt\n        /* \"#utility.yul\":3883:4002   */\n      iszero\n      tag_327\n      jumpi\n        /* \"#utility.yul\":3921:4000   */\n      tag_328\n      tag_227\n      jump\t// in\n    tag_328:\n        /* \"#utility.yul\":3883:4002   */\n    tag_327:\n        /* \"#utility.yul\":4041:4042   */\n      0x00\n        /* \"#utility.yul\":4066:4119   */\n      tag_329\n        /* \"#utility.yul\":4111:4118   */\n      dup5\n        /* \"#utility.yul\":4102:4108   */\n      dup3\n        /* \"#utility.yul\":4091:4100   */\n      dup6\n        /* \"#utility.yul\":4087:4109   */\n      add\n        /* \"#utility.yul\":4066:4119   */\n      tag_235\n      jump\t// in\n    tag_329:\n        /* \"#utility.yul\":4056:4119   */\n      swap2\n      pop\n        /* \"#utility.yul\":4012:4129   */\n      pop\n        /* \"#utility.yul\":3807:4136   */\n      swap3\n      swap2\n      pop\n      pop\n      jump\t// out\n        /* \"#utility.yul\":4142:4584   */\n    tag_34:\n        /* \"#utility.yul\":4291:4295   */\n      0x00\n        /* \"#utility.yul\":4329:4331   */\n      0x60\n        /* \"#utility.yul\":4318:4327   */\n      dup3\n        /* \"#utility.yul\":4314:4332   */\n      add\n        /* \"#utility.yul\":4306:4332   */\n      swap1\n      pop\n        /* \"#utility.yul\":4342:4413   */\n      tag_331\n        /* \"#utility.yul\":4410:4411   */\n      0x00\n        /* \"#utility.yul\":4399:4408   */\n      dup4\n        /* \"#utility.yul\":4395:4412   */\n      add\n        /* \"#utility.yul\":4386:4392   */\n      dup7\n        /* \"#utility.yul\":4342:4413   */\n      tag_225\n      jump\t// in\n    tag_331:\n        /* \"#utility.yul\":4423:4495   */\n      tag_332\n        /* \"#utility.yul\":4491:4493   */\n      0x20\n        /* \"#utility.yul\":4480:4489   */\n      dup4\n        /* \"#utility.yul\":4476:4494   */\n      add\n        /* \"#utility.yul\":4467:4473   */\n      dup6\n        /* \"#utility.yul\":4423:4495   */\n      tag_225\n      jump\t// in\n    tag_332:\n        /* \"#utility.yul\":4505:4577   */\n      tag_333\n        /* \"#utility.yul\":4573:4575   */\n      0x40\n        /* \"#utility.yul\":4562:4571   */\n      dup4\n        /* \"#utility.yul\":4558:4576   */\n      add\n        /* \"#utility.yul\":4549:4555   */\n      dup5\n        /* \"#utility.yul\":4505:4577   */\n      tag_225\n      jump\t// in\n    tag_333:\n        /* \"#utility.yul\":4142:4584   */\n      swap5\n      swap4\n      pop\n      pop\n      pop\n      pop\n      jump\t// out\n        /* \"#utility.yul\":4590:4812   */\n    tag_39:\n        /* \"#utility.yul\":4683:4687   */\n      0x00\n        /* \"#utility.yul\":4721:4723   */\n      0x20\n        /* \"#utility.yul\":4710:4719   */\n      dup3\n        /* \"#utility.yul\":4706:4724   */\n      add\n        /* \"#utility.yul\":4698:4724   */\n      swap1\n      pop\n        /* \"#utility.yul\":4734:4805   */\n      tag_335\n        /* \"#utility.yul\":4802:4803   */\n      0x00\n        /* \"#utility.yul\":4791:4800   */\n      dup4\n        /* \"#utility.yul\":4787:4804   */\n      add\n        /* \"#utility.yul\":4778:4784   */\n      dup5\n        /* \"#utility.yul\":4734:4805   */\n      tag_225\n      jump\t// in\n    tag_335:\n        /* \"#utility.yul\":4590:4812   */\n      swap3\n      swap2\n      pop\n      pop\n      jump\t// out\n        /* \"#utility.yul\":4818:4935   */\n    tag_236:\n        /* \"#utility.yul\":4927:4928   */\n      0x00\n        /* \"#utility.yul\":4924:4925   */\n      dup1\n        /* \"#utility.yul\":4917:4929   */\n      revert\n        /* \"#utility.yul\":4941:5058   */\n    tag_237:\n        /* \"#utility.yul\":5050:5051   */\n      0x00\n        /* \"#utility.yul\":5047:5048   */\n      dup1\n        /* \"#utility.yul\":5040:5052   */\n      revert\n        /* \"#utility.yul\":5064:5166   */\n    tag_238:\n        /* \"#utility.yul\":5105:5111   */\n      0x00\n        /* \"#utility.yul\":5156:5158   */\n      0x1f\n        /* \"#utility.yul\":5152:5159   */\n      not\n        /* \"#utility.yul\":5147:5149   */\n      0x1f\n        /* \"#utility.yul\":5140:5145   */\n      dup4\n        /* \"#utility.yul\":5136:5150   */\n      add\n        /* \"#utility.yul\":5132:5160   */\n      and\n        /* \"#utility.yul\":5122:5160   */\n      swap1\n      pop\n        /* \"#utility.yul\":5064:5166   */\n      swap2\n      swap1\n      pop\n      jump\t// out\n        /* \"#utility.yul\":5172:5352   */\n    tag_239:\n        /* \"#utility.yul\":5220:5297   */\n      0x4e487b7100000000000000000000000000000000000000000000000000000000\n        /* \"#utility.yul\":5217:5218   */\n      0x00\n        /* \"#utility.yul\":5210:5298   */\n      mstore\n        /* \"#utility.yul\":5317:5321   */\n      0x41\n        /* \"#utility.yul\":5314:5315   */\n      0x04\n        /* \"#utility.yul\":5307:5322   */\n      mstore\n        /* \"#utility.yul\":5341:5345   */\n      0x24\n        /* \"#utility.yul\":5338:5339   */\n      0x00\n        /* \"#utility.yul\":5331:5346   */\n      revert\n        /* \"#utility.yul\":5358:5639   */\n    tag_240:\n        /* \"#utility.yul\":5441:5468   */\n      tag_341\n        /* \"#utility.yul\":5463:5467   */\n      dup3\n        /* \"#utility.yul\":5441:5468   */\n      tag_238\n      jump\t// in\n    tag_341:\n        /* \"#utility.yul\":5433:5439   */\n      dup2\n        /* \"#utility.yul\":5429:5469   */\n      add\n        /* \"#utility.yul\":5571:5577   */\n      dup2\n        /* \"#utility.yul\":5559:5569   */\n      dup2\n        /* \"#utility.yul\":5556:5578   */\n      lt\n        /* \"#utility.yul\":5535:5553   */\n      0xffffffffffffffff\n        /* \"#utility.yul\":5523:5533   */\n      dup3\n        /* \"#utility.yul\":5520:5554   */\n      gt\n        /* \"#utility.yul\":5517:5579   */\n      or\n        /* \"#utility.yul\":5514:5602   */\n      iszero\n      tag_342\n      jumpi\n        /* \"#utility.yul\":5582:5600   */\n      tag_343\n      tag_239\n      jump\t// in\n    tag_343:\n        /* \"#utility.yul\":5514:5602   */\n    tag_342:\n        /* \"#utility.yul\":5622:5632   */\n      dup1\n        /* \"#utility.yul\":5618:5620   */\n      0x40\n        /* \"#utility.yul\":5611:5633   */\n      mstore\n        /* \"#utility.yul\":5401:5639   */\n      pop\n        /* \"#utility.yul\":5358:5639   */\n      pop\n      pop\n      jump\t// out\n        /* \"#utility.yul\":5645:5774   */\n    tag_241:\n        /* \"#utility.yul\":5679:5685   */\n      0x00\n        /* \"#utility.yul\":5706:5726   */\n      tag_345\n      tag_226\n      jump\t// in\n    tag_345:\n        /* \"#utility.yul\":5696:5726   */\n      swap1\n      pop\n        /* \"#utility.yul\":5735:5768   */\n      tag_346\n        /* \"#utility.yul\":5763:5767   */\n      dup3\n        /* \"#utility.yul\":5755:5761   */\n      dup3\n        /* \"#utility.yul\":5735:5768   */\n      tag_240\n      jump\t// in\n    tag_346:\n        /* \"#utility.yul\":5645:5774   */\n      swap2\n      swap1\n      pop\n      jump\t// out\n        /* \"#utility.yul\":5780:6088   */\n    tag_242:\n        /* \"#utility.yul\":5842:5846   */\n      0x00\n        /* \"#utility.yul\":5932:5950   */\n      0xffffffffffffffff\n        /* \"#utility.yul\":5924:5930   */\n      dup3\n        /* \"#utility.yul\":5921:5951   */\n      gt\n        /* \"#utility.yul\":5918:5974   */\n      iszero\n      tag_348\n      jumpi\n        /* \"#utility.yul\":5954:5972   */\n      tag_349\n      tag_239\n      jump\t// in\n    tag_349:\n        /* \"#utility.yul\":5918:5974   */\n    tag_348:\n        /* \"#utility.yul\":5992:6021   */\n      tag_350\n        /* \"#utility.yul\":6014:6020   */\n      dup3\n        /* \"#utility.yul\":5992:6021   */\n      tag_238\n      jump\t// in\n    tag_350:\n        /* \"#utility.yul\":5984:6021   */\n      swap1\n      pop\n        /* \"#utility.yul\":6076:6080   */\n      0x20\n        /* \"#utility.yul\":6070:6074   */\n      dup2\n        /* \"#utility.yul\":6066:6081   */\n      add\n        /* \"#utility.yul\":6058:6081   */\n      swap1\n      pop\n        /* \"#utility.yul\":5780:6088   */\n      swap2\n      swap1\n      pop\n      jump\t// out\n        /* \"#utility.yul\":6094:6240   */\n    tag_243:\n        /* \"#utility.yul\":6191:6197   */\n      dup3\n        /* \"#utility.yul\":6186:6189   */\n      dup2\n        /* \"#utility.yul\":6181:6184   */\n      dup4\n        /* \"#utility.yul\":6168:6198   */\n      calldatacopy\n        /* \"#utility.yul\":6232:6233   */\n      0x00\n        /* \"#utility.yul\":6223:6229   */\n      dup4\n        /* \"#utility.yul\":6218:6221   */\n      dup4\n        /* \"#utility.yul\":6214:6230   */\n      add\n        /* \"#utility.yul\":6207:6234   */\n      mstore\n        /* \"#utility.yul\":6094:6240   */\n      pop\n      pop\n      pop\n      jump\t// out\n        /* \"#utility.yul\":6246:6671   */\n    tag_244:\n        /* \"#utility.yul\":6324:6329   */\n      0x00\n        /* \"#utility.yul\":6349:6415   */\n      tag_353\n        /* \"#utility.yul\":6365:6414   */\n      tag_354\n        /* \"#utility.yul\":6407:6413   */\n      dup5\n        /* \"#utility.yul\":6365:6414   */\n      tag_242\n      jump\t// in\n    tag_354:\n        /* \"#utility.yul\":6349:6415   */\n      tag_241\n      jump\t// in\n    tag_353:\n        /* \"#utility.yul\":6340:6415   */\n      swap1\n      pop\n        /* \"#utility.yul\":6438:6444   */\n      dup3\n        /* \"#utility.yul\":6431:6436   */\n      dup2\n        /* \"#utility.yul\":6424:6445   */\n      mstore\n        /* \"#utility.yul\":6476:6480   */\n      0x20\n        /* \"#utility.yul\":6469:6474   */\n      dup2\n        /* \"#utility.yul\":6465:6481   */\n      add\n        /* \"#utility.yul\":6514:6517   */\n      dup5\n        /* \"#utility.yul\":6505:6511   */\n      dup5\n        /* \"#utility.yul\":6500:6503   */\n      dup5\n        /* \"#utility.yul\":6496:6512   */\n      add\n        /* \"#utility.yul\":6493:6518   */\n      gt\n        /* \"#utility.yul\":6490:6602   */\n      iszero\n      tag_355\n      jumpi\n        /* \"#utility.yul\":6521:6600   */\n      tag_356\n      tag_237\n      jump\t// in\n    tag_356:\n        /* \"#utility.yul\":6490:6602   */\n    tag_355:\n        /* \"#utility.yul\":6611:6665   */\n      tag_357\n        /* \"#utility.yul\":6658:6664   */\n      dup5\n        /* \"#utility.yul\":6653:6656   */\n      dup3\n        /* \"#utility.yul\":6648:6651   */\n      dup6\n        /* \"#utility.yul\":6611:6665   */\n      tag_243\n      jump\t// in\n    tag_357:\n        /* \"#utility.yul\":6330:6671   */\n      pop\n        /* \"#utility.yul\":6246:6671   */\n      swap4\n      swap3\n      pop\n      pop\n      pop\n      jump\t// out\n        /* \"#utility.yul\":6691:7031   */\n    tag_245:\n        /* \"#utility.yul\":6747:6752   */\n      0x00\n        /* \"#utility.yul\":6796:6799   */\n      dup3\n        /* \"#utility.yul\":6789:6793   */\n      0x1f\n        /* \"#utility.yul\":6781:6787   */\n      dup4\n        /* \"#utility.yul\":6777:6794   */\n      add\n        /* \"#utility.yul\":6773:6800   */\n      slt\n        /* \"#utility.yul\":6763:6885   */\n      tag_359\n      jumpi\n        /* \"#utility.yul\":6804:6883   */\n      tag_360\n      tag_236\n      jump\t// in\n    tag_360:\n        /* \"#utility.yul\":6763:6885   */\n    tag_359:\n        /* \"#utility.yul\":6921:6927   */\n      dup2\n        /* \"#utility.yul\":6908:6928   */\n      calldataload\n        /* \"#utility.yul\":6946:7025   */\n      tag_361\n        /* \"#utility.yul\":7021:7024   */\n      dup5\n        /* \"#utility.yul\":7013:7019   */\n      dup3\n        /* \"#utility.yul\":7006:7010   */\n      0x20\n        /* \"#utility.yul\":6998:7004   */\n      dup7\n        /* \"#utility.yul\":6994:7011   */\n      add\n        /* \"#utility.yul\":6946:7025   */\n      tag_244\n      jump\t// in\n    tag_361:\n        /* \"#utility.yul\":6937:7025   */\n      swap2\n      pop\n        /* \"#utility.yul\":6753:7031   */\n      pop\n        /* \"#utility.yul\":6691:7031   */\n      swap3\n      swap2\n      pop\n      pop\n      jump\t// out\n        /* \"#utility.yul\":7037:7707   */\n    tag_48:\n        /* \"#utility.yul\":7123:7129   */\n      0x00\n        /* \"#utility.yul\":7131:7137   */\n      dup1\n        /* \"#utility.yul\":7180:7182   */\n      0x40\n        /* \"#utility.yul\":7168:7177   */\n      dup4\n        /* \"#utility.yul\":7159:7166   */\n      dup6\n        /* \"#utility.yul\":7155:7178   */\n      sub\n        /* \"#utility.yul\":7151:7183   */\n      slt\n        /* \"#utility.yul\":7148:7267   */\n      iszero\n      tag_363\n      jumpi\n        /* \"#utility.yul\":7186:7265   */\n      tag_364\n      tag_227\n      jump\t// in\n    tag_364:\n        /* \"#utility.yul\":7148:7267   */\n    tag_363:\n        /* \"#utility.yul\":7306:7307   */\n      0x00\n        /* \"#utility.yul\":7331:7392   */\n      tag_365\n        /* \"#utility.yul\":7384:7391   */\n      dup6\n        /* \"#utility.yul\":7375:7381   */\n      dup3\n        /* \"#utility.yul\":7364:7373   */\n      dup7\n        /* \"#utility.yul\":7360:7382   */\n      add\n        /* \"#utility.yul\":7331:7392   */\n      tag_231\n      jump\t// in\n    tag_365:\n        /* \"#utility.yul\":7321:7392   */\n      swap3\n      pop\n        /* \"#utility.yul\":7277:7402   */\n      pop\n        /* \"#utility.yul\":7469:7471   */\n      0x20\n        /* \"#utility.yul\":7458:7467   */\n      dup4\n        /* \"#utility.yul\":7454:7472   */\n      add\n        /* \"#utility.yul\":7441:7473   */\n      calldataload\n        /* \"#utility.yul\":7500:7518   */\n      0xffffffffffffffff\n        /* \"#utility.yul\":7492:7498   */\n      dup2\n        /* \"#utility.yul\":7489:7519   */\n      gt\n        /* \"#utility.yul\":7486:7603   */\n      iszero\n      tag_366\n      jumpi\n        /* \"#utility.yul\":7522:7601   */\n      tag_367\n      tag_228\n      jump\t// in\n    tag_367:\n        /* \"#utility.yul\":7486:7603   */\n    tag_366:\n        /* \"#utility.yul\":7627:7690   */\n      tag_368\n        /* \"#utility.yul\":7682:7689   */\n      dup6\n        /* \"#utility.yul\":7673:7679   */\n      dup3\n        /* \"#utility.yul\":7662:7671   */\n      dup7\n        /* \"#utility.yul\":7658:7680   */\n      add\n        /* \"#utility.yul\":7627:7690   */\n      tag_245\n      jump\t// in\n    tag_368:\n        /* \"#utility.yul\":7617:7690   */\n      swap2\n      pop\n        /* \"#utility.yul\":7412:7700   */\n      pop\n        /* \"#utility.yul\":7037:7707   */\n      swap3\n      pop\n      swap3\n      swap1\n      pop\n      jump\t// out\n        /* \"#utility.yul\":7713:8674   */\n    tag_52:\n        /* \"#utility.yul\":7817:7823   */\n      0x00\n        /* \"#utility.yul\":7825:7831   */\n      dup1\n        /* \"#utility.yul\":7833:7839   */\n      0x00\n        /* \"#utility.yul\":7841:7847   */\n      dup1\n        /* \"#utility.yul\":7890:7893   */\n      0x80\n        /* \"#utility.yul\":7878:7887   */\n      dup6\n        /* \"#utility.yul\":7869:7876   */\n      dup8\n        /* \"#utility.yul\":7865:7888   */\n      sub\n        /* \"#utility.yul\":7861:7894   */\n      slt\n        /* \"#utility.yul\":7858:7978   */\n      iszero\n      tag_370\n      jumpi\n        /* \"#utility.yul\":7897:7976   */\n      tag_371\n      tag_227\n      jump\t// in\n    tag_371:\n        /* \"#utility.yul\":7858:7978   */\n    tag_370:\n        /* \"#utility.yul\":8017:8018   */\n      0x00\n        /* \"#utility.yul\":8042:8103   */\n      tag_372\n        /* \"#utility.yul\":8095:8102   */\n      dup8\n        /* \"#utility.yul\":8086:8092   */\n      dup3\n        /* \"#utility.yul\":8075:8084   */\n      dup9\n        /* \"#utility.yul\":8071:8093   */\n      add\n        /* \"#utility.yul\":8042:8103   */\n      tag_231\n      jump\t// in\n    tag_372:\n        /* \"#utility.yul\":8032:8103   */\n      swap5\n      pop\n        /* \"#utility.yul\":7988:8113   */\n      pop\n        /* \"#utility.yul\":8152:8154   */\n      0x20\n        /* \"#utility.yul\":8178:8231   */\n      tag_373\n        /* \"#utility.yul\":8223:8230   */\n      dup8\n        /* \"#utility.yul\":8214:8220   */\n      dup3\n        /* \"#utility.yul\":8203:8212   */\n      dup9\n        /* \"#utility.yul\":8199:8221   */\n      add\n        /* \"#utility.yul\":8178:8231   */\n      tag_233\n      jump\t// in\n    tag_373:\n        /* \"#utility.yul\":8168:8231   */\n      swap4\n      pop\n        /* \"#utility.yul\":8123:8241   */\n      pop\n        /* \"#utility.yul\":8280:8282   */\n      0x40\n        /* \"#utility.yul\":8306:8359   */\n      tag_374\n        /* \"#utility.yul\":8351:8358   */\n      dup8\n        /* \"#utility.yul\":8342:8348   */\n      dup3\n        /* \"#utility.yul\":8331:8340   */\n      dup9\n        /* \"#utility.yul\":8327:8349   */\n      add\n        /* \"#utility.yul\":8306:8359   */\n      tag_233\n      jump\t// in\n    tag_374:\n        /* \"#utility.yul\":8296:8359   */\n      swap3\n      pop\n        /* \"#utility.yul\":8251:8369   */\n      pop\n        /* \"#utility.yul\":8436:8438   */\n      0x60\n        /* \"#utility.yul\":8425:8434   */\n      dup6\n        /* \"#utility.yul\":8421:8439   */\n      add\n        /* \"#utility.yul\":8408:8440   */\n      calldataload\n        /* \"#utility.yul\":8467:8485   */\n      0xffffffffffffffff\n        /* \"#utility.yul\":8459:8465   */\n      dup2\n        /* \"#utility.yul\":8456:8486   */\n      gt\n        /* \"#utility.yul\":8453:8570   */\n      iszero\n      tag_375\n      jumpi\n        /* \"#utility.yul\":8489:8568   */\n      tag_376\n      tag_228\n      jump\t// in\n    tag_376:\n        /* \"#utility.yul\":8453:8570   */\n    tag_375:\n        /* \"#utility.yul\":8594:8657   */\n      tag_377\n        /* \"#utility.yul\":8649:8656   */\n      dup8\n        /* \"#utility.yul\":8640:8646   */\n      dup3\n        /* \"#utility.yul\":8629:8638   */\n      dup9\n        /* \"#utility.yul\":8625:8647   */\n      add\n        /* \"#utility.yul\":8594:8657   */\n      tag_245\n      jump\t// in\n    tag_377:\n        /* \"#utility.yul\":8584:8657   */\n      swap2\n      pop\n        /* \"#utility.yul\":8379:8667   */\n      pop\n        /* \"#utility.yul\":7713:8674   */\n      swap3\n      swap6\n      swap2\n      swap5\n      pop\n      swap3\n      pop\n      jump\t// out\n        /* \"#utility.yul\":8680:8849   */\n    tag_246:\n        /* \"#utility.yul\":8764:8775   */\n      0x00\n        /* \"#utility.yul\":8798:8804   */\n      dup3\n        /* \"#utility.yul\":8793:8796   */\n      dup3\n        /* \"#utility.yul\":8786:8805   */\n      mstore\n        /* \"#utility.yul\":8838:8842   */\n      0x20\n        /* \"#utility.yul\":8833:8836   */\n      dup3\n        /* \"#utility.yul\":8829:8843   */\n      add\n        /* \"#utility.yul\":8814:8843   */\n      swap1\n      pop\n        /* \"#utility.yul\":8680:8849   */\n      swap3\n      swap2\n      pop\n      pop\n      jump\t// out\n        /* \"#utility.yul\":8855:9032   */\n    tag_247:\n        /* \"#utility.yul\":8995:9024   */\n      0x7a65726f2061646472657373206973206e6f7420616c6c6f7765640000000000\n        /* \"#utility.yul\":8991:8992   */\n      0x00\n        /* \"#utility.yul\":8983:8989   */\n      dup3\n        /* \"#utility.yul\":8979:8993   */\n      add\n        /* \"#utility.yul\":8972:9025   */\n      mstore\n        /* \"#utility.yul\":8855:9032   */\n      pop\n      jump\t// out\n        /* \"#utility.yul\":9038:9404   */\n    tag_248:\n        /* \"#utility.yul\":9180:9183   */\n      0x00\n        /* \"#utility.yul\":9201:9268   */\n      tag_381\n        /* \"#utility.yul\":9265:9267   */\n      0x1b\n        /* \"#utility.yul\":9260:9263   */\n      dup4\n        /* \"#utility.yul\":9201:9268   */\n      tag_246\n      jump\t// in\n    tag_381:\n        /* \"#utility.yul\":9194:9268   */\n      swap2\n      pop\n        /* \"#utility.yul\":9277:9370   */\n      tag_382\n        /* \"#utility.yul\":9366:9369   */\n      dup3\n        /* \"#utility.yul\":9277:9370   */\n      tag_247\n      jump\t// in\n    tag_382:\n        /* \"#utility.yul\":9395:9397   */\n      0x20\n        /* \"#utility.yul\":9390:9393   */\n      dup3\n        /* \"#utility.yul\":9386:9398   */\n      add\n        /* \"#utility.yul\":9379:9398   */\n      swap1\n      pop\n        /* \"#utility.yul\":9038:9404   */\n      swap2\n      swap1\n      pop\n      jump\t// out\n        /* \"#utility.yul\":9410:9829   */\n    tag_73:\n        /* \"#utility.yul\":9576:9580   */\n      0x00\n        /* \"#utility.yul\":9614:9616   */\n      0x20\n        /* \"#utility.yul\":9603:9612   */\n      dup3\n        /* \"#utility.yul\":9599:9617   */\n      add\n        /* \"#utility.yul\":9591:9617   */\n      swap1\n      pop\n        /* \"#utility.yul\":9663:9672   */\n      dup2\n        /* \"#utility.yul\":9657:9661   */\n      dup2\n        /* \"#utility.yul\":9653:9673   */\n      sub\n        /* \"#utility.yul\":9649:9650   */\n      0x00\n        /* \"#utility.yul\":9638:9647   */\n      dup4\n        /* \"#utility.yul\":9634:9651   */\n      add\n        /* \"#utility.yul\":9627:9674   */\n      mstore\n        /* \"#utility.yul\":9691:9822   */\n      tag_384\n        /* \"#utility.yul\":9817:9821   */\n      dup2\n        /* \"#utility.yul\":9691:9822   */\n      tag_248\n      jump\t// in\n    tag_384:\n        /* \"#utility.yul\":9683:9822   */\n      swap1\n      pop\n        /* \"#utility.yul\":9410:9829   */\n      swap2\n      swap1\n      pop\n      jump\t// out\n        /* \"#utility.yul\":9835:10008   */\n    tag_249:\n        /* \"#utility.yul\":9975:10000   */\n      0x706c656173652073656e6420736f6d6520616d6f756e74000000000000000000\n        /* \"#utility.yul\":9971:9972   */\n      0x00\n        /* \"#utility.yul\":9963:9969   */\n      dup3\n        /* \"#utility.yul\":9959:9973   */\n      add\n        /* \"#utility.yul\":9952:10001   */\n      mstore\n        /* \"#utility.yul\":9835:10008   */\n      pop\n      jump\t// out\n        /* \"#utility.yul\":10014:10380   */\n    tag_250:\n        /* \"#utility.yul\":10156:10159   */\n      0x00\n        /* \"#utility.yul\":10177:10244   */\n      tag_387\n        /* \"#utility.yul\":10241:10243   */\n      0x17\n        /* \"#utility.yul\":10236:10239   */\n      dup4\n        /* \"#utility.yul\":10177:10244   */\n      tag_246\n      jump\t// in\n    tag_387:\n        /* \"#utility.yul\":10170:10244   */\n      swap2\n      pop\n        /* \"#utility.yul\":10253:10346   */\n      tag_388\n        /* \"#utility.yul\":10342:10345   */\n      dup3\n        /* \"#utility.yul\":10253:10346   */\n      tag_249\n      jump\t// in\n    tag_388:\n        /* \"#utility.yul\":10371:10373   */\n      0x20\n        /* \"#utility.yul\":10366:10369   */\n      dup3\n        /* \"#utility.yul\":10362:10374   */\n      add\n        /* \"#utility.yul\":10355:10374   */\n      swap1\n      pop\n        /* \"#utility.yul\":10014:10380   */\n      swap2\n      swap1\n      pop\n      jump\t// out\n        /* \"#utility.yul\":10386:10805   */\n    tag_76:\n        /* \"#utility.yul\":10552:10556   */\n      0x00\n        /* \"#utility.yul\":10590:10592   */\n      0x20\n        /* \"#utility.yul\":10579:10588   */\n      dup3\n        /* \"#utility.yul\":10575:10593   */\n      add\n        /* \"#utility.yul\":10567:10593   */\n      swap1\n      pop\n        /* \"#utility.yul\":10639:10648   */\n      dup2\n        /* \"#utility.yul\":10633:10637   */\n      dup2\n        /* \"#utility.yul\":10629:10649   */\n      sub\n        /* \"#utility.yul\":10625:10626   */\n      0x00\n        /* \"#utility.yul\":10614:10623   */\n      dup4\n        /* \"#utility.yul\":10610:10627   */\n      add\n        /* \"#utility.yul\":10603:10650   */\n      mstore\n        /* \"#utility.yul\":10667:10798   */\n      tag_390\n        /* \"#utility.yul\":10793:10797   */\n      dup2\n        /* \"#utility.yul\":10667:10798   */\n      tag_250\n      jump\t// in\n    tag_390:\n        /* \"#utility.yul\":10659:10798   */\n      swap1\n      pop\n        /* \"#utility.yul\":10386:10805   */\n      swap2\n      swap1\n      pop\n      jump\t// out\n        /* \"#utility.yul\":10811:10991   */\n    tag_251:\n        /* \"#utility.yul\":10859:10936   */\n      0x4e487b7100000000000000000000000000000000000000000000000000000000\n        /* \"#utility.yul\":10856:10857   */\n      0x00\n        /* \"#utility.yul\":10849:10937   */\n      mstore\n        /* \"#utility.yul\":10956:10960   */\n      0x11\n        /* \"#utility.yul\":10953:10954   */\n      0x04\n        /* \"#utility.yul\":10946:10961   */\n      mstore\n        /* \"#utility.yul\":10980:10984   */\n      0x24\n        /* \"#utility.yul\":10977:10978   */\n      0x00\n        /* \"#utility.yul\":10970:10985   */\n      revert\n        /* \"#utility.yul\":10997:11188   */\n    tag_78:\n        /* \"#utility.yul\":11037:11040   */\n      0x00\n        /* \"#utility.yul\":11056:11076   */\n      tag_393\n        /* \"#utility.yul\":11074:11075   */\n      dup3\n        /* \"#utility.yul\":11056:11076   */\n      tag_224\n      jump\t// in\n    tag_393:\n        /* \"#utility.yul\":11051:11076   */\n      swap2\n      pop\n        /* \"#utility.yul\":11090:11110   */\n      tag_394\n        /* \"#utility.yul\":11108:11109   */\n      dup4\n        /* \"#utility.yul\":11090:11110   */\n      tag_224\n      jump\t// in\n    tag_394:\n        /* \"#utility.yul\":11085:11110   */\n      swap3\n      pop\n        /* \"#utility.yul\":11133:11134   */\n      dup3\n        /* \"#utility.yul\":11130:11131   */\n      dup3\n        /* \"#utility.yul\":11126:11135   */\n      add\n        /* \"#utility.yul\":11119:11135   */\n      swap1\n      pop\n        /* \"#utility.yul\":11154:11157   */\n      dup1\n        /* \"#utility.yul\":11151:11152   */\n      dup3\n        /* \"#utility.yul\":11148:11158   */\n      gt\n        /* \"#utility.yul\":11145:11181   */\n      iszero\n      tag_395\n      jumpi\n        /* \"#utility.yul\":11161:11179   */\n      tag_396\n      tag_251\n      jump\t// in\n    tag_396:\n        /* \"#utility.yul\":11145:11181   */\n    tag_395:\n        /* \"#utility.yul\":10997:11188   */\n      swap3\n      swap2\n      pop\n      pop\n      jump\t// out\n        /* \"#utility.yul\":11194:11342   */\n    tag_252:\n        /* \"#utility.yul\":11296:11307   */\n      0x00\n        /* \"#utility.yul\":11333:11336   */\n      dup2\n        /* \"#utility.yul\":11318:11336   */\n      swap1\n      pop\n        /* \"#utility.yul\":11194:11342   */\n      swap3\n      swap2\n      pop\n      pop\n      jump\t// out\n        /* \"#utility.yul\":11348:11501   */\n    tag_253:\n        /* \"#utility.yul\":11488:11493   */\n      0x6361720000000000000000000000000000000000000000000000000000000000\n        /* \"#utility.yul\":11484:11485   */\n      0x00\n        /* \"#utility.yul\":11476:11482   */\n      dup3\n        /* \"#utility.yul\":11472:11486   */\n      add\n        /* \"#utility.yul\":11465:11494   */\n      mstore\n        /* \"#utility.yul\":11348:11501   */\n      pop\n      jump\t// out\n        /* \"#utility.yul\":11507:11907   */\n    tag_254:\n        /* \"#utility.yul\":11667:11670   */\n      0x00\n        /* \"#utility.yul\":11688:11772   */\n      tag_400\n        /* \"#utility.yul\":11770:11771   */\n      0x03\n        /* \"#utility.yul\":11765:11768   */\n      dup4\n        /* \"#utility.yul\":11688:11772   */\n      tag_252\n      jump\t// in\n    tag_400:\n        /* \"#utility.yul\":11681:11772   */\n      swap2\n      pop\n        /* \"#utility.yul\":11781:11874   */\n      tag_401\n        /* \"#utility.yul\":11870:11873   */\n      dup3\n        /* \"#utility.yul\":11781:11874   */\n      tag_253\n      jump\t// in\n    tag_401:\n        /* \"#utility.yul\":11899:11900   */\n      0x03\n        /* \"#utility.yul\":11894:11897   */\n      dup3\n        /* \"#utility.yul\":11890:11901   */\n      add\n        /* \"#utility.yul\":11883:11901   */\n      swap1\n      pop\n        /* \"#utility.yul\":11507:11907   */\n      swap2\n      swap1\n      pop\n      jump\t// out\n        /* \"#utility.yul\":11913:12294   */\n    tag_88:\n        /* \"#utility.yul\":12098:12101   */\n      0x00\n        /* \"#utility.yul\":12120:12268   */\n      tag_403\n        /* \"#utility.yul\":12264:12267   */\n      dup3\n        /* \"#utility.yul\":12120:12268   */\n      tag_254\n      jump\t// in\n    tag_403:\n        /* \"#utility.yul\":12113:12268   */\n      swap2\n      pop\n        /* \"#utility.yul\":12285:12288   */\n      dup2\n        /* \"#utility.yul\":12278:12288   */\n      swap1\n      pop\n        /* \"#utility.yul\":11913:12294   */\n      swap2\n      swap1\n      pop\n      jump\t// out\n        /* \"#utility.yul\":12300:12399   */\n    tag_255:\n        /* \"#utility.yul\":12352:12358   */\n      0x00\n        /* \"#utility.yul\":12386:12391   */\n      dup2\n        /* \"#utility.yul\":12380:12392   */\n      mload\n        /* \"#utility.yul\":12370:12392   */\n      swap1\n      pop\n        /* \"#utility.yul\":12300:12399   */\n      swap2\n      swap1\n      pop\n      jump\t// out\n        /* \"#utility.yul\":12405:12651   */\n    tag_256:\n        /* \"#utility.yul\":12486:12487   */\n      0x00\n        /* \"#utility.yul\":12496:12609   */\n    tag_406:\n        /* \"#utility.yul\":12510:12516   */\n      dup4\n        /* \"#utility.yul\":12507:12508   */\n      dup2\n        /* \"#utility.yul\":12504:12517   */\n      lt\n        /* \"#utility.yul\":12496:12609   */\n      iszero\n      tag_408\n      jumpi\n        /* \"#utility.yul\":12595:12596   */\n      dup1\n        /* \"#utility.yul\":12590:12593   */\n      dup3\n        /* \"#utility.yul\":12586:12597   */\n      add\n        /* \"#utility.yul\":12580:12598   */\n      mload\n        /* \"#utility.yul\":12576:12577   */\n      dup2\n        /* \"#utility.yul\":12571:12574   */\n      dup5\n        /* \"#utility.yul\":12567:12578   */\n      add\n        /* \"#utility.yul\":12560:12599   */\n      mstore\n        /* \"#utility.yul\":12532:12534   */\n      0x20\n        /* \"#utility.yul\":12529:12530   */\n      dup2\n        /* \"#utility.yul\":12525:12535   */\n      add\n        /* \"#utility.yul\":12520:12535   */\n      swap1\n      pop\n        /* \"#utility.yul\":12496:12609   */\n      jump(tag_406)\n    tag_408:\n        /* \"#utility.yul\":12643:12644   */\n      0x00\n        /* \"#utility.yul\":12634:12640   */\n      dup5\n        /* \"#utility.yul\":12629:12632   */\n      dup5\n        /* \"#utility.yul\":12625:12641   */\n      add\n        /* \"#utility.yul\":12618:12645   */\n      mstore\n        /* \"#utility.yul\":12467:12651   */\n      pop\n        /* \"#utility.yul\":12405:12651   */\n      pop\n      pop\n      pop\n      jump\t// out\n        /* \"#utility.yul\":12657:13047   */\n    tag_257:\n        /* \"#utility.yul\":12763:12766   */\n      0x00\n        /* \"#utility.yul\":12791:12830   */\n      tag_410\n        /* \"#utility.yul\":12824:12829   */\n      dup3\n        /* \"#utility.yul\":12791:12830   */\n      tag_255\n      jump\t// in\n    tag_410:\n        /* \"#utility.yul\":12846:12935   */\n      tag_411\n        /* \"#utility.yul\":12928:12934   */\n      dup2\n        /* \"#utility.yul\":12923:12926   */\n      dup6\n        /* \"#utility.yul\":12846:12935   */\n      tag_252\n      jump\t// in\n    tag_411:\n        /* \"#utility.yul\":12839:12935   */\n      swap4\n      pop\n        /* \"#utility.yul\":12944:13009   */\n      tag_412\n        /* \"#utility.yul\":13002:13008   */\n      dup2\n        /* \"#utility.yul\":12997:13000   */\n      dup6\n        /* \"#utility.yul\":12990:12994   */\n      0x20\n        /* \"#utility.yul\":12983:12988   */\n      dup7\n        /* \"#utility.yul\":12979:12995   */\n      add\n        /* \"#utility.yul\":12944:13009   */\n      tag_256\n      jump\t// in\n    tag_412:\n        /* \"#utility.yul\":13034:13040   */\n      dup1\n        /* \"#utility.yul\":13029:13032   */\n      dup5\n        /* \"#utility.yul\":13025:13041   */\n      add\n        /* \"#utility.yul\":13018:13041   */\n      swap2\n      pop\n        /* \"#utility.yul\":12767:13047   */\n      pop\n        /* \"#utility.yul\":12657:13047   */\n      swap3\n      swap2\n      pop\n      pop\n      jump\t// out\n        /* \"#utility.yul\":13053:13328   */\n    tag_90:\n        /* \"#utility.yul\":13185:13188   */\n      0x00\n        /* \"#utility.yul\":13207:13302   */\n      tag_414\n        /* \"#utility.yul\":13298:13301   */\n      dup3\n        /* \"#utility.yul\":13289:13295   */\n      dup5\n        /* \"#utility.yul\":13207:13302   */\n      tag_257\n      jump\t// in\n    tag_414:\n        /* \"#utility.yul\":13200:13302   */\n      swap2\n      pop\n        /* \"#utility.yul\":13319:13322   */\n      dup2\n        /* \"#utility.yul\":13312:13322   */\n      swap1\n      pop\n        /* \"#utility.yul\":13053:13328   */\n      swap3\n      swap2\n      pop\n      pop\n      jump\t// out\n        /* \"#utility.yul\":13334:13488   */\n    tag_258:\n        /* \"#utility.yul\":13474:13480   */\n      0x686f6d6500000000000000000000000000000000000000000000000000000000\n        /* \"#utility.yul\":13470:13471   */\n      0x00\n        /* \"#utility.yul\":13462:13468   */\n      dup3\n        /* \"#utility.yul\":13458:13472   */\n      add\n        /* \"#utility.yul\":13451:13481   */\n      mstore\n        /* \"#utility.yul\":13334:13488   */\n      pop\n      jump\t// out\n        /* \"#utility.yul\":13494:13894   */\n    tag_259:\n        /* \"#utility.yul\":13654:13657   */\n      0x00\n        /* \"#utility.yul\":13675:13759   */\n      tag_417\n        /* \"#utility.yul\":13757:13758   */\n      0x04\n        /* \"#utility.yul\":13752:13755   */\n      dup4\n        /* \"#utility.yul\":13675:13759   */\n      tag_252\n      jump\t// in\n    tag_417:\n        /* \"#utility.yul\":13668:13759   */\n      swap2\n      pop\n        /* \"#utility.yul\":13768:13861   */\n      tag_418\n        /* \"#utility.yul\":13857:13860   */\n      dup3\n        /* \"#utility.yul\":13768:13861   */\n      tag_258\n      jump\t// in\n    tag_418:\n        /* \"#utility.yul\":13886:13887   */\n      0x04\n        /* \"#utility.yul\":13881:13884   */\n      dup3\n        /* \"#utility.yul\":13877:13888   */\n      add\n        /* \"#utility.yul\":13870:13888   */\n      swap1\n      pop\n        /* \"#utility.yul\":13494:13894   */\n      swap2\n      swap1\n      pop\n      jump\t// out\n        /* \"#utility.yul\":13900:14281   */\n    tag_93:\n        /* \"#utility.yul\":14085:14088   */\n      0x00\n        /* \"#utility.yul\":14107:14255   */\n      tag_420\n        /* \"#utility.yul\":14251:14254   */\n      dup3\n        /* \"#utility.yul\":14107:14255   */\n      tag_259\n      jump\t// in\n    tag_420:\n        /* \"#utility.yul\":14100:14255   */\n      swap2\n      pop\n        /* \"#utility.yul\":14272:14275   */\n      dup2\n        /* \"#utility.yul\":14265:14275   */\n      swap1\n      pop\n        /* \"#utility.yul\":13900:14281   */\n      swap2\n      swap1\n      pop\n      jump\t// out\n        /* \"#utility.yul\":14287:14445   */\n    tag_260:\n        /* \"#utility.yul\":14427:14437   */\n      0x706572736f6e616c000000000000000000000000000000000000000000000000\n        /* \"#utility.yul\":14423:14424   */\n      0x00\n        /* \"#utility.yul\":14415:14421   */\n      dup3\n        /* \"#utility.yul\":14411:14425   */\n      add\n        /* \"#utility.yul\":14404:14438   */\n      mstore\n        /* \"#utility.yul\":14287:14445   */\n      pop\n      jump\t// out\n        /* \"#utility.yul\":14451:14851   */\n    tag_261:\n        /* \"#utility.yul\":14611:14614   */\n      0x00\n        /* \"#utility.yul\":14632:14716   */\n      tag_423\n        /* \"#utility.yul\":14714:14715   */\n      0x08\n        /* \"#utility.yul\":14709:14712   */\n      dup4\n        /* \"#utility.yul\":14632:14716   */\n      tag_252\n      jump\t// in\n    tag_423:\n        /* \"#utility.yul\":14625:14716   */\n      swap2\n      pop\n        /* \"#utility.yul\":14725:14818   */\n      tag_424\n        /* \"#utility.yul\":14814:14817   */\n      dup3\n        /* \"#utility.yul\":14725:14818   */\n      tag_260\n      jump\t// in\n    tag_424:\n        /* \"#utility.yul\":14843:14844   */\n      0x08\n        /* \"#utility.yul\":14838:14841   */\n      dup3\n        /* \"#utility.yul\":14834:14845   */\n      add\n        /* \"#utility.yul\":14827:14845   */\n      swap1\n      pop\n        /* \"#utility.yul\":14451:14851   */\n      swap2\n      swap1\n      pop\n      jump\t// out\n        /* \"#utility.yul\":14857:15238   */\n    tag_97:\n        /* \"#utility.yul\":15042:15045   */\n      0x00\n        /* \"#utility.yul\":15064:15212   */\n      tag_426\n        /* \"#utility.yul\":15208:15211   */\n      dup3\n        /* \"#utility.yul\":15064:15212   */\n      tag_261\n      jump\t// in\n    tag_426:\n        /* \"#utility.yul\":15057:15212   */\n      swap2\n      pop\n        /* \"#utility.yul\":15229:15232   */\n      dup2\n        /* \"#utility.yul\":15222:15232   */\n      swap1\n      pop\n        /* \"#utility.yul\":14857:15238   */\n      swap2\n      swap1\n      pop\n      jump\t// out\n        /* \"#utility.yul\":15244:15411   */\n    tag_262:\n        /* \"#utility.yul\":15384:15403   */\n      0x696e76616c6964206c6f616e2074797065000000000000000000000000000000\n        /* \"#utility.yul\":15380:15381   */\n      0x00\n        /* \"#utility.yul\":15372:15378   */\n      dup3\n        /* \"#utility.yul\":15368:15382   */\n      add\n        /* \"#utility.yul\":15361:15404   */\n      mstore\n        /* \"#utility.yul\":15244:15411   */\n      pop\n      jump\t// out\n        /* \"#utility.yul\":15417:15783   */\n    tag_263:\n        /* \"#utility.yul\":15559:15562   */\n      0x00\n        /* \"#utility.yul\":15580:15647   */\n      tag_429\n        /* \"#utility.yul\":15644:15646   */\n      0x11\n        /* \"#utility.yul\":15639:15642   */\n      dup4\n        /* \"#utility.yul\":15580:15647   */\n      tag_246\n      jump\t// in\n    tag_429:\n        /* \"#utility.yul\":15573:15647   */\n      swap2\n      pop\n        /* \"#utility.yul\":15656:15749   */\n      tag_430\n        /* \"#utility.yul\":15745:15748   */\n      dup3\n        /* \"#utility.yul\":15656:15749   */\n      tag_262\n      jump\t// in\n    tag_430:\n        /* \"#utility.yul\":15774:15776   */\n      0x20\n        /* \"#utility.yul\":15769:15772   */\n      dup3\n        /* \"#utility.yul\":15765:15777   */\n      add\n        /* \"#utility.yul\":15758:15777   */\n      swap1\n      pop\n        /* \"#utility.yul\":15417:15783   */\n      swap2\n      swap1\n      pop\n      jump\t// out\n        /* \"#utility.yul\":15789:16208   */\n    tag_101:\n        /* \"#utility.yul\":15955:15959   */\n      0x00\n        /* \"#utility.yul\":15993:15995   */\n      0x20\n        /* \"#utility.yul\":15982:15991   */\n      dup3\n        /* \"#utility.yul\":15978:15996   */\n      add\n        /* \"#utility.yul\":15970:15996   */\n      swap1\n      pop\n        /* \"#utility.yul\":16042:16051   */\n      dup2\n        /* \"#utility.yul\":16036:16040   */\n      dup2\n        /* \"#utility.yul\":16032:16052   */\n      sub\n        /* \"#utility.yul\":16028:16029   */\n      0x00\n        /* \"#utility.yul\":16017:16026   */\n      dup4\n        /* \"#utility.yul\":16013:16030   */\n      add\n        /* \"#utility.yul\":16006:16053   */\n      mstore\n        /* \"#utility.yul\":16070:16201   */\n      tag_432\n        /* \"#utility.yul\":16196:16200   */\n      dup2\n        /* \"#utility.yul\":16070:16201   */\n      tag_263\n      jump\t// in\n    tag_432:\n        /* \"#utility.yul\":16062:16201   */\n      swap1\n      pop\n        /* \"#utility.yul\":15789:16208   */\n      swap2\n      swap1\n      pop\n      jump\t// out\n        /* \"#utility.yul\":16214:16408   */\n    tag_108:\n        /* \"#utility.yul\":16254:16258   */\n      0x00\n        /* \"#utility.yul\":16274:16294   */\n      tag_434\n        /* \"#utility.yul\":16292:16293   */\n      dup3\n        /* \"#utility.yul\":16274:16294   */\n      tag_224\n      jump\t// in\n    tag_434:\n        /* \"#utility.yul\":16269:16294   */\n      swap2\n      pop\n        /* \"#utility.yul\":16308:16328   */\n      tag_435\n        /* \"#utility.yul\":16326:16327   */\n      dup4\n        /* \"#utility.yul\":16308:16328   */\n      tag_224\n      jump\t// in\n    tag_435:\n        /* \"#utility.yul\":16303:16328   */\n      swap3\n      pop\n        /* \"#utility.yul\":16352:16353   */\n      dup3\n        /* \"#utility.yul\":16349:16350   */\n      dup3\n        /* \"#utility.yul\":16345:16354   */\n      sub\n        /* \"#utility.yul\":16337:16354   */\n      swap1\n      pop\n        /* \"#utility.yul\":16376:16377   */\n      dup2\n        /* \"#utility.yul\":16370:16374   */\n      dup2\n        /* \"#utility.yul\":16367:16378   */\n      gt\n        /* \"#utility.yul\":16364:16401   */\n      iszero\n      tag_436\n      jumpi\n        /* \"#utility.yul\":16381:16399   */\n      tag_437\n      tag_251\n      jump\t// in\n    tag_437:\n        /* \"#utility.yul\":16364:16401   */\n    tag_436:\n        /* \"#utility.yul\":16214:16408   */\n      swap3\n      swap2\n      pop\n      pop\n      jump\t// out\n        /* \"#utility.yul\":16414:16643   */\n    tag_264:\n        /* \"#utility.yul\":16554:16588   */\n      0x4e65656420746f20776169742031206d6f6e746820616674657220706179696e\n        /* \"#utility.yul\":16550:16551   */\n      0x00\n        /* \"#utility.yul\":16542:16548   */\n      dup3\n        /* \"#utility.yul\":16538:16552   */\n      add\n        /* \"#utility.yul\":16531:16589   */\n      mstore\n        /* \"#utility.yul\":16623:16635   */\n      0x67206c61737420454d4900000000000000000000000000000000000000000000\n        /* \"#utility.yul\":16618:16620   */\n      0x20\n        /* \"#utility.yul\":16610:16616   */\n      dup3\n        /* \"#utility.yul\":16606:16621   */\n      add\n        /* \"#utility.yul\":16599:16636   */\n      mstore\n        /* \"#utility.yul\":16414:16643   */\n      pop\n      jump\t// out\n        /* \"#utility.yul\":16649:17015   */\n    tag_265:\n        /* \"#utility.yul\":16791:16794   */\n      0x00\n        /* \"#utility.yul\":16812:16879   */\n      tag_440\n        /* \"#utility.yul\":16876:16878   */\n      0x2a\n        /* \"#utility.yul\":16871:16874   */\n      dup4\n        /* \"#utility.yul\":16812:16879   */\n      tag_246\n      jump\t// in\n    tag_440:\n        /* \"#utility.yul\":16805:16879   */\n      swap2\n      pop\n        /* \"#utility.yul\":16888:16981   */\n      tag_441\n        /* \"#utility.yul\":16977:16980   */\n      dup3\n        /* \"#utility.yul\":16888:16981   */\n      tag_264\n      jump\t// in\n    tag_441:\n        /* \"#utility.yul\":17006:17008   */\n      0x40\n        /* \"#utility.yul\":17001:17004   */\n      dup3\n        /* \"#utility.yul\":16997:17009   */\n      add\n        /* \"#utility.yul\":16990:17009   */\n      swap1\n      pop\n        /* \"#utility.yul\":16649:17015   */\n      swap2\n      swap1\n      pop\n      jump\t// out\n        /* \"#utility.yul\":17021:17440   */\n    tag_111:\n        /* \"#utility.yul\":17187:17191   */\n      0x00\n        /* \"#utility.yul\":17225:17227   */\n      0x20\n        /* \"#utility.yul\":17214:17223   */\n      dup3\n        /* \"#utility.yul\":17210:17228   */\n      add\n        /* \"#utility.yul\":17202:17228   */\n      swap1\n      pop\n        /* \"#utility.yul\":17274:17283   */\n      dup2\n        /* \"#utility.yul\":17268:17272   */\n      dup2\n        /* \"#utility.yul\":17264:17284   */\n      sub\n        /* \"#utility.yul\":17260:17261   */\n      0x00\n        /* \"#utility.yul\":17249:17258   */\n      dup4\n        /* \"#utility.yul\":17245:17262   */\n      add\n        /* \"#utility.yul\":17238:17285   */\n      mstore\n        /* \"#utility.yul\":17302:17433   */\n      tag_443\n        /* \"#utility.yul\":17428:17432   */\n      dup2\n        /* \"#utility.yul\":17302:17433   */\n      tag_265\n      jump\t// in\n    tag_443:\n        /* \"#utility.yul\":17294:17433   */\n      swap1\n      pop\n        /* \"#utility.yul\":17021:17440   */\n      swap2\n      swap1\n      pop\n      jump\t// out\n        /* \"#utility.yul\":17446:17614   */\n    tag_266:\n        /* \"#utility.yul\":17586:17606   */\n      0x696e76616c696420656d6920616d6f756e740000000000000000000000000000\n        /* \"#utility.yul\":17582:17583   */\n      0x00\n        /* \"#utility.yul\":17574:17580   */\n      dup3\n        /* \"#utility.yul\":17570:17584   */\n      add\n        /* \"#utility.yul\":17563:17607   */\n      mstore\n        /* \"#utility.yul\":17446:17614   */\n      pop\n      jump\t// out\n        /* \"#utility.yul\":17620:17986   */\n    tag_267:\n        /* \"#utility.yul\":17762:17765   */\n      0x00\n        /* \"#utility.yul\":17783:17850   */\n      tag_446\n        /* \"#utility.yul\":17847:17849   */\n      0x12\n        /* \"#utility.yul\":17842:17845   */\n      dup4\n        /* \"#utility.yul\":17783:17850   */\n      tag_246\n      jump\t// in\n    tag_446:\n        /* \"#utility.yul\":17776:17850   */\n      swap2\n      pop\n        /* \"#utility.yul\":17859:17952   */\n      tag_447\n        /* \"#utility.yul\":17948:17951   */\n      dup3\n        /* \"#utility.yul\":17859:17952   */\n      tag_266\n      jump\t// in\n    tag_447:\n        /* \"#utility.yul\":17977:17979   */\n      0x20\n        /* \"#utility.yul\":17972:17975   */\n      dup3\n        /* \"#utility.yul\":17968:17980   */\n      add\n        /* \"#utility.yul\":17961:17980   */\n      swap1\n      pop\n        /* \"#utility.yul\":17620:17986   */\n      swap2\n      swap1\n      pop\n      jump\t// out\n        /* \"#utility.yul\":17992:18411   */\n    tag_114:\n        /* \"#utility.yul\":18158:18162   */\n      0x00\n        /* \"#utility.yul\":18196:18198   */\n      0x20\n        /* \"#utility.yul\":18185:18194   */\n      dup3\n        /* \"#utility.yul\":18181:18199   */\n      add\n        /* \"#utility.yul\":18173:18199   */\n      swap1\n      pop\n        /* \"#utility.yul\":18245:18254   */\n      dup2\n        /* \"#utility.yul\":18239:18243   */\n      dup2\n        /* \"#utility.yul\":18235:18255   */\n      sub\n        /* \"#utility.yul\":18231:18232   */\n      0x00\n        /* \"#utility.yul\":18220:18229   */\n      dup4\n        /* \"#utility.yul\":18216:18233   */\n      add\n        /* \"#utility.yul\":18209:18256   */\n      mstore\n        /* \"#utility.yul\":18273:18404   */\n      tag_449\n        /* \"#utility.yul\":18399:18403   */\n      dup2\n        /* \"#utility.yul\":18273:18404   */\n      tag_267\n      jump\t// in\n    tag_449:\n        /* \"#utility.yul\":18265:18404   */\n      swap1\n      pop\n        /* \"#utility.yul\":17992:18411   */\n      swap2\n      swap1\n      pop\n      jump\t// out\n        /* \"#utility.yul\":18417:18588   */\n    tag_118:\n        /* \"#utility.yul\":18456:18459   */\n      0x00\n        /* \"#utility.yul\":18479:18503   */\n      tag_451\n        /* \"#utility.yul\":18497:18502   */\n      dup3\n        /* \"#utility.yul\":18479:18503   */\n      tag_224\n      jump\t// in\n    tag_451:\n        /* \"#utility.yul\":18470:18503   */\n      swap2\n      pop\n        /* \"#utility.yul\":18525:18529   */\n      0x00\n        /* \"#utility.yul\":18518:18523   */\n      dup3\n        /* \"#utility.yul\":18515:18530   */\n      sub\n        /* \"#utility.yul\":18512:18553   */\n      tag_452\n      jumpi\n        /* \"#utility.yul\":18533:18551   */\n      tag_453\n      tag_251\n      jump\t// in\n    tag_453:\n        /* \"#utility.yul\":18512:18553   */\n    tag_452:\n        /* \"#utility.yul\":18580:18581   */\n      0x01\n        /* \"#utility.yul\":18573:18578   */\n      dup3\n        /* \"#utility.yul\":18569:18582   */\n      sub\n        /* \"#utility.yul\":18562:18582   */\n      swap1\n      pop\n        /* \"#utility.yul\":18417:18588   */\n      swap2\n      swap1\n      pop\n      jump\t// out\n        /* \"#utility.yul\":18594:18827   */\n    tag_268:\n        /* \"#utility.yul\":18734:18768   */\n      0x796f752068617665206f6e6520636172206c6f616e2120796f752063616e2774\n        /* \"#utility.yul\":18730:18731   */\n      0x00\n        /* \"#utility.yul\":18722:18728   */\n      dup3\n        /* \"#utility.yul\":18718:18732   */\n      add\n        /* \"#utility.yul\":18711:18769   */\n      mstore\n        /* \"#utility.yul\":18803:18819   */\n      0x2074616b6520616e6f7468657221000000000000000000000000000000000000\n        /* \"#utility.yul\":18798:18800   */\n      0x20\n        /* \"#utility.yul\":18790:18796   */\n      dup3\n        /* \"#utility.yul\":18786:18801   */\n      add\n        /* \"#utility.yul\":18779:18820   */\n      mstore\n        /* \"#utility.yul\":18594:18827   */\n      pop\n      jump\t// out\n        /* \"#utility.yul\":18833:19199   */\n    tag_269:\n        /* \"#utility.yul\":18975:18978   */\n      0x00\n        /* \"#utility.yul\":18996:19063   */\n      tag_456\n        /* \"#utility.yul\":19060:19062   */\n      0x2e\n        /* \"#utility.yul\":19055:19058   */\n      dup4\n        /* \"#utility.yul\":18996:19063   */\n      tag_246\n      jump\t// in\n    tag_456:\n        /* \"#utility.yul\":18989:19063   */\n      swap2\n      pop\n        /* \"#utility.yul\":19072:19165   */\n      tag_457\n        /* \"#utility.yul\":19161:19164   */\n      dup3\n        /* \"#utility.yul\":19072:19165   */\n      tag_268\n      jump\t// in\n    tag_457:\n        /* \"#utility.yul\":19190:19192   */\n      0x40\n        /* \"#utility.yul\":19185:19188   */\n      dup3\n        /* \"#utility.yul\":19181:19193   */\n      add\n        /* \"#utility.yul\":19174:19193   */\n      swap1\n      pop\n        /* \"#utility.yul\":18833:19199   */\n      swap2\n      swap1\n      pop\n      jump\t// out\n        /* \"#utility.yul\":19205:19624   */\n    tag_166:\n        /* \"#utility.yul\":19371:19375   */\n      0x00\n        /* \"#utility.yul\":19409:19411   */\n      0x20\n        /* \"#utility.yul\":19398:19407   */\n      dup3\n        /* \"#utility.yul\":19394:19412   */\n      add\n        /* \"#utility.yul\":19386:19412   */\n      swap1\n      pop\n        /* \"#utility.yul\":19458:19467   */\n      dup2\n        /* \"#utility.yul\":19452:19456   */\n      dup2\n        /* \"#utility.yul\":19448:19468   */\n      sub\n        /* \"#utility.yul\":19444:19445   */\n      0x00\n        /* \"#utility.yul\":19433:19442   */\n      dup4\n        /* \"#utility.yul\":19429:19446   */\n      add\n        /* \"#utility.yul\":19422:19469   */\n      mstore\n        /* \"#utility.yul\":19486:19617   */\n      tag_459\n        /* \"#utility.yul\":19612:19616   */\n      dup2\n        /* \"#utility.yul\":19486:19617   */\n      tag_269\n      jump\t// in\n    tag_459:\n        /* \"#utility.yul\":19478:19617   */\n      swap1\n      pop\n        /* \"#utility.yul\":19205:19624   */\n      swap2\n      swap1\n      pop\n      jump\t// out\n        /* \"#utility.yul\":19630:20040   */\n    tag_168:\n        /* \"#utility.yul\":19670:19677   */\n      0x00\n        /* \"#utility.yul\":19693:19713   */\n      tag_461\n        /* \"#utility.yul\":19711:19712   */\n      dup3\n        /* \"#utility.yul\":19693:19713   */\n      tag_224\n      jump\t// in\n    tag_461:\n        /* \"#utility.yul\":19688:19713   */\n      swap2\n      pop\n        /* \"#utility.yul\":19727:19747   */\n      tag_462\n        /* \"#utility.yul\":19745:19746   */\n      dup4\n        /* \"#utility.yul\":19727:19747   */\n      tag_224\n      jump\t// in\n    tag_462:\n        /* \"#utility.yul\":19722:19747   */\n      swap3\n      pop\n        /* \"#utility.yul\":19782:19783   */\n      dup3\n        /* \"#utility.yul\":19779:19780   */\n      dup3\n        /* \"#utility.yul\":19775:19784   */\n      mul\n        /* \"#utility.yul\":19804:19834   */\n      tag_463\n        /* \"#utility.yul\":19822:19833   */\n      dup2\n        /* \"#utility.yul\":19804:19834   */\n      tag_224\n      jump\t// in\n    tag_463:\n        /* \"#utility.yul\":19793:19834   */\n      swap2\n      pop\n        /* \"#utility.yul\":19983:19984   */\n      dup3\n        /* \"#utility.yul\":19974:19981   */\n      dup3\n        /* \"#utility.yul\":19970:19985   */\n      div\n        /* \"#utility.yul\":19967:19968   */\n      dup5\n        /* \"#utility.yul\":19964:19986   */\n      eq\n        /* \"#utility.yul\":19944:19945   */\n      dup4\n        /* \"#utility.yul\":19937:19946   */\n      iszero\n        /* \"#utility.yul\":19917:20000   */\n      or\n        /* \"#utility.yul\":19894:20033   */\n      tag_464\n      jumpi\n        /* \"#utility.yul\":20013:20031   */\n      tag_465\n      tag_251\n      jump\t// in\n    tag_465:\n        /* \"#utility.yul\":19894:20033   */\n    tag_464:\n        /* \"#utility.yul\":19678:20040   */\n      pop\n        /* \"#utility.yul\":19630:20040   */\n      swap3\n      swap2\n      pop\n      pop\n      jump\t// out\n        /* \"#utility.yul\":20046:20226   */\n    tag_270:\n        /* \"#utility.yul\":20094:20171   */\n      0x4e487b7100000000000000000000000000000000000000000000000000000000\n        /* \"#utility.yul\":20091:20092   */\n      0x00\n        /* \"#utility.yul\":20084:20172   */\n      mstore\n        /* \"#utility.yul\":20191:20195   */\n      0x12\n        /* \"#utility.yul\":20188:20189   */\n      0x04\n        /* \"#utility.yul\":20181:20196   */\n      mstore\n        /* \"#utility.yul\":20215:20219   */\n      0x24\n        /* \"#utility.yul\":20212:20213   */\n      0x00\n        /* \"#utility.yul\":20205:20220   */\n      revert\n        /* \"#utility.yul\":20232:20417   */\n    tag_171:\n        /* \"#utility.yul\":20272:20273   */\n      0x00\n        /* \"#utility.yul\":20289:20309   */\n      tag_468\n        /* \"#utility.yul\":20307:20308   */\n      dup3\n        /* \"#utility.yul\":20289:20309   */\n      tag_224\n      jump\t// in\n    tag_468:\n        /* \"#utility.yul\":20284:20309   */\n      swap2\n      pop\n        /* \"#utility.yul\":20323:20343   */\n      tag_469\n        /* \"#utility.yul\":20341:20342   */\n      dup4\n        /* \"#utility.yul\":20323:20343   */\n      tag_224\n      jump\t// in\n    tag_469:\n        /* \"#utility.yul\":20318:20343   */\n      swap3\n      pop\n        /* \"#utility.yul\":20362:20363   */\n      dup3\n        /* \"#utility.yul\":20352:20387   */\n      tag_470\n      jumpi\n        /* \"#utility.yul\":20367:20385   */\n      tag_471\n      tag_270\n      jump\t// in\n    tag_471:\n        /* \"#utility.yul\":20352:20387   */\n    tag_470:\n        /* \"#utility.yul\":20409:20410   */\n      dup3\n        /* \"#utility.yul\":20406:20407   */\n      dup3\n        /* \"#utility.yul\":20402:20411   */\n      div\n        /* \"#utility.yul\":20397:20411   */\n      swap1\n      pop\n        /* \"#utility.yul\":20232:20417   */\n      swap3\n      swap2\n      pop\n      pop\n      jump\t// out\n        /* \"#utility.yul\":20423:20665   */\n    tag_271:\n        /* \"#utility.yul\":20563:20597   */\n      0x796f75206861766520616c7265616479206f6e6520686f6d65206c6f616e2120\n        /* \"#utility.yul\":20559:20560   */\n      0x00\n        /* \"#utility.yul\":20551:20557   */\n      dup3\n        /* \"#utility.yul\":20547:20561   */\n      add\n        /* \"#utility.yul\":20540:20598   */\n      mstore\n        /* \"#utility.yul\":20632:20657   */\n      0x796f752063616e27742074616b6520616e6f7468657221000000000000000000\n        /* \"#utility.yul\":20627:20629   */\n      0x20\n        /* \"#utility.yul\":20619:20625   */\n      dup3\n        /* \"#utility.yul\":20615:20630   */\n      add\n        /* \"#utility.yul\":20608:20658   */\n      mstore\n        /* \"#utility.yul\":20423:20665   */\n      pop\n      jump\t// out\n        /* \"#utility.yul\":20671:21037   */\n    tag_272:\n        /* \"#utility.yul\":20813:20816   */\n      0x00\n        /* \"#utility.yul\":20834:20901   */\n      tag_474\n        /* \"#utility.yul\":20898:20900   */\n      0x37\n        /* \"#utility.yul\":20893:20896   */\n      dup4\n        /* \"#utility.yul\":20834:20901   */\n      tag_246\n      jump\t// in\n    tag_474:\n        /* \"#utility.yul\":20827:20901   */\n      swap2\n      pop\n        /* \"#utility.yul\":20910:21003   */\n      tag_475\n        /* \"#utility.yul\":20999:21002   */\n      dup3\n        /* \"#utility.yul\":20910:21003   */\n      tag_271\n      jump\t// in\n    tag_475:\n        /* \"#utility.yul\":21028:21030   */\n      0x40\n        /* \"#utility.yul\":21023:21026   */\n      dup3\n        /* \"#utility.yul\":21019:21031   */\n      add\n        /* \"#utility.yul\":21012:21031   */\n      swap1\n      pop\n        /* \"#utility.yul\":20671:21037   */\n      swap2\n      swap1\n      pop\n      jump\t// out\n        /* \"#utility.yul\":21043:21462   */\n    tag_181:\n        /* \"#utility.yul\":21209:21213   */\n      0x00\n        /* \"#utility.yul\":21247:21249   */\n      0x20\n        /* \"#utility.yul\":21236:21245   */\n      dup3\n        /* \"#utility.yul\":21232:21250   */\n      add\n        /* \"#utility.yul\":21224:21250   */\n      swap1\n      pop\n        /* \"#utility.yul\":21296:21305   */\n      dup2\n        /* \"#utility.yul\":21290:21294   */\n      dup2\n        /* \"#utility.yul\":21286:21306   */\n      sub\n        /* \"#utility.yul\":21282:21283   */\n      0x00\n        /* \"#utility.yul\":21271:21280   */\n      dup4\n        /* \"#utility.yul\":21267:21284   */\n      add\n        /* \"#utility.yul\":21260:21307   */\n      mstore\n        /* \"#utility.yul\":21324:21455   */\n      tag_477\n        /* \"#utility.yul\":21450:21454   */\n      dup2\n        /* \"#utility.yul\":21324:21455   */\n      tag_272\n      jump\t// in\n    tag_477:\n        /* \"#utility.yul\":21316:21455   */\n      swap1\n      pop\n        /* \"#utility.yul\":21043:21462   */\n      swap2\n      swap1\n      pop\n      jump\t// out\n        /* \"#utility.yul\":21468:21706   */\n    tag_273:\n        /* \"#utility.yul\":21608:21642   */\n      0x796f752068617665206f6e6520706572736f6e616c206c6f616e2120796f7520\n        /* \"#utility.yul\":21604:21605   */\n      0x00\n        /* \"#utility.yul\":21596:21602   */\n      dup3\n        /* \"#utility.yul\":21592:21606   */\n      add\n        /* \"#utility.yul\":21585:21643   */\n      mstore\n        /* \"#utility.yul\":21677:21698   */\n      0x63616e27742074616b6520616e6f746865722100000000000000000000000000\n        /* \"#utility.yul\":21672:21674   */\n      0x20\n        /* \"#utility.yul\":21664:21670   */\n      dup3\n        /* \"#utility.yul\":21660:21675   */\n      add\n        /* \"#utility.yul\":21653:21699   */\n      mstore\n        /* \"#utility.yul\":21468:21706   */\n      pop\n      jump\t// out\n        /* \"#utility.yul\":21712:22078   */\n    tag_274:\n        /* \"#utility.yul\":21854:21857   */\n      0x00\n        /* \"#utility.yul\":21875:21942   */\n      tag_480\n        /* \"#utility.yul\":21939:21941   */\n      0x33\n        /* \"#utility.yul\":21934:21937   */\n      dup4\n        /* \"#utility.yul\":21875:21942   */\n      tag_246\n      jump\t// in\n    tag_480:\n        /* \"#utility.yul\":21868:21942   */\n      swap2\n      pop\n        /* \"#utility.yul\":21951:22044   */\n      tag_481\n        /* \"#utility.yul\":22040:22043   */\n      dup3\n        /* \"#utility.yul\":21951:22044   */\n      tag_273\n      jump\t// in\n    tag_481:\n        /* \"#utility.yul\":22069:22071   */\n      0x40\n        /* \"#utility.yul\":22064:22067   */\n      dup3\n        /* \"#utility.yul\":22060:22072   */\n      add\n        /* \"#utility.yul\":22053:22072   */\n      swap1\n      pop\n        /* \"#utility.yul\":21712:22078   */\n      swap2\n      swap1\n      pop\n      jump\t// out\n        /* \"#utility.yul\":22084:22503   */\n    tag_194:\n        /* \"#utility.yul\":22250:22254   */\n      0x00\n        /* \"#utility.yul\":22288:22290   */\n      0x20\n        /* \"#utility.yul\":22277:22286   */\n      dup3\n        /* \"#utility.yul\":22273:22291   */\n      add\n        /* \"#utility.yul\":22265:22291   */\n      swap1\n      pop\n        /* \"#utility.yul\":22337:22346   */\n      dup2\n        /* \"#utility.yul\":22331:22335   */\n      dup2\n        /* \"#utility.yul\":22327:22347   */\n      sub\n        /* \"#utility.yul\":22323:22324   */\n      0x00\n        /* \"#utility.yul\":22312:22321   */\n      dup4\n        /* \"#utility.yul\":22308:22325   */\n      add\n        /* \"#utility.yul\":22301:22348   */\n      mstore\n        /* \"#utility.yul\":22365:22496   */\n      tag_483\n        /* \"#utility.yul\":22491:22495   */\n      dup2\n        /* \"#utility.yul\":22365:22496   */\n      tag_274\n      jump\t// in\n    tag_483:\n        /* \"#utility.yul\":22357:22496   */\n      swap1\n      pop\n        /* \"#utility.yul\":22084:22503   */\n      swap2\n      swap1\n      pop\n      jump\t// out\n        /* \"#utility.yul\":22509:22732   */\n    tag_275:\n        /* \"#utility.yul\":22649:22683   */\n      0x596f75277265206e6f742074686520736d61727420636f6e7472616374206164\n        /* \"#utility.yul\":22645:22646   */\n      0x00\n        /* \"#utility.yul\":22637:22643   */\n      dup3\n        /* \"#utility.yul\":22633:22647   */\n      add\n        /* \"#utility.yul\":22626:22684   */\n      mstore\n        /* \"#utility.yul\":22718:22724   */\n      0x6d696e2100000000000000000000000000000000000000000000000000000000\n        /* \"#utility.yul\":22713:22715   */\n      0x20\n        /* \"#utility.yul\":22705:22711   */\n      dup3\n        /* \"#utility.yul\":22701:22716   */\n      add\n        /* \"#utility.yul\":22694:22725   */\n      mstore\n        /* \"#utility.yul\":22509:22732   */\n      pop\n      jump\t// out\n        /* \"#utility.yul\":22738:23104   */\n    tag_276:\n        /* \"#utility.yul\":22880:22883   */\n      0x00\n        /* \"#utility.yul\":22901:22968   */\n      tag_486\n        /* \"#utility.yul\":22965:22967   */\n      0x24\n        /* \"#utility.yul\":22960:22963   */\n      dup4\n        /* \"#utility.yul\":22901:22968   */\n      tag_246\n      jump\t// in\n    tag_486:\n        /* \"#utility.yul\":22894:22968   */\n      swap2\n      pop\n        /* \"#utility.yul\":22977:23070   */\n      tag_487\n        /* \"#utility.yul\":23066:23069   */\n      dup3\n        /* \"#utility.yul\":22977:23070   */\n      tag_275\n      jump\t// in\n    tag_487:\n        /* \"#utility.yul\":23095:23097   */\n      0x40\n        /* \"#utility.yul\":23090:23093   */\n      dup3\n        /* \"#utility.yul\":23086:23098   */\n      add\n        /* \"#utility.yul\":23079:23098   */\n      swap1\n      pop\n        /* \"#utility.yul\":22738:23104   */\n      swap2\n      swap1\n      pop\n      jump\t// out\n        /* \"#utility.yul\":23110:23529   */\n    tag_204:\n        /* \"#utility.yul\":23276:23280   */\n      0x00\n        /* \"#utility.yul\":23314:23316   */\n      0x20\n        /* \"#utility.yul\":23303:23312   */\n      dup3\n        /* \"#utility.yul\":23299:23317   */\n      add\n        /* \"#utility.yul\":23291:23317   */\n      swap1\n      pop\n        /* \"#utility.yul\":23363:23372   */\n      dup2\n        /* \"#utility.yul\":23357:23361   */\n      dup2\n        /* \"#utility.yul\":23353:23373   */\n      sub\n        /* \"#utility.yul\":23349:23350   */\n      0x00\n        /* \"#utility.yul\":23338:23347   */\n      dup4\n        /* \"#utility.yul\":23334:23351   */\n      add\n        /* \"#utility.yul\":23327:23374   */\n      mstore\n        /* \"#utility.yul\":23391:23522   */\n      tag_489\n        /* \"#utility.yul\":23517:23521   */\n      dup2\n        /* \"#utility.yul\":23391:23522   */\n      tag_276\n      jump\t// in\n    tag_489:\n        /* \"#utility.yul\":23383:23522   */\n      swap1\n      pop\n        /* \"#utility.yul\":23110:23529   */\n      swap2\n      swap1\n      pop\n      jump\t// out\n        /* \"#utility.yul\":23535:23699   */\n    tag_277:\n        /* \"#utility.yul\":23675:23691   */\n      0x696e76616c696420616d6f756e74000000000000000000000000000000000000\n        /* \"#utility.yul\":23671:23672   */\n      0x00\n        /* \"#utility.yul\":23663:23669   */\n      dup3\n        /* \"#utility.yul\":23659:23673   */\n      add\n        /* \"#utility.yul\":23652:23692   */\n      mstore\n        /* \"#utility.yul\":23535:23699   */\n      pop\n      jump\t// out\n        /* \"#utility.yul\":23705:24071   */\n    tag_278:\n        /* \"#utility.yul\":23847:23850   */\n      0x00\n        /* \"#utility.yul\":23868:23935   */\n      tag_492\n        /* \"#utility.yul\":23932:23934   */\n      0x0e\n        /* \"#utility.yul\":23927:23930   */\n      dup4\n        /* \"#utility.yul\":23868:23935   */\n      tag_246\n      jump\t// in\n    tag_492:\n        /* \"#utility.yul\":23861:23935   */\n      swap2\n      pop\n        /* \"#utility.yul\":23944:24037   */\n      tag_493\n        /* \"#utility.yul\":24033:24036   */\n      dup3\n        /* \"#utility.yul\":23944:24037   */\n      tag_277\n      jump\t// in\n    tag_493:\n        /* \"#utility.yul\":24062:24064   */\n      0x20\n        /* \"#utility.yul\":24057:24060   */\n      dup3\n        /* \"#utility.yul\":24053:24065   */\n      add\n        /* \"#utility.yul\":24046:24065   */\n      swap1\n      pop\n        /* \"#utility.yul\":23705:24071   */\n      swap2\n      swap1\n      pop\n      jump\t// out\n        /* \"#utility.yul\":24077:24496   */\n    tag_215:\n        /* \"#utility.yul\":24243:24247   */\n      0x00\n        /* \"#utility.yul\":24281:24283   */\n      0x20\n        /* \"#utility.yul\":24270:24279   */\n      dup3\n        /* \"#utility.yul\":24266:24284   */\n      add\n        /* \"#utility.yul\":24258:24284   */\n      swap1\n      pop\n        /* \"#utility.yul\":24330:24339   */\n      dup2\n        /* \"#utility.yul\":24324:24328   */\n      dup2\n        /* \"#utility.yul\":24320:24340   */\n      sub\n        /* \"#utility.yul\":24316:24317   */\n      0x00\n        /* \"#utility.yul\":24305:24314   */\n      dup4\n        /* \"#utility.yul\":24301:24318   */\n      add\n        /* \"#utility.yul\":24294:24341   */\n      mstore\n        /* \"#utility.yul\":24358:24489   */\n      tag_495\n        /* \"#utility.yul\":24484:24488   */\n      dup2\n        /* \"#utility.yul\":24358:24489   */\n      tag_278\n      jump\t// in\n    tag_495:\n        /* \"#utility.yul\":24350:24489   */\n      swap1\n      pop\n        /* \"#utility.yul\":24077:24496   */\n      swap2\n      swap1\n      pop\n      jump\t// out\n\n    auxdata: 0xa2646970667358221220c897987264a72a63fd8cb7d6433fd0806163fb47da332d00aabb86564ae6d18164736f6c63430008120033\n}\n",
				"bytecode": {
					"linkReferences": {},
					"object": "608060405234801561001057600080fd5b5033600c60006101000a81548173ffffffffffffffffffffffffffffffffffffffff021916908373ffffffffffffffffffffffffffffffffffffffff160217905550613f20806100616000396000f3fe6080604052600436106100a05760003560e01c806391341de31161006457806391341de3146101a45780639283ea63146101cd578063a2f09dfa146101e9578063a87430ba146101f3578063d77799a51461023b578063f3fef3a31461027a576100a7565b80631aa35610146100a957806347e7ef24146100df57806365d6d088146100fb5780636f9fb98a1461013a5780638172aa0a14610165576100a7565b366100a757005b005b3480156100b557600080fd5b506100be6102a3565b6040516100d69c9b9a9998979695949392919061328e565b60405180910390f35b6100f960048036038101906100f491906133c6565b610311565b005b34801561010757600080fd5b50610122600480360381019061011d9190613432565b6108bb565b6040516101319392919061345f565b60405180910390f35b34801561014657600080fd5b5061014f610a04565b60405161015c9190613496565b60405180910390f35b34801561017157600080fd5b5061018c60048036038101906101879190613432565b610a0c565b60405161019b9392919061345f565b60405180910390f35b3480156101b057600080fd5b506101cb60048036038101906101c691906135f7565b610b55565b005b6101e760048036038101906101e29190613653565b611b5b565b005b6101f1612958565b005b3480156101ff57600080fd5b5061021a60048036038101906102159190613432565b612a31565b6040516102329c9b9a9998979695949392919061328e565b60405180910390f35b34801561024757600080fd5b50610262600480360381019061025d9190613432565b612ab1565b6040516102719392919061345f565b60405180910390f35b34801561028657600080fd5b506102a1600480360381019061029c91906133c6565b612bfa565b005b60008060000160009054906101000a900473ffffffffffffffffffffffffffffffffffffffff169080600101549080600201549080600301549080600401549080600501549080600601549080600701549080600801549080600901549080600a01549080600b015490508c565b600073ffffffffffffffffffffffffffffffffffffffff168273ffffffffffffffffffffffffffffffffffffffff1603610380576040517f08c379a000000000000000000000000000000000000000000000000000000000815260040161037790613733565b60405180910390fd5b600081036103c3576040517f08c379a00000000000000000000000000000000000000000000000000000000081526004016103ba9061379f565b60405180910390fd5b80600d60008473ffffffffffffffffffffffffffffffffffffffff1673ffffffffffffffffffffffffffffffffffffffff168152602001908152602001600020600101600082825461041591906137ee565b92505081905550604051806101800160405280600d60008573ffffffffffffffffffffffffffffffffffffffff1673ffffffffffffffffffffffffffffffffffffffff16815260200190815260200160002060000160009054906101000a900473ffffffffffffffffffffffffffffffffffffffff1673ffffffffffffffffffffffffffffffffffffffff168152602001600d60008573ffffffffffffffffffffffffffffffffffffffff1673ffffffffffffffffffffffffffffffffffffffff168152602001908152602001600020600101548152602001600d60008573ffffffffffffffffffffffffffffffffffffffff1673ffffffffffffffffffffffffffffffffffffffff168152602001908152602001600020600201548152602001600d60008573ffffffffffffffffffffffffffffffffffffffff1673ffffffffffffffffffffffffffffffffffffffff168152602001908152602001600020600301548152602001600d60008573ffffffffffffffffffffffffffffffffffffffff1673ffffffffffffffffffffffffffffffffffffffff168152602001908152602001600020600401548152602001600d60008573ffffffffffffffffffffffffffffffffffffffff1673ffffffffffffffffffffffffffffffffffffffff168152602001908152602001600020600501548152602001600d60008573ffffffffffffffffffffffffffffffffffffffff1673ffffffffffffffffffffffffffffffffffffffff168152602001908152602001600020600601548152602001600d60008573ffffffffffffffffffffffffffffffffffffffff1673ffffffffffffffffffffffffffffffffffffffff168152602001908152602001600020600701548152602001600d60008573ffffffffffffffffffffffffffffffffffffffff1673ffffffffffffffffffffffffffffffffffffffff168152602001908152602001600020600801548152602001600d60008573ffffffffffffffffffffffffffffffffffffffff1673ffffffffffffffffffffffffffffffffffffffff168152602001908152602001600020600901548152602001600d60008573ffffffffffffffffffffffffffffffffffffffff1673ffffffffffffffffffffffffffffffffffffffff168152602001908152602001600020600a01548152602001600d60008573ffffffffffffffffffffffffffffffffffffffff1673ffffffffffffffffffffffffffffffffffffffff168152602001908152602001600020600b0154815250600d60008473ffffffffffffffffffffffffffffffffffffffff1673ffffffffffffffffffffffffffffffffffffffff16815260200190815260200160002060008201518160000160006101000a81548173ffffffffffffffffffffffffffffffffffffffff021916908373ffffffffffffffffffffffffffffffffffffffff1602179055506020820151816001015560408201518160020155606082015181600301556080820151816004015560a0820151816005015560c0820151816006015560e082015181600701556101008201518160080155610120820151816009015561014082015181600a015561016082015181600b01559050505050565b60008060008073ffffffffffffffffffffffffffffffffffffffff168473ffffffffffffffffffffffffffffffffffffffff160361092e576040517f08c379a000000000000000000000000000000000000000000000000000000000815260040161092590613733565b60405180910390fd5b600d60008573ffffffffffffffffffffffffffffffffffffffff1673ffffffffffffffffffffffffffffffffffffffff16815260200190815260200160002060020154600d60008673ffffffffffffffffffffffffffffffffffffffff1673ffffffffffffffffffffffffffffffffffffffff16815260200190815260200160002060050154600d60008773ffffffffffffffffffffffffffffffffffffffff1673ffffffffffffffffffffffffffffffffffffffff168152602001908152602001600020600801549250925092509193909250565b600047905090565b60008060008073ffffffffffffffffffffffffffffffffffffffff168473ffffffffffffffffffffffffffffffffffffffff1603610a7f576040517f08c379a0000000000000000000000000000000000000000000000000000000008152600401610a7690613733565b60405180910390fd5b600d60008573ffffffffffffffffffffffffffffffffffffffff1673ffffffffffffffffffffffffffffffffffffffff16815260200190815260200160002060040154600d60008673ffffffffffffffffffffffffffffffffffffffff1673ffffffffffffffffffffffffffffffffffffffff16815260200190815260200160002060070154600d60008773ffffffffffffffffffffffffffffffffffffffff1673ffffffffffffffffffffffffffffffffffffffff168152602001908152602001600020600a01549250925092509193909250565b604051602001610b6490613879565b6040516020818303038152906040528051906020012081604051602001610b8b91906138f4565b604051602081830303815290604052805190602001201480610bf65750604051602001610bb790613957565b6040516020818303038152906040528051906020012081604051602001610bde91906138f4565b60405160208183030381529060405280519060200120145b80610c4a5750604051602001610c0b906139b8565b6040516020818303038152906040528051906020012081604051602001610c3291906138f4565b60405160208183030381529060405280519060200120145b610c89576040517f08c379a0000000000000000000000000000000000000000000000000000000008152600401610c8090613a19565b60405180910390fd5b600073ffffffffffffffffffffffffffffffffffffffff168273ffffffffffffffffffffffffffffffffffffffff1603610cf8576040517f08c379a0000000000000000000000000000000000000000000000000000000008152600401610cef90613733565b60405180910390fd5b604051602001610d0790613879565b6040516020818303038152906040528051906020012081604051602001610d2e91906138f4565b604051602081830303815290604052805190602001200361103a5762278d00600d60008473ffffffffffffffffffffffffffffffffffffffff1673ffffffffffffffffffffffffffffffffffffffff168152602001908152602001600020600b015442610d9b9190613a39565b11610ddb576040517f08c379a0000000000000000000000000000000000000000000000000000000008152600401610dd290613adf565b60405180910390fd5b42600d60008473ffffffffffffffffffffffffffffffffffffffff1673ffffffffffffffffffffffffffffffffffffffff168152602001908152602001600020600b01819055506000600d60008473ffffffffffffffffffffffffffffffffffffffff1673ffffffffffffffffffffffffffffffffffffffff1681526020019081526020016000206008015411610ea7576040517f08c379a0000000000000000000000000000000000000000000000000000000008152600401610e9e90613b4b565b60405180910390fd5b600d60008373ffffffffffffffffffffffffffffffffffffffff1673ffffffffffffffffffffffffffffffffffffffff16815260200190815260200160002060050154600d60008473ffffffffffffffffffffffffffffffffffffffff1673ffffffffffffffffffffffffffffffffffffffff1681526020019081526020016000206001016000828254610f3b9190613a39565b92505081905550600d60008373ffffffffffffffffffffffffffffffffffffffff1673ffffffffffffffffffffffffffffffffffffffff16815260200190815260200160002060050154600d60008473ffffffffffffffffffffffffffffffffffffffff1673ffffffffffffffffffffffffffffffffffffffff1681526020019081526020016000206002016000828254610fd69190613a39565b92505081905550600d60008373ffffffffffffffffffffffffffffffffffffffff1673ffffffffffffffffffffffffffffffffffffffff168152602001908152602001600020600801600081548092919061103090613b6b565b91905055506116bc565b60405160200161104990613957565b604051602081830303815290604052805190602001208160405160200161107091906138f4565b604051602081830303815290604052805190602001200361137c5762278d00600d60008473ffffffffffffffffffffffffffffffffffffffff1673ffffffffffffffffffffffffffffffffffffffff168152602001908152602001600020600b0154426110dd9190613a39565b1161111d576040517f08c379a000000000000000000000000000000000000000000000000000000000815260040161111490613adf565b60405180910390fd5b42600d60008473ffffffffffffffffffffffffffffffffffffffff1673ffffffffffffffffffffffffffffffffffffffff168152602001908152602001600020600b01819055506000600d60008473ffffffffffffffffffffffffffffffffffffffff1673ffffffffffffffffffffffffffffffffffffffff16815260200190815260200160002060090154116111e9576040517f08c379a00000000000000000000000000000000000000000000000000000000081526004016111e090613b4b565b60405180910390fd5b600d60008373ffffffffffffffffffffffffffffffffffffffff1673ffffffffffffffffffffffffffffffffffffffff16815260200190815260200160002060060154600d60008473ffffffffffffffffffffffffffffffffffffffff1673ffffffffffffffffffffffffffffffffffffffff168152602001908152602001600020600101600082825461127d9190613a39565b92505081905550600d60008373ffffffffffffffffffffffffffffffffffffffff1673ffffffffffffffffffffffffffffffffffffffff16815260200190815260200160002060060154600d60008473ffffffffffffffffffffffffffffffffffffffff1673ffffffffffffffffffffffffffffffffffffffff16815260200190815260200160002060030160008282546113189190613a39565b92505081905550600d60008373ffffffffffffffffffffffffffffffffffffffff1673ffffffffffffffffffffffffffffffffffffffff168152602001908152602001600020600901600081548092919061137290613b6b565b91905055506116bb565b60405160200161138b906139b8565b60405160208183030381529060405280519060200120816040516020016113b291906138f4565b60405160208183030381529060405280519060200120036116ba5762278d00600d60008473ffffffffffffffffffffffffffffffffffffffff1673ffffffffffffffffffffffffffffffffffffffff168152602001908152602001600020600b01544261141f9190613a39565b1161145f576040517f08c379a000000000000000000000000000000000000000000000000000000000815260040161145690613adf565b60405180910390fd5b42600d60008473ffffffffffffffffffffffffffffffffffffffff1673ffffffffffffffffffffffffffffffffffffffff168152602001908152602001600020600b01819055506000600d60008473ffffffffffffffffffffffffffffffffffffffff1673ffffffffffffffffffffffffffffffffffffffff168152602001908152602001600020600a01541161152b576040517f08c379a000000000000000000000000000000000000000000000000000000000815260040161152290613b4b565b60405180910390fd5b600d60008373ffffffffffffffffffffffffffffffffffffffff1673ffffffffffffffffffffffffffffffffffffffff16815260200190815260200160002060070154600d60008473ffffffffffffffffffffffffffffffffffffffff1673ffffffffffffffffffffffffffffffffffffffff16815260200190815260200160002060010160008282546115bf9190613a39565b92505081905550600d60008373ffffffffffffffffffffffffffffffffffffffff1673ffffffffffffffffffffffffffffffffffffffff16815260200190815260200160002060070154600d60008473ffffffffffffffffffffffffffffffffffffffff1673ffffffffffffffffffffffffffffffffffffffff168152602001908152602001600020600401600082825461165a9190613a39565b92505081905550600d60008373ffffffffffffffffffffffffffffffffffffffff1673ffffffffffffffffffffffffffffffffffffffff168152602001908152602001600020600a0160008154809291906116b490613b6b565b91905055505b5b5b604051806101800160405280600d60008573ffffffffffffffffffffffffffffffffffffffff1673ffffffffffffffffffffffffffffffffffffffff16815260200190815260200160002060000160009054906101000a900473ffffffffffffffffffffffffffffffffffffffff1673ffffffffffffffffffffffffffffffffffffffff168152602001600d60008573ffffffffffffffffffffffffffffffffffffffff1673ffffffffffffffffffffffffffffffffffffffff168152602001908152602001600020600101548152602001600d60008573ffffffffffffffffffffffffffffffffffffffff1673ffffffffffffffffffffffffffffffffffffffff168152602001908152602001600020600201548152602001600d60008573ffffffffffffffffffffffffffffffffffffffff1673ffffffffffffffffffffffffffffffffffffffff168152602001908152602001600020600301548152602001600d60008573ffffffffffffffffffffffffffffffffffffffff1673ffffffffffffffffffffffffffffffffffffffff168152602001908152602001600020600401548152602001600d60008573ffffffffffffffffffffffffffffffffffffffff1673ffffffffffffffffffffffffffffffffffffffff168152602001908152602001600020600501548152602001600d60008573ffffffffffffffffffffffffffffffffffffffff1673ffffffffffffffffffffffffffffffffffffffff168152602001908152602001600020600601548152602001600d60008573ffffffffffffffffffffffffffffffffffffffff1673ffffffffffffffffffffffffffffffffffffffff168152602001908152602001600020600701548152602001600d60008573ffffffffffffffffffffffffffffffffffffffff1673ffffffffffffffffffffffffffffffffffffffff168152602001908152602001600020600801548152602001600d60008573ffffffffffffffffffffffffffffffffffffffff1673ffffffffffffffffffffffffffffffffffffffff168152602001908152602001600020600901548152602001600d60008573ffffffffffffffffffffffffffffffffffffffff1673ffffffffffffffffffffffffffffffffffffffff168152602001908152602001600020600a01548152602001600d60008573ffffffffffffffffffffffffffffffffffffffff1673ffffffffffffffffffffffffffffffffffffffff168152602001908152602001600020600b0154815250600d60008473ffffffffffffffffffffffffffffffffffffffff1673ffffffffffffffffffffffffffffffffffffffff16815260200190815260200160002060008201518160000160006101000a81548173ffffffffffffffffffffffffffffffffffffffff021916908373ffffffffffffffffffffffffffffffffffffffff1602179055506020820151816001015560408201518160020155606082015181600301556080820151816004015560a0820151816005015560c0820151816006015560e082015181600701556101008201518160080155610120820151816009015561014082015181600a015561016082015181600b01559050505050565b600073ffffffffffffffffffffffffffffffffffffffff168473ffffffffffffffffffffffffffffffffffffffff1603611bca576040517f08c379a0000000000000000000000000000000000000000000000000000000008152600401611bc190613733565b60405180910390fd5b60008303611c0d576040517f08c379a0000000000000000000000000000000000000000000000000000000008152600401611c049061379f565b60405180910390fd5b8373ffffffffffffffffffffffffffffffffffffffff166108fc849081150290604051600060405180830381858888f19350505050158015611c53573d6000803e3d6000fd5b5082600d60008673ffffffffffffffffffffffffffffffffffffffff1673ffffffffffffffffffffffffffffffffffffffff1681526020019081526020016000206001016000828254611ca691906137ee565b92505081905550604051602001611cbc90613879565b6040516020818303038152906040528051906020012081604051602001611ce391906138f4565b604051602081830303815290604052805190602001201480611d4e5750604051602001611d0f90613957565b6040516020818303038152906040528051906020012081604051602001611d3691906138f4565b60405160208183030381529060405280519060200120145b80611da25750604051602001611d63906139b8565b6040516020818303038152906040528051906020012081604051602001611d8a91906138f4565b60405160208183030381529060405280519060200120145b611de1576040517f08c379a0000000000000000000000000000000000000000000000000000000008152600401611dd890613a19565b60405180910390fd5b604051602001611df090613879565b6040516020818303038152906040528051906020012081604051602001611e1791906138f4565b6040516020818303038152906040528051906020012003612025576001600d60008673ffffffffffffffffffffffffffffffffffffffff1673ffffffffffffffffffffffffffffffffffffffff1681526020019081526020016000206002015410611eb7576040517f08c379a0000000000000000000000000000000000000000000000000000000008152600401611eae90613c06565b60405180910390fd5b60006104b083600886611eca9190613c26565b611ed49190613c26565b611ede9190613c97565b90508084611eec91906137ee565b600d60008773ffffffffffffffffffffffffffffffffffffffff1673ffffffffffffffffffffffffffffffffffffffff1681526020019081526020016000206002018190555082600d60008773ffffffffffffffffffffffffffffffffffffffff1673ffffffffffffffffffffffffffffffffffffffff16815260200190815260200160002060020154611f809190613c97565b600d60008773ffffffffffffffffffffffffffffffffffffffff1673ffffffffffffffffffffffffffffffffffffffff1681526020019081526020016000206005018190555082600d60008773ffffffffffffffffffffffffffffffffffffffff1673ffffffffffffffffffffffffffffffffffffffff168152602001908152602001600020600801600082825461201891906137ee565b92505081905550506124b7565b60405160200161203490613957565b604051602081830303815290604052805190602001208160405160200161205b91906138f4565b604051602081830303815290604052805190602001200361226f576001600d60008673ffffffffffffffffffffffffffffffffffffffff1673ffffffffffffffffffffffffffffffffffffffff16815260200190815260200160002060030154106120fb576040517f08c379a00000000000000000000000000000000000000000000000000000000081526004016120f290613d3a565b60405180910390fd5b60006104b08360068661210e9190613c26565b6121189190613c26565b6121229190613c97565b90506000818561213291906137ee565b905080600d60008873ffffffffffffffffffffffffffffffffffffffff1673ffffffffffffffffffffffffffffffffffffffff1681526020019081526020016000206003018190555083600d60008873ffffffffffffffffffffffffffffffffffffffff1673ffffffffffffffffffffffffffffffffffffffff168152602001908152602001600020600301546121c99190613c97565b600d60008873ffffffffffffffffffffffffffffffffffffffff1673ffffffffffffffffffffffffffffffffffffffff1681526020019081526020016000206006018190555083600d60008873ffffffffffffffffffffffffffffffffffffffff1673ffffffffffffffffffffffffffffffffffffffff168152602001908152602001600020600901600082825461226191906137ee565b9250508190555050506124b6565b60405160200161227e906139b8565b60405160208183030381529060405280519060200120816040516020016122a591906138f4565b60405160208183030381529060405280519060200120036124b5576001600d60008673ffffffffffffffffffffffffffffffffffffffff1673ffffffffffffffffffffffffffffffffffffffff1681526020019081526020016000206004015410612345576040517f08c379a000000000000000000000000000000000000000000000000000000000815260040161233c90613dcc565b60405180910390fd5b60006104b083600a866123589190613c26565b6123629190613c26565b61236c9190613c97565b90506000818561237c91906137ee565b905080600d60008873ffffffffffffffffffffffffffffffffffffffff1673ffffffffffffffffffffffffffffffffffffffff1681526020019081526020016000206004018190555083600d60008873ffffffffffffffffffffffffffffffffffffffff1673ffffffffffffffffffffffffffffffffffffffff168152602001908152602001600020600401546124139190613c97565b600d60008873ffffffffffffffffffffffffffffffffffffffff1673ffffffffffffffffffffffffffffffffffffffff1681526020019081526020016000206007018190555083600d60008873ffffffffffffffffffffffffffffffffffffffff1673ffffffffffffffffffffffffffffffffffffffff168152602001908152602001600020600a0160008282546124ab91906137ee565b9250508190555050505b5b5b604051806101800160405280600d60008773ffffffffffffffffffffffffffffffffffffffff1673ffffffffffffffffffffffffffffffffffffffff16815260200190815260200160002060000160009054906101000a900473ffffffffffffffffffffffffffffffffffffffff1673ffffffffffffffffffffffffffffffffffffffff168152602001600d60008773ffffffffffffffffffffffffffffffffffffffff1673ffffffffffffffffffffffffffffffffffffffff168152602001908152602001600020600101548152602001600d60008773ffffffffffffffffffffffffffffffffffffffff1673ffffffffffffffffffffffffffffffffffffffff168152602001908152602001600020600201548152602001600d60008773ffffffffffffffffffffffffffffffffffffffff1673ffffffffffffffffffffffffffffffffffffffff168152602001908152602001600020600301548152602001600d60008773ffffffffffffffffffffffffffffffffffffffff1673ffffffffffffffffffffffffffffffffffffffff168152602001908152602001600020600401548152602001600d60008773ffffffffffffffffffffffffffffffffffffffff1673ffffffffffffffffffffffffffffffffffffffff168152602001908152602001600020600501548152602001600d60008773ffffffffffffffffffffffffffffffffffffffff1673ffffffffffffffffffffffffffffffffffffffff168152602001908152602001600020600601548152602001600d60008773ffffffffffffffffffffffffffffffffffffffff1673ffffffffffffffffffffffffffffffffffffffff168152602001908152602001600020600701548152602001600d60008773ffffffffffffffffffffffffffffffffffffffff1673ffffffffffffffffffffffffffffffffffffffff168152602001908152602001600020600801548152602001600d60008773ffffffffffffffffffffffffffffffffffffffff1673ffffffffffffffffffffffffffffffffffffffff168152602001908152602001600020600901548152602001600d60008773ffffffffffffffffffffffffffffffffffffffff1673ffffffffffffffffffffffffffffffffffffffff168152602001908152602001600020600a01548152602001600d60008773ffffffffffffffffffffffffffffffffffffffff1673ffffffffffffffffffffffffffffffffffffffff168152602001908152602001600020600b0154815250600d60008673ffffffffffffffffffffffffffffffffffffffff1673ffffffffffffffffffffffffffffffffffffffff16815260200190815260200160002060008201518160000160006101000a81548173ffffffffffffffffffffffffffffffffffffffff021916908373ffffffffffffffffffffffffffffffffffffffff1602179055506020820151816001015560408201518160020155606082015181600301556080820151816004015560a0820151816005015560c0820151816006015560e082015181600701556101008201518160080155610120820151816009015561014082015181600a015561016082015181600b015590505050505050565b600c60009054906101000a900473ffffffffffffffffffffffffffffffffffffffff1673ffffffffffffffffffffffffffffffffffffffff163373ffffffffffffffffffffffffffffffffffffffff16146129e8576040517f08c379a00000000000000000000000000000000000000000000000000000000081526004016129df90613e5e565b60405180910390fd5b3073ffffffffffffffffffffffffffffffffffffffff166108fc349081150290604051600060405180830381858888f19350505050158015612a2e573d6000803e3d6000fd5b50565b600d6020528060005260406000206000915090508060000160009054906101000a900473ffffffffffffffffffffffffffffffffffffffff169080600101549080600201549080600301549080600401549080600501549080600601549080600701549080600801549080600901549080600a01549080600b015490508c565b60008060008073ffffffffffffffffffffffffffffffffffffffff168473ffffffffffffffffffffffffffffffffffffffff1603612b24576040517f08c379a0000000000000000000000000000000000000000000000000000000008152600401612b1b90613733565b60405180910390fd5b600d60008573ffffffffffffffffffffffffffffffffffffffff1673ffffffffffffffffffffffffffffffffffffffff16815260200190815260200160002060030154600d60008673ffffffffffffffffffffffffffffffffffffffff1673ffffffffffffffffffffffffffffffffffffffff16815260200190815260200160002060060154600d60008773ffffffffffffffffffffffffffffffffffffffff1673ffffffffffffffffffffffffffffffffffffffff168152602001908152602001600020600901549250925092509193909250565b600081118015612c4b5750600d60008373ffffffffffffffffffffffffffffffffffffffff1673ffffffffffffffffffffffffffffffffffffffff1681526020019081526020016000206001015481105b612c8a576040517f08c379a0000000000000000000000000000000000000000000000000000000008152600401612c8190613eca565b60405180910390fd5b600073ffffffffffffffffffffffffffffffffffffffff168273ffffffffffffffffffffffffffffffffffffffff1603612cf9576040517f08c379a0000000000000000000000000000000000000000000000000000000008152600401612cf090613733565b60405180910390fd5b60008103612d3c576040517f08c379a0000000000000000000000000000000000000000000000000000000008152600401612d339061379f565b60405180910390fd5b80600d60008473ffffffffffffffffffffffffffffffffffffffff1673ffffffffffffffffffffffffffffffffffffffff1681526020019081526020016000206001016000828254612d8e9190613a39565b92505081905550604051806101800160405280600d60008573ffffffffffffffffffffffffffffffffffffffff1673ffffffffffffffffffffffffffffffffffffffff16815260200190815260200160002060000160009054906101000a900473ffffffffffffffffffffffffffffffffffffffff1673ffffffffffffffffffffffffffffffffffffffff168152602001600d60008573ffffffffffffffffffffffffffffffffffffffff1673ffffffffffffffffffffffffffffffffffffffff168152602001908152602001600020600101548152602001600d60008573ffffffffffffffffffffffffffffffffffffffff1673ffffffffffffffffffffffffffffffffffffffff168152602001908152602001600020600201548152602001600d60008573ffffffffffffffffffffffffffffffffffffffff1673ffffffffffffffffffffffffffffffffffffffff168152602001908152602001600020600301548152602001600d60008573ffffffffffffffffffffffffffffffffffffffff1673ffffffffffffffffffffffffffffffffffffffff168152602001908152602001600020600401548152602001600d60008573ffffffffffffffffffffffffffffffffffffffff1673ffffffffffffffffffffffffffffffffffffffff168152602001908152602001600020600501548152602001600d60008573ffffffffffffffffffffffffffffffffffffffff1673ffffffffffffffffffffffffffffffffffffffff168152602001908152602001600020600601548152602001600d60008573ffffffffffffffffffffffffffffffffffffffff1673ffffffffffffffffffffffffffffffffffffffff168152602001908152602001600020600701548152602001600d60008573ffffffffffffffffffffffffffffffffffffffff1673ffffffffffffffffffffffffffffffffffffffff168152602001908152602001600020600801548152602001600d60008573ffffffffffffffffffffffffffffffffffffffff1673ffffffffffffffffffffffffffffffffffffffff168152602001908152602001600020600901548152602001600d60008573ffffffffffffffffffffffffffffffffffffffff1673ffffffffffffffffffffffffffffffffffffffff168152602001908152602001600020600a01548152602001600d60008573ffffffffffffffffffffffffffffffffffffffff1673ffffffffffffffffffffffffffffffffffffffff168152602001908152602001600020600b0154815250600d60008473ffffffffffffffffffffffffffffffffffffffff1673ffffffffffffffffffffffffffffffffffffffff16815260200190815260200160002060008201518160000160006101000a81548173ffffffffffffffffffffffffffffffffffffffff021916908373ffffffffffffffffffffffffffffffffffffffff1602179055506020820151816001015560408201518160020155606082015181600301556080820151816004015560a0820151816005015560c0820151816006015560e082015181600701556101008201518160080155610120820151816009015561014082015181600a015561016082015181600b01559050505050565b600073ffffffffffffffffffffffffffffffffffffffff82169050919050565b600061325f82613234565b9050919050565b61326f81613254565b82525050565b6000819050919050565b61328881613275565b82525050565b6000610180820190506132a4600083018f613266565b6132b1602083018e61327f565b6132be604083018d61327f565b6132cb606083018c61327f565b6132d8608083018b61327f565b6132e560a083018a61327f565b6132f260c083018961327f565b6132ff60e083018861327f565b61330d61010083018761327f565b61331b61012083018661327f565b61332961014083018561327f565b61333761016083018461327f565b9d9c50505050505050505050505050565b6000604051905090565b600080fd5b600080fd5b600061336782613234565b9050919050565b6133778161335c565b811461338257600080fd5b50565b6000813590506133948161336e565b92915050565b6133a381613275565b81146133ae57600080fd5b50565b6000813590506133c08161339a565b92915050565b600080604083850312156133dd576133dc613352565b5b60006133eb85828601613385565b92505060206133fc858286016133b1565b9150509250929050565b61340f81613254565b811461341a57600080fd5b50565b60008135905061342c81613406565b92915050565b60006020828403121561344857613447613352565b5b60006134568482850161341d565b91505092915050565b6000606082019050613474600083018661327f565b613481602083018561327f565b61348e604083018461327f565b949350505050565b60006020820190506134ab600083018461327f565b92915050565b600080fd5b600080fd5b6000601f19601f8301169050919050565b7f4e487b7100000000000000000000000000000000000000000000000000000000600052604160045260246000fd5b613504826134bb565b810181811067ffffffffffffffff82111715613523576135226134cc565b5b80604052505050565b6000613536613348565b905061354282826134fb565b919050565b600067ffffffffffffffff821115613562576135616134cc565b5b61356b826134bb565b9050602081019050919050565b82818337600083830152505050565b600061359a61359584613547565b61352c565b9050828152602081018484840111156135b6576135b56134b6565b5b6135c1848285613578565b509392505050565b600082601f8301126135de576135dd6134b1565b5b81356135ee848260208601613587565b91505092915050565b6000806040838503121561360e5761360d613352565b5b600061361c85828601613385565b925050602083013567ffffffffffffffff81111561363d5761363c613357565b5b613649858286016135c9565b9150509250929050565b6000806000806080858703121561366d5761366c613352565b5b600061367b87828801613385565b945050602061368c878288016133b1565b935050604061369d878288016133b1565b925050606085013567ffffffffffffffff8111156136be576136bd613357565b5b6136ca878288016135c9565b91505092959194509250565b600082825260208201905092915050565b7f7a65726f2061646472657373206973206e6f7420616c6c6f7765640000000000600082015250565b600061371d601b836136d6565b9150613728826136e7565b602082019050919050565b6000602082019050818103600083015261374c81613710565b9050919050565b7f706c656173652073656e6420736f6d6520616d6f756e74000000000000000000600082015250565b60006137896017836136d6565b915061379482613753565b602082019050919050565b600060208201905081810360008301526137b88161377c565b9050919050565b7f4e487b7100000000000000000000000000000000000000000000000000000000600052601160045260246000fd5b60006137f982613275565b915061380483613275565b925082820190508082111561381c5761381b6137bf565b5b92915050565b600081905092915050565b7f6361720000000000000000000000000000000000000000000000000000000000600082015250565b6000613863600383613822565b915061386e8261382d565b600382019050919050565b600061388482613856565b9150819050919050565b600081519050919050565b60005b838110156138b757808201518184015260208101905061389c565b60008484015250505050565b60006138ce8261388e565b6138d88185613822565b93506138e8818560208601613899565b80840191505092915050565b600061390082846138c3565b915081905092915050565b7f686f6d6500000000000000000000000000000000000000000000000000000000600082015250565b6000613941600483613822565b915061394c8261390b565b600482019050919050565b600061396282613934565b9150819050919050565b7f706572736f6e616c000000000000000000000000000000000000000000000000600082015250565b60006139a2600883613822565b91506139ad8261396c565b600882019050919050565b60006139c382613995565b9150819050919050565b7f696e76616c6964206c6f616e2074797065000000000000000000000000000000600082015250565b6000613a036011836136d6565b9150613a0e826139cd565b602082019050919050565b60006020820190508181036000830152613a32816139f6565b9050919050565b6000613a4482613275565b9150613a4f83613275565b9250828203905081811115613a6757613a666137bf565b5b92915050565b7f4e65656420746f20776169742031206d6f6e746820616674657220706179696e60008201527f67206c61737420454d4900000000000000000000000000000000000000000000602082015250565b6000613ac9602a836136d6565b9150613ad482613a6d565b604082019050919050565b60006020820190508181036000830152613af881613abc565b9050919050565b7f696e76616c696420656d6920616d6f756e740000000000000000000000000000600082015250565b6000613b356012836136d6565b9150613b4082613aff565b602082019050919050565b60006020820190508181036000830152613b6481613b28565b9050919050565b6000613b7682613275565b915060008203613b8957613b886137bf565b5b600182039050919050565b7f796f752068617665206f6e6520636172206c6f616e2120796f752063616e277460008201527f2074616b6520616e6f7468657221000000000000000000000000000000000000602082015250565b6000613bf0602e836136d6565b9150613bfb82613b94565b604082019050919050565b60006020820190508181036000830152613c1f81613be3565b9050919050565b6000613c3182613275565b9150613c3c83613275565b9250828202613c4a81613275565b91508282048414831517613c6157613c606137bf565b5b5092915050565b7f4e487b7100000000000000000000000000000000000000000000000000000000600052601260045260246000fd5b6000613ca282613275565b9150613cad83613275565b925082613cbd57613cbc613c68565b5b828204905092915050565b7f796f75206861766520616c7265616479206f6e6520686f6d65206c6f616e212060008201527f796f752063616e27742074616b6520616e6f7468657221000000000000000000602082015250565b6000613d246037836136d6565b9150613d2f82613cc8565b604082019050919050565b60006020820190508181036000830152613d5381613d17565b9050919050565b7f796f752068617665206f6e6520706572736f6e616c206c6f616e2120796f752060008201527f63616e27742074616b6520616e6f746865722100000000000000000000000000602082015250565b6000613db66033836136d6565b9150613dc182613d5a565b604082019050919050565b60006020820190508181036000830152613de581613da9565b9050919050565b7f596f75277265206e6f742074686520736d61727420636f6e747261637420616460008201527f6d696e2100000000000000000000000000000000000000000000000000000000602082015250565b6000613e486024836136d6565b9150613e5382613dec565b604082019050919050565b60006020820190508181036000830152613e7781613e3b565b9050919050565b7f696e76616c696420616d6f756e74000000000000000000000000000000000000600082015250565b6000613eb4600e836136d6565b9150613ebf82613e7e565b602082019050919050565b60006020820190508181036000830152613ee381613ea7565b905091905056fea2646970667358221220c897987264a72a63fd8cb7d6433fd0806163fb47da332d00aabb86564ae6d18164736f6c63430008120033",
					"opcodes": "PUSH1 0x80 PUSH1 0x40 MSTORE CALLVALUE DUP1 ISZERO PUSH2 0x10 JUMPI PUSH1 0x0 DUP1 REVERT JUMPDEST POP CALLER PUSH1 0xC PUSH1 0x0 PUSH2 0x100 EXP DUP2 SLOAD DUP2 PUSH20 0xFFFFFFFFFFFFFFFFFFFFFFFFFFFFFFFFFFFFFFFF MUL NOT AND SWAP1 DUP4 PUSH20 0xFFFFFFFFFFFFFFFFFFFFFFFFFFFFFFFFFFFFFFFF AND MUL OR SWAP1 SSTORE POP PUSH2 0x3F20 DUP1 PUSH2 0x61 PUSH1 0x0 CODECOPY PUSH1 0x0 RETURN INVALID PUSH1 0x80 PUSH1 0x40 MSTORE PUSH1 0x4 CALLDATASIZE LT PUSH2 0xA0 JUMPI PUSH1 0x0 CALLDATALOAD PUSH1 0xE0 SHR DUP1 PUSH4 0x91341DE3 GT PUSH2 0x64 JUMPI DUP1 PUSH4 0x91341DE3 EQ PUSH2 0x1A4 JUMPI DUP1 PUSH4 0x9283EA63 EQ PUSH2 0x1CD JUMPI DUP1 PUSH4 0xA2F09DFA EQ PUSH2 0x1E9 JUMPI DUP1 PUSH4 0xA87430BA EQ PUSH2 0x1F3 JUMPI DUP1 PUSH4 0xD77799A5 EQ PUSH2 0x23B JUMPI DUP1 PUSH4 0xF3FEF3A3 EQ PUSH2 0x27A JUMPI PUSH2 0xA7 JUMP JUMPDEST DUP1 PUSH4 0x1AA35610 EQ PUSH2 0xA9 JUMPI DUP1 PUSH4 0x47E7EF24 EQ PUSH2 0xDF JUMPI DUP1 PUSH4 0x65D6D088 EQ PUSH2 0xFB JUMPI DUP1 PUSH4 0x6F9FB98A EQ PUSH2 0x13A JUMPI DUP1 PUSH4 0x8172AA0A EQ PUSH2 0x165 JUMPI PUSH2 0xA7 JUMP JUMPDEST CALLDATASIZE PUSH2 0xA7 JUMPI STOP JUMPDEST STOP JUMPDEST CALLVALUE DUP1 ISZERO PUSH2 0xB5 JUMPI PUSH1 0x0 DUP1 REVERT JUMPDEST POP PUSH2 0xBE PUSH2 0x2A3 JUMP JUMPDEST PUSH1 0x40 MLOAD PUSH2 0xD6 SWAP13 SWAP12 SWAP11 SWAP10 SWAP9 SWAP8 SWAP7 SWAP6 SWAP5 SWAP4 SWAP3 SWAP2 SWAP1 PUSH2 0x328E JUMP JUMPDEST PUSH1 0x40 MLOAD DUP1 SWAP2 SUB SWAP1 RETURN JUMPDEST PUSH2 0xF9 PUSH1 0x4 DUP1 CALLDATASIZE SUB DUP2 ADD SWAP1 PUSH2 0xF4 SWAP2 SWAP1 PUSH2 0x33C6 JUMP JUMPDEST PUSH2 0x311 JUMP JUMPDEST STOP JUMPDEST CALLVALUE DUP1 ISZERO PUSH2 0x107 JUMPI PUSH1 0x0 DUP1 REVERT JUMPDEST POP PUSH2 0x122 PUSH1 0x4 DUP1 CALLDATASIZE SUB DUP2 ADD SWAP1 PUSH2 0x11D SWAP2 SWAP1 PUSH2 0x3432 JUMP JUMPDEST PUSH2 0x8BB JUMP JUMPDEST PUSH1 0x40 MLOAD PUSH2 0x131 SWAP4 SWAP3 SWAP2 SWAP1 PUSH2 0x345F JUMP JUMPDEST PUSH1 0x40 MLOAD DUP1 SWAP2 SUB SWAP1 RETURN JUMPDEST CALLVALUE DUP1 ISZERO PUSH2 0x146 JUMPI PUSH1 0x0 DUP1 REVERT JUMPDEST POP PUSH2 0x14F PUSH2 0xA04 JUMP JUMPDEST PUSH1 0x40 MLOAD PUSH2 0x15C SWAP2 SWAP1 PUSH2 0x3496 JUMP JUMPDEST PUSH1 0x40 MLOAD DUP1 SWAP2 SUB SWAP1 RETURN JUMPDEST CALLVALUE DUP1 ISZERO PUSH2 0x171 JUMPI PUSH1 0x0 DUP1 REVERT JUMPDEST POP PUSH2 0x18C PUSH1 0x4 DUP1 CALLDATASIZE SUB DUP2 ADD SWAP1 PUSH2 0x187 SWAP2 SWAP1 PUSH2 0x3432 JUMP JUMPDEST PUSH2 0xA0C JUMP JUMPDEST PUSH1 0x40 MLOAD PUSH2 0x19B SWAP4 SWAP3 SWAP2 SWAP1 PUSH2 0x345F JUMP JUMPDEST PUSH1 0x40 MLOAD DUP1 SWAP2 SUB SWAP1 RETURN JUMPDEST CALLVALUE DUP1 ISZERO PUSH2 0x1B0 JUMPI PUSH1 0x0 DUP1 REVERT JUMPDEST POP PUSH2 0x1CB PUSH1 0x4 DUP1 CALLDATASIZE SUB DUP2 ADD SWAP1 PUSH2 0x1C6 SWAP2 SWAP1 PUSH2 0x35F7 JUMP JUMPDEST PUSH2 0xB55 JUMP JUMPDEST STOP JUMPDEST PUSH2 0x1E7 PUSH1 0x4 DUP1 CALLDATASIZE SUB DUP2 ADD SWAP1 PUSH2 0x1E2 SWAP2 SWAP1 PUSH2 0x3653 JUMP JUMPDEST PUSH2 0x1B5B JUMP JUMPDEST STOP JUMPDEST PUSH2 0x1F1 PUSH2 0x2958 JUMP JUMPDEST STOP JUMPDEST CALLVALUE DUP1 ISZERO PUSH2 0x1FF JUMPI PUSH1 0x0 DUP1 REVERT JUMPDEST POP PUSH2 0x21A PUSH1 0x4 DUP1 CALLDATASIZE SUB DUP2 ADD SWAP1 PUSH2 0x215 SWAP2 SWAP1 PUSH2 0x3432 JUMP JUMPDEST PUSH2 0x2A31 JUMP JUMPDEST PUSH1 0x40 MLOAD PUSH2 0x232 SWAP13 SWAP12 SWAP11 SWAP10 SWAP9 SWAP8 SWAP7 SWAP6 SWAP5 SWAP4 SWAP3 SWAP2 SWAP1 PUSH2 0x328E JUMP JUMPDEST PUSH1 0x40 MLOAD DUP1 SWAP2 SUB SWAP1 RETURN JUMPDEST CALLVALUE DUP1 ISZERO PUSH2 0x247 JUMPI PUSH1 0x0 DUP1 REVERT JUMPDEST POP PUSH2 0x262 PUSH1 0x4 DUP1 CALLDATASIZE SUB DUP2 ADD SWAP1 PUSH2 0x25D SWAP2 SWAP1 PUSH2 0x3432 JUMP JUMPDEST PUSH2 0x2AB1 JUMP JUMPDEST PUSH1 0x40 MLOAD PUSH2 0x271 SWAP4 SWAP3 SWAP2 SWAP1 PUSH2 0x345F JUMP JUMPDEST PUSH1 0x40 MLOAD DUP1 SWAP2 SUB SWAP1 RETURN JUMPDEST CALLVALUE DUP1 ISZERO PUSH2 0x286 JUMPI PUSH1 0x0 DUP1 REVERT JUMPDEST POP PUSH2 0x2A1 PUSH1 0x4 DUP1 CALLDATASIZE SUB DUP2 ADD SWAP1 PUSH2 0x29C SWAP2 SWAP1 PUSH2 0x33C6 JUMP JUMPDEST PUSH2 0x2BFA JUMP JUMPDEST STOP JUMPDEST PUSH1 0x0 DUP1 PUSH1 0x0 ADD PUSH1 0x0 SWAP1 SLOAD SWAP1 PUSH2 0x100 EXP SWAP1 DIV PUSH20 0xFFFFFFFFFFFFFFFFFFFFFFFFFFFFFFFFFFFFFFFF AND SWAP1 DUP1 PUSH1 0x1 ADD SLOAD SWAP1 DUP1 PUSH1 0x2 ADD SLOAD SWAP1 DUP1 PUSH1 0x3 ADD SLOAD SWAP1 DUP1 PUSH1 0x4 ADD SLOAD SWAP1 DUP1 PUSH1 0x5 ADD SLOAD SWAP1 DUP1 PUSH1 0x6 ADD SLOAD SWAP1 DUP1 PUSH1 0x7 ADD SLOAD SWAP1 DUP1 PUSH1 0x8 ADD SLOAD SWAP1 DUP1 PUSH1 0x9 ADD SLOAD SWAP1 DUP1 PUSH1 0xA ADD SLOAD SWAP1 DUP1 PUSH1 0xB ADD SLOAD SWAP1 POP DUP13 JUMP JUMPDEST PUSH1 0x0 PUSH20 0xFFFFFFFFFFFFFFFFFFFFFFFFFFFFFFFFFFFFFFFF AND DUP3 PUSH20 0xFFFFFFFFFFFFFFFFFFFFFFFFFFFFFFFFFFFFFFFF AND SUB PUSH2 0x380 JUMPI PUSH1 0x40 MLOAD PUSH32 0x8C379A000000000000000000000000000000000000000000000000000000000 DUP2 MSTORE PUSH1 0x4 ADD PUSH2 0x377 SWAP1 PUSH2 0x3733 JUMP JUMPDEST PUSH1 0x40 MLOAD DUP1 SWAP2 SUB SWAP1 REVERT JUMPDEST PUSH1 0x0 DUP2 SUB PUSH2 0x3C3 JUMPI PUSH1 0x40 MLOAD PUSH32 0x8C379A000000000000000000000000000000000000000000000000000000000 DUP2 MSTORE PUSH1 0x4 ADD PUSH2 0x3BA SWAP1 PUSH2 0x379F JUMP JUMPDEST PUSH1 0x40 MLOAD DUP1 SWAP2 SUB SWAP1 REVERT JUMPDEST DUP1 PUSH1 0xD PUSH1 0x0 DUP5 PUSH20 0xFFFFFFFFFFFFFFFFFFFFFFFFFFFFFFFFFFFFFFFF AND PUSH20 0xFFFFFFFFFFFFFFFFFFFFFFFFFFFFFFFFFFFFFFFF AND DUP2 MSTORE PUSH1 0x20 ADD SWAP1 DUP2 MSTORE PUSH1 0x20 ADD PUSH1 0x0 KECCAK256 PUSH1 0x1 ADD PUSH1 0x0 DUP3 DUP3 SLOAD PUSH2 0x415 SWAP2 SWAP1 PUSH2 0x37EE JUMP JUMPDEST SWAP3 POP POP DUP2 SWAP1 SSTORE POP PUSH1 0x40 MLOAD DUP1 PUSH2 0x180 ADD PUSH1 0x40 MSTORE DUP1 PUSH1 0xD PUSH1 0x0 DUP6 PUSH20 0xFFFFFFFFFFFFFFFFFFFFFFFFFFFFFFFFFFFFFFFF AND PUSH20 0xFFFFFFFFFFFFFFFFFFFFFFFFFFFFFFFFFFFFFFFF AND DUP2 MSTORE PUSH1 0x20 ADD SWAP1 DUP2 MSTORE PUSH1 0x20 ADD PUSH1 0x0 KECCAK256 PUSH1 0x0 ADD PUSH1 0x0 SWAP1 SLOAD SWAP1 PUSH2 0x100 EXP SWAP1 DIV PUSH20 0xFFFFFFFFFFFFFFFFFFFFFFFFFFFFFFFFFFFFFFFF AND PUSH20 0xFFFFFFFFFFFFFFFFFFFFFFFFFFFFFFFFFFFFFFFF AND DUP2 MSTORE PUSH1 0x20 ADD PUSH1 0xD PUSH1 0x0 DUP6 PUSH20 0xFFFFFFFFFFFFFFFFFFFFFFFFFFFFFFFFFFFFFFFF AND PUSH20 0xFFFFFFFFFFFFFFFFFFFFFFFFFFFFFFFFFFFFFFFF AND DUP2 MSTORE PUSH1 0x20 ADD SWAP1 DUP2 MSTORE PUSH1 0x20 ADD PUSH1 0x0 KECCAK256 PUSH1 0x1 ADD SLOAD DUP2 MSTORE PUSH1 0x20 ADD PUSH1 0xD PUSH1 0x0 DUP6 PUSH20 0xFFFFFFFFFFFFFFFFFFFFFFFFFFFFFFFFFFFFFFFF AND PUSH20 0xFFFFFFFFFFFFFFFFFFFFFFFFFFFFFFFFFFFFFFFF AND DUP2 MSTORE PUSH1 0x20 ADD SWAP1 DUP2 MSTORE PUSH1 0x20 ADD PUSH1 0x0 KECCAK256 PUSH1 0x2 ADD SLOAD DUP2 MSTORE PUSH1 0x20 ADD PUSH1 0xD PUSH1 0x0 DUP6 PUSH20 0xFFFFFFFFFFFFFFFFFFFFFFFFFFFFFFFFFFFFFFFF AND PUSH20 0xFFFFFFFFFFFFFFFFFFFFFFFFFFFFFFFFFFFFFFFF AND DUP2 MSTORE PUSH1 0x20 ADD SWAP1 DUP2 MSTORE PUSH1 0x20 ADD PUSH1 0x0 KECCAK256 PUSH1 0x3 ADD SLOAD DUP2 MSTORE PUSH1 0x20 ADD PUSH1 0xD PUSH1 0x0 DUP6 PUSH20 0xFFFFFFFFFFFFFFFFFFFFFFFFFFFFFFFFFFFFFFFF AND PUSH20 0xFFFFFFFFFFFFFFFFFFFFFFFFFFFFFFFFFFFFFFFF AND DUP2 MSTORE PUSH1 0x20 ADD SWAP1 DUP2 MSTORE PUSH1 0x20 ADD PUSH1 0x0 KECCAK256 PUSH1 0x4 ADD SLOAD DUP2 MSTORE PUSH1 0x20 ADD PUSH1 0xD PUSH1 0x0 DUP6 PUSH20 0xFFFFFFFFFFFFFFFFFFFFFFFFFFFFFFFFFFFFFFFF AND PUSH20 0xFFFFFFFFFFFFFFFFFFFFFFFFFFFFFFFFFFFFFFFF AND DUP2 MSTORE PUSH1 0x20 ADD SWAP1 DUP2 MSTORE PUSH1 0x20 ADD PUSH1 0x0 KECCAK256 PUSH1 0x5 ADD SLOAD DUP2 MSTORE PUSH1 0x20 ADD PUSH1 0xD PUSH1 0x0 DUP6 PUSH20 0xFFFFFFFFFFFFFFFFFFFFFFFFFFFFFFFFFFFFFFFF AND PUSH20 0xFFFFFFFFFFFFFFFFFFFFFFFFFFFFFFFFFFFFFFFF AND DUP2 MSTORE PUSH1 0x20 ADD SWAP1 DUP2 MSTORE PUSH1 0x20 ADD PUSH1 0x0 KECCAK256 PUSH1 0x6 ADD SLOAD DUP2 MSTORE PUSH1 0x20 ADD PUSH1 0xD PUSH1 0x0 DUP6 PUSH20 0xFFFFFFFFFFFFFFFFFFFFFFFFFFFFFFFFFFFFFFFF AND PUSH20 0xFFFFFFFFFFFFFFFFFFFFFFFFFFFFFFFFFFFFFFFF AND DUP2 MSTORE PUSH1 0x20 ADD SWAP1 DUP2 MSTORE PUSH1 0x20 ADD PUSH1 0x0 KECCAK256 PUSH1 0x7 ADD SLOAD DUP2 MSTORE PUSH1 0x20 ADD PUSH1 0xD PUSH1 0x0 DUP6 PUSH20 0xFFFFFFFFFFFFFFFFFFFFFFFFFFFFFFFFFFFFFFFF AND PUSH20 0xFFFFFFFFFFFFFFFFFFFFFFFFFFFFFFFFFFFFFFFF AND DUP2 MSTORE PUSH1 0x20 ADD SWAP1 DUP2 MSTORE PUSH1 0x20 ADD PUSH1 0x0 KECCAK256 PUSH1 0x8 ADD SLOAD DUP2 MSTORE PUSH1 0x20 ADD PUSH1 0xD PUSH1 0x0 DUP6 PUSH20 0xFFFFFFFFFFFFFFFFFFFFFFFFFFFFFFFFFFFFFFFF AND PUSH20 0xFFFFFFFFFFFFFFFFFFFFFFFFFFFFFFFFFFFFFFFF AND DUP2 MSTORE PUSH1 0x20 ADD SWAP1 DUP2 MSTORE PUSH1 0x20 ADD PUSH1 0x0 KECCAK256 PUSH1 0x9 ADD SLOAD DUP2 MSTORE PUSH1 0x20 ADD PUSH1 0xD PUSH1 0x0 DUP6 PUSH20 0xFFFFFFFFFFFFFFFFFFFFFFFFFFFFFFFFFFFFFFFF AND PUSH20 0xFFFFFFFFFFFFFFFFFFFFFFFFFFFFFFFFFFFFFFFF AND DUP2 MSTORE PUSH1 0x20 ADD SWAP1 DUP2 MSTORE PUSH1 0x20 ADD PUSH1 0x0 KECCAK256 PUSH1 0xA ADD SLOAD DUP2 MSTORE PUSH1 0x20 ADD PUSH1 0xD PUSH1 0x0 DUP6 PUSH20 0xFFFFFFFFFFFFFFFFFFFFFFFFFFFFFFFFFFFFFFFF AND PUSH20 0xFFFFFFFFFFFFFFFFFFFFFFFFFFFFFFFFFFFFFFFF AND DUP2 MSTORE PUSH1 0x20 ADD SWAP1 DUP2 MSTORE PUSH1 0x20 ADD PUSH1 0x0 KECCAK256 PUSH1 0xB ADD SLOAD DUP2 MSTORE POP PUSH1 0xD PUSH1 0x0 DUP5 PUSH20 0xFFFFFFFFFFFFFFFFFFFFFFFFFFFFFFFFFFFFFFFF AND PUSH20 0xFFFFFFFFFFFFFFFFFFFFFFFFFFFFFFFFFFFFFFFF AND DUP2 MSTORE PUSH1 0x20 ADD SWAP1 DUP2 MSTORE PUSH1 0x20 ADD PUSH1 0x0 KECCAK256 PUSH1 0x0 DUP3 ADD MLOAD DUP2 PUSH1 0x0 ADD PUSH1 0x0 PUSH2 0x100 EXP DUP2 SLOAD DUP2 PUSH20 0xFFFFFFFFFFFFFFFFFFFFFFFFFFFFFFFFFFFFFFFF MUL NOT AND SWAP1 DUP4 PUSH20 0xFFFFFFFFFFFFFFFFFFFFFFFFFFFFFFFFFFFFFFFF AND MUL OR SWAP1 SSTORE POP PUSH1 0x20 DUP3 ADD MLOAD DUP2 PUSH1 0x1 ADD SSTORE PUSH1 0x40 DUP3 ADD MLOAD DUP2 PUSH1 0x2 ADD SSTORE PUSH1 0x60 DUP3 ADD MLOAD DUP2 PUSH1 0x3 ADD SSTORE PUSH1 0x80 DUP3 ADD MLOAD DUP2 PUSH1 0x4 ADD SSTORE PUSH1 0xA0 DUP3 ADD MLOAD DUP2 PUSH1 0x5 ADD SSTORE PUSH1 0xC0 DUP3 ADD MLOAD DUP2 PUSH1 0x6 ADD SSTORE PUSH1 0xE0 DUP3 ADD MLOAD DUP2 PUSH1 0x7 ADD SSTORE PUSH2 0x100 DUP3 ADD MLOAD DUP2 PUSH1 0x8 ADD SSTORE PUSH2 0x120 DUP3 ADD MLOAD DUP2 PUSH1 0x9 ADD SSTORE PUSH2 0x140 DUP3 ADD MLOAD DUP2 PUSH1 0xA ADD SSTORE PUSH2 0x160 DUP3 ADD MLOAD DUP2 PUSH1 0xB ADD SSTORE SWAP1 POP POP POP POP JUMP JUMPDEST PUSH1 0x0 DUP1 PUSH1 0x0 DUP1 PUSH20 0xFFFFFFFFFFFFFFFFFFFFFFFFFFFFFFFFFFFFFFFF AND DUP5 PUSH20 0xFFFFFFFFFFFFFFFFFFFFFFFFFFFFFFFFFFFFFFFF AND SUB PUSH2 0x92E JUMPI PUSH1 0x40 MLOAD PUSH32 0x8C379A000000000000000000000000000000000000000000000000000000000 DUP2 MSTORE PUSH1 0x4 ADD PUSH2 0x925 SWAP1 PUSH2 0x3733 JUMP JUMPDEST PUSH1 0x40 MLOAD DUP1 SWAP2 SUB SWAP1 REVERT JUMPDEST PUSH1 0xD PUSH1 0x0 DUP6 PUSH20 0xFFFFFFFFFFFFFFFFFFFFFFFFFFFFFFFFFFFFFFFF AND PUSH20 0xFFFFFFFFFFFFFFFFFFFFFFFFFFFFFFFFFFFFFFFF AND DUP2 MSTORE PUSH1 0x20 ADD SWAP1 DUP2 MSTORE PUSH1 0x20 ADD PUSH1 0x0 KECCAK256 PUSH1 0x2 ADD SLOAD PUSH1 0xD PUSH1 0x0 DUP7 PUSH20 0xFFFFFFFFFFFFFFFFFFFFFFFFFFFFFFFFFFFFFFFF AND PUSH20 0xFFFFFFFFFFFFFFFFFFFFFFFFFFFFFFFFFFFFFFFF AND DUP2 MSTORE PUSH1 0x20 ADD SWAP1 DUP2 MSTORE PUSH1 0x20 ADD PUSH1 0x0 KECCAK256 PUSH1 0x5 ADD SLOAD PUSH1 0xD PUSH1 0x0 DUP8 PUSH20 0xFFFFFFFFFFFFFFFFFFFFFFFFFFFFFFFFFFFFFFFF AND PUSH20 0xFFFFFFFFFFFFFFFFFFFFFFFFFFFFFFFFFFFFFFFF AND DUP2 MSTORE PUSH1 0x20 ADD SWAP1 DUP2 MSTORE PUSH1 0x20 ADD PUSH1 0x0 KECCAK256 PUSH1 0x8 ADD SLOAD SWAP3 POP SWAP3 POP SWAP3 POP SWAP2 SWAP4 SWAP1 SWAP3 POP JUMP JUMPDEST PUSH1 0x0 SELFBALANCE SWAP1 POP SWAP1 JUMP JUMPDEST PUSH1 0x0 DUP1 PUSH1 0x0 DUP1 PUSH20 0xFFFFFFFFFFFFFFFFFFFFFFFFFFFFFFFFFFFFFFFF AND DUP5 PUSH20 0xFFFFFFFFFFFFFFFFFFFFFFFFFFFFFFFFFFFFFFFF AND SUB PUSH2 0xA7F JUMPI PUSH1 0x40 MLOAD PUSH32 0x8C379A000000000000000000000000000000000000000000000000000000000 DUP2 MSTORE PUSH1 0x4 ADD PUSH2 0xA76 SWAP1 PUSH2 0x3733 JUMP JUMPDEST PUSH1 0x40 MLOAD DUP1 SWAP2 SUB SWAP1 REVERT JUMPDEST PUSH1 0xD PUSH1 0x0 DUP6 PUSH20 0xFFFFFFFFFFFFFFFFFFFFFFFFFFFFFFFFFFFFFFFF AND PUSH20 0xFFFFFFFFFFFFFFFFFFFFFFFFFFFFFFFFFFFFFFFF AND DUP2 MSTORE PUSH1 0x20 ADD SWAP1 DUP2 MSTORE PUSH1 0x20 ADD PUSH1 0x0 KECCAK256 PUSH1 0x4 ADD SLOAD PUSH1 0xD PUSH1 0x0 DUP7 PUSH20 0xFFFFFFFFFFFFFFFFFFFFFFFFFFFFFFFFFFFFFFFF AND PUSH20 0xFFFFFFFFFFFFFFFFFFFFFFFFFFFFFFFFFFFFFFFF AND DUP2 MSTORE PUSH1 0x20 ADD SWAP1 DUP2 MSTORE PUSH1 0x20 ADD PUSH1 0x0 KECCAK256 PUSH1 0x7 ADD SLOAD PUSH1 0xD PUSH1 0x0 DUP8 PUSH20 0xFFFFFFFFFFFFFFFFFFFFFFFFFFFFFFFFFFFFFFFF AND PUSH20 0xFFFFFFFFFFFFFFFFFFFFFFFFFFFFFFFFFFFFFFFF AND DUP2 MSTORE PUSH1 0x20 ADD SWAP1 DUP2 MSTORE PUSH1 0x20 ADD PUSH1 0x0 KECCAK256 PUSH1 0xA ADD SLOAD SWAP3 POP SWAP3 POP SWAP3 POP SWAP2 SWAP4 SWAP1 SWAP3 POP JUMP JUMPDEST PUSH1 0x40 MLOAD PUSH1 0x20 ADD PUSH2 0xB64 SWAP1 PUSH2 0x3879 JUMP JUMPDEST PUSH1 0x40 MLOAD PUSH1 0x20 DUP2 DUP4 SUB SUB DUP2 MSTORE SWAP1 PUSH1 0x40 MSTORE DUP1 MLOAD SWAP1 PUSH1 0x20 ADD KECCAK256 DUP2 PUSH1 0x40 MLOAD PUSH1 0x20 ADD PUSH2 0xB8B SWAP2 SWAP1 PUSH2 0x38F4 JUMP JUMPDEST PUSH1 0x40 MLOAD PUSH1 0x20 DUP2 DUP4 SUB SUB DUP2 MSTORE SWAP1 PUSH1 0x40 MSTORE DUP1 MLOAD SWAP1 PUSH1 0x20 ADD KECCAK256 EQ DUP1 PUSH2 0xBF6 JUMPI POP PUSH1 0x40 MLOAD PUSH1 0x20 ADD PUSH2 0xBB7 SWAP1 PUSH2 0x3957 JUMP JUMPDEST PUSH1 0x40 MLOAD PUSH1 0x20 DUP2 DUP4 SUB SUB DUP2 MSTORE SWAP1 PUSH1 0x40 MSTORE DUP1 MLOAD SWAP1 PUSH1 0x20 ADD KECCAK256 DUP2 PUSH1 0x40 MLOAD PUSH1 0x20 ADD PUSH2 0xBDE SWAP2 SWAP1 PUSH2 0x38F4 JUMP JUMPDEST PUSH1 0x40 MLOAD PUSH1 0x20 DUP2 DUP4 SUB SUB DUP2 MSTORE SWAP1 PUSH1 0x40 MSTORE DUP1 MLOAD SWAP1 PUSH1 0x20 ADD KECCAK256 EQ JUMPDEST DUP1 PUSH2 0xC4A JUMPI POP PUSH1 0x40 MLOAD PUSH1 0x20 ADD PUSH2 0xC0B SWAP1 PUSH2 0x39B8 JUMP JUMPDEST PUSH1 0x40 MLOAD PUSH1 0x20 DUP2 DUP4 SUB SUB DUP2 MSTORE SWAP1 PUSH1 0x40 MSTORE DUP1 MLOAD SWAP1 PUSH1 0x20 ADD KECCAK256 DUP2 PUSH1 0x40 MLOAD PUSH1 0x20 ADD PUSH2 0xC32 SWAP2 SWAP1 PUSH2 0x38F4 JUMP JUMPDEST PUSH1 0x40 MLOAD PUSH1 0x20 DUP2 DUP4 SUB SUB DUP2 MSTORE SWAP1 PUSH1 0x40 MSTORE DUP1 MLOAD SWAP1 PUSH1 0x20 ADD KECCAK256 EQ JUMPDEST PUSH2 0xC89 JUMPI PUSH1 0x40 MLOAD PUSH32 0x8C379A000000000000000000000000000000000000000000000000000000000 DUP2 MSTORE PUSH1 0x4 ADD PUSH2 0xC80 SWAP1 PUSH2 0x3A19 JUMP JUMPDEST PUSH1 0x40 MLOAD DUP1 SWAP2 SUB SWAP1 REVERT JUMPDEST PUSH1 0x0 PUSH20 0xFFFFFFFFFFFFFFFFFFFFFFFFFFFFFFFFFFFFFFFF AND DUP3 PUSH20 0xFFFFFFFFFFFFFFFFFFFFFFFFFFFFFFFFFFFFFFFF AND SUB PUSH2 0xCF8 JUMPI PUSH1 0x40 MLOAD PUSH32 0x8C379A000000000000000000000000000000000000000000000000000000000 DUP2 MSTORE PUSH1 0x4 ADD PUSH2 0xCEF SWAP1 PUSH2 0x3733 JUMP JUMPDEST PUSH1 0x40 MLOAD DUP1 SWAP2 SUB SWAP1 REVERT JUMPDEST PUSH1 0x40 MLOAD PUSH1 0x20 ADD PUSH2 0xD07 SWAP1 PUSH2 0x3879 JUMP JUMPDEST PUSH1 0x40 MLOAD PUSH1 0x20 DUP2 DUP4 SUB SUB DUP2 MSTORE SWAP1 PUSH1 0x40 MSTORE DUP1 MLOAD SWAP1 PUSH1 0x20 ADD KECCAK256 DUP2 PUSH1 0x40 MLOAD PUSH1 0x20 ADD PUSH2 0xD2E SWAP2 SWAP1 PUSH2 0x38F4 JUMP JUMPDEST PUSH1 0x40 MLOAD PUSH1 0x20 DUP2 DUP4 SUB SUB DUP2 MSTORE SWAP1 PUSH1 0x40 MSTORE DUP1 MLOAD SWAP1 PUSH1 0x20 ADD KECCAK256 SUB PUSH2 0x103A JUMPI PUSH3 0x278D00 PUSH1 0xD PUSH1 0x0 DUP5 PUSH20 0xFFFFFFFFFFFFFFFFFFFFFFFFFFFFFFFFFFFFFFFF AND PUSH20 0xFFFFFFFFFFFFFFFFFFFFFFFFFFFFFFFFFFFFFFFF AND DUP2 MSTORE PUSH1 0x20 ADD SWAP1 DUP2 MSTORE PUSH1 0x20 ADD PUSH1 0x0 KECCAK256 PUSH1 0xB ADD SLOAD TIMESTAMP PUSH2 0xD9B SWAP2 SWAP1 PUSH2 0x3A39 JUMP JUMPDEST GT PUSH2 0xDDB JUMPI PUSH1 0x40 MLOAD PUSH32 0x8C379A000000000000000000000000000000000000000000000000000000000 DUP2 MSTORE PUSH1 0x4 ADD PUSH2 0xDD2 SWAP1 PUSH2 0x3ADF JUMP JUMPDEST PUSH1 0x40 MLOAD DUP1 SWAP2 SUB SWAP1 REVERT JUMPDEST TIMESTAMP PUSH1 0xD PUSH1 0x0 DUP5 PUSH20 0xFFFFFFFFFFFFFFFFFFFFFFFFFFFFFFFFFFFFFFFF AND PUSH20 0xFFFFFFFFFFFFFFFFFFFFFFFFFFFFFFFFFFFFFFFF AND DUP2 MSTORE PUSH1 0x20 ADD SWAP1 DUP2 MSTORE PUSH1 0x20 ADD PUSH1 0x0 KECCAK256 PUSH1 0xB ADD DUP2 SWAP1 SSTORE POP PUSH1 0x0 PUSH1 0xD PUSH1 0x0 DUP5 PUSH20 0xFFFFFFFFFFFFFFFFFFFFFFFFFFFFFFFFFFFFFFFF AND PUSH20 0xFFFFFFFFFFFFFFFFFFFFFFFFFFFFFFFFFFFFFFFF AND DUP2 MSTORE PUSH1 0x20 ADD SWAP1 DUP2 MSTORE PUSH1 0x20 ADD PUSH1 0x0 KECCAK256 PUSH1 0x8 ADD SLOAD GT PUSH2 0xEA7 JUMPI PUSH1 0x40 MLOAD PUSH32 0x8C379A000000000000000000000000000000000000000000000000000000000 DUP2 MSTORE PUSH1 0x4 ADD PUSH2 0xE9E SWAP1 PUSH2 0x3B4B JUMP JUMPDEST PUSH1 0x40 MLOAD DUP1 SWAP2 SUB SWAP1 REVERT JUMPDEST PUSH1 0xD PUSH1 0x0 DUP4 PUSH20 0xFFFFFFFFFFFFFFFFFFFFFFFFFFFFFFFFFFFFFFFF AND PUSH20 0xFFFFFFFFFFFFFFFFFFFFFFFFFFFFFFFFFFFFFFFF AND DUP2 MSTORE PUSH1 0x20 ADD SWAP1 DUP2 MSTORE PUSH1 0x20 ADD PUSH1 0x0 KECCAK256 PUSH1 0x5 ADD SLOAD PUSH1 0xD PUSH1 0x0 DUP5 PUSH20 0xFFFFFFFFFFFFFFFFFFFFFFFFFFFFFFFFFFFFFFFF AND PUSH20 0xFFFFFFFFFFFFFFFFFFFFFFFFFFFFFFFFFFFFFFFF AND DUP2 MSTORE PUSH1 0x20 ADD SWAP1 DUP2 MSTORE PUSH1 0x20 ADD PUSH1 0x0 KECCAK256 PUSH1 0x1 ADD PUSH1 0x0 DUP3 DUP3 SLOAD PUSH2 0xF3B SWAP2 SWAP1 PUSH2 0x3A39 JUMP JUMPDEST SWAP3 POP POP DUP2 SWAP1 SSTORE POP PUSH1 0xD PUSH1 0x0 DUP4 PUSH20 0xFFFFFFFFFFFFFFFFFFFFFFFFFFFFFFFFFFFFFFFF AND PUSH20 0xFFFFFFFFFFFFFFFFFFFFFFFFFFFFFFFFFFFFFFFF AND DUP2 MSTORE PUSH1 0x20 ADD SWAP1 DUP2 MSTORE PUSH1 0x20 ADD PUSH1 0x0 KECCAK256 PUSH1 0x5 ADD SLOAD PUSH1 0xD PUSH1 0x0 DUP5 PUSH20 0xFFFFFFFFFFFFFFFFFFFFFFFFFFFFFFFFFFFFFFFF AND PUSH20 0xFFFFFFFFFFFFFFFFFFFFFFFFFFFFFFFFFFFFFFFF AND DUP2 MSTORE PUSH1 0x20 ADD SWAP1 DUP2 MSTORE PUSH1 0x20 ADD PUSH1 0x0 KECCAK256 PUSH1 0x2 ADD PUSH1 0x0 DUP3 DUP3 SLOAD PUSH2 0xFD6 SWAP2 SWAP1 PUSH2 0x3A39 JUMP JUMPDEST SWAP3 POP POP DUP2 SWAP1 SSTORE POP PUSH1 0xD PUSH1 0x0 DUP4 PUSH20 0xFFFFFFFFFFFFFFFFFFFFFFFFFFFFFFFFFFFFFFFF AND PUSH20 0xFFFFFFFFFFFFFFFFFFFFFFFFFFFFFFFFFFFFFFFF AND DUP2 MSTORE PUSH1 0x20 ADD SWAP1 DUP2 MSTORE PUSH1 0x20 ADD PUSH1 0x0 KECCAK256 PUSH1 0x8 ADD PUSH1 0x0 DUP2 SLOAD DUP1 SWAP3 SWAP2 SWAP1 PUSH2 0x1030 SWAP1 PUSH2 0x3B6B JUMP JUMPDEST SWAP2 SWAP1 POP SSTORE POP PUSH2 0x16BC JUMP JUMPDEST PUSH1 0x40 MLOAD PUSH1 0x20 ADD PUSH2 0x1049 SWAP1 PUSH2 0x3957 JUMP JUMPDEST PUSH1 0x40 MLOAD PUSH1 0x20 DUP2 DUP4 SUB SUB DUP2 MSTORE SWAP1 PUSH1 0x40 MSTORE DUP1 MLOAD SWAP1 PUSH1 0x20 ADD KECCAK256 DUP2 PUSH1 0x40 MLOAD PUSH1 0x20 ADD PUSH2 0x1070 SWAP2 SWAP1 PUSH2 0x38F4 JUMP JUMPDEST PUSH1 0x40 MLOAD PUSH1 0x20 DUP2 DUP4 SUB SUB DUP2 MSTORE SWAP1 PUSH1 0x40 MSTORE DUP1 MLOAD SWAP1 PUSH1 0x20 ADD KECCAK256 SUB PUSH2 0x137C JUMPI PUSH3 0x278D00 PUSH1 0xD PUSH1 0x0 DUP5 PUSH20 0xFFFFFFFFFFFFFFFFFFFFFFFFFFFFFFFFFFFFFFFF AND PUSH20 0xFFFFFFFFFFFFFFFFFFFFFFFFFFFFFFFFFFFFFFFF AND DUP2 MSTORE PUSH1 0x20 ADD SWAP1 DUP2 MSTORE PUSH1 0x20 ADD PUSH1 0x0 KECCAK256 PUSH1 0xB ADD SLOAD TIMESTAMP PUSH2 0x10DD SWAP2 SWAP1 PUSH2 0x3A39 JUMP JUMPDEST GT PUSH2 0x111D JUMPI PUSH1 0x40 MLOAD PUSH32 0x8C379A000000000000000000000000000000000000000000000000000000000 DUP2 MSTORE PUSH1 0x4 ADD PUSH2 0x1114 SWAP1 PUSH2 0x3ADF JUMP JUMPDEST PUSH1 0x40 MLOAD DUP1 SWAP2 SUB SWAP1 REVERT JUMPDEST TIMESTAMP PUSH1 0xD PUSH1 0x0 DUP5 PUSH20 0xFFFFFFFFFFFFFFFFFFFFFFFFFFFFFFFFFFFFFFFF AND PUSH20 0xFFFFFFFFFFFFFFFFFFFFFFFFFFFFFFFFFFFFFFFF AND DUP2 MSTORE PUSH1 0x20 ADD SWAP1 DUP2 MSTORE PUSH1 0x20 ADD PUSH1 0x0 KECCAK256 PUSH1 0xB ADD DUP2 SWAP1 SSTORE POP PUSH1 0x0 PUSH1 0xD PUSH1 0x0 DUP5 PUSH20 0xFFFFFFFFFFFFFFFFFFFFFFFFFFFFFFFFFFFFFFFF AND PUSH20 0xFFFFFFFFFFFFFFFFFFFFFFFFFFFFFFFFFFFFFFFF AND DUP2 MSTORE PUSH1 0x20 ADD SWAP1 DUP2 MSTORE PUSH1 0x20 ADD PUSH1 0x0 KECCAK256 PUSH1 0x9 ADD SLOAD GT PUSH2 0x11E9 JUMPI PUSH1 0x40 MLOAD PUSH32 0x8C379A000000000000000000000000000000000000000000000000000000000 DUP2 MSTORE PUSH1 0x4 ADD PUSH2 0x11E0 SWAP1 PUSH2 0x3B4B JUMP JUMPDEST PUSH1 0x40 MLOAD DUP1 SWAP2 SUB SWAP1 REVERT JUMPDEST PUSH1 0xD PUSH1 0x0 DUP4 PUSH20 0xFFFFFFFFFFFFFFFFFFFFFFFFFFFFFFFFFFFFFFFF AND PUSH20 0xFFFFFFFFFFFFFFFFFFFFFFFFFFFFFFFFFFFFFFFF AND DUP2 MSTORE PUSH1 0x20 ADD SWAP1 DUP2 MSTORE PUSH1 0x20 ADD PUSH1 0x0 KECCAK256 PUSH1 0x6 ADD SLOAD PUSH1 0xD PUSH1 0x0 DUP5 PUSH20 0xFFFFFFFFFFFFFFFFFFFFFFFFFFFFFFFFFFFFFFFF AND PUSH20 0xFFFFFFFFFFFFFFFFFFFFFFFFFFFFFFFFFFFFFFFF AND DUP2 MSTORE PUSH1 0x20 ADD SWAP1 DUP2 MSTORE PUSH1 0x20 ADD PUSH1 0x0 KECCAK256 PUSH1 0x1 ADD PUSH1 0x0 DUP3 DUP3 SLOAD PUSH2 0x127D SWAP2 SWAP1 PUSH2 0x3A39 JUMP JUMPDEST SWAP3 POP POP DUP2 SWAP1 SSTORE POP PUSH1 0xD PUSH1 0x0 DUP4 PUSH20 0xFFFFFFFFFFFFFFFFFFFFFFFFFFFFFFFFFFFFFFFF AND PUSH20 0xFFFFFFFFFFFFFFFFFFFFFFFFFFFFFFFFFFFFFFFF AND DUP2 MSTORE PUSH1 0x20 ADD SWAP1 DUP2 MSTORE PUSH1 0x20 ADD PUSH1 0x0 KECCAK256 PUSH1 0x6 ADD SLOAD PUSH1 0xD PUSH1 0x0 DUP5 PUSH20 0xFFFFFFFFFFFFFFFFFFFFFFFFFFFFFFFFFFFFFFFF AND PUSH20 0xFFFFFFFFFFFFFFFFFFFFFFFFFFFFFFFFFFFFFFFF AND DUP2 MSTORE PUSH1 0x20 ADD SWAP1 DUP2 MSTORE PUSH1 0x20 ADD PUSH1 0x0 KECCAK256 PUSH1 0x3 ADD PUSH1 0x0 DUP3 DUP3 SLOAD PUSH2 0x1318 SWAP2 SWAP1 PUSH2 0x3A39 JUMP JUMPDEST SWAP3 POP POP DUP2 SWAP1 SSTORE POP PUSH1 0xD PUSH1 0x0 DUP4 PUSH20 0xFFFFFFFFFFFFFFFFFFFFFFFFFFFFFFFFFFFFFFFF AND PUSH20 0xFFFFFFFFFFFFFFFFFFFFFFFFFFFFFFFFFFFFFFFF AND DUP2 MSTORE PUSH1 0x20 ADD SWAP1 DUP2 MSTORE PUSH1 0x20 ADD PUSH1 0x0 KECCAK256 PUSH1 0x9 ADD PUSH1 0x0 DUP2 SLOAD DUP1 SWAP3 SWAP2 SWAP1 PUSH2 0x1372 SWAP1 PUSH2 0x3B6B JUMP JUMPDEST SWAP2 SWAP1 POP SSTORE POP PUSH2 0x16BB JUMP JUMPDEST PUSH1 0x40 MLOAD PUSH1 0x20 ADD PUSH2 0x138B SWAP1 PUSH2 0x39B8 JUMP JUMPDEST PUSH1 0x40 MLOAD PUSH1 0x20 DUP2 DUP4 SUB SUB DUP2 MSTORE SWAP1 PUSH1 0x40 MSTORE DUP1 MLOAD SWAP1 PUSH1 0x20 ADD KECCAK256 DUP2 PUSH1 0x40 MLOAD PUSH1 0x20 ADD PUSH2 0x13B2 SWAP2 SWAP1 PUSH2 0x38F4 JUMP JUMPDEST PUSH1 0x40 MLOAD PUSH1 0x20 DUP2 DUP4 SUB SUB DUP2 MSTORE SWAP1 PUSH1 0x40 MSTORE DUP1 MLOAD SWAP1 PUSH1 0x20 ADD KECCAK256 SUB PUSH2 0x16BA JUMPI PUSH3 0x278D00 PUSH1 0xD PUSH1 0x0 DUP5 PUSH20 0xFFFFFFFFFFFFFFFFFFFFFFFFFFFFFFFFFFFFFFFF AND PUSH20 0xFFFFFFFFFFFFFFFFFFFFFFFFFFFFFFFFFFFFFFFF AND DUP2 MSTORE PUSH1 0x20 ADD SWAP1 DUP2 MSTORE PUSH1 0x20 ADD PUSH1 0x0 KECCAK256 PUSH1 0xB ADD SLOAD TIMESTAMP PUSH2 0x141F SWAP2 SWAP1 PUSH2 0x3A39 JUMP JUMPDEST GT PUSH2 0x145F JUMPI PUSH1 0x40 MLOAD PUSH32 0x8C379A000000000000000000000000000000000000000000000000000000000 DUP2 MSTORE PUSH1 0x4 ADD PUSH2 0x1456 SWAP1 PUSH2 0x3ADF JUMP JUMPDEST PUSH1 0x40 MLOAD DUP1 SWAP2 SUB SWAP1 REVERT JUMPDEST TIMESTAMP PUSH1 0xD PUSH1 0x0 DUP5 PUSH20 0xFFFFFFFFFFFFFFFFFFFFFFFFFFFFFFFFFFFFFFFF AND PUSH20 0xFFFFFFFFFFFFFFFFFFFFFFFFFFFFFFFFFFFFFFFF AND DUP2 MSTORE PUSH1 0x20 ADD SWAP1 DUP2 MSTORE PUSH1 0x20 ADD PUSH1 0x0 KECCAK256 PUSH1 0xB ADD DUP2 SWAP1 SSTORE POP PUSH1 0x0 PUSH1 0xD PUSH1 0x0 DUP5 PUSH20 0xFFFFFFFFFFFFFFFFFFFFFFFFFFFFFFFFFFFFFFFF AND PUSH20 0xFFFFFFFFFFFFFFFFFFFFFFFFFFFFFFFFFFFFFFFF AND DUP2 MSTORE PUSH1 0x20 ADD SWAP1 DUP2 MSTORE PUSH1 0x20 ADD PUSH1 0x0 KECCAK256 PUSH1 0xA ADD SLOAD GT PUSH2 0x152B JUMPI PUSH1 0x40 MLOAD PUSH32 0x8C379A000000000000000000000000000000000000000000000000000000000 DUP2 MSTORE PUSH1 0x4 ADD PUSH2 0x1522 SWAP1 PUSH2 0x3B4B JUMP JUMPDEST PUSH1 0x40 MLOAD DUP1 SWAP2 SUB SWAP1 REVERT JUMPDEST PUSH1 0xD PUSH1 0x0 DUP4 PUSH20 0xFFFFFFFFFFFFFFFFFFFFFFFFFFFFFFFFFFFFFFFF AND PUSH20 0xFFFFFFFFFFFFFFFFFFFFFFFFFFFFFFFFFFFFFFFF AND DUP2 MSTORE PUSH1 0x20 ADD SWAP1 DUP2 MSTORE PUSH1 0x20 ADD PUSH1 0x0 KECCAK256 PUSH1 0x7 ADD SLOAD PUSH1 0xD PUSH1 0x0 DUP5 PUSH20 0xFFFFFFFFFFFFFFFFFFFFFFFFFFFFFFFFFFFFFFFF AND PUSH20 0xFFFFFFFFFFFFFFFFFFFFFFFFFFFFFFFFFFFFFFFF AND DUP2 MSTORE PUSH1 0x20 ADD SWAP1 DUP2 MSTORE PUSH1 0x20 ADD PUSH1 0x0 KECCAK256 PUSH1 0x1 ADD PUSH1 0x0 DUP3 DUP3 SLOAD PUSH2 0x15BF SWAP2 SWAP1 PUSH2 0x3A39 JUMP JUMPDEST SWAP3 POP POP DUP2 SWAP1 SSTORE POP PUSH1 0xD PUSH1 0x0 DUP4 PUSH20 0xFFFFFFFFFFFFFFFFFFFFFFFFFFFFFFFFFFFFFFFF AND PUSH20 0xFFFFFFFFFFFFFFFFFFFFFFFFFFFFFFFFFFFFFFFF AND DUP2 MSTORE PUSH1 0x20 ADD SWAP1 DUP2 MSTORE PUSH1 0x20 ADD PUSH1 0x0 KECCAK256 PUSH1 0x7 ADD SLOAD PUSH1 0xD PUSH1 0x0 DUP5 PUSH20 0xFFFFFFFFFFFFFFFFFFFFFFFFFFFFFFFFFFFFFFFF AND PUSH20 0xFFFFFFFFFFFFFFFFFFFFFFFFFFFFFFFFFFFFFFFF AND DUP2 MSTORE PUSH1 0x20 ADD SWAP1 DUP2 MSTORE PUSH1 0x20 ADD PUSH1 0x0 KECCAK256 PUSH1 0x4 ADD PUSH1 0x0 DUP3 DUP3 SLOAD PUSH2 0x165A SWAP2 SWAP1 PUSH2 0x3A39 JUMP JUMPDEST SWAP3 POP POP DUP2 SWAP1 SSTORE POP PUSH1 0xD PUSH1 0x0 DUP4 PUSH20 0xFFFFFFFFFFFFFFFFFFFFFFFFFFFFFFFFFFFFFFFF AND PUSH20 0xFFFFFFFFFFFFFFFFFFFFFFFFFFFFFFFFFFFFFFFF AND DUP2 MSTORE PUSH1 0x20 ADD SWAP1 DUP2 MSTORE PUSH1 0x20 ADD PUSH1 0x0 KECCAK256 PUSH1 0xA ADD PUSH1 0x0 DUP2 SLOAD DUP1 SWAP3 SWAP2 SWAP1 PUSH2 0x16B4 SWAP1 PUSH2 0x3B6B JUMP JUMPDEST SWAP2 SWAP1 POP SSTORE POP JUMPDEST JUMPDEST JUMPDEST PUSH1 0x40 MLOAD DUP1 PUSH2 0x180 ADD PUSH1 0x40 MSTORE DUP1 PUSH1 0xD PUSH1 0x0 DUP6 PUSH20 0xFFFFFFFFFFFFFFFFFFFFFFFFFFFFFFFFFFFFFFFF AND PUSH20 0xFFFFFFFFFFFFFFFFFFFFFFFFFFFFFFFFFFFFFFFF AND DUP2 MSTORE PUSH1 0x20 ADD SWAP1 DUP2 MSTORE PUSH1 0x20 ADD PUSH1 0x0 KECCAK256 PUSH1 0x0 ADD PUSH1 0x0 SWAP1 SLOAD SWAP1 PUSH2 0x100 EXP SWAP1 DIV PUSH20 0xFFFFFFFFFFFFFFFFFFFFFFFFFFFFFFFFFFFFFFFF AND PUSH20 0xFFFFFFFFFFFFFFFFFFFFFFFFFFFFFFFFFFFFFFFF AND DUP2 MSTORE PUSH1 0x20 ADD PUSH1 0xD PUSH1 0x0 DUP6 PUSH20 0xFFFFFFFFFFFFFFFFFFFFFFFFFFFFFFFFFFFFFFFF AND PUSH20 0xFFFFFFFFFFFFFFFFFFFFFFFFFFFFFFFFFFFFFFFF AND DUP2 MSTORE PUSH1 0x20 ADD SWAP1 DUP2 MSTORE PUSH1 0x20 ADD PUSH1 0x0 KECCAK256 PUSH1 0x1 ADD SLOAD DUP2 MSTORE PUSH1 0x20 ADD PUSH1 0xD PUSH1 0x0 DUP6 PUSH20 0xFFFFFFFFFFFFFFFFFFFFFFFFFFFFFFFFFFFFFFFF AND PUSH20 0xFFFFFFFFFFFFFFFFFFFFFFFFFFFFFFFFFFFFFFFF AND DUP2 MSTORE PUSH1 0x20 ADD SWAP1 DUP2 MSTORE PUSH1 0x20 ADD PUSH1 0x0 KECCAK256 PUSH1 0x2 ADD SLOAD DUP2 MSTORE PUSH1 0x20 ADD PUSH1 0xD PUSH1 0x0 DUP6 PUSH20 0xFFFFFFFFFFFFFFFFFFFFFFFFFFFFFFFFFFFFFFFF AND PUSH20 0xFFFFFFFFFFFFFFFFFFFFFFFFFFFFFFFFFFFFFFFF AND DUP2 MSTORE PUSH1 0x20 ADD SWAP1 DUP2 MSTORE PUSH1 0x20 ADD PUSH1 0x0 KECCAK256 PUSH1 0x3 ADD SLOAD DUP2 MSTORE PUSH1 0x20 ADD PUSH1 0xD PUSH1 0x0 DUP6 PUSH20 0xFFFFFFFFFFFFFFFFFFFFFFFFFFFFFFFFFFFFFFFF AND PUSH20 0xFFFFFFFFFFFFFFFFFFFFFFFFFFFFFFFFFFFFFFFF AND DUP2 MSTORE PUSH1 0x20 ADD SWAP1 DUP2 MSTORE PUSH1 0x20 ADD PUSH1 0x0 KECCAK256 PUSH1 0x4 ADD SLOAD DUP2 MSTORE PUSH1 0x20 ADD PUSH1 0xD PUSH1 0x0 DUP6 PUSH20 0xFFFFFFFFFFFFFFFFFFFFFFFFFFFFFFFFFFFFFFFF AND PUSH20 0xFFFFFFFFFFFFFFFFFFFFFFFFFFFFFFFFFFFFFFFF AND DUP2 MSTORE PUSH1 0x20 ADD SWAP1 DUP2 MSTORE PUSH1 0x20 ADD PUSH1 0x0 KECCAK256 PUSH1 0x5 ADD SLOAD DUP2 MSTORE PUSH1 0x20 ADD PUSH1 0xD PUSH1 0x0 DUP6 PUSH20 0xFFFFFFFFFFFFFFFFFFFFFFFFFFFFFFFFFFFFFFFF AND PUSH20 0xFFFFFFFFFFFFFFFFFFFFFFFFFFFFFFFFFFFFFFFF AND DUP2 MSTORE PUSH1 0x20 ADD SWAP1 DUP2 MSTORE PUSH1 0x20 ADD PUSH1 0x0 KECCAK256 PUSH1 0x6 ADD SLOAD DUP2 MSTORE PUSH1 0x20 ADD PUSH1 0xD PUSH1 0x0 DUP6 PUSH20 0xFFFFFFFFFFFFFFFFFFFFFFFFFFFFFFFFFFFFFFFF AND PUSH20 0xFFFFFFFFFFFFFFFFFFFFFFFFFFFFFFFFFFFFFFFF AND DUP2 MSTORE PUSH1 0x20 ADD SWAP1 DUP2 MSTORE PUSH1 0x20 ADD PUSH1 0x0 KECCAK256 PUSH1 0x7 ADD SLOAD DUP2 MSTORE PUSH1 0x20 ADD PUSH1 0xD PUSH1 0x0 DUP6 PUSH20 0xFFFFFFFFFFFFFFFFFFFFFFFFFFFFFFFFFFFFFFFF AND PUSH20 0xFFFFFFFFFFFFFFFFFFFFFFFFFFFFFFFFFFFFFFFF AND DUP2 MSTORE PUSH1 0x20 ADD SWAP1 DUP2 MSTORE PUSH1 0x20 ADD PUSH1 0x0 KECCAK256 PUSH1 0x8 ADD SLOAD DUP2 MSTORE PUSH1 0x20 ADD PUSH1 0xD PUSH1 0x0 DUP6 PUSH20 0xFFFFFFFFFFFFFFFFFFFFFFFFFFFFFFFFFFFFFFFF AND PUSH20 0xFFFFFFFFFFFFFFFFFFFFFFFFFFFFFFFFFFFFFFFF AND DUP2 MSTORE PUSH1 0x20 ADD SWAP1 DUP2 MSTORE PUSH1 0x20 ADD PUSH1 0x0 KECCAK256 PUSH1 0x9 ADD SLOAD DUP2 MSTORE PUSH1 0x20 ADD PUSH1 0xD PUSH1 0x0 DUP6 PUSH20 0xFFFFFFFFFFFFFFFFFFFFFFFFFFFFFFFFFFFFFFFF AND PUSH20 0xFFFFFFFFFFFFFFFFFFFFFFFFFFFFFFFFFFFFFFFF AND DUP2 MSTORE PUSH1 0x20 ADD SWAP1 DUP2 MSTORE PUSH1 0x20 ADD PUSH1 0x0 KECCAK256 PUSH1 0xA ADD SLOAD DUP2 MSTORE PUSH1 0x20 ADD PUSH1 0xD PUSH1 0x0 DUP6 PUSH20 0xFFFFFFFFFFFFFFFFFFFFFFFFFFFFFFFFFFFFFFFF AND PUSH20 0xFFFFFFFFFFFFFFFFFFFFFFFFFFFFFFFFFFFFFFFF AND DUP2 MSTORE PUSH1 0x20 ADD SWAP1 DUP2 MSTORE PUSH1 0x20 ADD PUSH1 0x0 KECCAK256 PUSH1 0xB ADD SLOAD DUP2 MSTORE POP PUSH1 0xD PUSH1 0x0 DUP5 PUSH20 0xFFFFFFFFFFFFFFFFFFFFFFFFFFFFFFFFFFFFFFFF AND PUSH20 0xFFFFFFFFFFFFFFFFFFFFFFFFFFFFFFFFFFFFFFFF AND DUP2 MSTORE PUSH1 0x20 ADD SWAP1 DUP2 MSTORE PUSH1 0x20 ADD PUSH1 0x0 KECCAK256 PUSH1 0x0 DUP3 ADD MLOAD DUP2 PUSH1 0x0 ADD PUSH1 0x0 PUSH2 0x100 EXP DUP2 SLOAD DUP2 PUSH20 0xFFFFFFFFFFFFFFFFFFFFFFFFFFFFFFFFFFFFFFFF MUL NOT AND SWAP1 DUP4 PUSH20 0xFFFFFFFFFFFFFFFFFFFFFFFFFFFFFFFFFFFFFFFF AND MUL OR SWAP1 SSTORE POP PUSH1 0x20 DUP3 ADD MLOAD DUP2 PUSH1 0x1 ADD SSTORE PUSH1 0x40 DUP3 ADD MLOAD DUP2 PUSH1 0x2 ADD SSTORE PUSH1 0x60 DUP3 ADD MLOAD DUP2 PUSH1 0x3 ADD SSTORE PUSH1 0x80 DUP3 ADD MLOAD DUP2 PUSH1 0x4 ADD SSTORE PUSH1 0xA0 DUP3 ADD MLOAD DUP2 PUSH1 0x5 ADD SSTORE PUSH1 0xC0 DUP3 ADD MLOAD DUP2 PUSH1 0x6 ADD SSTORE PUSH1 0xE0 DUP3 ADD MLOAD DUP2 PUSH1 0x7 ADD SSTORE PUSH2 0x100 DUP3 ADD MLOAD DUP2 PUSH1 0x8 ADD SSTORE PUSH2 0x120 DUP3 ADD MLOAD DUP2 PUSH1 0x9 ADD SSTORE PUSH2 0x140 DUP3 ADD MLOAD DUP2 PUSH1 0xA ADD SSTORE PUSH2 0x160 DUP3 ADD MLOAD DUP2 PUSH1 0xB ADD SSTORE SWAP1 POP POP POP POP JUMP JUMPDEST PUSH1 0x0 PUSH20 0xFFFFFFFFFFFFFFFFFFFFFFFFFFFFFFFFFFFFFFFF AND DUP5 PUSH20 0xFFFFFFFFFFFFFFFFFFFFFFFFFFFFFFFFFFFFFFFF AND SUB PUSH2 0x1BCA JUMPI PUSH1 0x40 MLOAD PUSH32 0x8C379A000000000000000000000000000000000000000000000000000000000 DUP2 MSTORE PUSH1 0x4 ADD PUSH2 0x1BC1 SWAP1 PUSH2 0x3733 JUMP JUMPDEST PUSH1 0x40 MLOAD DUP1 SWAP2 SUB SWAP1 REVERT JUMPDEST PUSH1 0x0 DUP4 SUB PUSH2 0x1C0D JUMPI PUSH1 0x40 MLOAD PUSH32 0x8C379A000000000000000000000000000000000000000000000000000000000 DUP2 MSTORE PUSH1 0x4 ADD PUSH2 0x1C04 SWAP1 PUSH2 0x379F JUMP JUMPDEST PUSH1 0x40 MLOAD DUP1 SWAP2 SUB SWAP1 REVERT JUMPDEST DUP4 PUSH20 0xFFFFFFFFFFFFFFFFFFFFFFFFFFFFFFFFFFFFFFFF AND PUSH2 0x8FC DUP5 SWAP1 DUP2 ISZERO MUL SWAP1 PUSH1 0x40 MLOAD PUSH1 0x0 PUSH1 0x40 MLOAD DUP1 DUP4 SUB DUP2 DUP6 DUP9 DUP9 CALL SWAP4 POP POP POP POP ISZERO DUP1 ISZERO PUSH2 0x1C53 JUMPI RETURNDATASIZE PUSH1 0x0 DUP1 RETURNDATACOPY RETURNDATASIZE PUSH1 0x0 REVERT JUMPDEST POP DUP3 PUSH1 0xD PUSH1 0x0 DUP7 PUSH20 0xFFFFFFFFFFFFFFFFFFFFFFFFFFFFFFFFFFFFFFFF AND PUSH20 0xFFFFFFFFFFFFFFFFFFFFFFFFFFFFFFFFFFFFFFFF AND DUP2 MSTORE PUSH1 0x20 ADD SWAP1 DUP2 MSTORE PUSH1 0x20 ADD PUSH1 0x0 KECCAK256 PUSH1 0x1 ADD PUSH1 0x0 DUP3 DUP3 SLOAD PUSH2 0x1CA6 SWAP2 SWAP1 PUSH2 0x37EE JUMP JUMPDEST SWAP3 POP POP DUP2 SWAP1 SSTORE POP PUSH1 0x40 MLOAD PUSH1 0x20 ADD PUSH2 0x1CBC SWAP1 PUSH2 0x3879 JUMP JUMPDEST PUSH1 0x40 MLOAD PUSH1 0x20 DUP2 DUP4 SUB SUB DUP2 MSTORE SWAP1 PUSH1 0x40 MSTORE DUP1 MLOAD SWAP1 PUSH1 0x20 ADD KECCAK256 DUP2 PUSH1 0x40 MLOAD PUSH1 0x20 ADD PUSH2 0x1CE3 SWAP2 SWAP1 PUSH2 0x38F4 JUMP JUMPDEST PUSH1 0x40 MLOAD PUSH1 0x20 DUP2 DUP4 SUB SUB DUP2 MSTORE SWAP1 PUSH1 0x40 MSTORE DUP1 MLOAD SWAP1 PUSH1 0x20 ADD KECCAK256 EQ DUP1 PUSH2 0x1D4E JUMPI POP PUSH1 0x40 MLOAD PUSH1 0x20 ADD PUSH2 0x1D0F SWAP1 PUSH2 0x3957 JUMP JUMPDEST PUSH1 0x40 MLOAD PUSH1 0x20 DUP2 DUP4 SUB SUB DUP2 MSTORE SWAP1 PUSH1 0x40 MSTORE DUP1 MLOAD SWAP1 PUSH1 0x20 ADD KECCAK256 DUP2 PUSH1 0x40 MLOAD PUSH1 0x20 ADD PUSH2 0x1D36 SWAP2 SWAP1 PUSH2 0x38F4 JUMP JUMPDEST PUSH1 0x40 MLOAD PUSH1 0x20 DUP2 DUP4 SUB SUB DUP2 MSTORE SWAP1 PUSH1 0x40 MSTORE DUP1 MLOAD SWAP1 PUSH1 0x20 ADD KECCAK256 EQ JUMPDEST DUP1 PUSH2 0x1DA2 JUMPI POP PUSH1 0x40 MLOAD PUSH1 0x20 ADD PUSH2 0x1D63 SWAP1 PUSH2 0x39B8 JUMP JUMPDEST PUSH1 0x40 MLOAD PUSH1 0x20 DUP2 DUP4 SUB SUB DUP2 MSTORE SWAP1 PUSH1 0x40 MSTORE DUP1 MLOAD SWAP1 PUSH1 0x20 ADD KECCAK256 DUP2 PUSH1 0x40 MLOAD PUSH1 0x20 ADD PUSH2 0x1D8A SWAP2 SWAP1 PUSH2 0x38F4 JUMP JUMPDEST PUSH1 0x40 MLOAD PUSH1 0x20 DUP2 DUP4 SUB SUB DUP2 MSTORE SWAP1 PUSH1 0x40 MSTORE DUP1 MLOAD SWAP1 PUSH1 0x20 ADD KECCAK256 EQ JUMPDEST PUSH2 0x1DE1 JUMPI PUSH1 0x40 MLOAD PUSH32 0x8C379A000000000000000000000000000000000000000000000000000000000 DUP2 MSTORE PUSH1 0x4 ADD PUSH2 0x1DD8 SWAP1 PUSH2 0x3A19 JUMP JUMPDEST PUSH1 0x40 MLOAD DUP1 SWAP2 SUB SWAP1 REVERT JUMPDEST PUSH1 0x40 MLOAD PUSH1 0x20 ADD PUSH2 0x1DF0 SWAP1 PUSH2 0x3879 JUMP JUMPDEST PUSH1 0x40 MLOAD PUSH1 0x20 DUP2 DUP4 SUB SUB DUP2 MSTORE SWAP1 PUSH1 0x40 MSTORE DUP1 MLOAD SWAP1 PUSH1 0x20 ADD KECCAK256 DUP2 PUSH1 0x40 MLOAD PUSH1 0x20 ADD PUSH2 0x1E17 SWAP2 SWAP1 PUSH2 0x38F4 JUMP JUMPDEST PUSH1 0x40 MLOAD PUSH1 0x20 DUP2 DUP4 SUB SUB DUP2 MSTORE SWAP1 PUSH1 0x40 MSTORE DUP1 MLOAD SWAP1 PUSH1 0x20 ADD KECCAK256 SUB PUSH2 0x2025 JUMPI PUSH1 0x1 PUSH1 0xD PUSH1 0x0 DUP7 PUSH20 0xFFFFFFFFFFFFFFFFFFFFFFFFFFFFFFFFFFFFFFFF AND PUSH20 0xFFFFFFFFFFFFFFFFFFFFFFFFFFFFFFFFFFFFFFFF AND DUP2 MSTORE PUSH1 0x20 ADD SWAP1 DUP2 MSTORE PUSH1 0x20 ADD PUSH1 0x0 KECCAK256 PUSH1 0x2 ADD SLOAD LT PUSH2 0x1EB7 JUMPI PUSH1 0x40 MLOAD PUSH32 0x8C379A000000000000000000000000000000000000000000000000000000000 DUP2 MSTORE PUSH1 0x4 ADD PUSH2 0x1EAE SWAP1 PUSH2 0x3C06 JUMP JUMPDEST PUSH1 0x40 MLOAD DUP1 SWAP2 SUB SWAP1 REVERT JUMPDEST PUSH1 0x0 PUSH2 0x4B0 DUP4 PUSH1 0x8 DUP7 PUSH2 0x1ECA SWAP2 SWAP1 PUSH2 0x3C26 JUMP JUMPDEST PUSH2 0x1ED4 SWAP2 SWAP1 PUSH2 0x3C26 JUMP JUMPDEST PUSH2 0x1EDE SWAP2 SWAP1 PUSH2 0x3C97 JUMP JUMPDEST SWAP1 POP DUP1 DUP5 PUSH2 0x1EEC SWAP2 SWAP1 PUSH2 0x37EE JUMP JUMPDEST PUSH1 0xD PUSH1 0x0 DUP8 PUSH20 0xFFFFFFFFFFFFFFFFFFFFFFFFFFFFFFFFFFFFFFFF AND PUSH20 0xFFFFFFFFFFFFFFFFFFFFFFFFFFFFFFFFFFFFFFFF AND DUP2 MSTORE PUSH1 0x20 ADD SWAP1 DUP2 MSTORE PUSH1 0x20 ADD PUSH1 0x0 KECCAK256 PUSH1 0x2 ADD DUP2 SWAP1 SSTORE POP DUP3 PUSH1 0xD PUSH1 0x0 DUP8 PUSH20 0xFFFFFFFFFFFFFFFFFFFFFFFFFFFFFFFFFFFFFFFF AND PUSH20 0xFFFFFFFFFFFFFFFFFFFFFFFFFFFFFFFFFFFFFFFF AND DUP2 MSTORE PUSH1 0x20 ADD SWAP1 DUP2 MSTORE PUSH1 0x20 ADD PUSH1 0x0 KECCAK256 PUSH1 0x2 ADD SLOAD PUSH2 0x1F80 SWAP2 SWAP1 PUSH2 0x3C97 JUMP JUMPDEST PUSH1 0xD PUSH1 0x0 DUP8 PUSH20 0xFFFFFFFFFFFFFFFFFFFFFFFFFFFFFFFFFFFFFFFF AND PUSH20 0xFFFFFFFFFFFFFFFFFFFFFFFFFFFFFFFFFFFFFFFF AND DUP2 MSTORE PUSH1 0x20 ADD SWAP1 DUP2 MSTORE PUSH1 0x20 ADD PUSH1 0x0 KECCAK256 PUSH1 0x5 ADD DUP2 SWAP1 SSTORE POP DUP3 PUSH1 0xD PUSH1 0x0 DUP8 PUSH20 0xFFFFFFFFFFFFFFFFFFFFFFFFFFFFFFFFFFFFFFFF AND PUSH20 0xFFFFFFFFFFFFFFFFFFFFFFFFFFFFFFFFFFFFFFFF AND DUP2 MSTORE PUSH1 0x20 ADD SWAP1 DUP2 MSTORE PUSH1 0x20 ADD PUSH1 0x0 KECCAK256 PUSH1 0x8 ADD PUSH1 0x0 DUP3 DUP3 SLOAD PUSH2 0x2018 SWAP2 SWAP1 PUSH2 0x37EE JUMP JUMPDEST SWAP3 POP POP DUP2 SWAP1 SSTORE POP POP PUSH2 0x24B7 JUMP JUMPDEST PUSH1 0x40 MLOAD PUSH1 0x20 ADD PUSH2 0x2034 SWAP1 PUSH2 0x3957 JUMP JUMPDEST PUSH1 0x40 MLOAD PUSH1 0x20 DUP2 DUP4 SUB SUB DUP2 MSTORE SWAP1 PUSH1 0x40 MSTORE DUP1 MLOAD SWAP1 PUSH1 0x20 ADD KECCAK256 DUP2 PUSH1 0x40 MLOAD PUSH1 0x20 ADD PUSH2 0x205B SWAP2 SWAP1 PUSH2 0x38F4 JUMP JUMPDEST PUSH1 0x40 MLOAD PUSH1 0x20 DUP2 DUP4 SUB SUB DUP2 MSTORE SWAP1 PUSH1 0x40 MSTORE DUP1 MLOAD SWAP1 PUSH1 0x20 ADD KECCAK256 SUB PUSH2 0x226F JUMPI PUSH1 0x1 PUSH1 0xD PUSH1 0x0 DUP7 PUSH20 0xFFFFFFFFFFFFFFFFFFFFFFFFFFFFFFFFFFFFFFFF AND PUSH20 0xFFFFFFFFFFFFFFFFFFFFFFFFFFFFFFFFFFFFFFFF AND DUP2 MSTORE PUSH1 0x20 ADD SWAP1 DUP2 MSTORE PUSH1 0x20 ADD PUSH1 0x0 KECCAK256 PUSH1 0x3 ADD SLOAD LT PUSH2 0x20FB JUMPI PUSH1 0x40 MLOAD PUSH32 0x8C379A000000000000000000000000000000000000000000000000000000000 DUP2 MSTORE PUSH1 0x4 ADD PUSH2 0x20F2 SWAP1 PUSH2 0x3D3A JUMP JUMPDEST PUSH1 0x40 MLOAD DUP1 SWAP2 SUB SWAP1 REVERT JUMPDEST PUSH1 0x0 PUSH2 0x4B0 DUP4 PUSH1 0x6 DUP7 PUSH2 0x210E SWAP2 SWAP1 PUSH2 0x3C26 JUMP JUMPDEST PUSH2 0x2118 SWAP2 SWAP1 PUSH2 0x3C26 JUMP JUMPDEST PUSH2 0x2122 SWAP2 SWAP1 PUSH2 0x3C97 JUMP JUMPDEST SWAP1 POP PUSH1 0x0 DUP2 DUP6 PUSH2 0x2132 SWAP2 SWAP1 PUSH2 0x37EE JUMP JUMPDEST SWAP1 POP DUP1 PUSH1 0xD PUSH1 0x0 DUP9 PUSH20 0xFFFFFFFFFFFFFFFFFFFFFFFFFFFFFFFFFFFFFFFF AND PUSH20 0xFFFFFFFFFFFFFFFFFFFFFFFFFFFFFFFFFFFFFFFF AND DUP2 MSTORE PUSH1 0x20 ADD SWAP1 DUP2 MSTORE PUSH1 0x20 ADD PUSH1 0x0 KECCAK256 PUSH1 0x3 ADD DUP2 SWAP1 SSTORE POP DUP4 PUSH1 0xD PUSH1 0x0 DUP9 PUSH20 0xFFFFFFFFFFFFFFFFFFFFFFFFFFFFFFFFFFFFFFFF AND PUSH20 0xFFFFFFFFFFFFFFFFFFFFFFFFFFFFFFFFFFFFFFFF AND DUP2 MSTORE PUSH1 0x20 ADD SWAP1 DUP2 MSTORE PUSH1 0x20 ADD PUSH1 0x0 KECCAK256 PUSH1 0x3 ADD SLOAD PUSH2 0x21C9 SWAP2 SWAP1 PUSH2 0x3C97 JUMP JUMPDEST PUSH1 0xD PUSH1 0x0 DUP9 PUSH20 0xFFFFFFFFFFFFFFFFFFFFFFFFFFFFFFFFFFFFFFFF AND PUSH20 0xFFFFFFFFFFFFFFFFFFFFFFFFFFFFFFFFFFFFFFFF AND DUP2 MSTORE PUSH1 0x20 ADD SWAP1 DUP2 MSTORE PUSH1 0x20 ADD PUSH1 0x0 KECCAK256 PUSH1 0x6 ADD DUP2 SWAP1 SSTORE POP DUP4 PUSH1 0xD PUSH1 0x0 DUP9 PUSH20 0xFFFFFFFFFFFFFFFFFFFFFFFFFFFFFFFFFFFFFFFF AND PUSH20 0xFFFFFFFFFFFFFFFFFFFFFFFFFFFFFFFFFFFFFFFF AND DUP2 MSTORE PUSH1 0x20 ADD SWAP1 DUP2 MSTORE PUSH1 0x20 ADD PUSH1 0x0 KECCAK256 PUSH1 0x9 ADD PUSH1 0x0 DUP3 DUP3 SLOAD PUSH2 0x2261 SWAP2 SWAP1 PUSH2 0x37EE JUMP JUMPDEST SWAP3 POP POP DUP2 SWAP1 SSTORE POP POP POP PUSH2 0x24B6 JUMP JUMPDEST PUSH1 0x40 MLOAD PUSH1 0x20 ADD PUSH2 0x227E SWAP1 PUSH2 0x39B8 JUMP JUMPDEST PUSH1 0x40 MLOAD PUSH1 0x20 DUP2 DUP4 SUB SUB DUP2 MSTORE SWAP1 PUSH1 0x40 MSTORE DUP1 MLOAD SWAP1 PUSH1 0x20 ADD KECCAK256 DUP2 PUSH1 0x40 MLOAD PUSH1 0x20 ADD PUSH2 0x22A5 SWAP2 SWAP1 PUSH2 0x38F4 JUMP JUMPDEST PUSH1 0x40 MLOAD PUSH1 0x20 DUP2 DUP4 SUB SUB DUP2 MSTORE SWAP1 PUSH1 0x40 MSTORE DUP1 MLOAD SWAP1 PUSH1 0x20 ADD KECCAK256 SUB PUSH2 0x24B5 JUMPI PUSH1 0x1 PUSH1 0xD PUSH1 0x0 DUP7 PUSH20 0xFFFFFFFFFFFFFFFFFFFFFFFFFFFFFFFFFFFFFFFF AND PUSH20 0xFFFFFFFFFFFFFFFFFFFFFFFFFFFFFFFFFFFFFFFF AND DUP2 MSTORE PUSH1 0x20 ADD SWAP1 DUP2 MSTORE PUSH1 0x20 ADD PUSH1 0x0 KECCAK256 PUSH1 0x4 ADD SLOAD LT PUSH2 0x2345 JUMPI PUSH1 0x40 MLOAD PUSH32 0x8C379A000000000000000000000000000000000000000000000000000000000 DUP2 MSTORE PUSH1 0x4 ADD PUSH2 0x233C SWAP1 PUSH2 0x3DCC JUMP JUMPDEST PUSH1 0x40 MLOAD DUP1 SWAP2 SUB SWAP1 REVERT JUMPDEST PUSH1 0x0 PUSH2 0x4B0 DUP4 PUSH1 0xA DUP7 PUSH2 0x2358 SWAP2 SWAP1 PUSH2 0x3C26 JUMP JUMPDEST PUSH2 0x2362 SWAP2 SWAP1 PUSH2 0x3C26 JUMP JUMPDEST PUSH2 0x236C SWAP2 SWAP1 PUSH2 0x3C97 JUMP JUMPDEST SWAP1 POP PUSH1 0x0 DUP2 DUP6 PUSH2 0x237C SWAP2 SWAP1 PUSH2 0x37EE JUMP JUMPDEST SWAP1 POP DUP1 PUSH1 0xD PUSH1 0x0 DUP9 PUSH20 0xFFFFFFFFFFFFFFFFFFFFFFFFFFFFFFFFFFFFFFFF AND PUSH20 0xFFFFFFFFFFFFFFFFFFFFFFFFFFFFFFFFFFFFFFFF AND DUP2 MSTORE PUSH1 0x20 ADD SWAP1 DUP2 MSTORE PUSH1 0x20 ADD PUSH1 0x0 KECCAK256 PUSH1 0x4 ADD DUP2 SWAP1 SSTORE POP DUP4 PUSH1 0xD PUSH1 0x0 DUP9 PUSH20 0xFFFFFFFFFFFFFFFFFFFFFFFFFFFFFFFFFFFFFFFF AND PUSH20 0xFFFFFFFFFFFFFFFFFFFFFFFFFFFFFFFFFFFFFFFF AND DUP2 MSTORE PUSH1 0x20 ADD SWAP1 DUP2 MSTORE PUSH1 0x20 ADD PUSH1 0x0 KECCAK256 PUSH1 0x4 ADD SLOAD PUSH2 0x2413 SWAP2 SWAP1 PUSH2 0x3C97 JUMP JUMPDEST PUSH1 0xD PUSH1 0x0 DUP9 PUSH20 0xFFFFFFFFFFFFFFFFFFFFFFFFFFFFFFFFFFFFFFFF AND PUSH20 0xFFFFFFFFFFFFFFFFFFFFFFFFFFFFFFFFFFFFFFFF AND DUP2 MSTORE PUSH1 0x20 ADD SWAP1 DUP2 MSTORE PUSH1 0x20 ADD PUSH1 0x0 KECCAK256 PUSH1 0x7 ADD DUP2 SWAP1 SSTORE POP DUP4 PUSH1 0xD PUSH1 0x0 DUP9 PUSH20 0xFFFFFFFFFFFFFFFFFFFFFFFFFFFFFFFFFFFFFFFF AND PUSH20 0xFFFFFFFFFFFFFFFFFFFFFFFFFFFFFFFFFFFFFFFF AND DUP2 MSTORE PUSH1 0x20 ADD SWAP1 DUP2 MSTORE PUSH1 0x20 ADD PUSH1 0x0 KECCAK256 PUSH1 0xA ADD PUSH1 0x0 DUP3 DUP3 SLOAD PUSH2 0x24AB SWAP2 SWAP1 PUSH2 0x37EE JUMP JUMPDEST SWAP3 POP POP DUP2 SWAP1 SSTORE POP POP POP JUMPDEST JUMPDEST JUMPDEST PUSH1 0x40 MLOAD DUP1 PUSH2 0x180 ADD PUSH1 0x40 MSTORE DUP1 PUSH1 0xD PUSH1 0x0 DUP8 PUSH20 0xFFFFFFFFFFFFFFFFFFFFFFFFFFFFFFFFFFFFFFFF AND PUSH20 0xFFFFFFFFFFFFFFFFFFFFFFFFFFFFFFFFFFFFFFFF AND DUP2 MSTORE PUSH1 0x20 ADD SWAP1 DUP2 MSTORE PUSH1 0x20 ADD PUSH1 0x0 KECCAK256 PUSH1 0x0 ADD PUSH1 0x0 SWAP1 SLOAD SWAP1 PUSH2 0x100 EXP SWAP1 DIV PUSH20 0xFFFFFFFFFFFFFFFFFFFFFFFFFFFFFFFFFFFFFFFF AND PUSH20 0xFFFFFFFFFFFFFFFFFFFFFFFFFFFFFFFFFFFFFFFF AND DUP2 MSTORE PUSH1 0x20 ADD PUSH1 0xD PUSH1 0x0 DUP8 PUSH20 0xFFFFFFFFFFFFFFFFFFFFFFFFFFFFFFFFFFFFFFFF AND PUSH20 0xFFFFFFFFFFFFFFFFFFFFFFFFFFFFFFFFFFFFFFFF AND DUP2 MSTORE PUSH1 0x20 ADD SWAP1 DUP2 MSTORE PUSH1 0x20 ADD PUSH1 0x0 KECCAK256 PUSH1 0x1 ADD SLOAD DUP2 MSTORE PUSH1 0x20 ADD PUSH1 0xD PUSH1 0x0 DUP8 PUSH20 0xFFFFFFFFFFFFFFFFFFFFFFFFFFFFFFFFFFFFFFFF AND PUSH20 0xFFFFFFFFFFFFFFFFFFFFFFFFFFFFFFFFFFFFFFFF AND DUP2 MSTORE PUSH1 0x20 ADD SWAP1 DUP2 MSTORE PUSH1 0x20 ADD PUSH1 0x0 KECCAK256 PUSH1 0x2 ADD SLOAD DUP2 MSTORE PUSH1 0x20 ADD PUSH1 0xD PUSH1 0x0 DUP8 PUSH20 0xFFFFFFFFFFFFFFFFFFFFFFFFFFFFFFFFFFFFFFFF AND PUSH20 0xFFFFFFFFFFFFFFFFFFFFFFFFFFFFFFFFFFFFFFFF AND DUP2 MSTORE PUSH1 0x20 ADD SWAP1 DUP2 MSTORE PUSH1 0x20 ADD PUSH1 0x0 KECCAK256 PUSH1 0x3 ADD SLOAD DUP2 MSTORE PUSH1 0x20 ADD PUSH1 0xD PUSH1 0x0 DUP8 PUSH20 0xFFFFFFFFFFFFFFFFFFFFFFFFFFFFFFFFFFFFFFFF AND PUSH20 0xFFFFFFFFFFFFFFFFFFFFFFFFFFFFFFFFFFFFFFFF AND DUP2 MSTORE PUSH1 0x20 ADD SWAP1 DUP2 MSTORE PUSH1 0x20 ADD PUSH1 0x0 KECCAK256 PUSH1 0x4 ADD SLOAD DUP2 MSTORE PUSH1 0x20 ADD PUSH1 0xD PUSH1 0x0 DUP8 PUSH20 0xFFFFFFFFFFFFFFFFFFFFFFFFFFFFFFFFFFFFFFFF AND PUSH20 0xFFFFFFFFFFFFFFFFFFFFFFFFFFFFFFFFFFFFFFFF AND DUP2 MSTORE PUSH1 0x20 ADD SWAP1 DUP2 MSTORE PUSH1 0x20 ADD PUSH1 0x0 KECCAK256 PUSH1 0x5 ADD SLOAD DUP2 MSTORE PUSH1 0x20 ADD PUSH1 0xD PUSH1 0x0 DUP8 PUSH20 0xFFFFFFFFFFFFFFFFFFFFFFFFFFFFFFFFFFFFFFFF AND PUSH20 0xFFFFFFFFFFFFFFFFFFFFFFFFFFFFFFFFFFFFFFFF AND DUP2 MSTORE PUSH1 0x20 ADD SWAP1 DUP2 MSTORE PUSH1 0x20 ADD PUSH1 0x0 KECCAK256 PUSH1 0x6 ADD SLOAD DUP2 MSTORE PUSH1 0x20 ADD PUSH1 0xD PUSH1 0x0 DUP8 PUSH20 0xFFFFFFFFFFFFFFFFFFFFFFFFFFFFFFFFFFFFFFFF AND PUSH20 0xFFFFFFFFFFFFFFFFFFFFFFFFFFFFFFFFFFFFFFFF AND DUP2 MSTORE PUSH1 0x20 ADD SWAP1 DUP2 MSTORE PUSH1 0x20 ADD PUSH1 0x0 KECCAK256 PUSH1 0x7 ADD SLOAD DUP2 MSTORE PUSH1 0x20 ADD PUSH1 0xD PUSH1 0x0 DUP8 PUSH20 0xFFFFFFFFFFFFFFFFFFFFFFFFFFFFFFFFFFFFFFFF AND PUSH20 0xFFFFFFFFFFFFFFFFFFFFFFFFFFFFFFFFFFFFFFFF AND DUP2 MSTORE PUSH1 0x20 ADD SWAP1 DUP2 MSTORE PUSH1 0x20 ADD PUSH1 0x0 KECCAK256 PUSH1 0x8 ADD SLOAD DUP2 MSTORE PUSH1 0x20 ADD PUSH1 0xD PUSH1 0x0 DUP8 PUSH20 0xFFFFFFFFFFFFFFFFFFFFFFFFFFFFFFFFFFFFFFFF AND PUSH20 0xFFFFFFFFFFFFFFFFFFFFFFFFFFFFFFFFFFFFFFFF AND DUP2 MSTORE PUSH1 0x20 ADD SWAP1 DUP2 MSTORE PUSH1 0x20 ADD PUSH1 0x0 KECCAK256 PUSH1 0x9 ADD SLOAD DUP2 MSTORE PUSH1 0x20 ADD PUSH1 0xD PUSH1 0x0 DUP8 PUSH20 0xFFFFFFFFFFFFFFFFFFFFFFFFFFFFFFFFFFFFFFFF AND PUSH20 0xFFFFFFFFFFFFFFFFFFFFFFFFFFFFFFFFFFFFFFFF AND DUP2 MSTORE PUSH1 0x20 ADD SWAP1 DUP2 MSTORE PUSH1 0x20 ADD PUSH1 0x0 KECCAK256 PUSH1 0xA ADD SLOAD DUP2 MSTORE PUSH1 0x20 ADD PUSH1 0xD PUSH1 0x0 DUP8 PUSH20 0xFFFFFFFFFFFFFFFFFFFFFFFFFFFFFFFFFFFFFFFF AND PUSH20 0xFFFFFFFFFFFFFFFFFFFFFFFFFFFFFFFFFFFFFFFF AND DUP2 MSTORE PUSH1 0x20 ADD SWAP1 DUP2 MSTORE PUSH1 0x20 ADD PUSH1 0x0 KECCAK256 PUSH1 0xB ADD SLOAD DUP2 MSTORE POP PUSH1 0xD PUSH1 0x0 DUP7 PUSH20 0xFFFFFFFFFFFFFFFFFFFFFFFFFFFFFFFFFFFFFFFF AND PUSH20 0xFFFFFFFFFFFFFFFFFFFFFFFFFFFFFFFFFFFFFFFF AND DUP2 MSTORE PUSH1 0x20 ADD SWAP1 DUP2 MSTORE PUSH1 0x20 ADD PUSH1 0x0 KECCAK256 PUSH1 0x0 DUP3 ADD MLOAD DUP2 PUSH1 0x0 ADD PUSH1 0x0 PUSH2 0x100 EXP DUP2 SLOAD DUP2 PUSH20 0xFFFFFFFFFFFFFFFFFFFFFFFFFFFFFFFFFFFFFFFF MUL NOT AND SWAP1 DUP4 PUSH20 0xFFFFFFFFFFFFFFFFFFFFFFFFFFFFFFFFFFFFFFFF AND MUL OR SWAP1 SSTORE POP PUSH1 0x20 DUP3 ADD MLOAD DUP2 PUSH1 0x1 ADD SSTORE PUSH1 0x40 DUP3 ADD MLOAD DUP2 PUSH1 0x2 ADD SSTORE PUSH1 0x60 DUP3 ADD MLOAD DUP2 PUSH1 0x3 ADD SSTORE PUSH1 0x80 DUP3 ADD MLOAD DUP2 PUSH1 0x4 ADD SSTORE PUSH1 0xA0 DUP3 ADD MLOAD DUP2 PUSH1 0x5 ADD SSTORE PUSH1 0xC0 DUP3 ADD MLOAD DUP2 PUSH1 0x6 ADD SSTORE PUSH1 0xE0 DUP3 ADD MLOAD DUP2 PUSH1 0x7 ADD SSTORE PUSH2 0x100 DUP3 ADD MLOAD DUP2 PUSH1 0x8 ADD SSTORE PUSH2 0x120 DUP3 ADD MLOAD DUP2 PUSH1 0x9 ADD SSTORE PUSH2 0x140 DUP3 ADD MLOAD DUP2 PUSH1 0xA ADD SSTORE PUSH2 0x160 DUP3 ADD MLOAD DUP2 PUSH1 0xB ADD SSTORE SWAP1 POP POP POP POP POP POP JUMP JUMPDEST PUSH1 0xC PUSH1 0x0 SWAP1 SLOAD SWAP1 PUSH2 0x100 EXP SWAP1 DIV PUSH20 0xFFFFFFFFFFFFFFFFFFFFFFFFFFFFFFFFFFFFFFFF AND PUSH20 0xFFFFFFFFFFFFFFFFFFFFFFFFFFFFFFFFFFFFFFFF AND CALLER PUSH20 0xFFFFFFFFFFFFFFFFFFFFFFFFFFFFFFFFFFFFFFFF AND EQ PUSH2 0x29E8 JUMPI PUSH1 0x40 MLOAD PUSH32 0x8C379A000000000000000000000000000000000000000000000000000000000 DUP2 MSTORE PUSH1 0x4 ADD PUSH2 0x29DF SWAP1 PUSH2 0x3E5E JUMP JUMPDEST PUSH1 0x40 MLOAD DUP1 SWAP2 SUB SWAP1 REVERT JUMPDEST ADDRESS PUSH20 0xFFFFFFFFFFFFFFFFFFFFFFFFFFFFFFFFFFFFFFFF AND PUSH2 0x8FC CALLVALUE SWAP1 DUP2 ISZERO MUL SWAP1 PUSH1 0x40 MLOAD PUSH1 0x0 PUSH1 0x40 MLOAD DUP1 DUP4 SUB DUP2 DUP6 DUP9 DUP9 CALL SWAP4 POP POP POP POP ISZERO DUP1 ISZERO PUSH2 0x2A2E JUMPI RETURNDATASIZE PUSH1 0x0 DUP1 RETURNDATACOPY RETURNDATASIZE PUSH1 0x0 REVERT JUMPDEST POP JUMP JUMPDEST PUSH1 0xD PUSH1 0x20 MSTORE DUP1 PUSH1 0x0 MSTORE PUSH1 0x40 PUSH1 0x0 KECCAK256 PUSH1 0x0 SWAP2 POP SWAP1 POP DUP1 PUSH1 0x0 ADD PUSH1 0x0 SWAP1 SLOAD SWAP1 PUSH2 0x100 EXP SWAP1 DIV PUSH20 0xFFFFFFFFFFFFFFFFFFFFFFFFFFFFFFFFFFFFFFFF AND SWAP1 DUP1 PUSH1 0x1 ADD SLOAD SWAP1 DUP1 PUSH1 0x2 ADD SLOAD SWAP1 DUP1 PUSH1 0x3 ADD SLOAD SWAP1 DUP1 PUSH1 0x4 ADD SLOAD SWAP1 DUP1 PUSH1 0x5 ADD SLOAD SWAP1 DUP1 PUSH1 0x6 ADD SLOAD SWAP1 DUP1 PUSH1 0x7 ADD SLOAD SWAP1 DUP1 PUSH1 0x8 ADD SLOAD SWAP1 DUP1 PUSH1 0x9 ADD SLOAD SWAP1 DUP1 PUSH1 0xA ADD SLOAD SWAP1 DUP1 PUSH1 0xB ADD SLOAD SWAP1 POP DUP13 JUMP JUMPDEST PUSH1 0x0 DUP1 PUSH1 0x0 DUP1 PUSH20 0xFFFFFFFFFFFFFFFFFFFFFFFFFFFFFFFFFFFFFFFF AND DUP5 PUSH20 0xFFFFFFFFFFFFFFFFFFFFFFFFFFFFFFFFFFFFFFFF AND SUB PUSH2 0x2B24 JUMPI PUSH1 0x40 MLOAD PUSH32 0x8C379A000000000000000000000000000000000000000000000000000000000 DUP2 MSTORE PUSH1 0x4 ADD PUSH2 0x2B1B SWAP1 PUSH2 0x3733 JUMP JUMPDEST PUSH1 0x40 MLOAD DUP1 SWAP2 SUB SWAP1 REVERT JUMPDEST PUSH1 0xD PUSH1 0x0 DUP6 PUSH20 0xFFFFFFFFFFFFFFFFFFFFFFFFFFFFFFFFFFFFFFFF AND PUSH20 0xFFFFFFFFFFFFFFFFFFFFFFFFFFFFFFFFFFFFFFFF AND DUP2 MSTORE PUSH1 0x20 ADD SWAP1 DUP2 MSTORE PUSH1 0x20 ADD PUSH1 0x0 KECCAK256 PUSH1 0x3 ADD SLOAD PUSH1 0xD PUSH1 0x0 DUP7 PUSH20 0xFFFFFFFFFFFFFFFFFFFFFFFFFFFFFFFFFFFFFFFF AND PUSH20 0xFFFFFFFFFFFFFFFFFFFFFFFFFFFFFFFFFFFFFFFF AND DUP2 MSTORE PUSH1 0x20 ADD SWAP1 DUP2 MSTORE PUSH1 0x20 ADD PUSH1 0x0 KECCAK256 PUSH1 0x6 ADD SLOAD PUSH1 0xD PUSH1 0x0 DUP8 PUSH20 0xFFFFFFFFFFFFFFFFFFFFFFFFFFFFFFFFFFFFFFFF AND PUSH20 0xFFFFFFFFFFFFFFFFFFFFFFFFFFFFFFFFFFFFFFFF AND DUP2 MSTORE PUSH1 0x20 ADD SWAP1 DUP2 MSTORE PUSH1 0x20 ADD PUSH1 0x0 KECCAK256 PUSH1 0x9 ADD SLOAD SWAP3 POP SWAP3 POP SWAP3 POP SWAP2 SWAP4 SWAP1 SWAP3 POP JUMP JUMPDEST PUSH1 0x0 DUP2 GT DUP1 ISZERO PUSH2 0x2C4B JUMPI POP PUSH1 0xD PUSH1 0x0 DUP4 PUSH20 0xFFFFFFFFFFFFFFFFFFFFFFFFFFFFFFFFFFFFFFFF AND PUSH20 0xFFFFFFFFFFFFFFFFFFFFFFFFFFFFFFFFFFFFFFFF AND DUP2 MSTORE PUSH1 0x20 ADD SWAP1 DUP2 MSTORE PUSH1 0x20 ADD PUSH1 0x0 KECCAK256 PUSH1 0x1 ADD SLOAD DUP2 LT JUMPDEST PUSH2 0x2C8A JUMPI PUSH1 0x40 MLOAD PUSH32 0x8C379A000000000000000000000000000000000000000000000000000000000 DUP2 MSTORE PUSH1 0x4 ADD PUSH2 0x2C81 SWAP1 PUSH2 0x3ECA JUMP JUMPDEST PUSH1 0x40 MLOAD DUP1 SWAP2 SUB SWAP1 REVERT JUMPDEST PUSH1 0x0 PUSH20 0xFFFFFFFFFFFFFFFFFFFFFFFFFFFFFFFFFFFFFFFF AND DUP3 PUSH20 0xFFFFFFFFFFFFFFFFFFFFFFFFFFFFFFFFFFFFFFFF AND SUB PUSH2 0x2CF9 JUMPI PUSH1 0x40 MLOAD PUSH32 0x8C379A000000000000000000000000000000000000000000000000000000000 DUP2 MSTORE PUSH1 0x4 ADD PUSH2 0x2CF0 SWAP1 PUSH2 0x3733 JUMP JUMPDEST PUSH1 0x40 MLOAD DUP1 SWAP2 SUB SWAP1 REVERT JUMPDEST PUSH1 0x0 DUP2 SUB PUSH2 0x2D3C JUMPI PUSH1 0x40 MLOAD PUSH32 0x8C379A000000000000000000000000000000000000000000000000000000000 DUP2 MSTORE PUSH1 0x4 ADD PUSH2 0x2D33 SWAP1 PUSH2 0x379F JUMP JUMPDEST PUSH1 0x40 MLOAD DUP1 SWAP2 SUB SWAP1 REVERT JUMPDEST DUP1 PUSH1 0xD PUSH1 0x0 DUP5 PUSH20 0xFFFFFFFFFFFFFFFFFFFFFFFFFFFFFFFFFFFFFFFF AND PUSH20 0xFFFFFFFFFFFFFFFFFFFFFFFFFFFFFFFFFFFFFFFF AND DUP2 MSTORE PUSH1 0x20 ADD SWAP1 DUP2 MSTORE PUSH1 0x20 ADD PUSH1 0x0 KECCAK256 PUSH1 0x1 ADD PUSH1 0x0 DUP3 DUP3 SLOAD PUSH2 0x2D8E SWAP2 SWAP1 PUSH2 0x3A39 JUMP JUMPDEST SWAP3 POP POP DUP2 SWAP1 SSTORE POP PUSH1 0x40 MLOAD DUP1 PUSH2 0x180 ADD PUSH1 0x40 MSTORE DUP1 PUSH1 0xD PUSH1 0x0 DUP6 PUSH20 0xFFFFFFFFFFFFFFFFFFFFFFFFFFFFFFFFFFFFFFFF AND PUSH20 0xFFFFFFFFFFFFFFFFFFFFFFFFFFFFFFFFFFFFFFFF AND DUP2 MSTORE PUSH1 0x20 ADD SWAP1 DUP2 MSTORE PUSH1 0x20 ADD PUSH1 0x0 KECCAK256 PUSH1 0x0 ADD PUSH1 0x0 SWAP1 SLOAD SWAP1 PUSH2 0x100 EXP SWAP1 DIV PUSH20 0xFFFFFFFFFFFFFFFFFFFFFFFFFFFFFFFFFFFFFFFF AND PUSH20 0xFFFFFFFFFFFFFFFFFFFFFFFFFFFFFFFFFFFFFFFF AND DUP2 MSTORE PUSH1 0x20 ADD PUSH1 0xD PUSH1 0x0 DUP6 PUSH20 0xFFFFFFFFFFFFFFFFFFFFFFFFFFFFFFFFFFFFFFFF AND PUSH20 0xFFFFFFFFFFFFFFFFFFFFFFFFFFFFFFFFFFFFFFFF AND DUP2 MSTORE PUSH1 0x20 ADD SWAP1 DUP2 MSTORE PUSH1 0x20 ADD PUSH1 0x0 KECCAK256 PUSH1 0x1 ADD SLOAD DUP2 MSTORE PUSH1 0x20 ADD PUSH1 0xD PUSH1 0x0 DUP6 PUSH20 0xFFFFFFFFFFFFFFFFFFFFFFFFFFFFFFFFFFFFFFFF AND PUSH20 0xFFFFFFFFFFFFFFFFFFFFFFFFFFFFFFFFFFFFFFFF AND DUP2 MSTORE PUSH1 0x20 ADD SWAP1 DUP2 MSTORE PUSH1 0x20 ADD PUSH1 0x0 KECCAK256 PUSH1 0x2 ADD SLOAD DUP2 MSTORE PUSH1 0x20 ADD PUSH1 0xD PUSH1 0x0 DUP6 PUSH20 0xFFFFFFFFFFFFFFFFFFFFFFFFFFFFFFFFFFFFFFFF AND PUSH20 0xFFFFFFFFFFFFFFFFFFFFFFFFFFFFFFFFFFFFFFFF AND DUP2 MSTORE PUSH1 0x20 ADD SWAP1 DUP2 MSTORE PUSH1 0x20 ADD PUSH1 0x0 KECCAK256 PUSH1 0x3 ADD SLOAD DUP2 MSTORE PUSH1 0x20 ADD PUSH1 0xD PUSH1 0x0 DUP6 PUSH20 0xFFFFFFFFFFFFFFFFFFFFFFFFFFFFFFFFFFFFFFFF AND PUSH20 0xFFFFFFFFFFFFFFFFFFFFFFFFFFFFFFFFFFFFFFFF AND DUP2 MSTORE PUSH1 0x20 ADD SWAP1 DUP2 MSTORE PUSH1 0x20 ADD PUSH1 0x0 KECCAK256 PUSH1 0x4 ADD SLOAD DUP2 MSTORE PUSH1 0x20 ADD PUSH1 0xD PUSH1 0x0 DUP6 PUSH20 0xFFFFFFFFFFFFFFFFFFFFFFFFFFFFFFFFFFFFFFFF AND PUSH20 0xFFFFFFFFFFFFFFFFFFFFFFFFFFFFFFFFFFFFFFFF AND DUP2 MSTORE PUSH1 0x20 ADD SWAP1 DUP2 MSTORE PUSH1 0x20 ADD PUSH1 0x0 KECCAK256 PUSH1 0x5 ADD SLOAD DUP2 MSTORE PUSH1 0x20 ADD PUSH1 0xD PUSH1 0x0 DUP6 PUSH20 0xFFFFFFFFFFFFFFFFFFFFFFFFFFFFFFFFFFFFFFFF AND PUSH20 0xFFFFFFFFFFFFFFFFFFFFFFFFFFFFFFFFFFFFFFFF AND DUP2 MSTORE PUSH1 0x20 ADD SWAP1 DUP2 MSTORE PUSH1 0x20 ADD PUSH1 0x0 KECCAK256 PUSH1 0x6 ADD SLOAD DUP2 MSTORE PUSH1 0x20 ADD PUSH1 0xD PUSH1 0x0 DUP6 PUSH20 0xFFFFFFFFFFFFFFFFFFFFFFFFFFFFFFFFFFFFFFFF AND PUSH20 0xFFFFFFFFFFFFFFFFFFFFFFFFFFFFFFFFFFFFFFFF AND DUP2 MSTORE PUSH1 0x20 ADD SWAP1 DUP2 MSTORE PUSH1 0x20 ADD PUSH1 0x0 KECCAK256 PUSH1 0x7 ADD SLOAD DUP2 MSTORE PUSH1 0x20 ADD PUSH1 0xD PUSH1 0x0 DUP6 PUSH20 0xFFFFFFFFFFFFFFFFFFFFFFFFFFFFFFFFFFFFFFFF AND PUSH20 0xFFFFFFFFFFFFFFFFFFFFFFFFFFFFFFFFFFFFFFFF AND DUP2 MSTORE PUSH1 0x20 ADD SWAP1 DUP2 MSTORE PUSH1 0x20 ADD PUSH1 0x0 KECCAK256 PUSH1 0x8 ADD SLOAD DUP2 MSTORE PUSH1 0x20 ADD PUSH1 0xD PUSH1 0x0 DUP6 PUSH20 0xFFFFFFFFFFFFFFFFFFFFFFFFFFFFFFFFFFFFFFFF AND PUSH20 0xFFFFFFFFFFFFFFFFFFFFFFFFFFFFFFFFFFFFFFFF AND DUP2 MSTORE PUSH1 0x20 ADD SWAP1 DUP2 MSTORE PUSH1 0x20 ADD PUSH1 0x0 KECCAK256 PUSH1 0x9 ADD SLOAD DUP2 MSTORE PUSH1 0x20 ADD PUSH1 0xD PUSH1 0x0 DUP6 PUSH20 0xFFFFFFFFFFFFFFFFFFFFFFFFFFFFFFFFFFFFFFFF AND PUSH20 0xFFFFFFFFFFFFFFFFFFFFFFFFFFFFFFFFFFFFFFFF AND DUP2 MSTORE PUSH1 0x20 ADD SWAP1 DUP2 MSTORE PUSH1 0x20 ADD PUSH1 0x0 KECCAK256 PUSH1 0xA ADD SLOAD DUP2 MSTORE PUSH1 0x20 ADD PUSH1 0xD PUSH1 0x0 DUP6 PUSH20 0xFFFFFFFFFFFFFFFFFFFFFFFFFFFFFFFFFFFFFFFF AND PUSH20 0xFFFFFFFFFFFFFFFFFFFFFFFFFFFFFFFFFFFFFFFF AND DUP2 MSTORE PUSH1 0x20 ADD SWAP1 DUP2 MSTORE PUSH1 0x20 ADD PUSH1 0x0 KECCAK256 PUSH1 0xB ADD SLOAD DUP2 MSTORE POP PUSH1 0xD PUSH1 0x0 DUP5 PUSH20 0xFFFFFFFFFFFFFFFFFFFFFFFFFFFFFFFFFFFFFFFF AND PUSH20 0xFFFFFFFFFFFFFFFFFFFFFFFFFFFFFFFFFFFFFFFF AND DUP2 MSTORE PUSH1 0x20 ADD SWAP1 DUP2 MSTORE PUSH1 0x20 ADD PUSH1 0x0 KECCAK256 PUSH1 0x0 DUP3 ADD MLOAD DUP2 PUSH1 0x0 ADD PUSH1 0x0 PUSH2 0x100 EXP DUP2 SLOAD DUP2 PUSH20 0xFFFFFFFFFFFFFFFFFFFFFFFFFFFFFFFFFFFFFFFF MUL NOT AND SWAP1 DUP4 PUSH20 0xFFFFFFFFFFFFFFFFFFFFFFFFFFFFFFFFFFFFFFFF AND MUL OR SWAP1 SSTORE POP PUSH1 0x20 DUP3 ADD MLOAD DUP2 PUSH1 0x1 ADD SSTORE PUSH1 0x40 DUP3 ADD MLOAD DUP2 PUSH1 0x2 ADD SSTORE PUSH1 0x60 DUP3 ADD MLOAD DUP2 PUSH1 0x3 ADD SSTORE PUSH1 0x80 DUP3 ADD MLOAD DUP2 PUSH1 0x4 ADD SSTORE PUSH1 0xA0 DUP3 ADD MLOAD DUP2 PUSH1 0x5 ADD SSTORE PUSH1 0xC0 DUP3 ADD MLOAD DUP2 PUSH1 0x6 ADD SSTORE PUSH1 0xE0 DUP3 ADD MLOAD DUP2 PUSH1 0x7 ADD SSTORE PUSH2 0x100 DUP3 ADD MLOAD DUP2 PUSH1 0x8 ADD SSTORE PUSH2 0x120 DUP3 ADD MLOAD DUP2 PUSH1 0x9 ADD SSTORE PUSH2 0x140 DUP3 ADD MLOAD DUP2 PUSH1 0xA ADD SSTORE PUSH2 0x160 DUP3 ADD MLOAD DUP2 PUSH1 0xB ADD SSTORE SWAP1 POP POP POP POP JUMP JUMPDEST PUSH1 0x0 PUSH20 0xFFFFFFFFFFFFFFFFFFFFFFFFFFFFFFFFFFFFFFFF DUP3 AND SWAP1 POP SWAP2 SWAP1 POP JUMP JUMPDEST PUSH1 0x0 PUSH2 0x325F DUP3 PUSH2 0x3234 JUMP JUMPDEST SWAP1 POP SWAP2 SWAP1 POP JUMP JUMPDEST PUSH2 0x326F DUP2 PUSH2 0x3254 JUMP JUMPDEST DUP3 MSTORE POP POP JUMP JUMPDEST PUSH1 0x0 DUP2 SWAP1 POP SWAP2 SWAP1 POP JUMP JUMPDEST PUSH2 0x3288 DUP2 PUSH2 0x3275 JUMP JUMPDEST DUP3 MSTORE POP POP JUMP JUMPDEST PUSH1 0x0 PUSH2 0x180 DUP3 ADD SWAP1 POP PUSH2 0x32A4 PUSH1 0x0 DUP4 ADD DUP16 PUSH2 0x3266 JUMP JUMPDEST PUSH2 0x32B1 PUSH1 0x20 DUP4 ADD DUP15 PUSH2 0x327F JUMP JUMPDEST PUSH2 0x32BE PUSH1 0x40 DUP4 ADD DUP14 PUSH2 0x327F JUMP JUMPDEST PUSH2 0x32CB PUSH1 0x60 DUP4 ADD DUP13 PUSH2 0x327F JUMP JUMPDEST PUSH2 0x32D8 PUSH1 0x80 DUP4 ADD DUP12 PUSH2 0x327F JUMP JUMPDEST PUSH2 0x32E5 PUSH1 0xA0 DUP4 ADD DUP11 PUSH2 0x327F JUMP JUMPDEST PUSH2 0x32F2 PUSH1 0xC0 DUP4 ADD DUP10 PUSH2 0x327F JUMP JUMPDEST PUSH2 0x32FF PUSH1 0xE0 DUP4 ADD DUP9 PUSH2 0x327F JUMP JUMPDEST PUSH2 0x330D PUSH2 0x100 DUP4 ADD DUP8 PUSH2 0x327F JUMP JUMPDEST PUSH2 0x331B PUSH2 0x120 DUP4 ADD DUP7 PUSH2 0x327F JUMP JUMPDEST PUSH2 0x3329 PUSH2 0x140 DUP4 ADD DUP6 PUSH2 0x327F JUMP JUMPDEST PUSH2 0x3337 PUSH2 0x160 DUP4 ADD DUP5 PUSH2 0x327F JUMP JUMPDEST SWAP14 SWAP13 POP POP POP POP POP POP POP POP POP POP POP POP POP JUMP JUMPDEST PUSH1 0x0 PUSH1 0x40 MLOAD SWAP1 POP SWAP1 JUMP JUMPDEST PUSH1 0x0 DUP1 REVERT JUMPDEST PUSH1 0x0 DUP1 REVERT JUMPDEST PUSH1 0x0 PUSH2 0x3367 DUP3 PUSH2 0x3234 JUMP JUMPDEST SWAP1 POP SWAP2 SWAP1 POP JUMP JUMPDEST PUSH2 0x3377 DUP2 PUSH2 0x335C JUMP JUMPDEST DUP2 EQ PUSH2 0x3382 JUMPI PUSH1 0x0 DUP1 REVERT JUMPDEST POP JUMP JUMPDEST PUSH1 0x0 DUP2 CALLDATALOAD SWAP1 POP PUSH2 0x3394 DUP2 PUSH2 0x336E JUMP JUMPDEST SWAP3 SWAP2 POP POP JUMP JUMPDEST PUSH2 0x33A3 DUP2 PUSH2 0x3275 JUMP JUMPDEST DUP2 EQ PUSH2 0x33AE JUMPI PUSH1 0x0 DUP1 REVERT JUMPDEST POP JUMP JUMPDEST PUSH1 0x0 DUP2 CALLDATALOAD SWAP1 POP PUSH2 0x33C0 DUP2 PUSH2 0x339A JUMP JUMPDEST SWAP3 SWAP2 POP POP JUMP JUMPDEST PUSH1 0x0 DUP1 PUSH1 0x40 DUP4 DUP6 SUB SLT ISZERO PUSH2 0x33DD JUMPI PUSH2 0x33DC PUSH2 0x3352 JUMP JUMPDEST JUMPDEST PUSH1 0x0 PUSH2 0x33EB DUP6 DUP3 DUP7 ADD PUSH2 0x3385 JUMP JUMPDEST SWAP3 POP POP PUSH1 0x20 PUSH2 0x33FC DUP6 DUP3 DUP7 ADD PUSH2 0x33B1 JUMP JUMPDEST SWAP2 POP POP SWAP3 POP SWAP3 SWAP1 POP JUMP JUMPDEST PUSH2 0x340F DUP2 PUSH2 0x3254 JUMP JUMPDEST DUP2 EQ PUSH2 0x341A JUMPI PUSH1 0x0 DUP1 REVERT JUMPDEST POP JUMP JUMPDEST PUSH1 0x0 DUP2 CALLDATALOAD SWAP1 POP PUSH2 0x342C DUP2 PUSH2 0x3406 JUMP JUMPDEST SWAP3 SWAP2 POP POP JUMP JUMPDEST PUSH1 0x0 PUSH1 0x20 DUP3 DUP5 SUB SLT ISZERO PUSH2 0x3448 JUMPI PUSH2 0x3447 PUSH2 0x3352 JUMP JUMPDEST JUMPDEST PUSH1 0x0 PUSH2 0x3456 DUP5 DUP3 DUP6 ADD PUSH2 0x341D JUMP JUMPDEST SWAP2 POP POP SWAP3 SWAP2 POP POP JUMP JUMPDEST PUSH1 0x0 PUSH1 0x60 DUP3 ADD SWAP1 POP PUSH2 0x3474 PUSH1 0x0 DUP4 ADD DUP7 PUSH2 0x327F JUMP JUMPDEST PUSH2 0x3481 PUSH1 0x20 DUP4 ADD DUP6 PUSH2 0x327F JUMP JUMPDEST PUSH2 0x348E PUSH1 0x40 DUP4 ADD DUP5 PUSH2 0x327F JUMP JUMPDEST SWAP5 SWAP4 POP POP POP POP JUMP JUMPDEST PUSH1 0x0 PUSH1 0x20 DUP3 ADD SWAP1 POP PUSH2 0x34AB PUSH1 0x0 DUP4 ADD DUP5 PUSH2 0x327F JUMP JUMPDEST SWAP3 SWAP2 POP POP JUMP JUMPDEST PUSH1 0x0 DUP1 REVERT JUMPDEST PUSH1 0x0 DUP1 REVERT JUMPDEST PUSH1 0x0 PUSH1 0x1F NOT PUSH1 0x1F DUP4 ADD AND SWAP1 POP SWAP2 SWAP1 POP JUMP JUMPDEST PUSH32 0x4E487B7100000000000000000000000000000000000000000000000000000000 PUSH1 0x0 MSTORE PUSH1 0x41 PUSH1 0x4 MSTORE PUSH1 0x24 PUSH1 0x0 REVERT JUMPDEST PUSH2 0x3504 DUP3 PUSH2 0x34BB JUMP JUMPDEST DUP2 ADD DUP2 DUP2 LT PUSH8 0xFFFFFFFFFFFFFFFF DUP3 GT OR ISZERO PUSH2 0x3523 JUMPI PUSH2 0x3522 PUSH2 0x34CC JUMP JUMPDEST JUMPDEST DUP1 PUSH1 0x40 MSTORE POP POP POP JUMP JUMPDEST PUSH1 0x0 PUSH2 0x3536 PUSH2 0x3348 JUMP JUMPDEST SWAP1 POP PUSH2 0x3542 DUP3 DUP3 PUSH2 0x34FB JUMP JUMPDEST SWAP2 SWAP1 POP JUMP JUMPDEST PUSH1 0x0 PUSH8 0xFFFFFFFFFFFFFFFF DUP3 GT ISZERO PUSH2 0x3562 JUMPI PUSH2 0x3561 PUSH2 0x34CC JUMP JUMPDEST JUMPDEST PUSH2 0x356B DUP3 PUSH2 0x34BB JUMP JUMPDEST SWAP1 POP PUSH1 0x20 DUP2 ADD SWAP1 POP SWAP2 SWAP1 POP JUMP JUMPDEST DUP3 DUP2 DUP4 CALLDATACOPY PUSH1 0x0 DUP4 DUP4 ADD MSTORE POP POP POP JUMP JUMPDEST PUSH1 0x0 PUSH2 0x359A PUSH2 0x3595 DUP5 PUSH2 0x3547 JUMP JUMPDEST PUSH2 0x352C JUMP JUMPDEST SWAP1 POP DUP3 DUP2 MSTORE PUSH1 0x20 DUP2 ADD DUP5 DUP5 DUP5 ADD GT ISZERO PUSH2 0x35B6 JUMPI PUSH2 0x35B5 PUSH2 0x34B6 JUMP JUMPDEST JUMPDEST PUSH2 0x35C1 DUP5 DUP3 DUP6 PUSH2 0x3578 JUMP JUMPDEST POP SWAP4 SWAP3 POP POP POP JUMP JUMPDEST PUSH1 0x0 DUP3 PUSH1 0x1F DUP4 ADD SLT PUSH2 0x35DE JUMPI PUSH2 0x35DD PUSH2 0x34B1 JUMP JUMPDEST JUMPDEST DUP2 CALLDATALOAD PUSH2 0x35EE DUP5 DUP3 PUSH1 0x20 DUP7 ADD PUSH2 0x3587 JUMP JUMPDEST SWAP2 POP POP SWAP3 SWAP2 POP POP JUMP JUMPDEST PUSH1 0x0 DUP1 PUSH1 0x40 DUP4 DUP6 SUB SLT ISZERO PUSH2 0x360E JUMPI PUSH2 0x360D PUSH2 0x3352 JUMP JUMPDEST JUMPDEST PUSH1 0x0 PUSH2 0x361C DUP6 DUP3 DUP7 ADD PUSH2 0x3385 JUMP JUMPDEST SWAP3 POP POP PUSH1 0x20 DUP4 ADD CALLDATALOAD PUSH8 0xFFFFFFFFFFFFFFFF DUP2 GT ISZERO PUSH2 0x363D JUMPI PUSH2 0x363C PUSH2 0x3357 JUMP JUMPDEST JUMPDEST PUSH2 0x3649 DUP6 DUP3 DUP7 ADD PUSH2 0x35C9 JUMP JUMPDEST SWAP2 POP POP SWAP3 POP SWAP3 SWAP1 POP JUMP JUMPDEST PUSH1 0x0 DUP1 PUSH1 0x0 DUP1 PUSH1 0x80 DUP6 DUP8 SUB SLT ISZERO PUSH2 0x366D JUMPI PUSH2 0x366C PUSH2 0x3352 JUMP JUMPDEST JUMPDEST PUSH1 0x0 PUSH2 0x367B DUP8 DUP3 DUP9 ADD PUSH2 0x3385 JUMP JUMPDEST SWAP5 POP POP PUSH1 0x20 PUSH2 0x368C DUP8 DUP3 DUP9 ADD PUSH2 0x33B1 JUMP JUMPDEST SWAP4 POP POP PUSH1 0x40 PUSH2 0x369D DUP8 DUP3 DUP9 ADD PUSH2 0x33B1 JUMP JUMPDEST SWAP3 POP POP PUSH1 0x60 DUP6 ADD CALLDATALOAD PUSH8 0xFFFFFFFFFFFFFFFF DUP2 GT ISZERO PUSH2 0x36BE JUMPI PUSH2 0x36BD PUSH2 0x3357 JUMP JUMPDEST JUMPDEST PUSH2 0x36CA DUP8 DUP3 DUP9 ADD PUSH2 0x35C9 JUMP JUMPDEST SWAP2 POP POP SWAP3 SWAP6 SWAP2 SWAP5 POP SWAP3 POP JUMP JUMPDEST PUSH1 0x0 DUP3 DUP3 MSTORE PUSH1 0x20 DUP3 ADD SWAP1 POP SWAP3 SWAP2 POP POP JUMP JUMPDEST PUSH32 0x7A65726F2061646472657373206973206E6F7420616C6C6F7765640000000000 PUSH1 0x0 DUP3 ADD MSTORE POP JUMP JUMPDEST PUSH1 0x0 PUSH2 0x371D PUSH1 0x1B DUP4 PUSH2 0x36D6 JUMP JUMPDEST SWAP2 POP PUSH2 0x3728 DUP3 PUSH2 0x36E7 JUMP JUMPDEST PUSH1 0x20 DUP3 ADD SWAP1 POP SWAP2 SWAP1 POP JUMP JUMPDEST PUSH1 0x0 PUSH1 0x20 DUP3 ADD SWAP1 POP DUP2 DUP2 SUB PUSH1 0x0 DUP4 ADD MSTORE PUSH2 0x374C DUP2 PUSH2 0x3710 JUMP JUMPDEST SWAP1 POP SWAP2 SWAP1 POP JUMP JUMPDEST PUSH32 0x706C656173652073656E6420736F6D6520616D6F756E74000000000000000000 PUSH1 0x0 DUP3 ADD MSTORE POP JUMP JUMPDEST PUSH1 0x0 PUSH2 0x3789 PUSH1 0x17 DUP4 PUSH2 0x36D6 JUMP JUMPDEST SWAP2 POP PUSH2 0x3794 DUP3 PUSH2 0x3753 JUMP JUMPDEST PUSH1 0x20 DUP3 ADD SWAP1 POP SWAP2 SWAP1 POP JUMP JUMPDEST PUSH1 0x0 PUSH1 0x20 DUP3 ADD SWAP1 POP DUP2 DUP2 SUB PUSH1 0x0 DUP4 ADD MSTORE PUSH2 0x37B8 DUP2 PUSH2 0x377C JUMP JUMPDEST SWAP1 POP SWAP2 SWAP1 POP JUMP JUMPDEST PUSH32 0x4E487B7100000000000000000000000000000000000000000000000000000000 PUSH1 0x0 MSTORE PUSH1 0x11 PUSH1 0x4 MSTORE PUSH1 0x24 PUSH1 0x0 REVERT JUMPDEST PUSH1 0x0 PUSH2 0x37F9 DUP3 PUSH2 0x3275 JUMP JUMPDEST SWAP2 POP PUSH2 0x3804 DUP4 PUSH2 0x3275 JUMP JUMPDEST SWAP3 POP DUP3 DUP3 ADD SWAP1 POP DUP1 DUP3 GT ISZERO PUSH2 0x381C JUMPI PUSH2 0x381B PUSH2 0x37BF JUMP JUMPDEST JUMPDEST SWAP3 SWAP2 POP POP JUMP JUMPDEST PUSH1 0x0 DUP2 SWAP1 POP SWAP3 SWAP2 POP POP JUMP JUMPDEST PUSH32 0x6361720000000000000000000000000000000000000000000000000000000000 PUSH1 0x0 DUP3 ADD MSTORE POP JUMP JUMPDEST PUSH1 0x0 PUSH2 0x3863 PUSH1 0x3 DUP4 PUSH2 0x3822 JUMP JUMPDEST SWAP2 POP PUSH2 0x386E DUP3 PUSH2 0x382D JUMP JUMPDEST PUSH1 0x3 DUP3 ADD SWAP1 POP SWAP2 SWAP1 POP JUMP JUMPDEST PUSH1 0x0 PUSH2 0x3884 DUP3 PUSH2 0x3856 JUMP JUMPDEST SWAP2 POP DUP2 SWAP1 POP SWAP2 SWAP1 POP JUMP JUMPDEST PUSH1 0x0 DUP2 MLOAD SWAP1 POP SWAP2 SWAP1 POP JUMP JUMPDEST PUSH1 0x0 JUMPDEST DUP4 DUP2 LT ISZERO PUSH2 0x38B7 JUMPI DUP1 DUP3 ADD MLOAD DUP2 DUP5 ADD MSTORE PUSH1 0x20 DUP2 ADD SWAP1 POP PUSH2 0x389C JUMP JUMPDEST PUSH1 0x0 DUP5 DUP5 ADD MSTORE POP POP POP POP JUMP JUMPDEST PUSH1 0x0 PUSH2 0x38CE DUP3 PUSH2 0x388E JUMP JUMPDEST PUSH2 0x38D8 DUP2 DUP6 PUSH2 0x3822 JUMP JUMPDEST SWAP4 POP PUSH2 0x38E8 DUP2 DUP6 PUSH1 0x20 DUP7 ADD PUSH2 0x3899 JUMP JUMPDEST DUP1 DUP5 ADD SWAP2 POP POP SWAP3 SWAP2 POP POP JUMP JUMPDEST PUSH1 0x0 PUSH2 0x3900 DUP3 DUP5 PUSH2 0x38C3 JUMP JUMPDEST SWAP2 POP DUP2 SWAP1 POP SWAP3 SWAP2 POP POP JUMP JUMPDEST PUSH32 0x686F6D6500000000000000000000000000000000000000000000000000000000 PUSH1 0x0 DUP3 ADD MSTORE POP JUMP JUMPDEST PUSH1 0x0 PUSH2 0x3941 PUSH1 0x4 DUP4 PUSH2 0x3822 JUMP JUMPDEST SWAP2 POP PUSH2 0x394C DUP3 PUSH2 0x390B JUMP JUMPDEST PUSH1 0x4 DUP3 ADD SWAP1 POP SWAP2 SWAP1 POP JUMP JUMPDEST PUSH1 0x0 PUSH2 0x3962 DUP3 PUSH2 0x3934 JUMP JUMPDEST SWAP2 POP DUP2 SWAP1 POP SWAP2 SWAP1 POP JUMP JUMPDEST PUSH32 0x706572736F6E616C000000000000000000000000000000000000000000000000 PUSH1 0x0 DUP3 ADD MSTORE POP JUMP JUMPDEST PUSH1 0x0 PUSH2 0x39A2 PUSH1 0x8 DUP4 PUSH2 0x3822 JUMP JUMPDEST SWAP2 POP PUSH2 0x39AD DUP3 PUSH2 0x396C JUMP JUMPDEST PUSH1 0x8 DUP3 ADD SWAP1 POP SWAP2 SWAP1 POP JUMP JUMPDEST PUSH1 0x0 PUSH2 0x39C3 DUP3 PUSH2 0x3995 JUMP JUMPDEST SWAP2 POP DUP2 SWAP1 POP SWAP2 SWAP1 POP JUMP JUMPDEST PUSH32 0x696E76616C6964206C6F616E2074797065000000000000000000000000000000 PUSH1 0x0 DUP3 ADD MSTORE POP JUMP JUMPDEST PUSH1 0x0 PUSH2 0x3A03 PUSH1 0x11 DUP4 PUSH2 0x36D6 JUMP JUMPDEST SWAP2 POP PUSH2 0x3A0E DUP3 PUSH2 0x39CD JUMP JUMPDEST PUSH1 0x20 DUP3 ADD SWAP1 POP SWAP2 SWAP1 POP JUMP JUMPDEST PUSH1 0x0 PUSH1 0x20 DUP3 ADD SWAP1 POP DUP2 DUP2 SUB PUSH1 0x0 DUP4 ADD MSTORE PUSH2 0x3A32 DUP2 PUSH2 0x39F6 JUMP JUMPDEST SWAP1 POP SWAP2 SWAP1 POP JUMP JUMPDEST PUSH1 0x0 PUSH2 0x3A44 DUP3 PUSH2 0x3275 JUMP JUMPDEST SWAP2 POP PUSH2 0x3A4F DUP4 PUSH2 0x3275 JUMP JUMPDEST SWAP3 POP DUP3 DUP3 SUB SWAP1 POP DUP2 DUP2 GT ISZERO PUSH2 0x3A67 JUMPI PUSH2 0x3A66 PUSH2 0x37BF JUMP JUMPDEST JUMPDEST SWAP3 SWAP2 POP POP JUMP JUMPDEST PUSH32 0x4E65656420746F20776169742031206D6F6E746820616674657220706179696E PUSH1 0x0 DUP3 ADD MSTORE PUSH32 0x67206C61737420454D4900000000000000000000000000000000000000000000 PUSH1 0x20 DUP3 ADD MSTORE POP JUMP JUMPDEST PUSH1 0x0 PUSH2 0x3AC9 PUSH1 0x2A DUP4 PUSH2 0x36D6 JUMP JUMPDEST SWAP2 POP PUSH2 0x3AD4 DUP3 PUSH2 0x3A6D JUMP JUMPDEST PUSH1 0x40 DUP3 ADD SWAP1 POP SWAP2 SWAP1 POP JUMP JUMPDEST PUSH1 0x0 PUSH1 0x20 DUP3 ADD SWAP1 POP DUP2 DUP2 SUB PUSH1 0x0 DUP4 ADD MSTORE PUSH2 0x3AF8 DUP2 PUSH2 0x3ABC JUMP JUMPDEST SWAP1 POP SWAP2 SWAP1 POP JUMP JUMPDEST PUSH32 0x696E76616C696420656D6920616D6F756E740000000000000000000000000000 PUSH1 0x0 DUP3 ADD MSTORE POP JUMP JUMPDEST PUSH1 0x0 PUSH2 0x3B35 PUSH1 0x12 DUP4 PUSH2 0x36D6 JUMP JUMPDEST SWAP2 POP PUSH2 0x3B40 DUP3 PUSH2 0x3AFF JUMP JUMPDEST PUSH1 0x20 DUP3 ADD SWAP1 POP SWAP2 SWAP1 POP JUMP JUMPDEST PUSH1 0x0 PUSH1 0x20 DUP3 ADD SWAP1 POP DUP2 DUP2 SUB PUSH1 0x0 DUP4 ADD MSTORE PUSH2 0x3B64 DUP2 PUSH2 0x3B28 JUMP JUMPDEST SWAP1 POP SWAP2 SWAP1 POP JUMP JUMPDEST PUSH1 0x0 PUSH2 0x3B76 DUP3 PUSH2 0x3275 JUMP JUMPDEST SWAP2 POP PUSH1 0x0 DUP3 SUB PUSH2 0x3B89 JUMPI PUSH2 0x3B88 PUSH2 0x37BF JUMP JUMPDEST JUMPDEST PUSH1 0x1 DUP3 SUB SWAP1 POP SWAP2 SWAP1 POP JUMP JUMPDEST PUSH32 0x796F752068617665206F6E6520636172206C6F616E2120796F752063616E2774 PUSH1 0x0 DUP3 ADD MSTORE PUSH32 0x2074616B6520616E6F7468657221000000000000000000000000000000000000 PUSH1 0x20 DUP3 ADD MSTORE POP JUMP JUMPDEST PUSH1 0x0 PUSH2 0x3BF0 PUSH1 0x2E DUP4 PUSH2 0x36D6 JUMP JUMPDEST SWAP2 POP PUSH2 0x3BFB DUP3 PUSH2 0x3B94 JUMP JUMPDEST PUSH1 0x40 DUP3 ADD SWAP1 POP SWAP2 SWAP1 POP JUMP JUMPDEST PUSH1 0x0 PUSH1 0x20 DUP3 ADD SWAP1 POP DUP2 DUP2 SUB PUSH1 0x0 DUP4 ADD MSTORE PUSH2 0x3C1F DUP2 PUSH2 0x3BE3 JUMP JUMPDEST SWAP1 POP SWAP2 SWAP1 POP JUMP JUMPDEST PUSH1 0x0 PUSH2 0x3C31 DUP3 PUSH2 0x3275 JUMP JUMPDEST SWAP2 POP PUSH2 0x3C3C DUP4 PUSH2 0x3275 JUMP JUMPDEST SWAP3 POP DUP3 DUP3 MUL PUSH2 0x3C4A DUP2 PUSH2 0x3275 JUMP JUMPDEST SWAP2 POP DUP3 DUP3 DIV DUP5 EQ DUP4 ISZERO OR PUSH2 0x3C61 JUMPI PUSH2 0x3C60 PUSH2 0x37BF JUMP JUMPDEST JUMPDEST POP SWAP3 SWAP2 POP POP JUMP JUMPDEST PUSH32 0x4E487B7100000000000000000000000000000000000000000000000000000000 PUSH1 0x0 MSTORE PUSH1 0x12 PUSH1 0x4 MSTORE PUSH1 0x24 PUSH1 0x0 REVERT JUMPDEST PUSH1 0x0 PUSH2 0x3CA2 DUP3 PUSH2 0x3275 JUMP JUMPDEST SWAP2 POP PUSH2 0x3CAD DUP4 PUSH2 0x3275 JUMP JUMPDEST SWAP3 POP DUP3 PUSH2 0x3CBD JUMPI PUSH2 0x3CBC PUSH2 0x3C68 JUMP JUMPDEST JUMPDEST DUP3 DUP3 DIV SWAP1 POP SWAP3 SWAP2 POP POP JUMP JUMPDEST PUSH32 0x796F75206861766520616C7265616479206F6E6520686F6D65206C6F616E2120 PUSH1 0x0 DUP3 ADD MSTORE PUSH32 0x796F752063616E27742074616B6520616E6F7468657221000000000000000000 PUSH1 0x20 DUP3 ADD MSTORE POP JUMP JUMPDEST PUSH1 0x0 PUSH2 0x3D24 PUSH1 0x37 DUP4 PUSH2 0x36D6 JUMP JUMPDEST SWAP2 POP PUSH2 0x3D2F DUP3 PUSH2 0x3CC8 JUMP JUMPDEST PUSH1 0x40 DUP3 ADD SWAP1 POP SWAP2 SWAP1 POP JUMP JUMPDEST PUSH1 0x0 PUSH1 0x20 DUP3 ADD SWAP1 POP DUP2 DUP2 SUB PUSH1 0x0 DUP4 ADD MSTORE PUSH2 0x3D53 DUP2 PUSH2 0x3D17 JUMP JUMPDEST SWAP1 POP SWAP2 SWAP1 POP JUMP JUMPDEST PUSH32 0x796F752068617665206F6E6520706572736F6E616C206C6F616E2120796F7520 PUSH1 0x0 DUP3 ADD MSTORE PUSH32 0x63616E27742074616B6520616E6F746865722100000000000000000000000000 PUSH1 0x20 DUP3 ADD MSTORE POP JUMP JUMPDEST PUSH1 0x0 PUSH2 0x3DB6 PUSH1 0x33 DUP4 PUSH2 0x36D6 JUMP JUMPDEST SWAP2 POP PUSH2 0x3DC1 DUP3 PUSH2 0x3D5A JUMP JUMPDEST PUSH1 0x40 DUP3 ADD SWAP1 POP SWAP2 SWAP1 POP JUMP JUMPDEST PUSH1 0x0 PUSH1 0x20 DUP3 ADD SWAP1 POP DUP2 DUP2 SUB PUSH1 0x0 DUP4 ADD MSTORE PUSH2 0x3DE5 DUP2 PUSH2 0x3DA9 JUMP JUMPDEST SWAP1 POP SWAP2 SWAP1 POP JUMP JUMPDEST PUSH32 0x596F75277265206E6F742074686520736D61727420636F6E7472616374206164 PUSH1 0x0 DUP3 ADD MSTORE PUSH32 0x6D696E2100000000000000000000000000000000000000000000000000000000 PUSH1 0x20 DUP3 ADD MSTORE POP JUMP JUMPDEST PUSH1 0x0 PUSH2 0x3E48 PUSH1 0x24 DUP4 PUSH2 0x36D6 JUMP JUMPDEST SWAP2 POP PUSH2 0x3E53 DUP3 PUSH2 0x3DEC JUMP JUMPDEST PUSH1 0x40 DUP3 ADD SWAP1 POP SWAP2 SWAP1 POP JUMP JUMPDEST PUSH1 0x0 PUSH1 0x20 DUP3 ADD SWAP1 POP DUP2 DUP2 SUB PUSH1 0x0 DUP4 ADD MSTORE PUSH2 0x3E77 DUP2 PUSH2 0x3E3B JUMP JUMPDEST SWAP1 POP SWAP2 SWAP1 POP JUMP JUMPDEST PUSH32 0x696E76616C696420616D6F756E74000000000000000000000000000000000000 PUSH1 0x0 DUP3 ADD MSTORE POP JUMP JUMPDEST PUSH1 0x0 PUSH2 0x3EB4 PUSH1 0xE DUP4 PUSH2 0x36D6 JUMP JUMPDEST SWAP2 POP PUSH2 0x3EBF DUP3 PUSH2 0x3E7E JUMP JUMPDEST PUSH1 0x20 DUP3 ADD SWAP1 POP SWAP2 SWAP1 POP JUMP JUMPDEST PUSH1 0x0 PUSH1 0x20 DUP3 ADD SWAP1 POP DUP2 DUP2 SUB PUSH1 0x0 DUP4 ADD MSTORE PUSH2 0x3EE3 DUP2 PUSH2 0x3EA7 JUMP JUMPDEST SWAP1 POP SWAP2 SWAP1 POP JUMP INVALID LOG2 PUSH5 0x6970667358 0x22 SLT KECCAK256 0xC8 SWAP8 SWAP9 PUSH19 0x64A72A63FD8CB7D6433FD0806163FB47DA332D STOP 0xAA 0xBB DUP7 JUMP 0x4A 0xE6 0xD1 DUP2 PUSH5 0x736F6C6343 STOP ADDMOD SLT STOP CALLER "
				},
				"gasEstimates": {
					"creation": {
						"codeDepositCost": "3232000",
						"executionCost": "27845",
						"totalCost": "3259845"
					},
					"external": {
						"": "196",
						"Loan(address,uint256,uint256,string)": "infinite",
						"addFund()": "infinite",
						"carLoanDetails(address)": "infinite",
						"deposit(address,uint256)": "infinite",
						"getContractBalance()": "406",
						"homeLoanDetails(address)": "infinite",
						"payEmi(address,string)": "infinite",
						"personalLoanDetails(address)": "infinite",
						"u1()": "infinite",
						"users(address)": "infinite",
						"withdraw(address,uint256)": "infinite"
					},
					"internal": {
						"setTime()": "infinite"
					}
				},
				"methodIdentifiers": {
					"Loan(address,uint256,uint256,string)": "9283ea63",
					"addFund()": "a2f09dfa",
					"carLoanDetails(address)": "65d6d088",
					"deposit(address,uint256)": "47e7ef24",
					"getContractBalance()": "6f9fb98a",
					"homeLoanDetails(address)": "d77799a5",
					"payEmi(address,string)": "91341de3",
					"personalLoanDetails(address)": "8172aa0a",
					"u1()": "1aa35610",
					"users(address)": "a87430ba",
					"withdraw(address,uint256)": "f3fef3a3"
				}
			},
			"storageLayout": {
				"storage": [
					{
						"astId": 29,
						"contract": "Project/banking.sol:MyContract",
						"label": "u1",
						"offset": 0,
						"slot": "0",
						"type": "t_struct(user)26_storage"
					},
					{
						"astId": 42,
						"contract": "Project/banking.sol:MyContract",
						"label": "admin",
						"offset": 0,
						"slot": "12",
						"type": "t_address"
					},
					{
						"astId": 94,
						"contract": "Project/banking.sol:MyContract",
						"label": "users",
						"offset": 0,
						"slot": "13",
						"type": "t_mapping(t_address,t_struct(user)26_storage)"
					}
				],
				"types": {
					"t_address": {
						"encoding": "inplace",
						"label": "address",
						"numberOfBytes": "20"
					},
					"t_mapping(t_address,t_struct(user)26_storage)": {
						"encoding": "mapping",
						"key": "t_address",
						"label": "mapping(address => struct MyContract.user)",
						"numberOfBytes": "32",
						"value": "t_struct(user)26_storage"
					},
					"t_struct(user)26_storage": {
						"encoding": "inplace",
						"label": "struct MyContract.user",
						"members": [
							{
								"astId": 3,
								"contract": "Project/banking.sol:MyContract",
								"label": "user_id",
								"offset": 0,
								"slot": "0",
								"type": "t_address"
							},
							{
								"astId": 5,
								"contract": "Project/banking.sol:MyContract",
								"label": "balance",
								"offset": 0,
								"slot": "1",
								"type": "t_uint256"
							},
							{
								"astId": 7,
								"contract": "Project/banking.sol:MyContract",
								"label": "carLoan",
								"offset": 0,
								"slot": "2",
								"type": "t_uint256"
							},
							{
								"astId": 9,
								"contract": "Project/banking.sol:MyContract",
								"label": "homeLoan",
								"offset": 0,
								"slot": "3",
								"type": "t_uint256"
							},
							{
								"astId": 11,
								"contract": "Project/banking.sol:MyContract",
								"label": "personalLoan",
								"offset": 0,
								"slot": "4",
								"type": "t_uint256"
							},
							{
								"astId": 13,
								"contract": "Project/banking.sol:MyContract",
								"label": "carEmi",
								"offset": 0,
								"slot": "5",
								"type": "t_uint256"
							},
							{
								"astId": 15,
								"contract": "Project/banking.sol:MyContract",
								"label": "homeEmi",
								"offset": 0,
								"slot": "6",
								"type": "t_uint256"
							},
							{
								"astId": 17,
								"contract": "Project/banking.sol:MyContract",
								"label": "personalLoanEmi",
								"offset": 0,
								"slot": "7",
								"type": "t_uint256"
							},
							{
								"astId": 19,
								"contract": "Project/banking.sol:MyContract",
								"label": "carLoanTimeperiod",
								"offset": 0,
								"slot": "8",
								"type": "t_uint256"
							},
							{
								"astId": 21,
								"contract": "Project/banking.sol:MyContract",
								"label": "homeLoanTimeperiod",
								"offset": 0,
								"slot": "9",
								"type": "t_uint256"
							},
							{
								"astId": 23,
								"contract": "Project/banking.sol:MyContract",
								"label": "personalLoanTimeperiod",
								"offset": 0,
								"slot": "10",
								"type": "t_uint256"
							},
							{
								"astId": 25,
								"contract": "Project/banking.sol:MyContract",
								"label": "timestamp",
								"offset": 0,
								"slot": "11",
								"type": "t_uint256"
							}
						],
						"numberOfBytes": "384"
					},
					"t_uint256": {
						"encoding": "inplace",
						"label": "uint256",
						"numberOfBytes": "32"
					}
				}
			},
			"userdoc": {
				"kind": "user",
				"methods": {},
				"version": 1
			}
		}
	}
}