{
	"Project/banking.sol": {
		"MyContract": {
			"abi": [
				{
					"inputs": [],
					"stateMutability": "nonpayable",
					"type": "constructor"
				},
				{
					"stateMutability": "payable",
					"type": "fallback"
				},
				{
					"inputs": [
						{
							"internalType": "address payable",
							"name": "account",
							"type": "address"
						},
						{
							"internalType": "uint256",
							"name": "amount",
							"type": "uint256"
						},
						{
							"internalType": "uint256",
							"name": "month",
							"type": "uint256"
						},
						{
							"internalType": "string",
							"name": "_input",
							"type": "string"
						}
					],
					"name": "Loan",
					"outputs": [],
					"stateMutability": "payable",
					"type": "function"
				},
				{
					"inputs": [],
					"name": "addFund",
					"outputs": [],
					"stateMutability": "payable",
					"type": "function"
				},
				{
					"inputs": [
						{
							"internalType": "address",
							"name": "account",
							"type": "address"
						}
					],
					"name": "carLoanDetails",
					"outputs": [
						{
							"internalType": "uint256",
							"name": "",
							"type": "uint256"
						},
						{
							"internalType": "uint256",
							"name": "",
							"type": "uint256"
						},
						{
							"internalType": "uint256",
							"name": "",
							"type": "uint256"
						}
					],
					"stateMutability": "view",
					"type": "function"
				},
				{
					"inputs": [
						{
							"internalType": "address payable",
							"name": "account",
							"type": "address"
						},
						{
							"internalType": "uint256",
							"name": "amount",
							"type": "uint256"
						}
					],
					"name": "deposit",
					"outputs": [],
					"stateMutability": "payable",
					"type": "function"
				},
				{
					"inputs": [],
					"name": "getContractBalance",
					"outputs": [
						{
							"internalType": "uint256",
							"name": "",
							"type": "uint256"
						}
					],
					"stateMutability": "view",
					"type": "function"
				},
				{
					"inputs": [
						{
							"internalType": "address",
							"name": "account",
							"type": "address"
						}
					],
					"name": "homeLoanDetails",
					"outputs": [
						{
							"internalType": "uint256",
							"name": "",
							"type": "uint256"
						},
						{
							"internalType": "uint256",
							"name": "",
							"type": "uint256"
						},
						{
							"internalType": "uint256",
							"name": "",
							"type": "uint256"
						}
					],
					"stateMutability": "view",
					"type": "function"
				},
				{
					"inputs": [
						{
							"internalType": "address payable",
							"name": "account",
							"type": "address"
						}
					],
					"name": "payEmi",
					"outputs": [],
					"stateMutability": "nonpayable",
					"type": "function"
				},
				{
					"inputs": [
						{
							"internalType": "address",
							"name": "account",
							"type": "address"
						}
					],
					"name": "personalLoanDetails",
					"outputs": [
						{
							"internalType": "uint256",
							"name": "",
							"type": "uint256"
						},
						{
							"internalType": "uint256",
							"name": "",
							"type": "uint256"
						},
						{
							"internalType": "uint256",
							"name": "",
							"type": "uint256"
						}
					],
					"stateMutability": "view",
					"type": "function"
				},
				{
					"inputs": [
						{
							"internalType": "address",
							"name": "",
							"type": "address"
						}
					],
					"name": "users",
					"outputs": [
						{
							"internalType": "address",
							"name": "user_id",
							"type": "address"
						},
						{
							"internalType": "uint256",
							"name": "balance",
							"type": "uint256"
						},
						{
							"internalType": "uint256",
							"name": "loan",
							"type": "uint256"
						},
						{
							"internalType": "uint256",
							"name": "emi",
							"type": "uint256"
						},
						{
							"internalType": "uint256",
							"name": "timeperiod",
							"type": "uint256"
						},
						{
							"internalType": "uint256",
							"name": "carLoan",
							"type": "uint256"
						},
						{
							"internalType": "uint256",
							"name": "homeLoan",
							"type": "uint256"
						},
						{
							"internalType": "uint256",
							"name": "personalLoan",
							"type": "uint256"
						},
						{
							"internalType": "uint256",
							"name": "carEmi",
							"type": "uint256"
						}
					],
					"stateMutability": "view",
					"type": "function"
				},
				{
					"inputs": [
						{
							"internalType": "address payable",
							"name": "account",
							"type": "address"
						},
						{
							"internalType": "uint256",
							"name": "amount",
							"type": "uint256"
						}
					],
					"name": "withdraw",
					"outputs": [],
					"stateMutability": "nonpayable",
					"type": "function"
				},
				{
					"stateMutability": "payable",
					"type": "receive"
				}
			],
			"devdoc": {
				"kind": "dev",
				"methods": {},
				"version": 1
			},
			"evm": {
				"assembly": "    /* \"Project/banking.sol\":117:8243  contract MyContract {... */\n  mstore(0x40, 0x80)\n    /* \"Project/banking.sol\":533:582  constructor() {... */\n  callvalue\n  dup1\n  iszero\n  tag_1\n  jumpi\n  0x00\n  dup1\n  revert\ntag_1:\n  pop\n    /* \"Project/banking.sol\":565:575  msg.sender */\n  caller\n    /* \"Project/banking.sol\":557:562  admin */\n  0x00\n  dup1\n    /* \"Project/banking.sol\":557:575  admin = msg.sender */\n  0x0100\n  exp\n  dup2\n  sload\n  dup2\n  0xffffffffffffffffffffffffffffffffffffffff\n  mul\n  not\n  and\n  swap1\n  dup4\n  0xffffffffffffffffffffffffffffffffffffffff\n  and\n  mul\n  or\n  swap1\n  sstore\n  pop\n    /* \"Project/banking.sol\":117:8243  contract MyContract {... */\n  dataSize(sub_0)\n  dup1\n  dataOffset(sub_0)\n  0x00\n  codecopy\n  0x00\n  return\nstop\n\nsub_0: assembly {\n        /* \"Project/banking.sol\":117:8243  contract MyContract {... */\n      mstore(0x40, 0x80)\n      jumpi(tag_1, lt(calldatasize, 0x04))\n      shr(0xe0, calldataload(0x00))\n      dup1\n      0x9283ea63\n      gt\n      tag_13\n      jumpi\n      dup1\n      0x9283ea63\n      eq\n      tag_8\n      jumpi\n      dup1\n      0xa2f09dfa\n      eq\n      tag_9\n      jumpi\n      dup1\n      0xa87430ba\n      eq\n      tag_10\n      jumpi\n      dup1\n      0xd77799a5\n      eq\n      tag_11\n      jumpi\n      dup1\n      0xf3fef3a3\n      eq\n      tag_12\n      jumpi\n      jump(tag_2)\n    tag_13:\n      dup1\n      0x114e3900\n      eq\n      tag_3\n      jumpi\n      dup1\n      0x47e7ef24\n      eq\n      tag_4\n      jumpi\n      dup1\n      0x65d6d088\n      eq\n      tag_5\n      jumpi\n      dup1\n      0x6f9fb98a\n      eq\n      tag_6\n      jumpi\n      dup1\n      0x8172aa0a\n      eq\n      tag_7\n      jumpi\n      jump(tag_2)\n    tag_1:\n      jumpi(tag_2, calldatasize)\n      stop\n    tag_2:\n      stop\n        /* \"Project/banking.sol\":6702:7463  function payEmi(address payable account) public {... */\n    tag_3:\n      callvalue\n      dup1\n      iszero\n      tag_18\n      jumpi\n      0x00\n      dup1\n      revert\n    tag_18:\n      pop\n      tag_19\n      0x04\n      dup1\n      calldatasize\n      sub\n      dup2\n      add\n      swap1\n      tag_20\n      swap2\n      swap1\n      tag_21\n      jump\t// in\n    tag_20:\n      tag_22\n      jump\t// in\n    tag_19:\n      stop\n        /* \"Project/banking.sol\":920:1408  function deposit(address payable account, uint256 amount) public payable {... */\n    tag_4:\n      tag_23\n      0x04\n      dup1\n      calldatasize\n      sub\n      dup2\n      add\n      swap1\n      tag_24\n      swap2\n      swap1\n      tag_25\n      jump\t// in\n    tag_24:\n      tag_26\n      jump\t// in\n    tag_23:\n      stop\n        /* \"Project/banking.sol\":7701:7873  function carLoanDetails(address account) public view returns(uint,uint,uint){... */\n    tag_5:\n      callvalue\n      dup1\n      iszero\n      tag_27\n      jumpi\n      0x00\n      dup1\n      revert\n    tag_27:\n      pop\n      tag_28\n      0x04\n      dup1\n      calldatasize\n      sub\n      dup2\n      add\n      swap1\n      tag_29\n      swap2\n      swap1\n      tag_30\n      jump\t// in\n    tag_29:\n      tag_31\n      jump\t// in\n    tag_28:\n      mload(0x40)\n      tag_32\n      swap4\n      swap3\n      swap2\n      swap1\n      tag_33\n      jump\t// in\n    tag_32:\n      mload(0x40)\n      dup1\n      swap2\n      sub\n      swap1\n      return\n        /* \"Project/banking.sol\":7469:7574  function getContractBalance() public view returns (uint256) {... */\n    tag_6:\n      callvalue\n      dup1\n      iszero\n      tag_34\n      jumpi\n      0x00\n      dup1\n      revert\n    tag_34:\n      pop\n      tag_35\n      tag_36\n      jump\t// in\n    tag_35:\n      mload(0x40)\n      tag_37\n      swap2\n      swap1\n      tag_38\n      jump\t// in\n    tag_37:\n      mload(0x40)\n      dup1\n      swap2\n      sub\n      swap1\n      return\n        /* \"Project/banking.sol\":8059:8241  function personalLoanDetails(address account) public view returns(uint,uint,uint){... */\n    tag_7:\n      callvalue\n      dup1\n      iszero\n      tag_39\n      jumpi\n      0x00\n      dup1\n      revert\n    tag_39:\n      pop\n      tag_40\n      0x04\n      dup1\n      calldatasize\n      sub\n      dup2\n      add\n      swap1\n      tag_41\n      swap2\n      swap1\n      tag_30\n      jump\t// in\n    tag_41:\n      tag_42\n      jump\t// in\n    tag_40:\n      mload(0x40)\n      tag_43\n      swap4\n      swap3\n      swap2\n      swap1\n      tag_33\n      jump\t// in\n    tag_43:\n      mload(0x40)\n      dup1\n      swap2\n      sub\n      swap1\n      return\n        /* \"Project/banking.sol\":1414:4409  function Loan(... */\n    tag_8:\n      tag_44\n      0x04\n      dup1\n      calldatasize\n      sub\n      dup2\n      add\n      swap1\n      tag_45\n      swap2\n      swap1\n      tag_46\n      jump\t// in\n    tag_45:\n      tag_47\n      jump\t// in\n    tag_44:\n      stop\n        /* \"Project/banking.sol\":711:870  function addFund() public payable onlyOwner {... */\n    tag_9:\n      tag_48\n      tag_49\n      jump\t// in\n    tag_48:\n      stop\n        /* \"Project/banking.sol\":876:913  mapping(address => user) public users */\n    tag_10:\n      callvalue\n      dup1\n      iszero\n      tag_50\n      jumpi\n      0x00\n      dup1\n      revert\n    tag_50:\n      pop\n      tag_51\n      0x04\n      dup1\n      calldatasize\n      sub\n      dup2\n      add\n      swap1\n      tag_52\n      swap2\n      swap1\n      tag_30\n      jump\t// in\n    tag_52:\n      tag_53\n      jump\t// in\n    tag_51:\n      mload(0x40)\n      tag_54\n      swap10\n      swap9\n      swap8\n      swap7\n      swap6\n      swap5\n      swap4\n      swap3\n      swap2\n      swap1\n      tag_55\n      jump\t// in\n    tag_54:\n      mload(0x40)\n      dup1\n      swap2\n      sub\n      swap1\n      return\n        /* \"Project/banking.sol\":7879:8053  function homeLoanDetails(address account) public view returns(uint,uint,uint){... */\n    tag_11:\n      callvalue\n      dup1\n      iszero\n      tag_56\n      jumpi\n      0x00\n      dup1\n      revert\n    tag_56:\n      pop\n      tag_57\n      0x04\n      dup1\n      calldatasize\n      sub\n      dup2\n      add\n      swap1\n      tag_58\n      swap2\n      swap1\n      tag_30\n      jump\t// in\n    tag_58:\n      tag_59\n      jump\t// in\n    tag_57:\n      mload(0x40)\n      tag_60\n      swap4\n      swap3\n      swap2\n      swap1\n      tag_33\n      jump\t// in\n    tag_60:\n      mload(0x40)\n      dup1\n      swap2\n      sub\n      swap1\n      return\n        /* \"Project/banking.sol\":5647:6244  function withdraw(address payable account, uint256 amount) public {... */\n    tag_12:\n      callvalue\n      dup1\n      iszero\n      tag_61\n      jumpi\n      0x00\n      dup1\n      revert\n    tag_61:\n      pop\n      tag_62\n      0x04\n      dup1\n      calldatasize\n      sub\n      dup2\n      add\n      swap1\n      tag_63\n      swap2\n      swap1\n      tag_25\n      jump\t// in\n    tag_63:\n      tag_64\n      jump\t// in\n    tag_62:\n      stop\n        /* \"Project/banking.sol\":6702:7463  function payEmi(address payable account) public {... */\n    tag_22:\n        /* \"Project/banking.sol\":6900:6907  account */\n      dup1\n        /* \"Project/banking.sol\":6900:6916  account.transfer */\n      0xffffffffffffffffffffffffffffffffffffffff\n      and\n        /* \"Project/banking.sol\":6900:6939  account.transfer(address(this).balance) */\n      0x08fc\n        /* \"Project/banking.sol\":6917:6938  address(this).balance */\n      selfbalance\n        /* \"Project/banking.sol\":6900:6939  account.transfer(address(this).balance) */\n      swap1\n      dup2\n      iszero\n      mul\n      swap1\n      mload(0x40)\n      0x00\n      mload(0x40)\n      dup1\n      dup4\n      sub\n      dup2\n      dup6\n      dup9\n      dup9\n      call\n      swap4\n      pop\n      pop\n      pop\n      pop\n      iszero\n      dup1\n      iszero\n      tag_67\n      jumpi\n      returndatasize\n      0x00\n      dup1\n      returndatacopy\n      revert(0x00, returndatasize)\n    tag_67:\n      pop\n        /* \"Project/banking.sol\":6975:6980  users */\n      0x01\n        /* \"Project/banking.sol\":6975:6989  users[account] */\n      0x00\n        /* \"Project/banking.sol\":6981:6988  account */\n      dup3\n        /* \"Project/banking.sol\":6975:6989  users[account] */\n      0xffffffffffffffffffffffffffffffffffffffff\n      and\n      0xffffffffffffffffffffffffffffffffffffffff\n      and\n      dup2\n      mstore\n      0x20\n      add\n      swap1\n      dup2\n      mstore\n      0x20\n      add\n      0x00\n      keccak256\n        /* \"Project/banking.sol\":6975:6996  users[account].carEmi */\n      0x08\n      add\n      sload\n        /* \"Project/banking.sol\":6949:6954  users */\n      0x01\n        /* \"Project/banking.sol\":6949:6963  users[account] */\n      0x00\n        /* \"Project/banking.sol\":6955:6962  account */\n      dup4\n        /* \"Project/banking.sol\":6949:6963  users[account] */\n      0xffffffffffffffffffffffffffffffffffffffff\n      and\n      0xffffffffffffffffffffffffffffffffffffffff\n      and\n      dup2\n      mstore\n      0x20\n      add\n      swap1\n      dup2\n      mstore\n      0x20\n      add\n      0x00\n      keccak256\n        /* \"Project/banking.sol\":6949:6971  users[account].balance */\n      0x01\n      add\n      0x00\n        /* \"Project/banking.sol\":6949:6996  users[account].balance -= users[account].carEmi */\n      dup3\n      dup3\n      sload\n      tag_68\n      swap2\n      swap1\n      tag_69\n      jump\t// in\n    tag_68:\n      swap3\n      pop\n      pop\n      dup2\n      swap1\n      sstore\n      pop\n        /* \"Project/banking.sol\":7032:7037  users */\n      0x01\n        /* \"Project/banking.sol\":7032:7046  users[account] */\n      0x00\n        /* \"Project/banking.sol\":7038:7045  account */\n      dup3\n        /* \"Project/banking.sol\":7032:7046  users[account] */\n      0xffffffffffffffffffffffffffffffffffffffff\n      and\n      0xffffffffffffffffffffffffffffffffffffffff\n      and\n      dup2\n      mstore\n      0x20\n      add\n      swap1\n      dup2\n      mstore\n      0x20\n      add\n      0x00\n      keccak256\n        /* \"Project/banking.sol\":7032:7053  users[account].carEmi */\n      0x08\n      add\n      sload\n        /* \"Project/banking.sol\":7006:7011  users */\n      0x01\n        /* \"Project/banking.sol\":7006:7020  users[account] */\n      0x00\n        /* \"Project/banking.sol\":7012:7019  account */\n      dup4\n        /* \"Project/banking.sol\":7006:7020  users[account] */\n      0xffffffffffffffffffffffffffffffffffffffff\n      and\n      0xffffffffffffffffffffffffffffffffffffffff\n      and\n      dup2\n      mstore\n      0x20\n      add\n      swap1\n      dup2\n      mstore\n      0x20\n      add\n      0x00\n      keccak256\n        /* \"Project/banking.sol\":7006:7028  users[account].carLoan */\n      0x05\n      add\n      0x00\n        /* \"Project/banking.sol\":7006:7053  users[account].carLoan -= users[account].carEmi */\n      dup3\n      dup3\n      sload\n      tag_70\n      swap2\n      swap1\n      tag_69\n      jump\t// in\n    tag_70:\n      swap3\n      pop\n      pop\n      dup2\n      swap1\n      sstore\n      pop\n        /* \"Project/banking.sol\":7063:7068  users */\n      0x01\n        /* \"Project/banking.sol\":7063:7077  users[account] */\n      0x00\n        /* \"Project/banking.sol\":7069:7076  account */\n      dup3\n        /* \"Project/banking.sol\":7063:7077  users[account] */\n      0xffffffffffffffffffffffffffffffffffffffff\n      and\n      0xffffffffffffffffffffffffffffffffffffffff\n      and\n      dup2\n      mstore\n      0x20\n      add\n      swap1\n      dup2\n      mstore\n      0x20\n      add\n      0x00\n      keccak256\n        /* \"Project/banking.sol\":7063:7088  users[account].timeperiod */\n      0x04\n      add\n      0x00\n        /* \"Project/banking.sol\":7063:7090  users[account].timeperiod-- */\n      dup2\n      sload\n      dup1\n      swap3\n      swap2\n      swap1\n      tag_71\n      swap1\n      tag_72\n      jump\t// in\n    tag_71:\n      swap2\n      swap1\n      pop\n      sstore\n      pop\n        /* \"Project/banking.sol\":7117:7456  user(... */\n      mload(0x40)\n      dup1\n      0x0120\n      add\n      0x40\n      mstore\n      dup1\n        /* \"Project/banking.sol\":7135:7140  users */\n      0x01\n        /* \"Project/banking.sol\":7135:7149  users[account] */\n      0x00\n        /* \"Project/banking.sol\":7141:7148  account */\n      dup5\n        /* \"Project/banking.sol\":7135:7149  users[account] */\n      0xffffffffffffffffffffffffffffffffffffffff\n      and\n      0xffffffffffffffffffffffffffffffffffffffff\n      and\n      dup2\n      mstore\n      0x20\n      add\n      swap1\n      dup2\n      mstore\n      0x20\n      add\n      0x00\n      keccak256\n        /* \"Project/banking.sol\":7135:7157  users[account].user_id */\n      0x00\n      add\n      0x00\n      swap1\n      sload\n      swap1\n      0x0100\n      exp\n      swap1\n      div\n      0xffffffffffffffffffffffffffffffffffffffff\n      and\n        /* \"Project/banking.sol\":7117:7456  user(... */\n      0xffffffffffffffffffffffffffffffffffffffff\n      and\n      dup2\n      mstore\n      0x20\n      add\n        /* \"Project/banking.sol\":7171:7176  users */\n      0x01\n        /* \"Project/banking.sol\":7171:7185  users[account] */\n      0x00\n        /* \"Project/banking.sol\":7177:7184  account */\n      dup5\n        /* \"Project/banking.sol\":7171:7185  users[account] */\n      0xffffffffffffffffffffffffffffffffffffffff\n      and\n      0xffffffffffffffffffffffffffffffffffffffff\n      and\n      dup2\n      mstore\n      0x20\n      add\n      swap1\n      dup2\n      mstore\n      0x20\n      add\n      0x00\n      keccak256\n        /* \"Project/banking.sol\":7171:7193  users[account].balance */\n      0x01\n      add\n      sload\n        /* \"Project/banking.sol\":7117:7456  user(... */\n      dup2\n      mstore\n      0x20\n      add\n        /* \"Project/banking.sol\":7207:7212  users */\n      0x01\n        /* \"Project/banking.sol\":7207:7221  users[account] */\n      0x00\n        /* \"Project/banking.sol\":7213:7220  account */\n      dup5\n        /* \"Project/banking.sol\":7207:7221  users[account] */\n      0xffffffffffffffffffffffffffffffffffffffff\n      and\n      0xffffffffffffffffffffffffffffffffffffffff\n      and\n      dup2\n      mstore\n      0x20\n      add\n      swap1\n      dup2\n      mstore\n      0x20\n      add\n      0x00\n      keccak256\n        /* \"Project/banking.sol\":7207:7226  users[account].loan */\n      0x02\n      add\n      sload\n        /* \"Project/banking.sol\":7117:7456  user(... */\n      dup2\n      mstore\n      0x20\n      add\n        /* \"Project/banking.sol\":7240:7245  users */\n      0x01\n        /* \"Project/banking.sol\":7240:7254  users[account] */\n      0x00\n        /* \"Project/banking.sol\":7246:7253  account */\n      dup5\n        /* \"Project/banking.sol\":7240:7254  users[account] */\n      0xffffffffffffffffffffffffffffffffffffffff\n      and\n      0xffffffffffffffffffffffffffffffffffffffff\n      and\n      dup2\n      mstore\n      0x20\n      add\n      swap1\n      dup2\n      mstore\n      0x20\n      add\n      0x00\n      keccak256\n        /* \"Project/banking.sol\":7240:7258  users[account].emi */\n      0x03\n      add\n      sload\n        /* \"Project/banking.sol\":7117:7456  user(... */\n      dup2\n      mstore\n      0x20\n      add\n        /* \"Project/banking.sol\":7272:7277  users */\n      0x01\n        /* \"Project/banking.sol\":7272:7286  users[account] */\n      0x00\n        /* \"Project/banking.sol\":7278:7285  account */\n      dup5\n        /* \"Project/banking.sol\":7272:7286  users[account] */\n      0xffffffffffffffffffffffffffffffffffffffff\n      and\n      0xffffffffffffffffffffffffffffffffffffffff\n      and\n      dup2\n      mstore\n      0x20\n      add\n      swap1\n      dup2\n      mstore\n      0x20\n      add\n      0x00\n      keccak256\n        /* \"Project/banking.sol\":7272:7297  users[account].timeperiod */\n      0x04\n      add\n      sload\n        /* \"Project/banking.sol\":7117:7456  user(... */\n      dup2\n      mstore\n      0x20\n      add\n        /* \"Project/banking.sol\":7311:7316  users */\n      0x01\n        /* \"Project/banking.sol\":7311:7325  users[account] */\n      0x00\n        /* \"Project/banking.sol\":7317:7324  account */\n      dup5\n        /* \"Project/banking.sol\":7311:7325  users[account] */\n      0xffffffffffffffffffffffffffffffffffffffff\n      and\n      0xffffffffffffffffffffffffffffffffffffffff\n      and\n      dup2\n      mstore\n      0x20\n      add\n      swap1\n      dup2\n      mstore\n      0x20\n      add\n      0x00\n      keccak256\n        /* \"Project/banking.sol\":7311:7333  users[account].carLoan */\n      0x05\n      add\n      sload\n        /* \"Project/banking.sol\":7117:7456  user(... */\n      dup2\n      mstore\n      0x20\n      add\n        /* \"Project/banking.sol\":7347:7352  users */\n      0x01\n        /* \"Project/banking.sol\":7347:7361  users[account] */\n      0x00\n        /* \"Project/banking.sol\":7353:7360  account */\n      dup5\n        /* \"Project/banking.sol\":7347:7361  users[account] */\n      0xffffffffffffffffffffffffffffffffffffffff\n      and\n      0xffffffffffffffffffffffffffffffffffffffff\n      and\n      dup2\n      mstore\n      0x20\n      add\n      swap1\n      dup2\n      mstore\n      0x20\n      add\n      0x00\n      keccak256\n        /* \"Project/banking.sol\":7347:7370  users[account].homeLoan */\n      0x06\n      add\n      sload\n        /* \"Project/banking.sol\":7117:7456  user(... */\n      dup2\n      mstore\n      0x20\n      add\n        /* \"Project/banking.sol\":7384:7389  users */\n      0x01\n        /* \"Project/banking.sol\":7384:7398  users[account] */\n      0x00\n        /* \"Project/banking.sol\":7390:7397  account */\n      dup5\n        /* \"Project/banking.sol\":7384:7398  users[account] */\n      0xffffffffffffffffffffffffffffffffffffffff\n      and\n      0xffffffffffffffffffffffffffffffffffffffff\n      and\n      dup2\n      mstore\n      0x20\n      add\n      swap1\n      dup2\n      mstore\n      0x20\n      add\n      0x00\n      keccak256\n        /* \"Project/banking.sol\":7384:7411  users[account].personalLoan */\n      0x07\n      add\n      sload\n        /* \"Project/banking.sol\":7117:7456  user(... */\n      dup2\n      mstore\n      0x20\n      add\n        /* \"Project/banking.sol\":7425:7430  users */\n      0x01\n        /* \"Project/banking.sol\":7425:7439  users[account] */\n      0x00\n        /* \"Project/banking.sol\":7431:7438  account */\n      dup5\n        /* \"Project/banking.sol\":7425:7439  users[account] */\n      0xffffffffffffffffffffffffffffffffffffffff\n      and\n      0xffffffffffffffffffffffffffffffffffffffff\n      and\n      dup2\n      mstore\n      0x20\n      add\n      swap1\n      dup2\n      mstore\n      0x20\n      add\n      0x00\n      keccak256\n        /* \"Project/banking.sol\":7425:7446  users[account].carEmi */\n      0x08\n      add\n      sload\n        /* \"Project/banking.sol\":7117:7456  user(... */\n      dup2\n      mstore\n      pop\n        /* \"Project/banking.sol\":7100:7105  users */\n      0x01\n        /* \"Project/banking.sol\":7100:7114  users[account] */\n      0x00\n        /* \"Project/banking.sol\":7106:7113  account */\n      dup4\n        /* \"Project/banking.sol\":7100:7114  users[account] */\n      0xffffffffffffffffffffffffffffffffffffffff\n      and\n      0xffffffffffffffffffffffffffffffffffffffff\n      and\n      dup2\n      mstore\n      0x20\n      add\n      swap1\n      dup2\n      mstore\n      0x20\n      add\n      0x00\n      keccak256\n        /* \"Project/banking.sol\":7100:7456  users[account] = user(... */\n      0x00\n      dup3\n      add\n      mload\n      dup2\n      0x00\n      add\n      exp(0x0100, 0x00)\n      dup2\n      sload\n      dup2\n      0xffffffffffffffffffffffffffffffffffffffff\n      mul\n      not\n      and\n      swap1\n      dup4\n      0xffffffffffffffffffffffffffffffffffffffff\n      and\n      mul\n      or\n      swap1\n      sstore\n      pop\n      0x20\n      dup3\n      add\n      mload\n      dup2\n      0x01\n      add\n      sstore\n      0x40\n      dup3\n      add\n      mload\n      dup2\n      0x02\n      add\n      sstore\n      0x60\n      dup3\n      add\n      mload\n      dup2\n      0x03\n      add\n      sstore\n      0x80\n      dup3\n      add\n      mload\n      dup2\n      0x04\n      add\n      sstore\n      0xa0\n      dup3\n      add\n      mload\n      dup2\n      0x05\n      add\n      sstore\n      0xc0\n      dup3\n      add\n      mload\n      dup2\n      0x06\n      add\n      sstore\n      0xe0\n      dup3\n      add\n      mload\n      dup2\n      0x07\n      add\n      sstore\n      0x0100\n      dup3\n      add\n      mload\n      dup2\n      0x08\n      add\n      sstore\n      swap1\n      pop\n      pop\n        /* \"Project/banking.sol\":6702:7463  function payEmi(address payable account) public {... */\n      pop\n      jump\t// out\n        /* \"Project/banking.sol\":920:1408  function deposit(address payable account, uint256 amount) public payable {... */\n    tag_26:\n        /* \"Project/banking.sol\":1029:1035  amount */\n      dup1\n        /* \"Project/banking.sol\":1003:1008  users */\n      0x01\n        /* \"Project/banking.sol\":1003:1017  users[account] */\n      0x00\n        /* \"Project/banking.sol\":1009:1016  account */\n      dup5\n        /* \"Project/banking.sol\":1003:1017  users[account] */\n      0xffffffffffffffffffffffffffffffffffffffff\n      and\n      0xffffffffffffffffffffffffffffffffffffffff\n      and\n      dup2\n      mstore\n      0x20\n      add\n      swap1\n      dup2\n      mstore\n      0x20\n      add\n      0x00\n      keccak256\n        /* \"Project/banking.sol\":1003:1025  users[account].balance */\n      0x01\n      add\n      0x00\n        /* \"Project/banking.sol\":1003:1035  users[account].balance += amount */\n      dup3\n      dup3\n      sload\n      tag_74\n      swap2\n      swap1\n      tag_75\n      jump\t// in\n    tag_74:\n      swap3\n      pop\n      pop\n      dup2\n      swap1\n      sstore\n      pop\n        /* \"Project/banking.sol\":1062:1401  user(... */\n      mload(0x40)\n      dup1\n      0x0120\n      add\n      0x40\n      mstore\n      dup1\n        /* \"Project/banking.sol\":1080:1085  users */\n      0x01\n        /* \"Project/banking.sol\":1080:1094  users[account] */\n      0x00\n        /* \"Project/banking.sol\":1086:1093  account */\n      dup6\n        /* \"Project/banking.sol\":1080:1094  users[account] */\n      0xffffffffffffffffffffffffffffffffffffffff\n      and\n      0xffffffffffffffffffffffffffffffffffffffff\n      and\n      dup2\n      mstore\n      0x20\n      add\n      swap1\n      dup2\n      mstore\n      0x20\n      add\n      0x00\n      keccak256\n        /* \"Project/banking.sol\":1080:1102  users[account].user_id */\n      0x00\n      add\n      0x00\n      swap1\n      sload\n      swap1\n      0x0100\n      exp\n      swap1\n      div\n      0xffffffffffffffffffffffffffffffffffffffff\n      and\n        /* \"Project/banking.sol\":1062:1401  user(... */\n      0xffffffffffffffffffffffffffffffffffffffff\n      and\n      dup2\n      mstore\n      0x20\n      add\n        /* \"Project/banking.sol\":1116:1121  users */\n      0x01\n        /* \"Project/banking.sol\":1116:1130  users[account] */\n      0x00\n        /* \"Project/banking.sol\":1122:1129  account */\n      dup6\n        /* \"Project/banking.sol\":1116:1130  users[account] */\n      0xffffffffffffffffffffffffffffffffffffffff\n      and\n      0xffffffffffffffffffffffffffffffffffffffff\n      and\n      dup2\n      mstore\n      0x20\n      add\n      swap1\n      dup2\n      mstore\n      0x20\n      add\n      0x00\n      keccak256\n        /* \"Project/banking.sol\":1116:1138  users[account].balance */\n      0x01\n      add\n      sload\n        /* \"Project/banking.sol\":1062:1401  user(... */\n      dup2\n      mstore\n      0x20\n      add\n        /* \"Project/banking.sol\":1152:1157  users */\n      0x01\n        /* \"Project/banking.sol\":1152:1166  users[account] */\n      0x00\n        /* \"Project/banking.sol\":1158:1165  account */\n      dup6\n        /* \"Project/banking.sol\":1152:1166  users[account] */\n      0xffffffffffffffffffffffffffffffffffffffff\n      and\n      0xffffffffffffffffffffffffffffffffffffffff\n      and\n      dup2\n      mstore\n      0x20\n      add\n      swap1\n      dup2\n      mstore\n      0x20\n      add\n      0x00\n      keccak256\n        /* \"Project/banking.sol\":1152:1171  users[account].loan */\n      0x02\n      add\n      sload\n        /* \"Project/banking.sol\":1062:1401  user(... */\n      dup2\n      mstore\n      0x20\n      add\n        /* \"Project/banking.sol\":1185:1190  users */\n      0x01\n        /* \"Project/banking.sol\":1185:1199  users[account] */\n      0x00\n        /* \"Project/banking.sol\":1191:1198  account */\n      dup6\n        /* \"Project/banking.sol\":1185:1199  users[account] */\n      0xffffffffffffffffffffffffffffffffffffffff\n      and\n      0xffffffffffffffffffffffffffffffffffffffff\n      and\n      dup2\n      mstore\n      0x20\n      add\n      swap1\n      dup2\n      mstore\n      0x20\n      add\n      0x00\n      keccak256\n        /* \"Project/banking.sol\":1185:1203  users[account].emi */\n      0x03\n      add\n      sload\n        /* \"Project/banking.sol\":1062:1401  user(... */\n      dup2\n      mstore\n      0x20\n      add\n        /* \"Project/banking.sol\":1217:1222  users */\n      0x01\n        /* \"Project/banking.sol\":1217:1231  users[account] */\n      0x00\n        /* \"Project/banking.sol\":1223:1230  account */\n      dup6\n        /* \"Project/banking.sol\":1217:1231  users[account] */\n      0xffffffffffffffffffffffffffffffffffffffff\n      and\n      0xffffffffffffffffffffffffffffffffffffffff\n      and\n      dup2\n      mstore\n      0x20\n      add\n      swap1\n      dup2\n      mstore\n      0x20\n      add\n      0x00\n      keccak256\n        /* \"Project/banking.sol\":1217:1242  users[account].timeperiod */\n      0x04\n      add\n      sload\n        /* \"Project/banking.sol\":1062:1401  user(... */\n      dup2\n      mstore\n      0x20\n      add\n        /* \"Project/banking.sol\":1256:1261  users */\n      0x01\n        /* \"Project/banking.sol\":1256:1270  users[account] */\n      0x00\n        /* \"Project/banking.sol\":1262:1269  account */\n      dup6\n        /* \"Project/banking.sol\":1256:1270  users[account] */\n      0xffffffffffffffffffffffffffffffffffffffff\n      and\n      0xffffffffffffffffffffffffffffffffffffffff\n      and\n      dup2\n      mstore\n      0x20\n      add\n      swap1\n      dup2\n      mstore\n      0x20\n      add\n      0x00\n      keccak256\n        /* \"Project/banking.sol\":1256:1278  users[account].carLoan */\n      0x05\n      add\n      sload\n        /* \"Project/banking.sol\":1062:1401  user(... */\n      dup2\n      mstore\n      0x20\n      add\n        /* \"Project/banking.sol\":1292:1297  users */\n      0x01\n        /* \"Project/banking.sol\":1292:1306  users[account] */\n      0x00\n        /* \"Project/banking.sol\":1298:1305  account */\n      dup6\n        /* \"Project/banking.sol\":1292:1306  users[account] */\n      0xffffffffffffffffffffffffffffffffffffffff\n      and\n      0xffffffffffffffffffffffffffffffffffffffff\n      and\n      dup2\n      mstore\n      0x20\n      add\n      swap1\n      dup2\n      mstore\n      0x20\n      add\n      0x00\n      keccak256\n        /* \"Project/banking.sol\":1292:1315  users[account].homeLoan */\n      0x06\n      add\n      sload\n        /* \"Project/banking.sol\":1062:1401  user(... */\n      dup2\n      mstore\n      0x20\n      add\n        /* \"Project/banking.sol\":1329:1334  users */\n      0x01\n        /* \"Project/banking.sol\":1329:1343  users[account] */\n      0x00\n        /* \"Project/banking.sol\":1335:1342  account */\n      dup6\n        /* \"Project/banking.sol\":1329:1343  users[account] */\n      0xffffffffffffffffffffffffffffffffffffffff\n      and\n      0xffffffffffffffffffffffffffffffffffffffff\n      and\n      dup2\n      mstore\n      0x20\n      add\n      swap1\n      dup2\n      mstore\n      0x20\n      add\n      0x00\n      keccak256\n        /* \"Project/banking.sol\":1329:1356  users[account].personalLoan */\n      0x07\n      add\n      sload\n        /* \"Project/banking.sol\":1062:1401  user(... */\n      dup2\n      mstore\n      0x20\n      add\n        /* \"Project/banking.sol\":1370:1375  users */\n      0x01\n        /* \"Project/banking.sol\":1370:1384  users[account] */\n      0x00\n        /* \"Project/banking.sol\":1376:1383  account */\n      dup6\n        /* \"Project/banking.sol\":1370:1384  users[account] */\n      0xffffffffffffffffffffffffffffffffffffffff\n      and\n      0xffffffffffffffffffffffffffffffffffffffff\n      and\n      dup2\n      mstore\n      0x20\n      add\n      swap1\n      dup2\n      mstore\n      0x20\n      add\n      0x00\n      keccak256\n        /* \"Project/banking.sol\":1370:1391  users[account].carEmi */\n      0x08\n      add\n      sload\n        /* \"Project/banking.sol\":1062:1401  user(... */\n      dup2\n      mstore\n      pop\n        /* \"Project/banking.sol\":1045:1050  users */\n      0x01\n        /* \"Project/banking.sol\":1045:1059  users[account] */\n      0x00\n        /* \"Project/banking.sol\":1051:1058  account */\n      dup5\n        /* \"Project/banking.sol\":1045:1059  users[account] */\n      0xffffffffffffffffffffffffffffffffffffffff\n      and\n      0xffffffffffffffffffffffffffffffffffffffff\n      and\n      dup2\n      mstore\n      0x20\n      add\n      swap1\n      dup2\n      mstore\n      0x20\n      add\n      0x00\n      keccak256\n        /* \"Project/banking.sol\":1045:1401  users[account] = user(... */\n      0x00\n      dup3\n      add\n      mload\n      dup2\n      0x00\n      add\n      exp(0x0100, 0x00)\n      dup2\n      sload\n      dup2\n      0xffffffffffffffffffffffffffffffffffffffff\n      mul\n      not\n      and\n      swap1\n      dup4\n      0xffffffffffffffffffffffffffffffffffffffff\n      and\n      mul\n      or\n      swap1\n      sstore\n      pop\n      0x20\n      dup3\n      add\n      mload\n      dup2\n      0x01\n      add\n      sstore\n      0x40\n      dup3\n      add\n      mload\n      dup2\n      0x02\n      add\n      sstore\n      0x60\n      dup3\n      add\n      mload\n      dup2\n      0x03\n      add\n      sstore\n      0x80\n      dup3\n      add\n      mload\n      dup2\n      0x04\n      add\n      sstore\n      0xa0\n      dup3\n      add\n      mload\n      dup2\n      0x05\n      add\n      sstore\n      0xc0\n      dup3\n      add\n      mload\n      dup2\n      0x06\n      add\n      sstore\n      0xe0\n      dup3\n      add\n      mload\n      dup2\n      0x07\n      add\n      sstore\n      0x0100\n      dup3\n      add\n      mload\n      dup2\n      0x08\n      add\n      sstore\n      swap1\n      pop\n      pop\n        /* \"Project/banking.sol\":920:1408  function deposit(address payable account, uint256 amount) public payable {... */\n      pop\n      pop\n      jump\t// out\n        /* \"Project/banking.sol\":7701:7873  function carLoanDetails(address account) public view returns(uint,uint,uint){... */\n    tag_31:\n        /* \"Project/banking.sol\":7762:7766  uint */\n      0x00\n        /* \"Project/banking.sol\":7767:7771  uint */\n      dup1\n        /* \"Project/banking.sol\":7772:7776  uint */\n      0x00\n        /* \"Project/banking.sol\":7795:7800  users */\n      0x01\n        /* \"Project/banking.sol\":7795:7809  users[account] */\n      0x00\n        /* \"Project/banking.sol\":7801:7808  account */\n      dup6\n        /* \"Project/banking.sol\":7795:7809  users[account] */\n      0xffffffffffffffffffffffffffffffffffffffff\n      and\n      0xffffffffffffffffffffffffffffffffffffffff\n      and\n      dup2\n      mstore\n      0x20\n      add\n      swap1\n      dup2\n      mstore\n      0x20\n      add\n      0x00\n      keccak256\n        /* \"Project/banking.sol\":7795:7817  users[account].carLoan */\n      0x05\n      add\n      sload\n        /* \"Project/banking.sol\":7818:7823  users */\n      0x01\n        /* \"Project/banking.sol\":7818:7832  users[account] */\n      0x00\n        /* \"Project/banking.sol\":7824:7831  account */\n      dup7\n        /* \"Project/banking.sol\":7818:7832  users[account] */\n      0xffffffffffffffffffffffffffffffffffffffff\n      and\n      0xffffffffffffffffffffffffffffffffffffffff\n      and\n      dup2\n      mstore\n      0x20\n      add\n      swap1\n      dup2\n      mstore\n      0x20\n      add\n      0x00\n      keccak256\n        /* \"Project/banking.sol\":7818:7839  users[account].carEmi */\n      0x08\n      add\n      sload\n        /* \"Project/banking.sol\":7840:7845  users */\n      0x01\n        /* \"Project/banking.sol\":7840:7854  users[account] */\n      0x00\n        /* \"Project/banking.sol\":7846:7853  account */\n      dup8\n        /* \"Project/banking.sol\":7840:7854  users[account] */\n      0xffffffffffffffffffffffffffffffffffffffff\n      and\n      0xffffffffffffffffffffffffffffffffffffffff\n      and\n      dup2\n      mstore\n      0x20\n      add\n      swap1\n      dup2\n      mstore\n      0x20\n      add\n      0x00\n      keccak256\n        /* \"Project/banking.sol\":7840:7865  users[account].timeperiod */\n      0x04\n      add\n      sload\n        /* \"Project/banking.sol\":7787:7866  return (users[account].carLoan,users[account].carEmi,users[account].timeperiod) */\n      swap3\n      pop\n      swap3\n      pop\n      swap3\n      pop\n        /* \"Project/banking.sol\":7701:7873  function carLoanDetails(address account) public view returns(uint,uint,uint){... */\n      swap2\n      swap4\n      swap1\n      swap3\n      pop\n      jump\t// out\n        /* \"Project/banking.sol\":7469:7574  function getContractBalance() public view returns (uint256) {... */\n    tag_36:\n        /* \"Project/banking.sol\":7520:7527  uint256 */\n      0x00\n        /* \"Project/banking.sol\":7546:7567  address(this).balance */\n      selfbalance\n        /* \"Project/banking.sol\":7539:7567  return address(this).balance */\n      swap1\n      pop\n        /* \"Project/banking.sol\":7469:7574  function getContractBalance() public view returns (uint256) {... */\n      swap1\n      jump\t// out\n        /* \"Project/banking.sol\":8059:8241  function personalLoanDetails(address account) public view returns(uint,uint,uint){... */\n    tag_42:\n        /* \"Project/banking.sol\":8125:8129  uint */\n      0x00\n        /* \"Project/banking.sol\":8130:8134  uint */\n      dup1\n        /* \"Project/banking.sol\":8135:8139  uint */\n      0x00\n        /* \"Project/banking.sol\":8158:8163  users */\n      0x01\n        /* \"Project/banking.sol\":8158:8172  users[account] */\n      0x00\n        /* \"Project/banking.sol\":8164:8171  account */\n      dup6\n        /* \"Project/banking.sol\":8158:8172  users[account] */\n      0xffffffffffffffffffffffffffffffffffffffff\n      and\n      0xffffffffffffffffffffffffffffffffffffffff\n      and\n      dup2\n      mstore\n      0x20\n      add\n      swap1\n      dup2\n      mstore\n      0x20\n      add\n      0x00\n      keccak256\n        /* \"Project/banking.sol\":8158:8185  users[account].personalLoan */\n      0x07\n      add\n      sload\n        /* \"Project/banking.sol\":8186:8191  users */\n      0x01\n        /* \"Project/banking.sol\":8186:8200  users[account] */\n      0x00\n        /* \"Project/banking.sol\":8192:8199  account */\n      dup7\n        /* \"Project/banking.sol\":8186:8200  users[account] */\n      0xffffffffffffffffffffffffffffffffffffffff\n      and\n      0xffffffffffffffffffffffffffffffffffffffff\n      and\n      dup2\n      mstore\n      0x20\n      add\n      swap1\n      dup2\n      mstore\n      0x20\n      add\n      0x00\n      keccak256\n        /* \"Project/banking.sol\":8186:8207  users[account].carEmi */\n      0x08\n      add\n      sload\n        /* \"Project/banking.sol\":8208:8213  users */\n      0x01\n        /* \"Project/banking.sol\":8208:8222  users[account] */\n      0x00\n        /* \"Project/banking.sol\":8214:8221  account */\n      dup8\n        /* \"Project/banking.sol\":8208:8222  users[account] */\n      0xffffffffffffffffffffffffffffffffffffffff\n      and\n      0xffffffffffffffffffffffffffffffffffffffff\n      and\n      dup2\n      mstore\n      0x20\n      add\n      swap1\n      dup2\n      mstore\n      0x20\n      add\n      0x00\n      keccak256\n        /* \"Project/banking.sol\":8208:8233  users[account].timeperiod */\n      0x04\n      add\n      sload\n        /* \"Project/banking.sol\":8150:8234  return (users[account].personalLoan,users[account].carEmi,users[account].timeperiod) */\n      swap3\n      pop\n      swap3\n      pop\n      swap3\n      pop\n        /* \"Project/banking.sol\":8059:8241  function personalLoanDetails(address account) public view returns(uint,uint,uint){... */\n      swap2\n      swap4\n      swap1\n      swap3\n      pop\n      jump\t// out\n        /* \"Project/banking.sol\":1414:4409  function Loan(... */\n    tag_47:\n        /* \"Project/banking.sol\":1569:1576  account */\n      dup4\n        /* \"Project/banking.sol\":1569:1585  account.transfer */\n      0xffffffffffffffffffffffffffffffffffffffff\n      and\n        /* \"Project/banking.sol\":1569:1593  account.transfer(amount) */\n      0x08fc\n        /* \"Project/banking.sol\":1586:1592  amount */\n      dup5\n        /* \"Project/banking.sol\":1569:1593  account.transfer(amount) */\n      swap1\n      dup2\n      iszero\n      mul\n      swap1\n      mload(0x40)\n      0x00\n      mload(0x40)\n      dup1\n      dup4\n      sub\n      dup2\n      dup6\n      dup9\n      dup9\n      call\n      swap4\n      pop\n      pop\n      pop\n      pop\n      iszero\n      dup1\n      iszero\n      tag_81\n      jumpi\n      returndatasize\n      0x00\n      dup1\n      returndatacopy\n      revert(0x00, returndatasize)\n    tag_81:\n      pop\n        /* \"Project/banking.sol\":1629:1635  amount */\n      dup3\n        /* \"Project/banking.sol\":1603:1608  users */\n      0x01\n        /* \"Project/banking.sol\":1603:1617  users[account] */\n      0x00\n        /* \"Project/banking.sol\":1609:1616  account */\n      dup7\n        /* \"Project/banking.sol\":1603:1617  users[account] */\n      0xffffffffffffffffffffffffffffffffffffffff\n      and\n      0xffffffffffffffffffffffffffffffffffffffff\n      and\n      dup2\n      mstore\n      0x20\n      add\n      swap1\n      dup2\n      mstore\n      0x20\n      add\n      0x00\n      keccak256\n        /* \"Project/banking.sol\":1603:1625  users[account].balance */\n      0x01\n      add\n      0x00\n        /* \"Project/banking.sol\":1603:1635  users[account].balance += amount */\n      dup3\n      dup3\n      sload\n      tag_82\n      swap2\n      swap1\n      tag_75\n      jump\t// in\n    tag_82:\n      swap3\n      pop\n      pop\n      dup2\n      swap1\n      sstore\n      pop\n        /* \"Project/banking.sol\":1916:1939  abi.encodePacked(\"car\") */\n      add(0x20, mload(0x40))\n      tag_83\n      swap1\n      tag_84\n      jump\t// in\n    tag_83:\n      mload(0x40)\n      0x20\n      dup2\n      dup4\n      sub\n      sub\n      dup2\n      mstore\n      swap1\n      0x40\n      mstore\n        /* \"Project/banking.sol\":1906:1940  keccak256(abi.encodePacked(\"car\")) */\n      dup1\n      mload\n      swap1\n      0x20\n      add\n      keccak256\n        /* \"Project/banking.sol\":1878:1884  _input */\n      dup2\n        /* \"Project/banking.sol\":1861:1885  abi.encodePacked(_input) */\n      add(0x20, mload(0x40))\n      tag_85\n      swap2\n      swap1\n      tag_86\n      jump\t// in\n    tag_85:\n      mload(0x40)\n      0x20\n      dup2\n      dup4\n      sub\n      sub\n      dup2\n      mstore\n      swap1\n      0x40\n      mstore\n        /* \"Project/banking.sol\":1851:1886  keccak256(abi.encodePacked(_input)) */\n      dup1\n      mload\n      swap1\n      0x20\n      add\n      keccak256\n        /* \"Project/banking.sol\":1851:1940  keccak256(abi.encodePacked(_input)) ==... */\n      eq\n        /* \"Project/banking.sol\":1851:2050  keccak256(abi.encodePacked(_input)) ==... */\n      dup1\n      tag_87\n      jumpi\n      pop\n        /* \"Project/banking.sol\":2025:2049  abi.encodePacked(\"home\") */\n      add(0x20, mload(0x40))\n      tag_88\n      swap1\n      tag_89\n      jump\t// in\n    tag_88:\n      mload(0x40)\n      0x20\n      dup2\n      dup4\n      sub\n      sub\n      dup2\n      mstore\n      swap1\n      0x40\n      mstore\n        /* \"Project/banking.sol\":2015:2050  keccak256(abi.encodePacked(\"home\")) */\n      dup1\n      mload\n      swap1\n      0x20\n      add\n      keccak256\n        /* \"Project/banking.sol\":1987:1993  _input */\n      dup2\n        /* \"Project/banking.sol\":1970:1994  abi.encodePacked(_input) */\n      add(0x20, mload(0x40))\n      tag_90\n      swap2\n      swap1\n      tag_86\n      jump\t// in\n    tag_90:\n      mload(0x40)\n      0x20\n      dup2\n      dup4\n      sub\n      sub\n      dup2\n      mstore\n      swap1\n      0x40\n      mstore\n        /* \"Project/banking.sol\":1960:1995  keccak256(abi.encodePacked(_input)) */\n      dup1\n      mload\n      swap1\n      0x20\n      add\n      keccak256\n        /* \"Project/banking.sol\":1960:2050  keccak256(abi.encodePacked(_input)) ==... */\n      eq\n        /* \"Project/banking.sol\":1851:2050  keccak256(abi.encodePacked(_input)) ==... */\n    tag_87:\n        /* \"Project/banking.sol\":1851:2164  keccak256(abi.encodePacked(_input)) ==... */\n      dup1\n      tag_91\n      jumpi\n      pop\n        /* \"Project/banking.sol\":2135:2163  abi.encodePacked(\"personal\") */\n      add(0x20, mload(0x40))\n      tag_92\n      swap1\n      tag_93\n      jump\t// in\n    tag_92:\n      mload(0x40)\n      0x20\n      dup2\n      dup4\n      sub\n      sub\n      dup2\n      mstore\n      swap1\n      0x40\n      mstore\n        /* \"Project/banking.sol\":2125:2164  keccak256(abi.encodePacked(\"personal\")) */\n      dup1\n      mload\n      swap1\n      0x20\n      add\n      keccak256\n        /* \"Project/banking.sol\":2097:2103  _input */\n      dup2\n        /* \"Project/banking.sol\":2080:2104  abi.encodePacked(_input) */\n      add(0x20, mload(0x40))\n      tag_94\n      swap2\n      swap1\n      tag_86\n      jump\t// in\n    tag_94:\n      mload(0x40)\n      0x20\n      dup2\n      dup4\n      sub\n      sub\n      dup2\n      mstore\n      swap1\n      0x40\n      mstore\n        /* \"Project/banking.sol\":2070:2105  keccak256(abi.encodePacked(_input)) */\n      dup1\n      mload\n      swap1\n      0x20\n      add\n      keccak256\n        /* \"Project/banking.sol\":2070:2164  keccak256(abi.encodePacked(_input)) ==... */\n      eq\n        /* \"Project/banking.sol\":1851:2164  keccak256(abi.encodePacked(_input)) ==... */\n    tag_91:\n        /* \"Project/banking.sol\":1830:2207  require(... */\n      tag_95\n      jumpi\n      mload(0x40)\n      0x08c379a000000000000000000000000000000000000000000000000000000000\n      dup2\n      mstore\n      0x04\n      add\n      tag_96\n      swap1\n      tag_97\n      jump\t// in\n    tag_96:\n      mload(0x40)\n      dup1\n      swap2\n      sub\n      swap1\n      revert\n    tag_95:\n        /* \"Project/banking.sol\":2295:2318  abi.encodePacked(\"car\") */\n      add(0x20, mload(0x40))\n      tag_98\n      swap1\n      tag_84\n      jump\t// in\n    tag_98:\n      mload(0x40)\n      0x20\n      dup2\n      dup4\n      sub\n      sub\n      dup2\n      mstore\n      swap1\n      0x40\n      mstore\n        /* \"Project/banking.sol\":2285:2319  keccak256(abi.encodePacked(\"car\")) */\n      dup1\n      mload\n      swap1\n      0x20\n      add\n      keccak256\n        /* \"Project/banking.sol\":2261:2267  _input */\n      dup2\n        /* \"Project/banking.sol\":2244:2268  abi.encodePacked(_input) */\n      add(0x20, mload(0x40))\n      tag_99\n      swap2\n      swap1\n      tag_86\n      jump\t// in\n    tag_99:\n      mload(0x40)\n      0x20\n      dup2\n      dup4\n      sub\n      sub\n      dup2\n      mstore\n      swap1\n      0x40\n      mstore\n        /* \"Project/banking.sol\":2234:2269  keccak256(abi.encodePacked(_input)) */\n      dup1\n      mload\n      swap1\n      0x20\n      add\n      keccak256\n        /* \"Project/banking.sol\":2234:2319  keccak256(abi.encodePacked(_input)) ==... */\n      sub\n        /* \"Project/banking.sol\":2217:4036  if (... */\n      tag_100\n      jumpi\n        /* \"Project/banking.sol\":2394:2395  1 */\n      0x01\n        /* \"Project/banking.sol\":2369:2374  users */\n      dup1\n        /* \"Project/banking.sol\":2369:2383  users[account] */\n      0x00\n        /* \"Project/banking.sol\":2375:2382  account */\n      dup7\n        /* \"Project/banking.sol\":2369:2383  users[account] */\n      0xffffffffffffffffffffffffffffffffffffffff\n      and\n      0xffffffffffffffffffffffffffffffffffffffff\n      and\n      dup2\n      mstore\n      0x20\n      add\n      swap1\n      dup2\n      mstore\n      0x20\n      add\n      0x00\n      keccak256\n        /* \"Project/banking.sol\":2369:2391  users[account].carLoan */\n      0x05\n      add\n      sload\n        /* \"Project/banking.sol\":2369:2395  users[account].carLoan < 1 */\n      lt\n        /* \"Project/banking.sol\":2344:2475  require(... */\n      tag_101\n      jumpi\n      mload(0x40)\n      0x08c379a000000000000000000000000000000000000000000000000000000000\n      dup2\n      mstore\n      0x04\n      add\n      tag_102\n      swap1\n      tag_103\n      jump\t// in\n    tag_102:\n      mload(0x40)\n      dup1\n      swap2\n      sub\n      swap1\n      revert\n    tag_101:\n        /* \"Project/banking.sol\":2489:2502  uint256 carSI */\n      0x00\n        /* \"Project/banking.sol\":2528:2532  1200 */\n      0x04b0\n        /* \"Project/banking.sol\":2519:2524  month */\n      dup4\n        /* \"Project/banking.sol\":2515:2516  8 */\n      0x08\n        /* \"Project/banking.sol\":2506:2512  amount */\n      dup7\n        /* \"Project/banking.sol\":2506:2516  amount * 8 */\n      tag_104\n      swap2\n      swap1\n      tag_105\n      jump\t// in\n    tag_104:\n        /* \"Project/banking.sol\":2506:2524  amount * 8 * month */\n      tag_106\n      swap2\n      swap1\n      tag_105\n      jump\t// in\n    tag_106:\n        /* \"Project/banking.sol\":2505:2532  (amount * 8 * month) / 1200 */\n      tag_107\n      swap2\n      swap1\n      tag_108\n      jump\t// in\n    tag_107:\n        /* \"Project/banking.sol\":2489:2532  uint256 carSI = (amount * 8 * month) / 1200 */\n      swap1\n      pop\n        /* \"Project/banking.sol\":2580:2585  carSI */\n      dup1\n        /* \"Project/banking.sol\":2571:2577  amount */\n      dup5\n        /* \"Project/banking.sol\":2571:2585  amount + carSI */\n      tag_109\n      swap2\n      swap1\n      tag_75\n      jump\t// in\n    tag_109:\n        /* \"Project/banking.sol\":2546:2551  users */\n      0x01\n        /* \"Project/banking.sol\":2546:2560  users[account] */\n      0x00\n        /* \"Project/banking.sol\":2552:2559  account */\n      dup8\n        /* \"Project/banking.sol\":2546:2560  users[account] */\n      0xffffffffffffffffffffffffffffffffffffffff\n      and\n      0xffffffffffffffffffffffffffffffffffffffff\n      and\n      dup2\n      mstore\n      0x20\n      add\n      swap1\n      dup2\n      mstore\n      0x20\n      add\n      0x00\n      keccak256\n        /* \"Project/banking.sol\":2546:2568  users[account].carLoan */\n      0x05\n      add\n        /* \"Project/banking.sol\":2546:2585  users[account].carLoan = amount + carSI */\n      dup2\n      swap1\n      sstore\n      pop\n        /* \"Project/banking.sol\":2648:2653  month */\n      dup3\n        /* \"Project/banking.sol\":2623:2628  users */\n      0x01\n        /* \"Project/banking.sol\":2623:2637  users[account] */\n      0x00\n        /* \"Project/banking.sol\":2629:2636  account */\n      dup8\n        /* \"Project/banking.sol\":2623:2637  users[account] */\n      0xffffffffffffffffffffffffffffffffffffffff\n      and\n      0xffffffffffffffffffffffffffffffffffffffff\n      and\n      dup2\n      mstore\n      0x20\n      add\n      swap1\n      dup2\n      mstore\n      0x20\n      add\n      0x00\n      keccak256\n        /* \"Project/banking.sol\":2623:2645  users[account].carLoan */\n      0x05\n      add\n      sload\n        /* \"Project/banking.sol\":2623:2653  users[account].carLoan / month */\n      tag_110\n      swap2\n      swap1\n      tag_108\n      jump\t// in\n    tag_110:\n        /* \"Project/banking.sol\":2599:2604  users */\n      0x01\n        /* \"Project/banking.sol\":2599:2613  users[account] */\n      0x00\n        /* \"Project/banking.sol\":2605:2612  account */\n      dup8\n        /* \"Project/banking.sol\":2599:2613  users[account] */\n      0xffffffffffffffffffffffffffffffffffffffff\n      and\n      0xffffffffffffffffffffffffffffffffffffffff\n      and\n      dup2\n      mstore\n      0x20\n      add\n      swap1\n      dup2\n      mstore\n      0x20\n      add\n      0x00\n      keccak256\n        /* \"Project/banking.sol\":2599:2620  users[account].carEmi */\n      0x08\n      add\n        /* \"Project/banking.sol\":2599:2653  users[account].carEmi = users[account].carLoan / month */\n      dup2\n      swap1\n      sstore\n      pop\n        /* \"Project/banking.sol\":2696:2701  month */\n      dup3\n        /* \"Project/banking.sol\":2667:2672  users */\n      0x01\n        /* \"Project/banking.sol\":2667:2681  users[account] */\n      0x00\n        /* \"Project/banking.sol\":2673:2680  account */\n      dup8\n        /* \"Project/banking.sol\":2667:2681  users[account] */\n      0xffffffffffffffffffffffffffffffffffffffff\n      and\n      0xffffffffffffffffffffffffffffffffffffffff\n      and\n      dup2\n      mstore\n      0x20\n      add\n      swap1\n      dup2\n      mstore\n      0x20\n      add\n      0x00\n      keccak256\n        /* \"Project/banking.sol\":2667:2692  users[account].timeperiod */\n      0x04\n      add\n      0x00\n        /* \"Project/banking.sol\":2667:2701  users[account].timeperiod += month */\n      dup3\n      dup3\n      sload\n      tag_111\n      swap2\n      swap1\n      tag_75\n      jump\t// in\n    tag_111:\n      swap3\n      pop\n      pop\n      dup2\n      swap1\n      sstore\n      pop\n        /* \"Project/banking.sol\":2747:2752  carSI */\n      dup1\n        /* \"Project/banking.sol\":2738:2744  amount */\n      dup5\n        /* \"Project/banking.sol\":2738:2752  amount + carSI */\n      tag_112\n      swap2\n      swap1\n      tag_75\n      jump\t// in\n    tag_112:\n        /* \"Project/banking.sol\":2715:2720  users */\n      0x01\n        /* \"Project/banking.sol\":2715:2729  users[account] */\n      0x00\n        /* \"Project/banking.sol\":2721:2728  account */\n      dup8\n        /* \"Project/banking.sol\":2715:2729  users[account] */\n      0xffffffffffffffffffffffffffffffffffffffff\n      and\n      0xffffffffffffffffffffffffffffffffffffffff\n      and\n      dup2\n      mstore\n      0x20\n      add\n      swap1\n      dup2\n      mstore\n      0x20\n      add\n      0x00\n      keccak256\n        /* \"Project/banking.sol\":2715:2734  users[account].loan */\n      0x02\n      add\n      0x00\n        /* \"Project/banking.sol\":2715:2752  users[account].loan += amount + carSI */\n      dup3\n      dup3\n      sload\n      tag_113\n      swap2\n      swap1\n      tag_75\n      jump\t// in\n    tag_113:\n      swap3\n      pop\n      pop\n      dup2\n      swap1\n      sstore\n      pop\n        /* \"Project/banking.sol\":2330:2763  {... */\n      pop\n        /* \"Project/banking.sol\":2217:4036  if (... */\n      jump(tag_114)\n    tag_100:\n        /* \"Project/banking.sol\":2847:2871  abi.encodePacked(\"home\") */\n      add(0x20, mload(0x40))\n      tag_115\n      swap1\n      tag_89\n      jump\t// in\n    tag_115:\n      mload(0x40)\n      0x20\n      dup2\n      dup4\n      sub\n      sub\n      dup2\n      mstore\n      swap1\n      0x40\n      mstore\n        /* \"Project/banking.sol\":2837:2872  keccak256(abi.encodePacked(\"home\")) */\n      dup1\n      mload\n      swap1\n      0x20\n      add\n      keccak256\n        /* \"Project/banking.sol\":2813:2819  _input */\n      dup2\n        /* \"Project/banking.sol\":2796:2820  abi.encodePacked(_input) */\n      add(0x20, mload(0x40))\n      tag_116\n      swap2\n      swap1\n      tag_86\n      jump\t// in\n    tag_116:\n      mload(0x40)\n      0x20\n      dup2\n      dup4\n      sub\n      sub\n      dup2\n      mstore\n      swap1\n      0x40\n      mstore\n        /* \"Project/banking.sol\":2786:2821  keccak256(abi.encodePacked(_input)) */\n      dup1\n      mload\n      swap1\n      0x20\n      add\n      keccak256\n        /* \"Project/banking.sol\":2786:2872  keccak256(abi.encodePacked(_input)) ==... */\n      sub\n        /* \"Project/banking.sol\":2769:4036  if (... */\n      tag_117\n      jumpi\n        /* \"Project/banking.sol\":2948:2949  1 */\n      0x01\n        /* \"Project/banking.sol\":2922:2927  users */\n      dup1\n        /* \"Project/banking.sol\":2922:2936  users[account] */\n      0x00\n        /* \"Project/banking.sol\":2928:2935  account */\n      dup7\n        /* \"Project/banking.sol\":2922:2936  users[account] */\n      0xffffffffffffffffffffffffffffffffffffffff\n      and\n      0xffffffffffffffffffffffffffffffffffffffff\n      and\n      dup2\n      mstore\n      0x20\n      add\n      swap1\n      dup2\n      mstore\n      0x20\n      add\n      0x00\n      keccak256\n        /* \"Project/banking.sol\":2922:2945  users[account].homeLoan */\n      0x06\n      add\n      sload\n        /* \"Project/banking.sol\":2922:2949  users[account].homeLoan < 1 */\n      lt\n        /* \"Project/banking.sol\":2897:3038  require(... */\n      tag_118\n      jumpi\n      mload(0x40)\n      0x08c379a000000000000000000000000000000000000000000000000000000000\n      dup2\n      mstore\n      0x04\n      add\n      tag_119\n      swap1\n      tag_120\n      jump\t// in\n    tag_119:\n      mload(0x40)\n      dup1\n      swap2\n      sub\n      swap1\n      revert\n    tag_118:\n        /* \"Project/banking.sol\":3052:3066  uint256 homeSI */\n      0x00\n        /* \"Project/banking.sol\":3092:3096  1200 */\n      0x04b0\n        /* \"Project/banking.sol\":3083:3088  month */\n      dup4\n        /* \"Project/banking.sol\":3079:3080  6 */\n      0x06\n        /* \"Project/banking.sol\":3070:3076  amount */\n      dup7\n        /* \"Project/banking.sol\":3070:3080  amount * 6 */\n      tag_121\n      swap2\n      swap1\n      tag_105\n      jump\t// in\n    tag_121:\n        /* \"Project/banking.sol\":3070:3088  amount * 6 * month */\n      tag_122\n      swap2\n      swap1\n      tag_105\n      jump\t// in\n    tag_122:\n        /* \"Project/banking.sol\":3069:3096  (amount * 6 * month) / 1200 */\n      tag_123\n      swap2\n      swap1\n      tag_108\n      jump\t// in\n    tag_123:\n        /* \"Project/banking.sol\":3052:3096  uint256 homeSI = (amount * 6 * month) / 1200 */\n      swap1\n      pop\n        /* \"Project/banking.sol\":3110:3133  uint256 finalAmountHome */\n      0x00\n        /* \"Project/banking.sol\":3145:3151  homeSI */\n      dup2\n        /* \"Project/banking.sol\":3136:3142  amount */\n      dup6\n        /* \"Project/banking.sol\":3136:3151  amount + homeSI */\n      tag_124\n      swap2\n      swap1\n      tag_75\n      jump\t// in\n    tag_124:\n        /* \"Project/banking.sol\":3110:3151  uint256 finalAmountHome = amount + homeSI */\n      swap1\n      pop\n        /* \"Project/banking.sol\":3191:3206  finalAmountHome */\n      dup1\n        /* \"Project/banking.sol\":3165:3170  users */\n      0x01\n        /* \"Project/banking.sol\":3165:3179  users[account] */\n      0x00\n        /* \"Project/banking.sol\":3171:3178  account */\n      dup9\n        /* \"Project/banking.sol\":3165:3179  users[account] */\n      0xffffffffffffffffffffffffffffffffffffffff\n      and\n      0xffffffffffffffffffffffffffffffffffffffff\n      and\n      dup2\n      mstore\n      0x20\n      add\n      swap1\n      dup2\n      mstore\n      0x20\n      add\n      0x00\n      keccak256\n        /* \"Project/banking.sol\":3165:3188  users[account].homeLoan */\n      0x06\n      add\n        /* \"Project/banking.sol\":3165:3206  users[account].homeLoan = finalAmountHome */\n      dup2\n      swap1\n      sstore\n      pop\n        /* \"Project/banking.sol\":3267:3272  month */\n      dup4\n        /* \"Project/banking.sol\":3241:3246  users */\n      0x01\n        /* \"Project/banking.sol\":3241:3255  users[account] */\n      0x00\n        /* \"Project/banking.sol\":3247:3254  account */\n      dup9\n        /* \"Project/banking.sol\":3241:3255  users[account] */\n      0xffffffffffffffffffffffffffffffffffffffff\n      and\n      0xffffffffffffffffffffffffffffffffffffffff\n      and\n      dup2\n      mstore\n      0x20\n      add\n      swap1\n      dup2\n      mstore\n      0x20\n      add\n      0x00\n      keccak256\n        /* \"Project/banking.sol\":3241:3264  users[account].homeLoan */\n      0x06\n      add\n      sload\n        /* \"Project/banking.sol\":3241:3272  users[account].homeLoan / month */\n      tag_125\n      swap2\n      swap1\n      tag_108\n      jump\t// in\n    tag_125:\n        /* \"Project/banking.sol\":3220:3225  users */\n      0x01\n        /* \"Project/banking.sol\":3220:3234  users[account] */\n      0x00\n        /* \"Project/banking.sol\":3226:3233  account */\n      dup9\n        /* \"Project/banking.sol\":3220:3234  users[account] */\n      0xffffffffffffffffffffffffffffffffffffffff\n      and\n      0xffffffffffffffffffffffffffffffffffffffff\n      and\n      dup2\n      mstore\n      0x20\n      add\n      swap1\n      dup2\n      mstore\n      0x20\n      add\n      0x00\n      keccak256\n        /* \"Project/banking.sol\":3220:3238  users[account].emi */\n      0x03\n      add\n        /* \"Project/banking.sol\":3220:3272  users[account].emi = users[account].homeLoan / month */\n      dup2\n      swap1\n      sstore\n      pop\n        /* \"Project/banking.sol\":3315:3320  month */\n      dup4\n        /* \"Project/banking.sol\":3286:3291  users */\n      0x01\n        /* \"Project/banking.sol\":3286:3300  users[account] */\n      0x00\n        /* \"Project/banking.sol\":3292:3299  account */\n      dup9\n        /* \"Project/banking.sol\":3286:3300  users[account] */\n      0xffffffffffffffffffffffffffffffffffffffff\n      and\n      0xffffffffffffffffffffffffffffffffffffffff\n      and\n      dup2\n      mstore\n      0x20\n      add\n      swap1\n      dup2\n      mstore\n      0x20\n      add\n      0x00\n      keccak256\n        /* \"Project/banking.sol\":3286:3311  users[account].timeperiod */\n      0x04\n      add\n      0x00\n        /* \"Project/banking.sol\":3286:3320  users[account].timeperiod += month */\n      dup3\n      dup3\n      sload\n      tag_126\n      swap2\n      swap1\n      tag_75\n      jump\t// in\n    tag_126:\n      swap3\n      pop\n      pop\n      dup2\n      swap1\n      sstore\n      pop\n        /* \"Project/banking.sol\":3366:3372  homeSI */\n      dup2\n        /* \"Project/banking.sol\":3357:3363  amount */\n      dup6\n        /* \"Project/banking.sol\":3357:3372  amount + homeSI */\n      tag_127\n      swap2\n      swap1\n      tag_75\n      jump\t// in\n    tag_127:\n        /* \"Project/banking.sol\":3334:3339  users */\n      0x01\n        /* \"Project/banking.sol\":3334:3348  users[account] */\n      0x00\n        /* \"Project/banking.sol\":3340:3347  account */\n      dup9\n        /* \"Project/banking.sol\":3334:3348  users[account] */\n      0xffffffffffffffffffffffffffffffffffffffff\n      and\n      0xffffffffffffffffffffffffffffffffffffffff\n      and\n      dup2\n      mstore\n      0x20\n      add\n      swap1\n      dup2\n      mstore\n      0x20\n      add\n      0x00\n      keccak256\n        /* \"Project/banking.sol\":3334:3353  users[account].loan */\n      0x02\n      add\n      0x00\n        /* \"Project/banking.sol\":3334:3372  users[account].loan += amount + homeSI */\n      dup3\n      dup3\n      sload\n      tag_128\n      swap2\n      swap1\n      tag_75\n      jump\t// in\n    tag_128:\n      swap3\n      pop\n      pop\n      dup2\n      swap1\n      sstore\n      pop\n        /* \"Project/banking.sol\":2883:3383  {... */\n      pop\n      pop\n        /* \"Project/banking.sol\":2769:4036  if (... */\n      jump(tag_129)\n    tag_117:\n        /* \"Project/banking.sol\":3467:3495  abi.encodePacked(\"personal\") */\n      add(0x20, mload(0x40))\n      tag_130\n      swap1\n      tag_93\n      jump\t// in\n    tag_130:\n      mload(0x40)\n      0x20\n      dup2\n      dup4\n      sub\n      sub\n      dup2\n      mstore\n      swap1\n      0x40\n      mstore\n        /* \"Project/banking.sol\":3457:3496  keccak256(abi.encodePacked(\"personal\")) */\n      dup1\n      mload\n      swap1\n      0x20\n      add\n      keccak256\n        /* \"Project/banking.sol\":3433:3439  _input */\n      dup2\n        /* \"Project/banking.sol\":3416:3440  abi.encodePacked(_input) */\n      add(0x20, mload(0x40))\n      tag_131\n      swap2\n      swap1\n      tag_86\n      jump\t// in\n    tag_131:\n      mload(0x40)\n      0x20\n      dup2\n      dup4\n      sub\n      sub\n      dup2\n      mstore\n      swap1\n      0x40\n      mstore\n        /* \"Project/banking.sol\":3406:3441  keccak256(abi.encodePacked(_input)) */\n      dup1\n      mload\n      swap1\n      0x20\n      add\n      keccak256\n        /* \"Project/banking.sol\":3406:3496  keccak256(abi.encodePacked(_input)) ==... */\n      sub\n        /* \"Project/banking.sol\":3389:4036  if (... */\n      tag_132\n      jumpi\n        /* \"Project/banking.sol\":3576:3577  1 */\n      0x01\n        /* \"Project/banking.sol\":3546:3551  users */\n      dup1\n        /* \"Project/banking.sol\":3546:3560  users[account] */\n      0x00\n        /* \"Project/banking.sol\":3552:3559  account */\n      dup7\n        /* \"Project/banking.sol\":3546:3560  users[account] */\n      0xffffffffffffffffffffffffffffffffffffffff\n      and\n      0xffffffffffffffffffffffffffffffffffffffff\n      and\n      dup2\n      mstore\n      0x20\n      add\n      swap1\n      dup2\n      mstore\n      0x20\n      add\n      0x00\n      keccak256\n        /* \"Project/banking.sol\":3546:3573  users[account].personalLoan */\n      0x07\n      add\n      sload\n        /* \"Project/banking.sol\":3546:3577  users[account].personalLoan < 1 */\n      lt\n        /* \"Project/banking.sol\":3521:3662  require(... */\n      tag_133\n      jumpi\n      mload(0x40)\n      0x08c379a000000000000000000000000000000000000000000000000000000000\n      dup2\n      mstore\n      0x04\n      add\n      tag_134\n      swap1\n      tag_135\n      jump\t// in\n    tag_134:\n      mload(0x40)\n      dup1\n      swap2\n      sub\n      swap1\n      revert\n    tag_133:\n        /* \"Project/banking.sol\":3676:3694  uint256 personalSI */\n      0x00\n        /* \"Project/banking.sol\":3721:3725  1200 */\n      0x04b0\n        /* \"Project/banking.sol\":3712:3717  month */\n      dup4\n        /* \"Project/banking.sol\":3707:3709  10 */\n      0x0a\n        /* \"Project/banking.sol\":3698:3704  amount */\n      dup7\n        /* \"Project/banking.sol\":3698:3709  amount * 10 */\n      tag_136\n      swap2\n      swap1\n      tag_105\n      jump\t// in\n    tag_136:\n        /* \"Project/banking.sol\":3698:3717  amount * 10 * month */\n      tag_137\n      swap2\n      swap1\n      tag_105\n      jump\t// in\n    tag_137:\n        /* \"Project/banking.sol\":3697:3725  (amount * 10 * month) / 1200 */\n      tag_138\n      swap2\n      swap1\n      tag_108\n      jump\t// in\n    tag_138:\n        /* \"Project/banking.sol\":3676:3725  uint256 personalSI = (amount * 10 * month) / 1200 */\n      swap1\n      pop\n        /* \"Project/banking.sol\":3739:3766  uint256 finalAmountPersonal */\n      0x00\n        /* \"Project/banking.sol\":3778:3788  personalSI */\n      dup2\n        /* \"Project/banking.sol\":3769:3775  amount */\n      dup6\n        /* \"Project/banking.sol\":3769:3788  amount + personalSI */\n      tag_139\n      swap2\n      swap1\n      tag_75\n      jump\t// in\n    tag_139:\n        /* \"Project/banking.sol\":3739:3788  uint256 finalAmountPersonal = amount + personalSI */\n      swap1\n      pop\n        /* \"Project/banking.sol\":3832:3851  finalAmountPersonal */\n      dup1\n        /* \"Project/banking.sol\":3802:3807  users */\n      0x01\n        /* \"Project/banking.sol\":3802:3816  users[account] */\n      0x00\n        /* \"Project/banking.sol\":3808:3815  account */\n      dup9\n        /* \"Project/banking.sol\":3802:3816  users[account] */\n      0xffffffffffffffffffffffffffffffffffffffff\n      and\n      0xffffffffffffffffffffffffffffffffffffffff\n      and\n      dup2\n      mstore\n      0x20\n      add\n      swap1\n      dup2\n      mstore\n      0x20\n      add\n      0x00\n      keccak256\n        /* \"Project/banking.sol\":3802:3829  users[account].personalLoan */\n      0x07\n      add\n        /* \"Project/banking.sol\":3802:3851  users[account].personalLoan = finalAmountPersonal */\n      dup2\n      swap1\n      sstore\n      pop\n        /* \"Project/banking.sol\":3916:3921  month */\n      dup4\n        /* \"Project/banking.sol\":3886:3891  users */\n      0x01\n        /* \"Project/banking.sol\":3886:3900  users[account] */\n      0x00\n        /* \"Project/banking.sol\":3892:3899  account */\n      dup9\n        /* \"Project/banking.sol\":3886:3900  users[account] */\n      0xffffffffffffffffffffffffffffffffffffffff\n      and\n      0xffffffffffffffffffffffffffffffffffffffff\n      and\n      dup2\n      mstore\n      0x20\n      add\n      swap1\n      dup2\n      mstore\n      0x20\n      add\n      0x00\n      keccak256\n        /* \"Project/banking.sol\":3886:3913  users[account].personalLoan */\n      0x07\n      add\n      sload\n        /* \"Project/banking.sol\":3886:3921  users[account].personalLoan / month */\n      tag_140\n      swap2\n      swap1\n      tag_108\n      jump\t// in\n    tag_140:\n        /* \"Project/banking.sol\":3865:3870  users */\n      0x01\n        /* \"Project/banking.sol\":3865:3879  users[account] */\n      0x00\n        /* \"Project/banking.sol\":3871:3878  account */\n      dup9\n        /* \"Project/banking.sol\":3865:3879  users[account] */\n      0xffffffffffffffffffffffffffffffffffffffff\n      and\n      0xffffffffffffffffffffffffffffffffffffffff\n      and\n      dup2\n      mstore\n      0x20\n      add\n      swap1\n      dup2\n      mstore\n      0x20\n      add\n      0x00\n      keccak256\n        /* \"Project/banking.sol\":3865:3883  users[account].emi */\n      0x03\n      add\n        /* \"Project/banking.sol\":3865:3921  users[account].emi = users[account].personalLoan / month */\n      dup2\n      swap1\n      sstore\n      pop\n        /* \"Project/banking.sol\":3964:3969  month */\n      dup4\n        /* \"Project/banking.sol\":3935:3940  users */\n      0x01\n        /* \"Project/banking.sol\":3935:3949  users[account] */\n      0x00\n        /* \"Project/banking.sol\":3941:3948  account */\n      dup9\n        /* \"Project/banking.sol\":3935:3949  users[account] */\n      0xffffffffffffffffffffffffffffffffffffffff\n      and\n      0xffffffffffffffffffffffffffffffffffffffff\n      and\n      dup2\n      mstore\n      0x20\n      add\n      swap1\n      dup2\n      mstore\n      0x20\n      add\n      0x00\n      keccak256\n        /* \"Project/banking.sol\":3935:3960  users[account].timeperiod */\n      0x04\n      add\n      0x00\n        /* \"Project/banking.sol\":3935:3969  users[account].timeperiod += month */\n      dup3\n      dup3\n      sload\n      tag_141\n      swap2\n      swap1\n      tag_75\n      jump\t// in\n    tag_141:\n      swap3\n      pop\n      pop\n      dup2\n      swap1\n      sstore\n      pop\n        /* \"Project/banking.sol\":4015:4025  personalSI */\n      dup2\n        /* \"Project/banking.sol\":4006:4012  amount */\n      dup6\n        /* \"Project/banking.sol\":4006:4025  amount + personalSI */\n      tag_142\n      swap2\n      swap1\n      tag_75\n      jump\t// in\n    tag_142:\n        /* \"Project/banking.sol\":3983:3988  users */\n      0x01\n        /* \"Project/banking.sol\":3983:3997  users[account] */\n      0x00\n        /* \"Project/banking.sol\":3989:3996  account */\n      dup9\n        /* \"Project/banking.sol\":3983:3997  users[account] */\n      0xffffffffffffffffffffffffffffffffffffffff\n      and\n      0xffffffffffffffffffffffffffffffffffffffff\n      and\n      dup2\n      mstore\n      0x20\n      add\n      swap1\n      dup2\n      mstore\n      0x20\n      add\n      0x00\n      keccak256\n        /* \"Project/banking.sol\":3983:4002  users[account].loan */\n      0x02\n      add\n      0x00\n        /* \"Project/banking.sol\":3983:4025  users[account].loan += amount + personalSI */\n      dup3\n      dup3\n      sload\n      tag_143\n      swap2\n      swap1\n      tag_75\n      jump\t// in\n    tag_143:\n      swap3\n      pop\n      pop\n      dup2\n      swap1\n      sstore\n      pop\n        /* \"Project/banking.sol\":3507:4036  {... */\n      pop\n      pop\n        /* \"Project/banking.sol\":3389:4036  if (... */\n    tag_132:\n        /* \"Project/banking.sol\":2769:4036  if (... */\n    tag_129:\n        /* \"Project/banking.sol\":2217:4036  if (... */\n    tag_114:\n        /* \"Project/banking.sol\":4063:4402  user(... */\n      mload(0x40)\n      dup1\n      0x0120\n      add\n      0x40\n      mstore\n      dup1\n        /* \"Project/banking.sol\":4081:4086  users */\n      0x01\n        /* \"Project/banking.sol\":4081:4095  users[account] */\n      0x00\n        /* \"Project/banking.sol\":4087:4094  account */\n      dup8\n        /* \"Project/banking.sol\":4081:4095  users[account] */\n      0xffffffffffffffffffffffffffffffffffffffff\n      and\n      0xffffffffffffffffffffffffffffffffffffffff\n      and\n      dup2\n      mstore\n      0x20\n      add\n      swap1\n      dup2\n      mstore\n      0x20\n      add\n      0x00\n      keccak256\n        /* \"Project/banking.sol\":4081:4103  users[account].user_id */\n      0x00\n      add\n      0x00\n      swap1\n      sload\n      swap1\n      0x0100\n      exp\n      swap1\n      div\n      0xffffffffffffffffffffffffffffffffffffffff\n      and\n        /* \"Project/banking.sol\":4063:4402  user(... */\n      0xffffffffffffffffffffffffffffffffffffffff\n      and\n      dup2\n      mstore\n      0x20\n      add\n        /* \"Project/banking.sol\":4117:4122  users */\n      0x01\n        /* \"Project/banking.sol\":4117:4131  users[account] */\n      0x00\n        /* \"Project/banking.sol\":4123:4130  account */\n      dup8\n        /* \"Project/banking.sol\":4117:4131  users[account] */\n      0xffffffffffffffffffffffffffffffffffffffff\n      and\n      0xffffffffffffffffffffffffffffffffffffffff\n      and\n      dup2\n      mstore\n      0x20\n      add\n      swap1\n      dup2\n      mstore\n      0x20\n      add\n      0x00\n      keccak256\n        /* \"Project/banking.sol\":4117:4139  users[account].balance */\n      0x01\n      add\n      sload\n        /* \"Project/banking.sol\":4063:4402  user(... */\n      dup2\n      mstore\n      0x20\n      add\n        /* \"Project/banking.sol\":4153:4158  users */\n      0x01\n        /* \"Project/banking.sol\":4153:4167  users[account] */\n      0x00\n        /* \"Project/banking.sol\":4159:4166  account */\n      dup8\n        /* \"Project/banking.sol\":4153:4167  users[account] */\n      0xffffffffffffffffffffffffffffffffffffffff\n      and\n      0xffffffffffffffffffffffffffffffffffffffff\n      and\n      dup2\n      mstore\n      0x20\n      add\n      swap1\n      dup2\n      mstore\n      0x20\n      add\n      0x00\n      keccak256\n        /* \"Project/banking.sol\":4153:4172  users[account].loan */\n      0x02\n      add\n      sload\n        /* \"Project/banking.sol\":4063:4402  user(... */\n      dup2\n      mstore\n      0x20\n      add\n        /* \"Project/banking.sol\":4186:4191  users */\n      0x01\n        /* \"Project/banking.sol\":4186:4200  users[account] */\n      0x00\n        /* \"Project/banking.sol\":4192:4199  account */\n      dup8\n        /* \"Project/banking.sol\":4186:4200  users[account] */\n      0xffffffffffffffffffffffffffffffffffffffff\n      and\n      0xffffffffffffffffffffffffffffffffffffffff\n      and\n      dup2\n      mstore\n      0x20\n      add\n      swap1\n      dup2\n      mstore\n      0x20\n      add\n      0x00\n      keccak256\n        /* \"Project/banking.sol\":4186:4204  users[account].emi */\n      0x03\n      add\n      sload\n        /* \"Project/banking.sol\":4063:4402  user(... */\n      dup2\n      mstore\n      0x20\n      add\n        /* \"Project/banking.sol\":4218:4223  users */\n      0x01\n        /* \"Project/banking.sol\":4218:4232  users[account] */\n      0x00\n        /* \"Project/banking.sol\":4224:4231  account */\n      dup8\n        /* \"Project/banking.sol\":4218:4232  users[account] */\n      0xffffffffffffffffffffffffffffffffffffffff\n      and\n      0xffffffffffffffffffffffffffffffffffffffff\n      and\n      dup2\n      mstore\n      0x20\n      add\n      swap1\n      dup2\n      mstore\n      0x20\n      add\n      0x00\n      keccak256\n        /* \"Project/banking.sol\":4218:4243  users[account].timeperiod */\n      0x04\n      add\n      sload\n        /* \"Project/banking.sol\":4063:4402  user(... */\n      dup2\n      mstore\n      0x20\n      add\n        /* \"Project/banking.sol\":4257:4262  users */\n      0x01\n        /* \"Project/banking.sol\":4257:4271  users[account] */\n      0x00\n        /* \"Project/banking.sol\":4263:4270  account */\n      dup8\n        /* \"Project/banking.sol\":4257:4271  users[account] */\n      0xffffffffffffffffffffffffffffffffffffffff\n      and\n      0xffffffffffffffffffffffffffffffffffffffff\n      and\n      dup2\n      mstore\n      0x20\n      add\n      swap1\n      dup2\n      mstore\n      0x20\n      add\n      0x00\n      keccak256\n        /* \"Project/banking.sol\":4257:4279  users[account].carLoan */\n      0x05\n      add\n      sload\n        /* \"Project/banking.sol\":4063:4402  user(... */\n      dup2\n      mstore\n      0x20\n      add\n        /* \"Project/banking.sol\":4293:4298  users */\n      0x01\n        /* \"Project/banking.sol\":4293:4307  users[account] */\n      0x00\n        /* \"Project/banking.sol\":4299:4306  account */\n      dup8\n        /* \"Project/banking.sol\":4293:4307  users[account] */\n      0xffffffffffffffffffffffffffffffffffffffff\n      and\n      0xffffffffffffffffffffffffffffffffffffffff\n      and\n      dup2\n      mstore\n      0x20\n      add\n      swap1\n      dup2\n      mstore\n      0x20\n      add\n      0x00\n      keccak256\n        /* \"Project/banking.sol\":4293:4316  users[account].homeLoan */\n      0x06\n      add\n      sload\n        /* \"Project/banking.sol\":4063:4402  user(... */\n      dup2\n      mstore\n      0x20\n      add\n        /* \"Project/banking.sol\":4330:4335  users */\n      0x01\n        /* \"Project/banking.sol\":4330:4344  users[account] */\n      0x00\n        /* \"Project/banking.sol\":4336:4343  account */\n      dup8\n        /* \"Project/banking.sol\":4330:4344  users[account] */\n      0xffffffffffffffffffffffffffffffffffffffff\n      and\n      0xffffffffffffffffffffffffffffffffffffffff\n      and\n      dup2\n      mstore\n      0x20\n      add\n      swap1\n      dup2\n      mstore\n      0x20\n      add\n      0x00\n      keccak256\n        /* \"Project/banking.sol\":4330:4357  users[account].personalLoan */\n      0x07\n      add\n      sload\n        /* \"Project/banking.sol\":4063:4402  user(... */\n      dup2\n      mstore\n      0x20\n      add\n        /* \"Project/banking.sol\":4371:4376  users */\n      0x01\n        /* \"Project/banking.sol\":4371:4385  users[account] */\n      0x00\n        /* \"Project/banking.sol\":4377:4384  account */\n      dup8\n        /* \"Project/banking.sol\":4371:4385  users[account] */\n      0xffffffffffffffffffffffffffffffffffffffff\n      and\n      0xffffffffffffffffffffffffffffffffffffffff\n      and\n      dup2\n      mstore\n      0x20\n      add\n      swap1\n      dup2\n      mstore\n      0x20\n      add\n      0x00\n      keccak256\n        /* \"Project/banking.sol\":4371:4392  users[account].carEmi */\n      0x08\n      add\n      sload\n        /* \"Project/banking.sol\":4063:4402  user(... */\n      dup2\n      mstore\n      pop\n        /* \"Project/banking.sol\":4046:4051  users */\n      0x01\n        /* \"Project/banking.sol\":4046:4060  users[account] */\n      0x00\n        /* \"Project/banking.sol\":4052:4059  account */\n      dup7\n        /* \"Project/banking.sol\":4046:4060  users[account] */\n      0xffffffffffffffffffffffffffffffffffffffff\n      and\n      0xffffffffffffffffffffffffffffffffffffffff\n      and\n      dup2\n      mstore\n      0x20\n      add\n      swap1\n      dup2\n      mstore\n      0x20\n      add\n      0x00\n      keccak256\n        /* \"Project/banking.sol\":4046:4402  users[account] = user(... */\n      0x00\n      dup3\n      add\n      mload\n      dup2\n      0x00\n      add\n      exp(0x0100, 0x00)\n      dup2\n      sload\n      dup2\n      0xffffffffffffffffffffffffffffffffffffffff\n      mul\n      not\n      and\n      swap1\n      dup4\n      0xffffffffffffffffffffffffffffffffffffffff\n      and\n      mul\n      or\n      swap1\n      sstore\n      pop\n      0x20\n      dup3\n      add\n      mload\n      dup2\n      0x01\n      add\n      sstore\n      0x40\n      dup3\n      add\n      mload\n      dup2\n      0x02\n      add\n      sstore\n      0x60\n      dup3\n      add\n      mload\n      dup2\n      0x03\n      add\n      sstore\n      0x80\n      dup3\n      add\n      mload\n      dup2\n      0x04\n      add\n      sstore\n      0xa0\n      dup3\n      add\n      mload\n      dup2\n      0x05\n      add\n      sstore\n      0xc0\n      dup3\n      add\n      mload\n      dup2\n      0x06\n      add\n      sstore\n      0xe0\n      dup3\n      add\n      mload\n      dup2\n      0x07\n      add\n      sstore\n      0x0100\n      dup3\n      add\n      mload\n      dup2\n      0x08\n      add\n      sstore\n      swap1\n      pop\n      pop\n        /* \"Project/banking.sol\":1414:4409  function Loan(... */\n      pop\n      pop\n      pop\n      pop\n      jump\t// out\n        /* \"Project/banking.sol\":711:870  function addFund() public payable onlyOwner {... */\n    tag_49:\n        /* \"Project/banking.sol\":641:646  admin */\n      0x00\n      dup1\n      sload\n      swap1\n      0x0100\n      exp\n      swap1\n      div\n      0xffffffffffffffffffffffffffffffffffffffff\n      and\n        /* \"Project/banking.sol\":627:646  msg.sender == admin */\n      0xffffffffffffffffffffffffffffffffffffffff\n      and\n        /* \"Project/banking.sol\":627:637  msg.sender */\n      caller\n        /* \"Project/banking.sol\":627:646  msg.sender == admin */\n      0xffffffffffffffffffffffffffffffffffffffff\n      and\n      eq\n        /* \"Project/banking.sol\":619:687  require(msg.sender == admin, \"You're not the smart contract admin!\") */\n      tag_145\n      jumpi\n      mload(0x40)\n      0x08c379a000000000000000000000000000000000000000000000000000000000\n      dup2\n      mstore\n      0x04\n      add\n      tag_146\n      swap1\n      tag_147\n      jump\t// in\n    tag_146:\n      mload(0x40)\n      dup1\n      swap2\n      sub\n      swap1\n      revert\n    tag_145:\n        /* \"Project/banking.sol\":837:841  this */\n      address\n        /* \"Project/banking.sol\":821:852  payable(address(this)).transfer */\n      0xffffffffffffffffffffffffffffffffffffffff\n      and\n        /* \"Project/banking.sol\":821:863  payable(address(this)).transfer(msg.value) */\n      0x08fc\n        /* \"Project/banking.sol\":853:862  msg.value */\n      callvalue\n        /* \"Project/banking.sol\":821:863  payable(address(this)).transfer(msg.value) */\n      swap1\n      dup2\n      iszero\n      mul\n      swap1\n      mload(0x40)\n      0x00\n      mload(0x40)\n      dup1\n      dup4\n      sub\n      dup2\n      dup6\n      dup9\n      dup9\n      call\n      swap4\n      pop\n      pop\n      pop\n      pop\n      iszero\n      dup1\n      iszero\n      tag_150\n      jumpi\n      returndatasize\n      0x00\n      dup1\n      returndatacopy\n      revert(0x00, returndatasize)\n    tag_150:\n      pop\n        /* \"Project/banking.sol\":711:870  function addFund() public payable onlyOwner {... */\n      jump\t// out\n        /* \"Project/banking.sol\":876:913  mapping(address => user) public users */\n    tag_53:\n      mstore(0x20, 0x01)\n      dup1\n      0x00\n      mstore\n      keccak256(0x00, 0x40)\n      0x00\n      swap2\n      pop\n      swap1\n      pop\n      dup1\n      0x00\n      add\n      0x00\n      swap1\n      sload\n      swap1\n      0x0100\n      exp\n      swap1\n      div\n      0xffffffffffffffffffffffffffffffffffffffff\n      and\n      swap1\n      dup1\n      0x01\n      add\n      sload\n      swap1\n      dup1\n      0x02\n      add\n      sload\n      swap1\n      dup1\n      0x03\n      add\n      sload\n      swap1\n      dup1\n      0x04\n      add\n      sload\n      swap1\n      dup1\n      0x05\n      add\n      sload\n      swap1\n      dup1\n      0x06\n      add\n      sload\n      swap1\n      dup1\n      0x07\n      add\n      sload\n      swap1\n      dup1\n      0x08\n      add\n      sload\n      swap1\n      pop\n      dup10\n      jump\t// out\n        /* \"Project/banking.sol\":7879:8053  function homeLoanDetails(address account) public view returns(uint,uint,uint){... */\n    tag_59:\n        /* \"Project/banking.sol\":7941:7945  uint */\n      0x00\n        /* \"Project/banking.sol\":7946:7950  uint */\n      dup1\n        /* \"Project/banking.sol\":7951:7955  uint */\n      0x00\n        /* \"Project/banking.sol\":7974:7979  users */\n      0x01\n        /* \"Project/banking.sol\":7974:7988  users[account] */\n      0x00\n        /* \"Project/banking.sol\":7980:7987  account */\n      dup6\n        /* \"Project/banking.sol\":7974:7988  users[account] */\n      0xffffffffffffffffffffffffffffffffffffffff\n      and\n      0xffffffffffffffffffffffffffffffffffffffff\n      and\n      dup2\n      mstore\n      0x20\n      add\n      swap1\n      dup2\n      mstore\n      0x20\n      add\n      0x00\n      keccak256\n        /* \"Project/banking.sol\":7974:7997  users[account].homeLoan */\n      0x06\n      add\n      sload\n        /* \"Project/banking.sol\":7998:8003  users */\n      0x01\n        /* \"Project/banking.sol\":7998:8012  users[account] */\n      0x00\n        /* \"Project/banking.sol\":8004:8011  account */\n      dup7\n        /* \"Project/banking.sol\":7998:8012  users[account] */\n      0xffffffffffffffffffffffffffffffffffffffff\n      and\n      0xffffffffffffffffffffffffffffffffffffffff\n      and\n      dup2\n      mstore\n      0x20\n      add\n      swap1\n      dup2\n      mstore\n      0x20\n      add\n      0x00\n      keccak256\n        /* \"Project/banking.sol\":7998:8019  users[account].carEmi */\n      0x08\n      add\n      sload\n        /* \"Project/banking.sol\":8020:8025  users */\n      0x01\n        /* \"Project/banking.sol\":8020:8034  users[account] */\n      0x00\n        /* \"Project/banking.sol\":8026:8033  account */\n      dup8\n        /* \"Project/banking.sol\":8020:8034  users[account] */\n      0xffffffffffffffffffffffffffffffffffffffff\n      and\n      0xffffffffffffffffffffffffffffffffffffffff\n      and\n      dup2\n      mstore\n      0x20\n      add\n      swap1\n      dup2\n      mstore\n      0x20\n      add\n      0x00\n      keccak256\n        /* \"Project/banking.sol\":8020:8045  users[account].timeperiod */\n      0x04\n      add\n      sload\n        /* \"Project/banking.sol\":7966:8046  return (users[account].homeLoan,users[account].carEmi,users[account].timeperiod) */\n      swap3\n      pop\n      swap3\n      pop\n      swap3\n      pop\n        /* \"Project/banking.sol\":7879:8053  function homeLoanDetails(address account) public view returns(uint,uint,uint){... */\n      swap2\n      swap4\n      swap1\n      swap3\n      pop\n      jump\t// out\n        /* \"Project/banking.sol\":5647:6244  function withdraw(address payable account, uint256 amount) public {... */\n    tag_64:\n        /* \"Project/banking.sol\":5753:5754  0 */\n      0x00\n        /* \"Project/banking.sol\":5744:5750  amount */\n      dup2\n        /* \"Project/banking.sol\":5744:5754  amount > 0 */\n      gt\n        /* \"Project/banking.sol\":5744:5789  amount > 0 && amount < users[account].balance */\n      dup1\n      iszero\n      tag_153\n      jumpi\n      pop\n        /* \"Project/banking.sol\":5767:5772  users */\n      0x01\n        /* \"Project/banking.sol\":5767:5781  users[account] */\n      0x00\n        /* \"Project/banking.sol\":5773:5780  account */\n      dup4\n        /* \"Project/banking.sol\":5767:5781  users[account] */\n      0xffffffffffffffffffffffffffffffffffffffff\n      and\n      0xffffffffffffffffffffffffffffffffffffffff\n      and\n      dup2\n      mstore\n      0x20\n      add\n      swap1\n      dup2\n      mstore\n      0x20\n      add\n      0x00\n      keccak256\n        /* \"Project/banking.sol\":5767:5789  users[account].balance */\n      0x01\n      add\n      sload\n        /* \"Project/banking.sol\":5758:5764  amount */\n      dup2\n        /* \"Project/banking.sol\":5758:5789  amount < users[account].balance */\n      lt\n        /* \"Project/banking.sol\":5744:5789  amount > 0 && amount < users[account].balance */\n    tag_153:\n        /* \"Project/banking.sol\":5723:5829  require(... */\n      tag_154\n      jumpi\n      mload(0x40)\n      0x08c379a000000000000000000000000000000000000000000000000000000000\n      dup2\n      mstore\n      0x04\n      add\n      tag_155\n      swap1\n      tag_156\n      jump\t// in\n    tag_155:\n      mload(0x40)\n      dup1\n      swap2\n      sub\n      swap1\n      revert\n    tag_154:\n        /* \"Project/banking.sol\":5865:5871  amount */\n      dup1\n        /* \"Project/banking.sol\":5839:5844  users */\n      0x01\n        /* \"Project/banking.sol\":5839:5853  users[account] */\n      0x00\n        /* \"Project/banking.sol\":5845:5852  account */\n      dup5\n        /* \"Project/banking.sol\":5839:5853  users[account] */\n      0xffffffffffffffffffffffffffffffffffffffff\n      and\n      0xffffffffffffffffffffffffffffffffffffffff\n      and\n      dup2\n      mstore\n      0x20\n      add\n      swap1\n      dup2\n      mstore\n      0x20\n      add\n      0x00\n      keccak256\n        /* \"Project/banking.sol\":5839:5861  users[account].balance */\n      0x01\n      add\n      0x00\n        /* \"Project/banking.sol\":5839:5871  users[account].balance -= amount */\n      dup3\n      dup3\n      sload\n      tag_157\n      swap2\n      swap1\n      tag_69\n      jump\t// in\n    tag_157:\n      swap3\n      pop\n      pop\n      dup2\n      swap1\n      sstore\n      pop\n        /* \"Project/banking.sol\":5898:6237  user(... */\n      mload(0x40)\n      dup1\n      0x0120\n      add\n      0x40\n      mstore\n      dup1\n        /* \"Project/banking.sol\":5916:5921  users */\n      0x01\n        /* \"Project/banking.sol\":5916:5930  users[account] */\n      0x00\n        /* \"Project/banking.sol\":5922:5929  account */\n      dup6\n        /* \"Project/banking.sol\":5916:5930  users[account] */\n      0xffffffffffffffffffffffffffffffffffffffff\n      and\n      0xffffffffffffffffffffffffffffffffffffffff\n      and\n      dup2\n      mstore\n      0x20\n      add\n      swap1\n      dup2\n      mstore\n      0x20\n      add\n      0x00\n      keccak256\n        /* \"Project/banking.sol\":5916:5938  users[account].user_id */\n      0x00\n      add\n      0x00\n      swap1\n      sload\n      swap1\n      0x0100\n      exp\n      swap1\n      div\n      0xffffffffffffffffffffffffffffffffffffffff\n      and\n        /* \"Project/banking.sol\":5898:6237  user(... */\n      0xffffffffffffffffffffffffffffffffffffffff\n      and\n      dup2\n      mstore\n      0x20\n      add\n        /* \"Project/banking.sol\":5952:5957  users */\n      0x01\n        /* \"Project/banking.sol\":5952:5966  users[account] */\n      0x00\n        /* \"Project/banking.sol\":5958:5965  account */\n      dup6\n        /* \"Project/banking.sol\":5952:5966  users[account] */\n      0xffffffffffffffffffffffffffffffffffffffff\n      and\n      0xffffffffffffffffffffffffffffffffffffffff\n      and\n      dup2\n      mstore\n      0x20\n      add\n      swap1\n      dup2\n      mstore\n      0x20\n      add\n      0x00\n      keccak256\n        /* \"Project/banking.sol\":5952:5974  users[account].balance */\n      0x01\n      add\n      sload\n        /* \"Project/banking.sol\":5898:6237  user(... */\n      dup2\n      mstore\n      0x20\n      add\n        /* \"Project/banking.sol\":5988:5993  users */\n      0x01\n        /* \"Project/banking.sol\":5988:6002  users[account] */\n      0x00\n        /* \"Project/banking.sol\":5994:6001  account */\n      dup6\n        /* \"Project/banking.sol\":5988:6002  users[account] */\n      0xffffffffffffffffffffffffffffffffffffffff\n      and\n      0xffffffffffffffffffffffffffffffffffffffff\n      and\n      dup2\n      mstore\n      0x20\n      add\n      swap1\n      dup2\n      mstore\n      0x20\n      add\n      0x00\n      keccak256\n        /* \"Project/banking.sol\":5988:6007  users[account].loan */\n      0x02\n      add\n      sload\n        /* \"Project/banking.sol\":5898:6237  user(... */\n      dup2\n      mstore\n      0x20\n      add\n        /* \"Project/banking.sol\":6021:6026  users */\n      0x01\n        /* \"Project/banking.sol\":6021:6035  users[account] */\n      0x00\n        /* \"Project/banking.sol\":6027:6034  account */\n      dup6\n        /* \"Project/banking.sol\":6021:6035  users[account] */\n      0xffffffffffffffffffffffffffffffffffffffff\n      and\n      0xffffffffffffffffffffffffffffffffffffffff\n      and\n      dup2\n      mstore\n      0x20\n      add\n      swap1\n      dup2\n      mstore\n      0x20\n      add\n      0x00\n      keccak256\n        /* \"Project/banking.sol\":6021:6039  users[account].emi */\n      0x03\n      add\n      sload\n        /* \"Project/banking.sol\":5898:6237  user(... */\n      dup2\n      mstore\n      0x20\n      add\n        /* \"Project/banking.sol\":6053:6058  users */\n      0x01\n        /* \"Project/banking.sol\":6053:6067  users[account] */\n      0x00\n        /* \"Project/banking.sol\":6059:6066  account */\n      dup6\n        /* \"Project/banking.sol\":6053:6067  users[account] */\n      0xffffffffffffffffffffffffffffffffffffffff\n      and\n      0xffffffffffffffffffffffffffffffffffffffff\n      and\n      dup2\n      mstore\n      0x20\n      add\n      swap1\n      dup2\n      mstore\n      0x20\n      add\n      0x00\n      keccak256\n        /* \"Project/banking.sol\":6053:6078  users[account].timeperiod */\n      0x04\n      add\n      sload\n        /* \"Project/banking.sol\":5898:6237  user(... */\n      dup2\n      mstore\n      0x20\n      add\n        /* \"Project/banking.sol\":6092:6097  users */\n      0x01\n        /* \"Project/banking.sol\":6092:6106  users[account] */\n      0x00\n        /* \"Project/banking.sol\":6098:6105  account */\n      dup6\n        /* \"Project/banking.sol\":6092:6106  users[account] */\n      0xffffffffffffffffffffffffffffffffffffffff\n      and\n      0xffffffffffffffffffffffffffffffffffffffff\n      and\n      dup2\n      mstore\n      0x20\n      add\n      swap1\n      dup2\n      mstore\n      0x20\n      add\n      0x00\n      keccak256\n        /* \"Project/banking.sol\":6092:6114  users[account].carLoan */\n      0x05\n      add\n      sload\n        /* \"Project/banking.sol\":5898:6237  user(... */\n      dup2\n      mstore\n      0x20\n      add\n        /* \"Project/banking.sol\":6128:6133  users */\n      0x01\n        /* \"Project/banking.sol\":6128:6142  users[account] */\n      0x00\n        /* \"Project/banking.sol\":6134:6141  account */\n      dup6\n        /* \"Project/banking.sol\":6128:6142  users[account] */\n      0xffffffffffffffffffffffffffffffffffffffff\n      and\n      0xffffffffffffffffffffffffffffffffffffffff\n      and\n      dup2\n      mstore\n      0x20\n      add\n      swap1\n      dup2\n      mstore\n      0x20\n      add\n      0x00\n      keccak256\n        /* \"Project/banking.sol\":6128:6151  users[account].homeLoan */\n      0x06\n      add\n      sload\n        /* \"Project/banking.sol\":5898:6237  user(... */\n      dup2\n      mstore\n      0x20\n      add\n        /* \"Project/banking.sol\":6165:6170  users */\n      0x01\n        /* \"Project/banking.sol\":6165:6179  users[account] */\n      0x00\n        /* \"Project/banking.sol\":6171:6178  account */\n      dup6\n        /* \"Project/banking.sol\":6165:6179  users[account] */\n      0xffffffffffffffffffffffffffffffffffffffff\n      and\n      0xffffffffffffffffffffffffffffffffffffffff\n      and\n      dup2\n      mstore\n      0x20\n      add\n      swap1\n      dup2\n      mstore\n      0x20\n      add\n      0x00\n      keccak256\n        /* \"Project/banking.sol\":6165:6192  users[account].personalLoan */\n      0x07\n      add\n      sload\n        /* \"Project/banking.sol\":5898:6237  user(... */\n      dup2\n      mstore\n      0x20\n      add\n        /* \"Project/banking.sol\":6206:6211  users */\n      0x01\n        /* \"Project/banking.sol\":6206:6220  users[account] */\n      0x00\n        /* \"Project/banking.sol\":6212:6219  account */\n      dup6\n        /* \"Project/banking.sol\":6206:6220  users[account] */\n      0xffffffffffffffffffffffffffffffffffffffff\n      and\n      0xffffffffffffffffffffffffffffffffffffffff\n      and\n      dup2\n      mstore\n      0x20\n      add\n      swap1\n      dup2\n      mstore\n      0x20\n      add\n      0x00\n      keccak256\n        /* \"Project/banking.sol\":6206:6227  users[account].carEmi */\n      0x08\n      add\n      sload\n        /* \"Project/banking.sol\":5898:6237  user(... */\n      dup2\n      mstore\n      pop\n        /* \"Project/banking.sol\":5881:5886  users */\n      0x01\n        /* \"Project/banking.sol\":5881:5895  users[account] */\n      0x00\n        /* \"Project/banking.sol\":5887:5894  account */\n      dup5\n        /* \"Project/banking.sol\":5881:5895  users[account] */\n      0xffffffffffffffffffffffffffffffffffffffff\n      and\n      0xffffffffffffffffffffffffffffffffffffffff\n      and\n      dup2\n      mstore\n      0x20\n      add\n      swap1\n      dup2\n      mstore\n      0x20\n      add\n      0x00\n      keccak256\n        /* \"Project/banking.sol\":5881:6237  users[account] = user(... */\n      0x00\n      dup3\n      add\n      mload\n      dup2\n      0x00\n      add\n      exp(0x0100, 0x00)\n      dup2\n      sload\n      dup2\n      0xffffffffffffffffffffffffffffffffffffffff\n      mul\n      not\n      and\n      swap1\n      dup4\n      0xffffffffffffffffffffffffffffffffffffffff\n      and\n      mul\n      or\n      swap1\n      sstore\n      pop\n      0x20\n      dup3\n      add\n      mload\n      dup2\n      0x01\n      add\n      sstore\n      0x40\n      dup3\n      add\n      mload\n      dup2\n      0x02\n      add\n      sstore\n      0x60\n      dup3\n      add\n      mload\n      dup2\n      0x03\n      add\n      sstore\n      0x80\n      dup3\n      add\n      mload\n      dup2\n      0x04\n      add\n      sstore\n      0xa0\n      dup3\n      add\n      mload\n      dup2\n      0x05\n      add\n      sstore\n      0xc0\n      dup3\n      add\n      mload\n      dup2\n      0x06\n      add\n      sstore\n      0xe0\n      dup3\n      add\n      mload\n      dup2\n      0x07\n      add\n      sstore\n      0x0100\n      dup3\n      add\n      mload\n      dup2\n      0x08\n      add\n      sstore\n      swap1\n      pop\n      pop\n        /* \"Project/banking.sol\":5647:6244  function withdraw(address payable account, uint256 amount) public {... */\n      pop\n      pop\n      jump\t// out\n        /* \"#utility.yul\":7:82   */\n    tag_158:\n        /* \"#utility.yul\":40:46   */\n      0x00\n        /* \"#utility.yul\":73:75   */\n      0x40\n        /* \"#utility.yul\":67:76   */\n      mload\n        /* \"#utility.yul\":57:76   */\n      swap1\n      pop\n        /* \"#utility.yul\":7:82   */\n      swap1\n      jump\t// out\n        /* \"#utility.yul\":88:205   */\n    tag_159:\n        /* \"#utility.yul\":197:198   */\n      0x00\n        /* \"#utility.yul\":194:195   */\n      dup1\n        /* \"#utility.yul\":187:199   */\n      revert\n        /* \"#utility.yul\":211:328   */\n    tag_160:\n        /* \"#utility.yul\":320:321   */\n      0x00\n        /* \"#utility.yul\":317:318   */\n      dup1\n        /* \"#utility.yul\":310:322   */\n      revert\n        /* \"#utility.yul\":334:460   */\n    tag_161:\n        /* \"#utility.yul\":371:378   */\n      0x00\n        /* \"#utility.yul\":411:453   */\n      0xffffffffffffffffffffffffffffffffffffffff\n        /* \"#utility.yul\":404:409   */\n      dup3\n        /* \"#utility.yul\":400:454   */\n      and\n        /* \"#utility.yul\":389:454   */\n      swap1\n      pop\n        /* \"#utility.yul\":334:460   */\n      swap2\n      swap1\n      pop\n      jump\t// out\n        /* \"#utility.yul\":466:570   */\n    tag_162:\n        /* \"#utility.yul\":511:518   */\n      0x00\n        /* \"#utility.yul\":540:564   */\n      tag_214\n        /* \"#utility.yul\":558:563   */\n      dup3\n        /* \"#utility.yul\":540:564   */\n      tag_161\n      jump\t// in\n    tag_214:\n        /* \"#utility.yul\":529:564   */\n      swap1\n      pop\n        /* \"#utility.yul\":466:570   */\n      swap2\n      swap1\n      pop\n      jump\t// out\n        /* \"#utility.yul\":576:714   */\n    tag_163:\n        /* \"#utility.yul\":657:689   */\n      tag_216\n        /* \"#utility.yul\":683:688   */\n      dup2\n        /* \"#utility.yul\":657:689   */\n      tag_162\n      jump\t// in\n    tag_216:\n        /* \"#utility.yul\":650:655   */\n      dup2\n        /* \"#utility.yul\":647:690   */\n      eq\n        /* \"#utility.yul\":637:708   */\n      tag_217\n      jumpi\n        /* \"#utility.yul\":704:705   */\n      0x00\n        /* \"#utility.yul\":701:702   */\n      dup1\n        /* \"#utility.yul\":694:706   */\n      revert\n        /* \"#utility.yul\":637:708   */\n    tag_217:\n        /* \"#utility.yul\":576:714   */\n      pop\n      jump\t// out\n        /* \"#utility.yul\":720:875   */\n    tag_164:\n        /* \"#utility.yul\":774:779   */\n      0x00\n        /* \"#utility.yul\":812:818   */\n      dup2\n        /* \"#utility.yul\":799:819   */\n      calldataload\n        /* \"#utility.yul\":790:819   */\n      swap1\n      pop\n        /* \"#utility.yul\":828:869   */\n      tag_219\n        /* \"#utility.yul\":863:868   */\n      dup2\n        /* \"#utility.yul\":828:869   */\n      tag_163\n      jump\t// in\n    tag_219:\n        /* \"#utility.yul\":720:875   */\n      swap3\n      swap2\n      pop\n      pop\n      jump\t// out\n        /* \"#utility.yul\":881:1226   */\n    tag_21:\n        /* \"#utility.yul\":948:954   */\n      0x00\n        /* \"#utility.yul\":997:999   */\n      0x20\n        /* \"#utility.yul\":985:994   */\n      dup3\n        /* \"#utility.yul\":976:983   */\n      dup5\n        /* \"#utility.yul\":972:995   */\n      sub\n        /* \"#utility.yul\":968:1000   */\n      slt\n        /* \"#utility.yul\":965:1084   */\n      iszero\n      tag_221\n      jumpi\n        /* \"#utility.yul\":1003:1082   */\n      tag_222\n      tag_159\n      jump\t// in\n    tag_222:\n        /* \"#utility.yul\":965:1084   */\n    tag_221:\n        /* \"#utility.yul\":1123:1124   */\n      0x00\n        /* \"#utility.yul\":1148:1209   */\n      tag_223\n        /* \"#utility.yul\":1201:1208   */\n      dup5\n        /* \"#utility.yul\":1192:1198   */\n      dup3\n        /* \"#utility.yul\":1181:1190   */\n      dup6\n        /* \"#utility.yul\":1177:1199   */\n      add\n        /* \"#utility.yul\":1148:1209   */\n      tag_164\n      jump\t// in\n    tag_223:\n        /* \"#utility.yul\":1138:1209   */\n      swap2\n      pop\n        /* \"#utility.yul\":1094:1219   */\n      pop\n        /* \"#utility.yul\":881:1226   */\n      swap3\n      swap2\n      pop\n      pop\n      jump\t// out\n        /* \"#utility.yul\":1232:1309   */\n    tag_165:\n        /* \"#utility.yul\":1269:1276   */\n      0x00\n        /* \"#utility.yul\":1298:1303   */\n      dup2\n        /* \"#utility.yul\":1287:1303   */\n      swap1\n      pop\n        /* \"#utility.yul\":1232:1309   */\n      swap2\n      swap1\n      pop\n      jump\t// out\n        /* \"#utility.yul\":1315:1437   */\n    tag_166:\n        /* \"#utility.yul\":1388:1412   */\n      tag_226\n        /* \"#utility.yul\":1406:1411   */\n      dup2\n        /* \"#utility.yul\":1388:1412   */\n      tag_165\n      jump\t// in\n    tag_226:\n        /* \"#utility.yul\":1381:1386   */\n      dup2\n        /* \"#utility.yul\":1378:1413   */\n      eq\n        /* \"#utility.yul\":1368:1431   */\n      tag_227\n      jumpi\n        /* \"#utility.yul\":1427:1428   */\n      0x00\n        /* \"#utility.yul\":1424:1425   */\n      dup1\n        /* \"#utility.yul\":1417:1429   */\n      revert\n        /* \"#utility.yul\":1368:1431   */\n    tag_227:\n        /* \"#utility.yul\":1315:1437   */\n      pop\n      jump\t// out\n        /* \"#utility.yul\":1443:1582   */\n    tag_167:\n        /* \"#utility.yul\":1489:1494   */\n      0x00\n        /* \"#utility.yul\":1527:1533   */\n      dup2\n        /* \"#utility.yul\":1514:1534   */\n      calldataload\n        /* \"#utility.yul\":1505:1534   */\n      swap1\n      pop\n        /* \"#utility.yul\":1543:1576   */\n      tag_229\n        /* \"#utility.yul\":1570:1575   */\n      dup2\n        /* \"#utility.yul\":1543:1576   */\n      tag_166\n      jump\t// in\n    tag_229:\n        /* \"#utility.yul\":1443:1582   */\n      swap3\n      swap2\n      pop\n      pop\n      jump\t// out\n        /* \"#utility.yul\":1588:2078   */\n    tag_25:\n        /* \"#utility.yul\":1664:1670   */\n      0x00\n        /* \"#utility.yul\":1672:1678   */\n      dup1\n        /* \"#utility.yul\":1721:1723   */\n      0x40\n        /* \"#utility.yul\":1709:1718   */\n      dup4\n        /* \"#utility.yul\":1700:1707   */\n      dup6\n        /* \"#utility.yul\":1696:1719   */\n      sub\n        /* \"#utility.yul\":1692:1724   */\n      slt\n        /* \"#utility.yul\":1689:1808   */\n      iszero\n      tag_231\n      jumpi\n        /* \"#utility.yul\":1727:1806   */\n      tag_232\n      tag_159\n      jump\t// in\n    tag_232:\n        /* \"#utility.yul\":1689:1808   */\n    tag_231:\n        /* \"#utility.yul\":1847:1848   */\n      0x00\n        /* \"#utility.yul\":1872:1933   */\n      tag_233\n        /* \"#utility.yul\":1925:1932   */\n      dup6\n        /* \"#utility.yul\":1916:1922   */\n      dup3\n        /* \"#utility.yul\":1905:1914   */\n      dup7\n        /* \"#utility.yul\":1901:1923   */\n      add\n        /* \"#utility.yul\":1872:1933   */\n      tag_164\n      jump\t// in\n    tag_233:\n        /* \"#utility.yul\":1862:1933   */\n      swap3\n      pop\n        /* \"#utility.yul\":1818:1943   */\n      pop\n        /* \"#utility.yul\":1982:1984   */\n      0x20\n        /* \"#utility.yul\":2008:2061   */\n      tag_234\n        /* \"#utility.yul\":2053:2060   */\n      dup6\n        /* \"#utility.yul\":2044:2050   */\n      dup3\n        /* \"#utility.yul\":2033:2042   */\n      dup7\n        /* \"#utility.yul\":2029:2051   */\n      add\n        /* \"#utility.yul\":2008:2061   */\n      tag_167\n      jump\t// in\n    tag_234:\n        /* \"#utility.yul\":1998:2061   */\n      swap2\n      pop\n        /* \"#utility.yul\":1953:2071   */\n      pop\n        /* \"#utility.yul\":1588:2078   */\n      swap3\n      pop\n      swap3\n      swap1\n      pop\n      jump\t// out\n        /* \"#utility.yul\":2084:2180   */\n    tag_168:\n        /* \"#utility.yul\":2121:2128   */\n      0x00\n        /* \"#utility.yul\":2150:2174   */\n      tag_236\n        /* \"#utility.yul\":2168:2173   */\n      dup3\n        /* \"#utility.yul\":2150:2174   */\n      tag_161\n      jump\t// in\n    tag_236:\n        /* \"#utility.yul\":2139:2174   */\n      swap1\n      pop\n        /* \"#utility.yul\":2084:2180   */\n      swap2\n      swap1\n      pop\n      jump\t// out\n        /* \"#utility.yul\":2186:2308   */\n    tag_169:\n        /* \"#utility.yul\":2259:2283   */\n      tag_238\n        /* \"#utility.yul\":2277:2282   */\n      dup2\n        /* \"#utility.yul\":2259:2283   */\n      tag_168\n      jump\t// in\n    tag_238:\n        /* \"#utility.yul\":2252:2257   */\n      dup2\n        /* \"#utility.yul\":2249:2284   */\n      eq\n        /* \"#utility.yul\":2239:2302   */\n      tag_239\n      jumpi\n        /* \"#utility.yul\":2298:2299   */\n      0x00\n        /* \"#utility.yul\":2295:2296   */\n      dup1\n        /* \"#utility.yul\":2288:2300   */\n      revert\n        /* \"#utility.yul\":2239:2302   */\n    tag_239:\n        /* \"#utility.yul\":2186:2308   */\n      pop\n      jump\t// out\n        /* \"#utility.yul\":2314:2453   */\n    tag_170:\n        /* \"#utility.yul\":2360:2365   */\n      0x00\n        /* \"#utility.yul\":2398:2404   */\n      dup2\n        /* \"#utility.yul\":2385:2405   */\n      calldataload\n        /* \"#utility.yul\":2376:2405   */\n      swap1\n      pop\n        /* \"#utility.yul\":2414:2447   */\n      tag_241\n        /* \"#utility.yul\":2441:2446   */\n      dup2\n        /* \"#utility.yul\":2414:2447   */\n      tag_169\n      jump\t// in\n    tag_241:\n        /* \"#utility.yul\":2314:2453   */\n      swap3\n      swap2\n      pop\n      pop\n      jump\t// out\n        /* \"#utility.yul\":2459:2788   */\n    tag_30:\n        /* \"#utility.yul\":2518:2524   */\n      0x00\n        /* \"#utility.yul\":2567:2569   */\n      0x20\n        /* \"#utility.yul\":2555:2564   */\n      dup3\n        /* \"#utility.yul\":2546:2553   */\n      dup5\n        /* \"#utility.yul\":2542:2565   */\n      sub\n        /* \"#utility.yul\":2538:2570   */\n      slt\n        /* \"#utility.yul\":2535:2654   */\n      iszero\n      tag_243\n      jumpi\n        /* \"#utility.yul\":2573:2652   */\n      tag_244\n      tag_159\n      jump\t// in\n    tag_244:\n        /* \"#utility.yul\":2535:2654   */\n    tag_243:\n        /* \"#utility.yul\":2693:2694   */\n      0x00\n        /* \"#utility.yul\":2718:2771   */\n      tag_245\n        /* \"#utility.yul\":2763:2770   */\n      dup5\n        /* \"#utility.yul\":2754:2760   */\n      dup3\n        /* \"#utility.yul\":2743:2752   */\n      dup6\n        /* \"#utility.yul\":2739:2761   */\n      add\n        /* \"#utility.yul\":2718:2771   */\n      tag_170\n      jump\t// in\n    tag_245:\n        /* \"#utility.yul\":2708:2771   */\n      swap2\n      pop\n        /* \"#utility.yul\":2664:2781   */\n      pop\n        /* \"#utility.yul\":2459:2788   */\n      swap3\n      swap2\n      pop\n      pop\n      jump\t// out\n        /* \"#utility.yul\":2794:2912   */\n    tag_171:\n        /* \"#utility.yul\":2881:2905   */\n      tag_247\n        /* \"#utility.yul\":2899:2904   */\n      dup2\n        /* \"#utility.yul\":2881:2905   */\n      tag_165\n      jump\t// in\n    tag_247:\n        /* \"#utility.yul\":2876:2879   */\n      dup3\n        /* \"#utility.yul\":2869:2906   */\n      mstore\n        /* \"#utility.yul\":2794:2912   */\n      pop\n      pop\n      jump\t// out\n        /* \"#utility.yul\":2918:3360   */\n    tag_33:\n        /* \"#utility.yul\":3067:3071   */\n      0x00\n        /* \"#utility.yul\":3105:3107   */\n      0x60\n        /* \"#utility.yul\":3094:3103   */\n      dup3\n        /* \"#utility.yul\":3090:3108   */\n      add\n        /* \"#utility.yul\":3082:3108   */\n      swap1\n      pop\n        /* \"#utility.yul\":3118:3189   */\n      tag_249\n        /* \"#utility.yul\":3186:3187   */\n      0x00\n        /* \"#utility.yul\":3175:3184   */\n      dup4\n        /* \"#utility.yul\":3171:3188   */\n      add\n        /* \"#utility.yul\":3162:3168   */\n      dup7\n        /* \"#utility.yul\":3118:3189   */\n      tag_171\n      jump\t// in\n    tag_249:\n        /* \"#utility.yul\":3199:3271   */\n      tag_250\n        /* \"#utility.yul\":3267:3269   */\n      0x20\n        /* \"#utility.yul\":3256:3265   */\n      dup4\n        /* \"#utility.yul\":3252:3270   */\n      add\n        /* \"#utility.yul\":3243:3249   */\n      dup6\n        /* \"#utility.yul\":3199:3271   */\n      tag_171\n      jump\t// in\n    tag_250:\n        /* \"#utility.yul\":3281:3353   */\n      tag_251\n        /* \"#utility.yul\":3349:3351   */\n      0x40\n        /* \"#utility.yul\":3338:3347   */\n      dup4\n        /* \"#utility.yul\":3334:3352   */\n      add\n        /* \"#utility.yul\":3325:3331   */\n      dup5\n        /* \"#utility.yul\":3281:3353   */\n      tag_171\n      jump\t// in\n    tag_251:\n        /* \"#utility.yul\":2918:3360   */\n      swap5\n      swap4\n      pop\n      pop\n      pop\n      pop\n      jump\t// out\n        /* \"#utility.yul\":3366:3588   */\n    tag_38:\n        /* \"#utility.yul\":3459:3463   */\n      0x00\n        /* \"#utility.yul\":3497:3499   */\n      0x20\n        /* \"#utility.yul\":3486:3495   */\n      dup3\n        /* \"#utility.yul\":3482:3500   */\n      add\n        /* \"#utility.yul\":3474:3500   */\n      swap1\n      pop\n        /* \"#utility.yul\":3510:3581   */\n      tag_253\n        /* \"#utility.yul\":3578:3579   */\n      0x00\n        /* \"#utility.yul\":3567:3576   */\n      dup4\n        /* \"#utility.yul\":3563:3580   */\n      add\n        /* \"#utility.yul\":3554:3560   */\n      dup5\n        /* \"#utility.yul\":3510:3581   */\n      tag_171\n      jump\t// in\n    tag_253:\n        /* \"#utility.yul\":3366:3588   */\n      swap3\n      swap2\n      pop\n      pop\n      jump\t// out\n        /* \"#utility.yul\":3594:3711   */\n    tag_172:\n        /* \"#utility.yul\":3703:3704   */\n      0x00\n        /* \"#utility.yul\":3700:3701   */\n      dup1\n        /* \"#utility.yul\":3693:3705   */\n      revert\n        /* \"#utility.yul\":3717:3834   */\n    tag_173:\n        /* \"#utility.yul\":3826:3827   */\n      0x00\n        /* \"#utility.yul\":3823:3824   */\n      dup1\n        /* \"#utility.yul\":3816:3828   */\n      revert\n        /* \"#utility.yul\":3840:3942   */\n    tag_174:\n        /* \"#utility.yul\":3881:3887   */\n      0x00\n        /* \"#utility.yul\":3932:3934   */\n      0x1f\n        /* \"#utility.yul\":3928:3935   */\n      not\n        /* \"#utility.yul\":3923:3925   */\n      0x1f\n        /* \"#utility.yul\":3916:3921   */\n      dup4\n        /* \"#utility.yul\":3912:3926   */\n      add\n        /* \"#utility.yul\":3908:3936   */\n      and\n        /* \"#utility.yul\":3898:3936   */\n      swap1\n      pop\n        /* \"#utility.yul\":3840:3942   */\n      swap2\n      swap1\n      pop\n      jump\t// out\n        /* \"#utility.yul\":3948:4128   */\n    tag_175:\n        /* \"#utility.yul\":3996:4073   */\n      0x4e487b7100000000000000000000000000000000000000000000000000000000\n        /* \"#utility.yul\":3993:3994   */\n      0x00\n        /* \"#utility.yul\":3986:4074   */\n      mstore\n        /* \"#utility.yul\":4093:4097   */\n      0x41\n        /* \"#utility.yul\":4090:4091   */\n      0x04\n        /* \"#utility.yul\":4083:4098   */\n      mstore\n        /* \"#utility.yul\":4117:4121   */\n      0x24\n        /* \"#utility.yul\":4114:4115   */\n      0x00\n        /* \"#utility.yul\":4107:4122   */\n      revert\n        /* \"#utility.yul\":4134:4415   */\n    tag_176:\n        /* \"#utility.yul\":4217:4244   */\n      tag_259\n        /* \"#utility.yul\":4239:4243   */\n      dup3\n        /* \"#utility.yul\":4217:4244   */\n      tag_174\n      jump\t// in\n    tag_259:\n        /* \"#utility.yul\":4209:4215   */\n      dup2\n        /* \"#utility.yul\":4205:4245   */\n      add\n        /* \"#utility.yul\":4347:4353   */\n      dup2\n        /* \"#utility.yul\":4335:4345   */\n      dup2\n        /* \"#utility.yul\":4332:4354   */\n      lt\n        /* \"#utility.yul\":4311:4329   */\n      0xffffffffffffffff\n        /* \"#utility.yul\":4299:4309   */\n      dup3\n        /* \"#utility.yul\":4296:4330   */\n      gt\n        /* \"#utility.yul\":4293:4355   */\n      or\n        /* \"#utility.yul\":4290:4378   */\n      iszero\n      tag_260\n      jumpi\n        /* \"#utility.yul\":4358:4376   */\n      tag_261\n      tag_175\n      jump\t// in\n    tag_261:\n        /* \"#utility.yul\":4290:4378   */\n    tag_260:\n        /* \"#utility.yul\":4398:4408   */\n      dup1\n        /* \"#utility.yul\":4394:4396   */\n      0x40\n        /* \"#utility.yul\":4387:4409   */\n      mstore\n        /* \"#utility.yul\":4177:4415   */\n      pop\n        /* \"#utility.yul\":4134:4415   */\n      pop\n      pop\n      jump\t// out\n        /* \"#utility.yul\":4421:4550   */\n    tag_177:\n        /* \"#utility.yul\":4455:4461   */\n      0x00\n        /* \"#utility.yul\":4482:4502   */\n      tag_263\n      tag_158\n      jump\t// in\n    tag_263:\n        /* \"#utility.yul\":4472:4502   */\n      swap1\n      pop\n        /* \"#utility.yul\":4511:4544   */\n      tag_264\n        /* \"#utility.yul\":4539:4543   */\n      dup3\n        /* \"#utility.yul\":4531:4537   */\n      dup3\n        /* \"#utility.yul\":4511:4544   */\n      tag_176\n      jump\t// in\n    tag_264:\n        /* \"#utility.yul\":4421:4550   */\n      swap2\n      swap1\n      pop\n      jump\t// out\n        /* \"#utility.yul\":4556:4864   */\n    tag_178:\n        /* \"#utility.yul\":4618:4622   */\n      0x00\n        /* \"#utility.yul\":4708:4726   */\n      0xffffffffffffffff\n        /* \"#utility.yul\":4700:4706   */\n      dup3\n        /* \"#utility.yul\":4697:4727   */\n      gt\n        /* \"#utility.yul\":4694:4750   */\n      iszero\n      tag_266\n      jumpi\n        /* \"#utility.yul\":4730:4748   */\n      tag_267\n      tag_175\n      jump\t// in\n    tag_267:\n        /* \"#utility.yul\":4694:4750   */\n    tag_266:\n        /* \"#utility.yul\":4768:4797   */\n      tag_268\n        /* \"#utility.yul\":4790:4796   */\n      dup3\n        /* \"#utility.yul\":4768:4797   */\n      tag_174\n      jump\t// in\n    tag_268:\n        /* \"#utility.yul\":4760:4797   */\n      swap1\n      pop\n        /* \"#utility.yul\":4852:4856   */\n      0x20\n        /* \"#utility.yul\":4846:4850   */\n      dup2\n        /* \"#utility.yul\":4842:4857   */\n      add\n        /* \"#utility.yul\":4834:4857   */\n      swap1\n      pop\n        /* \"#utility.yul\":4556:4864   */\n      swap2\n      swap1\n      pop\n      jump\t// out\n        /* \"#utility.yul\":4870:5016   */\n    tag_179:\n        /* \"#utility.yul\":4967:4973   */\n      dup3\n        /* \"#utility.yul\":4962:4965   */\n      dup2\n        /* \"#utility.yul\":4957:4960   */\n      dup4\n        /* \"#utility.yul\":4944:4974   */\n      calldatacopy\n        /* \"#utility.yul\":5008:5009   */\n      0x00\n        /* \"#utility.yul\":4999:5005   */\n      dup4\n        /* \"#utility.yul\":4994:4997   */\n      dup4\n        /* \"#utility.yul\":4990:5006   */\n      add\n        /* \"#utility.yul\":4983:5010   */\n      mstore\n        /* \"#utility.yul\":4870:5016   */\n      pop\n      pop\n      pop\n      jump\t// out\n        /* \"#utility.yul\":5022:5447   */\n    tag_180:\n        /* \"#utility.yul\":5100:5105   */\n      0x00\n        /* \"#utility.yul\":5125:5191   */\n      tag_271\n        /* \"#utility.yul\":5141:5190   */\n      tag_272\n        /* \"#utility.yul\":5183:5189   */\n      dup5\n        /* \"#utility.yul\":5141:5190   */\n      tag_178\n      jump\t// in\n    tag_272:\n        /* \"#utility.yul\":5125:5191   */\n      tag_177\n      jump\t// in\n    tag_271:\n        /* \"#utility.yul\":5116:5191   */\n      swap1\n      pop\n        /* \"#utility.yul\":5214:5220   */\n      dup3\n        /* \"#utility.yul\":5207:5212   */\n      dup2\n        /* \"#utility.yul\":5200:5221   */\n      mstore\n        /* \"#utility.yul\":5252:5256   */\n      0x20\n        /* \"#utility.yul\":5245:5250   */\n      dup2\n        /* \"#utility.yul\":5241:5257   */\n      add\n        /* \"#utility.yul\":5290:5293   */\n      dup5\n        /* \"#utility.yul\":5281:5287   */\n      dup5\n        /* \"#utility.yul\":5276:5279   */\n      dup5\n        /* \"#utility.yul\":5272:5288   */\n      add\n        /* \"#utility.yul\":5269:5294   */\n      gt\n        /* \"#utility.yul\":5266:5378   */\n      iszero\n      tag_273\n      jumpi\n        /* \"#utility.yul\":5297:5376   */\n      tag_274\n      tag_173\n      jump\t// in\n    tag_274:\n        /* \"#utility.yul\":5266:5378   */\n    tag_273:\n        /* \"#utility.yul\":5387:5441   */\n      tag_275\n        /* \"#utility.yul\":5434:5440   */\n      dup5\n        /* \"#utility.yul\":5429:5432   */\n      dup3\n        /* \"#utility.yul\":5424:5427   */\n      dup6\n        /* \"#utility.yul\":5387:5441   */\n      tag_179\n      jump\t// in\n    tag_275:\n        /* \"#utility.yul\":5106:5447   */\n      pop\n        /* \"#utility.yul\":5022:5447   */\n      swap4\n      swap3\n      pop\n      pop\n      pop\n      jump\t// out\n        /* \"#utility.yul\":5467:5807   */\n    tag_181:\n        /* \"#utility.yul\":5523:5528   */\n      0x00\n        /* \"#utility.yul\":5572:5575   */\n      dup3\n        /* \"#utility.yul\":5565:5569   */\n      0x1f\n        /* \"#utility.yul\":5557:5563   */\n      dup4\n        /* \"#utility.yul\":5553:5570   */\n      add\n        /* \"#utility.yul\":5549:5576   */\n      slt\n        /* \"#utility.yul\":5539:5661   */\n      tag_277\n      jumpi\n        /* \"#utility.yul\":5580:5659   */\n      tag_278\n      tag_172\n      jump\t// in\n    tag_278:\n        /* \"#utility.yul\":5539:5661   */\n    tag_277:\n        /* \"#utility.yul\":5697:5703   */\n      dup2\n        /* \"#utility.yul\":5684:5704   */\n      calldataload\n        /* \"#utility.yul\":5722:5801   */\n      tag_279\n        /* \"#utility.yul\":5797:5800   */\n      dup5\n        /* \"#utility.yul\":5789:5795   */\n      dup3\n        /* \"#utility.yul\":5782:5786   */\n      0x20\n        /* \"#utility.yul\":5774:5780   */\n      dup7\n        /* \"#utility.yul\":5770:5787   */\n      add\n        /* \"#utility.yul\":5722:5801   */\n      tag_180\n      jump\t// in\n    tag_279:\n        /* \"#utility.yul\":5713:5801   */\n      swap2\n      pop\n        /* \"#utility.yul\":5529:5807   */\n      pop\n        /* \"#utility.yul\":5467:5807   */\n      swap3\n      swap2\n      pop\n      pop\n      jump\t// out\n        /* \"#utility.yul\":5813:6774   */\n    tag_46:\n        /* \"#utility.yul\":5917:5923   */\n      0x00\n        /* \"#utility.yul\":5925:5931   */\n      dup1\n        /* \"#utility.yul\":5933:5939   */\n      0x00\n        /* \"#utility.yul\":5941:5947   */\n      dup1\n        /* \"#utility.yul\":5990:5993   */\n      0x80\n        /* \"#utility.yul\":5978:5987   */\n      dup6\n        /* \"#utility.yul\":5969:5976   */\n      dup8\n        /* \"#utility.yul\":5965:5988   */\n      sub\n        /* \"#utility.yul\":5961:5994   */\n      slt\n        /* \"#utility.yul\":5958:6078   */\n      iszero\n      tag_281\n      jumpi\n        /* \"#utility.yul\":5997:6076   */\n      tag_282\n      tag_159\n      jump\t// in\n    tag_282:\n        /* \"#utility.yul\":5958:6078   */\n    tag_281:\n        /* \"#utility.yul\":6117:6118   */\n      0x00\n        /* \"#utility.yul\":6142:6203   */\n      tag_283\n        /* \"#utility.yul\":6195:6202   */\n      dup8\n        /* \"#utility.yul\":6186:6192   */\n      dup3\n        /* \"#utility.yul\":6175:6184   */\n      dup9\n        /* \"#utility.yul\":6171:6193   */\n      add\n        /* \"#utility.yul\":6142:6203   */\n      tag_164\n      jump\t// in\n    tag_283:\n        /* \"#utility.yul\":6132:6203   */\n      swap5\n      pop\n        /* \"#utility.yul\":6088:6213   */\n      pop\n        /* \"#utility.yul\":6252:6254   */\n      0x20\n        /* \"#utility.yul\":6278:6331   */\n      tag_284\n        /* \"#utility.yul\":6323:6330   */\n      dup8\n        /* \"#utility.yul\":6314:6320   */\n      dup3\n        /* \"#utility.yul\":6303:6312   */\n      dup9\n        /* \"#utility.yul\":6299:6321   */\n      add\n        /* \"#utility.yul\":6278:6331   */\n      tag_167\n      jump\t// in\n    tag_284:\n        /* \"#utility.yul\":6268:6331   */\n      swap4\n      pop\n        /* \"#utility.yul\":6223:6341   */\n      pop\n        /* \"#utility.yul\":6380:6382   */\n      0x40\n        /* \"#utility.yul\":6406:6459   */\n      tag_285\n        /* \"#utility.yul\":6451:6458   */\n      dup8\n        /* \"#utility.yul\":6442:6448   */\n      dup3\n        /* \"#utility.yul\":6431:6440   */\n      dup9\n        /* \"#utility.yul\":6427:6449   */\n      add\n        /* \"#utility.yul\":6406:6459   */\n      tag_167\n      jump\t// in\n    tag_285:\n        /* \"#utility.yul\":6396:6459   */\n      swap3\n      pop\n        /* \"#utility.yul\":6351:6469   */\n      pop\n        /* \"#utility.yul\":6536:6538   */\n      0x60\n        /* \"#utility.yul\":6525:6534   */\n      dup6\n        /* \"#utility.yul\":6521:6539   */\n      add\n        /* \"#utility.yul\":6508:6540   */\n      calldataload\n        /* \"#utility.yul\":6567:6585   */\n      0xffffffffffffffff\n        /* \"#utility.yul\":6559:6565   */\n      dup2\n        /* \"#utility.yul\":6556:6586   */\n      gt\n        /* \"#utility.yul\":6553:6670   */\n      iszero\n      tag_286\n      jumpi\n        /* \"#utility.yul\":6589:6668   */\n      tag_287\n      tag_160\n      jump\t// in\n    tag_287:\n        /* \"#utility.yul\":6553:6670   */\n    tag_286:\n        /* \"#utility.yul\":6694:6757   */\n      tag_288\n        /* \"#utility.yul\":6749:6756   */\n      dup8\n        /* \"#utility.yul\":6740:6746   */\n      dup3\n        /* \"#utility.yul\":6729:6738   */\n      dup9\n        /* \"#utility.yul\":6725:6747   */\n      add\n        /* \"#utility.yul\":6694:6757   */\n      tag_181\n      jump\t// in\n    tag_288:\n        /* \"#utility.yul\":6684:6757   */\n      swap2\n      pop\n        /* \"#utility.yul\":6479:6767   */\n      pop\n        /* \"#utility.yul\":5813:6774   */\n      swap3\n      swap6\n      swap2\n      swap5\n      pop\n      swap3\n      pop\n      jump\t// out\n        /* \"#utility.yul\":6780:6898   */\n    tag_182:\n        /* \"#utility.yul\":6867:6891   */\n      tag_290\n        /* \"#utility.yul\":6885:6890   */\n      dup2\n        /* \"#utility.yul\":6867:6891   */\n      tag_168\n      jump\t// in\n    tag_290:\n        /* \"#utility.yul\":6862:6865   */\n      dup3\n        /* \"#utility.yul\":6855:6892   */\n      mstore\n        /* \"#utility.yul\":6780:6898   */\n      pop\n      pop\n      jump\t// out\n        /* \"#utility.yul\":6904:8012   */\n    tag_55:\n        /* \"#utility.yul\":7221:7225   */\n      0x00\n        /* \"#utility.yul\":7259:7262   */\n      0x0120\n        /* \"#utility.yul\":7248:7257   */\n      dup3\n        /* \"#utility.yul\":7244:7263   */\n      add\n        /* \"#utility.yul\":7236:7263   */\n      swap1\n      pop\n        /* \"#utility.yul\":7273:7344   */\n      tag_292\n        /* \"#utility.yul\":7341:7342   */\n      0x00\n        /* \"#utility.yul\":7330:7339   */\n      dup4\n        /* \"#utility.yul\":7326:7343   */\n      add\n        /* \"#utility.yul\":7317:7323   */\n      dup13\n        /* \"#utility.yul\":7273:7344   */\n      tag_182\n      jump\t// in\n    tag_292:\n        /* \"#utility.yul\":7354:7426   */\n      tag_293\n        /* \"#utility.yul\":7422:7424   */\n      0x20\n        /* \"#utility.yul\":7411:7420   */\n      dup4\n        /* \"#utility.yul\":7407:7425   */\n      add\n        /* \"#utility.yul\":7398:7404   */\n      dup12\n        /* \"#utility.yul\":7354:7426   */\n      tag_171\n      jump\t// in\n    tag_293:\n        /* \"#utility.yul\":7436:7508   */\n      tag_294\n        /* \"#utility.yul\":7504:7506   */\n      0x40\n        /* \"#utility.yul\":7493:7502   */\n      dup4\n        /* \"#utility.yul\":7489:7507   */\n      add\n        /* \"#utility.yul\":7480:7486   */\n      dup11\n        /* \"#utility.yul\":7436:7508   */\n      tag_171\n      jump\t// in\n    tag_294:\n        /* \"#utility.yul\":7518:7590   */\n      tag_295\n        /* \"#utility.yul\":7586:7588   */\n      0x60\n        /* \"#utility.yul\":7575:7584   */\n      dup4\n        /* \"#utility.yul\":7571:7589   */\n      add\n        /* \"#utility.yul\":7562:7568   */\n      dup10\n        /* \"#utility.yul\":7518:7590   */\n      tag_171\n      jump\t// in\n    tag_295:\n        /* \"#utility.yul\":7600:7673   */\n      tag_296\n        /* \"#utility.yul\":7668:7671   */\n      0x80\n        /* \"#utility.yul\":7657:7666   */\n      dup4\n        /* \"#utility.yul\":7653:7672   */\n      add\n        /* \"#utility.yul\":7644:7650   */\n      dup9\n        /* \"#utility.yul\":7600:7673   */\n      tag_171\n      jump\t// in\n    tag_296:\n        /* \"#utility.yul\":7683:7756   */\n      tag_297\n        /* \"#utility.yul\":7751:7754   */\n      0xa0\n        /* \"#utility.yul\":7740:7749   */\n      dup4\n        /* \"#utility.yul\":7736:7755   */\n      add\n        /* \"#utility.yul\":7727:7733   */\n      dup8\n        /* \"#utility.yul\":7683:7756   */\n      tag_171\n      jump\t// in\n    tag_297:\n        /* \"#utility.yul\":7766:7839   */\n      tag_298\n        /* \"#utility.yul\":7834:7837   */\n      0xc0\n        /* \"#utility.yul\":7823:7832   */\n      dup4\n        /* \"#utility.yul\":7819:7838   */\n      add\n        /* \"#utility.yul\":7810:7816   */\n      dup7\n        /* \"#utility.yul\":7766:7839   */\n      tag_171\n      jump\t// in\n    tag_298:\n        /* \"#utility.yul\":7849:7922   */\n      tag_299\n        /* \"#utility.yul\":7917:7920   */\n      0xe0\n        /* \"#utility.yul\":7906:7915   */\n      dup4\n        /* \"#utility.yul\":7902:7921   */\n      add\n        /* \"#utility.yul\":7893:7899   */\n      dup6\n        /* \"#utility.yul\":7849:7922   */\n      tag_171\n      jump\t// in\n    tag_299:\n        /* \"#utility.yul\":7932:8005   */\n      tag_300\n        /* \"#utility.yul\":8000:8003   */\n      0x0100\n        /* \"#utility.yul\":7989:7998   */\n      dup4\n        /* \"#utility.yul\":7985:8004   */\n      add\n        /* \"#utility.yul\":7976:7982   */\n      dup5\n        /* \"#utility.yul\":7932:8005   */\n      tag_171\n      jump\t// in\n    tag_300:\n        /* \"#utility.yul\":6904:8012   */\n      swap11\n      swap10\n      pop\n      pop\n      pop\n      pop\n      pop\n      pop\n      pop\n      pop\n      pop\n      pop\n      jump\t// out\n        /* \"#utility.yul\":8018:8198   */\n    tag_183:\n        /* \"#utility.yul\":8066:8143   */\n      0x4e487b7100000000000000000000000000000000000000000000000000000000\n        /* \"#utility.yul\":8063:8064   */\n      0x00\n        /* \"#utility.yul\":8056:8144   */\n      mstore\n        /* \"#utility.yul\":8163:8167   */\n      0x11\n        /* \"#utility.yul\":8160:8161   */\n      0x04\n        /* \"#utility.yul\":8153:8168   */\n      mstore\n        /* \"#utility.yul\":8187:8191   */\n      0x24\n        /* \"#utility.yul\":8184:8185   */\n      0x00\n        /* \"#utility.yul\":8177:8192   */\n      revert\n        /* \"#utility.yul\":8204:8398   */\n    tag_69:\n        /* \"#utility.yul\":8244:8248   */\n      0x00\n        /* \"#utility.yul\":8264:8284   */\n      tag_303\n        /* \"#utility.yul\":8282:8283   */\n      dup3\n        /* \"#utility.yul\":8264:8284   */\n      tag_165\n      jump\t// in\n    tag_303:\n        /* \"#utility.yul\":8259:8284   */\n      swap2\n      pop\n        /* \"#utility.yul\":8298:8318   */\n      tag_304\n        /* \"#utility.yul\":8316:8317   */\n      dup4\n        /* \"#utility.yul\":8298:8318   */\n      tag_165\n      jump\t// in\n    tag_304:\n        /* \"#utility.yul\":8293:8318   */\n      swap3\n      pop\n        /* \"#utility.yul\":8342:8343   */\n      dup3\n        /* \"#utility.yul\":8339:8340   */\n      dup3\n        /* \"#utility.yul\":8335:8344   */\n      sub\n        /* \"#utility.yul\":8327:8344   */\n      swap1\n      pop\n        /* \"#utility.yul\":8366:8367   */\n      dup2\n        /* \"#utility.yul\":8360:8364   */\n      dup2\n        /* \"#utility.yul\":8357:8368   */\n      gt\n        /* \"#utility.yul\":8354:8391   */\n      iszero\n      tag_305\n      jumpi\n        /* \"#utility.yul\":8371:8389   */\n      tag_306\n      tag_183\n      jump\t// in\n    tag_306:\n        /* \"#utility.yul\":8354:8391   */\n    tag_305:\n        /* \"#utility.yul\":8204:8398   */\n      swap3\n      swap2\n      pop\n      pop\n      jump\t// out\n        /* \"#utility.yul\":8404:8575   */\n    tag_72:\n        /* \"#utility.yul\":8443:8446   */\n      0x00\n        /* \"#utility.yul\":8466:8490   */\n      tag_308\n        /* \"#utility.yul\":8484:8489   */\n      dup3\n        /* \"#utility.yul\":8466:8490   */\n      tag_165\n      jump\t// in\n    tag_308:\n        /* \"#utility.yul\":8457:8490   */\n      swap2\n      pop\n        /* \"#utility.yul\":8512:8516   */\n      0x00\n        /* \"#utility.yul\":8505:8510   */\n      dup3\n        /* \"#utility.yul\":8502:8517   */\n      sub\n        /* \"#utility.yul\":8499:8540   */\n      tag_309\n      jumpi\n        /* \"#utility.yul\":8520:8538   */\n      tag_310\n      tag_183\n      jump\t// in\n    tag_310:\n        /* \"#utility.yul\":8499:8540   */\n    tag_309:\n        /* \"#utility.yul\":8567:8568   */\n      0x01\n        /* \"#utility.yul\":8560:8565   */\n      dup3\n        /* \"#utility.yul\":8556:8569   */\n      sub\n        /* \"#utility.yul\":8549:8569   */\n      swap1\n      pop\n        /* \"#utility.yul\":8404:8575   */\n      swap2\n      swap1\n      pop\n      jump\t// out\n        /* \"#utility.yul\":8581:8772   */\n    tag_75:\n        /* \"#utility.yul\":8621:8624   */\n      0x00\n        /* \"#utility.yul\":8640:8660   */\n      tag_312\n        /* \"#utility.yul\":8658:8659   */\n      dup3\n        /* \"#utility.yul\":8640:8660   */\n      tag_165\n      jump\t// in\n    tag_312:\n        /* \"#utility.yul\":8635:8660   */\n      swap2\n      pop\n        /* \"#utility.yul\":8674:8694   */\n      tag_313\n        /* \"#utility.yul\":8692:8693   */\n      dup4\n        /* \"#utility.yul\":8674:8694   */\n      tag_165\n      jump\t// in\n    tag_313:\n        /* \"#utility.yul\":8669:8694   */\n      swap3\n      pop\n        /* \"#utility.yul\":8717:8718   */\n      dup3\n        /* \"#utility.yul\":8714:8715   */\n      dup3\n        /* \"#utility.yul\":8710:8719   */\n      add\n        /* \"#utility.yul\":8703:8719   */\n      swap1\n      pop\n        /* \"#utility.yul\":8738:8741   */\n      dup1\n        /* \"#utility.yul\":8735:8736   */\n      dup3\n        /* \"#utility.yul\":8732:8742   */\n      gt\n        /* \"#utility.yul\":8729:8765   */\n      iszero\n      tag_314\n      jumpi\n        /* \"#utility.yul\":8745:8763   */\n      tag_315\n      tag_183\n      jump\t// in\n    tag_315:\n        /* \"#utility.yul\":8729:8765   */\n    tag_314:\n        /* \"#utility.yul\":8581:8772   */\n      swap3\n      swap2\n      pop\n      pop\n      jump\t// out\n        /* \"#utility.yul\":8778:8926   */\n    tag_184:\n        /* \"#utility.yul\":8880:8891   */\n      0x00\n        /* \"#utility.yul\":8917:8920   */\n      dup2\n        /* \"#utility.yul\":8902:8920   */\n      swap1\n      pop\n        /* \"#utility.yul\":8778:8926   */\n      swap3\n      swap2\n      pop\n      pop\n      jump\t// out\n        /* \"#utility.yul\":8932:9085   */\n    tag_185:\n        /* \"#utility.yul\":9072:9077   */\n      0x6361720000000000000000000000000000000000000000000000000000000000\n        /* \"#utility.yul\":9068:9069   */\n      0x00\n        /* \"#utility.yul\":9060:9066   */\n      dup3\n        /* \"#utility.yul\":9056:9070   */\n      add\n        /* \"#utility.yul\":9049:9078   */\n      mstore\n        /* \"#utility.yul\":8932:9085   */\n      pop\n      jump\t// out\n        /* \"#utility.yul\":9091:9491   */\n    tag_186:\n        /* \"#utility.yul\":9251:9254   */\n      0x00\n        /* \"#utility.yul\":9272:9356   */\n      tag_319\n        /* \"#utility.yul\":9354:9355   */\n      0x03\n        /* \"#utility.yul\":9349:9352   */\n      dup4\n        /* \"#utility.yul\":9272:9356   */\n      tag_184\n      jump\t// in\n    tag_319:\n        /* \"#utility.yul\":9265:9356   */\n      swap2\n      pop\n        /* \"#utility.yul\":9365:9458   */\n      tag_320\n        /* \"#utility.yul\":9454:9457   */\n      dup3\n        /* \"#utility.yul\":9365:9458   */\n      tag_185\n      jump\t// in\n    tag_320:\n        /* \"#utility.yul\":9483:9484   */\n      0x03\n        /* \"#utility.yul\":9478:9481   */\n      dup3\n        /* \"#utility.yul\":9474:9485   */\n      add\n        /* \"#utility.yul\":9467:9485   */\n      swap1\n      pop\n        /* \"#utility.yul\":9091:9491   */\n      swap2\n      swap1\n      pop\n      jump\t// out\n        /* \"#utility.yul\":9497:9878   */\n    tag_84:\n        /* \"#utility.yul\":9682:9685   */\n      0x00\n        /* \"#utility.yul\":9704:9852   */\n      tag_322\n        /* \"#utility.yul\":9848:9851   */\n      dup3\n        /* \"#utility.yul\":9704:9852   */\n      tag_186\n      jump\t// in\n    tag_322:\n        /* \"#utility.yul\":9697:9852   */\n      swap2\n      pop\n        /* \"#utility.yul\":9869:9872   */\n      dup2\n        /* \"#utility.yul\":9862:9872   */\n      swap1\n      pop\n        /* \"#utility.yul\":9497:9878   */\n      swap2\n      swap1\n      pop\n      jump\t// out\n        /* \"#utility.yul\":9884:9983   */\n    tag_187:\n        /* \"#utility.yul\":9936:9942   */\n      0x00\n        /* \"#utility.yul\":9970:9975   */\n      dup2\n        /* \"#utility.yul\":9964:9976   */\n      mload\n        /* \"#utility.yul\":9954:9976   */\n      swap1\n      pop\n        /* \"#utility.yul\":9884:9983   */\n      swap2\n      swap1\n      pop\n      jump\t// out\n        /* \"#utility.yul\":9989:10235   */\n    tag_188:\n        /* \"#utility.yul\":10070:10071   */\n      0x00\n        /* \"#utility.yul\":10080:10193   */\n    tag_325:\n        /* \"#utility.yul\":10094:10100   */\n      dup4\n        /* \"#utility.yul\":10091:10092   */\n      dup2\n        /* \"#utility.yul\":10088:10101   */\n      lt\n        /* \"#utility.yul\":10080:10193   */\n      iszero\n      tag_327\n      jumpi\n        /* \"#utility.yul\":10179:10180   */\n      dup1\n        /* \"#utility.yul\":10174:10177   */\n      dup3\n        /* \"#utility.yul\":10170:10181   */\n      add\n        /* \"#utility.yul\":10164:10182   */\n      mload\n        /* \"#utility.yul\":10160:10161   */\n      dup2\n        /* \"#utility.yul\":10155:10158   */\n      dup5\n        /* \"#utility.yul\":10151:10162   */\n      add\n        /* \"#utility.yul\":10144:10183   */\n      mstore\n        /* \"#utility.yul\":10116:10118   */\n      0x20\n        /* \"#utility.yul\":10113:10114   */\n      dup2\n        /* \"#utility.yul\":10109:10119   */\n      add\n        /* \"#utility.yul\":10104:10119   */\n      swap1\n      pop\n        /* \"#utility.yul\":10080:10193   */\n      jump(tag_325)\n    tag_327:\n        /* \"#utility.yul\":10227:10228   */\n      0x00\n        /* \"#utility.yul\":10218:10224   */\n      dup5\n        /* \"#utility.yul\":10213:10216   */\n      dup5\n        /* \"#utility.yul\":10209:10225   */\n      add\n        /* \"#utility.yul\":10202:10229   */\n      mstore\n        /* \"#utility.yul\":10051:10235   */\n      pop\n        /* \"#utility.yul\":9989:10235   */\n      pop\n      pop\n      pop\n      jump\t// out\n        /* \"#utility.yul\":10241:10631   */\n    tag_189:\n        /* \"#utility.yul\":10347:10350   */\n      0x00\n        /* \"#utility.yul\":10375:10414   */\n      tag_329\n        /* \"#utility.yul\":10408:10413   */\n      dup3\n        /* \"#utility.yul\":10375:10414   */\n      tag_187\n      jump\t// in\n    tag_329:\n        /* \"#utility.yul\":10430:10519   */\n      tag_330\n        /* \"#utility.yul\":10512:10518   */\n      dup2\n        /* \"#utility.yul\":10507:10510   */\n      dup6\n        /* \"#utility.yul\":10430:10519   */\n      tag_184\n      jump\t// in\n    tag_330:\n        /* \"#utility.yul\":10423:10519   */\n      swap4\n      pop\n        /* \"#utility.yul\":10528:10593   */\n      tag_331\n        /* \"#utility.yul\":10586:10592   */\n      dup2\n        /* \"#utility.yul\":10581:10584   */\n      dup6\n        /* \"#utility.yul\":10574:10578   */\n      0x20\n        /* \"#utility.yul\":10567:10572   */\n      dup7\n        /* \"#utility.yul\":10563:10579   */\n      add\n        /* \"#utility.yul\":10528:10593   */\n      tag_188\n      jump\t// in\n    tag_331:\n        /* \"#utility.yul\":10618:10624   */\n      dup1\n        /* \"#utility.yul\":10613:10616   */\n      dup5\n        /* \"#utility.yul\":10609:10625   */\n      add\n        /* \"#utility.yul\":10602:10625   */\n      swap2\n      pop\n        /* \"#utility.yul\":10351:10631   */\n      pop\n        /* \"#utility.yul\":10241:10631   */\n      swap3\n      swap2\n      pop\n      pop\n      jump\t// out\n        /* \"#utility.yul\":10637:10912   */\n    tag_86:\n        /* \"#utility.yul\":10769:10772   */\n      0x00\n        /* \"#utility.yul\":10791:10886   */\n      tag_333\n        /* \"#utility.yul\":10882:10885   */\n      dup3\n        /* \"#utility.yul\":10873:10879   */\n      dup5\n        /* \"#utility.yul\":10791:10886   */\n      tag_189\n      jump\t// in\n    tag_333:\n        /* \"#utility.yul\":10784:10886   */\n      swap2\n      pop\n        /* \"#utility.yul\":10903:10906   */\n      dup2\n        /* \"#utility.yul\":10896:10906   */\n      swap1\n      pop\n        /* \"#utility.yul\":10637:10912   */\n      swap3\n      swap2\n      pop\n      pop\n      jump\t// out\n        /* \"#utility.yul\":10918:11072   */\n    tag_190:\n        /* \"#utility.yul\":11058:11064   */\n      0x686f6d6500000000000000000000000000000000000000000000000000000000\n        /* \"#utility.yul\":11054:11055   */\n      0x00\n        /* \"#utility.yul\":11046:11052   */\n      dup3\n        /* \"#utility.yul\":11042:11056   */\n      add\n        /* \"#utility.yul\":11035:11065   */\n      mstore\n        /* \"#utility.yul\":10918:11072   */\n      pop\n      jump\t// out\n        /* \"#utility.yul\":11078:11478   */\n    tag_191:\n        /* \"#utility.yul\":11238:11241   */\n      0x00\n        /* \"#utility.yul\":11259:11343   */\n      tag_336\n        /* \"#utility.yul\":11341:11342   */\n      0x04\n        /* \"#utility.yul\":11336:11339   */\n      dup4\n        /* \"#utility.yul\":11259:11343   */\n      tag_184\n      jump\t// in\n    tag_336:\n        /* \"#utility.yul\":11252:11343   */\n      swap2\n      pop\n        /* \"#utility.yul\":11352:11445   */\n      tag_337\n        /* \"#utility.yul\":11441:11444   */\n      dup3\n        /* \"#utility.yul\":11352:11445   */\n      tag_190\n      jump\t// in\n    tag_337:\n        /* \"#utility.yul\":11470:11471   */\n      0x04\n        /* \"#utility.yul\":11465:11468   */\n      dup3\n        /* \"#utility.yul\":11461:11472   */\n      add\n        /* \"#utility.yul\":11454:11472   */\n      swap1\n      pop\n        /* \"#utility.yul\":11078:11478   */\n      swap2\n      swap1\n      pop\n      jump\t// out\n        /* \"#utility.yul\":11484:11865   */\n    tag_89:\n        /* \"#utility.yul\":11669:11672   */\n      0x00\n        /* \"#utility.yul\":11691:11839   */\n      tag_339\n        /* \"#utility.yul\":11835:11838   */\n      dup3\n        /* \"#utility.yul\":11691:11839   */\n      tag_191\n      jump\t// in\n    tag_339:\n        /* \"#utility.yul\":11684:11839   */\n      swap2\n      pop\n        /* \"#utility.yul\":11856:11859   */\n      dup2\n        /* \"#utility.yul\":11849:11859   */\n      swap1\n      pop\n        /* \"#utility.yul\":11484:11865   */\n      swap2\n      swap1\n      pop\n      jump\t// out\n        /* \"#utility.yul\":11871:12029   */\n    tag_192:\n        /* \"#utility.yul\":12011:12021   */\n      0x706572736f6e616c000000000000000000000000000000000000000000000000\n        /* \"#utility.yul\":12007:12008   */\n      0x00\n        /* \"#utility.yul\":11999:12005   */\n      dup3\n        /* \"#utility.yul\":11995:12009   */\n      add\n        /* \"#utility.yul\":11988:12022   */\n      mstore\n        /* \"#utility.yul\":11871:12029   */\n      pop\n      jump\t// out\n        /* \"#utility.yul\":12035:12435   */\n    tag_193:\n        /* \"#utility.yul\":12195:12198   */\n      0x00\n        /* \"#utility.yul\":12216:12300   */\n      tag_342\n        /* \"#utility.yul\":12298:12299   */\n      0x08\n        /* \"#utility.yul\":12293:12296   */\n      dup4\n        /* \"#utility.yul\":12216:12300   */\n      tag_184\n      jump\t// in\n    tag_342:\n        /* \"#utility.yul\":12209:12300   */\n      swap2\n      pop\n        /* \"#utility.yul\":12309:12402   */\n      tag_343\n        /* \"#utility.yul\":12398:12401   */\n      dup3\n        /* \"#utility.yul\":12309:12402   */\n      tag_192\n      jump\t// in\n    tag_343:\n        /* \"#utility.yul\":12427:12428   */\n      0x08\n        /* \"#utility.yul\":12422:12425   */\n      dup3\n        /* \"#utility.yul\":12418:12429   */\n      add\n        /* \"#utility.yul\":12411:12429   */\n      swap1\n      pop\n        /* \"#utility.yul\":12035:12435   */\n      swap2\n      swap1\n      pop\n      jump\t// out\n        /* \"#utility.yul\":12441:12822   */\n    tag_93:\n        /* \"#utility.yul\":12626:12629   */\n      0x00\n        /* \"#utility.yul\":12648:12796   */\n      tag_345\n        /* \"#utility.yul\":12792:12795   */\n      dup3\n        /* \"#utility.yul\":12648:12796   */\n      tag_193\n      jump\t// in\n    tag_345:\n        /* \"#utility.yul\":12641:12796   */\n      swap2\n      pop\n        /* \"#utility.yul\":12813:12816   */\n      dup2\n        /* \"#utility.yul\":12806:12816   */\n      swap1\n      pop\n        /* \"#utility.yul\":12441:12822   */\n      swap2\n      swap1\n      pop\n      jump\t// out\n        /* \"#utility.yul\":12828:12997   */\n    tag_194:\n        /* \"#utility.yul\":12912:12923   */\n      0x00\n        /* \"#utility.yul\":12946:12952   */\n      dup3\n        /* \"#utility.yul\":12941:12944   */\n      dup3\n        /* \"#utility.yul\":12934:12953   */\n      mstore\n        /* \"#utility.yul\":12986:12990   */\n      0x20\n        /* \"#utility.yul\":12981:12984   */\n      dup3\n        /* \"#utility.yul\":12977:12991   */\n      add\n        /* \"#utility.yul\":12962:12991   */\n      swap1\n      pop\n        /* \"#utility.yul\":12828:12997   */\n      swap3\n      swap2\n      pop\n      pop\n      jump\t// out\n        /* \"#utility.yul\":13003:13170   */\n    tag_195:\n        /* \"#utility.yul\":13143:13162   */\n      0x696e76616c6964206c6f616e2074797065000000000000000000000000000000\n        /* \"#utility.yul\":13139:13140   */\n      0x00\n        /* \"#utility.yul\":13131:13137   */\n      dup3\n        /* \"#utility.yul\":13127:13141   */\n      add\n        /* \"#utility.yul\":13120:13163   */\n      mstore\n        /* \"#utility.yul\":13003:13170   */\n      pop\n      jump\t// out\n        /* \"#utility.yul\":13176:13542   */\n    tag_196:\n        /* \"#utility.yul\":13318:13321   */\n      0x00\n        /* \"#utility.yul\":13339:13406   */\n      tag_349\n        /* \"#utility.yul\":13403:13405   */\n      0x11\n        /* \"#utility.yul\":13398:13401   */\n      dup4\n        /* \"#utility.yul\":13339:13406   */\n      tag_194\n      jump\t// in\n    tag_349:\n        /* \"#utility.yul\":13332:13406   */\n      swap2\n      pop\n        /* \"#utility.yul\":13415:13508   */\n      tag_350\n        /* \"#utility.yul\":13504:13507   */\n      dup3\n        /* \"#utility.yul\":13415:13508   */\n      tag_195\n      jump\t// in\n    tag_350:\n        /* \"#utility.yul\":13533:13535   */\n      0x20\n        /* \"#utility.yul\":13528:13531   */\n      dup3\n        /* \"#utility.yul\":13524:13536   */\n      add\n        /* \"#utility.yul\":13517:13536   */\n      swap1\n      pop\n        /* \"#utility.yul\":13176:13542   */\n      swap2\n      swap1\n      pop\n      jump\t// out\n        /* \"#utility.yul\":13548:13967   */\n    tag_97:\n        /* \"#utility.yul\":13714:13718   */\n      0x00\n        /* \"#utility.yul\":13752:13754   */\n      0x20\n        /* \"#utility.yul\":13741:13750   */\n      dup3\n        /* \"#utility.yul\":13737:13755   */\n      add\n        /* \"#utility.yul\":13729:13755   */\n      swap1\n      pop\n        /* \"#utility.yul\":13801:13810   */\n      dup2\n        /* \"#utility.yul\":13795:13799   */\n      dup2\n        /* \"#utility.yul\":13791:13811   */\n      sub\n        /* \"#utility.yul\":13787:13788   */\n      0x00\n        /* \"#utility.yul\":13776:13785   */\n      dup4\n        /* \"#utility.yul\":13772:13789   */\n      add\n        /* \"#utility.yul\":13765:13812   */\n      mstore\n        /* \"#utility.yul\":13829:13960   */\n      tag_352\n        /* \"#utility.yul\":13955:13959   */\n      dup2\n        /* \"#utility.yul\":13829:13960   */\n      tag_196\n      jump\t// in\n    tag_352:\n        /* \"#utility.yul\":13821:13960   */\n      swap1\n      pop\n        /* \"#utility.yul\":13548:13967   */\n      swap2\n      swap1\n      pop\n      jump\t// out\n        /* \"#utility.yul\":13973:14206   */\n    tag_197:\n        /* \"#utility.yul\":14113:14147   */\n      0x796f752068617665206f6e6520636172206c6f616e2120796f752063616e2774\n        /* \"#utility.yul\":14109:14110   */\n      0x00\n        /* \"#utility.yul\":14101:14107   */\n      dup3\n        /* \"#utility.yul\":14097:14111   */\n      add\n        /* \"#utility.yul\":14090:14148   */\n      mstore\n        /* \"#utility.yul\":14182:14198   */\n      0x2074616b6520616e6f7468657221000000000000000000000000000000000000\n        /* \"#utility.yul\":14177:14179   */\n      0x20\n        /* \"#utility.yul\":14169:14175   */\n      dup3\n        /* \"#utility.yul\":14165:14180   */\n      add\n        /* \"#utility.yul\":14158:14199   */\n      mstore\n        /* \"#utility.yul\":13973:14206   */\n      pop\n      jump\t// out\n        /* \"#utility.yul\":14212:14578   */\n    tag_198:\n        /* \"#utility.yul\":14354:14357   */\n      0x00\n        /* \"#utility.yul\":14375:14442   */\n      tag_355\n        /* \"#utility.yul\":14439:14441   */\n      0x2e\n        /* \"#utility.yul\":14434:14437   */\n      dup4\n        /* \"#utility.yul\":14375:14442   */\n      tag_194\n      jump\t// in\n    tag_355:\n        /* \"#utility.yul\":14368:14442   */\n      swap2\n      pop\n        /* \"#utility.yul\":14451:14544   */\n      tag_356\n        /* \"#utility.yul\":14540:14543   */\n      dup3\n        /* \"#utility.yul\":14451:14544   */\n      tag_197\n      jump\t// in\n    tag_356:\n        /* \"#utility.yul\":14569:14571   */\n      0x40\n        /* \"#utility.yul\":14564:14567   */\n      dup3\n        /* \"#utility.yul\":14560:14572   */\n      add\n        /* \"#utility.yul\":14553:14572   */\n      swap1\n      pop\n        /* \"#utility.yul\":14212:14578   */\n      swap2\n      swap1\n      pop\n      jump\t// out\n        /* \"#utility.yul\":14584:15003   */\n    tag_103:\n        /* \"#utility.yul\":14750:14754   */\n      0x00\n        /* \"#utility.yul\":14788:14790   */\n      0x20\n        /* \"#utility.yul\":14777:14786   */\n      dup3\n        /* \"#utility.yul\":14773:14791   */\n      add\n        /* \"#utility.yul\":14765:14791   */\n      swap1\n      pop\n        /* \"#utility.yul\":14837:14846   */\n      dup2\n        /* \"#utility.yul\":14831:14835   */\n      dup2\n        /* \"#utility.yul\":14827:14847   */\n      sub\n        /* \"#utility.yul\":14823:14824   */\n      0x00\n        /* \"#utility.yul\":14812:14821   */\n      dup4\n        /* \"#utility.yul\":14808:14825   */\n      add\n        /* \"#utility.yul\":14801:14848   */\n      mstore\n        /* \"#utility.yul\":14865:14996   */\n      tag_358\n        /* \"#utility.yul\":14991:14995   */\n      dup2\n        /* \"#utility.yul\":14865:14996   */\n      tag_198\n      jump\t// in\n    tag_358:\n        /* \"#utility.yul\":14857:14996   */\n      swap1\n      pop\n        /* \"#utility.yul\":14584:15003   */\n      swap2\n      swap1\n      pop\n      jump\t// out\n        /* \"#utility.yul\":15009:15419   */\n    tag_105:\n        /* \"#utility.yul\":15049:15056   */\n      0x00\n        /* \"#utility.yul\":15072:15092   */\n      tag_360\n        /* \"#utility.yul\":15090:15091   */\n      dup3\n        /* \"#utility.yul\":15072:15092   */\n      tag_165\n      jump\t// in\n    tag_360:\n        /* \"#utility.yul\":15067:15092   */\n      swap2\n      pop\n        /* \"#utility.yul\":15106:15126   */\n      tag_361\n        /* \"#utility.yul\":15124:15125   */\n      dup4\n        /* \"#utility.yul\":15106:15126   */\n      tag_165\n      jump\t// in\n    tag_361:\n        /* \"#utility.yul\":15101:15126   */\n      swap3\n      pop\n        /* \"#utility.yul\":15161:15162   */\n      dup3\n        /* \"#utility.yul\":15158:15159   */\n      dup3\n        /* \"#utility.yul\":15154:15163   */\n      mul\n        /* \"#utility.yul\":15183:15213   */\n      tag_362\n        /* \"#utility.yul\":15201:15212   */\n      dup2\n        /* \"#utility.yul\":15183:15213   */\n      tag_165\n      jump\t// in\n    tag_362:\n        /* \"#utility.yul\":15172:15213   */\n      swap2\n      pop\n        /* \"#utility.yul\":15362:15363   */\n      dup3\n        /* \"#utility.yul\":15353:15360   */\n      dup3\n        /* \"#utility.yul\":15349:15364   */\n      div\n        /* \"#utility.yul\":15346:15347   */\n      dup5\n        /* \"#utility.yul\":15343:15365   */\n      eq\n        /* \"#utility.yul\":15323:15324   */\n      dup4\n        /* \"#utility.yul\":15316:15325   */\n      iszero\n        /* \"#utility.yul\":15296:15379   */\n      or\n        /* \"#utility.yul\":15273:15412   */\n      tag_363\n      jumpi\n        /* \"#utility.yul\":15392:15410   */\n      tag_364\n      tag_183\n      jump\t// in\n    tag_364:\n        /* \"#utility.yul\":15273:15412   */\n    tag_363:\n        /* \"#utility.yul\":15057:15419   */\n      pop\n        /* \"#utility.yul\":15009:15419   */\n      swap3\n      swap2\n      pop\n      pop\n      jump\t// out\n        /* \"#utility.yul\":15425:15605   */\n    tag_199:\n        /* \"#utility.yul\":15473:15550   */\n      0x4e487b7100000000000000000000000000000000000000000000000000000000\n        /* \"#utility.yul\":15470:15471   */\n      0x00\n        /* \"#utility.yul\":15463:15551   */\n      mstore\n        /* \"#utility.yul\":15570:15574   */\n      0x12\n        /* \"#utility.yul\":15567:15568   */\n      0x04\n        /* \"#utility.yul\":15560:15575   */\n      mstore\n        /* \"#utility.yul\":15594:15598   */\n      0x24\n        /* \"#utility.yul\":15591:15592   */\n      0x00\n        /* \"#utility.yul\":15584:15599   */\n      revert\n        /* \"#utility.yul\":15611:15796   */\n    tag_108:\n        /* \"#utility.yul\":15651:15652   */\n      0x00\n        /* \"#utility.yul\":15668:15688   */\n      tag_367\n        /* \"#utility.yul\":15686:15687   */\n      dup3\n        /* \"#utility.yul\":15668:15688   */\n      tag_165\n      jump\t// in\n    tag_367:\n        /* \"#utility.yul\":15663:15688   */\n      swap2\n      pop\n        /* \"#utility.yul\":15702:15722   */\n      tag_368\n        /* \"#utility.yul\":15720:15721   */\n      dup4\n        /* \"#utility.yul\":15702:15722   */\n      tag_165\n      jump\t// in\n    tag_368:\n        /* \"#utility.yul\":15697:15722   */\n      swap3\n      pop\n        /* \"#utility.yul\":15741:15742   */\n      dup3\n        /* \"#utility.yul\":15731:15766   */\n      tag_369\n      jumpi\n        /* \"#utility.yul\":15746:15764   */\n      tag_370\n      tag_199\n      jump\t// in\n    tag_370:\n        /* \"#utility.yul\":15731:15766   */\n    tag_369:\n        /* \"#utility.yul\":15788:15789   */\n      dup3\n        /* \"#utility.yul\":15785:15786   */\n      dup3\n        /* \"#utility.yul\":15781:15790   */\n      div\n        /* \"#utility.yul\":15776:15790   */\n      swap1\n      pop\n        /* \"#utility.yul\":15611:15796   */\n      swap3\n      swap2\n      pop\n      pop\n      jump\t// out\n        /* \"#utility.yul\":15802:16044   */\n    tag_200:\n        /* \"#utility.yul\":15942:15976   */\n      0x796f75206861766520616c7265616479206f6e6520686f6d65206c6f616e2120\n        /* \"#utility.yul\":15938:15939   */\n      0x00\n        /* \"#utility.yul\":15930:15936   */\n      dup3\n        /* \"#utility.yul\":15926:15940   */\n      add\n        /* \"#utility.yul\":15919:15977   */\n      mstore\n        /* \"#utility.yul\":16011:16036   */\n      0x796f752063616e27742074616b6520616e6f7468657221000000000000000000\n        /* \"#utility.yul\":16006:16008   */\n      0x20\n        /* \"#utility.yul\":15998:16004   */\n      dup3\n        /* \"#utility.yul\":15994:16009   */\n      add\n        /* \"#utility.yul\":15987:16037   */\n      mstore\n        /* \"#utility.yul\":15802:16044   */\n      pop\n      jump\t// out\n        /* \"#utility.yul\":16050:16416   */\n    tag_201:\n        /* \"#utility.yul\":16192:16195   */\n      0x00\n        /* \"#utility.yul\":16213:16280   */\n      tag_373\n        /* \"#utility.yul\":16277:16279   */\n      0x37\n        /* \"#utility.yul\":16272:16275   */\n      dup4\n        /* \"#utility.yul\":16213:16280   */\n      tag_194\n      jump\t// in\n    tag_373:\n        /* \"#utility.yul\":16206:16280   */\n      swap2\n      pop\n        /* \"#utility.yul\":16289:16382   */\n      tag_374\n        /* \"#utility.yul\":16378:16381   */\n      dup3\n        /* \"#utility.yul\":16289:16382   */\n      tag_200\n      jump\t// in\n    tag_374:\n        /* \"#utility.yul\":16407:16409   */\n      0x40\n        /* \"#utility.yul\":16402:16405   */\n      dup3\n        /* \"#utility.yul\":16398:16410   */\n      add\n        /* \"#utility.yul\":16391:16410   */\n      swap1\n      pop\n        /* \"#utility.yul\":16050:16416   */\n      swap2\n      swap1\n      pop\n      jump\t// out\n        /* \"#utility.yul\":16422:16841   */\n    tag_120:\n        /* \"#utility.yul\":16588:16592   */\n      0x00\n        /* \"#utility.yul\":16626:16628   */\n      0x20\n        /* \"#utility.yul\":16615:16624   */\n      dup3\n        /* \"#utility.yul\":16611:16629   */\n      add\n        /* \"#utility.yul\":16603:16629   */\n      swap1\n      pop\n        /* \"#utility.yul\":16675:16684   */\n      dup2\n        /* \"#utility.yul\":16669:16673   */\n      dup2\n        /* \"#utility.yul\":16665:16685   */\n      sub\n        /* \"#utility.yul\":16661:16662   */\n      0x00\n        /* \"#utility.yul\":16650:16659   */\n      dup4\n        /* \"#utility.yul\":16646:16663   */\n      add\n        /* \"#utility.yul\":16639:16686   */\n      mstore\n        /* \"#utility.yul\":16703:16834   */\n      tag_376\n        /* \"#utility.yul\":16829:16833   */\n      dup2\n        /* \"#utility.yul\":16703:16834   */\n      tag_201\n      jump\t// in\n    tag_376:\n        /* \"#utility.yul\":16695:16834   */\n      swap1\n      pop\n        /* \"#utility.yul\":16422:16841   */\n      swap2\n      swap1\n      pop\n      jump\t// out\n        /* \"#utility.yul\":16847:17085   */\n    tag_202:\n        /* \"#utility.yul\":16987:17021   */\n      0x796f752068617665206f6e6520706572736f6e616c206c6f616e2120796f7520\n        /* \"#utility.yul\":16983:16984   */\n      0x00\n        /* \"#utility.yul\":16975:16981   */\n      dup3\n        /* \"#utility.yul\":16971:16985   */\n      add\n        /* \"#utility.yul\":16964:17022   */\n      mstore\n        /* \"#utility.yul\":17056:17077   */\n      0x63616e27742074616b6520616e6f746865722100000000000000000000000000\n        /* \"#utility.yul\":17051:17053   */\n      0x20\n        /* \"#utility.yul\":17043:17049   */\n      dup3\n        /* \"#utility.yul\":17039:17054   */\n      add\n        /* \"#utility.yul\":17032:17078   */\n      mstore\n        /* \"#utility.yul\":16847:17085   */\n      pop\n      jump\t// out\n        /* \"#utility.yul\":17091:17457   */\n    tag_203:\n        /* \"#utility.yul\":17233:17236   */\n      0x00\n        /* \"#utility.yul\":17254:17321   */\n      tag_379\n        /* \"#utility.yul\":17318:17320   */\n      0x33\n        /* \"#utility.yul\":17313:17316   */\n      dup4\n        /* \"#utility.yul\":17254:17321   */\n      tag_194\n      jump\t// in\n    tag_379:\n        /* \"#utility.yul\":17247:17321   */\n      swap2\n      pop\n        /* \"#utility.yul\":17330:17423   */\n      tag_380\n        /* \"#utility.yul\":17419:17422   */\n      dup3\n        /* \"#utility.yul\":17330:17423   */\n      tag_202\n      jump\t// in\n    tag_380:\n        /* \"#utility.yul\":17448:17450   */\n      0x40\n        /* \"#utility.yul\":17443:17446   */\n      dup3\n        /* \"#utility.yul\":17439:17451   */\n      add\n        /* \"#utility.yul\":17432:17451   */\n      swap1\n      pop\n        /* \"#utility.yul\":17091:17457   */\n      swap2\n      swap1\n      pop\n      jump\t// out\n        /* \"#utility.yul\":17463:17882   */\n    tag_135:\n        /* \"#utility.yul\":17629:17633   */\n      0x00\n        /* \"#utility.yul\":17667:17669   */\n      0x20\n        /* \"#utility.yul\":17656:17665   */\n      dup3\n        /* \"#utility.yul\":17652:17670   */\n      add\n        /* \"#utility.yul\":17644:17670   */\n      swap1\n      pop\n        /* \"#utility.yul\":17716:17725   */\n      dup2\n        /* \"#utility.yul\":17710:17714   */\n      dup2\n        /* \"#utility.yul\":17706:17726   */\n      sub\n        /* \"#utility.yul\":17702:17703   */\n      0x00\n        /* \"#utility.yul\":17691:17700   */\n      dup4\n        /* \"#utility.yul\":17687:17704   */\n      add\n        /* \"#utility.yul\":17680:17727   */\n      mstore\n        /* \"#utility.yul\":17744:17875   */\n      tag_382\n        /* \"#utility.yul\":17870:17874   */\n      dup2\n        /* \"#utility.yul\":17744:17875   */\n      tag_203\n      jump\t// in\n    tag_382:\n        /* \"#utility.yul\":17736:17875   */\n      swap1\n      pop\n        /* \"#utility.yul\":17463:17882   */\n      swap2\n      swap1\n      pop\n      jump\t// out\n        /* \"#utility.yul\":17888:18111   */\n    tag_204:\n        /* \"#utility.yul\":18028:18062   */\n      0x596f75277265206e6f742074686520736d61727420636f6e7472616374206164\n        /* \"#utility.yul\":18024:18025   */\n      0x00\n        /* \"#utility.yul\":18016:18022   */\n      dup3\n        /* \"#utility.yul\":18012:18026   */\n      add\n        /* \"#utility.yul\":18005:18063   */\n      mstore\n        /* \"#utility.yul\":18097:18103   */\n      0x6d696e2100000000000000000000000000000000000000000000000000000000\n        /* \"#utility.yul\":18092:18094   */\n      0x20\n        /* \"#utility.yul\":18084:18090   */\n      dup3\n        /* \"#utility.yul\":18080:18095   */\n      add\n        /* \"#utility.yul\":18073:18104   */\n      mstore\n        /* \"#utility.yul\":17888:18111   */\n      pop\n      jump\t// out\n        /* \"#utility.yul\":18117:18483   */\n    tag_205:\n        /* \"#utility.yul\":18259:18262   */\n      0x00\n        /* \"#utility.yul\":18280:18347   */\n      tag_385\n        /* \"#utility.yul\":18344:18346   */\n      0x24\n        /* \"#utility.yul\":18339:18342   */\n      dup4\n        /* \"#utility.yul\":18280:18347   */\n      tag_194\n      jump\t// in\n    tag_385:\n        /* \"#utility.yul\":18273:18347   */\n      swap2\n      pop\n        /* \"#utility.yul\":18356:18449   */\n      tag_386\n        /* \"#utility.yul\":18445:18448   */\n      dup3\n        /* \"#utility.yul\":18356:18449   */\n      tag_204\n      jump\t// in\n    tag_386:\n        /* \"#utility.yul\":18474:18476   */\n      0x40\n        /* \"#utility.yul\":18469:18472   */\n      dup3\n        /* \"#utility.yul\":18465:18477   */\n      add\n        /* \"#utility.yul\":18458:18477   */\n      swap1\n      pop\n        /* \"#utility.yul\":18117:18483   */\n      swap2\n      swap1\n      pop\n      jump\t// out\n        /* \"#utility.yul\":18489:18908   */\n    tag_147:\n        /* \"#utility.yul\":18655:18659   */\n      0x00\n        /* \"#utility.yul\":18693:18695   */\n      0x20\n        /* \"#utility.yul\":18682:18691   */\n      dup3\n        /* \"#utility.yul\":18678:18696   */\n      add\n        /* \"#utility.yul\":18670:18696   */\n      swap1\n      pop\n        /* \"#utility.yul\":18742:18751   */\n      dup2\n        /* \"#utility.yul\":18736:18740   */\n      dup2\n        /* \"#utility.yul\":18732:18752   */\n      sub\n        /* \"#utility.yul\":18728:18729   */\n      0x00\n        /* \"#utility.yul\":18717:18726   */\n      dup4\n        /* \"#utility.yul\":18713:18730   */\n      add\n        /* \"#utility.yul\":18706:18753   */\n      mstore\n        /* \"#utility.yul\":18770:18901   */\n      tag_388\n        /* \"#utility.yul\":18896:18900   */\n      dup2\n        /* \"#utility.yul\":18770:18901   */\n      tag_205\n      jump\t// in\n    tag_388:\n        /* \"#utility.yul\":18762:18901   */\n      swap1\n      pop\n        /* \"#utility.yul\":18489:18908   */\n      swap2\n      swap1\n      pop\n      jump\t// out\n        /* \"#utility.yul\":18914:19078   */\n    tag_206:\n        /* \"#utility.yul\":19054:19070   */\n      0x696e76616c696420616d6f756e74000000000000000000000000000000000000\n        /* \"#utility.yul\":19050:19051   */\n      0x00\n        /* \"#utility.yul\":19042:19048   */\n      dup3\n        /* \"#utility.yul\":19038:19052   */\n      add\n        /* \"#utility.yul\":19031:19071   */\n      mstore\n        /* \"#utility.yul\":18914:19078   */\n      pop\n      jump\t// out\n        /* \"#utility.yul\":19084:19450   */\n    tag_207:\n        /* \"#utility.yul\":19226:19229   */\n      0x00\n        /* \"#utility.yul\":19247:19314   */\n      tag_391\n        /* \"#utility.yul\":19311:19313   */\n      0x0e\n        /* \"#utility.yul\":19306:19309   */\n      dup4\n        /* \"#utility.yul\":19247:19314   */\n      tag_194\n      jump\t// in\n    tag_391:\n        /* \"#utility.yul\":19240:19314   */\n      swap2\n      pop\n        /* \"#utility.yul\":19323:19416   */\n      tag_392\n        /* \"#utility.yul\":19412:19415   */\n      dup3\n        /* \"#utility.yul\":19323:19416   */\n      tag_206\n      jump\t// in\n    tag_392:\n        /* \"#utility.yul\":19441:19443   */\n      0x20\n        /* \"#utility.yul\":19436:19439   */\n      dup3\n        /* \"#utility.yul\":19432:19444   */\n      add\n        /* \"#utility.yul\":19425:19444   */\n      swap1\n      pop\n        /* \"#utility.yul\":19084:19450   */\n      swap2\n      swap1\n      pop\n      jump\t// out\n        /* \"#utility.yul\":19456:19875   */\n    tag_156:\n        /* \"#utility.yul\":19622:19626   */\n      0x00\n        /* \"#utility.yul\":19660:19662   */\n      0x20\n        /* \"#utility.yul\":19649:19658   */\n      dup3\n        /* \"#utility.yul\":19645:19663   */\n      add\n        /* \"#utility.yul\":19637:19663   */\n      swap1\n      pop\n        /* \"#utility.yul\":19709:19718   */\n      dup2\n        /* \"#utility.yul\":19703:19707   */\n      dup2\n        /* \"#utility.yul\":19699:19719   */\n      sub\n        /* \"#utility.yul\":19695:19696   */\n      0x00\n        /* \"#utility.yul\":19684:19693   */\n      dup4\n        /* \"#utility.yul\":19680:19697   */\n      add\n        /* \"#utility.yul\":19673:19720   */\n      mstore\n        /* \"#utility.yul\":19737:19868   */\n      tag_394\n        /* \"#utility.yul\":19863:19867   */\n      dup2\n        /* \"#utility.yul\":19737:19868   */\n      tag_207\n      jump\t// in\n    tag_394:\n        /* \"#utility.yul\":19729:19868   */\n      swap1\n      pop\n        /* \"#utility.yul\":19456:19875   */\n      swap2\n      swap1\n      pop\n      jump\t// out\n\n    auxdata: 0xa26469706673582212205300435587f2caeb0dd76ae011ed9e74dd0772fbc9a236a0e62e8a803037859b64736f6c63430008120033\n}\n",
				"bytecode": {
					"linkReferences": {},
					"object": "608060405234801561001057600080fd5b50336000806101000a81548173ffffffffffffffffffffffffffffffffffffffff021916908373ffffffffffffffffffffffffffffffffffffffff160217905550612c7a806100606000396000f3fe6080604052600436106100955760003560e01c80639283ea63116100595780639283ea631461018c578063a2f09dfa146101a8578063a87430ba146101b2578063d77799a5146101f7578063f3fef3a3146102365761009c565b8063114e39001461009e57806347e7ef24146100c757806365d6d088146100e35780636f9fb98a146101225780638172aa0a1461014d5761009c565b3661009c57005b005b3480156100aa57600080fd5b506100c560048036038101906100c09190612232565b61025f565b005b6100e160048036038101906100dc9190612295565b6107d9565b005b3480156100ef57600080fd5b5061010a60048036038101906101059190612313565b610bd8565b6040516101199392919061234f565b60405180910390f35b34801561012e57600080fd5b50610137610cb3565b6040516101449190612386565b60405180910390f35b34801561015957600080fd5b50610174600480360381019061016f9190612313565b610cbb565b6040516101839392919061234f565b60405180910390f35b6101a660048036038101906101a191906124e7565b610d96565b005b6101b0611b11565b005b3480156101be57600080fd5b506101d960048036038101906101d49190612313565b611be8565b6040516101ee99989796959493929190612579565b60405180910390f35b34801561020357600080fd5b5061021e60048036038101906102199190612313565b611c56565b60405161022d9392919061234f565b60405180910390f35b34801561024257600080fd5b5061025d60048036038101906102589190612295565b611d31565b005b8073ffffffffffffffffffffffffffffffffffffffff166108fc479081150290604051600060405180830381858888f193505050501580156102a5573d6000803e3d6000fd5b50600160008273ffffffffffffffffffffffffffffffffffffffff1673ffffffffffffffffffffffffffffffffffffffff16815260200190815260200160002060080154600160008373ffffffffffffffffffffffffffffffffffffffff1673ffffffffffffffffffffffffffffffffffffffff168152602001908152602001600020600101600082825461033a9190612635565b92505081905550600160008273ffffffffffffffffffffffffffffffffffffffff1673ffffffffffffffffffffffffffffffffffffffff16815260200190815260200160002060080154600160008373ffffffffffffffffffffffffffffffffffffffff1673ffffffffffffffffffffffffffffffffffffffff16815260200190815260200160002060050160008282546103d59190612635565b92505081905550600160008273ffffffffffffffffffffffffffffffffffffffff1673ffffffffffffffffffffffffffffffffffffffff168152602001908152602001600020600401600081548092919061042f90612669565b9190505550604051806101200160405280600160008473ffffffffffffffffffffffffffffffffffffffff1673ffffffffffffffffffffffffffffffffffffffff16815260200190815260200160002060000160009054906101000a900473ffffffffffffffffffffffffffffffffffffffff1673ffffffffffffffffffffffffffffffffffffffff168152602001600160008473ffffffffffffffffffffffffffffffffffffffff1673ffffffffffffffffffffffffffffffffffffffff168152602001908152602001600020600101548152602001600160008473ffffffffffffffffffffffffffffffffffffffff1673ffffffffffffffffffffffffffffffffffffffff168152602001908152602001600020600201548152602001600160008473ffffffffffffffffffffffffffffffffffffffff1673ffffffffffffffffffffffffffffffffffffffff168152602001908152602001600020600301548152602001600160008473ffffffffffffffffffffffffffffffffffffffff1673ffffffffffffffffffffffffffffffffffffffff168152602001908152602001600020600401548152602001600160008473ffffffffffffffffffffffffffffffffffffffff1673ffffffffffffffffffffffffffffffffffffffff168152602001908152602001600020600501548152602001600160008473ffffffffffffffffffffffffffffffffffffffff1673ffffffffffffffffffffffffffffffffffffffff168152602001908152602001600020600601548152602001600160008473ffffffffffffffffffffffffffffffffffffffff1673ffffffffffffffffffffffffffffffffffffffff168152602001908152602001600020600701548152602001600160008473ffffffffffffffffffffffffffffffffffffffff1673ffffffffffffffffffffffffffffffffffffffff16815260200190815260200160002060080154815250600160008373ffffffffffffffffffffffffffffffffffffffff1673ffffffffffffffffffffffffffffffffffffffff16815260200190815260200160002060008201518160000160006101000a81548173ffffffffffffffffffffffffffffffffffffffff021916908373ffffffffffffffffffffffffffffffffffffffff1602179055506020820151816001015560408201518160020155606082015181600301556080820151816004015560a0820151816005015560c0820151816006015560e08201518160070155610100820151816008015590505050565b80600160008473ffffffffffffffffffffffffffffffffffffffff1673ffffffffffffffffffffffffffffffffffffffff168152602001908152602001600020600101600082825461082b9190612692565b92505081905550604051806101200160405280600160008573ffffffffffffffffffffffffffffffffffffffff1673ffffffffffffffffffffffffffffffffffffffff16815260200190815260200160002060000160009054906101000a900473ffffffffffffffffffffffffffffffffffffffff1673ffffffffffffffffffffffffffffffffffffffff168152602001600160008573ffffffffffffffffffffffffffffffffffffffff1673ffffffffffffffffffffffffffffffffffffffff168152602001908152602001600020600101548152602001600160008573ffffffffffffffffffffffffffffffffffffffff1673ffffffffffffffffffffffffffffffffffffffff168152602001908152602001600020600201548152602001600160008573ffffffffffffffffffffffffffffffffffffffff1673ffffffffffffffffffffffffffffffffffffffff168152602001908152602001600020600301548152602001600160008573ffffffffffffffffffffffffffffffffffffffff1673ffffffffffffffffffffffffffffffffffffffff168152602001908152602001600020600401548152602001600160008573ffffffffffffffffffffffffffffffffffffffff1673ffffffffffffffffffffffffffffffffffffffff168152602001908152602001600020600501548152602001600160008573ffffffffffffffffffffffffffffffffffffffff1673ffffffffffffffffffffffffffffffffffffffff168152602001908152602001600020600601548152602001600160008573ffffffffffffffffffffffffffffffffffffffff1673ffffffffffffffffffffffffffffffffffffffff168152602001908152602001600020600701548152602001600160008573ffffffffffffffffffffffffffffffffffffffff1673ffffffffffffffffffffffffffffffffffffffff16815260200190815260200160002060080154815250600160008473ffffffffffffffffffffffffffffffffffffffff1673ffffffffffffffffffffffffffffffffffffffff16815260200190815260200160002060008201518160000160006101000a81548173ffffffffffffffffffffffffffffffffffffffff021916908373ffffffffffffffffffffffffffffffffffffffff1602179055506020820151816001015560408201518160020155606082015181600301556080820151816004015560a0820151816005015560c0820151816006015560e0820151816007015561010082015181600801559050505050565b6000806000600160008573ffffffffffffffffffffffffffffffffffffffff1673ffffffffffffffffffffffffffffffffffffffff16815260200190815260200160002060050154600160008673ffffffffffffffffffffffffffffffffffffffff1673ffffffffffffffffffffffffffffffffffffffff16815260200190815260200160002060080154600160008773ffffffffffffffffffffffffffffffffffffffff1673ffffffffffffffffffffffffffffffffffffffff168152602001908152602001600020600401549250925092509193909250565b600047905090565b6000806000600160008573ffffffffffffffffffffffffffffffffffffffff1673ffffffffffffffffffffffffffffffffffffffff16815260200190815260200160002060070154600160008673ffffffffffffffffffffffffffffffffffffffff1673ffffffffffffffffffffffffffffffffffffffff16815260200190815260200160002060080154600160008773ffffffffffffffffffffffffffffffffffffffff1673ffffffffffffffffffffffffffffffffffffffff168152602001908152602001600020600401549250925092509193909250565b8373ffffffffffffffffffffffffffffffffffffffff166108fc849081150290604051600060405180830381858888f19350505050158015610ddc573d6000803e3d6000fd5b5082600160008673ffffffffffffffffffffffffffffffffffffffff1673ffffffffffffffffffffffffffffffffffffffff1681526020019081526020016000206001016000828254610e2f9190612692565b92505081905550604051602001610e459061271d565b6040516020818303038152906040528051906020012081604051602001610e6c9190612798565b604051602081830303815290604052805190602001201480610ed75750604051602001610e98906127fb565b6040516020818303038152906040528051906020012081604051602001610ebf9190612798565b60405160208183030381529060405280519060200120145b80610f2b5750604051602001610eec9061285c565b6040516020818303038152906040528051906020012081604051602001610f139190612798565b60405160208183030381529060405280519060200120145b610f6a576040517f08c379a0000000000000000000000000000000000000000000000000000000008152600401610f61906128ce565b60405180910390fd5b604051602001610f799061271d565b6040516020818303038152906040528051906020012081604051602001610fa09190612798565b60405160208183030381529060405280519060200120036112115760018060008673ffffffffffffffffffffffffffffffffffffffff1673ffffffffffffffffffffffffffffffffffffffff168152602001908152602001600020600501541061103f576040517f08c379a000000000000000000000000000000000000000000000000000000000815260040161103690612960565b60405180910390fd5b60006104b0836008866110529190612980565b61105c9190612980565b61106691906129f1565b905080846110749190612692565b600160008773ffffffffffffffffffffffffffffffffffffffff1673ffffffffffffffffffffffffffffffffffffffff1681526020019081526020016000206005018190555082600160008773ffffffffffffffffffffffffffffffffffffffff1673ffffffffffffffffffffffffffffffffffffffff1681526020019081526020016000206005015461110891906129f1565b600160008773ffffffffffffffffffffffffffffffffffffffff1673ffffffffffffffffffffffffffffffffffffffff1681526020019081526020016000206008018190555082600160008773ffffffffffffffffffffffffffffffffffffffff1673ffffffffffffffffffffffffffffffffffffffff16815260200190815260200160002060040160008282546111a09190612692565b9250508190555080846111b39190612692565b600160008773ffffffffffffffffffffffffffffffffffffffff1673ffffffffffffffffffffffffffffffffffffffff16815260200190815260200160002060020160008282546112049190612692565b9250508190555050611769565b604051602001611220906127fb565b60405160208183030381529060405280519060200120816040516020016112479190612798565b60405160208183030381529060405280519060200120036114be5760018060008673ffffffffffffffffffffffffffffffffffffffff1673ffffffffffffffffffffffffffffffffffffffff16815260200190815260200160002060060154106112e6576040517f08c379a00000000000000000000000000000000000000000000000000000000081526004016112dd90612a94565b60405180910390fd5b60006104b0836006866112f99190612980565b6113039190612980565b61130d91906129f1565b90506000818561131d9190612692565b905080600160008873ffffffffffffffffffffffffffffffffffffffff1673ffffffffffffffffffffffffffffffffffffffff1681526020019081526020016000206006018190555083600160008873ffffffffffffffffffffffffffffffffffffffff1673ffffffffffffffffffffffffffffffffffffffff168152602001908152602001600020600601546113b491906129f1565b600160008873ffffffffffffffffffffffffffffffffffffffff1673ffffffffffffffffffffffffffffffffffffffff1681526020019081526020016000206003018190555083600160008873ffffffffffffffffffffffffffffffffffffffff1673ffffffffffffffffffffffffffffffffffffffff168152602001908152602001600020600401600082825461144c9190612692565b92505081905550818561145f9190612692565b600160008873ffffffffffffffffffffffffffffffffffffffff1673ffffffffffffffffffffffffffffffffffffffff16815260200190815260200160002060020160008282546114b09190612692565b925050819055505050611768565b6040516020016114cd9061285c565b60405160208183030381529060405280519060200120816040516020016114f49190612798565b60405160208183030381529060405280519060200120036117675760018060008673ffffffffffffffffffffffffffffffffffffffff1673ffffffffffffffffffffffffffffffffffffffff1681526020019081526020016000206007015410611593576040517f08c379a000000000000000000000000000000000000000000000000000000000815260040161158a90612b26565b60405180910390fd5b60006104b083600a866115a69190612980565b6115b09190612980565b6115ba91906129f1565b9050600081856115ca9190612692565b905080600160008873ffffffffffffffffffffffffffffffffffffffff1673ffffffffffffffffffffffffffffffffffffffff1681526020019081526020016000206007018190555083600160008873ffffffffffffffffffffffffffffffffffffffff1673ffffffffffffffffffffffffffffffffffffffff1681526020019081526020016000206007015461166191906129f1565b600160008873ffffffffffffffffffffffffffffffffffffffff1673ffffffffffffffffffffffffffffffffffffffff1681526020019081526020016000206003018190555083600160008873ffffffffffffffffffffffffffffffffffffffff1673ffffffffffffffffffffffffffffffffffffffff16815260200190815260200160002060040160008282546116f99190612692565b92505081905550818561170c9190612692565b600160008873ffffffffffffffffffffffffffffffffffffffff1673ffffffffffffffffffffffffffffffffffffffff168152602001908152602001600020600201600082825461175d9190612692565b9250508190555050505b5b5b604051806101200160405280600160008773ffffffffffffffffffffffffffffffffffffffff1673ffffffffffffffffffffffffffffffffffffffff16815260200190815260200160002060000160009054906101000a900473ffffffffffffffffffffffffffffffffffffffff1673ffffffffffffffffffffffffffffffffffffffff168152602001600160008773ffffffffffffffffffffffffffffffffffffffff1673ffffffffffffffffffffffffffffffffffffffff168152602001908152602001600020600101548152602001600160008773ffffffffffffffffffffffffffffffffffffffff1673ffffffffffffffffffffffffffffffffffffffff168152602001908152602001600020600201548152602001600160008773ffffffffffffffffffffffffffffffffffffffff1673ffffffffffffffffffffffffffffffffffffffff168152602001908152602001600020600301548152602001600160008773ffffffffffffffffffffffffffffffffffffffff1673ffffffffffffffffffffffffffffffffffffffff168152602001908152602001600020600401548152602001600160008773ffffffffffffffffffffffffffffffffffffffff1673ffffffffffffffffffffffffffffffffffffffff168152602001908152602001600020600501548152602001600160008773ffffffffffffffffffffffffffffffffffffffff1673ffffffffffffffffffffffffffffffffffffffff168152602001908152602001600020600601548152602001600160008773ffffffffffffffffffffffffffffffffffffffff1673ffffffffffffffffffffffffffffffffffffffff168152602001908152602001600020600701548152602001600160008773ffffffffffffffffffffffffffffffffffffffff1673ffffffffffffffffffffffffffffffffffffffff16815260200190815260200160002060080154815250600160008673ffffffffffffffffffffffffffffffffffffffff1673ffffffffffffffffffffffffffffffffffffffff16815260200190815260200160002060008201518160000160006101000a81548173ffffffffffffffffffffffffffffffffffffffff021916908373ffffffffffffffffffffffffffffffffffffffff1602179055506020820151816001015560408201518160020155606082015181600301556080820151816004015560a0820151816005015560c0820151816006015560e08201518160070155610100820151816008015590505050505050565b60008054906101000a900473ffffffffffffffffffffffffffffffffffffffff1673ffffffffffffffffffffffffffffffffffffffff163373ffffffffffffffffffffffffffffffffffffffff1614611b9f576040517f08c379a0000000000000000000000000000000000000000000000000000000008152600401611b9690612bb8565b60405180910390fd5b3073ffffffffffffffffffffffffffffffffffffffff166108fc349081150290604051600060405180830381858888f19350505050158015611be5573d6000803e3d6000fd5b50565b60016020528060005260406000206000915090508060000160009054906101000a900473ffffffffffffffffffffffffffffffffffffffff16908060010154908060020154908060030154908060040154908060050154908060060154908060070154908060080154905089565b6000806000600160008573ffffffffffffffffffffffffffffffffffffffff1673ffffffffffffffffffffffffffffffffffffffff16815260200190815260200160002060060154600160008673ffffffffffffffffffffffffffffffffffffffff1673ffffffffffffffffffffffffffffffffffffffff16815260200190815260200160002060080154600160008773ffffffffffffffffffffffffffffffffffffffff1673ffffffffffffffffffffffffffffffffffffffff168152602001908152602001600020600401549250925092509193909250565b600081118015611d825750600160008373ffffffffffffffffffffffffffffffffffffffff1673ffffffffffffffffffffffffffffffffffffffff1681526020019081526020016000206001015481105b611dc1576040517f08c379a0000000000000000000000000000000000000000000000000000000008152600401611db890612c24565b60405180910390fd5b80600160008473ffffffffffffffffffffffffffffffffffffffff1673ffffffffffffffffffffffffffffffffffffffff1681526020019081526020016000206001016000828254611e139190612635565b92505081905550604051806101200160405280600160008573ffffffffffffffffffffffffffffffffffffffff1673ffffffffffffffffffffffffffffffffffffffff16815260200190815260200160002060000160009054906101000a900473ffffffffffffffffffffffffffffffffffffffff1673ffffffffffffffffffffffffffffffffffffffff168152602001600160008573ffffffffffffffffffffffffffffffffffffffff1673ffffffffffffffffffffffffffffffffffffffff168152602001908152602001600020600101548152602001600160008573ffffffffffffffffffffffffffffffffffffffff1673ffffffffffffffffffffffffffffffffffffffff168152602001908152602001600020600201548152602001600160008573ffffffffffffffffffffffffffffffffffffffff1673ffffffffffffffffffffffffffffffffffffffff168152602001908152602001600020600301548152602001600160008573ffffffffffffffffffffffffffffffffffffffff1673ffffffffffffffffffffffffffffffffffffffff168152602001908152602001600020600401548152602001600160008573ffffffffffffffffffffffffffffffffffffffff1673ffffffffffffffffffffffffffffffffffffffff168152602001908152602001600020600501548152602001600160008573ffffffffffffffffffffffffffffffffffffffff1673ffffffffffffffffffffffffffffffffffffffff168152602001908152602001600020600601548152602001600160008573ffffffffffffffffffffffffffffffffffffffff1673ffffffffffffffffffffffffffffffffffffffff168152602001908152602001600020600701548152602001600160008573ffffffffffffffffffffffffffffffffffffffff1673ffffffffffffffffffffffffffffffffffffffff16815260200190815260200160002060080154815250600160008473ffffffffffffffffffffffffffffffffffffffff1673ffffffffffffffffffffffffffffffffffffffff16815260200190815260200160002060008201518160000160006101000a81548173ffffffffffffffffffffffffffffffffffffffff021916908373ffffffffffffffffffffffffffffffffffffffff1602179055506020820151816001015560408201518160020155606082015181600301556080820151816004015560a0820151816005015560c0820151816006015560e0820151816007015561010082015181600801559050505050565b6000604051905090565b600080fd5b600080fd5b600073ffffffffffffffffffffffffffffffffffffffff82169050919050565b60006121ff826121d4565b9050919050565b61220f816121f4565b811461221a57600080fd5b50565b60008135905061222c81612206565b92915050565b600060208284031215612248576122476121ca565b5b60006122568482850161221d565b91505092915050565b6000819050919050565b6122728161225f565b811461227d57600080fd5b50565b60008135905061228f81612269565b92915050565b600080604083850312156122ac576122ab6121ca565b5b60006122ba8582860161221d565b92505060206122cb85828601612280565b9150509250929050565b60006122e0826121d4565b9050919050565b6122f0816122d5565b81146122fb57600080fd5b50565b60008135905061230d816122e7565b92915050565b600060208284031215612329576123286121ca565b5b6000612337848285016122fe565b91505092915050565b6123498161225f565b82525050565b60006060820190506123646000830186612340565b6123716020830185612340565b61237e6040830184612340565b949350505050565b600060208201905061239b6000830184612340565b92915050565b600080fd5b600080fd5b6000601f19601f8301169050919050565b7f4e487b7100000000000000000000000000000000000000000000000000000000600052604160045260246000fd5b6123f4826123ab565b810181811067ffffffffffffffff82111715612413576124126123bc565b5b80604052505050565b60006124266121c0565b905061243282826123eb565b919050565b600067ffffffffffffffff821115612452576124516123bc565b5b61245b826123ab565b9050602081019050919050565b82818337600083830152505050565b600061248a61248584612437565b61241c565b9050828152602081018484840111156124a6576124a56123a6565b5b6124b1848285612468565b509392505050565b600082601f8301126124ce576124cd6123a1565b5b81356124de848260208601612477565b91505092915050565b60008060008060808587031215612501576125006121ca565b5b600061250f8782880161221d565b945050602061252087828801612280565b935050604061253187828801612280565b925050606085013567ffffffffffffffff811115612552576125516121cf565b5b61255e878288016124b9565b91505092959194509250565b612573816122d5565b82525050565b60006101208201905061258f600083018c61256a565b61259c602083018b612340565b6125a9604083018a612340565b6125b66060830189612340565b6125c36080830188612340565b6125d060a0830187612340565b6125dd60c0830186612340565b6125ea60e0830185612340565b6125f8610100830184612340565b9a9950505050505050505050565b7f4e487b7100000000000000000000000000000000000000000000000000000000600052601160045260246000fd5b60006126408261225f565b915061264b8361225f565b925082820390508181111561266357612662612606565b5b92915050565b60006126748261225f565b91506000820361268757612686612606565b5b600182039050919050565b600061269d8261225f565b91506126a88361225f565b92508282019050808211156126c0576126bf612606565b5b92915050565b600081905092915050565b7f6361720000000000000000000000000000000000000000000000000000000000600082015250565b60006127076003836126c6565b9150612712826126d1565b600382019050919050565b6000612728826126fa565b9150819050919050565b600081519050919050565b60005b8381101561275b578082015181840152602081019050612740565b60008484015250505050565b600061277282612732565b61277c81856126c6565b935061278c81856020860161273d565b80840191505092915050565b60006127a48284612767565b915081905092915050565b7f686f6d6500000000000000000000000000000000000000000000000000000000600082015250565b60006127e56004836126c6565b91506127f0826127af565b600482019050919050565b6000612806826127d8565b9150819050919050565b7f706572736f6e616c000000000000000000000000000000000000000000000000600082015250565b60006128466008836126c6565b915061285182612810565b600882019050919050565b600061286782612839565b9150819050919050565b600082825260208201905092915050565b7f696e76616c6964206c6f616e2074797065000000000000000000000000000000600082015250565b60006128b8601183612871565b91506128c382612882565b602082019050919050565b600060208201905081810360008301526128e7816128ab565b9050919050565b7f796f752068617665206f6e6520636172206c6f616e2120796f752063616e277460008201527f2074616b6520616e6f7468657221000000000000000000000000000000000000602082015250565b600061294a602e83612871565b9150612955826128ee565b604082019050919050565b600060208201905081810360008301526129798161293d565b9050919050565b600061298b8261225f565b91506129968361225f565b92508282026129a48161225f565b915082820484148315176129bb576129ba612606565b5b5092915050565b7f4e487b7100000000000000000000000000000000000000000000000000000000600052601260045260246000fd5b60006129fc8261225f565b9150612a078361225f565b925082612a1757612a166129c2565b5b828204905092915050565b7f796f75206861766520616c7265616479206f6e6520686f6d65206c6f616e212060008201527f796f752063616e27742074616b6520616e6f7468657221000000000000000000602082015250565b6000612a7e603783612871565b9150612a8982612a22565b604082019050919050565b60006020820190508181036000830152612aad81612a71565b9050919050565b7f796f752068617665206f6e6520706572736f6e616c206c6f616e2120796f752060008201527f63616e27742074616b6520616e6f746865722100000000000000000000000000602082015250565b6000612b10603383612871565b9150612b1b82612ab4565b604082019050919050565b60006020820190508181036000830152612b3f81612b03565b9050919050565b7f596f75277265206e6f742074686520736d61727420636f6e747261637420616460008201527f6d696e2100000000000000000000000000000000000000000000000000000000602082015250565b6000612ba2602483612871565b9150612bad82612b46565b604082019050919050565b60006020820190508181036000830152612bd181612b95565b9050919050565b7f696e76616c696420616d6f756e74000000000000000000000000000000000000600082015250565b6000612c0e600e83612871565b9150612c1982612bd8565b602082019050919050565b60006020820190508181036000830152612c3d81612c01565b905091905056fea26469706673582212205300435587f2caeb0dd76ae011ed9e74dd0772fbc9a236a0e62e8a803037859b64736f6c63430008120033",
					"opcodes": "PUSH1 0x80 PUSH1 0x40 MSTORE CALLVALUE DUP1 ISZERO PUSH2 0x10 JUMPI PUSH1 0x0 DUP1 REVERT JUMPDEST POP CALLER PUSH1 0x0 DUP1 PUSH2 0x100 EXP DUP2 SLOAD DUP2 PUSH20 0xFFFFFFFFFFFFFFFFFFFFFFFFFFFFFFFFFFFFFFFF MUL NOT AND SWAP1 DUP4 PUSH20 0xFFFFFFFFFFFFFFFFFFFFFFFFFFFFFFFFFFFFFFFF AND MUL OR SWAP1 SSTORE POP PUSH2 0x2C7A DUP1 PUSH2 0x60 PUSH1 0x0 CODECOPY PUSH1 0x0 RETURN INVALID PUSH1 0x80 PUSH1 0x40 MSTORE PUSH1 0x4 CALLDATASIZE LT PUSH2 0x95 JUMPI PUSH1 0x0 CALLDATALOAD PUSH1 0xE0 SHR DUP1 PUSH4 0x9283EA63 GT PUSH2 0x59 JUMPI DUP1 PUSH4 0x9283EA63 EQ PUSH2 0x18C JUMPI DUP1 PUSH4 0xA2F09DFA EQ PUSH2 0x1A8 JUMPI DUP1 PUSH4 0xA87430BA EQ PUSH2 0x1B2 JUMPI DUP1 PUSH4 0xD77799A5 EQ PUSH2 0x1F7 JUMPI DUP1 PUSH4 0xF3FEF3A3 EQ PUSH2 0x236 JUMPI PUSH2 0x9C JUMP JUMPDEST DUP1 PUSH4 0x114E3900 EQ PUSH2 0x9E JUMPI DUP1 PUSH4 0x47E7EF24 EQ PUSH2 0xC7 JUMPI DUP1 PUSH4 0x65D6D088 EQ PUSH2 0xE3 JUMPI DUP1 PUSH4 0x6F9FB98A EQ PUSH2 0x122 JUMPI DUP1 PUSH4 0x8172AA0A EQ PUSH2 0x14D JUMPI PUSH2 0x9C JUMP JUMPDEST CALLDATASIZE PUSH2 0x9C JUMPI STOP JUMPDEST STOP JUMPDEST CALLVALUE DUP1 ISZERO PUSH2 0xAA JUMPI PUSH1 0x0 DUP1 REVERT JUMPDEST POP PUSH2 0xC5 PUSH1 0x4 DUP1 CALLDATASIZE SUB DUP2 ADD SWAP1 PUSH2 0xC0 SWAP2 SWAP1 PUSH2 0x2232 JUMP JUMPDEST PUSH2 0x25F JUMP JUMPDEST STOP JUMPDEST PUSH2 0xE1 PUSH1 0x4 DUP1 CALLDATASIZE SUB DUP2 ADD SWAP1 PUSH2 0xDC SWAP2 SWAP1 PUSH2 0x2295 JUMP JUMPDEST PUSH2 0x7D9 JUMP JUMPDEST STOP JUMPDEST CALLVALUE DUP1 ISZERO PUSH2 0xEF JUMPI PUSH1 0x0 DUP1 REVERT JUMPDEST POP PUSH2 0x10A PUSH1 0x4 DUP1 CALLDATASIZE SUB DUP2 ADD SWAP1 PUSH2 0x105 SWAP2 SWAP1 PUSH2 0x2313 JUMP JUMPDEST PUSH2 0xBD8 JUMP JUMPDEST PUSH1 0x40 MLOAD PUSH2 0x119 SWAP4 SWAP3 SWAP2 SWAP1 PUSH2 0x234F JUMP JUMPDEST PUSH1 0x40 MLOAD DUP1 SWAP2 SUB SWAP1 RETURN JUMPDEST CALLVALUE DUP1 ISZERO PUSH2 0x12E JUMPI PUSH1 0x0 DUP1 REVERT JUMPDEST POP PUSH2 0x137 PUSH2 0xCB3 JUMP JUMPDEST PUSH1 0x40 MLOAD PUSH2 0x144 SWAP2 SWAP1 PUSH2 0x2386 JUMP JUMPDEST PUSH1 0x40 MLOAD DUP1 SWAP2 SUB SWAP1 RETURN JUMPDEST CALLVALUE DUP1 ISZERO PUSH2 0x159 JUMPI PUSH1 0x0 DUP1 REVERT JUMPDEST POP PUSH2 0x174 PUSH1 0x4 DUP1 CALLDATASIZE SUB DUP2 ADD SWAP1 PUSH2 0x16F SWAP2 SWAP1 PUSH2 0x2313 JUMP JUMPDEST PUSH2 0xCBB JUMP JUMPDEST PUSH1 0x40 MLOAD PUSH2 0x183 SWAP4 SWAP3 SWAP2 SWAP1 PUSH2 0x234F JUMP JUMPDEST PUSH1 0x40 MLOAD DUP1 SWAP2 SUB SWAP1 RETURN JUMPDEST PUSH2 0x1A6 PUSH1 0x4 DUP1 CALLDATASIZE SUB DUP2 ADD SWAP1 PUSH2 0x1A1 SWAP2 SWAP1 PUSH2 0x24E7 JUMP JUMPDEST PUSH2 0xD96 JUMP JUMPDEST STOP JUMPDEST PUSH2 0x1B0 PUSH2 0x1B11 JUMP JUMPDEST STOP JUMPDEST CALLVALUE DUP1 ISZERO PUSH2 0x1BE JUMPI PUSH1 0x0 DUP1 REVERT JUMPDEST POP PUSH2 0x1D9 PUSH1 0x4 DUP1 CALLDATASIZE SUB DUP2 ADD SWAP1 PUSH2 0x1D4 SWAP2 SWAP1 PUSH2 0x2313 JUMP JUMPDEST PUSH2 0x1BE8 JUMP JUMPDEST PUSH1 0x40 MLOAD PUSH2 0x1EE SWAP10 SWAP9 SWAP8 SWAP7 SWAP6 SWAP5 SWAP4 SWAP3 SWAP2 SWAP1 PUSH2 0x2579 JUMP JUMPDEST PUSH1 0x40 MLOAD DUP1 SWAP2 SUB SWAP1 RETURN JUMPDEST CALLVALUE DUP1 ISZERO PUSH2 0x203 JUMPI PUSH1 0x0 DUP1 REVERT JUMPDEST POP PUSH2 0x21E PUSH1 0x4 DUP1 CALLDATASIZE SUB DUP2 ADD SWAP1 PUSH2 0x219 SWAP2 SWAP1 PUSH2 0x2313 JUMP JUMPDEST PUSH2 0x1C56 JUMP JUMPDEST PUSH1 0x40 MLOAD PUSH2 0x22D SWAP4 SWAP3 SWAP2 SWAP1 PUSH2 0x234F JUMP JUMPDEST PUSH1 0x40 MLOAD DUP1 SWAP2 SUB SWAP1 RETURN JUMPDEST CALLVALUE DUP1 ISZERO PUSH2 0x242 JUMPI PUSH1 0x0 DUP1 REVERT JUMPDEST POP PUSH2 0x25D PUSH1 0x4 DUP1 CALLDATASIZE SUB DUP2 ADD SWAP1 PUSH2 0x258 SWAP2 SWAP1 PUSH2 0x2295 JUMP JUMPDEST PUSH2 0x1D31 JUMP JUMPDEST STOP JUMPDEST DUP1 PUSH20 0xFFFFFFFFFFFFFFFFFFFFFFFFFFFFFFFFFFFFFFFF AND PUSH2 0x8FC SELFBALANCE SWAP1 DUP2 ISZERO MUL SWAP1 PUSH1 0x40 MLOAD PUSH1 0x0 PUSH1 0x40 MLOAD DUP1 DUP4 SUB DUP2 DUP6 DUP9 DUP9 CALL SWAP4 POP POP POP POP ISZERO DUP1 ISZERO PUSH2 0x2A5 JUMPI RETURNDATASIZE PUSH1 0x0 DUP1 RETURNDATACOPY RETURNDATASIZE PUSH1 0x0 REVERT JUMPDEST POP PUSH1 0x1 PUSH1 0x0 DUP3 PUSH20 0xFFFFFFFFFFFFFFFFFFFFFFFFFFFFFFFFFFFFFFFF AND PUSH20 0xFFFFFFFFFFFFFFFFFFFFFFFFFFFFFFFFFFFFFFFF AND DUP2 MSTORE PUSH1 0x20 ADD SWAP1 DUP2 MSTORE PUSH1 0x20 ADD PUSH1 0x0 KECCAK256 PUSH1 0x8 ADD SLOAD PUSH1 0x1 PUSH1 0x0 DUP4 PUSH20 0xFFFFFFFFFFFFFFFFFFFFFFFFFFFFFFFFFFFFFFFF AND PUSH20 0xFFFFFFFFFFFFFFFFFFFFFFFFFFFFFFFFFFFFFFFF AND DUP2 MSTORE PUSH1 0x20 ADD SWAP1 DUP2 MSTORE PUSH1 0x20 ADD PUSH1 0x0 KECCAK256 PUSH1 0x1 ADD PUSH1 0x0 DUP3 DUP3 SLOAD PUSH2 0x33A SWAP2 SWAP1 PUSH2 0x2635 JUMP JUMPDEST SWAP3 POP POP DUP2 SWAP1 SSTORE POP PUSH1 0x1 PUSH1 0x0 DUP3 PUSH20 0xFFFFFFFFFFFFFFFFFFFFFFFFFFFFFFFFFFFFFFFF AND PUSH20 0xFFFFFFFFFFFFFFFFFFFFFFFFFFFFFFFFFFFFFFFF AND DUP2 MSTORE PUSH1 0x20 ADD SWAP1 DUP2 MSTORE PUSH1 0x20 ADD PUSH1 0x0 KECCAK256 PUSH1 0x8 ADD SLOAD PUSH1 0x1 PUSH1 0x0 DUP4 PUSH20 0xFFFFFFFFFFFFFFFFFFFFFFFFFFFFFFFFFFFFFFFF AND PUSH20 0xFFFFFFFFFFFFFFFFFFFFFFFFFFFFFFFFFFFFFFFF AND DUP2 MSTORE PUSH1 0x20 ADD SWAP1 DUP2 MSTORE PUSH1 0x20 ADD PUSH1 0x0 KECCAK256 PUSH1 0x5 ADD PUSH1 0x0 DUP3 DUP3 SLOAD PUSH2 0x3D5 SWAP2 SWAP1 PUSH2 0x2635 JUMP JUMPDEST SWAP3 POP POP DUP2 SWAP1 SSTORE POP PUSH1 0x1 PUSH1 0x0 DUP3 PUSH20 0xFFFFFFFFFFFFFFFFFFFFFFFFFFFFFFFFFFFFFFFF AND PUSH20 0xFFFFFFFFFFFFFFFFFFFFFFFFFFFFFFFFFFFFFFFF AND DUP2 MSTORE PUSH1 0x20 ADD SWAP1 DUP2 MSTORE PUSH1 0x20 ADD PUSH1 0x0 KECCAK256 PUSH1 0x4 ADD PUSH1 0x0 DUP2 SLOAD DUP1 SWAP3 SWAP2 SWAP1 PUSH2 0x42F SWAP1 PUSH2 0x2669 JUMP JUMPDEST SWAP2 SWAP1 POP SSTORE POP PUSH1 0x40 MLOAD DUP1 PUSH2 0x120 ADD PUSH1 0x40 MSTORE DUP1 PUSH1 0x1 PUSH1 0x0 DUP5 PUSH20 0xFFFFFFFFFFFFFFFFFFFFFFFFFFFFFFFFFFFFFFFF AND PUSH20 0xFFFFFFFFFFFFFFFFFFFFFFFFFFFFFFFFFFFFFFFF AND DUP2 MSTORE PUSH1 0x20 ADD SWAP1 DUP2 MSTORE PUSH1 0x20 ADD PUSH1 0x0 KECCAK256 PUSH1 0x0 ADD PUSH1 0x0 SWAP1 SLOAD SWAP1 PUSH2 0x100 EXP SWAP1 DIV PUSH20 0xFFFFFFFFFFFFFFFFFFFFFFFFFFFFFFFFFFFFFFFF AND PUSH20 0xFFFFFFFFFFFFFFFFFFFFFFFFFFFFFFFFFFFFFFFF AND DUP2 MSTORE PUSH1 0x20 ADD PUSH1 0x1 PUSH1 0x0 DUP5 PUSH20 0xFFFFFFFFFFFFFFFFFFFFFFFFFFFFFFFFFFFFFFFF AND PUSH20 0xFFFFFFFFFFFFFFFFFFFFFFFFFFFFFFFFFFFFFFFF AND DUP2 MSTORE PUSH1 0x20 ADD SWAP1 DUP2 MSTORE PUSH1 0x20 ADD PUSH1 0x0 KECCAK256 PUSH1 0x1 ADD SLOAD DUP2 MSTORE PUSH1 0x20 ADD PUSH1 0x1 PUSH1 0x0 DUP5 PUSH20 0xFFFFFFFFFFFFFFFFFFFFFFFFFFFFFFFFFFFFFFFF AND PUSH20 0xFFFFFFFFFFFFFFFFFFFFFFFFFFFFFFFFFFFFFFFF AND DUP2 MSTORE PUSH1 0x20 ADD SWAP1 DUP2 MSTORE PUSH1 0x20 ADD PUSH1 0x0 KECCAK256 PUSH1 0x2 ADD SLOAD DUP2 MSTORE PUSH1 0x20 ADD PUSH1 0x1 PUSH1 0x0 DUP5 PUSH20 0xFFFFFFFFFFFFFFFFFFFFFFFFFFFFFFFFFFFFFFFF AND PUSH20 0xFFFFFFFFFFFFFFFFFFFFFFFFFFFFFFFFFFFFFFFF AND DUP2 MSTORE PUSH1 0x20 ADD SWAP1 DUP2 MSTORE PUSH1 0x20 ADD PUSH1 0x0 KECCAK256 PUSH1 0x3 ADD SLOAD DUP2 MSTORE PUSH1 0x20 ADD PUSH1 0x1 PUSH1 0x0 DUP5 PUSH20 0xFFFFFFFFFFFFFFFFFFFFFFFFFFFFFFFFFFFFFFFF AND PUSH20 0xFFFFFFFFFFFFFFFFFFFFFFFFFFFFFFFFFFFFFFFF AND DUP2 MSTORE PUSH1 0x20 ADD SWAP1 DUP2 MSTORE PUSH1 0x20 ADD PUSH1 0x0 KECCAK256 PUSH1 0x4 ADD SLOAD DUP2 MSTORE PUSH1 0x20 ADD PUSH1 0x1 PUSH1 0x0 DUP5 PUSH20 0xFFFFFFFFFFFFFFFFFFFFFFFFFFFFFFFFFFFFFFFF AND PUSH20 0xFFFFFFFFFFFFFFFFFFFFFFFFFFFFFFFFFFFFFFFF AND DUP2 MSTORE PUSH1 0x20 ADD SWAP1 DUP2 MSTORE PUSH1 0x20 ADD PUSH1 0x0 KECCAK256 PUSH1 0x5 ADD SLOAD DUP2 MSTORE PUSH1 0x20 ADD PUSH1 0x1 PUSH1 0x0 DUP5 PUSH20 0xFFFFFFFFFFFFFFFFFFFFFFFFFFFFFFFFFFFFFFFF AND PUSH20 0xFFFFFFFFFFFFFFFFFFFFFFFFFFFFFFFFFFFFFFFF AND DUP2 MSTORE PUSH1 0x20 ADD SWAP1 DUP2 MSTORE PUSH1 0x20 ADD PUSH1 0x0 KECCAK256 PUSH1 0x6 ADD SLOAD DUP2 MSTORE PUSH1 0x20 ADD PUSH1 0x1 PUSH1 0x0 DUP5 PUSH20 0xFFFFFFFFFFFFFFFFFFFFFFFFFFFFFFFFFFFFFFFF AND PUSH20 0xFFFFFFFFFFFFFFFFFFFFFFFFFFFFFFFFFFFFFFFF AND DUP2 MSTORE PUSH1 0x20 ADD SWAP1 DUP2 MSTORE PUSH1 0x20 ADD PUSH1 0x0 KECCAK256 PUSH1 0x7 ADD SLOAD DUP2 MSTORE PUSH1 0x20 ADD PUSH1 0x1 PUSH1 0x0 DUP5 PUSH20 0xFFFFFFFFFFFFFFFFFFFFFFFFFFFFFFFFFFFFFFFF AND PUSH20 0xFFFFFFFFFFFFFFFFFFFFFFFFFFFFFFFFFFFFFFFF AND DUP2 MSTORE PUSH1 0x20 ADD SWAP1 DUP2 MSTORE PUSH1 0x20 ADD PUSH1 0x0 KECCAK256 PUSH1 0x8 ADD SLOAD DUP2 MSTORE POP PUSH1 0x1 PUSH1 0x0 DUP4 PUSH20 0xFFFFFFFFFFFFFFFFFFFFFFFFFFFFFFFFFFFFFFFF AND PUSH20 0xFFFFFFFFFFFFFFFFFFFFFFFFFFFFFFFFFFFFFFFF AND DUP2 MSTORE PUSH1 0x20 ADD SWAP1 DUP2 MSTORE PUSH1 0x20 ADD PUSH1 0x0 KECCAK256 PUSH1 0x0 DUP3 ADD MLOAD DUP2 PUSH1 0x0 ADD PUSH1 0x0 PUSH2 0x100 EXP DUP2 SLOAD DUP2 PUSH20 0xFFFFFFFFFFFFFFFFFFFFFFFFFFFFFFFFFFFFFFFF MUL NOT AND SWAP1 DUP4 PUSH20 0xFFFFFFFFFFFFFFFFFFFFFFFFFFFFFFFFFFFFFFFF AND MUL OR SWAP1 SSTORE POP PUSH1 0x20 DUP3 ADD MLOAD DUP2 PUSH1 0x1 ADD SSTORE PUSH1 0x40 DUP3 ADD MLOAD DUP2 PUSH1 0x2 ADD SSTORE PUSH1 0x60 DUP3 ADD MLOAD DUP2 PUSH1 0x3 ADD SSTORE PUSH1 0x80 DUP3 ADD MLOAD DUP2 PUSH1 0x4 ADD SSTORE PUSH1 0xA0 DUP3 ADD MLOAD DUP2 PUSH1 0x5 ADD SSTORE PUSH1 0xC0 DUP3 ADD MLOAD DUP2 PUSH1 0x6 ADD SSTORE PUSH1 0xE0 DUP3 ADD MLOAD DUP2 PUSH1 0x7 ADD SSTORE PUSH2 0x100 DUP3 ADD MLOAD DUP2 PUSH1 0x8 ADD SSTORE SWAP1 POP POP POP JUMP JUMPDEST DUP1 PUSH1 0x1 PUSH1 0x0 DUP5 PUSH20 0xFFFFFFFFFFFFFFFFFFFFFFFFFFFFFFFFFFFFFFFF AND PUSH20 0xFFFFFFFFFFFFFFFFFFFFFFFFFFFFFFFFFFFFFFFF AND DUP2 MSTORE PUSH1 0x20 ADD SWAP1 DUP2 MSTORE PUSH1 0x20 ADD PUSH1 0x0 KECCAK256 PUSH1 0x1 ADD PUSH1 0x0 DUP3 DUP3 SLOAD PUSH2 0x82B SWAP2 SWAP1 PUSH2 0x2692 JUMP JUMPDEST SWAP3 POP POP DUP2 SWAP1 SSTORE POP PUSH1 0x40 MLOAD DUP1 PUSH2 0x120 ADD PUSH1 0x40 MSTORE DUP1 PUSH1 0x1 PUSH1 0x0 DUP6 PUSH20 0xFFFFFFFFFFFFFFFFFFFFFFFFFFFFFFFFFFFFFFFF AND PUSH20 0xFFFFFFFFFFFFFFFFFFFFFFFFFFFFFFFFFFFFFFFF AND DUP2 MSTORE PUSH1 0x20 ADD SWAP1 DUP2 MSTORE PUSH1 0x20 ADD PUSH1 0x0 KECCAK256 PUSH1 0x0 ADD PUSH1 0x0 SWAP1 SLOAD SWAP1 PUSH2 0x100 EXP SWAP1 DIV PUSH20 0xFFFFFFFFFFFFFFFFFFFFFFFFFFFFFFFFFFFFFFFF AND PUSH20 0xFFFFFFFFFFFFFFFFFFFFFFFFFFFFFFFFFFFFFFFF AND DUP2 MSTORE PUSH1 0x20 ADD PUSH1 0x1 PUSH1 0x0 DUP6 PUSH20 0xFFFFFFFFFFFFFFFFFFFFFFFFFFFFFFFFFFFFFFFF AND PUSH20 0xFFFFFFFFFFFFFFFFFFFFFFFFFFFFFFFFFFFFFFFF AND DUP2 MSTORE PUSH1 0x20 ADD SWAP1 DUP2 MSTORE PUSH1 0x20 ADD PUSH1 0x0 KECCAK256 PUSH1 0x1 ADD SLOAD DUP2 MSTORE PUSH1 0x20 ADD PUSH1 0x1 PUSH1 0x0 DUP6 PUSH20 0xFFFFFFFFFFFFFFFFFFFFFFFFFFFFFFFFFFFFFFFF AND PUSH20 0xFFFFFFFFFFFFFFFFFFFFFFFFFFFFFFFFFFFFFFFF AND DUP2 MSTORE PUSH1 0x20 ADD SWAP1 DUP2 MSTORE PUSH1 0x20 ADD PUSH1 0x0 KECCAK256 PUSH1 0x2 ADD SLOAD DUP2 MSTORE PUSH1 0x20 ADD PUSH1 0x1 PUSH1 0x0 DUP6 PUSH20 0xFFFFFFFFFFFFFFFFFFFFFFFFFFFFFFFFFFFFFFFF AND PUSH20 0xFFFFFFFFFFFFFFFFFFFFFFFFFFFFFFFFFFFFFFFF AND DUP2 MSTORE PUSH1 0x20 ADD SWAP1 DUP2 MSTORE PUSH1 0x20 ADD PUSH1 0x0 KECCAK256 PUSH1 0x3 ADD SLOAD DUP2 MSTORE PUSH1 0x20 ADD PUSH1 0x1 PUSH1 0x0 DUP6 PUSH20 0xFFFFFFFFFFFFFFFFFFFFFFFFFFFFFFFFFFFFFFFF AND PUSH20 0xFFFFFFFFFFFFFFFFFFFFFFFFFFFFFFFFFFFFFFFF AND DUP2 MSTORE PUSH1 0x20 ADD SWAP1 DUP2 MSTORE PUSH1 0x20 ADD PUSH1 0x0 KECCAK256 PUSH1 0x4 ADD SLOAD DUP2 MSTORE PUSH1 0x20 ADD PUSH1 0x1 PUSH1 0x0 DUP6 PUSH20 0xFFFFFFFFFFFFFFFFFFFFFFFFFFFFFFFFFFFFFFFF AND PUSH20 0xFFFFFFFFFFFFFFFFFFFFFFFFFFFFFFFFFFFFFFFF AND DUP2 MSTORE PUSH1 0x20 ADD SWAP1 DUP2 MSTORE PUSH1 0x20 ADD PUSH1 0x0 KECCAK256 PUSH1 0x5 ADD SLOAD DUP2 MSTORE PUSH1 0x20 ADD PUSH1 0x1 PUSH1 0x0 DUP6 PUSH20 0xFFFFFFFFFFFFFFFFFFFFFFFFFFFFFFFFFFFFFFFF AND PUSH20 0xFFFFFFFFFFFFFFFFFFFFFFFFFFFFFFFFFFFFFFFF AND DUP2 MSTORE PUSH1 0x20 ADD SWAP1 DUP2 MSTORE PUSH1 0x20 ADD PUSH1 0x0 KECCAK256 PUSH1 0x6 ADD SLOAD DUP2 MSTORE PUSH1 0x20 ADD PUSH1 0x1 PUSH1 0x0 DUP6 PUSH20 0xFFFFFFFFFFFFFFFFFFFFFFFFFFFFFFFFFFFFFFFF AND PUSH20 0xFFFFFFFFFFFFFFFFFFFFFFFFFFFFFFFFFFFFFFFF AND DUP2 MSTORE PUSH1 0x20 ADD SWAP1 DUP2 MSTORE PUSH1 0x20 ADD PUSH1 0x0 KECCAK256 PUSH1 0x7 ADD SLOAD DUP2 MSTORE PUSH1 0x20 ADD PUSH1 0x1 PUSH1 0x0 DUP6 PUSH20 0xFFFFFFFFFFFFFFFFFFFFFFFFFFFFFFFFFFFFFFFF AND PUSH20 0xFFFFFFFFFFFFFFFFFFFFFFFFFFFFFFFFFFFFFFFF AND DUP2 MSTORE PUSH1 0x20 ADD SWAP1 DUP2 MSTORE PUSH1 0x20 ADD PUSH1 0x0 KECCAK256 PUSH1 0x8 ADD SLOAD DUP2 MSTORE POP PUSH1 0x1 PUSH1 0x0 DUP5 PUSH20 0xFFFFFFFFFFFFFFFFFFFFFFFFFFFFFFFFFFFFFFFF AND PUSH20 0xFFFFFFFFFFFFFFFFFFFFFFFFFFFFFFFFFFFFFFFF AND DUP2 MSTORE PUSH1 0x20 ADD SWAP1 DUP2 MSTORE PUSH1 0x20 ADD PUSH1 0x0 KECCAK256 PUSH1 0x0 DUP3 ADD MLOAD DUP2 PUSH1 0x0 ADD PUSH1 0x0 PUSH2 0x100 EXP DUP2 SLOAD DUP2 PUSH20 0xFFFFFFFFFFFFFFFFFFFFFFFFFFFFFFFFFFFFFFFF MUL NOT AND SWAP1 DUP4 PUSH20 0xFFFFFFFFFFFFFFFFFFFFFFFFFFFFFFFFFFFFFFFF AND MUL OR SWAP1 SSTORE POP PUSH1 0x20 DUP3 ADD MLOAD DUP2 PUSH1 0x1 ADD SSTORE PUSH1 0x40 DUP3 ADD MLOAD DUP2 PUSH1 0x2 ADD SSTORE PUSH1 0x60 DUP3 ADD MLOAD DUP2 PUSH1 0x3 ADD SSTORE PUSH1 0x80 DUP3 ADD MLOAD DUP2 PUSH1 0x4 ADD SSTORE PUSH1 0xA0 DUP3 ADD MLOAD DUP2 PUSH1 0x5 ADD SSTORE PUSH1 0xC0 DUP3 ADD MLOAD DUP2 PUSH1 0x6 ADD SSTORE PUSH1 0xE0 DUP3 ADD MLOAD DUP2 PUSH1 0x7 ADD SSTORE PUSH2 0x100 DUP3 ADD MLOAD DUP2 PUSH1 0x8 ADD SSTORE SWAP1 POP POP POP POP JUMP JUMPDEST PUSH1 0x0 DUP1 PUSH1 0x0 PUSH1 0x1 PUSH1 0x0 DUP6 PUSH20 0xFFFFFFFFFFFFFFFFFFFFFFFFFFFFFFFFFFFFFFFF AND PUSH20 0xFFFFFFFFFFFFFFFFFFFFFFFFFFFFFFFFFFFFFFFF AND DUP2 MSTORE PUSH1 0x20 ADD SWAP1 DUP2 MSTORE PUSH1 0x20 ADD PUSH1 0x0 KECCAK256 PUSH1 0x5 ADD SLOAD PUSH1 0x1 PUSH1 0x0 DUP7 PUSH20 0xFFFFFFFFFFFFFFFFFFFFFFFFFFFFFFFFFFFFFFFF AND PUSH20 0xFFFFFFFFFFFFFFFFFFFFFFFFFFFFFFFFFFFFFFFF AND DUP2 MSTORE PUSH1 0x20 ADD SWAP1 DUP2 MSTORE PUSH1 0x20 ADD PUSH1 0x0 KECCAK256 PUSH1 0x8 ADD SLOAD PUSH1 0x1 PUSH1 0x0 DUP8 PUSH20 0xFFFFFFFFFFFFFFFFFFFFFFFFFFFFFFFFFFFFFFFF AND PUSH20 0xFFFFFFFFFFFFFFFFFFFFFFFFFFFFFFFFFFFFFFFF AND DUP2 MSTORE PUSH1 0x20 ADD SWAP1 DUP2 MSTORE PUSH1 0x20 ADD PUSH1 0x0 KECCAK256 PUSH1 0x4 ADD SLOAD SWAP3 POP SWAP3 POP SWAP3 POP SWAP2 SWAP4 SWAP1 SWAP3 POP JUMP JUMPDEST PUSH1 0x0 SELFBALANCE SWAP1 POP SWAP1 JUMP JUMPDEST PUSH1 0x0 DUP1 PUSH1 0x0 PUSH1 0x1 PUSH1 0x0 DUP6 PUSH20 0xFFFFFFFFFFFFFFFFFFFFFFFFFFFFFFFFFFFFFFFF AND PUSH20 0xFFFFFFFFFFFFFFFFFFFFFFFFFFFFFFFFFFFFFFFF AND DUP2 MSTORE PUSH1 0x20 ADD SWAP1 DUP2 MSTORE PUSH1 0x20 ADD PUSH1 0x0 KECCAK256 PUSH1 0x7 ADD SLOAD PUSH1 0x1 PUSH1 0x0 DUP7 PUSH20 0xFFFFFFFFFFFFFFFFFFFFFFFFFFFFFFFFFFFFFFFF AND PUSH20 0xFFFFFFFFFFFFFFFFFFFFFFFFFFFFFFFFFFFFFFFF AND DUP2 MSTORE PUSH1 0x20 ADD SWAP1 DUP2 MSTORE PUSH1 0x20 ADD PUSH1 0x0 KECCAK256 PUSH1 0x8 ADD SLOAD PUSH1 0x1 PUSH1 0x0 DUP8 PUSH20 0xFFFFFFFFFFFFFFFFFFFFFFFFFFFFFFFFFFFFFFFF AND PUSH20 0xFFFFFFFFFFFFFFFFFFFFFFFFFFFFFFFFFFFFFFFF AND DUP2 MSTORE PUSH1 0x20 ADD SWAP1 DUP2 MSTORE PUSH1 0x20 ADD PUSH1 0x0 KECCAK256 PUSH1 0x4 ADD SLOAD SWAP3 POP SWAP3 POP SWAP3 POP SWAP2 SWAP4 SWAP1 SWAP3 POP JUMP JUMPDEST DUP4 PUSH20 0xFFFFFFFFFFFFFFFFFFFFFFFFFFFFFFFFFFFFFFFF AND PUSH2 0x8FC DUP5 SWAP1 DUP2 ISZERO MUL SWAP1 PUSH1 0x40 MLOAD PUSH1 0x0 PUSH1 0x40 MLOAD DUP1 DUP4 SUB DUP2 DUP6 DUP9 DUP9 CALL SWAP4 POP POP POP POP ISZERO DUP1 ISZERO PUSH2 0xDDC JUMPI RETURNDATASIZE PUSH1 0x0 DUP1 RETURNDATACOPY RETURNDATASIZE PUSH1 0x0 REVERT JUMPDEST POP DUP3 PUSH1 0x1 PUSH1 0x0 DUP7 PUSH20 0xFFFFFFFFFFFFFFFFFFFFFFFFFFFFFFFFFFFFFFFF AND PUSH20 0xFFFFFFFFFFFFFFFFFFFFFFFFFFFFFFFFFFFFFFFF AND DUP2 MSTORE PUSH1 0x20 ADD SWAP1 DUP2 MSTORE PUSH1 0x20 ADD PUSH1 0x0 KECCAK256 PUSH1 0x1 ADD PUSH1 0x0 DUP3 DUP3 SLOAD PUSH2 0xE2F SWAP2 SWAP1 PUSH2 0x2692 JUMP JUMPDEST SWAP3 POP POP DUP2 SWAP1 SSTORE POP PUSH1 0x40 MLOAD PUSH1 0x20 ADD PUSH2 0xE45 SWAP1 PUSH2 0x271D JUMP JUMPDEST PUSH1 0x40 MLOAD PUSH1 0x20 DUP2 DUP4 SUB SUB DUP2 MSTORE SWAP1 PUSH1 0x40 MSTORE DUP1 MLOAD SWAP1 PUSH1 0x20 ADD KECCAK256 DUP2 PUSH1 0x40 MLOAD PUSH1 0x20 ADD PUSH2 0xE6C SWAP2 SWAP1 PUSH2 0x2798 JUMP JUMPDEST PUSH1 0x40 MLOAD PUSH1 0x20 DUP2 DUP4 SUB SUB DUP2 MSTORE SWAP1 PUSH1 0x40 MSTORE DUP1 MLOAD SWAP1 PUSH1 0x20 ADD KECCAK256 EQ DUP1 PUSH2 0xED7 JUMPI POP PUSH1 0x40 MLOAD PUSH1 0x20 ADD PUSH2 0xE98 SWAP1 PUSH2 0x27FB JUMP JUMPDEST PUSH1 0x40 MLOAD PUSH1 0x20 DUP2 DUP4 SUB SUB DUP2 MSTORE SWAP1 PUSH1 0x40 MSTORE DUP1 MLOAD SWAP1 PUSH1 0x20 ADD KECCAK256 DUP2 PUSH1 0x40 MLOAD PUSH1 0x20 ADD PUSH2 0xEBF SWAP2 SWAP1 PUSH2 0x2798 JUMP JUMPDEST PUSH1 0x40 MLOAD PUSH1 0x20 DUP2 DUP4 SUB SUB DUP2 MSTORE SWAP1 PUSH1 0x40 MSTORE DUP1 MLOAD SWAP1 PUSH1 0x20 ADD KECCAK256 EQ JUMPDEST DUP1 PUSH2 0xF2B JUMPI POP PUSH1 0x40 MLOAD PUSH1 0x20 ADD PUSH2 0xEEC SWAP1 PUSH2 0x285C JUMP JUMPDEST PUSH1 0x40 MLOAD PUSH1 0x20 DUP2 DUP4 SUB SUB DUP2 MSTORE SWAP1 PUSH1 0x40 MSTORE DUP1 MLOAD SWAP1 PUSH1 0x20 ADD KECCAK256 DUP2 PUSH1 0x40 MLOAD PUSH1 0x20 ADD PUSH2 0xF13 SWAP2 SWAP1 PUSH2 0x2798 JUMP JUMPDEST PUSH1 0x40 MLOAD PUSH1 0x20 DUP2 DUP4 SUB SUB DUP2 MSTORE SWAP1 PUSH1 0x40 MSTORE DUP1 MLOAD SWAP1 PUSH1 0x20 ADD KECCAK256 EQ JUMPDEST PUSH2 0xF6A JUMPI PUSH1 0x40 MLOAD PUSH32 0x8C379A000000000000000000000000000000000000000000000000000000000 DUP2 MSTORE PUSH1 0x4 ADD PUSH2 0xF61 SWAP1 PUSH2 0x28CE JUMP JUMPDEST PUSH1 0x40 MLOAD DUP1 SWAP2 SUB SWAP1 REVERT JUMPDEST PUSH1 0x40 MLOAD PUSH1 0x20 ADD PUSH2 0xF79 SWAP1 PUSH2 0x271D JUMP JUMPDEST PUSH1 0x40 MLOAD PUSH1 0x20 DUP2 DUP4 SUB SUB DUP2 MSTORE SWAP1 PUSH1 0x40 MSTORE DUP1 MLOAD SWAP1 PUSH1 0x20 ADD KECCAK256 DUP2 PUSH1 0x40 MLOAD PUSH1 0x20 ADD PUSH2 0xFA0 SWAP2 SWAP1 PUSH2 0x2798 JUMP JUMPDEST PUSH1 0x40 MLOAD PUSH1 0x20 DUP2 DUP4 SUB SUB DUP2 MSTORE SWAP1 PUSH1 0x40 MSTORE DUP1 MLOAD SWAP1 PUSH1 0x20 ADD KECCAK256 SUB PUSH2 0x1211 JUMPI PUSH1 0x1 DUP1 PUSH1 0x0 DUP7 PUSH20 0xFFFFFFFFFFFFFFFFFFFFFFFFFFFFFFFFFFFFFFFF AND PUSH20 0xFFFFFFFFFFFFFFFFFFFFFFFFFFFFFFFFFFFFFFFF AND DUP2 MSTORE PUSH1 0x20 ADD SWAP1 DUP2 MSTORE PUSH1 0x20 ADD PUSH1 0x0 KECCAK256 PUSH1 0x5 ADD SLOAD LT PUSH2 0x103F JUMPI PUSH1 0x40 MLOAD PUSH32 0x8C379A000000000000000000000000000000000000000000000000000000000 DUP2 MSTORE PUSH1 0x4 ADD PUSH2 0x1036 SWAP1 PUSH2 0x2960 JUMP JUMPDEST PUSH1 0x40 MLOAD DUP1 SWAP2 SUB SWAP1 REVERT JUMPDEST PUSH1 0x0 PUSH2 0x4B0 DUP4 PUSH1 0x8 DUP7 PUSH2 0x1052 SWAP2 SWAP1 PUSH2 0x2980 JUMP JUMPDEST PUSH2 0x105C SWAP2 SWAP1 PUSH2 0x2980 JUMP JUMPDEST PUSH2 0x1066 SWAP2 SWAP1 PUSH2 0x29F1 JUMP JUMPDEST SWAP1 POP DUP1 DUP5 PUSH2 0x1074 SWAP2 SWAP1 PUSH2 0x2692 JUMP JUMPDEST PUSH1 0x1 PUSH1 0x0 DUP8 PUSH20 0xFFFFFFFFFFFFFFFFFFFFFFFFFFFFFFFFFFFFFFFF AND PUSH20 0xFFFFFFFFFFFFFFFFFFFFFFFFFFFFFFFFFFFFFFFF AND DUP2 MSTORE PUSH1 0x20 ADD SWAP1 DUP2 MSTORE PUSH1 0x20 ADD PUSH1 0x0 KECCAK256 PUSH1 0x5 ADD DUP2 SWAP1 SSTORE POP DUP3 PUSH1 0x1 PUSH1 0x0 DUP8 PUSH20 0xFFFFFFFFFFFFFFFFFFFFFFFFFFFFFFFFFFFFFFFF AND PUSH20 0xFFFFFFFFFFFFFFFFFFFFFFFFFFFFFFFFFFFFFFFF AND DUP2 MSTORE PUSH1 0x20 ADD SWAP1 DUP2 MSTORE PUSH1 0x20 ADD PUSH1 0x0 KECCAK256 PUSH1 0x5 ADD SLOAD PUSH2 0x1108 SWAP2 SWAP1 PUSH2 0x29F1 JUMP JUMPDEST PUSH1 0x1 PUSH1 0x0 DUP8 PUSH20 0xFFFFFFFFFFFFFFFFFFFFFFFFFFFFFFFFFFFFFFFF AND PUSH20 0xFFFFFFFFFFFFFFFFFFFFFFFFFFFFFFFFFFFFFFFF AND DUP2 MSTORE PUSH1 0x20 ADD SWAP1 DUP2 MSTORE PUSH1 0x20 ADD PUSH1 0x0 KECCAK256 PUSH1 0x8 ADD DUP2 SWAP1 SSTORE POP DUP3 PUSH1 0x1 PUSH1 0x0 DUP8 PUSH20 0xFFFFFFFFFFFFFFFFFFFFFFFFFFFFFFFFFFFFFFFF AND PUSH20 0xFFFFFFFFFFFFFFFFFFFFFFFFFFFFFFFFFFFFFFFF AND DUP2 MSTORE PUSH1 0x20 ADD SWAP1 DUP2 MSTORE PUSH1 0x20 ADD PUSH1 0x0 KECCAK256 PUSH1 0x4 ADD PUSH1 0x0 DUP3 DUP3 SLOAD PUSH2 0x11A0 SWAP2 SWAP1 PUSH2 0x2692 JUMP JUMPDEST SWAP3 POP POP DUP2 SWAP1 SSTORE POP DUP1 DUP5 PUSH2 0x11B3 SWAP2 SWAP1 PUSH2 0x2692 JUMP JUMPDEST PUSH1 0x1 PUSH1 0x0 DUP8 PUSH20 0xFFFFFFFFFFFFFFFFFFFFFFFFFFFFFFFFFFFFFFFF AND PUSH20 0xFFFFFFFFFFFFFFFFFFFFFFFFFFFFFFFFFFFFFFFF AND DUP2 MSTORE PUSH1 0x20 ADD SWAP1 DUP2 MSTORE PUSH1 0x20 ADD PUSH1 0x0 KECCAK256 PUSH1 0x2 ADD PUSH1 0x0 DUP3 DUP3 SLOAD PUSH2 0x1204 SWAP2 SWAP1 PUSH2 0x2692 JUMP JUMPDEST SWAP3 POP POP DUP2 SWAP1 SSTORE POP POP PUSH2 0x1769 JUMP JUMPDEST PUSH1 0x40 MLOAD PUSH1 0x20 ADD PUSH2 0x1220 SWAP1 PUSH2 0x27FB JUMP JUMPDEST PUSH1 0x40 MLOAD PUSH1 0x20 DUP2 DUP4 SUB SUB DUP2 MSTORE SWAP1 PUSH1 0x40 MSTORE DUP1 MLOAD SWAP1 PUSH1 0x20 ADD KECCAK256 DUP2 PUSH1 0x40 MLOAD PUSH1 0x20 ADD PUSH2 0x1247 SWAP2 SWAP1 PUSH2 0x2798 JUMP JUMPDEST PUSH1 0x40 MLOAD PUSH1 0x20 DUP2 DUP4 SUB SUB DUP2 MSTORE SWAP1 PUSH1 0x40 MSTORE DUP1 MLOAD SWAP1 PUSH1 0x20 ADD KECCAK256 SUB PUSH2 0x14BE JUMPI PUSH1 0x1 DUP1 PUSH1 0x0 DUP7 PUSH20 0xFFFFFFFFFFFFFFFFFFFFFFFFFFFFFFFFFFFFFFFF AND PUSH20 0xFFFFFFFFFFFFFFFFFFFFFFFFFFFFFFFFFFFFFFFF AND DUP2 MSTORE PUSH1 0x20 ADD SWAP1 DUP2 MSTORE PUSH1 0x20 ADD PUSH1 0x0 KECCAK256 PUSH1 0x6 ADD SLOAD LT PUSH2 0x12E6 JUMPI PUSH1 0x40 MLOAD PUSH32 0x8C379A000000000000000000000000000000000000000000000000000000000 DUP2 MSTORE PUSH1 0x4 ADD PUSH2 0x12DD SWAP1 PUSH2 0x2A94 JUMP JUMPDEST PUSH1 0x40 MLOAD DUP1 SWAP2 SUB SWAP1 REVERT JUMPDEST PUSH1 0x0 PUSH2 0x4B0 DUP4 PUSH1 0x6 DUP7 PUSH2 0x12F9 SWAP2 SWAP1 PUSH2 0x2980 JUMP JUMPDEST PUSH2 0x1303 SWAP2 SWAP1 PUSH2 0x2980 JUMP JUMPDEST PUSH2 0x130D SWAP2 SWAP1 PUSH2 0x29F1 JUMP JUMPDEST SWAP1 POP PUSH1 0x0 DUP2 DUP6 PUSH2 0x131D SWAP2 SWAP1 PUSH2 0x2692 JUMP JUMPDEST SWAP1 POP DUP1 PUSH1 0x1 PUSH1 0x0 DUP9 PUSH20 0xFFFFFFFFFFFFFFFFFFFFFFFFFFFFFFFFFFFFFFFF AND PUSH20 0xFFFFFFFFFFFFFFFFFFFFFFFFFFFFFFFFFFFFFFFF AND DUP2 MSTORE PUSH1 0x20 ADD SWAP1 DUP2 MSTORE PUSH1 0x20 ADD PUSH1 0x0 KECCAK256 PUSH1 0x6 ADD DUP2 SWAP1 SSTORE POP DUP4 PUSH1 0x1 PUSH1 0x0 DUP9 PUSH20 0xFFFFFFFFFFFFFFFFFFFFFFFFFFFFFFFFFFFFFFFF AND PUSH20 0xFFFFFFFFFFFFFFFFFFFFFFFFFFFFFFFFFFFFFFFF AND DUP2 MSTORE PUSH1 0x20 ADD SWAP1 DUP2 MSTORE PUSH1 0x20 ADD PUSH1 0x0 KECCAK256 PUSH1 0x6 ADD SLOAD PUSH2 0x13B4 SWAP2 SWAP1 PUSH2 0x29F1 JUMP JUMPDEST PUSH1 0x1 PUSH1 0x0 DUP9 PUSH20 0xFFFFFFFFFFFFFFFFFFFFFFFFFFFFFFFFFFFFFFFF AND PUSH20 0xFFFFFFFFFFFFFFFFFFFFFFFFFFFFFFFFFFFFFFFF AND DUP2 MSTORE PUSH1 0x20 ADD SWAP1 DUP2 MSTORE PUSH1 0x20 ADD PUSH1 0x0 KECCAK256 PUSH1 0x3 ADD DUP2 SWAP1 SSTORE POP DUP4 PUSH1 0x1 PUSH1 0x0 DUP9 PUSH20 0xFFFFFFFFFFFFFFFFFFFFFFFFFFFFFFFFFFFFFFFF AND PUSH20 0xFFFFFFFFFFFFFFFFFFFFFFFFFFFFFFFFFFFFFFFF AND DUP2 MSTORE PUSH1 0x20 ADD SWAP1 DUP2 MSTORE PUSH1 0x20 ADD PUSH1 0x0 KECCAK256 PUSH1 0x4 ADD PUSH1 0x0 DUP3 DUP3 SLOAD PUSH2 0x144C SWAP2 SWAP1 PUSH2 0x2692 JUMP JUMPDEST SWAP3 POP POP DUP2 SWAP1 SSTORE POP DUP2 DUP6 PUSH2 0x145F SWAP2 SWAP1 PUSH2 0x2692 JUMP JUMPDEST PUSH1 0x1 PUSH1 0x0 DUP9 PUSH20 0xFFFFFFFFFFFFFFFFFFFFFFFFFFFFFFFFFFFFFFFF AND PUSH20 0xFFFFFFFFFFFFFFFFFFFFFFFFFFFFFFFFFFFFFFFF AND DUP2 MSTORE PUSH1 0x20 ADD SWAP1 DUP2 MSTORE PUSH1 0x20 ADD PUSH1 0x0 KECCAK256 PUSH1 0x2 ADD PUSH1 0x0 DUP3 DUP3 SLOAD PUSH2 0x14B0 SWAP2 SWAP1 PUSH2 0x2692 JUMP JUMPDEST SWAP3 POP POP DUP2 SWAP1 SSTORE POP POP POP PUSH2 0x1768 JUMP JUMPDEST PUSH1 0x40 MLOAD PUSH1 0x20 ADD PUSH2 0x14CD SWAP1 PUSH2 0x285C JUMP JUMPDEST PUSH1 0x40 MLOAD PUSH1 0x20 DUP2 DUP4 SUB SUB DUP2 MSTORE SWAP1 PUSH1 0x40 MSTORE DUP1 MLOAD SWAP1 PUSH1 0x20 ADD KECCAK256 DUP2 PUSH1 0x40 MLOAD PUSH1 0x20 ADD PUSH2 0x14F4 SWAP2 SWAP1 PUSH2 0x2798 JUMP JUMPDEST PUSH1 0x40 MLOAD PUSH1 0x20 DUP2 DUP4 SUB SUB DUP2 MSTORE SWAP1 PUSH1 0x40 MSTORE DUP1 MLOAD SWAP1 PUSH1 0x20 ADD KECCAK256 SUB PUSH2 0x1767 JUMPI PUSH1 0x1 DUP1 PUSH1 0x0 DUP7 PUSH20 0xFFFFFFFFFFFFFFFFFFFFFFFFFFFFFFFFFFFFFFFF AND PUSH20 0xFFFFFFFFFFFFFFFFFFFFFFFFFFFFFFFFFFFFFFFF AND DUP2 MSTORE PUSH1 0x20 ADD SWAP1 DUP2 MSTORE PUSH1 0x20 ADD PUSH1 0x0 KECCAK256 PUSH1 0x7 ADD SLOAD LT PUSH2 0x1593 JUMPI PUSH1 0x40 MLOAD PUSH32 0x8C379A000000000000000000000000000000000000000000000000000000000 DUP2 MSTORE PUSH1 0x4 ADD PUSH2 0x158A SWAP1 PUSH2 0x2B26 JUMP JUMPDEST PUSH1 0x40 MLOAD DUP1 SWAP2 SUB SWAP1 REVERT JUMPDEST PUSH1 0x0 PUSH2 0x4B0 DUP4 PUSH1 0xA DUP7 PUSH2 0x15A6 SWAP2 SWAP1 PUSH2 0x2980 JUMP JUMPDEST PUSH2 0x15B0 SWAP2 SWAP1 PUSH2 0x2980 JUMP JUMPDEST PUSH2 0x15BA SWAP2 SWAP1 PUSH2 0x29F1 JUMP JUMPDEST SWAP1 POP PUSH1 0x0 DUP2 DUP6 PUSH2 0x15CA SWAP2 SWAP1 PUSH2 0x2692 JUMP JUMPDEST SWAP1 POP DUP1 PUSH1 0x1 PUSH1 0x0 DUP9 PUSH20 0xFFFFFFFFFFFFFFFFFFFFFFFFFFFFFFFFFFFFFFFF AND PUSH20 0xFFFFFFFFFFFFFFFFFFFFFFFFFFFFFFFFFFFFFFFF AND DUP2 MSTORE PUSH1 0x20 ADD SWAP1 DUP2 MSTORE PUSH1 0x20 ADD PUSH1 0x0 KECCAK256 PUSH1 0x7 ADD DUP2 SWAP1 SSTORE POP DUP4 PUSH1 0x1 PUSH1 0x0 DUP9 PUSH20 0xFFFFFFFFFFFFFFFFFFFFFFFFFFFFFFFFFFFFFFFF AND PUSH20 0xFFFFFFFFFFFFFFFFFFFFFFFFFFFFFFFFFFFFFFFF AND DUP2 MSTORE PUSH1 0x20 ADD SWAP1 DUP2 MSTORE PUSH1 0x20 ADD PUSH1 0x0 KECCAK256 PUSH1 0x7 ADD SLOAD PUSH2 0x1661 SWAP2 SWAP1 PUSH2 0x29F1 JUMP JUMPDEST PUSH1 0x1 PUSH1 0x0 DUP9 PUSH20 0xFFFFFFFFFFFFFFFFFFFFFFFFFFFFFFFFFFFFFFFF AND PUSH20 0xFFFFFFFFFFFFFFFFFFFFFFFFFFFFFFFFFFFFFFFF AND DUP2 MSTORE PUSH1 0x20 ADD SWAP1 DUP2 MSTORE PUSH1 0x20 ADD PUSH1 0x0 KECCAK256 PUSH1 0x3 ADD DUP2 SWAP1 SSTORE POP DUP4 PUSH1 0x1 PUSH1 0x0 DUP9 PUSH20 0xFFFFFFFFFFFFFFFFFFFFFFFFFFFFFFFFFFFFFFFF AND PUSH20 0xFFFFFFFFFFFFFFFFFFFFFFFFFFFFFFFFFFFFFFFF AND DUP2 MSTORE PUSH1 0x20 ADD SWAP1 DUP2 MSTORE PUSH1 0x20 ADD PUSH1 0x0 KECCAK256 PUSH1 0x4 ADD PUSH1 0x0 DUP3 DUP3 SLOAD PUSH2 0x16F9 SWAP2 SWAP1 PUSH2 0x2692 JUMP JUMPDEST SWAP3 POP POP DUP2 SWAP1 SSTORE POP DUP2 DUP6 PUSH2 0x170C SWAP2 SWAP1 PUSH2 0x2692 JUMP JUMPDEST PUSH1 0x1 PUSH1 0x0 DUP9 PUSH20 0xFFFFFFFFFFFFFFFFFFFFFFFFFFFFFFFFFFFFFFFF AND PUSH20 0xFFFFFFFFFFFFFFFFFFFFFFFFFFFFFFFFFFFFFFFF AND DUP2 MSTORE PUSH1 0x20 ADD SWAP1 DUP2 MSTORE PUSH1 0x20 ADD PUSH1 0x0 KECCAK256 PUSH1 0x2 ADD PUSH1 0x0 DUP3 DUP3 SLOAD PUSH2 0x175D SWAP2 SWAP1 PUSH2 0x2692 JUMP JUMPDEST SWAP3 POP POP DUP2 SWAP1 SSTORE POP POP POP JUMPDEST JUMPDEST JUMPDEST PUSH1 0x40 MLOAD DUP1 PUSH2 0x120 ADD PUSH1 0x40 MSTORE DUP1 PUSH1 0x1 PUSH1 0x0 DUP8 PUSH20 0xFFFFFFFFFFFFFFFFFFFFFFFFFFFFFFFFFFFFFFFF AND PUSH20 0xFFFFFFFFFFFFFFFFFFFFFFFFFFFFFFFFFFFFFFFF AND DUP2 MSTORE PUSH1 0x20 ADD SWAP1 DUP2 MSTORE PUSH1 0x20 ADD PUSH1 0x0 KECCAK256 PUSH1 0x0 ADD PUSH1 0x0 SWAP1 SLOAD SWAP1 PUSH2 0x100 EXP SWAP1 DIV PUSH20 0xFFFFFFFFFFFFFFFFFFFFFFFFFFFFFFFFFFFFFFFF AND PUSH20 0xFFFFFFFFFFFFFFFFFFFFFFFFFFFFFFFFFFFFFFFF AND DUP2 MSTORE PUSH1 0x20 ADD PUSH1 0x1 PUSH1 0x0 DUP8 PUSH20 0xFFFFFFFFFFFFFFFFFFFFFFFFFFFFFFFFFFFFFFFF AND PUSH20 0xFFFFFFFFFFFFFFFFFFFFFFFFFFFFFFFFFFFFFFFF AND DUP2 MSTORE PUSH1 0x20 ADD SWAP1 DUP2 MSTORE PUSH1 0x20 ADD PUSH1 0x0 KECCAK256 PUSH1 0x1 ADD SLOAD DUP2 MSTORE PUSH1 0x20 ADD PUSH1 0x1 PUSH1 0x0 DUP8 PUSH20 0xFFFFFFFFFFFFFFFFFFFFFFFFFFFFFFFFFFFFFFFF AND PUSH20 0xFFFFFFFFFFFFFFFFFFFFFFFFFFFFFFFFFFFFFFFF AND DUP2 MSTORE PUSH1 0x20 ADD SWAP1 DUP2 MSTORE PUSH1 0x20 ADD PUSH1 0x0 KECCAK256 PUSH1 0x2 ADD SLOAD DUP2 MSTORE PUSH1 0x20 ADD PUSH1 0x1 PUSH1 0x0 DUP8 PUSH20 0xFFFFFFFFFFFFFFFFFFFFFFFFFFFFFFFFFFFFFFFF AND PUSH20 0xFFFFFFFFFFFFFFFFFFFFFFFFFFFFFFFFFFFFFFFF AND DUP2 MSTORE PUSH1 0x20 ADD SWAP1 DUP2 MSTORE PUSH1 0x20 ADD PUSH1 0x0 KECCAK256 PUSH1 0x3 ADD SLOAD DUP2 MSTORE PUSH1 0x20 ADD PUSH1 0x1 PUSH1 0x0 DUP8 PUSH20 0xFFFFFFFFFFFFFFFFFFFFFFFFFFFFFFFFFFFFFFFF AND PUSH20 0xFFFFFFFFFFFFFFFFFFFFFFFFFFFFFFFFFFFFFFFF AND DUP2 MSTORE PUSH1 0x20 ADD SWAP1 DUP2 MSTORE PUSH1 0x20 ADD PUSH1 0x0 KECCAK256 PUSH1 0x4 ADD SLOAD DUP2 MSTORE PUSH1 0x20 ADD PUSH1 0x1 PUSH1 0x0 DUP8 PUSH20 0xFFFFFFFFFFFFFFFFFFFFFFFFFFFFFFFFFFFFFFFF AND PUSH20 0xFFFFFFFFFFFFFFFFFFFFFFFFFFFFFFFFFFFFFFFF AND DUP2 MSTORE PUSH1 0x20 ADD SWAP1 DUP2 MSTORE PUSH1 0x20 ADD PUSH1 0x0 KECCAK256 PUSH1 0x5 ADD SLOAD DUP2 MSTORE PUSH1 0x20 ADD PUSH1 0x1 PUSH1 0x0 DUP8 PUSH20 0xFFFFFFFFFFFFFFFFFFFFFFFFFFFFFFFFFFFFFFFF AND PUSH20 0xFFFFFFFFFFFFFFFFFFFFFFFFFFFFFFFFFFFFFFFF AND DUP2 MSTORE PUSH1 0x20 ADD SWAP1 DUP2 MSTORE PUSH1 0x20 ADD PUSH1 0x0 KECCAK256 PUSH1 0x6 ADD SLOAD DUP2 MSTORE PUSH1 0x20 ADD PUSH1 0x1 PUSH1 0x0 DUP8 PUSH20 0xFFFFFFFFFFFFFFFFFFFFFFFFFFFFFFFFFFFFFFFF AND PUSH20 0xFFFFFFFFFFFFFFFFFFFFFFFFFFFFFFFFFFFFFFFF AND DUP2 MSTORE PUSH1 0x20 ADD SWAP1 DUP2 MSTORE PUSH1 0x20 ADD PUSH1 0x0 KECCAK256 PUSH1 0x7 ADD SLOAD DUP2 MSTORE PUSH1 0x20 ADD PUSH1 0x1 PUSH1 0x0 DUP8 PUSH20 0xFFFFFFFFFFFFFFFFFFFFFFFFFFFFFFFFFFFFFFFF AND PUSH20 0xFFFFFFFFFFFFFFFFFFFFFFFFFFFFFFFFFFFFFFFF AND DUP2 MSTORE PUSH1 0x20 ADD SWAP1 DUP2 MSTORE PUSH1 0x20 ADD PUSH1 0x0 KECCAK256 PUSH1 0x8 ADD SLOAD DUP2 MSTORE POP PUSH1 0x1 PUSH1 0x0 DUP7 PUSH20 0xFFFFFFFFFFFFFFFFFFFFFFFFFFFFFFFFFFFFFFFF AND PUSH20 0xFFFFFFFFFFFFFFFFFFFFFFFFFFFFFFFFFFFFFFFF AND DUP2 MSTORE PUSH1 0x20 ADD SWAP1 DUP2 MSTORE PUSH1 0x20 ADD PUSH1 0x0 KECCAK256 PUSH1 0x0 DUP3 ADD MLOAD DUP2 PUSH1 0x0 ADD PUSH1 0x0 PUSH2 0x100 EXP DUP2 SLOAD DUP2 PUSH20 0xFFFFFFFFFFFFFFFFFFFFFFFFFFFFFFFFFFFFFFFF MUL NOT AND SWAP1 DUP4 PUSH20 0xFFFFFFFFFFFFFFFFFFFFFFFFFFFFFFFFFFFFFFFF AND MUL OR SWAP1 SSTORE POP PUSH1 0x20 DUP3 ADD MLOAD DUP2 PUSH1 0x1 ADD SSTORE PUSH1 0x40 DUP3 ADD MLOAD DUP2 PUSH1 0x2 ADD SSTORE PUSH1 0x60 DUP3 ADD MLOAD DUP2 PUSH1 0x3 ADD SSTORE PUSH1 0x80 DUP3 ADD MLOAD DUP2 PUSH1 0x4 ADD SSTORE PUSH1 0xA0 DUP3 ADD MLOAD DUP2 PUSH1 0x5 ADD SSTORE PUSH1 0xC0 DUP3 ADD MLOAD DUP2 PUSH1 0x6 ADD SSTORE PUSH1 0xE0 DUP3 ADD MLOAD DUP2 PUSH1 0x7 ADD SSTORE PUSH2 0x100 DUP3 ADD MLOAD DUP2 PUSH1 0x8 ADD SSTORE SWAP1 POP POP POP POP POP POP JUMP JUMPDEST PUSH1 0x0 DUP1 SLOAD SWAP1 PUSH2 0x100 EXP SWAP1 DIV PUSH20 0xFFFFFFFFFFFFFFFFFFFFFFFFFFFFFFFFFFFFFFFF AND PUSH20 0xFFFFFFFFFFFFFFFFFFFFFFFFFFFFFFFFFFFFFFFF AND CALLER PUSH20 0xFFFFFFFFFFFFFFFFFFFFFFFFFFFFFFFFFFFFFFFF AND EQ PUSH2 0x1B9F JUMPI PUSH1 0x40 MLOAD PUSH32 0x8C379A000000000000000000000000000000000000000000000000000000000 DUP2 MSTORE PUSH1 0x4 ADD PUSH2 0x1B96 SWAP1 PUSH2 0x2BB8 JUMP JUMPDEST PUSH1 0x40 MLOAD DUP1 SWAP2 SUB SWAP1 REVERT JUMPDEST ADDRESS PUSH20 0xFFFFFFFFFFFFFFFFFFFFFFFFFFFFFFFFFFFFFFFF AND PUSH2 0x8FC CALLVALUE SWAP1 DUP2 ISZERO MUL SWAP1 PUSH1 0x40 MLOAD PUSH1 0x0 PUSH1 0x40 MLOAD DUP1 DUP4 SUB DUP2 DUP6 DUP9 DUP9 CALL SWAP4 POP POP POP POP ISZERO DUP1 ISZERO PUSH2 0x1BE5 JUMPI RETURNDATASIZE PUSH1 0x0 DUP1 RETURNDATACOPY RETURNDATASIZE PUSH1 0x0 REVERT JUMPDEST POP JUMP JUMPDEST PUSH1 0x1 PUSH1 0x20 MSTORE DUP1 PUSH1 0x0 MSTORE PUSH1 0x40 PUSH1 0x0 KECCAK256 PUSH1 0x0 SWAP2 POP SWAP1 POP DUP1 PUSH1 0x0 ADD PUSH1 0x0 SWAP1 SLOAD SWAP1 PUSH2 0x100 EXP SWAP1 DIV PUSH20 0xFFFFFFFFFFFFFFFFFFFFFFFFFFFFFFFFFFFFFFFF AND SWAP1 DUP1 PUSH1 0x1 ADD SLOAD SWAP1 DUP1 PUSH1 0x2 ADD SLOAD SWAP1 DUP1 PUSH1 0x3 ADD SLOAD SWAP1 DUP1 PUSH1 0x4 ADD SLOAD SWAP1 DUP1 PUSH1 0x5 ADD SLOAD SWAP1 DUP1 PUSH1 0x6 ADD SLOAD SWAP1 DUP1 PUSH1 0x7 ADD SLOAD SWAP1 DUP1 PUSH1 0x8 ADD SLOAD SWAP1 POP DUP10 JUMP JUMPDEST PUSH1 0x0 DUP1 PUSH1 0x0 PUSH1 0x1 PUSH1 0x0 DUP6 PUSH20 0xFFFFFFFFFFFFFFFFFFFFFFFFFFFFFFFFFFFFFFFF AND PUSH20 0xFFFFFFFFFFFFFFFFFFFFFFFFFFFFFFFFFFFFFFFF AND DUP2 MSTORE PUSH1 0x20 ADD SWAP1 DUP2 MSTORE PUSH1 0x20 ADD PUSH1 0x0 KECCAK256 PUSH1 0x6 ADD SLOAD PUSH1 0x1 PUSH1 0x0 DUP7 PUSH20 0xFFFFFFFFFFFFFFFFFFFFFFFFFFFFFFFFFFFFFFFF AND PUSH20 0xFFFFFFFFFFFFFFFFFFFFFFFFFFFFFFFFFFFFFFFF AND DUP2 MSTORE PUSH1 0x20 ADD SWAP1 DUP2 MSTORE PUSH1 0x20 ADD PUSH1 0x0 KECCAK256 PUSH1 0x8 ADD SLOAD PUSH1 0x1 PUSH1 0x0 DUP8 PUSH20 0xFFFFFFFFFFFFFFFFFFFFFFFFFFFFFFFFFFFFFFFF AND PUSH20 0xFFFFFFFFFFFFFFFFFFFFFFFFFFFFFFFFFFFFFFFF AND DUP2 MSTORE PUSH1 0x20 ADD SWAP1 DUP2 MSTORE PUSH1 0x20 ADD PUSH1 0x0 KECCAK256 PUSH1 0x4 ADD SLOAD SWAP3 POP SWAP3 POP SWAP3 POP SWAP2 SWAP4 SWAP1 SWAP3 POP JUMP JUMPDEST PUSH1 0x0 DUP2 GT DUP1 ISZERO PUSH2 0x1D82 JUMPI POP PUSH1 0x1 PUSH1 0x0 DUP4 PUSH20 0xFFFFFFFFFFFFFFFFFFFFFFFFFFFFFFFFFFFFFFFF AND PUSH20 0xFFFFFFFFFFFFFFFFFFFFFFFFFFFFFFFFFFFFFFFF AND DUP2 MSTORE PUSH1 0x20 ADD SWAP1 DUP2 MSTORE PUSH1 0x20 ADD PUSH1 0x0 KECCAK256 PUSH1 0x1 ADD SLOAD DUP2 LT JUMPDEST PUSH2 0x1DC1 JUMPI PUSH1 0x40 MLOAD PUSH32 0x8C379A000000000000000000000000000000000000000000000000000000000 DUP2 MSTORE PUSH1 0x4 ADD PUSH2 0x1DB8 SWAP1 PUSH2 0x2C24 JUMP JUMPDEST PUSH1 0x40 MLOAD DUP1 SWAP2 SUB SWAP1 REVERT JUMPDEST DUP1 PUSH1 0x1 PUSH1 0x0 DUP5 PUSH20 0xFFFFFFFFFFFFFFFFFFFFFFFFFFFFFFFFFFFFFFFF AND PUSH20 0xFFFFFFFFFFFFFFFFFFFFFFFFFFFFFFFFFFFFFFFF AND DUP2 MSTORE PUSH1 0x20 ADD SWAP1 DUP2 MSTORE PUSH1 0x20 ADD PUSH1 0x0 KECCAK256 PUSH1 0x1 ADD PUSH1 0x0 DUP3 DUP3 SLOAD PUSH2 0x1E13 SWAP2 SWAP1 PUSH2 0x2635 JUMP JUMPDEST SWAP3 POP POP DUP2 SWAP1 SSTORE POP PUSH1 0x40 MLOAD DUP1 PUSH2 0x120 ADD PUSH1 0x40 MSTORE DUP1 PUSH1 0x1 PUSH1 0x0 DUP6 PUSH20 0xFFFFFFFFFFFFFFFFFFFFFFFFFFFFFFFFFFFFFFFF AND PUSH20 0xFFFFFFFFFFFFFFFFFFFFFFFFFFFFFFFFFFFFFFFF AND DUP2 MSTORE PUSH1 0x20 ADD SWAP1 DUP2 MSTORE PUSH1 0x20 ADD PUSH1 0x0 KECCAK256 PUSH1 0x0 ADD PUSH1 0x0 SWAP1 SLOAD SWAP1 PUSH2 0x100 EXP SWAP1 DIV PUSH20 0xFFFFFFFFFFFFFFFFFFFFFFFFFFFFFFFFFFFFFFFF AND PUSH20 0xFFFFFFFFFFFFFFFFFFFFFFFFFFFFFFFFFFFFFFFF AND DUP2 MSTORE PUSH1 0x20 ADD PUSH1 0x1 PUSH1 0x0 DUP6 PUSH20 0xFFFFFFFFFFFFFFFFFFFFFFFFFFFFFFFFFFFFFFFF AND PUSH20 0xFFFFFFFFFFFFFFFFFFFFFFFFFFFFFFFFFFFFFFFF AND DUP2 MSTORE PUSH1 0x20 ADD SWAP1 DUP2 MSTORE PUSH1 0x20 ADD PUSH1 0x0 KECCAK256 PUSH1 0x1 ADD SLOAD DUP2 MSTORE PUSH1 0x20 ADD PUSH1 0x1 PUSH1 0x0 DUP6 PUSH20 0xFFFFFFFFFFFFFFFFFFFFFFFFFFFFFFFFFFFFFFFF AND PUSH20 0xFFFFFFFFFFFFFFFFFFFFFFFFFFFFFFFFFFFFFFFF AND DUP2 MSTORE PUSH1 0x20 ADD SWAP1 DUP2 MSTORE PUSH1 0x20 ADD PUSH1 0x0 KECCAK256 PUSH1 0x2 ADD SLOAD DUP2 MSTORE PUSH1 0x20 ADD PUSH1 0x1 PUSH1 0x0 DUP6 PUSH20 0xFFFFFFFFFFFFFFFFFFFFFFFFFFFFFFFFFFFFFFFF AND PUSH20 0xFFFFFFFFFFFFFFFFFFFFFFFFFFFFFFFFFFFFFFFF AND DUP2 MSTORE PUSH1 0x20 ADD SWAP1 DUP2 MSTORE PUSH1 0x20 ADD PUSH1 0x0 KECCAK256 PUSH1 0x3 ADD SLOAD DUP2 MSTORE PUSH1 0x20 ADD PUSH1 0x1 PUSH1 0x0 DUP6 PUSH20 0xFFFFFFFFFFFFFFFFFFFFFFFFFFFFFFFFFFFFFFFF AND PUSH20 0xFFFFFFFFFFFFFFFFFFFFFFFFFFFFFFFFFFFFFFFF AND DUP2 MSTORE PUSH1 0x20 ADD SWAP1 DUP2 MSTORE PUSH1 0x20 ADD PUSH1 0x0 KECCAK256 PUSH1 0x4 ADD SLOAD DUP2 MSTORE PUSH1 0x20 ADD PUSH1 0x1 PUSH1 0x0 DUP6 PUSH20 0xFFFFFFFFFFFFFFFFFFFFFFFFFFFFFFFFFFFFFFFF AND PUSH20 0xFFFFFFFFFFFFFFFFFFFFFFFFFFFFFFFFFFFFFFFF AND DUP2 MSTORE PUSH1 0x20 ADD SWAP1 DUP2 MSTORE PUSH1 0x20 ADD PUSH1 0x0 KECCAK256 PUSH1 0x5 ADD SLOAD DUP2 MSTORE PUSH1 0x20 ADD PUSH1 0x1 PUSH1 0x0 DUP6 PUSH20 0xFFFFFFFFFFFFFFFFFFFFFFFFFFFFFFFFFFFFFFFF AND PUSH20 0xFFFFFFFFFFFFFFFFFFFFFFFFFFFFFFFFFFFFFFFF AND DUP2 MSTORE PUSH1 0x20 ADD SWAP1 DUP2 MSTORE PUSH1 0x20 ADD PUSH1 0x0 KECCAK256 PUSH1 0x6 ADD SLOAD DUP2 MSTORE PUSH1 0x20 ADD PUSH1 0x1 PUSH1 0x0 DUP6 PUSH20 0xFFFFFFFFFFFFFFFFFFFFFFFFFFFFFFFFFFFFFFFF AND PUSH20 0xFFFFFFFFFFFFFFFFFFFFFFFFFFFFFFFFFFFFFFFF AND DUP2 MSTORE PUSH1 0x20 ADD SWAP1 DUP2 MSTORE PUSH1 0x20 ADD PUSH1 0x0 KECCAK256 PUSH1 0x7 ADD SLOAD DUP2 MSTORE PUSH1 0x20 ADD PUSH1 0x1 PUSH1 0x0 DUP6 PUSH20 0xFFFFFFFFFFFFFFFFFFFFFFFFFFFFFFFFFFFFFFFF AND PUSH20 0xFFFFFFFFFFFFFFFFFFFFFFFFFFFFFFFFFFFFFFFF AND DUP2 MSTORE PUSH1 0x20 ADD SWAP1 DUP2 MSTORE PUSH1 0x20 ADD PUSH1 0x0 KECCAK256 PUSH1 0x8 ADD SLOAD DUP2 MSTORE POP PUSH1 0x1 PUSH1 0x0 DUP5 PUSH20 0xFFFFFFFFFFFFFFFFFFFFFFFFFFFFFFFFFFFFFFFF AND PUSH20 0xFFFFFFFFFFFFFFFFFFFFFFFFFFFFFFFFFFFFFFFF AND DUP2 MSTORE PUSH1 0x20 ADD SWAP1 DUP2 MSTORE PUSH1 0x20 ADD PUSH1 0x0 KECCAK256 PUSH1 0x0 DUP3 ADD MLOAD DUP2 PUSH1 0x0 ADD PUSH1 0x0 PUSH2 0x100 EXP DUP2 SLOAD DUP2 PUSH20 0xFFFFFFFFFFFFFFFFFFFFFFFFFFFFFFFFFFFFFFFF MUL NOT AND SWAP1 DUP4 PUSH20 0xFFFFFFFFFFFFFFFFFFFFFFFFFFFFFFFFFFFFFFFF AND MUL OR SWAP1 SSTORE POP PUSH1 0x20 DUP3 ADD MLOAD DUP2 PUSH1 0x1 ADD SSTORE PUSH1 0x40 DUP3 ADD MLOAD DUP2 PUSH1 0x2 ADD SSTORE PUSH1 0x60 DUP3 ADD MLOAD DUP2 PUSH1 0x3 ADD SSTORE PUSH1 0x80 DUP3 ADD MLOAD DUP2 PUSH1 0x4 ADD SSTORE PUSH1 0xA0 DUP3 ADD MLOAD DUP2 PUSH1 0x5 ADD SSTORE PUSH1 0xC0 DUP3 ADD MLOAD DUP2 PUSH1 0x6 ADD SSTORE PUSH1 0xE0 DUP3 ADD MLOAD DUP2 PUSH1 0x7 ADD SSTORE PUSH2 0x100 DUP3 ADD MLOAD DUP2 PUSH1 0x8 ADD SSTORE SWAP1 POP POP POP POP JUMP JUMPDEST PUSH1 0x0 PUSH1 0x40 MLOAD SWAP1 POP SWAP1 JUMP JUMPDEST PUSH1 0x0 DUP1 REVERT JUMPDEST PUSH1 0x0 DUP1 REVERT JUMPDEST PUSH1 0x0 PUSH20 0xFFFFFFFFFFFFFFFFFFFFFFFFFFFFFFFFFFFFFFFF DUP3 AND SWAP1 POP SWAP2 SWAP1 POP JUMP JUMPDEST PUSH1 0x0 PUSH2 0x21FF DUP3 PUSH2 0x21D4 JUMP JUMPDEST SWAP1 POP SWAP2 SWAP1 POP JUMP JUMPDEST PUSH2 0x220F DUP2 PUSH2 0x21F4 JUMP JUMPDEST DUP2 EQ PUSH2 0x221A JUMPI PUSH1 0x0 DUP1 REVERT JUMPDEST POP JUMP JUMPDEST PUSH1 0x0 DUP2 CALLDATALOAD SWAP1 POP PUSH2 0x222C DUP2 PUSH2 0x2206 JUMP JUMPDEST SWAP3 SWAP2 POP POP JUMP JUMPDEST PUSH1 0x0 PUSH1 0x20 DUP3 DUP5 SUB SLT ISZERO PUSH2 0x2248 JUMPI PUSH2 0x2247 PUSH2 0x21CA JUMP JUMPDEST JUMPDEST PUSH1 0x0 PUSH2 0x2256 DUP5 DUP3 DUP6 ADD PUSH2 0x221D JUMP JUMPDEST SWAP2 POP POP SWAP3 SWAP2 POP POP JUMP JUMPDEST PUSH1 0x0 DUP2 SWAP1 POP SWAP2 SWAP1 POP JUMP JUMPDEST PUSH2 0x2272 DUP2 PUSH2 0x225F JUMP JUMPDEST DUP2 EQ PUSH2 0x227D JUMPI PUSH1 0x0 DUP1 REVERT JUMPDEST POP JUMP JUMPDEST PUSH1 0x0 DUP2 CALLDATALOAD SWAP1 POP PUSH2 0x228F DUP2 PUSH2 0x2269 JUMP JUMPDEST SWAP3 SWAP2 POP POP JUMP JUMPDEST PUSH1 0x0 DUP1 PUSH1 0x40 DUP4 DUP6 SUB SLT ISZERO PUSH2 0x22AC JUMPI PUSH2 0x22AB PUSH2 0x21CA JUMP JUMPDEST JUMPDEST PUSH1 0x0 PUSH2 0x22BA DUP6 DUP3 DUP7 ADD PUSH2 0x221D JUMP JUMPDEST SWAP3 POP POP PUSH1 0x20 PUSH2 0x22CB DUP6 DUP3 DUP7 ADD PUSH2 0x2280 JUMP JUMPDEST SWAP2 POP POP SWAP3 POP SWAP3 SWAP1 POP JUMP JUMPDEST PUSH1 0x0 PUSH2 0x22E0 DUP3 PUSH2 0x21D4 JUMP JUMPDEST SWAP1 POP SWAP2 SWAP1 POP JUMP JUMPDEST PUSH2 0x22F0 DUP2 PUSH2 0x22D5 JUMP JUMPDEST DUP2 EQ PUSH2 0x22FB JUMPI PUSH1 0x0 DUP1 REVERT JUMPDEST POP JUMP JUMPDEST PUSH1 0x0 DUP2 CALLDATALOAD SWAP1 POP PUSH2 0x230D DUP2 PUSH2 0x22E7 JUMP JUMPDEST SWAP3 SWAP2 POP POP JUMP JUMPDEST PUSH1 0x0 PUSH1 0x20 DUP3 DUP5 SUB SLT ISZERO PUSH2 0x2329 JUMPI PUSH2 0x2328 PUSH2 0x21CA JUMP JUMPDEST JUMPDEST PUSH1 0x0 PUSH2 0x2337 DUP5 DUP3 DUP6 ADD PUSH2 0x22FE JUMP JUMPDEST SWAP2 POP POP SWAP3 SWAP2 POP POP JUMP JUMPDEST PUSH2 0x2349 DUP2 PUSH2 0x225F JUMP JUMPDEST DUP3 MSTORE POP POP JUMP JUMPDEST PUSH1 0x0 PUSH1 0x60 DUP3 ADD SWAP1 POP PUSH2 0x2364 PUSH1 0x0 DUP4 ADD DUP7 PUSH2 0x2340 JUMP JUMPDEST PUSH2 0x2371 PUSH1 0x20 DUP4 ADD DUP6 PUSH2 0x2340 JUMP JUMPDEST PUSH2 0x237E PUSH1 0x40 DUP4 ADD DUP5 PUSH2 0x2340 JUMP JUMPDEST SWAP5 SWAP4 POP POP POP POP JUMP JUMPDEST PUSH1 0x0 PUSH1 0x20 DUP3 ADD SWAP1 POP PUSH2 0x239B PUSH1 0x0 DUP4 ADD DUP5 PUSH2 0x2340 JUMP JUMPDEST SWAP3 SWAP2 POP POP JUMP JUMPDEST PUSH1 0x0 DUP1 REVERT JUMPDEST PUSH1 0x0 DUP1 REVERT JUMPDEST PUSH1 0x0 PUSH1 0x1F NOT PUSH1 0x1F DUP4 ADD AND SWAP1 POP SWAP2 SWAP1 POP JUMP JUMPDEST PUSH32 0x4E487B7100000000000000000000000000000000000000000000000000000000 PUSH1 0x0 MSTORE PUSH1 0x41 PUSH1 0x4 MSTORE PUSH1 0x24 PUSH1 0x0 REVERT JUMPDEST PUSH2 0x23F4 DUP3 PUSH2 0x23AB JUMP JUMPDEST DUP2 ADD DUP2 DUP2 LT PUSH8 0xFFFFFFFFFFFFFFFF DUP3 GT OR ISZERO PUSH2 0x2413 JUMPI PUSH2 0x2412 PUSH2 0x23BC JUMP JUMPDEST JUMPDEST DUP1 PUSH1 0x40 MSTORE POP POP POP JUMP JUMPDEST PUSH1 0x0 PUSH2 0x2426 PUSH2 0x21C0 JUMP JUMPDEST SWAP1 POP PUSH2 0x2432 DUP3 DUP3 PUSH2 0x23EB JUMP JUMPDEST SWAP2 SWAP1 POP JUMP JUMPDEST PUSH1 0x0 PUSH8 0xFFFFFFFFFFFFFFFF DUP3 GT ISZERO PUSH2 0x2452 JUMPI PUSH2 0x2451 PUSH2 0x23BC JUMP JUMPDEST JUMPDEST PUSH2 0x245B DUP3 PUSH2 0x23AB JUMP JUMPDEST SWAP1 POP PUSH1 0x20 DUP2 ADD SWAP1 POP SWAP2 SWAP1 POP JUMP JUMPDEST DUP3 DUP2 DUP4 CALLDATACOPY PUSH1 0x0 DUP4 DUP4 ADD MSTORE POP POP POP JUMP JUMPDEST PUSH1 0x0 PUSH2 0x248A PUSH2 0x2485 DUP5 PUSH2 0x2437 JUMP JUMPDEST PUSH2 0x241C JUMP JUMPDEST SWAP1 POP DUP3 DUP2 MSTORE PUSH1 0x20 DUP2 ADD DUP5 DUP5 DUP5 ADD GT ISZERO PUSH2 0x24A6 JUMPI PUSH2 0x24A5 PUSH2 0x23A6 JUMP JUMPDEST JUMPDEST PUSH2 0x24B1 DUP5 DUP3 DUP6 PUSH2 0x2468 JUMP JUMPDEST POP SWAP4 SWAP3 POP POP POP JUMP JUMPDEST PUSH1 0x0 DUP3 PUSH1 0x1F DUP4 ADD SLT PUSH2 0x24CE JUMPI PUSH2 0x24CD PUSH2 0x23A1 JUMP JUMPDEST JUMPDEST DUP2 CALLDATALOAD PUSH2 0x24DE DUP5 DUP3 PUSH1 0x20 DUP7 ADD PUSH2 0x2477 JUMP JUMPDEST SWAP2 POP POP SWAP3 SWAP2 POP POP JUMP JUMPDEST PUSH1 0x0 DUP1 PUSH1 0x0 DUP1 PUSH1 0x80 DUP6 DUP8 SUB SLT ISZERO PUSH2 0x2501 JUMPI PUSH2 0x2500 PUSH2 0x21CA JUMP JUMPDEST JUMPDEST PUSH1 0x0 PUSH2 0x250F DUP8 DUP3 DUP9 ADD PUSH2 0x221D JUMP JUMPDEST SWAP5 POP POP PUSH1 0x20 PUSH2 0x2520 DUP8 DUP3 DUP9 ADD PUSH2 0x2280 JUMP JUMPDEST SWAP4 POP POP PUSH1 0x40 PUSH2 0x2531 DUP8 DUP3 DUP9 ADD PUSH2 0x2280 JUMP JUMPDEST SWAP3 POP POP PUSH1 0x60 DUP6 ADD CALLDATALOAD PUSH8 0xFFFFFFFFFFFFFFFF DUP2 GT ISZERO PUSH2 0x2552 JUMPI PUSH2 0x2551 PUSH2 0x21CF JUMP JUMPDEST JUMPDEST PUSH2 0x255E DUP8 DUP3 DUP9 ADD PUSH2 0x24B9 JUMP JUMPDEST SWAP2 POP POP SWAP3 SWAP6 SWAP2 SWAP5 POP SWAP3 POP JUMP JUMPDEST PUSH2 0x2573 DUP2 PUSH2 0x22D5 JUMP JUMPDEST DUP3 MSTORE POP POP JUMP JUMPDEST PUSH1 0x0 PUSH2 0x120 DUP3 ADD SWAP1 POP PUSH2 0x258F PUSH1 0x0 DUP4 ADD DUP13 PUSH2 0x256A JUMP JUMPDEST PUSH2 0x259C PUSH1 0x20 DUP4 ADD DUP12 PUSH2 0x2340 JUMP JUMPDEST PUSH2 0x25A9 PUSH1 0x40 DUP4 ADD DUP11 PUSH2 0x2340 JUMP JUMPDEST PUSH2 0x25B6 PUSH1 0x60 DUP4 ADD DUP10 PUSH2 0x2340 JUMP JUMPDEST PUSH2 0x25C3 PUSH1 0x80 DUP4 ADD DUP9 PUSH2 0x2340 JUMP JUMPDEST PUSH2 0x25D0 PUSH1 0xA0 DUP4 ADD DUP8 PUSH2 0x2340 JUMP JUMPDEST PUSH2 0x25DD PUSH1 0xC0 DUP4 ADD DUP7 PUSH2 0x2340 JUMP JUMPDEST PUSH2 0x25EA PUSH1 0xE0 DUP4 ADD DUP6 PUSH2 0x2340 JUMP JUMPDEST PUSH2 0x25F8 PUSH2 0x100 DUP4 ADD DUP5 PUSH2 0x2340 JUMP JUMPDEST SWAP11 SWAP10 POP POP POP POP POP POP POP POP POP POP JUMP JUMPDEST PUSH32 0x4E487B7100000000000000000000000000000000000000000000000000000000 PUSH1 0x0 MSTORE PUSH1 0x11 PUSH1 0x4 MSTORE PUSH1 0x24 PUSH1 0x0 REVERT JUMPDEST PUSH1 0x0 PUSH2 0x2640 DUP3 PUSH2 0x225F JUMP JUMPDEST SWAP2 POP PUSH2 0x264B DUP4 PUSH2 0x225F JUMP JUMPDEST SWAP3 POP DUP3 DUP3 SUB SWAP1 POP DUP2 DUP2 GT ISZERO PUSH2 0x2663 JUMPI PUSH2 0x2662 PUSH2 0x2606 JUMP JUMPDEST JUMPDEST SWAP3 SWAP2 POP POP JUMP JUMPDEST PUSH1 0x0 PUSH2 0x2674 DUP3 PUSH2 0x225F JUMP JUMPDEST SWAP2 POP PUSH1 0x0 DUP3 SUB PUSH2 0x2687 JUMPI PUSH2 0x2686 PUSH2 0x2606 JUMP JUMPDEST JUMPDEST PUSH1 0x1 DUP3 SUB SWAP1 POP SWAP2 SWAP1 POP JUMP JUMPDEST PUSH1 0x0 PUSH2 0x269D DUP3 PUSH2 0x225F JUMP JUMPDEST SWAP2 POP PUSH2 0x26A8 DUP4 PUSH2 0x225F JUMP JUMPDEST SWAP3 POP DUP3 DUP3 ADD SWAP1 POP DUP1 DUP3 GT ISZERO PUSH2 0x26C0 JUMPI PUSH2 0x26BF PUSH2 0x2606 JUMP JUMPDEST JUMPDEST SWAP3 SWAP2 POP POP JUMP JUMPDEST PUSH1 0x0 DUP2 SWAP1 POP SWAP3 SWAP2 POP POP JUMP JUMPDEST PUSH32 0x6361720000000000000000000000000000000000000000000000000000000000 PUSH1 0x0 DUP3 ADD MSTORE POP JUMP JUMPDEST PUSH1 0x0 PUSH2 0x2707 PUSH1 0x3 DUP4 PUSH2 0x26C6 JUMP JUMPDEST SWAP2 POP PUSH2 0x2712 DUP3 PUSH2 0x26D1 JUMP JUMPDEST PUSH1 0x3 DUP3 ADD SWAP1 POP SWAP2 SWAP1 POP JUMP JUMPDEST PUSH1 0x0 PUSH2 0x2728 DUP3 PUSH2 0x26FA JUMP JUMPDEST SWAP2 POP DUP2 SWAP1 POP SWAP2 SWAP1 POP JUMP JUMPDEST PUSH1 0x0 DUP2 MLOAD SWAP1 POP SWAP2 SWAP1 POP JUMP JUMPDEST PUSH1 0x0 JUMPDEST DUP4 DUP2 LT ISZERO PUSH2 0x275B JUMPI DUP1 DUP3 ADD MLOAD DUP2 DUP5 ADD MSTORE PUSH1 0x20 DUP2 ADD SWAP1 POP PUSH2 0x2740 JUMP JUMPDEST PUSH1 0x0 DUP5 DUP5 ADD MSTORE POP POP POP POP JUMP JUMPDEST PUSH1 0x0 PUSH2 0x2772 DUP3 PUSH2 0x2732 JUMP JUMPDEST PUSH2 0x277C DUP2 DUP6 PUSH2 0x26C6 JUMP JUMPDEST SWAP4 POP PUSH2 0x278C DUP2 DUP6 PUSH1 0x20 DUP7 ADD PUSH2 0x273D JUMP JUMPDEST DUP1 DUP5 ADD SWAP2 POP POP SWAP3 SWAP2 POP POP JUMP JUMPDEST PUSH1 0x0 PUSH2 0x27A4 DUP3 DUP5 PUSH2 0x2767 JUMP JUMPDEST SWAP2 POP DUP2 SWAP1 POP SWAP3 SWAP2 POP POP JUMP JUMPDEST PUSH32 0x686F6D6500000000000000000000000000000000000000000000000000000000 PUSH1 0x0 DUP3 ADD MSTORE POP JUMP JUMPDEST PUSH1 0x0 PUSH2 0x27E5 PUSH1 0x4 DUP4 PUSH2 0x26C6 JUMP JUMPDEST SWAP2 POP PUSH2 0x27F0 DUP3 PUSH2 0x27AF JUMP JUMPDEST PUSH1 0x4 DUP3 ADD SWAP1 POP SWAP2 SWAP1 POP JUMP JUMPDEST PUSH1 0x0 PUSH2 0x2806 DUP3 PUSH2 0x27D8 JUMP JUMPDEST SWAP2 POP DUP2 SWAP1 POP SWAP2 SWAP1 POP JUMP JUMPDEST PUSH32 0x706572736F6E616C000000000000000000000000000000000000000000000000 PUSH1 0x0 DUP3 ADD MSTORE POP JUMP JUMPDEST PUSH1 0x0 PUSH2 0x2846 PUSH1 0x8 DUP4 PUSH2 0x26C6 JUMP JUMPDEST SWAP2 POP PUSH2 0x2851 DUP3 PUSH2 0x2810 JUMP JUMPDEST PUSH1 0x8 DUP3 ADD SWAP1 POP SWAP2 SWAP1 POP JUMP JUMPDEST PUSH1 0x0 PUSH2 0x2867 DUP3 PUSH2 0x2839 JUMP JUMPDEST SWAP2 POP DUP2 SWAP1 POP SWAP2 SWAP1 POP JUMP JUMPDEST PUSH1 0x0 DUP3 DUP3 MSTORE PUSH1 0x20 DUP3 ADD SWAP1 POP SWAP3 SWAP2 POP POP JUMP JUMPDEST PUSH32 0x696E76616C6964206C6F616E2074797065000000000000000000000000000000 PUSH1 0x0 DUP3 ADD MSTORE POP JUMP JUMPDEST PUSH1 0x0 PUSH2 0x28B8 PUSH1 0x11 DUP4 PUSH2 0x2871 JUMP JUMPDEST SWAP2 POP PUSH2 0x28C3 DUP3 PUSH2 0x2882 JUMP JUMPDEST PUSH1 0x20 DUP3 ADD SWAP1 POP SWAP2 SWAP1 POP JUMP JUMPDEST PUSH1 0x0 PUSH1 0x20 DUP3 ADD SWAP1 POP DUP2 DUP2 SUB PUSH1 0x0 DUP4 ADD MSTORE PUSH2 0x28E7 DUP2 PUSH2 0x28AB JUMP JUMPDEST SWAP1 POP SWAP2 SWAP1 POP JUMP JUMPDEST PUSH32 0x796F752068617665206F6E6520636172206C6F616E2120796F752063616E2774 PUSH1 0x0 DUP3 ADD MSTORE PUSH32 0x2074616B6520616E6F7468657221000000000000000000000000000000000000 PUSH1 0x20 DUP3 ADD MSTORE POP JUMP JUMPDEST PUSH1 0x0 PUSH2 0x294A PUSH1 0x2E DUP4 PUSH2 0x2871 JUMP JUMPDEST SWAP2 POP PUSH2 0x2955 DUP3 PUSH2 0x28EE JUMP JUMPDEST PUSH1 0x40 DUP3 ADD SWAP1 POP SWAP2 SWAP1 POP JUMP JUMPDEST PUSH1 0x0 PUSH1 0x20 DUP3 ADD SWAP1 POP DUP2 DUP2 SUB PUSH1 0x0 DUP4 ADD MSTORE PUSH2 0x2979 DUP2 PUSH2 0x293D JUMP JUMPDEST SWAP1 POP SWAP2 SWAP1 POP JUMP JUMPDEST PUSH1 0x0 PUSH2 0x298B DUP3 PUSH2 0x225F JUMP JUMPDEST SWAP2 POP PUSH2 0x2996 DUP4 PUSH2 0x225F JUMP JUMPDEST SWAP3 POP DUP3 DUP3 MUL PUSH2 0x29A4 DUP2 PUSH2 0x225F JUMP JUMPDEST SWAP2 POP DUP3 DUP3 DIV DUP5 EQ DUP4 ISZERO OR PUSH2 0x29BB JUMPI PUSH2 0x29BA PUSH2 0x2606 JUMP JUMPDEST JUMPDEST POP SWAP3 SWAP2 POP POP JUMP JUMPDEST PUSH32 0x4E487B7100000000000000000000000000000000000000000000000000000000 PUSH1 0x0 MSTORE PUSH1 0x12 PUSH1 0x4 MSTORE PUSH1 0x24 PUSH1 0x0 REVERT JUMPDEST PUSH1 0x0 PUSH2 0x29FC DUP3 PUSH2 0x225F JUMP JUMPDEST SWAP2 POP PUSH2 0x2A07 DUP4 PUSH2 0x225F JUMP JUMPDEST SWAP3 POP DUP3 PUSH2 0x2A17 JUMPI PUSH2 0x2A16 PUSH2 0x29C2 JUMP JUMPDEST JUMPDEST DUP3 DUP3 DIV SWAP1 POP SWAP3 SWAP2 POP POP JUMP JUMPDEST PUSH32 0x796F75206861766520616C7265616479206F6E6520686F6D65206C6F616E2120 PUSH1 0x0 DUP3 ADD MSTORE PUSH32 0x796F752063616E27742074616B6520616E6F7468657221000000000000000000 PUSH1 0x20 DUP3 ADD MSTORE POP JUMP JUMPDEST PUSH1 0x0 PUSH2 0x2A7E PUSH1 0x37 DUP4 PUSH2 0x2871 JUMP JUMPDEST SWAP2 POP PUSH2 0x2A89 DUP3 PUSH2 0x2A22 JUMP JUMPDEST PUSH1 0x40 DUP3 ADD SWAP1 POP SWAP2 SWAP1 POP JUMP JUMPDEST PUSH1 0x0 PUSH1 0x20 DUP3 ADD SWAP1 POP DUP2 DUP2 SUB PUSH1 0x0 DUP4 ADD MSTORE PUSH2 0x2AAD DUP2 PUSH2 0x2A71 JUMP JUMPDEST SWAP1 POP SWAP2 SWAP1 POP JUMP JUMPDEST PUSH32 0x796F752068617665206F6E6520706572736F6E616C206C6F616E2120796F7520 PUSH1 0x0 DUP3 ADD MSTORE PUSH32 0x63616E27742074616B6520616E6F746865722100000000000000000000000000 PUSH1 0x20 DUP3 ADD MSTORE POP JUMP JUMPDEST PUSH1 0x0 PUSH2 0x2B10 PUSH1 0x33 DUP4 PUSH2 0x2871 JUMP JUMPDEST SWAP2 POP PUSH2 0x2B1B DUP3 PUSH2 0x2AB4 JUMP JUMPDEST PUSH1 0x40 DUP3 ADD SWAP1 POP SWAP2 SWAP1 POP JUMP JUMPDEST PUSH1 0x0 PUSH1 0x20 DUP3 ADD SWAP1 POP DUP2 DUP2 SUB PUSH1 0x0 DUP4 ADD MSTORE PUSH2 0x2B3F DUP2 PUSH2 0x2B03 JUMP JUMPDEST SWAP1 POP SWAP2 SWAP1 POP JUMP JUMPDEST PUSH32 0x596F75277265206E6F742074686520736D61727420636F6E7472616374206164 PUSH1 0x0 DUP3 ADD MSTORE PUSH32 0x6D696E2100000000000000000000000000000000000000000000000000000000 PUSH1 0x20 DUP3 ADD MSTORE POP JUMP JUMPDEST PUSH1 0x0 PUSH2 0x2BA2 PUSH1 0x24 DUP4 PUSH2 0x2871 JUMP JUMPDEST SWAP2 POP PUSH2 0x2BAD DUP3 PUSH2 0x2B46 JUMP JUMPDEST PUSH1 0x40 DUP3 ADD SWAP1 POP SWAP2 SWAP1 POP JUMP JUMPDEST PUSH1 0x0 PUSH1 0x20 DUP3 ADD SWAP1 POP DUP2 DUP2 SUB PUSH1 0x0 DUP4 ADD MSTORE PUSH2 0x2BD1 DUP2 PUSH2 0x2B95 JUMP JUMPDEST SWAP1 POP SWAP2 SWAP1 POP JUMP JUMPDEST PUSH32 0x696E76616C696420616D6F756E74000000000000000000000000000000000000 PUSH1 0x0 DUP3 ADD MSTORE POP JUMP JUMPDEST PUSH1 0x0 PUSH2 0x2C0E PUSH1 0xE DUP4 PUSH2 0x2871 JUMP JUMPDEST SWAP2 POP PUSH2 0x2C19 DUP3 PUSH2 0x2BD8 JUMP JUMPDEST PUSH1 0x20 DUP3 ADD SWAP1 POP SWAP2 SWAP1 POP JUMP JUMPDEST PUSH1 0x0 PUSH1 0x20 DUP3 ADD SWAP1 POP DUP2 DUP2 SUB PUSH1 0x0 DUP4 ADD MSTORE PUSH2 0x2C3D DUP2 PUSH2 0x2C01 JUMP JUMPDEST SWAP1 POP SWAP2 SWAP1 POP JUMP INVALID LOG2 PUSH5 0x6970667358 0x22 SLT KECCAK256 MSTORE8 STOP NUMBER SSTORE DUP8 CALLCODE 0xCA 0xEB 0xD 0xD7 PUSH11 0xE011ED9E74DD0772FBC9A2 CALLDATASIZE LOG0 0xE6 0x2E DUP11 DUP1 ADDRESS CALLDATACOPY DUP6 SWAP12 PUSH5 0x736F6C6343 STOP ADDMOD SLT STOP CALLER "
				},
				"gasEstimates": {
					"creation": {
						"codeDepositCost": "2277200",
						"executionCost": "26700",
						"totalCost": "2303900"
					},
					"external": {
						"": "196",
						"Loan(address,uint256,uint256,string)": "infinite",
						"addFund()": "infinite",
						"carLoanDetails(address)": "infinite",
						"deposit(address,uint256)": "infinite",
						"getContractBalance()": "406",
						"homeLoanDetails(address)": "infinite",
						"payEmi(address)": "infinite",
						"personalLoanDetails(address)": "infinite",
						"users(address)": "infinite",
						"withdraw(address,uint256)": "infinite"
					}
				},
				"methodIdentifiers": {
					"Loan(address,uint256,uint256,string)": "9283ea63",
					"addFund()": "a2f09dfa",
					"carLoanDetails(address)": "65d6d088",
					"deposit(address,uint256)": "47e7ef24",
					"getContractBalance()": "6f9fb98a",
					"homeLoanDetails(address)": "d77799a5",
					"payEmi(address)": "114e3900",
					"personalLoanDetails(address)": "8172aa0a",
					"users(address)": "a87430ba",
					"withdraw(address,uint256)": "f3fef3a3"
				}
			},
			"storageLayout": {
				"storage": [
					{
						"astId": 23,
						"contract": "Project/banking.sol:MyContract",
						"label": "admin",
						"offset": 0,
						"slot": "0",
						"type": "t_address"
					},
					{
						"astId": 75,
						"contract": "Project/banking.sol:MyContract",
						"label": "users",
						"offset": 0,
						"slot": "1",
						"type": "t_mapping(t_address,t_struct(user)21_storage)"
					}
				],
				"types": {
					"t_address": {
						"encoding": "inplace",
						"label": "address",
						"numberOfBytes": "20"
					},
					"t_mapping(t_address,t_struct(user)21_storage)": {
						"encoding": "mapping",
						"key": "t_address",
						"label": "mapping(address => struct MyContract.user)",
						"numberOfBytes": "32",
						"value": "t_struct(user)21_storage"
					},
					"t_struct(user)21_storage": {
						"encoding": "inplace",
						"label": "struct MyContract.user",
						"members": [
							{
								"astId": 4,
								"contract": "Project/banking.sol:MyContract",
								"label": "user_id",
								"offset": 0,
								"slot": "0",
								"type": "t_address"
							},
							{
								"astId": 6,
								"contract": "Project/banking.sol:MyContract",
								"label": "balance",
								"offset": 0,
								"slot": "1",
								"type": "t_uint256"
							},
							{
								"astId": 8,
								"contract": "Project/banking.sol:MyContract",
								"label": "loan",
								"offset": 0,
								"slot": "2",
								"type": "t_uint256"
							},
							{
								"astId": 10,
								"contract": "Project/banking.sol:MyContract",
								"label": "emi",
								"offset": 0,
								"slot": "3",
								"type": "t_uint256"
							},
							{
								"astId": 12,
								"contract": "Project/banking.sol:MyContract",
								"label": "timeperiod",
								"offset": 0,
								"slot": "4",
								"type": "t_uint256"
							},
							{
								"astId": 14,
								"contract": "Project/banking.sol:MyContract",
								"label": "carLoan",
								"offset": 0,
								"slot": "5",
								"type": "t_uint256"
							},
							{
								"astId": 16,
								"contract": "Project/banking.sol:MyContract",
								"label": "homeLoan",
								"offset": 0,
								"slot": "6",
								"type": "t_uint256"
							},
							{
								"astId": 18,
								"contract": "Project/banking.sol:MyContract",
								"label": "personalLoan",
								"offset": 0,
								"slot": "7",
								"type": "t_uint256"
							},
							{
								"astId": 20,
								"contract": "Project/banking.sol:MyContract",
								"label": "carEmi",
								"offset": 0,
								"slot": "8",
								"type": "t_uint256"
							}
						],
						"numberOfBytes": "288"
					},
					"t_uint256": {
						"encoding": "inplace",
						"label": "uint256",
						"numberOfBytes": "32"
					}
				}
			},
			"userdoc": {
				"kind": "user",
				"methods": {},
				"version": 1
			}
		}
	}
}