{
	"TASK/Random_num.sol": {
		"Random_num": {
			"abi": [
				{
					"inputs": [
						{
							"internalType": "uint256",
							"name": "_modulus",
							"type": "uint256"
						}
					],
					"name": "randMod",
					"outputs": [
						{
							"internalType": "uint256",
							"name": "",
							"type": "uint256"
						}
					],
					"stateMutability": "nonpayable",
					"type": "function"
				}
			],
			"devdoc": {
				"kind": "dev",
				"methods": {},
				"version": 1
			},
			"evm": {
				"assembly": "    /* \"TASK/Random_num.sol\":74:525  contract Random_num{... */\n  mstore(0x40, 0x80)\n    /* \"TASK/Random_num.sol\":207:208  0 */\n  0x00\n    /* \"TASK/Random_num.sol\":190:208  uint randNonce = 0 */\n  dup1\n  sstore\n    /* \"TASK/Random_num.sol\":74:525  contract Random_num{... */\n  callvalue\n  dup1\n  iszero\n  tag_1\n  jumpi\n  0x00\n  dup1\n  revert\ntag_1:\n  pop\n  dataSize(sub_0)\n  dup1\n  dataOffset(sub_0)\n  0x00\n  codecopy\n  0x00\n  return\nstop\n\nsub_0: assembly {\n        /* \"TASK/Random_num.sol\":74:525  contract Random_num{... */\n      mstore(0x40, 0x80)\n      callvalue\n      dup1\n      iszero\n      tag_1\n      jumpi\n      0x00\n      dup1\n      revert\n    tag_1:\n      pop\n      jumpi(tag_2, lt(calldatasize, 0x04))\n      shr(0xe0, calldataload(0x00))\n      dup1\n      0x805553e8\n      eq\n      tag_3\n      jumpi\n    tag_2:\n      0x00\n      dup1\n      revert\n        /* \"TASK/Random_num.sol\":282:522  function randMod(uint _modulus) external returns(uint)... */\n    tag_3:\n      tag_4\n      0x04\n      dup1\n      calldatasize\n      sub\n      dup2\n      add\n      swap1\n      tag_5\n      swap2\n      swap1\n      tag_6\n      jump\t// in\n    tag_5:\n      tag_7\n      jump\t// in\n    tag_4:\n      mload(0x40)\n      tag_8\n      swap2\n      swap1\n      tag_9\n      jump\t// in\n    tag_8:\n      mload(0x40)\n      dup1\n      swap2\n      sub\n      swap1\n      return\n    tag_7:\n        /* \"TASK/Random_num.sol\":331:335  uint */\n      0x00\n        /* \"TASK/Random_num.sol\":380:389  randNonce */\n      dup1\n      0x00\n        /* \"TASK/Random_num.sol\":380:391  randNonce++ */\n      dup2\n      sload\n      dup1\n      swap3\n      swap2\n      swap1\n      tag_11\n      swap1\n      tag_12\n      jump\t// in\n    tag_11:\n      swap2\n      swap1\n      pop\n      sstore\n      pop\n        /* \"TASK/Random_num.sol\":401:409  uint ran */\n      0x00\n        /* \"TASK/Random_num.sol\":485:493  _modulus */\n      dup3\n        /* \"TASK/Random_num.sol\":443:458  block.timestamp */\n      timestamp\n        /* \"TASK/Random_num.sol\":459:469  msg.sender */\n      caller\n        /* \"TASK/Random_num.sol\":470:479  randNonce */\n      sload(0x00)\n        /* \"TASK/Random_num.sol\":426:480  abi.encodePacked(block.timestamp,msg.sender,randNonce) */\n      add(0x20, mload(0x40))\n      tag_13\n      swap4\n      swap3\n      swap2\n      swap1\n      tag_14\n      jump\t// in\n    tag_13:\n      mload(0x40)\n      0x20\n      dup2\n      dup4\n      sub\n      sub\n      dup2\n      mstore\n      swap1\n      0x40\n      mstore\n        /* \"TASK/Random_num.sol\":416:481  keccak256(abi.encodePacked(block.timestamp,msg.sender,randNonce)) */\n      dup1\n      mload\n      swap1\n      0x20\n      add\n      keccak256\n        /* \"TASK/Random_num.sol\":411:482  uint(keccak256(abi.encodePacked(block.timestamp,msg.sender,randNonce))) */\n      0x00\n      shr\n        /* \"TASK/Random_num.sol\":411:493  uint(keccak256(abi.encodePacked(block.timestamp,msg.sender,randNonce))) % _modulus */\n      tag_15\n      swap2\n      swap1\n      tag_16\n      jump\t// in\n    tag_15:\n        /* \"TASK/Random_num.sol\":401:493  uint ran= uint(keccak256(abi.encodePacked(block.timestamp,msg.sender,randNonce))) % _modulus */\n      swap1\n      pop\n        /* \"TASK/Random_num.sol\":511:514  ran */\n      dup1\n        /* \"TASK/Random_num.sol\":504:514  return ran */\n      swap2\n      pop\n      pop\n        /* \"TASK/Random_num.sol\":282:522  function randMod(uint _modulus) external returns(uint)... */\n      swap2\n      swap1\n      pop\n      jump\t// out\n        /* \"#utility.yul\":88:205   */\n    tag_18:\n        /* \"#utility.yul\":197:198   */\n      0x00\n        /* \"#utility.yul\":194:195   */\n      dup1\n        /* \"#utility.yul\":187:199   */\n      revert\n        /* \"#utility.yul\":334:411   */\n    tag_20:\n        /* \"#utility.yul\":371:378   */\n      0x00\n        /* \"#utility.yul\":400:405   */\n      dup2\n        /* \"#utility.yul\":389:405   */\n      swap1\n      pop\n        /* \"#utility.yul\":334:411   */\n      swap2\n      swap1\n      pop\n      jump\t// out\n        /* \"#utility.yul\":417:539   */\n    tag_21:\n        /* \"#utility.yul\":490:514   */\n      tag_40\n        /* \"#utility.yul\":508:513   */\n      dup2\n        /* \"#utility.yul\":490:514   */\n      tag_20\n      jump\t// in\n    tag_40:\n        /* \"#utility.yul\":483:488   */\n      dup2\n        /* \"#utility.yul\":480:515   */\n      eq\n        /* \"#utility.yul\":470:533   */\n      tag_41\n      jumpi\n        /* \"#utility.yul\":529:530   */\n      0x00\n        /* \"#utility.yul\":526:527   */\n      dup1\n        /* \"#utility.yul\":519:531   */\n      revert\n        /* \"#utility.yul\":470:533   */\n    tag_41:\n        /* \"#utility.yul\":417:539   */\n      pop\n      jump\t// out\n        /* \"#utility.yul\":545:684   */\n    tag_22:\n        /* \"#utility.yul\":591:596   */\n      0x00\n        /* \"#utility.yul\":629:635   */\n      dup2\n        /* \"#utility.yul\":616:636   */\n      calldataload\n        /* \"#utility.yul\":607:636   */\n      swap1\n      pop\n        /* \"#utility.yul\":645:678   */\n      tag_43\n        /* \"#utility.yul\":672:677   */\n      dup2\n        /* \"#utility.yul\":645:678   */\n      tag_21\n      jump\t// in\n    tag_43:\n        /* \"#utility.yul\":545:684   */\n      swap3\n      swap2\n      pop\n      pop\n      jump\t// out\n        /* \"#utility.yul\":690:1019   */\n    tag_6:\n        /* \"#utility.yul\":749:755   */\n      0x00\n        /* \"#utility.yul\":798:800   */\n      0x20\n        /* \"#utility.yul\":786:795   */\n      dup3\n        /* \"#utility.yul\":777:784   */\n      dup5\n        /* \"#utility.yul\":773:796   */\n      sub\n        /* \"#utility.yul\":769:801   */\n      slt\n        /* \"#utility.yul\":766:885   */\n      iszero\n      tag_45\n      jumpi\n        /* \"#utility.yul\":804:883   */\n      tag_46\n      tag_18\n      jump\t// in\n    tag_46:\n        /* \"#utility.yul\":766:885   */\n    tag_45:\n        /* \"#utility.yul\":924:925   */\n      0x00\n        /* \"#utility.yul\":949:1002   */\n      tag_47\n        /* \"#utility.yul\":994:1001   */\n      dup5\n        /* \"#utility.yul\":985:991   */\n      dup3\n        /* \"#utility.yul\":974:983   */\n      dup6\n        /* \"#utility.yul\":970:992   */\n      add\n        /* \"#utility.yul\":949:1002   */\n      tag_22\n      jump\t// in\n    tag_47:\n        /* \"#utility.yul\":939:1002   */\n      swap2\n      pop\n        /* \"#utility.yul\":895:1012   */\n      pop\n        /* \"#utility.yul\":690:1019   */\n      swap3\n      swap2\n      pop\n      pop\n      jump\t// out\n        /* \"#utility.yul\":1025:1143   */\n    tag_23:\n        /* \"#utility.yul\":1112:1136   */\n      tag_49\n        /* \"#utility.yul\":1130:1135   */\n      dup2\n        /* \"#utility.yul\":1112:1136   */\n      tag_20\n      jump\t// in\n    tag_49:\n        /* \"#utility.yul\":1107:1110   */\n      dup3\n        /* \"#utility.yul\":1100:1137   */\n      mstore\n        /* \"#utility.yul\":1025:1143   */\n      pop\n      pop\n      jump\t// out\n        /* \"#utility.yul\":1149:1371   */\n    tag_9:\n        /* \"#utility.yul\":1242:1246   */\n      0x00\n        /* \"#utility.yul\":1280:1282   */\n      0x20\n        /* \"#utility.yul\":1269:1278   */\n      dup3\n        /* \"#utility.yul\":1265:1283   */\n      add\n        /* \"#utility.yul\":1257:1283   */\n      swap1\n      pop\n        /* \"#utility.yul\":1293:1364   */\n      tag_51\n        /* \"#utility.yul\":1361:1362   */\n      0x00\n        /* \"#utility.yul\":1350:1359   */\n      dup4\n        /* \"#utility.yul\":1346:1363   */\n      add\n        /* \"#utility.yul\":1337:1343   */\n      dup5\n        /* \"#utility.yul\":1293:1364   */\n      tag_23\n      jump\t// in\n    tag_51:\n        /* \"#utility.yul\":1149:1371   */\n      swap3\n      swap2\n      pop\n      pop\n      jump\t// out\n        /* \"#utility.yul\":1377:1557   */\n    tag_24:\n        /* \"#utility.yul\":1425:1502   */\n      0x4e487b7100000000000000000000000000000000000000000000000000000000\n        /* \"#utility.yul\":1422:1423   */\n      0x00\n        /* \"#utility.yul\":1415:1503   */\n      mstore\n        /* \"#utility.yul\":1522:1526   */\n      0x11\n        /* \"#utility.yul\":1519:1520   */\n      0x04\n        /* \"#utility.yul\":1512:1527   */\n      mstore\n        /* \"#utility.yul\":1546:1550   */\n      0x24\n        /* \"#utility.yul\":1543:1544   */\n      0x00\n        /* \"#utility.yul\":1536:1551   */\n      revert\n        /* \"#utility.yul\":1563:1796   */\n    tag_12:\n        /* \"#utility.yul\":1602:1605   */\n      0x00\n        /* \"#utility.yul\":1625:1649   */\n      tag_54\n        /* \"#utility.yul\":1643:1648   */\n      dup3\n        /* \"#utility.yul\":1625:1649   */\n      tag_20\n      jump\t// in\n    tag_54:\n        /* \"#utility.yul\":1616:1649   */\n      swap2\n      pop\n        /* \"#utility.yul\":1671:1737   */\n      0xffffffffffffffffffffffffffffffffffffffffffffffffffffffffffffffff\n        /* \"#utility.yul\":1664:1669   */\n      dup3\n        /* \"#utility.yul\":1661:1738   */\n      sub\n        /* \"#utility.yul\":1658:1761   */\n      tag_55\n      jumpi\n        /* \"#utility.yul\":1741:1759   */\n      tag_56\n      tag_24\n      jump\t// in\n    tag_56:\n        /* \"#utility.yul\":1658:1761   */\n    tag_55:\n        /* \"#utility.yul\":1788:1789   */\n      0x01\n        /* \"#utility.yul\":1781:1786   */\n      dup3\n        /* \"#utility.yul\":1777:1790   */\n      add\n        /* \"#utility.yul\":1770:1790   */\n      swap1\n      pop\n        /* \"#utility.yul\":1563:1796   */\n      swap2\n      swap1\n      pop\n      jump\t// out\n        /* \"#utility.yul\":1802:1881   */\n    tag_25:\n        /* \"#utility.yul\":1841:1848   */\n      0x00\n        /* \"#utility.yul\":1870:1875   */\n      dup2\n        /* \"#utility.yul\":1859:1875   */\n      swap1\n      pop\n        /* \"#utility.yul\":1802:1881   */\n      swap2\n      swap1\n      pop\n      jump\t// out\n        /* \"#utility.yul\":1887:2044   */\n    tag_26:\n        /* \"#utility.yul\":1992:2037   */\n      tag_59\n        /* \"#utility.yul\":2012:2036   */\n      tag_60\n        /* \"#utility.yul\":2030:2035   */\n      dup3\n        /* \"#utility.yul\":2012:2036   */\n      tag_20\n      jump\t// in\n    tag_60:\n        /* \"#utility.yul\":1992:2037   */\n      tag_25\n      jump\t// in\n    tag_59:\n        /* \"#utility.yul\":1987:1990   */\n      dup3\n        /* \"#utility.yul\":1980:2038   */\n      mstore\n        /* \"#utility.yul\":1887:2044   */\n      pop\n      pop\n      jump\t// out\n        /* \"#utility.yul\":2050:2176   */\n    tag_27:\n        /* \"#utility.yul\":2087:2094   */\n      0x00\n        /* \"#utility.yul\":2127:2169   */\n      0xffffffffffffffffffffffffffffffffffffffff\n        /* \"#utility.yul\":2120:2125   */\n      dup3\n        /* \"#utility.yul\":2116:2170   */\n      and\n        /* \"#utility.yul\":2105:2170   */\n      swap1\n      pop\n        /* \"#utility.yul\":2050:2176   */\n      swap2\n      swap1\n      pop\n      jump\t// out\n        /* \"#utility.yul\":2182:2278   */\n    tag_28:\n        /* \"#utility.yul\":2219:2226   */\n      0x00\n        /* \"#utility.yul\":2248:2272   */\n      tag_63\n        /* \"#utility.yul\":2266:2271   */\n      dup3\n        /* \"#utility.yul\":2248:2272   */\n      tag_27\n      jump\t// in\n    tag_63:\n        /* \"#utility.yul\":2237:2272   */\n      swap1\n      pop\n        /* \"#utility.yul\":2182:2278   */\n      swap2\n      swap1\n      pop\n      jump\t// out\n        /* \"#utility.yul\":2284:2378   */\n    tag_29:\n        /* \"#utility.yul\":2317:2325   */\n      0x00\n        /* \"#utility.yul\":2365:2370   */\n      dup2\n        /* \"#utility.yul\":2361:2363   */\n      0x60\n        /* \"#utility.yul\":2357:2371   */\n      shl\n        /* \"#utility.yul\":2336:2371   */\n      swap1\n      pop\n        /* \"#utility.yul\":2284:2378   */\n      swap2\n      swap1\n      pop\n      jump\t// out\n        /* \"#utility.yul\":2384:2478   */\n    tag_30:\n        /* \"#utility.yul\":2423:2430   */\n      0x00\n        /* \"#utility.yul\":2452:2472   */\n      tag_66\n        /* \"#utility.yul\":2466:2471   */\n      dup3\n        /* \"#utility.yul\":2452:2472   */\n      tag_29\n      jump\t// in\n    tag_66:\n        /* \"#utility.yul\":2441:2472   */\n      swap1\n      pop\n        /* \"#utility.yul\":2384:2478   */\n      swap2\n      swap1\n      pop\n      jump\t// out\n        /* \"#utility.yul\":2484:2584   */\n    tag_31:\n        /* \"#utility.yul\":2523:2530   */\n      0x00\n        /* \"#utility.yul\":2552:2578   */\n      tag_68\n        /* \"#utility.yul\":2572:2577   */\n      dup3\n        /* \"#utility.yul\":2552:2578   */\n      tag_30\n      jump\t// in\n    tag_68:\n        /* \"#utility.yul\":2541:2578   */\n      swap1\n      pop\n        /* \"#utility.yul\":2484:2584   */\n      swap2\n      swap1\n      pop\n      jump\t// out\n        /* \"#utility.yul\":2590:2747   */\n    tag_32:\n        /* \"#utility.yul\":2695:2740   */\n      tag_70\n        /* \"#utility.yul\":2715:2739   */\n      tag_71\n        /* \"#utility.yul\":2733:2738   */\n      dup3\n        /* \"#utility.yul\":2715:2739   */\n      tag_28\n      jump\t// in\n    tag_71:\n        /* \"#utility.yul\":2695:2740   */\n      tag_31\n      jump\t// in\n    tag_70:\n        /* \"#utility.yul\":2690:2693   */\n      dup3\n        /* \"#utility.yul\":2683:2741   */\n      mstore\n        /* \"#utility.yul\":2590:2747   */\n      pop\n      pop\n      jump\t// out\n        /* \"#utility.yul\":2753:3291   */\n    tag_14:\n        /* \"#utility.yul\":2921:2924   */\n      0x00\n        /* \"#utility.yul\":2936:3011   */\n      tag_73\n        /* \"#utility.yul\":3007:3010   */\n      dup3\n        /* \"#utility.yul\":2998:3004   */\n      dup7\n        /* \"#utility.yul\":2936:3011   */\n      tag_26\n      jump\t// in\n    tag_73:\n        /* \"#utility.yul\":3036:3038   */\n      0x20\n        /* \"#utility.yul\":3031:3034   */\n      dup3\n        /* \"#utility.yul\":3027:3039   */\n      add\n        /* \"#utility.yul\":3020:3039   */\n      swap2\n      pop\n        /* \"#utility.yul\":3049:3124   */\n      tag_74\n        /* \"#utility.yul\":3120:3123   */\n      dup3\n        /* \"#utility.yul\":3111:3117   */\n      dup6\n        /* \"#utility.yul\":3049:3124   */\n      tag_32\n      jump\t// in\n    tag_74:\n        /* \"#utility.yul\":3149:3151   */\n      0x14\n        /* \"#utility.yul\":3144:3147   */\n      dup3\n        /* \"#utility.yul\":3140:3152   */\n      add\n        /* \"#utility.yul\":3133:3152   */\n      swap2\n      pop\n        /* \"#utility.yul\":3162:3237   */\n      tag_75\n        /* \"#utility.yul\":3233:3236   */\n      dup3\n        /* \"#utility.yul\":3224:3230   */\n      dup5\n        /* \"#utility.yul\":3162:3237   */\n      tag_26\n      jump\t// in\n    tag_75:\n        /* \"#utility.yul\":3262:3264   */\n      0x20\n        /* \"#utility.yul\":3257:3260   */\n      dup3\n        /* \"#utility.yul\":3253:3265   */\n      add\n        /* \"#utility.yul\":3246:3265   */\n      swap2\n      pop\n        /* \"#utility.yul\":3282:3285   */\n      dup2\n        /* \"#utility.yul\":3275:3285   */\n      swap1\n      pop\n        /* \"#utility.yul\":2753:3291   */\n      swap5\n      swap4\n      pop\n      pop\n      pop\n      pop\n      jump\t// out\n        /* \"#utility.yul\":3297:3477   */\n    tag_33:\n        /* \"#utility.yul\":3345:3422   */\n      0x4e487b7100000000000000000000000000000000000000000000000000000000\n        /* \"#utility.yul\":3342:3343   */\n      0x00\n        /* \"#utility.yul\":3335:3423   */\n      mstore\n        /* \"#utility.yul\":3442:3446   */\n      0x12\n        /* \"#utility.yul\":3439:3440   */\n      0x04\n        /* \"#utility.yul\":3432:3447   */\n      mstore\n        /* \"#utility.yul\":3466:3470   */\n      0x24\n        /* \"#utility.yul\":3463:3464   */\n      0x00\n        /* \"#utility.yul\":3456:3471   */\n      revert\n        /* \"#utility.yul\":3483:3659   */\n    tag_16:\n        /* \"#utility.yul\":3515:3516   */\n      0x00\n        /* \"#utility.yul\":3532:3552   */\n      tag_78\n        /* \"#utility.yul\":3550:3551   */\n      dup3\n        /* \"#utility.yul\":3532:3552   */\n      tag_20\n      jump\t// in\n    tag_78:\n        /* \"#utility.yul\":3527:3552   */\n      swap2\n      pop\n        /* \"#utility.yul\":3566:3586   */\n      tag_79\n        /* \"#utility.yul\":3584:3585   */\n      dup4\n        /* \"#utility.yul\":3566:3586   */\n      tag_20\n      jump\t// in\n    tag_79:\n        /* \"#utility.yul\":3561:3586   */\n      swap3\n      pop\n        /* \"#utility.yul\":3605:3606   */\n      dup3\n        /* \"#utility.yul\":3595:3630   */\n      tag_80\n      jumpi\n        /* \"#utility.yul\":3610:3628   */\n      tag_81\n      tag_33\n      jump\t// in\n    tag_81:\n        /* \"#utility.yul\":3595:3630   */\n    tag_80:\n        /* \"#utility.yul\":3651:3652   */\n      dup3\n        /* \"#utility.yul\":3648:3649   */\n      dup3\n        /* \"#utility.yul\":3644:3653   */\n      mod\n        /* \"#utility.yul\":3639:3653   */\n      swap1\n      pop\n        /* \"#utility.yul\":3483:3659   */\n      swap3\n      swap2\n      pop\n      pop\n      jump\t// out\n\n    auxdata: 0xa2646970667358221220009b592ea514b99bbbdf0e207d4331c8a31f14e3b48a74a0632bbc90c1605e3d64736f6c63430008120033\n}\n",
				"bytecode": {
					"linkReferences": {},
					"object": "60806040526000805534801561001457600080fd5b50610338806100246000396000f3fe608060405234801561001057600080fd5b506004361061002b5760003560e01c8063805553e814610030575b600080fd5b61004a600480360381019061004591906100fc565b610060565b6040516100579190610138565b60405180910390f35b600080600081548092919061007490610182565b9190505550600082423360005460405160200161009393929190610265565b6040516020818303038152906040528051906020012060001c6100b691906102d1565b905080915050919050565b600080fd5b6000819050919050565b6100d9816100c6565b81146100e457600080fd5b50565b6000813590506100f6816100d0565b92915050565b600060208284031215610112576101116100c1565b5b6000610120848285016100e7565b91505092915050565b610132816100c6565b82525050565b600060208201905061014d6000830184610129565b92915050565b7f4e487b7100000000000000000000000000000000000000000000000000000000600052601160045260246000fd5b600061018d826100c6565b91507fffffffffffffffffffffffffffffffffffffffffffffffffffffffffffffffff82036101bf576101be610153565b5b600182019050919050565b6000819050919050565b6101e56101e0826100c6565b6101ca565b82525050565b600073ffffffffffffffffffffffffffffffffffffffff82169050919050565b6000610216826101eb565b9050919050565b60008160601b9050919050565b60006102358261021d565b9050919050565b60006102478261022a565b9050919050565b61025f61025a8261020b565b61023c565b82525050565b600061027182866101d4565b602082019150610281828561024e565b60148201915061029182846101d4565b602082019150819050949350505050565b7f4e487b7100000000000000000000000000000000000000000000000000000000600052601260045260246000fd5b60006102dc826100c6565b91506102e7836100c6565b9250826102f7576102f66102a2565b5b82820690509291505056fea2646970667358221220009b592ea514b99bbbdf0e207d4331c8a31f14e3b48a74a0632bbc90c1605e3d64736f6c63430008120033",
					"opcodes": "PUSH1 0x80 PUSH1 0x40 MSTORE PUSH1 0x0 DUP1 SSTORE CALLVALUE DUP1 ISZERO PUSH2 0x14 JUMPI PUSH1 0x0 DUP1 REVERT JUMPDEST POP PUSH2 0x338 DUP1 PUSH2 0x24 PUSH1 0x0 CODECOPY PUSH1 0x0 RETURN INVALID PUSH1 0x80 PUSH1 0x40 MSTORE CALLVALUE DUP1 ISZERO PUSH2 0x10 JUMPI PUSH1 0x0 DUP1 REVERT JUMPDEST POP PUSH1 0x4 CALLDATASIZE LT PUSH2 0x2B JUMPI PUSH1 0x0 CALLDATALOAD PUSH1 0xE0 SHR DUP1 PUSH4 0x805553E8 EQ PUSH2 0x30 JUMPI JUMPDEST PUSH1 0x0 DUP1 REVERT JUMPDEST PUSH2 0x4A PUSH1 0x4 DUP1 CALLDATASIZE SUB DUP2 ADD SWAP1 PUSH2 0x45 SWAP2 SWAP1 PUSH2 0xFC JUMP JUMPDEST PUSH2 0x60 JUMP JUMPDEST PUSH1 0x40 MLOAD PUSH2 0x57 SWAP2 SWAP1 PUSH2 0x138 JUMP JUMPDEST PUSH1 0x40 MLOAD DUP1 SWAP2 SUB SWAP1 RETURN JUMPDEST PUSH1 0x0 DUP1 PUSH1 0x0 DUP2 SLOAD DUP1 SWAP3 SWAP2 SWAP1 PUSH2 0x74 SWAP1 PUSH2 0x182 JUMP JUMPDEST SWAP2 SWAP1 POP SSTORE POP PUSH1 0x0 DUP3 TIMESTAMP CALLER PUSH1 0x0 SLOAD PUSH1 0x40 MLOAD PUSH1 0x20 ADD PUSH2 0x93 SWAP4 SWAP3 SWAP2 SWAP1 PUSH2 0x265 JUMP JUMPDEST PUSH1 0x40 MLOAD PUSH1 0x20 DUP2 DUP4 SUB SUB DUP2 MSTORE SWAP1 PUSH1 0x40 MSTORE DUP1 MLOAD SWAP1 PUSH1 0x20 ADD KECCAK256 PUSH1 0x0 SHR PUSH2 0xB6 SWAP2 SWAP1 PUSH2 0x2D1 JUMP JUMPDEST SWAP1 POP DUP1 SWAP2 POP POP SWAP2 SWAP1 POP JUMP JUMPDEST PUSH1 0x0 DUP1 REVERT JUMPDEST PUSH1 0x0 DUP2 SWAP1 POP SWAP2 SWAP1 POP JUMP JUMPDEST PUSH2 0xD9 DUP2 PUSH2 0xC6 JUMP JUMPDEST DUP2 EQ PUSH2 0xE4 JUMPI PUSH1 0x0 DUP1 REVERT JUMPDEST POP JUMP JUMPDEST PUSH1 0x0 DUP2 CALLDATALOAD SWAP1 POP PUSH2 0xF6 DUP2 PUSH2 0xD0 JUMP JUMPDEST SWAP3 SWAP2 POP POP JUMP JUMPDEST PUSH1 0x0 PUSH1 0x20 DUP3 DUP5 SUB SLT ISZERO PUSH2 0x112 JUMPI PUSH2 0x111 PUSH2 0xC1 JUMP JUMPDEST JUMPDEST PUSH1 0x0 PUSH2 0x120 DUP5 DUP3 DUP6 ADD PUSH2 0xE7 JUMP JUMPDEST SWAP2 POP POP SWAP3 SWAP2 POP POP JUMP JUMPDEST PUSH2 0x132 DUP2 PUSH2 0xC6 JUMP JUMPDEST DUP3 MSTORE POP POP JUMP JUMPDEST PUSH1 0x0 PUSH1 0x20 DUP3 ADD SWAP1 POP PUSH2 0x14D PUSH1 0x0 DUP4 ADD DUP5 PUSH2 0x129 JUMP JUMPDEST SWAP3 SWAP2 POP POP JUMP JUMPDEST PUSH32 0x4E487B7100000000000000000000000000000000000000000000000000000000 PUSH1 0x0 MSTORE PUSH1 0x11 PUSH1 0x4 MSTORE PUSH1 0x24 PUSH1 0x0 REVERT JUMPDEST PUSH1 0x0 PUSH2 0x18D DUP3 PUSH2 0xC6 JUMP JUMPDEST SWAP2 POP PUSH32 0xFFFFFFFFFFFFFFFFFFFFFFFFFFFFFFFFFFFFFFFFFFFFFFFFFFFFFFFFFFFFFFFF DUP3 SUB PUSH2 0x1BF JUMPI PUSH2 0x1BE PUSH2 0x153 JUMP JUMPDEST JUMPDEST PUSH1 0x1 DUP3 ADD SWAP1 POP SWAP2 SWAP1 POP JUMP JUMPDEST PUSH1 0x0 DUP2 SWAP1 POP SWAP2 SWAP1 POP JUMP JUMPDEST PUSH2 0x1E5 PUSH2 0x1E0 DUP3 PUSH2 0xC6 JUMP JUMPDEST PUSH2 0x1CA JUMP JUMPDEST DUP3 MSTORE POP POP JUMP JUMPDEST PUSH1 0x0 PUSH20 0xFFFFFFFFFFFFFFFFFFFFFFFFFFFFFFFFFFFFFFFF DUP3 AND SWAP1 POP SWAP2 SWAP1 POP JUMP JUMPDEST PUSH1 0x0 PUSH2 0x216 DUP3 PUSH2 0x1EB JUMP JUMPDEST SWAP1 POP SWAP2 SWAP1 POP JUMP JUMPDEST PUSH1 0x0 DUP2 PUSH1 0x60 SHL SWAP1 POP SWAP2 SWAP1 POP JUMP JUMPDEST PUSH1 0x0 PUSH2 0x235 DUP3 PUSH2 0x21D JUMP JUMPDEST SWAP1 POP SWAP2 SWAP1 POP JUMP JUMPDEST PUSH1 0x0 PUSH2 0x247 DUP3 PUSH2 0x22A JUMP JUMPDEST SWAP1 POP SWAP2 SWAP1 POP JUMP JUMPDEST PUSH2 0x25F PUSH2 0x25A DUP3 PUSH2 0x20B JUMP JUMPDEST PUSH2 0x23C JUMP JUMPDEST DUP3 MSTORE POP POP JUMP JUMPDEST PUSH1 0x0 PUSH2 0x271 DUP3 DUP7 PUSH2 0x1D4 JUMP JUMPDEST PUSH1 0x20 DUP3 ADD SWAP2 POP PUSH2 0x281 DUP3 DUP6 PUSH2 0x24E JUMP JUMPDEST PUSH1 0x14 DUP3 ADD SWAP2 POP PUSH2 0x291 DUP3 DUP5 PUSH2 0x1D4 JUMP JUMPDEST PUSH1 0x20 DUP3 ADD SWAP2 POP DUP2 SWAP1 POP SWAP5 SWAP4 POP POP POP POP JUMP JUMPDEST PUSH32 0x4E487B7100000000000000000000000000000000000000000000000000000000 PUSH1 0x0 MSTORE PUSH1 0x12 PUSH1 0x4 MSTORE PUSH1 0x24 PUSH1 0x0 REVERT JUMPDEST PUSH1 0x0 PUSH2 0x2DC DUP3 PUSH2 0xC6 JUMP JUMPDEST SWAP2 POP PUSH2 0x2E7 DUP4 PUSH2 0xC6 JUMP JUMPDEST SWAP3 POP DUP3 PUSH2 0x2F7 JUMPI PUSH2 0x2F6 PUSH2 0x2A2 JUMP JUMPDEST JUMPDEST DUP3 DUP3 MOD SWAP1 POP SWAP3 SWAP2 POP POP JUMP INVALID LOG2 PUSH5 0x6970667358 0x22 SLT KECCAK256 STOP SWAP12 MSIZE 0x2E 0xA5 EQ 0xB9 SWAP12 0xBB 0xDF 0xE KECCAK256 PUSH30 0x4331C8A31F14E3B48A74A0632BBC90C1605E3D64736F6C63430008120033 "
				},
				"gasEstimates": {
					"creation": {
						"codeDepositCost": "164800",
						"executionCost": "5214",
						"totalCost": "170014"
					},
					"external": {
						"randMod(uint256)": "infinite"
					}
				},
				"methodIdentifiers": {
					"randMod(uint256)": "805553e8"
				}
			},
			"storageLayout": {
				"storage": [
					{
						"astId": 4,
						"contract": "TASK/Random_num.sol:Random_num",
						"label": "randNonce",
						"offset": 0,
						"slot": "0",
						"type": "t_uint256"
					}
				],
				"types": {
					"t_uint256": {
						"encoding": "inplace",
						"label": "uint256",
						"numberOfBytes": "32"
					}
				}
			},
			"userdoc": {
				"kind": "user",
				"methods": {},
				"version": 1
			}
		}
	}
}