{
	"TASK/Send_ether.sol": {
		"Send_ether": {
			"abi": [
				{
					"inputs": [],
					"stateMutability": "nonpayable",
					"type": "constructor"
				},
				{
					"inputs": [],
					"name": "getContractBalance",
					"outputs": [
						{
							"internalType": "uint256",
							"name": "",
							"type": "uint256"
						}
					],
					"stateMutability": "view",
					"type": "function"
				},
				{
					"inputs": [],
					"name": "getMyBalance",
					"outputs": [
						{
							"internalType": "uint256",
							"name": "",
							"type": "uint256"
						}
					],
					"stateMutability": "view",
					"type": "function"
				},
				{
					"inputs": [
						{
							"internalType": "address payable",
							"name": "receiver",
							"type": "address"
						}
					],
					"name": "sendMoney",
					"outputs": [],
					"stateMutability": "payable",
					"type": "function"
				},
				{
					"inputs": [],
					"name": "withdrawContractBal",
					"outputs": [],
					"stateMutability": "nonpayable",
					"type": "function"
				},
				{
					"stateMutability": "payable",
					"type": "receive"
				}
			],
			"devdoc": {
				"kind": "dev",
				"methods": {},
				"version": 1
			},
			"evm": {
				"assembly": "    /* \"TASK/Send_ether.sol\":70:927  contract Send_ether {... */\n  mstore(0x40, 0x80)\n    /* \"TASK/Send_ether.sol\":116:165  constructor() {... */\n  callvalue\n  dup1\n  iszero\n  tag_1\n  jumpi\n  0x00\n  dup1\n  revert\ntag_1:\n  pop\n    /* \"TASK/Send_ether.sol\":148:158  msg.sender */\n  caller\n    /* \"TASK/Send_ether.sol\":140:145  admin */\n  0x00\n  dup1\n    /* \"TASK/Send_ether.sol\":140:158  admin = msg.sender */\n  0x0100\n  exp\n  dup2\n  sload\n  dup2\n  0xffffffffffffffffffffffffffffffffffffffff\n  mul\n  not\n  and\n  swap1\n  dup4\n  0xffffffffffffffffffffffffffffffffffffffff\n  and\n  mul\n  or\n  swap1\n  sstore\n  pop\n    /* \"TASK/Send_ether.sol\":70:927  contract Send_ether {... */\n  dataSize(sub_0)\n  dup1\n  dataOffset(sub_0)\n  0x00\n  codecopy\n  0x00\n  return\nstop\n\nsub_0: assembly {\n        /* \"TASK/Send_ether.sol\":70:927  contract Send_ether {... */\n      mstore(0x40, 0x80)\n      jumpi(tag_1, lt(calldatasize, 0x04))\n      shr(0xe0, calldataload(0x00))\n      dup1\n      0x338ccd78\n      eq\n      tag_3\n      jumpi\n      dup1\n      0x4c738909\n      eq\n      tag_4\n      jumpi\n      dup1\n      0x4ff404f1\n      eq\n      tag_5\n      jumpi\n      dup1\n      0x6f9fb98a\n      eq\n      tag_6\n      jumpi\n      jump(tag_2)\n    tag_1:\n      jumpi(tag_2, calldatasize)\n      stop\n    tag_2:\n      0x00\n      dup1\n      revert\n        /* \"TASK/Send_ether.sol\":206:521  function sendMoney(address payable receiver) public payable {... */\n    tag_3:\n      tag_9\n      0x04\n      dup1\n      calldatasize\n      sub\n      dup2\n      add\n      swap1\n      tag_10\n      swap2\n      swap1\n      tag_11\n      jump\t// in\n    tag_10:\n      tag_12\n      jump\t// in\n    tag_9:\n      stop\n        /* \"TASK/Send_ether.sol\":638:734  function getMyBalance() public view returns (uint256) {... */\n    tag_4:\n      callvalue\n      dup1\n      iszero\n      tag_13\n      jumpi\n      0x00\n      dup1\n      revert\n    tag_13:\n      pop\n      tag_14\n      tag_15\n      jump\t// in\n    tag_14:\n      mload(0x40)\n      tag_16\n      swap2\n      swap1\n      tag_17\n      jump\t// in\n    tag_16:\n      mload(0x40)\n      dup1\n      swap2\n      sub\n      swap1\n      return\n        /* \"TASK/Send_ether.sol\":740:925  function withdrawContractBal() public {... */\n    tag_5:\n      callvalue\n      dup1\n      iszero\n      tag_18\n      jumpi\n      0x00\n      dup1\n      revert\n    tag_18:\n      pop\n      tag_19\n      tag_20\n      jump\t// in\n    tag_19:\n      stop\n        /* \"TASK/Send_ether.sol\":527:632  function getContractBalance() public view returns (uint256) {... */\n    tag_6:\n      callvalue\n      dup1\n      iszero\n      tag_21\n      jumpi\n      0x00\n      dup1\n      revert\n    tag_21:\n      pop\n      tag_22\n      tag_23\n      jump\t// in\n    tag_22:\n      mload(0x40)\n      tag_24\n      swap2\n      swap1\n      tag_17\n      jump\t// in\n    tag_24:\n      mload(0x40)\n      dup1\n      swap2\n      sub\n      swap1\n      return\n        /* \"TASK/Send_ether.sol\":206:521  function sendMoney(address payable receiver) public payable {... */\n    tag_12:\n        /* \"TASK/Send_ether.sol\":297:298  0 */\n      0x00\n        /* \"TASK/Send_ether.sol\":284:293  msg.value */\n      callvalue\n        /* \"TASK/Send_ether.sol\":284:298  msg.value != 0 */\n      sub\n        /* \"TASK/Send_ether.sol\":276:326  require(msg.value != 0, \"please send some amount\") */\n      tag_26\n      jumpi\n      mload(0x40)\n      0x08c379a000000000000000000000000000000000000000000000000000000000\n      dup2\n      mstore\n      0x04\n      add\n      tag_27\n      swap1\n      tag_28\n      jump\t// in\n    tag_27:\n      mload(0x40)\n      dup1\n      swap2\n      sub\n      swap1\n      revert\n    tag_26:\n        /* \"TASK/Send_ether.sol\":364:365  0 */\n      0x00\n        /* \"TASK/Send_ether.sol\":344:366  receiver != address(0) */\n      0xffffffffffffffffffffffffffffffffffffffff\n      and\n        /* \"TASK/Send_ether.sol\":344:352  receiver */\n      dup2\n        /* \"TASK/Send_ether.sol\":344:366  receiver != address(0) */\n      0xffffffffffffffffffffffffffffffffffffffff\n      and\n      sub\n        /* \"TASK/Send_ether.sol\":336:398  require(receiver != address(0), \"zero address is not allowed\") */\n      tag_29\n      jumpi\n      mload(0x40)\n      0x08c379a000000000000000000000000000000000000000000000000000000000\n      dup2\n      mstore\n      0x04\n      add\n      tag_30\n      swap1\n      tag_31\n      jump\t// in\n    tag_30:\n      mload(0x40)\n      dup1\n      swap2\n      sub\n      swap1\n      revert\n    tag_29:\n        /* \"TASK/Send_ether.sol\":408:427  uint256 platformFee */\n      0x00\n        /* \"TASK/Send_ether.sol\":450:453  100 */\n      0x64\n        /* \"TASK/Send_ether.sol\":445:446  5 */\n      0x05\n        /* \"TASK/Send_ether.sol\":432:441  msg.value */\n      callvalue\n        /* \"TASK/Send_ether.sol\":431:446  (msg.value) * 5 */\n      tag_32\n      swap2\n      swap1\n      tag_33\n      jump\t// in\n    tag_32:\n        /* \"TASK/Send_ether.sol\":430:453  ((msg.value) * 5) / 100 */\n      tag_34\n      swap2\n      swap1\n      tag_35\n      jump\t// in\n    tag_34:\n        /* \"TASK/Send_ether.sol\":408:453  uint256 platformFee = ((msg.value) * 5) / 100 */\n      swap1\n      pop\n        /* \"TASK/Send_ether.sol\":472:480  receiver */\n      dup2\n        /* \"TASK/Send_ether.sol\":472:489  receiver.transfer */\n      0xffffffffffffffffffffffffffffffffffffffff\n      and\n        /* \"TASK/Send_ether.sol\":472:514  receiver.transfer(msg.value - platformFee) */\n      0x08fc\n        /* \"TASK/Send_ether.sol\":502:513  platformFee */\n      dup3\n        /* \"TASK/Send_ether.sol\":490:499  msg.value */\n      callvalue\n        /* \"TASK/Send_ether.sol\":490:513  msg.value - platformFee */\n      tag_36\n      swap2\n      swap1\n      tag_37\n      jump\t// in\n    tag_36:\n        /* \"TASK/Send_ether.sol\":472:514  receiver.transfer(msg.value - platformFee) */\n      swap1\n      dup2\n      iszero\n      mul\n      swap1\n      mload(0x40)\n      0x00\n      mload(0x40)\n      dup1\n      dup4\n      sub\n      dup2\n      dup6\n      dup9\n      dup9\n      call\n      swap4\n      pop\n      pop\n      pop\n      pop\n      iszero\n      dup1\n      iszero\n      tag_39\n      jumpi\n      returndatasize\n      0x00\n      dup1\n      returndatacopy\n      revert(0x00, returndatasize)\n    tag_39:\n      pop\n        /* \"TASK/Send_ether.sol\":266:521  {... */\n      pop\n        /* \"TASK/Send_ether.sol\":206:521  function sendMoney(address payable receiver) public payable {... */\n      pop\n      jump\t// out\n        /* \"TASK/Send_ether.sol\":638:734  function getMyBalance() public view returns (uint256) {... */\n    tag_15:\n        /* \"TASK/Send_ether.sol\":683:690  uint256 */\n      0x00\n        /* \"TASK/Send_ether.sol\":709:719  msg.sender */\n      caller\n        /* \"TASK/Send_ether.sol\":709:727  msg.sender.balance */\n      0xffffffffffffffffffffffffffffffffffffffff\n      and\n      balance\n        /* \"TASK/Send_ether.sol\":702:727  return msg.sender.balance */\n      swap1\n      pop\n        /* \"TASK/Send_ether.sol\":638:734  function getMyBalance() public view returns (uint256) {... */\n      swap1\n      jump\t// out\n        /* \"TASK/Send_ether.sol\":740:925  function withdrawContractBal() public {... */\n    tag_20:\n        /* \"TASK/Send_ether.sol\":788:801  uint256 money */\n      0x00\n        /* \"TASK/Send_ether.sol\":804:825  address(this).balance */\n      selfbalance\n        /* \"TASK/Send_ether.sol\":788:825  uint256 money = address(this).balance */\n      swap1\n      pop\n        /* \"TASK/Send_ether.sol\":852:862  msg.sender */\n      caller\n        /* \"TASK/Send_ether.sol\":843:862  admin == msg.sender */\n      0xffffffffffffffffffffffffffffffffffffffff\n      and\n        /* \"TASK/Send_ether.sol\":843:848  admin */\n      0x00\n      dup1\n      sload\n      swap1\n      0x0100\n      exp\n      swap1\n      div\n      0xffffffffffffffffffffffffffffffffffffffff\n      and\n        /* \"TASK/Send_ether.sol\":843:862  admin == msg.sender */\n      0xffffffffffffffffffffffffffffffffffffffff\n      and\n      eq\n        /* \"TASK/Send_ether.sol\":835:878  require(admin == msg.sender, \"not allowed\") */\n      tag_42\n      jumpi\n      mload(0x40)\n      0x08c379a000000000000000000000000000000000000000000000000000000000\n      dup2\n      mstore\n      0x04\n      add\n      tag_43\n      swap1\n      tag_44\n      jump\t// in\n    tag_43:\n      mload(0x40)\n      dup1\n      swap2\n      sub\n      swap1\n      revert\n    tag_42:\n        /* \"TASK/Send_ether.sol\":896:901  admin */\n      0x00\n      dup1\n      sload\n      swap1\n      0x0100\n      exp\n      swap1\n      div\n      0xffffffffffffffffffffffffffffffffffffffff\n      and\n        /* \"TASK/Send_ether.sol\":888:911  payable(admin).transfer */\n      0xffffffffffffffffffffffffffffffffffffffff\n      and\n        /* \"TASK/Send_ether.sol\":888:918  payable(admin).transfer(money) */\n      0x08fc\n        /* \"TASK/Send_ether.sol\":912:917  money */\n      dup3\n        /* \"TASK/Send_ether.sol\":888:918  payable(admin).transfer(money) */\n      swap1\n      dup2\n      iszero\n      mul\n      swap1\n      mload(0x40)\n      0x00\n      mload(0x40)\n      dup1\n      dup4\n      sub\n      dup2\n      dup6\n      dup9\n      dup9\n      call\n      swap4\n      pop\n      pop\n      pop\n      pop\n      iszero\n      dup1\n      iszero\n      tag_46\n      jumpi\n      returndatasize\n      0x00\n      dup1\n      returndatacopy\n      revert(0x00, returndatasize)\n    tag_46:\n      pop\n        /* \"TASK/Send_ether.sol\":778:925  {... */\n      pop\n        /* \"TASK/Send_ether.sol\":740:925  function withdrawContractBal() public {... */\n      jump\t// out\n        /* \"TASK/Send_ether.sol\":527:632  function getContractBalance() public view returns (uint256) {... */\n    tag_23:\n        /* \"TASK/Send_ether.sol\":578:585  uint256 */\n      0x00\n        /* \"TASK/Send_ether.sol\":604:625  address(this).balance */\n      selfbalance\n        /* \"TASK/Send_ether.sol\":597:625  return address(this).balance */\n      swap1\n      pop\n        /* \"TASK/Send_ether.sol\":527:632  function getContractBalance() public view returns (uint256) {... */\n      swap1\n      jump\t// out\n        /* \"#utility.yul\":88:205   */\n    tag_49:\n        /* \"#utility.yul\":197:198   */\n      0x00\n        /* \"#utility.yul\":194:195   */\n      dup1\n        /* \"#utility.yul\":187:199   */\n      revert\n        /* \"#utility.yul\":334:460   */\n    tag_51:\n        /* \"#utility.yul\":371:378   */\n      0x00\n        /* \"#utility.yul\":411:453   */\n      0xffffffffffffffffffffffffffffffffffffffff\n        /* \"#utility.yul\":404:409   */\n      dup3\n        /* \"#utility.yul\":400:454   */\n      and\n        /* \"#utility.yul\":389:454   */\n      swap1\n      pop\n        /* \"#utility.yul\":334:460   */\n      swap2\n      swap1\n      pop\n      jump\t// out\n        /* \"#utility.yul\":466:570   */\n    tag_52:\n        /* \"#utility.yul\":511:518   */\n      0x00\n        /* \"#utility.yul\":540:564   */\n      tag_72\n        /* \"#utility.yul\":558:563   */\n      dup3\n        /* \"#utility.yul\":540:564   */\n      tag_51\n      jump\t// in\n    tag_72:\n        /* \"#utility.yul\":529:564   */\n      swap1\n      pop\n        /* \"#utility.yul\":466:570   */\n      swap2\n      swap1\n      pop\n      jump\t// out\n        /* \"#utility.yul\":576:714   */\n    tag_53:\n        /* \"#utility.yul\":657:689   */\n      tag_74\n        /* \"#utility.yul\":683:688   */\n      dup2\n        /* \"#utility.yul\":657:689   */\n      tag_52\n      jump\t// in\n    tag_74:\n        /* \"#utility.yul\":650:655   */\n      dup2\n        /* \"#utility.yul\":647:690   */\n      eq\n        /* \"#utility.yul\":637:708   */\n      tag_75\n      jumpi\n        /* \"#utility.yul\":704:705   */\n      0x00\n        /* \"#utility.yul\":701:702   */\n      dup1\n        /* \"#utility.yul\":694:706   */\n      revert\n        /* \"#utility.yul\":637:708   */\n    tag_75:\n        /* \"#utility.yul\":576:714   */\n      pop\n      jump\t// out\n        /* \"#utility.yul\":720:875   */\n    tag_54:\n        /* \"#utility.yul\":774:779   */\n      0x00\n        /* \"#utility.yul\":812:818   */\n      dup2\n        /* \"#utility.yul\":799:819   */\n      calldataload\n        /* \"#utility.yul\":790:819   */\n      swap1\n      pop\n        /* \"#utility.yul\":828:869   */\n      tag_77\n        /* \"#utility.yul\":863:868   */\n      dup2\n        /* \"#utility.yul\":828:869   */\n      tag_53\n      jump\t// in\n    tag_77:\n        /* \"#utility.yul\":720:875   */\n      swap3\n      swap2\n      pop\n      pop\n      jump\t// out\n        /* \"#utility.yul\":881:1226   */\n    tag_11:\n        /* \"#utility.yul\":948:954   */\n      0x00\n        /* \"#utility.yul\":997:999   */\n      0x20\n        /* \"#utility.yul\":985:994   */\n      dup3\n        /* \"#utility.yul\":976:983   */\n      dup5\n        /* \"#utility.yul\":972:995   */\n      sub\n        /* \"#utility.yul\":968:1000   */\n      slt\n        /* \"#utility.yul\":965:1084   */\n      iszero\n      tag_79\n      jumpi\n        /* \"#utility.yul\":1003:1082   */\n      tag_80\n      tag_49\n      jump\t// in\n    tag_80:\n        /* \"#utility.yul\":965:1084   */\n    tag_79:\n        /* \"#utility.yul\":1123:1124   */\n      0x00\n        /* \"#utility.yul\":1148:1209   */\n      tag_81\n        /* \"#utility.yul\":1201:1208   */\n      dup5\n        /* \"#utility.yul\":1192:1198   */\n      dup3\n        /* \"#utility.yul\":1181:1190   */\n      dup6\n        /* \"#utility.yul\":1177:1199   */\n      add\n        /* \"#utility.yul\":1148:1209   */\n      tag_54\n      jump\t// in\n    tag_81:\n        /* \"#utility.yul\":1138:1209   */\n      swap2\n      pop\n        /* \"#utility.yul\":1094:1219   */\n      pop\n        /* \"#utility.yul\":881:1226   */\n      swap3\n      swap2\n      pop\n      pop\n      jump\t// out\n        /* \"#utility.yul\":1232:1309   */\n    tag_55:\n        /* \"#utility.yul\":1269:1276   */\n      0x00\n        /* \"#utility.yul\":1298:1303   */\n      dup2\n        /* \"#utility.yul\":1287:1303   */\n      swap1\n      pop\n        /* \"#utility.yul\":1232:1309   */\n      swap2\n      swap1\n      pop\n      jump\t// out\n        /* \"#utility.yul\":1315:1433   */\n    tag_56:\n        /* \"#utility.yul\":1402:1426   */\n      tag_84\n        /* \"#utility.yul\":1420:1425   */\n      dup2\n        /* \"#utility.yul\":1402:1426   */\n      tag_55\n      jump\t// in\n    tag_84:\n        /* \"#utility.yul\":1397:1400   */\n      dup3\n        /* \"#utility.yul\":1390:1427   */\n      mstore\n        /* \"#utility.yul\":1315:1433   */\n      pop\n      pop\n      jump\t// out\n        /* \"#utility.yul\":1439:1661   */\n    tag_17:\n        /* \"#utility.yul\":1532:1536   */\n      0x00\n        /* \"#utility.yul\":1570:1572   */\n      0x20\n        /* \"#utility.yul\":1559:1568   */\n      dup3\n        /* \"#utility.yul\":1555:1573   */\n      add\n        /* \"#utility.yul\":1547:1573   */\n      swap1\n      pop\n        /* \"#utility.yul\":1583:1654   */\n      tag_86\n        /* \"#utility.yul\":1651:1652   */\n      0x00\n        /* \"#utility.yul\":1640:1649   */\n      dup4\n        /* \"#utility.yul\":1636:1653   */\n      add\n        /* \"#utility.yul\":1627:1633   */\n      dup5\n        /* \"#utility.yul\":1583:1654   */\n      tag_56\n      jump\t// in\n    tag_86:\n        /* \"#utility.yul\":1439:1661   */\n      swap3\n      swap2\n      pop\n      pop\n      jump\t// out\n        /* \"#utility.yul\":1667:1836   */\n    tag_57:\n        /* \"#utility.yul\":1751:1762   */\n      0x00\n        /* \"#utility.yul\":1785:1791   */\n      dup3\n        /* \"#utility.yul\":1780:1783   */\n      dup3\n        /* \"#utility.yul\":1773:1792   */\n      mstore\n        /* \"#utility.yul\":1825:1829   */\n      0x20\n        /* \"#utility.yul\":1820:1823   */\n      dup3\n        /* \"#utility.yul\":1816:1830   */\n      add\n        /* \"#utility.yul\":1801:1830   */\n      swap1\n      pop\n        /* \"#utility.yul\":1667:1836   */\n      swap3\n      swap2\n      pop\n      pop\n      jump\t// out\n        /* \"#utility.yul\":1842:2015   */\n    tag_58:\n        /* \"#utility.yul\":1982:2007   */\n      0x706c656173652073656e6420736f6d6520616d6f756e74000000000000000000\n        /* \"#utility.yul\":1978:1979   */\n      0x00\n        /* \"#utility.yul\":1970:1976   */\n      dup3\n        /* \"#utility.yul\":1966:1980   */\n      add\n        /* \"#utility.yul\":1959:2008   */\n      mstore\n        /* \"#utility.yul\":1842:2015   */\n      pop\n      jump\t// out\n        /* \"#utility.yul\":2021:2387   */\n    tag_59:\n        /* \"#utility.yul\":2163:2166   */\n      0x00\n        /* \"#utility.yul\":2184:2251   */\n      tag_90\n        /* \"#utility.yul\":2248:2250   */\n      0x17\n        /* \"#utility.yul\":2243:2246   */\n      dup4\n        /* \"#utility.yul\":2184:2251   */\n      tag_57\n      jump\t// in\n    tag_90:\n        /* \"#utility.yul\":2177:2251   */\n      swap2\n      pop\n        /* \"#utility.yul\":2260:2353   */\n      tag_91\n        /* \"#utility.yul\":2349:2352   */\n      dup3\n        /* \"#utility.yul\":2260:2353   */\n      tag_58\n      jump\t// in\n    tag_91:\n        /* \"#utility.yul\":2378:2380   */\n      0x20\n        /* \"#utility.yul\":2373:2376   */\n      dup3\n        /* \"#utility.yul\":2369:2381   */\n      add\n        /* \"#utility.yul\":2362:2381   */\n      swap1\n      pop\n        /* \"#utility.yul\":2021:2387   */\n      swap2\n      swap1\n      pop\n      jump\t// out\n        /* \"#utility.yul\":2393:2812   */\n    tag_28:\n        /* \"#utility.yul\":2559:2563   */\n      0x00\n        /* \"#utility.yul\":2597:2599   */\n      0x20\n        /* \"#utility.yul\":2586:2595   */\n      dup3\n        /* \"#utility.yul\":2582:2600   */\n      add\n        /* \"#utility.yul\":2574:2600   */\n      swap1\n      pop\n        /* \"#utility.yul\":2646:2655   */\n      dup2\n        /* \"#utility.yul\":2640:2644   */\n      dup2\n        /* \"#utility.yul\":2636:2656   */\n      sub\n        /* \"#utility.yul\":2632:2633   */\n      0x00\n        /* \"#utility.yul\":2621:2630   */\n      dup4\n        /* \"#utility.yul\":2617:2634   */\n      add\n        /* \"#utility.yul\":2610:2657   */\n      mstore\n        /* \"#utility.yul\":2674:2805   */\n      tag_93\n        /* \"#utility.yul\":2800:2804   */\n      dup2\n        /* \"#utility.yul\":2674:2805   */\n      tag_59\n      jump\t// in\n    tag_93:\n        /* \"#utility.yul\":2666:2805   */\n      swap1\n      pop\n        /* \"#utility.yul\":2393:2812   */\n      swap2\n      swap1\n      pop\n      jump\t// out\n        /* \"#utility.yul\":2818:2995   */\n    tag_60:\n        /* \"#utility.yul\":2958:2987   */\n      0x7a65726f2061646472657373206973206e6f7420616c6c6f7765640000000000\n        /* \"#utility.yul\":2954:2955   */\n      0x00\n        /* \"#utility.yul\":2946:2952   */\n      dup3\n        /* \"#utility.yul\":2942:2956   */\n      add\n        /* \"#utility.yul\":2935:2988   */\n      mstore\n        /* \"#utility.yul\":2818:2995   */\n      pop\n      jump\t// out\n        /* \"#utility.yul\":3001:3367   */\n    tag_61:\n        /* \"#utility.yul\":3143:3146   */\n      0x00\n        /* \"#utility.yul\":3164:3231   */\n      tag_96\n        /* \"#utility.yul\":3228:3230   */\n      0x1b\n        /* \"#utility.yul\":3223:3226   */\n      dup4\n        /* \"#utility.yul\":3164:3231   */\n      tag_57\n      jump\t// in\n    tag_96:\n        /* \"#utility.yul\":3157:3231   */\n      swap2\n      pop\n        /* \"#utility.yul\":3240:3333   */\n      tag_97\n        /* \"#utility.yul\":3329:3332   */\n      dup3\n        /* \"#utility.yul\":3240:3333   */\n      tag_60\n      jump\t// in\n    tag_97:\n        /* \"#utility.yul\":3358:3360   */\n      0x20\n        /* \"#utility.yul\":3353:3356   */\n      dup3\n        /* \"#utility.yul\":3349:3361   */\n      add\n        /* \"#utility.yul\":3342:3361   */\n      swap1\n      pop\n        /* \"#utility.yul\":3001:3367   */\n      swap2\n      swap1\n      pop\n      jump\t// out\n        /* \"#utility.yul\":3373:3792   */\n    tag_31:\n        /* \"#utility.yul\":3539:3543   */\n      0x00\n        /* \"#utility.yul\":3577:3579   */\n      0x20\n        /* \"#utility.yul\":3566:3575   */\n      dup3\n        /* \"#utility.yul\":3562:3580   */\n      add\n        /* \"#utility.yul\":3554:3580   */\n      swap1\n      pop\n        /* \"#utility.yul\":3626:3635   */\n      dup2\n        /* \"#utility.yul\":3620:3624   */\n      dup2\n        /* \"#utility.yul\":3616:3636   */\n      sub\n        /* \"#utility.yul\":3612:3613   */\n      0x00\n        /* \"#utility.yul\":3601:3610   */\n      dup4\n        /* \"#utility.yul\":3597:3614   */\n      add\n        /* \"#utility.yul\":3590:3637   */\n      mstore\n        /* \"#utility.yul\":3654:3785   */\n      tag_99\n        /* \"#utility.yul\":3780:3784   */\n      dup2\n        /* \"#utility.yul\":3654:3785   */\n      tag_61\n      jump\t// in\n    tag_99:\n        /* \"#utility.yul\":3646:3785   */\n      swap1\n      pop\n        /* \"#utility.yul\":3373:3792   */\n      swap2\n      swap1\n      pop\n      jump\t// out\n        /* \"#utility.yul\":3798:3978   */\n    tag_62:\n        /* \"#utility.yul\":3846:3923   */\n      0x4e487b7100000000000000000000000000000000000000000000000000000000\n        /* \"#utility.yul\":3843:3844   */\n      0x00\n        /* \"#utility.yul\":3836:3924   */\n      mstore\n        /* \"#utility.yul\":3943:3947   */\n      0x11\n        /* \"#utility.yul\":3940:3941   */\n      0x04\n        /* \"#utility.yul\":3933:3948   */\n      mstore\n        /* \"#utility.yul\":3967:3971   */\n      0x24\n        /* \"#utility.yul\":3964:3965   */\n      0x00\n        /* \"#utility.yul\":3957:3972   */\n      revert\n        /* \"#utility.yul\":3984:4394   */\n    tag_33:\n        /* \"#utility.yul\":4024:4031   */\n      0x00\n        /* \"#utility.yul\":4047:4067   */\n      tag_102\n        /* \"#utility.yul\":4065:4066   */\n      dup3\n        /* \"#utility.yul\":4047:4067   */\n      tag_55\n      jump\t// in\n    tag_102:\n        /* \"#utility.yul\":4042:4067   */\n      swap2\n      pop\n        /* \"#utility.yul\":4081:4101   */\n      tag_103\n        /* \"#utility.yul\":4099:4100   */\n      dup4\n        /* \"#utility.yul\":4081:4101   */\n      tag_55\n      jump\t// in\n    tag_103:\n        /* \"#utility.yul\":4076:4101   */\n      swap3\n      pop\n        /* \"#utility.yul\":4136:4137   */\n      dup3\n        /* \"#utility.yul\":4133:4134   */\n      dup3\n        /* \"#utility.yul\":4129:4138   */\n      mul\n        /* \"#utility.yul\":4158:4188   */\n      tag_104\n        /* \"#utility.yul\":4176:4187   */\n      dup2\n        /* \"#utility.yul\":4158:4188   */\n      tag_55\n      jump\t// in\n    tag_104:\n        /* \"#utility.yul\":4147:4188   */\n      swap2\n      pop\n        /* \"#utility.yul\":4337:4338   */\n      dup3\n        /* \"#utility.yul\":4328:4335   */\n      dup3\n        /* \"#utility.yul\":4324:4339   */\n      div\n        /* \"#utility.yul\":4321:4322   */\n      dup5\n        /* \"#utility.yul\":4318:4340   */\n      eq\n        /* \"#utility.yul\":4298:4299   */\n      dup4\n        /* \"#utility.yul\":4291:4300   */\n      iszero\n        /* \"#utility.yul\":4271:4354   */\n      or\n        /* \"#utility.yul\":4248:4387   */\n      tag_105\n      jumpi\n        /* \"#utility.yul\":4367:4385   */\n      tag_106\n      tag_62\n      jump\t// in\n    tag_106:\n        /* \"#utility.yul\":4248:4387   */\n    tag_105:\n        /* \"#utility.yul\":4032:4394   */\n      pop\n        /* \"#utility.yul\":3984:4394   */\n      swap3\n      swap2\n      pop\n      pop\n      jump\t// out\n        /* \"#utility.yul\":4400:4580   */\n    tag_63:\n        /* \"#utility.yul\":4448:4525   */\n      0x4e487b7100000000000000000000000000000000000000000000000000000000\n        /* \"#utility.yul\":4445:4446   */\n      0x00\n        /* \"#utility.yul\":4438:4526   */\n      mstore\n        /* \"#utility.yul\":4545:4549   */\n      0x12\n        /* \"#utility.yul\":4542:4543   */\n      0x04\n        /* \"#utility.yul\":4535:4550   */\n      mstore\n        /* \"#utility.yul\":4569:4573   */\n      0x24\n        /* \"#utility.yul\":4566:4567   */\n      0x00\n        /* \"#utility.yul\":4559:4574   */\n      revert\n        /* \"#utility.yul\":4586:4771   */\n    tag_35:\n        /* \"#utility.yul\":4626:4627   */\n      0x00\n        /* \"#utility.yul\":4643:4663   */\n      tag_109\n        /* \"#utility.yul\":4661:4662   */\n      dup3\n        /* \"#utility.yul\":4643:4663   */\n      tag_55\n      jump\t// in\n    tag_109:\n        /* \"#utility.yul\":4638:4663   */\n      swap2\n      pop\n        /* \"#utility.yul\":4677:4697   */\n      tag_110\n        /* \"#utility.yul\":4695:4696   */\n      dup4\n        /* \"#utility.yul\":4677:4697   */\n      tag_55\n      jump\t// in\n    tag_110:\n        /* \"#utility.yul\":4672:4697   */\n      swap3\n      pop\n        /* \"#utility.yul\":4716:4717   */\n      dup3\n        /* \"#utility.yul\":4706:4741   */\n      tag_111\n      jumpi\n        /* \"#utility.yul\":4721:4739   */\n      tag_112\n      tag_63\n      jump\t// in\n    tag_112:\n        /* \"#utility.yul\":4706:4741   */\n    tag_111:\n        /* \"#utility.yul\":4763:4764   */\n      dup3\n        /* \"#utility.yul\":4760:4761   */\n      dup3\n        /* \"#utility.yul\":4756:4765   */\n      div\n        /* \"#utility.yul\":4751:4765   */\n      swap1\n      pop\n        /* \"#utility.yul\":4586:4771   */\n      swap3\n      swap2\n      pop\n      pop\n      jump\t// out\n        /* \"#utility.yul\":4777:4971   */\n    tag_37:\n        /* \"#utility.yul\":4817:4821   */\n      0x00\n        /* \"#utility.yul\":4837:4857   */\n      tag_114\n        /* \"#utility.yul\":4855:4856   */\n      dup3\n        /* \"#utility.yul\":4837:4857   */\n      tag_55\n      jump\t// in\n    tag_114:\n        /* \"#utility.yul\":4832:4857   */\n      swap2\n      pop\n        /* \"#utility.yul\":4871:4891   */\n      tag_115\n        /* \"#utility.yul\":4889:4890   */\n      dup4\n        /* \"#utility.yul\":4871:4891   */\n      tag_55\n      jump\t// in\n    tag_115:\n        /* \"#utility.yul\":4866:4891   */\n      swap3\n      pop\n        /* \"#utility.yul\":4915:4916   */\n      dup3\n        /* \"#utility.yul\":4912:4913   */\n      dup3\n        /* \"#utility.yul\":4908:4917   */\n      sub\n        /* \"#utility.yul\":4900:4917   */\n      swap1\n      pop\n        /* \"#utility.yul\":4939:4940   */\n      dup2\n        /* \"#utility.yul\":4933:4937   */\n      dup2\n        /* \"#utility.yul\":4930:4941   */\n      gt\n        /* \"#utility.yul\":4927:4964   */\n      iszero\n      tag_116\n      jumpi\n        /* \"#utility.yul\":4944:4962   */\n      tag_117\n      tag_62\n      jump\t// in\n    tag_117:\n        /* \"#utility.yul\":4927:4964   */\n    tag_116:\n        /* \"#utility.yul\":4777:4971   */\n      swap3\n      swap2\n      pop\n      pop\n      jump\t// out\n        /* \"#utility.yul\":4977:5138   */\n    tag_64:\n        /* \"#utility.yul\":5117:5130   */\n      0x6e6f7420616c6c6f776564000000000000000000000000000000000000000000\n        /* \"#utility.yul\":5113:5114   */\n      0x00\n        /* \"#utility.yul\":5105:5111   */\n      dup3\n        /* \"#utility.yul\":5101:5115   */\n      add\n        /* \"#utility.yul\":5094:5131   */\n      mstore\n        /* \"#utility.yul\":4977:5138   */\n      pop\n      jump\t// out\n        /* \"#utility.yul\":5144:5510   */\n    tag_65:\n        /* \"#utility.yul\":5286:5289   */\n      0x00\n        /* \"#utility.yul\":5307:5374   */\n      tag_120\n        /* \"#utility.yul\":5371:5373   */\n      0x0b\n        /* \"#utility.yul\":5366:5369   */\n      dup4\n        /* \"#utility.yul\":5307:5374   */\n      tag_57\n      jump\t// in\n    tag_120:\n        /* \"#utility.yul\":5300:5374   */\n      swap2\n      pop\n        /* \"#utility.yul\":5383:5476   */\n      tag_121\n        /* \"#utility.yul\":5472:5475   */\n      dup3\n        /* \"#utility.yul\":5383:5476   */\n      tag_64\n      jump\t// in\n    tag_121:\n        /* \"#utility.yul\":5501:5503   */\n      0x20\n        /* \"#utility.yul\":5496:5499   */\n      dup3\n        /* \"#utility.yul\":5492:5504   */\n      add\n        /* \"#utility.yul\":5485:5504   */\n      swap1\n      pop\n        /* \"#utility.yul\":5144:5510   */\n      swap2\n      swap1\n      pop\n      jump\t// out\n        /* \"#utility.yul\":5516:5935   */\n    tag_44:\n        /* \"#utility.yul\":5682:5686   */\n      0x00\n        /* \"#utility.yul\":5720:5722   */\n      0x20\n        /* \"#utility.yul\":5709:5718   */\n      dup3\n        /* \"#utility.yul\":5705:5723   */\n      add\n        /* \"#utility.yul\":5697:5723   */\n      swap1\n      pop\n        /* \"#utility.yul\":5769:5778   */\n      dup2\n        /* \"#utility.yul\":5763:5767   */\n      dup2\n        /* \"#utility.yul\":5759:5779   */\n      sub\n        /* \"#utility.yul\":5755:5756   */\n      0x00\n        /* \"#utility.yul\":5744:5753   */\n      dup4\n        /* \"#utility.yul\":5740:5757   */\n      add\n        /* \"#utility.yul\":5733:5780   */\n      mstore\n        /* \"#utility.yul\":5797:5928   */\n      tag_123\n        /* \"#utility.yul\":5923:5927   */\n      dup2\n        /* \"#utility.yul\":5797:5928   */\n      tag_65\n      jump\t// in\n    tag_123:\n        /* \"#utility.yul\":5789:5928   */\n      swap1\n      pop\n        /* \"#utility.yul\":5516:5935   */\n      swap2\n      swap1\n      pop\n      jump\t// out\n\n    auxdata: 0xa26469706673582212208c9c3214c66348296d249982044367c9774541bc09256ab2b4558be858c5291264736f6c63430008120033\n}\n",
				"bytecode": {
					"linkReferences": {},
					"object": "608060405234801561001057600080fd5b50336000806101000a81548173ffffffffffffffffffffffffffffffffffffffff021916908373ffffffffffffffffffffffffffffffffffffffff160217905550610675806100606000396000f3fe6080604052600436106100435760003560e01c8063338ccd781461004f5780634c7389091461006b5780634ff404f1146100965780636f9fb98a146100ad5761004a565b3661004a57005b600080fd5b61006960048036038101906100649190610384565b6100d8565b005b34801561007757600080fd5b506100806101fd565b60405161008d91906103ca565b60405180910390f35b3480156100a257600080fd5b506100ab61021c565b005b3480156100b957600080fd5b506100c2610319565b6040516100cf91906103ca565b60405180910390f35b6000340361011b576040517f08c379a000000000000000000000000000000000000000000000000000000000815260040161011290610442565b60405180910390fd5b600073ffffffffffffffffffffffffffffffffffffffff168173ffffffffffffffffffffffffffffffffffffffff160361018a576040517f08c379a0000000000000000000000000000000000000000000000000000000008152600401610181906104ae565b60405180910390fd5b6000606460053461019b91906104fd565b6101a5919061056e565b90508173ffffffffffffffffffffffffffffffffffffffff166108fc82346101cd919061059f565b9081150290604051600060405180830381858888f193505050501580156101f8573d6000803e3d6000fd5b505050565b60003373ffffffffffffffffffffffffffffffffffffffff1631905090565b60004790503373ffffffffffffffffffffffffffffffffffffffff1660008054906101000a900473ffffffffffffffffffffffffffffffffffffffff1673ffffffffffffffffffffffffffffffffffffffff16146102af576040517f08c379a00000000000000000000000000000000000000000000000000000000081526004016102a69061061f565b60405180910390fd5b60008054906101000a900473ffffffffffffffffffffffffffffffffffffffff1673ffffffffffffffffffffffffffffffffffffffff166108fc829081150290604051600060405180830381858888f19350505050158015610315573d6000803e3d6000fd5b5050565b600047905090565b600080fd5b600073ffffffffffffffffffffffffffffffffffffffff82169050919050565b600061035182610326565b9050919050565b61036181610346565b811461036c57600080fd5b50565b60008135905061037e81610358565b92915050565b60006020828403121561039a57610399610321565b5b60006103a88482850161036f565b91505092915050565b6000819050919050565b6103c4816103b1565b82525050565b60006020820190506103df60008301846103bb565b92915050565b600082825260208201905092915050565b7f706c656173652073656e6420736f6d6520616d6f756e74000000000000000000600082015250565b600061042c6017836103e5565b9150610437826103f6565b602082019050919050565b6000602082019050818103600083015261045b8161041f565b9050919050565b7f7a65726f2061646472657373206973206e6f7420616c6c6f7765640000000000600082015250565b6000610498601b836103e5565b91506104a382610462565b602082019050919050565b600060208201905081810360008301526104c78161048b565b9050919050565b7f4e487b7100000000000000000000000000000000000000000000000000000000600052601160045260246000fd5b6000610508826103b1565b9150610513836103b1565b9250828202610521816103b1565b91508282048414831517610538576105376104ce565b5b5092915050565b7f4e487b7100000000000000000000000000000000000000000000000000000000600052601260045260246000fd5b6000610579826103b1565b9150610584836103b1565b9250826105945761059361053f565b5b828204905092915050565b60006105aa826103b1565b91506105b5836103b1565b92508282039050818111156105cd576105cc6104ce565b5b92915050565b7f6e6f7420616c6c6f776564000000000000000000000000000000000000000000600082015250565b6000610609600b836103e5565b9150610614826105d3565b602082019050919050565b60006020820190508181036000830152610638816105fc565b905091905056fea26469706673582212208c9c3214c66348296d249982044367c9774541bc09256ab2b4558be858c5291264736f6c63430008120033",
					"opcodes": "PUSH1 0x80 PUSH1 0x40 MSTORE CALLVALUE DUP1 ISZERO PUSH2 0x10 JUMPI PUSH1 0x0 DUP1 REVERT JUMPDEST POP CALLER PUSH1 0x0 DUP1 PUSH2 0x100 EXP DUP2 SLOAD DUP2 PUSH20 0xFFFFFFFFFFFFFFFFFFFFFFFFFFFFFFFFFFFFFFFF MUL NOT AND SWAP1 DUP4 PUSH20 0xFFFFFFFFFFFFFFFFFFFFFFFFFFFFFFFFFFFFFFFF AND MUL OR SWAP1 SSTORE POP PUSH2 0x675 DUP1 PUSH2 0x60 PUSH1 0x0 CODECOPY PUSH1 0x0 RETURN INVALID PUSH1 0x80 PUSH1 0x40 MSTORE PUSH1 0x4 CALLDATASIZE LT PUSH2 0x43 JUMPI PUSH1 0x0 CALLDATALOAD PUSH1 0xE0 SHR DUP1 PUSH4 0x338CCD78 EQ PUSH2 0x4F JUMPI DUP1 PUSH4 0x4C738909 EQ PUSH2 0x6B JUMPI DUP1 PUSH4 0x4FF404F1 EQ PUSH2 0x96 JUMPI DUP1 PUSH4 0x6F9FB98A EQ PUSH2 0xAD JUMPI PUSH2 0x4A JUMP JUMPDEST CALLDATASIZE PUSH2 0x4A JUMPI STOP JUMPDEST PUSH1 0x0 DUP1 REVERT JUMPDEST PUSH2 0x69 PUSH1 0x4 DUP1 CALLDATASIZE SUB DUP2 ADD SWAP1 PUSH2 0x64 SWAP2 SWAP1 PUSH2 0x384 JUMP JUMPDEST PUSH2 0xD8 JUMP JUMPDEST STOP JUMPDEST CALLVALUE DUP1 ISZERO PUSH2 0x77 JUMPI PUSH1 0x0 DUP1 REVERT JUMPDEST POP PUSH2 0x80 PUSH2 0x1FD JUMP JUMPDEST PUSH1 0x40 MLOAD PUSH2 0x8D SWAP2 SWAP1 PUSH2 0x3CA JUMP JUMPDEST PUSH1 0x40 MLOAD DUP1 SWAP2 SUB SWAP1 RETURN JUMPDEST CALLVALUE DUP1 ISZERO PUSH2 0xA2 JUMPI PUSH1 0x0 DUP1 REVERT JUMPDEST POP PUSH2 0xAB PUSH2 0x21C JUMP JUMPDEST STOP JUMPDEST CALLVALUE DUP1 ISZERO PUSH2 0xB9 JUMPI PUSH1 0x0 DUP1 REVERT JUMPDEST POP PUSH2 0xC2 PUSH2 0x319 JUMP JUMPDEST PUSH1 0x40 MLOAD PUSH2 0xCF SWAP2 SWAP1 PUSH2 0x3CA JUMP JUMPDEST PUSH1 0x40 MLOAD DUP1 SWAP2 SUB SWAP1 RETURN JUMPDEST PUSH1 0x0 CALLVALUE SUB PUSH2 0x11B JUMPI PUSH1 0x40 MLOAD PUSH32 0x8C379A000000000000000000000000000000000000000000000000000000000 DUP2 MSTORE PUSH1 0x4 ADD PUSH2 0x112 SWAP1 PUSH2 0x442 JUMP JUMPDEST PUSH1 0x40 MLOAD DUP1 SWAP2 SUB SWAP1 REVERT JUMPDEST PUSH1 0x0 PUSH20 0xFFFFFFFFFFFFFFFFFFFFFFFFFFFFFFFFFFFFFFFF AND DUP2 PUSH20 0xFFFFFFFFFFFFFFFFFFFFFFFFFFFFFFFFFFFFFFFF AND SUB PUSH2 0x18A JUMPI PUSH1 0x40 MLOAD PUSH32 0x8C379A000000000000000000000000000000000000000000000000000000000 DUP2 MSTORE PUSH1 0x4 ADD PUSH2 0x181 SWAP1 PUSH2 0x4AE JUMP JUMPDEST PUSH1 0x40 MLOAD DUP1 SWAP2 SUB SWAP1 REVERT JUMPDEST PUSH1 0x0 PUSH1 0x64 PUSH1 0x5 CALLVALUE PUSH2 0x19B SWAP2 SWAP1 PUSH2 0x4FD JUMP JUMPDEST PUSH2 0x1A5 SWAP2 SWAP1 PUSH2 0x56E JUMP JUMPDEST SWAP1 POP DUP2 PUSH20 0xFFFFFFFFFFFFFFFFFFFFFFFFFFFFFFFFFFFFFFFF AND PUSH2 0x8FC DUP3 CALLVALUE PUSH2 0x1CD SWAP2 SWAP1 PUSH2 0x59F JUMP JUMPDEST SWAP1 DUP2 ISZERO MUL SWAP1 PUSH1 0x40 MLOAD PUSH1 0x0 PUSH1 0x40 MLOAD DUP1 DUP4 SUB DUP2 DUP6 DUP9 DUP9 CALL SWAP4 POP POP POP POP ISZERO DUP1 ISZERO PUSH2 0x1F8 JUMPI RETURNDATASIZE PUSH1 0x0 DUP1 RETURNDATACOPY RETURNDATASIZE PUSH1 0x0 REVERT JUMPDEST POP POP POP JUMP JUMPDEST PUSH1 0x0 CALLER PUSH20 0xFFFFFFFFFFFFFFFFFFFFFFFFFFFFFFFFFFFFFFFF AND BALANCE SWAP1 POP SWAP1 JUMP JUMPDEST PUSH1 0x0 SELFBALANCE SWAP1 POP CALLER PUSH20 0xFFFFFFFFFFFFFFFFFFFFFFFFFFFFFFFFFFFFFFFF AND PUSH1 0x0 DUP1 SLOAD SWAP1 PUSH2 0x100 EXP SWAP1 DIV PUSH20 0xFFFFFFFFFFFFFFFFFFFFFFFFFFFFFFFFFFFFFFFF AND PUSH20 0xFFFFFFFFFFFFFFFFFFFFFFFFFFFFFFFFFFFFFFFF AND EQ PUSH2 0x2AF JUMPI PUSH1 0x40 MLOAD PUSH32 0x8C379A000000000000000000000000000000000000000000000000000000000 DUP2 MSTORE PUSH1 0x4 ADD PUSH2 0x2A6 SWAP1 PUSH2 0x61F JUMP JUMPDEST PUSH1 0x40 MLOAD DUP1 SWAP2 SUB SWAP1 REVERT JUMPDEST PUSH1 0x0 DUP1 SLOAD SWAP1 PUSH2 0x100 EXP SWAP1 DIV PUSH20 0xFFFFFFFFFFFFFFFFFFFFFFFFFFFFFFFFFFFFFFFF AND PUSH20 0xFFFFFFFFFFFFFFFFFFFFFFFFFFFFFFFFFFFFFFFF AND PUSH2 0x8FC DUP3 SWAP1 DUP2 ISZERO MUL SWAP1 PUSH1 0x40 MLOAD PUSH1 0x0 PUSH1 0x40 MLOAD DUP1 DUP4 SUB DUP2 DUP6 DUP9 DUP9 CALL SWAP4 POP POP POP POP ISZERO DUP1 ISZERO PUSH2 0x315 JUMPI RETURNDATASIZE PUSH1 0x0 DUP1 RETURNDATACOPY RETURNDATASIZE PUSH1 0x0 REVERT JUMPDEST POP POP JUMP JUMPDEST PUSH1 0x0 SELFBALANCE SWAP1 POP SWAP1 JUMP JUMPDEST PUSH1 0x0 DUP1 REVERT JUMPDEST PUSH1 0x0 PUSH20 0xFFFFFFFFFFFFFFFFFFFFFFFFFFFFFFFFFFFFFFFF DUP3 AND SWAP1 POP SWAP2 SWAP1 POP JUMP JUMPDEST PUSH1 0x0 PUSH2 0x351 DUP3 PUSH2 0x326 JUMP JUMPDEST SWAP1 POP SWAP2 SWAP1 POP JUMP JUMPDEST PUSH2 0x361 DUP2 PUSH2 0x346 JUMP JUMPDEST DUP2 EQ PUSH2 0x36C JUMPI PUSH1 0x0 DUP1 REVERT JUMPDEST POP JUMP JUMPDEST PUSH1 0x0 DUP2 CALLDATALOAD SWAP1 POP PUSH2 0x37E DUP2 PUSH2 0x358 JUMP JUMPDEST SWAP3 SWAP2 POP POP JUMP JUMPDEST PUSH1 0x0 PUSH1 0x20 DUP3 DUP5 SUB SLT ISZERO PUSH2 0x39A JUMPI PUSH2 0x399 PUSH2 0x321 JUMP JUMPDEST JUMPDEST PUSH1 0x0 PUSH2 0x3A8 DUP5 DUP3 DUP6 ADD PUSH2 0x36F JUMP JUMPDEST SWAP2 POP POP SWAP3 SWAP2 POP POP JUMP JUMPDEST PUSH1 0x0 DUP2 SWAP1 POP SWAP2 SWAP1 POP JUMP JUMPDEST PUSH2 0x3C4 DUP2 PUSH2 0x3B1 JUMP JUMPDEST DUP3 MSTORE POP POP JUMP JUMPDEST PUSH1 0x0 PUSH1 0x20 DUP3 ADD SWAP1 POP PUSH2 0x3DF PUSH1 0x0 DUP4 ADD DUP5 PUSH2 0x3BB JUMP JUMPDEST SWAP3 SWAP2 POP POP JUMP JUMPDEST PUSH1 0x0 DUP3 DUP3 MSTORE PUSH1 0x20 DUP3 ADD SWAP1 POP SWAP3 SWAP2 POP POP JUMP JUMPDEST PUSH32 0x706C656173652073656E6420736F6D6520616D6F756E74000000000000000000 PUSH1 0x0 DUP3 ADD MSTORE POP JUMP JUMPDEST PUSH1 0x0 PUSH2 0x42C PUSH1 0x17 DUP4 PUSH2 0x3E5 JUMP JUMPDEST SWAP2 POP PUSH2 0x437 DUP3 PUSH2 0x3F6 JUMP JUMPDEST PUSH1 0x20 DUP3 ADD SWAP1 POP SWAP2 SWAP1 POP JUMP JUMPDEST PUSH1 0x0 PUSH1 0x20 DUP3 ADD SWAP1 POP DUP2 DUP2 SUB PUSH1 0x0 DUP4 ADD MSTORE PUSH2 0x45B DUP2 PUSH2 0x41F JUMP JUMPDEST SWAP1 POP SWAP2 SWAP1 POP JUMP JUMPDEST PUSH32 0x7A65726F2061646472657373206973206E6F7420616C6C6F7765640000000000 PUSH1 0x0 DUP3 ADD MSTORE POP JUMP JUMPDEST PUSH1 0x0 PUSH2 0x498 PUSH1 0x1B DUP4 PUSH2 0x3E5 JUMP JUMPDEST SWAP2 POP PUSH2 0x4A3 DUP3 PUSH2 0x462 JUMP JUMPDEST PUSH1 0x20 DUP3 ADD SWAP1 POP SWAP2 SWAP1 POP JUMP JUMPDEST PUSH1 0x0 PUSH1 0x20 DUP3 ADD SWAP1 POP DUP2 DUP2 SUB PUSH1 0x0 DUP4 ADD MSTORE PUSH2 0x4C7 DUP2 PUSH2 0x48B JUMP JUMPDEST SWAP1 POP SWAP2 SWAP1 POP JUMP JUMPDEST PUSH32 0x4E487B7100000000000000000000000000000000000000000000000000000000 PUSH1 0x0 MSTORE PUSH1 0x11 PUSH1 0x4 MSTORE PUSH1 0x24 PUSH1 0x0 REVERT JUMPDEST PUSH1 0x0 PUSH2 0x508 DUP3 PUSH2 0x3B1 JUMP JUMPDEST SWAP2 POP PUSH2 0x513 DUP4 PUSH2 0x3B1 JUMP JUMPDEST SWAP3 POP DUP3 DUP3 MUL PUSH2 0x521 DUP2 PUSH2 0x3B1 JUMP JUMPDEST SWAP2 POP DUP3 DUP3 DIV DUP5 EQ DUP4 ISZERO OR PUSH2 0x538 JUMPI PUSH2 0x537 PUSH2 0x4CE JUMP JUMPDEST JUMPDEST POP SWAP3 SWAP2 POP POP JUMP JUMPDEST PUSH32 0x4E487B7100000000000000000000000000000000000000000000000000000000 PUSH1 0x0 MSTORE PUSH1 0x12 PUSH1 0x4 MSTORE PUSH1 0x24 PUSH1 0x0 REVERT JUMPDEST PUSH1 0x0 PUSH2 0x579 DUP3 PUSH2 0x3B1 JUMP JUMPDEST SWAP2 POP PUSH2 0x584 DUP4 PUSH2 0x3B1 JUMP JUMPDEST SWAP3 POP DUP3 PUSH2 0x594 JUMPI PUSH2 0x593 PUSH2 0x53F JUMP JUMPDEST JUMPDEST DUP3 DUP3 DIV SWAP1 POP SWAP3 SWAP2 POP POP JUMP JUMPDEST PUSH1 0x0 PUSH2 0x5AA DUP3 PUSH2 0x3B1 JUMP JUMPDEST SWAP2 POP PUSH2 0x5B5 DUP4 PUSH2 0x3B1 JUMP JUMPDEST SWAP3 POP DUP3 DUP3 SUB SWAP1 POP DUP2 DUP2 GT ISZERO PUSH2 0x5CD JUMPI PUSH2 0x5CC PUSH2 0x4CE JUMP JUMPDEST JUMPDEST SWAP3 SWAP2 POP POP JUMP JUMPDEST PUSH32 0x6E6F7420616C6C6F776564000000000000000000000000000000000000000000 PUSH1 0x0 DUP3 ADD MSTORE POP JUMP JUMPDEST PUSH1 0x0 PUSH2 0x609 PUSH1 0xB DUP4 PUSH2 0x3E5 JUMP JUMPDEST SWAP2 POP PUSH2 0x614 DUP3 PUSH2 0x5D3 JUMP JUMPDEST PUSH1 0x20 DUP3 ADD SWAP1 POP SWAP2 SWAP1 POP JUMP JUMPDEST PUSH1 0x0 PUSH1 0x20 DUP3 ADD SWAP1 POP DUP2 DUP2 SUB PUSH1 0x0 DUP4 ADD MSTORE PUSH2 0x638 DUP2 PUSH2 0x5FC JUMP JUMPDEST SWAP1 POP SWAP2 SWAP1 POP JUMP INVALID LOG2 PUSH5 0x6970667358 0x22 SLT KECCAK256 DUP13 SWAP13 ORIGIN EQ 0xC6 PUSH4 0x48296D24 SWAP10 DUP3 DIV NUMBER PUSH8 0xC9774541BC09256A 0xB2 0xB4 SSTORE DUP12 0xE8 PC 0xC5 0x29 SLT PUSH5 0x736F6C6343 STOP ADDMOD SLT STOP CALLER "
				},
				"gasEstimates": {
					"creation": {
						"codeDepositCost": "330600",
						"executionCost": "24634",
						"totalCost": "355234"
					},
					"external": {
						"getContractBalance()": "383",
						"getMyBalance()": "2942",
						"sendMoney(address)": "infinite",
						"withdrawContractBal()": "infinite"
					}
				},
				"methodIdentifiers": {
					"getContractBalance()": "6f9fb98a",
					"getMyBalance()": "4c738909",
					"sendMoney(address)": "338ccd78",
					"withdrawContractBal()": "4ff404f1"
				}
			},
			"storageLayout": {
				"storage": [
					{
						"astId": 3,
						"contract": "TASK/Send_ether.sol:Send_ether",
						"label": "admin",
						"offset": 0,
						"slot": "0",
						"type": "t_address"
					}
				],
				"types": {
					"t_address": {
						"encoding": "inplace",
						"label": "address",
						"numberOfBytes": "20"
					}
				}
			},
			"userdoc": {
				"kind": "user",
				"methods": {},
				"version": 1
			}
		}
	}
}