{
	"TASK/enum_car.sol": {
		"Enum_car": {
			"abi": [
				{
					"inputs": [],
					"name": "ignitionState",
					"outputs": [
						{
							"internalType": "enum Enum_car.car",
							"name": "",
							"type": "uint8"
						}
					],
					"stateMutability": "view",
					"type": "function"
				},
				{
					"inputs": [],
					"name": "ignition_Off",
					"outputs": [],
					"stateMutability": "nonpayable",
					"type": "function"
				},
				{
					"inputs": [],
					"name": "ignition_On",
					"outputs": [],
					"stateMutability": "nonpayable",
					"type": "function"
				}
			],
			"devdoc": {
				"kind": "dev",
				"methods": {},
				"version": 1
			},
			"evm": {
				"assembly": "    /* \"TASK/enum_car.sol\":74:371  contract Enum_car{... */\n  mstore(0x40, 0x80)\n    /* \"TASK/enum_car.sol\":170:186  car.ignition_off */\n  0x00\n    /* \"TASK/enum_car.sol\":143:186  car public ignitionState = car.ignition_off */\n  dup1\n  exp(0x0100, 0x00)\n  dup2\n  sload\n  dup2\n  0xff\n  mul\n  not\n  and\n  swap1\n  dup4\n  0x01\n  dup2\n  gt\n  iszero\n  tag_1\n  jumpi\n  tag_2\n  tag_3\n  jump\t// in\ntag_2:\ntag_1:\n  mul\n  or\n  swap1\n  sstore\n  pop\n    /* \"TASK/enum_car.sol\":74:371  contract Enum_car{... */\n  callvalue\n  dup1\n  iszero\n  tag_4\n  jumpi\n  0x00\n  dup1\n  revert\ntag_4:\n  pop\n  jump(tag_5)\n    /* \"#utility.yul\":7:187   */\ntag_3:\n    /* \"#utility.yul\":55:132   */\n  0x4e487b7100000000000000000000000000000000000000000000000000000000\n    /* \"#utility.yul\":52:53   */\n  0x00\n    /* \"#utility.yul\":45:133   */\n  mstore\n    /* \"#utility.yul\":152:156   */\n  0x21\n    /* \"#utility.yul\":149:150   */\n  0x04\n    /* \"#utility.yul\":142:157   */\n  mstore\n    /* \"#utility.yul\":176:180   */\n  0x24\n    /* \"#utility.yul\":173:174   */\n  0x00\n    /* \"#utility.yul\":166:181   */\n  revert\n    /* \"TASK/enum_car.sol\":74:371  contract Enum_car{... */\ntag_5:\n  dataSize(sub_0)\n  dup1\n  dataOffset(sub_0)\n  0x00\n  codecopy\n  0x00\n  return\nstop\n\nsub_0: assembly {\n        /* \"TASK/enum_car.sol\":74:371  contract Enum_car{... */\n      mstore(0x40, 0x80)\n      callvalue\n      dup1\n      iszero\n      tag_1\n      jumpi\n      0x00\n      dup1\n      revert\n    tag_1:\n      pop\n      jumpi(tag_2, lt(calldatasize, 0x04))\n      shr(0xe0, calldataload(0x00))\n      dup1\n      0x153b93ee\n      eq\n      tag_3\n      jumpi\n      dup1\n      0x44ca3762\n      eq\n      tag_4\n      jumpi\n      dup1\n      0xb077c3ce\n      eq\n      tag_5\n      jumpi\n    tag_2:\n      0x00\n      dup1\n      revert\n        /* \"TASK/enum_car.sol\":281:362  function ignition_Off()public{... */\n    tag_3:\n      tag_6\n      tag_7\n      jump\t// in\n    tag_6:\n      stop\n        /* \"TASK/enum_car.sol\":143:186  car public ignitionState = car.ignition_off */\n    tag_4:\n      tag_8\n      tag_9\n      jump\t// in\n    tag_8:\n      mload(0x40)\n      tag_10\n      swap2\n      swap1\n      tag_11\n      jump\t// in\n    tag_10:\n      mload(0x40)\n      dup1\n      swap2\n      sub\n      swap1\n      return\n        /* \"TASK/enum_car.sol\":195:273  function ignition_On()public{... */\n    tag_5:\n      tag_12\n      tag_13\n      jump\t// in\n    tag_12:\n      stop\n        /* \"TASK/enum_car.sol\":281:362  function ignition_Off()public{... */\n    tag_7:\n        /* \"TASK/enum_car.sol\":338:354  car.ignition_off */\n      0x00\n        /* \"TASK/enum_car.sol\":322:335  ignitionState */\n      dup1\n      0x00\n        /* \"TASK/enum_car.sol\":322:354  ignitionState = car.ignition_off */\n      0x0100\n      exp\n      dup2\n      sload\n      dup2\n      0xff\n      mul\n      not\n      and\n      swap1\n      dup4\n      0x01\n      dup2\n      gt\n      iszero\n      tag_15\n      jumpi\n      tag_16\n      tag_17\n      jump\t// in\n    tag_16:\n    tag_15:\n      mul\n      or\n      swap1\n      sstore\n      pop\n        /* \"TASK/enum_car.sol\":281:362  function ignition_Off()public{... */\n      jump\t// out\n        /* \"TASK/enum_car.sol\":143:186  car public ignitionState = car.ignition_off */\n    tag_9:\n      0x00\n      dup1\n      sload\n      swap1\n      0x0100\n      exp\n      swap1\n      div\n      0xff\n      and\n      dup2\n      jump\t// out\n        /* \"TASK/enum_car.sol\":195:273  function ignition_On()public{... */\n    tag_13:\n        /* \"TASK/enum_car.sol\":250:265  car.ignition_on */\n      0x01\n        /* \"TASK/enum_car.sol\":234:247  ignitionState */\n      0x00\n      dup1\n        /* \"TASK/enum_car.sol\":234:265  ignitionState = car.ignition_on */\n      0x0100\n      exp\n      dup2\n      sload\n      dup2\n      0xff\n      mul\n      not\n      and\n      swap1\n      dup4\n      0x01\n      dup2\n      gt\n      iszero\n      tag_19\n      jumpi\n      tag_20\n      tag_17\n      jump\t// in\n    tag_20:\n    tag_19:\n      mul\n      or\n      swap1\n      sstore\n      pop\n        /* \"TASK/enum_car.sol\":195:273  function ignition_On()public{... */\n      jump\t// out\n        /* \"#utility.yul\":7:187   */\n    tag_17:\n        /* \"#utility.yul\":55:132   */\n      0x4e487b7100000000000000000000000000000000000000000000000000000000\n        /* \"#utility.yul\":52:53   */\n      0x00\n        /* \"#utility.yul\":45:133   */\n      mstore\n        /* \"#utility.yul\":152:156   */\n      0x21\n        /* \"#utility.yul\":149:150   */\n      0x04\n        /* \"#utility.yul\":142:157   */\n      mstore\n        /* \"#utility.yul\":176:180   */\n      0x24\n        /* \"#utility.yul\":173:174   */\n      0x00\n        /* \"#utility.yul\":166:181   */\n      revert\n        /* \"#utility.yul\":193:303   */\n    tag_21:\n        /* \"#utility.yul\":271:272   */\n      0x02\n        /* \"#utility.yul\":264:269   */\n      dup2\n        /* \"#utility.yul\":261:273   */\n      lt\n        /* \"#utility.yul\":251:297   */\n      tag_28\n      jumpi\n        /* \"#utility.yul\":277:295   */\n      tag_29\n      tag_17\n      jump\t// in\n    tag_29:\n        /* \"#utility.yul\":251:297   */\n    tag_28:\n        /* \"#utility.yul\":193:303   */\n      pop\n      jump\t// out\n        /* \"#utility.yul\":309:430   */\n    tag_22:\n        /* \"#utility.yul\":351:358   */\n      0x00\n        /* \"#utility.yul\":380:385   */\n      dup2\n        /* \"#utility.yul\":369:385   */\n      swap1\n      pop\n        /* \"#utility.yul\":386:424   */\n      tag_31\n        /* \"#utility.yul\":418:423   */\n      dup3\n        /* \"#utility.yul\":386:424   */\n      tag_21\n      jump\t// in\n    tag_31:\n        /* \"#utility.yul\":309:430   */\n      swap2\n      swap1\n      pop\n      jump\t// out\n        /* \"#utility.yul\":436:557   */\n    tag_23:\n        /* \"#utility.yul\":489:498   */\n      0x00\n        /* \"#utility.yul\":522:551   */\n      tag_33\n        /* \"#utility.yul\":545:550   */\n      dup3\n        /* \"#utility.yul\":522:551   */\n      tag_22\n      jump\t// in\n    tag_33:\n        /* \"#utility.yul\":509:551   */\n      swap1\n      pop\n        /* \"#utility.yul\":436:557   */\n      swap2\n      swap1\n      pop\n      jump\t// out\n        /* \"#utility.yul\":563:700   */\n    tag_24:\n        /* \"#utility.yul\":653:693   */\n      tag_35\n        /* \"#utility.yul\":687:692   */\n      dup2\n        /* \"#utility.yul\":653:693   */\n      tag_23\n      jump\t// in\n    tag_35:\n        /* \"#utility.yul\":648:651   */\n      dup3\n        /* \"#utility.yul\":641:694   */\n      mstore\n        /* \"#utility.yul\":563:700   */\n      pop\n      pop\n      jump\t// out\n        /* \"#utility.yul\":706:934   */\n    tag_11:\n        /* \"#utility.yul\":802:806   */\n      0x00\n        /* \"#utility.yul\":840:842   */\n      0x20\n        /* \"#utility.yul\":829:838   */\n      dup3\n        /* \"#utility.yul\":825:843   */\n      add\n        /* \"#utility.yul\":817:843   */\n      swap1\n      pop\n        /* \"#utility.yul\":853:927   */\n      tag_37\n        /* \"#utility.yul\":924:925   */\n      0x00\n        /* \"#utility.yul\":913:922   */\n      dup4\n        /* \"#utility.yul\":909:926   */\n      add\n        /* \"#utility.yul\":900:906   */\n      dup5\n        /* \"#utility.yul\":853:927   */\n      tag_24\n      jump\t// in\n    tag_37:\n        /* \"#utility.yul\":706:934   */\n      swap3\n      swap2\n      pop\n      pop\n      jump\t// out\n\n    auxdata: 0xa264697066735822122058ca3c65be855cb3affdb174702d0d560883b9393f47fc47835abfa84169d0af64736f6c63430008120033\n}\n",
				"bytecode": {
					"linkReferences": {},
					"object": "608060405260008060006101000a81548160ff0219169083600181111561002957610028610040565b5b021790555034801561003a57600080fd5b5061006f565b7f4e487b7100000000000000000000000000000000000000000000000000000000600052602160045260246000fd5b6101a98061007e6000396000f3fe608060405234801561001057600080fd5b50600436106100415760003560e01c8063153b93ee1461004657806344ca376214610050578063b077c3ce1461006e575b600080fd5b61004e610078565b005b6100586100a4565b6040516100659190610158565b60405180910390f35b6100766100b5565b005b60008060006101000a81548160ff0219169083600181111561009d5761009c6100e1565b5b0217905550565b60008054906101000a900460ff1681565b60016000806101000a81548160ff021916908360018111156100da576100d96100e1565b5b0217905550565b7f4e487b7100000000000000000000000000000000000000000000000000000000600052602160045260246000fd5b60028110610121576101206100e1565b5b50565b600081905061013282610110565b919050565b600061014282610124565b9050919050565b61015281610137565b82525050565b600060208201905061016d6000830184610149565b9291505056fea264697066735822122058ca3c65be855cb3affdb174702d0d560883b9393f47fc47835abfa84169d0af64736f6c63430008120033",
					"opcodes": "PUSH1 0x80 PUSH1 0x40 MSTORE PUSH1 0x0 DUP1 PUSH1 0x0 PUSH2 0x100 EXP DUP2 SLOAD DUP2 PUSH1 0xFF MUL NOT AND SWAP1 DUP4 PUSH1 0x1 DUP2 GT ISZERO PUSH2 0x29 JUMPI PUSH2 0x28 PUSH2 0x40 JUMP JUMPDEST JUMPDEST MUL OR SWAP1 SSTORE POP CALLVALUE DUP1 ISZERO PUSH2 0x3A JUMPI PUSH1 0x0 DUP1 REVERT JUMPDEST POP PUSH2 0x6F JUMP JUMPDEST PUSH32 0x4E487B7100000000000000000000000000000000000000000000000000000000 PUSH1 0x0 MSTORE PUSH1 0x21 PUSH1 0x4 MSTORE PUSH1 0x24 PUSH1 0x0 REVERT JUMPDEST PUSH2 0x1A9 DUP1 PUSH2 0x7E PUSH1 0x0 CODECOPY PUSH1 0x0 RETURN INVALID PUSH1 0x80 PUSH1 0x40 MSTORE CALLVALUE DUP1 ISZERO PUSH2 0x10 JUMPI PUSH1 0x0 DUP1 REVERT JUMPDEST POP PUSH1 0x4 CALLDATASIZE LT PUSH2 0x41 JUMPI PUSH1 0x0 CALLDATALOAD PUSH1 0xE0 SHR DUP1 PUSH4 0x153B93EE EQ PUSH2 0x46 JUMPI DUP1 PUSH4 0x44CA3762 EQ PUSH2 0x50 JUMPI DUP1 PUSH4 0xB077C3CE EQ PUSH2 0x6E JUMPI JUMPDEST PUSH1 0x0 DUP1 REVERT JUMPDEST PUSH2 0x4E PUSH2 0x78 JUMP JUMPDEST STOP JUMPDEST PUSH2 0x58 PUSH2 0xA4 JUMP JUMPDEST PUSH1 0x40 MLOAD PUSH2 0x65 SWAP2 SWAP1 PUSH2 0x158 JUMP JUMPDEST PUSH1 0x40 MLOAD DUP1 SWAP2 SUB SWAP1 RETURN JUMPDEST PUSH2 0x76 PUSH2 0xB5 JUMP JUMPDEST STOP JUMPDEST PUSH1 0x0 DUP1 PUSH1 0x0 PUSH2 0x100 EXP DUP2 SLOAD DUP2 PUSH1 0xFF MUL NOT AND SWAP1 DUP4 PUSH1 0x1 DUP2 GT ISZERO PUSH2 0x9D JUMPI PUSH2 0x9C PUSH2 0xE1 JUMP JUMPDEST JUMPDEST MUL OR SWAP1 SSTORE POP JUMP JUMPDEST PUSH1 0x0 DUP1 SLOAD SWAP1 PUSH2 0x100 EXP SWAP1 DIV PUSH1 0xFF AND DUP2 JUMP JUMPDEST PUSH1 0x1 PUSH1 0x0 DUP1 PUSH2 0x100 EXP DUP2 SLOAD DUP2 PUSH1 0xFF MUL NOT AND SWAP1 DUP4 PUSH1 0x1 DUP2 GT ISZERO PUSH2 0xDA JUMPI PUSH2 0xD9 PUSH2 0xE1 JUMP JUMPDEST JUMPDEST MUL OR SWAP1 SSTORE POP JUMP JUMPDEST PUSH32 0x4E487B7100000000000000000000000000000000000000000000000000000000 PUSH1 0x0 MSTORE PUSH1 0x21 PUSH1 0x4 MSTORE PUSH1 0x24 PUSH1 0x0 REVERT JUMPDEST PUSH1 0x2 DUP2 LT PUSH2 0x121 JUMPI PUSH2 0x120 PUSH2 0xE1 JUMP JUMPDEST JUMPDEST POP JUMP JUMPDEST PUSH1 0x0 DUP2 SWAP1 POP PUSH2 0x132 DUP3 PUSH2 0x110 JUMP JUMPDEST SWAP2 SWAP1 POP JUMP JUMPDEST PUSH1 0x0 PUSH2 0x142 DUP3 PUSH2 0x124 JUMP JUMPDEST SWAP1 POP SWAP2 SWAP1 POP JUMP JUMPDEST PUSH2 0x152 DUP2 PUSH2 0x137 JUMP JUMPDEST DUP3 MSTORE POP POP JUMP JUMPDEST PUSH1 0x0 PUSH1 0x20 DUP3 ADD SWAP1 POP PUSH2 0x16D PUSH1 0x0 DUP4 ADD DUP5 PUSH2 0x149 JUMP JUMPDEST SWAP3 SWAP2 POP POP JUMP INVALID LOG2 PUSH5 0x6970667358 0x22 SLT KECCAK256 PC 0xCA EXTCODECOPY PUSH6 0xBE855CB3AFFD 0xB1 PUSH21 0x702D0D560883B9393F47FC47835ABFA84169D0AF64 PUSH20 0x6F6C634300081200330000000000000000000000 "
				},
				"gasEstimates": {
					"creation": {
						"codeDepositCost": "85000",
						"executionCost": "24434",
						"totalCost": "109434"
					},
					"external": {
						"ignitionState()": "2557",
						"ignition_Off()": "24409",
						"ignition_On()": "24453"
					}
				},
				"methodIdentifiers": {
					"ignitionState()": "44ca3762",
					"ignition_Off()": "153b93ee",
					"ignition_On()": "b077c3ce"
				}
			},
			"storageLayout": {
				"storage": [
					{
						"astId": 9,
						"contract": "TASK/enum_car.sol:Enum_car",
						"label": "ignitionState",
						"offset": 0,
						"slot": "0",
						"type": "t_enum(car)4"
					}
				],
				"types": {
					"t_enum(car)4": {
						"encoding": "inplace",
						"label": "enum Enum_car.car",
						"numberOfBytes": "1"
					}
				}
			},
			"userdoc": {
				"kind": "user",
				"methods": {},
				"version": 1
			}
		}
	}
}