{
	"data": {
		"bytecode": {
			"linkReferences": {},
			"object": "60806040523480156200001157600080fd5b506040516200099a3803806200099a833981810160405281019062000037919062000245565b81818160008190555080600181905550505083600290816200005a919062000536565b5082600390816200006c919062000536565b50505050506200061d565b6000604051905090565b600080fd5b600080fd5b600080fd5b600080fd5b6000601f19601f8301169050919050565b7f4e487b7100000000000000000000000000000000000000000000000000000000600052604160045260246000fd5b620000e08262000095565b810181811067ffffffffffffffff82111715620001025762000101620000a6565b5b80604052505050565b60006200011762000077565b9050620001258282620000d5565b919050565b600067ffffffffffffffff821115620001485762000147620000a6565b5b620001538262000095565b9050602081019050919050565b60005b838110156200018057808201518184015260208101905062000163565b60008484015250505050565b6000620001a36200019d846200012a565b6200010b565b905082815260208101848484011115620001c257620001c162000090565b5b620001cf84828562000160565b509392505050565b600082601f830112620001ef57620001ee6200008b565b5b8151620002018482602086016200018c565b91505092915050565b6000819050919050565b6200021f816200020a565b81146200022b57600080fd5b50565b6000815190506200023f8162000214565b92915050565b6000806000806080858703121562000262576200026162000081565b5b600085015167ffffffffffffffff81111562000283576200028262000086565b5b6200029187828801620001d7565b945050602085015167ffffffffffffffff811115620002b557620002b462000086565b5b620002c387828801620001d7565b9350506040620002d6878288016200022e565b9250506060620002e9878288016200022e565b91505092959194509250565b600081519050919050565b7f4e487b7100000000000000000000000000000000000000000000000000000000600052602260045260246000fd5b600060028204905060018216806200034857607f821691505b6020821081036200035e576200035d62000300565b5b50919050565b60008190508160005260206000209050919050565b60006020601f8301049050919050565b600082821b905092915050565b600060088302620003c87fffffffffffffffffffffffffffffffffffffffffffffffffffffffffffffffff8262000389565b620003d4868362000389565b95508019841693508086168417925050509392505050565b6000819050919050565b600062000417620004116200040b846200020a565b620003ec565b6200020a565b9050919050565b6000819050919050565b6200043383620003f6565b6200044b62000442826200041e565b84845462000396565b825550505050565b600090565b6200046262000453565b6200046f81848462000428565b505050565b5b8181101562000497576200048b60008262000458565b60018101905062000475565b5050565b601f821115620004e657620004b08162000364565b620004bb8462000379565b81016020851015620004cb578190505b620004e3620004da8562000379565b83018262000474565b50505b505050565b600082821c905092915050565b60006200050b60001984600802620004eb565b1980831691505092915050565b6000620005268383620004f8565b9150826002028217905092915050565b6200054182620002f5565b67ffffffffffffffff8111156200055d576200055c620000a6565b5b6200056982546200032f565b620005768282856200049b565b600060209050601f831160018114620005ae576000841562000599578287015190505b620005a5858262000518565b86555062000615565b601f198416620005be8662000364565b60005b82811015620005e857848901518255600182019150602085019450602081019050620005c1565b8683101562000608578489015162000604601f891682620004f8565b8355505b6001600288020188555050505b505050505050565b61036d806200062d6000396000f3fe608060405234801561001057600080fd5b506004361061004c5760003560e01c80630ad9d05214610051578063155852891461006f578063c6dad0821461008d578063f3269716146100ab575b600080fd5b6100596100c9565b6040516100669190610281565b60405180910390f35b610077610157565b60405161008491906102bc565b60405180910390f35b61009561015d565b6040516100a29190610281565b60405180910390f35b6100b36101eb565b6040516100c091906102bc565b60405180910390f35b600380546100d690610306565b80601f016020809104026020016040519081016040528092919081815260200182805461010290610306565b801561014f5780601f106101245761010080835404028352916020019161014f565b820191906000526020600020905b81548152906001019060200180831161013257829003601f168201915b505050505081565b60005481565b6002805461016a90610306565b80601f016020809104026020016040519081016040528092919081815260200182805461019690610306565b80156101e35780601f106101b8576101008083540402835291602001916101e3565b820191906000526020600020905b8154815290600101906020018083116101c657829003601f168201915b505050505081565b60015481565b600081519050919050565b600082825260208201905092915050565b60005b8381101561022b578082015181840152602081019050610210565b60008484015250505050565b6000601f19601f8301169050919050565b6000610253826101f1565b61025d81856101fc565b935061026d81856020860161020d565b61027681610237565b840191505092915050565b6000602082019050818103600083015261029b8184610248565b905092915050565b6000819050919050565b6102b6816102a3565b82525050565b60006020820190506102d160008301846102ad565b92915050565b7f4e487b7100000000000000000000000000000000000000000000000000000000600052602260045260246000fd5b6000600282049050600182168061031e57607f821691505b602082108103610331576103306102d7565b5b5091905056fea26469706673582212209d5ce122756a63a9766fdde27488caea30ed7b2d4fabe45a04a1d1b5f6d8398464736f6c63430008120033",
			"opcodes": "PUSH1 0x80 PUSH1 0x40 MSTORE CALLVALUE DUP1 ISZERO PUSH3 0x11 JUMPI PUSH1 0x0 DUP1 REVERT JUMPDEST POP PUSH1 0x40 MLOAD PUSH3 0x99A CODESIZE SUB DUP1 PUSH3 0x99A DUP4 CODECOPY DUP2 DUP2 ADD PUSH1 0x40 MSTORE DUP2 ADD SWAP1 PUSH3 0x37 SWAP2 SWAP1 PUSH3 0x245 JUMP JUMPDEST DUP2 DUP2 DUP2 PUSH1 0x0 DUP2 SWAP1 SSTORE POP DUP1 PUSH1 0x1 DUP2 SWAP1 SSTORE POP POP POP DUP4 PUSH1 0x2 SWAP1 DUP2 PUSH3 0x5A SWAP2 SWAP1 PUSH3 0x536 JUMP JUMPDEST POP DUP3 PUSH1 0x3 SWAP1 DUP2 PUSH3 0x6C SWAP2 SWAP1 PUSH3 0x536 JUMP JUMPDEST POP POP POP POP POP PUSH3 0x61D JUMP JUMPDEST PUSH1 0x0 PUSH1 0x40 MLOAD SWAP1 POP SWAP1 JUMP JUMPDEST PUSH1 0x0 DUP1 REVERT JUMPDEST PUSH1 0x0 DUP1 REVERT JUMPDEST PUSH1 0x0 DUP1 REVERT JUMPDEST PUSH1 0x0 DUP1 REVERT JUMPDEST PUSH1 0x0 PUSH1 0x1F NOT PUSH1 0x1F DUP4 ADD AND SWAP1 POP SWAP2 SWAP1 POP JUMP JUMPDEST PUSH32 0x4E487B7100000000000000000000000000000000000000000000000000000000 PUSH1 0x0 MSTORE PUSH1 0x41 PUSH1 0x4 MSTORE PUSH1 0x24 PUSH1 0x0 REVERT JUMPDEST PUSH3 0xE0 DUP3 PUSH3 0x95 JUMP JUMPDEST DUP2 ADD DUP2 DUP2 LT PUSH8 0xFFFFFFFFFFFFFFFF DUP3 GT OR ISZERO PUSH3 0x102 JUMPI PUSH3 0x101 PUSH3 0xA6 JUMP JUMPDEST JUMPDEST DUP1 PUSH1 0x40 MSTORE POP POP POP JUMP JUMPDEST PUSH1 0x0 PUSH3 0x117 PUSH3 0x77 JUMP JUMPDEST SWAP1 POP PUSH3 0x125 DUP3 DUP3 PUSH3 0xD5 JUMP JUMPDEST SWAP2 SWAP1 POP JUMP JUMPDEST PUSH1 0x0 PUSH8 0xFFFFFFFFFFFFFFFF DUP3 GT ISZERO PUSH3 0x148 JUMPI PUSH3 0x147 PUSH3 0xA6 JUMP JUMPDEST JUMPDEST PUSH3 0x153 DUP3 PUSH3 0x95 JUMP JUMPDEST SWAP1 POP PUSH1 0x20 DUP2 ADD SWAP1 POP SWAP2 SWAP1 POP JUMP JUMPDEST PUSH1 0x0 JUMPDEST DUP4 DUP2 LT ISZERO PUSH3 0x180 JUMPI DUP1 DUP3 ADD MLOAD DUP2 DUP5 ADD MSTORE PUSH1 0x20 DUP2 ADD SWAP1 POP PUSH3 0x163 JUMP JUMPDEST PUSH1 0x0 DUP5 DUP5 ADD MSTORE POP POP POP POP JUMP JUMPDEST PUSH1 0x0 PUSH3 0x1A3 PUSH3 0x19D DUP5 PUSH3 0x12A JUMP JUMPDEST PUSH3 0x10B JUMP JUMPDEST SWAP1 POP DUP3 DUP2 MSTORE PUSH1 0x20 DUP2 ADD DUP5 DUP5 DUP5 ADD GT ISZERO PUSH3 0x1C2 JUMPI PUSH3 0x1C1 PUSH3 0x90 JUMP JUMPDEST JUMPDEST PUSH3 0x1CF DUP5 DUP3 DUP6 PUSH3 0x160 JUMP JUMPDEST POP SWAP4 SWAP3 POP POP POP JUMP JUMPDEST PUSH1 0x0 DUP3 PUSH1 0x1F DUP4 ADD SLT PUSH3 0x1EF JUMPI PUSH3 0x1EE PUSH3 0x8B JUMP JUMPDEST JUMPDEST DUP2 MLOAD PUSH3 0x201 DUP5 DUP3 PUSH1 0x20 DUP7 ADD PUSH3 0x18C JUMP JUMPDEST SWAP2 POP POP SWAP3 SWAP2 POP POP JUMP JUMPDEST PUSH1 0x0 DUP2 SWAP1 POP SWAP2 SWAP1 POP JUMP JUMPDEST PUSH3 0x21F DUP2 PUSH3 0x20A JUMP JUMPDEST DUP2 EQ PUSH3 0x22B JUMPI PUSH1 0x0 DUP1 REVERT JUMPDEST POP JUMP JUMPDEST PUSH1 0x0 DUP2 MLOAD SWAP1 POP PUSH3 0x23F DUP2 PUSH3 0x214 JUMP JUMPDEST SWAP3 SWAP2 POP POP JUMP JUMPDEST PUSH1 0x0 DUP1 PUSH1 0x0 DUP1 PUSH1 0x80 DUP6 DUP8 SUB SLT ISZERO PUSH3 0x262 JUMPI PUSH3 0x261 PUSH3 0x81 JUMP JUMPDEST JUMPDEST PUSH1 0x0 DUP6 ADD MLOAD PUSH8 0xFFFFFFFFFFFFFFFF DUP2 GT ISZERO PUSH3 0x283 JUMPI PUSH3 0x282 PUSH3 0x86 JUMP JUMPDEST JUMPDEST PUSH3 0x291 DUP8 DUP3 DUP9 ADD PUSH3 0x1D7 JUMP JUMPDEST SWAP5 POP POP PUSH1 0x20 DUP6 ADD MLOAD PUSH8 0xFFFFFFFFFFFFFFFF DUP2 GT ISZERO PUSH3 0x2B5 JUMPI PUSH3 0x2B4 PUSH3 0x86 JUMP JUMPDEST JUMPDEST PUSH3 0x2C3 DUP8 DUP3 DUP9 ADD PUSH3 0x1D7 JUMP JUMPDEST SWAP4 POP POP PUSH1 0x40 PUSH3 0x2D6 DUP8 DUP3 DUP9 ADD PUSH3 0x22E JUMP JUMPDEST SWAP3 POP POP PUSH1 0x60 PUSH3 0x2E9 DUP8 DUP3 DUP9 ADD PUSH3 0x22E JUMP JUMPDEST SWAP2 POP POP SWAP3 SWAP6 SWAP2 SWAP5 POP SWAP3 POP JUMP JUMPDEST PUSH1 0x0 DUP2 MLOAD SWAP1 POP SWAP2 SWAP1 POP JUMP JUMPDEST PUSH32 0x4E487B7100000000000000000000000000000000000000000000000000000000 PUSH1 0x0 MSTORE PUSH1 0x22 PUSH1 0x4 MSTORE PUSH1 0x24 PUSH1 0x0 REVERT JUMPDEST PUSH1 0x0 PUSH1 0x2 DUP3 DIV SWAP1 POP PUSH1 0x1 DUP3 AND DUP1 PUSH3 0x348 JUMPI PUSH1 0x7F DUP3 AND SWAP2 POP JUMPDEST PUSH1 0x20 DUP3 LT DUP2 SUB PUSH3 0x35E JUMPI PUSH3 0x35D PUSH3 0x300 JUMP JUMPDEST JUMPDEST POP SWAP2 SWAP1 POP JUMP JUMPDEST PUSH1 0x0 DUP2 SWAP1 POP DUP2 PUSH1 0x0 MSTORE PUSH1 0x20 PUSH1 0x0 KECCAK256 SWAP1 POP SWAP2 SWAP1 POP JUMP JUMPDEST PUSH1 0x0 PUSH1 0x20 PUSH1 0x1F DUP4 ADD DIV SWAP1 POP SWAP2 SWAP1 POP JUMP JUMPDEST PUSH1 0x0 DUP3 DUP3 SHL SWAP1 POP SWAP3 SWAP2 POP POP JUMP JUMPDEST PUSH1 0x0 PUSH1 0x8 DUP4 MUL PUSH3 0x3C8 PUSH32 0xFFFFFFFFFFFFFFFFFFFFFFFFFFFFFFFFFFFFFFFFFFFFFFFFFFFFFFFFFFFFFFFF DUP3 PUSH3 0x389 JUMP JUMPDEST PUSH3 0x3D4 DUP7 DUP4 PUSH3 0x389 JUMP JUMPDEST SWAP6 POP DUP1 NOT DUP5 AND SWAP4 POP DUP1 DUP7 AND DUP5 OR SWAP3 POP POP POP SWAP4 SWAP3 POP POP POP JUMP JUMPDEST PUSH1 0x0 DUP2 SWAP1 POP SWAP2 SWAP1 POP JUMP JUMPDEST PUSH1 0x0 PUSH3 0x417 PUSH3 0x411 PUSH3 0x40B DUP5 PUSH3 0x20A JUMP JUMPDEST PUSH3 0x3EC JUMP JUMPDEST PUSH3 0x20A JUMP JUMPDEST SWAP1 POP SWAP2 SWAP1 POP JUMP JUMPDEST PUSH1 0x0 DUP2 SWAP1 POP SWAP2 SWAP1 POP JUMP JUMPDEST PUSH3 0x433 DUP4 PUSH3 0x3F6 JUMP JUMPDEST PUSH3 0x44B PUSH3 0x442 DUP3 PUSH3 0x41E JUMP JUMPDEST DUP5 DUP5 SLOAD PUSH3 0x396 JUMP JUMPDEST DUP3 SSTORE POP POP POP POP JUMP JUMPDEST PUSH1 0x0 SWAP1 JUMP JUMPDEST PUSH3 0x462 PUSH3 0x453 JUMP JUMPDEST PUSH3 0x46F DUP2 DUP5 DUP5 PUSH3 0x428 JUMP JUMPDEST POP POP POP JUMP JUMPDEST JUMPDEST DUP2 DUP2 LT ISZERO PUSH3 0x497 JUMPI PUSH3 0x48B PUSH1 0x0 DUP3 PUSH3 0x458 JUMP JUMPDEST PUSH1 0x1 DUP2 ADD SWAP1 POP PUSH3 0x475 JUMP JUMPDEST POP POP JUMP JUMPDEST PUSH1 0x1F DUP3 GT ISZERO PUSH3 0x4E6 JUMPI PUSH3 0x4B0 DUP2 PUSH3 0x364 JUMP JUMPDEST PUSH3 0x4BB DUP5 PUSH3 0x379 JUMP JUMPDEST DUP2 ADD PUSH1 0x20 DUP6 LT ISZERO PUSH3 0x4CB JUMPI DUP2 SWAP1 POP JUMPDEST PUSH3 0x4E3 PUSH3 0x4DA DUP6 PUSH3 0x379 JUMP JUMPDEST DUP4 ADD DUP3 PUSH3 0x474 JUMP JUMPDEST POP POP JUMPDEST POP POP POP JUMP JUMPDEST PUSH1 0x0 DUP3 DUP3 SHR SWAP1 POP SWAP3 SWAP2 POP POP JUMP JUMPDEST PUSH1 0x0 PUSH3 0x50B PUSH1 0x0 NOT DUP5 PUSH1 0x8 MUL PUSH3 0x4EB JUMP JUMPDEST NOT DUP1 DUP4 AND SWAP2 POP POP SWAP3 SWAP2 POP POP JUMP JUMPDEST PUSH1 0x0 PUSH3 0x526 DUP4 DUP4 PUSH3 0x4F8 JUMP JUMPDEST SWAP2 POP DUP3 PUSH1 0x2 MUL DUP3 OR SWAP1 POP SWAP3 SWAP2 POP POP JUMP JUMPDEST PUSH3 0x541 DUP3 PUSH3 0x2F5 JUMP JUMPDEST PUSH8 0xFFFFFFFFFFFFFFFF DUP2 GT ISZERO PUSH3 0x55D JUMPI PUSH3 0x55C PUSH3 0xA6 JUMP JUMPDEST JUMPDEST PUSH3 0x569 DUP3 SLOAD PUSH3 0x32F JUMP JUMPDEST PUSH3 0x576 DUP3 DUP3 DUP6 PUSH3 0x49B JUMP JUMPDEST PUSH1 0x0 PUSH1 0x20 SWAP1 POP PUSH1 0x1F DUP4 GT PUSH1 0x1 DUP2 EQ PUSH3 0x5AE JUMPI PUSH1 0x0 DUP5 ISZERO PUSH3 0x599 JUMPI DUP3 DUP8 ADD MLOAD SWAP1 POP JUMPDEST PUSH3 0x5A5 DUP6 DUP3 PUSH3 0x518 JUMP JUMPDEST DUP7 SSTORE POP PUSH3 0x615 JUMP JUMPDEST PUSH1 0x1F NOT DUP5 AND PUSH3 0x5BE DUP7 PUSH3 0x364 JUMP JUMPDEST PUSH1 0x0 JUMPDEST DUP3 DUP2 LT ISZERO PUSH3 0x5E8 JUMPI DUP5 DUP10 ADD MLOAD DUP3 SSTORE PUSH1 0x1 DUP3 ADD SWAP2 POP PUSH1 0x20 DUP6 ADD SWAP5 POP PUSH1 0x20 DUP2 ADD SWAP1 POP PUSH3 0x5C1 JUMP JUMPDEST DUP7 DUP4 LT ISZERO PUSH3 0x608 JUMPI DUP5 DUP10 ADD MLOAD PUSH3 0x604 PUSH1 0x1F DUP10 AND DUP3 PUSH3 0x4F8 JUMP JUMPDEST DUP4 SSTORE POP JUMPDEST PUSH1 0x1 PUSH1 0x2 DUP9 MUL ADD DUP9 SSTORE POP POP POP JUMPDEST POP POP POP POP POP POP JUMP JUMPDEST PUSH2 0x36D DUP1 PUSH3 0x62D PUSH1 0x0 CODECOPY PUSH1 0x0 RETURN INVALID PUSH1 0x80 PUSH1 0x40 MSTORE CALLVALUE DUP1 ISZERO PUSH2 0x10 JUMPI PUSH1 0x0 DUP1 REVERT JUMPDEST POP PUSH1 0x4 CALLDATASIZE LT PUSH2 0x4C JUMPI PUSH1 0x0 CALLDATALOAD PUSH1 0xE0 SHR DUP1 PUSH4 0xAD9D052 EQ PUSH2 0x51 JUMPI DUP1 PUSH4 0x15585289 EQ PUSH2 0x6F JUMPI DUP1 PUSH4 0xC6DAD082 EQ PUSH2 0x8D JUMPI DUP1 PUSH4 0xF3269716 EQ PUSH2 0xAB JUMPI JUMPDEST PUSH1 0x0 DUP1 REVERT JUMPDEST PUSH2 0x59 PUSH2 0xC9 JUMP JUMPDEST PUSH1 0x40 MLOAD PUSH2 0x66 SWAP2 SWAP1 PUSH2 0x281 JUMP JUMPDEST PUSH1 0x40 MLOAD DUP1 SWAP2 SUB SWAP1 RETURN JUMPDEST PUSH2 0x77 PUSH2 0x157 JUMP JUMPDEST PUSH1 0x40 MLOAD PUSH2 0x84 SWAP2 SWAP1 PUSH2 0x2BC JUMP JUMPDEST PUSH1 0x40 MLOAD DUP1 SWAP2 SUB SWAP1 RETURN JUMPDEST PUSH2 0x95 PUSH2 0x15D JUMP JUMPDEST PUSH1 0x40 MLOAD PUSH2 0xA2 SWAP2 SWAP1 PUSH2 0x281 JUMP JUMPDEST PUSH1 0x40 MLOAD DUP1 SWAP2 SUB SWAP1 RETURN JUMPDEST PUSH2 0xB3 PUSH2 0x1EB JUMP JUMPDEST PUSH1 0x40 MLOAD PUSH2 0xC0 SWAP2 SWAP1 PUSH2 0x2BC JUMP JUMPDEST PUSH1 0x40 MLOAD DUP1 SWAP2 SUB SWAP1 RETURN JUMPDEST PUSH1 0x3 DUP1 SLOAD PUSH2 0xD6 SWAP1 PUSH2 0x306 JUMP JUMPDEST DUP1 PUSH1 0x1F ADD PUSH1 0x20 DUP1 SWAP2 DIV MUL PUSH1 0x20 ADD PUSH1 0x40 MLOAD SWAP1 DUP2 ADD PUSH1 0x40 MSTORE DUP1 SWAP3 SWAP2 SWAP1 DUP2 DUP2 MSTORE PUSH1 0x20 ADD DUP3 DUP1 SLOAD PUSH2 0x102 SWAP1 PUSH2 0x306 JUMP JUMPDEST DUP1 ISZERO PUSH2 0x14F JUMPI DUP1 PUSH1 0x1F LT PUSH2 0x124 JUMPI PUSH2 0x100 DUP1 DUP4 SLOAD DIV MUL DUP4 MSTORE SWAP2 PUSH1 0x20 ADD SWAP2 PUSH2 0x14F JUMP JUMPDEST DUP3 ADD SWAP2 SWAP1 PUSH1 0x0 MSTORE PUSH1 0x20 PUSH1 0x0 KECCAK256 SWAP1 JUMPDEST DUP2 SLOAD DUP2 MSTORE SWAP1 PUSH1 0x1 ADD SWAP1 PUSH1 0x20 ADD DUP1 DUP4 GT PUSH2 0x132 JUMPI DUP3 SWAP1 SUB PUSH1 0x1F AND DUP3 ADD SWAP2 JUMPDEST POP POP POP POP POP DUP2 JUMP JUMPDEST PUSH1 0x0 SLOAD DUP2 JUMP JUMPDEST PUSH1 0x2 DUP1 SLOAD PUSH2 0x16A SWAP1 PUSH2 0x306 JUMP JUMPDEST DUP1 PUSH1 0x1F ADD PUSH1 0x20 DUP1 SWAP2 DIV MUL PUSH1 0x20 ADD PUSH1 0x40 MLOAD SWAP1 DUP2 ADD PUSH1 0x40 MSTORE DUP1 SWAP3 SWAP2 SWAP1 DUP2 DUP2 MSTORE PUSH1 0x20 ADD DUP3 DUP1 SLOAD PUSH2 0x196 SWAP1 PUSH2 0x306 JUMP JUMPDEST DUP1 ISZERO PUSH2 0x1E3 JUMPI DUP1 PUSH1 0x1F LT PUSH2 0x1B8 JUMPI PUSH2 0x100 DUP1 DUP4 SLOAD DIV MUL DUP4 MSTORE SWAP2 PUSH1 0x20 ADD SWAP2 PUSH2 0x1E3 JUMP JUMPDEST DUP3 ADD SWAP2 SWAP1 PUSH1 0x0 MSTORE PUSH1 0x20 PUSH1 0x0 KECCAK256 SWAP1 JUMPDEST DUP2 SLOAD DUP2 MSTORE SWAP1 PUSH1 0x1 ADD SWAP1 PUSH1 0x20 ADD DUP1 DUP4 GT PUSH2 0x1C6 JUMPI DUP3 SWAP1 SUB PUSH1 0x1F AND DUP3 ADD SWAP2 JUMPDEST POP POP POP POP POP DUP2 JUMP JUMPDEST PUSH1 0x1 SLOAD DUP2 JUMP JUMPDEST PUSH1 0x0 DUP2 MLOAD SWAP1 POP SWAP2 SWAP1 POP JUMP JUMPDEST PUSH1 0x0 DUP3 DUP3 MSTORE PUSH1 0x20 DUP3 ADD SWAP1 POP SWAP3 SWAP2 POP POP JUMP JUMPDEST PUSH1 0x0 JUMPDEST DUP4 DUP2 LT ISZERO PUSH2 0x22B JUMPI DUP1 DUP3 ADD MLOAD DUP2 DUP5 ADD MSTORE PUSH1 0x20 DUP2 ADD SWAP1 POP PUSH2 0x210 JUMP JUMPDEST PUSH1 0x0 DUP5 DUP5 ADD MSTORE POP POP POP POP JUMP JUMPDEST PUSH1 0x0 PUSH1 0x1F NOT PUSH1 0x1F DUP4 ADD AND SWAP1 POP SWAP2 SWAP1 POP JUMP JUMPDEST PUSH1 0x0 PUSH2 0x253 DUP3 PUSH2 0x1F1 JUMP JUMPDEST PUSH2 0x25D DUP2 DUP6 PUSH2 0x1FC JUMP JUMPDEST SWAP4 POP PUSH2 0x26D DUP2 DUP6 PUSH1 0x20 DUP7 ADD PUSH2 0x20D JUMP JUMPDEST PUSH2 0x276 DUP2 PUSH2 0x237 JUMP JUMPDEST DUP5 ADD SWAP2 POP POP SWAP3 SWAP2 POP POP JUMP JUMPDEST PUSH1 0x0 PUSH1 0x20 DUP3 ADD SWAP1 POP DUP2 DUP2 SUB PUSH1 0x0 DUP4 ADD MSTORE PUSH2 0x29B DUP2 DUP5 PUSH2 0x248 JUMP JUMPDEST SWAP1 POP SWAP3 SWAP2 POP POP JUMP JUMPDEST PUSH1 0x0 DUP2 SWAP1 POP SWAP2 SWAP1 POP JUMP JUMPDEST PUSH2 0x2B6 DUP2 PUSH2 0x2A3 JUMP JUMPDEST DUP3 MSTORE POP POP JUMP JUMPDEST PUSH1 0x0 PUSH1 0x20 DUP3 ADD SWAP1 POP PUSH2 0x2D1 PUSH1 0x0 DUP4 ADD DUP5 PUSH2 0x2AD JUMP JUMPDEST SWAP3 SWAP2 POP POP JUMP JUMPDEST PUSH32 0x4E487B7100000000000000000000000000000000000000000000000000000000 PUSH1 0x0 MSTORE PUSH1 0x22 PUSH1 0x4 MSTORE PUSH1 0x24 PUSH1 0x0 REVERT JUMPDEST PUSH1 0x0 PUSH1 0x2 DUP3 DIV SWAP1 POP PUSH1 0x1 DUP3 AND DUP1 PUSH2 0x31E JUMPI PUSH1 0x7F DUP3 AND SWAP2 POP JUMPDEST PUSH1 0x20 DUP3 LT DUP2 SUB PUSH2 0x331 JUMPI PUSH2 0x330 PUSH2 0x2D7 JUMP JUMPDEST JUMPDEST POP SWAP2 SWAP1 POP JUMP INVALID LOG2 PUSH5 0x6970667358 0x22 SLT KECCAK256 SWAP14 0x5C 0xE1 0x22 PUSH22 0x6A63A9766FDDE27488CAEA30ED7B2D4FABE45A04A1D1 0xB5 0xF6 0xD8 CODECOPY DUP5 PUSH5 0x736F6C6343 STOP ADDMOD SLT STOP CALLER "
		},
		"gasEstimates": {
			"creation": {
				"codeDepositCost": "175400",
				"executionCost": "infinite",
				"totalCost": "infinite"
			},
			"external": {
				"make()": "infinite",
				"mileage()": "2429",
				"model()": "infinite",
				"year()": "2473"
			}
		},
		"methodIdentifiers": {
			"make()": "c6dad082",
			"mileage()": "15585289",
			"model()": "0ad9d052",
			"year()": "f3269716"
		}
	},
	"abi": [
		{
			"inputs": [
				{
					"internalType": "string",
					"name": "_make",
					"type": "string"
				},
				{
					"internalType": "string",
					"name": "_model",
					"type": "string"
				},
				{
					"internalType": "uint256",
					"name": "_mileage",
					"type": "uint256"
				},
				{
					"internalType": "uint256",
					"name": "_year",
					"type": "uint256"
				}
			],
			"stateMutability": "nonpayable",
			"type": "constructor"
		},
		{
			"inputs": [],
			"name": "make",
			"outputs": [
				{
					"internalType": "string",
					"name": "",
					"type": "string"
				}
			],
			"stateMutability": "view",
			"type": "function"
		},
		{
			"inputs": [],
			"name": "mileage",
			"outputs": [
				{
					"internalType": "uint256",
					"name": "",
					"type": "uint256"
				}
			],
			"stateMutability": "view",
			"type": "function"
		},
		{
			"inputs": [],
			"name": "model",
			"outputs": [
				{
					"internalType": "string",
					"name": "",
					"type": "string"
				}
			],
			"stateMutability": "view",
			"type": "function"
		},
		{
			"inputs": [],
			"name": "year",
			"outputs": [
				{
					"internalType": "uint256",
					"name": "",
					"type": "uint256"
				}
			],
			"stateMutability": "view",
			"type": "function"
		}
	]
}