{
	"data": {
		"bytecode": {
			"linkReferences": {},
			"object": "608060405234801561001057600080fd5b5061042f806100206000396000f3fe60806040526004361061003f5760003560e01c80634cc822151461004457806371e5ee5f1461006d57806378321efb146100aa578063e60ee411146100d3575b600080fd5b34801561005057600080fd5b5061006b6004803603810190610066919061027f565b6100ef565b005b34801561007957600080fd5b50610094600480360381019061008f919061027f565b610114565b6040516100a191906102bb565b60405180910390f35b3480156100b657600080fd5b506100d160048036038101906100cc919061027f565b610138565b005b6100ed60048036038101906100e8919061027f565b610164565b005b60008181548110610103576101026102d6565b5b906000526020600020016000905550565b6000818154811061012457600080fd5b906000526020600020016000915090505481565b600081908060018154018082558091505060019003906000526020600020016000909190919091505550565b60008080549050116101ab576040517f08c379a00000000000000000000000000000000000000000000000000000000081526004016101a290610362565b60405180910390fd5b60005b6000805490508110156102405781600082815481106101d0576101cf6102d6565b5b9060005260206000200154146101e557600080fd5b81600082815481106101fa576101f96102d6565b5b90600052602060002001540361022d576000818154811061021e5761021d6102d6565b5b90600052602060002001600090555b8080610238906103b1565b9150506101ae565b5050565b600080fd5b6000819050919050565b61025c81610249565b811461026757600080fd5b50565b60008135905061027981610253565b92915050565b60006020828403121561029557610294610244565b5b60006102a38482850161026a565b91505092915050565b6102b581610249565b82525050565b60006020820190506102d060008301846102ac565b92915050565b7f4e487b7100000000000000000000000000000000000000000000000000000000600052603260045260246000fd5b600082825260208201905092915050565b7f696e76616c696400000000000000000000000000000000000000000000000000600082015250565b600061034c600783610305565b915061035782610316565b602082019050919050565b6000602082019050818103600083015261037b8161033f565b9050919050565b7f4e487b7100000000000000000000000000000000000000000000000000000000600052601160045260246000fd5b60006103bc82610249565b91507fffffffffffffffffffffffffffffffffffffffffffffffffffffffffffffffff82036103ee576103ed610382565b5b60018201905091905056fea26469706673582212209ccb7c5a623ec05bc8cf45c50d4aea8c39421f13a03fbcc863daadaa24679d2764736f6c63430008120033",
			"opcodes": "PUSH1 0x80 PUSH1 0x40 MSTORE CALLVALUE DUP1 ISZERO PUSH2 0x10 JUMPI PUSH1 0x0 DUP1 REVERT JUMPDEST POP PUSH2 0x42F DUP1 PUSH2 0x20 PUSH1 0x0 CODECOPY PUSH1 0x0 RETURN INVALID PUSH1 0x80 PUSH1 0x40 MSTORE PUSH1 0x4 CALLDATASIZE LT PUSH2 0x3F JUMPI PUSH1 0x0 CALLDATALOAD PUSH1 0xE0 SHR DUP1 PUSH4 0x4CC82215 EQ PUSH2 0x44 JUMPI DUP1 PUSH4 0x71E5EE5F EQ PUSH2 0x6D JUMPI DUP1 PUSH4 0x78321EFB EQ PUSH2 0xAA JUMPI DUP1 PUSH4 0xE60EE411 EQ PUSH2 0xD3 JUMPI JUMPDEST PUSH1 0x0 DUP1 REVERT JUMPDEST CALLVALUE DUP1 ISZERO PUSH2 0x50 JUMPI PUSH1 0x0 DUP1 REVERT JUMPDEST POP PUSH2 0x6B PUSH1 0x4 DUP1 CALLDATASIZE SUB DUP2 ADD SWAP1 PUSH2 0x66 SWAP2 SWAP1 PUSH2 0x27F JUMP JUMPDEST PUSH2 0xEF JUMP JUMPDEST STOP JUMPDEST CALLVALUE DUP1 ISZERO PUSH2 0x79 JUMPI PUSH1 0x0 DUP1 REVERT JUMPDEST POP PUSH2 0x94 PUSH1 0x4 DUP1 CALLDATASIZE SUB DUP2 ADD SWAP1 PUSH2 0x8F SWAP2 SWAP1 PUSH2 0x27F JUMP JUMPDEST PUSH2 0x114 JUMP JUMPDEST PUSH1 0x40 MLOAD PUSH2 0xA1 SWAP2 SWAP1 PUSH2 0x2BB JUMP JUMPDEST PUSH1 0x40 MLOAD DUP1 SWAP2 SUB SWAP1 RETURN JUMPDEST CALLVALUE DUP1 ISZERO PUSH2 0xB6 JUMPI PUSH1 0x0 DUP1 REVERT JUMPDEST POP PUSH2 0xD1 PUSH1 0x4 DUP1 CALLDATASIZE SUB DUP2 ADD SWAP1 PUSH2 0xCC SWAP2 SWAP1 PUSH2 0x27F JUMP JUMPDEST PUSH2 0x138 JUMP JUMPDEST STOP JUMPDEST PUSH2 0xED PUSH1 0x4 DUP1 CALLDATASIZE SUB DUP2 ADD SWAP1 PUSH2 0xE8 SWAP2 SWAP1 PUSH2 0x27F JUMP JUMPDEST PUSH2 0x164 JUMP JUMPDEST STOP JUMPDEST PUSH1 0x0 DUP2 DUP2 SLOAD DUP2 LT PUSH2 0x103 JUMPI PUSH2 0x102 PUSH2 0x2D6 JUMP JUMPDEST JUMPDEST SWAP1 PUSH1 0x0 MSTORE PUSH1 0x20 PUSH1 0x0 KECCAK256 ADD PUSH1 0x0 SWAP1 SSTORE POP JUMP JUMPDEST PUSH1 0x0 DUP2 DUP2 SLOAD DUP2 LT PUSH2 0x124 JUMPI PUSH1 0x0 DUP1 REVERT JUMPDEST SWAP1 PUSH1 0x0 MSTORE PUSH1 0x20 PUSH1 0x0 KECCAK256 ADD PUSH1 0x0 SWAP2 POP SWAP1 POP SLOAD DUP2 JUMP JUMPDEST PUSH1 0x0 DUP2 SWAP1 DUP1 PUSH1 0x1 DUP2 SLOAD ADD DUP1 DUP3 SSTORE DUP1 SWAP2 POP POP PUSH1 0x1 SWAP1 SUB SWAP1 PUSH1 0x0 MSTORE PUSH1 0x20 PUSH1 0x0 KECCAK256 ADD PUSH1 0x0 SWAP1 SWAP2 SWAP1 SWAP2 SWAP1 SWAP2 POP SSTORE POP JUMP JUMPDEST PUSH1 0x0 DUP1 DUP1 SLOAD SWAP1 POP GT PUSH2 0x1AB JUMPI PUSH1 0x40 MLOAD PUSH32 0x8C379A000000000000000000000000000000000000000000000000000000000 DUP2 MSTORE PUSH1 0x4 ADD PUSH2 0x1A2 SWAP1 PUSH2 0x362 JUMP JUMPDEST PUSH1 0x40 MLOAD DUP1 SWAP2 SUB SWAP1 REVERT JUMPDEST PUSH1 0x0 JUMPDEST PUSH1 0x0 DUP1 SLOAD SWAP1 POP DUP2 LT ISZERO PUSH2 0x240 JUMPI DUP2 PUSH1 0x0 DUP3 DUP2 SLOAD DUP2 LT PUSH2 0x1D0 JUMPI PUSH2 0x1CF PUSH2 0x2D6 JUMP JUMPDEST JUMPDEST SWAP1 PUSH1 0x0 MSTORE PUSH1 0x20 PUSH1 0x0 KECCAK256 ADD SLOAD EQ PUSH2 0x1E5 JUMPI PUSH1 0x0 DUP1 REVERT JUMPDEST DUP2 PUSH1 0x0 DUP3 DUP2 SLOAD DUP2 LT PUSH2 0x1FA JUMPI PUSH2 0x1F9 PUSH2 0x2D6 JUMP JUMPDEST JUMPDEST SWAP1 PUSH1 0x0 MSTORE PUSH1 0x20 PUSH1 0x0 KECCAK256 ADD SLOAD SUB PUSH2 0x22D JUMPI PUSH1 0x0 DUP2 DUP2 SLOAD DUP2 LT PUSH2 0x21E JUMPI PUSH2 0x21D PUSH2 0x2D6 JUMP JUMPDEST JUMPDEST SWAP1 PUSH1 0x0 MSTORE PUSH1 0x20 PUSH1 0x0 KECCAK256 ADD PUSH1 0x0 SWAP1 SSTORE JUMPDEST DUP1 DUP1 PUSH2 0x238 SWAP1 PUSH2 0x3B1 JUMP JUMPDEST SWAP2 POP POP PUSH2 0x1AE JUMP JUMPDEST POP POP JUMP JUMPDEST PUSH1 0x0 DUP1 REVERT JUMPDEST PUSH1 0x0 DUP2 SWAP1 POP SWAP2 SWAP1 POP JUMP JUMPDEST PUSH2 0x25C DUP2 PUSH2 0x249 JUMP JUMPDEST DUP2 EQ PUSH2 0x267 JUMPI PUSH1 0x0 DUP1 REVERT JUMPDEST POP JUMP JUMPDEST PUSH1 0x0 DUP2 CALLDATALOAD SWAP1 POP PUSH2 0x279 DUP2 PUSH2 0x253 JUMP JUMPDEST SWAP3 SWAP2 POP POP JUMP JUMPDEST PUSH1 0x0 PUSH1 0x20 DUP3 DUP5 SUB SLT ISZERO PUSH2 0x295 JUMPI PUSH2 0x294 PUSH2 0x244 JUMP JUMPDEST JUMPDEST PUSH1 0x0 PUSH2 0x2A3 DUP5 DUP3 DUP6 ADD PUSH2 0x26A JUMP JUMPDEST SWAP2 POP POP SWAP3 SWAP2 POP POP JUMP JUMPDEST PUSH2 0x2B5 DUP2 PUSH2 0x249 JUMP JUMPDEST DUP3 MSTORE POP POP JUMP JUMPDEST PUSH1 0x0 PUSH1 0x20 DUP3 ADD SWAP1 POP PUSH2 0x2D0 PUSH1 0x0 DUP4 ADD DUP5 PUSH2 0x2AC JUMP JUMPDEST SWAP3 SWAP2 POP POP JUMP JUMPDEST PUSH32 0x4E487B7100000000000000000000000000000000000000000000000000000000 PUSH1 0x0 MSTORE PUSH1 0x32 PUSH1 0x4 MSTORE PUSH1 0x24 PUSH1 0x0 REVERT JUMPDEST PUSH1 0x0 DUP3 DUP3 MSTORE PUSH1 0x20 DUP3 ADD SWAP1 POP SWAP3 SWAP2 POP POP JUMP JUMPDEST PUSH32 0x696E76616C696400000000000000000000000000000000000000000000000000 PUSH1 0x0 DUP3 ADD MSTORE POP JUMP JUMPDEST PUSH1 0x0 PUSH2 0x34C PUSH1 0x7 DUP4 PUSH2 0x305 JUMP JUMPDEST SWAP2 POP PUSH2 0x357 DUP3 PUSH2 0x316 JUMP JUMPDEST PUSH1 0x20 DUP3 ADD SWAP1 POP SWAP2 SWAP1 POP JUMP JUMPDEST PUSH1 0x0 PUSH1 0x20 DUP3 ADD SWAP1 POP DUP2 DUP2 SUB PUSH1 0x0 DUP4 ADD MSTORE PUSH2 0x37B DUP2 PUSH2 0x33F JUMP JUMPDEST SWAP1 POP SWAP2 SWAP1 POP JUMP JUMPDEST PUSH32 0x4E487B7100000000000000000000000000000000000000000000000000000000 PUSH1 0x0 MSTORE PUSH1 0x11 PUSH1 0x4 MSTORE PUSH1 0x24 PUSH1 0x0 REVERT JUMPDEST PUSH1 0x0 PUSH2 0x3BC DUP3 PUSH2 0x249 JUMP JUMPDEST SWAP2 POP PUSH32 0xFFFFFFFFFFFFFFFFFFFFFFFFFFFFFFFFFFFFFFFFFFFFFFFFFFFFFFFFFFFFFFFF DUP3 SUB PUSH2 0x3EE JUMPI PUSH2 0x3ED PUSH2 0x382 JUMP JUMPDEST JUMPDEST PUSH1 0x1 DUP3 ADD SWAP1 POP SWAP2 SWAP1 POP JUMP INVALID LOG2 PUSH5 0x6970667358 0x22 SLT KECCAK256 SWAP13 0xCB PUSH29 0x5A623EC05BC8CF45C50D4AEA8C39421F13A03FBCC863DAADAA24679D27 PUSH5 0x736F6C6343 STOP ADDMOD SLT STOP CALLER "
		},
		"gasEstimates": {
			"creation": {
				"codeDepositCost": "214200",
				"executionCost": "257",
				"totalCost": "214457"
			},
			"external": {
				"arr(uint256)": "infinite",
				"pushElement(uint256)": "46851",
				"remove(uint256)": "7573",
				"removeByValue(uint256)": "infinite"
			}
		},
		"methodIdentifiers": {
			"arr(uint256)": "71e5ee5f",
			"pushElement(uint256)": "78321efb",
			"remove(uint256)": "4cc82215",
			"removeByValue(uint256)": "e60ee411"
		}
	},
	"abi": [
		{
			"inputs": [
				{
					"internalType": "uint256",
					"name": "",
					"type": "uint256"
				}
			],
			"name": "arr",
			"outputs": [
				{
					"internalType": "uint256",
					"name": "",
					"type": "uint256"
				}
			],
			"stateMutability": "view",
			"type": "function"
		},
		{
			"inputs": [
				{
					"internalType": "uint256",
					"name": "value",
					"type": "uint256"
				}
			],
			"name": "pushElement",
			"outputs": [],
			"stateMutability": "nonpayable",
			"type": "function"
		},
		{
			"inputs": [
				{
					"internalType": "uint256",
					"name": "index",
					"type": "uint256"
				}
			],
			"name": "remove",
			"outputs": [],
			"stateMutability": "nonpayable",
			"type": "function"
		},
		{
			"inputs": [
				{
					"internalType": "uint256",
					"name": "valueRemove",
					"type": "uint256"
				}
			],
			"name": "removeByValue",
			"outputs": [],
			"stateMutability": "payable",
			"type": "function"
		}
	]
}