{
	"data": {
		"bytecode": {
			"linkReferences": {},
			"object": "608060405234801561001057600080fd5b50610327806100206000396000f3fe608060405234801561001057600080fd5b506004361061004c5760003560e01c80634cc822151461005157806371e5ee5f1461006d57806378321efb1461009d578063e60ee411146100b9575b600080fd5b61006b600480360381019061006691906101f4565b6100d5565b005b610087600480360381019061008291906101f4565b6100fa565b6040516100949190610230565b60405180910390f35b6100b760048036038101906100b291906101f4565b61011e565b005b6100d360048036038101906100ce91906101f4565b61014a565b005b600081815481106100e9576100e861024b565b5b906000526020600020016000905550565b6000818154811061010a57600080fd5b906000526020600020016000915090505481565b600081908060018154018082558091505060019003906000526020600020016000909190919091505550565b60005b6000805490508110156101b557816000828154811061016f5761016e61024b565b5b9060005260206000200154036101a257600081815481106101935761019261024b565b5b90600052602060002001600090555b80806101ad906102a9565b91505061014d565b5050565b600080fd5b6000819050919050565b6101d1816101be565b81146101dc57600080fd5b50565b6000813590506101ee816101c8565b92915050565b60006020828403121561020a576102096101b9565b5b6000610218848285016101df565b91505092915050565b61022a816101be565b82525050565b60006020820190506102456000830184610221565b92915050565b7f4e487b7100000000000000000000000000000000000000000000000000000000600052603260045260246000fd5b7f4e487b7100000000000000000000000000000000000000000000000000000000600052601160045260246000fd5b60006102b4826101be565b91507fffffffffffffffffffffffffffffffffffffffffffffffffffffffffffffffff82036102e6576102e561027a565b5b60018201905091905056fea26469706673582212202d920a7d7ead4c587967d3f59d0c792ebf4a78dfec302112bb582312af96eb6d64736f6c63430008120033",
			"opcodes": "PUSH1 0x80 PUSH1 0x40 MSTORE CALLVALUE DUP1 ISZERO PUSH2 0x10 JUMPI PUSH1 0x0 DUP1 REVERT JUMPDEST POP PUSH2 0x327 DUP1 PUSH2 0x20 PUSH1 0x0 CODECOPY PUSH1 0x0 RETURN INVALID PUSH1 0x80 PUSH1 0x40 MSTORE CALLVALUE DUP1 ISZERO PUSH2 0x10 JUMPI PUSH1 0x0 DUP1 REVERT JUMPDEST POP PUSH1 0x4 CALLDATASIZE LT PUSH2 0x4C JUMPI PUSH1 0x0 CALLDATALOAD PUSH1 0xE0 SHR DUP1 PUSH4 0x4CC82215 EQ PUSH2 0x51 JUMPI DUP1 PUSH4 0x71E5EE5F EQ PUSH2 0x6D JUMPI DUP1 PUSH4 0x78321EFB EQ PUSH2 0x9D JUMPI DUP1 PUSH4 0xE60EE411 EQ PUSH2 0xB9 JUMPI JUMPDEST PUSH1 0x0 DUP1 REVERT JUMPDEST PUSH2 0x6B PUSH1 0x4 DUP1 CALLDATASIZE SUB DUP2 ADD SWAP1 PUSH2 0x66 SWAP2 SWAP1 PUSH2 0x1F4 JUMP JUMPDEST PUSH2 0xD5 JUMP JUMPDEST STOP JUMPDEST PUSH2 0x87 PUSH1 0x4 DUP1 CALLDATASIZE SUB DUP2 ADD SWAP1 PUSH2 0x82 SWAP2 SWAP1 PUSH2 0x1F4 JUMP JUMPDEST PUSH2 0xFA JUMP JUMPDEST PUSH1 0x40 MLOAD PUSH2 0x94 SWAP2 SWAP1 PUSH2 0x230 JUMP JUMPDEST PUSH1 0x40 MLOAD DUP1 SWAP2 SUB SWAP1 RETURN JUMPDEST PUSH2 0xB7 PUSH1 0x4 DUP1 CALLDATASIZE SUB DUP2 ADD SWAP1 PUSH2 0xB2 SWAP2 SWAP1 PUSH2 0x1F4 JUMP JUMPDEST PUSH2 0x11E JUMP JUMPDEST STOP JUMPDEST PUSH2 0xD3 PUSH1 0x4 DUP1 CALLDATASIZE SUB DUP2 ADD SWAP1 PUSH2 0xCE SWAP2 SWAP1 PUSH2 0x1F4 JUMP JUMPDEST PUSH2 0x14A JUMP JUMPDEST STOP JUMPDEST PUSH1 0x0 DUP2 DUP2 SLOAD DUP2 LT PUSH2 0xE9 JUMPI PUSH2 0xE8 PUSH2 0x24B JUMP JUMPDEST JUMPDEST SWAP1 PUSH1 0x0 MSTORE PUSH1 0x20 PUSH1 0x0 KECCAK256 ADD PUSH1 0x0 SWAP1 SSTORE POP JUMP JUMPDEST PUSH1 0x0 DUP2 DUP2 SLOAD DUP2 LT PUSH2 0x10A JUMPI PUSH1 0x0 DUP1 REVERT JUMPDEST SWAP1 PUSH1 0x0 MSTORE PUSH1 0x20 PUSH1 0x0 KECCAK256 ADD PUSH1 0x0 SWAP2 POP SWAP1 POP SLOAD DUP2 JUMP JUMPDEST PUSH1 0x0 DUP2 SWAP1 DUP1 PUSH1 0x1 DUP2 SLOAD ADD DUP1 DUP3 SSTORE DUP1 SWAP2 POP POP PUSH1 0x1 SWAP1 SUB SWAP1 PUSH1 0x0 MSTORE PUSH1 0x20 PUSH1 0x0 KECCAK256 ADD PUSH1 0x0 SWAP1 SWAP2 SWAP1 SWAP2 SWAP1 SWAP2 POP SSTORE POP JUMP JUMPDEST PUSH1 0x0 JUMPDEST PUSH1 0x0 DUP1 SLOAD SWAP1 POP DUP2 LT ISZERO PUSH2 0x1B5 JUMPI DUP2 PUSH1 0x0 DUP3 DUP2 SLOAD DUP2 LT PUSH2 0x16F JUMPI PUSH2 0x16E PUSH2 0x24B JUMP JUMPDEST JUMPDEST SWAP1 PUSH1 0x0 MSTORE PUSH1 0x20 PUSH1 0x0 KECCAK256 ADD SLOAD SUB PUSH2 0x1A2 JUMPI PUSH1 0x0 DUP2 DUP2 SLOAD DUP2 LT PUSH2 0x193 JUMPI PUSH2 0x192 PUSH2 0x24B JUMP JUMPDEST JUMPDEST SWAP1 PUSH1 0x0 MSTORE PUSH1 0x20 PUSH1 0x0 KECCAK256 ADD PUSH1 0x0 SWAP1 SSTORE JUMPDEST DUP1 DUP1 PUSH2 0x1AD SWAP1 PUSH2 0x2A9 JUMP JUMPDEST SWAP2 POP POP PUSH2 0x14D JUMP JUMPDEST POP POP JUMP JUMPDEST PUSH1 0x0 DUP1 REVERT JUMPDEST PUSH1 0x0 DUP2 SWAP1 POP SWAP2 SWAP1 POP JUMP JUMPDEST PUSH2 0x1D1 DUP2 PUSH2 0x1BE JUMP JUMPDEST DUP2 EQ PUSH2 0x1DC JUMPI PUSH1 0x0 DUP1 REVERT JUMPDEST POP JUMP JUMPDEST PUSH1 0x0 DUP2 CALLDATALOAD SWAP1 POP PUSH2 0x1EE DUP2 PUSH2 0x1C8 JUMP JUMPDEST SWAP3 SWAP2 POP POP JUMP JUMPDEST PUSH1 0x0 PUSH1 0x20 DUP3 DUP5 SUB SLT ISZERO PUSH2 0x20A JUMPI PUSH2 0x209 PUSH2 0x1B9 JUMP JUMPDEST JUMPDEST PUSH1 0x0 PUSH2 0x218 DUP5 DUP3 DUP6 ADD PUSH2 0x1DF JUMP JUMPDEST SWAP2 POP POP SWAP3 SWAP2 POP POP JUMP JUMPDEST PUSH2 0x22A DUP2 PUSH2 0x1BE JUMP JUMPDEST DUP3 MSTORE POP POP JUMP JUMPDEST PUSH1 0x0 PUSH1 0x20 DUP3 ADD SWAP1 POP PUSH2 0x245 PUSH1 0x0 DUP4 ADD DUP5 PUSH2 0x221 JUMP JUMPDEST SWAP3 SWAP2 POP POP JUMP JUMPDEST PUSH32 0x4E487B7100000000000000000000000000000000000000000000000000000000 PUSH1 0x0 MSTORE PUSH1 0x32 PUSH1 0x4 MSTORE PUSH1 0x24 PUSH1 0x0 REVERT JUMPDEST PUSH32 0x4E487B7100000000000000000000000000000000000000000000000000000000 PUSH1 0x0 MSTORE PUSH1 0x11 PUSH1 0x4 MSTORE PUSH1 0x24 PUSH1 0x0 REVERT JUMPDEST PUSH1 0x0 PUSH2 0x2B4 DUP3 PUSH2 0x1BE JUMP JUMPDEST SWAP2 POP PUSH32 0xFFFFFFFFFFFFFFFFFFFFFFFFFFFFFFFFFFFFFFFFFFFFFFFFFFFFFFFFFFFFFFFF DUP3 SUB PUSH2 0x2E6 JUMPI PUSH2 0x2E5 PUSH2 0x27A JUMP JUMPDEST JUMPDEST PUSH1 0x1 DUP3 ADD SWAP1 POP SWAP2 SWAP1 POP JUMP INVALID LOG2 PUSH5 0x6970667358 0x22 SLT KECCAK256 0x2D SWAP3 EXP PUSH30 0x7EAD4C587967D3F59D0C792EBF4A78DFEC302112BB582312AF96EB6D6473 PUSH16 0x6C634300081200330000000000000000 "
		},
		"gasEstimates": {
			"creation": {
				"codeDepositCost": "161400",
				"executionCost": "208",
				"totalCost": "161608"
			},
			"external": {
				"arr(uint256)": "infinite",
				"pushElement(uint256)": "46851",
				"remove(uint256)": "7573",
				"removeByValue(uint256)": "infinite"
			}
		},
		"methodIdentifiers": {
			"arr(uint256)": "71e5ee5f",
			"pushElement(uint256)": "78321efb",
			"remove(uint256)": "4cc82215",
			"removeByValue(uint256)": "e60ee411"
		}
	},
	"abi": [
		{
			"inputs": [
				{
					"internalType": "uint256",
					"name": "",
					"type": "uint256"
				}
			],
			"name": "arr",
			"outputs": [
				{
					"internalType": "uint256",
					"name": "",
					"type": "uint256"
				}
			],
			"stateMutability": "view",
			"type": "function"
		},
		{
			"inputs": [
				{
					"internalType": "uint256",
					"name": "value",
					"type": "uint256"
				}
			],
			"name": "pushElement",
			"outputs": [],
			"stateMutability": "nonpayable",
			"type": "function"
		},
		{
			"inputs": [
				{
					"internalType": "uint256",
					"name": "index",
					"type": "uint256"
				}
			],
			"name": "remove",
			"outputs": [],
			"stateMutability": "nonpayable",
			"type": "function"
		},
		{
			"inputs": [
				{
					"internalType": "uint256",
					"name": "valueRemove",
					"type": "uint256"
				}
			],
			"name": "removeByValue",
			"outputs": [],
			"stateMutability": "nonpayable",
			"type": "function"
		}
	]
}