{
	"data": {
		"bytecode": {
			"linkReferences": {},
			"object": "608060405234801561001057600080fd5b50336000806101000a81548173ffffffffffffffffffffffffffffffffffffffff021916908373ffffffffffffffffffffffffffffffffffffffff160217905550610696806100606000396000f3fe6080604052600436106100435760003560e01c8063338ccd781461004f5780634c7389091461006b5780634ff404f1146100965780636f9fb98a146100ad5761004a565b3661004a57005b600080fd5b610069600480360381019061006491906103a5565b6100d8565b005b34801561007757600080fd5b506100806101fd565b60405161008d91906103eb565b60405180910390f35b3480156100a257600080fd5b506100ab61023d565b005b3480156100b957600080fd5b506100c261033a565b6040516100cf91906103eb565b60405180910390f35b6000340361011b576040517f08c379a000000000000000000000000000000000000000000000000000000000815260040161011290610463565b60405180910390fd5b600073ffffffffffffffffffffffffffffffffffffffff168173ffffffffffffffffffffffffffffffffffffffff160361018a576040517f08c379a0000000000000000000000000000000000000000000000000000000008152600401610181906104cf565b60405180910390fd5b6000606460053461019b919061051e565b6101a5919061058f565b90508173ffffffffffffffffffffffffffffffffffffffff166108fc82346101cd91906105c0565b9081150290604051600060405180830381858888f193505050501580156101f8573d6000803e3d6000fd5b505050565b60008060009054906101000a900473ffffffffffffffffffffffffffffffffffffffff1673ffffffffffffffffffffffffffffffffffffffff1631905090565b60004790503373ffffffffffffffffffffffffffffffffffffffff1660008054906101000a900473ffffffffffffffffffffffffffffffffffffffff1673ffffffffffffffffffffffffffffffffffffffff16146102d0576040517f08c379a00000000000000000000000000000000000000000000000000000000081526004016102c790610640565b60405180910390fd5b60008054906101000a900473ffffffffffffffffffffffffffffffffffffffff1673ffffffffffffffffffffffffffffffffffffffff166108fc829081150290604051600060405180830381858888f19350505050158015610336573d6000803e3d6000fd5b5050565b600047905090565b600080fd5b600073ffffffffffffffffffffffffffffffffffffffff82169050919050565b600061037282610347565b9050919050565b61038281610367565b811461038d57600080fd5b50565b60008135905061039f81610379565b92915050565b6000602082840312156103bb576103ba610342565b5b60006103c984828501610390565b91505092915050565b6000819050919050565b6103e5816103d2565b82525050565b600060208201905061040060008301846103dc565b92915050565b600082825260208201905092915050565b7f706c656173652073656e6420736f6d6520616d6f756e74000000000000000000600082015250565b600061044d601783610406565b915061045882610417565b602082019050919050565b6000602082019050818103600083015261047c81610440565b9050919050565b7f7a65726f2061646472657373206973206e6f7420616c6c6f7765640000000000600082015250565b60006104b9601b83610406565b91506104c482610483565b602082019050919050565b600060208201905081810360008301526104e8816104ac565b9050919050565b7f4e487b7100000000000000000000000000000000000000000000000000000000600052601160045260246000fd5b6000610529826103d2565b9150610534836103d2565b9250828202610542816103d2565b91508282048414831517610559576105586104ef565b5b5092915050565b7f4e487b7100000000000000000000000000000000000000000000000000000000600052601260045260246000fd5b600061059a826103d2565b91506105a5836103d2565b9250826105b5576105b4610560565b5b828204905092915050565b60006105cb826103d2565b91506105d6836103d2565b92508282039050818111156105ee576105ed6104ef565b5b92915050565b7f6e6f7420616c6c6f776564000000000000000000000000000000000000000000600082015250565b600061062a600b83610406565b9150610635826105f4565b602082019050919050565b600060208201905081810360008301526106598161061d565b905091905056fea2646970667358221220f7c47960d9e1afeeef33c9675cabe5c4c55c5532a81da2492a6cacb957b5870d64736f6c63430008120033",
			"opcodes": "PUSH1 0x80 PUSH1 0x40 MSTORE CALLVALUE DUP1 ISZERO PUSH2 0x10 JUMPI PUSH1 0x0 DUP1 REVERT JUMPDEST POP CALLER PUSH1 0x0 DUP1 PUSH2 0x100 EXP DUP2 SLOAD DUP2 PUSH20 0xFFFFFFFFFFFFFFFFFFFFFFFFFFFFFFFFFFFFFFFF MUL NOT AND SWAP1 DUP4 PUSH20 0xFFFFFFFFFFFFFFFFFFFFFFFFFFFFFFFFFFFFFFFF AND MUL OR SWAP1 SSTORE POP PUSH2 0x696 DUP1 PUSH2 0x60 PUSH1 0x0 CODECOPY PUSH1 0x0 RETURN INVALID PUSH1 0x80 PUSH1 0x40 MSTORE PUSH1 0x4 CALLDATASIZE LT PUSH2 0x43 JUMPI PUSH1 0x0 CALLDATALOAD PUSH1 0xE0 SHR DUP1 PUSH4 0x338CCD78 EQ PUSH2 0x4F JUMPI DUP1 PUSH4 0x4C738909 EQ PUSH2 0x6B JUMPI DUP1 PUSH4 0x4FF404F1 EQ PUSH2 0x96 JUMPI DUP1 PUSH4 0x6F9FB98A EQ PUSH2 0xAD JUMPI PUSH2 0x4A JUMP JUMPDEST CALLDATASIZE PUSH2 0x4A JUMPI STOP JUMPDEST PUSH1 0x0 DUP1 REVERT JUMPDEST PUSH2 0x69 PUSH1 0x4 DUP1 CALLDATASIZE SUB DUP2 ADD SWAP1 PUSH2 0x64 SWAP2 SWAP1 PUSH2 0x3A5 JUMP JUMPDEST PUSH2 0xD8 JUMP JUMPDEST STOP JUMPDEST CALLVALUE DUP1 ISZERO PUSH2 0x77 JUMPI PUSH1 0x0 DUP1 REVERT JUMPDEST POP PUSH2 0x80 PUSH2 0x1FD JUMP JUMPDEST PUSH1 0x40 MLOAD PUSH2 0x8D SWAP2 SWAP1 PUSH2 0x3EB JUMP JUMPDEST PUSH1 0x40 MLOAD DUP1 SWAP2 SUB SWAP1 RETURN JUMPDEST CALLVALUE DUP1 ISZERO PUSH2 0xA2 JUMPI PUSH1 0x0 DUP1 REVERT JUMPDEST POP PUSH2 0xAB PUSH2 0x23D JUMP JUMPDEST STOP JUMPDEST CALLVALUE DUP1 ISZERO PUSH2 0xB9 JUMPI PUSH1 0x0 DUP1 REVERT JUMPDEST POP PUSH2 0xC2 PUSH2 0x33A JUMP JUMPDEST PUSH1 0x40 MLOAD PUSH2 0xCF SWAP2 SWAP1 PUSH2 0x3EB JUMP JUMPDEST PUSH1 0x40 MLOAD DUP1 SWAP2 SUB SWAP1 RETURN JUMPDEST PUSH1 0x0 CALLVALUE SUB PUSH2 0x11B JUMPI PUSH1 0x40 MLOAD PUSH32 0x8C379A000000000000000000000000000000000000000000000000000000000 DUP2 MSTORE PUSH1 0x4 ADD PUSH2 0x112 SWAP1 PUSH2 0x463 JUMP JUMPDEST PUSH1 0x40 MLOAD DUP1 SWAP2 SUB SWAP1 REVERT JUMPDEST PUSH1 0x0 PUSH20 0xFFFFFFFFFFFFFFFFFFFFFFFFFFFFFFFFFFFFFFFF AND DUP2 PUSH20 0xFFFFFFFFFFFFFFFFFFFFFFFFFFFFFFFFFFFFFFFF AND SUB PUSH2 0x18A JUMPI PUSH1 0x40 MLOAD PUSH32 0x8C379A000000000000000000000000000000000000000000000000000000000 DUP2 MSTORE PUSH1 0x4 ADD PUSH2 0x181 SWAP1 PUSH2 0x4CF JUMP JUMPDEST PUSH1 0x40 MLOAD DUP1 SWAP2 SUB SWAP1 REVERT JUMPDEST PUSH1 0x0 PUSH1 0x64 PUSH1 0x5 CALLVALUE PUSH2 0x19B SWAP2 SWAP1 PUSH2 0x51E JUMP JUMPDEST PUSH2 0x1A5 SWAP2 SWAP1 PUSH2 0x58F JUMP JUMPDEST SWAP1 POP DUP2 PUSH20 0xFFFFFFFFFFFFFFFFFFFFFFFFFFFFFFFFFFFFFFFF AND PUSH2 0x8FC DUP3 CALLVALUE PUSH2 0x1CD SWAP2 SWAP1 PUSH2 0x5C0 JUMP JUMPDEST SWAP1 DUP2 ISZERO MUL SWAP1 PUSH1 0x40 MLOAD PUSH1 0x0 PUSH1 0x40 MLOAD DUP1 DUP4 SUB DUP2 DUP6 DUP9 DUP9 CALL SWAP4 POP POP POP POP ISZERO DUP1 ISZERO PUSH2 0x1F8 JUMPI RETURNDATASIZE PUSH1 0x0 DUP1 RETURNDATACOPY RETURNDATASIZE PUSH1 0x0 REVERT JUMPDEST POP POP POP JUMP JUMPDEST PUSH1 0x0 DUP1 PUSH1 0x0 SWAP1 SLOAD SWAP1 PUSH2 0x100 EXP SWAP1 DIV PUSH20 0xFFFFFFFFFFFFFFFFFFFFFFFFFFFFFFFFFFFFFFFF AND PUSH20 0xFFFFFFFFFFFFFFFFFFFFFFFFFFFFFFFFFFFFFFFF AND BALANCE SWAP1 POP SWAP1 JUMP JUMPDEST PUSH1 0x0 SELFBALANCE SWAP1 POP CALLER PUSH20 0xFFFFFFFFFFFFFFFFFFFFFFFFFFFFFFFFFFFFFFFF AND PUSH1 0x0 DUP1 SLOAD SWAP1 PUSH2 0x100 EXP SWAP1 DIV PUSH20 0xFFFFFFFFFFFFFFFFFFFFFFFFFFFFFFFFFFFFFFFF AND PUSH20 0xFFFFFFFFFFFFFFFFFFFFFFFFFFFFFFFFFFFFFFFF AND EQ PUSH2 0x2D0 JUMPI PUSH1 0x40 MLOAD PUSH32 0x8C379A000000000000000000000000000000000000000000000000000000000 DUP2 MSTORE PUSH1 0x4 ADD PUSH2 0x2C7 SWAP1 PUSH2 0x640 JUMP JUMPDEST PUSH1 0x40 MLOAD DUP1 SWAP2 SUB SWAP1 REVERT JUMPDEST PUSH1 0x0 DUP1 SLOAD SWAP1 PUSH2 0x100 EXP SWAP1 DIV PUSH20 0xFFFFFFFFFFFFFFFFFFFFFFFFFFFFFFFFFFFFFFFF AND PUSH20 0xFFFFFFFFFFFFFFFFFFFFFFFFFFFFFFFFFFFFFFFF AND PUSH2 0x8FC DUP3 SWAP1 DUP2 ISZERO MUL SWAP1 PUSH1 0x40 MLOAD PUSH1 0x0 PUSH1 0x40 MLOAD DUP1 DUP4 SUB DUP2 DUP6 DUP9 DUP9 CALL SWAP4 POP POP POP POP ISZERO DUP1 ISZERO PUSH2 0x336 JUMPI RETURNDATASIZE PUSH1 0x0 DUP1 RETURNDATACOPY RETURNDATASIZE PUSH1 0x0 REVERT JUMPDEST POP POP JUMP JUMPDEST PUSH1 0x0 SELFBALANCE SWAP1 POP SWAP1 JUMP JUMPDEST PUSH1 0x0 DUP1 REVERT JUMPDEST PUSH1 0x0 PUSH20 0xFFFFFFFFFFFFFFFFFFFFFFFFFFFFFFFFFFFFFFFF DUP3 AND SWAP1 POP SWAP2 SWAP1 POP JUMP JUMPDEST PUSH1 0x0 PUSH2 0x372 DUP3 PUSH2 0x347 JUMP JUMPDEST SWAP1 POP SWAP2 SWAP1 POP JUMP JUMPDEST PUSH2 0x382 DUP2 PUSH2 0x367 JUMP JUMPDEST DUP2 EQ PUSH2 0x38D JUMPI PUSH1 0x0 DUP1 REVERT JUMPDEST POP JUMP JUMPDEST PUSH1 0x0 DUP2 CALLDATALOAD SWAP1 POP PUSH2 0x39F DUP2 PUSH2 0x379 JUMP JUMPDEST SWAP3 SWAP2 POP POP JUMP JUMPDEST PUSH1 0x0 PUSH1 0x20 DUP3 DUP5 SUB SLT ISZERO PUSH2 0x3BB JUMPI PUSH2 0x3BA PUSH2 0x342 JUMP JUMPDEST JUMPDEST PUSH1 0x0 PUSH2 0x3C9 DUP5 DUP3 DUP6 ADD PUSH2 0x390 JUMP JUMPDEST SWAP2 POP POP SWAP3 SWAP2 POP POP JUMP JUMPDEST PUSH1 0x0 DUP2 SWAP1 POP SWAP2 SWAP1 POP JUMP JUMPDEST PUSH2 0x3E5 DUP2 PUSH2 0x3D2 JUMP JUMPDEST DUP3 MSTORE POP POP JUMP JUMPDEST PUSH1 0x0 PUSH1 0x20 DUP3 ADD SWAP1 POP PUSH2 0x400 PUSH1 0x0 DUP4 ADD DUP5 PUSH2 0x3DC JUMP JUMPDEST SWAP3 SWAP2 POP POP JUMP JUMPDEST PUSH1 0x0 DUP3 DUP3 MSTORE PUSH1 0x20 DUP3 ADD SWAP1 POP SWAP3 SWAP2 POP POP JUMP JUMPDEST PUSH32 0x706C656173652073656E6420736F6D6520616D6F756E74000000000000000000 PUSH1 0x0 DUP3 ADD MSTORE POP JUMP JUMPDEST PUSH1 0x0 PUSH2 0x44D PUSH1 0x17 DUP4 PUSH2 0x406 JUMP JUMPDEST SWAP2 POP PUSH2 0x458 DUP3 PUSH2 0x417 JUMP JUMPDEST PUSH1 0x20 DUP3 ADD SWAP1 POP SWAP2 SWAP1 POP JUMP JUMPDEST PUSH1 0x0 PUSH1 0x20 DUP3 ADD SWAP1 POP DUP2 DUP2 SUB PUSH1 0x0 DUP4 ADD MSTORE PUSH2 0x47C DUP2 PUSH2 0x440 JUMP JUMPDEST SWAP1 POP SWAP2 SWAP1 POP JUMP JUMPDEST PUSH32 0x7A65726F2061646472657373206973206E6F7420616C6C6F7765640000000000 PUSH1 0x0 DUP3 ADD MSTORE POP JUMP JUMPDEST PUSH1 0x0 PUSH2 0x4B9 PUSH1 0x1B DUP4 PUSH2 0x406 JUMP JUMPDEST SWAP2 POP PUSH2 0x4C4 DUP3 PUSH2 0x483 JUMP JUMPDEST PUSH1 0x20 DUP3 ADD SWAP1 POP SWAP2 SWAP1 POP JUMP JUMPDEST PUSH1 0x0 PUSH1 0x20 DUP3 ADD SWAP1 POP DUP2 DUP2 SUB PUSH1 0x0 DUP4 ADD MSTORE PUSH2 0x4E8 DUP2 PUSH2 0x4AC JUMP JUMPDEST SWAP1 POP SWAP2 SWAP1 POP JUMP JUMPDEST PUSH32 0x4E487B7100000000000000000000000000000000000000000000000000000000 PUSH1 0x0 MSTORE PUSH1 0x11 PUSH1 0x4 MSTORE PUSH1 0x24 PUSH1 0x0 REVERT JUMPDEST PUSH1 0x0 PUSH2 0x529 DUP3 PUSH2 0x3D2 JUMP JUMPDEST SWAP2 POP PUSH2 0x534 DUP4 PUSH2 0x3D2 JUMP JUMPDEST SWAP3 POP DUP3 DUP3 MUL PUSH2 0x542 DUP2 PUSH2 0x3D2 JUMP JUMPDEST SWAP2 POP DUP3 DUP3 DIV DUP5 EQ DUP4 ISZERO OR PUSH2 0x559 JUMPI PUSH2 0x558 PUSH2 0x4EF JUMP JUMPDEST JUMPDEST POP SWAP3 SWAP2 POP POP JUMP JUMPDEST PUSH32 0x4E487B7100000000000000000000000000000000000000000000000000000000 PUSH1 0x0 MSTORE PUSH1 0x12 PUSH1 0x4 MSTORE PUSH1 0x24 PUSH1 0x0 REVERT JUMPDEST PUSH1 0x0 PUSH2 0x59A DUP3 PUSH2 0x3D2 JUMP JUMPDEST SWAP2 POP PUSH2 0x5A5 DUP4 PUSH2 0x3D2 JUMP JUMPDEST SWAP3 POP DUP3 PUSH2 0x5B5 JUMPI PUSH2 0x5B4 PUSH2 0x560 JUMP JUMPDEST JUMPDEST DUP3 DUP3 DIV SWAP1 POP SWAP3 SWAP2 POP POP JUMP JUMPDEST PUSH1 0x0 PUSH2 0x5CB DUP3 PUSH2 0x3D2 JUMP JUMPDEST SWAP2 POP PUSH2 0x5D6 DUP4 PUSH2 0x3D2 JUMP JUMPDEST SWAP3 POP DUP3 DUP3 SUB SWAP1 POP DUP2 DUP2 GT ISZERO PUSH2 0x5EE JUMPI PUSH2 0x5ED PUSH2 0x4EF JUMP JUMPDEST JUMPDEST SWAP3 SWAP2 POP POP JUMP JUMPDEST PUSH32 0x6E6F7420616C6C6F776564000000000000000000000000000000000000000000 PUSH1 0x0 DUP3 ADD MSTORE POP JUMP JUMPDEST PUSH1 0x0 PUSH2 0x62A PUSH1 0xB DUP4 PUSH2 0x406 JUMP JUMPDEST SWAP2 POP PUSH2 0x635 DUP3 PUSH2 0x5F4 JUMP JUMPDEST PUSH1 0x20 DUP3 ADD SWAP1 POP SWAP2 SWAP1 POP JUMP JUMPDEST PUSH1 0x0 PUSH1 0x20 DUP3 ADD SWAP1 POP DUP2 DUP2 SUB PUSH1 0x0 DUP4 ADD MSTORE PUSH2 0x659 DUP2 PUSH2 0x61D JUMP JUMPDEST SWAP1 POP SWAP2 SWAP1 POP JUMP INVALID LOG2 PUSH5 0x6970667358 0x22 SLT KECCAK256 0xF7 0xC4 PUSH26 0x60D9E1AFEEEF33C9675CABE5C4C55C5532A81DA2492A6CACB957 0xB5 DUP8 0xD PUSH5 0x736F6C6343 STOP ADDMOD SLT STOP CALLER "
		},
		"gasEstimates": {
			"creation": {
				"codeDepositCost": "337200",
				"executionCost": "24640",
				"totalCost": "361840"
			},
			"external": {
				"getContractBalance()": "383",
				"getMyBalance()": "5079",
				"sendMoney(address)": "infinite",
				"withdrawContractBal()": "infinite"
			}
		},
		"methodIdentifiers": {
			"getContractBalance()": "6f9fb98a",
			"getMyBalance()": "4c738909",
			"sendMoney(address)": "338ccd78",
			"withdrawContractBal()": "4ff404f1"
		}
	},
	"abi": [
		{
			"inputs": [],
			"stateMutability": "nonpayable",
			"type": "constructor"
		},
		{
			"inputs": [],
			"name": "getContractBalance",
			"outputs": [
				{
					"internalType": "uint256",
					"name": "",
					"type": "uint256"
				}
			],
			"stateMutability": "view",
			"type": "function"
		},
		{
			"inputs": [],
			"name": "getMyBalance",
			"outputs": [
				{
					"internalType": "uint256",
					"name": "",
					"type": "uint256"
				}
			],
			"stateMutability": "view",
			"type": "function"
		},
		{
			"inputs": [
				{
					"internalType": "address payable",
					"name": "receiver",
					"type": "address"
				}
			],
			"name": "sendMoney",
			"outputs": [],
			"stateMutability": "payable",
			"type": "function"
		},
		{
			"inputs": [],
			"name": "withdrawContractBal",
			"outputs": [],
			"stateMutability": "nonpayable",
			"type": "function"
		},
		{
			"stateMutability": "payable",
			"type": "receive"
		}
	]
}